{
  "contractName": "BaconCoin1",
  "abi": [
    {
      "anonymous": false,
      "inputs": [
        {
          "indexed": true,
          "internalType": "address",
          "name": "owner",
          "type": "address"
        },
        {
          "indexed": true,
          "internalType": "address",
          "name": "spender",
          "type": "address"
        },
        {
          "indexed": false,
          "internalType": "uint256",
          "name": "value",
          "type": "uint256"
        }
      ],
      "name": "Approval",
      "type": "event"
    },
    {
      "anonymous": false,
      "inputs": [
        {
          "indexed": true,
          "internalType": "address",
          "name": "operator",
          "type": "address"
        },
        {
          "indexed": true,
          "internalType": "address",
          "name": "tokenHolder",
          "type": "address"
        }
      ],
      "name": "AuthorizedOperator",
      "type": "event"
    },
    {
      "anonymous": false,
      "inputs": [
        {
          "indexed": true,
          "internalType": "address",
          "name": "operator",
          "type": "address"
        },
        {
          "indexed": true,
          "internalType": "address",
          "name": "from",
          "type": "address"
        },
        {
          "indexed": false,
          "internalType": "uint256",
          "name": "amount",
          "type": "uint256"
        },
        {
          "indexed": false,
          "internalType": "bytes",
          "name": "data",
          "type": "bytes"
        },
        {
          "indexed": false,
          "internalType": "bytes",
          "name": "operatorData",
          "type": "bytes"
        }
      ],
      "name": "Burned",
      "type": "event"
    },
    {
      "anonymous": false,
      "inputs": [
        {
          "indexed": true,
          "internalType": "address",
          "name": "delegator",
          "type": "address"
        },
        {
          "indexed": true,
          "internalType": "address",
          "name": "fromDelegate",
          "type": "address"
        },
        {
          "indexed": true,
          "internalType": "address",
          "name": "toDelegate",
          "type": "address"
        }
      ],
      "name": "DelegateChanged",
      "type": "event"
    },
    {
      "anonymous": false,
      "inputs": [
        {
          "indexed": true,
          "internalType": "address",
          "name": "delegate",
          "type": "address"
        },
        {
          "indexed": false,
          "internalType": "uint256",
          "name": "previousBalance",
          "type": "uint256"
        },
        {
          "indexed": false,
          "internalType": "uint256",
          "name": "newBalance",
          "type": "uint256"
        }
      ],
      "name": "DelegateVotesChanged",
      "type": "event"
    },
    {
      "anonymous": false,
      "inputs": [
        {
          "indexed": true,
          "internalType": "address",
          "name": "operator",
          "type": "address"
        },
        {
          "indexed": true,
          "internalType": "address",
          "name": "to",
          "type": "address"
        },
        {
          "indexed": false,
          "internalType": "uint256",
          "name": "amount",
          "type": "uint256"
        },
        {
          "indexed": false,
          "internalType": "bytes",
          "name": "data",
          "type": "bytes"
        },
        {
          "indexed": false,
          "internalType": "bytes",
          "name": "operatorData",
          "type": "bytes"
        }
      ],
      "name": "Minted",
      "type": "event"
    },
    {
      "anonymous": false,
      "inputs": [
        {
          "indexed": true,
          "internalType": "address",
          "name": "operator",
          "type": "address"
        },
        {
          "indexed": true,
          "internalType": "address",
          "name": "tokenHolder",
          "type": "address"
        }
      ],
      "name": "RevokedOperator",
      "type": "event"
    },
    {
      "anonymous": false,
      "inputs": [
        {
          "indexed": true,
          "internalType": "address",
          "name": "operator",
          "type": "address"
        },
        {
          "indexed": true,
          "internalType": "address",
          "name": "from",
          "type": "address"
        },
        {
          "indexed": true,
          "internalType": "address",
          "name": "to",
          "type": "address"
        },
        {
          "indexed": false,
          "internalType": "uint256",
          "name": "amount",
          "type": "uint256"
        },
        {
          "indexed": false,
          "internalType": "bytes",
          "name": "data",
          "type": "bytes"
        },
        {
          "indexed": false,
          "internalType": "bytes",
          "name": "operatorData",
          "type": "bytes"
        }
      ],
      "name": "Sent",
      "type": "event"
    },
    {
      "anonymous": false,
      "inputs": [
        {
          "indexed": true,
          "internalType": "address",
          "name": "from",
          "type": "address"
        },
        {
          "indexed": true,
          "internalType": "address",
          "name": "to",
          "type": "address"
        },
        {
          "indexed": false,
          "internalType": "uint256",
          "name": "value",
          "type": "uint256"
        }
      ],
      "name": "Transfer",
      "type": "event"
    },
    {
      "inputs": [],
      "name": "DELEGATION_TYPEHASH",
      "outputs": [
        {
          "internalType": "bytes32",
          "name": "",
          "type": "bytes32"
        }
      ],
      "stateMutability": "view",
      "type": "function"
    },
    {
      "inputs": [],
      "name": "DOMAIN_TYPEHASH",
      "outputs": [
        {
          "internalType": "bytes32",
          "name": "",
          "type": "bytes32"
        }
      ],
      "stateMutability": "view",
      "type": "function"
    },
    {
      "inputs": [],
      "name": "PERMIT_TYPEHASH",
      "outputs": [
        {
          "internalType": "bytes32",
          "name": "",
          "type": "bytes32"
        }
      ],
      "stateMutability": "view",
      "type": "function"
    },
    {
      "inputs": [
        {
          "internalType": "address",
          "name": "holder",
          "type": "address"
        },
        {
          "internalType": "address",
          "name": "spender",
          "type": "address"
        }
      ],
      "name": "allowance",
      "outputs": [
        {
          "internalType": "uint256",
          "name": "",
          "type": "uint256"
        }
      ],
      "stateMutability": "view",
      "type": "function"
    },
    {
      "inputs": [
        {
          "internalType": "address",
          "name": "spender",
          "type": "address"
        },
        {
          "internalType": "uint256",
          "name": "value",
          "type": "uint256"
        }
      ],
      "name": "approve",
      "outputs": [
        {
          "internalType": "bool",
          "name": "",
          "type": "bool"
        }
      ],
      "stateMutability": "nonpayable",
      "type": "function"
    },
    {
      "inputs": [
        {
          "internalType": "address",
          "name": "operator",
          "type": "address"
        }
      ],
      "name": "authorizeOperator",
      "outputs": [],
      "stateMutability": "nonpayable",
      "type": "function"
    },
    {
      "inputs": [
        {
          "internalType": "address",
          "name": "tokenHolder",
          "type": "address"
        }
      ],
      "name": "balanceOf",
      "outputs": [
        {
          "internalType": "uint256",
          "name": "",
          "type": "uint256"
        }
      ],
      "stateMutability": "view",
      "type": "function"
    },
    {
      "inputs": [
        {
          "internalType": "address",
          "name": "",
          "type": "address"
        },
        {
          "internalType": "uint32",
          "name": "",
          "type": "uint32"
        }
      ],
      "name": "checkpoints",
      "outputs": [
        {
          "internalType": "uint32",
          "name": "fromBlock",
          "type": "uint32"
        },
        {
          "internalType": "uint256",
          "name": "votes",
          "type": "uint256"
        }
      ],
      "stateMutability": "view",
      "type": "function"
    },
    {
      "inputs": [],
      "name": "decimals",
      "outputs": [
        {
          "internalType": "uint8",
          "name": "",
          "type": "uint8"
        }
      ],
      "stateMutability": "pure",
      "type": "function"
    },
    {
      "inputs": [],
      "name": "defaultOperators",
      "outputs": [
        {
          "internalType": "address[]",
          "name": "",
          "type": "address[]"
        }
      ],
      "stateMutability": "view",
      "type": "function"
    },
    {
      "inputs": [
        {
          "internalType": "address",
          "name": "",
          "type": "address"
        },
        {
          "internalType": "uint32",
          "name": "",
          "type": "uint32"
        }
      ],
      "name": "delegateCheckpoints",
      "outputs": [
        {
          "internalType": "uint32",
          "name": "fromBlock",
          "type": "uint32"
        },
        {
          "internalType": "uint256",
          "name": "votes",
          "type": "uint256"
        }
      ],
      "stateMutability": "view",
      "type": "function"
    },
    {
      "inputs": [
        {
          "internalType": "address",
          "name": "",
          "type": "address"
        }
      ],
      "name": "delegates",
      "outputs": [
        {
          "internalType": "address",
          "name": "",
          "type": "address"
        }
      ],
      "stateMutability": "view",
      "type": "function"
    },
    {
      "inputs": [],
      "name": "granularity",
      "outputs": [
        {
          "internalType": "uint256",
          "name": "",
          "type": "uint256"
        }
      ],
      "stateMutability": "view",
      "type": "function"
    },
    {
      "inputs": [
        {
          "internalType": "address",
          "name": "operator",
          "type": "address"
        },
        {
          "internalType": "address",
          "name": "tokenHolder",
          "type": "address"
        }
      ],
      "name": "isOperatorFor",
      "outputs": [
        {
          "internalType": "bool",
          "name": "",
          "type": "bool"
        }
      ],
      "stateMutability": "view",
      "type": "function"
    },
    {
      "inputs": [],
      "name": "name",
      "outputs": [
        {
          "internalType": "string",
          "name": "",
          "type": "string"
        }
      ],
      "stateMutability": "view",
      "type": "function"
    },
    {
      "inputs": [
        {
          "internalType": "address",
          "name": "",
          "type": "address"
        }
      ],
      "name": "nonces",
      "outputs": [
        {
          "internalType": "uint256",
          "name": "",
          "type": "uint256"
        }
      ],
      "stateMutability": "view",
      "type": "function"
    },
    {
      "inputs": [
        {
          "internalType": "address",
          "name": "",
          "type": "address"
        }
      ],
      "name": "numCheckpoints",
      "outputs": [
        {
          "internalType": "uint32",
          "name": "",
          "type": "uint32"
        }
      ],
      "stateMutability": "view",
      "type": "function"
    },
    {
      "inputs": [
        {
          "internalType": "address",
          "name": "",
          "type": "address"
        }
      ],
      "name": "numDelegateCheckpoints",
      "outputs": [
        {
          "internalType": "uint32",
          "name": "",
          "type": "uint32"
        }
      ],
      "stateMutability": "view",
      "type": "function"
    },
    {
      "inputs": [
        {
          "internalType": "address",
          "name": "operator",
          "type": "address"
        }
      ],
      "name": "revokeOperator",
      "outputs": [],
      "stateMutability": "nonpayable",
      "type": "function"
    },
    {
      "inputs": [],
      "name": "symbol",
      "outputs": [
        {
          "internalType": "string",
          "name": "",
          "type": "string"
        }
      ],
      "stateMutability": "view",
      "type": "function"
    },
    {
      "inputs": [],
      "name": "totalSupply",
      "outputs": [
        {
          "internalType": "uint256",
          "name": "",
          "type": "uint256"
        }
      ],
      "stateMutability": "view",
      "type": "function"
    },
    {
      "inputs": [
        {
          "internalType": "address",
          "name": "dst",
          "type": "address"
        },
        {
          "internalType": "uint256",
          "name": "amount",
          "type": "uint256"
        }
      ],
      "name": "transfer",
      "outputs": [
        {
          "internalType": "bool",
          "name": "",
          "type": "bool"
        }
      ],
      "stateMutability": "nonpayable",
      "type": "function"
    },
    {
      "inputs": [
        {
          "internalType": "address",
          "name": "src",
          "type": "address"
        },
        {
          "internalType": "address",
          "name": "dst",
          "type": "address"
        },
        {
          "internalType": "uint256",
          "name": "amount",
          "type": "uint256"
        }
      ],
      "name": "transferFrom",
      "outputs": [
        {
          "internalType": "bool",
          "name": "",
          "type": "bool"
        }
      ],
      "stateMutability": "nonpayable",
      "type": "function"
    },
    {
      "inputs": [
        {
          "internalType": "address",
          "name": "recipient",
          "type": "address"
        },
        {
          "internalType": "uint256",
          "name": "amount",
          "type": "uint256"
        },
        {
          "internalType": "bytes",
          "name": "data",
          "type": "bytes"
        }
      ],
      "name": "send",
      "outputs": [],
      "stateMutability": "nonpayable",
      "type": "function"
    },
    {
      "inputs": [
        {
          "internalType": "address",
          "name": "sender",
          "type": "address"
        },
        {
          "internalType": "address",
          "name": "recipient",
          "type": "address"
        },
        {
          "internalType": "uint256",
          "name": "amount",
          "type": "uint256"
        },
        {
          "internalType": "bytes",
          "name": "data",
          "type": "bytes"
        },
        {
          "internalType": "bytes",
          "name": "operatorData",
          "type": "bytes"
        }
      ],
      "name": "operatorSend",
      "outputs": [],
      "stateMutability": "nonpayable",
      "type": "function"
    },
    {
      "inputs": [
        {
          "internalType": "address",
          "name": "account",
          "type": "address"
        },
        {
          "internalType": "uint256",
          "name": "amount",
          "type": "uint256"
        }
      ],
      "name": "mint",
      "outputs": [],
      "stateMutability": "nonpayable",
      "type": "function"
    },
    {
      "inputs": [
        {
          "internalType": "uint256",
          "name": "amount",
          "type": "uint256"
        },
        {
          "internalType": "bytes",
          "name": "data",
          "type": "bytes"
        }
      ],
      "name": "burn",
      "outputs": [],
      "stateMutability": "nonpayable",
      "type": "function"
    },
    {
      "inputs": [
        {
          "internalType": "address",
          "name": "account",
          "type": "address"
        },
        {
          "internalType": "uint256",
          "name": "amount",
          "type": "uint256"
        },
        {
          "internalType": "bytes",
          "name": "data",
          "type": "bytes"
        },
        {
          "internalType": "bytes",
          "name": "operatorData",
          "type": "bytes"
        }
      ],
      "name": "operatorBurn",
      "outputs": [],
      "stateMutability": "nonpayable",
      "type": "function"
    },
    {
      "inputs": [],
      "name": "version",
      "outputs": [
        {
          "internalType": "uint256",
          "name": "",
          "type": "uint256"
        }
      ],
      "stateMutability": "pure",
      "type": "function"
    },
    {
      "inputs": [
        {
          "internalType": "address",
          "name": "delegatee",
          "type": "address"
        },
        {
          "internalType": "uint256",
          "name": "nonce",
          "type": "uint256"
        },
        {
          "internalType": "uint256",
          "name": "expiry",
          "type": "uint256"
        },
        {
          "internalType": "uint8",
          "name": "v",
          "type": "uint8"
        },
        {
          "internalType": "bytes32",
          "name": "r",
          "type": "bytes32"
        },
        {
          "internalType": "bytes32",
          "name": "s",
          "type": "bytes32"
        }
      ],
      "name": "delegateBySig",
      "outputs": [],
      "stateMutability": "nonpayable",
      "type": "function"
    },
    {
      "inputs": [
        {
          "internalType": "address",
          "name": "delegatee",
          "type": "address"
        }
      ],
      "name": "delegate",
      "outputs": [],
      "stateMutability": "nonpayable",
      "type": "function"
    },
    {
      "inputs": [
        {
          "internalType": "address",
          "name": "account",
          "type": "address"
        }
      ],
      "name": "getCurrentVotes",
      "outputs": [
        {
          "internalType": "uint256",
          "name": "",
          "type": "uint256"
        }
      ],
      "stateMutability": "view",
      "type": "function"
    },
    {
      "inputs": [
        {
          "internalType": "address",
          "name": "account",
          "type": "address"
        },
        {
          "internalType": "uint256",
          "name": "blockNumber",
          "type": "uint256"
        }
      ],
      "name": "getPriorVotes",
      "outputs": [
        {
          "internalType": "uint256",
          "name": "",
          "type": "uint256"
        }
      ],
      "stateMutability": "view",
      "type": "function"
    }
  ],
  "bytecode": "0x608060405234801561001057600080fd5b50612b88806100206000396000f3fe608060405234801561001057600080fd5b506004361061020b5760003560e01c806370a082311161012a578063b4b5ea57116100bd578063e7a324dc1161008c578063fad8b32a11610071578063fad8b32a14610594578063fc673c4f146105a7578063fe9d9303146105ba57600080fd5b8063e7a324dc14610532578063f1127ed81461055957600080fd5b8063b4b5ea57146104c0578063c3cda520146104d3578063d95b6371146104e6578063dd62ed3e146104f957600080fd5b806395d89b41116100f957806395d89b411461046c5780639bd9bbc614610474578063a11c474114610487578063a9059cbb146104ad57600080fd5b806370a08231146103fd578063782d6fe1146104265780637ecebe0014610439578063959b8c3f1461045957600080fd5b806340c10f19116101a2578063587cde1e11610171578063587cde1e1461035b5780635c19a95c1461039c57806362ad1b83146103af5780636fcfff45146103c257600080fd5b806340c10f19146102e8578063509c3ef0146102fd57806354fd4d5014610354578063556f0dc71461035457600080fd5b806320606b70116101de57806320606b701461027857806323b872dd1461029f57806330adf81f146102b2578063313ce567146102d957600080fd5b806306e485381461021057806306fdde031461022e578063095ea7b31461024357806318160ddd14610266575b600080fd5b6102186105cd565b60405161022591906124d5565b60405180910390f35b61023661062f565b604051610225919061256f565b610256610251366004612597565b6106b8565b6040519015158152602001610225565b6034545b604051908152602001610225565b61026a7f8cad95687ba82c2ce50e74f7b754645e5117c3a5bec8151c0726d5857980a86681565b6102566102ad3660046125c3565b6106d2565b61026a7f6e71edae12b1b97f4d1f60370fef10105fa2faae0126114a169c64845d6126c981565b60405160128152602001610225565b6102fb6102f6366004612597565b610724565b005b61033861030b366004612604565b606b6020908152600092835260408084209091529082529020805460019091015463ffffffff9091169082565b6040805163ffffffff9093168352602083019190915201610225565b600161026a565b610384610369366004612646565b6069602052600090815260409020546001600160a01b031681565b6040516001600160a01b039091168152602001610225565b6102fb6103aa366004612646565b6107eb565b6102fb6103bd366004612706565b6107f8565b6103e86103d0366004612646565b60686020526000908152604090205463ffffffff1681565b60405163ffffffff9091168152602001610225565b61026a61040b366004612646565b6001600160a01b031660009081526033602052604090205490565b61026a610434366004612597565b61083e565b61026a610447366004612646565b606a6020526000908152604090205481565b6102fb610467366004612646565b610a93565b610236610bca565b6102fb610482366004612799565b610bd9565b6103e8610495366004612646565b606c6020526000908152604090205463ffffffff1681565b6102566104bb366004612597565b610c1a565b61026a6104ce366004612646565b610c69565b6102fb6104e13660046127f2565b610cde565b6102566104f4366004612854565b610f9e565b61026a610507366004612854565b6001600160a01b039182166000908152603b6020908152604080832093909416825291909152205490565b61026a7fe48329057bfd03d55e49b547132e39cffd9c1820ad7b9d4c5307691425d15adf81565b610338610567366004612604565b60676020908152600092835260408084209091529082529020805460019091015463ffffffff9091169082565b6102fb6105a2366004612646565b61103f565b6102fb6105b5366004612882565b611177565b6102fb6105c8366004612902565b6111af565b6060603780548060200260200160405190810160405280929190818152602001828054801561062557602002820191906000526020600020905b81546001600160a01b03168152600190910190602001808311610607575b5050505050905090565b60606035805461063e90612949565b80601f016020809104026020016040519081016040528092919081815260200182805461066a90612949565b80156106255780601f1061068c57610100808354040283529160200191610625565b820191906000526020600020905b81548152906001019060200180831161069a57509395945050505050565b6000336106c68185856111df565b60019150505b92915050565b60006106df848484611338565b6106e857600080fd5b6001600160a01b0380851660009081526069602052604080822054868416835291205461071a92918216911684611578565b5060019392505050565b6065546001600160a01b031633148061074757506066546001600160a01b031633145b6107985760405162461bcd60e51b815260206004820152601360248201527f496e76616c6964206d696e742073656e6465720000000000000000000000000060448201526064015b60405180910390fd5b6107c2828260405180602001604052806000815250604051806020016040528060008152506116d7565b6001600160a01b038083166000908152606960205260408120546107e7921683611578565b5050565b6107f533826116e5565b50565b6108058585858585611777565b6001600160a01b0380861660009081526069602052604080822054878416835291205461083792918216911685611578565b5050505050565b600043821061088f5760405162461bcd60e51b815260206004820152601d60248201527f4261636f6e436f696e3a206e6f74207965742064657465726d696e6564000000604482015260640161078f565b6001600160a01b0383166000908152606c602052604090205463ffffffff16806108bd5760009150506106cc565b6001600160a01b0384166000908152606b6020526040812084916108e260018561299a565b63ffffffff9081168252602082019290925260400160002054161161094b576001600160a01b0384166000908152606b602052604081209061092560018461299a565b63ffffffff1663ffffffff168152602001908152602001600020600101549150506106cc565b6001600160a01b0384166000908152606b6020908152604080832083805290915290205463ffffffff168310156109865760009150506106cc565b60008061099460018461299a565b90505b8163ffffffff168163ffffffff161115610a5c57600060026109b9848461299a565b6109c391906129bf565b6109cd908361299a565b6001600160a01b0388166000908152606b6020908152604080832063ffffffff8086168552908352928190208151808301909252805490931680825260019093015491810191909152919250871415610a30576020015194506106cc9350505050565b805163ffffffff16871115610a4757819350610a55565b610a5260018361299a565b92505b5050610997565b506001600160a01b0385166000908152606b6020908152604080832063ffffffff9094168352929052206001015491505092915050565b336001600160a01b0382161415610b115760405162461bcd60e51b8152602060048201526024808201527f4552433737373a20617574686f72697a696e672073656c66206173206f70657260448201527f61746f7200000000000000000000000000000000000000000000000000000000606482015260840161078f565b6001600160a01b03811660009081526038602052604090205460ff1615610b6257336000908152603a602090815260408083206001600160a01b03851684529091529020805460ff19169055610b91565b3360009081526039602090815260408083206001600160a01b03851684529091529020805460ff191660011790555b60405133906001600160a01b038316907ff4caeb2d6ca8932a215a353d0703c326ec2d81fc68170f320eb2ab49e9df61f990600090a350565b60606036805461063e90612949565b610be4838383611802565b33600090815260696020526040808220546001600160a01b0386811684529190922054610c15928216911684611578565b505050565b6000610c268383611820565b610c2f57600080fd5b33600090815260696020526040808220546001600160a01b0386811684529190922054610c60928216911684611578565b50600192915050565b6001600160a01b0381166000908152606c602052604081205463ffffffff1680610c94576000610cd7565b6001600160a01b0383166000908152606b6020526040812090610cb860018461299a565b63ffffffff1663ffffffff168152602001908152602001600020600101545b9392505050565b60007f8cad95687ba82c2ce50e74f7b754645e5117c3a5bec8151c0726d5857980a866610d0961062f565b80519060200120610d174690565b60408051602080820195909552808201939093526060830191909152306080808401919091528151808403909101815260a0830182528051908401207fe48329057bfd03d55e49b547132e39cffd9c1820ad7b9d4c5307691425d15adf60c08401526001600160a01b038b1660e084015261010083018a90526101208084018a9052825180850390910181526101408401909252815191909301207f1901000000000000000000000000000000000000000000000000000000000000610160830152610162820183905261018282018190529192506000906101a20160408051601f198184030181528282528051602091820120600080855291840180845281905260ff8a169284019290925260608301889052608083018790529092509060019060a0016020604051602081039080840390855afa158015610e5e573d6000803e3d6000fd5b5050604051601f1901519150506001600160a01b038116610ec15760405162461bcd60e51b815260206004820152601c60248201527f4261636f6e436f696e3a20696e76616c6964207369676e617475726500000000604482015260640161078f565b6001600160a01b0381166000908152606a60205260408120805491610ee5836129f0565b919050558914610f375760405162461bcd60e51b815260206004820152601860248201527f4261636f6e436f696e3a20696e76616c6964206e6f6e63650000000000000000604482015260640161078f565b87421115610f875760405162461bcd60e51b815260206004820152601c60248201527f4261636f6e436f696e3a207369676e6174757265206578706972656400000000604482015260640161078f565b610f91818b6116e5565b505050505b505050505050565b6000816001600160a01b0316836001600160a01b0316148061100957506001600160a01b03831660009081526038602052604090205460ff16801561100957506001600160a01b038083166000908152603a602090815260408083209387168352929052205460ff16155b80610cd757506001600160a01b0380831660009081526039602090815260408083209387168352929052205460ff169392505050565b6001600160a01b0381163314156110be5760405162461bcd60e51b815260206004820152602160248201527f4552433737373a207265766f6b696e672073656c66206173206f70657261746f60448201527f7200000000000000000000000000000000000000000000000000000000000000606482015260840161078f565b6001600160a01b03811660009081526038602052604090205460ff161561111257336000908152603a602090815260408083206001600160a01b03851684529091529020805460ff1916600117905561113e565b3360009081526039602090815260408083206001600160a01b03851684529091529020805460ff191690555b60405133906001600160a01b038316907f50546e66e5f44d728365dc3908c63bc5cfeeab470722c1677e3073a6ac294aa190600090a350565b61118384848484611928565b6001600160a01b038085166000908152606960205260408120546111a992169085611578565b50505050565b6111b982826119b0565b336000908152606960205260408120546107e7916001600160a01b039091169084611578565b6001600160a01b03831661125b5760405162461bcd60e51b815260206004820152602560248201527f4552433737373a20617070726f76652066726f6d20746865207a65726f20616460448201527f6472657373000000000000000000000000000000000000000000000000000000606482015260840161078f565b6001600160a01b0382166112d75760405162461bcd60e51b815260206004820152602360248201527f4552433737373a20617070726f766520746f20746865207a65726f206164647260448201527f6573730000000000000000000000000000000000000000000000000000000000606482015260840161078f565b6001600160a01b038381166000818152603b602090815260408083209487168084529482529182902085905590518481527f8c5be1e5ebec7d5bd14f71427d1e84f3dd0314c0f7b2291e5b200ac8c7c3b925910160405180910390a3505050565b60006001600160a01b0383166113b55760405162461bcd60e51b8152602060048201526024808201527f4552433737373a207472616e7366657220746f20746865207a65726f2061646460448201527f7265737300000000000000000000000000000000000000000000000000000000606482015260840161078f565b6001600160a01b0384166114315760405162461bcd60e51b815260206004820152602660248201527f4552433737373a207472616e736665722066726f6d20746865207a65726f206160448201527f6464726573730000000000000000000000000000000000000000000000000000606482015260840161078f565b60003390506114628186868660405180602001604052806000815250604051806020016040528060008152506119cb565b61148e818686866040518060200160405280600081525060405180602001604052806000815250611b34565b6001600160a01b038086166000908152603b60209081526040808320938516835292905220548381101561152a5760405162461bcd60e51b815260206004820152602960248201527f4552433737373a207472616e7366657220616d6f756e7420657863656564732060448201527f616c6c6f77616e63650000000000000000000000000000000000000000000000606482015260840161078f565b61153e86836115398785612a29565b6111df565b61156c8287878760405180602001604052806000815250604051806020016040528060008152506000611cb0565b50600195945050505050565b816001600160a01b0316836001600160a01b03161415801561159a5750600081115b15610c15576001600160a01b0383161561163d576001600160a01b0383166000908152606c602052604081205463ffffffff1690816115da57600061161d565b6001600160a01b0385166000908152606b60205260408120906115fe60018561299a565b63ffffffff1663ffffffff168152602001908152602001600020600101545b9050600061162b8285611ec6565b905061163986848484611ed2565b5050505b6001600160a01b03821615610c15576001600160a01b0382166000908152606c602052604081205463ffffffff1690816116785760006116bb565b6001600160a01b0384166000908152606b602052604081209061169c60018561299a565b63ffffffff1663ffffffff168152602001908152602001600020600101545b905060006116c98285612074565b9050610f9685848484611ed2565b6111a9848484846001612080565b6001600160a01b03828116600081815260696020818152604080842080546033845282862054949093528787167fffffffffffffffffffffffff00000000000000000000000000000000000000008416811790915590519190951694919391928592917f3134e8a2e6d97e929a7e54011ea5485d7d196dd5f0ba4d4ef95803e8e3fc257f9190a46111a9828483611578565b6117813386610f9e565b6117f35760405162461bcd60e51b815260206004820152602c60248201527f4552433737373a2063616c6c6572206973206e6f7420616e206f70657261746f60448201527f7220666f7220686f6c6465720000000000000000000000000000000000000000606482015260840161078f565b610837858585858560016121c9565b610c15338484846040518060200160405280600081525060016121c9565b60006001600160a01b03831661189d5760405162461bcd60e51b8152602060048201526024808201527f4552433737373a207472616e7366657220746f20746865207a65726f2061646460448201527f7265737300000000000000000000000000000000000000000000000000000000606482015260840161078f565b60003390506118ce8182868660405180602001604052806000815250604051806020016040528060008152506119cb565b6118fa818286866040518060200160405280600081525060405180602001604052806000815250611b34565b6106c68182868660405180602001604052806000815250604051806020016040528060008152506000611cb0565b6119323385610f9e565b6119a45760405162461bcd60e51b815260206004820152602c60248201527f4552433737373a2063616c6c6572206973206e6f7420616e206f70657261746f60448201527f7220666f7220686f6c6465720000000000000000000000000000000000000000606482015260840161078f565b6111a9848484846122c7565b6107e7338383604051806020016040528060008152506122c7565b6040517faabbb8ca0000000000000000000000000000000000000000000000000000000081526001600160a01b03861660048201527f29ddb589b1fb5fc7cf394961c1adf5f8c6454761adf795e67fe149f658abe8956024820152600090731820a4b7618bde71dce8cdc73aab6c95905fad249063aabbb8ca9060440160206040518083038186803b158015611a6057600080fd5b505afa158015611a74573d6000803e3d6000fd5b505050506040513d601f19601f82011682018060405250810190611a989190612a40565b90506001600160a01b03811615611b2b576040517f75ab97820000000000000000000000000000000000000000000000000000000081526001600160a01b038216906375ab978290611af8908a908a908a908a908a908a90600401612a5d565b600060405180830381600087803b158015611b1257600080fd5b505af1158015611b26573d6000803e3d6000fd5b505050505b50505050505050565b6001600160a01b03851660009081526033602052604090205483811015611bc35760405162461bcd60e51b815260206004820152602760248201527f4552433737373a207472616e7366657220616d6f756e7420657863656564732060448201527f62616c616e636500000000000000000000000000000000000000000000000000606482015260840161078f565b6001600160a01b03808716600090815260336020526040808220878503905591871681529081208054869290611bfa908490612ab6565b92505081905550846001600160a01b0316866001600160a01b0316886001600160a01b03167f06b541ddaa720db2b10a4d0cdac39b8d360425fc073085fac19bc82614677987878787604051611c5293929190612ace565b60405180910390a4846001600160a01b0316866001600160a01b03167fddf252ad1be2c89b69c2b068fc378daa952ba7f163c4a11628f55a4df523b3ef86604051611c9f91815260200190565b60405180910390a350505050505050565b6040517faabbb8ca0000000000000000000000000000000000000000000000000000000081526001600160a01b03861660048201527fb281fc8c12954d22544db45de3159a39272895b169a852b314f9cc762e44c53b6024820152600090731820a4b7618bde71dce8cdc73aab6c95905fad249063aabbb8ca9060440160206040518083038186803b158015611d4557600080fd5b505afa158015611d59573d6000803e3d6000fd5b505050506040513d601f19601f82011682018060405250810190611d7d9190612a40565b90506001600160a01b03811615611e12576040517e23de290000000000000000000000000000000000000000000000000000000081526001600160a01b038216906223de2990611ddb908b908b908b908b908b908b90600401612a5d565b600060405180830381600087803b158015611df557600080fd5b505af1158015611e09573d6000803e3d6000fd5b50505050611ebc565b8115611ebc576001600160a01b0386163b15611ebc5760405162461bcd60e51b815260206004820152604d60248201527f4552433737373a20746f6b656e20726563697069656e7420636f6e747261637460448201527f20686173206e6f20696d706c656d656e74657220666f7220455243373737546f60648201527f6b656e73526563697069656e7400000000000000000000000000000000000000608482015260a40161078f565b5050505050505050565b6000610cd78284612a29565b6000611ef643604051806060016040528060278152602001612b2c602791396124a5565b905060008463ffffffff16118015611f5057506001600160a01b0385166000908152606b6020526040812063ffffffff831691611f3460018861299a565b63ffffffff908116825260208201929092526040016000205416145b15611f99576001600160a01b0385166000908152606b602052604081208391611f7a60018861299a565b63ffffffff168152602081019190915260400160002060010155612029565b60408051808201825263ffffffff838116825260208083018681526001600160a01b038a166000908152606b83528581208a851682529092529390209151825463ffffffff191691161781559051600191820155611ff8908590612b03565b6001600160a01b0386166000908152606c60205260409020805463ffffffff191663ffffffff929092169190911790555b60408051848152602081018490526001600160a01b038716917fdec2bacdd2f05b59de34da9b523dff8be42e5e38e818c82fdb0bae774387a724910160405180910390a25050505050565b6000610cd78284612ab6565b6001600160a01b0385166120d65760405162461bcd60e51b815260206004820181905260248201527f4552433737373a206d696e7420746f20746865207a65726f2061646472657373604482015260640161078f565b600033905084603460008282546120ed9190612ab6565b90915550506001600160a01b0386166000908152603360205260408120805487929061211a908490612ab6565b9091555061213090508160008888888888611cb0565b856001600160a01b0316816001600160a01b03167f2fe5be0146f74c5bce36c0b80911af6c7d86ff27e89d5cfa61fc681327954e5d87878760405161217793929190612ace565b60405180910390a36040518581526001600160a01b038716906000907fddf252ad1be2c89b69c2b068fc378daa952ba7f163c4a11628f55a4df523b3ef906020015b60405180910390a3505050505050565b6001600160a01b0386166122455760405162461bcd60e51b815260206004820152602260248201527f4552433737373a2073656e642066726f6d20746865207a65726f20616464726560448201527f7373000000000000000000000000000000000000000000000000000000000000606482015260840161078f565b6001600160a01b03851661229b5760405162461bcd60e51b815260206004820181905260248201527f4552433737373a2073656e6420746f20746865207a65726f2061646472657373604482015260640161078f565b336122aa8188888888886119cb565b6122b8818888888888611b34565b611b2b81888888888888611cb0565b6001600160a01b0384166123435760405162461bcd60e51b815260206004820152602260248201527f4552433737373a206275726e2066726f6d20746865207a65726f20616464726560448201527f7373000000000000000000000000000000000000000000000000000000000000606482015260840161078f565b33612353818660008787876119cb565b6001600160a01b038516600090815260336020526040902054848110156123e25760405162461bcd60e51b815260206004820152602360248201527f4552433737373a206275726e20616d6f756e7420657863656564732062616c6160448201527f6e63650000000000000000000000000000000000000000000000000000000000606482015260840161078f565b6001600160a01b0386166000908152603360205260408120868303905560348054879290612411908490612a29565b92505081905550856001600160a01b0316826001600160a01b03167fa78a9be3a7b862d26933ad85fb11d80ef66b8f972d7cbba06621d583943a409887878760405161245f93929190612ace565b60405180910390a36040518581526000906001600160a01b038816907fddf252ad1be2c89b69c2b068fc378daa952ba7f163c4a11628f55a4df523b3ef906020016121b9565b60008164010000000084106124cd5760405162461bcd60e51b815260040161078f919061256f565b509192915050565b6020808252825182820181905260009190848201906040850190845b818110156125165783516001600160a01b0316835292840192918401916001016124f1565b50909695505050505050565b6000815180845260005b818110156125485760208185018101518683018201520161252c565b8181111561255a576000602083870101525b50601f01601f19169290920160200192915050565b602081526000610cd76020830184612522565b6001600160a01b03811681146107f557600080fd5b600080604083850312156125aa57600080fd5b82356125b581612582565b946020939093013593505050565b6000806000606084860312156125d857600080fd5b83356125e381612582565b925060208401356125f381612582565b929592945050506040919091013590565b6000806040838503121561261757600080fd5b823561262281612582565b9150602083013563ffffffff8116811461263b57600080fd5b809150509250929050565b60006020828403121561265857600080fd5b8135610cd781612582565b634e487b7160e01b600052604160045260246000fd5b600082601f83011261268a57600080fd5b813567ffffffffffffffff808211156126a5576126a5612663565b604051601f8301601f19908116603f011681019082821181831017156126cd576126cd612663565b816040528381528660208588010111156126e657600080fd5b836020870160208301376000602085830101528094505050505092915050565b600080600080600060a0868803121561271e57600080fd5b853561272981612582565b9450602086013561273981612582565b935060408601359250606086013567ffffffffffffffff8082111561275d57600080fd5b61276989838a01612679565b9350608088013591508082111561277f57600080fd5b5061278c88828901612679565b9150509295509295909350565b6000806000606084860312156127ae57600080fd5b83356127b981612582565b925060208401359150604084013567ffffffffffffffff8111156127dc57600080fd5b6127e886828701612679565b9150509250925092565b60008060008060008060c0878903121561280b57600080fd5b863561281681612582565b95506020870135945060408701359350606087013560ff8116811461283a57600080fd5b9598949750929560808101359460a0909101359350915050565b6000806040838503121561286757600080fd5b823561287281612582565b9150602083013561263b81612582565b6000806000806080858703121561289857600080fd5b84356128a381612582565b935060208501359250604085013567ffffffffffffffff808211156128c757600080fd5b6128d388838901612679565b935060608701359150808211156128e957600080fd5b506128f687828801612679565b91505092959194509250565b6000806040838503121561291557600080fd5b82359150602083013567ffffffffffffffff81111561293357600080fd5b61293f85828601612679565b9150509250929050565b600181811c9082168061295d57607f821691505b6020821081141561297e57634e487b7160e01b600052602260045260246000fd5b50919050565b634e487b7160e01b600052601160045260246000fd5b600063ffffffff838116908316818110156129b7576129b7612984565b039392505050565b600063ffffffff808416806129e457634e487b7160e01b600052601260045260246000fd5b92169190910492915050565b60007fffffffffffffffffffffffffffffffffffffffffffffffffffffffffffffffff821415612a2257612a22612984565b5060010190565b600082821015612a3b57612a3b612984565b500390565b600060208284031215612a5257600080fd5b8151610cd781612582565b60006001600160a01b038089168352808816602084015280871660408401525084606083015260c06080830152612a9760c0830185612522565b82810360a0840152612aa98185612522565b9998505050505050505050565b60008219821115612ac957612ac9612984565b500190565b838152606060208201526000612ae76060830185612522565b8281036040840152612af98185612522565b9695505050505050565b600063ffffffff808316818516808303821115612b2257612b22612984565b0194935050505056fe4261636f6e436f696e3a20626c6f636b206e756d62657220657863656564732033322062697473a264697066735822122030ac0deb42c4c5e996bc23cd9a31f3b7de3d7b2be2dc6878052658d770aff79264736f6c63430008090033",
  "immutableReferences": {},
  "source": "// contracts/Pool0.sol\n// SPDX-License-Identifier: MIT\npragma solidity ^0.8.4;\n\nimport \"../@openzeppelin/contracts-upgradeable/proxy/utils/Initializable.sol\";\nimport \"../@openzeppelin/contracts-upgradeable/token/ERC777/ERC777Upgradeable.sol\";\nimport '../@openzeppelin/contracts/utils/math/SafeMath.sol';\nimport '../@openzeppelin/contracts/utils/math/SignedSafeMath.sol';\n\ncontract BaconCoin1 is Initializable, ERC777Upgradeable {\n    using SignedSafeMath for int256;\n    using SafeMath for uint256;\n\n    address stakingContract;\n    address airdropContract;\n\n    /// @notice DEPRECATED  \n    /// A record of votes checkpoints for each account, by index\n    mapping (address => mapping (uint32 => Checkpoint)) public checkpoints;\n\n    /// @notice DEPRECATED  \n    /// The number of checkpoints for each account\n    mapping (address => uint32) public numCheckpoints;\n\n    /// @notice A checkpoint for marking number of votes from a given block\n    struct Checkpoint {\n        uint32 fromBlock;\n        uint256 votes;\n    }\n\n    /// @notice A record of each accounts delegate\n    mapping (address => address) public delegates;\n\n    /// @notice The EIP-712 typehash for the contract's domain\n    bytes32 public constant DOMAIN_TYPEHASH = keccak256(\"EIP712Domain(string name,uint256 chainId,address verifyingContract)\");\n\n    /// @notice The EIP-712 typehash for the delegation struct used by the contract\n    bytes32 public constant DELEGATION_TYPEHASH = keccak256(\"Delegation(address delegatee,uint256 nonce,uint256 expiry)\");\n\n    /// @notice The EIP-712 typehash for the permit struct used by the contract\n    bytes32 public constant PERMIT_TYPEHASH = keccak256(\"Permit(address owner,address spender,uint256 value,uint256 nonce,uint256 deadline)\");\n\n    /// @notice A record of states for signing / validating signatures\n    mapping (address => uint) public nonces;\n\n    /*****************************************************\n    *       Variables added in BaconCoin1\n    ******************************************************/\n\n    /// @notice A record of votes checkpoints for a delegate's account, by index\n    mapping (address => mapping (uint32 => Checkpoint)) public delegateCheckpoints;\n\n    /// @notice The number of checkpoints for each account\n    mapping (address => uint32) public numDelegateCheckpoints;\n\n    /*****************************************************\n    *       EVENTS\n    ******************************************************/\n    \n    /// @notice An event thats emitted when an account changes its delegate\n    event DelegateChanged(address indexed delegator, address indexed fromDelegate, address indexed toDelegate);\n\n    /// @notice An event thats emitted when a delegate account's vote balance changes\n    event DelegateVotesChanged(address indexed delegate, uint previousBalance, uint newBalance);\n\n    /*****************************************************\n    *       BASE FUNCTIONS\n    ******************************************************/\n\n    // Transfer func must be overwritten to also moveDelegates when balance is transferred\n    function transfer(address dst, uint amount) public override returns (bool) {\n        require(super.transfer(dst, amount));\n        _moveDelegates(delegates[msg.sender], delegates[dst], amount);\n        return true;\n    }\n\n    // TransferFrom func must be overwritten to also moveDelegates when balance is transferred\n    function transferFrom(address src, address dst, uint256 amount) public override returns (bool) {\n        require(super.transferFrom(src, dst, amount));\n        _moveDelegates(delegates[src], delegates[dst], amount);\n        return true;\n    }\n\n    // Send func must be overwritten to also moveDelegates when balance is transferred\n    function send(address recipient, uint256 amount, bytes memory data) public override {\n        super.send(recipient, amount, data);\n        _moveDelegates(delegates[msg.sender], delegates[recipient], amount);\n    }\n\n    function operatorSend(address sender, address recipient, uint256 amount, bytes memory data, bytes memory operatorData) public override {\n        super.operatorSend( sender, recipient, amount, data, operatorData);\n        _moveDelegates(delegates[sender], delegates[recipient], amount);\n    }\n\n    function mint(address account, uint256 amount) public {\n        require(msg.sender == stakingContract || msg.sender == airdropContract, \"Invalid mint sender\");\n        super._mint(account, amount, \"\", \"\");\n        _moveDelegates(address(0), delegates[account], amount);\n    }\n\n    function burn(uint256 amount, bytes memory data) public override {\n        super.burn(amount, data);\n        _moveDelegates(delegates[msg.sender], address(0), amount);\n    }\n\n    function operatorBurn(address account, uint256 amount, bytes memory data, bytes memory operatorData) public override {\n        super.operatorBurn( account, amount, data, operatorData);\n        _moveDelegates(delegates[account], address(0), amount);\n    }\n\n    /**  \n    *   @dev Function version returns uint depending on what version the contract is on\n    */\n    function version() public pure returns (uint) {\n        return 1;\n    }\n    \n    function safe32(uint n, string memory errorMessage) internal pure returns (uint32) {\n        require(n < 2**32, errorMessage);\n        return uint32(n);\n    }\n\n    function getChainId() internal view returns (uint) {\n        uint256 chainId;\n        // solhint-disable-next-line no-inline-assembly\n        assembly { chainId := chainid() }\n        return chainId;\n    }\n\n    /********************************\n    *     GOVERNANCE FUNCTIONS      *\n    *********************************/\n\n    /**\n     * @notice Delegates votes from signatory to `delegatee`\n     * @param delegatee The address to delegate votes to\n     * @param nonce The contract state required to match the signature\n     * @param expiry The time at which to expire the signature\n     * @param v The recovery byte of the signature\n     * @param r Half of the ECDSA signature pair\n     * @param s Half of the ECDSA signature pair\n     */\n    function delegateBySig(address delegatee, uint nonce, uint expiry, uint8 v, bytes32 r, bytes32 s) public {\n        bytes32 domainSeparator = keccak256(abi.encode(DOMAIN_TYPEHASH, keccak256(bytes(name())), getChainId(), address(this)));\n        bytes32 structHash = keccak256(abi.encode(DELEGATION_TYPEHASH, delegatee, nonce, expiry));\n        bytes32 digest = keccak256(abi.encodePacked(\"\\x19\\x01\", domainSeparator, structHash));\n        address signatory = ecrecover(digest, v, r, s);\n        require(signatory != address(0), \"BaconCoin: invalid signature\");\n        require(nonce == nonces[signatory]++, \"BaconCoin: invalid nonce\");\n        require(block.timestamp <= expiry, \"BaconCoin: signature expired\");\n        return _delegate(signatory, delegatee);\n    }\n\n    /**\n     * @notice Delegate votes from `msg.sender` to `delegatee`\n     * @param delegatee The address to delegate votes to\n     */\n    function delegate(address delegatee) public {\n        return _delegate(msg.sender, delegatee);\n    }\n\n    /**\n     * @notice Gets the current votes balance for `account`\n     * @param account The address to get votes balance\n     * @return The number of current votes for `account`\n     */\n    function getCurrentVotes(address account) external view returns (uint256) {\n        uint32 nCheckpoints = numDelegateCheckpoints[account];\n        return nCheckpoints > 0 ? delegateCheckpoints[account][nCheckpoints - 1].votes : 0;\n    }\n\n    /**\n    * @notice Determine the prior number of votes for an account as of a block number\n    * @dev Block number must be a finalized block or else this function will revert to prevent misinformation.\n    * @param account The address of the account to check\n    * @param blockNumber The block number to get the vote balance at\n    * @return The number of votes the account had as of the given block\n    */\n    function getPriorVotes(address account, uint blockNumber) public view returns (uint256) {\n        require(blockNumber < block.number, \"BaconCoin: not yet determined\");\n\n        uint32 nCheckpoints = numDelegateCheckpoints[account];\n        if (nCheckpoints == 0) {\n            return 0;\n        }\n\n        // First check most recent balance\n        if (delegateCheckpoints[account][nCheckpoints - 1].fromBlock <= blockNumber) {\n            return delegateCheckpoints[account][nCheckpoints - 1].votes;\n        }\n\n        // Next check implicit zero balance\n        if (delegateCheckpoints[account][0].fromBlock > blockNumber) {\n            return 0;\n        }\n\n        uint32 lower = 0;\n        uint32 upper = nCheckpoints - 1;\n        while (upper > lower) {\n            uint32 center = upper - (upper - lower) / 2; // ceil, avoiding overflow\n            Checkpoint memory cp = delegateCheckpoints[account][center];\n            if (cp.fromBlock == blockNumber) {\n                return cp.votes;\n            } else if (cp.fromBlock < blockNumber) {\n                lower = center;\n            } else {\n                upper = center - 1;\n            }\n        }\n        return delegateCheckpoints[account][lower].votes;\n    }\n\n    function _delegate(address delegator, address delegatee) internal {\n        address currentDelegate = delegates[delegator];\n        uint256 delegatorBalance = balanceOf(delegator);\n        delegates[delegator] = delegatee;\n\n        emit DelegateChanged(delegator, currentDelegate, delegatee);\n\n        _moveDelegates(currentDelegate, delegatee, delegatorBalance);\n    }\n\n    function _moveDelegates(address srcRep, address dstRep, uint256 amount) internal {\n        if (srcRep != dstRep && amount > 0) {\n            if (srcRep != address(0)) {\n                uint32 srcRepNum = numDelegateCheckpoints[srcRep];\n                uint256 srcRepOld = srcRepNum > 0 ? delegateCheckpoints[srcRep][srcRepNum - 1].votes : 0;\n                uint256 srcRepNew = srcRepOld.sub(amount);\n                _writeCheckpoint(srcRep, srcRepNum, srcRepOld, srcRepNew);\n            }\n\n            if (dstRep != address(0)) {\n                uint32 dstRepNum = numDelegateCheckpoints[dstRep];\n                uint256 dstRepOld = dstRepNum > 0 ? delegateCheckpoints[dstRep][dstRepNum - 1].votes : 0;\n                uint256 dstRepNew = dstRepOld.add(amount);\n                _writeCheckpoint(dstRep, dstRepNum, dstRepOld, dstRepNew);\n            }\n        }\n    }\n\n    function _writeCheckpoint(address delegatee, uint32 nCheckpoints, uint256 oldVotes, uint256 newVotes) internal {\n      uint32 blockNumber = safe32(block.number, \"BaconCoin: block number exceeds 32 bits\");\n\n      if (nCheckpoints > 0 && delegateCheckpoints[delegatee][nCheckpoints - 1].fromBlock == blockNumber) {\n          delegateCheckpoints[delegatee][nCheckpoints - 1].votes = newVotes;\n      } else {\n          delegateCheckpoints[delegatee][nCheckpoints] = Checkpoint(blockNumber, newVotes);\n          numDelegateCheckpoints[delegatee] = nCheckpoints + 1;\n      }\n\n      emit DelegateVotesChanged(delegatee, oldVotes, newVotes);\n    }\n}",
  "sourcePath": "/Users/patrick/github/HomeDAO/contracts/BaconCoin/BaconCoin1.sol",
  "compiler": {
    "name": "solc",
    "version": "0.8.9+commit.e5eed63a.Emscripten.clang"
  },
  "schemaVersion": "3.4.8",
  "updatedAt": "2022-08-10T01:41:49.775Z",
  "devdoc": {
    "kind": "dev",
    "methods": {
      "allowance(address,address)": {
        "details": "See {IERC20-allowance}. Note that operator and allowance concepts are orthogonal: operators may not have allowance, and accounts with allowance may not be operators themselves."
      },
      "approve(address,uint256)": {
        "details": "See {IERC20-approve}. Note that accounts cannot have allowance issued by their operators."
      },
      "authorizeOperator(address)": {
        "details": "See {IERC777-authorizeOperator}."
      },
      "balanceOf(address)": {
        "details": "Returns the amount of tokens owned by an account (`tokenHolder`)."
      },
      "burn(uint256,bytes)": {
        "details": "See {IERC777-burn}. Also emits a {IERC20-Transfer} event for ERC20 compatibility."
      },
      "decimals()": {
        "details": "See {ERC20-decimals}. Always returns 18, as per the [ERC777 EIP](https://eips.ethereum.org/EIPS/eip-777#backward-compatibility)."
      },
      "defaultOperators()": {
        "details": "See {IERC777-defaultOperators}."
      },
      "delegate(address)": {
        "params": {
          "delegatee": "The address to delegate votes to"
        }
      },
      "delegateBySig(address,uint256,uint256,uint8,bytes32,bytes32)": {
        "params": {
          "delegatee": "The address to delegate votes to",
          "expiry": "The time at which to expire the signature",
          "nonce": "The contract state required to match the signature",
          "r": "Half of the ECDSA signature pair",
          "s": "Half of the ECDSA signature pair",
          "v": "The recovery byte of the signature"
        }
      },
      "getCurrentVotes(address)": {
        "params": {
          "account": "The address to get votes balance"
        },
        "returns": {
          "_0": "The number of current votes for `account`"
        }
      },
      "getPriorVotes(address,uint256)": {
        "details": "Block number must be a finalized block or else this function will revert to prevent misinformation.",
        "params": {
          "account": "The address of the account to check",
          "blockNumber": "The block number to get the vote balance at"
        },
        "returns": {
          "_0": "The number of votes the account had as of the given block"
        }
      },
      "granularity()": {
        "details": "See {IERC777-granularity}. This implementation always returns `1`."
      },
      "isOperatorFor(address,address)": {
        "details": "See {IERC777-isOperatorFor}."
      },
      "name()": {
        "details": "See {IERC777-name}."
      },
      "operatorBurn(address,uint256,bytes,bytes)": {
        "details": "See {IERC777-operatorBurn}. Emits {Burned} and {IERC20-Transfer} events."
      },
      "operatorSend(address,address,uint256,bytes,bytes)": {
        "details": "See {IERC777-operatorSend}. Emits {Sent} and {IERC20-Transfer} events."
      },
      "revokeOperator(address)": {
        "details": "See {IERC777-revokeOperator}."
      },
      "send(address,uint256,bytes)": {
        "details": "See {IERC777-send}. Also emits a {IERC20-Transfer} event for ERC20 compatibility."
      },
      "symbol()": {
        "details": "See {IERC777-symbol}."
      },
      "totalSupply()": {
        "details": "See {IERC777-totalSupply}."
      },
      "version()": {
        "details": "Function version returns uint depending on what version the contract is on"
      }
    },
    "version": 1
  },
  "userdoc": {
    "events": {
      "DelegateChanged(address,address,address)": {
        "notice": "An event thats emitted when an account changes its delegate"
      },
      "DelegateVotesChanged(address,uint256,uint256)": {
        "notice": "An event thats emitted when a delegate account's vote balance changes"
      }
    },
    "kind": "user",
    "methods": {
      "DELEGATION_TYPEHASH()": {
        "notice": "The EIP-712 typehash for the delegation struct used by the contract"
      },
      "DOMAIN_TYPEHASH()": {
        "notice": "The EIP-712 typehash for the contract's domain"
      },
      "PERMIT_TYPEHASH()": {
        "notice": "The EIP-712 typehash for the permit struct used by the contract"
      },
      "checkpoints(address,uint32)": {
        "notice": "DEPRECATED   A record of votes checkpoints for each account, by index"
      },
      "delegate(address)": {
        "notice": "Delegate votes from `msg.sender` to `delegatee`"
      },
      "delegateBySig(address,uint256,uint256,uint8,bytes32,bytes32)": {
        "notice": "Delegates votes from signatory to `delegatee`"
      },
      "delegateCheckpoints(address,uint32)": {
        "notice": "A record of votes checkpoints for a delegate's account, by index"
      },
      "delegates(address)": {
        "notice": "A record of each accounts delegate"
      },
      "getCurrentVotes(address)": {
        "notice": "Gets the current votes balance for `account`"
      },
      "getPriorVotes(address,uint256)": {
        "notice": "Determine the prior number of votes for an account as of a block number"
      },
      "nonces(address)": {
        "notice": "A record of states for signing / validating signatures"
      },
      "numCheckpoints(address)": {
        "notice": "DEPRECATED   The number of checkpoints for each account"
      },
      "numDelegateCheckpoints(address)": {
        "notice": "The number of checkpoints for each account"
      }
    },
    "version": 1
  }
}