{
  "contractName": "BaconCoinAirdrop",
  "abi": [
    {
      "inputs": [
        {
          "internalType": "address",
          "name": "_guardianAddress",
          "type": "address"
        }
      ],
      "stateMutability": "nonpayable",
      "type": "constructor"
    },
    {
      "inputs": [],
      "name": "lockAirDrop",
      "outputs": [],
      "stateMutability": "nonpayable",
      "type": "function"
    },
    {
      "inputs": [
        {
          "internalType": "address",
          "name": "_baconCoinAddress",
          "type": "address"
        },
        {
          "internalType": "address[]",
          "name": "recepients",
          "type": "address[]"
        },
        {
          "internalType": "uint256[]",
          "name": "amounts",
          "type": "uint256[]"
        },
        {
          "internalType": "uint256",
          "name": "length",
          "type": "uint256"
        }
      ],
      "name": "airdropBaconCoin",
      "outputs": [],
      "stateMutability": "nonpayable",
      "type": "function"
    }
  ],
  "bytecode": "0x608060405234801561001057600080fd5b5060405161059b38038061059b83398101604081905261002f91610053565b600080546001600160a81b0319166001600160a01b03909216919091179055610083565b60006020828403121561006557600080fd5b81516001600160a01b038116811461007c57600080fd5b9392505050565b610509806100926000396000f3fe608060405234801561001057600080fd5b50600436106100365760003560e01c80630ac6141a1461003b578063340d39d514610081575b600080fd5b61007f600080547fffffffffffffffffffffff00ffffffffffffffffffffffffffffffffffffffff1674010000000000000000000000000000000000000000179055565b005b61007f61008f36600461039c565b60005473ffffffffffffffffffffffffffffffffffffffff163314610115576040517f08c379a000000000000000000000000000000000000000000000000000000000815260206004820152601160248201527f756e617070726f7665642073656e64657200000000000000000000000000000060448201526064015b60405180910390fd5b60005474010000000000000000000000000000000000000000900460ff161561019a576040517f08c379a000000000000000000000000000000000000000000000000000000000815260206004820152600e60248201527f41697264726f70206c6f636b6564000000000000000000000000000000000000604482015260640161010c565b60005b81811015610278578473ffffffffffffffffffffffffffffffffffffffff166340c10f198583815181106101d3576101d3610476565b60200260200101518584815181106101ed576101ed610476565b60200260200101516040518363ffffffff1660e01b815260040161023392919073ffffffffffffffffffffffffffffffffffffffff929092168252602082015260400190565b600060405180830381600087803b15801561024d57600080fd5b505af1158015610261573d6000803e3d6000fd5b5050505080806102709061048c565b91505061019d565b5050505050565b803573ffffffffffffffffffffffffffffffffffffffff811681146102a357600080fd5b919050565b634e487b7160e01b600052604160045260246000fd5b604051601f82017fffffffffffffffffffffffffffffffffffffffffffffffffffffffffffffffe016810167ffffffffffffffff81118282101715610305576103056102a8565b604052919050565b600067ffffffffffffffff821115610327576103276102a8565b5060051b60200190565b600082601f83011261034257600080fd5b813560206103576103528361030d565b6102be565b82815260059290921b8401810191818101908684111561037657600080fd5b8286015b84811015610391578035835291830191830161037a565b509695505050505050565b600080600080608085870312156103b257600080fd5b6103bb8561027f565b935060208086013567ffffffffffffffff808211156103d957600080fd5b818801915088601f8301126103ed57600080fd5b81356103fb6103528261030d565b81815260059190911b8301840190848101908b83111561041a57600080fd5b938501935b8285101561043f576104308561027f565b8252938501939085019061041f565b97505050604088013592508083111561045757600080fd5b505061046587828801610331565b949793965093946060013593505050565b634e487b7160e01b600052603260045260246000fd5b60007fffffffffffffffffffffffffffffffffffffffffffffffffffffffffffffffff8214156104cc57634e487b7160e01b600052601160045260246000fd5b506001019056fea2646970667358221220d2e023fd3689ef0e37914501175eadb55ccd9f9da08db104b43b45a23ed7369364736f6c63430008090033",
  "immutableReferences": {},
  "source": "// contracts/BaconCoinAirdrop.sol\n// SPDX-License-Identifier: MIT\npragma solidity ^0.8.4;\n\nimport './../BaconCoin/BaconCoin0.sol';\n\ncontract BaconCoinAirdrop {\n\n    address guardianAddress;\n    bool locked;\n\n    constructor(address _guardianAddress) {\n        guardianAddress = _guardianAddress;\n        locked = false;\n    }\n\n    function lockAirDrop() public {\n        locked = true;\n    }\n\n    function airdropBaconCoin(address _baconCoinAddress, address[] memory recepients, uint256[] memory amounts, uint256 length) public {\n        require(msg.sender == guardianAddress, \"unapproved sender\");\n        require(!locked, \"Airdrop locked\");\n\n        for (uint256 i = 0; i < length; i++) {    \n            BaconCoin0(_baconCoinAddress).mint(recepients[i], amounts[i]);\n        }\n    }\n}",
  "sourcePath": "/Users/allan/src/mf/HomeDAO/contracts/Airdrop/BaconCoinAirdrop.sol",
  "compiler": {
    "name": "solc",
    "version": "0.8.9+commit.e5eed63a.Emscripten.clang"
  },
  "schemaVersion": "3.4.10",
  "updatedAt": "2022-11-05T23:10:34.376Z",
  "devdoc": {
    "kind": "dev",
    "methods": {},
    "version": 1
  },
  "userdoc": {
    "kind": "user",
    "methods": {},
    "version": 1
  }
}