{
  "contractName": "BaconCoin0",
  "abi": [
    {
      "anonymous": false,
      "inputs": [
        {
          "indexed": true,
          "internalType": "address",
          "name": "owner",
          "type": "address"
        },
        {
          "indexed": true,
          "internalType": "address",
          "name": "spender",
          "type": "address"
        },
        {
          "indexed": false,
          "internalType": "uint256",
          "name": "value",
          "type": "uint256"
        }
      ],
      "name": "Approval",
      "type": "event"
    },
    {
      "anonymous": false,
      "inputs": [
        {
          "indexed": true,
          "internalType": "address",
          "name": "operator",
          "type": "address"
        },
        {
          "indexed": true,
          "internalType": "address",
          "name": "tokenHolder",
          "type": "address"
        }
      ],
      "name": "AuthorizedOperator",
      "type": "event"
    },
    {
      "anonymous": false,
      "inputs": [
        {
          "indexed": true,
          "internalType": "address",
          "name": "operator",
          "type": "address"
        },
        {
          "indexed": true,
          "internalType": "address",
          "name": "from",
          "type": "address"
        },
        {
          "indexed": false,
          "internalType": "uint256",
          "name": "amount",
          "type": "uint256"
        },
        {
          "indexed": false,
          "internalType": "bytes",
          "name": "data",
          "type": "bytes"
        },
        {
          "indexed": false,
          "internalType": "bytes",
          "name": "operatorData",
          "type": "bytes"
        }
      ],
      "name": "Burned",
      "type": "event"
    },
    {
      "anonymous": false,
      "inputs": [
        {
          "indexed": true,
          "internalType": "address",
          "name": "delegator",
          "type": "address"
        },
        {
          "indexed": true,
          "internalType": "address",
          "name": "fromDelegate",
          "type": "address"
        },
        {
          "indexed": true,
          "internalType": "address",
          "name": "toDelegate",
          "type": "address"
        }
      ],
      "name": "DelegateChanged",
      "type": "event"
    },
    {
      "anonymous": false,
      "inputs": [
        {
          "indexed": true,
          "internalType": "address",
          "name": "delegate",
          "type": "address"
        },
        {
          "indexed": false,
          "internalType": "uint256",
          "name": "previousBalance",
          "type": "uint256"
        },
        {
          "indexed": false,
          "internalType": "uint256",
          "name": "newBalance",
          "type": "uint256"
        }
      ],
      "name": "DelegateVotesChanged",
      "type": "event"
    },
    {
      "anonymous": false,
      "inputs": [
        {
          "indexed": true,
          "internalType": "address",
          "name": "operator",
          "type": "address"
        },
        {
          "indexed": true,
          "internalType": "address",
          "name": "to",
          "type": "address"
        },
        {
          "indexed": false,
          "internalType": "uint256",
          "name": "amount",
          "type": "uint256"
        },
        {
          "indexed": false,
          "internalType": "bytes",
          "name": "data",
          "type": "bytes"
        },
        {
          "indexed": false,
          "internalType": "bytes",
          "name": "operatorData",
          "type": "bytes"
        }
      ],
      "name": "Minted",
      "type": "event"
    },
    {
      "anonymous": false,
      "inputs": [
        {
          "indexed": true,
          "internalType": "address",
          "name": "operator",
          "type": "address"
        },
        {
          "indexed": true,
          "internalType": "address",
          "name": "tokenHolder",
          "type": "address"
        }
      ],
      "name": "RevokedOperator",
      "type": "event"
    },
    {
      "anonymous": false,
      "inputs": [
        {
          "indexed": true,
          "internalType": "address",
          "name": "operator",
          "type": "address"
        },
        {
          "indexed": true,
          "internalType": "address",
          "name": "from",
          "type": "address"
        },
        {
          "indexed": true,
          "internalType": "address",
          "name": "to",
          "type": "address"
        },
        {
          "indexed": false,
          "internalType": "uint256",
          "name": "amount",
          "type": "uint256"
        },
        {
          "indexed": false,
          "internalType": "bytes",
          "name": "data",
          "type": "bytes"
        },
        {
          "indexed": false,
          "internalType": "bytes",
          "name": "operatorData",
          "type": "bytes"
        }
      ],
      "name": "Sent",
      "type": "event"
    },
    {
      "anonymous": false,
      "inputs": [
        {
          "indexed": true,
          "internalType": "address",
          "name": "from",
          "type": "address"
        },
        {
          "indexed": true,
          "internalType": "address",
          "name": "to",
          "type": "address"
        },
        {
          "indexed": false,
          "internalType": "uint256",
          "name": "value",
          "type": "uint256"
        }
      ],
      "name": "Transfer",
      "type": "event"
    },
    {
      "inputs": [],
      "name": "DELEGATION_TYPEHASH",
      "outputs": [
        {
          "internalType": "bytes32",
          "name": "",
          "type": "bytes32"
        }
      ],
      "stateMutability": "view",
      "type": "function"
    },
    {
      "inputs": [],
      "name": "DOMAIN_TYPEHASH",
      "outputs": [
        {
          "internalType": "bytes32",
          "name": "",
          "type": "bytes32"
        }
      ],
      "stateMutability": "view",
      "type": "function"
    },
    {
      "inputs": [],
      "name": "PERMIT_TYPEHASH",
      "outputs": [
        {
          "internalType": "bytes32",
          "name": "",
          "type": "bytes32"
        }
      ],
      "stateMutability": "view",
      "type": "function"
    },
    {
      "inputs": [
        {
          "internalType": "address",
          "name": "holder",
          "type": "address"
        },
        {
          "internalType": "address",
          "name": "spender",
          "type": "address"
        }
      ],
      "name": "allowance",
      "outputs": [
        {
          "internalType": "uint256",
          "name": "",
          "type": "uint256"
        }
      ],
      "stateMutability": "view",
      "type": "function"
    },
    {
      "inputs": [
        {
          "internalType": "address",
          "name": "spender",
          "type": "address"
        },
        {
          "internalType": "uint256",
          "name": "value",
          "type": "uint256"
        }
      ],
      "name": "approve",
      "outputs": [
        {
          "internalType": "bool",
          "name": "",
          "type": "bool"
        }
      ],
      "stateMutability": "nonpayable",
      "type": "function"
    },
    {
      "inputs": [
        {
          "internalType": "address",
          "name": "operator",
          "type": "address"
        }
      ],
      "name": "authorizeOperator",
      "outputs": [],
      "stateMutability": "nonpayable",
      "type": "function"
    },
    {
      "inputs": [
        {
          "internalType": "address",
          "name": "tokenHolder",
          "type": "address"
        }
      ],
      "name": "balanceOf",
      "outputs": [
        {
          "internalType": "uint256",
          "name": "",
          "type": "uint256"
        }
      ],
      "stateMutability": "view",
      "type": "function"
    },
    {
      "inputs": [
        {
          "internalType": "uint256",
          "name": "amount",
          "type": "uint256"
        },
        {
          "internalType": "bytes",
          "name": "data",
          "type": "bytes"
        }
      ],
      "name": "burn",
      "outputs": [],
      "stateMutability": "nonpayable",
      "type": "function"
    },
    {
      "inputs": [
        {
          "internalType": "address",
          "name": "",
          "type": "address"
        },
        {
          "internalType": "uint32",
          "name": "",
          "type": "uint32"
        }
      ],
      "name": "checkpoints",
      "outputs": [
        {
          "internalType": "uint32",
          "name": "fromBlock",
          "type": "uint32"
        },
        {
          "internalType": "uint256",
          "name": "votes",
          "type": "uint256"
        }
      ],
      "stateMutability": "view",
      "type": "function"
    },
    {
      "inputs": [],
      "name": "decimals",
      "outputs": [
        {
          "internalType": "uint8",
          "name": "",
          "type": "uint8"
        }
      ],
      "stateMutability": "pure",
      "type": "function"
    },
    {
      "inputs": [],
      "name": "defaultOperators",
      "outputs": [
        {
          "internalType": "address[]",
          "name": "",
          "type": "address[]"
        }
      ],
      "stateMutability": "view",
      "type": "function"
    },
    {
      "inputs": [
        {
          "internalType": "address",
          "name": "",
          "type": "address"
        }
      ],
      "name": "delegates",
      "outputs": [
        {
          "internalType": "address",
          "name": "",
          "type": "address"
        }
      ],
      "stateMutability": "view",
      "type": "function"
    },
    {
      "inputs": [],
      "name": "granularity",
      "outputs": [
        {
          "internalType": "uint256",
          "name": "",
          "type": "uint256"
        }
      ],
      "stateMutability": "view",
      "type": "function"
    },
    {
      "inputs": [
        {
          "internalType": "address",
          "name": "operator",
          "type": "address"
        },
        {
          "internalType": "address",
          "name": "tokenHolder",
          "type": "address"
        }
      ],
      "name": "isOperatorFor",
      "outputs": [
        {
          "internalType": "bool",
          "name": "",
          "type": "bool"
        }
      ],
      "stateMutability": "view",
      "type": "function"
    },
    {
      "inputs": [],
      "name": "name",
      "outputs": [
        {
          "internalType": "string",
          "name": "",
          "type": "string"
        }
      ],
      "stateMutability": "view",
      "type": "function"
    },
    {
      "inputs": [
        {
          "internalType": "address",
          "name": "",
          "type": "address"
        }
      ],
      "name": "nonces",
      "outputs": [
        {
          "internalType": "uint256",
          "name": "",
          "type": "uint256"
        }
      ],
      "stateMutability": "view",
      "type": "function"
    },
    {
      "inputs": [
        {
          "internalType": "address",
          "name": "",
          "type": "address"
        }
      ],
      "name": "numCheckpoints",
      "outputs": [
        {
          "internalType": "uint32",
          "name": "",
          "type": "uint32"
        }
      ],
      "stateMutability": "view",
      "type": "function"
    },
    {
      "inputs": [
        {
          "internalType": "address",
          "name": "account",
          "type": "address"
        },
        {
          "internalType": "uint256",
          "name": "amount",
          "type": "uint256"
        },
        {
          "internalType": "bytes",
          "name": "data",
          "type": "bytes"
        },
        {
          "internalType": "bytes",
          "name": "operatorData",
          "type": "bytes"
        }
      ],
      "name": "operatorBurn",
      "outputs": [],
      "stateMutability": "nonpayable",
      "type": "function"
    },
    {
      "inputs": [
        {
          "internalType": "address",
          "name": "sender",
          "type": "address"
        },
        {
          "internalType": "address",
          "name": "recipient",
          "type": "address"
        },
        {
          "internalType": "uint256",
          "name": "amount",
          "type": "uint256"
        },
        {
          "internalType": "bytes",
          "name": "data",
          "type": "bytes"
        },
        {
          "internalType": "bytes",
          "name": "operatorData",
          "type": "bytes"
        }
      ],
      "name": "operatorSend",
      "outputs": [],
      "stateMutability": "nonpayable",
      "type": "function"
    },
    {
      "inputs": [
        {
          "internalType": "address",
          "name": "operator",
          "type": "address"
        }
      ],
      "name": "revokeOperator",
      "outputs": [],
      "stateMutability": "nonpayable",
      "type": "function"
    },
    {
      "inputs": [
        {
          "internalType": "address",
          "name": "recipient",
          "type": "address"
        },
        {
          "internalType": "uint256",
          "name": "amount",
          "type": "uint256"
        },
        {
          "internalType": "bytes",
          "name": "data",
          "type": "bytes"
        }
      ],
      "name": "send",
      "outputs": [],
      "stateMutability": "nonpayable",
      "type": "function"
    },
    {
      "inputs": [],
      "name": "symbol",
      "outputs": [
        {
          "internalType": "string",
          "name": "",
          "type": "string"
        }
      ],
      "stateMutability": "view",
      "type": "function"
    },
    {
      "inputs": [],
      "name": "totalSupply",
      "outputs": [
        {
          "internalType": "uint256",
          "name": "",
          "type": "uint256"
        }
      ],
      "stateMutability": "view",
      "type": "function"
    },
    {
      "inputs": [
        {
          "internalType": "string",
          "name": "name",
          "type": "string"
        },
        {
          "internalType": "string",
          "name": "symbol",
          "type": "string"
        },
        {
          "internalType": "address",
          "name": "_stakingContractAddress",
          "type": "address"
        },
        {
          "internalType": "address",
          "name": "_airdropContractAddress",
          "type": "address"
        }
      ],
      "name": "initialize",
      "outputs": [],
      "stateMutability": "nonpayable",
      "type": "function"
    },
    {
      "inputs": [
        {
          "internalType": "address",
          "name": "dst",
          "type": "address"
        },
        {
          "internalType": "uint256",
          "name": "amount",
          "type": "uint256"
        }
      ],
      "name": "transfer",
      "outputs": [
        {
          "internalType": "bool",
          "name": "",
          "type": "bool"
        }
      ],
      "stateMutability": "nonpayable",
      "type": "function"
    },
    {
      "inputs": [
        {
          "internalType": "address",
          "name": "src",
          "type": "address"
        },
        {
          "internalType": "address",
          "name": "dst",
          "type": "address"
        },
        {
          "internalType": "uint256",
          "name": "amount",
          "type": "uint256"
        }
      ],
      "name": "transferFrom",
      "outputs": [
        {
          "internalType": "bool",
          "name": "",
          "type": "bool"
        }
      ],
      "stateMutability": "nonpayable",
      "type": "function"
    },
    {
      "inputs": [
        {
          "internalType": "address",
          "name": "account",
          "type": "address"
        },
        {
          "internalType": "uint256",
          "name": "amount",
          "type": "uint256"
        }
      ],
      "name": "mint",
      "outputs": [],
      "stateMutability": "nonpayable",
      "type": "function"
    },
    {
      "inputs": [],
      "name": "version",
      "outputs": [
        {
          "internalType": "uint256",
          "name": "",
          "type": "uint256"
        }
      ],
      "stateMutability": "pure",
      "type": "function"
    },
    {
      "inputs": [
        {
          "internalType": "address",
          "name": "delegatee",
          "type": "address"
        },
        {
          "internalType": "uint256",
          "name": "nonce",
          "type": "uint256"
        },
        {
          "internalType": "uint256",
          "name": "expiry",
          "type": "uint256"
        },
        {
          "internalType": "uint8",
          "name": "v",
          "type": "uint8"
        },
        {
          "internalType": "bytes32",
          "name": "r",
          "type": "bytes32"
        },
        {
          "internalType": "bytes32",
          "name": "s",
          "type": "bytes32"
        }
      ],
      "name": "delegateBySig",
      "outputs": [],
      "stateMutability": "nonpayable",
      "type": "function"
    },
    {
      "inputs": [
        {
          "internalType": "address",
          "name": "account",
          "type": "address"
        }
      ],
      "name": "getCurrentVotes",
      "outputs": [
        {
          "internalType": "uint256",
          "name": "",
          "type": "uint256"
        }
      ],
      "stateMutability": "view",
      "type": "function"
    },
    {
      "inputs": [
        {
          "internalType": "address",
          "name": "account",
          "type": "address"
        },
        {
          "internalType": "uint256",
          "name": "blockNumber",
          "type": "uint256"
        }
      ],
      "name": "getPriorVotes",
      "outputs": [
        {
          "internalType": "uint256",
          "name": "",
          "type": "uint256"
        }
      ],
      "stateMutability": "view",
      "type": "function"
    }
  ],
  "bytecode": "0x608060405234801561001057600080fd5b50613070806100206000396000f3fe608060405234801561001057600080fd5b50600436106101e55760003560e01c8063782d6fe11161010f578063c3cda520116100a2578063f1127ed811610071578063f1127ed8146104bd578063fad8b32a14610514578063fc673c4f14610527578063fe9d93031461053a57600080fd5b8063c3cda52014610437578063d95b63711461044a578063dd62ed3e1461045d578063e7a324dc1461049657600080fd5b806395d89b41116100de57806395d89b41146103f65780639bd9bbc6146103fe578063a9059cbb14610411578063b4b5ea571461042457600080fd5b8063782d6fe11461039d5780637ecebe00146103b05780638f15b414146103d0578063959b8c3f146103e357600080fd5b8063313ce56711610187578063587cde1e11610156578063587cde1e146102e557806362ad1b83146103265780636fcfff451461033957806370a082311461037457600080fd5b8063313ce567146102b357806340c10f19146102c257806354fd4d50146102d7578063556f0dc7146102de57600080fd5b806318160ddd116101c357806318160ddd1461024057806320606b701461025257806323b872dd1461027957806330adf81f1461028c57600080fd5b806306e48538146101ea57806306fdde0314610208578063095ea7b31461021d575b600080fd5b6101f261054d565b6040516101ff919061291b565b60405180910390f35b6102106105af565b6040516101ff91906129b5565b61023061022b3660046129e0565b610638565b60405190151581526020016101ff565b6034545b6040519081526020016101ff565b6102447f8cad95687ba82c2ce50e74f7b754645e5117c3a5bec8151c0726d5857980a86681565b610230610287366004612a0c565b610652565b6102447f6e71edae12b1b97f4d1f60370fef10105fa2faae0126114a169c64845d6126c981565b604051601281526020016101ff565b6102d56102d03660046129e0565b6106a4565b005b6000610244565b6001610244565b61030e6102f3366004612a4d565b6069602052600090815260409020546001600160a01b031681565b6040516001600160a01b0390911681526020016101ff565b6102d5610334366004612b0d565b610752565b61035f610347366004612a4d565b60686020526000908152604090205463ffffffff1681565b60405163ffffffff90911681526020016101ff565b610244610382366004612a4d565b6001600160a01b031660009081526033602052604090205490565b6102446103ab3660046129e0565b6107e4565b6102446103be366004612a4d565b606a6020526000908152604090205481565b6102d56103de366004612ba0565b610a39565b6102d56103f1366004612a4d565b610b89565b610210610cc0565b6102d561040c366004612c29565b610ccf565b61023061041f3660046129e0565b610cf2565b610244610432366004612a4d565b610d41565b6102d5610445366004612c82565b610db6565b610230610458366004612ce4565b611076565b61024461046b366004612ce4565b6001600160a01b039182166000908152603b6020908152604080832093909416825291909152205490565b6102447fe48329057bfd03d55e49b547132e39cffd9c1820ad7b9d4c5307691425d15adf81565b6104f86104cb366004612d1d565b60676020908152600092835260408084209091529082529020805460019091015463ffffffff9091169082565b6040805163ffffffff90931683526020830191909152016101ff565b6102d5610522366004612a4d565b611117565b6102d5610535366004612d54565b61124f565b6102d5610548366004612dd4565b6112dd565b606060378054806020026020016040519081016040528092919081815260200182805480156105a557602002820191906000526020600020905b81546001600160a01b03168152600190910190602001808311610587575b5050505050905090565b6060603580546105be90612e1b565b80601f01602080910402602001604051908101604052809291908181526020018280546105ea90612e1b565b80156105a55780601f1061060c576101008083540402835291602001916105a5565b820191906000526020600020905b81548152906001019060200180831161061a57509395945050505050565b6000336106468185856112f8565b60019150505b92915050565b600061065f848484611451565b61066857600080fd5b6001600160a01b0380851660009081526069602052604080822054868416835291205461069a92918216911684611691565b5060019392505050565b6065546001600160a01b03163314806106c757506066546001600160a01b031633145b6107185760405162461bcd60e51b815260206004820152601360248201527f496e76616c6964206d696e742073656e6465720000000000000000000000000060448201526064015b60405180910390fd5b610742828260405180602001604052806000815250604051806020016040528060008152506117f0565b61074e60008383611691565b5050565b61075c3386611076565b6107ce5760405162461bcd60e51b815260206004820152602c60248201527f4552433737373a2063616c6c6572206973206e6f7420616e206f70657261746f60448201527f7220666f7220686f6c6465720000000000000000000000000000000000000000606482015260840161070f565b6107dd858585858560016117fe565b5050505050565b60004382106108355760405162461bcd60e51b815260206004820152601d60248201527f4261636f6e436f696e3a206e6f74207965742064657465726d696e6564000000604482015260640161070f565b6001600160a01b03831660009081526068602052604090205463ffffffff168061086357600091505061064c565b6001600160a01b03841660009081526067602052604081208491610888600185612e6c565b63ffffffff908116825260208201929092526040016000205416116108f1576001600160a01b0384166000908152606760205260408120906108cb600184612e6c565b63ffffffff1663ffffffff1681526020019081526020016000206001015491505061064c565b6001600160a01b038416600090815260676020908152604080832083805290915290205463ffffffff1683101561092c57600091505061064c565b60008061093a600184612e6c565b90505b8163ffffffff168163ffffffff161115610a02576000600261095f8484612e6c565b6109699190612e91565b6109739083612e6c565b6001600160a01b038816600090815260676020908152604080832063ffffffff80861685529083529281902081518083019092528054909316808252600190930154918101919091529192508714156109d65760200151945061064c9350505050565b805163ffffffff168711156109ed578193506109fb565b6109f8600183612e6c565b92505b505061093d565b506001600160a01b038516600090815260676020908152604080832063ffffffff9094168352929052206001015491505092915050565b600054610100900460ff16610a545760005460ff1615610a58565b303b155b610aca5760405162461bcd60e51b815260206004820152602e60248201527f496e697469616c697a61626c653a20636f6e747261637420697320616c72656160448201527f647920696e697469616c697a6564000000000000000000000000000000000000606482015260840161070f565b600054610100900460ff16158015610b0957600080547fffffffffffffffffffffffffffffffffffffffffffffffffffffffffffff0000166101011790555b606580546001600160a01b0380861673ffffffffffffffffffffffffffffffffffffffff199283161790925560668054928516929091169190911790556060610b53868683611905565b5080156107dd57600080547fffffffffffffffffffffffffffffffffffffffffffffffffffffffffffff00ff1690555050505050565b336001600160a01b0382161415610c075760405162461bcd60e51b8152602060048201526024808201527f4552433737373a20617574686f72697a696e672073656c66206173206f70657260448201527f61746f7200000000000000000000000000000000000000000000000000000000606482015260840161070f565b6001600160a01b03811660009081526038602052604090205460ff1615610c5857336000908152603a602090815260408083206001600160a01b03851684529091529020805460ff19169055610c87565b3360009081526039602090815260408083206001600160a01b03851684529091529020805460ff191660011790555b60405133906001600160a01b038316907ff4caeb2d6ca8932a215a353d0703c326ec2d81fc68170f320eb2ab49e9df61f990600090a350565b6060603680546105be90612e1b565b610ced338484846040518060200160405280600081525060016117fe565b505050565b6000610cfe8383611995565b610d0757600080fd5b33600090815260696020526040808220546001600160a01b0386811684529190922054610d38928216911684611691565b50600192915050565b6001600160a01b03811660009081526068602052604081205463ffffffff1680610d6c576000610daf565b6001600160a01b038316600090815260676020526040812090610d90600184612e6c565b63ffffffff1663ffffffff168152602001908152602001600020600101545b9392505050565b60007f8cad95687ba82c2ce50e74f7b754645e5117c3a5bec8151c0726d5857980a866610de16105af565b80519060200120610def4690565b60408051602080820195909552808201939093526060830191909152306080808401919091528151808403909101815260a0830182528051908401207fe48329057bfd03d55e49b547132e39cffd9c1820ad7b9d4c5307691425d15adf60c08401526001600160a01b038b1660e084015261010083018a90526101208084018a9052825180850390910181526101408401909252815191909301207f1901000000000000000000000000000000000000000000000000000000000000610160830152610162820183905261018282018190529192506000906101a20160408051601f198184030181528282528051602091820120600080855291840180845281905260ff8a169284019290925260608301889052608083018790529092509060019060a0016020604051602081039080840390855afa158015610f36573d6000803e3d6000fd5b5050604051601f1901519150506001600160a01b038116610f995760405162461bcd60e51b815260206004820152601c60248201527f4261636f6e436f696e3a20696e76616c6964207369676e617475726500000000604482015260640161070f565b6001600160a01b0381166000908152606a60205260408120805491610fbd83612ec2565b91905055891461100f5760405162461bcd60e51b815260206004820152601860248201527f4261636f6e436f696e3a20696e76616c6964206e6f6e63650000000000000000604482015260640161070f565b8742111561105f5760405162461bcd60e51b815260206004820152601c60248201527f4261636f6e436f696e3a207369676e6174757265206578706972656400000000604482015260640161070f565b611069818b611a9d565b505050505b505050505050565b6000816001600160a01b0316836001600160a01b031614806110e157506001600160a01b03831660009081526038602052604090205460ff1680156110e157506001600160a01b038083166000908152603a602090815260408083209387168352929052205460ff16155b80610daf57506001600160a01b0380831660009081526039602090815260408083209387168352929052205460ff169392505050565b6001600160a01b0381163314156111965760405162461bcd60e51b815260206004820152602160248201527f4552433737373a207265766f6b696e672073656c66206173206f70657261746f60448201527f7200000000000000000000000000000000000000000000000000000000000000606482015260840161070f565b6001600160a01b03811660009081526038602052604090205460ff16156111ea57336000908152603a602090815260408083206001600160a01b03851684529091529020805460ff19166001179055611216565b3360009081526039602090815260408083206001600160a01b03851684529091529020805460ff191690555b60405133906001600160a01b038316907f50546e66e5f44d728365dc3908c63bc5cfeeab470722c1677e3073a6ac294aa190600090a350565b6112593385611076565b6112cb5760405162461bcd60e51b815260206004820152602c60248201527f4552433737373a2063616c6c6572206973206e6f7420616e206f70657261746f60448201527f7220666f7220686f6c6465720000000000000000000000000000000000000000606482015260840161070f565b6112d784848484611b24565b50505050565b61074e33838360405180602001604052806000815250611b24565b6001600160a01b0383166113745760405162461bcd60e51b815260206004820152602560248201527f4552433737373a20617070726f76652066726f6d20746865207a65726f20616460448201527f6472657373000000000000000000000000000000000000000000000000000000606482015260840161070f565b6001600160a01b0382166113f05760405162461bcd60e51b815260206004820152602360248201527f4552433737373a20617070726f766520746f20746865207a65726f206164647260448201527f6573730000000000000000000000000000000000000000000000000000000000606482015260840161070f565b6001600160a01b038381166000818152603b602090815260408083209487168084529482529182902085905590518481527f8c5be1e5ebec7d5bd14f71427d1e84f3dd0314c0f7b2291e5b200ac8c7c3b925910160405180910390a3505050565b60006001600160a01b0383166114ce5760405162461bcd60e51b8152602060048201526024808201527f4552433737373a207472616e7366657220746f20746865207a65726f2061646460448201527f7265737300000000000000000000000000000000000000000000000000000000606482015260840161070f565b6001600160a01b03841661154a5760405162461bcd60e51b815260206004820152602660248201527f4552433737373a207472616e736665722066726f6d20746865207a65726f206160448201527f6464726573730000000000000000000000000000000000000000000000000000606482015260840161070f565b600033905061157b818686866040518060200160405280600081525060405180602001604052806000815250611d0e565b6115a7818686866040518060200160405280600081525060405180602001604052806000815250611e76565b6001600160a01b038086166000908152603b6020908152604080832093851683529290522054838110156116435760405162461bcd60e51b815260206004820152602960248201527f4552433737373a207472616e7366657220616d6f756e7420657863656564732060448201527f616c6c6f77616e63650000000000000000000000000000000000000000000000606482015260840161070f565b61165786836116528785612efb565b6112f8565b6116858287878760405180602001604052806000815250604051806020016040528060008152506000611ff2565b50600195945050505050565b816001600160a01b0316836001600160a01b0316141580156116b35750600081115b15610ced576001600160a01b03831615611756576001600160a01b03831660009081526068602052604081205463ffffffff1690816116f3576000611736565b6001600160a01b038516600090815260676020526040812090611717600185612e6c565b63ffffffff1663ffffffff168152602001908152602001600020600101545b905060006117448285612208565b905061175286848484612214565b5050505b6001600160a01b03821615610ced576001600160a01b03821660009081526068602052604081205463ffffffff1690816117915760006117d4565b6001600160a01b0384166000908152606760205260408120906117b5600185612e6c565b63ffffffff1663ffffffff168152602001908152602001600020600101545b905060006117e282856123b6565b905061106e85848484612214565b6112d78484848460016123c2565b6001600160a01b03861661187a5760405162461bcd60e51b815260206004820152602260248201527f4552433737373a2073656e642066726f6d20746865207a65726f20616464726560448201527f7373000000000000000000000000000000000000000000000000000000000000606482015260840161070f565b6001600160a01b0385166118d05760405162461bcd60e51b815260206004820181905260248201527f4552433737373a2073656e6420746f20746865207a65726f2061646472657373604482015260640161070f565b336118df818888888888611d0e565b6118ed818888888888611e76565b6118fc81888888888888611ff2565b50505050505050565b600054610100900460ff166119825760405162461bcd60e51b815260206004820152602b60248201527f496e697469616c697a61626c653a20636f6e7472616374206973206e6f74206960448201527f6e697469616c697a696e67000000000000000000000000000000000000000000606482015260840161070f565b61198a6124ff565b610ced83838361257e565b60006001600160a01b038316611a125760405162461bcd60e51b8152602060048201526024808201527f4552433737373a207472616e7366657220746f20746865207a65726f2061646460448201527f7265737300000000000000000000000000000000000000000000000000000000606482015260840161070f565b6000339050611a43818286866040518060200160405280600081525060405180602001604052806000815250611d0e565b611a6f818286866040518060200160405280600081525060405180602001604052806000815250611e76565b6106468182868660405180602001604052806000815250604051806020016040528060008152506000611ff2565b6001600160a01b038281166000818152606960208181526040808420805460338452828620549490935287871673ffffffffffffffffffffffffffffffffffffffff198416811790915590519190951694919391928592917f3134e8a2e6d97e929a7e54011ea5485d7d196dd5f0ba4d4ef95803e8e3fc257f9190a46112d7828483611691565b6001600160a01b038416611ba05760405162461bcd60e51b815260206004820152602260248201527f4552433737373a206275726e2066726f6d20746865207a65726f20616464726560448201527f7373000000000000000000000000000000000000000000000000000000000000606482015260840161070f565b33611bb081866000878787611d0e565b6001600160a01b03851660009081526033602052604090205484811015611c3f5760405162461bcd60e51b815260206004820152602360248201527f4552433737373a206275726e20616d6f756e7420657863656564732062616c6160448201527f6e63650000000000000000000000000000000000000000000000000000000000606482015260840161070f565b6001600160a01b0386166000908152603360205260408120868303905560348054879290611c6e908490612efb565b92505081905550856001600160a01b0316826001600160a01b03167fa78a9be3a7b862d26933ad85fb11d80ef66b8f972d7cbba06621d583943a4098878787604051611cbc93929190612f12565b60405180910390a36040518581526000906001600160a01b038816907fddf252ad1be2c89b69c2b068fc378daa952ba7f163c4a11628f55a4df523b3ef906020015b60405180910390a3505050505050565b6040517faabbb8ca0000000000000000000000000000000000000000000000000000000081526001600160a01b03861660048201527f29ddb589b1fb5fc7cf394961c1adf5f8c6454761adf795e67fe149f658abe8956024820152600090731820a4b7618bde71dce8cdc73aab6c95905fad249063aabbb8ca9060440160206040518083038186803b158015611da357600080fd5b505afa158015611db7573d6000803e3d6000fd5b505050506040513d601f19601f82011682018060405250810190611ddb9190612f47565b90506001600160a01b038116156118fc576040517f75ab97820000000000000000000000000000000000000000000000000000000081526001600160a01b038216906375ab978290611e3b908a908a908a908a908a908a90600401612f64565b600060405180830381600087803b158015611e5557600080fd5b505af1158015611e69573d6000803e3d6000fd5b5050505050505050505050565b6001600160a01b03851660009081526033602052604090205483811015611f055760405162461bcd60e51b815260206004820152602760248201527f4552433737373a207472616e7366657220616d6f756e7420657863656564732060448201527f62616c616e636500000000000000000000000000000000000000000000000000606482015260840161070f565b6001600160a01b03808716600090815260336020526040808220878503905591871681529081208054869290611f3c908490612fbd565b92505081905550846001600160a01b0316866001600160a01b0316886001600160a01b03167f06b541ddaa720db2b10a4d0cdac39b8d360425fc073085fac19bc82614677987878787604051611f9493929190612f12565b60405180910390a4846001600160a01b0316866001600160a01b03167fddf252ad1be2c89b69c2b068fc378daa952ba7f163c4a11628f55a4df523b3ef86604051611fe191815260200190565b60405180910390a350505050505050565b6040517faabbb8ca0000000000000000000000000000000000000000000000000000000081526001600160a01b03861660048201527fb281fc8c12954d22544db45de3159a39272895b169a852b314f9cc762e44c53b6024820152600090731820a4b7618bde71dce8cdc73aab6c95905fad249063aabbb8ca9060440160206040518083038186803b15801561208757600080fd5b505afa15801561209b573d6000803e3d6000fd5b505050506040513d601f19601f820116820180604052508101906120bf9190612f47565b90506001600160a01b03811615612154576040517e23de290000000000000000000000000000000000000000000000000000000081526001600160a01b038216906223de299061211d908b908b908b908b908b908b90600401612f64565b600060405180830381600087803b15801561213757600080fd5b505af115801561214b573d6000803e3d6000fd5b505050506121fe565b81156121fe576001600160a01b0386163b156121fe5760405162461bcd60e51b815260206004820152604d60248201527f4552433737373a20746f6b656e20726563697069656e7420636f6e747261637460448201527f20686173206e6f20696d706c656d656e74657220666f7220455243373737546f60648201527f6b656e73526563697069656e7400000000000000000000000000000000000000608482015260a40161070f565b5050505050505050565b6000610daf8284612efb565b600061223843604051806060016040528060278152602001613014602791396127f0565b905060008463ffffffff1611801561229257506001600160a01b038516600090815260676020526040812063ffffffff831691612276600188612e6c565b63ffffffff908116825260208201929092526040016000205416145b156122db576001600160a01b038516600090815260676020526040812083916122bc600188612e6c565b63ffffffff16815260208101919091526040016000206001015561236b565b60408051808201825263ffffffff838116825260208083018681526001600160a01b038a166000908152606783528581208a851682529092529390209151825463ffffffff19169116178155905160019182015561233a908590612fd5565b6001600160a01b0386166000908152606860205260409020805463ffffffff191663ffffffff929092169190911790555b60408051848152602081018490526001600160a01b038716917fdec2bacdd2f05b59de34da9b523dff8be42e5e38e818c82fdb0bae774387a724910160405180910390a25050505050565b6000610daf8284612fbd565b6001600160a01b0385166124185760405162461bcd60e51b815260206004820181905260248201527f4552433737373a206d696e7420746f20746865207a65726f2061646472657373604482015260640161070f565b6000339050846034600082825461242f9190612fbd565b90915550506001600160a01b0386166000908152603360205260408120805487929061245c908490612fbd565b9091555061247290508160008888888888611ff2565b856001600160a01b0316816001600160a01b03167f2fe5be0146f74c5bce36c0b80911af6c7d86ff27e89d5cfa61fc681327954e5d8787876040516124b993929190612f12565b60405180910390a36040518581526001600160a01b038716906000907fddf252ad1be2c89b69c2b068fc378daa952ba7f163c4a11628f55a4df523b3ef90602001611cfe565b600054610100900460ff1661257c5760405162461bcd60e51b815260206004820152602b60248201527f496e697469616c697a61626c653a20636f6e7472616374206973206e6f74206960448201527f6e697469616c697a696e67000000000000000000000000000000000000000000606482015260840161070f565b565b600054610100900460ff166125fb5760405162461bcd60e51b815260206004820152602b60248201527f496e697469616c697a61626c653a20636f6e7472616374206973206e6f74206960448201527f6e697469616c697a696e67000000000000000000000000000000000000000000606482015260840161070f565b825161260e906035906020860190612820565b508151612622906036906020850190612820565b5080516126369060379060208401906128a4565b5060005b815181101561269f5760016038600084848151811061265b5761265b612ffd565b6020908102919091018101516001600160a01b03168252810191909152604001600020805460ff19169115159190911790558061269781612ec2565b91505061263a565b506040517f29965a1d00000000000000000000000000000000000000000000000000000000815230600482018190527fac7fbab5f54a3ca8194167523c6753bfeb96a445279294b6125b68cce217705460248301526044820152731820a4b7618bde71dce8cdc73aab6c95905fad24906329965a1d90606401600060405180830381600087803b15801561273257600080fd5b505af1158015612746573d6000803e3d6000fd5b50506040517f29965a1d00000000000000000000000000000000000000000000000000000000815230600482018190527faea199e31a596269b42cdafd93407f14436db6e4cad65417994c2eb37381e05a60248301526044820152731820a4b7618bde71dce8cdc73aab6c95905fad2492506329965a1d9150606401600060405180830381600087803b1580156127dc57600080fd5b505af11580156118fc573d6000803e3d6000fd5b60008164010000000084106128185760405162461bcd60e51b815260040161070f91906129b5565b509192915050565b82805461282c90612e1b565b90600052602060002090601f01602090048101928261284e5760008555612894565b82601f1061286757805160ff1916838001178555612894565b82800160010185558215612894579182015b82811115612894578251825591602001919060010190612879565b506128a0929150612906565b5090565b828054828255906000526020600020908101928215612894579160200282015b82811115612894578251825473ffffffffffffffffffffffffffffffffffffffff19166001600160a01b039091161782556020909201916001909101906128c4565b5b808211156128a05760008155600101612907565b6020808252825182820181905260009190848201906040850190845b8181101561295c5783516001600160a01b031683529284019291840191600101612937565b50909695505050505050565b6000815180845260005b8181101561298e57602081850181015186830182015201612972565b818111156129a0576000602083870101525b50601f01601f19169290920160200192915050565b602081526000610daf6020830184612968565b6001600160a01b03811681146129dd57600080fd5b50565b600080604083850312156129f357600080fd5b82356129fe816129c8565b946020939093013593505050565b600080600060608486031215612a2157600080fd5b8335612a2c816129c8565b92506020840135612a3c816129c8565b929592945050506040919091013590565b600060208284031215612a5f57600080fd5b8135610daf816129c8565b634e487b7160e01b600052604160045260246000fd5b600082601f830112612a9157600080fd5b813567ffffffffffffffff80821115612aac57612aac612a6a565b604051601f8301601f19908116603f01168101908282118183101715612ad457612ad4612a6a565b81604052838152866020858801011115612aed57600080fd5b836020870160208301376000602085830101528094505050505092915050565b600080600080600060a08688031215612b2557600080fd5b8535612b30816129c8565b94506020860135612b40816129c8565b935060408601359250606086013567ffffffffffffffff80821115612b6457600080fd5b612b7089838a01612a80565b93506080880135915080821115612b8657600080fd5b50612b9388828901612a80565b9150509295509295909350565b60008060008060808587031215612bb657600080fd5b843567ffffffffffffffff80821115612bce57600080fd5b612bda88838901612a80565b95506020870135915080821115612bf057600080fd5b50612bfd87828801612a80565b9350506040850135612c0e816129c8565b91506060850135612c1e816129c8565b939692955090935050565b600080600060608486031215612c3e57600080fd5b8335612c49816129c8565b925060208401359150604084013567ffffffffffffffff811115612c6c57600080fd5b612c7886828701612a80565b9150509250925092565b60008060008060008060c08789031215612c9b57600080fd5b8635612ca6816129c8565b95506020870135945060408701359350606087013560ff81168114612cca57600080fd5b9598949750929560808101359460a0909101359350915050565b60008060408385031215612cf757600080fd5b8235612d02816129c8565b91506020830135612d12816129c8565b809150509250929050565b60008060408385031215612d3057600080fd5b8235612d3b816129c8565b9150602083013563ffffffff81168114612d1257600080fd5b60008060008060808587031215612d6a57600080fd5b8435612d75816129c8565b935060208501359250604085013567ffffffffffffffff80821115612d9957600080fd5b612da588838901612a80565b93506060870135915080821115612dbb57600080fd5b50612dc887828801612a80565b91505092959194509250565b60008060408385031215612de757600080fd5b82359150602083013567ffffffffffffffff811115612e0557600080fd5b612e1185828601612a80565b9150509250929050565b600181811c90821680612e2f57607f821691505b60208210811415612e5057634e487b7160e01b600052602260045260246000fd5b50919050565b634e487b7160e01b600052601160045260246000fd5b600063ffffffff83811690831681811015612e8957612e89612e56565b039392505050565b600063ffffffff80841680612eb657634e487b7160e01b600052601260045260246000fd5b92169190910492915050565b60007fffffffffffffffffffffffffffffffffffffffffffffffffffffffffffffffff821415612ef457612ef4612e56565b5060010190565b600082821015612f0d57612f0d612e56565b500390565b838152606060208201526000612f2b6060830185612968565b8281036040840152612f3d8185612968565b9695505050505050565b600060208284031215612f5957600080fd5b8151610daf816129c8565b60006001600160a01b038089168352808816602084015280871660408401525084606083015260c06080830152612f9e60c0830185612968565b82810360a0840152612fb08185612968565b9998505050505050505050565b60008219821115612fd057612fd0612e56565b500190565b600063ffffffff808316818516808303821115612ff457612ff4612e56565b01949350505050565b634e487b7160e01b600052603260045260246000fdfe4261636f6e436f696e3a20626c6f636b206e756d62657220657863656564732033322062697473a264697066735822122088de9ed546bfcdd0b61cea8efd648bdabe063b242fe826783159ad9872fb354064736f6c63430008090033",
  "immutableReferences": {},
  "source": "// contracts/Pool0.sol\n// SPDX-License-Identifier: MIT\npragma solidity ^0.8.4;\n\nimport \"../@openzeppelin/contracts-upgradeable/proxy/utils/Initializable.sol\";\nimport \"../@openzeppelin/contracts-upgradeable/token/ERC777/ERC777Upgradeable.sol\";\nimport '../@openzeppelin/contracts/utils/math/SafeMath.sol';\nimport '../@openzeppelin/contracts/utils/math/SignedSafeMath.sol';\n\ncontract BaconCoin0 is Initializable, ERC777Upgradeable {\n    using SignedSafeMath for int256;\n    using SafeMath for uint256;\n\n    address stakingContract;\n    address airdropContract;\n\n    /// @notice A record of votes checkpoints for each account, by index\n    mapping (address => mapping (uint32 => Checkpoint)) public checkpoints;\n\n    /// @notice The number of checkpoints for each account\n    mapping (address => uint32) public numCheckpoints;\n\n    /// @notice A checkpoint for marking number of votes from a given block\n    struct Checkpoint {\n        uint32 fromBlock;\n        uint256 votes;\n    }\n\n    /// @notice A record of each accounts delegate\n    mapping (address => address) public delegates;\n\n    /// @notice The EIP-712 typehash for the contract's domain\n    bytes32 public constant DOMAIN_TYPEHASH = keccak256(\"EIP712Domain(string name,uint256 chainId,address verifyingContract)\");\n\n    /// @notice The EIP-712 typehash for the delegation struct used by the contract\n    bytes32 public constant DELEGATION_TYPEHASH = keccak256(\"Delegation(address delegatee,uint256 nonce,uint256 expiry)\");\n\n    /// @notice The EIP-712 typehash for the permit struct used by the contract\n    bytes32 public constant PERMIT_TYPEHASH = keccak256(\"Permit(address owner,address spender,uint256 value,uint256 nonce,uint256 deadline)\");\n\n    /// @notice A record of states for signing / validating signatures\n    mapping (address => uint) public nonces;\n\n    /*****************************************************\n    *       EVENTS\n    ******************************************************/\n    \n    /// @notice An event thats emitted when an account changes its delegate\n    event DelegateChanged(address indexed delegator, address indexed fromDelegate, address indexed toDelegate);\n\n    /// @notice An event thats emitted when a delegate account's vote balance changes\n    event DelegateVotesChanged(address indexed delegate, uint previousBalance, uint newBalance);\n\n    /*****************************************************\n    *       BASE FUNCTIONS\n    ******************************************************/\n\n    /** \n    *   @dev Function initialize replaces constructor in upgradable contracts\n    *   - Calls the init function of the inherited ERC777 contract\n    *   @param name Name of this particular ERC777 token\n    *   @param symbol The ticker this token will go by\n    */\n    function initialize(string memory name, string memory symbol, address _stakingContractAddress, address _airdropContractAddress) public initializer {\n        stakingContract = _stakingContractAddress;\n        airdropContract = _airdropContractAddress;\n        address[] memory operators;\n        ERC777Upgradeable.__ERC777_init(name, symbol, operators );\n    }\n\n    // Transfer func must be overwritten to also moveDelegates when balance is transferred\n    function transfer(address dst, uint amount) public override returns (bool) {\n        require(super.transfer(dst, amount));\n        _moveDelegates(delegates[msg.sender], delegates[dst], amount);\n        return true;\n    }\n\n    // TransferFrom func must be overwritten to also moveDelegates when balance is transferred\n    function transferFrom(address src, address dst, uint256 amount) public override returns (bool) {\n        require(super.transferFrom(src, dst, amount));\n        _moveDelegates(delegates[src], delegates[dst], amount);\n        return true;\n    }\n\n    function mint(address account, uint256 amount) public {\n        require(msg.sender == stakingContract || msg.sender == airdropContract, \"Invalid mint sender\");\n        super._mint(account, amount, \"\", \"\");\n        _moveDelegates(address(0), account, amount);\n    }\n\n    /**  \n    *   @dev Function version returns uint depending on what version the contract is on\n    */\n    function version() public pure returns (uint) {\n        return 0;\n    }\n    \n    function safe32(uint n, string memory errorMessage) internal pure returns (uint32) {\n        require(n < 2**32, errorMessage);\n        return uint32(n);\n    }\n\n    function getChainId() internal view returns (uint) {\n        uint256 chainId;\n        // solhint-disable-next-line no-inline-assembly\n        assembly { chainId := chainid() }\n        return chainId;\n    }\n\n    /********************************\n    *     GOVERNANCE FUNCTIONS      *\n    *********************************/\n\n    /**\n     * @notice Delegates votes from signatory to `delegatee`\n     * @param delegatee The address to delegate votes to\n     * @param nonce The contract state required to match the signature\n     * @param expiry The time at which to expire the signature\n     * @param v The recovery byte of the signature\n     * @param r Half of the ECDSA signature pair\n     * @param s Half of the ECDSA signature pair\n     */\n    function delegateBySig(address delegatee, uint nonce, uint expiry, uint8 v, bytes32 r, bytes32 s) public {\n        bytes32 domainSeparator = keccak256(abi.encode(DOMAIN_TYPEHASH, keccak256(bytes(name())), getChainId(), address(this)));\n        bytes32 structHash = keccak256(abi.encode(DELEGATION_TYPEHASH, delegatee, nonce, expiry));\n        bytes32 digest = keccak256(abi.encodePacked(\"\\x19\\x01\", domainSeparator, structHash));\n        address signatory = ecrecover(digest, v, r, s);\n        require(signatory != address(0), \"BaconCoin: invalid signature\");\n        require(nonce == nonces[signatory]++, \"BaconCoin: invalid nonce\");\n        require(block.timestamp <= expiry, \"BaconCoin: signature expired\");\n        return _delegate(signatory, delegatee);\n    }\n\n    /**\n     * @notice Gets the current votes balance for `account`\n     * @param account The address to get votes balance\n     * @return The number of current votes for `account`\n     */\n    function getCurrentVotes(address account) external view returns (uint256) {\n        uint32 nCheckpoints = numCheckpoints[account];\n        return nCheckpoints > 0 ? checkpoints[account][nCheckpoints - 1].votes : 0;\n    }\n\n    /**\n    * @notice Determine the prior number of votes for an account as of a block number\n    * @dev Block number must be a finalized block or else this function will revert to prevent misinformation.\n    * @param account The address of the account to check\n    * @param blockNumber The block number to get the vote balance at\n    * @return The number of votes the account had as of the given block\n    */\n    function getPriorVotes(address account, uint blockNumber) public view returns (uint256) {\n        require(blockNumber < block.number, \"BaconCoin: not yet determined\");\n\n        uint32 nCheckpoints = numCheckpoints[account];\n        if (nCheckpoints == 0) {\n            return 0;\n        }\n\n        // First check most recent balance\n        if (checkpoints[account][nCheckpoints - 1].fromBlock <= blockNumber) {\n            return checkpoints[account][nCheckpoints - 1].votes;\n        }\n\n        // Next check implicit zero balance\n        if (checkpoints[account][0].fromBlock > blockNumber) {\n            return 0;\n        }\n\n        uint32 lower = 0;\n        uint32 upper = nCheckpoints - 1;\n        while (upper > lower) {\n            uint32 center = upper - (upper - lower) / 2; // ceil, avoiding overflow\n            Checkpoint memory cp = checkpoints[account][center];\n            if (cp.fromBlock == blockNumber) {\n                return cp.votes;\n            } else if (cp.fromBlock < blockNumber) {\n                lower = center;\n            } else {\n                upper = center - 1;\n            }\n        }\n        return checkpoints[account][lower].votes;\n    }\n\n    function _delegate(address delegator, address delegatee) internal {\n        address currentDelegate = delegates[delegator];\n        uint256 delegatorBalance = balanceOf(delegator);\n        delegates[delegator] = delegatee;\n\n        emit DelegateChanged(delegator, currentDelegate, delegatee);\n\n        _moveDelegates(currentDelegate, delegatee, delegatorBalance);\n    }\n\n    function _moveDelegates(address srcRep, address dstRep, uint256 amount) internal {\n        if (srcRep != dstRep && amount > 0) {\n            if (srcRep != address(0)) {\n                uint32 srcRepNum = numCheckpoints[srcRep];\n                uint256 srcRepOld = srcRepNum > 0 ? checkpoints[srcRep][srcRepNum - 1].votes : 0;\n                uint256 srcRepNew = srcRepOld.sub(amount);\n                _writeCheckpoint(srcRep, srcRepNum, srcRepOld, srcRepNew);\n            }\n\n            if (dstRep != address(0)) {\n                uint32 dstRepNum = numCheckpoints[dstRep];\n                uint256 dstRepOld = dstRepNum > 0 ? checkpoints[dstRep][dstRepNum - 1].votes : 0;\n                uint256 dstRepNew = dstRepOld.add(amount);\n                _writeCheckpoint(dstRep, dstRepNum, dstRepOld, dstRepNew);\n            }\n        }\n    }\n\n    function _writeCheckpoint(address delegatee, uint32 nCheckpoints, uint256 oldVotes, uint256 newVotes) internal {\n      uint32 blockNumber = safe32(block.number, \"BaconCoin: block number exceeds 32 bits\");\n\n      if (nCheckpoints > 0 && checkpoints[delegatee][nCheckpoints - 1].fromBlock == blockNumber) {\n          checkpoints[delegatee][nCheckpoints - 1].votes = newVotes;\n      } else {\n          checkpoints[delegatee][nCheckpoints] = Checkpoint(blockNumber, newVotes);\n          numCheckpoints[delegatee] = nCheckpoints + 1;\n      }\n\n      emit DelegateVotesChanged(delegatee, oldVotes, newVotes);\n    }\n}",
  "sourcePath": "/Users/patrick/github/HomeDAO/contracts/BaconCoin/BaconCoin0.sol",
  "compiler": {
    "name": "solc",
    "version": "0.8.9+commit.e5eed63a.Emscripten.clang"
  },
  "schemaVersion": "3.4.8",
  "updatedAt": "2022-08-10T01:41:49.761Z",
  "devdoc": {
    "kind": "dev",
    "methods": {
      "allowance(address,address)": {
        "details": "See {IERC20-allowance}. Note that operator and allowance concepts are orthogonal: operators may not have allowance, and accounts with allowance may not be operators themselves."
      },
      "approve(address,uint256)": {
        "details": "See {IERC20-approve}. Note that accounts cannot have allowance issued by their operators."
      },
      "authorizeOperator(address)": {
        "details": "See {IERC777-authorizeOperator}."
      },
      "balanceOf(address)": {
        "details": "Returns the amount of tokens owned by an account (`tokenHolder`)."
      },
      "burn(uint256,bytes)": {
        "details": "See {IERC777-burn}. Also emits a {IERC20-Transfer} event for ERC20 compatibility."
      },
      "decimals()": {
        "details": "See {ERC20-decimals}. Always returns 18, as per the [ERC777 EIP](https://eips.ethereum.org/EIPS/eip-777#backward-compatibility)."
      },
      "defaultOperators()": {
        "details": "See {IERC777-defaultOperators}."
      },
      "delegateBySig(address,uint256,uint256,uint8,bytes32,bytes32)": {
        "params": {
          "delegatee": "The address to delegate votes to",
          "expiry": "The time at which to expire the signature",
          "nonce": "The contract state required to match the signature",
          "r": "Half of the ECDSA signature pair",
          "s": "Half of the ECDSA signature pair",
          "v": "The recovery byte of the signature"
        }
      },
      "getCurrentVotes(address)": {
        "params": {
          "account": "The address to get votes balance"
        },
        "returns": {
          "_0": "The number of current votes for `account`"
        }
      },
      "getPriorVotes(address,uint256)": {
        "details": "Block number must be a finalized block or else this function will revert to prevent misinformation.",
        "params": {
          "account": "The address of the account to check",
          "blockNumber": "The block number to get the vote balance at"
        },
        "returns": {
          "_0": "The number of votes the account had as of the given block"
        }
      },
      "granularity()": {
        "details": "See {IERC777-granularity}. This implementation always returns `1`."
      },
      "initialize(string,string,address,address)": {
        "details": "Function initialize replaces constructor in upgradable contracts   - Calls the init function of the inherited ERC777 contract",
        "params": {
          "name": "Name of this particular ERC777 token",
          "symbol": "The ticker this token will go by"
        }
      },
      "isOperatorFor(address,address)": {
        "details": "See {IERC777-isOperatorFor}."
      },
      "name()": {
        "details": "See {IERC777-name}."
      },
      "operatorBurn(address,uint256,bytes,bytes)": {
        "details": "See {IERC777-operatorBurn}. Emits {Burned} and {IERC20-Transfer} events."
      },
      "operatorSend(address,address,uint256,bytes,bytes)": {
        "details": "See {IERC777-operatorSend}. Emits {Sent} and {IERC20-Transfer} events."
      },
      "revokeOperator(address)": {
        "details": "See {IERC777-revokeOperator}."
      },
      "send(address,uint256,bytes)": {
        "details": "See {IERC777-send}. Also emits a {IERC20-Transfer} event for ERC20 compatibility."
      },
      "symbol()": {
        "details": "See {IERC777-symbol}."
      },
      "totalSupply()": {
        "details": "See {IERC777-totalSupply}."
      },
      "version()": {
        "details": "Function version returns uint depending on what version the contract is on"
      }
    },
    "version": 1
  },
  "userdoc": {
    "events": {
      "DelegateChanged(address,address,address)": {
        "notice": "An event thats emitted when an account changes its delegate"
      },
      "DelegateVotesChanged(address,uint256,uint256)": {
        "notice": "An event thats emitted when a delegate account's vote balance changes"
      }
    },
    "kind": "user",
    "methods": {
      "DELEGATION_TYPEHASH()": {
        "notice": "The EIP-712 typehash for the delegation struct used by the contract"
      },
      "DOMAIN_TYPEHASH()": {
        "notice": "The EIP-712 typehash for the contract's domain"
      },
      "PERMIT_TYPEHASH()": {
        "notice": "The EIP-712 typehash for the permit struct used by the contract"
      },
      "checkpoints(address,uint32)": {
        "notice": "A record of votes checkpoints for each account, by index"
      },
      "delegateBySig(address,uint256,uint256,uint8,bytes32,bytes32)": {
        "notice": "Delegates votes from signatory to `delegatee`"
      },
      "delegates(address)": {
        "notice": "A record of each accounts delegate"
      },
      "getCurrentVotes(address)": {
        "notice": "Gets the current votes balance for `account`"
      },
      "getPriorVotes(address,uint256)": {
        "notice": "Determine the prior number of votes for an account as of a block number"
      },
      "nonces(address)": {
        "notice": "A record of states for signing / validating signatures"
      },
      "numCheckpoints(address)": {
        "notice": "The number of checkpoints for each account"
      }
    },
    "version": 1
  }
}