{
  "contractName": "BaconCoin2",
  "abi": [
    {
      "anonymous": false,
      "inputs": [
        {
          "indexed": true,
          "internalType": "address",
          "name": "owner",
          "type": "address"
        },
        {
          "indexed": true,
          "internalType": "address",
          "name": "spender",
          "type": "address"
        },
        {
          "indexed": false,
          "internalType": "uint256",
          "name": "value",
          "type": "uint256"
        }
      ],
      "name": "Approval",
      "type": "event"
    },
    {
      "anonymous": false,
      "inputs": [
        {
          "indexed": true,
          "internalType": "address",
          "name": "delegator",
          "type": "address"
        },
        {
          "indexed": true,
          "internalType": "address",
          "name": "fromDelegate",
          "type": "address"
        },
        {
          "indexed": true,
          "internalType": "address",
          "name": "toDelegate",
          "type": "address"
        }
      ],
      "name": "DelegateChanged",
      "type": "event"
    },
    {
      "anonymous": false,
      "inputs": [
        {
          "indexed": true,
          "internalType": "address",
          "name": "delegate",
          "type": "address"
        },
        {
          "indexed": false,
          "internalType": "uint256",
          "name": "previousBalance",
          "type": "uint256"
        },
        {
          "indexed": false,
          "internalType": "uint256",
          "name": "newBalance",
          "type": "uint256"
        }
      ],
      "name": "DelegateVotesChanged",
      "type": "event"
    },
    {
      "anonymous": false,
      "inputs": [
        {
          "indexed": true,
          "internalType": "address",
          "name": "from",
          "type": "address"
        },
        {
          "indexed": true,
          "internalType": "address",
          "name": "to",
          "type": "address"
        },
        {
          "indexed": false,
          "internalType": "uint256",
          "name": "value",
          "type": "uint256"
        }
      ],
      "name": "Transfer",
      "type": "event"
    },
    {
      "inputs": [],
      "name": "DELEGATION_TYPEHASH",
      "outputs": [
        {
          "internalType": "bytes32",
          "name": "",
          "type": "bytes32"
        }
      ],
      "stateMutability": "view",
      "type": "function"
    },
    {
      "inputs": [],
      "name": "DOMAIN_TYPEHASH",
      "outputs": [
        {
          "internalType": "bytes32",
          "name": "",
          "type": "bytes32"
        }
      ],
      "stateMutability": "view",
      "type": "function"
    },
    {
      "inputs": [],
      "name": "PERMIT_TYPEHASH",
      "outputs": [
        {
          "internalType": "bytes32",
          "name": "",
          "type": "bytes32"
        }
      ],
      "stateMutability": "view",
      "type": "function"
    },
    {
      "inputs": [
        {
          "internalType": "address",
          "name": "owner",
          "type": "address"
        },
        {
          "internalType": "address",
          "name": "spender",
          "type": "address"
        }
      ],
      "name": "allowance",
      "outputs": [
        {
          "internalType": "uint256",
          "name": "",
          "type": "uint256"
        }
      ],
      "stateMutability": "view",
      "type": "function"
    },
    {
      "inputs": [
        {
          "internalType": "address",
          "name": "spender",
          "type": "address"
        },
        {
          "internalType": "uint256",
          "name": "amount",
          "type": "uint256"
        }
      ],
      "name": "approve",
      "outputs": [
        {
          "internalType": "bool",
          "name": "",
          "type": "bool"
        }
      ],
      "stateMutability": "nonpayable",
      "type": "function"
    },
    {
      "inputs": [
        {
          "internalType": "address",
          "name": "account",
          "type": "address"
        }
      ],
      "name": "balanceOf",
      "outputs": [
        {
          "internalType": "uint256",
          "name": "",
          "type": "uint256"
        }
      ],
      "stateMutability": "view",
      "type": "function"
    },
    {
      "inputs": [
        {
          "internalType": "address",
          "name": "",
          "type": "address"
        },
        {
          "internalType": "uint32",
          "name": "",
          "type": "uint32"
        }
      ],
      "name": "checkpoints",
      "outputs": [
        {
          "internalType": "uint32",
          "name": "fromBlock",
          "type": "uint32"
        },
        {
          "internalType": "uint256",
          "name": "votes",
          "type": "uint256"
        }
      ],
      "stateMutability": "view",
      "type": "function"
    },
    {
      "inputs": [],
      "name": "decimals",
      "outputs": [
        {
          "internalType": "uint8",
          "name": "",
          "type": "uint8"
        }
      ],
      "stateMutability": "view",
      "type": "function"
    },
    {
      "inputs": [
        {
          "internalType": "address",
          "name": "spender",
          "type": "address"
        },
        {
          "internalType": "uint256",
          "name": "subtractedValue",
          "type": "uint256"
        }
      ],
      "name": "decreaseAllowance",
      "outputs": [
        {
          "internalType": "bool",
          "name": "",
          "type": "bool"
        }
      ],
      "stateMutability": "nonpayable",
      "type": "function"
    },
    {
      "inputs": [
        {
          "internalType": "address",
          "name": "",
          "type": "address"
        },
        {
          "internalType": "uint32",
          "name": "",
          "type": "uint32"
        }
      ],
      "name": "delegateCheckpoints",
      "outputs": [
        {
          "internalType": "uint32",
          "name": "fromBlock",
          "type": "uint32"
        },
        {
          "internalType": "uint256",
          "name": "votes",
          "type": "uint256"
        }
      ],
      "stateMutability": "view",
      "type": "function"
    },
    {
      "inputs": [
        {
          "internalType": "address",
          "name": "",
          "type": "address"
        }
      ],
      "name": "delegates",
      "outputs": [
        {
          "internalType": "address",
          "name": "",
          "type": "address"
        }
      ],
      "stateMutability": "view",
      "type": "function"
    },
    {
      "inputs": [
        {
          "internalType": "address",
          "name": "spender",
          "type": "address"
        },
        {
          "internalType": "uint256",
          "name": "addedValue",
          "type": "uint256"
        }
      ],
      "name": "increaseAllowance",
      "outputs": [
        {
          "internalType": "bool",
          "name": "",
          "type": "bool"
        }
      ],
      "stateMutability": "nonpayable",
      "type": "function"
    },
    {
      "inputs": [],
      "name": "name",
      "outputs": [
        {
          "internalType": "string",
          "name": "",
          "type": "string"
        }
      ],
      "stateMutability": "view",
      "type": "function"
    },
    {
      "inputs": [
        {
          "internalType": "address",
          "name": "",
          "type": "address"
        }
      ],
      "name": "nonces",
      "outputs": [
        {
          "internalType": "uint256",
          "name": "",
          "type": "uint256"
        }
      ],
      "stateMutability": "view",
      "type": "function"
    },
    {
      "inputs": [
        {
          "internalType": "address",
          "name": "",
          "type": "address"
        }
      ],
      "name": "numCheckpoints",
      "outputs": [
        {
          "internalType": "uint32",
          "name": "",
          "type": "uint32"
        }
      ],
      "stateMutability": "view",
      "type": "function"
    },
    {
      "inputs": [
        {
          "internalType": "address",
          "name": "",
          "type": "address"
        }
      ],
      "name": "numDelegateCheckpoints",
      "outputs": [
        {
          "internalType": "uint32",
          "name": "",
          "type": "uint32"
        }
      ],
      "stateMutability": "view",
      "type": "function"
    },
    {
      "inputs": [],
      "name": "symbol",
      "outputs": [
        {
          "internalType": "string",
          "name": "",
          "type": "string"
        }
      ],
      "stateMutability": "view",
      "type": "function"
    },
    {
      "inputs": [],
      "name": "totalSupply",
      "outputs": [
        {
          "internalType": "uint256",
          "name": "",
          "type": "uint256"
        }
      ],
      "stateMutability": "view",
      "type": "function"
    },
    {
      "inputs": [
        {
          "internalType": "address",
          "name": "dst",
          "type": "address"
        },
        {
          "internalType": "uint256",
          "name": "amount",
          "type": "uint256"
        }
      ],
      "name": "transfer",
      "outputs": [
        {
          "internalType": "bool",
          "name": "",
          "type": "bool"
        }
      ],
      "stateMutability": "nonpayable",
      "type": "function"
    },
    {
      "inputs": [
        {
          "internalType": "address",
          "name": "src",
          "type": "address"
        },
        {
          "internalType": "address",
          "name": "dst",
          "type": "address"
        },
        {
          "internalType": "uint256",
          "name": "amount",
          "type": "uint256"
        }
      ],
      "name": "transferFrom",
      "outputs": [
        {
          "internalType": "bool",
          "name": "",
          "type": "bool"
        }
      ],
      "stateMutability": "nonpayable",
      "type": "function"
    },
    {
      "inputs": [
        {
          "internalType": "address",
          "name": "account",
          "type": "address"
        },
        {
          "internalType": "uint256",
          "name": "amount",
          "type": "uint256"
        }
      ],
      "name": "mint",
      "outputs": [],
      "stateMutability": "nonpayable",
      "type": "function"
    },
    {
      "inputs": [
        {
          "internalType": "uint256",
          "name": "amount",
          "type": "uint256"
        },
        {
          "internalType": "bytes",
          "name": "data",
          "type": "bytes"
        }
      ],
      "name": "burn",
      "outputs": [],
      "stateMutability": "nonpayable",
      "type": "function"
    },
    {
      "inputs": [],
      "name": "version",
      "outputs": [
        {
          "internalType": "uint256",
          "name": "",
          "type": "uint256"
        }
      ],
      "stateMutability": "pure",
      "type": "function"
    },
    {
      "inputs": [
        {
          "internalType": "address",
          "name": "delegatee",
          "type": "address"
        },
        {
          "internalType": "uint256",
          "name": "nonce",
          "type": "uint256"
        },
        {
          "internalType": "uint256",
          "name": "expiry",
          "type": "uint256"
        },
        {
          "internalType": "uint8",
          "name": "v",
          "type": "uint8"
        },
        {
          "internalType": "bytes32",
          "name": "r",
          "type": "bytes32"
        },
        {
          "internalType": "bytes32",
          "name": "s",
          "type": "bytes32"
        }
      ],
      "name": "delegateBySig",
      "outputs": [],
      "stateMutability": "nonpayable",
      "type": "function"
    },
    {
      "inputs": [
        {
          "internalType": "address",
          "name": "delegatee",
          "type": "address"
        }
      ],
      "name": "delegate",
      "outputs": [],
      "stateMutability": "nonpayable",
      "type": "function"
    },
    {
      "inputs": [
        {
          "internalType": "address",
          "name": "account",
          "type": "address"
        }
      ],
      "name": "getCurrentVotes",
      "outputs": [
        {
          "internalType": "uint256",
          "name": "",
          "type": "uint256"
        }
      ],
      "stateMutability": "view",
      "type": "function"
    },
    {
      "inputs": [
        {
          "internalType": "address",
          "name": "account",
          "type": "address"
        },
        {
          "internalType": "uint256",
          "name": "blockNumber",
          "type": "uint256"
        }
      ],
      "name": "getPriorVotes",
      "outputs": [
        {
          "internalType": "uint256",
          "name": "",
          "type": "uint256"
        }
      ],
      "stateMutability": "view",
      "type": "function"
    }
  ],
  "bytecode": "0x608060405234801561001057600080fd5b50611c6a806100206000396000f3fe608060405234801561001057600080fd5b50600436106101b95760003560e01c80636fcfff45116100f9578063a9059cbb11610097578063dd62ed3e11610071578063dd62ed3e1461046c578063e7a324dc146104a5578063f1127ed8146104cc578063fe9d93031461050757600080fd5b8063a9059cbb14610433578063b4b5ea5714610446578063c3cda5201461045957600080fd5b80637ecebe00116100d35780637ecebe00146103d257806395d89b41146103f2578063a11c4741146103fa578063a457c2d71461042057600080fd5b80636fcfff451461035b57806370a0823114610396578063782d6fe1146103bf57600080fd5b8063313ce56711610166578063509c3ef011610140578063509c3ef0146102a957806354fd4d5014610300578063587cde1e146103075780635c19a95c1461034857600080fd5b8063313ce56714610272578063395093511461028157806340c10f191461029457600080fd5b806320606b701161019757806320606b701461021157806323b872dd1461023857806330adf81f1461024b57600080fd5b806306fdde03146101be578063095ea7b3146101dc57806318160ddd146101ff575b600080fd5b6101c661051a565b6040516101d39190611840565b60405180910390f35b6101ef6101ea3660046118b1565b6105ac565b60405190151581526020016101d3565b6034545b6040519081526020016101d3565b6102037f8cad95687ba82c2ce50e74f7b754645e5117c3a5bec8151c0726d5857980a86681565b6101ef6102463660046118db565b6105c3565b6102037f6e71edae12b1b97f4d1f60370fef10105fa2faae0126114a169c64845d6126c981565b604051601281526020016101d3565b6101ef61028f3660046118b1565b610615565b6102a76102a23660046118b1565b610651565b005b6102e46102b7366004611917565b606b6020908152600092835260408084209091529082529020805460019091015463ffffffff9091169082565b6040805163ffffffff90931683526020830191909152016101d3565b6001610203565b610330610315366004611957565b6069602052600090815260409020546001600160a01b031681565b6040516001600160a01b0390911681526020016101d3565b6102a7610356366004611957565b6106f8565b610381610369366004611957565b60686020526000908152604090205463ffffffff1681565b60405163ffffffff90911681526020016101d3565b6102036103a4366004611957565b6001600160a01b031660009081526033602052604090205490565b6102036103cd3660046118b1565b610705565b6102036103e0366004611957565b606a6020526000908152604090205481565b6101c661095a565b610381610408366004611957565b606c6020526000908152604090205463ffffffff1681565b6101ef61042e3660046118b1565b610969565b6101ef6104413660046118b1565b610a10565b610203610454366004611957565b610a56565b6102a7610467366004611972565b610acb565b61020361047a3660046119d2565b6001600160a01b039182166000908152603b6020908152604080832093909416825291909152205490565b6102037fe48329057bfd03d55e49b547132e39cffd9c1820ad7b9d4c5307691425d15adf81565b6102e46104da366004611917565b60676020908152600092835260408084209091529082529020805460019091015463ffffffff9091169082565b6102a7610515366004611a1b565b610d8b565b60606035805461052990611ad6565b80601f016020809104026020016040519081016040528092919081815260200182805461055590611ad6565b80156105a25780601f10610577576101008083540402835291602001916105a2565b820191906000526020600020905b81548152906001019060200180831161058557829003601f168201915b5050505050905090565b60006105b9338484610dbb565b5060015b92915050565b60006105d0848484610f13565b6105d957600080fd5b6001600160a01b0380851660009081526069602052604080822054868416835291205461060b92918216911684610fd2565b5060019392505050565b336000818152603b602090815260408083206001600160a01b038716845290915281205490916105b991859061064c908690611b27565b610dbb565b6065546001600160a01b031633148061067457506066546001600160a01b031633145b6106c55760405162461bcd60e51b815260206004820152601360248201527f496e76616c6964206d696e742073656e6465720000000000000000000000000060448201526064015b60405180910390fd5b6106cf8282611136565b6001600160a01b038083166000908152606960205260408120546106f4921683610fd2565b5050565b6107023382611215565b50565b60004382106107565760405162461bcd60e51b815260206004820152601d60248201527f4261636f6e436f696e3a206e6f74207965742064657465726d696e656400000060448201526064016106bc565b6001600160a01b0383166000908152606c602052604090205463ffffffff16806107845760009150506105bd565b6001600160a01b0384166000908152606b6020526040812084916107a9600185611b3f565b63ffffffff90811682526020820192909252604001600020541611610812576001600160a01b0384166000908152606b60205260408120906107ec600184611b3f565b63ffffffff1663ffffffff168152602001908152602001600020600101549150506105bd565b6001600160a01b0384166000908152606b6020908152604080832083805290915290205463ffffffff1683101561084d5760009150506105bd565b60008061085b600184611b3f565b90505b8163ffffffff168163ffffffff16111561092357600060026108808484611b3f565b61088a9190611b64565b6108949083611b3f565b6001600160a01b0388166000908152606b6020908152604080832063ffffffff80861685529083529281902081518083019092528054909316808252600190930154918101919091529192508714156108f7576020015194506105bd9350505050565b805163ffffffff1687111561090e5781935061091c565b610919600183611b3f565b92505b505061085e565b506001600160a01b0385166000908152606b6020908152604080832063ffffffff9094168352929052206001015491505092915050565b60606036805461052990611ad6565b336000908152603b602090815260408083206001600160a01b038616845290915281205482811015610a035760405162461bcd60e51b815260206004820152602560248201527f45524332303a2064656372656173656420616c6c6f77616e63652062656c6f7760448201527f207a65726f00000000000000000000000000000000000000000000000000000060648201526084016106bc565b61060b3385858403610dbb565b6000610a1c83836112ad565b610a2557600080fd5b33600090815260696020526040808220546001600160a01b03868116845291909220546105b9928216911684610fd2565b6001600160a01b0381166000908152606c602052604081205463ffffffff1680610a81576000610ac4565b6001600160a01b0383166000908152606b6020526040812090610aa5600184611b3f565b63ffffffff1663ffffffff168152602001908152602001600020600101545b9392505050565b60007f8cad95687ba82c2ce50e74f7b754645e5117c3a5bec8151c0726d5857980a866610af661051a565b80519060200120610b044690565b60408051602080820195909552808201939093526060830191909152306080808401919091528151808403909101815260a0830182528051908401207fe48329057bfd03d55e49b547132e39cffd9c1820ad7b9d4c5307691425d15adf60c08401526001600160a01b038b1660e084015261010083018a90526101208084018a9052825180850390910181526101408401909252815191909301207f1901000000000000000000000000000000000000000000000000000000000000610160830152610162820183905261018282018190529192506000906101a20160408051601f198184030181528282528051602091820120600080855291840180845281905260ff8a169284019290925260608301889052608083018790529092509060019060a0016020604051602081039080840390855afa158015610c4b573d6000803e3d6000fd5b5050604051601f1901519150506001600160a01b038116610cae5760405162461bcd60e51b815260206004820152601c60248201527f4261636f6e436f696e3a20696e76616c6964207369676e61747572650000000060448201526064016106bc565b6001600160a01b0381166000908152606a60205260408120805491610cd283611b95565b919050558914610d245760405162461bcd60e51b815260206004820152601860248201527f4261636f6e436f696e3a20696e76616c6964206e6f6e6365000000000000000060448201526064016106bc565b87421115610d745760405162461bcd60e51b815260206004820152601c60248201527f4261636f6e436f696e3a207369676e617475726520657870697265640000000060448201526064016106bc565b610d7e818b611215565b505050505b505050505050565b610d9533836112ba565b336000908152606960205260408120546106f4916001600160a01b039091169084610fd2565b6001600160a01b038316610e365760405162461bcd60e51b8152602060048201526024808201527f45524332303a20617070726f76652066726f6d20746865207a65726f2061646460448201527f726573730000000000000000000000000000000000000000000000000000000060648201526084016106bc565b6001600160a01b038216610eb25760405162461bcd60e51b815260206004820152602260248201527f45524332303a20617070726f766520746f20746865207a65726f20616464726560448201527f737300000000000000000000000000000000000000000000000000000000000060648201526084016106bc565b6001600160a01b038381166000818152603b602090815260408083209487168084529482529182902085905590518481527f8c5be1e5ebec7d5bd14f71427d1e84f3dd0314c0f7b2291e5b200ac8c7c3b925910160405180910390a3505050565b6000610f2084848461143f565b6001600160a01b0384166000908152603b6020908152604080832033845290915290205482811015610fba5760405162461bcd60e51b815260206004820152602860248201527f45524332303a207472616e7366657220616d6f756e742065786365656473206160448201527f6c6c6f77616e636500000000000000000000000000000000000000000000000060648201526084016106bc565b610fc78533858403610dbb565b506001949350505050565b816001600160a01b0316836001600160a01b031614158015610ff45750600081115b15611131576001600160a01b03831615611097576001600160a01b0383166000908152606c602052604081205463ffffffff169081611034576000611077565b6001600160a01b0385166000908152606b6020526040812090611058600185611b3f565b63ffffffff1663ffffffff168152602001908152602001600020600101545b905060006110858285611656565b905061109386848484611662565b5050505b6001600160a01b03821615611131576001600160a01b0382166000908152606c602052604081205463ffffffff1690816110d2576000611115565b6001600160a01b0384166000908152606b60205260408120906110f6600185611b3f565b63ffffffff1663ffffffff168152602001908152602001600020600101545b905060006111238285611804565b9050610d8385848484611662565b505050565b6001600160a01b03821661118c5760405162461bcd60e51b815260206004820152601f60248201527f45524332303a206d696e7420746f20746865207a65726f20616464726573730060448201526064016106bc565b806034600082825461119e9190611b27565b90915550506001600160a01b038216600090815260336020526040812080548392906111cb908490611b27565b90915550506040518181526001600160a01b038316906000907fddf252ad1be2c89b69c2b068fc378daa952ba7f163c4a11628f55a4df523b3ef9060200160405180910390a35050565b6001600160a01b03828116600081815260696020818152604080842080546033845282862054949093528787167fffffffffffffffffffffffff00000000000000000000000000000000000000008416811790915590519190951694919391928592917f3134e8a2e6d97e929a7e54011ea5485d7d196dd5f0ba4d4ef95803e8e3fc257f9190a46112a7828483610fd2565b50505050565b60006105b933848461143f565b6001600160a01b0382166113365760405162461bcd60e51b815260206004820152602160248201527f45524332303a206275726e2066726f6d20746865207a65726f2061646472657360448201527f730000000000000000000000000000000000000000000000000000000000000060648201526084016106bc565b6001600160a01b038216600090815260336020526040902054818110156113c55760405162461bcd60e51b815260206004820152602260248201527f45524332303a206275726e20616d6f756e7420657863656564732062616c616e60448201527f636500000000000000000000000000000000000000000000000000000000000060648201526084016106bc565b6001600160a01b03831660009081526033602052604081208383039055603480548492906113f4908490611bce565b90915550506040518281526000906001600160a01b038516907fddf252ad1be2c89b69c2b068fc378daa952ba7f163c4a11628f55a4df523b3ef9060200160405180910390a3505050565b6001600160a01b0383166114bb5760405162461bcd60e51b815260206004820152602560248201527f45524332303a207472616e736665722066726f6d20746865207a65726f20616460448201527f647265737300000000000000000000000000000000000000000000000000000060648201526084016106bc565b6001600160a01b0382166115375760405162461bcd60e51b815260206004820152602360248201527f45524332303a207472616e7366657220746f20746865207a65726f206164647260448201527f657373000000000000000000000000000000000000000000000000000000000060648201526084016106bc565b6001600160a01b038316600090815260336020526040902054818110156115c65760405162461bcd60e51b815260206004820152602660248201527f45524332303a207472616e7366657220616d6f756e742065786365656473206260448201527f616c616e6365000000000000000000000000000000000000000000000000000060648201526084016106bc565b6001600160a01b038085166000908152603360205260408082208585039055918516815290812080548492906115fd908490611b27565b92505081905550826001600160a01b0316846001600160a01b03167fddf252ad1be2c89b69c2b068fc378daa952ba7f163c4a11628f55a4df523b3ef8460405161164991815260200190565b60405180910390a36112a7565b6000610ac48284611bce565b600061168643604051806060016040528060278152602001611c0e60279139611810565b905060008463ffffffff161180156116e057506001600160a01b0385166000908152606b6020526040812063ffffffff8316916116c4600188611b3f565b63ffffffff908116825260208201929092526040016000205416145b15611729576001600160a01b0385166000908152606b60205260408120839161170a600188611b3f565b63ffffffff1681526020810191909152604001600020600101556117b9565b60408051808201825263ffffffff838116825260208083018681526001600160a01b038a166000908152606b83528581208a851682529092529390209151825463ffffffff191691161781559051600191820155611788908590611be5565b6001600160a01b0386166000908152606c60205260409020805463ffffffff191663ffffffff929092169190911790555b60408051848152602081018490526001600160a01b038716917fdec2bacdd2f05b59de34da9b523dff8be42e5e38e818c82fdb0bae774387a724910160405180910390a25050505050565b6000610ac48284611b27565b60008164010000000084106118385760405162461bcd60e51b81526004016106bc9190611840565b509192915050565b600060208083528351808285015260005b8181101561186d57858101830151858201604001528201611851565b8181111561187f576000604083870101525b50601f01601f1916929092016040019392505050565b80356001600160a01b03811681146118ac57600080fd5b919050565b600080604083850312156118c457600080fd5b6118cd83611895565b946020939093013593505050565b6000806000606084860312156118f057600080fd5b6118f984611895565b925061190760208501611895565b9150604084013590509250925092565b6000806040838503121561192a57600080fd5b61193383611895565b9150602083013563ffffffff8116811461194c57600080fd5b809150509250929050565b60006020828403121561196957600080fd5b610ac482611895565b60008060008060008060c0878903121561198b57600080fd5b61199487611895565b95506020870135945060408701359350606087013560ff811681146119b857600080fd5b9598949750929560808101359460a0909101359350915050565b600080604083850312156119e557600080fd5b6119ee83611895565b91506119fc60208401611895565b90509250929050565b634e487b7160e01b600052604160045260246000fd5b60008060408385031215611a2e57600080fd5b82359150602083013567ffffffffffffffff80821115611a4d57600080fd5b818501915085601f830112611a6157600080fd5b813581811115611a7357611a73611a05565b604051601f8201601f19908116603f01168101908382118183101715611a9b57611a9b611a05565b81604052828152886020848701011115611ab457600080fd5b8260208601602083013760006020848301015280955050505050509250929050565b600181811c90821680611aea57607f821691505b60208210811415611b0b57634e487b7160e01b600052602260045260246000fd5b50919050565b634e487b7160e01b600052601160045260246000fd5b60008219821115611b3a57611b3a611b11565b500190565b600063ffffffff83811690831681811015611b5c57611b5c611b11565b039392505050565b600063ffffffff80841680611b8957634e487b7160e01b600052601260045260246000fd5b92169190910492915050565b60007fffffffffffffffffffffffffffffffffffffffffffffffffffffffffffffffff821415611bc757611bc7611b11565b5060010190565b600082821015611be057611be0611b11565b500390565b600063ffffffff808316818516808303821115611c0457611c04611b11565b0194935050505056fe4261636f6e436f696e3a20626c6f636b206e756d62657220657863656564732033322062697473a26469706673582212202a43cef24f2456eac472d4df1073d30d86362853f1a27cbaa7ec44537bab87a464736f6c63430008090033",
  "immutableReferences": {},
  "source": "// contracts/Pool0.sol\n// SPDX-License-Identifier: MIT\npragma solidity ^0.8.4;\n\nimport \"../@openzeppelin/contracts-upgradeable/proxy/utils/Initializable.sol\";\nimport \"./../ERC20/ERC20UpgradeableFromERC777.sol\";\nimport '../@openzeppelin/contracts/utils/math/SafeMath.sol';\nimport '../@openzeppelin/contracts/utils/math/SignedSafeMath.sol';\n\ncontract BaconCoin2 is Initializable, ERC20UpgradeableFromERC777 {\n    using SignedSafeMath for int256;\n    using SafeMath for uint256;\n\n    address stakingContract;\n    address airdropContract;\n\n    /// @notice DEPRECATED  \n    /// A record of votes checkpoints for each account, by index\n    mapping (address => mapping (uint32 => Checkpoint)) public checkpoints;\n\n    /// @notice DEPRECATED  \n    /// The number of checkpoints for each account\n    mapping (address => uint32) public numCheckpoints;\n\n    /// @notice A checkpoint for marking number of votes from a given block\n    struct Checkpoint {\n        uint32 fromBlock;\n        uint256 votes;\n    }\n\n    /// @notice A record of each accounts delegate\n    mapping (address => address) public delegates;\n\n    /// @notice The EIP-712 typehash for the contract's domain\n    bytes32 public constant DOMAIN_TYPEHASH = keccak256(\"EIP712Domain(string name,uint256 chainId,address verifyingContract)\");\n\n    /// @notice The EIP-712 typehash for the delegation struct used by the contract\n    bytes32 public constant DELEGATION_TYPEHASH = keccak256(\"Delegation(address delegatee,uint256 nonce,uint256 expiry)\");\n\n    /// @notice The EIP-712 typehash for the permit struct used by the contract\n    bytes32 public constant PERMIT_TYPEHASH = keccak256(\"Permit(address owner,address spender,uint256 value,uint256 nonce,uint256 deadline)\");\n\n    /// @notice A record of states for signing / validating signatures\n    mapping (address => uint) public nonces;\n\n    /*****************************************************\n    *       Variables added in BaconCoin1\n    ******************************************************/\n\n    /// @notice A record of votes checkpoints for a delegate's account, by index\n    mapping (address => mapping (uint32 => Checkpoint)) public delegateCheckpoints;\n\n    /// @notice The number of checkpoints for each account\n    mapping (address => uint32) public numDelegateCheckpoints;\n\n    /*****************************************************\n    *       EVENTS\n    ******************************************************/\n    \n    /// @notice An event thats emitted when an account changes its delegate\n    event DelegateChanged(address indexed delegator, address indexed fromDelegate, address indexed toDelegate);\n\n    /// @notice An event thats emitted when a delegate account's vote balance changes\n    event DelegateVotesChanged(address indexed delegate, uint previousBalance, uint newBalance);\n\n    /*****************************************************\n    *       BASE FUNCTIONS\n    ******************************************************/\n\n    // Transfer func must be overwritten to also moveDelegates when balance is transferred\n    function transfer(address dst, uint amount) public override returns (bool) {\n        require(super.transfer(dst, amount));\n        _moveDelegates(delegates[msg.sender], delegates[dst], amount);\n        return true;\n    }\n\n    // TransferFrom func must be overwritten to also moveDelegates when balance is transferred\n    function transferFrom(address src, address dst, uint256 amount) public override returns (bool) {\n        require(super.transferFrom(src, dst, amount));\n        _moveDelegates(delegates[src], delegates[dst], amount);\n        return true;\n    }\n\n    function mint(address account, uint256 amount) public {\n        require(msg.sender == stakingContract || msg.sender == airdropContract, \"Invalid mint sender\");\n        super._mint(account, amount);\n        _moveDelegates(address(0), delegates[account], amount);\n    }\n\n    function burn(uint256 amount, bytes memory data) public {\n        super._burn(msg.sender, amount);\n        _moveDelegates(delegates[msg.sender], address(0), amount);\n    }\n\n    /**  \n    *   @dev Function version returns uint depending on what version the contract is on\n    */\n    function version() public pure returns (uint) {\n        return 1;\n    }\n    \n    function safe32(uint n, string memory errorMessage) internal pure returns (uint32) {\n        require(n < 2**32, errorMessage);\n        return uint32(n);\n    }\n\n    function getChainId() internal view returns (uint) {\n        uint256 chainId;\n        // solhint-disable-next-line no-inline-assembly\n        assembly { chainId := chainid() }\n        return chainId;\n    }\n\n    /********************************\n    *     GOVERNANCE FUNCTIONS      *\n    *********************************/\n\n    /**\n     * @notice Delegates votes from signatory to `delegatee`\n     * @param delegatee The address to delegate votes to\n     * @param nonce The contract state required to match the signature\n     * @param expiry The time at which to expire the signature\n     * @param v The recovery byte of the signature\n     * @param r Half of the ECDSA signature pair\n     * @param s Half of the ECDSA signature pair\n     */\n    function delegateBySig(address delegatee, uint nonce, uint expiry, uint8 v, bytes32 r, bytes32 s) public {\n        bytes32 domainSeparator = keccak256(abi.encode(DOMAIN_TYPEHASH, keccak256(bytes(name())), getChainId(), address(this)));\n        bytes32 structHash = keccak256(abi.encode(DELEGATION_TYPEHASH, delegatee, nonce, expiry));\n        bytes32 digest = keccak256(abi.encodePacked(\"\\x19\\x01\", domainSeparator, structHash));\n        address signatory = ecrecover(digest, v, r, s);\n        require(signatory != address(0), \"BaconCoin: invalid signature\");\n        require(nonce == nonces[signatory]++, \"BaconCoin: invalid nonce\");\n        require(block.timestamp <= expiry, \"BaconCoin: signature expired\");\n        return _delegate(signatory, delegatee);\n    }\n\n    /**\n     * @notice Delegate votes from `msg.sender` to `delegatee`\n     * @param delegatee The address to delegate votes to\n     */\n    function delegate(address delegatee) public {\n        return _delegate(msg.sender, delegatee);\n    }\n\n    /**\n     * @notice Gets the current votes balance for `account`\n     * @param account The address to get votes balance\n     * @return The number of current votes for `account`\n     */\n    function getCurrentVotes(address account) external view returns (uint256) {\n        uint32 nCheckpoints = numDelegateCheckpoints[account];\n        return nCheckpoints > 0 ? delegateCheckpoints[account][nCheckpoints - 1].votes : 0;\n    }\n\n    /**\n    * @notice Determine the prior number of votes for an account as of a block number\n    * @dev Block number must be a finalized block or else this function will revert to prevent misinformation.\n    * @param account The address of the account to check\n    * @param blockNumber The block number to get the vote balance at\n    * @return The number of votes the account had as of the given block\n    */\n    function getPriorVotes(address account, uint blockNumber) public view returns (uint256) {\n        require(blockNumber < block.number, \"BaconCoin: not yet determined\");\n\n        uint32 nCheckpoints = numDelegateCheckpoints[account];\n        if (nCheckpoints == 0) {\n            return 0;\n        }\n\n        // First check most recent balance\n        if (delegateCheckpoints[account][nCheckpoints - 1].fromBlock <= blockNumber) {\n            return delegateCheckpoints[account][nCheckpoints - 1].votes;\n        }\n\n        // Next check implicit zero balance\n        if (delegateCheckpoints[account][0].fromBlock > blockNumber) {\n            return 0;\n        }\n\n        uint32 lower = 0;\n        uint32 upper = nCheckpoints - 1;\n        while (upper > lower) {\n            uint32 center = upper - (upper - lower) / 2; // ceil, avoiding overflow\n            Checkpoint memory cp = delegateCheckpoints[account][center];\n            if (cp.fromBlock == blockNumber) {\n                return cp.votes;\n            } else if (cp.fromBlock < blockNumber) {\n                lower = center;\n            } else {\n                upper = center - 1;\n            }\n        }\n        return delegateCheckpoints[account][lower].votes;\n    }\n\n    function _delegate(address delegator, address delegatee) internal {\n        address currentDelegate = delegates[delegator];\n        uint256 delegatorBalance = balanceOf(delegator);\n        delegates[delegator] = delegatee;\n\n        emit DelegateChanged(delegator, currentDelegate, delegatee);\n\n        _moveDelegates(currentDelegate, delegatee, delegatorBalance);\n    }\n\n    function _moveDelegates(address srcRep, address dstRep, uint256 amount) internal {\n        if (srcRep != dstRep && amount > 0) {\n            if (srcRep != address(0)) {\n                uint32 srcRepNum = numDelegateCheckpoints[srcRep];\n                uint256 srcRepOld = srcRepNum > 0 ? delegateCheckpoints[srcRep][srcRepNum - 1].votes : 0;\n                uint256 srcRepNew = srcRepOld.sub(amount);\n                _writeCheckpoint(srcRep, srcRepNum, srcRepOld, srcRepNew);\n            }\n\n            if (dstRep != address(0)) {\n                uint32 dstRepNum = numDelegateCheckpoints[dstRep];\n                uint256 dstRepOld = dstRepNum > 0 ? delegateCheckpoints[dstRep][dstRepNum - 1].votes : 0;\n                uint256 dstRepNew = dstRepOld.add(amount);\n                _writeCheckpoint(dstRep, dstRepNum, dstRepOld, dstRepNew);\n            }\n        }\n    }\n\n    function _writeCheckpoint(address delegatee, uint32 nCheckpoints, uint256 oldVotes, uint256 newVotes) internal {\n      uint32 blockNumber = safe32(block.number, \"BaconCoin: block number exceeds 32 bits\");\n\n      if (nCheckpoints > 0 && delegateCheckpoints[delegatee][nCheckpoints - 1].fromBlock == blockNumber) {\n          delegateCheckpoints[delegatee][nCheckpoints - 1].votes = newVotes;\n      } else {\n          delegateCheckpoints[delegatee][nCheckpoints] = Checkpoint(blockNumber, newVotes);\n          numDelegateCheckpoints[delegatee] = nCheckpoints + 1;\n      }\n\n      emit DelegateVotesChanged(delegatee, oldVotes, newVotes);\n    }\n}",
  "sourcePath": "/src/contracts/BaconCoin/BaconCoin2.sol",
  "compiler": {
    "name": "solc",
    "version": "0.8.9+commit.e5eed63a.Emscripten.clang"
  },
  "schemaVersion": "3.4.7",
  "updatedAt": "2022-10-12T17:10:51.736Z",
  "devdoc": {
    "kind": "dev",
    "methods": {
      "allowance(address,address)": {
        "details": "See {IERC20-allowance}."
      },
      "approve(address,uint256)": {
        "details": "See {IERC20-approve}. Requirements: - `spender` cannot be the zero address."
      },
      "balanceOf(address)": {
        "details": "See {IERC20-balanceOf}."
      },
      "decimals()": {
        "details": "Returns the number of decimals used to get its user representation. For example, if `decimals` equals `2`, a balance of `505` tokens should be displayed to a user as `5.05` (`505 / 10 ** 2`). Tokens usually opt for a value of 18, imitating the relationship between Ether and Wei. This is the value {ERC20} uses, unless this function is overridden; NOTE: This information is only used for _display_ purposes: it in no way affects any of the arithmetic of the contract, including {IERC20-balanceOf} and {IERC20-transfer}."
      },
      "decreaseAllowance(address,uint256)": {
        "details": "Atomically decreases the allowance granted to `spender` by the caller. This is an alternative to {approve} that can be used as a mitigation for problems described in {IERC20-approve}. Emits an {Approval} event indicating the updated allowance. Requirements: - `spender` cannot be the zero address. - `spender` must have allowance for the caller of at least `subtractedValue`."
      },
      "delegate(address)": {
        "params": {
          "delegatee": "The address to delegate votes to"
        }
      },
      "delegateBySig(address,uint256,uint256,uint8,bytes32,bytes32)": {
        "params": {
          "delegatee": "The address to delegate votes to",
          "expiry": "The time at which to expire the signature",
          "nonce": "The contract state required to match the signature",
          "r": "Half of the ECDSA signature pair",
          "s": "Half of the ECDSA signature pair",
          "v": "The recovery byte of the signature"
        }
      },
      "getCurrentVotes(address)": {
        "params": {
          "account": "The address to get votes balance"
        },
        "returns": {
          "_0": "The number of current votes for `account`"
        }
      },
      "getPriorVotes(address,uint256)": {
        "details": "Block number must be a finalized block or else this function will revert to prevent misinformation.",
        "params": {
          "account": "The address of the account to check",
          "blockNumber": "The block number to get the vote balance at"
        },
        "returns": {
          "_0": "The number of votes the account had as of the given block"
        }
      },
      "increaseAllowance(address,uint256)": {
        "details": "Atomically increases the allowance granted to `spender` by the caller. This is an alternative to {approve} that can be used as a mitigation for problems described in {IERC20-approve}. Emits an {Approval} event indicating the updated allowance. Requirements: - `spender` cannot be the zero address."
      },
      "name()": {
        "details": "Returns the name of the token."
      },
      "symbol()": {
        "details": "Returns the symbol of the token, usually a shorter version of the name."
      },
      "totalSupply()": {
        "details": "See {IERC20-totalSupply}."
      },
      "version()": {
        "details": "Function version returns uint depending on what version the contract is on"
      }
    },
    "version": 1
  },
  "userdoc": {
    "events": {
      "DelegateChanged(address,address,address)": {
        "notice": "An event thats emitted when an account changes its delegate"
      },
      "DelegateVotesChanged(address,uint256,uint256)": {
        "notice": "An event thats emitted when a delegate account's vote balance changes"
      }
    },
    "kind": "user",
    "methods": {
      "DELEGATION_TYPEHASH()": {
        "notice": "The EIP-712 typehash for the delegation struct used by the contract"
      },
      "DOMAIN_TYPEHASH()": {
        "notice": "The EIP-712 typehash for the contract's domain"
      },
      "PERMIT_TYPEHASH()": {
        "notice": "The EIP-712 typehash for the permit struct used by the contract"
      },
      "checkpoints(address,uint32)": {
        "notice": "DEPRECATED   A record of votes checkpoints for each account, by index"
      },
      "delegate(address)": {
        "notice": "Delegate votes from `msg.sender` to `delegatee`"
      },
      "delegateBySig(address,uint256,uint256,uint8,bytes32,bytes32)": {
        "notice": "Delegates votes from signatory to `delegatee`"
      },
      "delegateCheckpoints(address,uint32)": {
        "notice": "A record of votes checkpoints for a delegate's account, by index"
      },
      "delegates(address)": {
        "notice": "A record of each accounts delegate"
      },
      "getCurrentVotes(address)": {
        "notice": "Gets the current votes balance for `account`"
      },
      "getPriorVotes(address,uint256)": {
        "notice": "Determine the prior number of votes for an account as of a block number"
      },
      "nonces(address)": {
        "notice": "A record of states for signing / validating signatures"
      },
      "numCheckpoints(address)": {
        "notice": "DEPRECATED   The number of checkpoints for each account"
      },
      "numDelegateCheckpoints(address)": {
        "notice": "The number of checkpoints for each account"
      }
    },
    "version": 1
  }
}