{
  "contractName": "BaconCoin4",
  "abi": [
    {
      "anonymous": false,
      "inputs": [
        {
          "indexed": true,
          "internalType": "address",
          "name": "owner",
          "type": "address"
        },
        {
          "indexed": true,
          "internalType": "address",
          "name": "spender",
          "type": "address"
        },
        {
          "indexed": false,
          "internalType": "uint256",
          "name": "value",
          "type": "uint256"
        }
      ],
      "name": "Approval",
      "type": "event"
    },
    {
      "anonymous": false,
      "inputs": [
        {
          "indexed": true,
          "internalType": "address",
          "name": "delegator",
          "type": "address"
        },
        {
          "indexed": true,
          "internalType": "address",
          "name": "fromDelegate",
          "type": "address"
        },
        {
          "indexed": true,
          "internalType": "address",
          "name": "toDelegate",
          "type": "address"
        }
      ],
      "name": "DelegateChanged",
      "type": "event"
    },
    {
      "anonymous": false,
      "inputs": [
        {
          "indexed": true,
          "internalType": "address",
          "name": "delegate",
          "type": "address"
        },
        {
          "indexed": false,
          "internalType": "uint256",
          "name": "previousBalance",
          "type": "uint256"
        },
        {
          "indexed": false,
          "internalType": "uint256",
          "name": "newBalance",
          "type": "uint256"
        }
      ],
      "name": "DelegateVotesChanged",
      "type": "event"
    },
    {
      "anonymous": false,
      "inputs": [
        {
          "indexed": false,
          "internalType": "address",
          "name": "account",
          "type": "address"
        }
      ],
      "name": "Paused",
      "type": "event"
    },
    {
      "anonymous": false,
      "inputs": [
        {
          "indexed": true,
          "internalType": "address",
          "name": "from",
          "type": "address"
        },
        {
          "indexed": true,
          "internalType": "address",
          "name": "to",
          "type": "address"
        },
        {
          "indexed": false,
          "internalType": "uint256",
          "name": "value",
          "type": "uint256"
        }
      ],
      "name": "Transfer",
      "type": "event"
    },
    {
      "anonymous": false,
      "inputs": [
        {
          "indexed": false,
          "internalType": "address",
          "name": "account",
          "type": "address"
        }
      ],
      "name": "Unpaused",
      "type": "event"
    },
    {
      "inputs": [],
      "name": "DELEGATION_TYPEHASH",
      "outputs": [
        {
          "internalType": "bytes32",
          "name": "",
          "type": "bytes32"
        }
      ],
      "stateMutability": "view",
      "type": "function"
    },
    {
      "inputs": [],
      "name": "DOMAIN_TYPEHASH",
      "outputs": [
        {
          "internalType": "bytes32",
          "name": "",
          "type": "bytes32"
        }
      ],
      "stateMutability": "view",
      "type": "function"
    },
    {
      "inputs": [],
      "name": "PERMIT_TYPEHASH",
      "outputs": [
        {
          "internalType": "bytes32",
          "name": "",
          "type": "bytes32"
        }
      ],
      "stateMutability": "view",
      "type": "function"
    },
    {
      "inputs": [
        {
          "internalType": "address",
          "name": "owner",
          "type": "address"
        },
        {
          "internalType": "address",
          "name": "spender",
          "type": "address"
        }
      ],
      "name": "allowance",
      "outputs": [
        {
          "internalType": "uint256",
          "name": "",
          "type": "uint256"
        }
      ],
      "stateMutability": "view",
      "type": "function"
    },
    {
      "inputs": [
        {
          "internalType": "address",
          "name": "spender",
          "type": "address"
        },
        {
          "internalType": "uint256",
          "name": "amount",
          "type": "uint256"
        }
      ],
      "name": "approve",
      "outputs": [
        {
          "internalType": "bool",
          "name": "",
          "type": "bool"
        }
      ],
      "stateMutability": "nonpayable",
      "type": "function"
    },
    {
      "inputs": [
        {
          "internalType": "address",
          "name": "account",
          "type": "address"
        }
      ],
      "name": "balanceOf",
      "outputs": [
        {
          "internalType": "uint256",
          "name": "",
          "type": "uint256"
        }
      ],
      "stateMutability": "view",
      "type": "function"
    },
    {
      "inputs": [
        {
          "internalType": "address",
          "name": "",
          "type": "address"
        },
        {
          "internalType": "uint32",
          "name": "",
          "type": "uint32"
        }
      ],
      "name": "checkpoints",
      "outputs": [
        {
          "internalType": "uint32",
          "name": "fromBlock",
          "type": "uint32"
        },
        {
          "internalType": "uint256",
          "name": "votes",
          "type": "uint256"
        }
      ],
      "stateMutability": "view",
      "type": "function"
    },
    {
      "inputs": [],
      "name": "decimals",
      "outputs": [
        {
          "internalType": "uint8",
          "name": "",
          "type": "uint8"
        }
      ],
      "stateMutability": "view",
      "type": "function"
    },
    {
      "inputs": [
        {
          "internalType": "address",
          "name": "spender",
          "type": "address"
        },
        {
          "internalType": "uint256",
          "name": "subtractedValue",
          "type": "uint256"
        }
      ],
      "name": "decreaseAllowance",
      "outputs": [
        {
          "internalType": "bool",
          "name": "",
          "type": "bool"
        }
      ],
      "stateMutability": "nonpayable",
      "type": "function"
    },
    {
      "inputs": [
        {
          "internalType": "address",
          "name": "",
          "type": "address"
        },
        {
          "internalType": "uint32",
          "name": "",
          "type": "uint32"
        }
      ],
      "name": "delegateCheckpoints",
      "outputs": [
        {
          "internalType": "uint32",
          "name": "fromBlock",
          "type": "uint32"
        },
        {
          "internalType": "uint256",
          "name": "votes",
          "type": "uint256"
        }
      ],
      "stateMutability": "view",
      "type": "function"
    },
    {
      "inputs": [
        {
          "internalType": "address",
          "name": "",
          "type": "address"
        }
      ],
      "name": "delegates",
      "outputs": [
        {
          "internalType": "address",
          "name": "",
          "type": "address"
        }
      ],
      "stateMutability": "view",
      "type": "function"
    },
    {
      "inputs": [
        {
          "internalType": "address",
          "name": "spender",
          "type": "address"
        },
        {
          "internalType": "uint256",
          "name": "addedValue",
          "type": "uint256"
        }
      ],
      "name": "increaseAllowance",
      "outputs": [
        {
          "internalType": "bool",
          "name": "",
          "type": "bool"
        }
      ],
      "stateMutability": "nonpayable",
      "type": "function"
    },
    {
      "inputs": [],
      "name": "name",
      "outputs": [
        {
          "internalType": "string",
          "name": "",
          "type": "string"
        }
      ],
      "stateMutability": "view",
      "type": "function"
    },
    {
      "inputs": [
        {
          "internalType": "address",
          "name": "",
          "type": "address"
        }
      ],
      "name": "nonces",
      "outputs": [
        {
          "internalType": "uint256",
          "name": "",
          "type": "uint256"
        }
      ],
      "stateMutability": "view",
      "type": "function"
    },
    {
      "inputs": [
        {
          "internalType": "address",
          "name": "",
          "type": "address"
        }
      ],
      "name": "numCheckpoints",
      "outputs": [
        {
          "internalType": "uint32",
          "name": "",
          "type": "uint32"
        }
      ],
      "stateMutability": "view",
      "type": "function"
    },
    {
      "inputs": [
        {
          "internalType": "address",
          "name": "",
          "type": "address"
        }
      ],
      "name": "numDelegateCheckpoints",
      "outputs": [
        {
          "internalType": "uint32",
          "name": "",
          "type": "uint32"
        }
      ],
      "stateMutability": "view",
      "type": "function"
    },
    {
      "inputs": [],
      "name": "symbol",
      "outputs": [
        {
          "internalType": "string",
          "name": "",
          "type": "string"
        }
      ],
      "stateMutability": "view",
      "type": "function"
    },
    {
      "inputs": [],
      "name": "totalSupply",
      "outputs": [
        {
          "internalType": "uint256",
          "name": "",
          "type": "uint256"
        }
      ],
      "stateMutability": "view",
      "type": "function"
    },
    {
      "inputs": [],
      "name": "paused",
      "outputs": [
        {
          "internalType": "bool",
          "name": "",
          "type": "bool"
        }
      ],
      "stateMutability": "view",
      "type": "function"
    },
    {
      "inputs": [],
      "name": "_pause",
      "outputs": [],
      "stateMutability": "nonpayable",
      "type": "function"
    },
    {
      "inputs": [],
      "name": "_unpause",
      "outputs": [],
      "stateMutability": "nonpayable",
      "type": "function"
    },
    {
      "inputs": [
        {
          "internalType": "address",
          "name": "dst",
          "type": "address"
        },
        {
          "internalType": "uint256",
          "name": "amount",
          "type": "uint256"
        }
      ],
      "name": "transfer",
      "outputs": [
        {
          "internalType": "bool",
          "name": "",
          "type": "bool"
        }
      ],
      "stateMutability": "nonpayable",
      "type": "function"
    },
    {
      "inputs": [
        {
          "internalType": "address",
          "name": "src",
          "type": "address"
        },
        {
          "internalType": "address",
          "name": "dst",
          "type": "address"
        },
        {
          "internalType": "uint256",
          "name": "amount",
          "type": "uint256"
        }
      ],
      "name": "transferFrom",
      "outputs": [
        {
          "internalType": "bool",
          "name": "",
          "type": "bool"
        }
      ],
      "stateMutability": "nonpayable",
      "type": "function"
    },
    {
      "inputs": [
        {
          "internalType": "address",
          "name": "account",
          "type": "address"
        },
        {
          "internalType": "uint256",
          "name": "amount",
          "type": "uint256"
        }
      ],
      "name": "mint",
      "outputs": [],
      "stateMutability": "nonpayable",
      "type": "function"
    },
    {
      "inputs": [
        {
          "internalType": "uint256",
          "name": "amount",
          "type": "uint256"
        },
        {
          "internalType": "bytes",
          "name": "data",
          "type": "bytes"
        }
      ],
      "name": "burn",
      "outputs": [],
      "stateMutability": "nonpayable",
      "type": "function"
    },
    {
      "inputs": [
        {
          "internalType": "uint256",
          "name": "amount",
          "type": "uint256"
        },
        {
          "internalType": "address",
          "name": "user",
          "type": "address"
        }
      ],
      "name": "ownerBurn",
      "outputs": [],
      "stateMutability": "nonpayable",
      "type": "function"
    },
    {
      "inputs": [],
      "name": "version",
      "outputs": [
        {
          "internalType": "uint256",
          "name": "",
          "type": "uint256"
        }
      ],
      "stateMutability": "pure",
      "type": "function"
    },
    {
      "inputs": [
        {
          "internalType": "address",
          "name": "delegatee",
          "type": "address"
        },
        {
          "internalType": "uint256",
          "name": "nonce",
          "type": "uint256"
        },
        {
          "internalType": "uint256",
          "name": "expiry",
          "type": "uint256"
        },
        {
          "internalType": "uint8",
          "name": "v",
          "type": "uint8"
        },
        {
          "internalType": "bytes32",
          "name": "r",
          "type": "bytes32"
        },
        {
          "internalType": "bytes32",
          "name": "s",
          "type": "bytes32"
        }
      ],
      "name": "delegateBySig",
      "outputs": [],
      "stateMutability": "nonpayable",
      "type": "function"
    },
    {
      "inputs": [
        {
          "internalType": "address",
          "name": "delegatee",
          "type": "address"
        }
      ],
      "name": "delegate",
      "outputs": [],
      "stateMutability": "nonpayable",
      "type": "function"
    },
    {
      "inputs": [
        {
          "internalType": "address",
          "name": "account",
          "type": "address"
        }
      ],
      "name": "getCurrentVotes",
      "outputs": [
        {
          "internalType": "uint256",
          "name": "",
          "type": "uint256"
        }
      ],
      "stateMutability": "view",
      "type": "function"
    },
    {
      "inputs": [
        {
          "internalType": "address",
          "name": "account",
          "type": "address"
        },
        {
          "internalType": "uint256",
          "name": "blockNumber",
          "type": "uint256"
        }
      ],
      "name": "getPriorVotes",
      "outputs": [
        {
          "internalType": "uint256",
          "name": "",
          "type": "uint256"
        }
      ],
      "stateMutability": "view",
      "type": "function"
    }
  ],
  "bytecode": "0x608060405234801561001057600080fd5b5061211e806100206000396000f3fe608060405234801561001057600080fd5b50600436106101e55760003560e01c80636fcfff451161010f578063b4b5ea57116100a2578063e7a324dc11610071578063e7a324dc146104f7578063f1127ed81461051e578063fc8234cb14610559578063fe9d93031461056157600080fd5b8063b4b5ea5714610485578063c3cda52014610498578063dd62ed3e146104ab578063e610ed8d146104e457600080fd5b806395d89b41116100de57806395d89b4114610431578063a11c474114610439578063a457c2d71461045f578063a9059cbb1461047257600080fd5b80636fcfff451461039a57806370a08231146103d5578063782d6fe1146103fe5780637ecebe001461041157600080fd5b8063320b2ad91161018757806354fd4d501161015657806354fd4d5014610334578063587cde1e1461033b5780635c19a95c1461037c5780635c975abb1461038f57600080fd5b8063320b2ad9146102ad57806339509351146102b757806340c10f19146102ca578063509c3ef0146102dd57600080fd5b806320606b70116101c357806320606b701461023d57806323b872dd1461026457806330adf81f14610277578063313ce5671461029e57600080fd5b806306fdde03146101ea578063095ea7b31461020857806318160ddd1461022b575b600080fd5b6101f2610574565b6040516101ff9190611cd1565b60405180910390f35b61021b610216366004611d42565b610606565b60405190151581526020016101ff565b6034545b6040519081526020016101ff565b61022f7f8cad95687ba82c2ce50e74f7b754645e5117c3a5bec8151c0726d5857980a86681565b61021b610272366004611d6c565b61061d565b61022f7f6e71edae12b1b97f4d1f60370fef10105fa2faae0126114a169c64845d6126c981565b604051601281526020016101ff565b6102b56106c0565b005b61021b6102c5366004611d42565b6107f0565b6102b56102d8366004611d42565b61082c565b6103186102eb366004611da8565b606b6020908152600092835260408084209091529082529020805460019091015463ffffffff9091169082565b6040805163ffffffff90931683526020830191909152016101ff565b600461022f565b610364610349366004611de8565b6069602052600090815260409020546001600160a01b031681565b6040516001600160a01b0390911681526020016101ff565b6102b561038a366004611de8565b610914565b606d5460ff1661021b565b6103c06103a8366004611de8565b60686020526000908152604090205463ffffffff1681565b60405163ffffffff90911681526020016101ff565b61022f6103e3366004611de8565b6001600160a01b031660009081526033602052604090205490565b61022f61040c366004611d42565b610921565b61022f61041f366004611de8565b606a6020526000908152604090205481565b6101f2610b76565b6103c0610447366004611de8565b606c6020526000908152604090205463ffffffff1681565b61021b61046d366004611d42565b610b85565b61021b610480366004611d42565b610c2c565b61022f610493366004611de8565b610cbe565b6102b56104a6366004611e03565b610d33565b61022f6104b9366004611e63565b6001600160a01b039182166000908152603b6020908152604080832093909416825291909152205490565b6102b56104f2366004611e96565b610ff3565b61022f7fe48329057bfd03d55e49b547132e39cffd9c1820ad7b9d4c5307691425d15adf81565b61031861052c366004611da8565b60676020908152600092835260408084209091529082529020805460019091015463ffffffff9091169082565b6102b56110bb565b6102b561056f366004611ecf565b6111d6565b60606035805461058390611f8a565b80601f01602080910402602001604051908101604052809291908181526020018280546105af90611f8a565b80156105fc5780601f106105d1576101008083540402835291602001916105fc565b820191906000526020600020905b8154815290600101906020018083116105df57829003601f168201915b5050505050905090565b600061061333848461124c565b5060015b92915050565b600061062b606d5460ff1690565b156106705760405162461bcd60e51b815260206004820152601060248201526f14185d5cd8589b194e881c185d5cd95960821b60448201526064015b60405180910390fd5b61067b8484846113a4565b61068457600080fd5b6001600160a01b038085166000908152606960205260408082205486841683529120546106b692918216911684611463565b5060019392505050565b606d5460ff16156107065760405162461bcd60e51b815260206004820152601060248201526f14185d5cd8589b194e881c185d5cd95960821b6044820152606401610667565b73a42f6fb68607048dde54fcd53d2195cc8ca5f486331480156107295750466001145b80610752575073602eb5180ce24240cf40f8be124cc4d3a2890686331480156107525750466004145b61079e5760405162461bcd60e51b815260206004820152601460248201527f696e76616c69642070617573652073656e6465720000000000000000000000006044820152606401610667565b606d805460ff191660011790557f62e78cea01bee320cd4e420270b5ea74000d11b0c9f74754ebdbfc544b05a2586107d33390565b6040516001600160a01b03909116815260200160405180910390a1565b336000818152603b602090815260408083206001600160a01b03871684529091528120549091610613918590610827908690611fdb565b61124c565b606d5460ff16156108725760405162461bcd60e51b815260206004820152601060248201526f14185d5cd8589b194e881c185d5cd95960821b6044820152606401610667565b6065546001600160a01b031633148061089557506066546001600160a01b031633145b6108e15760405162461bcd60e51b815260206004820152601360248201527f496e76616c6964206d696e742073656e646572000000000000000000000000006044820152606401610667565b6108eb82826115c7565b6001600160a01b03808316600090815260696020526040812054610910921683611463565b5050565b61091e33826116a6565b50565b60004382106109725760405162461bcd60e51b815260206004820152601d60248201527f4261636f6e436f696e3a206e6f74207965742064657465726d696e65640000006044820152606401610667565b6001600160a01b0383166000908152606c602052604090205463ffffffff16806109a0576000915050610617565b6001600160a01b0384166000908152606b6020526040812084916109c5600185611ff3565b63ffffffff90811682526020820192909252604001600020541611610a2e576001600160a01b0384166000908152606b6020526040812090610a08600184611ff3565b63ffffffff1663ffffffff16815260200190815260200160002060010154915050610617565b6001600160a01b0384166000908152606b6020908152604080832083805290915290205463ffffffff16831015610a69576000915050610617565b600080610a77600184611ff3565b90505b8163ffffffff168163ffffffff161115610b3f5760006002610a9c8484611ff3565b610aa69190612018565b610ab09083611ff3565b6001600160a01b0388166000908152606b6020908152604080832063ffffffff8086168552908352928190208151808301909252805490931680825260019093015491810191909152919250871415610b13576020015194506106179350505050565b805163ffffffff16871115610b2a57819350610b38565b610b35600183611ff3565b92505b5050610a7a565b506001600160a01b0385166000908152606b6020908152604080832063ffffffff9094168352929052206001015491505092915050565b60606036805461058390611f8a565b336000908152603b602090815260408083206001600160a01b038616845290915281205482811015610c1f5760405162461bcd60e51b815260206004820152602560248201527f45524332303a2064656372656173656420616c6c6f77616e63652062656c6f7760448201527f207a65726f0000000000000000000000000000000000000000000000000000006064820152608401610667565b6106b6338585840361124c565b6000610c3a606d5460ff1690565b15610c7a5760405162461bcd60e51b815260206004820152601060248201526f14185d5cd8589b194e881c185d5cd95960821b6044820152606401610667565b610c84838361173e565b610c8d57600080fd5b33600090815260696020526040808220546001600160a01b0386811684529190922054610613928216911684611463565b6001600160a01b0381166000908152606c602052604081205463ffffffff1680610ce9576000610d2c565b6001600160a01b0383166000908152606b6020526040812090610d0d600184611ff3565b63ffffffff1663ffffffff168152602001908152602001600020600101545b9392505050565b60007f8cad95687ba82c2ce50e74f7b754645e5117c3a5bec8151c0726d5857980a866610d5e610574565b80519060200120610d6c4690565b60408051602080820195909552808201939093526060830191909152306080808401919091528151808403909101815260a0830182528051908401207fe48329057bfd03d55e49b547132e39cffd9c1820ad7b9d4c5307691425d15adf60c08401526001600160a01b038b1660e084015261010083018a90526101208084018a9052825180850390910181526101408401909252815191909301207f1901000000000000000000000000000000000000000000000000000000000000610160830152610162820183905261018282018190529192506000906101a20160408051601f198184030181528282528051602091820120600080855291840180845281905260ff8a169284019290925260608301889052608083018790529092509060019060a0016020604051602081039080840390855afa158015610eb3573d6000803e3d6000fd5b5050604051601f1901519150506001600160a01b038116610f165760405162461bcd60e51b815260206004820152601c60248201527f4261636f6e436f696e3a20696e76616c6964207369676e6174757265000000006044820152606401610667565b6001600160a01b0381166000908152606a60205260408120805491610f3a83612049565b919050558914610f8c5760405162461bcd60e51b815260206004820152601860248201527f4261636f6e436f696e3a20696e76616c6964206e6f6e636500000000000000006044820152606401610667565b87421115610fdc5760405162461bcd60e51b815260206004820152601c60248201527f4261636f6e436f696e3a207369676e61747572652065787069726564000000006044820152606401610667565b610fe6818b6116a6565b505050505b505050505050565b73a42f6fb68607048dde54fcd53d2195cc8ca5f486331480156110165750466001145b8061103f575073602eb5180ce24240cf40f8be124cc4d3a28906863314801561103f5750466004145b61108b5760405162461bcd60e51b815260206004820152601460248201527f696e76616c69642070617573652073656e6465720000000000000000000000006044820152606401610667565b611095818361174b565b6001600160a01b0380821660009081526069602052604081205461091092169084611463565b606d5460ff1661110d5760405162461bcd60e51b815260206004820152601460248201527f5061757361626c653a206e6f74207061757365640000000000000000000000006044820152606401610667565b73a42f6fb68607048dde54fcd53d2195cc8ca5f486331480156111305750466001145b80611159575073602eb5180ce24240cf40f8be124cc4d3a2890686331480156111595750466004145b6111a55760405162461bcd60e51b815260206004820152601660248201527f696e76616c696420756e70617573652073656e646572000000000000000000006044820152606401610667565b606d805460ff191690557f5db9ee0a495bf2e6ff9c91a7834c1ba4fdd244a5e8aa4e537bd38aeae4b073aa336107d3565b606d5460ff161561121c5760405162461bcd60e51b815260206004820152601060248201526f14185d5cd8589b194e881c185d5cd95960821b6044820152606401610667565b611226338361174b565b33600090815260696020526040812054610910916001600160a01b039091169084611463565b6001600160a01b0383166112c75760405162461bcd60e51b8152602060048201526024808201527f45524332303a20617070726f76652066726f6d20746865207a65726f2061646460448201527f72657373000000000000000000000000000000000000000000000000000000006064820152608401610667565b6001600160a01b0382166113435760405162461bcd60e51b815260206004820152602260248201527f45524332303a20617070726f766520746f20746865207a65726f20616464726560448201527f73730000000000000000000000000000000000000000000000000000000000006064820152608401610667565b6001600160a01b038381166000818152603b602090815260408083209487168084529482529182902085905590518481527f8c5be1e5ebec7d5bd14f71427d1e84f3dd0314c0f7b2291e5b200ac8c7c3b925910160405180910390a3505050565b60006113b18484846118d0565b6001600160a01b0384166000908152603b602090815260408083203384529091529020548281101561144b5760405162461bcd60e51b815260206004820152602860248201527f45524332303a207472616e7366657220616d6f756e742065786365656473206160448201527f6c6c6f77616e63650000000000000000000000000000000000000000000000006064820152608401610667565b611458853385840361124c565b506001949350505050565b816001600160a01b0316836001600160a01b0316141580156114855750600081115b156115c2576001600160a01b03831615611528576001600160a01b0383166000908152606c602052604081205463ffffffff1690816114c5576000611508565b6001600160a01b0385166000908152606b60205260408120906114e9600185611ff3565b63ffffffff1663ffffffff168152602001908152602001600020600101545b905060006115168285611ae7565b905061152486848484611af3565b5050505b6001600160a01b038216156115c2576001600160a01b0382166000908152606c602052604081205463ffffffff1690816115635760006115a6565b6001600160a01b0384166000908152606b6020526040812090611587600185611ff3565b63ffffffff1663ffffffff168152602001908152602001600020600101545b905060006115b48285611c95565b9050610feb85848484611af3565b505050565b6001600160a01b03821661161d5760405162461bcd60e51b815260206004820152601f60248201527f45524332303a206d696e7420746f20746865207a65726f2061646472657373006044820152606401610667565b806034600082825461162f9190611fdb565b90915550506001600160a01b0382166000908152603360205260408120805483929061165c908490611fdb565b90915550506040518181526001600160a01b038316906000907fddf252ad1be2c89b69c2b068fc378daa952ba7f163c4a11628f55a4df523b3ef9060200160405180910390a35050565b6001600160a01b03828116600081815260696020818152604080842080546033845282862054949093528787167fffffffffffffffffffffffff00000000000000000000000000000000000000008416811790915590519190951694919391928592917f3134e8a2e6d97e929a7e54011ea5485d7d196dd5f0ba4d4ef95803e8e3fc257f9190a4611738828483611463565b50505050565b60006106133384846118d0565b6001600160a01b0382166117c75760405162461bcd60e51b815260206004820152602160248201527f45524332303a206275726e2066726f6d20746865207a65726f2061646472657360448201527f73000000000000000000000000000000000000000000000000000000000000006064820152608401610667565b6001600160a01b038216600090815260336020526040902054818110156118565760405162461bcd60e51b815260206004820152602260248201527f45524332303a206275726e20616d6f756e7420657863656564732062616c616e60448201527f63650000000000000000000000000000000000000000000000000000000000006064820152608401610667565b6001600160a01b0383166000908152603360205260408120838303905560348054849290611885908490612082565b90915550506040518281526000906001600160a01b038516907fddf252ad1be2c89b69c2b068fc378daa952ba7f163c4a11628f55a4df523b3ef9060200160405180910390a3505050565b6001600160a01b03831661194c5760405162461bcd60e51b815260206004820152602560248201527f45524332303a207472616e736665722066726f6d20746865207a65726f20616460448201527f64726573730000000000000000000000000000000000000000000000000000006064820152608401610667565b6001600160a01b0382166119c85760405162461bcd60e51b815260206004820152602360248201527f45524332303a207472616e7366657220746f20746865207a65726f206164647260448201527f65737300000000000000000000000000000000000000000000000000000000006064820152608401610667565b6001600160a01b03831660009081526033602052604090205481811015611a575760405162461bcd60e51b815260206004820152602660248201527f45524332303a207472616e7366657220616d6f756e742065786365656473206260448201527f616c616e636500000000000000000000000000000000000000000000000000006064820152608401610667565b6001600160a01b03808516600090815260336020526040808220858503905591851681529081208054849290611a8e908490611fdb565b92505081905550826001600160a01b0316846001600160a01b03167fddf252ad1be2c89b69c2b068fc378daa952ba7f163c4a11628f55a4df523b3ef84604051611ada91815260200190565b60405180910390a3611738565b6000610d2c8284612082565b6000611b17436040518060600160405280602781526020016120c260279139611ca1565b905060008463ffffffff16118015611b7157506001600160a01b0385166000908152606b6020526040812063ffffffff831691611b55600188611ff3565b63ffffffff908116825260208201929092526040016000205416145b15611bba576001600160a01b0385166000908152606b602052604081208391611b9b600188611ff3565b63ffffffff168152602081019190915260400160002060010155611c4a565b60408051808201825263ffffffff838116825260208083018681526001600160a01b038a166000908152606b83528581208a851682529092529390209151825463ffffffff191691161781559051600191820155611c19908590612099565b6001600160a01b0386166000908152606c60205260409020805463ffffffff191663ffffffff929092169190911790555b60408051848152602081018490526001600160a01b038716917fdec2bacdd2f05b59de34da9b523dff8be42e5e38e818c82fdb0bae774387a724910160405180910390a25050505050565b6000610d2c8284611fdb565b6000816401000000008410611cc95760405162461bcd60e51b81526004016106679190611cd1565b509192915050565b600060208083528351808285015260005b81811015611cfe57858101830151858201604001528201611ce2565b81811115611d10576000604083870101525b50601f01601f1916929092016040019392505050565b80356001600160a01b0381168114611d3d57600080fd5b919050565b60008060408385031215611d5557600080fd5b611d5e83611d26565b946020939093013593505050565b600080600060608486031215611d8157600080fd5b611d8a84611d26565b9250611d9860208501611d26565b9150604084013590509250925092565b60008060408385031215611dbb57600080fd5b611dc483611d26565b9150602083013563ffffffff81168114611ddd57600080fd5b809150509250929050565b600060208284031215611dfa57600080fd5b610d2c82611d26565b60008060008060008060c08789031215611e1c57600080fd5b611e2587611d26565b95506020870135945060408701359350606087013560ff81168114611e4957600080fd5b9598949750929560808101359460a0909101359350915050565b60008060408385031215611e7657600080fd5b611e7f83611d26565b9150611e8d60208401611d26565b90509250929050565b60008060408385031215611ea957600080fd5b82359150611e8d60208401611d26565b634e487b7160e01b600052604160045260246000fd5b60008060408385031215611ee257600080fd5b82359150602083013567ffffffffffffffff80821115611f0157600080fd5b818501915085601f830112611f1557600080fd5b813581811115611f2757611f27611eb9565b604051601f8201601f19908116603f01168101908382118183101715611f4f57611f4f611eb9565b81604052828152886020848701011115611f6857600080fd5b8260208601602083013760006020848301015280955050505050509250929050565b600181811c90821680611f9e57607f821691505b60208210811415611fbf57634e487b7160e01b600052602260045260246000fd5b50919050565b634e487b7160e01b600052601160045260246000fd5b60008219821115611fee57611fee611fc5565b500190565b600063ffffffff8381169083168181101561201057612010611fc5565b039392505050565b600063ffffffff8084168061203d57634e487b7160e01b600052601260045260246000fd5b92169190910492915050565b60007fffffffffffffffffffffffffffffffffffffffffffffffffffffffffffffffff82141561207b5761207b611fc5565b5060010190565b60008282101561209457612094611fc5565b500390565b600063ffffffff8083168185168083038211156120b8576120b8611fc5565b0194935050505056fe4261636f6e436f696e3a20626c6f636b206e756d62657220657863656564732033322062697473a2646970667358221220099258bd9f97eb20593380937d720b3b20bed381616e47b63c35cffb3752376d64736f6c63430008090033",
  "immutableReferences": {},
  "source": "// SPDX-License-Identifier: MIT\npragma solidity ^0.8.4;\n\nimport \"../@openzeppelin/contracts-upgradeable/proxy/utils/Initializable.sol\";\nimport \"./../ERC20/ERC20UpgradeableFromERC777.sol\";\nimport '../@openzeppelin/contracts/utils/math/SafeMath.sol';\nimport '../@openzeppelin/contracts/utils/math/SignedSafeMath.sol';\n\ncontract BaconCoin4 is Initializable, ERC20UpgradeableFromERC777 {\n    using SignedSafeMath for int256;\n    using SafeMath for uint256;\n\n    address stakingContract;\n    address airdropContract;\n\n    /// @notice DEPRECATED  \n    /// A record of votes checkpoints for each account, by index\n    mapping (address => mapping (uint32 => Checkpoint)) public checkpoints;\n\n    /// @notice DEPRECATED  \n    /// The number of checkpoints for each account\n    mapping (address => uint32) public numCheckpoints;\n\n    /// @notice A checkpoint for marking number of votes from a given block\n    struct Checkpoint {\n        uint32 fromBlock;\n        uint256 votes;\n    }\n\n    /// @notice A record of each accounts delegate\n    mapping (address => address) public delegates;\n\n    /// @notice The EIP-712 typehash for the contract's domain\n    bytes32 public constant DOMAIN_TYPEHASH = keccak256(\"EIP712Domain(string name,uint256 chainId,address verifyingContract)\");\n\n    /// @notice The EIP-712 typehash for the delegation struct used by the contract\n    bytes32 public constant DELEGATION_TYPEHASH = keccak256(\"Delegation(address delegatee,uint256 nonce,uint256 expiry)\");\n\n    /// @notice The EIP-712 typehash for the permit struct used by the contract\n    bytes32 public constant PERMIT_TYPEHASH = keccak256(\"Permit(address owner,address spender,uint256 value,uint256 nonce,uint256 deadline)\");\n\n    /// @notice A record of states for signing / validating signatures\n    mapping (address => uint) public nonces;\n\n    /*****************************************************\n    *       Variables added in BaconCoin1\n    ******************************************************/\n\n    /// @notice A record of votes checkpoints for a delegate's account, by index\n    mapping (address => mapping (uint32 => Checkpoint)) public delegateCheckpoints;\n\n    /// @notice The number of checkpoints for each account\n    mapping (address => uint32) public numDelegateCheckpoints;\n\n    /*****************************************************\n    *       Variables added in BaconCoin4\n    ******************************************************/\n\n    bool private _paused;\n\n    /*****************************************************\n    *       EVENTS\n    ******************************************************/\n    \n    /// @notice An event thats emitted when an account changes its delegate\n    event DelegateChanged(address indexed delegator, address indexed fromDelegate, address indexed toDelegate);\n\n    /// @notice An event thats emitted when a delegate account's vote balance changes\n    event DelegateVotesChanged(address indexed delegate, uint previousBalance, uint newBalance);\n\n    // @notice Emitted when the pause is triggered by `account`.\n    event Paused(address account);\n\n    // @notice Emitted when the unpause is triggered by `account`.\n    event Unpaused(address account);\n\n    /*****************************************************\n    *       Pausing FUNCTIONS\n    ******************************************************/\n\n    /**\n     * @dev Returns true if the contract is paused, and false otherwise.\n     */\n    function paused() public view virtual returns (bool) {\n        return _paused;\n    }\n\n    /**\n     * @dev Modifier to make a function callable only when the contract is not paused.\n     *\n     * Requirements:\n     *\n     * - The contract must not be paused.\n     */\n    modifier whenNotPaused() {\n        require(!paused(), \"Pausable: paused\");\n        _;\n    }\n\n    /**\n     * @dev Modifier to make a function callable only when the contract is paused.\n     *\n     * Requirements:\n     *\n     * - The contract must be paused.\n     */\n    modifier whenPaused() {\n        require(paused(), \"Pausable: not paused\");\n        _;\n    }\n\n    /**\n     * @dev Triggers stopped state.\n     *\n     * Requirements:\n     *\n     * - The contract must not be paused.\n     */\n    function _pause() public whenNotPaused {\n        require(\n            (msg.sender == 0xa42f6FB68607048dDe54FCd53D2195cc8ca5F486 && block.chainid == 1)\n            ||\n            (msg.sender == 0x602eb5180Ce24240cf40f8BE124Cc4d3a2890686 && block.chainid == 4)\n            , \"invalid pause sender\");\n        _paused = true;\n        emit Paused(_msgSender());\n    }\n\n    /**\n     * @dev Returns to normal state.\n     *\n     * Requirements:\n     *\n     * - The contract must be paused.\n     */\n    function _unpause() public whenPaused {\n        require(\n            (msg.sender == 0xa42f6FB68607048dDe54FCd53D2195cc8ca5F486 && block.chainid == 1)\n            ||\n            (msg.sender == 0x602eb5180Ce24240cf40f8BE124Cc4d3a2890686 && block.chainid == 4)\n            , \"invalid unpause sender\");\n        _paused = false;\n        emit Unpaused(_msgSender());\n    }\n\n    /*****************************************************\n    *       BASE FUNCTIONS\n    ******************************************************/\n\n    // Transfer func must be overwritten to also moveDelegates when balance is transferred\n    function transfer(address dst, uint amount) public override whenNotPaused returns (bool)  {\n        require(super.transfer(dst, amount));\n        _moveDelegates(delegates[msg.sender], delegates[dst], amount);\n        return true;\n    }\n\n    // TransferFrom func must be overwritten to also moveDelegates when balance is transferred\n    function transferFrom(address src, address dst, uint256 amount) public override whenNotPaused returns (bool) {\n        require(super.transferFrom(src, dst, amount));\n        _moveDelegates(delegates[src], delegates[dst], amount);\n        return true;\n    }\n\n    function mint(address account, uint256 amount) public whenNotPaused {\n        require(msg.sender == stakingContract || msg.sender == airdropContract, \"Invalid mint sender\");\n        super._mint(account, amount);\n        _moveDelegates(address(0), delegates[account], amount);\n    }\n\n    function burn(uint256 amount, bytes memory data) public whenNotPaused {\n        super._burn(msg.sender, amount);\n        _moveDelegates(delegates[msg.sender], address(0), amount);\n    }\n\n    function ownerBurn(uint256 amount, address user) public {\n        require(\n            (msg.sender == 0xa42f6FB68607048dDe54FCd53D2195cc8ca5F486 && block.chainid == 1)\n            ||\n            (msg.sender == 0x602eb5180Ce24240cf40f8BE124Cc4d3a2890686 && block.chainid == 4)\n            , \"invalid pause sender\");\n        super._burn(user, amount);\n        _moveDelegates(delegates[user], address(0), amount);\n    }\n\n    /**  \n    *   @dev Function version returns uint depending on what version the contract is on\n    */\n    function version() public pure returns (uint) {\n        return 4;\n    }\n    \n    function safe32(uint n, string memory errorMessage) internal pure returns (uint32) {\n        require(n < 2**32, errorMessage);\n        return uint32(n);\n    }\n\n    function getChainId() internal view returns (uint) {\n        uint256 chainId;\n        // solhint-disable-next-line no-inline-assembly\n        assembly { chainId := chainid() }\n        return chainId;\n    }\n\n    /********************************\n    *     GOVERNANCE FUNCTIONS      *\n    *********************************/\n\n    /**\n     * @notice Delegates votes from signatory to `delegatee`\n     * @param delegatee The address to delegate votes to\n     * @param nonce The contract state required to match the signature\n     * @param expiry The time at which to expire the signature\n     * @param v The recovery byte of the signature\n     * @param r Half of the ECDSA signature pair\n     * @param s Half of the ECDSA signature pair\n     */\n    function delegateBySig(address delegatee, uint nonce, uint expiry, uint8 v, bytes32 r, bytes32 s) public {\n        bytes32 domainSeparator = keccak256(abi.encode(DOMAIN_TYPEHASH, keccak256(bytes(name())), getChainId(), address(this)));\n        bytes32 structHash = keccak256(abi.encode(DELEGATION_TYPEHASH, delegatee, nonce, expiry));\n        bytes32 digest = keccak256(abi.encodePacked(\"\\x19\\x01\", domainSeparator, structHash));\n        address signatory = ecrecover(digest, v, r, s);\n        require(signatory != address(0), \"BaconCoin: invalid signature\");\n        require(nonce == nonces[signatory]++, \"BaconCoin: invalid nonce\");\n        require(block.timestamp <= expiry, \"BaconCoin: signature expired\");\n        return _delegate(signatory, delegatee);\n    }\n\n    /**\n     * @notice Delegate votes from `msg.sender` to `delegatee`\n     * @param delegatee The address to delegate votes to\n     */\n    function delegate(address delegatee) public {\n        return _delegate(msg.sender, delegatee);\n    }\n\n    /**\n     * @notice Gets the current votes balance for `account`\n     * @param account The address to get votes balance\n     * @return The number of current votes for `account`\n     */\n    function getCurrentVotes(address account) external view returns (uint256) {\n        uint32 nCheckpoints = numDelegateCheckpoints[account];\n        return nCheckpoints > 0 ? delegateCheckpoints[account][nCheckpoints - 1].votes : 0;\n    }\n\n    /**\n    * @notice Determine the prior number of votes for an account as of a block number\n    * @dev Block number must be a finalized block or else this function will revert to prevent misinformation.\n    * @param account The address of the account to check\n    * @param blockNumber The block number to get the vote balance at\n    * @return The number of votes the account had as of the given block\n    */\n    function getPriorVotes(address account, uint blockNumber) public view returns (uint256) {\n        require(blockNumber < block.number, \"BaconCoin: not yet determined\");\n\n        uint32 nCheckpoints = numDelegateCheckpoints[account];\n        if (nCheckpoints == 0) {\n            return 0;\n        }\n\n        // First check most recent balance\n        if (delegateCheckpoints[account][nCheckpoints - 1].fromBlock <= blockNumber) {\n            return delegateCheckpoints[account][nCheckpoints - 1].votes;\n        }\n\n        // Next check implicit zero balance\n        if (delegateCheckpoints[account][0].fromBlock > blockNumber) {\n            return 0;\n        }\n\n        uint32 lower = 0;\n        uint32 upper = nCheckpoints - 1;\n        while (upper > lower) {\n            uint32 center = upper - (upper - lower) / 2; // ceil, avoiding overflow\n            Checkpoint memory cp = delegateCheckpoints[account][center];\n            if (cp.fromBlock == blockNumber) {\n                return cp.votes;\n            } else if (cp.fromBlock < blockNumber) {\n                lower = center;\n            } else {\n                upper = center - 1;\n            }\n        }\n        return delegateCheckpoints[account][lower].votes;\n    }\n\n    function _delegate(address delegator, address delegatee) internal {\n        address currentDelegate = delegates[delegator];\n        uint256 delegatorBalance = balanceOf(delegator);\n        delegates[delegator] = delegatee;\n\n        emit DelegateChanged(delegator, currentDelegate, delegatee);\n\n        _moveDelegates(currentDelegate, delegatee, delegatorBalance);\n    }\n\n    function _moveDelegates(address srcRep, address dstRep, uint256 amount) internal {\n        if (srcRep != dstRep && amount > 0) {\n            if (srcRep != address(0)) {\n                uint32 srcRepNum = numDelegateCheckpoints[srcRep];\n                uint256 srcRepOld = srcRepNum > 0 ? delegateCheckpoints[srcRep][srcRepNum - 1].votes : 0;\n                uint256 srcRepNew = srcRepOld.sub(amount);\n                _writeCheckpoint(srcRep, srcRepNum, srcRepOld, srcRepNew);\n            }\n\n            if (dstRep != address(0)) {\n                uint32 dstRepNum = numDelegateCheckpoints[dstRep];\n                uint256 dstRepOld = dstRepNum > 0 ? delegateCheckpoints[dstRep][dstRepNum - 1].votes : 0;\n                uint256 dstRepNew = dstRepOld.add(amount);\n                _writeCheckpoint(dstRep, dstRepNum, dstRepOld, dstRepNew);\n            }\n        }\n    }\n\n    function _writeCheckpoint(address delegatee, uint32 nCheckpoints, uint256 oldVotes, uint256 newVotes) internal {\n      uint32 blockNumber = safe32(block.number, \"BaconCoin: block number exceeds 32 bits\");\n\n      if (nCheckpoints > 0 && delegateCheckpoints[delegatee][nCheckpoints - 1].fromBlock == blockNumber) {\n          delegateCheckpoints[delegatee][nCheckpoints - 1].votes = newVotes;\n      } else {\n          delegateCheckpoints[delegatee][nCheckpoints] = Checkpoint(blockNumber, newVotes);\n          numDelegateCheckpoints[delegatee] = nCheckpoints + 1;\n      }\n\n      emit DelegateVotesChanged(delegatee, oldVotes, newVotes);\n    }\n}",
  "sourcePath": "/Users/patrick/github/HomeDAO/contracts/BaconCoin/BaconCoin4.sol",
  "compiler": {
    "name": "solc",
    "version": "0.8.9+commit.e5eed63a.Emscripten.clang"
  },
  "schemaVersion": "3.4.8",
  "updatedAt": "2022-08-10T01:41:49.810Z",
  "devdoc": {
    "kind": "dev",
    "methods": {
      "_pause()": {
        "details": "Triggers stopped state. Requirements: - The contract must not be paused."
      },
      "_unpause()": {
        "details": "Returns to normal state. Requirements: - The contract must be paused."
      },
      "allowance(address,address)": {
        "details": "See {IERC20-allowance}."
      },
      "approve(address,uint256)": {
        "details": "See {IERC20-approve}. Requirements: - `spender` cannot be the zero address."
      },
      "balanceOf(address)": {
        "details": "See {IERC20-balanceOf}."
      },
      "decimals()": {
        "details": "Returns the number of decimals used to get its user representation. For example, if `decimals` equals `2`, a balance of `505` tokens should be displayed to a user as `5.05` (`505 / 10 ** 2`). Tokens usually opt for a value of 18, imitating the relationship between Ether and Wei. This is the value {ERC20} uses, unless this function is overridden; NOTE: This information is only used for _display_ purposes: it in no way affects any of the arithmetic of the contract, including {IERC20-balanceOf} and {IERC20-transfer}."
      },
      "decreaseAllowance(address,uint256)": {
        "details": "Atomically decreases the allowance granted to `spender` by the caller. This is an alternative to {approve} that can be used as a mitigation for problems described in {IERC20-approve}. Emits an {Approval} event indicating the updated allowance. Requirements: - `spender` cannot be the zero address. - `spender` must have allowance for the caller of at least `subtractedValue`."
      },
      "delegate(address)": {
        "params": {
          "delegatee": "The address to delegate votes to"
        }
      },
      "delegateBySig(address,uint256,uint256,uint8,bytes32,bytes32)": {
        "params": {
          "delegatee": "The address to delegate votes to",
          "expiry": "The time at which to expire the signature",
          "nonce": "The contract state required to match the signature",
          "r": "Half of the ECDSA signature pair",
          "s": "Half of the ECDSA signature pair",
          "v": "The recovery byte of the signature"
        }
      },
      "getCurrentVotes(address)": {
        "params": {
          "account": "The address to get votes balance"
        },
        "returns": {
          "_0": "The number of current votes for `account`"
        }
      },
      "getPriorVotes(address,uint256)": {
        "details": "Block number must be a finalized block or else this function will revert to prevent misinformation.",
        "params": {
          "account": "The address of the account to check",
          "blockNumber": "The block number to get the vote balance at"
        },
        "returns": {
          "_0": "The number of votes the account had as of the given block"
        }
      },
      "increaseAllowance(address,uint256)": {
        "details": "Atomically increases the allowance granted to `spender` by the caller. This is an alternative to {approve} that can be used as a mitigation for problems described in {IERC20-approve}. Emits an {Approval} event indicating the updated allowance. Requirements: - `spender` cannot be the zero address."
      },
      "name()": {
        "details": "Returns the name of the token."
      },
      "paused()": {
        "details": "Returns true if the contract is paused, and false otherwise."
      },
      "symbol()": {
        "details": "Returns the symbol of the token, usually a shorter version of the name."
      },
      "totalSupply()": {
        "details": "See {IERC20-totalSupply}."
      },
      "version()": {
        "details": "Function version returns uint depending on what version the contract is on"
      }
    },
    "version": 1
  },
  "userdoc": {
    "events": {
      "DelegateChanged(address,address,address)": {
        "notice": "An event thats emitted when an account changes its delegate"
      },
      "DelegateVotesChanged(address,uint256,uint256)": {
        "notice": "An event thats emitted when a delegate account's vote balance changes"
      }
    },
    "kind": "user",
    "methods": {
      "DELEGATION_TYPEHASH()": {
        "notice": "The EIP-712 typehash for the delegation struct used by the contract"
      },
      "DOMAIN_TYPEHASH()": {
        "notice": "The EIP-712 typehash for the contract's domain"
      },
      "PERMIT_TYPEHASH()": {
        "notice": "The EIP-712 typehash for the permit struct used by the contract"
      },
      "checkpoints(address,uint32)": {
        "notice": "DEPRECATED   A record of votes checkpoints for each account, by index"
      },
      "delegate(address)": {
        "notice": "Delegate votes from `msg.sender` to `delegatee`"
      },
      "delegateBySig(address,uint256,uint256,uint8,bytes32,bytes32)": {
        "notice": "Delegates votes from signatory to `delegatee`"
      },
      "delegateCheckpoints(address,uint32)": {
        "notice": "A record of votes checkpoints for a delegate's account, by index"
      },
      "delegates(address)": {
        "notice": "A record of each accounts delegate"
      },
      "getCurrentVotes(address)": {
        "notice": "Gets the current votes balance for `account`"
      },
      "getPriorVotes(address,uint256)": {
        "notice": "Determine the prior number of votes for an account as of a block number"
      },
      "nonces(address)": {
        "notice": "A record of states for signing / validating signatures"
      },
      "numCheckpoints(address)": {
        "notice": "DEPRECATED   The number of checkpoints for each account"
      },
      "numDelegateCheckpoints(address)": {
        "notice": "The number of checkpoints for each account"
      }
    },
    "version": 1
  }
}