{
  "abi": [
    {
      "anonymous": false,
      "inputs": [
        {
          "indexed": true,
          "internalType": "address",
          "name": "owner",
          "type": "address"
        },
        {
          "indexed": true,
          "internalType": "address",
          "name": "spender",
          "type": "address"
        },
        {
          "indexed": false,
          "internalType": "uint256",
          "name": "value",
          "type": "uint256"
        }
      ],
      "name": "Approval",
      "type": "event"
    },
    {
      "anonymous": false,
      "inputs": [
        {
          "indexed": true,
          "internalType": "address",
          "name": "delegator",
          "type": "address"
        },
        {
          "indexed": true,
          "internalType": "address",
          "name": "fromDelegate",
          "type": "address"
        },
        {
          "indexed": true,
          "internalType": "address",
          "name": "toDelegate",
          "type": "address"
        }
      ],
      "name": "DelegateChanged",
      "type": "event"
    },
    {
      "anonymous": false,
      "inputs": [
        {
          "indexed": true,
          "internalType": "address",
          "name": "delegate",
          "type": "address"
        },
        {
          "indexed": false,
          "internalType": "uint256",
          "name": "previousBalance",
          "type": "uint256"
        },
        {
          "indexed": false,
          "internalType": "uint256",
          "name": "newBalance",
          "type": "uint256"
        }
      ],
      "name": "DelegateVotesChanged",
      "type": "event"
    },
    {
      "anonymous": false,
      "inputs": [
        {
          "indexed": true,
          "internalType": "address",
          "name": "from",
          "type": "address"
        },
        {
          "indexed": true,
          "internalType": "address",
          "name": "to",
          "type": "address"
        },
        {
          "indexed": false,
          "internalType": "uint256",
          "name": "value",
          "type": "uint256"
        }
      ],
      "name": "Transfer",
      "type": "event"
    },
    {
      "inputs": [],
      "name": "DELEGATION_TYPEHASH",
      "outputs": [
        {
          "internalType": "bytes32",
          "name": "",
          "type": "bytes32"
        }
      ],
      "stateMutability": "view",
      "type": "function"
    },
    {
      "inputs": [],
      "name": "DOMAIN_TYPEHASH",
      "outputs": [
        {
          "internalType": "bytes32",
          "name": "",
          "type": "bytes32"
        }
      ],
      "stateMutability": "view",
      "type": "function"
    },
    {
      "inputs": [],
      "name": "PERMIT_TYPEHASH",
      "outputs": [
        {
          "internalType": "bytes32",
          "name": "",
          "type": "bytes32"
        }
      ],
      "stateMutability": "view",
      "type": "function"
    },
    {
      "inputs": [
        {
          "internalType": "address",
          "name": "owner",
          "type": "address"
        },
        {
          "internalType": "address",
          "name": "spender",
          "type": "address"
        }
      ],
      "name": "allowance",
      "outputs": [
        {
          "internalType": "uint256",
          "name": "",
          "type": "uint256"
        }
      ],
      "stateMutability": "view",
      "type": "function"
    },
    {
      "inputs": [
        {
          "internalType": "address",
          "name": "spender",
          "type": "address"
        },
        {
          "internalType": "uint256",
          "name": "amount",
          "type": "uint256"
        }
      ],
      "name": "approve",
      "outputs": [
        {
          "internalType": "bool",
          "name": "",
          "type": "bool"
        }
      ],
      "stateMutability": "nonpayable",
      "type": "function"
    },
    {
      "inputs": [
        {
          "internalType": "address",
          "name": "account",
          "type": "address"
        }
      ],
      "name": "balanceOf",
      "outputs": [
        {
          "internalType": "uint256",
          "name": "",
          "type": "uint256"
        }
      ],
      "stateMutability": "view",
      "type": "function"
    },
    {
      "inputs": [
        {
          "internalType": "address",
          "name": "",
          "type": "address"
        },
        {
          "internalType": "uint32",
          "name": "",
          "type": "uint32"
        }
      ],
      "name": "checkpoints",
      "outputs": [
        {
          "internalType": "uint32",
          "name": "fromBlock",
          "type": "uint32"
        },
        {
          "internalType": "uint256",
          "name": "votes",
          "type": "uint256"
        }
      ],
      "stateMutability": "view",
      "type": "function"
    },
    {
      "inputs": [],
      "name": "decimals",
      "outputs": [
        {
          "internalType": "uint8",
          "name": "",
          "type": "uint8"
        }
      ],
      "stateMutability": "view",
      "type": "function"
    },
    {
      "inputs": [
        {
          "internalType": "address",
          "name": "spender",
          "type": "address"
        },
        {
          "internalType": "uint256",
          "name": "subtractedValue",
          "type": "uint256"
        }
      ],
      "name": "decreaseAllowance",
      "outputs": [
        {
          "internalType": "bool",
          "name": "",
          "type": "bool"
        }
      ],
      "stateMutability": "nonpayable",
      "type": "function"
    },
    {
      "inputs": [
        {
          "internalType": "address",
          "name": "",
          "type": "address"
        },
        {
          "internalType": "uint32",
          "name": "",
          "type": "uint32"
        }
      ],
      "name": "delegateCheckpoints",
      "outputs": [
        {
          "internalType": "uint32",
          "name": "fromBlock",
          "type": "uint32"
        },
        {
          "internalType": "uint256",
          "name": "votes",
          "type": "uint256"
        }
      ],
      "stateMutability": "view",
      "type": "function"
    },
    {
      "inputs": [
        {
          "internalType": "address",
          "name": "",
          "type": "address"
        }
      ],
      "name": "delegates",
      "outputs": [
        {
          "internalType": "address",
          "name": "",
          "type": "address"
        }
      ],
      "stateMutability": "view",
      "type": "function"
    },
    {
      "inputs": [
        {
          "internalType": "address",
          "name": "spender",
          "type": "address"
        },
        {
          "internalType": "uint256",
          "name": "addedValue",
          "type": "uint256"
        }
      ],
      "name": "increaseAllowance",
      "outputs": [
        {
          "internalType": "bool",
          "name": "",
          "type": "bool"
        }
      ],
      "stateMutability": "nonpayable",
      "type": "function"
    },
    {
      "inputs": [],
      "name": "name",
      "outputs": [
        {
          "internalType": "string",
          "name": "",
          "type": "string"
        }
      ],
      "stateMutability": "view",
      "type": "function"
    },
    {
      "inputs": [
        {
          "internalType": "address",
          "name": "",
          "type": "address"
        }
      ],
      "name": "nonces",
      "outputs": [
        {
          "internalType": "uint256",
          "name": "",
          "type": "uint256"
        }
      ],
      "stateMutability": "view",
      "type": "function"
    },
    {
      "inputs": [
        {
          "internalType": "address",
          "name": "",
          "type": "address"
        }
      ],
      "name": "numCheckpoints",
      "outputs": [
        {
          "internalType": "uint32",
          "name": "",
          "type": "uint32"
        }
      ],
      "stateMutability": "view",
      "type": "function"
    },
    {
      "inputs": [
        {
          "internalType": "address",
          "name": "",
          "type": "address"
        }
      ],
      "name": "numDelegateCheckpoints",
      "outputs": [
        {
          "internalType": "uint32",
          "name": "",
          "type": "uint32"
        }
      ],
      "stateMutability": "view",
      "type": "function"
    },
    {
      "inputs": [],
      "name": "symbol",
      "outputs": [
        {
          "internalType": "string",
          "name": "",
          "type": "string"
        }
      ],
      "stateMutability": "view",
      "type": "function"
    },
    {
      "inputs": [],
      "name": "totalSupply",
      "outputs": [
        {
          "internalType": "uint256",
          "name": "",
          "type": "uint256"
        }
      ],
      "stateMutability": "view",
      "type": "function"
    },
    {
      "inputs": [
        {
          "internalType": "address",
          "name": "_stakingContract",
          "type": "address"
        }
      ],
      "name": "setStakingContract",
      "outputs": [],
      "stateMutability": "nonpayable",
      "type": "function"
    },
    {
      "inputs": [
        {
          "internalType": "address",
          "name": "_stakingContract",
          "type": "address"
        }
      ],
      "name": "rinkebyOnlySetStakingContract",
      "outputs": [],
      "stateMutability": "nonpayable",
      "type": "function"
    },
    {
      "inputs": [
        {
          "internalType": "address",
          "name": "dst",
          "type": "address"
        },
        {
          "internalType": "uint256",
          "name": "amount",
          "type": "uint256"
        }
      ],
      "name": "transfer",
      "outputs": [
        {
          "internalType": "bool",
          "name": "",
          "type": "bool"
        }
      ],
      "stateMutability": "nonpayable",
      "type": "function"
    },
    {
      "inputs": [
        {
          "internalType": "address",
          "name": "src",
          "type": "address"
        },
        {
          "internalType": "address",
          "name": "dst",
          "type": "address"
        },
        {
          "internalType": "uint256",
          "name": "amount",
          "type": "uint256"
        }
      ],
      "name": "transferFrom",
      "outputs": [
        {
          "internalType": "bool",
          "name": "",
          "type": "bool"
        }
      ],
      "stateMutability": "nonpayable",
      "type": "function"
    },
    {
      "inputs": [
        {
          "internalType": "address",
          "name": "account",
          "type": "address"
        },
        {
          "internalType": "uint256",
          "name": "amount",
          "type": "uint256"
        }
      ],
      "name": "mint",
      "outputs": [],
      "stateMutability": "nonpayable",
      "type": "function"
    },
    {
      "inputs": [
        {
          "internalType": "uint256",
          "name": "amount",
          "type": "uint256"
        },
        {
          "internalType": "bytes",
          "name": "data",
          "type": "bytes"
        }
      ],
      "name": "burn",
      "outputs": [],
      "stateMutability": "nonpayable",
      "type": "function"
    },
    {
      "inputs": [],
      "name": "version",
      "outputs": [
        {
          "internalType": "uint256",
          "name": "",
          "type": "uint256"
        }
      ],
      "stateMutability": "pure",
      "type": "function"
    },
    {
      "inputs": [
        {
          "internalType": "address",
          "name": "delegatee",
          "type": "address"
        },
        {
          "internalType": "uint256",
          "name": "nonce",
          "type": "uint256"
        },
        {
          "internalType": "uint256",
          "name": "expiry",
          "type": "uint256"
        },
        {
          "internalType": "uint8",
          "name": "v",
          "type": "uint8"
        },
        {
          "internalType": "bytes32",
          "name": "r",
          "type": "bytes32"
        },
        {
          "internalType": "bytes32",
          "name": "s",
          "type": "bytes32"
        }
      ],
      "name": "delegateBySig",
      "outputs": [],
      "stateMutability": "nonpayable",
      "type": "function"
    },
    {
      "inputs": [
        {
          "internalType": "address",
          "name": "delegatee",
          "type": "address"
        }
      ],
      "name": "delegate",
      "outputs": [],
      "stateMutability": "nonpayable",
      "type": "function"
    },
    {
      "inputs": [
        {
          "internalType": "address",
          "name": "account",
          "type": "address"
        }
      ],
      "name": "getCurrentVotes",
      "outputs": [
        {
          "internalType": "uint256",
          "name": "",
          "type": "uint256"
        }
      ],
      "stateMutability": "view",
      "type": "function"
    },
    {
      "inputs": [
        {
          "internalType": "address",
          "name": "account",
          "type": "address"
        },
        {
          "internalType": "uint256",
          "name": "blockNumber",
          "type": "uint256"
        }
      ],
      "name": "getPriorVotes",
      "outputs": [
        {
          "internalType": "uint256",
          "name": "",
          "type": "uint256"
        }
      ],
      "stateMutability": "view",
      "type": "function"
    }
  ],
  "bytecode": "0x608060405234801561001057600080fd5b50611dcf806100206000396000f3fe608060405234801561001057600080fd5b50600436106101cf5760003560e01c806370a0823111610104578063a9059cbb116100a2578063e395715511610071578063e3957155146104ce578063e7a324dc146104e1578063f1127ed814610508578063fe9d93031461054357600080fd5b8063a9059cbb1461045c578063b4b5ea571461046f578063c3cda52014610482578063dd62ed3e1461049557600080fd5b806395d89b41116100de57806395d89b41146104085780639dd373b914610410578063a11c474114610423578063a457c2d71461044957600080fd5b806370a08231146103ac578063782d6fe1146103d55780637ecebe00146103e857600080fd5b8063395093511161017157806354fd4d501161014b57806354fd4d5014610316578063587cde1e1461031d5780635c19a95c1461035e5780636fcfff451461037157600080fd5b8063395093511461029757806340c10f19146102aa578063509c3ef0146102bf57600080fd5b806320606b70116101ad57806320606b701461022757806323b872dd1461024e57806330adf81f14610261578063313ce5671461028857600080fd5b806306fdde03146101d4578063095ea7b3146101f257806318160ddd14610215575b600080fd5b6101dc610556565b6040516101e991906119a5565b60405180910390f35b610205610200366004611a16565b6105e8565b60405190151581526020016101e9565b6034545b6040519081526020016101e9565b6102197f8cad95687ba82c2ce50e74f7b754645e5117c3a5bec8151c0726d5857980a86681565b61020561025c366004611a40565b6105ff565b6102197f6e71edae12b1b97f4d1f60370fef10105fa2faae0126114a169c64845d6126c981565b604051601281526020016101e9565b6102056102a5366004611a16565b610651565b6102bd6102b8366004611a16565b61068d565b005b6102fa6102cd366004611a7c565b606b6020908152600092835260408084209091529082529020805460019091015463ffffffff9091169082565b6040805163ffffffff90931683526020830191909152016101e9565b6003610219565b61034661032b366004611abc565b6069602052600090815260409020546001600160a01b031681565b6040516001600160a01b0390911681526020016101e9565b6102bd61036c366004611abc565b610734565b61039761037f366004611abc565b60686020526000908152604090205463ffffffff1681565b60405163ffffffff90911681526020016101e9565b6102196103ba366004611abc565b6001600160a01b031660009081526033602052604090205490565b6102196103e3366004611a16565b610741565b6102196103f6366004611abc565b606a6020526000908152604090205481565b6101dc610996565b6102bd61041e366004611abc565b6109a5565b610397610431366004611abc565b606c6020526000908152604090205463ffffffff1681565b610205610457366004611a16565b610a39565b61020561046a366004611a16565b610ae0565b61021961047d366004611abc565b610b26565b6102bd610490366004611ad7565b610b9b565b6102196104a3366004611b37565b6001600160a01b039182166000908152603b6020908152604080832093909416825291909152205490565b6102bd6104dc366004611abc565b610e5b565b6102197fe48329057bfd03d55e49b547132e39cffd9c1820ad7b9d4c5307691425d15adf81565b6102fa610516366004611a7c565b60676020908152600092835260408084209091529082529020805460019091015463ffffffff9091169082565b6102bd610551366004611b80565b610ef0565b60606035805461056590611c3b565b80601f016020809104026020016040519081016040528092919081815260200182805461059190611c3b565b80156105de5780601f106105b3576101008083540402835291602001916105de565b820191906000526020600020905b8154815290600101906020018083116105c157829003601f168201915b5050505050905090565b60006105f5338484610f20565b5060015b92915050565b600061060c848484611078565b61061557600080fd5b6001600160a01b0380851660009081526069602052604080822054868416835291205461064792918216911684611137565b5060019392505050565b336000818152603b602090815260408083206001600160a01b038716845290915281205490916105f5918590610688908690611c8c565b610f20565b6065546001600160a01b03163314806106b057506066546001600160a01b031633145b6107015760405162461bcd60e51b815260206004820152601360248201527f496e76616c6964206d696e742073656e6465720000000000000000000000000060448201526064015b60405180910390fd5b61070b828261129b565b6001600160a01b03808316600090815260696020526040812054610730921683611137565b5050565b61073e338261137a565b50565b60004382106107925760405162461bcd60e51b815260206004820152601d60248201527f4261636f6e436f696e3a206e6f74207965742064657465726d696e656400000060448201526064016106f8565b6001600160a01b0383166000908152606c602052604090205463ffffffff16806107c05760009150506105f9565b6001600160a01b0384166000908152606b6020526040812084916107e5600185611ca4565b63ffffffff9081168252602082019290925260400160002054161161084e576001600160a01b0384166000908152606b6020526040812090610828600184611ca4565b63ffffffff1663ffffffff168152602001908152602001600020600101549150506105f9565b6001600160a01b0384166000908152606b6020908152604080832083805290915290205463ffffffff168310156108895760009150506105f9565b600080610897600184611ca4565b90505b8163ffffffff168163ffffffff16111561095f57600060026108bc8484611ca4565b6108c69190611cc9565b6108d09083611ca4565b6001600160a01b0388166000908152606b6020908152604080832063ffffffff8086168552908352928190208151808301909252805490931680825260019093015491810191909152919250871415610933576020015194506105f99350505050565b805163ffffffff1687111561094a57819350610958565b610955600183611ca4565b92505b505061089a565b506001600160a01b0385166000908152606b6020908152604080832063ffffffff9094168352929052206001015491505092915050565b60606036805461056590611c3b565b6065546001600160a01b031633146109ff5760405162461bcd60e51b815260206004820152600e60248201527f496e76616c69642073656e64657200000000000000000000000000000000000060448201526064016106f8565b606580547fffffffffffffffffffffffff0000000000000000000000000000000000000000166001600160a01b0392909216919091179055565b336000908152603b602090815260408083206001600160a01b038616845290915281205482811015610ad35760405162461bcd60e51b815260206004820152602560248201527f45524332303a2064656372656173656420616c6c6f77616e63652062656c6f7760448201527f207a65726f00000000000000000000000000000000000000000000000000000060648201526084016106f8565b6106473385858403610f20565b6000610aec8383611412565b610af557600080fd5b33600090815260696020526040808220546001600160a01b03868116845291909220546105f5928216911684611137565b6001600160a01b0381166000908152606c602052604081205463ffffffff1680610b51576000610b94565b6001600160a01b0383166000908152606b6020526040812090610b75600184611ca4565b63ffffffff1663ffffffff168152602001908152602001600020600101545b9392505050565b60007f8cad95687ba82c2ce50e74f7b754645e5117c3a5bec8151c0726d5857980a866610bc6610556565b80519060200120610bd44690565b60408051602080820195909552808201939093526060830191909152306080808401919091528151808403909101815260a0830182528051908401207fe48329057bfd03d55e49b547132e39cffd9c1820ad7b9d4c5307691425d15adf60c08401526001600160a01b038b1660e084015261010083018a90526101208084018a9052825180850390910181526101408401909252815191909301207f1901000000000000000000000000000000000000000000000000000000000000610160830152610162820183905261018282018190529192506000906101a20160408051601f198184030181528282528051602091820120600080855291840180845281905260ff8a169284019290925260608301889052608083018790529092509060019060a0016020604051602081039080840390855afa158015610d1b573d6000803e3d6000fd5b5050604051601f1901519150506001600160a01b038116610d7e5760405162461bcd60e51b815260206004820152601c60248201527f4261636f6e436f696e3a20696e76616c6964207369676e61747572650000000060448201526064016106f8565b6001600160a01b0381166000908152606a60205260408120805491610da283611cfa565b919050558914610df45760405162461bcd60e51b815260206004820152601860248201527f4261636f6e436f696e3a20696e76616c6964206e6f6e6365000000000000000060448201526064016106f8565b87421115610e445760405162461bcd60e51b815260206004820152601c60248201527f4261636f6e436f696e3a207369676e617475726520657870697265640000000060448201526064016106f8565b610e4e818b61137a565b505050505b505050505050565b73602eb5180ce24240cf40f8be124cc4d3a289068633148015610e7e5750466004145b6109ff5760405162461bcd60e51b815260206004820152602260248201527f4261636f6e436f696e3a20496e76616c69642073656e646572206f722063686160448201527f696e00000000000000000000000000000000000000000000000000000000000060648201526084016106f8565b610efa338361141f565b33600090815260696020526040812054610730916001600160a01b039091169084611137565b6001600160a01b038316610f9b5760405162461bcd60e51b8152602060048201526024808201527f45524332303a20617070726f76652066726f6d20746865207a65726f2061646460448201527f726573730000000000000000000000000000000000000000000000000000000060648201526084016106f8565b6001600160a01b0382166110175760405162461bcd60e51b815260206004820152602260248201527f45524332303a20617070726f766520746f20746865207a65726f20616464726560448201527f737300000000000000000000000000000000000000000000000000000000000060648201526084016106f8565b6001600160a01b038381166000818152603b602090815260408083209487168084529482529182902085905590518481527f8c5be1e5ebec7d5bd14f71427d1e84f3dd0314c0f7b2291e5b200ac8c7c3b925910160405180910390a3505050565b60006110858484846115a4565b6001600160a01b0384166000908152603b602090815260408083203384529091529020548281101561111f5760405162461bcd60e51b815260206004820152602860248201527f45524332303a207472616e7366657220616d6f756e742065786365656473206160448201527f6c6c6f77616e636500000000000000000000000000000000000000000000000060648201526084016106f8565b61112c8533858403610f20565b506001949350505050565b816001600160a01b0316836001600160a01b0316141580156111595750600081115b15611296576001600160a01b038316156111fc576001600160a01b0383166000908152606c602052604081205463ffffffff1690816111995760006111dc565b6001600160a01b0385166000908152606b60205260408120906111bd600185611ca4565b63ffffffff1663ffffffff168152602001908152602001600020600101545b905060006111ea82856117bb565b90506111f8868484846117c7565b5050505b6001600160a01b03821615611296576001600160a01b0382166000908152606c602052604081205463ffffffff16908161123757600061127a565b6001600160a01b0384166000908152606b602052604081209061125b600185611ca4565b63ffffffff1663ffffffff168152602001908152602001600020600101545b905060006112888285611969565b9050610e53858484846117c7565b505050565b6001600160a01b0382166112f15760405162461bcd60e51b815260206004820152601f60248201527f45524332303a206d696e7420746f20746865207a65726f20616464726573730060448201526064016106f8565b80603460008282546113039190611c8c565b90915550506001600160a01b03821660009081526033602052604081208054839290611330908490611c8c565b90915550506040518181526001600160a01b038316906000907fddf252ad1be2c89b69c2b068fc378daa952ba7f163c4a11628f55a4df523b3ef9060200160405180910390a35050565b6001600160a01b03828116600081815260696020818152604080842080546033845282862054949093528787167fffffffffffffffffffffffff00000000000000000000000000000000000000008416811790915590519190951694919391928592917f3134e8a2e6d97e929a7e54011ea5485d7d196dd5f0ba4d4ef95803e8e3fc257f9190a461140c828483611137565b50505050565b60006105f53384846115a4565b6001600160a01b03821661149b5760405162461bcd60e51b815260206004820152602160248201527f45524332303a206275726e2066726f6d20746865207a65726f2061646472657360448201527f730000000000000000000000000000000000000000000000000000000000000060648201526084016106f8565b6001600160a01b0382166000908152603360205260409020548181101561152a5760405162461bcd60e51b815260206004820152602260248201527f45524332303a206275726e20616d6f756e7420657863656564732062616c616e60448201527f636500000000000000000000000000000000000000000000000000000000000060648201526084016106f8565b6001600160a01b0383166000908152603360205260408120838303905560348054849290611559908490611d33565b90915550506040518281526000906001600160a01b038516907fddf252ad1be2c89b69c2b068fc378daa952ba7f163c4a11628f55a4df523b3ef9060200160405180910390a3505050565b6001600160a01b0383166116205760405162461bcd60e51b815260206004820152602560248201527f45524332303a207472616e736665722066726f6d20746865207a65726f20616460448201527f647265737300000000000000000000000000000000000000000000000000000060648201526084016106f8565b6001600160a01b03821661169c5760405162461bcd60e51b815260206004820152602360248201527f45524332303a207472616e7366657220746f20746865207a65726f206164647260448201527f657373000000000000000000000000000000000000000000000000000000000060648201526084016106f8565b6001600160a01b0383166000908152603360205260409020548181101561172b5760405162461bcd60e51b815260206004820152602660248201527f45524332303a207472616e7366657220616d6f756e742065786365656473206260448201527f616c616e6365000000000000000000000000000000000000000000000000000060648201526084016106f8565b6001600160a01b03808516600090815260336020526040808220858503905591851681529081208054849290611762908490611c8c565b92505081905550826001600160a01b0316846001600160a01b03167fddf252ad1be2c89b69c2b068fc378daa952ba7f163c4a11628f55a4df523b3ef846040516117ae91815260200190565b60405180910390a361140c565b6000610b948284611d33565b60006117eb43604051806060016040528060278152602001611d7360279139611975565b905060008463ffffffff1611801561184557506001600160a01b0385166000908152606b6020526040812063ffffffff831691611829600188611ca4565b63ffffffff908116825260208201929092526040016000205416145b1561188e576001600160a01b0385166000908152606b60205260408120839161186f600188611ca4565b63ffffffff16815260208101919091526040016000206001015561191e565b60408051808201825263ffffffff838116825260208083018681526001600160a01b038a166000908152606b83528581208a851682529092529390209151825463ffffffff1916911617815590516001918201556118ed908590611d4a565b6001600160a01b0386166000908152606c60205260409020805463ffffffff191663ffffffff929092169190911790555b60408051848152602081018490526001600160a01b038716917fdec2bacdd2f05b59de34da9b523dff8be42e5e38e818c82fdb0bae774387a724910160405180910390a25050505050565b6000610b948284611c8c565b600081640100000000841061199d5760405162461bcd60e51b81526004016106f891906119a5565b509192915050565b600060208083528351808285015260005b818110156119d2578581018301518582016040015282016119b6565b818111156119e4576000604083870101525b50601f01601f1916929092016040019392505050565b80356001600160a01b0381168114611a1157600080fd5b919050565b60008060408385031215611a2957600080fd5b611a32836119fa565b946020939093013593505050565b600080600060608486031215611a5557600080fd5b611a5e846119fa565b9250611a6c602085016119fa565b9150604084013590509250925092565b60008060408385031215611a8f57600080fd5b611a98836119fa565b9150602083013563ffffffff81168114611ab157600080fd5b809150509250929050565b600060208284031215611ace57600080fd5b610b94826119fa565b60008060008060008060c08789031215611af057600080fd5b611af9876119fa565b95506020870135945060408701359350606087013560ff81168114611b1d57600080fd5b9598949750929560808101359460a0909101359350915050565b60008060408385031215611b4a57600080fd5b611b53836119fa565b9150611b61602084016119fa565b90509250929050565b634e487b7160e01b600052604160045260246000fd5b60008060408385031215611b9357600080fd5b82359150602083013567ffffffffffffffff80821115611bb257600080fd5b818501915085601f830112611bc657600080fd5b813581811115611bd857611bd8611b6a565b604051601f8201601f19908116603f01168101908382118183101715611c0057611c00611b6a565b81604052828152886020848701011115611c1957600080fd5b8260208601602083013760006020848301015280955050505050509250929050565b600181811c90821680611c4f57607f821691505b60208210811415611c7057634e487b7160e01b600052602260045260246000fd5b50919050565b634e487b7160e01b600052601160045260246000fd5b60008219821115611c9f57611c9f611c76565b500190565b600063ffffffff83811690831681811015611cc157611cc1611c76565b039392505050565b600063ffffffff80841680611cee57634e487b7160e01b600052601260045260246000fd5b92169190910492915050565b60007fffffffffffffffffffffffffffffffffffffffffffffffffffffffffffffffff821415611d2c57611d2c611c76565b5060010190565b600082821015611d4557611d45611c76565b500390565b600063ffffffff808316818516808303821115611d6957611d69611c76565b0194935050505056fe4261636f6e436f696e3a20626c6f636b206e756d62657220657863656564732033322062697473a26469706673582212207e7f64e454d014d2d43001c76d6412017764eb76b1c317bbf3d15e7109b69cbd64736f6c63430008090033",
  "compiler": {
    "name": "solc",
    "version": "0.8.9+commit.e5eed63a.Emscripten.clang"
  },
  "contractName": "BaconCoin3",
  "devdoc": {
    "kind": "dev",
    "methods": {
      "allowance(address,address)": {
        "details": "See {IERC20-allowance}."
      },
      "approve(address,uint256)": {
        "details": "See {IERC20-approve}. Requirements: - `spender` cannot be the zero address."
      },
      "balanceOf(address)": {
        "details": "See {IERC20-balanceOf}."
      },
      "decimals()": {
        "details": "Returns the number of decimals used to get its user representation. For example, if `decimals` equals `2`, a balance of `505` tokens should be displayed to a user as `5.05` (`505 / 10 ** 2`). Tokens usually opt for a value of 18, imitating the relationship between Ether and Wei. This is the value {ERC20} uses, unless this function is overridden; NOTE: This information is only used for _display_ purposes: it in no way affects any of the arithmetic of the contract, including {IERC20-balanceOf} and {IERC20-transfer}."
      },
      "decreaseAllowance(address,uint256)": {
        "details": "Atomically decreases the allowance granted to `spender` by the caller. This is an alternative to {approve} that can be used as a mitigation for problems described in {IERC20-approve}. Emits an {Approval} event indicating the updated allowance. Requirements: - `spender` cannot be the zero address. - `spender` must have allowance for the caller of at least `subtractedValue`."
      },
      "delegate(address)": {
        "params": {
          "delegatee": "The address to delegate votes to"
        }
      },
      "delegateBySig(address,uint256,uint256,uint8,bytes32,bytes32)": {
        "params": {
          "delegatee": "The address to delegate votes to",
          "expiry": "The time at which to expire the signature",
          "nonce": "The contract state required to match the signature",
          "r": "Half of the ECDSA signature pair",
          "s": "Half of the ECDSA signature pair",
          "v": "The recovery byte of the signature"
        }
      },
      "getCurrentVotes(address)": {
        "params": {
          "account": "The address to get votes balance"
        },
        "returns": {
          "_0": "The number of current votes for `account`"
        }
      },
      "getPriorVotes(address,uint256)": {
        "details": "Block number must be a finalized block or else this function will revert to prevent misinformation.",
        "params": {
          "account": "The address of the account to check",
          "blockNumber": "The block number to get the vote balance at"
        },
        "returns": {
          "_0": "The number of votes the account had as of the given block"
        }
      },
      "increaseAllowance(address,uint256)": {
        "details": "Atomically increases the allowance granted to `spender` by the caller. This is an alternative to {approve} that can be used as a mitigation for problems described in {IERC20-approve}. Emits an {Approval} event indicating the updated allowance. Requirements: - `spender` cannot be the zero address."
      },
      "name()": {
        "details": "Returns the name of the token."
      },
      "symbol()": {
        "details": "Returns the symbol of the token, usually a shorter version of the name."
      },
      "totalSupply()": {
        "details": "See {IERC20-totalSupply}."
      },
      "version()": {
        "details": "Function version returns uint depending on what version the contract is on"
      }
    },
    "version": 1
  },
  "immutableReferences": {},
  "schemaVersion": "3.4.7",
  "source": "// SPDX-License-Identifier: MIT\npragma solidity ^0.8.4;\n\nimport \"../@openzeppelin/contracts-upgradeable/proxy/utils/Initializable.sol\";\nimport \"./../ERC20/ERC20UpgradeableFromERC777.sol\";\nimport '../@openzeppelin/contracts/utils/math/SafeMath.sol';\nimport '../@openzeppelin/contracts/utils/math/SignedSafeMath.sol';\n\ncontract BaconCoin3 is Initializable, ERC20UpgradeableFromERC777 {\n    using SignedSafeMath for int256;\n    using SafeMath for uint256;\n\n    address stakingContract;\n    address airdropContract;\n\n    /// @notice DEPRECATED  \n    /// A record of votes checkpoints for each account, by index\n    mapping (address => mapping (uint32 => Checkpoint)) public checkpoints;\n\n    /// @notice DEPRECATED  \n    /// The number of checkpoints for each account\n    mapping (address => uint32) public numCheckpoints;\n\n    /// @notice A checkpoint for marking number of votes from a given block\n    struct Checkpoint {\n        uint32 fromBlock;\n        uint256 votes;\n    }\n\n    /// @notice A record of each accounts delegate\n    mapping (address => address) public delegates;\n\n    /// @notice The EIP-712 typehash for the contract's domain\n    bytes32 public constant DOMAIN_TYPEHASH = keccak256(\"EIP712Domain(string name,uint256 chainId,address verifyingContract)\");\n\n    /// @notice The EIP-712 typehash for the delegation struct used by the contract\n    bytes32 public constant DELEGATION_TYPEHASH = keccak256(\"Delegation(address delegatee,uint256 nonce,uint256 expiry)\");\n\n    /// @notice The EIP-712 typehash for the permit struct used by the contract\n    bytes32 public constant PERMIT_TYPEHASH = keccak256(\"Permit(address owner,address spender,uint256 value,uint256 nonce,uint256 deadline)\");\n\n    /// @notice A record of states for signing / validating signatures\n    mapping (address => uint) public nonces;\n\n    /*****************************************************\n    *       Variables added in BaconCoin1\n    ******************************************************/\n\n    /// @notice A record of votes checkpoints for a delegate's account, by index\n    mapping (address => mapping (uint32 => Checkpoint)) public delegateCheckpoints;\n\n    /// @notice The number of checkpoints for each account\n    mapping (address => uint32) public numDelegateCheckpoints;\n\n    /*****************************************************\n    *       EVENTS\n    ******************************************************/\n    \n    /// @notice An event thats emitted when an account changes its delegate\n    event DelegateChanged(address indexed delegator, address indexed fromDelegate, address indexed toDelegate);\n\n    /// @notice An event thats emitted when a delegate account's vote balance changes\n    event DelegateVotesChanged(address indexed delegate, uint previousBalance, uint newBalance);\n\n    /*****************************************************\n    *       BASE FUNCTIONS\n    ******************************************************/\n\n    function setStakingContract(address _stakingContract) public {\n        require(msg.sender == stakingContract, \"Invalid sender\");\n        stakingContract = _stakingContract;\n    }\n\n    function rinkebyOnlySetStakingContract(address _stakingContract) public {\n        require(msg.sender == 0x602eb5180Ce24240cf40f8BE124Cc4d3a2890686 && block.chainid == 4, \"BaconCoin: Invalid sender or chain\");\n        stakingContract = _stakingContract;\n    }\n\n    // Transfer func must be overwritten to also moveDelegates when balance is transferred\n    function transfer(address dst, uint amount) public override returns (bool) {\n        require(super.transfer(dst, amount));\n        _moveDelegates(delegates[msg.sender], delegates[dst], amount);\n        return true;\n    }\n\n    // TransferFrom func must be overwritten to also moveDelegates when balance is transferred\n    function transferFrom(address src, address dst, uint256 amount) public override returns (bool) {\n        require(super.transferFrom(src, dst, amount));\n        _moveDelegates(delegates[src], delegates[dst], amount);\n        return true;\n    }\n\n    function mint(address account, uint256 amount) public {\n        require(msg.sender == stakingContract || msg.sender == airdropContract, \"Invalid mint sender\");\n        super._mint(account, amount);\n        _moveDelegates(address(0), delegates[account], amount);\n    }\n\n    function burn(uint256 amount, bytes memory data) public {\n        super._burn(msg.sender, amount);\n        _moveDelegates(delegates[msg.sender], address(0), amount);\n    }\n\n    /**  \n    *   @dev Function version returns uint depending on what version the contract is on\n    */\n    function version() public pure returns (uint) {\n        return 3;\n    }\n    \n    function safe32(uint n, string memory errorMessage) internal pure returns (uint32) {\n        require(n < 2**32, errorMessage);\n        return uint32(n);\n    }\n\n    function getChainId() internal view returns (uint) {\n        uint256 chainId;\n        // solhint-disable-next-line no-inline-assembly\n        assembly { chainId := chainid() }\n        return chainId;\n    }\n\n    /********************************\n    *     GOVERNANCE FUNCTIONS      *\n    *********************************/\n\n    /**\n     * @notice Delegates votes from signatory to `delegatee`\n     * @param delegatee The address to delegate votes to\n     * @param nonce The contract state required to match the signature\n     * @param expiry The time at which to expire the signature\n     * @param v The recovery byte of the signature\n     * @param r Half of the ECDSA signature pair\n     * @param s Half of the ECDSA signature pair\n     */\n    function delegateBySig(address delegatee, uint nonce, uint expiry, uint8 v, bytes32 r, bytes32 s) public {\n        bytes32 domainSeparator = keccak256(abi.encode(DOMAIN_TYPEHASH, keccak256(bytes(name())), getChainId(), address(this)));\n        bytes32 structHash = keccak256(abi.encode(DELEGATION_TYPEHASH, delegatee, nonce, expiry));\n        bytes32 digest = keccak256(abi.encodePacked(\"\\x19\\x01\", domainSeparator, structHash));\n        address signatory = ecrecover(digest, v, r, s);\n        require(signatory != address(0), \"BaconCoin: invalid signature\");\n        require(nonce == nonces[signatory]++, \"BaconCoin: invalid nonce\");\n        require(block.timestamp <= expiry, \"BaconCoin: signature expired\");\n        return _delegate(signatory, delegatee);\n    }\n\n    /**\n     * @notice Delegate votes from `msg.sender` to `delegatee`\n     * @param delegatee The address to delegate votes to\n     */\n    function delegate(address delegatee) public {\n        return _delegate(msg.sender, delegatee);\n    }\n\n    /**\n     * @notice Gets the current votes balance for `account`\n     * @param account The address to get votes balance\n     * @return The number of current votes for `account`\n     */\n    function getCurrentVotes(address account) external view returns (uint256) {\n        uint32 nCheckpoints = numDelegateCheckpoints[account];\n        return nCheckpoints > 0 ? delegateCheckpoints[account][nCheckpoints - 1].votes : 0;\n    }\n\n    /**\n    * @notice Determine the prior number of votes for an account as of a block number\n    * @dev Block number must be a finalized block or else this function will revert to prevent misinformation.\n    * @param account The address of the account to check\n    * @param blockNumber The block number to get the vote balance at\n    * @return The number of votes the account had as of the given block\n    */\n    function getPriorVotes(address account, uint blockNumber) public view returns (uint256) {\n        require(blockNumber < block.number, \"BaconCoin: not yet determined\");\n\n        uint32 nCheckpoints = numDelegateCheckpoints[account];\n        if (nCheckpoints == 0) {\n            return 0;\n        }\n\n        // First check most recent balance\n        if (delegateCheckpoints[account][nCheckpoints - 1].fromBlock <= blockNumber) {\n            return delegateCheckpoints[account][nCheckpoints - 1].votes;\n        }\n\n        // Next check implicit zero balance\n        if (delegateCheckpoints[account][0].fromBlock > blockNumber) {\n            return 0;\n        }\n\n        uint32 lower = 0;\n        uint32 upper = nCheckpoints - 1;\n        while (upper > lower) {\n            uint32 center = upper - (upper - lower) / 2; // ceil, avoiding overflow\n            Checkpoint memory cp = delegateCheckpoints[account][center];\n            if (cp.fromBlock == blockNumber) {\n                return cp.votes;\n            } else if (cp.fromBlock < blockNumber) {\n                lower = center;\n            } else {\n                upper = center - 1;\n            }\n        }\n        return delegateCheckpoints[account][lower].votes;\n    }\n\n    function _delegate(address delegator, address delegatee) internal {\n        address currentDelegate = delegates[delegator];\n        uint256 delegatorBalance = balanceOf(delegator);\n        delegates[delegator] = delegatee;\n\n        emit DelegateChanged(delegator, currentDelegate, delegatee);\n\n        _moveDelegates(currentDelegate, delegatee, delegatorBalance);\n    }\n\n    function _moveDelegates(address srcRep, address dstRep, uint256 amount) internal {\n        if (srcRep != dstRep && amount > 0) {\n            if (srcRep != address(0)) {\n                uint32 srcRepNum = numDelegateCheckpoints[srcRep];\n                uint256 srcRepOld = srcRepNum > 0 ? delegateCheckpoints[srcRep][srcRepNum - 1].votes : 0;\n                uint256 srcRepNew = srcRepOld.sub(amount);\n                _writeCheckpoint(srcRep, srcRepNum, srcRepOld, srcRepNew);\n            }\n\n            if (dstRep != address(0)) {\n                uint32 dstRepNum = numDelegateCheckpoints[dstRep];\n                uint256 dstRepOld = dstRepNum > 0 ? delegateCheckpoints[dstRep][dstRepNum - 1].votes : 0;\n                uint256 dstRepNew = dstRepOld.add(amount);\n                _writeCheckpoint(dstRep, dstRepNum, dstRepOld, dstRepNew);\n            }\n        }\n    }\n\n    function _writeCheckpoint(address delegatee, uint32 nCheckpoints, uint256 oldVotes, uint256 newVotes) internal {\n      uint32 blockNumber = safe32(block.number, \"BaconCoin: block number exceeds 32 bits\");\n\n      if (nCheckpoints > 0 && delegateCheckpoints[delegatee][nCheckpoints - 1].fromBlock == blockNumber) {\n          delegateCheckpoints[delegatee][nCheckpoints - 1].votes = newVotes;\n      } else {\n          delegateCheckpoints[delegatee][nCheckpoints] = Checkpoint(blockNumber, newVotes);\n          numDelegateCheckpoints[delegatee] = nCheckpoints + 1;\n      }\n\n      emit DelegateVotesChanged(delegatee, oldVotes, newVotes);\n    }\n}",
  "sourcePath": "/src/contracts/BaconCoin/BaconCoin3.sol",
  "updatedAt": "2022-10-12T17:10:51.796Z",
  "userdoc": {
    "events": {
      "DelegateChanged(address,address,address)": {
        "notice": "An event thats emitted when an account changes its delegate"
      },
      "DelegateVotesChanged(address,uint256,uint256)": {
        "notice": "An event thats emitted when a delegate account's vote balance changes"
      }
    },
    "kind": "user",
    "methods": {
      "DELEGATION_TYPEHASH()": {
        "notice": "The EIP-712 typehash for the delegation struct used by the contract"
      },
      "DOMAIN_TYPEHASH()": {
        "notice": "The EIP-712 typehash for the contract's domain"
      },
      "PERMIT_TYPEHASH()": {
        "notice": "The EIP-712 typehash for the permit struct used by the contract"
      },
      "checkpoints(address,uint32)": {
        "notice": "DEPRECATED   A record of votes checkpoints for each account, by index"
      },
      "delegate(address)": {
        "notice": "Delegate votes from `msg.sender` to `delegatee`"
      },
      "delegateBySig(address,uint256,uint256,uint8,bytes32,bytes32)": {
        "notice": "Delegates votes from signatory to `delegatee`"
      },
      "delegateCheckpoints(address,uint32)": {
        "notice": "A record of votes checkpoints for a delegate's account, by index"
      },
      "delegates(address)": {
        "notice": "A record of each accounts delegate"
      },
      "getCurrentVotes(address)": {
        "notice": "Gets the current votes balance for `account`"
      },
      "getPriorVotes(address,uint256)": {
        "notice": "Determine the prior number of votes for an account as of a block number"
      },
      "nonces(address)": {
        "notice": "A record of states for signing / validating signatures"
      },
      "numCheckpoints(address)": {
        "notice": "DEPRECATED   The number of checkpoints for each account"
      },
      "numDelegateCheckpoints(address)": {
        "notice": "The number of checkpoints for each account"
      }
    },
    "version": 1
  }
}