{
  "contractName": "CurveMock0",
  "abi": [
    {
      "inputs": [
        {
          "internalType": "int128",
          "name": "i",
          "type": "int128"
        },
        {
          "internalType": "int128",
          "name": "j",
          "type": "int128"
        },
        {
          "internalType": "uint256",
          "name": "dx",
          "type": "uint256"
        },
        {
          "internalType": "uint256",
          "name": "min_dy",
          "type": "uint256"
        },
        {
          "internalType": "address",
          "name": "receiver",
          "type": "address"
        }
      ],
      "name": "exchange_underlying",
      "outputs": [
        {
          "internalType": "uint256",
          "name": "",
          "type": "uint256"
        }
      ],
      "stateMutability": "nonpayable",
      "type": "function"
    },
    {
      "inputs": [
        {
          "internalType": "int128",
          "name": "dex",
          "type": "int128"
        },
        {
          "internalType": "address",
          "name": "addr",
          "type": "address"
        }
      ],
      "name": "addCurrency",
      "outputs": [],
      "stateMutability": "nonpayable",
      "type": "function"
    }
  ],
  "bytecode": "0x608060405234801561001057600080fd5b5061044e806100206000396000f3fe608060405234801561001057600080fd5b50600436106100365760003560e01c806344ee19861461003b578063e48aa7ce14610060575b600080fd5b61004e6100493660046102c6565b6100c8565b60405190815260200160405180910390f35b6100c661006e36600461031d565b600f9190910b600090815260208190526040902080547fffffffffffffffffffffffff00000000000000000000000000000000000000001673ffffffffffffffffffffffffffffffffffffffff909216919091179055565b005b600f85900b6000908152602081905260408082205490517f23b872dd0000000000000000000000000000000000000000000000000000000081523360048201523060248201526044810186905273ffffffffffffffffffffffffffffffffffffffff909116906323b872dd90606401602060405180830381600087803b15801561015157600080fd5b505af1158015610165573d6000803e3d6000fd5b505050506040513d601f19601f820116820180604052508101906101899190610350565b50600f85900b60009081526020819052604090205473ffffffffffffffffffffffffffffffffffffffff16836101d757620f42406101ca86620f6950610379565b6101d491906103dd565b93505b6040517fa9059cbb00000000000000000000000000000000000000000000000000000000815273ffffffffffffffffffffffffffffffffffffffff84811660048301526024820186905282169063a9059cbb90604401602060405180830381600087803b15801561024757600080fd5b505af115801561025b573d6000803e3d6000fd5b505050506040513d601f19601f8201168201806040525081019061027f9190610350565b50929695505050505050565b8035600f81900b811461029d57600080fd5b919050565b803573ffffffffffffffffffffffffffffffffffffffff8116811461029d57600080fd5b600080600080600060a086880312156102de57600080fd5b6102e78661028b565b94506102f56020870161028b565b93506040860135925060608601359150610311608087016102a2565b90509295509295909350565b6000806040838503121561033057600080fd5b6103398361028b565b9150610347602084016102a2565b90509250929050565b60006020828403121561036257600080fd5b8151801515811461037257600080fd5b9392505050565b6000817fffffffffffffffffffffffffffffffffffffffffffffffffffffffffffffffff04831182151516156103d8577f4e487b7100000000000000000000000000000000000000000000000000000000600052601160045260246000fd5b500290565b600082610413577f4e487b7100000000000000000000000000000000000000000000000000000000600052601260045260246000fd5b50049056fea2646970667358221220a666e3c7f92a02e8e58504632b22ad86b903a16e9566944e2dd50dcc853a909b64736f6c63430008090033",
  "immutableReferences": {},
  "source": "pragma solidity ^0.8.4;\n\nimport './../@openzeppelin/contracts-upgradeable/token/ERC20/IERC20Upgradeable.sol';\n\n//import 'hardhat/console.sol';\n\ncontract CurveMock0 {\n\n    mapping(int128 => address) currencies;\n\n    function exchange_underlying(\n        int128 i,\n        int128 j,\n        uint256 dx,\n        uint256 min_dy,\n        address receiver\n    ) external returns (uint256) {\n\n        // Transfer the dx to this\n        //console.log('PRE-TRANSFER', currencies[i], dx);\n        IERC20Upgradeable(currencies[i]).transferFrom(msg.sender, address(this), dx);\n        //console.log('POST-TRANSFER', currencies[i], dx);\n        // Aprove dy transfer\n        IERC20Upgradeable dyCoin = IERC20Upgradeable(currencies[j]);\n\n        // Return an exchange rate to the front end\n        // who asks by giving a 0 min_dy.\n        if (min_dy == 0) {\n            min_dy = dx * 1_010_000 / 1_000_000;\n        }\n\n        // Transfer the dy to receiver\n        //console.log('PRE-TRANSFER', min_dy);\n        dyCoin.transfer(receiver, min_dy);\n\n        //console.log('POST-TRANSFER', min_dy);\n        return min_dy;\n    }\n\n    function addCurrency(int128 dex, address addr) public {\n        currencies[dex] = addr;\n    }\n}\n",
  "sourcePath": "/Users/allan/src/mf/HomeDAO/contracts/CurveMock/CurveMock0.sol",
  "compiler": {
    "name": "solc",
    "version": "0.8.9+commit.e5eed63a.Emscripten.clang"
  },
  "schemaVersion": "3.4.10",
  "updatedAt": "2022-11-06T06:58:46.644Z",
  "devdoc": {
    "kind": "dev",
    "methods": {},
    "version": 1
  },
  "userdoc": {
    "kind": "user",
    "methods": {},
    "version": 1
  }
}