{
  "contractName": "GovernorAlpha",
  "abi": [
    {
      "inputs": [
        {
          "internalType": "address",
          "name": "timelock_",
          "type": "address"
        },
        {
          "internalType": "address",
          "name": "baconCoin_",
          "type": "address"
        },
        {
          "internalType": "address",
          "name": "guardian_",
          "type": "address"
        }
      ],
      "stateMutability": "nonpayable",
      "type": "constructor"
    },
    {
      "anonymous": false,
      "inputs": [
        {
          "indexed": false,
          "internalType": "uint256",
          "name": "id",
          "type": "uint256"
        }
      ],
      "name": "ProposalCanceled",
      "type": "event"
    },
    {
      "anonymous": false,
      "inputs": [
        {
          "indexed": false,
          "internalType": "uint256",
          "name": "id",
          "type": "uint256"
        },
        {
          "indexed": false,
          "internalType": "address",
          "name": "proposer",
          "type": "address"
        },
        {
          "indexed": false,
          "internalType": "address[]",
          "name": "targets",
          "type": "address[]"
        },
        {
          "indexed": false,
          "internalType": "uint256[]",
          "name": "values",
          "type": "uint256[]"
        },
        {
          "indexed": false,
          "internalType": "string[]",
          "name": "signatures",
          "type": "string[]"
        },
        {
          "indexed": false,
          "internalType": "bytes[]",
          "name": "calldatas",
          "type": "bytes[]"
        },
        {
          "indexed": false,
          "internalType": "uint256",
          "name": "startBlock",
          "type": "uint256"
        },
        {
          "indexed": false,
          "internalType": "uint256",
          "name": "endBlock",
          "type": "uint256"
        },
        {
          "indexed": false,
          "internalType": "string",
          "name": "description",
          "type": "string"
        }
      ],
      "name": "ProposalCreated",
      "type": "event"
    },
    {
      "anonymous": false,
      "inputs": [
        {
          "indexed": false,
          "internalType": "uint256",
          "name": "id",
          "type": "uint256"
        }
      ],
      "name": "ProposalExecuted",
      "type": "event"
    },
    {
      "anonymous": false,
      "inputs": [
        {
          "indexed": false,
          "internalType": "uint256",
          "name": "id",
          "type": "uint256"
        },
        {
          "indexed": false,
          "internalType": "uint256",
          "name": "eta",
          "type": "uint256"
        }
      ],
      "name": "ProposalQueued",
      "type": "event"
    },
    {
      "anonymous": false,
      "inputs": [
        {
          "indexed": false,
          "internalType": "address",
          "name": "voter",
          "type": "address"
        },
        {
          "indexed": false,
          "internalType": "uint256",
          "name": "proposalId",
          "type": "uint256"
        },
        {
          "indexed": false,
          "internalType": "bool",
          "name": "support",
          "type": "bool"
        },
        {
          "indexed": false,
          "internalType": "uint256",
          "name": "votes",
          "type": "uint256"
        }
      ],
      "name": "VoteCast",
      "type": "event"
    },
    {
      "inputs": [],
      "name": "BALLOT_TYPEHASH",
      "outputs": [
        {
          "internalType": "bytes32",
          "name": "",
          "type": "bytes32"
        }
      ],
      "stateMutability": "view",
      "type": "function"
    },
    {
      "inputs": [],
      "name": "DOMAIN_TYPEHASH",
      "outputs": [
        {
          "internalType": "bytes32",
          "name": "",
          "type": "bytes32"
        }
      ],
      "stateMutability": "view",
      "type": "function"
    },
    {
      "inputs": [],
      "name": "baconCoin",
      "outputs": [
        {
          "internalType": "contract BaconCoinInterface",
          "name": "",
          "type": "address"
        }
      ],
      "stateMutability": "view",
      "type": "function"
    },
    {
      "inputs": [],
      "name": "guardian",
      "outputs": [
        {
          "internalType": "address",
          "name": "",
          "type": "address"
        }
      ],
      "stateMutability": "view",
      "type": "function"
    },
    {
      "inputs": [
        {
          "internalType": "address",
          "name": "",
          "type": "address"
        }
      ],
      "name": "latestProposalIds",
      "outputs": [
        {
          "internalType": "uint256",
          "name": "",
          "type": "uint256"
        }
      ],
      "stateMutability": "view",
      "type": "function"
    },
    {
      "inputs": [],
      "name": "name",
      "outputs": [
        {
          "internalType": "string",
          "name": "",
          "type": "string"
        }
      ],
      "stateMutability": "view",
      "type": "function"
    },
    {
      "inputs": [],
      "name": "proposalCount",
      "outputs": [
        {
          "internalType": "uint256",
          "name": "",
          "type": "uint256"
        }
      ],
      "stateMutability": "view",
      "type": "function"
    },
    {
      "inputs": [
        {
          "internalType": "uint256",
          "name": "",
          "type": "uint256"
        }
      ],
      "name": "proposals",
      "outputs": [
        {
          "internalType": "uint256",
          "name": "id",
          "type": "uint256"
        },
        {
          "internalType": "address",
          "name": "proposer",
          "type": "address"
        },
        {
          "internalType": "uint256",
          "name": "eta",
          "type": "uint256"
        },
        {
          "internalType": "uint256",
          "name": "startBlock",
          "type": "uint256"
        },
        {
          "internalType": "uint256",
          "name": "endBlock",
          "type": "uint256"
        },
        {
          "internalType": "uint256",
          "name": "forVotes",
          "type": "uint256"
        },
        {
          "internalType": "uint256",
          "name": "againstVotes",
          "type": "uint256"
        },
        {
          "internalType": "bool",
          "name": "canceled",
          "type": "bool"
        },
        {
          "internalType": "bool",
          "name": "executed",
          "type": "bool"
        }
      ],
      "stateMutability": "view",
      "type": "function"
    },
    {
      "inputs": [],
      "name": "timelock",
      "outputs": [
        {
          "internalType": "contract TimelockInterface",
          "name": "",
          "type": "address"
        }
      ],
      "stateMutability": "view",
      "type": "function"
    },
    {
      "inputs": [],
      "name": "quorumVotes",
      "outputs": [
        {
          "internalType": "uint256",
          "name": "",
          "type": "uint256"
        }
      ],
      "stateMutability": "view",
      "type": "function"
    },
    {
      "inputs": [],
      "name": "proposalThreshold",
      "outputs": [
        {
          "internalType": "uint256",
          "name": "",
          "type": "uint256"
        }
      ],
      "stateMutability": "view",
      "type": "function"
    },
    {
      "inputs": [],
      "name": "proposalMaxOperations",
      "outputs": [
        {
          "internalType": "uint256",
          "name": "",
          "type": "uint256"
        }
      ],
      "stateMutability": "pure",
      "type": "function"
    },
    {
      "inputs": [],
      "name": "votingDelay",
      "outputs": [
        {
          "internalType": "uint256",
          "name": "",
          "type": "uint256"
        }
      ],
      "stateMutability": "pure",
      "type": "function"
    },
    {
      "inputs": [],
      "name": "votingPeriod",
      "outputs": [
        {
          "internalType": "uint256",
          "name": "",
          "type": "uint256"
        }
      ],
      "stateMutability": "pure",
      "type": "function"
    },
    {
      "inputs": [
        {
          "internalType": "address[]",
          "name": "targets",
          "type": "address[]"
        },
        {
          "internalType": "uint256[]",
          "name": "values",
          "type": "uint256[]"
        },
        {
          "internalType": "string[]",
          "name": "signatures",
          "type": "string[]"
        },
        {
          "internalType": "bytes[]",
          "name": "calldatas",
          "type": "bytes[]"
        },
        {
          "internalType": "string",
          "name": "description",
          "type": "string"
        }
      ],
      "name": "propose",
      "outputs": [
        {
          "internalType": "uint256",
          "name": "",
          "type": "uint256"
        }
      ],
      "stateMutability": "nonpayable",
      "type": "function"
    },
    {
      "inputs": [
        {
          "internalType": "uint256",
          "name": "proposalId",
          "type": "uint256"
        }
      ],
      "name": "queue",
      "outputs": [],
      "stateMutability": "nonpayable",
      "type": "function"
    },
    {
      "inputs": [
        {
          "internalType": "uint256",
          "name": "proposalId",
          "type": "uint256"
        }
      ],
      "name": "execute",
      "outputs": [],
      "stateMutability": "payable",
      "type": "function"
    },
    {
      "inputs": [
        {
          "internalType": "uint256",
          "name": "proposalId",
          "type": "uint256"
        }
      ],
      "name": "cancel",
      "outputs": [],
      "stateMutability": "nonpayable",
      "type": "function"
    },
    {
      "inputs": [
        {
          "internalType": "uint256",
          "name": "proposalId",
          "type": "uint256"
        }
      ],
      "name": "getActions",
      "outputs": [
        {
          "internalType": "address[]",
          "name": "targets",
          "type": "address[]"
        },
        {
          "internalType": "uint256[]",
          "name": "values",
          "type": "uint256[]"
        },
        {
          "internalType": "string[]",
          "name": "signatures",
          "type": "string[]"
        },
        {
          "internalType": "bytes[]",
          "name": "calldatas",
          "type": "bytes[]"
        }
      ],
      "stateMutability": "view",
      "type": "function"
    },
    {
      "inputs": [
        {
          "internalType": "uint256",
          "name": "proposalId",
          "type": "uint256"
        },
        {
          "internalType": "address",
          "name": "voter",
          "type": "address"
        }
      ],
      "name": "getReceipt",
      "outputs": [
        {
          "components": [
            {
              "internalType": "bool",
              "name": "hasVoted",
              "type": "bool"
            },
            {
              "internalType": "bool",
              "name": "support",
              "type": "bool"
            },
            {
              "internalType": "uint96",
              "name": "votes",
              "type": "uint96"
            }
          ],
          "internalType": "struct GovernorAlpha.Receipt",
          "name": "",
          "type": "tuple"
        }
      ],
      "stateMutability": "view",
      "type": "function"
    },
    {
      "inputs": [
        {
          "internalType": "uint256",
          "name": "proposalId",
          "type": "uint256"
        }
      ],
      "name": "state",
      "outputs": [
        {
          "internalType": "enum GovernorAlpha.ProposalState",
          "name": "",
          "type": "uint8"
        }
      ],
      "stateMutability": "view",
      "type": "function"
    },
    {
      "inputs": [
        {
          "internalType": "uint256",
          "name": "proposalId",
          "type": "uint256"
        },
        {
          "internalType": "bool",
          "name": "support",
          "type": "bool"
        }
      ],
      "name": "castVote",
      "outputs": [],
      "stateMutability": "nonpayable",
      "type": "function"
    },
    {
      "inputs": [
        {
          "internalType": "uint256",
          "name": "proposalId",
          "type": "uint256"
        },
        {
          "internalType": "bool",
          "name": "support",
          "type": "bool"
        },
        {
          "internalType": "uint8",
          "name": "v",
          "type": "uint8"
        },
        {
          "internalType": "bytes32",
          "name": "r",
          "type": "bytes32"
        },
        {
          "internalType": "bytes32",
          "name": "s",
          "type": "bytes32"
        }
      ],
      "name": "castVoteBySig",
      "outputs": [],
      "stateMutability": "nonpayable",
      "type": "function"
    },
    {
      "inputs": [],
      "name": "__acceptAdmin",
      "outputs": [],
      "stateMutability": "nonpayable",
      "type": "function"
    },
    {
      "inputs": [],
      "name": "__abdicate",
      "outputs": [],
      "stateMutability": "nonpayable",
      "type": "function"
    },
    {
      "inputs": [
        {
          "internalType": "address",
          "name": "newGuardian",
          "type": "address"
        }
      ],
      "name": "__transferGuardian",
      "outputs": [],
      "stateMutability": "nonpayable",
      "type": "function"
    },
    {
      "inputs": [
        {
          "internalType": "address",
          "name": "newPendingAdmin",
          "type": "address"
        },
        {
          "internalType": "uint256",
          "name": "eta",
          "type": "uint256"
        }
      ],
      "name": "__queueSetTimelockPendingAdmin",
      "outputs": [],
      "stateMutability": "nonpayable",
      "type": "function"
    },
    {
      "inputs": [
        {
          "internalType": "address",
          "name": "newPendingAdmin",
          "type": "address"
        },
        {
          "internalType": "uint256",
          "name": "eta",
          "type": "uint256"
        }
      ],
      "name": "__executeSetTimelockPendingAdmin",
      "outputs": [],
      "stateMutability": "nonpayable",
      "type": "function"
    }
  ],
  "bytecode": "0x60806040523480156200001157600080fd5b506040516200347b3803806200347b833981016040819052620000349162000094565b600080546001600160a01b039485166001600160a01b031991821617909155600180549385169382169390931790925560028054919093169116179055620000de565b80516001600160a01b03811681146200008f57600080fd5b919050565b600080600060608486031215620000aa57600080fd5b620000b58462000077565b9250620000c56020850162000077565b9150620000d56040850162000077565b90509250925092565b61338d80620000ee6000396000f3fe6080604052600436106101b75760003560e01c8063452a9320116100ec578063d33219b41161008a578063ddf0b00911610064578063ddf0b009146105a5578063deaaa7cc146105c5578063e23a9a52146105f9578063fe0d94c1146106ce57600080fd5b8063d33219b41461054f578063da35c6641461056f578063da95691a1461058557600080fd5b80637bdbe4d0116100c65780637bdbe4d0146104f15780639150067114610505578063b58131b014610525578063b9a619611461053a57600080fd5b8063452a93201461049c5780634634c61f146104bc578063760fbc13146104dc57600080fd5b806320606b7011610159578063328dd98211610133578063328dd9821461040a5780633932abb11461043a5780633e4f49e61461044f57806340e58ee51461047c57600080fd5b806320606b70146103a157806321f43e42146103d557806324bc1a64146103f557600080fd5b806308f419281161019557806308f41928146102fa57806315373e3d1461033257806317977c61146103545780631afef6e41461038157600080fd5b8063013cf08b146101bc57806302a251a31461028557806306fdde03146102a4575b600080fd5b3480156101c857600080fd5b506102306101d73660046128c0565b6004602052600090815260409020805460018201546002830154600784015460088501546009860154600a870154600b9097015495966001600160a01b0390951695939492939192909160ff8082169161010090041689565b60408051998a526001600160a01b0390981660208a0152968801959095526060870193909352608086019190915260a085015260c0840152151560e08301521515610100820152610120015b60405180910390f35b34801561029157600080fd5b506127105b60405190815260200161027c565b3480156102b057600080fd5b506102ed6040518060400160405280601881526020017f4261636f6e436f696e20476f7665726e6f7220416c706861000000000000000081525081565b60405161027c9190612931565b34801561030657600080fd5b5060015461031a906001600160a01b031681565b6040516001600160a01b03909116815260200161027c565b34801561033e57600080fd5b5061035261034d366004612952565b6106e1565b005b34801561036057600080fd5b5061029661036f36600461299e565b60056020526000908152604090205481565b34801561038d57600080fd5b5061035261039c36600461299e565b6106f0565b3480156103ad57600080fd5b506102967f8cad95687ba82c2ce50e74f7b754645e5117c3a5bec8151c0726d5857980a86681565b3480156103e157600080fd5b506103526103f03660046129b9565b610791565b34801561040157600080fd5b506102966108ad565b34801561041657600080fd5b5061042a6104253660046128c0565b610949565b60405161027c9493929190612aac565b34801561044657600080fd5b50610d05610296565b34801561045b57600080fd5b5061046f61046a3660046128c0565b610bda565b60405161027c9190612b1a565b34801561048857600080fd5b506103526104973660046128c0565b610db7565b3480156104a857600080fd5b5060025461031a906001600160a01b031681565b3480156104c857600080fd5b506103526104d7366004612b42565b611135565b3480156104e857600080fd5b50610352611355565b3480156104fd57600080fd5b50600a610296565b34801561051157600080fd5b506103526105203660046129b9565b6113e1565b34801561053157600080fd5b506102966114f4565b34801561054657600080fd5b5061035261158a565b34801561055b57600080fd5b5060005461031a906001600160a01b031681565b34801561057b57600080fd5b5061029660035481565b34801561059157600080fd5b506102966105a0366004612e68565b6115fe565b3480156105b157600080fd5b506103526105c03660046128c0565b611b8b565b3480156105d157600080fd5b506102967f8e25870c07e0b0b3884c78da52790939a455c275406c44ae8b434b692fb916ee81565b34801561060557600080fd5b5061069a610614366004612f3a565b60408051606081018252600080825260208201819052918101919091525060009182526004602090815260408084206001600160a01b03939093168452600c9092018152918190208151606081018352905460ff80821615158352610100820416151593820193909352620100009092046bffffffffffffffffffffffff169082015290565b60408051825115158152602080840151151590820152918101516bffffffffffffffffffffffff169082015260600161027c565b6103526106dc3660046128c0565b611e90565b6106ec3383836120f2565b5050565b6002546001600160a01b031633146107625760405162461bcd60e51b815260206004820152602a60248201527f476f7665726e6f72416c7068613a2073656e646572206d75737420626520676f6044820152693b1033bab0b93234b0b760b11b60648201526084015b60405180910390fd5b6002805473ffffffffffffffffffffffffffffffffffffffff19166001600160a01b0392909216919091179055565b6002546001600160a01b031633146107fe5760405162461bcd60e51b815260206004820152602a60248201527f476f7665726e6f72416c7068613a2073656e646572206d75737420626520676f6044820152693b1033bab0b93234b0b760b11b6064820152608401610759565b60008054604080516001600160a01b03868116602083015290921692630825f38f92849201604051602081830303815290604052856040518563ffffffff1660e01b81526004016108529493929190612f66565b600060405180830381600087803b15801561086c57600080fd5b505af1158015610880573d6000803e3d6000fd5b505050506040513d6000823e601f3d908101601f191682016040526108a89190810190612fd3565b505050565b600080600160009054906101000a90046001600160a01b03166001600160a01b03166318160ddd6040518163ffffffff1660e01b815260040160206040518083038186803b1580156108fe57600080fd5b505afa158015610912573d6000803e3d6000fd5b505050506040513d601f19601f82011682018060405250810190610936919061304a565b90506109438160046123c4565b91505090565b606080606080600060046000878152602001908152602001600020905080600301816004018260050183600601838054806020026020016040519081016040528092919081815260200182805480156109cb57602002820191906000526020600020905b81546001600160a01b031681526001909101906020018083116109ad575b5050505050935082805480602002602001604051908101604052809291908181526020018280548015610a1d57602002820191906000526020600020905b815481526020019060010190808311610a09575b5050505050925081805480602002602001604051908101604052809291908181526020016000905b82821015610af1578382906000526020600020018054610a6490613063565b80601f0160208091040260200160405190810160405280929190818152602001828054610a9090613063565b8015610add5780601f10610ab257610100808354040283529160200191610add565b820191906000526020600020905b815481529060010190602001808311610ac057829003601f168201915b505050505081526020019060010190610a45565b50505050915080805480602002602001604051908101604052809291908181526020016000905b82821015610bc4578382906000526020600020018054610b3790613063565b80601f0160208091040260200160405190810160405280929190818152602001828054610b6390613063565b8015610bb05780601f10610b8557610100808354040283529160200191610bb0565b820191906000526020600020905b815481529060010190602001808311610b9357829003601f168201915b505050505081526020019060010190610b18565b5050505090509450945094509450509193509193565b60008160035410158015610bee5750600082115b610c605760405162461bcd60e51b815260206004820152602260248201527f476f7665726e6f72416c7068613a20696e76616c69642070726f706f73616c2060448201527f69640000000000000000000000000000000000000000000000000000000000006064820152608401610759565b6000828152600460205260409020600b81015460ff1615610c845750600292915050565b80600701544311610c985750600092915050565b80600801544311610cac5750600192915050565b80600a01548160090154111580610ccd5750610cc66108ad565b8160090154105b15610cdb5750600392915050565b6002810154610ced5750600492915050565b600b810154610100900460ff1615610d085750600792915050565b610d99816002015460008054906101000a90046001600160a01b03166001600160a01b031663c1a287e26040518163ffffffff1660e01b815260040160206040518083038186803b158015610d5c57600080fd5b505afa158015610d70573d6000803e3d6000fd5b505050506040513d601f19601f82011682018060405250810190610d94919061304a565b6123d7565b4210610da85750600692915050565b50600592915050565b50919050565b6000610dc282610bda565b90506001816007811115610dd857610dd8612b04565b1480610df557506000816007811115610df357610df3612b04565b145b610e675760405162461bcd60e51b815260206004820152603960248201527f476f7665726e6f72416c7068613a2063616e206f6e6c792063616e63656c204160448201527f6374697665206f722050656e64696e672050726f706f73616c000000000000006064820152608401610759565b60008281526004602052604090206002546001600160a01b0316331480610f5e5750610e916114f4565b60018054838201546001600160a01b039182169263782d6fe19290911690610eba904390612436565b6040517fffffffff0000000000000000000000000000000000000000000000000000000060e085901b1681526001600160a01b039092166004830152602482015260440160206040518083038186803b158015610f1657600080fd5b505afa158015610f2a573d6000803e3d6000fd5b505050506040513d601f19601f82011682018060405250810190610f4e9190613098565b6bffffffffffffffffffffffff16105b610fd05760405162461bcd60e51b815260206004820152602760248201527f476f7665726e6f72416c7068613a2070726f706f7365722061626f766520746860448201527f726573686f6c64000000000000000000000000000000000000000000000000006064820152608401610759565b600b8101805460ff1916600117905560005b60038201548110156110fb576000546003830180546001600160a01b039092169163591fcdfe91908490811061101a5761101a6130c6565b6000918252602090912001546004850180546001600160a01b039092169185908110611048576110486130c6565b9060005260206000200154856005018581548110611068576110686130c6565b90600052602060002001866006018681548110611087576110876130c6565b9060005260206000200187600201546040518663ffffffff1660e01b81526004016110b695949392919061317d565b600060405180830381600087803b1580156110d057600080fd5b505af11580156110e4573d6000803e3d6000fd5b5050505080806110f3906131e0565b915050610fe2565b506040518381527f789cf55be980739dad1d0699b93b58e806b51c9d96619bfa8fe0a28abaa7b30c906020015b60405180910390a1505050565b604080518082018252601881527f4261636f6e436f696e20476f7665726e6f7220416c706861000000000000000060209182015281517f8cad95687ba82c2ce50e74f7b754645e5117c3a5bec8151c0726d5857980a866818301527f56114e6138f3111804f1677026e696a10074aa89c78127c6acf25dd96233e52181840152466060820152306080808301919091528351808303909101815260a0820184528051908301207f8e25870c07e0b0b3884c78da52790939a455c275406c44ae8b434b692fb916ee60c083015260e0820189905287151561010080840191909152845180840390910181526101208301909452835193909201929092207f19010000000000000000000000000000000000000000000000000000000000006101408401526101428301829052610162830181905290916000906101820160408051601f198184030181528282528051602091820120600080855291840180845281905260ff8a169284019290925260608301889052608083018790529092509060019060a0016020604051602081039080840390855afa1580156112dc573d6000803e3d6000fd5b5050604051601f1901519150506001600160a01b03811661133f5760405162461bcd60e51b815260206004820181905260248201527f476f7665726e6f72416c7068613a20696e76616c6964207369676e61747572656044820152606401610759565b61134a818a8a6120f2565b505050505050505050565b6002546001600160a01b031633146113c25760405162461bcd60e51b815260206004820152602a60248201527f476f7665726e6f72416c7068613a2073656e646572206d75737420626520676f6044820152693b1033bab0b93234b0b760b11b6064820152608401610759565b6002805473ffffffffffffffffffffffffffffffffffffffff19169055565b6002546001600160a01b0316331461144e5760405162461bcd60e51b815260206004820152602a60248201527f476f7665726e6f72416c7068613a2073656e646572206d75737420626520676f6044820152693b1033bab0b93234b0b760b11b6064820152608401610759565b60008054604080516001600160a01b03868116602083015290921692633a66f90192849201604051602081830303815290604052856040518563ffffffff1660e01b81526004016114a29493929190612f66565b602060405180830381600087803b1580156114bc57600080fd5b505af11580156114d0573d6000803e3d6000fd5b505050506040513d601f19601f820116820180604052508101906108a8919061304a565b600080600160009054906101000a90046001600160a01b03166001600160a01b03166318160ddd6040518163ffffffff1660e01b815260040160206040518083038186803b15801561154557600080fd5b505afa158015611559573d6000803e3d6000fd5b505050506040513d601f19601f8201168201806040525081019061157d919061304a565b90506109438160c86123c4565b60008054604080517f0e18b68100000000000000000000000000000000000000000000000000000000815290516001600160a01b0390921692630e18b6819260048084019382900301818387803b1580156115e457600080fd5b505af11580156115f8573d6000803e3d6000fd5b50505050565b60006116086114f4565b600180546001600160a01b03169063782d6fe1903390611629904390612436565b6040517fffffffff0000000000000000000000000000000000000000000000000000000060e085901b1681526001600160a01b039092166004830152602482015260440160206040518083038186803b15801561168557600080fd5b505afa158015611699573d6000803e3d6000fd5b505050506040513d601f19601f820116820180604052508101906116bd9190613098565b6bffffffffffffffffffffffff161161173e5760405162461bcd60e51b815260206004820152603660248201527f476f7665726e6f72416c7068613a2070726f706f73657220766f74657320626560448201527f6c6f772070726f706f73616c207468726573686f6c64000000000000000000006064820152608401610759565b84518651148015611750575083518651145b801561175d575082518651145b6117cf5760405162461bcd60e51b815260206004820152603b60248201527f476f7665726e6f72416c7068613a2070726f706f73616c2066756e6374696f6e60448201527f20696e666f726d6174696f6e206172697479206d69736d6174636800000000006064820152608401610759565b85516118435760405162461bcd60e51b815260206004820152602360248201527f476f7665726e6f72416c7068613a206d7573742070726f76696465206163746960448201527f6f6e7300000000000000000000000000000000000000000000000000000000006064820152608401610759565b600a865111156118955760405162461bcd60e51b815260206004820152601f60248201527f476f7665726e6f72416c7068613a20746f6f206d616e7920616374696f6e73006044820152606401610759565b336000908152600560205260409020548015611a165760006118b682610bda565b905060018160078111156118cc576118cc612b04565b14156119665760405162461bcd60e51b815260206004820152604f60248201527f476f7665726e6f72416c7068613a206f6e65206c6976652070726f706f73616c60448201527f207065722070726f706f7365722c20666f756e6420616e20616c72656164792060648201527f6163746976652070726f706f73616c0000000000000000000000000000000000608482015260a401610759565b600081600781111561197a5761197a612b04565b1415611a145760405162461bcd60e51b815260206004820152605060248201527f476f7665726e6f72416c7068613a206f6e65206c6976652070726f706f73616c60448201527f207065722070726f706f7365722c20666f756e6420616e20616c72656164792060648201527f70656e64696e672070726f706f73616c00000000000000000000000000000000608482015260a401610759565b505b6000611a2443610d056123d7565b90506000611a34826127106123d7565b600380549192506000611a46836131e0565b909155505060038054600081815260046020908152604090912091825560018201805473ffffffffffffffffffffffffffffffffffffffff1916331790558b519192611a9892908401918d0190612662565b508851611aae90600483019060208c01906126d4565b508751611ac490600583019060208b019061270f565b508651611ada90600683019060208a0190612768565b508281600701819055508181600801819055508060000154600560008360010160009054906101000a90046001600160a01b03166001600160a01b03166001600160a01b03168152602001908152602001600020819055507f7d84a6263ae0d98d3329bd7b46bb4e8d6f98cd35a7adb45c274c8b7fd5ebd5e08160000154338c8c8c8c89898e604051611b7599989796959493929190613219565b60405180910390a1549998505050505050505050565b6004611b9682610bda565b6007811115611ba757611ba7612b04565b14611c1a5760405162461bcd60e51b815260206004820152603d60248201527f476f7665726e6f72416c7068613a2070726f706f73616c2063616e206f6e6c7960448201527f20626520717565756564206966206974206973207375636365656465640000006064820152608401610759565b6000818152600460208181526040808420845482517f6a42b8f80000000000000000000000000000000000000000000000000000000081529251919594611c889442946001600160a01b0390931693636a42b8f8938084019390829003018186803b158015610d5c57600080fd5b905060005b6003830154811015611e5257611e40836003018281548110611cb157611cb16130c6565b6000918252602090912001546004850180546001600160a01b039092169184908110611cdf57611cdf6130c6565b9060005260206000200154856005018481548110611cff57611cff6130c6565b906000526020600020018054611d1490613063565b80601f0160208091040260200160405190810160405280929190818152602001828054611d4090613063565b8015611d8d5780601f10611d6257610100808354040283529160200191611d8d565b820191906000526020600020905b815481529060010190602001808311611d7057829003601f168201915b5050505050866006018581548110611da757611da76130c6565b906000526020600020018054611dbc90613063565b80601f0160208091040260200160405190810160405280929190818152602001828054611de890613063565b8015611e355780601f10611e0a57610100808354040283529160200191611e35565b820191906000526020600020905b815481529060010190602001808311611e1857829003601f168201915b505050505086612492565b80611e4a816131e0565b915050611c8d565b506002820181905560408051848152602081018390527f9a2e42fd6722813d69113e7d0079d3d940171428df7373df9c7f7617cfda28929101611128565b6005611e9b82610bda565b6007811115611eac57611eac612b04565b14611f1f5760405162461bcd60e51b815260206004820152603c60248201527f476f7665726e6f72416c7068613a2070726f706f73616c2063616e206f6e6c7960448201527f20626520657865637574656420696620697420697320717565756564000000006064820152608401610759565b6000818152600460205260408120600b810180547fffffffffffffffffffffffffffffffffffffffffffffffffffffffffffff00ff16610100179055905b60038201548110156120ba576000546004830180546001600160a01b0390921691630825f38f919084908110611f9557611f956130c6565b9060005260206000200154846003018481548110611fb557611fb56130c6565b6000918252602090912001546004860180546001600160a01b039092169186908110611fe357611fe36130c6565b9060005260206000200154866005018681548110612003576120036130c6565b90600052602060002001876006018781548110612022576120226130c6565b9060005260206000200188600201546040518763ffffffff1660e01b815260040161205195949392919061317d565b6000604051808303818588803b15801561206a57600080fd5b505af115801561207e573d6000803e3d6000fd5b50505050506040513d6000823e601f3d908101601f191682016040526120a79190810190612fd3565b50806120b2816131e0565b915050611f5d565b506040518281527f712ae1383f79ac853f8d882153778e0260ef8f03b504e2866e0593e04d2b291f9060200160405180910390a15050565b60016120fd83610bda565b600781111561210e5761210e612b04565b1461215b5760405162461bcd60e51b815260206004820152601f60248201527f476f7665726e6f72416c7068613a20766f74696e6720697320636c6f736564006044820152606401610759565b60008281526004602090815260408083206001600160a01b0387168452600c8101909252909120805460ff16156121fa5760405162461bcd60e51b815260206004820152602260248201527f476f7665726e6f72416c7068613a20766f74657220616c726561647920766f7460448201527f65640000000000000000000000000000000000000000000000000000000000006064820152608401610759565b60015460078301546040517f782d6fe10000000000000000000000000000000000000000000000000000000081526000926001600160a01b03169163782d6fe19161225d918a916004016001600160a01b03929092168252602082015260400190565b60206040518083038186803b15801561227557600080fd5b505afa158015612289573d6000803e3d6000fd5b505050506040513d601f19601f820116820180604052508101906122ad9190613098565b905083156122db576122d18360090154826bffffffffffffffffffffffff166123d7565b60098401556122fd565b6122f783600a0154826bffffffffffffffffffffffff166123d7565b600a8401555b81546bffffffffffffffffffffffff82166201000081027fffffffffffffffffffffffffffffffffffff000000000000000000000000ffff87151561010081027fffffffffffffffffffffffffffffffffffffffffffffffffffffffffffff00009095169490941760011716178455604080516001600160a01b038a168152602081018990529081019290925260608201527f877856338e13f63d0c36822ff0ef736b80934cd90574a3a5bc9262c39d217c469060800160405180910390a1505050505050565b60006123d082846132af565b9392505050565b6000806123e483856132d1565b9050838110156123d05760405162461bcd60e51b815260206004820152601160248201527f6164646974696f6e206f766572666c6f770000000000000000000000000000006044820152606401610759565b6000828211156124885760405162461bcd60e51b815260206004820152601560248201527f7375627472616374696f6e20756e646572666c6f7700000000000000000000006044820152606401610759565b6123d082846132e9565b6000546040516001600160a01b039091169063f2b06537906124c09088908890889088908890602001613300565b604051602081830303815290604052805190602001206040518263ffffffff1660e01b81526004016124f491815260200190565b60206040518083038186803b15801561250c57600080fd5b505afa158015612520573d6000803e3d6000fd5b505050506040513d601f19601f82011682018060405250810190612544919061333a565b156125b75760405162461bcd60e51b815260206004820152603460248201527f476f7665726e6f72416c7068613a2070726f706f73616c20616374696f6e206160448201527f6c726561647920717565756564206174206574610000000000000000000000006064820152608401610759565b6000546040517f3a66f9010000000000000000000000000000000000000000000000000000000081526001600160a01b0390911690633a66f901906126089088908890889088908890600401613300565b602060405180830381600087803b15801561262257600080fd5b505af1158015612636573d6000803e3d6000fd5b505050506040513d601f19601f8201168201806040525081019061265a919061304a565b505050505050565b8280548282559060005260206000209081019282156126c4579160200282015b828111156126c4578251825473ffffffffffffffffffffffffffffffffffffffff19166001600160a01b03909116178255602090920191600190910190612682565b506126d09291506127c1565b5090565b8280548282559060005260206000209081019282156126c4579160200282015b828111156126c45782518255916020019190600101906126f4565b82805482825590600052602060002090810192821561275c579160200282015b8281111561275c578251805161274c9184916020909101906127d6565b509160200191906001019061272f565b506126d0929150612849565b8280548282559060005260206000209081019282156127b5579160200282015b828111156127b557825180516127a59184916020909101906127d6565b5091602001919060010190612788565b506126d0929150612866565b5b808211156126d057600081556001016127c2565b8280546127e290613063565b90600052602060002090601f01602090048101928261280457600085556126c4565b82601f1061281d57805160ff19168380011785556126c4565b828001600101855582156126c457918201828111156126c45782518255916020019190600101906126f4565b808211156126d057600061285d8282612883565b50600101612849565b808211156126d057600061287a8282612883565b50600101612866565b50805461288f90613063565b6000825580601f1061289f575050565b601f0160209004906000526020600020908101906128bd91906127c1565b50565b6000602082840312156128d257600080fd5b5035919050565b60005b838110156128f45781810151838201526020016128dc565b838111156115f85750506000910152565b6000815180845261291d8160208601602086016128d9565b601f01601f19169290920160200192915050565b6020815260006123d06020830184612905565b80151581146128bd57600080fd5b6000806040838503121561296557600080fd5b82359150602083013561297781612944565b809150509250929050565b80356001600160a01b038116811461299957600080fd5b919050565b6000602082840312156129b057600080fd5b6123d082612982565b600080604083850312156129cc57600080fd5b6129d583612982565b946020939093013593505050565b600081518084526020808501945080840160005b83811015612a1c5781516001600160a01b0316875295820195908201906001016129f7565b509495945050505050565b600081518084526020808501945080840160005b83811015612a1c57815187529582019590820190600101612a3b565b600081518084526020808501808196508360051b8101915082860160005b85811015612a9f578284038952612a8d848351612905565b98850198935090840190600101612a75565b5091979650505050505050565b608081526000612abf60808301876129e3565b8281036020840152612ad18187612a27565b90508281036040840152612ae58186612a57565b90508281036060840152612af98185612a57565b979650505050505050565b634e487b7160e01b600052602160045260246000fd5b6020810160088310612b3c57634e487b7160e01b600052602160045260246000fd5b91905290565b600080600080600060a08688031215612b5a57600080fd5b853594506020860135612b6c81612944565b9350604086013560ff81168114612b8257600080fd5b94979396509394606081013594506080013592915050565b634e487b7160e01b600052604160045260246000fd5b604051601f8201601f1916810167ffffffffffffffff81118282101715612bd957612bd9612b9a565b604052919050565b600067ffffffffffffffff821115612bfb57612bfb612b9a565b5060051b60200190565b600082601f830112612c1657600080fd5b81356020612c2b612c2683612be1565b612bb0565b82815260059290921b84018101918181019086841115612c4a57600080fd5b8286015b84811015612c6c57612c5f81612982565b8352918301918301612c4e565b509695505050505050565b600082601f830112612c8857600080fd5b81356020612c98612c2683612be1565b82815260059290921b84018101918181019086841115612cb757600080fd5b8286015b84811015612c6c5780358352918301918301612cbb565b600067ffffffffffffffff821115612cec57612cec612b9a565b50601f01601f191660200190565b6000612d08612c2684612cd2565b9050828152838383011115612d1c57600080fd5b828260208301376000602084830101529392505050565b600082601f830112612d4457600080fd5b6123d083833560208501612cfa565b600082601f830112612d6457600080fd5b81356020612d74612c2683612be1565b82815260059290921b84018101918181019086841115612d9357600080fd5b8286015b84811015612c6c57803567ffffffffffffffff811115612db75760008081fd5b612dc58986838b0101612d33565b845250918301918301612d97565b600082601f830112612de457600080fd5b81356020612df4612c2683612be1565b82815260059290921b84018101918181019086841115612e1357600080fd5b8286015b84811015612c6c57803567ffffffffffffffff811115612e375760008081fd5b8701603f81018913612e495760008081fd5b612e5a898683013560408401612cfa565b845250918301918301612e17565b600080600080600060a08688031215612e8057600080fd5b853567ffffffffffffffff80821115612e9857600080fd5b612ea489838a01612c05565b96506020880135915080821115612eba57600080fd5b612ec689838a01612c77565b95506040880135915080821115612edc57600080fd5b612ee889838a01612d53565b94506060880135915080821115612efe57600080fd5b612f0a89838a01612dd3565b93506080880135915080821115612f2057600080fd5b50612f2d88828901612d33565b9150509295509295909350565b60008060408385031215612f4d57600080fd5b82359150612f5d60208401612982565b90509250929050565b6001600160a01b038516815283602082015260a06040820152601860a08201527f73657450656e64696e6741646d696e286164647265737329000000000000000060c082015260e060608201526000612fc260e0830185612905565b905082608083015295945050505050565b600060208284031215612fe557600080fd5b815167ffffffffffffffff811115612ffc57600080fd5b8201601f8101841361300d57600080fd5b805161301b612c2682612cd2565b81815285602083850101111561303057600080fd5b6130418260208301602086016128d9565b95945050505050565b60006020828403121561305c57600080fd5b5051919050565b600181811c9082168061307757607f821691505b60208210811415610db157634e487b7160e01b600052602260045260246000fd5b6000602082840312156130aa57600080fd5b81516bffffffffffffffffffffffff811681146123d057600080fd5b634e487b7160e01b600052603260045260246000fd5b8054600090600181811c90808316806130f657607f831692505b602080841082141561311857634e487b7160e01b600052602260045260246000fd5b83885281801561312f576001811461314357613171565b60ff198616828a0152604089019650613171565b876000528160002060005b868110156131695781548b820185015290850190830161314e565b8a0183019750505b50505050505092915050565b6001600160a01b038616815284602082015260a0604082015260006131a560a08301866130dc565b82810360608401526131b781866130dc565b9150508260808301529695505050505050565b634e487b7160e01b600052601160045260246000fd5b60007fffffffffffffffffffffffffffffffffffffffffffffffffffffffffffffffff821415613212576132126131ca565b5060010190565b60006101208b83526001600160a01b038b1660208401528060408401526132428184018b6129e3565b90508281036060840152613256818a612a27565b9050828103608084015261326a8189612a57565b905082810360a084015261327e8188612a57565b90508560c08401528460e084015282810361010084015261329f8185612905565b9c9b505050505050505050505050565b6000826132cc57634e487b7160e01b600052601260045260246000fd5b500490565b600082198211156132e4576132e46131ca565b500190565b6000828210156132fb576132fb6131ca565b500390565b6001600160a01b038616815284602082015260a06040820152600061332860a0830186612905565b82810360608401526131b78186612905565b60006020828403121561334c57600080fd5b81516123d08161294456fea264697066735822122039316efb7997b0dc69d82e767b3b5f13956e13c820e936fc660680e7b0022e0264736f6c63430008090033",
  "immutableReferences": {},
  "source": "// SPDX-License-Identifier: GPL-3.0-or-later\n\npragma solidity ^0.8.4;\n\nimport './../BaconCoin/BaconCoin0.sol';\nimport '../@openzeppelin/contracts/utils/math/SafeMath.sol';\n\n\n// Forked from Compound\n// See https://github.com/compound-finance/compound-protocol/blob/master/contracts/Governance/GovernorAlpha.sol\ncontract GovernorAlpha {\n    using SafeMath for uint256;\n\n    /// @notice The name of this contract\n    // solhint-disable-next-line const-name-snakecase\n    string public constant name = \"BaconCoin Governor Alpha\";\n\n    /// @notice The number of votes in support of a proposal required in order for a quorum to be reached and for a vote to succeed\n    function quorumVotes() public view returns (uint) { \n        uint256 baconTotalSupply = baconCoin.totalSupply();\n        return baconTotalSupply.div(4); \n    } //= 25% of Bacon\n\n    /// @notice The number of votes required in order for a voter to become a proposer\n    function proposalThreshold() public view returns (uint) { \n        uint256 baconTotalSupply = baconCoin.totalSupply();\n        return baconTotalSupply.div(200); \n    } // = .5% of Bacon\n\n    /// @notice The maximum number of actions that can be included in a proposal\n    function proposalMaxOperations() public pure returns (uint) { return 10; } // 10 actions\n\n    /// @notice The delay before voting on a proposal may take place, once proposed\n    function votingDelay() public pure returns (uint) { return 3333; } // ~0.5 days in blocks (assuming 13s blocks)\n\n    /// @notice The duration of voting on a proposal, in blocks\n    function votingPeriod() public pure returns (uint) { return 10000; } // ~1.5 days in blocks (assuming 13s blocks)\n\n    /// @notice The address of the Bacon Protocol Timelock\n    TimelockInterface public timelock;\n\n    /// @notice The address of the baconCoin governance token\n    BaconCoinInterface public baconCoin;\n\n    /// @notice The address of the Governor Guardian\n    address public guardian;\n\n    /// @notice The total number of proposals\n    uint public proposalCount;\n\n    struct Proposal {\n        /// @notice Unique id for looking up a proposal\n        uint id;\n\n        /// @notice Creator of the proposal\n        address proposer;\n\n        /// @notice The timestamp that the proposal will be available for execution, set once the vote succeeds\n        uint eta;\n\n        /// @notice the ordered list of target addresses for calls to be made\n        address[] targets;\n\n        /// @notice The ordered list of values (i.e. msg.value) to be passed to the calls to be made\n        uint[] values;\n\n        /// @notice The ordered list of function signatures to be called\n        string[] signatures;\n\n        /// @notice The ordered list of calldata to be passed to each call\n        bytes[] calldatas;\n\n        /// @notice The block at which voting begins: holders must delegate their votes prior to this block\n        uint startBlock;\n\n        /// @notice The block at which voting ends: votes must be cast prior to this block\n        uint endBlock;\n\n        /// @notice Current number of votes in favor of this proposal\n        uint forVotes;\n\n        /// @notice Current number of votes in opposition to this proposal\n        uint againstVotes;\n\n        /// @notice Flag marking whether the proposal has been canceled\n        bool canceled;\n\n        /// @notice Flag marking whether the proposal has been executed\n        bool executed;\n\n        /// @notice Receipts of ballots for the entire set of voters\n        mapping (address => Receipt) receipts;\n    }\n\n    /// @notice Ballot receipt record for a voter\n    struct Receipt {\n        /// @notice Whether or not a vote has been cast\n        bool hasVoted;\n\n        /// @notice Whether or not the voter supports the proposal\n        bool support;\n\n        /// @notice The number of votes the voter had, which were cast\n        uint96 votes;\n    }\n\n    /// @notice Possible states that a proposal may be in\n    enum ProposalState {\n        Pending,\n        Active,\n        Canceled,\n        Defeated,\n        Succeeded,\n        Queued,\n        Expired,\n        Executed\n    }\n\n    /// @notice The official record of all proposals ever proposed\n    mapping (uint => Proposal) public proposals;\n\n    /// @notice The latest proposal for each proposer\n    mapping (address => uint) public latestProposalIds;\n\n    /// @notice The EIP-712 typehash for the contract's domain\n    bytes32 public constant DOMAIN_TYPEHASH = keccak256(\"EIP712Domain(string name,uint256 chainId,address verifyingContract)\");\n\n    /// @notice The EIP-712 typehash for the ballot struct used by the contract\n    bytes32 public constant BALLOT_TYPEHASH = keccak256(\"Ballot(uint256 proposalId,bool support)\");\n\n    /// @notice An event emitted when a new proposal is created\n    event ProposalCreated(uint id, address proposer, address[] targets, uint[] values, string[] signatures, bytes[] calldatas, uint startBlock, uint endBlock, string description);\n\n    /// @notice An event emitted when a vote has been cast on a proposal\n    event VoteCast(address voter, uint proposalId, bool support, uint votes);\n\n    /// @notice An event emitted when a proposal has been canceled\n    event ProposalCanceled(uint id);\n\n    /// @notice An event emitted when a proposal has been queued in the Timelock\n    event ProposalQueued(uint id, uint eta);\n\n    /// @notice An event emitted when a proposal has been executed in the Timelock\n    event ProposalExecuted(uint id);\n\n    constructor(address timelock_, address baconCoin_, address guardian_) {\n        timelock = TimelockInterface(timelock_);\n        baconCoin = BaconCoinInterface(baconCoin_);\n        guardian = guardian_;\n    }\n\n    function propose(address[] memory targets, uint[] memory values, string[] memory signatures, bytes[] memory calldatas, string memory description) public returns (uint) {\n        require(baconCoin.getPriorVotes(msg.sender, sub256(block.number, 1)) > proposalThreshold(), \"GovernorAlpha: proposer votes below proposal threshold\");\n        require(targets.length == values.length && targets.length == signatures.length && targets.length == calldatas.length, \"GovernorAlpha: proposal function information arity mismatch\");\n        require(targets.length != 0, \"GovernorAlpha: must provide actions\");\n        require(targets.length <= proposalMaxOperations(), \"GovernorAlpha: too many actions\");\n\n        uint latestProposalId = latestProposalIds[msg.sender];\n        if (latestProposalId != 0) {\n          ProposalState proposersLatestProposalState = state(latestProposalId);\n          require(proposersLatestProposalState != ProposalState.Active, \"GovernorAlpha: one live proposal per proposer, found an already active proposal\");\n          require(proposersLatestProposalState != ProposalState.Pending, \"GovernorAlpha: one live proposal per proposer, found an already pending proposal\");\n        }\n\n        uint startBlock = add256(block.number, votingDelay());\n        uint endBlock = add256(startBlock, votingPeriod());\n\n        proposalCount++;\n\n        Proposal storage newProposal = proposals[proposalCount];\n        \n        newProposal.id = proposalCount;\n        newProposal.proposer = msg.sender;\n        newProposal.targets = targets;\n        newProposal.values = values;\n        newProposal.signatures = signatures;\n        newProposal.calldatas = calldatas;\n        newProposal.startBlock = startBlock;\n        newProposal.endBlock = endBlock;\n\n        latestProposalIds[newProposal.proposer] = newProposal.id;\n\n        emit ProposalCreated(newProposal.id, msg.sender, targets, values, signatures, calldatas, startBlock, endBlock, description);\n        return newProposal.id;\n    }\n\n    function queue(uint proposalId) public {\n        require(state(proposalId) == ProposalState.Succeeded, \"GovernorAlpha: proposal can only be queued if it is succeeded\");\n        Proposal storage proposal = proposals[proposalId];\n        uint eta = add256(block.timestamp, timelock.delay());\n        for (uint i = 0; i < proposal.targets.length; i++) {\n            _queueOrRevert(proposal.targets[i], proposal.values[i], proposal.signatures[i], proposal.calldatas[i], eta);\n        }\n        proposal.eta = eta;\n        emit ProposalQueued(proposalId, eta);\n    }\n\n    function _queueOrRevert(address target, uint value, string memory signature, bytes memory data, uint eta) internal {\n        require(!timelock.queuedTransactions(keccak256(abi.encode(target, value, signature, data, eta))), \"GovernorAlpha: proposal action already queued at eta\");\n        timelock.queueTransaction(target, value, signature, data, eta);\n    }\n\n    function execute(uint proposalId) public payable {\n        require(state(proposalId) == ProposalState.Queued, \"GovernorAlpha: proposal can only be executed if it is queued\");\n        Proposal storage proposal = proposals[proposalId];\n        proposal.executed = true;\n        for (uint i = 0; i < proposal.targets.length; i++) {\n            timelock.executeTransaction{value : proposal.values[i]}(proposal.targets[i], proposal.values[i], proposal.signatures[i], proposal.calldatas[i], proposal.eta);\n        }\n        emit ProposalExecuted(proposalId);\n    }\n\n    function cancel(uint proposalId) public {\n        ProposalState proposalState = state(proposalId);\n        require(proposalState == ProposalState.Active || proposalState == ProposalState.Pending, \"GovernorAlpha: can only cancel Active or Pending Proposal\");\n\n        Proposal storage proposal = proposals[proposalId];\n        require(msg.sender == guardian || baconCoin.getPriorVotes(proposal.proposer, sub256(block.number, 1)) < proposalThreshold(), \"GovernorAlpha: proposer above threshold\");\n\n        proposal.canceled = true;\n        for (uint i = 0; i < proposal.targets.length; i++) {\n            timelock.cancelTransaction(proposal.targets[i], proposal.values[i], proposal.signatures[i], proposal.calldatas[i], proposal.eta);\n        }\n\n        emit ProposalCanceled(proposalId);\n    }\n\n    function getActions(uint proposalId) public view returns (address[] memory targets, uint[] memory values, string[] memory signatures, bytes[] memory calldatas) {\n        Proposal storage p = proposals[proposalId];\n        return (p.targets, p.values, p.signatures, p.calldatas);\n    }\n\n    function getReceipt(uint proposalId, address voter) public view returns (Receipt memory) {\n        return proposals[proposalId].receipts[voter];\n    }\n\n    function state(uint proposalId) public view returns (ProposalState) {\n        require(proposalCount >= proposalId && proposalId > 0, \"GovernorAlpha: invalid proposal id\");\n        Proposal storage proposal = proposals[proposalId];\n        if (proposal.canceled) {\n            return ProposalState.Canceled;\n        } else if (block.number <= proposal.startBlock) {\n            return ProposalState.Pending;\n        } else if (block.number <= proposal.endBlock) {\n            return ProposalState.Active;\n        } else if (proposal.forVotes <= proposal.againstVotes || proposal.forVotes < quorumVotes()) {\n            return ProposalState.Defeated;\n        } else if (proposal.eta == 0) {\n            return ProposalState.Succeeded;\n        } else if (proposal.executed) {\n            return ProposalState.Executed;\n        } else if (block.timestamp >= add256(proposal.eta, timelock.GRACE_PERIOD())) {\n            return ProposalState.Expired;\n        } else {\n            return ProposalState.Queued;\n        }\n    }\n\n    function castVote(uint proposalId, bool support) public {\n        return _castVote(msg.sender, proposalId, support);\n    }\n\n    function castVoteBySig(uint proposalId, bool support, uint8 v, bytes32 r, bytes32 s) public {\n        bytes32 domainSeparator = keccak256(abi.encode(DOMAIN_TYPEHASH, keccak256(bytes(name)), getChainId(), address(this)));\n        bytes32 structHash = keccak256(abi.encode(BALLOT_TYPEHASH, proposalId, support));\n        bytes32 digest = keccak256(abi.encodePacked(\"\\x19\\x01\", domainSeparator, structHash));\n        address signatory = ecrecover(digest, v, r, s);\n        require(signatory != address(0), \"GovernorAlpha: invalid signature\");\n        return _castVote(signatory, proposalId, support);\n    }\n\n    function _castVote(address voter, uint proposalId, bool support) internal {\n        require(state(proposalId) == ProposalState.Active, \"GovernorAlpha: voting is closed\");\n        Proposal storage proposal = proposals[proposalId];\n        Receipt storage receipt = proposal.receipts[voter];\n        require(receipt.hasVoted == false, \"GovernorAlpha: voter already voted\");\n        uint96 votes = baconCoin.getPriorVotes(voter, proposal.startBlock);\n\n        if (support) {\n            proposal.forVotes = add256(proposal.forVotes, votes);\n        } else {\n            proposal.againstVotes = add256(proposal.againstVotes, votes);\n        }\n\n        receipt.hasVoted = true;\n        receipt.support = support;\n        receipt.votes = votes;\n\n        emit VoteCast(voter, proposalId, support, votes);\n    }\n\n    function __acceptAdmin() public {\n        timelock.acceptAdmin();\n    }\n\n    function __abdicate() public {\n        require(msg.sender == guardian, \"GovernorAlpha: sender must be gov guardian\");\n        guardian = address(0);\n    }\n\n    function __transferGuardian(address newGuardian) public {\n        require(msg.sender == guardian, \"GovernorAlpha: sender must be gov guardian\");\n        guardian = newGuardian;\n    }\n\n    function __queueSetTimelockPendingAdmin(address newPendingAdmin, uint eta) public {\n        require(msg.sender == guardian, \"GovernorAlpha: sender must be gov guardian\");\n        timelock.queueTransaction(address(timelock), 0, \"setPendingAdmin(address)\", abi.encode(newPendingAdmin), eta);\n    }\n\n    function __executeSetTimelockPendingAdmin(address newPendingAdmin, uint eta) public {\n        require(msg.sender == guardian, \"GovernorAlpha: sender must be gov guardian\");\n        timelock.executeTransaction(address(timelock), 0, \"setPendingAdmin(address)\", abi.encode(newPendingAdmin), eta);\n    }\n\n    function add256(uint256 a, uint256 b) internal pure returns (uint) {\n        uint c = a + b;\n        require(c >= a, \"addition overflow\");\n        return c;\n    }\n\n    function sub256(uint256 a, uint256 b) internal pure returns (uint) {\n        require(b <= a, \"subtraction underflow\");\n        return a - b;\n    }\n\n    function getChainId() internal view returns (uint) {\n        uint chainId;\n        // solhint-disable-next-line no-inline-assembly\n        assembly { chainId := chainid() }\n        return chainId;\n    }\n}\n\ninterface TimelockInterface {\n    function delay() external view returns (uint);\n    // solhint-disable-next-line func-name-mixedcase\n    function GRACE_PERIOD() external view returns (uint);\n    function acceptAdmin() external;\n    function queuedTransactions(bytes32 hash) external view returns (bool);\n    function queueTransaction(address target, uint value, string calldata signature, bytes calldata data, uint eta) external returns (bytes32);\n    function cancelTransaction(address target, uint value, string calldata signature, bytes calldata data, uint eta) external;\n    function executeTransaction(address target, uint value, string calldata signature, bytes calldata data, uint eta) external payable returns (bytes memory);\n}\n\ninterface BaconCoinInterface {\n    function getPriorVotes(address account, uint blockNumber) external view returns (uint96);\n    function totalSupply() external view returns (uint256);\n}",
  "sourcePath": "/Users/patrick/github/HomeDAO/contracts/Governance/GovernorAlpha.sol",
  "compiler": {
    "name": "solc",
    "version": "0.8.9+commit.e5eed63a.Emscripten.clang"
  },
  "schemaVersion": "3.4.8",
  "updatedAt": "2022-08-10T01:41:49.854Z",
  "devdoc": {
    "kind": "dev",
    "methods": {},
    "version": 1
  },
  "userdoc": {
    "events": {
      "ProposalCanceled(uint256)": {
        "notice": "An event emitted when a proposal has been canceled"
      },
      "ProposalCreated(uint256,address,address[],uint256[],string[],bytes[],uint256,uint256,string)": {
        "notice": "An event emitted when a new proposal is created"
      },
      "ProposalExecuted(uint256)": {
        "notice": "An event emitted when a proposal has been executed in the Timelock"
      },
      "ProposalQueued(uint256,uint256)": {
        "notice": "An event emitted when a proposal has been queued in the Timelock"
      },
      "VoteCast(address,uint256,bool,uint256)": {
        "notice": "An event emitted when a vote has been cast on a proposal"
      }
    },
    "kind": "user",
    "methods": {
      "BALLOT_TYPEHASH()": {
        "notice": "The EIP-712 typehash for the ballot struct used by the contract"
      },
      "DOMAIN_TYPEHASH()": {
        "notice": "The EIP-712 typehash for the contract's domain"
      },
      "baconCoin()": {
        "notice": "The address of the baconCoin governance token"
      },
      "guardian()": {
        "notice": "The address of the Governor Guardian"
      },
      "latestProposalIds(address)": {
        "notice": "The latest proposal for each proposer"
      },
      "name()": {
        "notice": "The name of this contract"
      },
      "proposalCount()": {
        "notice": "The total number of proposals"
      },
      "proposalMaxOperations()": {
        "notice": "The maximum number of actions that can be included in a proposal"
      },
      "proposalThreshold()": {
        "notice": "The number of votes required in order for a voter to become a proposer"
      },
      "proposals(uint256)": {
        "notice": "The official record of all proposals ever proposed"
      },
      "quorumVotes()": {
        "notice": "The number of votes in support of a proposal required in order for a quorum to be reached and for a vote to succeed"
      },
      "timelock()": {
        "notice": "The address of the Bacon Protocol Timelock"
      },
      "votingDelay()": {
        "notice": "The delay before voting on a proposal may take place, once proposed"
      },
      "votingPeriod()": {
        "notice": "The duration of voting on a proposal, in blocks"
      }
    },
    "version": 1
  }
}