{
  "contractName": "HomeBoost3",
  "abi": [
    {
      "anonymous": false,
      "inputs": [
        {
          "indexed": true,
          "internalType": "address",
          "name": "owner",
          "type": "address"
        },
        {
          "indexed": true,
          "internalType": "address",
          "name": "approved",
          "type": "address"
        },
        {
          "indexed": true,
          "internalType": "uint256",
          "name": "tokenId",
          "type": "uint256"
        }
      ],
      "name": "Approval",
      "type": "event"
    },
    {
      "anonymous": false,
      "inputs": [
        {
          "indexed": true,
          "internalType": "address",
          "name": "owner",
          "type": "address"
        },
        {
          "indexed": true,
          "internalType": "address",
          "name": "operator",
          "type": "address"
        },
        {
          "indexed": false,
          "internalType": "bool",
          "name": "approved",
          "type": "bool"
        }
      ],
      "name": "ApprovalForAll",
      "type": "event"
    },
    {
      "anonymous": false,
      "inputs": [
        {
          "indexed": false,
          "internalType": "address",
          "name": "account",
          "type": "address"
        }
      ],
      "name": "Paused",
      "type": "event"
    },
    {
      "anonymous": false,
      "inputs": [
        {
          "indexed": true,
          "internalType": "address",
          "name": "from",
          "type": "address"
        },
        {
          "indexed": true,
          "internalType": "address",
          "name": "to",
          "type": "address"
        },
        {
          "indexed": true,
          "internalType": "uint256",
          "name": "tokenId",
          "type": "uint256"
        }
      ],
      "name": "Transfer",
      "type": "event"
    },
    {
      "anonymous": false,
      "inputs": [
        {
          "indexed": false,
          "internalType": "address",
          "name": "account",
          "type": "address"
        }
      ],
      "name": "Unpaused",
      "type": "event"
    },
    {
      "inputs": [
        {
          "internalType": "address",
          "name": "to",
          "type": "address"
        },
        {
          "internalType": "uint256",
          "name": "tokenId",
          "type": "uint256"
        }
      ],
      "name": "approve",
      "outputs": [],
      "stateMutability": "nonpayable",
      "type": "function"
    },
    {
      "inputs": [
        {
          "internalType": "address",
          "name": "owner",
          "type": "address"
        }
      ],
      "name": "balanceOf",
      "outputs": [
        {
          "internalType": "uint256",
          "name": "",
          "type": "uint256"
        }
      ],
      "stateMutability": "view",
      "type": "function"
    },
    {
      "inputs": [
        {
          "internalType": "uint256",
          "name": "tokenId",
          "type": "uint256"
        }
      ],
      "name": "getApproved",
      "outputs": [
        {
          "internalType": "address",
          "name": "",
          "type": "address"
        }
      ],
      "stateMutability": "view",
      "type": "function"
    },
    {
      "inputs": [
        {
          "internalType": "address",
          "name": "owner",
          "type": "address"
        },
        {
          "internalType": "address",
          "name": "operator",
          "type": "address"
        }
      ],
      "name": "isApprovedForAll",
      "outputs": [
        {
          "internalType": "bool",
          "name": "",
          "type": "bool"
        }
      ],
      "stateMutability": "view",
      "type": "function"
    },
    {
      "inputs": [],
      "name": "name",
      "outputs": [
        {
          "internalType": "string",
          "name": "",
          "type": "string"
        }
      ],
      "stateMutability": "view",
      "type": "function"
    },
    {
      "inputs": [
        {
          "internalType": "uint256",
          "name": "tokenId",
          "type": "uint256"
        }
      ],
      "name": "ownerOf",
      "outputs": [
        {
          "internalType": "address",
          "name": "",
          "type": "address"
        }
      ],
      "stateMutability": "view",
      "type": "function"
    },
    {
      "inputs": [],
      "name": "paused",
      "outputs": [
        {
          "internalType": "bool",
          "name": "",
          "type": "bool"
        }
      ],
      "stateMutability": "view",
      "type": "function"
    },
    {
      "inputs": [
        {
          "internalType": "address",
          "name": "from",
          "type": "address"
        },
        {
          "internalType": "address",
          "name": "to",
          "type": "address"
        },
        {
          "internalType": "uint256",
          "name": "tokenId",
          "type": "uint256"
        }
      ],
      "name": "safeTransferFrom",
      "outputs": [],
      "stateMutability": "nonpayable",
      "type": "function"
    },
    {
      "inputs": [
        {
          "internalType": "address",
          "name": "from",
          "type": "address"
        },
        {
          "internalType": "address",
          "name": "to",
          "type": "address"
        },
        {
          "internalType": "uint256",
          "name": "tokenId",
          "type": "uint256"
        },
        {
          "internalType": "bytes",
          "name": "_data",
          "type": "bytes"
        }
      ],
      "name": "safeTransferFrom",
      "outputs": [],
      "stateMutability": "nonpayable",
      "type": "function"
    },
    {
      "inputs": [
        {
          "internalType": "address",
          "name": "operator",
          "type": "address"
        },
        {
          "internalType": "bool",
          "name": "approved",
          "type": "bool"
        }
      ],
      "name": "setApprovalForAll",
      "outputs": [],
      "stateMutability": "nonpayable",
      "type": "function"
    },
    {
      "inputs": [
        {
          "internalType": "bytes4",
          "name": "interfaceId",
          "type": "bytes4"
        }
      ],
      "name": "supportsInterface",
      "outputs": [
        {
          "internalType": "bool",
          "name": "",
          "type": "bool"
        }
      ],
      "stateMutability": "view",
      "type": "function"
    },
    {
      "inputs": [],
      "name": "symbol",
      "outputs": [
        {
          "internalType": "string",
          "name": "",
          "type": "string"
        }
      ],
      "stateMutability": "view",
      "type": "function"
    },
    {
      "inputs": [
        {
          "internalType": "uint256",
          "name": "tokenId",
          "type": "uint256"
        }
      ],
      "name": "tokenURI",
      "outputs": [
        {
          "internalType": "string",
          "name": "",
          "type": "string"
        }
      ],
      "stateMutability": "view",
      "type": "function"
    },
    {
      "inputs": [
        {
          "internalType": "address",
          "name": "from",
          "type": "address"
        },
        {
          "internalType": "address",
          "name": "to",
          "type": "address"
        },
        {
          "internalType": "uint256",
          "name": "tokenId",
          "type": "uint256"
        }
      ],
      "name": "transferFrom",
      "outputs": [],
      "stateMutability": "nonpayable",
      "type": "function"
    },
    {
      "inputs": [
        {
          "internalType": "uint256",
          "name": "tokenId",
          "type": "uint256"
        }
      ],
      "name": "getRawTokenData",
      "outputs": [
        {
          "components": [
            {
              "internalType": "uint64",
              "name": "startTime",
              "type": "uint64"
            },
            {
              "internalType": "uint64",
              "name": "principal",
              "type": "uint64"
            },
            {
              "internalType": "uint64",
              "name": "claimedRewards",
              "type": "uint64"
            },
            {
              "internalType": "uint64",
              "name": "additionalMatureSeconds",
              "type": "uint64"
            },
            {
              "internalType": "uint16",
              "name": "endIteration",
              "type": "uint16"
            },
            {
              "internalType": "uint16",
              "name": "level",
              "type": "uint16"
            }
          ],
          "internalType": "struct HomeBoost3.Boost",
          "name": "",
          "type": "tuple"
        }
      ],
      "stateMutability": "view",
      "type": "function"
    },
    {
      "inputs": [
        {
          "internalType": "uint256",
          "name": "week",
          "type": "uint256"
        }
      ],
      "name": "getWeeklyInterestRate",
      "outputs": [
        {
          "internalType": "uint256",
          "name": "",
          "type": "uint256"
        }
      ],
      "stateMutability": "view",
      "type": "function"
    },
    {
      "inputs": [
        {
          "internalType": "uint64",
          "name": "startTime",
          "type": "uint64"
        },
        {
          "internalType": "uint256",
          "name": "endTime",
          "type": "uint256"
        }
      ],
      "name": "getPerYearRateForLevel2",
      "outputs": [
        {
          "internalType": "uint256",
          "name": "",
          "type": "uint256"
        }
      ],
      "stateMutability": "view",
      "type": "function"
    },
    {
      "inputs": [
        {
          "internalType": "uint16",
          "name": "level",
          "type": "uint16"
        }
      ],
      "name": "getAPYForLevel",
      "outputs": [
        {
          "internalType": "uint256",
          "name": "",
          "type": "uint256"
        }
      ],
      "stateMutability": "view",
      "type": "function"
    },
    {
      "inputs": [
        {
          "internalType": "uint16",
          "name": "level",
          "type": "uint16"
        },
        {
          "internalType": "uint256",
          "name": "rawAmount",
          "type": "uint256"
        }
      ],
      "name": "getStakeAmount",
      "outputs": [
        {
          "internalType": "uint256",
          "name": "",
          "type": "uint256"
        }
      ],
      "stateMutability": "pure",
      "type": "function"
    },
    {
      "inputs": [],
      "name": "getTokens",
      "outputs": [
        {
          "components": [
            {
              "internalType": "uint256",
              "name": "id",
              "type": "uint256"
            },
            {
              "internalType": "uint256",
              "name": "startTime",
              "type": "uint256"
            },
            {
              "internalType": "uint256",
              "name": "principal",
              "type": "uint256"
            },
            {
              "internalType": "uint256",
              "name": "claimedRewards",
              "type": "uint256"
            },
            {
              "internalType": "uint256",
              "name": "totalRewards",
              "type": "uint256"
            },
            {
              "internalType": "uint256",
              "name": "apy",
              "type": "uint256"
            },
            {
              "internalType": "uint256",
              "name": "nextRewardTimestamp",
              "type": "uint256"
            },
            {
              "internalType": "uint16",
              "name": "level",
              "type": "uint16"
            },
            {
              "internalType": "bool",
              "name": "isComplete",
              "type": "bool"
            },
            {
              "internalType": "bool",
              "name": "isAutoRenew",
              "type": "bool"
            }
          ],
          "internalType": "struct HomeBoost3.BoostDetail[]",
          "name": "",
          "type": "tuple[]"
        }
      ],
      "stateMutability": "view",
      "type": "function"
    },
    {
      "inputs": [
        {
          "internalType": "address",
          "name": "addr",
          "type": "address"
        }
      ],
      "name": "approveAccess",
      "outputs": [],
      "stateMutability": "nonpayable",
      "type": "function"
    },
    {
      "inputs": [
        {
          "internalType": "address",
          "name": "addr",
          "type": "address"
        }
      ],
      "name": "revokeAccess",
      "outputs": [],
      "stateMutability": "nonpayable",
      "type": "function"
    },
    {
      "inputs": [
        {
          "internalType": "string",
          "name": "_boostBaseURI",
          "type": "string"
        }
      ],
      "name": "setBoostBaseUri",
      "outputs": [],
      "stateMutability": "nonpayable",
      "type": "function"
    },
    {
      "inputs": [],
      "name": "pause",
      "outputs": [],
      "stateMutability": "nonpayable",
      "type": "function"
    },
    {
      "inputs": [],
      "name": "unpause",
      "outputs": [],
      "stateMutability": "nonpayable",
      "type": "function"
    },
    {
      "inputs": [
        {
          "internalType": "address",
          "name": "to",
          "type": "address"
        },
        {
          "internalType": "uint256",
          "name": "principal",
          "type": "uint256"
        },
        {
          "internalType": "uint16",
          "name": "level",
          "type": "uint16"
        },
        {
          "internalType": "bool",
          "name": "autoRenew",
          "type": "bool"
        }
      ],
      "name": "mint",
      "outputs": [
        {
          "internalType": "bool",
          "name": "",
          "type": "bool"
        }
      ],
      "stateMutability": "nonpayable",
      "type": "function"
    },
    {
      "inputs": [
        {
          "internalType": "uint256",
          "name": "boostId",
          "type": "uint256"
        }
      ],
      "name": "setToAutoRenew",
      "outputs": [],
      "stateMutability": "nonpayable",
      "type": "function"
    },
    {
      "inputs": [
        {
          "internalType": "uint256",
          "name": "boostId",
          "type": "uint256"
        }
      ],
      "name": "endAutoRenew",
      "outputs": [],
      "stateMutability": "nonpayable",
      "type": "function"
    },
    {
      "inputs": [
        {
          "internalType": "uint256",
          "name": "boostId",
          "type": "uint256"
        }
      ],
      "name": "claimPrincipal",
      "outputs": [
        {
          "internalType": "uint256",
          "name": "",
          "type": "uint256"
        }
      ],
      "stateMutability": "nonpayable",
      "type": "function"
    },
    {
      "inputs": [],
      "name": "claimPreBoostStake",
      "outputs": [
        {
          "internalType": "uint256",
          "name": "",
          "type": "uint256"
        }
      ],
      "stateMutability": "nonpayable",
      "type": "function"
    },
    {
      "inputs": [
        {
          "internalType": "uint256",
          "name": "boostId",
          "type": "uint256"
        }
      ],
      "name": "claimRewards",
      "outputs": [
        {
          "internalType": "uint256",
          "name": "",
          "type": "uint256"
        }
      ],
      "stateMutability": "nonpayable",
      "type": "function"
    },
    {
      "inputs": [
        {
          "internalType": "uint256",
          "name": "newRate",
          "type": "uint256"
        }
      ],
      "name": "appendInterestRate",
      "outputs": [],
      "stateMutability": "nonpayable",
      "type": "function"
    },
    {
      "inputs": [
        {
          "internalType": "uint256",
          "name": "_weeklyStartTime",
          "type": "uint256"
        }
      ],
      "name": "setWeeklyStartTime",
      "outputs": [],
      "stateMutability": "nonpayable",
      "type": "function"
    }
  ],
  "bytecode": "0x608060405234801561001057600080fd5b50613ddc806100206000396000f3fe608060405234801561001057600080fd5b506004361061020b5760003560e01c806370a082311161012a578063aa6ca808116100bd578063ced93cba1161008c578063e985e9c511610071578063e985e9c5146104bf578063f9af0579146104fb578063fb14dc931461050e57600080fd5b8063ced93cba146104a4578063e68ec4f5146104ac57600080fd5b8063aa6ca80814610456578063b88d4fde1461046b578063b90bb8761461047e578063c87b56dd1461049157600080fd5b806395d89b41116100f957806395d89b41146104155780639e0b6ae51461041d578063a22cb46514610430578063a2b4eaae1461044357600080fd5b806370a08231146103d45780638400adfc146103e75780638456cb59146103fa57806385e685311461040257600080fd5b806323b872dd116101a25780635c975abb116101715780635c975abb146103905780635cbce3511461039b5780636352211e146103ae578063705211f4146103c157600080fd5b806323b872dd1461034f5780633f4ba83a1461036257806342842e0e1461036a57806358414e1c1461037d57600080fd5b8063095ea7b3116101de578063095ea7b31461028d5780630962ef79146102a057806317b74c36146102c15780631ec2128c146102d457600080fd5b806301ffc9a71461021057806306fdde0314610238578063081812fc1461024d57806309149aeb14610278575b600080fd5b61022361021e366004613747565b610521565b60405190151581526020015b60405180910390f35b610240610606565b60405161022f91906137bc565b61026061025b3660046137cf565b610698565b6040516001600160a01b03909116815260200161022f565b61028b6102863660046137cf565b610743565b005b61028b61029b3660046137ff565b610873565b6102b36102ae3660046137cf565b6109a5565b60405190815260200161022f565b6102b36102cf36600461383b565b610b4d565b6102e76102e23660046137cf565b610bbb565b60405161022f9190600060c08201905067ffffffffffffffff80845116835280602085015116602084015280604085015116604084015280606085015116606084015250608083015161ffff80821660808501528060a08601511660a0850152505092915050565b61028b61035d366004613856565b610c81565b61028b610d08565b61028b610378366004613856565b610d6c565b6102b361038b366004613892565b610d87565b60335460ff16610223565b61028b6103a93660046137cf565b611022565b6102606103bc3660046137cf565b611081565b61028b6103cf3660046138bd565b61110c565b6102b36103e23660046138bd565b61118b565b6102b36103f53660046138d8565b611225565b61028b611263565b61028b6104103660046138bd565b6112c5565b610240611341565b61028b61042b366004613980565b611350565b61028b61043e3660046139d7565b6113c2565b6102b36104513660046137cf565b6113cd565b61045e611416565b60405161022f9190613a0e565b61028b610479366004613ab9565b6116bc565b61028b61048c3660046137cf565b61174a565b61024061049f3660046137cf565b6117d9565b6102b36118c2565b6102236104ba366004613b35565b611b91565b6102236104cd366004613b84565b6001600160a01b03918216600090815260ce6020908152604080832093909416825291909152205460ff1690565b6102b36105093660046137cf565b611e96565b61028b61051c3660046137cf565b6122a6565b60007fffffffff0000000000000000000000000000000000000000000000000000000082167f80ac58cd0000000000000000000000000000000000000000000000000000000014806105b457507fffffffff0000000000000000000000000000000000000000000000000000000082167f5b5e139f00000000000000000000000000000000000000000000000000000000145b8061060057507f01ffc9a7000000000000000000000000000000000000000000000000000000007fffffffff000000000000000000000000000000000000000000000000000000008316145b92915050565b606060c9805461061590613bb7565b80601f016020809104026020016040519081016040528092919081815260200182805461064190613bb7565b801561068e5780601f106106635761010080835404028352916020019161068e565b820191906000526020600020905b81548152906001019060200180831161067157829003601f168201915b5050505050905090565b600081815260cb60205260408120546001600160a01b03166107275760405162461bcd60e51b815260206004820152602c60248201527f4552433732313a20617070726f76656420717565727920666f72206e6f6e657860448201527f697374656e7420746f6b656e000000000000000000000000000000000000000060648201526084015b60405180910390fd5b50600090815260cd60205260409020546001600160a01b031690565b60335460ff16156107895760405162461bcd60e51b815260206004820152601060248201526f14185d5cd8589b194e881c185d5cd95960821b604482015260640161071e565b3361079382611081565b6001600160a01b0316146107d95760405162461bcd60e51b815260206004820152600d60248201526c2737ba103a34329037bbb732b960991b604482015260640161071e565b600060fb82815481106107ee576107ee613bf2565b60009182526020909120600290910201600181015490915061ffff1615610813575050565b600181015461084b9061082f9062010000900461ffff1661238d565b82546108459067ffffffffffffffff1642613c1e565b906123c6565b610856906001613c35565b600191909101805461ffff191661ffff9092169190911790555b50565b600061087e82611081565b9050806001600160a01b0316836001600160a01b031614156109085760405162461bcd60e51b815260206004820152602160248201527f4552433732313a20617070726f76616c20746f2063757272656e74206f776e6560448201527f7200000000000000000000000000000000000000000000000000000000000000606482015260840161071e565b336001600160a01b0382161480610924575061092481336104cd565b6109965760405162461bcd60e51b815260206004820152603860248201527f4552433732313a20617070726f76652063616c6c6572206973206e6f74206f7760448201527f6e6572206e6f7220617070726f76656420666f7220616c6c0000000000000000606482015260840161071e565b6109a083836123d2565b505050565b60006109b360335460ff1690565b156109f35760405162461bcd60e51b815260206004820152601060248201526f14185d5cd8589b194e881c185d5cd95960821b604482015260640161071e565b60026065541415610a465760405162461bcd60e51b815260206004820152601f60248201527f5265656e7472616e637947756172643a207265656e7472616e742063616c6c00604482015260640161071e565b600260655533610a5583611081565b6001600160a01b031614610a9b5760405162461bcd60e51b815260206004820152600d60248201526c2737ba103a34329037bbb732b960991b604482015260640161071e565b600060fb8381548110610ab057610ab0613bf2565b600091825260208083206040805160c0810182526002909402909101805467ffffffffffffffff8082168652600160401b8204811694860194909452600160801b8104841692850192909252600160c01b9091049091166060830152600181015461ffff8082166080850152620100009091041660a08301529250610b349061244d565b9050610b4082826124f6565b6001606555949350505050565b60008161ffff1660011415610b655750614e20919050565b8161ffff1660021415610bb35760fd54610b8157506000919050565b60fd8054610b9190600190613c1e565b81548110610ba157610ba1613bf2565b90600052602060002001549050919050565b506000919050565b6040805160c081018252600080825260208201819052918101829052606081018290526080810182905260a081019190915260fb8281548110610c0057610c00613bf2565b60009182526020918290206040805160c0810182526002909302909101805467ffffffffffffffff8082168552600160401b8204811695850195909552600160801b8104851692840192909252600160c01b909104909216606082015260019091015461ffff8082166080840152620100009091041660a082015292915050565b610c8b33826125fa565b610cfd5760405162461bcd60e51b815260206004820152603160248201527f4552433732313a207472616e736665722063616c6c6572206973206e6f74206f60448201527f776e6572206e6f7220617070726f766564000000000000000000000000000000606482015260840161071e565b6109a08383836126fe565b60ff546001600160a01b03163314610d625760405162461bcd60e51b815260206004820152601760248201527f63616c6c6572206d75737420626520677561726469616e000000000000000000604482015260640161071e565b610d6a6128e3565b565b6109a0838383604051806020016040528060008152506116bc565b60fd546000901580610da25750818367ffffffffffffffff16145b15610daf57506000610600565b60fc548367ffffffffffffffff161015610e315760405162461bcd60e51b815260206004820152603360248201527f737461727454696d65206d75737420626520677265617465722062656361757360448201527f65206e6567617469766573206172652062616400000000000000000000000000606482015260840161071e565b6000610e41620151806007613c4d565b60fc54610e589067ffffffffffffffff8716613c1e565b610e629190613c82565b90506000610e74620151806007613c4d565b60fc54610e8b9067ffffffffffffffff8816613c1e565b610e959190613c96565b9050610ea5620151806007613c4d565b81610eb4620151806007613c4d565b610ebe9190613c1e565b610ec89190613c96565b90506000610eda620151806007613c4d565b60fc54610ee79087613c1e565b610ef19190613c82565b90506000610f03620151806007613c4d565b60fc54610f109088613c1e565b610f1a9190613c96565b9050600081610f28846113cd565b610f329190613c4d565b9050610f3e8584613c1e565b610f6c57610f5667ffffffffffffffff891688613c1e565b610f609082613c82565b95505050505050610600565b83610f76866113cd565b610f809190613c4d565b610f8a9082613c35565b90508315610fa057610f9d600186613c35565b94505b6000855b84811015610fd357610fb5816113cd565b610fbf9083613c35565b915080610fcb81613caa565b915050610fa4565b610fe767ffffffffffffffff8b168a613c1e565b83610ff6620151806007613c4d565b6110009085613c4d565b61100a9190613c35565b6110149190613c82565b9a9950505050505050505050565b60ff546001600160a01b0316331461107c5760405162461bcd60e51b815260206004820152601760248201527f63616c6c6572206d75737420626520677561726469616e000000000000000000604482015260640161071e565b60fc55565b600081815260cb60205260408120546001600160a01b0316806106005760405162461bcd60e51b815260206004820152602960248201527f4552433732313a206f776e657220717565727920666f72206e6f6e657869737460448201527f656e7420746f6b656e0000000000000000000000000000000000000000000000606482015260840161071e565b60ff546001600160a01b031633146111665760405162461bcd60e51b815260206004820152601760248201527f63616c6c6572206d75737420626520677561726469616e000000000000000000604482015260640161071e565b6001600160a01b0316600090815261010160205260409020805460ff19166001179055565b60006001600160a01b0382166112095760405162461bcd60e51b815260206004820152602a60248201527f4552433732313a2062616c616e636520717565727920666f7220746865207a6560448201527f726f206164647265737300000000000000000000000000000000000000000000606482015260840161071e565b506001600160a01b0316600090815260cc602052604090205490565b60008261ffff16600114156112465761123f8260026123c6565b9050610600565b8261ffff166002141561125a575080610600565b50600092915050565b60ff546001600160a01b031633146112bd5760405162461bcd60e51b815260206004820152601760248201527f63616c6c6572206d75737420626520677561726469616e000000000000000000604482015260640161071e565b610d6a61297f565b60ff546001600160a01b0316331461131f5760405162461bcd60e51b815260206004820152601760248201527f63616c6c6572206d75737420626520677561726469616e000000000000000000604482015260640161071e565b6001600160a01b0316600090815261010160205260409020805460ff19169055565b606060ca805461061590613bb7565b60ff546001600160a01b031633146113aa5760405162461bcd60e51b815260206004820152601760248201527f63616c6c6572206d75737420626520677561726469616e000000000000000000604482015260640161071e565b80516113be90610102906020840190613689565b5050565b6113be3383836129fa565b60fd5460009082106113e157506000919050565b61060064e8d4a5100060fd84815481106113fd576113fd613bf2565b9060005260206000200154612ac990919063ffffffff16565b606060006114233361118b565b905060008167ffffffffffffffff811115611440576114406138f4565b6040519080825280602002602001820160405280156114cf57816020015b6114bc60405180610140016040528060008152602001600081526020016000815260200160008152602001600081526020016000815260200160008152602001600061ffff1681526020016000151581526020016000151581525090565b81526020019060019003908161145e5790505b509050816114dd5792915050565b600060015b60fb548110156116b357600081815260cb60205260409020546001600160a01b0316158061152157503361151582611081565b6001600160a01b031614155b1561152b576116a1565b8251821415611539576116b3565b600060fb828154811061154e5761154e613bf2565b600091825260208083206040805160c0810182526002909402909101805467ffffffffffffffff8082168652600160401b8204811694860194909452600160801b8104841692850192909252600160c01b9091049091166060830152600181015461ffff8082166080850152620100009091041660a083015292506115d29061244d565b6040805161014081018252858152845467ffffffffffffffff8082166020840152600160401b8204811693830193909352600160801b90049091166060820152909150608081016116238484612ad5565b81526020016116438460010160029054906101000a900461ffff16610b4d565b815260208101839052600184015461ffff6201000082048116604084015242851060608401521615608090910152855186908690811061168557611685613bf2565b6020026020010181905250838061169b90613caa565b94505050505b806116ab81613caa565b9150506114e2565b50909392505050565b6116c633836125fa565b6117385760405162461bcd60e51b815260206004820152603160248201527f4552433732313a207472616e736665722063616c6c6572206973206e6f74206f60448201527f776e6572206e6f7220617070726f766564000000000000000000000000000000606482015260840161071e565b61174484848484612cca565b50505050565b60ff546001600160a01b031633146117a45760405162461bcd60e51b815260206004820152601760248201527f63616c6c6572206d75737420626520677561726469616e000000000000000000604482015260640161071e565b60fd80546001810182556000919091527f9346ac6dd7de6b96975fec380d4d994c4c12e6a8897544f22915316cc6cca2800155565b600081815260cb60205260409020546060906001600160a01b03166118665760405162461bcd60e51b815260206004820152602f60248201527f4552433732314d657461646174613a2055524920717565727920666f72206e6f60448201527f6e6578697374656e7420746f6b656e0000000000000000000000000000000000606482015260840161071e565b6000611870612d53565b9050600081511161189057604051806020016040528060008152506118bb565b8061189a84612d63565b6040516020016118ab929190613cc5565b6040516020818303038152906040525b9392505050565b60006118d060335460ff1690565b156119105760405162461bcd60e51b815260206004820152601060248201526f14185d5cd8589b194e881c185d5cd95960821b604482015260640161071e565b600260655414156119635760405162461bcd60e51b815260206004820152601f60248201527f5265656e7472616e637947756172643a207265656e7472616e742063616c6c00604482015260640161071e565b600260655560006119733361118b565b610100546040517f440277e80000000000000000000000000000000000000000000000000000000081523360048201529192506000916001600160a01b039091169063440277e89060240160206040518083038186803b1580156119d657600080fd5b505afa1580156119ea573d6000803e3d6000fd5b505050506040513d601f19601f82011682018060405250810190611a0e9190613cf4565b905060008215611af857600060015b60fb54811015611af557600081815260cb60205260409020546001600160a01b03161580611a5c575033611a5082611081565b6001600160a01b031614155b15611a6657611ae3565b84821415611a7357611af5565b600060fb8281548110611a8857611a88613bf2565b6000918252602090912060029091020160018101548154919250611ad291611acb9162010000900461ffff1690600160401b900467ffffffffffffffff16611225565b8590612e95565b935082611ade81613caa565b935050505b80611aed81613caa565b915050611a1d565b50505b6000611b048383612ea1565b610100546040517f6a7b408b000000000000000000000000000000000000000000000000000000008152336004820152602481018390529192506001600160a01b031690636a7b408b90604401600060405180830381600087803b158015611b6b57600080fd5b505af1158015611b7f573d6000803e3d6000fd5b50929650505050505050600160655590565b6000611b9f60335460ff1690565b15611bdf5760405162461bcd60e51b815260206004820152601060248201526f14185d5cd8589b194e881c185d5cd95960821b604482015260640161071e565b60026065541415611c325760405162461bcd60e51b815260206004820152601f60248201527f5265656e7472616e637947756172643a207265656e7472616e742063616c6c00604482015260640161071e565b6002606555336000908152610101602052604090205460ff16611c975760405162461bcd60e51b815260206004820152601760248201527f43616c6c6572206d75737420626520617070726f766564000000000000000000604482015260640161071e565b60008361ffff16118015611cb0575060028361ffff1611155b611cfc5760405162461bcd60e51b815260206004820152600d60248201527f496e76616c6964206c6576656c00000000000000000000000000000000000000604482015260640161071e565b600082611d0a576001611d0d565b60005b60ff16905060fb6040518060c00160405280611d2842612ead565b67ffffffffffffffff168152602001611d4088612ead565b67ffffffffffffffff908116825260006020808401829052604080850183905261ffff8089166060808801919091528c8216608097880152885460018181018b5599865284862089516002909202018054958a0151948a0151928a01518816600160c01b0277ffffffffffffffffffffffffffffffffffffffffffffffff938916600160801b02939093166fffffffffffffffffffffffffffffffff958916600160401b027fffffffffffffffffffffffffffffffff00000000000000000000000000000000909716929098169190911794909417929092169490941717815592840151928501805460a090950151831662010000027fffffffffffffffffffffffffffffffffffffffffffffffffffffffff0000000090951693909216929092179290921790915560fb549091611e7791613c1e565b9050611e838782612f31565b6001925050506001606555949350505050565b6000611ea460335460ff1690565b15611ee45760405162461bcd60e51b815260206004820152601060248201526f14185d5cd8589b194e881c185d5cd95960821b604482015260640161071e565b60026065541415611f375760405162461bcd60e51b815260206004820152601f60248201527f5265656e7472616e637947756172643a207265656e7472616e742063616c6c00604482015260640161071e565b600260655533611f4683611081565b6001600160a01b031614611f8c5760405162461bcd60e51b815260206004820152600d60248201526c2737ba103a34329037bbb732b960991b604482015260640161071e565b600060fb8381548110611fa157611fa1613bf2565b60009182526020909120600290910201600181015490915061ffff166120095760405162461bcd60e51b815260206004820152601560248201527f4d757374206e6f74206265206175746f52656e65770000000000000000000000604482015260640161071e565b6040805160c081018252825467ffffffffffffffff8082168352600160401b820481166020840152600160801b8204811693830193909352600160c01b90049091166060820152600182015461ffff8082166080840152620100009091041660a08201526000906120799061244d565b90504281106120ca5760405162461bcd60e51b815260206004820152600c60248201527f5374696c6c206c6f636b65640000000000000000000000000000000000000000604482015260640161071e565b60006120d683836124f6565b90506120e185612f4b565b60018301548354600091612111916201000090910461ffff1690600160401b900467ffffffffffffffff16611225565b610100546040517f6a7b408b000000000000000000000000000000000000000000000000000000008152336004820152602481018390529192506001600160a01b031690636a7b408b90604401600060405180830381600087803b15801561217857600080fd5b505af115801561218c573d6000803e3d6000fd5b50508554600160401b900467ffffffffffffffff16831015915061227990505760fe5484546001600160a01b039091169063a9059cbb9033906121e1908590600160401b900467ffffffffffffffff16613c1e565b6040517fffffffff0000000000000000000000000000000000000000000000000000000060e085901b1681526001600160a01b0390921660048301526024820152604401602060405180830381600087803b15801561223f57600080fd5b505af1158015612253573d6000803e3d6000fd5b505050506040513d601f19601f820116820180604052508101906122779190613d0d565b505b8354612297908390600160401b900467ffffffffffffffff16613c35565b60016065559695505050505050565b60335460ff16156122ec5760405162461bcd60e51b815260206004820152601060248201526f14185d5cd8589b194e881c185d5cd95960821b604482015260640161071e565b336122f682611081565b6001600160a01b03161461233c5760405162461bcd60e51b815260206004820152600d60248201526c2737ba103a34329037bbb732b960991b604482015260640161071e565b600060fb828154811061235157612351613bf2565b60009182526020909120600290910201600181015490915061ffff16612375575050565b61237e81612fff565b600101805461ffff1916905550565b60008161ffff16600114156123aa5761060062015180605a613c4d565b8161ffff1660021415610bb3576106006201518061016d613c4d565b60006118bb8284613c82565b600081815260cd60205260409020805473ffffffffffffffffffffffffffffffffffffffff19166001600160a01b038416908117909155819061241482611081565b6001600160a01b03167f8c5be1e5ebec7d5bd14f71427d1e84f3dd0314c0f7b2291e5b200ac8c7c3b92560405160405180910390a45050565b6000816080015161ffff16600014156124c25760006124886124728460a0015161238d565b84516108459067ffffffffffffffff1642613c1e565b612493906001613c35565b90506124ac816124a68560a0015161238d565b90612ac9565b83516118bb919067ffffffffffffffff16613c35565b6124db826080015161ffff166124a68460a0015161238d565b8251610600919067ffffffffffffffff16613c35565b919050565b6000806125038484612ad5565b8454909150600090612527908390600160801b900467ffffffffffffffff16612ea1565b905061253282612ead565b855467ffffffffffffffff91909116600160801b027fffffffffffffffff0000000000000000ffffffffffffffffffffffffffffffff90911617855580156125f25760fe546040517f56ff0715000000000000000000000000000000000000000000000000000000008152336004820152602481018390526001600160a01b03909116906356ff071590604401600060405180830381600087803b1580156125d957600080fd5b505af11580156125ed573d6000803e3d6000fd5b505050505b949350505050565b600081815260cb60205260408120546001600160a01b03166126845760405162461bcd60e51b815260206004820152602c60248201527f4552433732313a206f70657261746f7220717565727920666f72206e6f6e657860448201527f697374656e7420746f6b656e0000000000000000000000000000000000000000606482015260840161071e565b600061268f83611081565b9050806001600160a01b0316846001600160a01b031614806126ca5750836001600160a01b03166126bf84610698565b6001600160a01b0316145b806125f257506001600160a01b03808216600090815260ce602090815260408083209388168352929052205460ff166125f2565b826001600160a01b031661271182611081565b6001600160a01b03161461278d5760405162461bcd60e51b815260206004820152602960248201527f4552433732313a207472616e73666572206f6620746f6b656e2074686174206960448201527f73206e6f74206f776e0000000000000000000000000000000000000000000000606482015260840161071e565b6001600160a01b0382166128085760405162461bcd60e51b8152602060048201526024808201527f4552433732313a207472616e7366657220746f20746865207a65726f2061646460448201527f7265737300000000000000000000000000000000000000000000000000000000606482015260840161071e565b612813838383613155565b61281e6000826123d2565b6001600160a01b038316600090815260cc60205260408120805460019290612847908490613c1e565b90915550506001600160a01b038216600090815260cc60205260408120805460019290612875908490613c35565b9091555050600081815260cb6020526040808220805473ffffffffffffffffffffffffffffffffffffffff19166001600160a01b0386811691821790925591518493918716917fddf252ad1be2c89b69c2b068fc378daa952ba7f163c4a11628f55a4df523b3ef91a4505050565b60335460ff166129355760405162461bcd60e51b815260206004820152601460248201527f5061757361626c653a206e6f7420706175736564000000000000000000000000604482015260640161071e565b6033805460ff191690557f5db9ee0a495bf2e6ff9c91a7834c1ba4fdd244a5e8aa4e537bd38aeae4b073aa335b6040516001600160a01b03909116815260200160405180910390a1565b60335460ff16156129c55760405162461bcd60e51b815260206004820152601060248201526f14185d5cd8589b194e881c185d5cd95960821b604482015260640161071e565b6033805460ff191660011790557f62e78cea01bee320cd4e420270b5ea74000d11b0c9f74754ebdbfc544b05a2586129623390565b816001600160a01b0316836001600160a01b03161415612a5c5760405162461bcd60e51b815260206004820152601960248201527f4552433732313a20617070726f766520746f2063616c6c657200000000000000604482015260640161071e565b6001600160a01b03838116600081815260ce6020908152604080832094871680845294825291829020805460ff191686151590811790915591519182527f17307eab39ab6107e8899845ad3d59bd9653f200f220920489ca2b5937696c31910160405180910390a3505050565b60006118bb8284613c4d565b600080600080428510612ae85742612aea565b845b60018701548754919250600091612b169162010000900461ffff169067ffffffffffffffff16846132a7565b90506000612b358860010160029054906101000a900461ffff1661238d565b905042871015612ba157612b498742613c1e565b9350612b9a612b64620f42406124a66201518061016d613c4d565b60018a01546108459085906124a690612b819061ffff1687612ac9565b8d54600160401b900467ffffffffffffffff1690612ac9565b9450612c4d565b8754600090612bc09083906108459067ffffffffffffffff1642613c1e565b8954909150600090612be8908490612be29067ffffffffffffffff1642613c1e565b906132ec565b8a54909150600090612c1490620f42409061084590600160401b900467ffffffffffffffff1688612ac9565b9050612c47612c286201518061016d613c4d565b61084584612c368789612ac9565b612c409190613c35565b8490612ac9565b97505050505b612ca3612c5f6201518061016d613c4d565b895461084590612c81908890600160c01b900467ffffffffffffffff16613c35565b8b546124a690600160401b900467ffffffffffffffff166402540be400612ac9565b612cad9086613c35565b9450612cbe8564e8d4a510006123c6565b98975050505050505050565b612cd58484846126fe565b612ce1848484846132f8565b6117445760405162461bcd60e51b815260206004820152603260248201527f4552433732313a207472616e7366657220746f206e6f6e20455243373231526560448201527f63656976657220696d706c656d656e7465720000000000000000000000000000606482015260840161071e565b6060610102805461061590613bb7565b606081612da357505060408051808201909152600181527f3000000000000000000000000000000000000000000000000000000000000000602082015290565b8160005b8115612dcd5780612db781613caa565b9150612dc69050600a83613c82565b9150612da7565b60008167ffffffffffffffff811115612de857612de86138f4565b6040519080825280601f01601f191660200182016040528015612e12576020820181803683370190505b5090505b84156125f257612e27600183613c1e565b9150612e34600a86613c96565b612e3f906030613c35565b60f81b818381518110612e5457612e54613bf2565b60200101907effffffffffffffffffffffffffffffffffffffffffffffffffffffffffffff1916908160001a905350612e8e600a86613c82565b9450612e16565b60006118bb8284613c35565b60006118bb8284613c1e565b600067ffffffffffffffff821115612f2d5760405162461bcd60e51b815260206004820152602660248201527f53616665436173743a2076616c756520646f65736e27742066697420696e203660448201527f3420626974730000000000000000000000000000000000000000000000000000606482015260840161071e565b5090565b6113be8282604051806020016040528060008152506134a5565b6000612f5682611081565b9050612f6481600084613155565b612f6f6000836123d2565b6001600160a01b038116600090815260cc60205260408120805460019290612f98908490613c1e565b9091555050600082815260cb6020526040808220805473ffffffffffffffffffffffffffffffffffffffff19169055518391906001600160a01b038416907fddf252ad1be2c89b69c2b068fc378daa952ba7f163c4a11628f55a4df523b3ef908390a45050565b6040805160c081018252825467ffffffffffffffff8082168352600160401b820481166020840152600160801b8204811693830193909352600160c01b90049091166060820152600182015461ffff8082166080840152620100009091041660a0820152429061306e9061244d565b10156108705760018101546000906130989061ffff808216916124a691620100009091041661238d565b82549091506130c5906130b690839067ffffffffffffffff16613c35565b6130c09042613c1e565b612ead565b825483906018906130e8908490600160c01b900467ffffffffffffffff16613d2a565b92506101000a81548167ffffffffffffffff021916908367ffffffffffffffff16021790555061311d81426130c09190613c1e565b82547fffffffffffffffffffffffffffffffffffffffffffffffff00000000000000001667ffffffffffffffff919091161790915550565b6001600160a01b038316158061317257506001600160a01b038216155b1561317c57505050565b600060fb828154811061319157613191613bf2565b600091825260208083206040805160c0810182526002909402909101805467ffffffffffffffff8082168652600160401b82048116948601859052600160801b8204811693860193909352600160c01b900490911660608401526001015461ffff8082166080850152620100009091041660a083018190529193506132169190611225565b610100546040517fbc36b07a000000000000000000000000000000000000000000000000000000008152600481018390526001600160a01b038881166024830152878116604483015292935091169063bc36b07a90606401600060405180830381600087803b15801561328857600080fd5b505af115801561329c573d6000803e3d6000fd5b505050505050505050565b60008361ffff16600114156132c4575066470de4df8200006118bb565b8361ffff16600214156132e2576132db8383610d87565b90506118bb565b5060009392505050565b60006118bb8284613c96565b60006001600160a01b0384163b1561349a576040517f150b7a020000000000000000000000000000000000000000000000000000000081526001600160a01b0385169063150b7a0290613355903390899088908890600401613d4d565b602060405180830381600087803b15801561336f57600080fd5b505af192505050801561339f575060408051601f3d908101601f1916820190925261339c91810190613d89565b60015b61344f573d8080156133cd576040519150601f19603f3d011682016040523d82523d6000602084013e6133d2565b606091505b5080516134475760405162461bcd60e51b815260206004820152603260248201527f4552433732313a207472616e7366657220746f206e6f6e20455243373231526560448201527f63656976657220696d706c656d656e7465720000000000000000000000000000606482015260840161071e565b805181602001fd5b7fffffffff00000000000000000000000000000000000000000000000000000000167f150b7a02000000000000000000000000000000000000000000000000000000001490506125f2565b506001949350505050565b6134af838361352e565b6134bc60008484846132f8565b6109a05760405162461bcd60e51b815260206004820152603260248201527f4552433732313a207472616e7366657220746f206e6f6e20455243373231526560448201527f63656976657220696d706c656d656e7465720000000000000000000000000000606482015260840161071e565b6001600160a01b0382166135845760405162461bcd60e51b815260206004820181905260248201527f4552433732313a206d696e7420746f20746865207a65726f2061646472657373604482015260640161071e565b600081815260cb60205260409020546001600160a01b0316156135e95760405162461bcd60e51b815260206004820152601c60248201527f4552433732313a20746f6b656e20616c7265616479206d696e74656400000000604482015260640161071e565b6135f560008383613155565b6001600160a01b038216600090815260cc6020526040812080546001929061361e908490613c35565b9091555050600081815260cb6020526040808220805473ffffffffffffffffffffffffffffffffffffffff19166001600160a01b03861690811790915590518392907fddf252ad1be2c89b69c2b068fc378daa952ba7f163c4a11628f55a4df523b3ef908290a45050565b82805461369590613bb7565b90600052602060002090601f0160209004810192826136b757600085556136fd565b82601f106136d057805160ff19168380011785556136fd565b828001600101855582156136fd579182015b828111156136fd5782518255916020019190600101906136e2565b50612f2d9291505b80821115612f2d5760008155600101613705565b7fffffffff000000000000000000000000000000000000000000000000000000008116811461087057600080fd5b60006020828403121561375957600080fd5b81356118bb81613719565b60005b8381101561377f578181015183820152602001613767565b838111156117445750506000910152565b600081518084526137a8816020860160208601613764565b601f01601f19169290920160200192915050565b6020815260006118bb6020830184613790565b6000602082840312156137e157600080fd5b5035919050565b80356001600160a01b03811681146124f157600080fd5b6000806040838503121561381257600080fd5b61381b836137e8565b946020939093013593505050565b803561ffff811681146124f157600080fd5b60006020828403121561384d57600080fd5b6118bb82613829565b60008060006060848603121561386b57600080fd5b613874846137e8565b9250613882602085016137e8565b9150604084013590509250925092565b600080604083850312156138a557600080fd5b823567ffffffffffffffff8116811461381b57600080fd5b6000602082840312156138cf57600080fd5b6118bb826137e8565b600080604083850312156138eb57600080fd5b61381b83613829565b634e487b7160e01b600052604160045260246000fd5b600067ffffffffffffffff80841115613925576139256138f4565b604051601f8501601f19908116603f0116810190828211818310171561394d5761394d6138f4565b8160405280935085815286868601111561396657600080fd5b858560208301376000602087830101525050509392505050565b60006020828403121561399257600080fd5b813567ffffffffffffffff8111156139a957600080fd5b8201601f810184136139ba57600080fd5b6125f28482356020840161390a565b801515811461087057600080fd5b600080604083850312156139ea57600080fd5b6139f3836137e8565b91506020830135613a03816139c9565b809150509250929050565b602080825282518282018190526000919060409081850190868401855b82811015613aac5781518051855286810151878601528581015186860152606080820151908601526080808201519086015260a0808201519086015260c0808201519086015260e08082015161ffff169086015261010080820151151590860152610120908101511515908501526101409093019290850190600101613a2b565b5091979650505050505050565b60008060008060808587031215613acf57600080fd5b613ad8856137e8565b9350613ae6602086016137e8565b925060408501359150606085013567ffffffffffffffff811115613b0957600080fd5b8501601f81018713613b1a57600080fd5b613b298782356020840161390a565b91505092959194509250565b60008060008060808587031215613b4b57600080fd5b613b54856137e8565b935060208501359250613b6960408601613829565b91506060850135613b79816139c9565b939692955090935050565b60008060408385031215613b9757600080fd5b613ba0836137e8565b9150613bae602084016137e8565b90509250929050565b600181811c90821680613bcb57607f821691505b60208210811415613bec57634e487b7160e01b600052602260045260246000fd5b50919050565b634e487b7160e01b600052603260045260246000fd5b634e487b7160e01b600052601160045260246000fd5b600082821015613c3057613c30613c08565b500390565b60008219821115613c4857613c48613c08565b500190565b6000816000190483118215151615613c6757613c67613c08565b500290565b634e487b7160e01b600052601260045260246000fd5b600082613c9157613c91613c6c565b500490565b600082613ca557613ca5613c6c565b500690565b6000600019821415613cbe57613cbe613c08565b5060010190565b60008351613cd7818460208801613764565b835190830190613ceb818360208801613764565b01949350505050565b600060208284031215613d0657600080fd5b5051919050565b600060208284031215613d1f57600080fd5b81516118bb816139c9565b600067ffffffffffffffff808316818516808303821115613ceb57613ceb613c08565b60006001600160a01b03808716835280861660208401525083604083015260806060830152613d7f6080830184613790565b9695505050505050565b600060208284031215613d9b57600080fd5b81516118bb8161371956fea2646970667358221220085ead27d5f68f8de0213990e5fbd17dc74b5d8241ea5aaa156e2f6de6316bc964736f6c63430008090033",
  "immutableReferences": {},
  "source": "// SPDX-License-Identifier: MIT\npragma solidity ^0.8.4;\n\nimport '../@openzeppelin/contracts-upgradeable/proxy/utils/Initializable.sol';\nimport '../@openzeppelin/contracts-upgradeable/token/ERC721/ERC721Upgradeable.sol';\nimport '../@openzeppelin/contracts/utils/math/SafeMath.sol';\nimport '../@openzeppelin/contracts/utils/math/SignedSafeMath.sol';\nimport '../@openzeppelin/contracts/utils/math/SafeCast.sol';\nimport '../@openzeppelin/contracts-upgradeable/security/PausableUpgradeable.sol';\nimport '../@openzeppelin/contracts-upgradeable/security/ReentrancyGuardUpgradeable.sol';\n\nimport './../PoolStakingRewards/PoolStakingRewards5.sol';\nimport './../PoolCore/Pool13.sol';\n\n// import \"hardhat/console.sol\";\n\ncontract HomeBoost3 is\n  PausableUpgradeable,\n  ReentrancyGuardUpgradeable,\n  ERC721Upgradeable\n{\n    using SafeMath for uint256;\n    using SafeMath for uint64;\n    using SafeMath for uint16;\n    // 60 * 60 * 24\n    uint256 constant SECONDS_PER_DAY = 86400;\n    uint256 constant SECONDS_PER_WEEK = SECONDS_PER_DAY * 7;\n    // use real year (365 days)\n    uint256 constant SECONDS_PER_YEAR = SECONDS_PER_DAY * 365;\n    // 90 days\n    uint256 constant LEVEL_1_SECONDS_PER_ITERATION = SECONDS_PER_DAY * 90;\n    // 1 year\n    uint256 constant LEVEL_2_SECONDS_PER_ITERATION = SECONDS_PER_YEAR;\n\n    uint256 constant LEVEL_1_RATE = 2 * 10 ** 16;\n\n    // Stored per boost token.\n    struct Boost {\n        uint64 startTime;\n        uint64 principal;\n        uint64 claimedRewards;\n        uint64 additionalMatureSeconds; // accumulates seconds that the Boost was mature before being renewed.\n        uint16 endIteration; // 0 for never (auto-renew) or a value for the number of iterations\n        uint16 level;\n    }\n\n    // Used to get relevant details about boosts to callers into the contract (e.g. the UI)\n    // Never written to storage.\n    struct BoostDetail {\n        uint256 id;\n        uint256 startTime;\n        uint256 principal;\n        uint256 claimedRewards;\n        uint256 totalRewards;\n        uint256 apy;\n        uint256 nextRewardTimestamp;\n        uint16 level;\n        bool isComplete; // true if time has passed the end of the last iteration\n        bool isAutoRenew;\n    }\n\n    Boost[] private boostData;\n    uint256 weeklyStartTime;\n    uint256[] private weeklyInterestRates;\n\n    address poolAddress;\n    address guardianAddress;\n    address poolStakingRewardAddress;\n    mapping(address => bool) isApproved;\n    string boostBaseURI;\n\n    ///\n    /// Getters\n    ///\n    function _baseURI() internal view override returns (string memory) {\n        return boostBaseURI;\n    }\n\n    //\n    // returns startTime, principal, additionalMatureSeconds, endIteration, level\n    // use getTokenData for a more human readable version of this data\n    //\n    function getRawTokenData(uint256 tokenId) public view returns(Boost memory) {\n        return boostData[tokenId];\n    }\n\n    function getPerYearRateForLevel(uint16 level, uint64 startTime, uint256 endTime) private view returns(uint256) {\n        if (level == 1) {\n            return LEVEL_1_RATE; // 2% apy over 90 days in a 365 day year\n        } else if (level == 2) {\n            return getPerYearRateForLevel2(startTime, endTime);\n        }\n\n        return 0;\n    }\n\n    function getWeeklyInterestRate(uint256 week) public view returns(uint256) {\n      if (week >= weeklyInterestRates.length)\n        return 0;\n      return weeklyInterestRates[week].mul(10 ** 12); // 18 digits of precision for computations down the line.\n    }\n\n    function getPerYearRateForLevel2(uint64 startTime, uint256 endTime) public view returns(uint256) {\n        if (weeklyInterestRates.length == 0 || startTime == endTime)\n            return 0;\n\n        require(startTime >= weeklyStartTime, \"startTime must be greater because negatives are bad\");\n        uint256 startWeekNumber = (startTime - weeklyStartTime) / SECONDS_PER_WEEK;\n        uint256 startWeekFraction =  ((startTime - weeklyStartTime) % SECONDS_PER_WEEK);\n\n        // We're at the start, so we need the time elaspsed since the start to a week ending.\n        // Mod takes it to zero if startWeekFraction is already zero. Might be better to if it.\n        startWeekFraction = (SECONDS_PER_WEEK - startWeekFraction) % SECONDS_PER_WEEK;\n\n        uint256 endWeekNumber = ((endTime - weeklyStartTime) / SECONDS_PER_WEEK);\n        uint256 endWeekNumberFraction = ((endTime - weeklyStartTime) % SECONDS_PER_WEEK);\n\n        // fracitonalSum isn't a uint. It's really interest seconds, but that's not a type here.\n        uint256 fracitonalSum = (getWeeklyInterestRate(endWeekNumber) * endWeekNumberFraction);\n\n        // We're still in the first week. All the other stuff is unnecessary.\n        // And breaks if we don't exit early.\n        if (endWeekNumber - startWeekNumber == 0)\n           return fracitonalSum / (endTime - startTime);\n\n        fracitonalSum += (getWeeklyInterestRate(startWeekNumber) * startWeekFraction);\n\n        // The first week is handled in the loop, if there's no fractional part.\n        if (startWeekFraction > 0)\n          startWeekNumber += 1;\n\n        // sum is actually interest weeks.\n        uint256 sum = 0;\n        uint256 i;\n\n        for (i = startWeekNumber; i < endWeekNumber; i++) {\n          sum += getWeeklyInterestRate(i);\n        }\n\n        // Normalize the return to interest/timespan.\n        sum = ((sum * SECONDS_PER_WEEK) + fracitonalSum) / (endTime - startTime);\n        return sum;\n    }\n\n    function getAPYForLevel(uint16 level) public view returns(uint256) {\n        if (level == 1) {\n            return 20000;\n        } else if (level == 2) {\n            if (weeklyInterestRates.length == 0)\n              return 0;\n            return weeklyInterestRates[weeklyInterestRates.length - 1];\n        }\n        return 0;\n    }\n\n    //\n    // Returns the amount of token that is sent to staking to earn BACON rewards\n    //\n    function getStakeAmount(uint16 level, uint256 rawAmount) public pure returns(uint256) {\n        if (level == 1) {\n            return rawAmount.div(2); // 50% of the rewards\n        } else if (level == 2) {\n            return rawAmount;        // 100% of the rewards\n        }\n        return 0;\n    }\n\n\n    function getSecondsPerIteration(uint16 level) private pure returns(uint256) {\n        if (level == 1) {\n            return LEVEL_1_SECONDS_PER_ITERATION;\n        } else if (level == 2) {\n            return LEVEL_2_SECONDS_PER_ITERATION;\n        }\n        return 0;\n    }\n\n    function getNextRewardTimestamp(Boost memory boost) private view returns(uint256) {\n        if (boost.endIteration == 0) {\n            uint256 nextIteration = (block.timestamp - boost.startTime).div(getSecondsPerIteration(boost.level)) + 1;\n            return boost.startTime + getSecondsPerIteration(boost.level).mul(nextIteration);\n        } else {\n            return boost.startTime + getSecondsPerIteration(boost.level).mul(boost.endIteration);\n        }\n    }\n\n    //\n    // Returns a list of token data structures, one for each token owned by the caller.\n    //\n    function getTokens() public view returns(BoostDetail[] memory)\n    {\n        uint256 ownedTokens = balanceOf(msg.sender);\n        BoostDetail[] memory details = new BoostDetail[](ownedTokens);\n        if (ownedTokens == 0) {\n            return details;\n        }\n        uint256 currentDetailIndex = 0;\n        // Index 0 is a placeholder so skip it.\n        for(uint256 currentId = 1; currentId < boostData.length; currentId++) {\n            if (!_exists(currentId) || ownerOf(currentId) != msg.sender){\n                continue;\n            }\n\n            if (currentDetailIndex == details.length){\n                break;\n            }\n\n            Boost storage currentBoost = boostData[currentId];\n            uint256 nextRewardTimestamp = getNextRewardTimestamp(currentBoost);\n            details[currentDetailIndex] = BoostDetail(\n                currentId,\n                currentBoost.startTime,\n                currentBoost.principal,\n                currentBoost.claimedRewards,\n                computeTotalRewards(currentBoost, nextRewardTimestamp),\n                getAPYForLevel(currentBoost.level),\n                nextRewardTimestamp,\n                currentBoost.level,\n                nextRewardTimestamp < block.timestamp,\n                currentBoost.endIteration == 0\n            );\n\n            currentDetailIndex++;\n        }\n\n        return details;\n    }\n\n\n    ///\n    /// Mutations\n    ///\n\n    function approveAccess(address addr) public{\n        require(msg.sender == guardianAddress, \"caller must be guardian\");\n        isApproved[addr] = true;\n    }\n\n    function revokeAccess(address addr) public{\n        require(msg.sender == guardianAddress, \"caller must be guardian\");\n        isApproved[addr] = false;\n    }\n\n    function setBoostBaseUri(string memory _boostBaseURI) public {\n        require(msg.sender == guardianAddress, \"caller must be guardian\");\n        boostBaseURI = _boostBaseURI;\n    }\n\n    function pause() public {\n        require(msg.sender == guardianAddress, \"caller must be guardian\");\n        _pause();\n    }\n\n    function unpause() public {\n        require(msg.sender == guardianAddress, \"caller must be guardian\");\n        _unpause();\n    }\n\n    // Create a boost token\n    function mint(address to, uint256 principal, uint16 level, bool autoRenew) public whenNotPaused nonReentrant returns (bool) {\n        require(isApproved[msg.sender], \"Caller must be approved\");\n        require(level > 0 && level <=2, \"Invalid level\");\n\n        uint16 endIteration = autoRenew ? 0 : 1;\n\n        boostData.push(Boost(SafeCast.toUint64(block.timestamp), SafeCast.toUint64(principal), 0, 0, endIteration, level));\n        uint256 tokenId = boostData.length - 1;\n\n        _safeMint(to, tokenId);\n        \n        return true;\n    }\n\n    function beforeIterationChange(Boost storage boost) private {\n        if (getNextRewardTimestamp(boost) < block.timestamp) {\n            // Boost is mature so we have to record the number of days that it was mature so we can pay interest on them\n            uint256 boostedDuration = getSecondsPerIteration(boost.level).mul(boost.endIteration);\n            boost.additionalMatureSeconds += SafeCast.toUint64(block.timestamp - (boost.startTime + boostedDuration));\n            boost.startTime = SafeCast.toUint64(block.timestamp - boostedDuration);\n        }\n    }\n\n    // Set a boost to auto renew.\n    // if boost is already auto renew do nothing\n    // if boost is not yet mature, just set the iteration count to 0\n    // else boost is mature, stash the additionalMatureSeconds, set startTime to currentBlockTime - iterationCount*iterationDuration and set iterationCount to 0\n    function setToAutoRenew(uint256 boostId) public whenNotPaused{\n        require(ownerOf(boostId) == msg.sender, \"Not the owner\");\n        Boost storage boost = boostData[boostId];\n        if (boost.endIteration == 0) {\n            return;\n        }\n\n        beforeIterationChange(boost);\n\n        boost.endIteration = 0;\n    }\n\n    // End the auto renew on a boost. This will allow it to be claimed when the current iteration is over.\n    function endAutoRenew(uint256 boostId) public whenNotPaused {\n        require(ownerOf(boostId) == msg.sender, \"Not the owner\");\n        Boost storage boost = boostData[boostId];\n        if (boost.endIteration != 0) {\n            return;\n        }\n\n        boost.endIteration = (uint16) ((block.timestamp - boost.startTime).div(getSecondsPerIteration(boost.level)) + 1);\n    }\n\n    // claim the rewards and principal from a boost. This also burns the boost token.\n    function claimPrincipal(uint256 boostId) public whenNotPaused nonReentrant returns (uint256) {\n        require(ownerOf(boostId) == msg.sender, \"Not the owner\");\n        Boost storage boost = boostData[boostId];\n        // endAutoRenew must be called first\n        require(boost.endIteration != 0, \"Must not be autoRenew\");\n        // boost must be mature\n        uint256 nextRewardTimestamp = getNextRewardTimestamp(boost);\n        require(nextRewardTimestamp < block.timestamp, \"Still locked\");\n\n        uint256 claimedRewards = claimRewardsCore(boost, nextRewardTimestamp);\n\n        _burn(boostId);\n        // Portions of the Principal is held by the staking contract so that it can earn bacon.\n        uint256 amountStaked = getStakeAmount(boost.level, boost.principal);\n        PoolStakingRewards5(poolStakingRewardAddress).unstakeForWallet(msg.sender, amountStaked);\n\n        if (amountStaked < boost.principal) {\n            // Return the non-staked boost principal held in this contract\n            IERC20(poolAddress).transfer(msg.sender, boost.principal - amountStaked);\n        }\n\n        return boost.principal + claimedRewards;\n    }\n\n    // Allow users to unstake all HOME staked using the old staking methods.\n    function claimPreBoostStake() public whenNotPaused nonReentrant returns (uint256) {\n        uint256 ownedTokenCount = balanceOf(msg.sender);\n        uint256 stakedAmount = PoolStakingRewards5(poolStakingRewardAddress).getCurrentBalance(msg.sender);\n\n        uint boostStakedAmount = 0;\n        if (ownedTokenCount > 0) {\n            // compute the total amount staked by boosts. This is going to grow in cost as the total number of boosts\n            // grows, but the common case should be calling this once when the caller has 0 boosts.\n            uint256 currentOwnedIndex = 0;\n            // Index 0 is a placeholder so skip it.\n            for(uint256 currentId = 1; currentId < boostData.length; currentId++) {\n                if (!_exists(currentId) || ownerOf(currentId) != msg.sender){\n                    continue;\n                }\n\n                if (currentOwnedIndex == ownedTokenCount){\n                    break;\n                }\n\n                Boost storage boost = boostData[currentId];\n                boostStakedAmount = boostStakedAmount.add(getStakeAmount(boost.level, boost.principal));\n\n                currentOwnedIndex++;\n            }\n        }\n\n        //\n        uint256 amount = stakedAmount.sub(boostStakedAmount);\n\n        PoolStakingRewards5(poolStakingRewardAddress).unstakeForWallet(msg.sender, amount);\n\n        return amount;\n    }\n\n    // Claim all the rewards that can be claimed from this boost. This is only what is earned from past iterations.\n    function claimRewards(uint256 boostId) public whenNotPaused nonReentrant returns (uint256) {\n        // Claim only the rewards that have been earned so far in this boost - the rewards that have already been claimed\n        require(ownerOf(boostId) == msg.sender, \"Not the owner\");\n        Boost storage boost = boostData[boostId];\n        uint256 nextRewardTimestamp = getNextRewardTimestamp(boost);\n\n        return claimRewardsCore(boost, nextRewardTimestamp);\n    }\n\n    function computeTotalRewards(Boost storage boost, uint256 nextRewardTimestamp) private view returns (uint256) {\n        uint256 totalRewardAmount;\n        uint256 newMatureSeconds = 0;\n        uint256 endTime = nextRewardTimestamp < block.timestamp ? nextRewardTimestamp : block.timestamp;\n        uint256 rate = getPerYearRateForLevel(boost.level, boost.startTime, endTime);\n        uint256 secondsPerIteration = getSecondsPerIteration(boost.level);\n        // if the boost is mature, then just udpate how long we've been mature and pay those rewards\n        if (nextRewardTimestamp < block.timestamp) {\n            newMatureSeconds = block.timestamp - nextRewardTimestamp;\n            totalRewardAmount = boost.principal.mul(boost.endIteration.mul(secondsPerIteration)).mul(rate).div(SECONDS_PER_YEAR.mul(10 ** 6));\n        } else {\n            // Otherwise the boost isn't mature. We can pay rewards up to the last full iteration plus whatever has been earned in the current iteration\n            uint256 completeIterations = (block.timestamp - boost.startTime).div(secondsPerIteration);\n            uint256 partialIteration = (block.timestamp - boost.startTime).mod(secondsPerIteration);\n            uint256 rewardPerYear = boost.principal.mul(rate).div(1_000_000);\n            // console.log('completeIterations %s, partial Iteration: %s', completeIterations, partialIteration);\n            totalRewardAmount = rewardPerYear.mul(completeIterations.mul(secondsPerIteration)+partialIteration).div(SECONDS_PER_YEAR);\n        }\n        // console.log('total rewards before mature rewards: %s', totalRewardAmount);\n        totalRewardAmount += boost.principal.mul(10 ** 10).mul(boost.additionalMatureSeconds + newMatureSeconds).div(SECONDS_PER_YEAR);\n        // console.log('total rewards after mature rewards: %s', totalRewardAmount);\n        return totalRewardAmount.div(10**12); // return 6 digits of precision\n    }\n\n    function claimRewardsCore(Boost storage boost, uint256 nextRewardTimestamp) private returns (uint256) {\n        uint256 totalRewardAmount = computeTotalRewards(boost, nextRewardTimestamp);\n        // subtract out the rewards that we have already paid\n        uint256 rewardAmount = totalRewardAmount.sub(boost.claimedRewards);\n        boost.claimedRewards = SafeCast.toUint64(totalRewardAmount);\n\n        // pay the rewards if there are any\n        if (rewardAmount > 0) {\n            Pool13(poolAddress).transferBoostRewards(msg.sender, rewardAmount);\n        }\n\n        return rewardAmount;\n    }\n\n    function appendInterestRate(uint256 newRate) public {\n        require(msg.sender == guardianAddress, \"caller must be guardian\");\n        weeklyInterestRates.push(newRate);\n    }\n\n    function setWeeklyStartTime(uint256 _weeklyStartTime) public {\n        require(msg.sender == guardianAddress, \"caller must be guardian\");\n        weeklyStartTime = _weeklyStartTime;\n    }\n\n    ///\n    /// overrides\n    ///\n\n    function _beforeTokenTransfer(\n        address from,\n        address to,\n        uint256 tokenId\n    ) internal override {\n        // Ignore mint and burn\n        if (from == address(0) || to == address(0)) {\n            return;\n        }\n\n        Boost memory boost = boostData[tokenId];\n\n        uint256 stake = getStakeAmount(boost.level, boost.principal);\n\n        PoolStakingRewards5(poolStakingRewardAddress).transferStake(stake, from, to);\n    }\n}\n",
  "sourcePath": "/src/contracts/HomeBoost/HomeBoost3.sol",
  "compiler": {
    "name": "solc",
    "version": "0.8.9+commit.e5eed63a.Emscripten.clang"
  },
  "schemaVersion": "3.4.7",
  "updatedAt": "2022-10-04T22:54:46.207Z",
  "devdoc": {
    "kind": "dev",
    "methods": {
      "approve(address,uint256)": {
        "details": "See {IERC721-approve}."
      },
      "balanceOf(address)": {
        "details": "See {IERC721-balanceOf}."
      },
      "getApproved(uint256)": {
        "details": "See {IERC721-getApproved}."
      },
      "isApprovedForAll(address,address)": {
        "details": "See {IERC721-isApprovedForAll}."
      },
      "name()": {
        "details": "See {IERC721Metadata-name}."
      },
      "ownerOf(uint256)": {
        "details": "See {IERC721-ownerOf}."
      },
      "paused()": {
        "details": "Returns true if the contract is paused, and false otherwise."
      },
      "safeTransferFrom(address,address,uint256)": {
        "details": "See {IERC721-safeTransferFrom}."
      },
      "safeTransferFrom(address,address,uint256,bytes)": {
        "details": "See {IERC721-safeTransferFrom}."
      },
      "setApprovalForAll(address,bool)": {
        "details": "See {IERC721-setApprovalForAll}."
      },
      "supportsInterface(bytes4)": {
        "details": "See {IERC165-supportsInterface}."
      },
      "symbol()": {
        "details": "See {IERC721Metadata-symbol}."
      },
      "tokenURI(uint256)": {
        "details": "See {IERC721Metadata-tokenURI}."
      },
      "transferFrom(address,address,uint256)": {
        "details": "See {IERC721-transferFrom}."
      }
    },
    "version": 1
  },
  "userdoc": {
    "kind": "user",
    "methods": {
      "approveAccess(address)": {
        "notice": " Mutations"
      }
    },
    "version": 1
  }
}