{
  "contractName": "HomeBoost1",
  "abi": [
    {
      "anonymous": false,
      "inputs": [
        {
          "indexed": true,
          "internalType": "address",
          "name": "owner",
          "type": "address"
        },
        {
          "indexed": true,
          "internalType": "address",
          "name": "approved",
          "type": "address"
        },
        {
          "indexed": true,
          "internalType": "uint256",
          "name": "tokenId",
          "type": "uint256"
        }
      ],
      "name": "Approval",
      "type": "event"
    },
    {
      "anonymous": false,
      "inputs": [
        {
          "indexed": true,
          "internalType": "address",
          "name": "owner",
          "type": "address"
        },
        {
          "indexed": true,
          "internalType": "address",
          "name": "operator",
          "type": "address"
        },
        {
          "indexed": false,
          "internalType": "bool",
          "name": "approved",
          "type": "bool"
        }
      ],
      "name": "ApprovalForAll",
      "type": "event"
    },
    {
      "anonymous": false,
      "inputs": [
        {
          "indexed": false,
          "internalType": "address",
          "name": "account",
          "type": "address"
        }
      ],
      "name": "Paused",
      "type": "event"
    },
    {
      "anonymous": false,
      "inputs": [
        {
          "indexed": true,
          "internalType": "address",
          "name": "from",
          "type": "address"
        },
        {
          "indexed": true,
          "internalType": "address",
          "name": "to",
          "type": "address"
        },
        {
          "indexed": true,
          "internalType": "uint256",
          "name": "tokenId",
          "type": "uint256"
        }
      ],
      "name": "Transfer",
      "type": "event"
    },
    {
      "anonymous": false,
      "inputs": [
        {
          "indexed": false,
          "internalType": "address",
          "name": "account",
          "type": "address"
        }
      ],
      "name": "Unpaused",
      "type": "event"
    },
    {
      "inputs": [
        {
          "internalType": "address",
          "name": "to",
          "type": "address"
        },
        {
          "internalType": "uint256",
          "name": "tokenId",
          "type": "uint256"
        }
      ],
      "name": "approve",
      "outputs": [],
      "stateMutability": "nonpayable",
      "type": "function"
    },
    {
      "inputs": [
        {
          "internalType": "address",
          "name": "owner",
          "type": "address"
        }
      ],
      "name": "balanceOf",
      "outputs": [
        {
          "internalType": "uint256",
          "name": "",
          "type": "uint256"
        }
      ],
      "stateMutability": "view",
      "type": "function",
      "constant": true
    },
    {
      "inputs": [
        {
          "internalType": "uint256",
          "name": "tokenId",
          "type": "uint256"
        }
      ],
      "name": "getApproved",
      "outputs": [
        {
          "internalType": "address",
          "name": "",
          "type": "address"
        }
      ],
      "stateMutability": "view",
      "type": "function",
      "constant": true
    },
    {
      "inputs": [
        {
          "internalType": "address",
          "name": "owner",
          "type": "address"
        },
        {
          "internalType": "address",
          "name": "operator",
          "type": "address"
        }
      ],
      "name": "isApprovedForAll",
      "outputs": [
        {
          "internalType": "bool",
          "name": "",
          "type": "bool"
        }
      ],
      "stateMutability": "view",
      "type": "function",
      "constant": true
    },
    {
      "inputs": [],
      "name": "name",
      "outputs": [
        {
          "internalType": "string",
          "name": "",
          "type": "string"
        }
      ],
      "stateMutability": "view",
      "type": "function",
      "constant": true
    },
    {
      "inputs": [
        {
          "internalType": "uint256",
          "name": "tokenId",
          "type": "uint256"
        }
      ],
      "name": "ownerOf",
      "outputs": [
        {
          "internalType": "address",
          "name": "",
          "type": "address"
        }
      ],
      "stateMutability": "view",
      "type": "function",
      "constant": true
    },
    {
      "inputs": [],
      "name": "paused",
      "outputs": [
        {
          "internalType": "bool",
          "name": "",
          "type": "bool"
        }
      ],
      "stateMutability": "view",
      "type": "function",
      "constant": true
    },
    {
      "inputs": [
        {
          "internalType": "address",
          "name": "from",
          "type": "address"
        },
        {
          "internalType": "address",
          "name": "to",
          "type": "address"
        },
        {
          "internalType": "uint256",
          "name": "tokenId",
          "type": "uint256"
        }
      ],
      "name": "safeTransferFrom",
      "outputs": [],
      "stateMutability": "nonpayable",
      "type": "function"
    },
    {
      "inputs": [
        {
          "internalType": "address",
          "name": "from",
          "type": "address"
        },
        {
          "internalType": "address",
          "name": "to",
          "type": "address"
        },
        {
          "internalType": "uint256",
          "name": "tokenId",
          "type": "uint256"
        },
        {
          "internalType": "bytes",
          "name": "_data",
          "type": "bytes"
        }
      ],
      "name": "safeTransferFrom",
      "outputs": [],
      "stateMutability": "nonpayable",
      "type": "function"
    },
    {
      "inputs": [
        {
          "internalType": "address",
          "name": "operator",
          "type": "address"
        },
        {
          "internalType": "bool",
          "name": "approved",
          "type": "bool"
        }
      ],
      "name": "setApprovalForAll",
      "outputs": [],
      "stateMutability": "nonpayable",
      "type": "function"
    },
    {
      "inputs": [
        {
          "internalType": "bytes4",
          "name": "interfaceId",
          "type": "bytes4"
        }
      ],
      "name": "supportsInterface",
      "outputs": [
        {
          "internalType": "bool",
          "name": "",
          "type": "bool"
        }
      ],
      "stateMutability": "view",
      "type": "function",
      "constant": true
    },
    {
      "inputs": [],
      "name": "symbol",
      "outputs": [
        {
          "internalType": "string",
          "name": "",
          "type": "string"
        }
      ],
      "stateMutability": "view",
      "type": "function",
      "constant": true
    },
    {
      "inputs": [
        {
          "internalType": "uint256",
          "name": "tokenId",
          "type": "uint256"
        }
      ],
      "name": "tokenURI",
      "outputs": [
        {
          "internalType": "string",
          "name": "",
          "type": "string"
        }
      ],
      "stateMutability": "view",
      "type": "function",
      "constant": true
    },
    {
      "inputs": [
        {
          "internalType": "address",
          "name": "from",
          "type": "address"
        },
        {
          "internalType": "address",
          "name": "to",
          "type": "address"
        },
        {
          "internalType": "uint256",
          "name": "tokenId",
          "type": "uint256"
        }
      ],
      "name": "transferFrom",
      "outputs": [],
      "stateMutability": "nonpayable",
      "type": "function"
    },
    {
      "inputs": [
        {
          "internalType": "string",
          "name": "name",
          "type": "string"
        },
        {
          "internalType": "string",
          "name": "symbol",
          "type": "string"
        },
        {
          "internalType": "address",
          "name": "_guardianAddress",
          "type": "address"
        },
        {
          "internalType": "address",
          "name": "_poolAddress",
          "type": "address"
        },
        {
          "internalType": "address",
          "name": "_poolStakingRewardAddress",
          "type": "address"
        }
      ],
      "name": "initialize",
      "outputs": [],
      "stateMutability": "nonpayable",
      "type": "function"
    },
    {
      "inputs": [
        {
          "internalType": "uint256",
          "name": "tokenId",
          "type": "uint256"
        }
      ],
      "name": "getRawTokenData",
      "outputs": [
        {
          "components": [
            {
              "internalType": "uint64",
              "name": "startTime",
              "type": "uint64"
            },
            {
              "internalType": "uint64",
              "name": "principal",
              "type": "uint64"
            },
            {
              "internalType": "uint64",
              "name": "claimedRewards",
              "type": "uint64"
            },
            {
              "internalType": "uint64",
              "name": "additionalMatureSeconds",
              "type": "uint64"
            },
            {
              "internalType": "uint16",
              "name": "endIteration",
              "type": "uint16"
            },
            {
              "internalType": "uint16",
              "name": "level",
              "type": "uint16"
            }
          ],
          "internalType": "struct HomeBoost1.Boost",
          "name": "",
          "type": "tuple"
        }
      ],
      "stateMutability": "view",
      "type": "function",
      "constant": true
    },
    {
      "inputs": [
        {
          "internalType": "uint256",
          "name": "week",
          "type": "uint256"
        }
      ],
      "name": "getWeeklyInterestRate",
      "outputs": [
        {
          "internalType": "uint256",
          "name": "",
          "type": "uint256"
        }
      ],
      "stateMutability": "view",
      "type": "function",
      "constant": true
    },
    {
      "inputs": [
        {
          "internalType": "uint64",
          "name": "startTime",
          "type": "uint64"
        },
        {
          "internalType": "uint256",
          "name": "endTime",
          "type": "uint256"
        }
      ],
      "name": "getPerIterationRateForLevel2",
      "outputs": [
        {
          "internalType": "uint256",
          "name": "",
          "type": "uint256"
        }
      ],
      "stateMutability": "view",
      "type": "function",
      "constant": true
    },
    {
      "inputs": [
        {
          "internalType": "uint16",
          "name": "level",
          "type": "uint16"
        }
      ],
      "name": "getAPYForLevel",
      "outputs": [
        {
          "internalType": "uint256",
          "name": "",
          "type": "uint256"
        }
      ],
      "stateMutability": "view",
      "type": "function",
      "constant": true
    },
    {
      "inputs": [
        {
          "internalType": "uint16",
          "name": "level",
          "type": "uint16"
        },
        {
          "internalType": "uint256",
          "name": "rawAmount",
          "type": "uint256"
        }
      ],
      "name": "getStakeAmount",
      "outputs": [
        {
          "internalType": "uint256",
          "name": "",
          "type": "uint256"
        }
      ],
      "stateMutability": "pure",
      "type": "function",
      "constant": true
    },
    {
      "inputs": [],
      "name": "getTokens",
      "outputs": [
        {
          "components": [
            {
              "internalType": "uint256",
              "name": "id",
              "type": "uint256"
            },
            {
              "internalType": "uint256",
              "name": "startTime",
              "type": "uint256"
            },
            {
              "internalType": "uint256",
              "name": "principal",
              "type": "uint256"
            },
            {
              "internalType": "uint256",
              "name": "claimedRewards",
              "type": "uint256"
            },
            {
              "internalType": "uint256",
              "name": "totalRewards",
              "type": "uint256"
            },
            {
              "internalType": "uint256",
              "name": "apy",
              "type": "uint256"
            },
            {
              "internalType": "uint256",
              "name": "nextRewardTimestamp",
              "type": "uint256"
            },
            {
              "internalType": "uint16",
              "name": "level",
              "type": "uint16"
            },
            {
              "internalType": "bool",
              "name": "isComplete",
              "type": "bool"
            },
            {
              "internalType": "bool",
              "name": "isAutoRenew",
              "type": "bool"
            }
          ],
          "internalType": "struct HomeBoost1.BoostDetail[]",
          "name": "",
          "type": "tuple[]"
        }
      ],
      "stateMutability": "view",
      "type": "function",
      "constant": true
    },
    {
      "inputs": [
        {
          "internalType": "address",
          "name": "addr",
          "type": "address"
        }
      ],
      "name": "approveAccess",
      "outputs": [],
      "stateMutability": "nonpayable",
      "type": "function"
    },
    {
      "inputs": [
        {
          "internalType": "address",
          "name": "addr",
          "type": "address"
        }
      ],
      "name": "revokeAccess",
      "outputs": [],
      "stateMutability": "nonpayable",
      "type": "function"
    },
    {
      "inputs": [
        {
          "internalType": "string",
          "name": "_boostBaseURI",
          "type": "string"
        }
      ],
      "name": "setBoostBaseUri",
      "outputs": [],
      "stateMutability": "nonpayable",
      "type": "function"
    },
    {
      "inputs": [],
      "name": "pause",
      "outputs": [],
      "stateMutability": "nonpayable",
      "type": "function"
    },
    {
      "inputs": [],
      "name": "unpause",
      "outputs": [],
      "stateMutability": "nonpayable",
      "type": "function"
    },
    {
      "inputs": [
        {
          "internalType": "address",
          "name": "to",
          "type": "address"
        },
        {
          "internalType": "uint256",
          "name": "principal",
          "type": "uint256"
        },
        {
          "internalType": "uint16",
          "name": "level",
          "type": "uint16"
        },
        {
          "internalType": "bool",
          "name": "autoRenew",
          "type": "bool"
        }
      ],
      "name": "mint",
      "outputs": [
        {
          "internalType": "bool",
          "name": "",
          "type": "bool"
        }
      ],
      "stateMutability": "nonpayable",
      "type": "function"
    },
    {
      "inputs": [
        {
          "internalType": "uint256",
          "name": "boostId",
          "type": "uint256"
        }
      ],
      "name": "setToAutoRenew",
      "outputs": [],
      "stateMutability": "nonpayable",
      "type": "function"
    },
    {
      "inputs": [
        {
          "internalType": "uint256",
          "name": "boostId",
          "type": "uint256"
        }
      ],
      "name": "endAutoRenew",
      "outputs": [],
      "stateMutability": "nonpayable",
      "type": "function"
    },
    {
      "inputs": [
        {
          "internalType": "uint256",
          "name": "boostId",
          "type": "uint256"
        }
      ],
      "name": "claimPrincipal",
      "outputs": [
        {
          "internalType": "uint256",
          "name": "",
          "type": "uint256"
        }
      ],
      "stateMutability": "nonpayable",
      "type": "function"
    },
    {
      "inputs": [],
      "name": "claimPreBoostStake",
      "outputs": [
        {
          "internalType": "uint256",
          "name": "",
          "type": "uint256"
        }
      ],
      "stateMutability": "nonpayable",
      "type": "function"
    },
    {
      "inputs": [
        {
          "internalType": "uint256",
          "name": "boostId",
          "type": "uint256"
        }
      ],
      "name": "claimRewards",
      "outputs": [
        {
          "internalType": "uint256",
          "name": "",
          "type": "uint256"
        }
      ],
      "stateMutability": "nonpayable",
      "type": "function"
    },
    {
      "inputs": [
        {
          "internalType": "uint256",
          "name": "newRate",
          "type": "uint256"
        }
      ],
      "name": "appendInterestRate",
      "outputs": [],
      "stateMutability": "nonpayable",
      "type": "function"
    },
    {
      "inputs": [
        {
          "internalType": "uint256",
          "name": "_weeklyStartTime",
          "type": "uint256"
        }
      ],
      "name": "setWeeklyStartTime",
      "outputs": [],
      "stateMutability": "nonpayable",
      "type": "function"
    }
  ],
  "bytecode": "0x608060405234801561001057600080fd5b50614059806100206000396000f3fe608060405234801561001057600080fd5b50600436106102265760003560e01c80638400adfc1161012a578063b88d4fde116100bd578063db0ed6a01161008c578063e985e9c511610071578063e985e9c5146104ed578063f9af057914610529578063fb14dc931461053c57600080fd5b8063db0ed6a0146104c7578063e68ec4f5146104da57600080fd5b8063b88d4fde14610486578063b90bb87614610499578063c87b56dd146104ac578063ced93cba146104bf57600080fd5b80639e0b6ae5116100f95780639e0b6ae514610438578063a22cb4651461044b578063a2b4eaae1461045e578063aa6ca8081461047157600080fd5b80638400adfc146104025780638456cb591461041557806385e685311461041d57806395d89b411461043057600080fd5b806323b872dd116101bd5780635c975abb1161018c5780636352211e116101715780636352211e146103c9578063705211f4146103dc57806370a08231146103ef57600080fd5b80635c975abb146103ab5780635cbce351146103b657600080fd5b806323b872dd1461036a5780633f4ba83a1461037d57806342842e0e14610385578063561abab11461039857600080fd5b8063095ea7b3116101f9578063095ea7b3146102a85780630962ef79146102bb57806317b74c36146102dc5780631ec2128c146102ef57600080fd5b806301ffc9a71461022b57806306fdde0314610253578063081812fc1461026857806309149aeb14610293575b600080fd5b61023e610239366004613922565b61054f565b60405190151581526020015b60405180910390f35b61025b610634565b60405161024a9190613997565b61027b6102763660046139aa565b6106c6565b6040516001600160a01b03909116815260200161024a565b6102a66102a13660046139aa565b610771565b005b6102a66102b63660046139da565b6108a1565b6102ce6102c93660046139aa565b6109d3565b60405190815260200161024a565b6102ce6102ea366004613a16565b610b7b565b6103026102fd3660046139aa565b610be9565b60405161024a9190600060c08201905067ffffffffffffffff80845116835280602085015116602084015280604085015116604084015280606085015116606084015250608083015161ffff80821660808501528060a08601511660a0850152505092915050565b6102a6610378366004613a31565b610caf565b6102a6610d36565b6102a6610393366004613a31565b610d9a565b6102ce6103a6366004613a6d565b610db5565b60335460ff1661023e565b6102a66103c43660046139aa565b611050565b61027b6103d73660046139aa565b6110af565b6102a66103ea366004613a98565b61113a565b6102ce6103fd366004613a98565b6111b9565b6102ce610410366004613ab3565b611253565b6102a6611291565b6102a661042b366004613a98565b6112f3565b61025b61136f565b6102a6610446366004613b7b565b61137e565b6102a6610459366004613bbe565b6113f0565b6102ce61046c3660046139aa565b6113fb565b610479611422565b60405161024a9190613bf5565b6102a6610494366004613ca0565b6116c8565b6102a66104a73660046139aa565b611756565b61025b6104ba3660046139aa565b6117e5565b6102ce6118ce565b6102a66104d5366004613d1c565b611b9d565b61023e6104e8366004613db2565b611e42565b61023e6104fb366004613e01565b6001600160a01b03918216600090815260ce6020908152604080832093909416825291909152205460ff1690565b6102ce6105373660046139aa565b6120c7565b6102a661054a3660046139aa565b6124d7565b60007fffffffff0000000000000000000000000000000000000000000000000000000082167f80ac58cd0000000000000000000000000000000000000000000000000000000014806105e257507fffffffff0000000000000000000000000000000000000000000000000000000082167f5b5e139f00000000000000000000000000000000000000000000000000000000145b8061062e57507f01ffc9a7000000000000000000000000000000000000000000000000000000007fffffffff000000000000000000000000000000000000000000000000000000008316145b92915050565b606060c9805461064390613e34565b80601f016020809104026020016040519081016040528092919081815260200182805461066f90613e34565b80156106bc5780601f10610691576101008083540402835291602001916106bc565b820191906000526020600020905b81548152906001019060200180831161069f57829003601f168201915b5050505050905090565b600081815260cb60205260408120546001600160a01b03166107555760405162461bcd60e51b815260206004820152602c60248201527f4552433732313a20617070726f76656420717565727920666f72206e6f6e657860448201527f697374656e7420746f6b656e000000000000000000000000000000000000000060648201526084015b60405180910390fd5b50600090815260cd60205260409020546001600160a01b031690565b60335460ff16156107b75760405162461bcd60e51b815260206004820152601060248201526f14185d5cd8589b194e881c185d5cd95960821b604482015260640161074c565b336107c1826110af565b6001600160a01b0316146108075760405162461bcd60e51b815260206004820152600d60248201526c2737ba103a34329037bbb732b960991b604482015260640161074c565b600060fb828154811061081c5761081c613e6f565b60009182526020909120600290910201600181015490915061ffff1615610841575050565b60018101546108799061085d9062010000900461ffff166125be565b82546108739067ffffffffffffffff1642613e9b565b906125f7565b610884906001613eb2565b600191909101805461ffff191661ffff9092169190911790555b50565b60006108ac826110af565b9050806001600160a01b0316836001600160a01b031614156109365760405162461bcd60e51b815260206004820152602160248201527f4552433732313a20617070726f76616c20746f2063757272656e74206f776e6560448201527f7200000000000000000000000000000000000000000000000000000000000000606482015260840161074c565b336001600160a01b0382161480610952575061095281336104fb565b6109c45760405162461bcd60e51b815260206004820152603860248201527f4552433732313a20617070726f76652063616c6c6572206973206e6f74206f7760448201527f6e6572206e6f7220617070726f76656420666f7220616c6c0000000000000000606482015260840161074c565b6109ce8383612603565b505050565b60006109e160335460ff1690565b15610a215760405162461bcd60e51b815260206004820152601060248201526f14185d5cd8589b194e881c185d5cd95960821b604482015260640161074c565b60026065541415610a745760405162461bcd60e51b815260206004820152601f60248201527f5265656e7472616e637947756172643a207265656e7472616e742063616c6c00604482015260640161074c565b600260655533610a83836110af565b6001600160a01b031614610ac95760405162461bcd60e51b815260206004820152600d60248201526c2737ba103a34329037bbb732b960991b604482015260640161074c565b600060fb8381548110610ade57610ade613e6f565b600091825260208083206040805160c0810182526002909402909101805467ffffffffffffffff8082168652600160401b8204811694860194909452600160801b8104841692850192909252600160c01b9091049091166060830152600181015461ffff8082166080850152620100009091041660a08301529250610b629061267e565b9050610b6e8282612727565b6001606555949350505050565b60008161ffff1660011415610b935750614e20919050565b8161ffff1660021415610be15760fd54610baf57506000919050565b60fd8054610bbf90600190613e9b565b81548110610bcf57610bcf613e6f565b90600052602060002001549050919050565b506000919050565b6040805160c081018252600080825260208201819052918101829052606081018290526080810182905260a081019190915260fb8281548110610c2e57610c2e613e6f565b60009182526020918290206040805160c0810182526002909302909101805467ffffffffffffffff8082168552600160401b8204811695850195909552600160801b8104851692840192909252600160c01b909104909216606082015260019091015461ffff8082166080840152620100009091041660a082015292915050565b610cb9338261282b565b610d2b5760405162461bcd60e51b815260206004820152603160248201527f4552433732313a207472616e736665722063616c6c6572206973206e6f74206f60448201527f776e6572206e6f7220617070726f766564000000000000000000000000000000606482015260840161074c565b6109ce83838361292f565b60ff546001600160a01b03163314610d905760405162461bcd60e51b815260206004820152601760248201527f63616c6c6572206d75737420626520677561726469616e000000000000000000604482015260640161074c565b610d98612b09565b565b6109ce838383604051806020016040528060008152506116c8565b60fd546000901580610dd05750818367ffffffffffffffff16145b15610ddd5750600061062e565b60fc548367ffffffffffffffff161015610e5f5760405162461bcd60e51b815260206004820152603360248201527f737461727454696d65206d75737420626520677265617465722062656361757360448201527f65206e6567617469766573206172652062616400000000000000000000000000606482015260840161074c565b6000610e6f620151806007613eca565b60fc54610e869067ffffffffffffffff8716613e9b565b610e909190613eff565b90506000610ea2620151806007613eca565b60fc54610eb99067ffffffffffffffff8816613e9b565b610ec39190613f13565b9050610ed3620151806007613eca565b81610ee2620151806007613eca565b610eec9190613e9b565b610ef69190613f13565b90506000610f08620151806007613eca565b60fc54610f159087613e9b565b610f1f9190613eff565b90506000610f31620151806007613eca565b60fc54610f3e9088613e9b565b610f489190613f13565b9050600081610f56846113fb565b610f609190613eca565b9050610f6c8584613e9b565b610f9a57610f8467ffffffffffffffff891688613e9b565b610f8e9082613eff565b9550505050505061062e565b83610fa4866113fb565b610fae9190613eca565b610fb89082613eb2565b90508315610fce57610fcb600186613eb2565b94505b6000855b8481101561100157610fe3816113fb565b610fed9083613eb2565b915080610ff981613f27565b915050610fd2565b61101567ffffffffffffffff8b168a613e9b565b83611024620151806007613eca565b61102e9085613eca565b6110389190613eb2565b6110429190613eff565b9a9950505050505050505050565b60ff546001600160a01b031633146110aa5760405162461bcd60e51b815260206004820152601760248201527f63616c6c6572206d75737420626520677561726469616e000000000000000000604482015260640161074c565b60fc55565b600081815260cb60205260408120546001600160a01b03168061062e5760405162461bcd60e51b815260206004820152602960248201527f4552433732313a206f776e657220717565727920666f72206e6f6e657869737460448201527f656e7420746f6b656e0000000000000000000000000000000000000000000000606482015260840161074c565b60ff546001600160a01b031633146111945760405162461bcd60e51b815260206004820152601760248201527f63616c6c6572206d75737420626520677561726469616e000000000000000000604482015260640161074c565b6001600160a01b0316600090815261010160205260409020805460ff19166001179055565b60006001600160a01b0382166112375760405162461bcd60e51b815260206004820152602a60248201527f4552433732313a2062616c616e636520717565727920666f7220746865207a6560448201527f726f206164647265737300000000000000000000000000000000000000000000606482015260840161074c565b506001600160a01b0316600090815260cc602052604090205490565b60008261ffff16600114156112745761126d8260026125f7565b905061062e565b8261ffff166002141561128857508061062e565b50600092915050565b60ff546001600160a01b031633146112eb5760405162461bcd60e51b815260206004820152601760248201527f63616c6c6572206d75737420626520677561726469616e000000000000000000604482015260640161074c565b610d98612ba5565b60ff546001600160a01b0316331461134d5760405162461bcd60e51b815260206004820152601760248201527f63616c6c6572206d75737420626520677561726469616e000000000000000000604482015260640161074c565b6001600160a01b0316600090815261010160205260409020805460ff19169055565b606060ca805461064390613e34565b60ff546001600160a01b031633146113d85760405162461bcd60e51b815260206004820152601760248201527f63616c6c6572206d75737420626520677561726469616e000000000000000000604482015260640161074c565b80516113ec90610102906020840190613864565b5050565b6113ec338383612c20565b60fd54600090821061140f57506000919050565b60fd8281548110610bcf57610bcf613e6f565b6060600061142f336111b9565b905060008167ffffffffffffffff81111561144c5761144c613acf565b6040519080825280602002602001820160405280156114db57816020015b6114c860405180610140016040528060008152602001600081526020016000815260200160008152602001600081526020016000815260200160008152602001600061ffff1681526020016000151581526020016000151581525090565b81526020019060019003908161146a5790505b509050816114e95792915050565b600060015b60fb548110156116bf57600081815260cb60205260409020546001600160a01b0316158061152d575033611521826110af565b6001600160a01b031614155b15611537576116ad565b8251821415611545576116bf565b600060fb828154811061155a5761155a613e6f565b600091825260208083206040805160c0810182526002909402909101805467ffffffffffffffff8082168652600160401b8204811694860194909452600160801b8104841692850192909252600160c01b9091049091166060830152600181015461ffff8082166080850152620100009091041660a083015292506115de9061267e565b6040805161014081018252858152845467ffffffffffffffff8082166020840152600160401b8204811693830193909352600160801b900490911660608201529091506080810161162f8484612cef565b815260200161164f8460010160029054906101000a900461ffff16610b7b565b815260208101839052600184015461ffff6201000082048116604084015242851060608401521615608090910152855186908690811061169157611691613e6f565b602002602001018190525083806116a790613f27565b94505050505b806116b781613f27565b9150506114ee565b50909392505050565b6116d2338361282b565b6117445760405162461bcd60e51b815260206004820152603160248201527f4552433732313a207472616e736665722063616c6c6572206973206e6f74206f60448201527f776e6572206e6f7220617070726f766564000000000000000000000000000000606482015260840161074c565b61175084848484612e5c565b50505050565b60ff546001600160a01b031633146117b05760405162461bcd60e51b815260206004820152601760248201527f63616c6c6572206d75737420626520677561726469616e000000000000000000604482015260640161074c565b60fd80546001810182556000919091527f9346ac6dd7de6b96975fec380d4d994c4c12e6a8897544f22915316cc6cca2800155565b600081815260cb60205260409020546060906001600160a01b03166118725760405162461bcd60e51b815260206004820152602f60248201527f4552433732314d657461646174613a2055524920717565727920666f72206e6f60448201527f6e6578697374656e7420746f6b656e0000000000000000000000000000000000606482015260840161074c565b600061187c612ee5565b9050600081511161189c57604051806020016040528060008152506118c7565b806118a684612ef5565b6040516020016118b7929190613f42565b6040516020818303038152906040525b9392505050565b60006118dc60335460ff1690565b1561191c5760405162461bcd60e51b815260206004820152601060248201526f14185d5cd8589b194e881c185d5cd95960821b604482015260640161074c565b6002606554141561196f5760405162461bcd60e51b815260206004820152601f60248201527f5265656e7472616e637947756172643a207265656e7472616e742063616c6c00604482015260640161074c565b6002606555600061197f336111b9565b610100546040517f440277e80000000000000000000000000000000000000000000000000000000081523360048201529192506000916001600160a01b039091169063440277e89060240160206040518083038186803b1580156119e257600080fd5b505afa1580156119f6573d6000803e3d6000fd5b505050506040513d601f19601f82011682018060405250810190611a1a9190613f71565b905060008215611b0457600060015b60fb54811015611b0157600081815260cb60205260409020546001600160a01b03161580611a68575033611a5c826110af565b6001600160a01b031614155b15611a7257611aef565b84821415611a7f57611b01565b600060fb8281548110611a9457611a94613e6f565b6000918252602090912060029091020160018101548154919250611ade91611ad79162010000900461ffff1690600160401b900467ffffffffffffffff16611253565b8590613027565b935082611aea81613f27565b935050505b80611af981613f27565b915050611a29565b50505b6000611b108383613033565b610100546040517f6a7b408b000000000000000000000000000000000000000000000000000000008152336004820152602481018390529192506001600160a01b031690636a7b408b90604401600060405180830381600087803b158015611b7757600080fd5b505af1158015611b8b573d6000803e3d6000fd5b50929650505050505050600160655590565b600054610100900460ff16611bb85760005460ff1615611bbc565b303b155b611c2e5760405162461bcd60e51b815260206004820152602e60248201527f496e697469616c697a61626c653a20636f6e747261637420697320616c72656160448201527f647920696e697469616c697a6564000000000000000000000000000000000000606482015260840161074c565b600054610100900460ff16158015611c50576000805461ffff19166101011790555b6001600160a01b03808416600081815261010160205260409020805460ff1916600117905560fe805473ffffffffffffffffffffffffffffffffffffffff19908116909217905560ff8054878416908316179055610100805492851692909116919091179055611cc0868661303f565b60fb54611e0b576040805160c081018252600080825260208201818152928201818152606083018281526080840183815260a0850184815260fb80546001810182559552945160029094027f3e7257b7272bb46d49cd6019b04ddee20da7c0cb13f7c1ec3391291b2ccebabc8101805497519451935167ffffffffffffffff908116600160c01b0277ffffffffffffffffffffffffffffffffffffffffffffffff958216600160801b02959095166fffffffffffffffffffffffffffffffff968216600160401b027fffffffffffffffffffffffffffffffff00000000000000000000000000000000909a16979091169690961797909717939093169390931717909355517f3e7257b7272bb46d49cd6019b04ddee20da7c0cb13f7c1ec3391291b2ccebabd9092018054915161ffff908116620100000263ffffffff199093169316929092171790555b8015611e3a57600080547fffffffffffffffffffffffffffffffffffffffffffffffffffffffffffff00ff1690555b505050505050565b6000611e5060335460ff1690565b15611e905760405162461bcd60e51b815260206004820152601060248201526f14185d5cd8589b194e881c185d5cd95960821b604482015260640161074c565b60026065541415611ee35760405162461bcd60e51b815260206004820152601f60248201527f5265656e7472616e637947756172643a207265656e7472616e742063616c6c00604482015260640161074c565b6002606555336000908152610101602052604090205460ff16611f485760405162461bcd60e51b815260206004820152601760248201527f43616c6c6572206d75737420626520617070726f766564000000000000000000604482015260640161074c565b600082611f56576001611f59565b60005b60ff16905060fb6040518060c00160405280611f74426130d6565b67ffffffffffffffff168152602001611f8c886130d6565b67ffffffffffffffff908116825260006020808401829052604080850183905261ffff8089166060808801919091528c8216608097880152885460018181018b5599865284862089516002909202018054958a0151948a0151928a01518816600160c01b0277ffffffffffffffffffffffffffffffffffffffffffffffff938916600160801b02939093166fffffffffffffffffffffffffffffffff958916600160401b027fffffffffffffffffffffffffffffffff00000000000000000000000000000000909716929098169190911794909417929092169490941717815592840151928501805460a0909501518316620100000263ffffffff1990951693909216929092179290921790915560fb5490916120a891613e9b565b90506120b4878261315a565b6001925050506001606555949350505050565b60006120d560335460ff1690565b156121155760405162461bcd60e51b815260206004820152601060248201526f14185d5cd8589b194e881c185d5cd95960821b604482015260640161074c565b600260655414156121685760405162461bcd60e51b815260206004820152601f60248201527f5265656e7472616e637947756172643a207265656e7472616e742063616c6c00604482015260640161074c565b600260655533612177836110af565b6001600160a01b0316146121bd5760405162461bcd60e51b815260206004820152600d60248201526c2737ba103a34329037bbb732b960991b604482015260640161074c565b600060fb83815481106121d2576121d2613e6f565b60009182526020909120600290910201600181015490915061ffff1661223a5760405162461bcd60e51b815260206004820152601560248201527f4d757374206e6f74206265206175746f52656e65770000000000000000000000604482015260640161074c565b6040805160c081018252825467ffffffffffffffff8082168352600160401b820481166020840152600160801b8204811693830193909352600160c01b90049091166060820152600182015461ffff8082166080840152620100009091041660a08201526000906122aa9061267e565b90504281106122fb5760405162461bcd60e51b815260206004820152600c60248201527f5374696c6c206c6f636b65640000000000000000000000000000000000000000604482015260640161074c565b60006123078383612727565b905061231285613174565b60018301548354600091612342916201000090910461ffff1690600160401b900467ffffffffffffffff16611253565b610100546040517f6a7b408b000000000000000000000000000000000000000000000000000000008152336004820152602481018390529192506001600160a01b031690636a7b408b90604401600060405180830381600087803b1580156123a957600080fd5b505af11580156123bd573d6000803e3d6000fd5b50508554600160401b900467ffffffffffffffff1683101591506124aa90505760fe5484546001600160a01b039091169063a9059cbb903390612412908590600160401b900467ffffffffffffffff16613e9b565b6040517fffffffff0000000000000000000000000000000000000000000000000000000060e085901b1681526001600160a01b0390921660048301526024820152604401602060405180830381600087803b15801561247057600080fd5b505af1158015612484573d6000803e3d6000fd5b505050506040513d601f19601f820116820180604052508101906124a89190613f8a565b505b83546124c8908390600160401b900467ffffffffffffffff16613eb2565b60016065559695505050505050565b60335460ff161561251d5760405162461bcd60e51b815260206004820152601060248201526f14185d5cd8589b194e881c185d5cd95960821b604482015260640161074c565b33612527826110af565b6001600160a01b03161461256d5760405162461bcd60e51b815260206004820152600d60248201526c2737ba103a34329037bbb732b960991b604482015260640161074c565b600060fb828154811061258257612582613e6f565b60009182526020909120600290910201600181015490915061ffff166125a6575050565b6125af8161321c565b600101805461ffff1916905550565b60008161ffff16600114156125db5761062e62015180605a613eca565b8161ffff1660021415610be15761062e6201518061016d613eca565b60006118c78284613eff565b600081815260cd60205260409020805473ffffffffffffffffffffffffffffffffffffffff19166001600160a01b0384169081179091558190612645826110af565b6001600160a01b03167f8c5be1e5ebec7d5bd14f71427d1e84f3dd0314c0f7b2291e5b200ac8c7c3b92560405160405180910390a45050565b6000816080015161ffff16600014156126f35760006126b96126a38460a001516125be565b84516108739067ffffffffffffffff1642613e9b565b6126c4906001613eb2565b90506126dd816126d78560a001516125be565b90613372565b83516118c7919067ffffffffffffffff16613eb2565b61270c826080015161ffff166126d78460a001516125be565b825161062e919067ffffffffffffffff16613eb2565b919050565b6000806127348484612cef565b8454909150600090612758908390600160801b900467ffffffffffffffff16613033565b9050612763826130d6565b855467ffffffffffffffff91909116600160801b027fffffffffffffffff0000000000000000ffffffffffffffffffffffffffffffff90911617855580156128235760fe546040517f56ff0715000000000000000000000000000000000000000000000000000000008152336004820152602481018390526001600160a01b03909116906356ff071590604401600060405180830381600087803b15801561280a57600080fd5b505af115801561281e573d6000803e3d6000fd5b505050505b949350505050565b600081815260cb60205260408120546001600160a01b03166128b55760405162461bcd60e51b815260206004820152602c60248201527f4552433732313a206f70657261746f7220717565727920666f72206e6f6e657860448201527f697374656e7420746f6b656e0000000000000000000000000000000000000000606482015260840161074c565b60006128c0836110af565b9050806001600160a01b0316846001600160a01b031614806128fb5750836001600160a01b03166128f0846106c6565b6001600160a01b0316145b8061282357506001600160a01b03808216600090815260ce602090815260408083209388168352929052205460ff16612823565b826001600160a01b0316612942826110af565b6001600160a01b0316146129be5760405162461bcd60e51b815260206004820152602960248201527f4552433732313a207472616e73666572206f6620746f6b656e2074686174206960448201527f73206e6f74206f776e0000000000000000000000000000000000000000000000606482015260840161074c565b6001600160a01b038216612a395760405162461bcd60e51b8152602060048201526024808201527f4552433732313a207472616e7366657220746f20746865207a65726f2061646460448201527f7265737300000000000000000000000000000000000000000000000000000000606482015260840161074c565b612a44600082612603565b6001600160a01b038316600090815260cc60205260408120805460019290612a6d908490613e9b565b90915550506001600160a01b038216600090815260cc60205260408120805460019290612a9b908490613eb2565b9091555050600081815260cb6020526040808220805473ffffffffffffffffffffffffffffffffffffffff19166001600160a01b0386811691821790925591518493918716917fddf252ad1be2c89b69c2b068fc378daa952ba7f163c4a11628f55a4df523b3ef91a4505050565b60335460ff16612b5b5760405162461bcd60e51b815260206004820152601460248201527f5061757361626c653a206e6f7420706175736564000000000000000000000000604482015260640161074c565b6033805460ff191690557f5db9ee0a495bf2e6ff9c91a7834c1ba4fdd244a5e8aa4e537bd38aeae4b073aa335b6040516001600160a01b03909116815260200160405180910390a1565b60335460ff1615612beb5760405162461bcd60e51b815260206004820152601060248201526f14185d5cd8589b194e881c185d5cd95960821b604482015260640161074c565b6033805460ff191660011790557f62e78cea01bee320cd4e420270b5ea74000d11b0c9f74754ebdbfc544b05a258612b883390565b816001600160a01b0316836001600160a01b03161415612c825760405162461bcd60e51b815260206004820152601960248201527f4552433732313a20617070726f766520746f2063616c6c657200000000000000604482015260640161074c565b6001600160a01b03838116600081815260ce6020908152604080832094871680845294825291829020805460ff191686151590811790915591519182527f17307eab39ab6107e8899845ad3d59bd9653f200f220920489ca2b5937696c31910160405180910390a3505050565b600080600042841015612d6a57612d068442613e9b565b60018601548654919250612d6391620f42409161087391612d3c9162010000900461ffff169067ffffffffffffffff168961337e565b600189015489546126d791600160401b90910467ffffffffffffffff169061ffff16613372565b9150612df7565b6000612da0612d8a8760010160029054906101000a900461ffff166125be565b87546108739067ffffffffffffffff1642613e9b565b60018701548754919250612df391620f42409161087391612dd69162010000900461ffff169067ffffffffffffffff164261337e565b89546126d790600160401b900467ffffffffffffffff1686613372565b9250505b612e496064610873612e0e6201518061016d613eca565b885461087390612e30908790600160c01b900467ffffffffffffffff16613eb2565b8a54600160401b900467ffffffffffffffff1690613372565b612e539083613eb2565b95945050505050565b612e6784848461292f565b612e73848484846133be565b6117505760405162461bcd60e51b815260206004820152603260248201527f4552433732313a207472616e7366657220746f206e6f6e20455243373231526560448201527f63656976657220696d706c656d656e7465720000000000000000000000000000606482015260840161074c565b6060610102805461064390613e34565b606081612f3557505060408051808201909152600181527f3000000000000000000000000000000000000000000000000000000000000000602082015290565b8160005b8115612f5f5780612f4981613f27565b9150612f589050600a83613eff565b9150612f39565b60008167ffffffffffffffff811115612f7a57612f7a613acf565b6040519080825280601f01601f191660200182016040528015612fa4576020820181803683370190505b5090505b841561282357612fb9600183613e9b565b9150612fc6600a86613f13565b612fd1906030613eb2565b60f81b818381518110612fe657612fe6613e6f565b60200101907effffffffffffffffffffffffffffffffffffffffffffffffffffffffffffff1916908160001a905350613020600a86613eff565b9450612fa8565b60006118c78284613eb2565b60006118c78284613e9b565b600054610100900460ff166130bc5760405162461bcd60e51b815260206004820152602b60248201527f496e697469616c697a61626c653a20636f6e7472616374206973206e6f74206960448201527f6e697469616c697a696e67000000000000000000000000000000000000000000606482015260840161074c565b6130c461356b565b6130cc61356b565b6113ec82826135e8565b600067ffffffffffffffff8211156131565760405162461bcd60e51b815260206004820152602660248201527f53616665436173743a2076616c756520646f65736e27742066697420696e203660448201527f3420626974730000000000000000000000000000000000000000000000000000606482015260840161074c565b5090565b6113ec82826040518060200160405280600081525061368c565b600061317f826110af565b905061318c600083612603565b6001600160a01b038116600090815260cc602052604081208054600192906131b5908490613e9b565b9091555050600082815260cb6020526040808220805473ffffffffffffffffffffffffffffffffffffffff19169055518391906001600160a01b038416907fddf252ad1be2c89b69c2b068fc378daa952ba7f163c4a11628f55a4df523b3ef908390a45050565b6040805160c081018252825467ffffffffffffffff8082168352600160401b820481166020840152600160801b8204811693830193909352600160c01b90049091166060820152600182015461ffff8082166080840152620100009091041660a0820152429061328b9061267e565b101561089e5760018101546000906132b59061ffff808216916126d79162010000909104166125be565b82549091506132e2906132d390839067ffffffffffffffff16613eb2565b6132dd9042613e9b565b6130d6565b82548390601890613305908490600160c01b900467ffffffffffffffff16613fa7565b92506101000a81548167ffffffffffffffff021916908367ffffffffffffffff16021790555061333a81426132dd9190613e9b565b82547fffffffffffffffffffffffffffffffffffffffffffffffff00000000000000001667ffffffffffffffff919091161790915550565b60006118c78284613eca565b60008361ffff166001141561339657506113886118c7565b8361ffff16600214156133b4576133ad8383610db5565b90506118c7565b5060009392505050565b60006001600160a01b0384163b15613560576040517f150b7a020000000000000000000000000000000000000000000000000000000081526001600160a01b0385169063150b7a029061341b903390899088908890600401613fca565b602060405180830381600087803b15801561343557600080fd5b505af1925050508015613465575060408051601f3d908101601f1916820190925261346291810190614006565b60015b613515573d808015613493576040519150601f19603f3d011682016040523d82523d6000602084013e613498565b606091505b50805161350d5760405162461bcd60e51b815260206004820152603260248201527f4552433732313a207472616e7366657220746f206e6f6e20455243373231526560448201527f63656976657220696d706c656d656e7465720000000000000000000000000000606482015260840161074c565b805181602001fd5b7fffffffff00000000000000000000000000000000000000000000000000000000167f150b7a0200000000000000000000000000000000000000000000000000000000149050612823565b506001949350505050565b600054610100900460ff16610d985760405162461bcd60e51b815260206004820152602b60248201527f496e697469616c697a61626c653a20636f6e7472616374206973206e6f74206960448201527f6e697469616c697a696e67000000000000000000000000000000000000000000606482015260840161074c565b600054610100900460ff166136655760405162461bcd60e51b815260206004820152602b60248201527f496e697469616c697a61626c653a20636f6e7472616374206973206e6f74206960448201527f6e697469616c697a696e67000000000000000000000000000000000000000000606482015260840161074c565b81516136789060c9906020850190613864565b5080516109ce9060ca906020840190613864565b6136968383613715565b6136a360008484846133be565b6109ce5760405162461bcd60e51b815260206004820152603260248201527f4552433732313a207472616e7366657220746f206e6f6e20455243373231526560448201527f63656976657220696d706c656d656e7465720000000000000000000000000000606482015260840161074c565b6001600160a01b03821661376b5760405162461bcd60e51b815260206004820181905260248201527f4552433732313a206d696e7420746f20746865207a65726f2061646472657373604482015260640161074c565b600081815260cb60205260409020546001600160a01b0316156137d05760405162461bcd60e51b815260206004820152601c60248201527f4552433732313a20746f6b656e20616c7265616479206d696e74656400000000604482015260640161074c565b6001600160a01b038216600090815260cc602052604081208054600192906137f9908490613eb2565b9091555050600081815260cb6020526040808220805473ffffffffffffffffffffffffffffffffffffffff19166001600160a01b03861690811790915590518392907fddf252ad1be2c89b69c2b068fc378daa952ba7f163c4a11628f55a4df523b3ef908290a45050565b82805461387090613e34565b90600052602060002090601f01602090048101928261389257600085556138d8565b82601f106138ab57805160ff19168380011785556138d8565b828001600101855582156138d8579182015b828111156138d85782518255916020019190600101906138bd565b506131569291505b8082111561315657600081556001016138e0565b7fffffffff000000000000000000000000000000000000000000000000000000008116811461089e57600080fd5b60006020828403121561393457600080fd5b81356118c7816138f4565b60005b8381101561395a578181015183820152602001613942565b838111156117505750506000910152565b6000815180845261398381602086016020860161393f565b601f01601f19169290920160200192915050565b6020815260006118c7602083018461396b565b6000602082840312156139bc57600080fd5b5035919050565b80356001600160a01b038116811461272257600080fd5b600080604083850312156139ed57600080fd5b6139f6836139c3565b946020939093013593505050565b803561ffff8116811461272257600080fd5b600060208284031215613a2857600080fd5b6118c782613a04565b600080600060608486031215613a4657600080fd5b613a4f846139c3565b9250613a5d602085016139c3565b9150604084013590509250925092565b60008060408385031215613a8057600080fd5b823567ffffffffffffffff811681146139f657600080fd5b600060208284031215613aaa57600080fd5b6118c7826139c3565b60008060408385031215613ac657600080fd5b6139f683613a04565b634e487b7160e01b600052604160045260246000fd5b600067ffffffffffffffff80841115613b0057613b00613acf565b604051601f8501601f19908116603f01168101908282118183101715613b2857613b28613acf565b81604052809350858152868686011115613b4157600080fd5b858560208301376000602087830101525050509392505050565b600082601f830112613b6c57600080fd5b6118c783833560208501613ae5565b600060208284031215613b8d57600080fd5b813567ffffffffffffffff811115613ba457600080fd5b61282384828501613b5b565b801515811461089e57600080fd5b60008060408385031215613bd157600080fd5b613bda836139c3565b91506020830135613bea81613bb0565b809150509250929050565b602080825282518282018190526000919060409081850190868401855b82811015613c935781518051855286810151878601528581015186860152606080820151908601526080808201519086015260a0808201519086015260c0808201519086015260e08082015161ffff169086015261010080820151151590860152610120908101511515908501526101409093019290850190600101613c12565b5091979650505050505050565b60008060008060808587031215613cb657600080fd5b613cbf856139c3565b9350613ccd602086016139c3565b925060408501359150606085013567ffffffffffffffff811115613cf057600080fd5b8501601f81018713613d0157600080fd5b613d1087823560208401613ae5565b91505092959194509250565b600080600080600060a08688031215613d3457600080fd5b853567ffffffffffffffff80821115613d4c57600080fd5b613d5889838a01613b5b565b96506020880135915080821115613d6e57600080fd5b50613d7b88828901613b5b565b945050613d8a604087016139c3565b9250613d98606087016139c3565b9150613da6608087016139c3565b90509295509295909350565b60008060008060808587031215613dc857600080fd5b613dd1856139c3565b935060208501359250613de660408601613a04565b91506060850135613df681613bb0565b939692955090935050565b60008060408385031215613e1457600080fd5b613e1d836139c3565b9150613e2b602084016139c3565b90509250929050565b600181811c90821680613e4857607f821691505b60208210811415613e6957634e487b7160e01b600052602260045260246000fd5b50919050565b634e487b7160e01b600052603260045260246000fd5b634e487b7160e01b600052601160045260246000fd5b600082821015613ead57613ead613e85565b500390565b60008219821115613ec557613ec5613e85565b500190565b6000816000190483118215151615613ee457613ee4613e85565b500290565b634e487b7160e01b600052601260045260246000fd5b600082613f0e57613f0e613ee9565b500490565b600082613f2257613f22613ee9565b500690565b6000600019821415613f3b57613f3b613e85565b5060010190565b60008351613f5481846020880161393f565b835190830190613f6881836020880161393f565b01949350505050565b600060208284031215613f8357600080fd5b5051919050565b600060208284031215613f9c57600080fd5b81516118c781613bb0565b600067ffffffffffffffff808316818516808303821115613f6857613f68613e85565b60006001600160a01b03808716835280861660208401525083604083015260806060830152613ffc608083018461396b565b9695505050505050565b60006020828403121561401857600080fd5b81516118c7816138f456fea2646970667358221220996ab6c2cb83889ea18a49c447cbacbdccb5d8c7814854e5580b1ff735a32ef764736f6c63430008090033",
  "immutableReferences": {},
  "source": "// SPDX-License-Identifier: MIT\npragma solidity ^0.8.4;\n\nimport '../@openzeppelin/contracts-upgradeable/proxy/utils/Initializable.sol';\nimport '../@openzeppelin/contracts-upgradeable/token/ERC721/ERC721Upgradeable.sol';\nimport '../@openzeppelin/contracts/utils/math/SafeMath.sol';\nimport '../@openzeppelin/contracts/utils/math/SignedSafeMath.sol';\nimport '../@openzeppelin/contracts/utils/math/SafeCast.sol';\nimport '../@openzeppelin/contracts-upgradeable/security/PausableUpgradeable.sol';\nimport '../@openzeppelin/contracts-upgradeable/security/ReentrancyGuardUpgradeable.sol';\n\nimport './../PoolStakingRewards/PoolStakingRewards4.sol';\nimport './../PoolCore/Pool13.sol';\n\nimport \"hardhat/console.sol\";\n\ncontract HomeBoost1 is\n  PausableUpgradeable,\n  ReentrancyGuardUpgradeable,\n  ERC721Upgradeable\n{\n    using SafeMath for uint256;\n    using SafeMath for uint64;\n    using SafeMath for uint16;\n    // 60 * 60 * 24\n    uint256 constant SECONDS_PER_DAY = 86400;\n    uint256 constant SECONDS_PER_WEEK = SECONDS_PER_DAY * 7;\n    // use real year (365 days)\n    uint256 constant SECONDS_PER_YEAR = SECONDS_PER_DAY * 365;\n    // 90 days\n    uint256 constant LEVEL_1_SECONDS_PER_ITERATION = SECONDS_PER_DAY * 90;\n    // 1 year\n    uint256 constant LEVEL_2_SECONDS_PER_ITERATION = SECONDS_PER_YEAR;\n\n    // Stored per boost token.\n    struct Boost {\n        uint64 startTime;\n        uint64 principal;\n        uint64 claimedRewards;\n        uint64 additionalMatureSeconds; // accumulates seconds that the Boost was mature before being renewed.\n        uint16 endIteration; // 0 for never (auto-renew) or a value for the number of iterations\n        uint16 level;\n    }\n\n    // Used to get relevant details about boosts to callers into the contract (e.g. the UI)\n    // Never written to storage.\n    struct BoostDetail {\n        uint256 id;\n        uint256 startTime;\n        uint256 principal;\n        uint256 claimedRewards;\n        uint256 totalRewards;\n        uint256 apy;\n        uint256 nextRewardTimestamp;\n        uint16 level;\n        bool isComplete; // true if time has passed the end of the last iteration\n        bool isAutoRenew;\n    }\n\n    Boost[] private boostData;\n    uint256 weeklyStartTime;\n    uint256[] private weeklyInterestRates;\n\n    address poolAddress;\n    address guardianAddress;\n    address poolStakingRewardAddress;\n    mapping(address => bool) isApproved;\n    string boostBaseURI;\n\n    function initialize(string memory name, string memory symbol, address _guardianAddress, address _poolAddress, address _poolStakingRewardAddress) public initializer {\n        // TODO: needed since we are already storing the pool address? \n        isApproved[_poolAddress] = true;\n        poolAddress = _poolAddress;\n        guardianAddress = _guardianAddress;\n        poolStakingRewardAddress = _poolStakingRewardAddress;\n\n        ERC721Upgradeable.__ERC721_init(name, symbol);\n\n        // Push a null Boost into the list of boosts to act as a sentinel. This way anyone that points to boost id 0\n        // will get the sentinel rather than the first boost created for a real user. Make sure to only do this once\n        if (boostData.length == 0) {\n            boostData.push(Boost(0, 0, 0, 0, 0, 0));\n        }\n    }\n\n    ///\n    /// Getters\n    ///\n    function _baseURI() internal view override returns (string memory) {\n        return boostBaseURI;\n    }\n\n    //\n    // returns startTime, principal, additionalMatureSeconds, endIteration, level\n    // use getTokenData for a more human readable version of this data\n    //\n    function getRawTokenData(uint256 tokenId) public view returns(Boost memory) {\n        return boostData[tokenId];\n    }\n\n    function getPerIterationRateForLevel(uint16 level, uint64 startTime, uint256 endTime) private view returns(uint256) {\n        if (level == 1) {\n            return 5000;\n        } else if (level == 2) {\n            return getPerIterationRateForLevel2(startTime, endTime);\n        }\n\n        return 0;\n    }\n\n    function getWeeklyInterestRate(uint256 week) public view returns(uint256) {\n      if (week >= weeklyInterestRates.length)\n        return 0;\n      return weeklyInterestRates[week];\n    }\n\n    function getPerIterationRateForLevel2(uint64 startTime, uint256 endTime) public view returns(uint256) {\n        if (weeklyInterestRates.length == 0 || startTime == endTime)\n            return 0;\n\n        require(startTime >= weeklyStartTime, \"startTime must be greater because negatives are bad\");\n        uint256 startWeekNumber = (startTime - weeklyStartTime) / SECONDS_PER_WEEK;\n        uint256 startWeekFraction =  ((startTime - weeklyStartTime) % SECONDS_PER_WEEK);\n\n        // We're at the start, so we need the time elaspsed since the start to a week ending.\n        // Mod takes it to zero if startWeekFraction is already zero. Might be better to if it.\n        startWeekFraction = (SECONDS_PER_WEEK - startWeekFraction) % SECONDS_PER_WEEK;\n\n        uint256 endWeekNumber = ((endTime - weeklyStartTime) / SECONDS_PER_WEEK);\n        uint256 endWeekNumberFraction = ((endTime - weeklyStartTime) % SECONDS_PER_WEEK);\n\n        // fracitonalSum isn't a uint. It's really interest seconds, but that's not a type here.\n        uint256 fracitonalSum = (getWeeklyInterestRate(endWeekNumber) * endWeekNumberFraction);\n\n        // We're still in the first week. All the other stuff is unnecessary.\n        // And breaks if we don't exit early.\n        if (endWeekNumber - startWeekNumber == 0)\n           return fracitonalSum / (endTime - startTime);\n\n        fracitonalSum += (getWeeklyInterestRate(startWeekNumber) * startWeekFraction);\n\n        // The first week is handled in the loop, if there's no fractional part.\n        if (startWeekFraction > 0)\n          startWeekNumber += 1;\n\n        // sum is actually interest weeks.\n        uint256 sum = 0;\n        uint256 i;\n\n        for (i = startWeekNumber; i < endWeekNumber; i++) {\n          sum += getWeeklyInterestRate(i);\n        }\n\n        // Normalize the return to interest/timespan.\n        sum = ((sum * SECONDS_PER_WEEK) + fracitonalSum) / (endTime - startTime);\n        return sum;\n    }\n\n    function getAPYForLevel(uint16 level) public view returns(uint256) {\n        if (level == 1) {\n            return 20000;\n        } else if (level == 2) {\n            if (weeklyInterestRates.length == 0)\n              return 0;\n            return weeklyInterestRates[weeklyInterestRates.length - 1];\n        }\n        return 0;\n    }\n\n    //\n    // Returns the amount of token that is sent to staking to earn BACON rewards\n    //\n    function getStakeAmount(uint16 level, uint256 rawAmount) public pure returns(uint256) {\n        if (level == 1) {\n            return rawAmount.div(2); // 50% of the rewards\n        } else if (level == 2) {\n            return rawAmount;        // 100% of the rewards\n        }\n        return 0;\n    }\n\n\n    function getSecondsPerIteration(uint16 level) private pure returns(uint256) {\n        if (level == 1) {\n            return LEVEL_1_SECONDS_PER_ITERATION;\n        } else if (level == 2) {\n            return LEVEL_2_SECONDS_PER_ITERATION;\n        }\n        return 0;\n    }\n\n    function getNextRewardTimestamp(Boost memory boost) private view returns(uint256) {\n        if (boost.endIteration == 0) {\n            uint256 nextIteration = (block.timestamp - boost.startTime).div(getSecondsPerIteration(boost.level)) + 1;\n            return boost.startTime + getSecondsPerIteration(boost.level).mul(nextIteration);\n        } else {\n            return boost.startTime + getSecondsPerIteration(boost.level).mul(boost.endIteration);\n        }\n    }\n\n    //\n    // Returns a list of token data structures, one for each token owned by the caller.\n    //\n    function getTokens() public view returns(BoostDetail[] memory)\n    {\n        uint256 ownedTokens = balanceOf(msg.sender);\n        BoostDetail[] memory details = new BoostDetail[](ownedTokens);\n        if (ownedTokens == 0) {\n            return details;\n        }\n        uint256 currentDetailIndex = 0;\n        // Index 0 is a placeholder so skip it.\n        for(uint256 currentId = 1; currentId < boostData.length; currentId++) {\n            if (!_exists(currentId) || ownerOf(currentId) != msg.sender){\n                continue;\n            }\n\n            if (currentDetailIndex == details.length){\n                break;\n            }\n\n            Boost storage currentBoost = boostData[currentId];\n            uint256 nextRewardTimestamp = getNextRewardTimestamp(currentBoost);\n            details[currentDetailIndex] = BoostDetail(\n                currentId,\n                currentBoost.startTime,\n                currentBoost.principal,\n                currentBoost.claimedRewards,\n                computeTotalRewards(currentBoost, nextRewardTimestamp),\n                getAPYForLevel(currentBoost.level),\n                nextRewardTimestamp,\n                currentBoost.level,\n                nextRewardTimestamp < block.timestamp,\n                currentBoost.endIteration == 0\n            );\n\n            currentDetailIndex++;\n        }\n\n        return details;\n    }\n\n\n    ///\n    /// Mutations\n    ///\n\n    function approveAccess(address addr) public{\n        require(msg.sender == guardianAddress, \"caller must be guardian\");\n        isApproved[addr] = true;\n    }\n\n    function revokeAccess(address addr) public{\n        require(msg.sender == guardianAddress, \"caller must be guardian\");\n        isApproved[addr] = false;\n    }\n\n    function setBoostBaseUri(string memory _boostBaseURI) public {\n        require(msg.sender == guardianAddress, \"caller must be guardian\");\n        boostBaseURI = _boostBaseURI;\n    }\n\n    function pause() public {\n        require(msg.sender == guardianAddress, \"caller must be guardian\");\n        _pause();\n    }\n\n    function unpause() public {\n        require(msg.sender == guardianAddress, \"caller must be guardian\");\n        _unpause();\n    }\n\n    // Create a boost token\n    function mint(address to, uint256 principal, uint16 level, bool autoRenew) public whenNotPaused nonReentrant returns (bool) {\n        require(isApproved[msg.sender], \"Caller must be approved\");\n\n        uint16 endIteration = autoRenew ? 0 : 1;\n\n        boostData.push(Boost(SafeCast.toUint64(block.timestamp), SafeCast.toUint64(principal), 0, 0, endIteration, level));\n        uint256 tokenId = boostData.length - 1;\n\n        _safeMint(to, tokenId);\n        \n        return true;\n    }\n\n    function beforeIterationChange(Boost storage boost) private {\n        if (getNextRewardTimestamp(boost) < block.timestamp) {\n            // Boost is mature so we have to record the number of days that it was mature so we can pay interest on them\n            uint256 boostedDuration = getSecondsPerIteration(boost.level).mul(boost.endIteration);\n            boost.additionalMatureSeconds += SafeCast.toUint64(block.timestamp - (boost.startTime + boostedDuration));\n            boost.startTime = SafeCast.toUint64(block.timestamp - boostedDuration);\n        }\n    }\n\n    // Set a boost to auto renew.\n    // if boost is already auto renew do nothing\n    // if boost is not yet mature, just set the iteration count to 0\n    // else boost is mature, stash the additionalMatureSeconds, set startTime to currentBlockTime - iterationCount*iterationDuration and set iterationCount to 0\n    function setToAutoRenew(uint256 boostId) public whenNotPaused{\n        require(ownerOf(boostId) == msg.sender, \"Not the owner\");\n        Boost storage boost = boostData[boostId];\n        if (boost.endIteration == 0) {\n            return;\n        }\n\n        beforeIterationChange(boost);\n\n        boost.endIteration = 0;\n    }\n\n    // End the auto renew on a boost. This will allow it to be claimed when the current iteration is over.\n    function endAutoRenew(uint256 boostId) public whenNotPaused {\n        require(ownerOf(boostId) == msg.sender, \"Not the owner\");\n        Boost storage boost = boostData[boostId];\n        if (boost.endIteration != 0) {\n            return;\n        }\n\n        boost.endIteration = (uint16) ((block.timestamp - boost.startTime).div(getSecondsPerIteration(boost.level)) + 1);\n    }\n\n    // claim the rewards and principal from a boost. This also burns the boost token.\n    function claimPrincipal(uint256 boostId) public whenNotPaused nonReentrant returns (uint256) {\n        require(ownerOf(boostId) == msg.sender, \"Not the owner\");\n        Boost storage boost = boostData[boostId];\n        // endAutoRenew must be called first\n        require(boost.endIteration != 0, \"Must not be autoRenew\");\n        // boost must be mature\n        uint256 nextRewardTimestamp = getNextRewardTimestamp(boost);\n        require(nextRewardTimestamp < block.timestamp, \"Still locked\");\n\n        uint256 claimedRewards = claimRewardsCore(boost, nextRewardTimestamp);\n\n        _burn(boostId);\n        // Portions of the Principal is held by the staking contract so that it can earn bacon.\n        uint256 amountStaked = getStakeAmount(boost.level, boost.principal);\n        PoolStakingRewards4(poolStakingRewardAddress).unstakeForWallet(msg.sender, amountStaked);\n\n        if (amountStaked < boost.principal) {\n            // Return the non-staked boost principal held in this contract\n            IERC20(poolAddress).transfer(msg.sender, boost.principal - amountStaked);\n        }\n\n        return boost.principal + claimedRewards;\n    }\n\n    // Allow users to unstake all HOME staked using the old staking methods.\n    function claimPreBoostStake() public whenNotPaused nonReentrant returns (uint256) {\n        uint256 ownedTokenCount = balanceOf(msg.sender);\n        uint256 stakedAmount = PoolStakingRewards4(poolStakingRewardAddress).getCurrentBalance(msg.sender);\n\n        uint boostStakedAmount = 0;\n        if (ownedTokenCount > 0) {\n            // compute the total amount staked by boosts. This is going to grow in cost as the total number of boosts\n            // grows, but the common case should be calling this once when the caller has 0 boosts.\n            uint256 currentOwnedIndex = 0;\n            // Index 0 is a placeholder so skip it.\n            for(uint256 currentId = 1; currentId < boostData.length; currentId++) {\n                if (!_exists(currentId) || ownerOf(currentId) != msg.sender){\n                    continue;\n                }\n\n                if (currentOwnedIndex == ownedTokenCount){\n                    break;\n                }\n\n                Boost storage boost = boostData[currentId];\n                boostStakedAmount = boostStakedAmount.add(getStakeAmount(boost.level, boost.principal));\n\n                currentOwnedIndex++;\n            }\n        }\n\n        //\n        uint256 amount = stakedAmount.sub(boostStakedAmount);\n\n        PoolStakingRewards4(poolStakingRewardAddress).unstakeForWallet(msg.sender, amount);\n\n        return amount;\n    }\n\n    // Claim all the rewards that can be claimed from this boost. This is only what is earned from past iterations.\n    function claimRewards(uint256 boostId) public whenNotPaused nonReentrant returns (uint256) {\n        // Claim only the rewards that have been earned so far in this boost - the rewards that have already been claimed\n        require(ownerOf(boostId) == msg.sender, \"Not the owner\");\n        Boost storage boost = boostData[boostId];\n        uint256 nextRewardTimestamp = getNextRewardTimestamp(boost);\n\n        return claimRewardsCore(boost, nextRewardTimestamp);\n    }\n\n    function computeTotalRewards(Boost storage boost, uint256 nextRewardTimestamp) private view returns (uint256) {\n        uint256 totalRewardAmount;\n        uint256 newMatureSeconds = 0;\n        // if the boost is mature, then just udpate how long we've been mature and pay those rewards\n        if (nextRewardTimestamp < block.timestamp) {\n            newMatureSeconds = block.timestamp - nextRewardTimestamp;\n            totalRewardAmount = boost.principal.mul(boost.endIteration).mul(getPerIterationRateForLevel(boost.level, boost.startTime, nextRewardTimestamp)).div(1000000);\n        } else {\n            // Otherwise the boost isn't mature. We can pay rewards up to the last full iteration\n            uint256 completeIterations = (block.timestamp - boost.startTime).div(getSecondsPerIteration(boost.level));\n            totalRewardAmount = boost.principal.mul(completeIterations).mul(getPerIterationRateForLevel(boost.level, boost.startTime, block.timestamp)).div(1000000);\n        }\n        totalRewardAmount += boost.principal.mul(boost.additionalMatureSeconds + newMatureSeconds).div(SECONDS_PER_YEAR).div(100);\n        return totalRewardAmount;\n    }\n\n    function claimRewardsCore(Boost storage boost, uint256 nextRewardTimestamp) private returns (uint256) {\n        uint256 totalRewardAmount = computeTotalRewards(boost, nextRewardTimestamp);\n        // subtract out the rewards that we have already paid\n        uint256 rewardAmount = totalRewardAmount.sub(boost.claimedRewards);\n        boost.claimedRewards = SafeCast.toUint64(totalRewardAmount);\n\n        // pay the rewards if there are any\n        if (rewardAmount > 0) {\n            Pool13(poolAddress).transferBoostRewards(msg.sender, rewardAmount);\n        }\n\n        return rewardAmount;\n    }\n\n    function appendInterestRate(uint256 newRate) public {\n        require(msg.sender == guardianAddress, \"caller must be guardian\");\n        weeklyInterestRates.push(newRate);\n    }\n\n    function setWeeklyStartTime(uint256 _weeklyStartTime) public {\n        require(msg.sender == guardianAddress, \"caller must be guardian\");\n        weeklyStartTime = _weeklyStartTime;\n    }\n}\n",
  "sourcePath": "/src/contracts/HomeBoost/HomeBoost1.sol",
  "compiler": {
    "name": "solc",
    "version": "0.8.9+commit.e5eed63a.Emscripten.clang"
  },
  "schemaVersion": "3.4.7",
  "updatedAt": "2022-08-22T23:03:00.568Z",
  "networkType": "ethereum",
  "devdoc": {
    "kind": "dev",
    "methods": {
      "approve(address,uint256)": {
        "details": "See {IERC721-approve}."
      },
      "balanceOf(address)": {
        "details": "See {IERC721-balanceOf}."
      },
      "getApproved(uint256)": {
        "details": "See {IERC721-getApproved}."
      },
      "isApprovedForAll(address,address)": {
        "details": "See {IERC721-isApprovedForAll}."
      },
      "name()": {
        "details": "See {IERC721Metadata-name}."
      },
      "ownerOf(uint256)": {
        "details": "See {IERC721-ownerOf}."
      },
      "paused()": {
        "details": "Returns true if the contract is paused, and false otherwise."
      },
      "safeTransferFrom(address,address,uint256)": {
        "details": "See {IERC721-safeTransferFrom}."
      },
      "safeTransferFrom(address,address,uint256,bytes)": {
        "details": "See {IERC721-safeTransferFrom}."
      },
      "setApprovalForAll(address,bool)": {
        "details": "See {IERC721-setApprovalForAll}."
      },
      "supportsInterface(bytes4)": {
        "details": "See {IERC165-supportsInterface}."
      },
      "symbol()": {
        "details": "See {IERC721Metadata-symbol}."
      },
      "tokenURI(uint256)": {
        "details": "See {IERC721Metadata-tokenURI}."
      },
      "transferFrom(address,address,uint256)": {
        "details": "See {IERC721-transferFrom}."
      }
    },
    "version": 1
  },
  "userdoc": {
    "kind": "user",
    "methods": {
      "approveAccess(address)": {
        "notice": " Mutations"
      }
    },
    "version": 1
  }
}