{
  "contractName": "HomeBoost4",
  "abi": [
    {
      "anonymous": false,
      "inputs": [
        {
          "indexed": true,
          "internalType": "address",
          "name": "owner",
          "type": "address"
        },
        {
          "indexed": true,
          "internalType": "address",
          "name": "approved",
          "type": "address"
        },
        {
          "indexed": true,
          "internalType": "uint256",
          "name": "tokenId",
          "type": "uint256"
        }
      ],
      "name": "Approval",
      "type": "event"
    },
    {
      "anonymous": false,
      "inputs": [
        {
          "indexed": true,
          "internalType": "address",
          "name": "owner",
          "type": "address"
        },
        {
          "indexed": true,
          "internalType": "address",
          "name": "operator",
          "type": "address"
        },
        {
          "indexed": false,
          "internalType": "bool",
          "name": "approved",
          "type": "bool"
        }
      ],
      "name": "ApprovalForAll",
      "type": "event"
    },
    {
      "anonymous": false,
      "inputs": [
        {
          "indexed": false,
          "internalType": "address",
          "name": "account",
          "type": "address"
        }
      ],
      "name": "Paused",
      "type": "event"
    },
    {
      "anonymous": false,
      "inputs": [
        {
          "indexed": true,
          "internalType": "address",
          "name": "from",
          "type": "address"
        },
        {
          "indexed": true,
          "internalType": "address",
          "name": "to",
          "type": "address"
        },
        {
          "indexed": true,
          "internalType": "uint256",
          "name": "tokenId",
          "type": "uint256"
        }
      ],
      "name": "Transfer",
      "type": "event"
    },
    {
      "anonymous": false,
      "inputs": [
        {
          "indexed": false,
          "internalType": "address",
          "name": "account",
          "type": "address"
        }
      ],
      "name": "Unpaused",
      "type": "event"
    },
    {
      "inputs": [
        {
          "internalType": "address",
          "name": "to",
          "type": "address"
        },
        {
          "internalType": "uint256",
          "name": "tokenId",
          "type": "uint256"
        }
      ],
      "name": "approve",
      "outputs": [],
      "stateMutability": "nonpayable",
      "type": "function"
    },
    {
      "inputs": [
        {
          "internalType": "address",
          "name": "owner",
          "type": "address"
        }
      ],
      "name": "balanceOf",
      "outputs": [
        {
          "internalType": "uint256",
          "name": "",
          "type": "uint256"
        }
      ],
      "stateMutability": "view",
      "type": "function",
      "constant": true
    },
    {
      "inputs": [
        {
          "internalType": "uint256",
          "name": "tokenId",
          "type": "uint256"
        }
      ],
      "name": "getApproved",
      "outputs": [
        {
          "internalType": "address",
          "name": "",
          "type": "address"
        }
      ],
      "stateMutability": "view",
      "type": "function",
      "constant": true
    },
    {
      "inputs": [
        {
          "internalType": "address",
          "name": "owner",
          "type": "address"
        },
        {
          "internalType": "address",
          "name": "operator",
          "type": "address"
        }
      ],
      "name": "isApprovedForAll",
      "outputs": [
        {
          "internalType": "bool",
          "name": "",
          "type": "bool"
        }
      ],
      "stateMutability": "view",
      "type": "function",
      "constant": true
    },
    {
      "inputs": [],
      "name": "name",
      "outputs": [
        {
          "internalType": "string",
          "name": "",
          "type": "string"
        }
      ],
      "stateMutability": "view",
      "type": "function",
      "constant": true
    },
    {
      "inputs": [
        {
          "internalType": "uint256",
          "name": "tokenId",
          "type": "uint256"
        }
      ],
      "name": "ownerOf",
      "outputs": [
        {
          "internalType": "address",
          "name": "",
          "type": "address"
        }
      ],
      "stateMutability": "view",
      "type": "function",
      "constant": true
    },
    {
      "inputs": [],
      "name": "paused",
      "outputs": [
        {
          "internalType": "bool",
          "name": "",
          "type": "bool"
        }
      ],
      "stateMutability": "view",
      "type": "function",
      "constant": true
    },
    {
      "inputs": [
        {
          "internalType": "address",
          "name": "from",
          "type": "address"
        },
        {
          "internalType": "address",
          "name": "to",
          "type": "address"
        },
        {
          "internalType": "uint256",
          "name": "tokenId",
          "type": "uint256"
        }
      ],
      "name": "safeTransferFrom",
      "outputs": [],
      "stateMutability": "nonpayable",
      "type": "function"
    },
    {
      "inputs": [
        {
          "internalType": "address",
          "name": "from",
          "type": "address"
        },
        {
          "internalType": "address",
          "name": "to",
          "type": "address"
        },
        {
          "internalType": "uint256",
          "name": "tokenId",
          "type": "uint256"
        },
        {
          "internalType": "bytes",
          "name": "_data",
          "type": "bytes"
        }
      ],
      "name": "safeTransferFrom",
      "outputs": [],
      "stateMutability": "nonpayable",
      "type": "function"
    },
    {
      "inputs": [
        {
          "internalType": "address",
          "name": "operator",
          "type": "address"
        },
        {
          "internalType": "bool",
          "name": "approved",
          "type": "bool"
        }
      ],
      "name": "setApprovalForAll",
      "outputs": [],
      "stateMutability": "nonpayable",
      "type": "function"
    },
    {
      "inputs": [
        {
          "internalType": "bytes4",
          "name": "interfaceId",
          "type": "bytes4"
        }
      ],
      "name": "supportsInterface",
      "outputs": [
        {
          "internalType": "bool",
          "name": "",
          "type": "bool"
        }
      ],
      "stateMutability": "view",
      "type": "function",
      "constant": true
    },
    {
      "inputs": [],
      "name": "symbol",
      "outputs": [
        {
          "internalType": "string",
          "name": "",
          "type": "string"
        }
      ],
      "stateMutability": "view",
      "type": "function",
      "constant": true
    },
    {
      "inputs": [
        {
          "internalType": "uint256",
          "name": "tokenId",
          "type": "uint256"
        }
      ],
      "name": "tokenURI",
      "outputs": [
        {
          "internalType": "string",
          "name": "",
          "type": "string"
        }
      ],
      "stateMutability": "view",
      "type": "function",
      "constant": true
    },
    {
      "inputs": [
        {
          "internalType": "address",
          "name": "from",
          "type": "address"
        },
        {
          "internalType": "address",
          "name": "to",
          "type": "address"
        },
        {
          "internalType": "uint256",
          "name": "tokenId",
          "type": "uint256"
        }
      ],
      "name": "transferFrom",
      "outputs": [],
      "stateMutability": "nonpayable",
      "type": "function"
    },
    {
      "inputs": [
        {
          "internalType": "uint256",
          "name": "tokenId",
          "type": "uint256"
        }
      ],
      "name": "getRawTokenData",
      "outputs": [
        {
          "components": [
            {
              "internalType": "uint64",
              "name": "startTime",
              "type": "uint64"
            },
            {
              "internalType": "uint64",
              "name": "principal",
              "type": "uint64"
            },
            {
              "internalType": "uint64",
              "name": "claimedRewards",
              "type": "uint64"
            },
            {
              "internalType": "uint64",
              "name": "additionalMatureSeconds",
              "type": "uint64"
            },
            {
              "internalType": "uint16",
              "name": "endIteration",
              "type": "uint16"
            },
            {
              "internalType": "uint16",
              "name": "level",
              "type": "uint16"
            }
          ],
          "internalType": "struct HomeBoost4.Boost",
          "name": "",
          "type": "tuple"
        }
      ],
      "stateMutability": "view",
      "type": "function",
      "constant": true
    },
    {
      "inputs": [
        {
          "internalType": "uint256",
          "name": "week",
          "type": "uint256"
        }
      ],
      "name": "getWeeklyInterestRate",
      "outputs": [
        {
          "internalType": "uint256",
          "name": "",
          "type": "uint256"
        }
      ],
      "stateMutability": "view",
      "type": "function",
      "constant": true
    },
    {
      "inputs": [
        {
          "internalType": "uint64",
          "name": "startTime",
          "type": "uint64"
        },
        {
          "internalType": "uint256",
          "name": "endTime",
          "type": "uint256"
        }
      ],
      "name": "getPerYearRateForLevel2",
      "outputs": [
        {
          "internalType": "uint256",
          "name": "",
          "type": "uint256"
        }
      ],
      "stateMutability": "view",
      "type": "function",
      "constant": true
    },
    {
      "inputs": [
        {
          "internalType": "uint16",
          "name": "level",
          "type": "uint16"
        }
      ],
      "name": "getAPYForLevel",
      "outputs": [
        {
          "internalType": "uint256",
          "name": "",
          "type": "uint256"
        }
      ],
      "stateMutability": "view",
      "type": "function",
      "constant": true
    },
    {
      "inputs": [
        {
          "internalType": "uint16",
          "name": "level",
          "type": "uint16"
        },
        {
          "internalType": "uint256",
          "name": "rawAmount",
          "type": "uint256"
        }
      ],
      "name": "getStakeAmount",
      "outputs": [
        {
          "internalType": "uint256",
          "name": "",
          "type": "uint256"
        }
      ],
      "stateMutability": "pure",
      "type": "function",
      "constant": true
    },
    {
      "inputs": [],
      "name": "getTokens",
      "outputs": [
        {
          "components": [
            {
              "internalType": "uint256",
              "name": "id",
              "type": "uint256"
            },
            {
              "internalType": "uint256",
              "name": "startTime",
              "type": "uint256"
            },
            {
              "internalType": "uint256",
              "name": "principal",
              "type": "uint256"
            },
            {
              "internalType": "uint256",
              "name": "claimedRewards",
              "type": "uint256"
            },
            {
              "internalType": "uint256",
              "name": "totalRewards",
              "type": "uint256"
            },
            {
              "internalType": "uint256",
              "name": "apy",
              "type": "uint256"
            },
            {
              "internalType": "uint256",
              "name": "nextRewardTimestamp",
              "type": "uint256"
            },
            {
              "internalType": "uint16",
              "name": "level",
              "type": "uint16"
            },
            {
              "internalType": "bool",
              "name": "isComplete",
              "type": "bool"
            },
            {
              "internalType": "bool",
              "name": "isAutoRenew",
              "type": "bool"
            }
          ],
          "internalType": "struct HomeBoost4.BoostDetail[]",
          "name": "",
          "type": "tuple[]"
        }
      ],
      "stateMutability": "view",
      "type": "function",
      "constant": true
    },
    {
      "inputs": [
        {
          "internalType": "address",
          "name": "addr",
          "type": "address"
        }
      ],
      "name": "approveAccess",
      "outputs": [],
      "stateMutability": "nonpayable",
      "type": "function"
    },
    {
      "inputs": [
        {
          "internalType": "address",
          "name": "addr",
          "type": "address"
        }
      ],
      "name": "revokeAccess",
      "outputs": [],
      "stateMutability": "nonpayable",
      "type": "function"
    },
    {
      "inputs": [
        {
          "internalType": "string",
          "name": "_boostBaseURI",
          "type": "string"
        }
      ],
      "name": "setBoostBaseUri",
      "outputs": [],
      "stateMutability": "nonpayable",
      "type": "function"
    },
    {
      "inputs": [],
      "name": "pause",
      "outputs": [],
      "stateMutability": "nonpayable",
      "type": "function"
    },
    {
      "inputs": [],
      "name": "unpause",
      "outputs": [],
      "stateMutability": "nonpayable",
      "type": "function"
    },
    {
      "inputs": [
        {
          "internalType": "address",
          "name": "to",
          "type": "address"
        },
        {
          "internalType": "uint256",
          "name": "principal",
          "type": "uint256"
        },
        {
          "internalType": "uint16",
          "name": "level",
          "type": "uint16"
        },
        {
          "internalType": "bool",
          "name": "autoRenew",
          "type": "bool"
        }
      ],
      "name": "mint",
      "outputs": [
        {
          "internalType": "bool",
          "name": "",
          "type": "bool"
        }
      ],
      "stateMutability": "nonpayable",
      "type": "function"
    },
    {
      "inputs": [
        {
          "internalType": "uint256",
          "name": "boostId",
          "type": "uint256"
        }
      ],
      "name": "setToAutoRenew",
      "outputs": [],
      "stateMutability": "nonpayable",
      "type": "function"
    },
    {
      "inputs": [
        {
          "internalType": "uint256",
          "name": "boostId",
          "type": "uint256"
        }
      ],
      "name": "endAutoRenew",
      "outputs": [],
      "stateMutability": "nonpayable",
      "type": "function"
    },
    {
      "inputs": [
        {
          "internalType": "uint256",
          "name": "boostId",
          "type": "uint256"
        }
      ],
      "name": "claimPrincipal",
      "outputs": [
        {
          "internalType": "uint256",
          "name": "",
          "type": "uint256"
        }
      ],
      "stateMutability": "nonpayable",
      "type": "function"
    },
    {
      "inputs": [],
      "name": "claimPreBoostStake",
      "outputs": [
        {
          "internalType": "uint256",
          "name": "",
          "type": "uint256"
        }
      ],
      "stateMutability": "nonpayable",
      "type": "function"
    },
    {
      "inputs": [
        {
          "internalType": "address[]",
          "name": "addresses",
          "type": "address[]"
        }
      ],
      "name": "unstakePreBoostStakes",
      "outputs": [],
      "stateMutability": "nonpayable",
      "type": "function"
    },
    {
      "inputs": [
        {
          "internalType": "uint256",
          "name": "boostId",
          "type": "uint256"
        }
      ],
      "name": "claimRewards",
      "outputs": [
        {
          "internalType": "uint256",
          "name": "",
          "type": "uint256"
        }
      ],
      "stateMutability": "nonpayable",
      "type": "function"
    },
    {
      "inputs": [
        {
          "internalType": "uint256",
          "name": "newRate",
          "type": "uint256"
        }
      ],
      "name": "appendInterestRate",
      "outputs": [],
      "stateMutability": "nonpayable",
      "type": "function"
    },
    {
      "inputs": [
        {
          "internalType": "uint256",
          "name": "_weeklyStartTime",
          "type": "uint256"
        }
      ],
      "name": "setWeeklyStartTime",
      "outputs": [],
      "stateMutability": "nonpayable",
      "type": "function"
    }
  ],
  "bytecode": "0x608060405234801561001057600080fd5b5061401e806100206000396000f3fe608060405234801561001057600080fd5b50600436106102265760003560e01c80638400adfc1161012a578063b88d4fde116100bd578063e68ec4f51161008c578063f9af057911610071578063f9af057914610516578063fb14dc9314610529578063fb2d2d861461053c57600080fd5b8063e68ec4f5146104c7578063e985e9c5146104da57600080fd5b8063b88d4fde14610486578063b90bb87614610499578063c87b56dd146104ac578063ced93cba146104bf57600080fd5b80639e0b6ae5116100f95780639e0b6ae514610438578063a22cb4651461044b578063a2b4eaae1461045e578063aa6ca8081461047157600080fd5b80638400adfc146104025780638456cb591461041557806385e685311461041d57806395d89b411461043057600080fd5b806323b872dd116101bd5780635c975abb1161018c5780636352211e116101715780636352211e146103c9578063705211f4146103dc57806370a08231146103ef57600080fd5b80635c975abb146103ab5780635cbce351146103b657600080fd5b806323b872dd1461036a5780633f4ba83a1461037d57806342842e0e1461038557806358414e1c1461039857600080fd5b8063095ea7b3116101f9578063095ea7b3146102a85780630962ef79146102bb57806317b74c36146102dc5780631ec2128c146102ef57600080fd5b806301ffc9a71461022b57806306fdde0314610253578063081812fc1461026857806309149aeb14610293575b600080fd5b61023e6102393660046138d5565b61054f565b60405190151581526020015b60405180910390f35b61025b610634565b60405161024a919061394a565b61027b61027636600461395d565b6106c6565b6040516001600160a01b03909116815260200161024a565b6102a66102a136600461395d565b610771565b005b6102a66102b636600461398d565b6108a1565b6102ce6102c936600461395d565b6109d3565b60405190815260200161024a565b6102ce6102ea3660046139c9565b610b7b565b6103026102fd36600461395d565b610be9565b60405161024a9190600060c08201905067ffffffffffffffff80845116835280602085015116602084015280604085015116604084015280606085015116606084015250608083015161ffff80821660808501528060a08601511660a0850152505092915050565b6102a66103783660046139e4565b610caf565b6102a6610d36565b6102a66103933660046139e4565b610d9a565b6102ce6103a6366004613a20565b610db5565b60335460ff1661023e565b6102a66103c436600461395d565b611050565b61027b6103d736600461395d565b6110af565b6102a66103ea366004613a4b565b61113a565b6102ce6103fd366004613a4b565b6111b9565b6102ce610410366004613a66565b611253565b6102a6611291565b6102a661042b366004613a4b565b6112f3565b61025b61136f565b6102a6610446366004613b21565b61137e565b6102a6610459366004613b78565b6113f0565b6102ce61046c36600461395d565b6113fb565b610479611444565b60405161024a9190613baf565b6102a6610494366004613c5a565b6116ea565b6102a66104a736600461395d565b611778565b61025b6104ba36600461395d565b611807565b6102ce6118f0565b61023e6104d5366004613cd6565b6119a9565b61023e6104e8366004613d25565b6001600160a01b03918216600090815260ce6020908152604080832093909416825291909152205460ff1690565b6102ce61052436600461395d565b611cae565b6102a661053736600461395d565b6120be565b6102a661054a366004613d58565b6121a5565b60007fffffffff0000000000000000000000000000000000000000000000000000000082167f80ac58cd0000000000000000000000000000000000000000000000000000000014806105e257507fffffffff0000000000000000000000000000000000000000000000000000000082167f5b5e139f00000000000000000000000000000000000000000000000000000000145b8061062e57507f01ffc9a7000000000000000000000000000000000000000000000000000000007fffffffff000000000000000000000000000000000000000000000000000000008316145b92915050565b606060c9805461064390613df9565b80601f016020809104026020016040519081016040528092919081815260200182805461066f90613df9565b80156106bc5780601f10610691576101008083540402835291602001916106bc565b820191906000526020600020905b81548152906001019060200180831161069f57829003601f168201915b5050505050905090565b600081815260cb60205260408120546001600160a01b03166107555760405162461bcd60e51b815260206004820152602c60248201527f4552433732313a20617070726f76656420717565727920666f72206e6f6e657860448201527f697374656e7420746f6b656e000000000000000000000000000000000000000060648201526084015b60405180910390fd5b50600090815260cd60205260409020546001600160a01b031690565b60335460ff16156107b75760405162461bcd60e51b815260206004820152601060248201526f14185d5cd8589b194e881c185d5cd95960821b604482015260640161074c565b336107c1826110af565b6001600160a01b0316146108075760405162461bcd60e51b815260206004820152600d60248201526c2737ba103a34329037bbb732b960991b604482015260640161074c565b600060fb828154811061081c5761081c613e34565b60009182526020909120600290910201600181015490915061ffff1615610841575050565b60018101546108799061085d9062010000900461ffff166122e7565b82546108739067ffffffffffffffff1642613e60565b90612320565b610884906001613e77565b600191909101805461ffff191661ffff9092169190911790555b50565b60006108ac826110af565b9050806001600160a01b0316836001600160a01b031614156109365760405162461bcd60e51b815260206004820152602160248201527f4552433732313a20617070726f76616c20746f2063757272656e74206f776e6560448201527f7200000000000000000000000000000000000000000000000000000000000000606482015260840161074c565b336001600160a01b0382161480610952575061095281336104e8565b6109c45760405162461bcd60e51b815260206004820152603860248201527f4552433732313a20617070726f76652063616c6c6572206973206e6f74206f7760448201527f6e6572206e6f7220617070726f76656420666f7220616c6c0000000000000000606482015260840161074c565b6109ce838361232c565b505050565b60006109e160335460ff1690565b15610a215760405162461bcd60e51b815260206004820152601060248201526f14185d5cd8589b194e881c185d5cd95960821b604482015260640161074c565b60026065541415610a745760405162461bcd60e51b815260206004820152601f60248201527f5265656e7472616e637947756172643a207265656e7472616e742063616c6c00604482015260640161074c565b600260655533610a83836110af565b6001600160a01b031614610ac95760405162461bcd60e51b815260206004820152600d60248201526c2737ba103a34329037bbb732b960991b604482015260640161074c565b600060fb8381548110610ade57610ade613e34565b600091825260208083206040805160c0810182526002909402909101805467ffffffffffffffff8082168652600160401b8204811694860194909452600160801b8104841692850192909252600160c01b9091049091166060830152600181015461ffff8082166080850152620100009091041660a08301529250610b62906123a7565b9050610b6e8282612450565b6001606555949350505050565b60008161ffff1660011415610b935750614e20919050565b8161ffff1660021415610be15760fd54610baf57506000919050565b60fd8054610bbf90600190613e60565b81548110610bcf57610bcf613e34565b90600052602060002001549050919050565b506000919050565b6040805160c081018252600080825260208201819052918101829052606081018290526080810182905260a081019190915260fb8281548110610c2e57610c2e613e34565b60009182526020918290206040805160c0810182526002909302909101805467ffffffffffffffff8082168552600160401b8204811695850195909552600160801b8104851692840192909252600160c01b909104909216606082015260019091015461ffff8082166080840152620100009091041660a082015292915050565b610cb93382612554565b610d2b5760405162461bcd60e51b815260206004820152603160248201527f4552433732313a207472616e736665722063616c6c6572206973206e6f74206f60448201527f776e6572206e6f7220617070726f766564000000000000000000000000000000606482015260840161074c565b6109ce838383612658565b60ff546001600160a01b03163314610d905760405162461bcd60e51b815260206004820152601760248201527f63616c6c6572206d75737420626520677561726469616e000000000000000000604482015260640161074c565b610d9861283d565b565b6109ce838383604051806020016040528060008152506116ea565b60fd546000901580610dd05750818367ffffffffffffffff16145b15610ddd5750600061062e565b60fc548367ffffffffffffffff161015610e5f5760405162461bcd60e51b815260206004820152603360248201527f737461727454696d65206d75737420626520677265617465722062656361757360448201527f65206e6567617469766573206172652062616400000000000000000000000000606482015260840161074c565b6000610e6f620151806007613e8f565b60fc54610e869067ffffffffffffffff8716613e60565b610e909190613ec4565b90506000610ea2620151806007613e8f565b60fc54610eb99067ffffffffffffffff8816613e60565b610ec39190613ed8565b9050610ed3620151806007613e8f565b81610ee2620151806007613e8f565b610eec9190613e60565b610ef69190613ed8565b90506000610f08620151806007613e8f565b60fc54610f159087613e60565b610f1f9190613ec4565b90506000610f31620151806007613e8f565b60fc54610f3e9088613e60565b610f489190613ed8565b9050600081610f56846113fb565b610f609190613e8f565b9050610f6c8584613e60565b610f9a57610f8467ffffffffffffffff891688613e60565b610f8e9082613ec4565b9550505050505061062e565b83610fa4866113fb565b610fae9190613e8f565b610fb89082613e77565b90508315610fce57610fcb600186613e77565b94505b6000855b8481101561100157610fe3816113fb565b610fed9083613e77565b915080610ff981613eec565b915050610fd2565b61101567ffffffffffffffff8b168a613e60565b83611024620151806007613e8f565b61102e9085613e8f565b6110389190613e77565b6110429190613ec4565b9a9950505050505050505050565b60ff546001600160a01b031633146110aa5760405162461bcd60e51b815260206004820152601760248201527f63616c6c6572206d75737420626520677561726469616e000000000000000000604482015260640161074c565b60fc55565b600081815260cb60205260408120546001600160a01b03168061062e5760405162461bcd60e51b815260206004820152602960248201527f4552433732313a206f776e657220717565727920666f72206e6f6e657869737460448201527f656e7420746f6b656e0000000000000000000000000000000000000000000000606482015260840161074c565b60ff546001600160a01b031633146111945760405162461bcd60e51b815260206004820152601760248201527f63616c6c6572206d75737420626520677561726469616e000000000000000000604482015260640161074c565b6001600160a01b0316600090815261010160205260409020805460ff19166001179055565b60006001600160a01b0382166112375760405162461bcd60e51b815260206004820152602a60248201527f4552433732313a2062616c616e636520717565727920666f7220746865207a6560448201527f726f206164647265737300000000000000000000000000000000000000000000606482015260840161074c565b506001600160a01b0316600090815260cc602052604090205490565b60008261ffff16600114156112745761126d826002612320565b905061062e565b8261ffff166002141561128857508061062e565b50600092915050565b60ff546001600160a01b031633146112eb5760405162461bcd60e51b815260206004820152601760248201527f63616c6c6572206d75737420626520677561726469616e000000000000000000604482015260640161074c565b610d986128d9565b60ff546001600160a01b0316331461134d5760405162461bcd60e51b815260206004820152601760248201527f63616c6c6572206d75737420626520677561726469616e000000000000000000604482015260640161074c565b6001600160a01b0316600090815261010160205260409020805460ff19169055565b606060ca805461064390613df9565b60ff546001600160a01b031633146113d85760405162461bcd60e51b815260206004820152601760248201527f63616c6c6572206d75737420626520677561726469616e000000000000000000604482015260640161074c565b80516113ec90610102906020840190613817565b5050565b6113ec338383612954565b60fd54600090821061140f57506000919050565b61062e64e8d4a5100060fd848154811061142b5761142b613e34565b9060005260206000200154612a2390919063ffffffff16565b60606000611451336111b9565b905060008167ffffffffffffffff81111561146e5761146e613a82565b6040519080825280602002602001820160405280156114fd57816020015b6114ea60405180610140016040528060008152602001600081526020016000815260200160008152602001600081526020016000815260200160008152602001600061ffff1681526020016000151581526020016000151581525090565b81526020019060019003908161148c5790505b5090508161150b5792915050565b600060015b60fb548110156116e157600081815260cb60205260409020546001600160a01b0316158061154f575033611543826110af565b6001600160a01b031614155b15611559576116cf565b8251821415611567576116e1565b600060fb828154811061157c5761157c613e34565b600091825260208083206040805160c0810182526002909402909101805467ffffffffffffffff8082168652600160401b8204811694860194909452600160801b8104841692850192909252600160c01b9091049091166060830152600181015461ffff8082166080850152620100009091041660a08301529250611600906123a7565b6040805161014081018252858152845467ffffffffffffffff8082166020840152600160401b8204811693830193909352600160801b90049091166060820152909150608081016116518484612a2f565b81526020016116718460010160029054906101000a900461ffff16610b7b565b815260208101839052600184015461ffff620100008204811660408401524285106060840152161560809091015285518690869081106116b3576116b3613e34565b602002602001018190525083806116c990613eec565b94505050505b806116d981613eec565b915050611510565b50909392505050565b6116f43383612554565b6117665760405162461bcd60e51b815260206004820152603160248201527f4552433732313a207472616e736665722063616c6c6572206973206e6f74206f60448201527f776e6572206e6f7220617070726f766564000000000000000000000000000000606482015260840161074c565b61177284848484612c24565b50505050565b60ff546001600160a01b031633146117d25760405162461bcd60e51b815260206004820152601760248201527f63616c6c6572206d75737420626520677561726469616e000000000000000000604482015260640161074c565b60fd80546001810182556000919091527f9346ac6dd7de6b96975fec380d4d994c4c12e6a8897544f22915316cc6cca2800155565b600081815260cb60205260409020546060906001600160a01b03166118945760405162461bcd60e51b815260206004820152602f60248201527f4552433732314d657461646174613a2055524920717565727920666f72206e6f60448201527f6e6578697374656e7420746f6b656e0000000000000000000000000000000000606482015260840161074c565b600061189e612cad565b905060008151116118be57604051806020016040528060008152506118e9565b806118c884612cbd565b6040516020016118d9929190613f07565b6040516020818303038152906040525b9392505050565b60006118fe60335460ff1690565b1561193e5760405162461bcd60e51b815260206004820152601060248201526f14185d5cd8589b194e881c185d5cd95960821b604482015260640161074c565b600260655414156119915760405162461bcd60e51b815260206004820152601f60248201527f5265656e7472616e637947756172643a207265656e7472616e742063616c6c00604482015260640161074c565b600260655561199f33612def565b9050600160655590565b60006119b760335460ff1690565b156119f75760405162461bcd60e51b815260206004820152601060248201526f14185d5cd8589b194e881c185d5cd95960821b604482015260640161074c565b60026065541415611a4a5760405162461bcd60e51b815260206004820152601f60248201527f5265656e7472616e637947756172643a207265656e7472616e742063616c6c00604482015260640161074c565b6002606555336000908152610101602052604090205460ff16611aaf5760405162461bcd60e51b815260206004820152601760248201527f43616c6c6572206d75737420626520617070726f766564000000000000000000604482015260640161074c565b60008361ffff16118015611ac8575060028361ffff1611155b611b145760405162461bcd60e51b815260206004820152600d60248201527f496e76616c6964206c6576656c00000000000000000000000000000000000000604482015260640161074c565b600082611b22576001611b25565b60005b60ff16905060fb6040518060c00160405280611b4042613023565b67ffffffffffffffff168152602001611b5888613023565b67ffffffffffffffff908116825260006020808401829052604080850183905261ffff8089166060808801919091528c8216608097880152885460018181018b5599865284862089516002909202018054958a0151948a0151928a01518816600160c01b0277ffffffffffffffffffffffffffffffffffffffffffffffff938916600160801b02939093166fffffffffffffffffffffffffffffffff958916600160401b027fffffffffffffffffffffffffffffffff00000000000000000000000000000000909716929098169190911794909417929092169490941717815592840151928501805460a090950151831662010000027fffffffffffffffffffffffffffffffffffffffffffffffffffffffff0000000090951693909216929092179290921790915560fb549091611c8f91613e60565b9050611c9b87826130a7565b6001925050506001606555949350505050565b6000611cbc60335460ff1690565b15611cfc5760405162461bcd60e51b815260206004820152601060248201526f14185d5cd8589b194e881c185d5cd95960821b604482015260640161074c565b60026065541415611d4f5760405162461bcd60e51b815260206004820152601f60248201527f5265656e7472616e637947756172643a207265656e7472616e742063616c6c00604482015260640161074c565b600260655533611d5e836110af565b6001600160a01b031614611da45760405162461bcd60e51b815260206004820152600d60248201526c2737ba103a34329037bbb732b960991b604482015260640161074c565b600060fb8381548110611db957611db9613e34565b60009182526020909120600290910201600181015490915061ffff16611e215760405162461bcd60e51b815260206004820152601560248201527f4d757374206e6f74206265206175746f52656e65770000000000000000000000604482015260640161074c565b6040805160c081018252825467ffffffffffffffff8082168352600160401b820481166020840152600160801b8204811693830193909352600160c01b90049091166060820152600182015461ffff8082166080840152620100009091041660a0820152600090611e91906123a7565b9050428110611ee25760405162461bcd60e51b815260206004820152600c60248201527f5374696c6c206c6f636b65640000000000000000000000000000000000000000604482015260640161074c565b6000611eee8383612450565b9050611ef9856130c1565b60018301548354600091611f29916201000090910461ffff1690600160401b900467ffffffffffffffff16611253565b610100546040517f6a7b408b000000000000000000000000000000000000000000000000000000008152336004820152602481018390529192506001600160a01b031690636a7b408b90604401600060405180830381600087803b158015611f9057600080fd5b505af1158015611fa4573d6000803e3d6000fd5b50508554600160401b900467ffffffffffffffff16831015915061209190505760fe5484546001600160a01b039091169063a9059cbb903390611ff9908590600160401b900467ffffffffffffffff16613e60565b6040517fffffffff0000000000000000000000000000000000000000000000000000000060e085901b1681526001600160a01b0390921660048301526024820152604401602060405180830381600087803b15801561205757600080fd5b505af115801561206b573d6000803e3d6000fd5b505050506040513d601f19601f8201168201806040525081019061208f9190613f36565b505b83546120af908390600160401b900467ffffffffffffffff16613e77565b60016065559695505050505050565b60335460ff16156121045760405162461bcd60e51b815260206004820152601060248201526f14185d5cd8589b194e881c185d5cd95960821b604482015260640161074c565b3361210e826110af565b6001600160a01b0316146121545760405162461bcd60e51b815260206004820152600d60248201526c2737ba103a34329037bbb732b960991b604482015260640161074c565b600060fb828154811061216957612169613e34565b60009182526020909120600290910201600181015490915061ffff1661218d575050565b61219681613175565b600101805461ffff1916905550565b60335460ff16156121eb5760405162461bcd60e51b815260206004820152601060248201526f14185d5cd8589b194e881c185d5cd95960821b604482015260640161074c565b6002606554141561223e5760405162461bcd60e51b815260206004820152601f60248201527f5265656e7472616e637947756172643a207265656e7472616e742063616c6c00604482015260640161074c565b600260655560ff546001600160a01b0316331461229d5760405162461bcd60e51b815260206004820152601060248201527f6d75737420626520677561726469616e00000000000000000000000000000000604482015260640161074c565b60005b81518110156122de576122cb8282815181106122be576122be613e34565b6020026020010151612def565b50806122d681613eec565b9150506122a0565b50506001606555565b60008161ffff16600114156123045761062e62015180605a613e8f565b8161ffff1660021415610be15761062e6201518061016d613e8f565b60006118e98284613ec4565b600081815260cd60205260409020805473ffffffffffffffffffffffffffffffffffffffff19166001600160a01b038416908117909155819061236e826110af565b6001600160a01b03167f8c5be1e5ebec7d5bd14f71427d1e84f3dd0314c0f7b2291e5b200ac8c7c3b92560405160405180910390a45050565b6000816080015161ffff166000141561241c5760006123e26123cc8460a001516122e7565b84516108739067ffffffffffffffff1642613e60565b6123ed906001613e77565b9050612406816124008560a001516122e7565b90612a23565b83516118e9919067ffffffffffffffff16613e77565b612435826080015161ffff166124008460a001516122e7565b825161062e919067ffffffffffffffff16613e77565b919050565b60008061245d8484612a2f565b8454909150600090612481908390600160801b900467ffffffffffffffff166132cb565b905061248c82613023565b855467ffffffffffffffff91909116600160801b027fffffffffffffffff0000000000000000ffffffffffffffffffffffffffffffff909116178555801561254c5760fe546040517f56ff0715000000000000000000000000000000000000000000000000000000008152336004820152602481018390526001600160a01b03909116906356ff071590604401600060405180830381600087803b15801561253357600080fd5b505af1158015612547573d6000803e3d6000fd5b505050505b949350505050565b600081815260cb60205260408120546001600160a01b03166125de5760405162461bcd60e51b815260206004820152602c60248201527f4552433732313a206f70657261746f7220717565727920666f72206e6f6e657860448201527f697374656e7420746f6b656e0000000000000000000000000000000000000000606482015260840161074c565b60006125e9836110af565b9050806001600160a01b0316846001600160a01b031614806126245750836001600160a01b0316612619846106c6565b6001600160a01b0316145b8061254c57506001600160a01b03808216600090815260ce602090815260408083209388168352929052205460ff1661254c565b826001600160a01b031661266b826110af565b6001600160a01b0316146126e75760405162461bcd60e51b815260206004820152602960248201527f4552433732313a207472616e73666572206f6620746f6b656e2074686174206960448201527f73206e6f74206f776e0000000000000000000000000000000000000000000000606482015260840161074c565b6001600160a01b0382166127625760405162461bcd60e51b8152602060048201526024808201527f4552433732313a207472616e7366657220746f20746865207a65726f2061646460448201527f7265737300000000000000000000000000000000000000000000000000000000606482015260840161074c565b61276d8383836132d7565b61277860008261232c565b6001600160a01b038316600090815260cc602052604081208054600192906127a1908490613e60565b90915550506001600160a01b038216600090815260cc602052604081208054600192906127cf908490613e77565b9091555050600081815260cb6020526040808220805473ffffffffffffffffffffffffffffffffffffffff19166001600160a01b0386811691821790925591518493918716917fddf252ad1be2c89b69c2b068fc378daa952ba7f163c4a11628f55a4df523b3ef91a4505050565b60335460ff1661288f5760405162461bcd60e51b815260206004820152601460248201527f5061757361626c653a206e6f7420706175736564000000000000000000000000604482015260640161074c565b6033805460ff191690557f5db9ee0a495bf2e6ff9c91a7834c1ba4fdd244a5e8aa4e537bd38aeae4b073aa335b6040516001600160a01b03909116815260200160405180910390a1565b60335460ff161561291f5760405162461bcd60e51b815260206004820152601060248201526f14185d5cd8589b194e881c185d5cd95960821b604482015260640161074c565b6033805460ff191660011790557f62e78cea01bee320cd4e420270b5ea74000d11b0c9f74754ebdbfc544b05a2586128bc3390565b816001600160a01b0316836001600160a01b031614156129b65760405162461bcd60e51b815260206004820152601960248201527f4552433732313a20617070726f766520746f2063616c6c657200000000000000604482015260640161074c565b6001600160a01b03838116600081815260ce6020908152604080832094871680845294825291829020805460ff191686151590811790915591519182527f17307eab39ab6107e8899845ad3d59bd9653f200f220920489ca2b5937696c31910160405180910390a3505050565b60006118e98284613e8f565b600080600080428510612a425742612a44565b845b60018701548754919250600091612a709162010000900461ffff169067ffffffffffffffff1684613429565b90506000612a8f8860010160029054906101000a900461ffff166122e7565b905042871015612afb57612aa38742613e60565b9350612af4612abe620f42406124006201518061016d613e8f565b60018a015461087390859061240090612adb9061ffff1687612a23565b8d54600160401b900467ffffffffffffffff1690612a23565b9450612ba7565b8754600090612b1a9083906108739067ffffffffffffffff1642613e60565b8954909150600090612b42908490612b3c9067ffffffffffffffff1642613e60565b9061346e565b8a54909150600090612b6e90620f42409061087390600160401b900467ffffffffffffffff1688612a23565b9050612ba1612b826201518061016d613e8f565b61087384612b908789612a23565b612b9a9190613e77565b8490612a23565b97505050505b612bfd612bb96201518061016d613e8f565b895461087390612bdb908890600160c01b900467ffffffffffffffff16613e77565b8b5461240090600160401b900467ffffffffffffffff166402540be400612a23565b612c079086613e77565b9450612c188564e8d4a51000612320565b98975050505050505050565b612c2f848484612658565b612c3b8484848461347a565b6117725760405162461bcd60e51b815260206004820152603260248201527f4552433732313a207472616e7366657220746f206e6f6e20455243373231526560448201527f63656976657220696d706c656d656e7465720000000000000000000000000000606482015260840161074c565b6060610102805461064390613df9565b606081612cfd57505060408051808201909152600181527f3000000000000000000000000000000000000000000000000000000000000000602082015290565b8160005b8115612d275780612d1181613eec565b9150612d209050600a83613ec4565b9150612d01565b60008167ffffffffffffffff811115612d4257612d42613a82565b6040519080825280601f01601f191660200182016040528015612d6c576020820181803683370190505b5090505b841561254c57612d81600183613e60565b9150612d8e600a86613ed8565b612d99906030613e77565b60f81b818381518110612dae57612dae613e34565b60200101907effffffffffffffffffffffffffffffffffffffffffffffffffffffffffffff1916908160001a905350612de8600a86613ec4565b9450612d70565b600080612dfb836111b9565b610100546040517f440277e80000000000000000000000000000000000000000000000000000000081526001600160a01b0386811660048301529293506000929091169063440277e89060240160206040518083038186803b158015612e6057600080fd5b505afa158015612e74573d6000803e3d6000fd5b505050506040513d601f19601f82011682018060405250810190612e989190613f53565b905060008215612f8b57600060015b60fb54811015612f8857600081815260cb60205260409020546001600160a01b03161580612eef5750866001600160a01b0316612ee3826110af565b6001600160a01b031614155b15612ef957612f76565b84821415612f0657612f88565b600060fb8281548110612f1b57612f1b613e34565b6000918252602090912060029091020160018101548154919250612f6591612f5e9162010000900461ffff1690600160401b900467ffffffffffffffff16611253565b8590613627565b935082612f7181613eec565b935050505b80612f8081613eec565b915050612ea7565b50505b6000612f9783836132cb565b610100546040517f6a7b408b0000000000000000000000000000000000000000000000000000000081526001600160a01b03898116600483015260248201849052929350911690636a7b408b90604401600060405180830381600087803b15801561300157600080fd5b505af1158015613015573d6000803e3d6000fd5b509298975050505050505050565b600067ffffffffffffffff8211156130a35760405162461bcd60e51b815260206004820152602660248201527f53616665436173743a2076616c756520646f65736e27742066697420696e203660448201527f3420626974730000000000000000000000000000000000000000000000000000606482015260840161074c565b5090565b6113ec828260405180602001604052806000815250613633565b60006130cc826110af565b90506130da816000846132d7565b6130e560008361232c565b6001600160a01b038116600090815260cc6020526040812080546001929061310e908490613e60565b9091555050600082815260cb6020526040808220805473ffffffffffffffffffffffffffffffffffffffff19169055518391906001600160a01b038416907fddf252ad1be2c89b69c2b068fc378daa952ba7f163c4a11628f55a4df523b3ef908390a45050565b6040805160c081018252825467ffffffffffffffff8082168352600160401b820481166020840152600160801b8204811693830193909352600160c01b90049091166060820152600182015461ffff8082166080840152620100009091041660a082015242906131e4906123a7565b101561089e57600181015460009061320e9061ffff808216916124009162010000909104166122e7565b825490915061323b9061322c90839067ffffffffffffffff16613e77565b6132369042613e60565b613023565b8254839060189061325e908490600160c01b900467ffffffffffffffff16613f6c565b92506101000a81548167ffffffffffffffff021916908367ffffffffffffffff16021790555061329381426132369190613e60565b82547fffffffffffffffffffffffffffffffffffffffffffffffff00000000000000001667ffffffffffffffff919091161790915550565b60006118e98284613e60565b6001600160a01b03831615806132f457506001600160a01b038216155b156132fe57505050565b600060fb828154811061331357613313613e34565b600091825260208083206040805160c0810182526002909402909101805467ffffffffffffffff8082168652600160401b82048116948601859052600160801b8204811693860193909352600160c01b900490911660608401526001015461ffff8082166080850152620100009091041660a083018190529193506133989190611253565b610100546040517fbc36b07a000000000000000000000000000000000000000000000000000000008152600481018390526001600160a01b038881166024830152878116604483015292935091169063bc36b07a90606401600060405180830381600087803b15801561340a57600080fd5b505af115801561341e573d6000803e3d6000fd5b505050505050505050565b60008361ffff1660011415613446575066470de4df8200006118e9565b8361ffff16600214156134645761345d8383610db5565b90506118e9565b5060009392505050565b60006118e98284613ed8565b60006001600160a01b0384163b1561361c576040517f150b7a020000000000000000000000000000000000000000000000000000000081526001600160a01b0385169063150b7a02906134d7903390899088908890600401613f8f565b602060405180830381600087803b1580156134f157600080fd5b505af1925050508015613521575060408051601f3d908101601f1916820190925261351e91810190613fcb565b60015b6135d1573d80801561354f576040519150601f19603f3d011682016040523d82523d6000602084013e613554565b606091505b5080516135c95760405162461bcd60e51b815260206004820152603260248201527f4552433732313a207472616e7366657220746f206e6f6e20455243373231526560448201527f63656976657220696d706c656d656e7465720000000000000000000000000000606482015260840161074c565b805181602001fd5b7fffffffff00000000000000000000000000000000000000000000000000000000167f150b7a020000000000000000000000000000000000000000000000000000000014905061254c565b506001949350505050565b60006118e98284613e77565b61363d83836136bc565b61364a600084848461347a565b6109ce5760405162461bcd60e51b815260206004820152603260248201527f4552433732313a207472616e7366657220746f206e6f6e20455243373231526560448201527f63656976657220696d706c656d656e7465720000000000000000000000000000606482015260840161074c565b6001600160a01b0382166137125760405162461bcd60e51b815260206004820181905260248201527f4552433732313a206d696e7420746f20746865207a65726f2061646472657373604482015260640161074c565b600081815260cb60205260409020546001600160a01b0316156137775760405162461bcd60e51b815260206004820152601c60248201527f4552433732313a20746f6b656e20616c7265616479206d696e74656400000000604482015260640161074c565b613783600083836132d7565b6001600160a01b038216600090815260cc602052604081208054600192906137ac908490613e77565b9091555050600081815260cb6020526040808220805473ffffffffffffffffffffffffffffffffffffffff19166001600160a01b03861690811790915590518392907fddf252ad1be2c89b69c2b068fc378daa952ba7f163c4a11628f55a4df523b3ef908290a45050565b82805461382390613df9565b90600052602060002090601f016020900481019282613845576000855561388b565b82601f1061385e57805160ff191683800117855561388b565b8280016001018555821561388b579182015b8281111561388b578251825591602001919060010190613870565b506130a39291505b808211156130a35760008155600101613893565b7fffffffff000000000000000000000000000000000000000000000000000000008116811461089e57600080fd5b6000602082840312156138e757600080fd5b81356118e9816138a7565b60005b8381101561390d5781810151838201526020016138f5565b838111156117725750506000910152565b600081518084526139368160208601602086016138f2565b601f01601f19169290920160200192915050565b6020815260006118e9602083018461391e565b60006020828403121561396f57600080fd5b5035919050565b80356001600160a01b038116811461244b57600080fd5b600080604083850312156139a057600080fd5b6139a983613976565b946020939093013593505050565b803561ffff8116811461244b57600080fd5b6000602082840312156139db57600080fd5b6118e9826139b7565b6000806000606084860312156139f957600080fd5b613a0284613976565b9250613a1060208501613976565b9150604084013590509250925092565b60008060408385031215613a3357600080fd5b823567ffffffffffffffff811681146139a957600080fd5b600060208284031215613a5d57600080fd5b6118e982613976565b60008060408385031215613a7957600080fd5b6139a9836139b7565b634e487b7160e01b600052604160045260246000fd5b604051601f8201601f1916810167ffffffffffffffff81118282101715613ac157613ac1613a82565b604052919050565b600067ffffffffffffffff831115613ae357613ae3613a82565b613af66020601f19601f86011601613a98565b9050828152838383011115613b0a57600080fd5b828260208301376000602084830101529392505050565b600060208284031215613b3357600080fd5b813567ffffffffffffffff811115613b4a57600080fd5b8201601f81018413613b5b57600080fd5b61254c84823560208401613ac9565b801515811461089e57600080fd5b60008060408385031215613b8b57600080fd5b613b9483613976565b91506020830135613ba481613b6a565b809150509250929050565b602080825282518282018190526000919060409081850190868401855b82811015613c4d5781518051855286810151878601528581015186860152606080820151908601526080808201519086015260a0808201519086015260c0808201519086015260e08082015161ffff169086015261010080820151151590860152610120908101511515908501526101409093019290850190600101613bcc565b5091979650505050505050565b60008060008060808587031215613c7057600080fd5b613c7985613976565b9350613c8760208601613976565b925060408501359150606085013567ffffffffffffffff811115613caa57600080fd5b8501601f81018713613cbb57600080fd5b613cca87823560208401613ac9565b91505092959194509250565b60008060008060808587031215613cec57600080fd5b613cf585613976565b935060208501359250613d0a604086016139b7565b91506060850135613d1a81613b6a565b939692955090935050565b60008060408385031215613d3857600080fd5b613d4183613976565b9150613d4f60208401613976565b90509250929050565b60006020808385031215613d6b57600080fd5b823567ffffffffffffffff80821115613d8357600080fd5b818501915085601f830112613d9757600080fd5b813581811115613da957613da9613a82565b8060051b9150613dba848301613a98565b8181529183018401918481019088841115613dd457600080fd5b938501935b83851015612c1857613dea85613976565b82529385019390850190613dd9565b600181811c90821680613e0d57607f821691505b60208210811415613e2e57634e487b7160e01b600052602260045260246000fd5b50919050565b634e487b7160e01b600052603260045260246000fd5b634e487b7160e01b600052601160045260246000fd5b600082821015613e7257613e72613e4a565b500390565b60008219821115613e8a57613e8a613e4a565b500190565b6000816000190483118215151615613ea957613ea9613e4a565b500290565b634e487b7160e01b600052601260045260246000fd5b600082613ed357613ed3613eae565b500490565b600082613ee757613ee7613eae565b500690565b6000600019821415613f0057613f00613e4a565b5060010190565b60008351613f198184602088016138f2565b835190830190613f2d8183602088016138f2565b01949350505050565b600060208284031215613f4857600080fd5b81516118e981613b6a565b600060208284031215613f6557600080fd5b5051919050565b600067ffffffffffffffff808316818516808303821115613f2d57613f2d613e4a565b60006001600160a01b03808716835280861660208401525083604083015260806060830152613fc1608083018461391e565b9695505050505050565b600060208284031215613fdd57600080fd5b81516118e9816138a756fea2646970667358221220687bf6be2f3f0f4aadc1d00b5cfc88b2e0afad1286485a1902c10171ef44bab764736f6c63430008090033",
  "immutableReferences": {},
  "source": "// SPDX-License-Identifier: MIT\npragma solidity ^0.8.4;\n\nimport '../@openzeppelin/contracts-upgradeable/proxy/utils/Initializable.sol';\nimport '../@openzeppelin/contracts-upgradeable/token/ERC721/ERC721Upgradeable.sol';\nimport '../@openzeppelin/contracts/utils/math/SafeMath.sol';\nimport '../@openzeppelin/contracts/utils/math/SignedSafeMath.sol';\nimport '../@openzeppelin/contracts/utils/math/SafeCast.sol';\nimport '../@openzeppelin/contracts-upgradeable/security/PausableUpgradeable.sol';\nimport '../@openzeppelin/contracts-upgradeable/security/ReentrancyGuardUpgradeable.sol';\n\nimport './../PoolStakingRewards/PoolStakingRewards5.sol';\nimport './../PoolCore/Pool13.sol';\n\n// import \"hardhat/console.sol\";\n\ncontract HomeBoost4 is\n  PausableUpgradeable,\n  ReentrancyGuardUpgradeable,\n  ERC721Upgradeable\n{\n    using SafeMath for uint256;\n    using SafeMath for uint64;\n    using SafeMath for uint16;\n    // 60 * 60 * 24\n    uint256 constant SECONDS_PER_DAY = 86400;\n    uint256 constant SECONDS_PER_WEEK = SECONDS_PER_DAY * 7;\n    // use real year (365 days)\n    uint256 constant SECONDS_PER_YEAR = SECONDS_PER_DAY * 365;\n    // 90 days\n    uint256 constant LEVEL_1_SECONDS_PER_ITERATION = SECONDS_PER_DAY * 90;\n    // 1 year\n    uint256 constant LEVEL_2_SECONDS_PER_ITERATION = SECONDS_PER_YEAR;\n\n    uint256 constant LEVEL_1_RATE = 2 * 10 ** 16;\n\n    // Stored per boost token.\n    struct Boost {\n        uint64 startTime;\n        uint64 principal;\n        uint64 claimedRewards;\n        uint64 additionalMatureSeconds; // accumulates seconds that the Boost was mature before being renewed.\n        uint16 endIteration; // 0 for never (auto-renew) or a value for the number of iterations\n        uint16 level;\n    }\n\n    // Used to get relevant details about boosts to callers into the contract (e.g. the UI)\n    // Never written to storage.\n    struct BoostDetail {\n        uint256 id;\n        uint256 startTime;\n        uint256 principal;\n        uint256 claimedRewards;\n        uint256 totalRewards;\n        uint256 apy;\n        uint256 nextRewardTimestamp;\n        uint16 level;\n        bool isComplete; // true if time has passed the end of the last iteration\n        bool isAutoRenew;\n    }\n\n    Boost[] private boostData;\n    uint256 weeklyStartTime;\n    uint256[] private weeklyInterestRates;\n\n    address poolAddress;\n    address guardianAddress;\n    address poolStakingRewardAddress;\n    mapping(address => bool) isApproved;\n    string boostBaseURI;\n\n    ///\n    /// Getters\n    ///\n    function _baseURI() internal view override returns (string memory) {\n        return boostBaseURI;\n    }\n\n    //\n    // returns startTime, principal, additionalMatureSeconds, endIteration, level\n    // use getTokenData for a more human readable version of this data\n    //\n    function getRawTokenData(uint256 tokenId) public view returns(Boost memory) {\n        return boostData[tokenId];\n    }\n\n    function getPerYearRateForLevel(uint16 level, uint64 startTime, uint256 endTime) private view returns(uint256) {\n        if (level == 1) {\n            return LEVEL_1_RATE; // 2% apy over 90 days in a 365 day year\n        } else if (level == 2) {\n            return getPerYearRateForLevel2(startTime, endTime);\n        }\n\n        return 0;\n    }\n\n    function getWeeklyInterestRate(uint256 week) public view returns(uint256) {\n      if (week >= weeklyInterestRates.length)\n        return 0;\n      return weeklyInterestRates[week].mul(10 ** 12); // 18 digits of precision for computations down the line.\n    }\n\n    function getPerYearRateForLevel2(uint64 startTime, uint256 endTime) public view returns(uint256) {\n        if (weeklyInterestRates.length == 0 || startTime == endTime)\n            return 0;\n\n        require(startTime >= weeklyStartTime, \"startTime must be greater because negatives are bad\");\n        uint256 startWeekNumber = (startTime - weeklyStartTime) / SECONDS_PER_WEEK;\n        uint256 startWeekFraction =  ((startTime - weeklyStartTime) % SECONDS_PER_WEEK);\n\n        // We're at the start, so we need the time elaspsed since the start to a week ending.\n        // Mod takes it to zero if startWeekFraction is already zero. Might be better to if it.\n        startWeekFraction = (SECONDS_PER_WEEK - startWeekFraction) % SECONDS_PER_WEEK;\n\n        uint256 endWeekNumber = ((endTime - weeklyStartTime) / SECONDS_PER_WEEK);\n        uint256 endWeekNumberFraction = ((endTime - weeklyStartTime) % SECONDS_PER_WEEK);\n\n        // fracitonalSum isn't a uint. It's really interest seconds, but that's not a type here.\n        uint256 fracitonalSum = (getWeeklyInterestRate(endWeekNumber) * endWeekNumberFraction);\n\n        // We're still in the first week. All the other stuff is unnecessary.\n        // And breaks if we don't exit early.\n        if (endWeekNumber - startWeekNumber == 0)\n           return fracitonalSum / (endTime - startTime);\n\n        fracitonalSum += (getWeeklyInterestRate(startWeekNumber) * startWeekFraction);\n\n        // The first week is handled in the loop, if there's no fractional part.\n        if (startWeekFraction > 0)\n          startWeekNumber += 1;\n\n        // sum is actually interest weeks.\n        uint256 sum = 0;\n        uint256 i;\n\n        for (i = startWeekNumber; i < endWeekNumber; i++) {\n          sum += getWeeklyInterestRate(i);\n        }\n\n        // Normalize the return to interest/timespan.\n        sum = ((sum * SECONDS_PER_WEEK) + fracitonalSum) / (endTime - startTime);\n        return sum;\n    }\n\n    function getAPYForLevel(uint16 level) public view returns(uint256) {\n        if (level == 1) {\n            return 20000;\n        } else if (level == 2) {\n            if (weeklyInterestRates.length == 0)\n              return 0;\n            return weeklyInterestRates[weeklyInterestRates.length - 1];\n        }\n        return 0;\n    }\n\n    //\n    // Returns the amount of token that is sent to staking to earn BACON rewards\n    //\n    function getStakeAmount(uint16 level, uint256 rawAmount) public pure returns(uint256) {\n        if (level == 1) {\n            return rawAmount.div(2); // 50% of the rewards\n        } else if (level == 2) {\n            return rawAmount;        // 100% of the rewards\n        }\n        return 0;\n    }\n\n\n    function getSecondsPerIteration(uint16 level) private pure returns(uint256) {\n        if (level == 1) {\n            return LEVEL_1_SECONDS_PER_ITERATION;\n        } else if (level == 2) {\n            return LEVEL_2_SECONDS_PER_ITERATION;\n        }\n        return 0;\n    }\n\n    function getNextRewardTimestamp(Boost memory boost) private view returns(uint256) {\n        if (boost.endIteration == 0) {\n            uint256 nextIteration = (block.timestamp - boost.startTime).div(getSecondsPerIteration(boost.level)) + 1;\n            return boost.startTime + getSecondsPerIteration(boost.level).mul(nextIteration);\n        } else {\n            return boost.startTime + getSecondsPerIteration(boost.level).mul(boost.endIteration);\n        }\n    }\n\n    //\n    // Returns a list of token data structures, one for each token owned by the caller.\n    //\n    function getTokens() public view returns(BoostDetail[] memory)\n    {\n        uint256 ownedTokens = balanceOf(msg.sender);\n        BoostDetail[] memory details = new BoostDetail[](ownedTokens);\n        if (ownedTokens == 0) {\n            return details;\n        }\n        uint256 currentDetailIndex = 0;\n        // Index 0 is a placeholder so skip it.\n        for(uint256 currentId = 1; currentId < boostData.length; currentId++) {\n            if (!_exists(currentId) || ownerOf(currentId) != msg.sender){\n                continue;\n            }\n\n            if (currentDetailIndex == details.length){\n                break;\n            }\n\n            Boost storage currentBoost = boostData[currentId];\n            uint256 nextRewardTimestamp = getNextRewardTimestamp(currentBoost);\n            details[currentDetailIndex] = BoostDetail(\n                currentId,\n                currentBoost.startTime,\n                currentBoost.principal,\n                currentBoost.claimedRewards,\n                computeTotalRewards(currentBoost, nextRewardTimestamp),\n                getAPYForLevel(currentBoost.level),\n                nextRewardTimestamp,\n                currentBoost.level,\n                nextRewardTimestamp < block.timestamp,\n                currentBoost.endIteration == 0\n            );\n\n            currentDetailIndex++;\n        }\n\n        return details;\n    }\n\n\n    ///\n    /// Mutations\n    ///\n\n    function approveAccess(address addr) public{\n        require(msg.sender == guardianAddress, \"caller must be guardian\");\n        isApproved[addr] = true;\n    }\n\n    function revokeAccess(address addr) public{\n        require(msg.sender == guardianAddress, \"caller must be guardian\");\n        isApproved[addr] = false;\n    }\n\n    function setBoostBaseUri(string memory _boostBaseURI) public {\n        require(msg.sender == guardianAddress, \"caller must be guardian\");\n        boostBaseURI = _boostBaseURI;\n    }\n\n    function pause() public {\n        require(msg.sender == guardianAddress, \"caller must be guardian\");\n        _pause();\n    }\n\n    function unpause() public {\n        require(msg.sender == guardianAddress, \"caller must be guardian\");\n        _unpause();\n    }\n\n    // Create a boost token\n    function mint(address to, uint256 principal, uint16 level, bool autoRenew) public whenNotPaused nonReentrant returns (bool) {\n        require(isApproved[msg.sender], \"Caller must be approved\");\n        require(level > 0 && level <=2, \"Invalid level\");\n\n        uint16 endIteration = autoRenew ? 0 : 1;\n\n        boostData.push(Boost(SafeCast.toUint64(block.timestamp), SafeCast.toUint64(principal), 0, 0, endIteration, level));\n        uint256 tokenId = boostData.length - 1;\n\n        _safeMint(to, tokenId);\n        \n        return true;\n    }\n\n    function beforeIterationChange(Boost storage boost) private {\n        if (getNextRewardTimestamp(boost) < block.timestamp) {\n            // Boost is mature so we have to record the number of days that it was mature so we can pay interest on them\n            uint256 boostedDuration = getSecondsPerIteration(boost.level).mul(boost.endIteration);\n            boost.additionalMatureSeconds += SafeCast.toUint64(block.timestamp - (boost.startTime + boostedDuration));\n            boost.startTime = SafeCast.toUint64(block.timestamp - boostedDuration);\n        }\n    }\n\n    // Set a boost to auto renew.\n    // if boost is already auto renew do nothing\n    // if boost is not yet mature, just set the iteration count to 0\n    // else boost is mature, stash the additionalMatureSeconds, set startTime to currentBlockTime - iterationCount*iterationDuration and set iterationCount to 0\n    function setToAutoRenew(uint256 boostId) public whenNotPaused{\n        require(ownerOf(boostId) == msg.sender, \"Not the owner\");\n        Boost storage boost = boostData[boostId];\n        if (boost.endIteration == 0) {\n            return;\n        }\n\n        beforeIterationChange(boost);\n\n        boost.endIteration = 0;\n    }\n\n    // End the auto renew on a boost. This will allow it to be claimed when the current iteration is over.\n    function endAutoRenew(uint256 boostId) public whenNotPaused {\n        require(ownerOf(boostId) == msg.sender, \"Not the owner\");\n        Boost storage boost = boostData[boostId];\n        if (boost.endIteration != 0) {\n            return;\n        }\n\n        boost.endIteration = (uint16) ((block.timestamp - boost.startTime).div(getSecondsPerIteration(boost.level)) + 1);\n    }\n\n    // claim the rewards and principal from a boost. This also burns the boost token.\n    function claimPrincipal(uint256 boostId) public whenNotPaused nonReentrant returns (uint256) {\n        require(ownerOf(boostId) == msg.sender, \"Not the owner\");\n        Boost storage boost = boostData[boostId];\n        // endAutoRenew must be called first\n        require(boost.endIteration != 0, \"Must not be autoRenew\");\n        // boost must be mature\n        uint256 nextRewardTimestamp = getNextRewardTimestamp(boost);\n        require(nextRewardTimestamp < block.timestamp, \"Still locked\");\n\n        uint256 claimedRewards = claimRewardsCore(boost, nextRewardTimestamp);\n\n        _burn(boostId);\n        // Portions of the Principal is held by the staking contract so that it can earn bacon.\n        uint256 amountStaked = getStakeAmount(boost.level, boost.principal);\n        PoolStakingRewards5(poolStakingRewardAddress).unstakeForWallet(msg.sender, amountStaked);\n\n        if (amountStaked < boost.principal) {\n            // Return the non-staked boost principal held in this contract\n            IERC20(poolAddress).transfer(msg.sender, boost.principal - amountStaked);\n        }\n\n        return boost.principal + claimedRewards;\n    }\n\n    // Allow users to unstake all HOME staked using the old staking methods.\n    function claimPreBoostStake() public whenNotPaused nonReentrant returns (uint256) {\n        return claimPreBoostStakeForAddress(msg.sender);\n    }\n\n    // Internal function to unstake all HOME staked using the old staking methods.\n    function claimPreBoostStakeForAddress(address wallet) private returns (uint256) {\n        uint256 ownedTokenCount = balanceOf(wallet);\n        uint256 stakedAmount = PoolStakingRewards5(poolStakingRewardAddress).getCurrentBalance(wallet);\n\n        uint boostStakedAmount = 0;\n        if (ownedTokenCount > 0) {\n            // compute the total amount staked by boosts. This is going to grow in cost as the total number of boosts\n            // grows, but the common case should be calling this once when the caller has 0 boosts.\n            uint256 currentOwnedIndex = 0;\n            // Index 0 is a placeholder so skip it.\n            for(uint256 currentId = 1; currentId < boostData.length; currentId++) {\n                if (!_exists(currentId) || ownerOf(currentId) != wallet){\n                    continue;\n                }\n\n                if (currentOwnedIndex == ownedTokenCount){\n                    break;\n                }\n\n                Boost storage boost = boostData[currentId];\n                boostStakedAmount = boostStakedAmount.add(getStakeAmount(boost.level, boost.principal));\n\n                currentOwnedIndex++;\n            }\n        }\n\n        uint256 amount = stakedAmount.sub(boostStakedAmount);\n\n        PoolStakingRewards5(poolStakingRewardAddress).unstakeForWallet(wallet, amount);\n\n        return amount;\n    }\n\n    function unstakePreBoostStakes(address[] memory addresses) public whenNotPaused nonReentrant {\n        require(msg.sender == guardianAddress, \"must be guardian\");\n\n        for (uint256 currentAddressIndex = 0; currentAddressIndex < addresses.length; currentAddressIndex++) {\n            claimPreBoostStakeForAddress(addresses[currentAddressIndex]);\n        }\n    }\n\n    // Claim all the rewards that can be claimed from this boost. This is only what is earned from past iterations.\n    function claimRewards(uint256 boostId) public whenNotPaused nonReentrant returns (uint256) {\n        // Claim only the rewards that have been earned so far in this boost - the rewards that have already been claimed\n        require(ownerOf(boostId) == msg.sender, \"Not the owner\");\n        Boost storage boost = boostData[boostId];\n        uint256 nextRewardTimestamp = getNextRewardTimestamp(boost);\n\n        return claimRewardsCore(boost, nextRewardTimestamp);\n    }\n\n    function computeTotalRewards(Boost storage boost, uint256 nextRewardTimestamp) private view returns (uint256) {\n        uint256 totalRewardAmount;\n        uint256 newMatureSeconds = 0;\n        uint256 endTime = nextRewardTimestamp < block.timestamp ? nextRewardTimestamp : block.timestamp;\n        uint256 rate = getPerYearRateForLevel(boost.level, boost.startTime, endTime);\n        uint256 secondsPerIteration = getSecondsPerIteration(boost.level);\n        // if the boost is mature, then just udpate how long we've been mature and pay those rewards\n        if (nextRewardTimestamp < block.timestamp) {\n            newMatureSeconds = block.timestamp - nextRewardTimestamp;\n            totalRewardAmount = boost.principal.mul(boost.endIteration.mul(secondsPerIteration)).mul(rate).div(SECONDS_PER_YEAR.mul(10 ** 6));\n        } else {\n            // Otherwise the boost isn't mature. We can pay rewards up to the last full iteration plus whatever has been earned in the current iteration\n            uint256 completeIterations = (block.timestamp - boost.startTime).div(secondsPerIteration);\n            uint256 partialIteration = (block.timestamp - boost.startTime).mod(secondsPerIteration);\n            uint256 rewardPerYear = boost.principal.mul(rate).div(1_000_000);\n            // console.log('completeIterations %s, partial Iteration: %s', completeIterations, partialIteration);\n            totalRewardAmount = rewardPerYear.mul(completeIterations.mul(secondsPerIteration)+partialIteration).div(SECONDS_PER_YEAR);\n        }\n        // console.log('total rewards before mature rewards: %s', totalRewardAmount);\n        totalRewardAmount += boost.principal.mul(10 ** 10).mul(boost.additionalMatureSeconds + newMatureSeconds).div(SECONDS_PER_YEAR);\n        // console.log('total rewards after mature rewards: %s', totalRewardAmount);\n        return totalRewardAmount.div(10**12); // return 6 digits of precision\n    }\n\n    function claimRewardsCore(Boost storage boost, uint256 nextRewardTimestamp) private returns (uint256) {\n        uint256 totalRewardAmount = computeTotalRewards(boost, nextRewardTimestamp);\n        // subtract out the rewards that we have already paid\n        uint256 rewardAmount = totalRewardAmount.sub(boost.claimedRewards);\n        boost.claimedRewards = SafeCast.toUint64(totalRewardAmount);\n\n        // pay the rewards if there are any\n        if (rewardAmount > 0) {\n            Pool13(poolAddress).transferBoostRewards(msg.sender, rewardAmount);\n        }\n\n        return rewardAmount;\n    }\n\n    function appendInterestRate(uint256 newRate) public {\n        require(msg.sender == guardianAddress, \"caller must be guardian\");\n        weeklyInterestRates.push(newRate);\n    }\n\n    function setWeeklyStartTime(uint256 _weeklyStartTime) public {\n        require(msg.sender == guardianAddress, \"caller must be guardian\");\n        weeklyStartTime = _weeklyStartTime;\n    }\n\n    ///\n    /// overrides\n    ///\n\n    function _beforeTokenTransfer(\n        address from,\n        address to,\n        uint256 tokenId\n    ) internal override {\n        // Ignore mint and burn\n        if (from == address(0) || to == address(0)) {\n            return;\n        }\n\n        Boost memory boost = boostData[tokenId];\n\n        uint256 stake = getStakeAmount(boost.level, boost.principal);\n\n        PoolStakingRewards5(poolStakingRewardAddress).transferStake(stake, from, to);\n    }\n}\n",
  "sourcePath": "/Users/allan/src/mf/HomeDAO/contracts/HomeBoost/HomeBoost4.sol",
  "compiler": {
    "name": "solc",
    "version": "0.8.9+commit.e5eed63a.Emscripten.clang"
  },
  "schemaVersion": "3.4.10",
  "updatedAt": "2022-10-28T05:21:07.729Z",
  "networkType": "ethereum",
  "devdoc": {
    "kind": "dev",
    "methods": {
      "approve(address,uint256)": {
        "details": "See {IERC721-approve}."
      },
      "balanceOf(address)": {
        "details": "See {IERC721-balanceOf}."
      },
      "getApproved(uint256)": {
        "details": "See {IERC721-getApproved}."
      },
      "isApprovedForAll(address,address)": {
        "details": "See {IERC721-isApprovedForAll}."
      },
      "name()": {
        "details": "See {IERC721Metadata-name}."
      },
      "ownerOf(uint256)": {
        "details": "See {IERC721-ownerOf}."
      },
      "paused()": {
        "details": "Returns true if the contract is paused, and false otherwise."
      },
      "safeTransferFrom(address,address,uint256)": {
        "details": "See {IERC721-safeTransferFrom}."
      },
      "safeTransferFrom(address,address,uint256,bytes)": {
        "details": "See {IERC721-safeTransferFrom}."
      },
      "setApprovalForAll(address,bool)": {
        "details": "See {IERC721-setApprovalForAll}."
      },
      "supportsInterface(bytes4)": {
        "details": "See {IERC165-supportsInterface}."
      },
      "symbol()": {
        "details": "See {IERC721Metadata-symbol}."
      },
      "tokenURI(uint256)": {
        "details": "See {IERC721Metadata-tokenURI}."
      },
      "transferFrom(address,address,uint256)": {
        "details": "See {IERC721-transferFrom}."
      }
    },
    "version": 1
  },
  "userdoc": {
    "kind": "user",
    "methods": {
      "approveAccess(address)": {
        "notice": " Mutations"
      }
    },
    "version": 1
  }
}