{
  "abi": [
    {
      "anonymous": false,
      "inputs": [
        {
          "indexed": true,
          "internalType": "address",
          "name": "owner",
          "type": "address"
        },
        {
          "indexed": true,
          "internalType": "address",
          "name": "approved",
          "type": "address"
        },
        {
          "indexed": true,
          "internalType": "uint256",
          "name": "tokenId",
          "type": "uint256"
        }
      ],
      "name": "Approval",
      "type": "event"
    },
    {
      "anonymous": false,
      "inputs": [
        {
          "indexed": true,
          "internalType": "address",
          "name": "owner",
          "type": "address"
        },
        {
          "indexed": true,
          "internalType": "address",
          "name": "operator",
          "type": "address"
        },
        {
          "indexed": false,
          "internalType": "bool",
          "name": "approved",
          "type": "bool"
        }
      ],
      "name": "ApprovalForAll",
      "type": "event"
    },
    {
      "anonymous": false,
      "inputs": [
        {
          "indexed": false,
          "internalType": "address",
          "name": "account",
          "type": "address"
        }
      ],
      "name": "Paused",
      "type": "event"
    },
    {
      "anonymous": false,
      "inputs": [
        {
          "indexed": true,
          "internalType": "address",
          "name": "from",
          "type": "address"
        },
        {
          "indexed": true,
          "internalType": "address",
          "name": "to",
          "type": "address"
        },
        {
          "indexed": true,
          "internalType": "uint256",
          "name": "tokenId",
          "type": "uint256"
        }
      ],
      "name": "Transfer",
      "type": "event"
    },
    {
      "anonymous": false,
      "inputs": [
        {
          "indexed": false,
          "internalType": "address",
          "name": "account",
          "type": "address"
        }
      ],
      "name": "Unpaused",
      "type": "event"
    },
    {
      "inputs": [
        {
          "internalType": "address",
          "name": "to",
          "type": "address"
        },
        {
          "internalType": "uint256",
          "name": "tokenId",
          "type": "uint256"
        }
      ],
      "name": "approve",
      "outputs": [],
      "stateMutability": "nonpayable",
      "type": "function"
    },
    {
      "inputs": [
        {
          "internalType": "address",
          "name": "owner",
          "type": "address"
        }
      ],
      "name": "balanceOf",
      "outputs": [
        {
          "internalType": "uint256",
          "name": "",
          "type": "uint256"
        }
      ],
      "stateMutability": "view",
      "type": "function"
    },
    {
      "inputs": [
        {
          "internalType": "uint256",
          "name": "tokenId",
          "type": "uint256"
        }
      ],
      "name": "getApproved",
      "outputs": [
        {
          "internalType": "address",
          "name": "",
          "type": "address"
        }
      ],
      "stateMutability": "view",
      "type": "function"
    },
    {
      "inputs": [
        {
          "internalType": "address",
          "name": "owner",
          "type": "address"
        },
        {
          "internalType": "address",
          "name": "operator",
          "type": "address"
        }
      ],
      "name": "isApprovedForAll",
      "outputs": [
        {
          "internalType": "bool",
          "name": "",
          "type": "bool"
        }
      ],
      "stateMutability": "view",
      "type": "function"
    },
    {
      "inputs": [],
      "name": "name",
      "outputs": [
        {
          "internalType": "string",
          "name": "",
          "type": "string"
        }
      ],
      "stateMutability": "view",
      "type": "function"
    },
    {
      "inputs": [
        {
          "internalType": "uint256",
          "name": "tokenId",
          "type": "uint256"
        }
      ],
      "name": "ownerOf",
      "outputs": [
        {
          "internalType": "address",
          "name": "",
          "type": "address"
        }
      ],
      "stateMutability": "view",
      "type": "function"
    },
    {
      "inputs": [],
      "name": "paused",
      "outputs": [
        {
          "internalType": "bool",
          "name": "",
          "type": "bool"
        }
      ],
      "stateMutability": "view",
      "type": "function"
    },
    {
      "inputs": [
        {
          "internalType": "address",
          "name": "from",
          "type": "address"
        },
        {
          "internalType": "address",
          "name": "to",
          "type": "address"
        },
        {
          "internalType": "uint256",
          "name": "tokenId",
          "type": "uint256"
        }
      ],
      "name": "safeTransferFrom",
      "outputs": [],
      "stateMutability": "nonpayable",
      "type": "function"
    },
    {
      "inputs": [
        {
          "internalType": "address",
          "name": "from",
          "type": "address"
        },
        {
          "internalType": "address",
          "name": "to",
          "type": "address"
        },
        {
          "internalType": "uint256",
          "name": "tokenId",
          "type": "uint256"
        },
        {
          "internalType": "bytes",
          "name": "_data",
          "type": "bytes"
        }
      ],
      "name": "safeTransferFrom",
      "outputs": [],
      "stateMutability": "nonpayable",
      "type": "function"
    },
    {
      "inputs": [
        {
          "internalType": "address",
          "name": "operator",
          "type": "address"
        },
        {
          "internalType": "bool",
          "name": "approved",
          "type": "bool"
        }
      ],
      "name": "setApprovalForAll",
      "outputs": [],
      "stateMutability": "nonpayable",
      "type": "function"
    },
    {
      "inputs": [
        {
          "internalType": "bytes4",
          "name": "interfaceId",
          "type": "bytes4"
        }
      ],
      "name": "supportsInterface",
      "outputs": [
        {
          "internalType": "bool",
          "name": "",
          "type": "bool"
        }
      ],
      "stateMutability": "view",
      "type": "function"
    },
    {
      "inputs": [],
      "name": "symbol",
      "outputs": [
        {
          "internalType": "string",
          "name": "",
          "type": "string"
        }
      ],
      "stateMutability": "view",
      "type": "function"
    },
    {
      "inputs": [
        {
          "internalType": "uint256",
          "name": "tokenId",
          "type": "uint256"
        }
      ],
      "name": "tokenURI",
      "outputs": [
        {
          "internalType": "string",
          "name": "",
          "type": "string"
        }
      ],
      "stateMutability": "view",
      "type": "function"
    },
    {
      "inputs": [
        {
          "internalType": "address",
          "name": "from",
          "type": "address"
        },
        {
          "internalType": "address",
          "name": "to",
          "type": "address"
        },
        {
          "internalType": "uint256",
          "name": "tokenId",
          "type": "uint256"
        }
      ],
      "name": "transferFrom",
      "outputs": [],
      "stateMutability": "nonpayable",
      "type": "function"
    },
    {
      "inputs": [
        {
          "internalType": "string",
          "name": "name",
          "type": "string"
        },
        {
          "internalType": "string",
          "name": "symbol",
          "type": "string"
        },
        {
          "internalType": "address",
          "name": "_guardianAddress",
          "type": "address"
        },
        {
          "internalType": "address",
          "name": "_poolAddress",
          "type": "address"
        },
        {
          "internalType": "address",
          "name": "_poolStakingRewardAddress",
          "type": "address"
        }
      ],
      "name": "initialize",
      "outputs": [],
      "stateMutability": "nonpayable",
      "type": "function"
    },
    {
      "inputs": [
        {
          "internalType": "uint256",
          "name": "tokenId",
          "type": "uint256"
        }
      ],
      "name": "getRawTokenData",
      "outputs": [
        {
          "components": [
            {
              "internalType": "uint64",
              "name": "startTime",
              "type": "uint64"
            },
            {
              "internalType": "uint64",
              "name": "principal",
              "type": "uint64"
            },
            {
              "internalType": "uint64",
              "name": "claimedRewards",
              "type": "uint64"
            },
            {
              "internalType": "uint64",
              "name": "additionalMatureSeconds",
              "type": "uint64"
            },
            {
              "internalType": "uint16",
              "name": "endIteration",
              "type": "uint16"
            },
            {
              "internalType": "uint16",
              "name": "level",
              "type": "uint16"
            }
          ],
          "internalType": "struct HomeBoost0.Boost",
          "name": "",
          "type": "tuple"
        }
      ],
      "stateMutability": "view",
      "type": "function"
    },
    {
      "inputs": [
        {
          "internalType": "uint64",
          "name": "startTime",
          "type": "uint64"
        },
        {
          "internalType": "uint256",
          "name": "endTime",
          "type": "uint256"
        }
      ],
      "name": "getPerIterationRateForLevel2",
      "outputs": [
        {
          "internalType": "uint256",
          "name": "",
          "type": "uint256"
        }
      ],
      "stateMutability": "view",
      "type": "function"
    },
    {
      "inputs": [
        {
          "internalType": "uint16",
          "name": "level",
          "type": "uint16"
        }
      ],
      "name": "getAPYForLevel",
      "outputs": [
        {
          "internalType": "uint256",
          "name": "",
          "type": "uint256"
        }
      ],
      "stateMutability": "view",
      "type": "function"
    },
    {
      "inputs": [
        {
          "internalType": "uint16",
          "name": "level",
          "type": "uint16"
        },
        {
          "internalType": "uint256",
          "name": "rawAmount",
          "type": "uint256"
        }
      ],
      "name": "getStakeAmount",
      "outputs": [
        {
          "internalType": "uint256",
          "name": "",
          "type": "uint256"
        }
      ],
      "stateMutability": "pure",
      "type": "function"
    },
    {
      "inputs": [],
      "name": "getTokens",
      "outputs": [
        {
          "components": [
            {
              "internalType": "uint256",
              "name": "id",
              "type": "uint256"
            },
            {
              "internalType": "uint256",
              "name": "startTime",
              "type": "uint256"
            },
            {
              "internalType": "uint256",
              "name": "principal",
              "type": "uint256"
            },
            {
              "internalType": "uint256",
              "name": "claimedRewards",
              "type": "uint256"
            },
            {
              "internalType": "uint256",
              "name": "totalRewards",
              "type": "uint256"
            },
            {
              "internalType": "uint256",
              "name": "apy",
              "type": "uint256"
            },
            {
              "internalType": "uint256",
              "name": "nextRewardTimestamp",
              "type": "uint256"
            },
            {
              "internalType": "uint16",
              "name": "level",
              "type": "uint16"
            },
            {
              "internalType": "bool",
              "name": "isComplete",
              "type": "bool"
            },
            {
              "internalType": "bool",
              "name": "isAutoRenew",
              "type": "bool"
            }
          ],
          "internalType": "struct HomeBoost0.BoostDetail[]",
          "name": "",
          "type": "tuple[]"
        }
      ],
      "stateMutability": "view",
      "type": "function"
    },
    {
      "inputs": [
        {
          "internalType": "address",
          "name": "addr",
          "type": "address"
        }
      ],
      "name": "approveAccess",
      "outputs": [],
      "stateMutability": "nonpayable",
      "type": "function"
    },
    {
      "inputs": [
        {
          "internalType": "address",
          "name": "addr",
          "type": "address"
        }
      ],
      "name": "revokeAccess",
      "outputs": [],
      "stateMutability": "nonpayable",
      "type": "function"
    },
    {
      "inputs": [
        {
          "internalType": "string",
          "name": "_boostBaseURI",
          "type": "string"
        }
      ],
      "name": "setBoostBaseUri",
      "outputs": [],
      "stateMutability": "nonpayable",
      "type": "function"
    },
    {
      "inputs": [],
      "name": "pause",
      "outputs": [],
      "stateMutability": "nonpayable",
      "type": "function"
    },
    {
      "inputs": [],
      "name": "unpause",
      "outputs": [],
      "stateMutability": "nonpayable",
      "type": "function"
    },
    {
      "inputs": [
        {
          "internalType": "address",
          "name": "to",
          "type": "address"
        },
        {
          "internalType": "uint256",
          "name": "principal",
          "type": "uint256"
        },
        {
          "internalType": "uint16",
          "name": "level",
          "type": "uint16"
        },
        {
          "internalType": "bool",
          "name": "autoRenew",
          "type": "bool"
        }
      ],
      "name": "mint",
      "outputs": [
        {
          "internalType": "bool",
          "name": "",
          "type": "bool"
        }
      ],
      "stateMutability": "nonpayable",
      "type": "function"
    },
    {
      "inputs": [
        {
          "internalType": "uint256",
          "name": "boostId",
          "type": "uint256"
        }
      ],
      "name": "setToAutoRenew",
      "outputs": [],
      "stateMutability": "nonpayable",
      "type": "function"
    },
    {
      "inputs": [
        {
          "internalType": "uint256",
          "name": "boostId",
          "type": "uint256"
        }
      ],
      "name": "endAutoRenew",
      "outputs": [],
      "stateMutability": "nonpayable",
      "type": "function"
    },
    {
      "inputs": [
        {
          "internalType": "uint256",
          "name": "boostId",
          "type": "uint256"
        }
      ],
      "name": "claimPrincipal",
      "outputs": [
        {
          "internalType": "uint256",
          "name": "",
          "type": "uint256"
        }
      ],
      "stateMutability": "nonpayable",
      "type": "function"
    },
    {
      "inputs": [],
      "name": "claimPreBoostStake",
      "outputs": [
        {
          "internalType": "uint256",
          "name": "",
          "type": "uint256"
        }
      ],
      "stateMutability": "nonpayable",
      "type": "function"
    },
    {
      "inputs": [
        {
          "internalType": "uint256",
          "name": "boostId",
          "type": "uint256"
        }
      ],
      "name": "claimRewards",
      "outputs": [
        {
          "internalType": "uint256",
          "name": "",
          "type": "uint256"
        }
      ],
      "stateMutability": "nonpayable",
      "type": "function"
    },
    {
      "inputs": [
        {
          "internalType": "uint256",
          "name": "newRate",
          "type": "uint256"
        }
      ],
      "name": "appendInterestRate",
      "outputs": [],
      "stateMutability": "nonpayable",
      "type": "function"
    },
    {
      "inputs": [
        {
          "internalType": "uint256",
          "name": "_weeklyStartTime",
          "type": "uint256"
        }
      ],
      "name": "setWeeklyStartTime",
      "outputs": [],
      "stateMutability": "nonpayable",
      "type": "function"
    }
  ],
  "bytecode": "0x608060405234801561001057600080fd5b50614096806100206000396000f3fe608060405234801561001057600080fd5b506004361061020b5760003560e01c806370a082311161012a578063b88d4fde116100bd578063db0ed6a01161008c578063e985e9c511610071578063e985e9c5146104bf578063f9af0579146104fb578063fb14dc931461050e57600080fd5b8063db0ed6a014610499578063e68ec4f5146104ac57600080fd5b8063b88d4fde14610458578063b90bb8761461046b578063c87b56dd1461047e578063ced93cba1461049157600080fd5b806395d89b41116100f957806395d89b41146104155780639e0b6ae51461041d578063a22cb46514610430578063aa6ca8081461044357600080fd5b806370a08231146103d45780638400adfc146103e75780638456cb59146103fa57806385e685311461040257600080fd5b806323b872dd116101a25780635c975abb116101715780635c975abb146103905780635cbce3511461039b5780636352211e146103ae578063705211f4146103c157600080fd5b806323b872dd1461034f5780633f4ba83a1461036257806342842e0e1461036a578063561abab11461037d57600080fd5b8063095ea7b3116101de578063095ea7b31461028d5780630962ef79146102a057806317b74c36146102c15780631ec2128c146102d457600080fd5b806301ffc9a71461021057806306fdde0314610238578063081812fc1461024d57806309149aeb14610278575b600080fd5b61022361021e36600461395f565b610521565b60405190151581526020015b60405180910390f35b610240610606565b60405161022f91906139d4565b61026061025b3660046139e7565b610698565b6040516001600160a01b03909116815260200161022f565b61028b6102863660046139e7565b610743565b005b61028b61029b366004613a17565b610873565b6102b36102ae3660046139e7565b6109a5565b60405190815260200161022f565b6102b36102cf366004613a53565b610b4d565b6102e76102e23660046139e7565b610bbb565b60405161022f9190600060c08201905067ffffffffffffffff80845116835280602085015116602084015280604085015116604084015280606085015116606084015250608083015161ffff80821660808501528060a08601511660a0850152505092915050565b61028b61035d366004613a6e565b610c81565b61028b610d08565b61028b610378366004613a6e565b610d6c565b6102b361038b366004613aaa565b610d87565b60335460ff16610223565b61028b6103a93660046139e7565b6110b4565b6102606103bc3660046139e7565b611113565b61028b6103cf366004613ad5565b61119e565b6102b36103e2366004613ad5565b61121d565b6102b36103f5366004613af0565b6112b7565b61028b6112f5565b61028b610410366004613ad5565b611357565b6102406113d3565b61028b61042b366004613bb8565b6113e2565b61028b61043e366004613bfb565b611454565b61044b61145f565b60405161022f9190613c32565b61028b610466366004613cdd565b611705565b61028b6104793660046139e7565b611793565b61024061048c3660046139e7565b611822565b6102b361190b565b61028b6104a7366004613d59565b611bda565b6102236104ba366004613def565b611e7f565b6102236104cd366004613e3e565b6001600160a01b03918216600090815260ce6020908152604080832093909416825291909152205460ff1690565b6102b36105093660046139e7565b612104565b61028b61051c3660046139e7565b612514565b60007fffffffff0000000000000000000000000000000000000000000000000000000082167f80ac58cd0000000000000000000000000000000000000000000000000000000014806105b457507fffffffff0000000000000000000000000000000000000000000000000000000082167f5b5e139f00000000000000000000000000000000000000000000000000000000145b8061060057507f01ffc9a7000000000000000000000000000000000000000000000000000000007fffffffff000000000000000000000000000000000000000000000000000000008316145b92915050565b606060c9805461061590613e71565b80601f016020809104026020016040519081016040528092919081815260200182805461064190613e71565b801561068e5780601f106106635761010080835404028352916020019161068e565b820191906000526020600020905b81548152906001019060200180831161067157829003601f168201915b5050505050905090565b600081815260cb60205260408120546001600160a01b03166107275760405162461bcd60e51b815260206004820152602c60248201527f4552433732313a20617070726f76656420717565727920666f72206e6f6e657860448201527f697374656e7420746f6b656e000000000000000000000000000000000000000060648201526084015b60405180910390fd5b50600090815260cd60205260409020546001600160a01b031690565b60335460ff16156107895760405162461bcd60e51b815260206004820152601060248201526f14185d5cd8589b194e881c185d5cd95960821b604482015260640161071e565b3361079382611113565b6001600160a01b0316146107d95760405162461bcd60e51b815260206004820152600d60248201526c2737ba103a34329037bbb732b960991b604482015260640161071e565b600060fb82815481106107ee576107ee613eac565b60009182526020909120600290910201600181015490915061ffff1615610813575050565b600181015461084b9061082f9062010000900461ffff166125fb565b82546108459067ffffffffffffffff1642613ed8565b90612634565b610856906001613eef565b600191909101805461ffff191661ffff9092169190911790555b50565b600061087e82611113565b9050806001600160a01b0316836001600160a01b031614156109085760405162461bcd60e51b815260206004820152602160248201527f4552433732313a20617070726f76616c20746f2063757272656e74206f776e6560448201527f7200000000000000000000000000000000000000000000000000000000000000606482015260840161071e565b336001600160a01b0382161480610924575061092481336104cd565b6109965760405162461bcd60e51b815260206004820152603860248201527f4552433732313a20617070726f76652063616c6c6572206973206e6f74206f7760448201527f6e6572206e6f7220617070726f76656420666f7220616c6c0000000000000000606482015260840161071e565b6109a08383612640565b505050565b60006109b360335460ff1690565b156109f35760405162461bcd60e51b815260206004820152601060248201526f14185d5cd8589b194e881c185d5cd95960821b604482015260640161071e565b60026065541415610a465760405162461bcd60e51b815260206004820152601f60248201527f5265656e7472616e637947756172643a207265656e7472616e742063616c6c00604482015260640161071e565b600260655533610a5583611113565b6001600160a01b031614610a9b5760405162461bcd60e51b815260206004820152600d60248201526c2737ba103a34329037bbb732b960991b604482015260640161071e565b600060fb8381548110610ab057610ab0613eac565b600091825260208083206040805160c0810182526002909402909101805467ffffffffffffffff8082168652600160401b8204811694860194909452600160801b8104841692850192909252600160c01b9091049091166060830152600181015461ffff8082166080850152620100009091041660a08301529250610b34906126bb565b9050610b408282612764565b6001606555949350505050565b60008161ffff1660011415610b655750614e20919050565b8161ffff1660021415610bb35760fd54610b8157506000919050565b60fd8054610b9190600190613ed8565b81548110610ba157610ba1613eac565b90600052602060002001549050919050565b506000919050565b6040805160c081018252600080825260208201819052918101829052606081018290526080810182905260a081019190915260fb8281548110610c0057610c00613eac565b60009182526020918290206040805160c0810182526002909302909101805467ffffffffffffffff8082168552600160401b8204811695850195909552600160801b8104851692840192909252600160c01b909104909216606082015260019091015461ffff8082166080840152620100009091041660a082015292915050565b610c8b3382612868565b610cfd5760405162461bcd60e51b815260206004820152603160248201527f4552433732313a207472616e736665722063616c6c6572206973206e6f74206f60448201527f776e6572206e6f7220617070726f766564000000000000000000000000000000606482015260840161071e565b6109a083838361296c565b60ff546001600160a01b03163314610d625760405162461bcd60e51b815260206004820152601760248201527f63616c6c6572206d75737420626520677561726469616e000000000000000000604482015260640161071e565b610d6a612b46565b565b6109a083838360405180602001604052806000815250611705565b60fd546000901580610da25750818367ffffffffffffffff16145b15610daf57506000610600565b60fc548367ffffffffffffffff161015610e315760405162461bcd60e51b815260206004820152603360248201527f737461727454696d65206d75737420626520677265617465722062656361757360448201527f65206e6567617469766573206172652062616400000000000000000000000000606482015260840161071e565b6000610e41620151806007613f07565b60fc54610e589067ffffffffffffffff8716613ed8565b610e629190613f3c565b90506000610e74620151806007613f07565b60fc54610e8b9067ffffffffffffffff8816613ed8565b610e959190613f50565b9050610ea5620151806007613f07565b81610eb4620151806007613f07565b610ebe9190613ed8565b610ec89190613f50565b90506000610eda620151806007613f07565b60fc54610ee79087613ed8565b610ef19190613f3c565b90506000610f03620151806007613f07565b60fc54610f109088613ed8565b610f1a9190613f50565b60fd549091508210610f6e5760405162461bcd60e51b815260206004820152601760248201527f5765656b6c792072617465206e6f742073657420796574000000000000000000604482015260640161071e565b60008160fd8481548110610f8457610f84613eac565b9060005260206000200154610f999190613f07565b9050610fa58584613ed8565b610fd357610fbd67ffffffffffffffff891688613ed8565b610fc79082613f3c565b95505050505050610600565b8360fd8681548110610fe757610fe7613eac565b9060005260206000200154610ffc9190613f07565b6110069082613eef565b9050831561101c57611019600186613eef565b94505b6000855b848110156110655760fd818154811061103b5761103b613eac565b9060005260206000200154826110519190613eef565b91508061105d81613f64565b915050611020565b61107967ffffffffffffffff8b168a613ed8565b83611088620151806007613f07565b6110929085613f07565b61109c9190613eef565b6110a69190613f3c565b9a9950505050505050505050565b60ff546001600160a01b0316331461110e5760405162461bcd60e51b815260206004820152601760248201527f63616c6c6572206d75737420626520677561726469616e000000000000000000604482015260640161071e565b60fc55565b600081815260cb60205260408120546001600160a01b0316806106005760405162461bcd60e51b815260206004820152602960248201527f4552433732313a206f776e657220717565727920666f72206e6f6e657869737460448201527f656e7420746f6b656e0000000000000000000000000000000000000000000000606482015260840161071e565b60ff546001600160a01b031633146111f85760405162461bcd60e51b815260206004820152601760248201527f63616c6c6572206d75737420626520677561726469616e000000000000000000604482015260640161071e565b6001600160a01b0316600090815261010160205260409020805460ff19166001179055565b60006001600160a01b03821661129b5760405162461bcd60e51b815260206004820152602a60248201527f4552433732313a2062616c616e636520717565727920666f7220746865207a6560448201527f726f206164647265737300000000000000000000000000000000000000000000606482015260840161071e565b506001600160a01b0316600090815260cc602052604090205490565b60008261ffff16600114156112d8576112d1826002612634565b9050610600565b8261ffff16600214156112ec575080610600565b50600092915050565b60ff546001600160a01b0316331461134f5760405162461bcd60e51b815260206004820152601760248201527f63616c6c6572206d75737420626520677561726469616e000000000000000000604482015260640161071e565b610d6a612be2565b60ff546001600160a01b031633146113b15760405162461bcd60e51b815260206004820152601760248201527f63616c6c6572206d75737420626520677561726469616e000000000000000000604482015260640161071e565b6001600160a01b0316600090815261010160205260409020805460ff19169055565b606060ca805461061590613e71565b60ff546001600160a01b0316331461143c5760405162461bcd60e51b815260206004820152601760248201527f63616c6c6572206d75737420626520677561726469616e000000000000000000604482015260640161071e565b8051611450906101029060208401906138a1565b5050565b611450338383612c5d565b6060600061146c3361121d565b905060008167ffffffffffffffff81111561148957611489613b0c565b60405190808252806020026020018201604052801561151857816020015b61150560405180610140016040528060008152602001600081526020016000815260200160008152602001600081526020016000815260200160008152602001600061ffff1681526020016000151581526020016000151581525090565b8152602001906001900390816114a75790505b509050816115265792915050565b600060015b60fb548110156116fc57600081815260cb60205260409020546001600160a01b0316158061156a57503361155e82611113565b6001600160a01b031614155b15611574576116ea565b8251821415611582576116fc565b600060fb828154811061159757611597613eac565b600091825260208083206040805160c0810182526002909402909101805467ffffffffffffffff8082168652600160401b8204811694860194909452600160801b8104841692850192909252600160c01b9091049091166060830152600181015461ffff8082166080850152620100009091041660a0830152925061161b906126bb565b6040805161014081018252858152845467ffffffffffffffff8082166020840152600160401b8204811693830193909352600160801b900490911660608201529091506080810161166c8484612d2c565b815260200161168c8460010160029054906101000a900461ffff16610b4d565b815260208101839052600184015461ffff620100008204811660408401524285106060840152161560809091015285518690869081106116ce576116ce613eac565b602002602001018190525083806116e490613f64565b94505050505b806116f481613f64565b91505061152b565b50909392505050565b61170f3383612868565b6117815760405162461bcd60e51b815260206004820152603160248201527f4552433732313a207472616e736665722063616c6c6572206973206e6f74206f60448201527f776e6572206e6f7220617070726f766564000000000000000000000000000000606482015260840161071e565b61178d84848484612e99565b50505050565b60ff546001600160a01b031633146117ed5760405162461bcd60e51b815260206004820152601760248201527f63616c6c6572206d75737420626520677561726469616e000000000000000000604482015260640161071e565b60fd80546001810182556000919091527f9346ac6dd7de6b96975fec380d4d994c4c12e6a8897544f22915316cc6cca2800155565b600081815260cb60205260409020546060906001600160a01b03166118af5760405162461bcd60e51b815260206004820152602f60248201527f4552433732314d657461646174613a2055524920717565727920666f72206e6f60448201527f6e6578697374656e7420746f6b656e0000000000000000000000000000000000606482015260840161071e565b60006118b9612f22565b905060008151116118d95760405180602001604052806000815250611904565b806118e384612f32565b6040516020016118f4929190613f7f565b6040516020818303038152906040525b9392505050565b600061191960335460ff1690565b156119595760405162461bcd60e51b815260206004820152601060248201526f14185d5cd8589b194e881c185d5cd95960821b604482015260640161071e565b600260655414156119ac5760405162461bcd60e51b815260206004820152601f60248201527f5265656e7472616e637947756172643a207265656e7472616e742063616c6c00604482015260640161071e565b600260655560006119bc3361121d565b610100546040517f440277e80000000000000000000000000000000000000000000000000000000081523360048201529192506000916001600160a01b039091169063440277e89060240160206040518083038186803b158015611a1f57600080fd5b505afa158015611a33573d6000803e3d6000fd5b505050506040513d601f19601f82011682018060405250810190611a579190613fae565b905060008215611b4157600060015b60fb54811015611b3e57600081815260cb60205260409020546001600160a01b03161580611aa5575033611a9982611113565b6001600160a01b031614155b15611aaf57611b2c565b84821415611abc57611b3e565b600060fb8281548110611ad157611ad1613eac565b6000918252602090912060029091020160018101548154919250611b1b91611b149162010000900461ffff1690600160401b900467ffffffffffffffff166112b7565b8590613064565b935082611b2781613f64565b935050505b80611b3681613f64565b915050611a66565b50505b6000611b4d8383613070565b610100546040517f6a7b408b000000000000000000000000000000000000000000000000000000008152336004820152602481018390529192506001600160a01b031690636a7b408b90604401600060405180830381600087803b158015611bb457600080fd5b505af1158015611bc8573d6000803e3d6000fd5b50929650505050505050600160655590565b600054610100900460ff16611bf55760005460ff1615611bf9565b303b155b611c6b5760405162461bcd60e51b815260206004820152602e60248201527f496e697469616c697a61626c653a20636f6e747261637420697320616c72656160448201527f647920696e697469616c697a6564000000000000000000000000000000000000606482015260840161071e565b600054610100900460ff16158015611c8d576000805461ffff19166101011790555b6001600160a01b03808416600081815261010160205260409020805460ff1916600117905560fe805473ffffffffffffffffffffffffffffffffffffffff19908116909217905560ff8054878416908316179055610100805492851692909116919091179055611cfd868661307c565b60fb54611e48576040805160c081018252600080825260208201818152928201818152606083018281526080840183815260a0850184815260fb80546001810182559552945160029094027f3e7257b7272bb46d49cd6019b04ddee20da7c0cb13f7c1ec3391291b2ccebabc8101805497519451935167ffffffffffffffff908116600160c01b0277ffffffffffffffffffffffffffffffffffffffffffffffff958216600160801b02959095166fffffffffffffffffffffffffffffffff968216600160401b027fffffffffffffffffffffffffffffffff00000000000000000000000000000000909a16979091169690961797909717939093169390931717909355517f3e7257b7272bb46d49cd6019b04ddee20da7c0cb13f7c1ec3391291b2ccebabd9092018054915161ffff908116620100000263ffffffff199093169316929092171790555b8015611e7757600080547fffffffffffffffffffffffffffffffffffffffffffffffffffffffffffff00ff1690555b505050505050565b6000611e8d60335460ff1690565b15611ecd5760405162461bcd60e51b815260206004820152601060248201526f14185d5cd8589b194e881c185d5cd95960821b604482015260640161071e565b60026065541415611f205760405162461bcd60e51b815260206004820152601f60248201527f5265656e7472616e637947756172643a207265656e7472616e742063616c6c00604482015260640161071e565b6002606555336000908152610101602052604090205460ff16611f855760405162461bcd60e51b815260206004820152601760248201527f43616c6c6572206d75737420626520617070726f766564000000000000000000604482015260640161071e565b600082611f93576001611f96565b60005b60ff16905060fb6040518060c00160405280611fb142613113565b67ffffffffffffffff168152602001611fc988613113565b67ffffffffffffffff908116825260006020808401829052604080850183905261ffff8089166060808801919091528c8216608097880152885460018181018b5599865284862089516002909202018054958a0151948a0151928a01518816600160c01b0277ffffffffffffffffffffffffffffffffffffffffffffffff938916600160801b02939093166fffffffffffffffffffffffffffffffff958916600160401b027fffffffffffffffffffffffffffffffff00000000000000000000000000000000909716929098169190911794909417929092169490941717815592840151928501805460a0909501518316620100000263ffffffff1990951693909216929092179290921790915560fb5490916120e591613ed8565b90506120f18782613197565b6001925050506001606555949350505050565b600061211260335460ff1690565b156121525760405162461bcd60e51b815260206004820152601060248201526f14185d5cd8589b194e881c185d5cd95960821b604482015260640161071e565b600260655414156121a55760405162461bcd60e51b815260206004820152601f60248201527f5265656e7472616e637947756172643a207265656e7472616e742063616c6c00604482015260640161071e565b6002606555336121b483611113565b6001600160a01b0316146121fa5760405162461bcd60e51b815260206004820152600d60248201526c2737ba103a34329037bbb732b960991b604482015260640161071e565b600060fb838154811061220f5761220f613eac565b60009182526020909120600290910201600181015490915061ffff166122775760405162461bcd60e51b815260206004820152601560248201527f4d757374206e6f74206265206175746f52656e65770000000000000000000000604482015260640161071e565b6040805160c081018252825467ffffffffffffffff8082168352600160401b820481166020840152600160801b8204811693830193909352600160c01b90049091166060820152600182015461ffff8082166080840152620100009091041660a08201526000906122e7906126bb565b90504281106123385760405162461bcd60e51b815260206004820152600c60248201527f5374696c6c206c6f636b65640000000000000000000000000000000000000000604482015260640161071e565b60006123448383612764565b905061234f856131b1565b6001830154835460009161237f916201000090910461ffff1690600160401b900467ffffffffffffffff166112b7565b610100546040517f6a7b408b000000000000000000000000000000000000000000000000000000008152336004820152602481018390529192506001600160a01b031690636a7b408b90604401600060405180830381600087803b1580156123e657600080fd5b505af11580156123fa573d6000803e3d6000fd5b50508554600160401b900467ffffffffffffffff1683101591506124e790505760fe5484546001600160a01b039091169063a9059cbb90339061244f908590600160401b900467ffffffffffffffff16613ed8565b6040517fffffffff0000000000000000000000000000000000000000000000000000000060e085901b1681526001600160a01b0390921660048301526024820152604401602060405180830381600087803b1580156124ad57600080fd5b505af11580156124c1573d6000803e3d6000fd5b505050506040513d601f19601f820116820180604052508101906124e59190613fc7565b505b8354612505908390600160401b900467ffffffffffffffff16613eef565b60016065559695505050505050565b60335460ff161561255a5760405162461bcd60e51b815260206004820152601060248201526f14185d5cd8589b194e881c185d5cd95960821b604482015260640161071e565b3361256482611113565b6001600160a01b0316146125aa5760405162461bcd60e51b815260206004820152600d60248201526c2737ba103a34329037bbb732b960991b604482015260640161071e565b600060fb82815481106125bf576125bf613eac565b60009182526020909120600290910201600181015490915061ffff166125e3575050565b6125ec81613259565b600101805461ffff1916905550565b60008161ffff16600114156126185761060062015180605a613f07565b8161ffff1660021415610bb35761060062015180610168613f07565b60006119048284613f3c565b600081815260cd60205260409020805473ffffffffffffffffffffffffffffffffffffffff19166001600160a01b038416908117909155819061268282611113565b6001600160a01b03167f8c5be1e5ebec7d5bd14f71427d1e84f3dd0314c0f7b2291e5b200ac8c7c3b92560405160405180910390a45050565b6000816080015161ffff16600014156127305760006126f66126e08460a001516125fb565b84516108459067ffffffffffffffff1642613ed8565b612701906001613eef565b905061271a816127148560a001516125fb565b906133af565b8351611904919067ffffffffffffffff16613eef565b612749826080015161ffff166127148460a001516125fb565b8251610600919067ffffffffffffffff16613eef565b919050565b6000806127718484612d2c565b8454909150600090612795908390600160801b900467ffffffffffffffff16613070565b90506127a082613113565b855467ffffffffffffffff91909116600160801b027fffffffffffffffff0000000000000000ffffffffffffffffffffffffffffffff90911617855580156128605760fe546040517f56ff0715000000000000000000000000000000000000000000000000000000008152336004820152602481018390526001600160a01b03909116906356ff071590604401600060405180830381600087803b15801561284757600080fd5b505af115801561285b573d6000803e3d6000fd5b505050505b949350505050565b600081815260cb60205260408120546001600160a01b03166128f25760405162461bcd60e51b815260206004820152602c60248201527f4552433732313a206f70657261746f7220717565727920666f72206e6f6e657860448201527f697374656e7420746f6b656e0000000000000000000000000000000000000000606482015260840161071e565b60006128fd83611113565b9050806001600160a01b0316846001600160a01b031614806129385750836001600160a01b031661292d84610698565b6001600160a01b0316145b8061286057506001600160a01b03808216600090815260ce602090815260408083209388168352929052205460ff16612860565b826001600160a01b031661297f82611113565b6001600160a01b0316146129fb5760405162461bcd60e51b815260206004820152602960248201527f4552433732313a207472616e73666572206f6620746f6b656e2074686174206960448201527f73206e6f74206f776e0000000000000000000000000000000000000000000000606482015260840161071e565b6001600160a01b038216612a765760405162461bcd60e51b8152602060048201526024808201527f4552433732313a207472616e7366657220746f20746865207a65726f2061646460448201527f7265737300000000000000000000000000000000000000000000000000000000606482015260840161071e565b612a81600082612640565b6001600160a01b038316600090815260cc60205260408120805460019290612aaa908490613ed8565b90915550506001600160a01b038216600090815260cc60205260408120805460019290612ad8908490613eef565b9091555050600081815260cb6020526040808220805473ffffffffffffffffffffffffffffffffffffffff19166001600160a01b0386811691821790925591518493918716917fddf252ad1be2c89b69c2b068fc378daa952ba7f163c4a11628f55a4df523b3ef91a4505050565b60335460ff16612b985760405162461bcd60e51b815260206004820152601460248201527f5061757361626c653a206e6f7420706175736564000000000000000000000000604482015260640161071e565b6033805460ff191690557f5db9ee0a495bf2e6ff9c91a7834c1ba4fdd244a5e8aa4e537bd38aeae4b073aa335b6040516001600160a01b03909116815260200160405180910390a1565b60335460ff1615612c285760405162461bcd60e51b815260206004820152601060248201526f14185d5cd8589b194e881c185d5cd95960821b604482015260640161071e565b6033805460ff191660011790557f62e78cea01bee320cd4e420270b5ea74000d11b0c9f74754ebdbfc544b05a258612bc53390565b816001600160a01b0316836001600160a01b03161415612cbf5760405162461bcd60e51b815260206004820152601960248201527f4552433732313a20617070726f766520746f2063616c6c657200000000000000604482015260640161071e565b6001600160a01b03838116600081815260ce6020908152604080832094871680845294825291829020805460ff191686151590811790915591519182527f17307eab39ab6107e8899845ad3d59bd9653f200f220920489ca2b5937696c31910160405180910390a3505050565b600080600042841015612da757612d438442613ed8565b60018601548654919250612da091620f42409161084591612d799162010000900461ffff169067ffffffffffffffff16896133bb565b6001890154895461271491600160401b90910467ffffffffffffffff169061ffff166133af565b9150612e34565b6000612ddd612dc78760010160029054906101000a900461ffff166125fb565b87546108459067ffffffffffffffff1642613ed8565b60018701548754919250612e3091620f42409161084591612e139162010000900461ffff169067ffffffffffffffff16426133bb565b895461271490600160401b900467ffffffffffffffff16866133af565b9250505b612e866064610845612e4b62015180610168613f07565b885461084590612e6d908790600160c01b900467ffffffffffffffff16613eef565b8a54600160401b900467ffffffffffffffff16906133af565b612e909083613eef565b95945050505050565b612ea484848461296c565b612eb0848484846133fb565b61178d5760405162461bcd60e51b815260206004820152603260248201527f4552433732313a207472616e7366657220746f206e6f6e20455243373231526560448201527f63656976657220696d706c656d656e7465720000000000000000000000000000606482015260840161071e565b6060610102805461061590613e71565b606081612f7257505060408051808201909152600181527f3000000000000000000000000000000000000000000000000000000000000000602082015290565b8160005b8115612f9c5780612f8681613f64565b9150612f959050600a83613f3c565b9150612f76565b60008167ffffffffffffffff811115612fb757612fb7613b0c565b6040519080825280601f01601f191660200182016040528015612fe1576020820181803683370190505b5090505b841561286057612ff6600183613ed8565b9150613003600a86613f50565b61300e906030613eef565b60f81b81838151811061302357613023613eac565b60200101907effffffffffffffffffffffffffffffffffffffffffffffffffffffffffffff1916908160001a90535061305d600a86613f3c565b9450612fe5565b60006119048284613eef565b60006119048284613ed8565b600054610100900460ff166130f95760405162461bcd60e51b815260206004820152602b60248201527f496e697469616c697a61626c653a20636f6e7472616374206973206e6f74206960448201527f6e697469616c697a696e67000000000000000000000000000000000000000000606482015260840161071e565b6131016135a8565b6131096135a8565b6114508282613625565b600067ffffffffffffffff8211156131935760405162461bcd60e51b815260206004820152602660248201527f53616665436173743a2076616c756520646f65736e27742066697420696e203660448201527f3420626974730000000000000000000000000000000000000000000000000000606482015260840161071e565b5090565b6114508282604051806020016040528060008152506136c9565b60006131bc82611113565b90506131c9600083612640565b6001600160a01b038116600090815260cc602052604081208054600192906131f2908490613ed8565b9091555050600082815260cb6020526040808220805473ffffffffffffffffffffffffffffffffffffffff19169055518391906001600160a01b038416907fddf252ad1be2c89b69c2b068fc378daa952ba7f163c4a11628f55a4df523b3ef908390a45050565b6040805160c081018252825467ffffffffffffffff8082168352600160401b820481166020840152600160801b8204811693830193909352600160c01b90049091166060820152600182015461ffff8082166080840152620100009091041660a082015242906132c8906126bb565b10156108705760018101546000906132f29061ffff808216916127149162010000909104166125fb565b825490915061331f9061331090839067ffffffffffffffff16613eef565b61331a9042613ed8565b613113565b82548390601890613342908490600160c01b900467ffffffffffffffff16613fe4565b92506101000a81548167ffffffffffffffff021916908367ffffffffffffffff160217905550613377814261331a9190613ed8565b82547fffffffffffffffffffffffffffffffffffffffffffffffff00000000000000001667ffffffffffffffff919091161790915550565b60006119048284613f07565b60008361ffff16600114156133d35750611388611904565b8361ffff16600214156133f1576133ea8383610d87565b9050611904565b5060009392505050565b60006001600160a01b0384163b1561359d576040517f150b7a020000000000000000000000000000000000000000000000000000000081526001600160a01b0385169063150b7a0290613458903390899088908890600401614007565b602060405180830381600087803b15801561347257600080fd5b505af19250505080156134a2575060408051601f3d908101601f1916820190925261349f91810190614043565b60015b613552573d8080156134d0576040519150601f19603f3d011682016040523d82523d6000602084013e6134d5565b606091505b50805161354a5760405162461bcd60e51b815260206004820152603260248201527f4552433732313a207472616e7366657220746f206e6f6e20455243373231526560448201527f63656976657220696d706c656d656e7465720000000000000000000000000000606482015260840161071e565b805181602001fd5b7fffffffff00000000000000000000000000000000000000000000000000000000167f150b7a0200000000000000000000000000000000000000000000000000000000149050612860565b506001949350505050565b600054610100900460ff16610d6a5760405162461bcd60e51b815260206004820152602b60248201527f496e697469616c697a61626c653a20636f6e7472616374206973206e6f74206960448201527f6e697469616c697a696e67000000000000000000000000000000000000000000606482015260840161071e565b600054610100900460ff166136a25760405162461bcd60e51b815260206004820152602b60248201527f496e697469616c697a61626c653a20636f6e7472616374206973206e6f74206960448201527f6e697469616c697a696e67000000000000000000000000000000000000000000606482015260840161071e565b81516136b59060c99060208501906138a1565b5080516109a09060ca9060208401906138a1565b6136d38383613752565b6136e060008484846133fb565b6109a05760405162461bcd60e51b815260206004820152603260248201527f4552433732313a207472616e7366657220746f206e6f6e20455243373231526560448201527f63656976657220696d706c656d656e7465720000000000000000000000000000606482015260840161071e565b6001600160a01b0382166137a85760405162461bcd60e51b815260206004820181905260248201527f4552433732313a206d696e7420746f20746865207a65726f2061646472657373604482015260640161071e565b600081815260cb60205260409020546001600160a01b03161561380d5760405162461bcd60e51b815260206004820152601c60248201527f4552433732313a20746f6b656e20616c7265616479206d696e74656400000000604482015260640161071e565b6001600160a01b038216600090815260cc60205260408120805460019290613836908490613eef565b9091555050600081815260cb6020526040808220805473ffffffffffffffffffffffffffffffffffffffff19166001600160a01b03861690811790915590518392907fddf252ad1be2c89b69c2b068fc378daa952ba7f163c4a11628f55a4df523b3ef908290a45050565b8280546138ad90613e71565b90600052602060002090601f0160209004810192826138cf5760008555613915565b82601f106138e857805160ff1916838001178555613915565b82800160010185558215613915579182015b828111156139155782518255916020019190600101906138fa565b506131939291505b80821115613193576000815560010161391d565b7fffffffff000000000000000000000000000000000000000000000000000000008116811461087057600080fd5b60006020828403121561397157600080fd5b813561190481613931565b60005b8381101561399757818101518382015260200161397f565b8381111561178d5750506000910152565b600081518084526139c081602086016020860161397c565b601f01601f19169290920160200192915050565b60208152600061190460208301846139a8565b6000602082840312156139f957600080fd5b5035919050565b80356001600160a01b038116811461275f57600080fd5b60008060408385031215613a2a57600080fd5b613a3383613a00565b946020939093013593505050565b803561ffff8116811461275f57600080fd5b600060208284031215613a6557600080fd5b61190482613a41565b600080600060608486031215613a8357600080fd5b613a8c84613a00565b9250613a9a60208501613a00565b9150604084013590509250925092565b60008060408385031215613abd57600080fd5b823567ffffffffffffffff81168114613a3357600080fd5b600060208284031215613ae757600080fd5b61190482613a00565b60008060408385031215613b0357600080fd5b613a3383613a41565b634e487b7160e01b600052604160045260246000fd5b600067ffffffffffffffff80841115613b3d57613b3d613b0c565b604051601f8501601f19908116603f01168101908282118183101715613b6557613b65613b0c565b81604052809350858152868686011115613b7e57600080fd5b858560208301376000602087830101525050509392505050565b600082601f830112613ba957600080fd5b61190483833560208501613b22565b600060208284031215613bca57600080fd5b813567ffffffffffffffff811115613be157600080fd5b61286084828501613b98565b801515811461087057600080fd5b60008060408385031215613c0e57600080fd5b613c1783613a00565b91506020830135613c2781613bed565b809150509250929050565b602080825282518282018190526000919060409081850190868401855b82811015613cd05781518051855286810151878601528581015186860152606080820151908601526080808201519086015260a0808201519086015260c0808201519086015260e08082015161ffff169086015261010080820151151590860152610120908101511515908501526101409093019290850190600101613c4f565b5091979650505050505050565b60008060008060808587031215613cf357600080fd5b613cfc85613a00565b9350613d0a60208601613a00565b925060408501359150606085013567ffffffffffffffff811115613d2d57600080fd5b8501601f81018713613d3e57600080fd5b613d4d87823560208401613b22565b91505092959194509250565b600080600080600060a08688031215613d7157600080fd5b853567ffffffffffffffff80821115613d8957600080fd5b613d9589838a01613b98565b96506020880135915080821115613dab57600080fd5b50613db888828901613b98565b945050613dc760408701613a00565b9250613dd560608701613a00565b9150613de360808701613a00565b90509295509295909350565b60008060008060808587031215613e0557600080fd5b613e0e85613a00565b935060208501359250613e2360408601613a41565b91506060850135613e3381613bed565b939692955090935050565b60008060408385031215613e5157600080fd5b613e5a83613a00565b9150613e6860208401613a00565b90509250929050565b600181811c90821680613e8557607f821691505b60208210811415613ea657634e487b7160e01b600052602260045260246000fd5b50919050565b634e487b7160e01b600052603260045260246000fd5b634e487b7160e01b600052601160045260246000fd5b600082821015613eea57613eea613ec2565b500390565b60008219821115613f0257613f02613ec2565b500190565b6000816000190483118215151615613f2157613f21613ec2565b500290565b634e487b7160e01b600052601260045260246000fd5b600082613f4b57613f4b613f26565b500490565b600082613f5f57613f5f613f26565b500690565b6000600019821415613f7857613f78613ec2565b5060010190565b60008351613f9181846020880161397c565b835190830190613fa581836020880161397c565b01949350505050565b600060208284031215613fc057600080fd5b5051919050565b600060208284031215613fd957600080fd5b815161190481613bed565b600067ffffffffffffffff808316818516808303821115613fa557613fa5613ec2565b60006001600160a01b0380871683528086166020840152508360408301526080606083015261403960808301846139a8565b9695505050505050565b60006020828403121561405557600080fd5b81516119048161393156fea26469706673582212207f8c4c9ad45044da5bbd38e1cb094ae77ad847d6566fa7e90deb12ed846f94c964736f6c63430008090033",
  "compiler": {
    "name": "solc",
    "version": "0.8.9+commit.e5eed63a.Emscripten.clang"
  },
  "contractName": "HomeBoost0",
  "devdoc": {
    "kind": "dev",
    "methods": {
      "approve(address,uint256)": {
        "details": "See {IERC721-approve}."
      },
      "balanceOf(address)": {
        "details": "See {IERC721-balanceOf}."
      },
      "getApproved(uint256)": {
        "details": "See {IERC721-getApproved}."
      },
      "isApprovedForAll(address,address)": {
        "details": "See {IERC721-isApprovedForAll}."
      },
      "name()": {
        "details": "See {IERC721Metadata-name}."
      },
      "ownerOf(uint256)": {
        "details": "See {IERC721-ownerOf}."
      },
      "paused()": {
        "details": "Returns true if the contract is paused, and false otherwise."
      },
      "safeTransferFrom(address,address,uint256)": {
        "details": "See {IERC721-safeTransferFrom}."
      },
      "safeTransferFrom(address,address,uint256,bytes)": {
        "details": "See {IERC721-safeTransferFrom}."
      },
      "setApprovalForAll(address,bool)": {
        "details": "See {IERC721-setApprovalForAll}."
      },
      "supportsInterface(bytes4)": {
        "details": "See {IERC165-supportsInterface}."
      },
      "symbol()": {
        "details": "See {IERC721Metadata-symbol}."
      },
      "tokenURI(uint256)": {
        "details": "See {IERC721Metadata-tokenURI}."
      },
      "transferFrom(address,address,uint256)": {
        "details": "See {IERC721-transferFrom}."
      }
    },
    "version": 1
  },
  "immutableReferences": {},
  "schemaVersion": "3.4.7",
  "source": "// SPDX-License-Identifier: MIT\npragma solidity ^0.8.4;\n\nimport '../@openzeppelin/contracts-upgradeable/proxy/utils/Initializable.sol';\nimport '../@openzeppelin/contracts-upgradeable/token/ERC721/ERC721Upgradeable.sol';\nimport '../@openzeppelin/contracts/utils/math/SafeMath.sol';\nimport '../@openzeppelin/contracts/utils/math/SignedSafeMath.sol';\nimport '../@openzeppelin/contracts/utils/math/SafeCast.sol';\nimport '../@openzeppelin/contracts-upgradeable/security/PausableUpgradeable.sol';\nimport '../@openzeppelin/contracts-upgradeable/security/ReentrancyGuardUpgradeable.sol';\n\nimport './../PoolStakingRewards/PoolStakingRewards4.sol';\nimport './../PoolCore/Pool13.sol';\n\nimport \"hardhat/console.sol\";\n\ncontract HomeBoost0 is\n  PausableUpgradeable,\n  ReentrancyGuardUpgradeable,\n  ERC721Upgradeable\n{\n    using SafeMath for uint256;\n    using SafeMath for uint64;\n    using SafeMath for uint16;\n    // 60 * 60 * 24\n    uint256 constant SECONDS_PER_DAY = 86400;\n    uint256 constant SECONDS_PER_WEEK = SECONDS_PER_DAY * 7;\n    // use mortgage year (360 days)\n    uint256 constant SECONDS_PER_YEAR = SECONDS_PER_DAY * 360;\n    // 90 days\n    uint256 constant LEVEL_1_SECONDS_PER_ITERATION = SECONDS_PER_DAY * 90;\n    // 1 year\n    uint256 constant LEVEL_2_SECONDS_PER_ITERATION = SECONDS_PER_DAY * 360;\n\n    // Stored per boost token.\n    struct Boost {\n        uint64 startTime;\n        uint64 principal;\n        uint64 claimedRewards;\n        uint64 additionalMatureSeconds; // accumulates seconds that the Boost was mature before being renewed.\n        uint16 endIteration; // 0 for never (auto-renew) or a value for the number of iterations\n        uint16 level;\n    }\n\n    // Used to get relevant details about boosts to callers into the contract (e.g. the UI)\n    // Never written to storage.\n    struct BoostDetail {\n        uint256 id;\n        uint256 startTime;\n        uint256 principal;\n        uint256 claimedRewards;\n        uint256 totalRewards;\n        uint256 apy;\n        uint256 nextRewardTimestamp;\n        uint16 level;\n        bool isComplete; // true if time has passed the end of the last iteration\n        bool isAutoRenew;\n    }\n\n    Boost[] private boostData;\n    uint256 weeklyStartTime;\n    uint256[] private weeklyInterestRates;\n\n    address poolAddress;\n    address guardianAddress;\n    address poolStakingRewardAddress;\n    mapping(address => bool) isApproved;\n    string boostBaseURI;\n\n    function initialize(string memory name, string memory symbol, address _guardianAddress, address _poolAddress, address _poolStakingRewardAddress) public initializer {\n        // TODO: needed since we are already storing the pool address? \n        isApproved[_poolAddress] = true;\n        poolAddress = _poolAddress;\n        guardianAddress = _guardianAddress;\n        poolStakingRewardAddress = _poolStakingRewardAddress;\n\n        ERC721Upgradeable.__ERC721_init(name, symbol);\n\n        // Push a null Boost into the list of boosts to act as a sentinel. This way anyone that points to boost id 0\n        // will get the sentinel rather than the first boost created for a real user. Make sure to only do this once\n        if (boostData.length == 0) {\n            boostData.push(Boost(0, 0, 0, 0, 0, 0));\n        }\n    }\n\n    ///\n    /// Getters\n    ///\n    function _baseURI() internal view override returns (string memory) {\n        return boostBaseURI;\n    }\n\n    //\n    // returns startTime, principal, additionalMatureSeconds, endIteration, level\n    // use getTokenData for a more human readable version of this data\n    //\n    function getRawTokenData(uint256 tokenId) public view returns(Boost memory) {\n        return boostData[tokenId];\n    }\n\n    function getPerIterationRateForLevel(uint16 level, uint64 startTime, uint256 endTime) private view returns(uint256) {\n        if (level == 1) {\n            return 5000;\n        } else if (level == 2) {\n            return getPerIterationRateForLevel2(startTime, endTime);\n        }\n\n        return 0;\n    }\n\n    function getPerIterationRateForLevel2(uint64 startTime, uint256 endTime) public view returns(uint256) {\n        if (weeklyInterestRates.length == 0 || startTime == endTime)\n            return 0;\n\n        require(startTime >= weeklyStartTime, \"startTime must be greater because negatives are bad\");\n        uint256 startWeekNumber = (startTime - weeklyStartTime) / SECONDS_PER_WEEK;\n        uint256 startWeekFraction =  ((startTime - weeklyStartTime) % SECONDS_PER_WEEK);\n\n        // We're at the start, so we need the time elaspsed since the start to a week ending.\n        // Mod takes it to zero if startWeekFraction is already zero. Might be better to if it.\n        startWeekFraction = (SECONDS_PER_WEEK - startWeekFraction) % SECONDS_PER_WEEK;\n\n        uint256 endWeekNumber = ((endTime - weeklyStartTime) / SECONDS_PER_WEEK);\n        uint256 endWeekNumberFraction = ((endTime - weeklyStartTime) % SECONDS_PER_WEEK);\n        require(endWeekNumber < weeklyInterestRates.length, \"Weekly rate not set yet\");\n\n        // fracitonalSum isn't a uint. It's really interest seconds, but that's not a type here.\n        uint256 fracitonalSum = (weeklyInterestRates[endWeekNumber] * endWeekNumberFraction);\n\n        // We're still in the first week. All the other stuff is unnecessary.\n        // And breaks if we don't exit early.\n        if (endWeekNumber - startWeekNumber == 0)\n           return fracitonalSum / (endTime - startTime);\n\n        fracitonalSum += (weeklyInterestRates[startWeekNumber] * startWeekFraction);\n\n        // The first week is handled in the loop, if there's no fractional part.\n        if (startWeekFraction > 0)\n          startWeekNumber += 1;\n\n        // sum is actually interest weeks.\n        uint256 sum = 0;\n        uint256 i;\n\n        for (i = startWeekNumber; i < endWeekNumber; i++) {\n          sum += weeklyInterestRates[i];\n        }\n\n        // Normalize the return to interest/timespan.\n        sum = ((sum * SECONDS_PER_WEEK) + fracitonalSum) / (endTime - startTime);\n        return sum;\n    }\n\n    function getAPYForLevel(uint16 level) public view returns(uint256) {\n        if (level == 1) {\n            return 20000;\n        } else if (level == 2) {\n            if (weeklyInterestRates.length == 0)\n              return 0;\n            return weeklyInterestRates[weeklyInterestRates.length - 1];\n        }\n        return 0;\n    }\n\n    //\n    // Returns the amount of token that is sent to staking to earn BACON rewards\n    //\n    function getStakeAmount(uint16 level, uint256 rawAmount) public pure returns(uint256) {\n        if (level == 1) {\n            return rawAmount.div(2); // 50% of the rewards\n        } else if (level == 2) {\n            return rawAmount;        // 100% of the rewards\n        }\n        return 0;\n    }\n\n\n    function getSecondsPerIteration(uint16 level) private pure returns(uint256) {\n        if (level == 1) {\n            return LEVEL_1_SECONDS_PER_ITERATION;\n        } else if (level == 2) {\n            return LEVEL_2_SECONDS_PER_ITERATION;\n        }\n        return 0;\n    }\n\n    function getNextRewardTimestamp(Boost memory boost) private view returns(uint256) {\n        if (boost.endIteration == 0) {\n            uint256 nextIteration = (block.timestamp - boost.startTime).div(getSecondsPerIteration(boost.level)) + 1;\n            return boost.startTime + getSecondsPerIteration(boost.level).mul(nextIteration);\n        } else {\n            return boost.startTime + getSecondsPerIteration(boost.level).mul(boost.endIteration);\n        }\n    }\n\n    //\n    // Returns a list of token data structures, one for each token owned by the caller.\n    //\n    function getTokens() public view returns(BoostDetail[] memory)\n    {\n        uint256 ownedTokens = balanceOf(msg.sender);\n        BoostDetail[] memory details = new BoostDetail[](ownedTokens);\n        if (ownedTokens == 0) {\n            return details;\n        }\n        uint256 currentDetailIndex = 0;\n        // Index 0 is a placeholder so skip it.\n        for(uint256 currentId = 1; currentId < boostData.length; currentId++) {\n            if (!_exists(currentId) || ownerOf(currentId) != msg.sender){\n                continue;\n            }\n\n            if (currentDetailIndex == details.length){\n                break;\n            }\n\n            Boost storage currentBoost = boostData[currentId];\n            uint256 nextRewardTimestamp = getNextRewardTimestamp(currentBoost);\n            details[currentDetailIndex] = BoostDetail(\n                currentId,\n                currentBoost.startTime,\n                currentBoost.principal,\n                currentBoost.claimedRewards,\n                computeTotalRewards(currentBoost, nextRewardTimestamp),\n                getAPYForLevel(currentBoost.level),\n                nextRewardTimestamp,\n                currentBoost.level,\n                nextRewardTimestamp < block.timestamp,\n                currentBoost.endIteration == 0\n            );\n\n            currentDetailIndex++;\n        }\n\n        return details;\n    }\n\n\n    ///\n    /// Mutations\n    ///\n\n    function approveAccess(address addr) public{\n        require(msg.sender == guardianAddress, \"caller must be guardian\");\n        isApproved[addr] = true;\n    }\n\n    function revokeAccess(address addr) public{\n        require(msg.sender == guardianAddress, \"caller must be guardian\");\n        isApproved[addr] = false;\n    }\n\n    function setBoostBaseUri(string memory _boostBaseURI) public {\n        require(msg.sender == guardianAddress, \"caller must be guardian\");\n        boostBaseURI = _boostBaseURI;\n    }\n\n    function pause() public {\n        require(msg.sender == guardianAddress, \"caller must be guardian\");\n        _pause();\n    }\n\n    function unpause() public {\n        require(msg.sender == guardianAddress, \"caller must be guardian\");\n        _unpause();\n    }\n\n    // Create a boost token\n    function mint(address to, uint256 principal, uint16 level, bool autoRenew) public whenNotPaused nonReentrant returns (bool) {\n        require(isApproved[msg.sender], \"Caller must be approved\");\n\n        uint16 endIteration = autoRenew ? 0 : 1;\n\n        boostData.push(Boost(SafeCast.toUint64(block.timestamp), SafeCast.toUint64(principal), 0, 0, endIteration, level));\n        uint256 tokenId = boostData.length - 1;\n\n        _safeMint(to, tokenId);\n        \n        return true;\n    }\n\n    function beforeIterationChange(Boost storage boost) private {\n        if (getNextRewardTimestamp(boost) < block.timestamp) {\n            // Boost is mature so we have to record the number of days that it was mature so we can pay interest on them\n            uint256 boostedDuration = getSecondsPerIteration(boost.level).mul(boost.endIteration);\n            boost.additionalMatureSeconds += SafeCast.toUint64(block.timestamp - (boost.startTime + boostedDuration));\n            boost.startTime = SafeCast.toUint64(block.timestamp - boostedDuration);\n        }\n    }\n\n    // Set a boost to auto renew.\n    // if boost is already auto renew do nothing\n    // if boost is not yet mature, just set the iteration count to 0\n    // else boost is mature, stash the additionalMatureSeconds, set startTime to currentBlockTime - iterationCount*iterationDuration and set iterationCount to 0\n    function setToAutoRenew(uint256 boostId) public whenNotPaused{\n        require(ownerOf(boostId) == msg.sender, \"Not the owner\");\n        Boost storage boost = boostData[boostId];\n        if (boost.endIteration == 0) {\n            return;\n        }\n\n        beforeIterationChange(boost);\n\n        boost.endIteration = 0;\n    }\n\n    // End the auto renew on a boost. This will allow it to be claimed when the current iteration is over.\n    function endAutoRenew(uint256 boostId) public whenNotPaused {\n        require(ownerOf(boostId) == msg.sender, \"Not the owner\");\n        Boost storage boost = boostData[boostId];\n        if (boost.endIteration != 0) {\n            return;\n        }\n\n        boost.endIteration = (uint16) ((block.timestamp - boost.startTime).div(getSecondsPerIteration(boost.level)) + 1);\n    }\n\n    // claim the rewards and principal from a boost. This also burns the boost token.\n    function claimPrincipal(uint256 boostId) public whenNotPaused nonReentrant returns (uint256) {\n        require(ownerOf(boostId) == msg.sender, \"Not the owner\");\n        Boost storage boost = boostData[boostId];\n        // endAutoRenew must be called first\n        require(boost.endIteration != 0, \"Must not be autoRenew\");\n        // boost must be mature\n        uint256 nextRewardTimestamp = getNextRewardTimestamp(boost);\n        require(nextRewardTimestamp < block.timestamp, \"Still locked\");\n\n        uint256 claimedRewards = claimRewardsCore(boost, nextRewardTimestamp);\n\n        _burn(boostId);\n        // Portions of the Principal is held by the staking contract so that it can earn bacon.\n        uint256 amountStaked = getStakeAmount(boost.level, boost.principal);\n        PoolStakingRewards4(poolStakingRewardAddress).unstakeForWallet(msg.sender, amountStaked);\n\n        if (amountStaked < boost.principal) {\n            // Return the non-staked boost principal held in this contract\n            IERC20(poolAddress).transfer(msg.sender, boost.principal - amountStaked);\n        }\n\n        return boost.principal + claimedRewards;\n    }\n\n    // Allow users to unstake all HOME staked using the old staking methods.\n    function claimPreBoostStake() public whenNotPaused nonReentrant returns (uint256) {\n        uint256 ownedTokenCount = balanceOf(msg.sender);\n        uint256 stakedAmount = PoolStakingRewards4(poolStakingRewardAddress).getCurrentBalance(msg.sender);\n\n        uint boostStakedAmount = 0;\n        if (ownedTokenCount > 0) {\n            // compute the total amount staked by boosts. This is going to grow in cost as the total number of boosts\n            // grows, but the common case should be calling this once when the caller has 0 boosts.\n            uint256 currentOwnedIndex = 0;\n            // Index 0 is a placeholder so skip it.\n            for(uint256 currentId = 1; currentId < boostData.length; currentId++) {\n                if (!_exists(currentId) || ownerOf(currentId) != msg.sender){\n                    continue;\n                }\n\n                if (currentOwnedIndex == ownedTokenCount){\n                    break;\n                }\n\n                Boost storage boost = boostData[currentId];\n                boostStakedAmount = boostStakedAmount.add(getStakeAmount(boost.level, boost.principal));\n\n                currentOwnedIndex++;\n            }\n        }\n\n        //\n        uint256 amount = stakedAmount.sub(boostStakedAmount);\n\n        PoolStakingRewards4(poolStakingRewardAddress).unstakeForWallet(msg.sender, amount);\n\n        return amount;\n    }\n\n    // Claim all the rewards that can be claimed from this boost. This is only what is earned from past iterations.\n    function claimRewards(uint256 boostId) public whenNotPaused nonReentrant returns (uint256) {\n        // Claim only the rewards that have been earned so far in this boost - the rewards that have already been claimed\n        require(ownerOf(boostId) == msg.sender, \"Not the owner\");\n        Boost storage boost = boostData[boostId];\n        uint256 nextRewardTimestamp = getNextRewardTimestamp(boost);\n\n        return claimRewardsCore(boost, nextRewardTimestamp);\n    }\n\n    function computeTotalRewards(Boost storage boost, uint256 nextRewardTimestamp) private view returns (uint256) {\n        uint256 totalRewardAmount;\n        uint256 newMatureSeconds = 0;\n        // if the boost is mature, then just udpate how long we've been mature and pay those rewards\n        if (nextRewardTimestamp < block.timestamp) {\n            newMatureSeconds = block.timestamp - nextRewardTimestamp;\n            totalRewardAmount = boost.principal.mul(boost.endIteration).mul(getPerIterationRateForLevel(boost.level, boost.startTime, nextRewardTimestamp)).div(1000000);\n        } else {\n            // Otherwise the boost isn't mature. We can pay rewards up to the last full iteration\n            uint256 completeIterations = (block.timestamp - boost.startTime).div(getSecondsPerIteration(boost.level));\n            totalRewardAmount = boost.principal.mul(completeIterations).mul(getPerIterationRateForLevel(boost.level, boost.startTime, block.timestamp)).div(1000000);\n        }\n        totalRewardAmount += boost.principal.mul(boost.additionalMatureSeconds + newMatureSeconds).div(SECONDS_PER_YEAR).div(100);\n        return totalRewardAmount;\n    }\n\n    function claimRewardsCore(Boost storage boost, uint256 nextRewardTimestamp) private returns (uint256) {\n        uint256 totalRewardAmount = computeTotalRewards(boost, nextRewardTimestamp);\n        // subtract out the rewards that we have already paid\n        uint256 rewardAmount = totalRewardAmount.sub(boost.claimedRewards);\n        boost.claimedRewards = SafeCast.toUint64(totalRewardAmount);\n\n        // pay the rewards if there are any\n        if (rewardAmount > 0) {\n            Pool13(poolAddress).transferBoostRewards(msg.sender, rewardAmount);\n        }\n\n        return rewardAmount;\n    }\n\n    function appendInterestRate(uint256 newRate) public {\n        require(msg.sender == guardianAddress, \"caller must be guardian\");\n        weeklyInterestRates.push(newRate);\n    }\n\n    function setWeeklyStartTime(uint256 _weeklyStartTime) public {\n        require(msg.sender == guardianAddress, \"caller must be guardian\");\n        weeklyStartTime = _weeklyStartTime;\n    }\n}\n",
  "sourcePath": "/src/contracts/HomeBoost/HomeBoost0.sol",
  "updatedAt": "2022-08-11T19:21:54.283Z",
  "userdoc": {
    "kind": "user",
    "methods": {
      "approveAccess(address)": {
        "notice": " Mutations"
      }
    },
    "version": 1
  }
}