{
  "contractName": "HomeBoost2",
  "abi": [
    {
      "anonymous": false,
      "inputs": [
        {
          "indexed": true,
          "internalType": "address",
          "name": "owner",
          "type": "address"
        },
        {
          "indexed": true,
          "internalType": "address",
          "name": "approved",
          "type": "address"
        },
        {
          "indexed": true,
          "internalType": "uint256",
          "name": "tokenId",
          "type": "uint256"
        }
      ],
      "name": "Approval",
      "type": "event"
    },
    {
      "anonymous": false,
      "inputs": [
        {
          "indexed": true,
          "internalType": "address",
          "name": "owner",
          "type": "address"
        },
        {
          "indexed": true,
          "internalType": "address",
          "name": "operator",
          "type": "address"
        },
        {
          "indexed": false,
          "internalType": "bool",
          "name": "approved",
          "type": "bool"
        }
      ],
      "name": "ApprovalForAll",
      "type": "event"
    },
    {
      "anonymous": false,
      "inputs": [
        {
          "indexed": false,
          "internalType": "address",
          "name": "account",
          "type": "address"
        }
      ],
      "name": "Paused",
      "type": "event"
    },
    {
      "anonymous": false,
      "inputs": [
        {
          "indexed": true,
          "internalType": "address",
          "name": "from",
          "type": "address"
        },
        {
          "indexed": true,
          "internalType": "address",
          "name": "to",
          "type": "address"
        },
        {
          "indexed": true,
          "internalType": "uint256",
          "name": "tokenId",
          "type": "uint256"
        }
      ],
      "name": "Transfer",
      "type": "event"
    },
    {
      "anonymous": false,
      "inputs": [
        {
          "indexed": false,
          "internalType": "address",
          "name": "account",
          "type": "address"
        }
      ],
      "name": "Unpaused",
      "type": "event"
    },
    {
      "inputs": [
        {
          "internalType": "address",
          "name": "to",
          "type": "address"
        },
        {
          "internalType": "uint256",
          "name": "tokenId",
          "type": "uint256"
        }
      ],
      "name": "approve",
      "outputs": [],
      "stateMutability": "nonpayable",
      "type": "function"
    },
    {
      "inputs": [
        {
          "internalType": "address",
          "name": "owner",
          "type": "address"
        }
      ],
      "name": "balanceOf",
      "outputs": [
        {
          "internalType": "uint256",
          "name": "",
          "type": "uint256"
        }
      ],
      "stateMutability": "view",
      "type": "function"
    },
    {
      "inputs": [
        {
          "internalType": "uint256",
          "name": "tokenId",
          "type": "uint256"
        }
      ],
      "name": "getApproved",
      "outputs": [
        {
          "internalType": "address",
          "name": "",
          "type": "address"
        }
      ],
      "stateMutability": "view",
      "type": "function"
    },
    {
      "inputs": [
        {
          "internalType": "address",
          "name": "owner",
          "type": "address"
        },
        {
          "internalType": "address",
          "name": "operator",
          "type": "address"
        }
      ],
      "name": "isApprovedForAll",
      "outputs": [
        {
          "internalType": "bool",
          "name": "",
          "type": "bool"
        }
      ],
      "stateMutability": "view",
      "type": "function"
    },
    {
      "inputs": [],
      "name": "name",
      "outputs": [
        {
          "internalType": "string",
          "name": "",
          "type": "string"
        }
      ],
      "stateMutability": "view",
      "type": "function"
    },
    {
      "inputs": [
        {
          "internalType": "uint256",
          "name": "tokenId",
          "type": "uint256"
        }
      ],
      "name": "ownerOf",
      "outputs": [
        {
          "internalType": "address",
          "name": "",
          "type": "address"
        }
      ],
      "stateMutability": "view",
      "type": "function"
    },
    {
      "inputs": [],
      "name": "paused",
      "outputs": [
        {
          "internalType": "bool",
          "name": "",
          "type": "bool"
        }
      ],
      "stateMutability": "view",
      "type": "function"
    },
    {
      "inputs": [
        {
          "internalType": "address",
          "name": "from",
          "type": "address"
        },
        {
          "internalType": "address",
          "name": "to",
          "type": "address"
        },
        {
          "internalType": "uint256",
          "name": "tokenId",
          "type": "uint256"
        }
      ],
      "name": "safeTransferFrom",
      "outputs": [],
      "stateMutability": "nonpayable",
      "type": "function"
    },
    {
      "inputs": [
        {
          "internalType": "address",
          "name": "from",
          "type": "address"
        },
        {
          "internalType": "address",
          "name": "to",
          "type": "address"
        },
        {
          "internalType": "uint256",
          "name": "tokenId",
          "type": "uint256"
        },
        {
          "internalType": "bytes",
          "name": "_data",
          "type": "bytes"
        }
      ],
      "name": "safeTransferFrom",
      "outputs": [],
      "stateMutability": "nonpayable",
      "type": "function"
    },
    {
      "inputs": [
        {
          "internalType": "address",
          "name": "operator",
          "type": "address"
        },
        {
          "internalType": "bool",
          "name": "approved",
          "type": "bool"
        }
      ],
      "name": "setApprovalForAll",
      "outputs": [],
      "stateMutability": "nonpayable",
      "type": "function"
    },
    {
      "inputs": [
        {
          "internalType": "bytes4",
          "name": "interfaceId",
          "type": "bytes4"
        }
      ],
      "name": "supportsInterface",
      "outputs": [
        {
          "internalType": "bool",
          "name": "",
          "type": "bool"
        }
      ],
      "stateMutability": "view",
      "type": "function"
    },
    {
      "inputs": [],
      "name": "symbol",
      "outputs": [
        {
          "internalType": "string",
          "name": "",
          "type": "string"
        }
      ],
      "stateMutability": "view",
      "type": "function"
    },
    {
      "inputs": [
        {
          "internalType": "uint256",
          "name": "tokenId",
          "type": "uint256"
        }
      ],
      "name": "tokenURI",
      "outputs": [
        {
          "internalType": "string",
          "name": "",
          "type": "string"
        }
      ],
      "stateMutability": "view",
      "type": "function"
    },
    {
      "inputs": [
        {
          "internalType": "address",
          "name": "from",
          "type": "address"
        },
        {
          "internalType": "address",
          "name": "to",
          "type": "address"
        },
        {
          "internalType": "uint256",
          "name": "tokenId",
          "type": "uint256"
        }
      ],
      "name": "transferFrom",
      "outputs": [],
      "stateMutability": "nonpayable",
      "type": "function"
    },
    {
      "inputs": [
        {
          "internalType": "uint256",
          "name": "tokenId",
          "type": "uint256"
        }
      ],
      "name": "getRawTokenData",
      "outputs": [
        {
          "components": [
            {
              "internalType": "uint64",
              "name": "startTime",
              "type": "uint64"
            },
            {
              "internalType": "uint64",
              "name": "principal",
              "type": "uint64"
            },
            {
              "internalType": "uint64",
              "name": "claimedRewards",
              "type": "uint64"
            },
            {
              "internalType": "uint64",
              "name": "additionalMatureSeconds",
              "type": "uint64"
            },
            {
              "internalType": "uint16",
              "name": "endIteration",
              "type": "uint16"
            },
            {
              "internalType": "uint16",
              "name": "level",
              "type": "uint16"
            }
          ],
          "internalType": "struct HomeBoost2.Boost",
          "name": "",
          "type": "tuple"
        }
      ],
      "stateMutability": "view",
      "type": "function"
    },
    {
      "inputs": [
        {
          "internalType": "uint256",
          "name": "week",
          "type": "uint256"
        }
      ],
      "name": "getWeeklyInterestRate",
      "outputs": [
        {
          "internalType": "uint256",
          "name": "",
          "type": "uint256"
        }
      ],
      "stateMutability": "view",
      "type": "function"
    },
    {
      "inputs": [
        {
          "internalType": "uint64",
          "name": "startTime",
          "type": "uint64"
        },
        {
          "internalType": "uint256",
          "name": "endTime",
          "type": "uint256"
        }
      ],
      "name": "getPerIterationRateForLevel2",
      "outputs": [
        {
          "internalType": "uint256",
          "name": "",
          "type": "uint256"
        }
      ],
      "stateMutability": "view",
      "type": "function"
    },
    {
      "inputs": [
        {
          "internalType": "uint16",
          "name": "level",
          "type": "uint16"
        }
      ],
      "name": "getAPYForLevel",
      "outputs": [
        {
          "internalType": "uint256",
          "name": "",
          "type": "uint256"
        }
      ],
      "stateMutability": "view",
      "type": "function"
    },
    {
      "inputs": [
        {
          "internalType": "uint16",
          "name": "level",
          "type": "uint16"
        },
        {
          "internalType": "uint256",
          "name": "rawAmount",
          "type": "uint256"
        }
      ],
      "name": "getStakeAmount",
      "outputs": [
        {
          "internalType": "uint256",
          "name": "",
          "type": "uint256"
        }
      ],
      "stateMutability": "pure",
      "type": "function"
    },
    {
      "inputs": [],
      "name": "getTokens",
      "outputs": [
        {
          "components": [
            {
              "internalType": "uint256",
              "name": "id",
              "type": "uint256"
            },
            {
              "internalType": "uint256",
              "name": "startTime",
              "type": "uint256"
            },
            {
              "internalType": "uint256",
              "name": "principal",
              "type": "uint256"
            },
            {
              "internalType": "uint256",
              "name": "claimedRewards",
              "type": "uint256"
            },
            {
              "internalType": "uint256",
              "name": "totalRewards",
              "type": "uint256"
            },
            {
              "internalType": "uint256",
              "name": "apy",
              "type": "uint256"
            },
            {
              "internalType": "uint256",
              "name": "nextRewardTimestamp",
              "type": "uint256"
            },
            {
              "internalType": "uint16",
              "name": "level",
              "type": "uint16"
            },
            {
              "internalType": "bool",
              "name": "isComplete",
              "type": "bool"
            },
            {
              "internalType": "bool",
              "name": "isAutoRenew",
              "type": "bool"
            }
          ],
          "internalType": "struct HomeBoost2.BoostDetail[]",
          "name": "",
          "type": "tuple[]"
        }
      ],
      "stateMutability": "view",
      "type": "function"
    },
    {
      "inputs": [
        {
          "internalType": "address",
          "name": "addr",
          "type": "address"
        }
      ],
      "name": "approveAccess",
      "outputs": [],
      "stateMutability": "nonpayable",
      "type": "function"
    },
    {
      "inputs": [
        {
          "internalType": "address",
          "name": "addr",
          "type": "address"
        }
      ],
      "name": "revokeAccess",
      "outputs": [],
      "stateMutability": "nonpayable",
      "type": "function"
    },
    {
      "inputs": [
        {
          "internalType": "string",
          "name": "_boostBaseURI",
          "type": "string"
        }
      ],
      "name": "setBoostBaseUri",
      "outputs": [],
      "stateMutability": "nonpayable",
      "type": "function"
    },
    {
      "inputs": [],
      "name": "pause",
      "outputs": [],
      "stateMutability": "nonpayable",
      "type": "function"
    },
    {
      "inputs": [],
      "name": "unpause",
      "outputs": [],
      "stateMutability": "nonpayable",
      "type": "function"
    },
    {
      "inputs": [
        {
          "internalType": "address",
          "name": "to",
          "type": "address"
        },
        {
          "internalType": "uint256",
          "name": "principal",
          "type": "uint256"
        },
        {
          "internalType": "uint16",
          "name": "level",
          "type": "uint16"
        },
        {
          "internalType": "bool",
          "name": "autoRenew",
          "type": "bool"
        }
      ],
      "name": "mint",
      "outputs": [
        {
          "internalType": "bool",
          "name": "",
          "type": "bool"
        }
      ],
      "stateMutability": "nonpayable",
      "type": "function"
    },
    {
      "inputs": [
        {
          "internalType": "uint256",
          "name": "boostId",
          "type": "uint256"
        }
      ],
      "name": "setToAutoRenew",
      "outputs": [],
      "stateMutability": "nonpayable",
      "type": "function"
    },
    {
      "inputs": [
        {
          "internalType": "uint256",
          "name": "boostId",
          "type": "uint256"
        }
      ],
      "name": "endAutoRenew",
      "outputs": [],
      "stateMutability": "nonpayable",
      "type": "function"
    },
    {
      "inputs": [
        {
          "internalType": "uint256",
          "name": "boostId",
          "type": "uint256"
        }
      ],
      "name": "claimPrincipal",
      "outputs": [
        {
          "internalType": "uint256",
          "name": "",
          "type": "uint256"
        }
      ],
      "stateMutability": "nonpayable",
      "type": "function"
    },
    {
      "inputs": [],
      "name": "claimPreBoostStake",
      "outputs": [
        {
          "internalType": "uint256",
          "name": "",
          "type": "uint256"
        }
      ],
      "stateMutability": "nonpayable",
      "type": "function"
    },
    {
      "inputs": [
        {
          "internalType": "uint256",
          "name": "boostId",
          "type": "uint256"
        }
      ],
      "name": "claimRewards",
      "outputs": [
        {
          "internalType": "uint256",
          "name": "",
          "type": "uint256"
        }
      ],
      "stateMutability": "nonpayable",
      "type": "function"
    },
    {
      "inputs": [
        {
          "internalType": "uint256",
          "name": "newRate",
          "type": "uint256"
        }
      ],
      "name": "appendInterestRate",
      "outputs": [],
      "stateMutability": "nonpayable",
      "type": "function"
    },
    {
      "inputs": [
        {
          "internalType": "uint256",
          "name": "_weeklyStartTime",
          "type": "uint256"
        }
      ],
      "name": "setWeeklyStartTime",
      "outputs": [],
      "stateMutability": "nonpayable",
      "type": "function"
    }
  ],
  "bytecode": "0x608060405234801561001057600080fd5b50613cbc806100206000396000f3fe608060405234801561001057600080fd5b506004361061020b5760003560e01c806370a082311161012a578063aa6ca808116100bd578063ced93cba1161008c578063e985e9c511610071578063e985e9c5146104bf578063f9af0579146104fb578063fb14dc931461050e57600080fd5b8063ced93cba146104a4578063e68ec4f5146104ac57600080fd5b8063aa6ca80814610456578063b88d4fde1461046b578063b90bb8761461047e578063c87b56dd1461049157600080fd5b806395d89b41116100f957806395d89b41146104155780639e0b6ae51461041d578063a22cb46514610430578063a2b4eaae1461044357600080fd5b806370a08231146103d45780638400adfc146103e75780638456cb59146103fa57806385e685311461040257600080fd5b806323b872dd116101a25780635c975abb116101715780635c975abb146103905780635cbce3511461039b5780636352211e146103ae578063705211f4146103c157600080fd5b806323b872dd1461034f5780633f4ba83a1461036257806342842e0e1461036a578063561abab11461037d57600080fd5b8063095ea7b3116101de578063095ea7b31461028d5780630962ef79146102a057806317b74c36146102c15780631ec2128c146102d457600080fd5b806301ffc9a71461021057806306fdde0314610238578063081812fc1461024d57806309149aeb14610278575b600080fd5b61022361021e366004613627565b610521565b60405190151581526020015b60405180910390f35b610240610606565b60405161022f919061369c565b61026061025b3660046136af565b610698565b6040516001600160a01b03909116815260200161022f565b61028b6102863660046136af565b610743565b005b61028b61029b3660046136df565b610873565b6102b36102ae3660046136af565b6109a5565b60405190815260200161022f565b6102b36102cf36600461371b565b610b4d565b6102e76102e23660046136af565b610bbb565b60405161022f9190600060c08201905067ffffffffffffffff80845116835280602085015116602084015280604085015116604084015280606085015116606084015250608083015161ffff80821660808501528060a08601511660a0850152505092915050565b61028b61035d366004613736565b610c81565b61028b610d08565b61028b610378366004613736565b610d6c565b6102b361038b366004613772565b610d87565b60335460ff16610223565b61028b6103a93660046136af565b611022565b6102606103bc3660046136af565b611081565b61028b6103cf36600461379d565b61110c565b6102b36103e236600461379d565b61118b565b6102b36103f53660046137b8565b611225565b61028b611263565b61028b61041036600461379d565b6112c5565b610240611341565b61028b61042b366004613860565b611350565b61028b61043e3660046138b7565b6113c2565b6102b36104513660046136af565b6113cd565b61045e6113f4565b60405161022f91906138ee565b61028b610479366004613999565b61169a565b61028b61048c3660046136af565b611728565b61024061049f3660046136af565b6117b7565b6102b36118a0565b6102236104ba366004613a15565b611b6f565b6102236104cd366004613a64565b6001600160a01b03918216600090815260ce6020908152604080832093909416825291909152205460ff1690565b6102b36105093660046136af565b611e0f565b61028b61051c3660046136af565b61221f565b60007fffffffff0000000000000000000000000000000000000000000000000000000082167f80ac58cd0000000000000000000000000000000000000000000000000000000014806105b457507fffffffff0000000000000000000000000000000000000000000000000000000082167f5b5e139f00000000000000000000000000000000000000000000000000000000145b8061060057507f01ffc9a7000000000000000000000000000000000000000000000000000000007fffffffff000000000000000000000000000000000000000000000000000000008316145b92915050565b606060c9805461061590613a97565b80601f016020809104026020016040519081016040528092919081815260200182805461064190613a97565b801561068e5780601f106106635761010080835404028352916020019161068e565b820191906000526020600020905b81548152906001019060200180831161067157829003601f168201915b5050505050905090565b600081815260cb60205260408120546001600160a01b03166107275760405162461bcd60e51b815260206004820152602c60248201527f4552433732313a20617070726f76656420717565727920666f72206e6f6e657860448201527f697374656e7420746f6b656e000000000000000000000000000000000000000060648201526084015b60405180910390fd5b50600090815260cd60205260409020546001600160a01b031690565b60335460ff16156107895760405162461bcd60e51b815260206004820152601060248201526f14185d5cd8589b194e881c185d5cd95960821b604482015260640161071e565b3361079382611081565b6001600160a01b0316146107d95760405162461bcd60e51b815260206004820152600d60248201526c2737ba103a34329037bbb732b960991b604482015260640161071e565b600060fb82815481106107ee576107ee613ad2565b60009182526020909120600290910201600181015490915061ffff1615610813575050565b600181015461084b9061082f9062010000900461ffff16612306565b82546108459067ffffffffffffffff1642613afe565b9061233f565b610856906001613b15565b600191909101805461ffff191661ffff9092169190911790555b50565b600061087e82611081565b9050806001600160a01b0316836001600160a01b031614156109085760405162461bcd60e51b815260206004820152602160248201527f4552433732313a20617070726f76616c20746f2063757272656e74206f776e6560448201527f7200000000000000000000000000000000000000000000000000000000000000606482015260840161071e565b336001600160a01b0382161480610924575061092481336104cd565b6109965760405162461bcd60e51b815260206004820152603860248201527f4552433732313a20617070726f76652063616c6c6572206973206e6f74206f7760448201527f6e6572206e6f7220617070726f76656420666f7220616c6c0000000000000000606482015260840161071e565b6109a0838361234b565b505050565b60006109b360335460ff1690565b156109f35760405162461bcd60e51b815260206004820152601060248201526f14185d5cd8589b194e881c185d5cd95960821b604482015260640161071e565b60026065541415610a465760405162461bcd60e51b815260206004820152601f60248201527f5265656e7472616e637947756172643a207265656e7472616e742063616c6c00604482015260640161071e565b600260655533610a5583611081565b6001600160a01b031614610a9b5760405162461bcd60e51b815260206004820152600d60248201526c2737ba103a34329037bbb732b960991b604482015260640161071e565b600060fb8381548110610ab057610ab0613ad2565b600091825260208083206040805160c0810182526002909402909101805467ffffffffffffffff8082168652600160401b8204811694860194909452600160801b8104841692850192909252600160c01b9091049091166060830152600181015461ffff8082166080850152620100009091041660a08301529250610b34906123c6565b9050610b40828261246f565b6001606555949350505050565b60008161ffff1660011415610b655750614e20919050565b8161ffff1660021415610bb35760fd54610b8157506000919050565b60fd8054610b9190600190613afe565b81548110610ba157610ba1613ad2565b90600052602060002001549050919050565b506000919050565b6040805160c081018252600080825260208201819052918101829052606081018290526080810182905260a081019190915260fb8281548110610c0057610c00613ad2565b60009182526020918290206040805160c0810182526002909302909101805467ffffffffffffffff8082168552600160401b8204811695850195909552600160801b8104851692840192909252600160c01b909104909216606082015260019091015461ffff8082166080840152620100009091041660a082015292915050565b610c8b3382612573565b610cfd5760405162461bcd60e51b815260206004820152603160248201527f4552433732313a207472616e736665722063616c6c6572206973206e6f74206f60448201527f776e6572206e6f7220617070726f766564000000000000000000000000000000606482015260840161071e565b6109a0838383612677565b60ff546001600160a01b03163314610d625760405162461bcd60e51b815260206004820152601760248201527f63616c6c6572206d75737420626520677561726469616e000000000000000000604482015260640161071e565b610d6a61285c565b565b6109a08383836040518060200160405280600081525061169a565b60fd546000901580610da25750818367ffffffffffffffff16145b15610daf57506000610600565b60fc548367ffffffffffffffff161015610e315760405162461bcd60e51b815260206004820152603360248201527f737461727454696d65206d75737420626520677265617465722062656361757360448201527f65206e6567617469766573206172652062616400000000000000000000000000606482015260840161071e565b6000610e41620151806007613b2d565b60fc54610e589067ffffffffffffffff8716613afe565b610e629190613b62565b90506000610e74620151806007613b2d565b60fc54610e8b9067ffffffffffffffff8816613afe565b610e959190613b76565b9050610ea5620151806007613b2d565b81610eb4620151806007613b2d565b610ebe9190613afe565b610ec89190613b76565b90506000610eda620151806007613b2d565b60fc54610ee79087613afe565b610ef19190613b62565b90506000610f03620151806007613b2d565b60fc54610f109088613afe565b610f1a9190613b76565b9050600081610f28846113cd565b610f329190613b2d565b9050610f3e8584613afe565b610f6c57610f5667ffffffffffffffff891688613afe565b610f609082613b62565b95505050505050610600565b83610f76866113cd565b610f809190613b2d565b610f8a9082613b15565b90508315610fa057610f9d600186613b15565b94505b6000855b84811015610fd357610fb5816113cd565b610fbf9083613b15565b915080610fcb81613b8a565b915050610fa4565b610fe767ffffffffffffffff8b168a613afe565b83610ff6620151806007613b2d565b6110009085613b2d565b61100a9190613b15565b6110149190613b62565b9a9950505050505050505050565b60ff546001600160a01b0316331461107c5760405162461bcd60e51b815260206004820152601760248201527f63616c6c6572206d75737420626520677561726469616e000000000000000000604482015260640161071e565b60fc55565b600081815260cb60205260408120546001600160a01b0316806106005760405162461bcd60e51b815260206004820152602960248201527f4552433732313a206f776e657220717565727920666f72206e6f6e657869737460448201527f656e7420746f6b656e0000000000000000000000000000000000000000000000606482015260840161071e565b60ff546001600160a01b031633146111665760405162461bcd60e51b815260206004820152601760248201527f63616c6c6572206d75737420626520677561726469616e000000000000000000604482015260640161071e565b6001600160a01b0316600090815261010160205260409020805460ff19166001179055565b60006001600160a01b0382166112095760405162461bcd60e51b815260206004820152602a60248201527f4552433732313a2062616c616e636520717565727920666f7220746865207a6560448201527f726f206164647265737300000000000000000000000000000000000000000000606482015260840161071e565b506001600160a01b0316600090815260cc602052604090205490565b60008261ffff16600114156112465761123f82600261233f565b9050610600565b8261ffff166002141561125a575080610600565b50600092915050565b60ff546001600160a01b031633146112bd5760405162461bcd60e51b815260206004820152601760248201527f63616c6c6572206d75737420626520677561726469616e000000000000000000604482015260640161071e565b610d6a6128f8565b60ff546001600160a01b0316331461131f5760405162461bcd60e51b815260206004820152601760248201527f63616c6c6572206d75737420626520677561726469616e000000000000000000604482015260640161071e565b6001600160a01b0316600090815261010160205260409020805460ff19169055565b606060ca805461061590613a97565b60ff546001600160a01b031633146113aa5760405162461bcd60e51b815260206004820152601760248201527f63616c6c6572206d75737420626520677561726469616e000000000000000000604482015260640161071e565b80516113be90610102906020840190613569565b5050565b6113be338383612973565b60fd5460009082106113e157506000919050565b60fd8281548110610ba157610ba1613ad2565b606060006114013361118b565b905060008167ffffffffffffffff81111561141e5761141e6137d4565b6040519080825280602002602001820160405280156114ad57816020015b61149a60405180610140016040528060008152602001600081526020016000815260200160008152602001600081526020016000815260200160008152602001600061ffff1681526020016000151581526020016000151581525090565b81526020019060019003908161143c5790505b509050816114bb5792915050565b600060015b60fb5481101561169157600081815260cb60205260409020546001600160a01b031615806114ff5750336114f382611081565b6001600160a01b031614155b156115095761167f565b825182141561151757611691565b600060fb828154811061152c5761152c613ad2565b600091825260208083206040805160c0810182526002909402909101805467ffffffffffffffff8082168652600160401b8204811694860194909452600160801b8104841692850192909252600160c01b9091049091166060830152600181015461ffff8082166080850152620100009091041660a083015292506115b0906123c6565b6040805161014081018252858152845467ffffffffffffffff8082166020840152600160401b8204811693830193909352600160801b90049091166060820152909150608081016116018484612a42565b81526020016116218460010160029054906101000a900461ffff16610b4d565b815260208101839052600184015461ffff6201000082048116604084015242851060608401521615608090910152855186908690811061166357611663613ad2565b6020026020010181905250838061167990613b8a565b94505050505b8061168981613b8a565b9150506114c0565b50909392505050565b6116a43383612573565b6117165760405162461bcd60e51b815260206004820152603160248201527f4552433732313a207472616e736665722063616c6c6572206973206e6f74206f60448201527f776e6572206e6f7220617070726f766564000000000000000000000000000000606482015260840161071e565b61172284848484612baf565b50505050565b60ff546001600160a01b031633146117825760405162461bcd60e51b815260206004820152601760248201527f63616c6c6572206d75737420626520677561726469616e000000000000000000604482015260640161071e565b60fd80546001810182556000919091527f9346ac6dd7de6b96975fec380d4d994c4c12e6a8897544f22915316cc6cca2800155565b600081815260cb60205260409020546060906001600160a01b03166118445760405162461bcd60e51b815260206004820152602f60248201527f4552433732314d657461646174613a2055524920717565727920666f72206e6f60448201527f6e6578697374656e7420746f6b656e0000000000000000000000000000000000606482015260840161071e565b600061184e612c38565b9050600081511161186e5760405180602001604052806000815250611899565b8061187884612c48565b604051602001611889929190613ba5565b6040516020818303038152906040525b9392505050565b60006118ae60335460ff1690565b156118ee5760405162461bcd60e51b815260206004820152601060248201526f14185d5cd8589b194e881c185d5cd95960821b604482015260640161071e565b600260655414156119415760405162461bcd60e51b815260206004820152601f60248201527f5265656e7472616e637947756172643a207265656e7472616e742063616c6c00604482015260640161071e565b600260655560006119513361118b565b610100546040517f440277e80000000000000000000000000000000000000000000000000000000081523360048201529192506000916001600160a01b039091169063440277e89060240160206040518083038186803b1580156119b457600080fd5b505afa1580156119c8573d6000803e3d6000fd5b505050506040513d601f19601f820116820180604052508101906119ec9190613bd4565b905060008215611ad657600060015b60fb54811015611ad357600081815260cb60205260409020546001600160a01b03161580611a3a575033611a2e82611081565b6001600160a01b031614155b15611a4457611ac1565b84821415611a5157611ad3565b600060fb8281548110611a6657611a66613ad2565b6000918252602090912060029091020160018101548154919250611ab091611aa99162010000900461ffff1690600160401b900467ffffffffffffffff16611225565b8590612d7a565b935082611abc81613b8a565b935050505b80611acb81613b8a565b9150506119fb565b50505b6000611ae28383612d86565b610100546040517f6a7b408b000000000000000000000000000000000000000000000000000000008152336004820152602481018390529192506001600160a01b031690636a7b408b90604401600060405180830381600087803b158015611b4957600080fd5b505af1158015611b5d573d6000803e3d6000fd5b50929650505050505050600160655590565b6000611b7d60335460ff1690565b15611bbd5760405162461bcd60e51b815260206004820152601060248201526f14185d5cd8589b194e881c185d5cd95960821b604482015260640161071e565b60026065541415611c105760405162461bcd60e51b815260206004820152601f60248201527f5265656e7472616e637947756172643a207265656e7472616e742063616c6c00604482015260640161071e565b6002606555336000908152610101602052604090205460ff16611c755760405162461bcd60e51b815260206004820152601760248201527f43616c6c6572206d75737420626520617070726f766564000000000000000000604482015260640161071e565b600082611c83576001611c86565b60005b60ff16905060fb6040518060c00160405280611ca142612d92565b67ffffffffffffffff168152602001611cb988612d92565b67ffffffffffffffff908116825260006020808401829052604080850183905261ffff8089166060808801919091528c8216608097880152885460018181018b5599865284862089516002909202018054958a0151948a0151928a01518816600160c01b0277ffffffffffffffffffffffffffffffffffffffffffffffff938916600160801b02939093166fffffffffffffffffffffffffffffffff958916600160401b027fffffffffffffffffffffffffffffffff00000000000000000000000000000000909716929098169190911794909417929092169490941717815592840151928501805460a090950151831662010000027fffffffffffffffffffffffffffffffffffffffffffffffffffffffff0000000090951693909216929092179290921790915560fb549091611df091613afe565b9050611dfc8782612e16565b6001925050506001606555949350505050565b6000611e1d60335460ff1690565b15611e5d5760405162461bcd60e51b815260206004820152601060248201526f14185d5cd8589b194e881c185d5cd95960821b604482015260640161071e565b60026065541415611eb05760405162461bcd60e51b815260206004820152601f60248201527f5265656e7472616e637947756172643a207265656e7472616e742063616c6c00604482015260640161071e565b600260655533611ebf83611081565b6001600160a01b031614611f055760405162461bcd60e51b815260206004820152600d60248201526c2737ba103a34329037bbb732b960991b604482015260640161071e565b600060fb8381548110611f1a57611f1a613ad2565b60009182526020909120600290910201600181015490915061ffff16611f825760405162461bcd60e51b815260206004820152601560248201527f4d757374206e6f74206265206175746f52656e65770000000000000000000000604482015260640161071e565b6040805160c081018252825467ffffffffffffffff8082168352600160401b820481166020840152600160801b8204811693830193909352600160c01b90049091166060820152600182015461ffff8082166080840152620100009091041660a0820152600090611ff2906123c6565b90504281106120435760405162461bcd60e51b815260206004820152600c60248201527f5374696c6c206c6f636b65640000000000000000000000000000000000000000604482015260640161071e565b600061204f838361246f565b905061205a85612e30565b6001830154835460009161208a916201000090910461ffff1690600160401b900467ffffffffffffffff16611225565b610100546040517f6a7b408b000000000000000000000000000000000000000000000000000000008152336004820152602481018390529192506001600160a01b031690636a7b408b90604401600060405180830381600087803b1580156120f157600080fd5b505af1158015612105573d6000803e3d6000fd5b50508554600160401b900467ffffffffffffffff1683101591506121f290505760fe5484546001600160a01b039091169063a9059cbb90339061215a908590600160401b900467ffffffffffffffff16613afe565b6040517fffffffff0000000000000000000000000000000000000000000000000000000060e085901b1681526001600160a01b0390921660048301526024820152604401602060405180830381600087803b1580156121b857600080fd5b505af11580156121cc573d6000803e3d6000fd5b505050506040513d601f19601f820116820180604052508101906121f09190613bed565b505b8354612210908390600160401b900467ffffffffffffffff16613b15565b60016065559695505050505050565b60335460ff16156122655760405162461bcd60e51b815260206004820152601060248201526f14185d5cd8589b194e881c185d5cd95960821b604482015260640161071e565b3361226f82611081565b6001600160a01b0316146122b55760405162461bcd60e51b815260206004820152600d60248201526c2737ba103a34329037bbb732b960991b604482015260640161071e565b600060fb82815481106122ca576122ca613ad2565b60009182526020909120600290910201600181015490915061ffff166122ee575050565b6122f781612ee4565b600101805461ffff1916905550565b60008161ffff16600114156123235761060062015180605a613b2d565b8161ffff1660021415610bb3576106006201518061016d613b2d565b60006118998284613b62565b600081815260cd60205260409020805473ffffffffffffffffffffffffffffffffffffffff19166001600160a01b038416908117909155819061238d82611081565b6001600160a01b03167f8c5be1e5ebec7d5bd14f71427d1e84f3dd0314c0f7b2291e5b200ac8c7c3b92560405160405180910390a45050565b6000816080015161ffff166000141561243b5760006124016123eb8460a00151612306565b84516108459067ffffffffffffffff1642613afe565b61240c906001613b15565b90506124258161241f8560a00151612306565b9061303a565b8351611899919067ffffffffffffffff16613b15565b612454826080015161ffff1661241f8460a00151612306565b8251610600919067ffffffffffffffff16613b15565b919050565b60008061247c8484612a42565b84549091506000906124a0908390600160801b900467ffffffffffffffff16612d86565b90506124ab82612d92565b855467ffffffffffffffff91909116600160801b027fffffffffffffffff0000000000000000ffffffffffffffffffffffffffffffff909116178555801561256b5760fe546040517f56ff0715000000000000000000000000000000000000000000000000000000008152336004820152602481018390526001600160a01b03909116906356ff071590604401600060405180830381600087803b15801561255257600080fd5b505af1158015612566573d6000803e3d6000fd5b505050505b949350505050565b600081815260cb60205260408120546001600160a01b03166125fd5760405162461bcd60e51b815260206004820152602c60248201527f4552433732313a206f70657261746f7220717565727920666f72206e6f6e657860448201527f697374656e7420746f6b656e0000000000000000000000000000000000000000606482015260840161071e565b600061260883611081565b9050806001600160a01b0316846001600160a01b031614806126435750836001600160a01b031661263884610698565b6001600160a01b0316145b8061256b57506001600160a01b03808216600090815260ce602090815260408083209388168352929052205460ff1661256b565b826001600160a01b031661268a82611081565b6001600160a01b0316146127065760405162461bcd60e51b815260206004820152602960248201527f4552433732313a207472616e73666572206f6620746f6b656e2074686174206960448201527f73206e6f74206f776e0000000000000000000000000000000000000000000000606482015260840161071e565b6001600160a01b0382166127815760405162461bcd60e51b8152602060048201526024808201527f4552433732313a207472616e7366657220746f20746865207a65726f2061646460448201527f7265737300000000000000000000000000000000000000000000000000000000606482015260840161071e565b61278c838383613046565b61279760008261234b565b6001600160a01b038316600090815260cc602052604081208054600192906127c0908490613afe565b90915550506001600160a01b038216600090815260cc602052604081208054600192906127ee908490613b15565b9091555050600081815260cb6020526040808220805473ffffffffffffffffffffffffffffffffffffffff19166001600160a01b0386811691821790925591518493918716917fddf252ad1be2c89b69c2b068fc378daa952ba7f163c4a11628f55a4df523b3ef91a4505050565b60335460ff166128ae5760405162461bcd60e51b815260206004820152601460248201527f5061757361626c653a206e6f7420706175736564000000000000000000000000604482015260640161071e565b6033805460ff191690557f5db9ee0a495bf2e6ff9c91a7834c1ba4fdd244a5e8aa4e537bd38aeae4b073aa335b6040516001600160a01b03909116815260200160405180910390a1565b60335460ff161561293e5760405162461bcd60e51b815260206004820152601060248201526f14185d5cd8589b194e881c185d5cd95960821b604482015260640161071e565b6033805460ff191660011790557f62e78cea01bee320cd4e420270b5ea74000d11b0c9f74754ebdbfc544b05a2586128db3390565b816001600160a01b0316836001600160a01b031614156129d55760405162461bcd60e51b815260206004820152601960248201527f4552433732313a20617070726f766520746f2063616c6c657200000000000000604482015260640161071e565b6001600160a01b03838116600081815260ce6020908152604080832094871680845294825291829020805460ff191686151590811790915591519182527f17307eab39ab6107e8899845ad3d59bd9653f200f220920489ca2b5937696c31910160405180910390a3505050565b600080600042841015612abd57612a598442613afe565b60018601548654919250612ab691620f42409161084591612a8f9162010000900461ffff169067ffffffffffffffff1689613198565b6001890154895461241f91600160401b90910467ffffffffffffffff169061ffff1661303a565b9150612b4a565b6000612af3612add8760010160029054906101000a900461ffff16612306565b87546108459067ffffffffffffffff1642613afe565b60018701548754919250612b4691620f42409161084591612b299162010000900461ffff169067ffffffffffffffff1642613198565b895461241f90600160401b900467ffffffffffffffff168661303a565b9250505b612b9c6064610845612b616201518061016d613b2d565b885461084590612b83908790600160c01b900467ffffffffffffffff16613b15565b8a54600160401b900467ffffffffffffffff169061303a565b612ba69083613b15565b95945050505050565b612bba848484612677565b612bc6848484846131d8565b6117225760405162461bcd60e51b815260206004820152603260248201527f4552433732313a207472616e7366657220746f206e6f6e20455243373231526560448201527f63656976657220696d706c656d656e7465720000000000000000000000000000606482015260840161071e565b6060610102805461061590613a97565b606081612c8857505060408051808201909152600181527f3000000000000000000000000000000000000000000000000000000000000000602082015290565b8160005b8115612cb25780612c9c81613b8a565b9150612cab9050600a83613b62565b9150612c8c565b60008167ffffffffffffffff811115612ccd57612ccd6137d4565b6040519080825280601f01601f191660200182016040528015612cf7576020820181803683370190505b5090505b841561256b57612d0c600183613afe565b9150612d19600a86613b76565b612d24906030613b15565b60f81b818381518110612d3957612d39613ad2565b60200101907effffffffffffffffffffffffffffffffffffffffffffffffffffffffffffff1916908160001a905350612d73600a86613b62565b9450612cfb565b60006118998284613b15565b60006118998284613afe565b600067ffffffffffffffff821115612e125760405162461bcd60e51b815260206004820152602660248201527f53616665436173743a2076616c756520646f65736e27742066697420696e203660448201527f3420626974730000000000000000000000000000000000000000000000000000606482015260840161071e565b5090565b6113be828260405180602001604052806000815250613385565b6000612e3b82611081565b9050612e4981600084613046565b612e5460008361234b565b6001600160a01b038116600090815260cc60205260408120805460019290612e7d908490613afe565b9091555050600082815260cb6020526040808220805473ffffffffffffffffffffffffffffffffffffffff19169055518391906001600160a01b038416907fddf252ad1be2c89b69c2b068fc378daa952ba7f163c4a11628f55a4df523b3ef908390a45050565b6040805160c081018252825467ffffffffffffffff8082168352600160401b820481166020840152600160801b8204811693830193909352600160c01b90049091166060820152600182015461ffff8082166080840152620100009091041660a08201524290612f53906123c6565b1015610870576001810154600090612f7d9061ffff8082169161241f916201000090910416612306565b8254909150612faa90612f9b90839067ffffffffffffffff16613b15565b612fa59042613afe565b612d92565b82548390601890612fcd908490600160c01b900467ffffffffffffffff16613c0a565b92506101000a81548167ffffffffffffffff021916908367ffffffffffffffff1602179055506130028142612fa59190613afe565b82547fffffffffffffffffffffffffffffffffffffffffffffffff00000000000000001667ffffffffffffffff919091161790915550565b60006118998284613b2d565b6001600160a01b038316158061306357506001600160a01b038216155b1561306d57505050565b600060fb828154811061308257613082613ad2565b600091825260208083206040805160c0810182526002909402909101805467ffffffffffffffff8082168652600160401b82048116948601859052600160801b8204811693860193909352600160c01b900490911660608401526001015461ffff8082166080850152620100009091041660a083018190529193506131079190611225565b610100546040517fbc36b07a000000000000000000000000000000000000000000000000000000008152600481018390526001600160a01b038881166024830152878116604483015292935091169063bc36b07a90606401600060405180830381600087803b15801561317957600080fd5b505af115801561318d573d6000803e3d6000fd5b505050505050505050565b60008361ffff16600114156131b05750611388611899565b8361ffff16600214156131ce576131c78383610d87565b9050611899565b5060009392505050565b60006001600160a01b0384163b1561337a576040517f150b7a020000000000000000000000000000000000000000000000000000000081526001600160a01b0385169063150b7a0290613235903390899088908890600401613c2d565b602060405180830381600087803b15801561324f57600080fd5b505af192505050801561327f575060408051601f3d908101601f1916820190925261327c91810190613c69565b60015b61332f573d8080156132ad576040519150601f19603f3d011682016040523d82523d6000602084013e6132b2565b606091505b5080516133275760405162461bcd60e51b815260206004820152603260248201527f4552433732313a207472616e7366657220746f206e6f6e20455243373231526560448201527f63656976657220696d706c656d656e7465720000000000000000000000000000606482015260840161071e565b805181602001fd5b7fffffffff00000000000000000000000000000000000000000000000000000000167f150b7a020000000000000000000000000000000000000000000000000000000014905061256b565b506001949350505050565b61338f838361340e565b61339c60008484846131d8565b6109a05760405162461bcd60e51b815260206004820152603260248201527f4552433732313a207472616e7366657220746f206e6f6e20455243373231526560448201527f63656976657220696d706c656d656e7465720000000000000000000000000000606482015260840161071e565b6001600160a01b0382166134645760405162461bcd60e51b815260206004820181905260248201527f4552433732313a206d696e7420746f20746865207a65726f2061646472657373604482015260640161071e565b600081815260cb60205260409020546001600160a01b0316156134c95760405162461bcd60e51b815260206004820152601c60248201527f4552433732313a20746f6b656e20616c7265616479206d696e74656400000000604482015260640161071e565b6134d560008383613046565b6001600160a01b038216600090815260cc602052604081208054600192906134fe908490613b15565b9091555050600081815260cb6020526040808220805473ffffffffffffffffffffffffffffffffffffffff19166001600160a01b03861690811790915590518392907fddf252ad1be2c89b69c2b068fc378daa952ba7f163c4a11628f55a4df523b3ef908290a45050565b82805461357590613a97565b90600052602060002090601f01602090048101928261359757600085556135dd565b82601f106135b057805160ff19168380011785556135dd565b828001600101855582156135dd579182015b828111156135dd5782518255916020019190600101906135c2565b50612e129291505b80821115612e1257600081556001016135e5565b7fffffffff000000000000000000000000000000000000000000000000000000008116811461087057600080fd5b60006020828403121561363957600080fd5b8135611899816135f9565b60005b8381101561365f578181015183820152602001613647565b838111156117225750506000910152565b60008151808452613688816020860160208601613644565b601f01601f19169290920160200192915050565b6020815260006118996020830184613670565b6000602082840312156136c157600080fd5b5035919050565b80356001600160a01b038116811461246a57600080fd5b600080604083850312156136f257600080fd5b6136fb836136c8565b946020939093013593505050565b803561ffff8116811461246a57600080fd5b60006020828403121561372d57600080fd5b61189982613709565b60008060006060848603121561374b57600080fd5b613754846136c8565b9250613762602085016136c8565b9150604084013590509250925092565b6000806040838503121561378557600080fd5b823567ffffffffffffffff811681146136fb57600080fd5b6000602082840312156137af57600080fd5b611899826136c8565b600080604083850312156137cb57600080fd5b6136fb83613709565b634e487b7160e01b600052604160045260246000fd5b600067ffffffffffffffff80841115613805576138056137d4565b604051601f8501601f19908116603f0116810190828211818310171561382d5761382d6137d4565b8160405280935085815286868601111561384657600080fd5b858560208301376000602087830101525050509392505050565b60006020828403121561387257600080fd5b813567ffffffffffffffff81111561388957600080fd5b8201601f8101841361389a57600080fd5b61256b848235602084016137ea565b801515811461087057600080fd5b600080604083850312156138ca57600080fd5b6138d3836136c8565b915060208301356138e3816138a9565b809150509250929050565b602080825282518282018190526000919060409081850190868401855b8281101561398c5781518051855286810151878601528581015186860152606080820151908601526080808201519086015260a0808201519086015260c0808201519086015260e08082015161ffff16908601526101008082015115159086015261012090810151151590850152610140909301929085019060010161390b565b5091979650505050505050565b600080600080608085870312156139af57600080fd5b6139b8856136c8565b93506139c6602086016136c8565b925060408501359150606085013567ffffffffffffffff8111156139e957600080fd5b8501601f810187136139fa57600080fd5b613a09878235602084016137ea565b91505092959194509250565b60008060008060808587031215613a2b57600080fd5b613a34856136c8565b935060208501359250613a4960408601613709565b91506060850135613a59816138a9565b939692955090935050565b60008060408385031215613a7757600080fd5b613a80836136c8565b9150613a8e602084016136c8565b90509250929050565b600181811c90821680613aab57607f821691505b60208210811415613acc57634e487b7160e01b600052602260045260246000fd5b50919050565b634e487b7160e01b600052603260045260246000fd5b634e487b7160e01b600052601160045260246000fd5b600082821015613b1057613b10613ae8565b500390565b60008219821115613b2857613b28613ae8565b500190565b6000816000190483118215151615613b4757613b47613ae8565b500290565b634e487b7160e01b600052601260045260246000fd5b600082613b7157613b71613b4c565b500490565b600082613b8557613b85613b4c565b500690565b6000600019821415613b9e57613b9e613ae8565b5060010190565b60008351613bb7818460208801613644565b835190830190613bcb818360208801613644565b01949350505050565b600060208284031215613be657600080fd5b5051919050565b600060208284031215613bff57600080fd5b8151611899816138a9565b600067ffffffffffffffff808316818516808303821115613bcb57613bcb613ae8565b60006001600160a01b03808716835280861660208401525083604083015260806060830152613c5f6080830184613670565b9695505050505050565b600060208284031215613c7b57600080fd5b8151611899816135f956fea26469706673582212201f3ae9f3209fe2367e11e1e2056d9f6931fa1e3f0fd4c531eda1350fb2fcf6bf64736f6c63430008090033",
  "immutableReferences": {},
  "source": "// SPDX-License-Identifier: MIT\npragma solidity ^0.8.4;\n\nimport '../@openzeppelin/contracts-upgradeable/proxy/utils/Initializable.sol';\nimport '../@openzeppelin/contracts-upgradeable/token/ERC721/ERC721Upgradeable.sol';\nimport '../@openzeppelin/contracts/utils/math/SafeMath.sol';\nimport '../@openzeppelin/contracts/utils/math/SignedSafeMath.sol';\nimport '../@openzeppelin/contracts/utils/math/SafeCast.sol';\nimport '../@openzeppelin/contracts-upgradeable/security/PausableUpgradeable.sol';\nimport '../@openzeppelin/contracts-upgradeable/security/ReentrancyGuardUpgradeable.sol';\n\nimport './../PoolStakingRewards/PoolStakingRewards5.sol';\nimport './../PoolCore/Pool13.sol';\n\nimport \"hardhat/console.sol\";\n\ncontract HomeBoost2 is\n  PausableUpgradeable,\n  ReentrancyGuardUpgradeable,\n  ERC721Upgradeable\n{\n    using SafeMath for uint256;\n    using SafeMath for uint64;\n    using SafeMath for uint16;\n    // 60 * 60 * 24\n    uint256 constant SECONDS_PER_DAY = 86400;\n    uint256 constant SECONDS_PER_WEEK = SECONDS_PER_DAY * 7;\n    // use real year (365 days)\n    uint256 constant SECONDS_PER_YEAR = SECONDS_PER_DAY * 365;\n    // 90 days\n    uint256 constant LEVEL_1_SECONDS_PER_ITERATION = SECONDS_PER_DAY * 90;\n    // 1 year\n    uint256 constant LEVEL_2_SECONDS_PER_ITERATION = SECONDS_PER_YEAR;\n\n    // Stored per boost token.\n    struct Boost {\n        uint64 startTime;\n        uint64 principal;\n        uint64 claimedRewards;\n        uint64 additionalMatureSeconds; // accumulates seconds that the Boost was mature before being renewed.\n        uint16 endIteration; // 0 for never (auto-renew) or a value for the number of iterations\n        uint16 level;\n    }\n\n    // Used to get relevant details about boosts to callers into the contract (e.g. the UI)\n    // Never written to storage.\n    struct BoostDetail {\n        uint256 id;\n        uint256 startTime;\n        uint256 principal;\n        uint256 claimedRewards;\n        uint256 totalRewards;\n        uint256 apy;\n        uint256 nextRewardTimestamp;\n        uint16 level;\n        bool isComplete; // true if time has passed the end of the last iteration\n        bool isAutoRenew;\n    }\n\n    Boost[] private boostData;\n    uint256 weeklyStartTime;\n    uint256[] private weeklyInterestRates;\n\n    address poolAddress;\n    address guardianAddress;\n    address poolStakingRewardAddress;\n    mapping(address => bool) isApproved;\n    string boostBaseURI;\n\n    ///\n    /// Getters\n    ///\n    function _baseURI() internal view override returns (string memory) {\n        return boostBaseURI;\n    }\n\n    //\n    // returns startTime, principal, additionalMatureSeconds, endIteration, level\n    // use getTokenData for a more human readable version of this data\n    //\n    function getRawTokenData(uint256 tokenId) public view returns(Boost memory) {\n        return boostData[tokenId];\n    }\n\n    function getPerIterationRateForLevel(uint16 level, uint64 startTime, uint256 endTime) private view returns(uint256) {\n        if (level == 1) {\n            return 5000;\n        } else if (level == 2) {\n            return getPerIterationRateForLevel2(startTime, endTime);\n        }\n\n        return 0;\n    }\n\n    function getWeeklyInterestRate(uint256 week) public view returns(uint256) {\n      if (week >= weeklyInterestRates.length)\n        return 0;\n      return weeklyInterestRates[week];\n    }\n\n    function getPerIterationRateForLevel2(uint64 startTime, uint256 endTime) public view returns(uint256) {\n        if (weeklyInterestRates.length == 0 || startTime == endTime)\n            return 0;\n\n        require(startTime >= weeklyStartTime, \"startTime must be greater because negatives are bad\");\n        uint256 startWeekNumber = (startTime - weeklyStartTime) / SECONDS_PER_WEEK;\n        uint256 startWeekFraction =  ((startTime - weeklyStartTime) % SECONDS_PER_WEEK);\n\n        // We're at the start, so we need the time elaspsed since the start to a week ending.\n        // Mod takes it to zero if startWeekFraction is already zero. Might be better to if it.\n        startWeekFraction = (SECONDS_PER_WEEK - startWeekFraction) % SECONDS_PER_WEEK;\n\n        uint256 endWeekNumber = ((endTime - weeklyStartTime) / SECONDS_PER_WEEK);\n        uint256 endWeekNumberFraction = ((endTime - weeklyStartTime) % SECONDS_PER_WEEK);\n\n        // fracitonalSum isn't a uint. It's really interest seconds, but that's not a type here.\n        uint256 fracitonalSum = (getWeeklyInterestRate(endWeekNumber) * endWeekNumberFraction);\n\n        // We're still in the first week. All the other stuff is unnecessary.\n        // And breaks if we don't exit early.\n        if (endWeekNumber - startWeekNumber == 0)\n           return fracitonalSum / (endTime - startTime);\n\n        fracitonalSum += (getWeeklyInterestRate(startWeekNumber) * startWeekFraction);\n\n        // The first week is handled in the loop, if there's no fractional part.\n        if (startWeekFraction > 0)\n          startWeekNumber += 1;\n\n        // sum is actually interest weeks.\n        uint256 sum = 0;\n        uint256 i;\n\n        for (i = startWeekNumber; i < endWeekNumber; i++) {\n          sum += getWeeklyInterestRate(i);\n        }\n\n        // Normalize the return to interest/timespan.\n        sum = ((sum * SECONDS_PER_WEEK) + fracitonalSum) / (endTime - startTime);\n        return sum;\n    }\n\n    function getAPYForLevel(uint16 level) public view returns(uint256) {\n        if (level == 1) {\n            return 20000;\n        } else if (level == 2) {\n            if (weeklyInterestRates.length == 0)\n              return 0;\n            return weeklyInterestRates[weeklyInterestRates.length - 1];\n        }\n        return 0;\n    }\n\n    //\n    // Returns the amount of token that is sent to staking to earn BACON rewards\n    //\n    function getStakeAmount(uint16 level, uint256 rawAmount) public pure returns(uint256) {\n        if (level == 1) {\n            return rawAmount.div(2); // 50% of the rewards\n        } else if (level == 2) {\n            return rawAmount;        // 100% of the rewards\n        }\n        return 0;\n    }\n\n\n    function getSecondsPerIteration(uint16 level) private pure returns(uint256) {\n        if (level == 1) {\n            return LEVEL_1_SECONDS_PER_ITERATION;\n        } else if (level == 2) {\n            return LEVEL_2_SECONDS_PER_ITERATION;\n        }\n        return 0;\n    }\n\n    function getNextRewardTimestamp(Boost memory boost) private view returns(uint256) {\n        if (boost.endIteration == 0) {\n            uint256 nextIteration = (block.timestamp - boost.startTime).div(getSecondsPerIteration(boost.level)) + 1;\n            return boost.startTime + getSecondsPerIteration(boost.level).mul(nextIteration);\n        } else {\n            return boost.startTime + getSecondsPerIteration(boost.level).mul(boost.endIteration);\n        }\n    }\n\n    //\n    // Returns a list of token data structures, one for each token owned by the caller.\n    //\n    function getTokens() public view returns(BoostDetail[] memory)\n    {\n        uint256 ownedTokens = balanceOf(msg.sender);\n        BoostDetail[] memory details = new BoostDetail[](ownedTokens);\n        if (ownedTokens == 0) {\n            return details;\n        }\n        uint256 currentDetailIndex = 0;\n        // Index 0 is a placeholder so skip it.\n        for(uint256 currentId = 1; currentId < boostData.length; currentId++) {\n            if (!_exists(currentId) || ownerOf(currentId) != msg.sender){\n                continue;\n            }\n\n            if (currentDetailIndex == details.length){\n                break;\n            }\n\n            Boost storage currentBoost = boostData[currentId];\n            uint256 nextRewardTimestamp = getNextRewardTimestamp(currentBoost);\n            details[currentDetailIndex] = BoostDetail(\n                currentId,\n                currentBoost.startTime,\n                currentBoost.principal,\n                currentBoost.claimedRewards,\n                computeTotalRewards(currentBoost, nextRewardTimestamp),\n                getAPYForLevel(currentBoost.level),\n                nextRewardTimestamp,\n                currentBoost.level,\n                nextRewardTimestamp < block.timestamp,\n                currentBoost.endIteration == 0\n            );\n\n            currentDetailIndex++;\n        }\n\n        return details;\n    }\n\n\n    ///\n    /// Mutations\n    ///\n\n    function approveAccess(address addr) public{\n        require(msg.sender == guardianAddress, \"caller must be guardian\");\n        isApproved[addr] = true;\n    }\n\n    function revokeAccess(address addr) public{\n        require(msg.sender == guardianAddress, \"caller must be guardian\");\n        isApproved[addr] = false;\n    }\n\n    function setBoostBaseUri(string memory _boostBaseURI) public {\n        require(msg.sender == guardianAddress, \"caller must be guardian\");\n        boostBaseURI = _boostBaseURI;\n    }\n\n    function pause() public {\n        require(msg.sender == guardianAddress, \"caller must be guardian\");\n        _pause();\n    }\n\n    function unpause() public {\n        require(msg.sender == guardianAddress, \"caller must be guardian\");\n        _unpause();\n    }\n\n    // Create a boost token\n    function mint(address to, uint256 principal, uint16 level, bool autoRenew) public whenNotPaused nonReentrant returns (bool) {\n        require(isApproved[msg.sender], \"Caller must be approved\");\n\n        uint16 endIteration = autoRenew ? 0 : 1;\n\n        boostData.push(Boost(SafeCast.toUint64(block.timestamp), SafeCast.toUint64(principal), 0, 0, endIteration, level));\n        uint256 tokenId = boostData.length - 1;\n\n        _safeMint(to, tokenId);\n        \n        return true;\n    }\n\n    function beforeIterationChange(Boost storage boost) private {\n        if (getNextRewardTimestamp(boost) < block.timestamp) {\n            // Boost is mature so we have to record the number of days that it was mature so we can pay interest on them\n            uint256 boostedDuration = getSecondsPerIteration(boost.level).mul(boost.endIteration);\n            boost.additionalMatureSeconds += SafeCast.toUint64(block.timestamp - (boost.startTime + boostedDuration));\n            boost.startTime = SafeCast.toUint64(block.timestamp - boostedDuration);\n        }\n    }\n\n    // Set a boost to auto renew.\n    // if boost is already auto renew do nothing\n    // if boost is not yet mature, just set the iteration count to 0\n    // else boost is mature, stash the additionalMatureSeconds, set startTime to currentBlockTime - iterationCount*iterationDuration and set iterationCount to 0\n    function setToAutoRenew(uint256 boostId) public whenNotPaused{\n        require(ownerOf(boostId) == msg.sender, \"Not the owner\");\n        Boost storage boost = boostData[boostId];\n        if (boost.endIteration == 0) {\n            return;\n        }\n\n        beforeIterationChange(boost);\n\n        boost.endIteration = 0;\n    }\n\n    // End the auto renew on a boost. This will allow it to be claimed when the current iteration is over.\n    function endAutoRenew(uint256 boostId) public whenNotPaused {\n        require(ownerOf(boostId) == msg.sender, \"Not the owner\");\n        Boost storage boost = boostData[boostId];\n        if (boost.endIteration != 0) {\n            return;\n        }\n\n        boost.endIteration = (uint16) ((block.timestamp - boost.startTime).div(getSecondsPerIteration(boost.level)) + 1);\n    }\n\n    // claim the rewards and principal from a boost. This also burns the boost token.\n    function claimPrincipal(uint256 boostId) public whenNotPaused nonReentrant returns (uint256) {\n        require(ownerOf(boostId) == msg.sender, \"Not the owner\");\n        Boost storage boost = boostData[boostId];\n        // endAutoRenew must be called first\n        require(boost.endIteration != 0, \"Must not be autoRenew\");\n        // boost must be mature\n        uint256 nextRewardTimestamp = getNextRewardTimestamp(boost);\n        require(nextRewardTimestamp < block.timestamp, \"Still locked\");\n\n        uint256 claimedRewards = claimRewardsCore(boost, nextRewardTimestamp);\n\n        _burn(boostId);\n        // Portions of the Principal is held by the staking contract so that it can earn bacon.\n        uint256 amountStaked = getStakeAmount(boost.level, boost.principal);\n        PoolStakingRewards5(poolStakingRewardAddress).unstakeForWallet(msg.sender, amountStaked);\n\n        if (amountStaked < boost.principal) {\n            // Return the non-staked boost principal held in this contract\n            IERC20(poolAddress).transfer(msg.sender, boost.principal - amountStaked);\n        }\n\n        return boost.principal + claimedRewards;\n    }\n\n    // Allow users to unstake all HOME staked using the old staking methods.\n    function claimPreBoostStake() public whenNotPaused nonReentrant returns (uint256) {\n        uint256 ownedTokenCount = balanceOf(msg.sender);\n        uint256 stakedAmount = PoolStakingRewards5(poolStakingRewardAddress).getCurrentBalance(msg.sender);\n\n        uint boostStakedAmount = 0;\n        if (ownedTokenCount > 0) {\n            // compute the total amount staked by boosts. This is going to grow in cost as the total number of boosts\n            // grows, but the common case should be calling this once when the caller has 0 boosts.\n            uint256 currentOwnedIndex = 0;\n            // Index 0 is a placeholder so skip it.\n            for(uint256 currentId = 1; currentId < boostData.length; currentId++) {\n                if (!_exists(currentId) || ownerOf(currentId) != msg.sender){\n                    continue;\n                }\n\n                if (currentOwnedIndex == ownedTokenCount){\n                    break;\n                }\n\n                Boost storage boost = boostData[currentId];\n                boostStakedAmount = boostStakedAmount.add(getStakeAmount(boost.level, boost.principal));\n\n                currentOwnedIndex++;\n            }\n        }\n\n        //\n        uint256 amount = stakedAmount.sub(boostStakedAmount);\n\n        PoolStakingRewards5(poolStakingRewardAddress).unstakeForWallet(msg.sender, amount);\n\n        return amount;\n    }\n\n    // Claim all the rewards that can be claimed from this boost. This is only what is earned from past iterations.\n    function claimRewards(uint256 boostId) public whenNotPaused nonReentrant returns (uint256) {\n        // Claim only the rewards that have been earned so far in this boost - the rewards that have already been claimed\n        require(ownerOf(boostId) == msg.sender, \"Not the owner\");\n        Boost storage boost = boostData[boostId];\n        uint256 nextRewardTimestamp = getNextRewardTimestamp(boost);\n\n        return claimRewardsCore(boost, nextRewardTimestamp);\n    }\n\n    function computeTotalRewards(Boost storage boost, uint256 nextRewardTimestamp) private view returns (uint256) {\n        uint256 totalRewardAmount;\n        uint256 newMatureSeconds = 0;\n        // if the boost is mature, then just udpate how long we've been mature and pay those rewards\n        if (nextRewardTimestamp < block.timestamp) {\n            newMatureSeconds = block.timestamp - nextRewardTimestamp;\n            totalRewardAmount = boost.principal.mul(boost.endIteration).mul(getPerIterationRateForLevel(boost.level, boost.startTime, nextRewardTimestamp)).div(1000000);\n        } else {\n            // Otherwise the boost isn't mature. We can pay rewards up to the last full iteration\n            uint256 completeIterations = (block.timestamp - boost.startTime).div(getSecondsPerIteration(boost.level));\n            totalRewardAmount = boost.principal.mul(completeIterations).mul(getPerIterationRateForLevel(boost.level, boost.startTime, block.timestamp)).div(1000000);\n        }\n        totalRewardAmount += boost.principal.mul(boost.additionalMatureSeconds + newMatureSeconds).div(SECONDS_PER_YEAR).div(100);\n        return totalRewardAmount;\n    }\n\n    function claimRewardsCore(Boost storage boost, uint256 nextRewardTimestamp) private returns (uint256) {\n        uint256 totalRewardAmount = computeTotalRewards(boost, nextRewardTimestamp);\n        // subtract out the rewards that we have already paid\n        uint256 rewardAmount = totalRewardAmount.sub(boost.claimedRewards);\n        boost.claimedRewards = SafeCast.toUint64(totalRewardAmount);\n\n        // pay the rewards if there are any\n        if (rewardAmount > 0) {\n            Pool13(poolAddress).transferBoostRewards(msg.sender, rewardAmount);\n        }\n\n        return rewardAmount;\n    }\n\n    function appendInterestRate(uint256 newRate) public {\n        require(msg.sender == guardianAddress, \"caller must be guardian\");\n        weeklyInterestRates.push(newRate);\n    }\n\n    function setWeeklyStartTime(uint256 _weeklyStartTime) public {\n        require(msg.sender == guardianAddress, \"caller must be guardian\");\n        weeklyStartTime = _weeklyStartTime;\n    }\n\n    ///\n    /// overrides\n    ///\n\n    function _beforeTokenTransfer(\n        address from,\n        address to,\n        uint256 tokenId\n    ) internal override {\n        // Ignore mint and burn\n        if (from == address(0) || to == address(0)) {\n            return;\n        }\n\n        Boost memory boost = boostData[tokenId];\n\n        uint256 stake = getStakeAmount(boost.level, boost.principal);\n\n        PoolStakingRewards5(poolStakingRewardAddress).transferStake(stake, from, to);\n    }\n}\n",
  "sourcePath": "/src/contracts/HomeBoost/HomeBoost2.sol",
  "compiler": {
    "name": "solc",
    "version": "0.8.9+commit.e5eed63a.Emscripten.clang"
  },
  "schemaVersion": "3.4.7",
  "updatedAt": "2022-08-27T16:35:12.489Z",
  "devdoc": {
    "kind": "dev",
    "methods": {
      "approve(address,uint256)": {
        "details": "See {IERC721-approve}."
      },
      "balanceOf(address)": {
        "details": "See {IERC721-balanceOf}."
      },
      "getApproved(uint256)": {
        "details": "See {IERC721-getApproved}."
      },
      "isApprovedForAll(address,address)": {
        "details": "See {IERC721-isApprovedForAll}."
      },
      "name()": {
        "details": "See {IERC721Metadata-name}."
      },
      "ownerOf(uint256)": {
        "details": "See {IERC721-ownerOf}."
      },
      "paused()": {
        "details": "Returns true if the contract is paused, and false otherwise."
      },
      "safeTransferFrom(address,address,uint256)": {
        "details": "See {IERC721-safeTransferFrom}."
      },
      "safeTransferFrom(address,address,uint256,bytes)": {
        "details": "See {IERC721-safeTransferFrom}."
      },
      "setApprovalForAll(address,bool)": {
        "details": "See {IERC721-setApprovalForAll}."
      },
      "supportsInterface(bytes4)": {
        "details": "See {IERC165-supportsInterface}."
      },
      "symbol()": {
        "details": "See {IERC721Metadata-symbol}."
      },
      "tokenURI(uint256)": {
        "details": "See {IERC721Metadata-tokenURI}."
      },
      "transferFrom(address,address,uint256)": {
        "details": "See {IERC721-transferFrom}."
      }
    },
    "version": 1
  },
  "userdoc": {
    "kind": "user",
    "methods": {
      "approveAccess(address)": {
        "notice": " Mutations"
      }
    },
    "version": 1
  }
}