{
  "abi": [
    {
      "anonymous": false,
      "inputs": [
        {
          "indexed": true,
          "internalType": "address",
          "name": "user",
          "type": "address"
        },
        {
          "indexed": true,
          "internalType": "uint128",
          "name": "epochId",
          "type": "uint128"
        },
        {
          "indexed": false,
          "internalType": "uint256",
          "name": "amount",
          "type": "uint256"
        }
      ],
      "name": "Harvest",
      "type": "event"
    },
    {
      "anonymous": false,
      "inputs": [
        {
          "indexed": true,
          "internalType": "address",
          "name": "user",
          "type": "address"
        },
        {
          "indexed": false,
          "internalType": "uint256",
          "name": "epochsHarvested",
          "type": "uint256"
        },
        {
          "indexed": false,
          "internalType": "uint256",
          "name": "totalValue",
          "type": "uint256"
        }
      ],
      "name": "MassHarvest",
      "type": "event"
    },
    {
      "anonymous": false,
      "inputs": [
        {
          "indexed": false,
          "internalType": "address",
          "name": "account",
          "type": "address"
        }
      ],
      "name": "Paused",
      "type": "event"
    },
    {
      "anonymous": false,
      "inputs": [
        {
          "indexed": false,
          "internalType": "address",
          "name": "account",
          "type": "address"
        }
      ],
      "name": "Unpaused",
      "type": "event"
    },
    {
      "inputs": [
        {
          "internalType": "address",
          "name": "",
          "type": "address"
        }
      ],
      "name": "lastInitializedEpoch",
      "outputs": [
        {
          "internalType": "uint128",
          "name": "",
          "type": "uint128"
        }
      ],
      "stateMutability": "view",
      "type": "function"
    },
    {
      "inputs": [],
      "name": "paused",
      "outputs": [
        {
          "internalType": "bool",
          "name": "",
          "type": "bool"
        }
      ],
      "stateMutability": "view",
      "type": "function"
    },
    {
      "inputs": [
        {
          "internalType": "address",
          "name": "_guardianAddress",
          "type": "address"
        },
        {
          "internalType": "address",
          "name": "_poolStakingRewards",
          "type": "address"
        },
        {
          "internalType": "address",
          "name": "_staking",
          "type": "address"
        },
        {
          "internalType": "uint256",
          "name": "_numberOfEpochs",
          "type": "uint256"
        }
      ],
      "name": "initialize",
      "outputs": [],
      "stateMutability": "nonpayable",
      "type": "function"
    },
    {
      "inputs": [
        {
          "internalType": "address",
          "name": "poolAddress",
          "type": "address"
        },
        {
          "internalType": "uint256",
          "name": "amountPerEpoch",
          "type": "uint256"
        }
      ],
      "name": "approvePool",
      "outputs": [],
      "stateMutability": "nonpayable",
      "type": "function"
    },
    {
      "inputs": [
        {
          "internalType": "address",
          "name": "poolAddress",
          "type": "address"
        },
        {
          "internalType": "uint128",
          "name": "startEpoch",
          "type": "uint128"
        },
        {
          "internalType": "uint128",
          "name": "endEpoch",
          "type": "uint128"
        }
      ],
      "name": "initializePoolEpochs",
      "outputs": [],
      "stateMutability": "nonpayable",
      "type": "function"
    },
    {
      "inputs": [
        {
          "internalType": "address",
          "name": "poolAddress",
          "type": "address"
        }
      ],
      "name": "revokePool",
      "outputs": [],
      "stateMutability": "nonpayable",
      "type": "function"
    },
    {
      "inputs": [
        {
          "internalType": "address",
          "name": "pool",
          "type": "address"
        },
        {
          "internalType": "uint256",
          "name": "amount",
          "type": "uint256"
        }
      ],
      "name": "stake",
      "outputs": [
        {
          "internalType": "bool",
          "name": "",
          "type": "bool"
        }
      ],
      "stateMutability": "nonpayable",
      "type": "function"
    },
    {
      "inputs": [
        {
          "internalType": "address",
          "name": "pool",
          "type": "address"
        },
        {
          "internalType": "uint256",
          "name": "amount",
          "type": "uint256"
        }
      ],
      "name": "unstake",
      "outputs": [],
      "stateMutability": "nonpayable",
      "type": "function"
    },
    {
      "inputs": [
        {
          "internalType": "address",
          "name": "pool",
          "type": "address"
        },
        {
          "internalType": "address",
          "name": "wallet",
          "type": "address"
        }
      ],
      "name": "massHarvest",
      "outputs": [
        {
          "internalType": "uint256",
          "name": "",
          "type": "uint256"
        }
      ],
      "stateMutability": "nonpayable",
      "type": "function"
    },
    {
      "inputs": [
        {
          "internalType": "address",
          "name": "pool",
          "type": "address"
        },
        {
          "internalType": "address",
          "name": "wallet",
          "type": "address"
        },
        {
          "internalType": "uint128",
          "name": "epochId",
          "type": "uint128"
        }
      ],
      "name": "harvest",
      "outputs": [
        {
          "internalType": "uint256",
          "name": "",
          "type": "uint256"
        }
      ],
      "stateMutability": "nonpayable",
      "type": "function"
    },
    {
      "inputs": [],
      "name": "getTotalEpochs",
      "outputs": [
        {
          "internalType": "uint256",
          "name": "",
          "type": "uint256"
        }
      ],
      "stateMutability": "view",
      "type": "function"
    },
    {
      "inputs": [
        {
          "internalType": "address",
          "name": "pool",
          "type": "address"
        },
        {
          "internalType": "uint128",
          "name": "epochId",
          "type": "uint128"
        }
      ],
      "name": "getPoolSize",
      "outputs": [
        {
          "internalType": "uint256",
          "name": "",
          "type": "uint256"
        }
      ],
      "stateMutability": "view",
      "type": "function"
    },
    {
      "inputs": [],
      "name": "getCurrentEpoch",
      "outputs": [
        {
          "internalType": "uint128",
          "name": "",
          "type": "uint128"
        }
      ],
      "stateMutability": "view",
      "type": "function"
    },
    {
      "inputs": [
        {
          "internalType": "address",
          "name": "pool",
          "type": "address"
        },
        {
          "internalType": "address",
          "name": "userAddress",
          "type": "address"
        },
        {
          "internalType": "uint128",
          "name": "epochId",
          "type": "uint128"
        }
      ],
      "name": "getEpochStake",
      "outputs": [
        {
          "internalType": "uint256",
          "name": "",
          "type": "uint256"
        }
      ],
      "stateMutability": "view",
      "type": "function"
    },
    {
      "inputs": [
        {
          "internalType": "address",
          "name": "pool",
          "type": "address"
        },
        {
          "internalType": "address",
          "name": "userAddress",
          "type": "address"
        }
      ],
      "name": "getCurrentEpochStake",
      "outputs": [
        {
          "internalType": "uint256",
          "name": "",
          "type": "uint256"
        }
      ],
      "stateMutability": "view",
      "type": "function"
    },
    {
      "inputs": [
        {
          "internalType": "address",
          "name": "userAddress",
          "type": "address"
        },
        {
          "internalType": "address",
          "name": "pool",
          "type": "address"
        }
      ],
      "name": "getCurrentBalance",
      "outputs": [
        {
          "internalType": "uint256",
          "name": "",
          "type": "uint256"
        }
      ],
      "stateMutability": "view",
      "type": "function"
    },
    {
      "inputs": [],
      "name": "userLastEpochIdHarvested",
      "outputs": [
        {
          "internalType": "uint256",
          "name": "",
          "type": "uint256"
        }
      ],
      "stateMutability": "view",
      "type": "function"
    },
    {
      "inputs": [],
      "name": "pause",
      "outputs": [],
      "stateMutability": "nonpayable",
      "type": "function"
    },
    {
      "inputs": [],
      "name": "unpause",
      "outputs": [],
      "stateMutability": "nonpayable",
      "type": "function"
    }
  ],
  "bytecode": "0x608060405234801561001057600080fd5b50611c56806100206000396000f3fe608060405234801561001057600080fd5b50600436106101515760003560e01c80638456cb59116100cd578063bc90afbb11610081578063cddf2c6e11610066578063cddf2c6e146102ac578063cf756fdf146102bf578063d28673af146102d257600080fd5b8063bc90afbb14610286578063c2a672e01461029957600080fd5b8063a1c130d4116100b2578063a1c130d41461024d578063adc9772e1461026b578063b97dd9e21461027e57600080fd5b80638456cb59146102325780638e86aa501461023a57600080fd5b80633f4ba83a11610124578063540d7c6611610109578063540d7c66146101f55780635c975abb146102085780636ae3e75b1461021f57600080fd5b80633f4ba83a146101e55780634cb0482f146101ed57600080fd5b8063041b7a06146101565780632f54e2d21461017c5780633b6b25cc146101915780633e6322d9146101d2575b600080fd5b6101696101643660046118b8565b6102e5565b6040519081526020015b60405180910390f35b61018f61018a366004611903565b61038c565b005b6101ba61019f36600461194c565b609c602052600090815260409020546001600160801b031681565b6040516001600160801b039091168152602001610173565b6101696101e0366004611967565b6104b6565b61018f61084e565b609e54610169565b610169610203366004611967565b6108b2565b60335460ff165b6040519015158152602001610173565b61018f61022d36600461194c565b610968565b61018f6109dc565b610169610248366004611993565b610a3e565b336000908152609d60205260409020546001600160801b0316610169565b61020f6102793660046119ca565b610a99565b6101ba610ced565b6101696102943660046118b8565b610d88565b61018f6102a73660046119ca565b610e01565b61018f6102ba3660046119ca565b610f9e565b61018f6102cd3660046119f4565b611095565b6101696102e03660046118b8565b6111f4565b6098546040517ff7888aec0000000000000000000000000000000000000000000000000000000081526001600160a01b0384811660048301528381166024830152600092169063f7888aec906044015b60206040518083038186803b15801561034d57600080fd5b505afa158015610361573d6000803e3d6000fd5b505050506040513d601f19601f820116820180604052508101906103859190611a3f565b9392505050565b609a546001600160a01b031633146103a357600080fd5b6040805160018082528183019092526000916020808301908036833701905050905083816000815181106103d9576103d9611a6e565b6001600160a01b0392831660209182029290920101526098546040517feb959c0d00000000000000000000000000000000000000000000000000000000815291169063eb959c0d9061043390849087908790600401611a84565b600060405180830381600087803b15801561044d57600080fd5b505af1158015610461573d6000803e3d6000fd5b505050506001600160801b03831661047857600192505b825b826001600160801b0316816001600160801b0316116104af5761049d85826114b5565b806104a781611b01565b91505061047a565b5050505050565b60006104c460335460ff1690565b156105095760405162461bcd60e51b815260206004820152601060248201526f14185d5cd8589b194e881c185d5cd95960821b60448201526064015b60405180910390fd5b6002606554141561055c5760405162461bcd60e51b815260206004820152601f60248201527f5265656e7472616e637947756172643a207265656e7472616e742063616c6c006044820152606401610500565b60026065556001600160a01b0384166000908152609960205260409020546105d25760405162461bcd60e51b8152602060048201526024808201527f4f757473696465506f6f6c3a206d75737420626520617070726f766564207365604482015263373232b960e11b6064820152608401610500565b816001600160801b03166105e4610ced565b6001600160801b0316116106605760405162461bcd60e51b815260206004820152602860248201527f4f757473696465506f6f6c3a20546869732065706f636820697320696e20746860448201527f65206675747572650000000000000000000000000000000000000000000000006064820152608401610500565b609e54826001600160801b031611156106e15760405162461bcd60e51b815260206004820152602d60248201527f4f757473696465506f6f6c3a204d6178696d756d206e756d626572206f66206560448201527f706f6368732069732032303030000000000000000000000000000000000000006064820152608401610500565b6001600160a01b0383166000908152609d60205260409020546001600160801b0380841691610712911660016115ef565b1461075f5760405162461bcd60e51b815260206004820152601d60248201527f4f757473696465506f6f6c3a204861727665737420696e206f726465720000006044820152606401610500565b600061076c8585856115fb565b905080156107f4576097546040517f2e4124980000000000000000000000000000000000000000000000000000000081526001600160a01b0386811660048301526024820184905290911690632e41249890604401600060405180830381600087803b1580156107db57600080fd5b505af11580156107ef573d6000803e3d6000fd5b505050505b826001600160801b0316846001600160a01b03167f04ad45a69eeed9c390c3a678fed2d4b90bde98e742de9936d5e0915bf3d0ea4e8360405161083991815260200190565b60405180910390a36001606555949350505050565b609a546001600160a01b031633146108a85760405162461bcd60e51b815260206004820152601760248201527f63616c6c6572206d75737420626520677561726469616e0000000000000000006044820152606401610500565b6108b0611701565b565b6098546040517f8c028dd00000000000000000000000000000000000000000000000000000000081526001600160a01b03848116600483015285811660248301526001600160801b03841660448301526000921690638c028dd09060640160206040518083038186803b15801561092857600080fd5b505afa15801561093c573d6000803e3d6000fd5b505050506040513d601f19601f820116820180604052508101906109609190611a3f565b949350505050565b609a546001600160a01b031633146109c25760405162461bcd60e51b815260206004820152601e60248201527f4f757473696465506f6f6c3a20756e617070726f7665642073656e64657200006044820152606401610500565b6001600160a01b0316600090815260996020526040812055565b609a546001600160a01b03163314610a365760405162461bcd60e51b815260206004820152601760248201527f63616c6c6572206d75737420626520677561726469616e0000000000000000006044820152606401610500565b6108b061179d565b6098546040517f2ca32d7e0000000000000000000000000000000000000000000000000000000081526001600160a01b0384811660048301526001600160801b03841660248301526000921690632ca32d7e90604401610335565b6000610aa760335460ff1690565b15610ae75760405162461bcd60e51b815260206004820152601060248201526f14185d5cd8589b194e881c185d5cd95960821b6044820152606401610500565b60026065541415610b3a5760405162461bcd60e51b815260206004820152601f60248201527f5265656e7472616e637947756172643a207265656e7472616e742063616c6c006044820152606401610500565b60026065556001600160a01b038316600090815260996020526040902054610bb05760405162461bcd60e51b8152602060048201526024808201527f4f757473696465506f6f6c3a206d75737420626520617070726f766564207365604482015263373232b960e11b6064820152608401610500565b6098546040517f23b872dd0000000000000000000000000000000000000000000000000000000081523360048201526001600160a01b0391821660248201526044810184905284918216906323b872dd90606401602060405180830381600087803b158015610c1e57600080fd5b505af1158015610c32573d6000803e3d6000fd5b505050506040513d601f19601f82011682018060405250810190610c569190611b28565b506098546040517f8340f5490000000000000000000000000000000000000000000000000000000081526001600160a01b0386811660048301523360248301526044820186905290911690638340f54990606401600060405180830381600087803b158015610cc457600080fd5b505af1158015610cd8573d6000803e3d6000fd5b5050505060019150505b600160655592915050565b609854604080517fb97dd9e200000000000000000000000000000000000000000000000000000000815290516000926001600160a01b03169163b97dd9e2916004808301926020929190829003018186803b158015610d4b57600080fd5b505afa158015610d5f573d6000803e3d6000fd5b505050506040513d601f19601f82011682018060405250810190610d839190611b4a565b905090565b6098546000906001600160a01b0316638c028dd08385610da6610ced565b6040517fffffffff0000000000000000000000000000000000000000000000000000000060e086901b1681526001600160a01b0393841660048201529290911660248301526001600160801b03166044820152606401610335565b60335460ff1615610e475760405162461bcd60e51b815260206004820152601060248201526f14185d5cd8589b194e881c185d5cd95960821b6044820152606401610500565b60026065541415610e9a5760405162461bcd60e51b815260206004820152601f60248201527f5265656e7472616e637947756172643a207265656e7472616e742063616c6c006044820152606401610500565b60026065556001600160a01b038216600090815260996020526040902054610f105760405162461bcd60e51b8152602060048201526024808201527f4f757473696465506f6f6c3a206d75737420626520617070726f766564207365604482015263373232b960e11b6064820152608401610500565b6098546040517fd9caed120000000000000000000000000000000000000000000000000000000081526001600160a01b038481166004830152336024830152604482018490529091169063d9caed1290606401600060405180830381600087803b158015610f7d57600080fd5b505af1158015610f91573d6000803e3d6000fd5b5050600160655550505050565b609a546001600160a01b03163314610ff85760405162461bcd60e51b815260206004820152601e60248201527f4f757473696465506f6f6c3a20756e617070726f7665642073656e64657200006044820152606401610500565b6001600160a01b0382166000908152609960205260409020819055609e54611021906001611b67565b67ffffffffffffffff81111561103957611039611a58565b604051908082528060200260200182016040528015611062578160200160208202803683370190505b506001600160a01b0383166000908152609b602090815260409091208251611090939192919091019061183c565b505050565b600054610100900460ff166110b05760005460ff16156110b4565b303b155b6111265760405162461bcd60e51b815260206004820152602e60248201527f496e697469616c697a61626c653a20636f6e747261637420697320616c72656160448201527f647920696e697469616c697a65640000000000000000000000000000000000006064820152608401610500565b600054610100900460ff1615801561116557600080547fffffffffffffffffffffffffffffffffffffffffffffffffffffffffffff0000166101011790555b609a80546001600160a01b038088167fffffffffffffffffffffffff000000000000000000000000000000000000000092831617909255609780548784169083161790556098805492861692909116919091179055609e82905580156104af57600080547fffffffffffffffffffffffffffffffffffffffffffffffffffffffffffff00ff1690555050505050565b600061120260335460ff1690565b156112425760405162461bcd60e51b815260206004820152601060248201526f14185d5cd8589b194e881c185d5cd95960821b6044820152606401610500565b600260655414156112955760405162461bcd60e51b815260206004820152601f60248201527f5265656e7472616e637947756172643a207265656e7472616e742063616c6c006044820152606401610500565b60026065556001600160a01b03831660009081526099602052604090205461130b5760405162461bcd60e51b8152602060048201526024808201527f4f757473696465506f6f6c3a206d75737420626520617070726f766564207365604482015263373232b960e11b6064820152608401610500565b600080611316610ced565b6001600160801b031690508061133157600092505050610ce2565b61133c816001611818565b9050609e5481111561134d5750609e545b6001600160a01b0384166000908152609d602052604081205461137a906001600160801b03166001611b7f565b90505b81816001600160801b0316116113bc57600061139a8787846115fb565b90506113a68185611b67565b93505080806113b490611b01565b91505061137d565b506001600160a01b0384166000818152609d60205260409020547fb68dafc1da13dc868096d0b87347c831d0bda92d178317eb1dec7f788444485c9061140b906001600160801b031684611baa565b60408051918252602082018690520160405180910390a281156114a8576097546040517f2e4124980000000000000000000000000000000000000000000000000000000081526001600160a01b0386811660048301526024820185905290911690632e41249890604401600060405180830381600087803b15801561148f57600080fd5b505af11580156114a3573d6000803e3d6000fd5b505050505b5060016065559392505050565b6001600160a01b0382166000908152609c60205260409020546001600160801b03808316916114e6911660016115ef565b146115595760405162461bcd60e51b815260206004820152602c60248201527f4f757473696465506f6f6c3a2045706f63682063616e20626520696e6974206f60448201527f6e6c7920696e206f7264657200000000000000000000000000000000000000006064820152608401610500565b6001600160a01b0382166000908152609c6020526040902080547fffffffffffffffffffffffffffffffff00000000000000000000000000000000166001600160801b0383161790556115ac8282610a3e565b6001600160a01b0383166000908152609b6020526040902080546001600160801b0384169081106115df576115df611a6e565b6000918252602090912001555050565b60006103858284611b67565b6001600160a01b0383166000908152609c60205260408120546001600160801b03808416911610156116315761163184836114b5565b6001600160a01b038381166000908152609d6020908152604080832080547fffffffffffffffffffffffffffffffff00000000000000000000000000000000166001600160801b0388169081179091559388168352609b909152812080549192909181106116a1576116a1611a6e565b9060005260206000200154905080600014156116c1576000915050610385565b6116f8816116f26116d38888886108b2565b6001600160a01b03891660009081526099602052604090205490611824565b90611830565b95945050505050565b60335460ff166117535760405162461bcd60e51b815260206004820152601460248201527f5061757361626c653a206e6f74207061757365640000000000000000000000006044820152606401610500565b6033805460ff191690557f5db9ee0a495bf2e6ff9c91a7834c1ba4fdd244a5e8aa4e537bd38aeae4b073aa335b6040516001600160a01b03909116815260200160405180910390a1565b60335460ff16156117e35760405162461bcd60e51b815260206004820152601060248201526f14185d5cd8589b194e881c185d5cd95960821b6044820152606401610500565b6033805460ff191660011790557f62e78cea01bee320cd4e420270b5ea74000d11b0c9f74754ebdbfc544b05a2586117803390565b60006103858284611baa565b60006103858284611bc1565b60006103858284611bfe565b828054828255906000526020600020908101928215611877579160200282015b8281111561187757825182559160200191906001019061185c565b50611883929150611887565b5090565b5b808211156118835760008155600101611888565b80356001600160a01b03811681146118b357600080fd5b919050565b600080604083850312156118cb57600080fd5b6118d48361189c565b91506118e26020840161189c565b90509250929050565b6001600160801b038116811461190057600080fd5b50565b60008060006060848603121561191857600080fd5b6119218461189c565b92506020840135611931816118eb565b91506040840135611941816118eb565b809150509250925092565b60006020828403121561195e57600080fd5b6103858261189c565b60008060006060848603121561197c57600080fd5b6119858461189c565b92506119316020850161189c565b600080604083850312156119a657600080fd5b6119af8361189c565b915060208301356119bf816118eb565b809150509250929050565b600080604083850312156119dd57600080fd5b6119e68361189c565b946020939093013593505050565b60008060008060808587031215611a0a57600080fd5b611a138561189c565b9350611a216020860161189c565b9250611a2f6040860161189c565b9396929550929360600135925050565b600060208284031215611a5157600080fd5b5051919050565b634e487b7160e01b600052604160045260246000fd5b634e487b7160e01b600052603260045260246000fd5b606080825284519082018190526000906020906080840190828801845b82811015611ac65781516001600160a01b031684529284019290840190600101611aa1565b5050506001600160801b03958616918401919091529290931660409091015292915050565b634e487b7160e01b600052601160045260246000fd5b60006001600160801b0380831681811415611b1e57611b1e611aeb565b6001019392505050565b600060208284031215611b3a57600080fd5b8151801515811461038557600080fd5b600060208284031215611b5c57600080fd5b8151610385816118eb565b60008219821115611b7a57611b7a611aeb565b500190565b60006001600160801b03808316818516808303821115611ba157611ba1611aeb565b01949350505050565b600082821015611bbc57611bbc611aeb565b500390565b6000817fffffffffffffffffffffffffffffffffffffffffffffffffffffffffffffffff0483118215151615611bf957611bf9611aeb565b500290565b600082611c1b57634e487b7160e01b600052601260045260246000fd5b50049056fea2646970667358221220f3b32cf518900d90ed3f4ed47faaf51eccc7d3a6c51c0eb47c7856c26237514564736f6c63430008090033",
  "compiler": {
    "name": "solc",
    "version": "0.8.9+commit.e5eed63a.Emscripten.clang"
  },
  "contractName": "OutsidePool0",
  "devdoc": {
    "kind": "dev",
    "methods": {
      "paused()": {
        "details": "Returns true if the contract is paused, and false otherwise."
      }
    },
    "version": 1
  },
  "immutableReferences": {},
  "schemaVersion": "3.4.7",
  "source": "// SPDX-License-Identifier: Apache-2.0\n\n// Changes:\n// 1. Separated the bond token address from the pool token address so that the pool can hold bHome and reward Bacon.\n//    Though I suppose this makes it not a very good bond...\n\npragma solidity ^0.8.4;\n\nimport \"./../@openzeppelin/contracts/token/ERC20/IERC20.sol\";\nimport './../@openzeppelin/contracts/utils/math/SafeMath.sol';\nimport \"./../@openzeppelin/contracts-upgradeable/proxy/utils/Initializable.sol\";\nimport './../@openzeppelin/contracts-upgradeable/security/ReentrancyGuardUpgradeable.sol';\nimport './../@openzeppelin/contracts-upgradeable/security/PausableUpgradeable.sol';\nimport \"./../PoolStakingRewards/PoolStakingRewards6.sol\";\nimport \"./../Staking/Staking4.sol\";\n\n\n// import \"hardhat/console.sol\";\n\n\ncontract OutsidePool0 is Initializable, PausableUpgradeable, ReentrancyGuardUpgradeable {\n\n    // lib\n    using SafeMath for uint256;\n    using SafeMath for uint128;\n    using SafeMath for uint64;\n    using SafeMath for uint16;\n\n\n    // contracts\n    PoolStakingRewards6 private poolStakingRewards;\n    address private staking;\n    mapping(address => uint) approvedPools;\n    address guardianAddress;\n\n\n    mapping(address => uint[]) private epochs;\n    mapping(address => uint128) public lastInitializedEpoch;\n    mapping(address => uint128) private lastEpochIdHarvested;\n    uint private numberOfEpochs;\n\n    // events\n    event MassHarvest(address indexed user, uint256 epochsHarvested, uint256 totalValue);\n    event Harvest(address indexed user, uint128 indexed epochId, uint256 amount);\n\n\n    function initialize(address _guardianAddress, address _poolStakingRewards, address _staking, uint _numberOfEpochs) public initializer {\n        guardianAddress = _guardianAddress;\n        poolStakingRewards = PoolStakingRewards6(_poolStakingRewards);\n        staking = _staking;\n        numberOfEpochs = _numberOfEpochs;\n    }\n\n    function approvePool(address poolAddress, uint amountPerEpoch) public {\n        require(msg.sender == guardianAddress, \"OutsidePool: unapproved sender\");\n        approvedPools[poolAddress] = amountPerEpoch;\n        epochs[poolAddress] = new uint[](numberOfEpochs + 1);\n    }\n\n    function initializePoolEpochs(address poolAddress, uint128 startEpoch, uint128 endEpoch) public {\n        require(msg.sender == guardianAddress);\n        address[] memory tokens = new address[](1);\n        tokens[0] = poolAddress;\n        Staking4(staking).manualBatchEpochInit(tokens, startEpoch, endEpoch);\n        // Skip init of the first rewards epoch because it doesn't work (and isn't needed)\n        if (startEpoch == 0) {\n            startEpoch = 1;\n        }\n        for (uint128 i = startEpoch; i <= endEpoch; i++) {\n          _initEpoch(poolAddress, i);\n        }\n    }\n\n    function revokePool(address poolAddress) public {\n        require(msg.sender == guardianAddress, \"OutsidePool: unapproved sender\");\n        approvedPools[poolAddress] = 0;\n    }\n\n    function stake(address pool, uint256 amount) public whenNotPaused nonReentrant returns (bool) {\n        require(approvedPools[pool] > 0, \"OutsidePool: must be approved sender\");\n        IERC20 token = IERC20(pool);\n        token.transferFrom(msg.sender, staking, amount);\n\n        Staking4(staking).deposit(pool, msg.sender, amount);\n        return true;\n    }\n\n    function unstake(address pool, uint256 amount) public whenNotPaused nonReentrant {\n        require(approvedPools[pool] > 0, \"OutsidePool: must be approved sender\");\n        Staking4(staking).withdraw(pool, msg.sender, amount);\n    }\n\n    function massHarvest(address pool, address wallet) external whenNotPaused nonReentrant returns (uint){\n        require(approvedPools[pool] > 0, \"OutsidePool: must be approved sender\");\n        uint totalDistributedValue = 0;\n\n        //added so it doesn't fail on first epoch\n        uint epochId = getCurrentEpoch();\n        if(epochId == 0){\n            return 0;\n        }\n        \n        epochId = epochId.sub(1); // fails in epoch 0\n        // force max number of epochs\n        if (epochId > numberOfEpochs) {\n            epochId = numberOfEpochs;\n        }\n\n        for (uint128 i = lastEpochIdHarvested[wallet] + 1; i <= epochId; i++) {\n            // i = epochId\n            // compute distributed Value and do one single transfer at the end\n            uint harvested = _harvest(pool, wallet, i);\n            totalDistributedValue += harvested;\n        }\n\n        emit MassHarvest(wallet, epochId - lastEpochIdHarvested[wallet], totalDistributedValue);\n\n        if (totalDistributedValue > 0) {\n            poolStakingRewards.subMint(wallet, totalDistributedValue);\n        }\n\n        return totalDistributedValue;\n    }\n\n    function harvest (address pool, address wallet, uint128 epochId) external whenNotPaused nonReentrant returns (uint){\n        // Defer to PoolStakingRewards\n        require(approvedPools[pool] > 0, \"OutsidePool: must be approved sender\");\n        // checks for requested epoch\n        require (getCurrentEpoch() > epochId, \"OutsidePool: This epoch is in the future\");\n        require(epochId <= numberOfEpochs, \"OutsidePool: Maximum number of epochs is 2000\");\n        require (lastEpochIdHarvested[wallet].add(1) == epochId, \"OutsidePool: Harvest in order\");\n        uint userReward = _harvest(pool, wallet, epochId);\n        if (userReward > 0) {\n             poolStakingRewards.subMint(wallet, userReward);\n        }\n        emit Harvest(wallet, epochId, userReward);\n        return userReward;\n    }\n\n    // views\n    function getTotalEpochs() external view returns (uint) {\n        return numberOfEpochs;\n    }\n\n    // calls to the staking smart contract to retrieve the epoch total pool size\n    function getPoolSize(address pool, uint128 epochId) public view returns (uint) {\n        return Staking4(staking).getEpochPoolSize(pool, epochId);\n    }\n\n    function getCurrentEpoch() public view returns (uint128) {\n        return Staking4(staking).getCurrentEpoch();\n    }\n\n    // calls to the staking smart contract to retrieve user balance for an epoch\n    function getEpochStake(address pool, address userAddress, uint128 epochId) public view returns (uint) {\n        return Staking4(staking).getEpochUserBalance(userAddress, pool, epochId);\n    }\n\n    function getCurrentEpochStake(address pool, address userAddress) public view returns (uint) {\n        return Staking4(staking).getEpochUserBalance(userAddress, pool, getCurrentEpoch());\n    }\n\n    function getCurrentBalance(address userAddress, address pool) external view returns (uint) {\n        return Staking4(staking).balanceOf(userAddress, pool);\n    }\n\n    function userLastEpochIdHarvested() external view returns (uint){\n        return lastEpochIdHarvested[msg.sender];\n    }\n\n    // internal methods\n    function _initEpoch(address pool, uint128 epochId) internal {\n        require(lastInitializedEpoch[pool].add(1) == epochId, \"OutsidePool: Epoch can be init only in order\");\n        lastInitializedEpoch[pool] = epochId;\n        // call the staking smart contract to init the epoch\n        epochs[pool][epochId] = getPoolSize(pool, epochId);\n    }\n\n    function _harvest(address pool, address wallet, uint128 epochId) internal returns (uint) {\n        // try to initialize an epoch. if it can't it fails\n        // if it fails either user either a BarnBridge account will init not init epochs\n        if (lastInitializedEpoch[pool] < epochId) {\n            _initEpoch(pool, epochId);\n        }\n        lastEpochIdHarvested[wallet] = epochId;\n\n        // exit if there is no stake on the epoch\n        uint epoch = epochs[pool][epochId];\n        if (epoch == 0) {\n            return 0;\n        }\n\n        return approvedPools[pool]\n        .mul(getEpochStake(pool, wallet, epochId))\n        .div(epoch);\n    }\n\n    function pause() public {\n        require(msg.sender == guardianAddress, \"caller must be guardian\");\n        _pause();\n    }\n\n    function unpause() public {\n        require(msg.sender == guardianAddress, \"caller must be guardian\");\n        _unpause();\n    }\n}\n",
  "sourcePath": "/src/contracts/OutsidePool/OutsidePool0.sol",
  "updatedAt": "2022-11-15T18:13:44.220Z",
  "userdoc": {
    "kind": "user",
    "methods": {},
    "version": 1
  }
}