{
  "contractName": "PoolStaking0",
  "abi": [
    {
      "inputs": [
        {
          "internalType": "address",
          "name": "_poolAddress",
          "type": "address"
        },
        {
          "internalType": "address",
          "name": "_guardianAddress",
          "type": "address"
        },
        {
          "internalType": "uint256",
          "name": "startingBlock",
          "type": "uint256"
        },
        {
          "internalType": "uint256",
          "name": "_stakeAfterBlock",
          "type": "uint256"
        },
        {
          "internalType": "uint256",
          "name": "_oneYearBlock",
          "type": "uint256"
        }
      ],
      "name": "initialize",
      "outputs": [],
      "stateMutability": "nonpayable",
      "type": "function"
    },
    {
      "inputs": [
        {
          "internalType": "uint256",
          "name": "_oneYearBlock",
          "type": "uint256"
        }
      ],
      "name": "setOneYearBlock",
      "outputs": [],
      "stateMutability": "nonpayable",
      "type": "function"
    },
    {
      "inputs": [
        {
          "internalType": "uint256",
          "name": "_stakeAfterBlock",
          "type": "uint256"
        }
      ],
      "name": "setstakeAfterBlock",
      "outputs": [],
      "stateMutability": "nonpayable",
      "type": "function"
    },
    {
      "inputs": [
        {
          "internalType": "address",
          "name": "_baconCoinAddress",
          "type": "address"
        }
      ],
      "name": "setBaconAddress",
      "outputs": [],
      "stateMutability": "nonpayable",
      "type": "function"
    },
    {
      "inputs": [
        {
          "internalType": "address",
          "name": "_DAOAddress",
          "type": "address"
        }
      ],
      "name": "setDAOAddress",
      "outputs": [],
      "stateMutability": "nonpayable",
      "type": "function"
    },
    {
      "inputs": [],
      "name": "version",
      "outputs": [
        {
          "internalType": "uint256",
          "name": "",
          "type": "uint256"
        }
      ],
      "stateMutability": "pure",
      "type": "function"
    },
    {
      "inputs": [],
      "name": "getContractInfo",
      "outputs": [
        {
          "internalType": "uint256",
          "name": "",
          "type": "uint256"
        },
        {
          "internalType": "uint256",
          "name": "",
          "type": "uint256"
        },
        {
          "internalType": "address",
          "name": "",
          "type": "address"
        },
        {
          "internalType": "address",
          "name": "",
          "type": "address"
        },
        {
          "internalType": "address",
          "name": "",
          "type": "address"
        },
        {
          "internalType": "address[]",
          "name": "",
          "type": "address[]"
        },
        {
          "internalType": "uint256",
          "name": "",
          "type": "uint256"
        },
        {
          "internalType": "uint256",
          "name": "",
          "type": "uint256"
        }
      ],
      "stateMutability": "view",
      "type": "function"
    },
    {
      "inputs": [
        {
          "internalType": "address",
          "name": "wallet",
          "type": "address"
        },
        {
          "internalType": "uint256",
          "name": "amount",
          "type": "uint256"
        }
      ],
      "name": "stake",
      "outputs": [
        {
          "internalType": "bool",
          "name": "",
          "type": "bool"
        }
      ],
      "stateMutability": "nonpayable",
      "type": "function"
    },
    {
      "inputs": [
        {
          "internalType": "address",
          "name": "wallet",
          "type": "address"
        }
      ],
      "name": "distribute",
      "outputs": [
        {
          "internalType": "uint256",
          "name": "",
          "type": "uint256"
        }
      ],
      "stateMutability": "nonpayable",
      "type": "function"
    },
    {
      "inputs": [
        {
          "internalType": "address",
          "name": "wallet",
          "type": "address"
        }
      ],
      "name": "checkStaked",
      "outputs": [
        {
          "internalType": "uint256",
          "name": "",
          "type": "uint256"
        }
      ],
      "stateMutability": "view",
      "type": "function"
    },
    {
      "inputs": [
        {
          "internalType": "uint256",
          "name": "amount",
          "type": "uint256"
        }
      ],
      "name": "withdraw",
      "outputs": [
        {
          "internalType": "uint256",
          "name": "",
          "type": "uint256"
        }
      ],
      "stateMutability": "nonpayable",
      "type": "function"
    },
    {
      "inputs": [],
      "name": "getEvents",
      "outputs": [
        {
          "internalType": "uint256[]",
          "name": "",
          "type": "uint256[]"
        },
        {
          "internalType": "uint256[]",
          "name": "",
          "type": "uint256[]"
        }
      ],
      "stateMutability": "view",
      "type": "function"
    }
  ],
  "bytecode": "0x608060405234801561001057600080fd5b50611451806100206000396000f3fe608060405234801561001057600080fd5b50600436106100d45760003560e01c80637363302411610081578063adc9772e1161005b578063adc9772e146101af578063d13f90b4146101d2578063f3e0ae5d146101e557600080fd5b8063736330241461016d5780637cc1f86714610180578063965afa891461019c57600080fd5b8063404aa8f9116100b2578063404aa8f91461013d57806354fd4d501461015357806363453ae11461015a57600080fd5b80630b8fe318146100d9578063247f8e14146100ee5780632e1a7d4d1461012a575b600080fd5b6100ec6100e73660046111ae565b6101f8565b005b6101176100fc3660046111e3565b6001600160a01b03166000908152600a602052604090205490565b6040519081526020015b60405180910390f35b6101176101383660046111ae565b61025c565b610145610452565b604051610121929190611239565b6000610117565b6101176101683660046111e3565b610505565b6100ec61017b3660046111ae565b610a8f565b610188610aee565b604051610121989796959493929190611267565b6100ec6101aa3660046111e3565b610bc1565b6101c26101bd3660046112ed565b610c4a565b6040519015158152602001610121565b6100ec6101e0366004611317565b610cb2565b6100ec6101f33660046111e3565b610e55565b6002546001600160a01b031633146102575760405162461bcd60e51b815260206004820152601160248201527f756e617070726f7665642073656e64657200000000000000000000000000000060448201526064015b60405180910390fd5b600c55565b336000908152600a60205260408120548211156102bb5760405162461bcd60e51b815260206004820152601160248201527f6e6f7420656e6f756768207374616b6564000000000000000000000000000000604482015260640161024e565b60006102c633610505565b336000908152600a6020526040812054919250906102e49085610ede565b336000908152600a60205260409020546009549192506103049190610ede565b600955336000908152600a6020526040812055801561032d576103273382610eea565b506103a4565b600680546001818101909255437ff652222313e28459528d920b65115c16c04f3efc82aaedc97be59f3f377c0d3f909101556009546007805480840182556000919091527fa66cc928b5edb82af9bd49922954155ab7b0942694bea4ce44661d9a8736c68801556008546103a091611031565b6008555b60056000815481106103b8576103b8611364565b60009182526020822001546040517f9bd9bbc6000000000000000000000000000000000000000000000000000000008152336004820152602481018790526060604482015260648101929092526001600160a01b031690639bd9bbc690608401600060405180830381600087803b15801561043257600080fd5b505af1158015610446573d6000803e3d6000fd5b50939695505050505050565b60608060066007818054806020026020016040519081016040528092919081815260200182805480156104a457602002820191906000526020600020905b815481526020019060010190808311610490575b50505050509150808054806020026020016040519081016040528092919081815260200182805480156104f657602002820191906000526020600020905b8154815260200190600101908083116104e2575b50505050509050915091509091565b6001600160a01b0381166000908152600a602052604081205415801561053957506002546001600160a01b03838116911614155b801561055357506003546001600160a01b03838116911614155b1561056057506000919050565b6001600160a01b038083166000818152600b602052604081205460035491939092849283921614156105bd576105968343611390565b91506105aa8267f9ccd8a1c508000061103d565b90506105b681856113a7565b935061060d565b6002546001600160a01b03878116911614156105fd576105dd8343611390565b91506105f18267361f95564006000061103d565b93506105b681856113a7565b60015483101561060d5760015492505b6001600160a01b0386166000908152600a6020526040902054156109f15760005b60085481101561086957836006828154811061064c5761064c611364565b9060005260206000200154111561085757836006828154811061067157610671611364565b90600052602060002001546106869190611390565b9250600c546006828154811061069e5761069e611364565b9060005260206000200154101561071e5761071760076106bf600184611390565b815481106106cf576106cf611364565b60009182526020808320909101546001600160a01b038b168352600a9091526040909120546107119061070b8768056bc75e2d6310000061103d565b9061103d565b90611049565b915061082a565b600c548410156107ab57600084600c546107389190611390565b9050610796600761074a600185611390565b8154811061075a5761075a611364565b60009182526020808320909101546001600160a01b038c168352600a9091526040909120546107119061070b8568056bc75e2d6310000061103d565b92506107a28684611031565b9550600c549450505b60006107d485600684815481106107c4576107c4611364565b9060005260206000200154611055565b905061082660076107e6600185611390565b815481106107f6576107f6611364565b60009182526020808320909101546001600160a01b038c168352600a90915260409091205461071190849061103d565b9250505b6108348583611031565b94506006818154811061084957610849611364565b906000526020600020015493505b80610861816113bf565b91505061062e565b5043831415801561087957504383105b156109f157600c54831080156108905750600c5443105b156108e05761089f8343611390565b6009546001600160a01b0388166000908152600a60205260409020549193506108d9916107119061070b8668056bc75e2d6310000061103d565b90506109e4565b600c54831080156108f25750600c5443115b1561097e57600083600c546109079190611390565b90506109696007600160085461091d9190611390565b8154811061092d5761092d611364565b60009182526020808320909101546001600160a01b038b168352600a9091526040909120546107119061070b8568056bc75e2d6310000061103d565b91506109758583611031565b9450600c549350505b600061098a8443611055565b90506109e0600760016008546109a09190611390565b815481106109b0576109b0611364565b60009182526020808320909101546001600160a01b038b168352600a90915260409091205461071190849061103d565b9150505b6109ee8482611031565b93505b6001600160a01b038681166000818152600b6020526040908190204390556004805491517f40c10f190000000000000000000000000000000000000000000000000000000081529081019290925260248201879052909116906340c10f1990604401600060405180830381600087803b158015610a6d57600080fd5b505af1158015610a81573d6000803e3d6000fd5b509598975050505050505050565b6002546001600160a01b03163314610ae95760405162461bcd60e51b815260206004820152601160248201527f756e617070726f7665642073656e646572000000000000000000000000000000604482015260640161024e565b600155565b60008060008060006060600080600154600c54600260009054906101000a90046001600160a01b0316600360009054906101000a90046001600160a01b0316600460009054906101000a90046001600160a01b0316600560085460095482805480602002602001604051908101604052809291908181526020018280548015610ba057602002820191906000526020600020905b81546001600160a01b03168152600190910190602001808311610b82575b50505050509250975097509750975097509750975097509091929394959697565b6002546001600160a01b03163314610c1b5760405162461bcd60e51b815260206004820152601160248201527f756e617070726f7665642073656e646572000000000000000000000000000000604482015260640161024e565b6003805473ffffffffffffffffffffffffffffffffffffffff19166001600160a01b0392909216919091179055565b6000610c5533611111565b610ca15760405162461bcd60e51b815260206004820152600f60248201527f73656e646572206e6f7420506f6f6c0000000000000000000000000000000000604482015260640161024e565b610cab8383610eea565b9392505050565b600054610100900460ff16610ccd5760005460ff1615610cd1565b303b155b610d435760405162461bcd60e51b815260206004820152602e60248201527f496e697469616c697a61626c653a20636f6e747261637420697320616c72656160448201527f647920696e697469616c697a6564000000000000000000000000000000000000606482015260840161024e565b600054610100900460ff16158015610d8257600080547fffffffffffffffffffffffffffffffffffffffffffffffffffffffffffff0000166101011790555b600280546001600160a01b0380881673ffffffffffffffffffffffffffffffffffffffff199283161783556005805460018181019092557f036b6384b5eca791c62761152d0c79bb0604c104a5fb6f4eb0703f3154bb3db00180548b8416941693909317909255600060088190556009819055925481168352600b60205260408084208890556003549091168352909120859055839055600c8290558015610e4d57600080547fffffffffffffffffffffffffffffffffffffffffffffffffffffffffffff00ff1690555b505050505050565b6002546001600160a01b03163314610eaf5760405162461bcd60e51b815260206004820152601160248201527f756e617070726f7665642073656e646572000000000000000000000000000000604482015260640161024e565b6004805473ffffffffffffffffffffffffffffffffffffffff19166001600160a01b0392909216919091179055565b6000610cab8284611390565b6001600160a01b0382166000908152600a6020526040812054151580610f1d57506002546001600160a01b038481169116145b80610f3557506003546001600160a01b038481169116145b15610f4957610f4383610505565b50610f65565b6001600160a01b0383166000908152600b602052604090204390555b6001600160a01b0383166000908152600a6020526040902054610f889083611031565b6001600160a01b0384166000908152600a6020526040902055600954610fae9083611031565b6009908155600680546001818101909255437ff652222313e28459528d920b65115c16c04f3efc82aaedc97be59f3f377c0d3f9091015590546007805480840182556000919091527fa66cc928b5edb82af9bd49922954155ab7b0942694bea4ce44661d9a8736c688015560085461102591611031565b60085550600192915050565b6000610cab82846113a7565b6000610cab82846113da565b6000610cab82846113f9565b600061106c600c5484610ede90919063ffffffff16565b9250611083600c5483610ede90919063ffffffff16565b91506000611095603261070b85611170565b905060006110a7603261070b87611170565b905060006110c5670de0b6b3a7640000670de0b67f6e119d00610ede565b905060006110df8261071186670de0b6b3a764000061103d565b905060006110f98361071186670de0b6b3a764000061103d565b90506111058282610ede565b98975050505050505050565b600080805b600554811015611169576005818154811061113357611133611364565b6000918252602090912001546001600160a01b038581169116141561115757600191505b80611161816113bf565b915050611116565b5092915050565b60006402540bdb3d815b838110156111695761119a6402540becc3610711846402540be40061103d565b9150806111a6816113bf565b91505061117a565b6000602082840312156111c057600080fd5b5035919050565b80356001600160a01b03811681146111de57600080fd5b919050565b6000602082840312156111f557600080fd5b610cab826111c7565b600081518084526020808501945080840160005b8381101561122e57815187529582019590820190600101611212565b509495945050505050565b60408152600061124c60408301856111fe565b828103602084015261125e81856111fe565b95945050505050565b88815260208082018990526001600160a01b0388811660408401528781166060840152868116608084015261010060a08401819052865190840181905260009261012085019288820192855b818110156112d15784518316865294830194938301936001016112b3565b505050505060c08301949094525060e001529695505050505050565b6000806040838503121561130057600080fd5b611309836111c7565b946020939093013593505050565b600080600080600060a0868803121561132f57600080fd5b611338866111c7565b9450611346602087016111c7565b94979496505050506040830135926060810135926080909101359150565b634e487b7160e01b600052603260045260246000fd5b634e487b7160e01b600052601160045260246000fd5b6000828210156113a2576113a261137a565b500390565b600082198211156113ba576113ba61137a565b500190565b60006000198214156113d3576113d361137a565b5060010190565b60008160001904831182151516156113f4576113f461137a565b500290565b60008261141657634e487b7160e01b600052601260045260246000fd5b50049056fea26469706673582212202f188d297b8914f6e68ea741ef44505e36420c1ab4c19cdfba48d5e98f8bdc4f64736f6c63430008090033",
  "immutableReferences": {},
  "source": "// SPDX-License-Identifier: GPL-3.0-or-later\npragma solidity ^0.8.4;\n\nimport \"../@openzeppelin/contracts-upgradeable/proxy/utils/Initializable.sol\";\nimport \"../@openzeppelin/contracts-upgradeable/token/ERC777/ERC777Upgradeable.sol\";\nimport './../BaconCoin/BaconCoin0.sol';\n\n\nimport '../@openzeppelin/contracts/utils/math/SafeMath.sol';\nimport '../@openzeppelin/contracts/utils/math/SignedSafeMath.sol';\n\n// Forked from Compound\n// See https://github.com/compound-finance/compound-protocol/blob/master/contracts/Timelock.sol\ncontract PoolStaking0 is Initializable {\n    using SignedSafeMath for int256;\n    using SafeMath for uint256;\n\n    uint256 constant PER_BLOCK_DECAY = 9999997757;\n    uint256 constant PER_BLOCK_DECAY_18_DECIMALS = 999999775700000000;\n    uint256 constant PER_BLOCK_DECAY_INVERSE = 10000002243;\n    uint256 constant GUARDIAN_REWARD = 3900000000000000000;\n    uint256 constant DAO_REWARD = 18000000000000000000;\n    uint256 constant COMMUNITY_REWARD = 50000000000000000000;\n    uint256 constant COMMUNITY_REWARD_BONUS = 100000000000000000000;\n\n    uint256 stakeAfterBlock;\n    address guardianAddress;\n    address daoAddress;\n    address baconCoinAddress;\n    address[] poolAddresses;\n\n    uint256[] updateEventBlockNumber;\n    uint256[] updateEventNewAmountStaked;\n    uint256 updateEventCount;\n    uint256 currentStakedAmount;\n\n    mapping(address => uint256) userStaked;\n    mapping(address => uint256) userLastDistribution;\n\n    uint256 oneYearBlock;\n\n\n    /** \n    *   @dev Function initialize replaces constructor in upgradable contracts\n    *   - Calls the init function of the inherited ERC777 contract\n    *   @param _poolAddress the address of Pool contracts approved to stake\n    *   @param _guardianAddress The address Guardian receives Bacon distribution to\n    */\n    function initialize(address _poolAddress, address _guardianAddress, uint256 startingBlock, uint _stakeAfterBlock, uint256 _oneYearBlock) public initializer {\n        guardianAddress = _guardianAddress;\n        poolAddresses.push(_poolAddress);\n\n        //set initial vars\n        updateEventCount = 0;\n        currentStakedAmount = 0;\n\n        userLastDistribution[guardianAddress] = startingBlock;\n        userLastDistribution[daoAddress] = startingBlock;\n        stakeAfterBlock = _stakeAfterBlock;\n        oneYearBlock = _oneYearBlock;\n    }\n\n    function setOneYearBlock(uint256 _oneYearBlock) public {\n        require(msg.sender == guardianAddress, \"unapproved sender\");\n        oneYearBlock = _oneYearBlock;\n    }\n\n    function setstakeAfterBlock(uint256 _stakeAfterBlock) public {\n        require(msg.sender == guardianAddress, \"unapproved sender\");\n        stakeAfterBlock = _stakeAfterBlock;\n    }\n\n    // To be called after baconCoin0 is deployed\n    function setBaconAddress(address _baconCoinAddress) public {\n        require(msg.sender == guardianAddress, \"unapproved sender\");\n        baconCoinAddress = _baconCoinAddress;\n    }\n\n    // To be called after baconCoin0 is deployed\n    function setDAOAddress(address _DAOAddress) public {\n        require(msg.sender == guardianAddress, \"unapproved sender\");\n        daoAddress = _DAOAddress;\n    }\n\n    /**  \n    *   @dev Function version returns uint depending on what version the contract is on\n    */\n    function version() public pure returns (uint) {\n        return 0;\n    }\n\n    function getContractInfo() public view returns (uint256, uint256, address, address, address, address  [] memory, uint256, uint256) {\n        return (\n            stakeAfterBlock,\n            oneYearBlock,\n            guardianAddress,\n            daoAddress,\n            baconCoinAddress,\n            poolAddresses,\n            updateEventCount,\n            currentStakedAmount\n        );\n    }\n\n    /** \n    *   @dev Function isApprovedPool() is an internal function that checks the array of approved pool addresses for the given address\n    *   @param _address The address to be checked if it is approved\n    *   @return isApproved is if the _addess is found in the list of servicerAddresses\n    */\n    function isApprovedPool(address _address) internal view returns (bool) {\n        bool isApproved = false;\n        \n        for (uint i = 0; i < poolAddresses.length; i++) {\n            if(_address == poolAddresses[i]) {\n                isApproved = true;\n            }\n        }\n\n        return isApproved;\n    }\n\n    /*****************************************************\n    *       Staking FUNCTIONS\n    ******************************************************/\n\n    /**\n    *   @dev function stake accepts an amount of bHOME to be staked and creates a new updateEvent for it\n    */\n    function stake(address wallet, uint256 amount) public returns (bool) {\n        require(isApprovedPool(msg.sender), \"sender not Pool\");\n\n        return stakeInternal(wallet, amount);\n    }\n\n    \n    function stakeInternal(address wallet, uint256 amount) internal returns (bool) {\n        //First handle the case where this is a first staking\n        if(userStaked[wallet] != 0 || wallet == guardianAddress || wallet == daoAddress) {\n            distribute(wallet);\n        } else {\n            userLastDistribution[wallet] = block.number;\n        }\n\n        userStaked[wallet] = userStaked[wallet].add(amount);\n        currentStakedAmount = currentStakedAmount.add(amount);\n        updateEventBlockNumber.push(block.number);\n        updateEventNewAmountStaked.push(currentStakedAmount);\n        updateEventCount = updateEventCount.add(1);\n\n        return true;\n    }\n\n    function decayExponent(uint256 exponent) internal pure returns (uint256) {\n        //10 decimals\n        uint256 answer = PER_BLOCK_DECAY;\n        for (uint256 i = 0; i < exponent; i++) {\n            answer = answer.mul(10000000000).div(PER_BLOCK_DECAY_INVERSE);\n        }\n\n        return answer;\n    }\n\n    function calcBaconBetweenEvents(uint256 blockX, uint256 blockY) internal view returns (uint256) {\n        //bacon per block after first year is\n        //y=50(1-0.000000224337829)^{x}\n        //where x is number of blocks over 15651074\n\n        //Bacon accumulated between two blocksover first year is:\n        //S(x,y) = S(y) - S(x) = (A1(1-r^y) / (1-r)) - (A1(1-r^x) / (1-r))\n        //where A1 = 50 and r = 0.9999997757\n\n        //1 year block subtracted from block numbers passed in since formula only cares about change in time since that point\n        blockX = blockX.sub(oneYearBlock);\n        blockY = blockY.sub(oneYearBlock);\n\n        uint256 SyNumer = decayExponent(blockY).mul(50);\n        uint256 SxNumer = decayExponent(blockX).mul(50);\n        uint256 denom = uint256(1000000000000000000).sub(PER_BLOCK_DECAY_18_DECIMALS);\n\n        uint256 Sy = SyNumer.mul(1000000000000000000).div(denom);\n        uint256 Sx = SxNumer.mul(1000000000000000000).div(denom);\n\n        return Sy.sub(Sx);\n    }\n\n\n    /**\n    *   @dev function distribute accepts a wallet address and transfers the BaconCoin accrued to their wallet since the user's Last Distribution\n    */\n    function distribute(address wallet) public returns (uint256) {\n\n        if (userStaked[wallet] == 0 && wallet != guardianAddress && wallet != daoAddress) {\n            return 0;\n        }\n\n        uint256 accruedBacon = 0;\n        uint256 countingBlock = userLastDistribution[wallet];\n\n        uint256 blockDifference = 0;\n        uint256 tempAccruedBacon = 0;\n\n        if(wallet == daoAddress) {\n            blockDifference = block.number - countingBlock;\n            tempAccruedBacon = blockDifference.mul(DAO_REWARD);\n            accruedBacon += tempAccruedBacon;\n        } else if (wallet == guardianAddress) {\n            blockDifference = block.number - countingBlock;\n            accruedBacon = blockDifference.mul(GUARDIAN_REWARD);\n            accruedBacon += tempAccruedBacon;\n        } else if (countingBlock < stakeAfterBlock) {\n            countingBlock = stakeAfterBlock;\n        }\n\n        if (userStaked[wallet] != 0) {\n            //iterate through the array of update events\n            for (uint256 i = 0; i < updateEventCount; i++) {\n                //only accrue bacon if event is after last withdraw\n                if (updateEventBlockNumber[i] > countingBlock) {\n                    blockDifference = updateEventBlockNumber[i] - countingBlock;\n                    \n                    if(updateEventBlockNumber[i] < oneYearBlock) {\n                        //calculate bacon accrued if update event is within the first year\n                        //use updateEventNewAmountStaked[i-1] because that is the \n                        tempAccruedBacon = blockDifference.mul(COMMUNITY_REWARD_BONUS).mul(userStaked[wallet]).div(updateEventNewAmountStaked[i-1]);\n                    } else {\n                        //calculate bacon accrued if update event is past the first year\n                        if(countingBlock < oneYearBlock) {\n                            //calculate the bacon accrued at the end of the first year if overlapped with first year\n                            uint256 blocksLeftInFirstYear = oneYearBlock - countingBlock;\n                            tempAccruedBacon = blocksLeftInFirstYear.mul(COMMUNITY_REWARD_BONUS).mul(userStaked[wallet]).div(updateEventNewAmountStaked[i-1]);\n\n                            //add the amount of bacon accrued before the first year to the running total and set the block difference to start calculating from new year\n                            accruedBacon = accruedBacon.add(tempAccruedBacon);\n                            countingBlock = oneYearBlock;\n                        }\n                        \n                        //calculate the amount of Bacon accrued between events\n                        uint256 baconBetweenBlocks = calcBaconBetweenEvents(countingBlock, updateEventBlockNumber[i]);\n                        tempAccruedBacon = baconBetweenBlocks.mul(userStaked[wallet]).div(updateEventNewAmountStaked[i-1]);\n                    }\n                    \n                    //as we iterate through events since last withdraw, add the bacon accrued since the last event to the running total & update contingBlock\n                    accruedBacon = accruedBacon.add(tempAccruedBacon);\n                    countingBlock = updateEventBlockNumber[i];\n                }\n\n            }// end updateEvent for loop\n\n            // When there is no more updateEvents to loop through, the last step is to calculate accrued up to current block\n\n            //first check that the last updateEvent didn't happen earlier this block, in which case we're done calculating accrued bacon\n            //countingBlock is checked against the block.number in case the counting block was set in the future as startingBlock\n            if(countingBlock != block.number && countingBlock < block.number) {\n                //case where still within first year\n                if(countingBlock < oneYearBlock  && block.number < oneYearBlock) {\n                    //calculate accrued between last updateEvent and now\n                    blockDifference = block.number - countingBlock;\n                    tempAccruedBacon = blockDifference.mul(COMMUNITY_REWARD_BONUS).mul(userStaked[wallet]).div(currentStakedAmount);\n                } else {\n                    if (countingBlock < oneYearBlock  && block.number > oneYearBlock) {\n                        //case where current block has just surpassed 1 year\n                        uint256 blocksLeftInFirstYear = oneYearBlock - countingBlock;\n                        tempAccruedBacon = blocksLeftInFirstYear.mul(COMMUNITY_REWARD_BONUS).mul(userStaked[wallet]).div(updateEventNewAmountStaked[updateEventCount-1]);\n\n                        //add the amount of bacon accrued before the first year to the running total and set the block difference to start calculating from new year\n                        accruedBacon = accruedBacon.add(tempAccruedBacon);\n                        countingBlock = oneYearBlock;\n                    } \n\n                    //case where last updateEvent was after year 1\n                    //calculate the amount of Bacon accrued between events\n                    uint256 baconBetweenBlocks = calcBaconBetweenEvents(countingBlock, block.number);\n                    tempAccruedBacon = baconBetweenBlocks.mul(userStaked[wallet]).div(updateEventNewAmountStaked[updateEventCount-1]);\n                }\n\n                accruedBacon = accruedBacon.add(tempAccruedBacon);\n            }\n        }\n\n        userLastDistribution[wallet] = block.number;\n        BaconCoin0(baconCoinAddress).mint(wallet, accruedBacon);\n\n        return accruedBacon;\n    }\n\n\n    function checkStaked(address wallet) public view returns (uint256) {\n        return userStaked[wallet];\n    }\n\n    /**  \n    *   @dev Function withdraw reduces the amount staked by a wallet by a given amount\n    */\n    function withdraw(uint256 amount) public returns (uint256) {\n        require(userStaked[msg.sender] >= amount, \"not enough staked\");\n\n        uint256 distributed = distribute(msg.sender);\n\n        //reduce global variables\n        uint256 stakedDiff = userStaked[msg.sender].sub(amount);\n        currentStakedAmount = currentStakedAmount.sub(userStaked[msg.sender]);\n        userStaked[msg.sender] = 0;\n\n        //re-stake the difference\n        if(stakedDiff > 0) {\n            stakeInternal(msg.sender, stakedDiff);\n        } else {\n            updateEventBlockNumber.push(block.number);\n            updateEventNewAmountStaked.push(currentStakedAmount);\n            updateEventCount = updateEventCount.add(1);\n        }\n\n        //finally transfer out amount\n        IERC777Upgradeable(poolAddresses[0]).send(msg.sender, amount, \"\");\n\n        return distributed;\n\n    }\n\n    function getEvents() public view returns (uint256  [] memory, uint256  [] memory) {\n        return (updateEventBlockNumber, updateEventNewAmountStaked);\n    }\n\n}",
  "sourcePath": "/Users/patrick/github/HomeDAO/contracts/PoolStaking/PoolStaking0.sol",
  "compiler": {
    "name": "solc",
    "version": "0.8.9+commit.e5eed63a.Emscripten.clang"
  },
  "schemaVersion": "3.4.8",
  "updatedAt": "2022-08-10T01:41:50.176Z",
  "devdoc": {
    "kind": "dev",
    "methods": {
      "distribute(address)": {
        "details": "function distribute accepts a wallet address and transfers the BaconCoin accrued to their wallet since the user's Last Distribution"
      },
      "initialize(address,address,uint256,uint256,uint256)": {
        "details": "Function initialize replaces constructor in upgradable contracts   - Calls the init function of the inherited ERC777 contract",
        "params": {
          "_guardianAddress": "The address Guardian receives Bacon distribution to",
          "_poolAddress": "the address of Pool contracts approved to stake"
        }
      },
      "stake(address,uint256)": {
        "details": "function stake accepts an amount of bHOME to be staked and creates a new updateEvent for it"
      },
      "version()": {
        "details": "Function version returns uint depending on what version the contract is on"
      },
      "withdraw(uint256)": {
        "details": "Function withdraw reduces the amount staked by a wallet by a given amount"
      }
    },
    "version": 1
  },
  "userdoc": {
    "kind": "user",
    "methods": {},
    "version": 1
  }
}