{
  "contractName": "Pool5",
  "abi": [
    {
      "anonymous": false,
      "inputs": [
        {
          "indexed": true,
          "internalType": "address",
          "name": "owner",
          "type": "address"
        },
        {
          "indexed": true,
          "internalType": "address",
          "name": "spender",
          "type": "address"
        },
        {
          "indexed": false,
          "internalType": "uint256",
          "name": "value",
          "type": "uint256"
        }
      ],
      "name": "Approval",
      "type": "event"
    },
    {
      "anonymous": false,
      "inputs": [
        {
          "indexed": true,
          "internalType": "address",
          "name": "operator",
          "type": "address"
        },
        {
          "indexed": true,
          "internalType": "address",
          "name": "tokenHolder",
          "type": "address"
        }
      ],
      "name": "AuthorizedOperator",
      "type": "event"
    },
    {
      "anonymous": false,
      "inputs": [
        {
          "indexed": true,
          "internalType": "address",
          "name": "operator",
          "type": "address"
        },
        {
          "indexed": true,
          "internalType": "address",
          "name": "from",
          "type": "address"
        },
        {
          "indexed": false,
          "internalType": "uint256",
          "name": "amount",
          "type": "uint256"
        },
        {
          "indexed": false,
          "internalType": "bytes",
          "name": "data",
          "type": "bytes"
        },
        {
          "indexed": false,
          "internalType": "bytes",
          "name": "operatorData",
          "type": "bytes"
        }
      ],
      "name": "Burned",
      "type": "event"
    },
    {
      "anonymous": false,
      "inputs": [
        {
          "indexed": true,
          "internalType": "address",
          "name": "operator",
          "type": "address"
        },
        {
          "indexed": true,
          "internalType": "address",
          "name": "to",
          "type": "address"
        },
        {
          "indexed": false,
          "internalType": "uint256",
          "name": "amount",
          "type": "uint256"
        },
        {
          "indexed": false,
          "internalType": "bytes",
          "name": "data",
          "type": "bytes"
        },
        {
          "indexed": false,
          "internalType": "bytes",
          "name": "operatorData",
          "type": "bytes"
        }
      ],
      "name": "Minted",
      "type": "event"
    },
    {
      "anonymous": false,
      "inputs": [
        {
          "indexed": true,
          "internalType": "address",
          "name": "operator",
          "type": "address"
        },
        {
          "indexed": true,
          "internalType": "address",
          "name": "tokenHolder",
          "type": "address"
        }
      ],
      "name": "RevokedOperator",
      "type": "event"
    },
    {
      "anonymous": false,
      "inputs": [
        {
          "indexed": true,
          "internalType": "address",
          "name": "operator",
          "type": "address"
        },
        {
          "indexed": true,
          "internalType": "address",
          "name": "from",
          "type": "address"
        },
        {
          "indexed": true,
          "internalType": "address",
          "name": "to",
          "type": "address"
        },
        {
          "indexed": false,
          "internalType": "uint256",
          "name": "amount",
          "type": "uint256"
        },
        {
          "indexed": false,
          "internalType": "bytes",
          "name": "data",
          "type": "bytes"
        },
        {
          "indexed": false,
          "internalType": "bytes",
          "name": "operatorData",
          "type": "bytes"
        }
      ],
      "name": "Sent",
      "type": "event"
    },
    {
      "anonymous": false,
      "inputs": [
        {
          "indexed": true,
          "internalType": "address",
          "name": "from",
          "type": "address"
        },
        {
          "indexed": true,
          "internalType": "address",
          "name": "to",
          "type": "address"
        },
        {
          "indexed": false,
          "internalType": "uint256",
          "name": "value",
          "type": "uint256"
        }
      ],
      "name": "Transfer",
      "type": "event"
    },
    {
      "inputs": [
        {
          "internalType": "address",
          "name": "holder",
          "type": "address"
        },
        {
          "internalType": "address",
          "name": "spender",
          "type": "address"
        }
      ],
      "name": "allowance",
      "outputs": [
        {
          "internalType": "uint256",
          "name": "",
          "type": "uint256"
        }
      ],
      "stateMutability": "view",
      "type": "function"
    },
    {
      "inputs": [
        {
          "internalType": "address",
          "name": "spender",
          "type": "address"
        },
        {
          "internalType": "uint256",
          "name": "value",
          "type": "uint256"
        }
      ],
      "name": "approve",
      "outputs": [
        {
          "internalType": "bool",
          "name": "",
          "type": "bool"
        }
      ],
      "stateMutability": "nonpayable",
      "type": "function"
    },
    {
      "inputs": [
        {
          "internalType": "address",
          "name": "operator",
          "type": "address"
        }
      ],
      "name": "authorizeOperator",
      "outputs": [],
      "stateMutability": "nonpayable",
      "type": "function"
    },
    {
      "inputs": [
        {
          "internalType": "address",
          "name": "tokenHolder",
          "type": "address"
        }
      ],
      "name": "balanceOf",
      "outputs": [
        {
          "internalType": "uint256",
          "name": "",
          "type": "uint256"
        }
      ],
      "stateMutability": "view",
      "type": "function"
    },
    {
      "inputs": [
        {
          "internalType": "uint256",
          "name": "amount",
          "type": "uint256"
        },
        {
          "internalType": "bytes",
          "name": "data",
          "type": "bytes"
        }
      ],
      "name": "burn",
      "outputs": [],
      "stateMutability": "nonpayable",
      "type": "function"
    },
    {
      "inputs": [],
      "name": "defaultOperators",
      "outputs": [
        {
          "internalType": "address[]",
          "name": "",
          "type": "address[]"
        }
      ],
      "stateMutability": "view",
      "type": "function"
    },
    {
      "inputs": [],
      "name": "granularity",
      "outputs": [
        {
          "internalType": "uint256",
          "name": "",
          "type": "uint256"
        }
      ],
      "stateMutability": "view",
      "type": "function"
    },
    {
      "inputs": [
        {
          "internalType": "address",
          "name": "operator",
          "type": "address"
        },
        {
          "internalType": "address",
          "name": "tokenHolder",
          "type": "address"
        }
      ],
      "name": "isOperatorFor",
      "outputs": [
        {
          "internalType": "bool",
          "name": "",
          "type": "bool"
        }
      ],
      "stateMutability": "view",
      "type": "function"
    },
    {
      "inputs": [
        {
          "internalType": "address",
          "name": "account",
          "type": "address"
        },
        {
          "internalType": "uint256",
          "name": "amount",
          "type": "uint256"
        },
        {
          "internalType": "bytes",
          "name": "data",
          "type": "bytes"
        },
        {
          "internalType": "bytes",
          "name": "operatorData",
          "type": "bytes"
        }
      ],
      "name": "operatorBurn",
      "outputs": [],
      "stateMutability": "nonpayable",
      "type": "function"
    },
    {
      "inputs": [
        {
          "internalType": "address",
          "name": "sender",
          "type": "address"
        },
        {
          "internalType": "address",
          "name": "recipient",
          "type": "address"
        },
        {
          "internalType": "uint256",
          "name": "amount",
          "type": "uint256"
        },
        {
          "internalType": "bytes",
          "name": "data",
          "type": "bytes"
        },
        {
          "internalType": "bytes",
          "name": "operatorData",
          "type": "bytes"
        }
      ],
      "name": "operatorSend",
      "outputs": [],
      "stateMutability": "nonpayable",
      "type": "function"
    },
    {
      "inputs": [
        {
          "internalType": "address",
          "name": "operator",
          "type": "address"
        }
      ],
      "name": "revokeOperator",
      "outputs": [],
      "stateMutability": "nonpayable",
      "type": "function"
    },
    {
      "inputs": [
        {
          "internalType": "address",
          "name": "recipient",
          "type": "address"
        },
        {
          "internalType": "uint256",
          "name": "amount",
          "type": "uint256"
        },
        {
          "internalType": "bytes",
          "name": "data",
          "type": "bytes"
        }
      ],
      "name": "send",
      "outputs": [],
      "stateMutability": "nonpayable",
      "type": "function"
    },
    {
      "inputs": [],
      "name": "totalSupply",
      "outputs": [
        {
          "internalType": "uint256",
          "name": "",
          "type": "uint256"
        }
      ],
      "stateMutability": "view",
      "type": "function"
    },
    {
      "inputs": [
        {
          "internalType": "address",
          "name": "recipient",
          "type": "address"
        },
        {
          "internalType": "uint256",
          "name": "amount",
          "type": "uint256"
        }
      ],
      "name": "transfer",
      "outputs": [
        {
          "internalType": "bool",
          "name": "",
          "type": "bool"
        }
      ],
      "stateMutability": "nonpayable",
      "type": "function"
    },
    {
      "inputs": [
        {
          "internalType": "address",
          "name": "holder",
          "type": "address"
        },
        {
          "internalType": "address",
          "name": "recipient",
          "type": "address"
        },
        {
          "internalType": "uint256",
          "name": "amount",
          "type": "uint256"
        }
      ],
      "name": "transferFrom",
      "outputs": [
        {
          "internalType": "bool",
          "name": "",
          "type": "bool"
        }
      ],
      "stateMutability": "nonpayable",
      "type": "function"
    },
    {
      "inputs": [
        {
          "internalType": "address",
          "name": "_daoAddress",
          "type": "address"
        }
      ],
      "name": "initializePoolFive",
      "outputs": [],
      "stateMutability": "nonpayable",
      "type": "function"
    },
    {
      "inputs": [],
      "name": "name",
      "outputs": [
        {
          "internalType": "string",
          "name": "",
          "type": "string"
        }
      ],
      "stateMutability": "view",
      "type": "function"
    },
    {
      "inputs": [],
      "name": "symbol",
      "outputs": [
        {
          "internalType": "string",
          "name": "",
          "type": "string"
        }
      ],
      "stateMutability": "view",
      "type": "function"
    },
    {
      "inputs": [],
      "name": "decimals",
      "outputs": [
        {
          "internalType": "uint8",
          "name": "",
          "type": "uint8"
        }
      ],
      "stateMutability": "pure",
      "type": "function"
    },
    {
      "inputs": [
        {
          "internalType": "address[]",
          "name": "_servicerAddresses",
          "type": "address[]"
        }
      ],
      "name": "setApprovedAddresses",
      "outputs": [],
      "stateMutability": "nonpayable",
      "type": "function"
    },
    {
      "inputs": [],
      "name": "getContractData",
      "outputs": [
        {
          "internalType": "address",
          "name": "",
          "type": "address"
        },
        {
          "internalType": "address",
          "name": "",
          "type": "address"
        },
        {
          "internalType": "uint256",
          "name": "",
          "type": "uint256"
        },
        {
          "internalType": "uint256",
          "name": "",
          "type": "uint256"
        },
        {
          "internalType": "uint256",
          "name": "",
          "type": "uint256"
        },
        {
          "internalType": "uint256",
          "name": "",
          "type": "uint256"
        }
      ],
      "stateMutability": "view",
      "type": "function"
    },
    {
      "inputs": [],
      "name": "getLoanCount",
      "outputs": [
        {
          "internalType": "uint256",
          "name": "",
          "type": "uint256"
        }
      ],
      "stateMutability": "view",
      "type": "function"
    },
    {
      "inputs": [],
      "name": "getSupplyableTokenAddress",
      "outputs": [
        {
          "internalType": "address",
          "name": "",
          "type": "address"
        }
      ],
      "stateMutability": "view",
      "type": "function"
    },
    {
      "inputs": [],
      "name": "getServicerAddress",
      "outputs": [
        {
          "internalType": "address",
          "name": "",
          "type": "address"
        }
      ],
      "stateMutability": "view",
      "type": "function"
    },
    {
      "inputs": [
        {
          "internalType": "uint256",
          "name": "loanId",
          "type": "uint256"
        }
      ],
      "name": "getLoanDetails",
      "outputs": [
        {
          "internalType": "uint256",
          "name": "",
          "type": "uint256"
        },
        {
          "internalType": "address",
          "name": "",
          "type": "address"
        },
        {
          "internalType": "uint256",
          "name": "",
          "type": "uint256"
        },
        {
          "internalType": "uint256",
          "name": "",
          "type": "uint256"
        },
        {
          "internalType": "uint256",
          "name": "",
          "type": "uint256"
        },
        {
          "internalType": "uint256",
          "name": "",
          "type": "uint256"
        },
        {
          "internalType": "uint256",
          "name": "",
          "type": "uint256"
        }
      ],
      "stateMutability": "view",
      "type": "function"
    },
    {
      "inputs": [
        {
          "internalType": "uint256",
          "name": "loanId",
          "type": "uint256"
        }
      ],
      "name": "getLoanAccruedInterest",
      "outputs": [
        {
          "internalType": "uint256",
          "name": "",
          "type": "uint256"
        }
      ],
      "stateMutability": "view",
      "type": "function"
    },
    {
      "inputs": [
        {
          "internalType": "uint256",
          "name": "amount",
          "type": "uint256"
        }
      ],
      "name": "lend",
      "outputs": [
        {
          "internalType": "uint256",
          "name": "",
          "type": "uint256"
        }
      ],
      "stateMutability": "nonpayable",
      "type": "function"
    },
    {
      "inputs": [
        {
          "internalType": "uint256",
          "name": "amount",
          "type": "uint256"
        }
      ],
      "name": "redeem",
      "outputs": [],
      "stateMutability": "nonpayable",
      "type": "function"
    },
    {
      "inputs": [
        {
          "internalType": "uint256",
          "name": "amount",
          "type": "uint256"
        },
        {
          "internalType": "uint256",
          "name": "maxRate",
          "type": "uint256"
        },
        {
          "internalType": "uint256",
          "name": "propTokenId",
          "type": "uint256"
        }
      ],
      "name": "borrow",
      "outputs": [],
      "stateMutability": "nonpayable",
      "type": "function"
    },
    {
      "inputs": [
        {
          "internalType": "uint256",
          "name": "loanId",
          "type": "uint256"
        },
        {
          "internalType": "uint256",
          "name": "amount",
          "type": "uint256"
        }
      ],
      "name": "repay",
      "outputs": [],
      "stateMutability": "nonpayable",
      "type": "function"
    },
    {
      "inputs": [
        {
          "internalType": "uint256",
          "name": "amount",
          "type": "uint256"
        }
      ],
      "name": "stake",
      "outputs": [
        {
          "internalType": "bool",
          "name": "",
          "type": "bool"
        }
      ],
      "stateMutability": "nonpayable",
      "type": "function"
    },
    {
      "inputs": [
        {
          "internalType": "uint256",
          "name": "amount",
          "type": "uint256"
        }
      ],
      "name": "lendAndStake",
      "outputs": [
        {
          "internalType": "bool",
          "name": "",
          "type": "bool"
        }
      ],
      "stateMutability": "nonpayable",
      "type": "function"
    },
    {
      "inputs": [],
      "name": "getVersion",
      "outputs": [
        {
          "internalType": "uint256",
          "name": "",
          "type": "uint256"
        }
      ],
      "stateMutability": "pure",
      "type": "function"
    },
    {
      "inputs": [
        {
          "internalType": "address",
          "name": "",
          "type": "address"
        },
        {
          "internalType": "address",
          "name": "",
          "type": "address"
        },
        {
          "internalType": "uint256",
          "name": "",
          "type": "uint256"
        },
        {
          "internalType": "bytes",
          "name": "",
          "type": "bytes"
        }
      ],
      "name": "onERC721Received",
      "outputs": [
        {
          "internalType": "bytes4",
          "name": "",
          "type": "bytes4"
        }
      ],
      "stateMutability": "pure",
      "type": "function"
    }
  ],
  "bytecode": "0x608060405234801561001057600080fd5b50615a4f80620000216000396000f3fe608060405234801561001057600080fd5b50600436106102065760003560e01c8063959b8c3f1161011a578063adf459ca116100ad578063dd62ed3e1161007c578063dd62ed3e14610620578063e636eddc14610650578063fad8b32a14610680578063fc673c4f1461069c578063fe9d9303146106b857610206565b8063adf459ca1461059c578063d8aed145146105b8578063d95b6371146105d4578063db006a751461060457610206565b8063a68b91ab116100e9578063a68b91ab146104e9578063a694fc3a1461050c578063a6aa57ce1461053c578063a9059cbb1461056c57610206565b8063959b8c3f1461046357806395d89b411461047f5780639a5872f41461049d5780639bd9bbc6146104cd57610206565b8063313ce5671161019d57806366877b8d1161016c57806366877b8d146103a757806370a08231146103dd5780637e174eb41461040d57806387e8dc9b1461042957806390b53e141461044557610206565b8063313ce56714610331578063521968121461034f578063556f0dc71461036d57806362ad1b831461038b57610206565b8063150b7a02116101d9578063150b7a021461029557806318160ddd146102c557806323b872dd146102e35780632f5e5d951461031357610206565b806306e485381461020b57806306fdde0314610229578063095ea7b3146102475780630d8e6e2c14610277575b600080fd5b6102136106d4565b6040516102209190614b93565b60405180910390f35b610231610762565b60405161023e9190614beb565b60405180910390f35b610261600480360381019061025c919061420f565b6107f4565b60405161026e9190614bb5565b60405180910390f35b61027f610817565b60405161028c9190614ead565b60405180910390f35b6102af60048036038101906102aa91906140ed565b610820565b6040516102bc9190614bd0565b60405180910390f35b6102cd610834565b6040516102da9190614ead565b60405180910390f35b6102fd60048036038101906102f8919061409e565b61083e565b60405161030a9190614bb5565b60405180910390f35b61031b610a98565b6040516103289190614a1f565b60405180910390f35b610339610ac2565b6040516103469190614f7c565b60405180910390f35b610357610acb565b6040516103649190614ead565b60405180910390f35b610375610ad5565b6040516103829190614ead565b60405180910390f35b6103a560048036038101906103a09190614168565b610ade565b005b6103c160048036038101906103bc91906144be565b610b44565b6040516103d49796959493929190614ec8565b60405180910390f35b6103f760048036038101906103f29190614010565b610c89565b6040516104049190614ead565b60405180910390f35b6104276004803603810190610422919061442b565b610cd2565b005b610443600480360381019061043e9190614010565b610d46565b005b61044d610de4565b60405161045a9190614a1f565b60405180910390f35b61047d60048036038101906104789190614010565b610e0e565b005b61048761106f565b6040516104949190614beb565b60405180910390f35b6104b760048036038101906104b291906144be565b611101565b6040516104c49190614ead565b60405180910390f35b6104e760048036038101906104e29190614331565b611280565b005b6104f16112aa565b60405161050396959493929190614ae0565b60405180910390f35b610526600480360381019061052191906144be565b6113c3565b6040516105339190614bb5565b60405180910390f35b610556600480360381019061055191906144be565b611500565b6040516105639190614ead565b60405180910390f35b6105866004803603810190610581919061420f565b6115e6565b6040516105939190614bb5565b60405180910390f35b6105b660048036038101906105b191906145a0565b6116f4565b005b6105d260048036038101906105cd9190614564565b6120ba565b005b6105ee60048036038101906105e99190614062565b61285e565b6040516105fb9190614bb5565b60405180910390f35b61061e600480360381019061061991906144be565b612a0f565b005b61063a60048036038101906106359190614062565b612b9b565b6040516106479190614ead565b60405180910390f35b61066a600480360381019061066591906144be565b612c22565b6040516106779190614bb5565b60405180910390f35b61069a60048036038101906106959190614010565b612c41565b005b6106b660048036038101906106b19190614398565b612ea2565b005b6106d260048036038101906106cd9190614510565b612f04565b005b6060603780548060200260200160405190810160405280929190818152602001828054801561075857602002820191906000526020600020905b8160009054906101000a900473ffffffffffffffffffffffffffffffffffffffff1673ffffffffffffffffffffffffffffffffffffffff168152602001906001019080831161070e575b5050505050905090565b6060606d8054610771906152d3565b80601f016020809104026020016040519081016040528092919081815260200182805461079d906152d3565b80156107ea5780601f106107bf576101008083540402835291602001916107ea565b820191906000526020600020905b8154815290600101906020018083116107cd57829003601f168201915b5050505050905090565b6000806107ff612f2a565b905061080c818585612f32565b600191505092915050565b60006005905090565b600063150b7a0260e01b9050949350505050565b6000603454905090565b60008073ffffffffffffffffffffffffffffffffffffffff168373ffffffffffffffffffffffffffffffffffffffff1614156108af576040517f08c379a00000000000000000000000000000000000000000000000000000000081526004016108a690614d6d565b60405180910390fd5b600073ffffffffffffffffffffffffffffffffffffffff168473ffffffffffffffffffffffffffffffffffffffff16141561091f576040517f08c379a000000000000000000000000000000000000000000000000000000000815260040161091690614ded565b60405180910390fd5b6000610929612f2a565b90506109578186868660405180602001604052806000815250604051806020016040528060008152506130fd565b610983818686866040518060200160405280600081525060405180602001604052806000815250613273565b6000603b60008773ffffffffffffffffffffffffffffffffffffffff1673ffffffffffffffffffffffffffffffffffffffff16815260200190815260200160002060008373ffffffffffffffffffffffffffffffffffffffff1673ffffffffffffffffffffffffffffffffffffffff16815260200190815260200160002054905083811015610a47576040517f08c379a0000000000000000000000000000000000000000000000000000000008152600401610a3e90614dcd565b60405180910390fd5b610a5d86838684610a5891906151c8565b612f32565b610a8b8287878760405180602001604052806000815250604051806020016040528060008152506000613490565b6001925050509392505050565b6000606660009054906101000a900473ffffffffffffffffffffffffffffffffffffffff16905090565b60006006905090565b6000606c54905090565b60006001905090565b610aef610ae9612f2a565b8661285e565b610b2e576040517f08c379a0000000000000000000000000000000000000000000000000000000008152600401610b2590614dad565b60405180910390fd5b610b3d85858585856001613671565b5050505050565b600080600080600080600080606b8981548110610b8a577f4e487b7100000000000000000000000000000000000000000000000000000000600052603260045260246000fd5b90600052602060002090600602016040518060c0016040529081600082015481526020016001820160009054906101000a900473ffffffffffffffffffffffffffffffffffffffff1673ffffffffffffffffffffffffffffffffffffffff1673ffffffffffffffffffffffffffffffffffffffff16815260200160028201548152602001600382015481526020016004820154815260200160058201548152505090506000610c388a611101565b90506000606f60008c81526020019081526020016000205490508260000151836020015184604001518560600151858760a00151869950995099509950995099509950505050919395979092949650565b6000603360008373ffffffffffffffffffffffffffffffffffffffff1673ffffffffffffffffffffffffffffffffffffffff168152602001908152602001600020549050919050565b606560009054906101000a900473ffffffffffffffffffffffffffffffffffffffff1673ffffffffffffffffffffffffffffffffffffffff163373ffffffffffffffffffffffffffffffffffffffff1614610d2c57600080fd5b8060679080519060200190610d42929190613cef565b5050565b606560009054906101000a900473ffffffffffffffffffffffffffffffffffffffff1673ffffffffffffffffffffffffffffffffffffffff163373ffffffffffffffffffffffffffffffffffffffff1614610da057600080fd5b80607560006101000a81548173ffffffffffffffffffffffffffffffffffffffff021916908373ffffffffffffffffffffffffffffffffffffffff16021790555050565b6000606560009054906101000a900473ffffffffffffffffffffffffffffffffffffffff16905090565b8073ffffffffffffffffffffffffffffffffffffffff16610e2d612f2a565b73ffffffffffffffffffffffffffffffffffffffff161415610e84576040517f08c379a0000000000000000000000000000000000000000000000000000000008152600401610e7b90614c8d565b60405180910390fd5b603860008273ffffffffffffffffffffffffffffffffffffffff1673ffffffffffffffffffffffffffffffffffffffff16815260200190815260200160002060009054906101000a900460ff1615610f6e57603a6000610ee2612f2a565b73ffffffffffffffffffffffffffffffffffffffff1673ffffffffffffffffffffffffffffffffffffffff16815260200190815260200160002060008273ffffffffffffffffffffffffffffffffffffffff1673ffffffffffffffffffffffffffffffffffffffff16815260200190815260200160002060006101000a81549060ff021916905561100b565b600160396000610f7c612f2a565b73ffffffffffffffffffffffffffffffffffffffff1673ffffffffffffffffffffffffffffffffffffffff16815260200190815260200160002060008373ffffffffffffffffffffffffffffffffffffffff1673ffffffffffffffffffffffffffffffffffffffff16815260200190815260200160002060006101000a81548160ff0219169083151502179055505b611013612f2a565b73ffffffffffffffffffffffffffffffffffffffff168173ffffffffffffffffffffffffffffffffffffffff167ff4caeb2d6ca8932a215a353d0703c326ec2d81fc68170f320eb2ab49e9df61f960405160405180910390a350565b6060606e805461107e906152d3565b80601f01602080910402602001604051908101604052809291908181526020018280546110aa906152d3565b80156110f75780601f106110cc576101008083540402835291602001916110f7565b820191906000526020600020905b8154815290600101906020018083116110da57829003601f168201915b5050505050905090565b600080606b838154811061113e577f4e487b7100000000000000000000000000000000000000000000000000000000600052603260045260246000fd5b90600052602060002090600602016040518060c0016040529081600082015481526020016001820160009054906101000a900473ffffffffffffffffffffffffffffffffffffffff1673ffffffffffffffffffffffffffffffffffffffff1673ffffffffffffffffffffffffffffffffffffffff168152602001600282015481526020016003820154815260200160048201548152602001600582015481525050905060006111fa8260a001514261379190919063ffffffff16565b9050600061122f6301e28500611221856040015186606001516137a790919063ffffffff16565b6137bd90919063ffffffff16565b9050600061125c6305f5e10061124e85856137a790919063ffffffff16565b6137bd90919063ffffffff16565b90506112758460800151826137d390919063ffffffff16565b945050505050919050565b6112a561128b612f2a565b848484604051806020016040528060008152506001613671565b505050565b600080600080600080606560009054906101000a900473ffffffffffffffffffffffffffffffffffffffff16606660009054906101000a900473ffffffffffffffffffffffffffffffffffffffff16606854607260009054906101000a900473ffffffffffffffffffffffffffffffffffffffff1673ffffffffffffffffffffffffffffffffffffffff16637eb0d8b16040518163ffffffff1660e01b815260040160206040518083038186803b15801561136457600080fd5b505afa158015611378573d6000803e3d6000fd5b505050506040513d601f19601f8201168201806040525081019061139c91906144e7565b6068546113a991906150e7565b606954606c54955095509550955095509550909192939495565b6000816113cf33610c89565b1015611410576040517f08c379a000000000000000000000000000000000000000000000000000000000815260040161140790614d8d565b60405180910390fd5b6000607460009054906101000a900473ffffffffffffffffffffffffffffffffffffffff1673ffffffffffffffffffffffffffffffffffffffff1663adc9772e33856040518363ffffffff1660e01b815260040161146f929190614b6a565b602060405180830381600087803b15801561148957600080fd5b505af115801561149d573d6000803e3d6000fd5b505050506040513d601f19601f820116820180604052508101906114c1919061446c565b905080156114f7576114f5607460009054906101000a900473ffffffffffffffffffffffffffffffffffffffff16846115e6565b505b80915050919050565b6000606660009054906101000a900473ffffffffffffffffffffffffffffffffffffffff1673ffffffffffffffffffffffffffffffffffffffff166323b872dd3330856040518463ffffffff1660e01b815260040161156193929190614aa9565b602060405180830381600087803b15801561157b57600080fd5b505af115801561158f573d6000803e3d6000fd5b505050506040513d601f19601f820116820180604052508101906115b3919061446c565b5060006115c033846137e9565b90506115d7836068546137d390919063ffffffff16565b60688190555080915050919050565b60008073ffffffffffffffffffffffffffffffffffffffff168373ffffffffffffffffffffffffffffffffffffffff161415611657576040517f08c379a000000000000000000000000000000000000000000000000000000000815260040161164e90614d6d565b60405180910390fd5b6000611661612f2a565b905061168f8182868660405180602001604052806000815250604051806020016040528060008152506130fd565b6116bb818286866040518060200160405280600081525060405180602001604052806000815250613273565b6116e98182868660405180602001604052806000815250604051806020016040528060008152506000613490565b600191505092915050565b3073ffffffffffffffffffffffffffffffffffffffff16607060009054906101000a900473ffffffffffffffffffffffffffffffffffffffff1673ffffffffffffffffffffffffffffffffffffffff1663081812fc836040518263ffffffff1660e01b81526004016117669190614ead565b60206040518083038186803b15801561177e57600080fd5b505afa158015611792573d6000803e3d6000fd5b505050506040513d601f19601f820116820180604052508101906117b69190614039565b73ffffffffffffffffffffffffffffffffffffffff161461180c576040517f08c379a000000000000000000000000000000000000000000000000000000000815260040161180390614e6d565b60405180910390fd5b3373ffffffffffffffffffffffffffffffffffffffff16607060009054906101000a900473ffffffffffffffffffffffffffffffffffffffff1673ffffffffffffffffffffffffffffffffffffffff16636352211e836040518263ffffffff1660e01b815260040161187e9190614ead565b60206040518083038186803b15801561189657600080fd5b505afa1580156118aa573d6000803e3d6000fd5b505050506040513d601f19601f820116820180604052508101906118ce9190614039565b73ffffffffffffffffffffffffffffffffffffffff1614611924576040517f08c379a000000000000000000000000000000000000000000000000000000000815260040161191b90614ced565b60405180910390fd5b6000607260009054906101000a900473ffffffffffffffffffffffffffffffffffffffff1673ffffffffffffffffffffffffffffffffffffffff16630c196a74856040518263ffffffff1660e01b81526004016119819190614ead565b60206040518083038186803b15801561199957600080fd5b505afa1580156119ad573d6000803e3d6000fd5b505050506040513d601f19601f820116820180604052508101906119d19190614495565b905082811115611a16576040517f08c379a0000000000000000000000000000000000000000000000000000000008152600401611a0d90614d2d565b60405180910390fd5b6000607060009054906101000a900473ffffffffffffffffffffffffffffffffffffffff1673ffffffffffffffffffffffffffffffffffffffff16636ebb668b846040518263ffffffff1660e01b8152600401611a739190614ead565b60206040518083038186803b158015611a8b57600080fd5b505afa158015611a9f573d6000803e3d6000fd5b505050506040513d601f19601f82011682018060405250810190611ac391906144e7565b905084811015611b08576040517f08c379a0000000000000000000000000000000000000000000000000000000008152600401611aff90614e4d565b60405180910390fd5b6000607160009054906101000a900473ffffffffffffffffffffffffffffffffffffffff1673ffffffffffffffffffffffffffffffffffffffff166315a2bf9e6040518163ffffffff1660e01b815260040160206040518083038186803b158015611b7257600080fd5b505afa158015611b86573d6000803e3d6000fd5b505050506040513d601f19601f82011682018060405250810190611baa91906144e7565b9050600080607060009054906101000a900473ffffffffffffffffffffffffffffffffffffffff1673ffffffffffffffffffffffffffffffffffffffff16634a293c52876040518263ffffffff1660e01b8152600401611c0a9190614ead565b60006040518083038186803b158015611c2257600080fd5b505afa158015611c36573d6000803e3d6000fd5b505050506040513d6000823e3d601f19601f82011682018060405250810190611c5f919061424b565b50505093509350505060005b8251811015611cdc57611cc7838281518110611cb0577f4e487b7100000000000000000000000000000000000000000000000000000000600052603260045260246000fd5b6020026020010151866137d390919063ffffffff16565b94508080611cd490615336565b915050611c6b565b5082611d0482611cf66064886137a790919063ffffffff16565b6137bd90919063ffffffff16565b10611d44576040517f08c379a0000000000000000000000000000000000000000000000000000000008152600401611d3b90614ccd565b60405180910390fd5b607060009054906101000a900473ffffffffffffffffffffffffffffffffffffffff1673ffffffffffffffffffffffffffffffffffffffff166342842e0e3330896040518463ffffffff1660e01b8152600401611da393929190614aa9565b600060405180830381600087803b158015611dbd57600080fd5b505af1158015611dd1573d6000803e3d6000fd5b5050505060006040518060c00160405280606c5481526020013373ffffffffffffffffffffffffffffffffffffffff1681526020018781526020018a815260200160008152602001428152509050606b8190806001815401808255809150506001900390600052602060002090600602016000909190919091506000820151816000015560208201518160010160006101000a81548173ffffffffffffffffffffffffffffffffffffffff021916908373ffffffffffffffffffffffffffffffffffffffff16021790555060408201518160020155606082015181600301556080820151816004015560a082015181600501555050606a60003373ffffffffffffffffffffffffffffffffffffffff1673ffffffffffffffffffffffffffffffffffffffff168152602001908152602001600020606c54908060018154018082558091505060019003906000526020600020016000909190919091505586606f6000606c54815260200190815260200160002081905550611f5e6001606c546137d390919063ffffffff16565b606c81905550611f79896069546137d390919063ffffffff16565b606981905550606660009054906101000a900473ffffffffffffffffffffffffffffffffffffffff1673ffffffffffffffffffffffffffffffffffffffff1663a9059cbb338b6040518363ffffffff1660e01b8152600401611fdc929190614b6a565b602060405180830381600087803b158015611ff657600080fd5b505af115801561200a573d6000803e3d6000fd5b505050506040513d601f19601f8201168201806040525081019061202e919061446c565b5061206e606560009054906101000a900473ffffffffffffffffffffffffffffffffffffffff1661206960c88c6137bd90919063ffffffff16565b6137e9565b506120ae607560009054906101000a900473ffffffffffffffffffffffffffffffffffffffff166120a960c88c6137bd90919063ffffffff16565b6137e9565b50505050505050505050565b600081905060006120ca84611101565b9050828111156121ed57606660009054906101000a900473ffffffffffffffffffffffffffffffffffffffff1673ffffffffffffffffffffffffffffffffffffffff166323b872dd3330866040518463ffffffff1660e01b815260040161213393929190614aa9565b602060405180830381600087803b15801561214d57600080fd5b505af1158015612161573d6000803e3d6000fd5b505050506040513d601f19601f82011682018060405250810190612185919061446c565b50612199838261379190919063ffffffff16565b606b85815481106121d3577f4e487b7100000000000000000000000000000000000000000000000000000000600052603260045260246000fd5b906000526020600020906006020160040181905550612708565b8091506000612205828561379190919063ffffffff16565b905080606b8681548110612242577f4e487b7100000000000000000000000000000000000000000000000000000000600052603260045260246000fd5b90600052602060002090600602016003015411156123d957606660009054906101000a900473ffffffffffffffffffffffffffffffffffffffff1673ffffffffffffffffffffffffffffffffffffffff166323b872dd3330876040518463ffffffff1660e01b81526004016122b993929190614aa9565b602060405180830381600087803b1580156122d357600080fd5b505af11580156122e7573d6000803e3d6000fd5b505050506040513d601f19601f8201168201806040525081019061230b919061446c565b506123218160695461379190919063ffffffff16565b60698190555061238581606b8781548110612365577f4e487b7100000000000000000000000000000000000000000000000000000000600052603260045260246000fd5b90600052602060002090600602016003015461379190919063ffffffff16565b606b86815481106123bf577f4e487b7100000000000000000000000000000000000000000000000000000000600052603260045260246000fd5b9060005260206000209060060201600301819055506126b5565b600061243983606b8881548110612419577f4e487b7100000000000000000000000000000000000000000000000000000000600052603260045260246000fd5b9060005260206000209060060201600301546137d390919063ffffffff16565b9050606660009054906101000a900473ffffffffffffffffffffffffffffffffffffffff1673ffffffffffffffffffffffffffffffffffffffff166323b872dd3330846040518463ffffffff1660e01b815260040161249a93929190614aa9565b602060405180830381600087803b1580156124b457600080fd5b505af11580156124c8573d6000803e3d6000fd5b505050506040513d601f19601f820116820180604052508101906124ec919061446c565b5061254d606b878154811061252a577f4e487b7100000000000000000000000000000000000000000000000000000000600052603260045260246000fd5b90600052602060002090600602016003015460695461379190919063ffffffff16565b6069819055506000606b878154811061258f577f4e487b7100000000000000000000000000000000000000000000000000000000600052603260045260246000fd5b906000526020600020906006020160030181905550607060009054906101000a900473ffffffffffffffffffffffffffffffffffffffff1673ffffffffffffffffffffffffffffffffffffffff166342842e0e30606b898154811061261d577f4e487b7100000000000000000000000000000000000000000000000000000000600052603260045260246000fd5b906000526020600020906006020160010160009054906101000a900473ffffffffffffffffffffffffffffffffffffffff16606f60008b8152602001908152602001600020546040518463ffffffff1660e01b815260040161268193929190614aa9565b600060405180830381600087803b15801561269b57600080fd5b505af11580156126af573d6000803e3d6000fd5b50505050505b6000606b86815481106126f1577f4e487b7100000000000000000000000000000000000000000000000000000000600052603260045260246000fd5b906000526020600020906006020160040181905550505b42606b8581548110612743577f4e487b7100000000000000000000000000000000000000000000000000000000600052603260045260246000fd5b90600052602060002090600602016005018190555061276d826068546137d390919063ffffffff16565b60688190555060006127fb60026127ed606b88815481106127b7577f4e487b7100000000000000000000000000000000000000000000000000000000600052603260045260246000fd5b9060005260206000209060060201600201546127df87620f42406137a790919063ffffffff16565b6137bd90919063ffffffff16565b6137bd90919063ffffffff16565b9050612829606560009054906101000a900473ffffffffffffffffffffffffffffffffffffffff16826137e9565b50612856607560009054906101000a900473ffffffffffffffffffffffffffffffffffffffff16826137e9565b505050505050565b60008173ffffffffffffffffffffffffffffffffffffffff168373ffffffffffffffffffffffffffffffffffffffff1614806129765750603860008473ffffffffffffffffffffffffffffffffffffffff1673ffffffffffffffffffffffffffffffffffffffff16815260200190815260200160002060009054906101000a900460ff1680156129755750603a60008373ffffffffffffffffffffffffffffffffffffffff1673ffffffffffffffffffffffffffffffffffffffff16815260200190815260200160002060008473ffffffffffffffffffffffffffffffffffffffff1673ffffffffffffffffffffffffffffffffffffffff16815260200190815260200160002060009054906101000a900460ff16155b5b80612a075750603960008373ffffffffffffffffffffffffffffffffffffffff1673ffffffffffffffffffffffffffffffffffffffff16815260200190815260200160002060008473ffffffffffffffffffffffffffffffffffffffff1673ffffffffffffffffffffffffffffffffffffffff16815260200190815260200160002060009054906101000a900460ff165b905092915050565b80612a1933610c89565b1015612a2457600080fd5b6000612a57612a31610834565b612a49620f42406068546137a790919063ffffffff16565b6137bd90919063ffffffff16565b90506000612a83620f4240612a7584866137a790919063ffffffff16565b6137bd90919063ffffffff16565b9050606954606854612a9591906151c8565b811115612aa157600080fd5b612acb3384604051806020016040528060008152506040518060200160405280600081525061388e565b612ae08160685461379190919063ffffffff16565b606881905550606660009054906101000a900473ffffffffffffffffffffffffffffffffffffffff1673ffffffffffffffffffffffffffffffffffffffff1663a9059cbb33836040518363ffffffff1660e01b8152600401612b43929190614b6a565b602060405180830381600087803b158015612b5d57600080fd5b505af1158015612b71573d6000803e3d6000fd5b505050506040513d601f19601f82011682018060405250810190612b95919061446c565b50505050565b6000603b60008473ffffffffffffffffffffffffffffffffffffffff1673ffffffffffffffffffffffffffffffffffffffff16815260200190815260200160002060008373ffffffffffffffffffffffffffffffffffffffff1673ffffffffffffffffffffffffffffffffffffffff16815260200190815260200160002054905092915050565b600080612c2e83611500565b9050612c39816113c3565b915050919050565b612c49612f2a565b73ffffffffffffffffffffffffffffffffffffffff168173ffffffffffffffffffffffffffffffffffffffff161415612cb7576040517f08c379a0000000000000000000000000000000000000000000000000000000008152600401612cae90614cad565b60405180910390fd5b603860008273ffffffffffffffffffffffffffffffffffffffff1673ffffffffffffffffffffffffffffffffffffffff16815260200190815260200160002060009054906101000a900460ff1615612daa576001603a6000612d17612f2a565b73ffffffffffffffffffffffffffffffffffffffff1673ffffffffffffffffffffffffffffffffffffffff16815260200190815260200160002060008373ffffffffffffffffffffffffffffffffffffffff1673ffffffffffffffffffffffffffffffffffffffff16815260200190815260200160002060006101000a81548160ff021916908315150217905550612e3e565b60396000612db6612f2a565b73ffffffffffffffffffffffffffffffffffffffff1673ffffffffffffffffffffffffffffffffffffffff16815260200190815260200160002060008273ffffffffffffffffffffffffffffffffffffffff1673ffffffffffffffffffffffffffffffffffffffff16815260200190815260200160002060006101000a81549060ff02191690555b612e46612f2a565b73ffffffffffffffffffffffffffffffffffffffff168173ffffffffffffffffffffffffffffffffffffffff167f50546e66e5f44d728365dc3908c63bc5cfeeab470722c1677e3073a6ac294aa160405160405180910390a350565b612eb3612ead612f2a565b8561285e565b612ef2576040517f08c379a0000000000000000000000000000000000000000000000000000000008152600401612ee990614dad565b60405180910390fd5b612efe8484848461388e565b50505050565b612f26612f0f612f2a565b83836040518060200160405280600081525061388e565b5050565b600033905090565b600073ffffffffffffffffffffffffffffffffffffffff168373ffffffffffffffffffffffffffffffffffffffff161415612fa2576040517f08c379a0000000000000000000000000000000000000000000000000000000008152600401612f9990614c0d565b60405180910390fd5b600073ffffffffffffffffffffffffffffffffffffffff168273ffffffffffffffffffffffffffffffffffffffff161415613012576040517f08c379a000000000000000000000000000000000000000000000000000000000815260040161300990614e8d565b60405180910390fd5b80603b60008573ffffffffffffffffffffffffffffffffffffffff1673ffffffffffffffffffffffffffffffffffffffff16815260200190815260200160002060008473ffffffffffffffffffffffffffffffffffffffff1673ffffffffffffffffffffffffffffffffffffffff168152602001908152602001600020819055508173ffffffffffffffffffffffffffffffffffffffff168373ffffffffffffffffffffffffffffffffffffffff167f8c5be1e5ebec7d5bd14f71427d1e84f3dd0314c0f7b2291e5b200ac8c7c3b925836040516130f09190614ead565b60405180910390a3505050565b6000731820a4b7618bde71dce8cdc73aab6c95905fad2473ffffffffffffffffffffffffffffffffffffffff1663aabbb8ca877f29ddb589b1fb5fc7cf394961c1adf5f8c6454761adf795e67fe149f658abe8956040518363ffffffff1660e01b815260040161316e929190614b41565b60206040518083038186803b15801561318657600080fd5b505afa15801561319a573d6000803e3d6000fd5b505050506040513d601f19601f820116820180604052508101906131be9190614039565b9050600073ffffffffffffffffffffffffffffffffffffffff168173ffffffffffffffffffffffffffffffffffffffff161461326a578073ffffffffffffffffffffffffffffffffffffffff166375ab97828888888888886040518763ffffffff1660e01b815260040161323796959493929190614a3a565b600060405180830381600087803b15801561325157600080fd5b505af1158015613265573d6000803e3d6000fd5b505050505b50505050505050565b61327f86868686613ae3565b6000603360008773ffffffffffffffffffffffffffffffffffffffff1673ffffffffffffffffffffffffffffffffffffffff16815260200190815260200160002054905083811015613306576040517f08c379a00000000000000000000000000000000000000000000000000000000081526004016132fd90614c4d565b60405180910390fd5b838103603360008873ffffffffffffffffffffffffffffffffffffffff1673ffffffffffffffffffffffffffffffffffffffff1681526020019081526020016000208190555083603360008773ffffffffffffffffffffffffffffffffffffffff1673ffffffffffffffffffffffffffffffffffffffff168152602001908152602001600020600082825461339b91906150e7565b925050819055508473ffffffffffffffffffffffffffffffffffffffff168673ffffffffffffffffffffffffffffffffffffffff168873ffffffffffffffffffffffffffffffffffffffff167f06b541ddaa720db2b10a4d0cdac39b8d360425fc073085fac19bc8261467798787878760405161341a93929190614f37565b60405180910390a48473ffffffffffffffffffffffffffffffffffffffff168673ffffffffffffffffffffffffffffffffffffffff167fddf252ad1be2c89b69c2b068fc378daa952ba7f163c4a11628f55a4df523b3ef8660405161347f9190614ead565b60405180910390a350505050505050565b6000731820a4b7618bde71dce8cdc73aab6c95905fad2473ffffffffffffffffffffffffffffffffffffffff1663aabbb8ca877fb281fc8c12954d22544db45de3159a39272895b169a852b314f9cc762e44c53b6040518363ffffffff1660e01b8152600401613501929190614b41565b60206040518083038186803b15801561351957600080fd5b505afa15801561352d573d6000803e3d6000fd5b505050506040513d601f19601f820116820180604052508101906135519190614039565b9050600073ffffffffffffffffffffffffffffffffffffffff168173ffffffffffffffffffffffffffffffffffffffff1614613600578073ffffffffffffffffffffffffffffffffffffffff166223de298989898989896040518763ffffffff1660e01b81526004016135c996959493929190614a3a565b600060405180830381600087803b1580156135e357600080fd5b505af11580156135f7573d6000803e3d6000fd5b50505050613667565b8115613666576136258673ffffffffffffffffffffffffffffffffffffffff16613ae9565b15613665576040517f08c379a000000000000000000000000000000000000000000000000000000000815260040161365c90614d4d565b60405180910390fd5b5b5b5050505050505050565b600073ffffffffffffffffffffffffffffffffffffffff168673ffffffffffffffffffffffffffffffffffffffff1614156136e1576040517f08c379a00000000000000000000000000000000000000000000000000000000081526004016136d890614c2d565b60405180910390fd5b600073ffffffffffffffffffffffffffffffffffffffff168573ffffffffffffffffffffffffffffffffffffffff161415613751576040517f08c379a000000000000000000000000000000000000000000000000000000000815260040161374890614e2d565b60405180910390fd5b600061375b612f2a565b905061376b8188888888886130fd565b613779818888888888613273565b61378881888888888888613490565b50505050505050565b6000818361379f91906151c8565b905092915050565b600081836137b5919061516e565b905092915050565b600081836137cb919061513d565b905092915050565b600081836137e191906150e7565b905092915050565b60008060685414156138275761381f83836040518060200160405280600081525060405180602001604052806000815250613afc565b819050613888565b600061385760685461384961383a610834565b866137a790919063ffffffff16565b6137bd90919063ffffffff16565b905061388384826040518060200160405280600081525060405180602001604052806000815250613afc565b809150505b92915050565b600073ffffffffffffffffffffffffffffffffffffffff168473ffffffffffffffffffffffffffffffffffffffff1614156138fe576040517f08c379a00000000000000000000000000000000000000000000000000000000081526004016138f590614c6d565b60405180910390fd5b6000613908612f2a565b9050613919818660008787876130fd565b6139268186600087613ae3565b6000603360008773ffffffffffffffffffffffffffffffffffffffff1673ffffffffffffffffffffffffffffffffffffffff168152602001908152602001600020549050848110156139ad576040517f08c379a00000000000000000000000000000000000000000000000000000000081526004016139a490614e0d565b60405180910390fd5b848103603360008873ffffffffffffffffffffffffffffffffffffffff1673ffffffffffffffffffffffffffffffffffffffff168152602001908152602001600020819055508460346000828254613a0591906151c8565b925050819055508573ffffffffffffffffffffffffffffffffffffffff168273ffffffffffffffffffffffffffffffffffffffff167fa78a9be3a7b862d26933ad85fb11d80ef66b8f972d7cbba06621d583943a4098878787604051613a6d93929190614f37565b60405180910390a3600073ffffffffffffffffffffffffffffffffffffffff168673ffffffffffffffffffffffffffffffffffffffff167fddf252ad1be2c89b69c2b068fc378daa952ba7f163c4a11628f55a4df523b3ef87604051613ad39190614ead565b60405180910390a3505050505050565b50505050565b600080823b905060008111915050919050565b613b0a848484846001613b10565b50505050565b600073ffffffffffffffffffffffffffffffffffffffff168573ffffffffffffffffffffffffffffffffffffffff161415613b80576040517f08c379a0000000000000000000000000000000000000000000000000000000008152600401613b7790614d0d565b60405180910390fd5b6000613b8a612f2a565b9050613b998160008888613ae3565b8460346000828254613bab91906150e7565b9250508190555084603360008873ffffffffffffffffffffffffffffffffffffffff1673ffffffffffffffffffffffffffffffffffffffff1681526020019081526020016000206000828254613c0191906150e7565b92505081905550613c188160008888888888613490565b8573ffffffffffffffffffffffffffffffffffffffff168173ffffffffffffffffffffffffffffffffffffffff167f2fe5be0146f74c5bce36c0b80911af6c7d86ff27e89d5cfa61fc681327954e5d878787604051613c7993929190614f37565b60405180910390a38573ffffffffffffffffffffffffffffffffffffffff16600073ffffffffffffffffffffffffffffffffffffffff167fddf252ad1be2c89b69c2b068fc378daa952ba7f163c4a11628f55a4df523b3ef87604051613cdf9190614ead565b60405180910390a3505050505050565b828054828255906000526020600020908101928215613d68579160200282015b82811115613d675782518260006101000a81548173ffffffffffffffffffffffffffffffffffffffff021916908373ffffffffffffffffffffffffffffffffffffffff16021790555091602001919060010190613d0f565b5b509050613d759190613d79565b5090565b5b80821115613d92576000816000905550600101613d7a565b5090565b6000613da9613da484614fbc565b614f97565b90508083825260208201905082856020860282011115613dc857600080fd5b60005b85811015613df85781613dde8882613eea565b845260208401935060208301925050600181019050613dcb565b5050509392505050565b6000613e15613e1084614fe8565b614f97565b90508083825260208201905082856020860282011115613e3457600080fd5b60005b85811015613e645781613e4a8882613ffb565b845260208401935060208301925050600181019050613e37565b5050509392505050565b6000613e81613e7c84615014565b614f97565b905082815260208101848484011115613e9957600080fd5b613ea4848285615291565b509392505050565b6000613ebf613eba84615045565b614f97565b905082815260208101848484011115613ed757600080fd5b613ee28482856152a0565b509392505050565b600081359050613ef9816159bd565b92915050565b600081519050613f0e816159bd565b92915050565b600082601f830112613f2557600080fd5b8135613f35848260208601613d96565b91505092915050565b600082601f830112613f4f57600080fd5b8151613f5f848260208601613e02565b91505092915050565b600081519050613f77816159d4565b92915050565b600082601f830112613f8e57600080fd5b8135613f9e848260208601613e6e565b91505092915050565b600081519050613fb6816159eb565b92915050565b600082601f830112613fcd57600080fd5b8151613fdd848260208601613eac565b91505092915050565b600081359050613ff581615a02565b92915050565b60008151905061400a81615a02565b92915050565b60006020828403121561402257600080fd5b600061403084828501613eea565b91505092915050565b60006020828403121561404b57600080fd5b600061405984828501613eff565b91505092915050565b6000806040838503121561407557600080fd5b600061408385828601613eea565b925050602061409485828601613eea565b9150509250929050565b6000806000606084860312156140b357600080fd5b60006140c186828701613eea565b93505060206140d286828701613eea565b92505060406140e386828701613fe6565b9150509250925092565b6000806000806080858703121561410357600080fd5b600061411187828801613eea565b945050602061412287828801613eea565b935050604061413387828801613fe6565b925050606085013567ffffffffffffffff81111561415057600080fd5b61415c87828801613f7d565b91505092959194509250565b600080600080600060a0868803121561418057600080fd5b600061418e88828901613eea565b955050602061419f88828901613eea565b94505060406141b088828901613fe6565b935050606086013567ffffffffffffffff8111156141cd57600080fd5b6141d988828901613f7d565b925050608086013567ffffffffffffffff8111156141f657600080fd5b61420288828901613f7d565b9150509295509295909350565b6000806040838503121561422257600080fd5b600061423085828601613eea565b925050602061424185828601613fe6565b9150509250929050565b600080600080600080600060e0888a03121561426657600080fd5b60006142748a828b01613eff565b97505060206142858a828b01613ffb565b965050604088015167ffffffffffffffff8111156142a257600080fd5b6142ae8a828b01613f3e565b95505060606142bf8a828b01613ffb565b945050608088015167ffffffffffffffff8111156142dc57600080fd5b6142e88a828b01613fbc565b93505060a06142f98a828b01613ffb565b92505060c088015167ffffffffffffffff81111561431657600080fd5b6143228a828b01613fbc565b91505092959891949750929550565b60008060006060848603121561434657600080fd5b600061435486828701613eea565b935050602061436586828701613fe6565b925050604084013567ffffffffffffffff81111561438257600080fd5b61438e86828701613f7d565b9150509250925092565b600080600080608085870312156143ae57600080fd5b60006143bc87828801613eea565b94505060206143cd87828801613fe6565b935050604085013567ffffffffffffffff8111156143ea57600080fd5b6143f687828801613f7d565b925050606085013567ffffffffffffffff81111561441357600080fd5b61441f87828801613f7d565b91505092959194509250565b60006020828403121561443d57600080fd5b600082013567ffffffffffffffff81111561445757600080fd5b61446384828501613f14565b91505092915050565b60006020828403121561447e57600080fd5b600061448c84828501613f68565b91505092915050565b6000602082840312156144a757600080fd5b60006144b584828501613fa7565b91505092915050565b6000602082840312156144d057600080fd5b60006144de84828501613fe6565b91505092915050565b6000602082840312156144f957600080fd5b600061450784828501613ffb565b91505092915050565b6000806040838503121561452357600080fd5b600061453185828601613fe6565b925050602083013567ffffffffffffffff81111561454e57600080fd5b61455a85828601613f7d565b9150509250929050565b6000806040838503121561457757600080fd5b600061458585828601613fe6565b925050602061459685828601613fe6565b9150509250929050565b6000806000606084860312156145b557600080fd5b60006145c386828701613fe6565b93505060206145d486828701613fe6565b92505060406145e586828701613fe6565b9150509250925092565b60006145fb8383614607565b60208301905092915050565b614610816151fc565b82525050565b61461f816151fc565b82525050565b600061463082615086565b61463a81856150b4565b935061464583615076565b8060005b8381101561467657815161465d88826145ef565b9750614668836150a7565b925050600181019050614649565b5085935050505092915050565b61468c8161520e565b82525050565b61469b8161521a565b82525050565b6146aa81615224565b82525050565b60006146bb82615091565b6146c581856150c5565b93506146d58185602086016152a0565b6146de8161543b565b840191505092915050565b60006146f48261509c565b6146fe81856150d6565b935061470e8185602086016152a0565b6147178161543b565b840191505092915050565b600061472f6025836150d6565b915061473a8261544c565b604082019050919050565b60006147526022836150d6565b915061475d8261549b565b604082019050919050565b60006147756027836150d6565b9150614780826154ea565b604082019050919050565b60006147986022836150d6565b91506147a382615539565b604082019050919050565b60006147bb6024836150d6565b91506147c682615588565b604082019050919050565b60006147de6021836150d6565b91506147e9826155d7565b604082019050919050565b6000614801600c836150d6565b915061480c82615626565b602082019050919050565b60006148246018836150d6565b915061482f8261564f565b602082019050919050565b60006148476020836150d6565b915061485282615678565b602082019050919050565b600061486a601d836150d6565b9150614875826156a1565b602082019050919050565b600061488d604d836150d6565b9150614898826156ca565b606082019050919050565b60006148b06024836150d6565b91506148bb8261573f565b604082019050919050565b60006148d36013836150d6565b91506148de8261578e565b602082019050919050565b60006148f6602c836150d6565b9150614901826157b7565b604082019050919050565b60006149196029836150d6565b915061492482615806565b604082019050919050565b600061493c6026836150d6565b915061494782615855565b604082019050919050565b600061495f6023836150d6565b915061496a826158a4565b604082019050919050565b60006149826020836150d6565b915061498d826158f3565b602082019050919050565b60006149a5601a836150d6565b91506149b08261591c565b602082019050919050565b60006149c8601d836150d6565b91506149d382615945565b602082019050919050565b60006149eb6023836150d6565b91506149f68261596e565b604082019050919050565b614a0a8161527a565b82525050565b614a1981615284565b82525050565b6000602082019050614a346000830184614616565b92915050565b600060c082019050614a4f6000830189614616565b614a5c6020830188614616565b614a696040830187614616565b614a766060830186614a01565b8181036080830152614a8881856146b0565b905081810360a0830152614a9c81846146b0565b9050979650505050505050565b6000606082019050614abe6000830186614616565b614acb6020830185614616565b614ad86040830184614a01565b949350505050565b600060c082019050614af56000830189614616565b614b026020830188614616565b614b0f6040830187614a01565b614b1c6060830186614a01565b614b296080830185614a01565b614b3660a0830184614a01565b979650505050505050565b6000604082019050614b566000830185614616565b614b636020830184614692565b9392505050565b6000604082019050614b7f6000830185614616565b614b8c6020830184614a01565b9392505050565b60006020820190508181036000830152614bad8184614625565b905092915050565b6000602082019050614bca6000830184614683565b92915050565b6000602082019050614be560008301846146a1565b92915050565b60006020820190508181036000830152614c0581846146e9565b905092915050565b60006020820190508181036000830152614c2681614722565b9050919050565b60006020820190508181036000830152614c4681614745565b9050919050565b60006020820190508181036000830152614c6681614768565b9050919050565b60006020820190508181036000830152614c868161478b565b9050919050565b60006020820190508181036000830152614ca6816147ae565b9050919050565b60006020820190508181036000830152614cc6816147d1565b9050919050565b60006020820190508181036000830152614ce6816147f4565b9050919050565b60006020820190508181036000830152614d0681614817565b9050919050565b60006020820190508181036000830152614d268161483a565b9050919050565b60006020820190508181036000830152614d468161485d565b9050919050565b60006020820190508181036000830152614d6681614880565b9050919050565b60006020820190508181036000830152614d86816148a3565b9050919050565b60006020820190508181036000830152614da6816148c6565b9050919050565b60006020820190508181036000830152614dc6816148e9565b9050919050565b60006020820190508181036000830152614de68161490c565b9050919050565b60006020820190508181036000830152614e068161492f565b9050919050565b60006020820190508181036000830152614e2681614952565b9050919050565b60006020820190508181036000830152614e4681614975565b9050919050565b60006020820190508181036000830152614e6681614998565b9050919050565b60006020820190508181036000830152614e86816149bb565b9050919050565b60006020820190508181036000830152614ea6816149de565b9050919050565b6000602082019050614ec26000830184614a01565b92915050565b600060e082019050614edd600083018a614a01565b614eea6020830189614616565b614ef76040830188614a01565b614f046060830187614a01565b614f116080830186614a01565b614f1e60a0830185614a01565b614f2b60c0830184614a01565b98975050505050505050565b6000606082019050614f4c6000830186614a01565b8181036020830152614f5e81856146b0565b90508181036040830152614f7281846146b0565b9050949350505050565b6000602082019050614f916000830184614a10565b92915050565b6000614fa1614fb2565b9050614fad8282615305565b919050565b6000604051905090565b600067ffffffffffffffff821115614fd757614fd661540c565b5b602082029050602081019050919050565b600067ffffffffffffffff8211156150035761500261540c565b5b602082029050602081019050919050565b600067ffffffffffffffff82111561502f5761502e61540c565b5b6150388261543b565b9050602081019050919050565b600067ffffffffffffffff8211156150605761505f61540c565b5b6150698261543b565b9050602081019050919050565b6000819050602082019050919050565b600081519050919050565b600081519050919050565b600081519050919050565b6000602082019050919050565b600082825260208201905092915050565b600082825260208201905092915050565b600082825260208201905092915050565b60006150f28261527a565b91506150fd8361527a565b9250827fffffffffffffffffffffffffffffffffffffffffffffffffffffffffffffffff038211156151325761513161537f565b5b828201905092915050565b60006151488261527a565b91506151538361527a565b925082615163576151626153ae565b5b828204905092915050565b60006151798261527a565b91506151848361527a565b9250817fffffffffffffffffffffffffffffffffffffffffffffffffffffffffffffffff04831182151516156151bd576151bc61537f565b5b828202905092915050565b60006151d38261527a565b91506151de8361527a565b9250828210156151f1576151f061537f565b5b828203905092915050565b60006152078261525a565b9050919050565b60008115159050919050565b6000819050919050565b60007fffffffff0000000000000000000000000000000000000000000000000000000082169050919050565b6000819050919050565b600073ffffffffffffffffffffffffffffffffffffffff82169050919050565b6000819050919050565b600060ff82169050919050565b82818337600083830152505050565b60005b838110156152be5780820151818401526020810190506152a3565b838111156152cd576000848401525b50505050565b600060028204905060018216806152eb57607f821691505b602082108114156152ff576152fe6153dd565b5b50919050565b61530e8261543b565b810181811067ffffffffffffffff8211171561532d5761532c61540c565b5b80604052505050565b60006153418261527a565b91507fffffffffffffffffffffffffffffffffffffffffffffffffffffffffffffffff8214156153745761537361537f565b5b600182019050919050565b7f4e487b7100000000000000000000000000000000000000000000000000000000600052601160045260246000fd5b7f4e487b7100000000000000000000000000000000000000000000000000000000600052601260045260246000fd5b7f4e487b7100000000000000000000000000000000000000000000000000000000600052602260045260246000fd5b7f4e487b7100000000000000000000000000000000000000000000000000000000600052604160045260246000fd5b6000601f19601f8301169050919050565b7f4552433737373a20617070726f76652066726f6d20746865207a65726f20616460008201527f6472657373000000000000000000000000000000000000000000000000000000602082015250565b7f4552433737373a2073656e642066726f6d20746865207a65726f20616464726560008201527f7373000000000000000000000000000000000000000000000000000000000000602082015250565b7f4552433737373a207472616e7366657220616d6f756e7420657863656564732060008201527f62616c616e636500000000000000000000000000000000000000000000000000602082015250565b7f4552433737373a206275726e2066726f6d20746865207a65726f20616464726560008201527f7373000000000000000000000000000000000000000000000000000000000000602082015250565b7f4552433737373a20617574686f72697a696e672073656c66206173206f70657260008201527f61746f7200000000000000000000000000000000000000000000000000000000602082015250565b7f4552433737373a207265766f6b696e672073656c66206173206f70657261746f60008201527f7200000000000000000000000000000000000000000000000000000000000000602082015250565b7f4c545620746f6f20686967680000000000000000000000000000000000000000600082015250565b7f6d73672e73656e646572206e6f7420656767206f776e65720000000000000000600082015250565b7f4552433737373a206d696e7420746f20746865207a65726f2061646472657373600082015250565b7f696e7465726573742072617465206e6f206c6f6e67657220617661696c000000600082015250565b7f4552433737373a20746f6b656e20726563697069656e7420636f6e747261637460008201527f20686173206e6f20696d706c656d656e74657220666f7220455243373737546f60208201527f6b656e73526563697069656e7400000000000000000000000000000000000000604082015250565b7f4552433737373a207472616e7366657220746f20746865207a65726f2061646460008201527f7265737300000000000000000000000000000000000000000000000000000000602082015250565b7f6e6f7420656e6f75676820746f207374616b6500000000000000000000000000600082015250565b7f4552433737373a2063616c6c6572206973206e6f7420616e206f70657261746f60008201527f7220666f7220686f6c6465720000000000000000000000000000000000000000602082015250565b7f4552433737373a207472616e7366657220616d6f756e7420657863656564732060008201527f616c6c6f77616e63650000000000000000000000000000000000000000000000602082015250565b7f4552433737373a207472616e736665722066726f6d20746865207a65726f206160008201527f6464726573730000000000000000000000000000000000000000000000000000602082015250565b7f4552433737373a206275726e20616d6f756e7420657863656564732062616c6160008201527f6e63650000000000000000000000000000000000000000000000000000000000602082015250565b7f4552433737373a2073656e6420746f20746865207a65726f2061646472657373600082015250565b7f6c6f616e206c61726765722074686174206567672076616c7565000000000000600082015250565b7f706f6f6c206e6f7420617070726f76656420746f206d6f766520656767000000600082015250565b7f4552433737373a20617070726f766520746f20746865207a65726f206164647260008201527f6573730000000000000000000000000000000000000000000000000000000000602082015250565b6159c6816151fc565b81146159d157600080fd5b50565b6159dd8161520e565b81146159e857600080fd5b50565b6159f481615250565b81146159ff57600080fd5b50565b615a0b8161527a565b8114615a1657600080fd5b5056fea26469706673582212200146bc0ee23fc9740ba3d1335290c54de8dea8a28e9ceeec0396319db84d912264736f6c63430008040033",
  "immutableReferences": {},
  "source": "// contracts/Pool5.sol\n// updated from Pool4  to split origination fee between servicer and guardian\n// SPDX-License-Identifier: MIT\npragma solidity ^0.8.4;\n\nimport \"./../../node_modules/@openzeppelin/contracts-upgradeable/proxy/utils/Initializable.sol\";\nimport \"./../../node_modules/@openzeppelin/contracts-upgradeable/token/ERC777/ERC777Upgradeable.sol\";\nimport './../../node_modules/@openzeppelin/contracts-upgradeable/token/ERC20/IERC20Upgradeable.sol';\nimport './../PropTokens/PropToken0.sol';\nimport './../LTVGuidelines.sol';\nimport './../PoolUtils/PoolUtils0.sol';\nimport './../PoolStaking/PoolStaking0.sol';\n\nimport \"./../../node_modules/@openzeppelin/contracts-upgradeable/token/ERC721/IERC721ReceiverUpgradeable.sol\";\nimport './../../node_modules/@openzeppelin/contracts/utils/math/SafeMath.sol';\nimport './../../node_modules/@openzeppelin/contracts/utils/math/SignedSafeMath.sol';\n\ncontract Pool5 is Initializable, ERC777Upgradeable, IERC721ReceiverUpgradeable {\n    using SignedSafeMath for int256;\n    using SafeMath for uint256;\n\n    struct Loan{\n        uint256 loanId;\n        address borrower;\n        uint256 interestRate;\n        uint256 principal;\n        uint256 interestAccrued;\n        uint256 timeLastPayment;\n    }\n\n    address servicer;\n    address ERCAddress;\n    address[] servicerAddresses;\n    /* Adding a variable above this line (not reflected in Pool0) will cause contract storage conflicts */\n\n    uint256 poolLent;\n    uint256 poolBorrowed;\n    mapping(address => uint256[]) userLoans;\n    Loan[] loans;\n    uint256 loanCount;\n\n    uint constant servicerFeePercentage = 1000000;\n    uint constant baseInterestPercentage = 1000000;\n    uint constant curveK = 120000000;\n\n    /* Pool1 variables introduced here */\n    string private _name;\n    string private _symbol;\n    mapping(uint256 => uint256) loanToPropToken;\n    address propTokenContractAddress;\n\n    /* Pool2 variables introduced here */\n    address LTVOracleAddress;\n\n    /* Pool3 variables introduced here */\n    address poolUtilsAddress;\n    address baconCoinAddress;\n    address poolStakingAddress;\n\n    /* Pool 5 variables introduced here */\n    address daoAddress;\n\n\n    /*****************************************************\n    *       POOL STRUCTURE / UPGRADABILITY FUNCTIONS\n    ******************************************************/\n\n    function initializePoolFive(address _daoAddress) public {\n        require(msg.sender == servicer);\n        daoAddress = _daoAddress;\n    }\n\n    function name() public view override returns (string memory) {\n        return _name;\n    }\n\n    function symbol() public view override returns(string memory) {\n        return _symbol;\n    }\n\n    function decimals() public pure override returns(uint8) {\n        return 6;\n    }\n    \n    /** \n    *   @dev Function setApprovedAddresses() updates the array of addresses approved by the servicer\n    *   @param _servicerAddresses The array of addresses to be set as approved for borrowing\n    */\n    function setApprovedAddresses(address[] memory _servicerAddresses) public {\n        require(msg.sender == servicer);\n\n        servicerAddresses = _servicerAddresses;\n    }\n\n    /** \n    *   @dev Function setApprovedAddresses() is an internal function that checks the array of approved addresses for the given address\n    *   @param _address The address to be checked if it is approved\n    *   @return isApproved is if the _addess is found in the list of servicerAddresses\n    */\n    function isApprovedServicer(address _address) internal view returns (bool) {\n        bool isApproved = false;\n        \n        for (uint i = 0; i < servicerAddresses.length; i++) {\n            if(_address == servicerAddresses[i]) {\n                isApproved = true;\n            }\n        }\n\n        return isApproved;\n    }\n\n    /*****************************************************\n    *                GETTER FUNCTIONS\n    ******************************************************/\n    /**\n    *   @dev Function getContractData() returns a lot of variables about the contract\n    */\n    function getContractData() public view returns (address, address, uint256, uint256, uint256, uint256) {\n        return (servicer, ERCAddress, poolLent, (poolLent + PoolUtils0(poolUtilsAddress).getPoolInterestAccrued()), poolBorrowed, loanCount);\n    }\n\n    /*\n    *   @dev Function getLoanCount() returns how many active loans there are\n    */ \n    function getLoanCount() public view returns (uint256) {\n        return loanCount;\n    }\n\n    /**  \n    *   @dev Function getSupplyableTokenAddress() returns the contract address of ERC20 this pool accepts (ususally USDC)\n    */\n    function getSupplyableTokenAddress() public view returns (address) {\n        return ERCAddress;\n    }\n\n    /**  \n    *   @dev Function getServicerAddress() returns the address of this pool's servicer\n    */\n    function getServicerAddress() public view returns (address) {\n        return servicer;\n    } \n\n    /**  \n    *   @dev Function getLoanDetails() returns an all the raw details about a loan\n    *   @param loanId is the id for the loan we're looking up\n    *   EDITED in pool1 to also return PropToken ID\n    */\n    function getLoanDetails(uint256 loanId) public view returns (uint256, address, uint256, uint256, uint256, uint256, uint256) {\n        Loan memory loan = loans[loanId];\n        //temp interestAccrued calculation because this is a read function\n        uint256 interestAccrued = getLoanAccruedInterest(loanId);\n        uint256 propTokenID = loanToPropToken[loanId];\n        return (loan.loanId, loan.borrower, loan.interestRate, loan.principal, interestAccrued, loan.timeLastPayment, propTokenID);\n    }\n\n    /**  \n    *   @dev Function getLoanAccruedInterest() calculates and returns the amount of interest accrued on a given loan\n    *   @param loanId is the id for the loan we're looking up\n    */\n    function getLoanAccruedInterest(uint256 loanId) public view returns (uint256) {\n        Loan memory loan = loans[loanId];\n        uint256 secondsSincePayment = block.timestamp.sub(loan.timeLastPayment);\n\n        uint256 interestPerSecond = loan.principal.mul(loan.interestRate).div(31622400);\n        uint256 interestAccrued = interestPerSecond.mul(secondsSincePayment).div(100000000);\n        return interestAccrued.add(loan.interestAccrued);\n    }   \n\n\n    /*****************************************************\n    *                LENDING/BORROWING FUNCTIONS\n    ******************************************************/\n\n    /**  \n    *   @dev Function mintProportionalPoolTokens calculates how many new hc_pool tokens to mint when value is added to the pool based on proportional value\n    *   @param recepient The address of the wallet receiving the newly minted hc_pool tokens\n    *   @param amount The amount to be minted\n    */\n    function mintProportionalPoolTokens(address recepient, uint256 amount) private returns (uint256) {\n        //check if this is first deposit\n        if (poolLent == 0) {\n            super._mint(recepient, amount, \"\", \"\");\n            return amount;\n        } else {\n            //Calculate proportional to total value (including interest)\n            uint256 new_hc_pool = amount.mul(super.totalSupply()).div(poolLent);\n            super._mint(recepient, new_hc_pool, \"\", \"\");\n            return new_hc_pool;\n        }\n    }\n\n    /**  \n    *   @dev Function lend moves assets on the (probably usdc) contract to our own balance\n    *   - Before calling: an approve(address _spender (proxy), uint256 _value (0xffff)) function call must be made on remote contract\n    *   @param amount The amount of USDC to be transferred\n    *   @return the amount of poolTokens created\n    */\n    function lend(\n        uint256 amount\n    ) public returns (uint256) {\n        //USDC on Ropsten only right now\n        IERC20Upgradeable(ERCAddress).transferFrom(msg.sender, address(this), amount);\n        uint256 newTokensMinted = mintProportionalPoolTokens(msg.sender, amount);\n        poolLent = poolLent.add(amount);\n\n        return newTokensMinted;\n    }\n\n    /**  \n    *   @dev Function redeem burns the sender's hcPool tokens and transfers the usdc back to them\n    *   @param amount The amount of hc_pool to be redeemed\n    */\n    function redeem(\n        uint256 amount\n    ) public {\n        //check to see if sender has enough hc_pool to redeem\n        require(balanceOf(msg.sender) >= amount);\n\n        //check to make sure there is liquidity available in the pool to withdraw\n        uint256 tokenPrice = poolLent.mul(1000000).div(super.totalSupply());\n        uint256 erc20ValueOfTokens = amount.mul(tokenPrice).div(1000000);\n        require(erc20ValueOfTokens <= (poolLent - poolBorrowed));\n\n        //burn hcPool first\n        super._burn(msg.sender, amount, \"\", \"\");\n        poolLent = poolLent.sub(erc20ValueOfTokens);\n        IERC20Upgradeable(ERCAddress).transfer(msg.sender, erc20ValueOfTokens);\n    }\n\n    /**  \n    *   @dev Function borrow creates a new Loan, moves the USDC to Borrower, and returns the loan ID and fixed Interest Rate\n    *   - Also creates an origination fee for the Servicer in HC_Pool\n    *   @param amount The size of the potential loan in (probably usdc).\n    *   @param maxRate The size of the potential loan in (probably usdc).\n    *   EDITED in pool1 to also require a PropToken\n    *   EDITED in pool1 - borrower param was removed and msg.sender is new recepient of USDC\n    *   EDITED in pool2 - propToken data is oulled and LTV of loan is required before loan can process\n    */\n    function borrow(uint256 amount, uint256 maxRate, uint256 propTokenId) public {\n        //for v2 require this address is approved to transfer propToken \n        require(PropToken0(propTokenContractAddress).getApproved(propTokenId) == address(this), \"pool not approved to move egg\");\n        //also require msg.sender is owner of token\n        require(PropToken0(propTokenContractAddress).ownerOf(propTokenId) == msg.sender, \"msg.sender not egg owner\");\n\n        //check the requested interest rate is still available\n        uint256 fixedInterestRate = uint256(PoolUtils0(poolUtilsAddress).getInterestRate(amount));\n        require(fixedInterestRate <= maxRate, \"interest rate no longer avail\");\n\n        //require the propToken approved has a lien value less than or equal to the requested loan size\n        uint256 lienAmount = PropToken0(propTokenContractAddress).getLienValue(propTokenId);\n        require(lienAmount >= amount, \"loan larger that egg value\");\n\n        //require that LTV of propToken is less than LTV required by oracle\n        uint256 LTVRequirement = LTVGuidelines(LTVOracleAddress).getMaxLTV();\n        (, , uint256[] memory SeniorLiens, uint256 HomeValue, , ,) = PropToken0(propTokenContractAddress).getPropTokenData(propTokenId);\n        for (uint i = 0; i < SeniorLiens.length; i++) {  \n            lienAmount = lienAmount.add(SeniorLiens[i]);\n        }\n        require(lienAmount.mul(100).div(HomeValue) < LTVRequirement, \"LTV too high\");\n\n\n        //first take the propToken\n        PropToken0(propTokenContractAddress).safeTransferFrom(msg.sender, address(this), propTokenId);\n\n        //create new Loan\n        Loan memory newLoan = Loan(loanCount, msg.sender, fixedInterestRate, amount, 0, block.timestamp);\n        loans.push(newLoan);\n        userLoans[msg.sender].push(loanCount);\n\n        //map new loanID to Token ID\n        loanToPropToken[loanCount] = propTokenId;\n\n        //update system variables\n        loanCount = loanCount.add(1);\n        poolBorrowed = poolBorrowed.add(amount);\n\n        //finally move the USDC\n        IERC20Upgradeable(ERCAddress).transfer(msg.sender, amount);\n\n        //then mint HC_Pool for the servicer (fixed 1% origination is better than standard 2.5%)\n        mintProportionalPoolTokens(servicer, amount.div(200));\n        //and mint HC_Pool for the DAO\n        mintProportionalPoolTokens(daoAddress, amount.div(200));\n    }\n    \n    /**  \n    *   @dev Function repay repays a specific loan\n    *   - payment is first deducted from the interest then principal. \n    *   - the servicer_fee is deducted from the interest repayment and servicer is compensated in hc_pool\n    *   - repayer must have first approved fromsfers on behalf \n    *   @param loanId The loan to be repayed\n    *   @param amount The amount of the ERC20 token to repay the loan with\n    *   EDITED - Pool1 returns propToken when principal reaches 0\n    */\n\n    function repay(uint256 loanId, uint256 amount) public {        \n        //interestAmountRepayed keeps track of how much of the loan was returned to the pool to calculate servicer fee(treated as cash investment)\n        uint256 interestAmountRepayed = amount;\n\n        uint256 currentInterest = getLoanAccruedInterest(loanId);\n        if(currentInterest > amount) {\n            //if the payment is less than the interest accrued on the loan, just deduct amount from interest\n            //deduct amount FIRST (to make sure they have available balance), then reduce loan amount\n            IERC20Upgradeable(ERCAddress).transferFrom(msg.sender, address(this), amount);\n            loans[loanId].interestAccrued = currentInterest.sub(amount);\n        } else {\n            //if the amount borrow is repaying is greater than interest accrued, deduct the rest from principal\n            interestAmountRepayed = currentInterest;\n            uint256 amountAfterInterest = amount.sub(currentInterest);\n            \n            if(loans[loanId].principal > amountAfterInterest) {\n                //deduct amount from Borrower and reduce the principal\n                IERC20Upgradeable(ERCAddress).transferFrom(msg.sender, address(this), amount);\n                //return the repayed principal to the 'borrowable' amount\n                poolBorrowed = poolBorrowed.sub(amountAfterInterest);\n                loans[loanId].principal = loans[loanId].principal.sub(amountAfterInterest);\n            } else {\n                //deduct totalLoanValue\n                uint256 totalLoanValue = loans[loanId].principal.add(currentInterest);\n                IERC20Upgradeable(ERCAddress).transferFrom(msg.sender, address(this), totalLoanValue);\n                //return the repayed principal to the 'borrowable' amount\n                poolBorrowed = poolBorrowed.sub(loans[loanId].principal);\n                loans[loanId].principal = 0;\n                //Send PropToken back to borrower\n                PropToken0(propTokenContractAddress).safeTransferFrom(address(this), loans[loanId].borrower, loanToPropToken[loanId]);\n            }\n\n            //set interest accrued to 0 AFTER successful erc20 transfer\n            loans[loanId].interestAccrued = 0;\n        }\n\n        //last payment timestamp is only updated AFTER  successful erc20 transfer\n        loans[loanId].timeLastPayment = block.timestamp;\n\n        //treat repayed interest as new money Lent into the pool\n        poolLent = poolLent.add(interestAmountRepayed);\n\n        //servicer fee is treated as cash investment in the pool as the percentage interest\n        //in Pool5 fee is split in two and divided between servicer and DAO\n        uint256 servicerFeeInERC = servicerFeePercentage.mul(interestAmountRepayed).div(loans[loanId].interestRate).div(2);\n        mintProportionalPoolTokens(servicer, servicerFeeInERC);\n        mintProportionalPoolTokens(daoAddress, servicerFeeInERC);\n    }\n\n    /*****************************************************\n    *                Staking FUNCTIONS\n    ******************************************************/\n\n    /**  \n    *   @dev Function stake transfers users bHOME to the poolStaking contract\n    */\n    function stake(uint256 amount) public returns (bool) {\n        require(balanceOf(msg.sender) >= amount, \"not enough to stake\");\n\n        bool successfulStake = PoolStaking0(poolStakingAddress).stake(msg.sender, amount);\n        if(successfulStake) {\n            transfer(poolStakingAddress, amount);\n        }\n\n        return successfulStake;\n    }\n\n    /**  \n    *   @dev Function lendAndStake calls both the Lend and Stake functions in one call\n    *   @param amount is amount of USDC to be deposited\n    *   @return the bool from stake that reprents successful stake\n    */\n    function lendAndStake(uint256 amount) public returns (bool) {\n        uint256 newPoolTokens = lend(amount);\n        return stake(newPoolTokens);\n    }\n\n    /**  \n    *   @dev Function getVersion returns current upgraded version\n    */\n    function getVersion() public pure returns (uint) {\n        return 5;\n    }\n\n    function onERC721Received(address, address, uint256, bytes memory ) public pure override returns (bytes4) {\n        return this.onERC721Received.selector;\n    }\n}",
  "sourcePath": "/Users/zane/code/loansnap/HomeDAO/contracts/PoolCore/Pool5.sol",
  "compiler": {
    "name": "solc",
    "version": "0.8.4+commit.c7e474f2.Emscripten.clang"
  },
  "schemaVersion": "3.4.1",
  "updatedAt": "2022-03-03T15:26:22.005Z",
  "devdoc": {
    "kind": "dev",
    "methods": {
      "allowance(address,address)": {
        "details": "See {IERC20-allowance}. Note that operator and allowance concepts are orthogonal: operators may not have allowance, and accounts with allowance may not be operators themselves."
      },
      "approve(address,uint256)": {
        "details": "See {IERC20-approve}. Note that accounts cannot have allowance issued by their operators."
      },
      "authorizeOperator(address)": {
        "details": "See {IERC777-authorizeOperator}."
      },
      "balanceOf(address)": {
        "details": "Returns the amount of tokens owned by an account (`tokenHolder`)."
      },
      "borrow(uint256,uint256,uint256)": {
        "details": "Function borrow creates a new Loan, moves the USDC to Borrower, and returns the loan ID and fixed Interest Rate   - Also creates an origination fee for the Servicer in HC_Pool",
        "params": {
          "amount": "The size of the potential loan in (probably usdc).",
          "maxRate": "The size of the potential loan in (probably usdc).   EDITED in pool1 to also require a PropToken   EDITED in pool1 - borrower param was removed and msg.sender is new recepient of USDC   EDITED in pool2 - propToken data is oulled and LTV of loan is required before loan can process"
        }
      },
      "burn(uint256,bytes)": {
        "details": "See {IERC777-burn}. Also emits a {IERC20-Transfer} event for ERC20 compatibility."
      },
      "decimals()": {
        "details": "See {ERC20-decimals}. Always returns 18, as per the [ERC777 EIP](https://eips.ethereum.org/EIPS/eip-777#backward-compatibility)."
      },
      "defaultOperators()": {
        "details": "See {IERC777-defaultOperators}."
      },
      "getContractData()": {
        "details": "Function getContractData() returns a lot of variables about the contract"
      },
      "getLoanAccruedInterest(uint256)": {
        "details": "Function getLoanAccruedInterest() calculates and returns the amount of interest accrued on a given loan",
        "params": {
          "loanId": "is the id for the loan we're looking up"
        }
      },
      "getLoanDetails(uint256)": {
        "details": "Function getLoanDetails() returns an all the raw details about a loan",
        "params": {
          "loanId": "is the id for the loan we're looking up   EDITED in pool1 to also return PropToken ID"
        }
      },
      "getServicerAddress()": {
        "details": "Function getServicerAddress() returns the address of this pool's servicer"
      },
      "getSupplyableTokenAddress()": {
        "details": "Function getSupplyableTokenAddress() returns the contract address of ERC20 this pool accepts (ususally USDC)"
      },
      "getVersion()": {
        "details": "Function getVersion returns current upgraded version"
      },
      "granularity()": {
        "details": "See {IERC777-granularity}. This implementation always returns `1`."
      },
      "isOperatorFor(address,address)": {
        "details": "See {IERC777-isOperatorFor}."
      },
      "lend(uint256)": {
        "details": "Function lend moves assets on the (probably usdc) contract to our own balance   - Before calling: an approve(address _spender (proxy), uint256 _value (0xffff)) function call must be made on remote contract",
        "params": {
          "amount": "The amount of USDC to be transferred"
        },
        "returns": {
          "_0": "the amount of poolTokens created"
        }
      },
      "lendAndStake(uint256)": {
        "details": "Function lendAndStake calls both the Lend and Stake functions in one call",
        "params": {
          "amount": "is amount of USDC to be deposited"
        },
        "returns": {
          "_0": "the bool from stake that reprents successful stake"
        }
      },
      "name()": {
        "details": "See {IERC777-name}."
      },
      "operatorBurn(address,uint256,bytes,bytes)": {
        "details": "See {IERC777-operatorBurn}. Emits {Burned} and {IERC20-Transfer} events."
      },
      "operatorSend(address,address,uint256,bytes,bytes)": {
        "details": "See {IERC777-operatorSend}. Emits {Sent} and {IERC20-Transfer} events."
      },
      "redeem(uint256)": {
        "details": "Function redeem burns the sender's hcPool tokens and transfers the usdc back to them",
        "params": {
          "amount": "The amount of hc_pool to be redeemed"
        }
      },
      "repay(uint256,uint256)": {
        "details": "Function repay repays a specific loan   - payment is first deducted from the interest then principal.    - the servicer_fee is deducted from the interest repayment and servicer is compensated in hc_pool   - repayer must have first approved fromsfers on behalf ",
        "params": {
          "amount": "The amount of the ERC20 token to repay the loan with   EDITED - Pool1 returns propToken when principal reaches 0",
          "loanId": "The loan to be repayed"
        }
      },
      "revokeOperator(address)": {
        "details": "See {IERC777-revokeOperator}."
      },
      "send(address,uint256,bytes)": {
        "details": "See {IERC777-send}. Also emits a {IERC20-Transfer} event for ERC20 compatibility."
      },
      "setApprovedAddresses(address[])": {
        "details": "Function setApprovedAddresses() updates the array of addresses approved by the servicer",
        "params": {
          "_servicerAddresses": "The array of addresses to be set as approved for borrowing"
        }
      },
      "stake(uint256)": {
        "details": "Function stake transfers users bHOME to the poolStaking contract"
      },
      "symbol()": {
        "details": "See {IERC777-symbol}."
      },
      "totalSupply()": {
        "details": "See {IERC777-totalSupply}."
      },
      "transfer(address,uint256)": {
        "details": "See {IERC20-transfer}. Unlike `send`, `recipient` is _not_ required to implement the {IERC777Recipient} interface if it is a contract. Also emits a {Sent} event."
      },
      "transferFrom(address,address,uint256)": {
        "details": "See {IERC20-transferFrom}. Note that operator and allowance concepts are orthogonal: operators cannot call `transferFrom` (unless they have allowance), and accounts with allowance cannot call `operatorSend` (unless they are operators). Emits {Sent}, {IERC20-Transfer} and {IERC20-Approval} events."
      }
    },
    "version": 1
  },
  "userdoc": {
    "kind": "user",
    "methods": {},
    "version": 1
  }
}