{
  "contractName": "PoolStakingRewards6",
  "abi": [
    {
      "anonymous": false,
      "inputs": [
        {
          "indexed": true,
          "internalType": "address",
          "name": "user",
          "type": "address"
        },
        {
          "indexed": true,
          "internalType": "uint128",
          "name": "epochId",
          "type": "uint128"
        },
        {
          "indexed": false,
          "internalType": "uint256",
          "name": "amount",
          "type": "uint256"
        }
      ],
      "name": "Harvest",
      "type": "event"
    },
    {
      "anonymous": false,
      "inputs": [
        {
          "indexed": true,
          "internalType": "address",
          "name": "user",
          "type": "address"
        },
        {
          "indexed": false,
          "internalType": "uint256",
          "name": "epochsHarvested",
          "type": "uint256"
        },
        {
          "indexed": false,
          "internalType": "uint256",
          "name": "totalValue",
          "type": "uint256"
        }
      ],
      "name": "MassHarvest",
      "type": "event"
    },
    {
      "inputs": [],
      "name": "epochDuration",
      "outputs": [
        {
          "internalType": "uint256",
          "name": "",
          "type": "uint256"
        }
      ],
      "stateMutability": "view",
      "type": "function"
    },
    {
      "inputs": [],
      "name": "epochStart",
      "outputs": [
        {
          "internalType": "uint256",
          "name": "",
          "type": "uint256"
        }
      ],
      "stateMutability": "view",
      "type": "function"
    },
    {
      "inputs": [],
      "name": "lastInitializedEpoch",
      "outputs": [
        {
          "internalType": "uint128",
          "name": "",
          "type": "uint128"
        }
      ],
      "stateMutability": "view",
      "type": "function"
    },
    {
      "inputs": [
        {
          "internalType": "address",
          "name": "_guardianAddress",
          "type": "address"
        }
      ],
      "name": "setGuardianAddress",
      "outputs": [],
      "stateMutability": "nonpayable",
      "type": "function"
    },
    {
      "inputs": [
        {
          "internalType": "address",
          "name": "_DAOAddress",
          "type": "address"
        }
      ],
      "name": "setDAOAddress",
      "outputs": [],
      "stateMutability": "nonpayable",
      "type": "function"
    },
    {
      "inputs": [
        {
          "internalType": "uint256",
          "name": "newPerEpoch",
          "type": "uint256"
        }
      ],
      "name": "setPerEpoch",
      "outputs": [],
      "stateMutability": "nonpayable",
      "type": "function"
    },
    {
      "inputs": [
        {
          "internalType": "address",
          "name": "newMinter",
          "type": "address"
        }
      ],
      "name": "transferMintRights",
      "outputs": [],
      "stateMutability": "nonpayable",
      "type": "function"
    },
    {
      "inputs": [
        {
          "internalType": "address",
          "name": "poolAddress",
          "type": "address"
        }
      ],
      "name": "approvePool",
      "outputs": [],
      "stateMutability": "nonpayable",
      "type": "function"
    },
    {
      "inputs": [
        {
          "internalType": "address",
          "name": "poolAddress",
          "type": "address"
        }
      ],
      "name": "revokePool",
      "outputs": [],
      "stateMutability": "nonpayable",
      "type": "function"
    },
    {
      "inputs": [
        {
          "internalType": "address",
          "name": "poolAddress",
          "type": "address"
        }
      ],
      "name": "approveSubMinter",
      "outputs": [],
      "stateMutability": "nonpayable",
      "type": "function"
    },
    {
      "inputs": [
        {
          "internalType": "address",
          "name": "poolAddress",
          "type": "address"
        }
      ],
      "name": "revokeSubMinter",
      "outputs": [],
      "stateMutability": "nonpayable",
      "type": "function"
    },
    {
      "inputs": [
        {
          "internalType": "address",
          "name": "wallet",
          "type": "address"
        },
        {
          "internalType": "uint256",
          "name": "amount",
          "type": "uint256"
        }
      ],
      "name": "stake",
      "outputs": [
        {
          "internalType": "bool",
          "name": "",
          "type": "bool"
        }
      ],
      "stateMutability": "nonpayable",
      "type": "function"
    },
    {
      "inputs": [
        {
          "internalType": "uint256",
          "name": "amount",
          "type": "uint256"
        }
      ],
      "name": "unstake",
      "outputs": [],
      "stateMutability": "nonpayable",
      "type": "function"
    },
    {
      "inputs": [
        {
          "internalType": "address",
          "name": "wallet",
          "type": "address"
        },
        {
          "internalType": "uint256",
          "name": "amount",
          "type": "uint256"
        }
      ],
      "name": "unstakeForWallet",
      "outputs": [],
      "stateMutability": "nonpayable",
      "type": "function"
    },
    {
      "inputs": [
        {
          "internalType": "uint256",
          "name": "amount",
          "type": "uint256"
        },
        {
          "internalType": "address",
          "name": "from",
          "type": "address"
        },
        {
          "internalType": "address",
          "name": "to",
          "type": "address"
        }
      ],
      "name": "transferStake",
      "outputs": [],
      "stateMutability": "nonpayable",
      "type": "function"
    },
    {
      "inputs": [
        {
          "internalType": "address",
          "name": "account",
          "type": "address"
        },
        {
          "internalType": "uint256",
          "name": "amount",
          "type": "uint256"
        }
      ],
      "name": "subMint",
      "outputs": [],
      "stateMutability": "nonpayable",
      "type": "function"
    },
    {
      "inputs": [
        {
          "internalType": "address",
          "name": "wallet",
          "type": "address"
        }
      ],
      "name": "massHarvest",
      "outputs": [
        {
          "internalType": "uint256",
          "name": "",
          "type": "uint256"
        }
      ],
      "stateMutability": "nonpayable",
      "type": "function"
    },
    {
      "inputs": [
        {
          "internalType": "address",
          "name": "wallet",
          "type": "address"
        },
        {
          "internalType": "uint128",
          "name": "epochId",
          "type": "uint128"
        }
      ],
      "name": "harvest",
      "outputs": [
        {
          "internalType": "uint256",
          "name": "",
          "type": "uint256"
        }
      ],
      "stateMutability": "nonpayable",
      "type": "function"
    },
    {
      "inputs": [],
      "name": "getTotalEpochs",
      "outputs": [
        {
          "internalType": "uint256",
          "name": "",
          "type": "uint256"
        }
      ],
      "stateMutability": "view",
      "type": "function"
    },
    {
      "inputs": [],
      "name": "getRewardPerEpoch",
      "outputs": [
        {
          "internalType": "uint256",
          "name": "",
          "type": "uint256"
        }
      ],
      "stateMutability": "view",
      "type": "function"
    },
    {
      "inputs": [
        {
          "internalType": "uint128",
          "name": "epochId",
          "type": "uint128"
        }
      ],
      "name": "getPoolSize",
      "outputs": [
        {
          "internalType": "uint256",
          "name": "",
          "type": "uint256"
        }
      ],
      "stateMutability": "view",
      "type": "function"
    },
    {
      "inputs": [],
      "name": "getCurrentEpoch",
      "outputs": [
        {
          "internalType": "uint256",
          "name": "",
          "type": "uint256"
        }
      ],
      "stateMutability": "view",
      "type": "function"
    },
    {
      "inputs": [
        {
          "internalType": "address",
          "name": "userAddress",
          "type": "address"
        },
        {
          "internalType": "uint128",
          "name": "epochId",
          "type": "uint128"
        }
      ],
      "name": "getEpochStake",
      "outputs": [
        {
          "internalType": "uint256",
          "name": "",
          "type": "uint256"
        }
      ],
      "stateMutability": "view",
      "type": "function"
    },
    {
      "inputs": [
        {
          "internalType": "address",
          "name": "userAddress",
          "type": "address"
        }
      ],
      "name": "getCurrentEpochStake",
      "outputs": [
        {
          "internalType": "uint256",
          "name": "",
          "type": "uint256"
        }
      ],
      "stateMutability": "view",
      "type": "function"
    },
    {
      "inputs": [
        {
          "internalType": "address",
          "name": "userAddress",
          "type": "address"
        }
      ],
      "name": "getCurrentBalance",
      "outputs": [
        {
          "internalType": "uint256",
          "name": "",
          "type": "uint256"
        }
      ],
      "stateMutability": "view",
      "type": "function"
    },
    {
      "inputs": [],
      "name": "userLastEpochIdHarvested",
      "outputs": [
        {
          "internalType": "uint256",
          "name": "",
          "type": "uint256"
        }
      ],
      "stateMutability": "view",
      "type": "function"
    },
    {
      "inputs": [
        {
          "internalType": "address",
          "name": "wallet",
          "type": "address"
        },
        {
          "internalType": "uint256",
          "name": "userReward",
          "type": "uint256"
        }
      ],
      "name": "mintBacon",
      "outputs": [],
      "stateMutability": "nonpayable",
      "type": "function"
    },
    {
      "inputs": [
        {
          "internalType": "address",
          "name": "wallet",
          "type": "address"
        }
      ],
      "name": "getAndClearReward",
      "outputs": [
        {
          "internalType": "uint256",
          "name": "",
          "type": "uint256"
        }
      ],
      "stateMutability": "nonpayable",
      "type": "function"
    }
  ],
  "bytecode": "0x608060405234801561001057600080fd5b50611ab0806100206000396000f3fe608060405234801561001057600080fd5b50600436106101c45760003560e01c806399d9c56d116100f9578063ba17cef311610097578063dbe0090c11610071578063dbe0090c146103a4578063e1466bc2146103b7578063f65bb79c146103ca578063f7e251f8146103dd57600080fd5b8063ba17cef31461036b578063bc36b07a1461037e578063d3834e801461039157600080fd5b8063a1c130d4116100d3578063a1c130d41461030f578063a70dba7c1461032d578063adc9772e14610340578063b97dd9e21461036357600080fd5b806399d9c56d146102be5780639a2daa0a146102d15780639c7ec881146102e457600080fd5b806343312451116101665780634ff0876a116101405780634ff0876a1461027c5780636a7b408b146102855780636ae3e75b14610298578063965afa89146102ab57600080fd5b8063433124511461024e578063440277e8146102615780634cb0482f1461027457600080fd5b80631d4b449a116101a25780631d4b449a1461020b5780632e17de78146102135780632e41249814610228578063424c265b1461023b57600080fd5b80630e020b25146101c957806311fe3345146101ef57806315e5a1e514610202575b600080fd5b6101dc6101d7366004611856565b6103f0565b6040519081526020015b60405180910390f35b6101dc6101fd366004611856565b6105f9565b6101dc600b5481565b6007546101dc565b610226610221366004611871565b610612565b005b61022661023636600461188a565b61065a565b610226610249366004611856565b610738565b6101dc61025c3660046118cb565b6107c4565b6101dc61026f366004611856565b6107d7565b600c546101dc565b6101dc600a5481565b61022661029336600461188a565b610880565b6102266102a6366004611856565b610901565b6102266102b9366004611856565b61098a565b6102266102cc366004611856565b610a6d565b6101dc6102df366004611856565b610af9565b6008546102f7906001600160801b031681565b6040516001600160801b0390911681526020016101e6565b336000908152600960205260409020546001600160801b03166101dc565b61022661033b36600461188a565b610bf0565b61035361034e36600461188a565b610c58565b60405190151581526020016101e6565b6101dc610d63565b610226610379366004611856565b610d7b565b61022661038c3660046118fe565b610e5e565b61022661039f366004611871565b610f6d565b6102266103b2366004611856565b610fcc565b6101dc6103c53660046118cb565b6110af565b6102266103d8366004611856565b6113a3565b6101dc6103eb36600461193a565b61142c565b3360009081526003602052604081205460ff166104685760405162461bcd60e51b815260206004820152602b60248201527f506f6f6c5374616b696e67526577617264733a206d757374206265206170707260448201526a37bb32b21039b2b73232b960a91b60648201526084015b60405180910390fd5b6000610472611437565b6001600160801b03166104885750600092915050565b60006104a66001610497611437565b6001600160801b03169061147a565b9050600c548111156104b75750600c545b6001600160a01b0384166000908152600960205260408120546104e4906001600160801b0316600161196b565b90505b81816001600160801b03161161051f576105018582611486565b61050b9084611996565b925080610517816119ae565b9150506104e7565b506001600160a01b0384166000818152600960205260409020547fb68dafc1da13dc868096d0b87347c831d0bda92d178317eb1dec7f788444485c9061056e906001600160801b0316846119d5565b60408051918252602082018690520160405180910390a281156105f2576001546040516340c10f1960e01b81526001600160a01b03868116600483015260248201859052909116906340c10f1990604401600060405180830381600087803b1580156105d957600080fd5b505af11580156105ed573d6000803e3d6000fd5b505050505b5092915050565b600061060c82610607611437565b61159f565b92915050565b60405162461bcd60e51b815260206004820152600b60248201527f6e6f7420616c6c6f776564000000000000000000000000000000000000000000604482015260640161045f565b336000908152600e602052604090205460ff166106cd5760405162461bcd60e51b815260206004820152602b60248201527f506f6f6c5374616b696e67526577617264733a206d757374206265206170707260448201526a37bb32b21039b2b73232b960a91b606482015260840161045f565b6001546040516340c10f1960e01b81526001600160a01b03848116600483015260248201849052909116906340c10f19906044015b600060405180830381600087803b15801561071c57600080fd5b505af1158015610730573d6000803e3d6000fd5b505050505050565b6004546001600160a01b031633146107a05760405162461bcd60e51b815260206004820152602560248201527f506f6f6c5374616b696e67526577617264733a20756e617070726f766564207360448201526432b73232b960d91b606482015260840161045f565b6001600160a01b03166000908152600360205260409020805460ff19166001179055565b60006107d0838361159f565b9392505050565b600254600080546040517ff7888aec0000000000000000000000000000000000000000000000000000000081526001600160a01b03858116600483015262010000909204821660248201529192169063f7888aec906044015b60206040518083038186803b15801561084857600080fd5b505afa15801561085c573d6000803e3d6000fd5b505050506040513d601f19601f8201168201806040525081019061060c91906119ec565b3360009081526003602052604090205460ff166108f35760405162461bcd60e51b815260206004820152602b60248201527f506f6f6c5374616b696e67526577617264733a206d757374206265206170707260448201526a37bb32b21039b2b73232b960a91b606482015260840161045f565b6108fd828261166a565b5050565b6004546001600160a01b031633146109695760405162461bcd60e51b815260206004820152602560248201527f506f6f6c5374616b696e67526577617264733a20756e617070726f766564207360448201526432b73232b960d91b606482015260840161045f565b6001600160a01b03166000908152600360205260409020805460ff19169055565b6004546001600160a01b031633146109f25760405162461bcd60e51b815260206004820152602560248201527f506f6f6c5374616b696e67526577617264733a20756e617070726f766564207360448201526432b73232b960d91b606482015260840161045f565b600580546001600160a01b03908116600090815260096020526040808220549490921680825291902080546fffffffffffffffffffffffffffffffff19166001600160801b039094169390931790925580547fffffffffffffffffffffffff0000000000000000000000000000000000000000169091179055565b6004546001600160a01b03163314610ad55760405162461bcd60e51b815260206004820152602560248201527f506f6f6c5374616b696e67526577617264733a20756e617070726f766564207360448201526432b73232b960d91b606482015260840161045f565b6001600160a01b03166000908152600e60205260409020805460ff19166001179055565b3360009081526003602052604081205460ff16610b6c5760405162461bcd60e51b815260206004820152602b60248201527f506f6f6c5374616b696e67526577617264733a206d757374206265206170707260448201526a37bb32b21039b2b73232b960a91b606482015260840161045f565b6002546000546040517f4a0c8ce60000000000000000000000000000000000000000000000000000000081526001600160a01b0385811660048301526201000090920482166024820152911690634a0c8ce690604401602060405180830381600087803b158015610bdc57600080fd5b505af115801561085c573d6000803e3d6000fd5b600d546001600160a01b031633146106cd5760405162461bcd60e51b815260206004820152602560248201527f506f6f6c5374616b696e67526577617264733a20756e617070726f766564207360448201526432b73232b960d91b606482015260840161045f565b3360009081526003602052604081205460ff16610ccb5760405162461bcd60e51b815260206004820152602b60248201527f506f6f6c5374616b696e67526577617264733a206d757374206265206170707260448201526a37bb32b21039b2b73232b960a91b606482015260840161045f565b6002546000546040517f8340f5490000000000000000000000000000000000000000000000000000000081526001600160a01b036201000090920482166004820152858216602482015260448101859052911690638340f54990606401600060405180830381600087803b158015610d4257600080fd5b505af1158015610d56573d6000803e3d6000fd5b5060019695505050505050565b6000610d6d611437565b6001600160801b0316905090565b6004546001600160a01b03163314610de35760405162461bcd60e51b815260206004820152602560248201527f506f6f6c5374616b696e67526577617264733a20756e617070726f766564207360448201526432b73232b960d91b606482015260840161045f565b6001546040517f9dd373b90000000000000000000000000000000000000000000000000000000081526001600160a01b03838116600483015290911690639dd373b990602401600060405180830381600087803b158015610e4357600080fd5b505af1158015610e57573d6000803e3d6000fd5b5050505050565b3360009081526003602052604090205460ff16610ed15760405162461bcd60e51b815260206004820152602b60248201527f506f6f6c5374616b696e67526577617264733a206d757374206265206170707260448201526a37bb32b21039b2b73232b960a91b606482015260840161045f565b6002546000546040517fa6c4e4670000000000000000000000000000000000000000000000000000000081526001600160a01b036201000090920482166004820152602481018690528482166044820152838216606482015291169063a6c4e46790608401600060405180830381600087803b158015610f5057600080fd5b505af1158015610f64573d6000803e3d6000fd5b50505050505050565b6004546001600160a01b03163314610fc75760405162461bcd60e51b815260206004820152601160248201527f756e617070726f7665642073656e646572000000000000000000000000000000604482015260640161045f565b600755565b6004546001600160a01b031633146110345760405162461bcd60e51b815260206004820152602560248201527f506f6f6c5374616b696e67526577617264733a20756e617070726f766564207360448201526432b73232b960d91b606482015260840161045f565b600480546001600160a01b03908116600090815260096020526040808220549490921680825291902080546fffffffffffffffffffffffffffffffff19166001600160801b039094169390931790925580547fffffffffffffffffffffffff0000000000000000000000000000000000000000169091179055565b3360009081526003602052604081205460ff166111225760405162461bcd60e51b815260206004820152602b60248201527f506f6f6c5374616b696e67526577617264733a206d757374206265206170707260448201526a37bb32b21039b2b73232b960a91b606482015260840161045f565b816001600160801b0316611134611437565b6001600160801b0316116111b05760405162461bcd60e51b815260206004820152602f60248201527f506f6f6c5374616b696e67526577617264733a20546869732065706f6368206960448201527f7320696e20746865206675747572650000000000000000000000000000000000606482015260840161045f565b600c54826001600160801b031611156112315760405162461bcd60e51b815260206004820152603260248201527f506f6f6c5374616b696e67526577617264733a204d6178696d756d206e756d6260448201527f6572206f662065706f6368732069732031320000000000000000000000000000606482015260840161045f565b6001600160a01b0383166000908152600960205260409020546001600160801b0380841691611262911660016116cc565b146112d45760405162461bcd60e51b8152602060048201526024808201527f506f6f6c5374616b696e67526577617264733a204861727665737420696e206f60448201527f7264657200000000000000000000000000000000000000000000000000000000606482015260840161045f565b60006112e08484611486565b9050801561134f576001546040516340c10f1960e01b81526001600160a01b03868116600483015260248201849052909116906340c10f1990604401600060405180830381600087803b15801561133657600080fd5b505af115801561134a573d6000803e3d6000fd5b505050505b826001600160801b0316846001600160a01b03167f04ad45a69eeed9c390c3a678fed2d4b90bde98e742de9936d5e0915bf3d0ea4e8360405161139491815260200190565b60405180910390a39392505050565b6004546001600160a01b0316331461140b5760405162461bcd60e51b815260206004820152602560248201527f506f6f6c5374616b696e67526577617264733a20756e617070726f766564207360448201526432b73232b960d91b606482015260840161045f565b6001600160a01b03166000908152600e60205260409020805460ff19169055565b600061060c826116d8565b6000600b544210156114495750600090565b611475600161146f600a54611469600b544261147a90919063ffffffff16565b9061173c565b906116cc565b905090565b60006107d082846119d5565b6008546000906001600160801b03808416911610156114a8576114a882611748565b6001600160a01b03838116600081815260096020526040902080546fffffffffffffffffffffffffffffffff19166001600160801b0386161790556005549091161415611500575069e6874aeb4a14a200000061060c565b6004546001600160a01b038481169116141561152857506a01f37a77a875d75f00000061060c565b6006826001600160801b03168154811061154457611544611a05565b90600052602060002001546000141561155f5750600061060c565b6107d06006836001600160801b03168154811061157e5761157e611a05565b9060005260206000200154611469611596868661159f565b6007549061182e565b6002546000805490916001600160a01b0390811691638c028dd091869162010000900416856040517fffffffff0000000000000000000000000000000000000000000000000000000060e086901b1681526001600160a01b0393841660048201529290911660248301526001600160801b0316604482015260640160206040518083038186803b15801561163257600080fd5b505afa158015611646573d6000803e3d6000fd5b505050506040513d601f19601f820116820180604052508101906107d091906119ec565b6002546000546040517fd9caed120000000000000000000000000000000000000000000000000000000081526001600160a01b03620100009092048216600482015284821660248201526044810184905291169063d9caed1290606401610702565b60006107d08284611996565b600254600080546040517f2ca32d7e0000000000000000000000000000000000000000000000000000000081526001600160a01b0362010000909204821660048201526001600160801b038516602482015291921690632ca32d7e90604401610830565b60006107d08284611a1b565b6008546001600160801b0380831691611763911660016116cc565b146117d65760405162461bcd60e51b815260206004820152603360248201527f506f6f6c5374616b696e67526577617264733a2045706f63682063616e20626560448201527f20696e6974206f6e6c7920696e206f7264657200000000000000000000000000606482015260840161045f565b600880546fffffffffffffffffffffffffffffffff19166001600160801b038316179055611803816116d8565b6006826001600160801b03168154811061181f5761181f611a05565b60009182526020909120015550565b60006107d08284611a3d565b80356001600160a01b038116811461185157600080fd5b919050565b60006020828403121561186857600080fd5b6107d08261183a565b60006020828403121561188357600080fd5b5035919050565b6000806040838503121561189d57600080fd5b6118a68361183a565b946020939093013593505050565b80356001600160801b038116811461185157600080fd5b600080604083850312156118de57600080fd5b6118e78361183a565b91506118f5602084016118b4565b90509250929050565b60008060006060848603121561191357600080fd5b833592506119236020850161183a565b91506119316040850161183a565b90509250925092565b60006020828403121561194c57600080fd5b6107d0826118b4565b634e487b7160e01b600052601160045260246000fd5b60006001600160801b0380831681851680830382111561198d5761198d611955565b01949350505050565b600082198211156119a9576119a9611955565b500190565b60006001600160801b03808316818114156119cb576119cb611955565b6001019392505050565b6000828210156119e7576119e7611955565b500390565b6000602082840312156119fe57600080fd5b5051919050565b634e487b7160e01b600052603260045260246000fd5b600082611a3857634e487b7160e01b600052601260045260246000fd5b500490565b6000817fffffffffffffffffffffffffffffffffffffffffffffffffffffffffffffffff0483118215151615611a7557611a75611955565b50029056fea2646970667358221220ac5c35deedbe13af45cf935d8c62579f61285987a732d830ce51342abef7641264736f6c63430008090033",
  "immutableReferences": {},
  "source": "// SPDX-License-Identifier: Apache-2.0\n\n// Changes:\n// 1. Separated the bond token address from the pool token address so that the pool can hold bHome and reward Bacon.\n//    Though I suppose this makes it not a very good bond...\n\npragma solidity ^0.8.4;\n\nimport './../@openzeppelin/contracts/utils/math/SafeMath.sol';\nimport \"./../@openzeppelin/contracts/token/ERC20/IERC20.sol\";\nimport \"./../Staking/IStaking.sol\";\nimport \"./../Staking/Staking4.sol\";\nimport \"./../@openzeppelin/contracts-upgradeable/proxy/utils/Initializable.sol\";\nimport \"./../BaconCoin/BaconCoin3.sol\";\n\n\ncontract PoolStakingRewards6 is Initializable {\n\n    // lib\n    using SafeMath for uint;\n    using SafeMath for uint128;\n\n    // Per epoch rewards\n    uint256 constant GUARDIAN_REWARD = 2_358_720e18;\n    uint256 constant DAO_REWARD = 1_088_640e18;\n\n    // constants\n    // end of year one rewards was block 15651074\n    // airdrop_ends_block_number (from airdrop script) was: 14127375\n    // year one reward per block: 100 Bacon\n    // total remaining rewards for year 1 = 100 * (endOfYearOneBlock - rewardsAirdropBlock)\n    // = 100 * (15651074-14127375)\n    // uint public constant TOTAL_DISTRIBUTED_AMOUNT = 152369900;\n    // There are roughly 19 weeks left in our 1 year rewards term\n    // starting the 19th of May 2022\n    // uint public constant NR_OF_EPOCHS = 19;\n    // uint128 public constant EPOCHS_DELAYED_FROM_STAKING_CONTRACT = 0;\n\n    // state variables\n\n    // addresses\n    address private _poolTokenAddress;\n    // contracts\n    BaconCoin3 private _bacon;\n    IStaking private _staking;\n    // TODO: maybe private?\n    mapping(address => bool) isApprovedPool;\n    address guardianAddress;\n    address daoAddress;\n\n\n    uint[] private epochs;\n    uint private _totalAmountPerEpoch;\n    uint128 public lastInitializedEpoch;\n    mapping(address => uint128) private lastEpochIdHarvested;\n    uint public epochDuration; // init from staking contract\n    uint public epochStart; // init from staking contract\n    uint private _numberOfEpochs;\n\n    /* PoolStakingRewards1 Variables */\n    address airdropContract;\n\n    /* PoolStakingRewards6 Variables */\n    mapping(address => bool) isApprovedSubMinter;\n\n    // events\n    event MassHarvest(address indexed user, uint256 epochsHarvested, uint256 totalValue);\n    event Harvest(address indexed user, uint128 indexed epochId, uint256 amount);\n\n    function setGuardianAddress(address _guardianAddress) public {\n        require(msg.sender == guardianAddress, \"PoolStakingRewards: unapproved sender\");\n        lastEpochIdHarvested[_guardianAddress] =  lastEpochIdHarvested[guardianAddress];\n        guardianAddress = _guardianAddress;\n    }\n\n    // To be called after baconCoin0 is deployed\n    function setDAOAddress(address _DAOAddress) public {\n        require(msg.sender == guardianAddress, \"PoolStakingRewards: unapproved sender\");\n        lastEpochIdHarvested[_DAOAddress] =  lastEpochIdHarvested[daoAddress];\n        daoAddress = _DAOAddress;\n    }\n\n    function setPerEpoch(uint newPerEpoch) public {\n        require(msg.sender == guardianAddress, \"unapproved sender\");\n        _totalAmountPerEpoch = newPerEpoch;\n    }\n\n    function transferMintRights(address newMinter) public {\n        require(msg.sender == guardianAddress, \"PoolStakingRewards: unapproved sender\");\n        _bacon.setStakingContract(newMinter);\n    }\n\n    function approvePool(address poolAddress) public {\n        require(msg.sender == guardianAddress, \"PoolStakingRewards: unapproved sender\");\n        isApprovedPool[poolAddress] = true;\n    }\n\n    function revokePool(address poolAddress) public {\n        require(msg.sender == guardianAddress, \"PoolStakingRewards: unapproved sender\");\n        isApprovedPool[poolAddress] = false;\n    }\n\n    function approveSubMinter(address poolAddress) public {\n        require(msg.sender == guardianAddress, \"PoolStakingRewards: unapproved sender\");\n        isApprovedSubMinter[poolAddress] = true;\n    }\n\n    function revokeSubMinter(address poolAddress) public {\n        require(msg.sender == guardianAddress, \"PoolStakingRewards: unapproved sender\");\n        isApprovedSubMinter[poolAddress] = false;\n    }\n\n\n    function stake(address wallet, uint256 amount) public returns (bool) {\n        require(isApprovedPool[msg.sender], \"PoolStakingRewards: must be approved sender\");\n        // expects that the users Home has already been transferred to the staking contract\n        _staking.deposit(_poolTokenAddress, wallet, amount);\n\n        return true;\n    }\n\n    // PoolStakingRewards no longer allowed from any address. This is now done by claiming a HomeBoost.\n    function unstake(uint256 amount) public {\n        require(false, \"not allowed\");\n    }\n\n    function unstakeForWallet(address wallet, uint256 amount) public {\n        require(isApprovedPool[msg.sender], \"PoolStakingRewards: must be approved sender\");\n        _unstakeInternal(wallet, amount);\n    }\n\n    function transferStake(uint256 amount, address from, address to) public {\n        require(isApprovedPool[msg.sender], \"PoolStakingRewards: must be approved sender\");\n        Staking4(address(_staking)).transfer(_poolTokenAddress, amount, from, to);\n    }\n\n    function subMint(address account, uint256 amount) public {\n        require(isApprovedSubMinter[msg.sender], \"PoolStakingRewards: must be approved sender\");\n        _bacon.mint(account, amount);\n    }\n\n    // public methods\n    // public method to harvest all the unharvested epochs until current epoch - 1\n    function massHarvest(address wallet) external returns (uint){\n        require(isApprovedPool[msg.sender], \"PoolStakingRewards: must be approved sender\");\n        uint totalDistributedValue = 0;\n\n        //added so it doesn't fail on first epoch\n        if(_getEpochId() == 0){\n            return 0;\n        }\n        \n        uint epochId = _getEpochId().sub(1); // fails in epoch 0\n        // force max number of epochs\n        if (epochId > _numberOfEpochs) {\n            epochId = _numberOfEpochs;\n        }\n\n        for (uint128 i = lastEpochIdHarvested[wallet] + 1; i <= epochId; i++) {\n            // i = epochId\n            // compute distributed Value and do one single transfer at the end\n            totalDistributedValue += _harvest(wallet, i);\n        }\n\n        emit MassHarvest(wallet, epochId - lastEpochIdHarvested[wallet], totalDistributedValue);\n\n        if (totalDistributedValue > 0) {\n            _bacon.mint(wallet, totalDistributedValue);\n        }\n\n        return totalDistributedValue;\n    }\n\n    function harvest (address wallet, uint128 epochId) external returns (uint){\n        require(isApprovedPool[msg.sender], \"PoolStakingRewards: must be approved sender\");\n        // checks for requested epoch\n        require (_getEpochId() > epochId, \"PoolStakingRewards: This epoch is in the future\");\n        require(epochId <= _numberOfEpochs, \"PoolStakingRewards: Maximum number of epochs is 12\");\n        require (lastEpochIdHarvested[wallet].add(1) == epochId, \"PoolStakingRewards: Harvest in order\");\n        uint userReward = _harvest(wallet, epochId);\n        if (userReward > 0) {\n             _bacon.mint(wallet, userReward);\n        }\n        emit Harvest(wallet, epochId, userReward);\n        return userReward;\n    }\n\n    // views\n    function getTotalEpochs() external view returns (uint) {\n        return _numberOfEpochs;\n    }\n\n    function getRewardPerEpoch() external view returns (uint) {\n        return _totalAmountPerEpoch;\n    }\n\n    // calls to the staking smart contract to retrieve the epoch total pool size\n    function getPoolSize(uint128 epochId) external view returns (uint) {\n        return _getPoolSize(epochId);\n    }\n\n    function getCurrentEpoch() external view returns (uint) {\n        return _getEpochId();\n    }\n\n    // calls to the staking smart contract to retrieve user balance for an epoch\n    function getEpochStake(address userAddress, uint128 epochId) external view returns (uint) {\n        return _getUserBalancePerEpoch(userAddress, epochId);\n    }\n\n    function getCurrentEpochStake(address userAddress) external view returns (uint) {\n        return _getUserBalancePerEpoch(userAddress, _getEpochId());\n    }\n\n    function getCurrentBalance(address userAddress) external view returns (uint) {\n        return _staking.balanceOf(userAddress, _poolTokenAddress);\n    }\n\n    function userLastEpochIdHarvested() external view returns (uint){\n        return lastEpochIdHarvested[msg.sender];\n    }\n\n    // internal methods\n\n    function _unstakeInternal(address wallet, uint256 amount) internal {\n        _staking.withdraw(_poolTokenAddress, wallet, amount);\n    }\n\n    function _initEpoch(uint128 epochId) internal {\n        require(lastInitializedEpoch.add(1) == epochId, \"PoolStakingRewards: Epoch can be init only in order\");\n        lastInitializedEpoch = epochId;\n        // call the staking smart contract to init the epoch\n        epochs[epochId] = _getPoolSize(epochId);\n    }\n\n    function _harvest (address wallet, uint128 epochId) internal returns (uint) {\n        // try to initialize an epoch. if it can't it fails\n        // if it fails either user either a BarnBridge account will init not init epochs\n        if (lastInitializedEpoch < epochId) {\n            _initEpoch(epochId);\n        }\n        // Set user state for last harvested\n        lastEpochIdHarvested[wallet] = epochId;\n        // compute and return user total reward. For optimization reasons the transfer have been moved to an upper layer (i.e. massHarvest needs to do a single transfer)\n        if(wallet == daoAddress){\n            return DAO_REWARD;\n        }\n        if(wallet == guardianAddress){\n            return GUARDIAN_REWARD;\n        }\n\n        // exit if there is no stake on the epoch\n        if (epochs[epochId] == 0) {\n            return 0;\n        }\n        return _totalAmountPerEpoch\n        .mul(_getUserBalancePerEpoch(wallet, epochId))\n        .div(epochs[epochId]);\n    }\n\n    // retrieve _poolTokenAddress token balance\n    function _getPoolSize(uint128 epochId) internal view returns (uint) {\n        return _staking.getEpochPoolSize(_poolTokenAddress, _stakingEpochId(epochId));\n    }\n\n    // retrieve _poolTokenAddress token balance per user per epoch\n    function _getUserBalancePerEpoch(address userAddress, uint128 epochId) internal view returns (uint){\n        return _staking.getEpochUserBalance(userAddress, _poolTokenAddress, _stakingEpochId(epochId));\n    }\n\n    // compute epoch id from block.timestamp and epochStart date\n    function _getEpochId() internal view returns (uint128 epochId) {\n        if (block.timestamp < epochStart) {\n            return 0;\n        }\n        epochId = uint128(block.timestamp.sub(epochStart).div(epochDuration).add(1));\n    }\n\n    // get the staking epoch\n    function _stakingEpochId(uint128 epochId) pure internal returns (uint128) {\n        return epochId;\n    }\n\n    function mintBacon(address wallet, uint256 userReward) public {\n        require(msg.sender == airdropContract, \"PoolStakingRewards: unapproved sender\");\n        _bacon.mint(wallet, userReward);\n    }\n\n    function getAndClearReward(address wallet) external returns (uint256) {\n        require(isApprovedPool[msg.sender], \"PoolStakingRewards: must be approved sender\");\n\n        return _staking.getAndClearReward(wallet, _poolTokenAddress);\n    }\n\n}\n",
  "sourcePath": "/src/contracts/PoolStakingRewards/PoolStakingRewards6.sol",
  "compiler": {
    "name": "solc",
    "version": "0.8.9+commit.e5eed63a.Emscripten.clang"
  },
  "schemaVersion": "3.4.7",
  "updatedAt": "2022-10-04T22:54:47.523Z",
  "devdoc": {
    "kind": "dev",
    "methods": {},
    "version": 1
  },
  "userdoc": {
    "kind": "user",
    "methods": {},
    "version": 1
  }
}