{
  "contractName": "Pool14",
  "abi": [
    {
      "anonymous": false,
      "inputs": [
        {
          "indexed": true,
          "internalType": "address",
          "name": "owner",
          "type": "address"
        },
        {
          "indexed": true,
          "internalType": "address",
          "name": "spender",
          "type": "address"
        },
        {
          "indexed": false,
          "internalType": "uint256",
          "name": "value",
          "type": "uint256"
        }
      ],
      "name": "Approval",
      "type": "event"
    },
    {
      "anonymous": false,
      "inputs": [
        {
          "indexed": true,
          "internalType": "address",
          "name": "borrower",
          "type": "address"
        },
        {
          "indexed": true,
          "internalType": "uint64",
          "name": "property",
          "type": "uint64"
        },
        {
          "indexed": true,
          "internalType": "uint64",
          "name": "loan",
          "type": "uint64"
        },
        {
          "indexed": false,
          "internalType": "uint128",
          "name": "amount",
          "type": "uint128"
        },
        {
          "indexed": false,
          "internalType": "uint64",
          "name": "rate",
          "type": "uint64"
        }
      ],
      "name": "Borrow",
      "type": "event"
    },
    {
      "anonymous": false,
      "inputs": [
        {
          "indexed": true,
          "internalType": "address",
          "name": "payer",
          "type": "address"
        },
        {
          "indexed": true,
          "internalType": "uint64",
          "name": "loan",
          "type": "uint64"
        },
        {
          "indexed": false,
          "internalType": "uint128",
          "name": "principal",
          "type": "uint128"
        },
        {
          "indexed": false,
          "internalType": "uint128",
          "name": "interest",
          "type": "uint128"
        },
        {
          "indexed": false,
          "internalType": "uint128",
          "name": "principalPaid",
          "type": "uint128"
        },
        {
          "indexed": false,
          "internalType": "uint128",
          "name": "interestPaid",
          "type": "uint128"
        }
      ],
      "name": "Repay",
      "type": "event"
    },
    {
      "anonymous": false,
      "inputs": [
        {
          "indexed": true,
          "internalType": "address",
          "name": "from",
          "type": "address"
        },
        {
          "indexed": true,
          "internalType": "address",
          "name": "to",
          "type": "address"
        },
        {
          "indexed": false,
          "internalType": "uint256",
          "name": "value",
          "type": "uint256"
        }
      ],
      "name": "Transfer",
      "type": "event"
    },
    {
      "inputs": [
        {
          "internalType": "address",
          "name": "owner",
          "type": "address"
        },
        {
          "internalType": "address",
          "name": "spender",
          "type": "address"
        }
      ],
      "name": "allowance",
      "outputs": [
        {
          "internalType": "uint256",
          "name": "",
          "type": "uint256"
        }
      ],
      "stateMutability": "view",
      "type": "function"
    },
    {
      "inputs": [
        {
          "internalType": "address",
          "name": "spender",
          "type": "address"
        },
        {
          "internalType": "uint256",
          "name": "amount",
          "type": "uint256"
        }
      ],
      "name": "approve",
      "outputs": [
        {
          "internalType": "bool",
          "name": "",
          "type": "bool"
        }
      ],
      "stateMutability": "nonpayable",
      "type": "function"
    },
    {
      "inputs": [
        {
          "internalType": "address",
          "name": "account",
          "type": "address"
        }
      ],
      "name": "balanceOf",
      "outputs": [
        {
          "internalType": "uint256",
          "name": "",
          "type": "uint256"
        }
      ],
      "stateMutability": "view",
      "type": "function"
    },
    {
      "inputs": [
        {
          "internalType": "address",
          "name": "spender",
          "type": "address"
        },
        {
          "internalType": "uint256",
          "name": "subtractedValue",
          "type": "uint256"
        }
      ],
      "name": "decreaseAllowance",
      "outputs": [
        {
          "internalType": "bool",
          "name": "",
          "type": "bool"
        }
      ],
      "stateMutability": "nonpayable",
      "type": "function"
    },
    {
      "inputs": [
        {
          "internalType": "address",
          "name": "spender",
          "type": "address"
        },
        {
          "internalType": "uint256",
          "name": "addedValue",
          "type": "uint256"
        }
      ],
      "name": "increaseAllowance",
      "outputs": [
        {
          "internalType": "bool",
          "name": "",
          "type": "bool"
        }
      ],
      "stateMutability": "nonpayable",
      "type": "function"
    },
    {
      "inputs": [],
      "name": "totalSupply",
      "outputs": [
        {
          "internalType": "uint256",
          "name": "",
          "type": "uint256"
        }
      ],
      "stateMutability": "view",
      "type": "function"
    },
    {
      "inputs": [
        {
          "internalType": "address",
          "name": "recipient",
          "type": "address"
        },
        {
          "internalType": "uint256",
          "name": "amount",
          "type": "uint256"
        }
      ],
      "name": "transfer",
      "outputs": [
        {
          "internalType": "bool",
          "name": "",
          "type": "bool"
        }
      ],
      "stateMutability": "nonpayable",
      "type": "function"
    },
    {
      "inputs": [
        {
          "internalType": "address",
          "name": "sender",
          "type": "address"
        },
        {
          "internalType": "address",
          "name": "recipient",
          "type": "address"
        },
        {
          "internalType": "uint256",
          "name": "amount",
          "type": "uint256"
        }
      ],
      "name": "transferFrom",
      "outputs": [
        {
          "internalType": "bool",
          "name": "",
          "type": "bool"
        }
      ],
      "stateMutability": "nonpayable",
      "type": "function"
    },
    {
      "inputs": [
        {
          "internalType": "address",
          "name": "_curvePoolAddress",
          "type": "address"
        }
      ],
      "name": "initializePool14",
      "outputs": [],
      "stateMutability": "nonpayable",
      "type": "function"
    },
    {
      "inputs": [],
      "name": "lockAirdorp",
      "outputs": [],
      "stateMutability": "nonpayable",
      "type": "function"
    },
    {
      "inputs": [
        {
          "internalType": "address",
          "name": "_servicer",
          "type": "address"
        }
      ],
      "name": "passServicerRights",
      "outputs": [],
      "stateMutability": "nonpayable",
      "type": "function"
    },
    {
      "inputs": [],
      "name": "name",
      "outputs": [
        {
          "internalType": "string",
          "name": "",
          "type": "string"
        }
      ],
      "stateMutability": "view",
      "type": "function"
    },
    {
      "inputs": [],
      "name": "symbol",
      "outputs": [
        {
          "internalType": "string",
          "name": "",
          "type": "string"
        }
      ],
      "stateMutability": "view",
      "type": "function"
    },
    {
      "inputs": [],
      "name": "decimals",
      "outputs": [
        {
          "internalType": "uint8",
          "name": "",
          "type": "uint8"
        }
      ],
      "stateMutability": "pure",
      "type": "function"
    },
    {
      "inputs": [],
      "name": "getContractData",
      "outputs": [
        {
          "internalType": "address",
          "name": "",
          "type": "address"
        },
        {
          "internalType": "address",
          "name": "",
          "type": "address"
        },
        {
          "internalType": "uint256",
          "name": "",
          "type": "uint256"
        },
        {
          "internalType": "uint256",
          "name": "",
          "type": "uint256"
        },
        {
          "internalType": "uint256",
          "name": "",
          "type": "uint256"
        },
        {
          "internalType": "uint256",
          "name": "",
          "type": "uint256"
        }
      ],
      "stateMutability": "view",
      "type": "function"
    },
    {
      "inputs": [],
      "name": "getLoanCount",
      "outputs": [
        {
          "internalType": "uint256",
          "name": "",
          "type": "uint256"
        }
      ],
      "stateMutability": "view",
      "type": "function"
    },
    {
      "inputs": [],
      "name": "getSupplyableTokenAddress",
      "outputs": [
        {
          "internalType": "address",
          "name": "",
          "type": "address"
        }
      ],
      "stateMutability": "view",
      "type": "function"
    },
    {
      "inputs": [],
      "name": "getServicerAddress",
      "outputs": [
        {
          "internalType": "address",
          "name": "",
          "type": "address"
        }
      ],
      "stateMutability": "view",
      "type": "function"
    },
    {
      "inputs": [
        {
          "internalType": "uint256",
          "name": "loanId",
          "type": "uint256"
        }
      ],
      "name": "getLoanDetails",
      "outputs": [
        {
          "internalType": "uint256",
          "name": "",
          "type": "uint256"
        },
        {
          "internalType": "address",
          "name": "",
          "type": "address"
        },
        {
          "internalType": "uint256",
          "name": "",
          "type": "uint256"
        },
        {
          "internalType": "uint256",
          "name": "",
          "type": "uint256"
        },
        {
          "internalType": "uint256",
          "name": "",
          "type": "uint256"
        },
        {
          "internalType": "uint256",
          "name": "",
          "type": "uint256"
        },
        {
          "internalType": "uint256",
          "name": "",
          "type": "uint256"
        }
      ],
      "stateMutability": "view",
      "type": "function"
    },
    {
      "inputs": [
        {
          "internalType": "uint256",
          "name": "loanId",
          "type": "uint256"
        }
      ],
      "name": "getLoanAccruedInterest",
      "outputs": [
        {
          "internalType": "uint256",
          "name": "",
          "type": "uint256"
        }
      ],
      "stateMutability": "view",
      "type": "function"
    },
    {
      "inputs": [
        {
          "internalType": "uint256",
          "name": "amountUsdc",
          "type": "uint256"
        },
        {
          "internalType": "uint256",
          "name": "expectedHomeCoin",
          "type": "uint256"
        }
      ],
      "name": "lendPool",
      "outputs": [
        {
          "internalType": "uint256",
          "name": "",
          "type": "uint256"
        }
      ],
      "stateMutability": "nonpayable",
      "type": "function"
    },
    {
      "inputs": [
        {
          "internalType": "uint256",
          "name": "amount",
          "type": "uint256"
        }
      ],
      "name": "lend",
      "outputs": [
        {
          "internalType": "uint256",
          "name": "",
          "type": "uint256"
        }
      ],
      "stateMutability": "nonpayable",
      "type": "function"
    },
    {
      "inputs": [
        {
          "internalType": "uint256",
          "name": "amountHome",
          "type": "uint256"
        },
        {
          "internalType": "uint256",
          "name": "expectedUsdc",
          "type": "uint256"
        }
      ],
      "name": "redeemPool",
      "outputs": [
        {
          "internalType": "uint256",
          "name": "",
          "type": "uint256"
        }
      ],
      "stateMutability": "nonpayable",
      "type": "function"
    },
    {
      "inputs": [
        {
          "internalType": "uint256",
          "name": "amount",
          "type": "uint256"
        }
      ],
      "name": "redeem",
      "outputs": [],
      "stateMutability": "nonpayable",
      "type": "function"
    },
    {
      "inputs": [
        {
          "internalType": "uint256",
          "name": "amount",
          "type": "uint256"
        },
        {
          "internalType": "uint256",
          "name": "fixedInterestRate",
          "type": "uint256"
        },
        {
          "internalType": "uint256",
          "name": "propTokenId",
          "type": "uint256"
        }
      ],
      "name": "borrow",
      "outputs": [],
      "stateMutability": "nonpayable",
      "type": "function"
    },
    {
      "inputs": [
        {
          "internalType": "uint256",
          "name": "loanId",
          "type": "uint256"
        },
        {
          "internalType": "uint256",
          "name": "amount",
          "type": "uint256"
        }
      ],
      "name": "repay",
      "outputs": [],
      "stateMutability": "nonpayable",
      "type": "function"
    },
    {
      "inputs": [
        {
          "internalType": "uint256",
          "name": "amount",
          "type": "uint256"
        }
      ],
      "name": "stake",
      "outputs": [
        {
          "internalType": "bool",
          "name": "",
          "type": "bool"
        }
      ],
      "stateMutability": "nonpayable",
      "type": "function"
    },
    {
      "inputs": [
        {
          "internalType": "uint256",
          "name": "amount",
          "type": "uint256"
        },
        {
          "internalType": "uint16",
          "name": "level",
          "type": "uint16"
        },
        {
          "internalType": "bool",
          "name": "autoRenew",
          "type": "bool"
        }
      ],
      "name": "boost",
      "outputs": [
        {
          "internalType": "bool",
          "name": "",
          "type": "bool"
        }
      ],
      "stateMutability": "nonpayable",
      "type": "function"
    },
    {
      "inputs": [],
      "name": "getVersion",
      "outputs": [
        {
          "internalType": "uint256",
          "name": "",
          "type": "uint256"
        }
      ],
      "stateMutability": "pure",
      "type": "function"
    },
    {
      "inputs": [
        {
          "internalType": "address",
          "name": "",
          "type": "address"
        },
        {
          "internalType": "address",
          "name": "",
          "type": "address"
        },
        {
          "internalType": "uint256",
          "name": "",
          "type": "uint256"
        },
        {
          "internalType": "bytes",
          "name": "",
          "type": "bytes"
        }
      ],
      "name": "onERC721Received",
      "outputs": [
        {
          "internalType": "bytes4",
          "name": "",
          "type": "bytes4"
        }
      ],
      "stateMutability": "pure",
      "type": "function"
    },
    {
      "inputs": [],
      "name": "claimRewards",
      "outputs": [
        {
          "internalType": "uint256",
          "name": "",
          "type": "uint256"
        }
      ],
      "stateMutability": "nonpayable",
      "type": "function"
    },
    {
      "inputs": [
        {
          "internalType": "address",
          "name": "wallet",
          "type": "address"
        },
        {
          "internalType": "uint256",
          "name": "amount",
          "type": "uint256"
        }
      ],
      "name": "transferBoostRewards",
      "outputs": [],
      "stateMutability": "nonpayable",
      "type": "function"
    },
    {
      "inputs": [
        {
          "internalType": "address",
          "name": "wallet",
          "type": "address"
        },
        {
          "internalType": "uint256",
          "name": "amount",
          "type": "uint256"
        }
      ],
      "name": "transferUSDC",
      "outputs": [],
      "stateMutability": "nonpayable",
      "type": "function"
    },
    {
      "inputs": [
        {
          "internalType": "uint256",
          "name": "amount",
          "type": "uint256"
        }
      ],
      "name": "burn",
      "outputs": [],
      "stateMutability": "nonpayable",
      "type": "function"
    }
  ],
  "bytecode": "0x608060405234801561001057600080fd5b50613148806100206000396000f3fe608060405234801561001057600080fd5b50600436106102265760003560e01c8063775cc8091161012a578063a6aa57ce116100bd578063d8aed1451161008c578063dd62ed3e11610071578063dd62ed3e14610527578063ef4571fc14610560578063f7aaaf3f1461057357600080fd5b8063d8aed14514610501578063db006a751461051457600080fd5b8063a6aa57ce146104b5578063a9059cbb146104c8578063ab673a5d146104db578063adf459ca146104ee57600080fd5b80639a5872f4116100f95780639a5872f41461043c578063a457c2d71461044f578063a68b91ab14610462578063a694fc3a146104a257600080fd5b8063775cc809146103fd5780638f6d88071461041057806390b53e141461042357806395d89b411461043457600080fd5b80632f5e5d95116101bd57806342966c681161018c57806356ff07151161017157806356ff07151461038757806366877b8d1461039a57806370a08231146103ea57600080fd5b806342966c681461036c578063521968121461037f57600080fd5b80632f5e5d951461031d578063313ce56714610342578063372500ab14610351578063395093511461035957600080fd5b80630d8e6e2c116101f95780630d8e6e2c14610293578063150b7a021461029a57806318160ddd1461030257806323b872dd1461030a57600080fd5b8063038771d01461022b57806306018eba1461023557806306fdde031461025b578063095ea7b314610270575b600080fd5b610233610586565b005b610248610243366004612b4b565b6105de565b6040519081526020015b60405180910390f35b61026361077d565b6040516102529190612b99565b61028361027e366004612be1565b61080f565b6040519015158152602001610252565b600e610248565b6102d16102a8366004612c7c565b7f150b7a0200000000000000000000000000000000000000000000000000000000949350505050565b6040517fffffffff000000000000000000000000000000000000000000000000000000009091168152602001610252565b603454610248565b610283610318366004612d2b565b610825565b6066546001600160a01b03165b6040516001600160a01b039091168152602001610252565b60405160068152602001610252565b6102486108e4565b610283610367366004612be1565b6109cd565b61023361037a366004612d6c565b610a09565b606c54610248565b610233610395366004612be1565b610a16565b6103ad6103a8366004612d6c565b610a8b565b604080519788526001600160a01b039096166020880152948601939093526060850191909152608084015260a083015260c082015260e001610252565b6102486103f8366004612d85565b610b4e565b61024861040b366004612b4b565b610b7c565b61023361041e366004612d85565b610de2565b6065546001600160a01b031661032a565b610263610e28565b61024861044a366004612d6c565b610e37565b61028361045d366004612be1565b610f18565b61046a610fc9565b604080516001600160a01b039788168152969095166020870152938501929092526060840152608083015260a082015260c001610252565b6102836104b0366004612d6c565b611093565b6102486104c3366004612d6c565b6111f1565b6102836104d6366004612be1565b611293565b6102336104e9366004612d85565b6112a0565b6102336104fc366004612da2565b6112f0565b61023361050f366004612b4b565b611ad8565b610233610522366004612d6c565b611e40565b610248610535366004612dce565b6001600160a01b039182166000908152603b6020908152604080832093909416825291909152205490565b61028361056e366004612e15565b611ee0565b610233610581366004612be1565b6121d5565b6065546001600160a01b0316331461059d57600080fd5b607780547fffffffffffffffffffffff00ffffffffffffffffffffffffffffffffffffffff1674010000000000000000000000000000000000000000179055565b6000600260765414156106385760405162461bcd60e51b815260206004820152601f60248201527f5265656e7472616e637947756172643a207265656e7472616e742063616c6c0060448201526064015b60405180910390fd5b60026076558261064733610b4e565b10156106955760405162461bcd60e51b815260206004820152601960248201527f484f4d452062616c616e636520696e73756666696369656e7400000000000000604482015260640161062f565b6106a03330856122d6565b6079546106b89030906001600160a01b03168561250c565b6079546040517f44ee19860000000000000000000000000000000000000000000000000000000081526000600482018190526002602483015260448201869052606482018590523360848301526001600160a01b03909216919082906344ee19869060a401602060405180830381600087803b15801561073757600080fd5b505af115801561074b573d6000803e3d6000fd5b505050506040513d601f19601f8201168201806040525081019061076f9190612e5e565b600160765595945050505050565b6060606d805461078c90612e77565b80601f01602080910402602001604051908101604052809291908181526020018280546107b890612e77565b80156108055780601f106107da57610100808354040283529160200191610805565b820191906000526020600020905b8154815290600101906020018083116107e857829003601f168201915b5050505050905090565b600061081c33848461250c565b50600192915050565b60006108328484846122d6565b6001600160a01b0384166000908152603b60209081526040808320338452909152902054828110156108cc5760405162461bcd60e51b815260206004820152602860248201527f45524332303a207472616e7366657220616d6f756e742065786365656473206160448201527f6c6c6f77616e6365000000000000000000000000000000000000000000000000606482015260840161062f565b6108d9853385840361250c565b506001949350505050565b6000806108fb60646108f533612665565b90612713565b6077546040517f9a2daa0a00000000000000000000000000000000000000000000000000000000815233600482015291925060009161099e916064916001600160a01b0390911690639a2daa0a90602401602060405180830381600087803b15801561096657600080fd5b505af115801561097a573d6000803e3d6000fd5b505050506040513d601f19601f820116820180604052508101906108f59190612e5e565b905060006109ac8284612ec8565b6075549091506109c6906001600160a01b031633836122d6565b9392505050565b336000818152603b602090815260408083206001600160a01b0387168452909152812054909161081c918590610a04908690612ec8565b61250c565b610a13338261271f565b50565b6078546001600160a01b03163314610a705760405162461bcd60e51b815260206004820152600e60248201527f696e76616c69642073656e646572000000000000000000000000000000000000604482015260640161062f565b607554610a87906001600160a01b031683836122d6565b5050565b600080600080600080600080606b8981548110610aaa57610aaa612ee0565b600091825260208083206040805160c08101825260069094029091018054845260018101546001600160a01b03169284019290925260028201549083015260038101546060830152600481015460808301526005015460a08201529150610b108a610e37565b60009a8b52606f602090815260409b8c9020548451918501519c850151606086015160a090960151929e909c50949a50919850965094509092505050565b6001600160a01b0381166000908152603360205260408120546bffffffffffffffffffffffff165b92915050565b600060026076541415610bd15760405162461bcd60e51b815260206004820152601f60248201527f5265656e7472616e637947756172643a207265656e7472616e742063616c6c00604482015260640161062f565b60026076556066546040517f23b872dd000000000000000000000000000000000000000000000000000000008152336004820152306024820152604481018590526001600160a01b039091169081906323b872dd90606401602060405180830381600087803b158015610c4357600080fd5b505af1158015610c57573d6000803e3d6000fd5b505050506040513d601f19601f82011682018060405250810190610c7b9190612ef6565b506079546040517f095ea7b30000000000000000000000000000000000000000000000000000000081526001600160a01b039182166004820152602481018690529082169063095ea7b390604401602060405180830381600087803b158015610ce357600080fd5b505af1158015610cf7573d6000803e3d6000fd5b505050506040513d601f19601f82011682018060405250810190610d1b9190612ef6565b506079546040517f44ee19860000000000000000000000000000000000000000000000000000000081526002600482015260006024820181905260448201879052606482018690523360848301526001600160a01b03909216919082906344ee19869060a401602060405180830381600087803b158015610d9b57600080fd5b505af1158015610daf573d6000803e3d6000fd5b505050506040513d601f19601f82011682018060405250810190610dd39190612e5e565b60016076559695505050505050565b6065546001600160a01b03163314610df957600080fd5b6065805473ffffffffffffffffffffffffffffffffffffffff19166001600160a01b0392909216919091179055565b6060606e805461078c90612e77565b600080606b8381548110610e4d57610e4d612ee0565b600091825260208083206040805160c08101825260069094029091018054845260018101546001600160a01b03169284019290925260028201549083015260038101546060830152600481015460808301526005015460a08201819052909250610eb89042906128a3565b90506000610edf6301da9c006108f5856040015186606001516128af90919063ffffffff16565b90506000610ef56305f5e1006108f584866128af565b9050610f0e8460800151826128bb90919063ffffffff16565b9695505050505050565b336000908152603b602090815260408083206001600160a01b038616845290915281205482811015610fb25760405162461bcd60e51b815260206004820152602560248201527f45524332303a2064656372656173656420616c6c6f77616e63652062656c6f7760448201527f207a65726f000000000000000000000000000000000000000000000000000000606482015260840161062f565b610fbf338585840361250c565b5060019392505050565b606554606654607254604080517f7eb0d8b10000000000000000000000000000000000000000000000000000000081529051600094859485948594859485946001600160a01b03908116948116938693911691637eb0d8b191600480820192602092909190829003018186803b15801561104257600080fd5b505afa158015611056573d6000803e3d6000fd5b505050506040513d601f19601f8201168201806040525081019061107a9190612e5e565b603454606c54949b939a50919850965094509092509050565b60008161109f33610b4e565b10156110ed5760405162461bcd60e51b815260206004820152601360248201527f6e6f7420656e6f75676820746f207374616b6500000000000000000000000000604482015260640161062f565b607454611103906001600160a01b031683611293565b506077546040517fadc9772e000000000000000000000000000000000000000000000000000000008152336004820152602481018490526000916001600160a01b03169063adc9772e90604401602060405180830381600087803b15801561116a57600080fd5b505af115801561117e573d6000803e3d6000fd5b505050506040513d601f19601f820116820180604052508101906111a29190612ef6565b905080610b765760405162461bcd60e51b815260206004820152600c60248201527f5374616b65206661696c65640000000000000000000000000000000000000000604482015260640161062f565b6000600260765414156112465760405162461bcd60e51b815260206004820152601f60248201527f5265656e7472616e637947756172643a207265656e7472616e742063616c6c00604482015260640161062f565b600260765560405162461bcd60e51b815260206004820152601e60248201527f6c656e642069732064697361626c65642e20557365206c656e64506f6f6c0000604482015260640161062f565b600061081c3384846122d6565b6065546001600160a01b031633146112b757600080fd5b6079805473ffffffffffffffffffffffffffffffffffffffff19166001600160a01b039290921691909117905560006068819055606955565b600260765414156113435760405162461bcd60e51b815260206004820152601f60248201527f5265656e7472616e637947756172643a207265656e7472616e742063616c6c00604482015260640161062f565b60026076556070546040517f081812fc0000000000000000000000000000000000000000000000000000000081526004810183905230916001600160a01b03169063081812fc9060240160206040518083038186803b1580156113a557600080fd5b505afa1580156113b9573d6000803e3d6000fd5b505050506040513d601f19601f820116820180604052508101906113dd9190612f13565b6001600160a01b0316146114335760405162461bcd60e51b815260206004820152601d60248201527f706f6f6c206e6f7420617070726f76656420746f206d6f766520656767000000604482015260640161062f565b6070546040517f6352211e0000000000000000000000000000000000000000000000000000000081526004810183905233916001600160a01b031690636352211e9060240160206040518083038186803b15801561149057600080fd5b505afa1580156114a4573d6000803e3d6000fd5b505050506040513d601f19601f820116820180604052508101906114c89190612f13565b6001600160a01b03161461151e5760405162461bcd60e51b815260206004820152601860248201527f6d73672e73656e646572206e6f7420656767206f776e65720000000000000000604482015260640161062f565b6070546040517f6ebb668b000000000000000000000000000000000000000000000000000000008152600481018390526000916001600160a01b031690636ebb668b9060240160206040518083038186803b15801561157c57600080fd5b505afa158015611590573d6000803e3d6000fd5b505050506040513d601f19601f820116820180604052508101906115b49190612e5e565b9050838110156116065760405162461bcd60e51b815260206004820152601a60248201527f6c6f616e206c61726765722074686174206567672076616c7565000000000000604482015260640161062f565b607154604080517f15a2bf9e00000000000000000000000000000000000000000000000000000000815290516000926001600160a01b0316916315a2bf9e916004808301926020929190829003018186803b15801561166457600080fd5b505afa158015611678573d6000803e3d6000fd5b505050506040513d601f19601f8201168201806040525081019061169c9190612e5e565b6070546040517f4a293c520000000000000000000000000000000000000000000000000000000081526004810186905291925060009182916001600160a01b031690634a293c529060240160006040518083038186803b1580156116ff57600080fd5b505afa158015611713573d6000803e3d6000fd5b505050506040513d6000823e601f3d908101601f1916820160405261173b9190810190612f7d565b50505093509350505060005b82518110156117905761177c83828151811061176557611765612ee0565b6020026020010151866128bb90919063ffffffff16565b9450806117888161309f565b915050611747565b50826117a1826108f58760646128af565b106117ee5760405162461bcd60e51b815260206004820152600c60248201527f4c545620746f6f20686967680000000000000000000000000000000000000000604482015260640161062f565b6040805160c081018252606c805482523360208084018281528486018c8152606086018e81526000608088018181524260a08a01908152606b8054600180820183559185529a517fbd43cb8ece8cd1863bcd6082d65c5b0d25665b1ce17980f0da43c0ed545f98b46006909c029b8c015595517fbd43cb8ece8cd1863bcd6082d65c5b0d25665b1ce17980f0da43c0ed545f98b58b01805473ffffffffffffffffffffffffffffffffffffffff19166001600160a01b0390921691909117905593517fbd43cb8ece8cd1863bcd6082d65c5b0d25665b1ce17980f0da43c0ed545f98b68a015591517fbd43cb8ece8cd1863bcd6082d65c5b0d25665b1ce17980f0da43c0ed545f98b789015590517fbd43cb8ece8cd1863bcd6082d65c5b0d25665b1ce17980f0da43c0ed545f98b888015590517fbd43cb8ece8cd1863bcd6082d65c5b0d25665b1ce17980f0da43c0ed545f98b990960195909555918452606a81528484208354815480850183559186528286209091015582548452606f90529290912087905554611980916128bb565b606c556070546040517f42842e0e000000000000000000000000000000000000000000000000000000008152336004820152306024820152604481018790526001600160a01b03909116906342842e0e90606401600060405180830381600087803b1580156119ee57600080fd5b505af1158015611a02573d6000803e3d6000fd5b50505050611a2833611a2360646108f560638c6128af90919063ffffffff16565b6128c7565b606554611a43906001600160a01b0316611a238960c8612713565b607554611a5e906001600160a01b0316611a238960c8612713565b606c54611a6c9060016128a3565b604080516fffffffffffffffffffffffffffffffff8a16815267ffffffffffffffff89811660208301529283169288169133917fe7b40dc40b64097b1dd6df1c15f3bcf77b445f513b7c7dc02f34dbd19feb0fc2910160405180910390a4505060016076555050505050565b60026076541415611b2b5760405162461bcd60e51b815260206004820152601f60248201527f5265656e7472616e637947756172643a207265656e7472616e742063616c6c00604482015260640161062f565b600260765580611b7d5760405162461bcd60e51b815260206004820152601760248201527f43616e2774206d616b6520612030207061796d656e742e000000000000000000604482015260640161062f565b606c548210611bce5760405162461bcd60e51b815260206004820152601960248201527f4c6f616e20746f207265706179206d7573742065786973742e00000000000000604482015260640161062f565b6000606b8381548110611be357611be3612ee0565b906000526020600020906006020190506000611bfe84610e37565b600383015490915080611c535760405162461bcd60e51b815260206004820152601a60248201527f4c6f616e206d757374207374696c6c206265206163746976652e000000000000604482015260640161062f565b83600081841015611c7857839150611c6b86836128a3565b905080831015611c785750815b426005860155611c8883826128a3565b6003860155611c9784836128a3565b60048601556002850154600090611cb5906108f5620f4240866128af565b606554909150611cda9033906001600160a01b0316611cd5846002612713565b6122d6565b607554611cf79033906001600160a01b0316611cd5846002612713565b607554611d139033906001600160a01b0316611cd586856128a3565b8115611d2357611d23338361271f565b6003860154611dc757607054600187015460008a8152606f6020526040908190205490517f42842e0e0000000000000000000000000000000000000000000000000000000081523060048201526001600160a01b03928316602482015260448101919091529116906342842e0e90606401600060405180830381600087803b158015611dae57600080fd5b505af1158015611dc2573d6000803e3d6000fd5b505050505b604080516fffffffffffffffffffffffffffffffff868116825287811660208301528481168284015285166060820152905167ffffffffffffffff8a169133917f8dadc4d40dce11d36e105197f79aeedd21353377bdd6fff45e2dfbf8b19f5bba9181900360800190a350506001607655505050505050565b60026076541415611e935760405162461bcd60e51b815260206004820152601f60248201527f5265656e7472616e637947756172643a207265656e7472616e742063616c6c00604482015260640161062f565b600260765560405162461bcd60e51b815260206004820152600e60248201527f5573652072656465656d506f6f6c000000000000000000000000000000000000604482015260640161062f565b600083611eec33610b4e565b1015611f3a5760405162461bcd60e51b815260206004820152601360248201527f4e6f7420656e6f75676820746f20626f6f737400000000000000000000000000604482015260640161062f565b6078546040517f8400adfc00000000000000000000000000000000000000000000000000000000815261ffff85166004820152602481018690526000916001600160a01b031690638400adfc9060440160206040518083038186803b158015611fa257600080fd5b505afa158015611fb6573d6000803e3d6000fd5b505050506040513d601f19601f82011682018060405250810190611fda9190612e5e565b607454909150611ff3906001600160a01b031682611293565b506077546040517fadc9772e000000000000000000000000000000000000000000000000000000008152336004820152602481018390526000916001600160a01b03169063adc9772e90604401602060405180830381600087803b15801561205a57600080fd5b505af115801561206e573d6000803e3d6000fd5b505050506040513d601f19601f820116820180604052508101906120929190612ef6565b9050858210156120b8576078546120b6906001600160a01b03166104d684896130ba565b505b6078546040517fe68ec4f50000000000000000000000000000000000000000000000000000000081523360048201526024810188905261ffff8716604482015285151560648201526000916001600160a01b03169063e68ec4f590608401602060405180830381600087803b15801561213057600080fd5b505af1158015612144573d6000803e3d6000fd5b505050506040513d601f19601f820116820180604052508101906121689190612ef6565b90508180156121745750805b6121c05760405162461bcd60e51b815260206004820152600c60248201527f426f6f7374206661696c65640000000000000000000000000000000000000000604482015260640161062f565b8180156121ca5750805b979650505050505050565b6065546001600160a01b0316331461222f5760405162461bcd60e51b815260206004820152600e60248201527f696e76616c69642073656e646572000000000000000000000000000000000000604482015260640161062f565b6066546040517fa9059cbb0000000000000000000000000000000000000000000000000000000081526001600160a01b0384811660048301526024820184905290911690819063a9059cbb90604401602060405180830381600087803b15801561229857600080fd5b505af11580156122ac573d6000803e3d6000fd5b505050506040513d601f19601f820116820180604052508101906122d09190612ef6565b50505050565b6001600160a01b0383166123525760405162461bcd60e51b815260206004820152602560248201527f45524332303a207472616e736665722066726f6d20746865207a65726f20616460448201527f6472657373000000000000000000000000000000000000000000000000000000606482015260840161062f565b6001600160a01b0382166123ce5760405162461bcd60e51b815260206004820152602360248201527f45524332303a207472616e7366657220746f20746865207a65726f206164647260448201527f6573730000000000000000000000000000000000000000000000000000000000606482015260840161062f565b6001600160a01b0383166000908152603360205260409020546bffffffffffffffffffffffff81168281101561246c5760405162461bcd60e51b815260206004820152602660248201527f45524332303a207472616e7366657220616d6f756e742065786365656473206260448201527f616c616e63650000000000000000000000000000000000000000000000000000606482015260840161062f565b61247985838584036129a7565b6001600160a01b0384166000908152603360205260409020546124b78582866bffffffffffffffffffffffff82165b6124b29190612ec8565b6129a7565b846001600160a01b0316866001600160a01b03167fddf252ad1be2c89b69c2b068fc378daa952ba7f163c4a11628f55a4df523b3ef866040516124fc91815260200190565b60405180910390a3505050505050565b6001600160a01b0383166125875760405162461bcd60e51b8152602060048201526024808201527f45524332303a20617070726f76652066726f6d20746865207a65726f2061646460448201527f7265737300000000000000000000000000000000000000000000000000000000606482015260840161062f565b6001600160a01b0382166126035760405162461bcd60e51b815260206004820152602260248201527f45524332303a20617070726f766520746f20746865207a65726f20616464726560448201527f7373000000000000000000000000000000000000000000000000000000000000606482015260840161062f565b6001600160a01b038381166000818152603b602090815260408083209487168084529482529182902085905590518481527f8c5be1e5ebec7d5bd14f71427d1e84f3dd0314c0f7b2291e5b200ac8c7c3b92591015b60405180910390a3505050565b336000908152603c602052604081205481906126819082612ec8565b336000908152603c6020908152604080832083905560339091529020549091506126b4906301da9c00906108f590612ac4565b6126be9082612ec8565b336000908152603360205260409020549091506bffffffffffffffffffffffff166126fa427001000000000000000000000000000000006128af565b3360009081526033602052604090209117905592915050565b60006109c682846130d1565b6001600160a01b03821661279b5760405162461bcd60e51b815260206004820152602160248201527f45524332303a206275726e2066726f6d20746865207a65726f2061646472657360448201527f7300000000000000000000000000000000000000000000000000000000000000606482015260840161062f565b6001600160a01b0382166000908152603360205260409020546bffffffffffffffffffffffff8116828110156128395760405162461bcd60e51b815260206004820152602260248201527f45524332303a206275726e20616d6f756e7420657863656564732062616c616e60448201527f6365000000000000000000000000000000000000000000000000000000000000606482015260840161062f565b61284684838584036129a7565b826034600082825461285891906130ba565b90915550506040518381526000906001600160a01b038616907fddf252ad1be2c89b69c2b068fc378daa952ba7f163c4a11628f55a4df523b3ef9060200160405180910390a36122d0565b60006109c682846130ba565b60006109c682846130f3565b60006109c68284612ec8565b6001600160a01b03821661291d5760405162461bcd60e51b815260206004820152601f60248201527f45524332303a206d696e7420746f20746865207a65726f206164647265737300604482015260640161062f565b6001600160a01b0382166000908152603360205260408120546034805491928492612949908490612ec8565b9091555061296990508382846bffffffffffffffffffffffff82166124a8565b6040518281526001600160a01b038416906000907fddf252ad1be2c89b69c2b068fc378daa952ba7f163c4a11628f55a4df523b3ef90602001612658565b80612a06576129bd6301da9c006108f584612ac4565b6001600160a01b0384166000908152603c6020526040812080549091906129e5908490612ec8565b909155505050506001600160a01b0316600090815260336020526040812055565b4280612a15836108f586612ac4565b1015612a3957612a32612a2b836108f586612ac4565b42906128a3565b9050612a78565b612a4a6301da9c006108f585612ac4565b6001600160a01b0385166000908152603c602052604081208054909190612a72908490612ec8565b90915550505b6bffffffffffffffffffffffff8216612aa2827001000000000000000000000000000000006128af565b6001600160a01b03861660009081526033602052604090209117905550505050565b6000610b766bffffffffffffffffffffffff8316612ae4612a2b85612aea565b906128af565b600080612b2277ffffffffffffffffffffffff0000000000000000000000008416700100000000000000000000000000000000612713565b905080610b765750426bffffffffffffffffffffffff831615610b765750636296ac0092915050565b60008060408385031215612b5e57600080fd5b50508035926020909101359150565b60005b83811015612b88578181015183820152602001612b70565b838111156122d05750506000910152565b6020815260008251806020840152612bb8816040850160208701612b6d565b601f01601f19169190910160400192915050565b6001600160a01b0381168114610a1357600080fd5b60008060408385031215612bf457600080fd5b8235612bff81612bcc565b946020939093013593505050565b634e487b7160e01b600052604160045260246000fd5b604051601f8201601f1916810167ffffffffffffffff81118282101715612c4c57612c4c612c0d565b604052919050565b600067ffffffffffffffff821115612c6e57612c6e612c0d565b50601f01601f191660200190565b60008060008060808587031215612c9257600080fd5b8435612c9d81612bcc565b93506020850135612cad81612bcc565b925060408501359150606085013567ffffffffffffffff811115612cd057600080fd5b8501601f81018713612ce157600080fd5b8035612cf4612cef82612c54565b612c23565b818152886020838501011115612d0957600080fd5b8160208401602083013760006020838301015280935050505092959194509250565b600080600060608486031215612d4057600080fd5b8335612d4b81612bcc565b92506020840135612d5b81612bcc565b929592945050506040919091013590565b600060208284031215612d7e57600080fd5b5035919050565b600060208284031215612d9757600080fd5b81356109c681612bcc565b600080600060608486031215612db757600080fd5b505081359360208301359350604090920135919050565b60008060408385031215612de157600080fd5b8235612dec81612bcc565b91506020830135612dfc81612bcc565b809150509250929050565b8015158114610a1357600080fd5b600080600060608486031215612e2a57600080fd5b83359250602084013561ffff81168114612e4357600080fd5b91506040840135612e5381612e07565b809150509250925092565b600060208284031215612e7057600080fd5b5051919050565b600181811c90821680612e8b57607f821691505b60208210811415612eac57634e487b7160e01b600052602260045260246000fd5b50919050565b634e487b7160e01b600052601160045260246000fd5b60008219821115612edb57612edb612eb2565b500190565b634e487b7160e01b600052603260045260246000fd5b600060208284031215612f0857600080fd5b81516109c681612e07565b600060208284031215612f2557600080fd5b81516109c681612bcc565b600082601f830112612f4157600080fd5b8151612f4f612cef82612c54565b818152846020838601011115612f6457600080fd5b612f75826020830160208701612b6d565b949350505050565b600080600080600080600060e0888a031215612f9857600080fd5b8751612fa381612bcc565b809750506020808901519650604089015167ffffffffffffffff80821115612fca57600080fd5b818b0191508b601f830112612fde57600080fd5b815181811115612ff057612ff0612c0d565b8060051b612fff858201612c23565b918252838101850191858101908f84111561301957600080fd5b948601945b838610156130375785518252948601949086019061301e565b809b505050505060608b0151965060808b015192508083111561305957600080fd5b6130658c848d01612f30565b955060a08b0151945060c08b015192508083111561308257600080fd5b50506130908a828b01612f30565b91505092959891949750929550565b60006000198214156130b3576130b3612eb2565b5060010190565b6000828210156130cc576130cc612eb2565b500390565b6000826130ee57634e487b7160e01b600052601260045260246000fd5b500490565b600081600019048311821515161561310d5761310d612eb2565b50029056fea2646970667358221220d7b6c08f7ee191c0ed67b43fd347bbc23f329acb3bd30814366776a414f38a2d64736f6c63430008090033",
  "immutableReferences": {},
  "source": "// contracts/Pool.sol\n// SPDX-License-Identifier: MIT\npragma solidity ^0.8.4;\n\nimport \"./../@openzeppelin/contracts-upgradeable/proxy/utils/Initializable.sol\";\nimport \"./../ERC20/ERC20UpgradeableFromERC777Rewardable.sol\";\nimport './../@openzeppelin/contracts-upgradeable/token/ERC20/IERC20Upgradeable.sol';\nimport './../PropTokens/PropToken0.sol';\nimport './../LTVGuidelines.sol';\nimport './../PoolUtils/PoolUtils0.sol';\nimport './../PoolStaking/PoolStaking4.sol';\nimport './../PoolStakingRewards/PoolStakingRewards3.sol';\nimport './../HomeBoost/HomeBoost0.sol';\nimport './../CurveInterface/ICurvePool.sol';\n\nimport \"./../@openzeppelin/contracts-upgradeable/token/ERC721/IERC721ReceiverUpgradeable.sol\";\nimport './../@openzeppelin/contracts/utils/math/SafeMath.sol';\nimport './../@openzeppelin/contracts/utils/math/SignedSafeMath.sol';\n// import \"../../node_modules/hardhat/console.sol\";\n\n\ncontract Pool14 is Initializable, ERC20UpgradeableFromERC777Rewardable, IERC721ReceiverUpgradeable {\n    using SignedSafeMath for int256;\n    using SafeMath for uint256;\n\n    event Borrow(address indexed borrower, uint64 indexed property, uint64 indexed loan, uint128 amount, uint64 rate);\n    event Repay(address indexed payer, uint64 indexed loan, uint128 principal, uint128 interest, uint128 principalPaid, uint128 interestPaid);\n\n    struct Loan{\n        uint256 loanId;\n        address borrower;\n        uint256 interestRate;\n        uint256 principal;\n        uint256 interestAccrued;\n        uint256 timeLastPayment;\n    }\n\n    address servicer;\n\n    // Address of the ERC-20 contract used as liquidity supply. USDC for now.\n    address ERCAddress;\n\n    address[] servicerAddresses;\n    /* Adding a variable above this line (not reflected in Pool0) will cause contract storage conflicts */\n\n    uint256 poolLent; // Deprecated in Pool14. Now always set to 0.\n    uint256 poolBorrowed; // Deprecated in Pool14. Now always set to 0.\n    mapping(address => uint256[]) userLoans;\n    Loan[] loans;\n    uint256 loanCount;\n\n    uint constant servicerFeePercentage = 1000000;\n    uint constant baseInterestPercentage = 1000000;\n    uint constant curveK = 120000000;\n\n    /* Pool1 variables introduced here */\n    string private _name;\n    string private _symbol;\n    mapping(uint256 => uint256) loanToPropToken;\n    address propTokenContractAddress;\n\n    /* Pool2 variables introduced here */\n    address LTVOracleAddress;\n\n    /* Pool3 variables introduced here */\n    address poolUtilsAddress;\n    address baconCoinAddress;\n    address poolStakingAddress;\n\n    /* Pool 8 variables introduced here */\n    address daoAddress;\n\n    /*  Pool 9 variables introduced here\n        storage for nonReentrant modifier\n        modifier and variables could not be imported via inheratance given upgradability rules */\n    uint256 private constant _NOT_ENTERED = 1;\n    uint256 private constant _ENTERED = 2;\n    uint256 private _status;\n\n    /* pool10 variables added here */\n    address poolStakingRewardAddress; // contract responsible for determining the rewards for staking HOME\n\n    /*  Pool 11 variables introduced here */\n    bool airdropLocked;\n\n    /* Pool 13 variables here */\n    address homeBoostAddress;\n\n    /* Pool 14 variables here */\n    address curvePoolAddress;\n\n    /**\n     * @dev Prevents a contract from calling itself, directly or indirectly.\n     * Calling a `nonReentrant` function from another `nonReentrant`\n     * function is not supported. It is possible to prevent this from happening\n     * by making the `nonReentrant` function external, and making it call a\n     * `private` function that does the actual work.\n     */\n    modifier nonReentrant() {\n        // On the first call to nonReentrant, _notEntered will be true\n        require(_status != _ENTERED, \"ReentrancyGuard: reentrant call\");\n\n        // Any calls to nonReentrant after this point will fail\n        _status = _ENTERED;\n        _;\n\n        // By storing the original value once again, a refund is triggered (see\n        // https://eips.ethereum.org/EIPS/eip-2200)\n        _status = _NOT_ENTERED;\n    }\n\n    /*****************************************************\n    *       POOL STRUCTURE / UPGRADABILITY FUNCTIONS\n    ******************************************************/\n    function initializePool14(address _curvePoolAddress) public {\n        require(msg.sender == servicer);\n\n        curvePoolAddress = _curvePoolAddress;\n\n        poolLent = 0; // poolLent is now deprecated\n        poolBorrowed = 0; // poolBorrowed is now deprecated\n    }\n\n\n    function lockAirdorp() public {\n        require(msg.sender == servicer);\n        airdropLocked = true;\n    }\n\n    function passServicerRights(address _servicer) public {\n        require(msg.sender == servicer);\n        servicer = _servicer;\n    }\n\n    function name() public view override returns (string memory) {\n        return _name;\n    }\n\n    function symbol() public view override returns(string memory) {\n        return _symbol;\n    }\n\n    function decimals() public pure override returns(uint8) {\n        return 6;\n    }\n\n    /*****************************************************\n    *                GETTER FUNCTIONS\n    ******************************************************/\n    /**\n    *   @dev Function getContractData() returns a lot of variables about the contract\n    */\n    function getContractData() public view returns (address, address, uint256, uint256, uint256, uint256) {\n        return (\n            servicer,\n            ERCAddress,\n            0,\n            PoolUtils0(poolUtilsAddress).getPoolInterestAccrued(),\n            totalSupply(),\n            loanCount);\n    }\n\n    /*\n    *   @dev Function getLoanCount() returns how many active loans there are\n    */\n    function getLoanCount() public view returns (uint256) {\n        return loanCount;\n    }\n\n    /**\n    *   @dev Function getSupplyableTokenAddress() returns the contract address of ERC20 this pool accepts (ususally USDC)\n    */\n    function getSupplyableTokenAddress() public view returns (address) {\n        return ERCAddress;\n    }\n\n    /**\n    *   @dev Function getServicerAddress() returns the address of this pool's servicer\n    */\n    function getServicerAddress() public view returns (address) {\n        return servicer;\n    }\n\n    /**\n    *   @dev Function getLoanDetails() returns an all the raw details about a loan\n    *   @param loanId is the id for the loan we're looking up\n    *   EDITED in pool1 to also return PropToken ID\n    */\n    function getLoanDetails(uint256 loanId) public view returns (uint256, address, uint256, uint256, uint256, uint256, uint256) {\n        Loan memory loan = loans[loanId];\n        uint256 interestAccrued = getLoanAccruedInterest(loanId);\n        uint256 propTokenID = loanToPropToken[loanId];\n        return (loan.loanId, loan.borrower, loan.interestRate, loan.principal, interestAccrued, loan.timeLastPayment, propTokenID);\n    }\n\n    /**\n    *   @dev Function getLoanAccruedInterest() calculates and returns the amount of interest accrued on a given loan\n    *   @param loanId is the id for the loan we're looking up\n    */\n    function getLoanAccruedInterest(uint256 loanId) public view returns (uint256) {\n        Loan memory loan = loans[loanId];\n        uint256 secondsSincePayment = block.timestamp.sub(loan.timeLastPayment);\n\n        // 31,104,000 is number of seconds per year (360 * 24 * 60 * 60)\n        uint256 interestPerSecond = loan.principal.mul(loan.interestRate).div(31_104_000);\n\n        // Interest rates are stored in fixed point as numbers and not percentages.\n        // For example, 12% is 12_000000 (12.0) not 0_120000 (0.12).\n        // To do math with them, you often need to divide by 100 (100_000000) after.\n\n        // Divide by 100 for interest rate adjustment and 1_000000 for fixed point adjustment.\n        uint256 interestAccrued = interestPerSecond.mul(secondsSincePayment).div(100_000000);\n\n        return interestAccrued.add(loan.interestAccrued);\n    }\n\n\n    /*****************************************************\n    *                LENDING/BORROWING FUNCTIONS\n    ******************************************************/\n\n    function lendPool(\n        uint256 amountUsdc,\n        uint256 expectedHomeCoin\n    ) public nonReentrant returns (uint256) {\n        IERC20Upgradeable usdcCoin = IERC20Upgradeable(ERCAddress);\n        usdcCoin.transferFrom(msg.sender, address(this), amountUsdc);\n        usdcCoin.approve(curvePoolAddress, amountUsdc);\n        \n        ICurve curve = ICurve(curvePoolAddress);\n        // 2 is USDC. 0 is HomeCoin. All of this is terrible.\n        uint256 rez = curve.exchange_underlying(2, 0, amountUsdc, expectedHomeCoin, msg.sender);\n\n        return rez;\n    }\n\n\n    /**\n    *   @dev Function lend moves assets on the (probably usdc) contract to our own balance\n    *   - Before calling: an approve(address _spender (proxy), uint256 _value (0xffff)) function call must be made on remote contract\n    *   @param amount The amount of USDC to be transferred\n    *   @return the amount of poolTokens created\n    */\n    function lend(\n        uint256 amount\n    ) public nonReentrant returns (uint256) {\n        require(false, \"lend is disabled. Use lendPool\");\n    }\n\n    function redeemPool(\n        uint256 amountHome,\n        uint256 expectedUsdc\n    ) public nonReentrant returns (uint256) {\n        require(balanceOf(msg.sender) >= amountHome, \"HOME balance insufficient\");\n\n        super._transfer(msg.sender, address(this), amountHome);\n        super._approve(address(this), curvePoolAddress, amountHome);\n\n        ICurve curve = ICurve(curvePoolAddress);\n        // 2 is USDC. 0 is HomeCoin. All of this is terrible.\n        uint256 rez = curve.exchange_underlying(0, 2, amountHome, expectedUsdc, msg.sender);\n\n        return rez;\n    }\n\n\n    /**\n    *   @dev Function redeem burns the sender's hcPool tokens and transfers the usdc back to them\n    *   @param amount The amount of hc_pool to be redeemed\n    */\n    function redeem(\n        uint256 amount\n    ) public nonReentrant {\n        require(false, \"Use redeemPool\");\n    }\n\n    /**\n    *   @dev Function borrow creates a new Loan, moves the USDC to Borrower, and returns the loan ID and fixed Interest Rate\n    *   - Also creates an origination fee for the Servicer in HC_Pool\n    *   @param amount The size of the potential loan in (probably usdc).\n    *   @param fixedInterestRate The rate for the loan.\n    *   EDITED in pool1 to also require a PropToken\n    *   EDITED in pool1 - borrower param was removed and msg.sender is new recepient of USDC\n    *   EDITED in pool2 - propToken data is oulled and LTV of loan is required before loan can process\n    *   EDITED in pool14 - now lends HOME instead of USDC\n    */\n    function borrow(uint256 amount, uint256 fixedInterestRate, uint256 propTokenId) public nonReentrant {\n        // require this address is approved to transfer propToken\n        require(PropToken0(propTokenContractAddress).getApproved(propTokenId) == address(this), \"pool not approved to move egg\");\n\n        // [TODO] Consider upgrading PropToken to trust the PoolCore always so approval doesn't have to be done.\n        // also require msg.sender is owner of token.\n        require(PropToken0(propTokenContractAddress).ownerOf(propTokenId) == msg.sender, \"msg.sender not egg owner\");\n\n        // [TODO] Change the interest rate calculation code. Remove the AMM.\n        // check the requested interest rate is still available\n        // uint256 fixedInterestRate = uint256(PoolUtils0(poolUtilsAddress).getInterestRate(amount));\n        // require(fixedInterestRate <= maxRate, \"interest rate no longer avail\");\n\n        // require the propToken approved has a lien value less than or equal to the requested loan size\n        uint256 lienAmount = PropToken0(propTokenContractAddress).getLienValue(propTokenId);\n        require(lienAmount >= amount, \"loan larger that egg value\");\n\n        // require that LTV of propToken is less than LTV required by oracle\n        uint256 LTVRequirement = LTVGuidelines(LTVOracleAddress).getMaxLTV();\n        (, , uint256[] memory SeniorLiens, uint256 HomeValue, , ,) = PropToken0(propTokenContractAddress).getPropTokenData(propTokenId);\n        for (uint i = 0; i < SeniorLiens.length; i++) {\n            lienAmount = lienAmount.add(SeniorLiens[i]);\n        }\n        require(lienAmount.mul(100).div(HomeValue) < LTVRequirement, \"LTV too high\");\n\n        // create new Loan\n        loans.push(Loan(loanCount, msg.sender, fixedInterestRate, amount, 0, block.timestamp));\n\n        // index the loan to the wallet\n        userLoans[msg.sender].push(loanCount);\n\n        // map new Loan ID to Token ID\n        loanToPropToken[loanCount] = propTokenId;\n        loanCount = loanCount.add(1);\n\n        // take the propToken and hold it in the Pool\n        PropToken0(propTokenContractAddress).safeTransferFrom(msg.sender, address(this), propTokenId);\n\n        // Finally mint HOME. 99% to the borrower. 0.5% to servicer. 0.5% to DAO.\n        super._mint(msg.sender, amount.mul(99).div(100));\n        super._mint(servicer, amount.div(200));\n        super._mint(daoAddress, amount.div(200));\n\n        emit Borrow(msg.sender, uint64(propTokenId), uint64(loanCount.sub(1)), uint128(amount), uint64(fixedInterestRate));\n    }\n\n    /**\n    *   @dev Function repay repays a specific loan\n    *   - payment is first deducted from the interest then principal.\n    *   - the servicer_fee is deducted from the interest repayment and servicer is compensated in hc_pool\n    *   - repayer must have first approved fromsfers on behalf\n    *   @param loanId The loan to be repayed\n    *   @param amount The amount of the ERC20 token to repay the loan with\n    *   EDITED in Pool1 - returns propToken when principal reaches 0\n    *   EDITED in pool14 - repayments done in HOME instead of USDC\n    */\n    function repay(uint256 loanId, uint256 amount) public nonReentrant {\n        require(amount > 0, \"Can't make a 0 payment.\");\n        require(loanId < loanCount, \"Loan to repay must exist.\");\n\n        Loan storage currentLoan = loans[loanId];\n\n        uint256 currentInterest = getLoanAccruedInterest(loanId);\n        uint256 currentPrincipal = currentLoan.principal;\n\n        require(currentPrincipal > 0, \"Loan must still be active.\");\n\n        // Default repayments amounts if the payment doesn't cover all the interest accrued.\n        uint256 interestRepaid = amount;\n        uint256 principalRepaid = 0;\n\n        // if the payment amount is greater than accrued interest, deduct the rest from principal.\n        if (currentInterest < amount) {\n            interestRepaid = currentInterest;\n\n            // If the principal payment is larger than the principal left on the loan,\n            // payoff the whole loan and leave the return the rest of the payment.\n            principalRepaid = amount.sub(interestRepaid);\n            if (currentPrincipal < principalRepaid) {\n                principalRepaid = currentPrincipal;\n            }\n        }\n\n        // loan data is updated first before token movement.\n        currentLoan.timeLastPayment = block.timestamp;\n        currentLoan.principal = currentPrincipal.sub(principalRepaid);\n        currentLoan.interestAccrued = currentInterest.sub(interestRepaid);\n\n        // calculate how much of payment goes to servicer here.\n        // 1% of the loan split between the servicer and DAO.\n        uint256 servicerFee = servicerFeePercentage.mul(interestRepaid).div(currentLoan.interestRate);\n\n        // Transfer HOME proportional to the payment and distribute\n        super._transfer(msg.sender, servicer, servicerFee.div(2));\n        super._transfer(msg.sender, daoAddress, servicerFee.div(2));\n\n        // Send the remaining interest to the DAO for distribution to HOME holders\n        super._transfer(msg.sender, daoAddress, interestRepaid.sub(servicerFee));\n\n        // Burn HOME for the principal repaid to maintain the principal/HOME invariant.\n        if (principalRepaid > 0) {\n            super._burn(msg.sender, principalRepaid);\n        }\n\n        // [TODO] Think about the case where the prop token could be used to get multiple loans\n        // [TODO] and there's a separate function to retrieve the token and tests that the balance is 0.\n        // [TODO] For now, the prop token can only be used to get one loan. This makes extra draws impossible.\n\n        // If the loan is paid off. Return the PropToken back to borrower.\n        if (currentLoan.principal == 0) {\n            PropToken0(propTokenContractAddress).safeTransferFrom(address(this), currentLoan.borrower, loanToPropToken[loanId]);\n        }\n\n        emit Repay(msg.sender, uint64(loanId), uint128(currentPrincipal), uint128(currentInterest), uint128(principalRepaid), uint128(interestRepaid));\n\n    }\n\n    /*****************************************************\n    *                Staking FUNCTIONS\n    ******************************************************/\n\n    /**\n    *   @dev Function stake transfers users HOME to the poolStaking contract\n    */\n    function stake(uint256 amount) public returns (bool) {\n        require(balanceOf(msg.sender) >= amount, \"not enough to stake\");\n\n        transfer(poolStakingAddress, amount);\n        bool successfulStake = PoolStakingRewards3(poolStakingRewardAddress).stake(msg.sender, amount);\n        require(successfulStake, \"Stake failed\");\n\n        return successfulStake;\n    }\n\n    function boost(uint256 amount, uint16 level, bool autoRenew) public returns (bool){\n        require(balanceOf(msg.sender) >= amount, \"Not enough to boost\");\n\n        // Deposit the funds with the staking contract so they can still earn Bacon.\n        // Send all tokens to the staking contract to hold them for the user.\n        // Only stake a proportion so the boost earns the appropraite amount of Bacon.\n        uint256 amountToStake = HomeBoost0(homeBoostAddress).getStakeAmount(level, amount);\n\n        transfer(poolStakingAddress, amountToStake);\n        bool successfulStake = PoolStakingRewards3(poolStakingRewardAddress).stake(msg.sender, amountToStake);\n\n        // Send any remaining unstaked amounts to the boost contract for holding.\n        if (amountToStake < amount) {\n            transfer(homeBoostAddress, amount - amountToStake);\n        }\n\n        // Create the boost\n        bool successfulBoost = HomeBoost0(homeBoostAddress).mint(msg.sender, amount, level, autoRenew);\n\n        require(successfulStake && successfulBoost, \"Boost failed\");\n\n        return successfulStake && successfulBoost;\n    }\n\n    /**\n    *   @dev Function getVersion returns current upgraded version\n    */\n    function getVersion() public pure returns (uint) {\n        return 14;\n    }\n\n    function onERC721Received(address, address, uint256, bytes memory ) public pure override returns (bytes4) {\n        return this.onERC721Received.selector;\n    }\n\n    function claimRewards() public returns (uint256) {\n        // 1% Rewards [div by 100]\n        uint256 unstakedRewards = super.getAndClearReward(msg.sender).div(100);\n\n        uint256 stakedRewards = PoolStakingRewards3(poolStakingRewardAddress).getAndClearReward(msg.sender).div(100);\n\n        uint256 rewards = unstakedRewards + stakedRewards;\n\n        super._transfer(daoAddress, msg.sender, rewards);\n\n        return rewards;\n    }\n\n    function transferBoostRewards(address wallet, uint256 amount) public {\n        require(msg.sender == homeBoostAddress, \"invalid sender\");\n\n        super._transfer(daoAddress, wallet, amount);\n    }\n\n    function transferUSDC(address wallet, uint256 amount) public {\n        require(msg.sender == servicer, \"invalid sender\");\n        IERC20Upgradeable usdcCoin = IERC20Upgradeable(ERCAddress);\n\n        usdcCoin.transfer(wallet, amount);\n    }\n\n    /**\n    * @dev Function burn burns HOME\n    * @param amount is the amount of HOME to burn\n    */\n    function burn(uint256 amount) public {\n        super._burn(msg.sender, amount);\n    }\n}\n",
  "sourcePath": "/Users/allan/src/mf/HomeDAO/contracts/PoolCore/Pool14.sol",
  "compiler": {
    "name": "solc",
    "version": "0.8.9+commit.e5eed63a.Emscripten.clang"
  },
  "schemaVersion": "3.4.10",
  "updatedAt": "2022-11-06T05:48:56.471Z",
  "devdoc": {
    "kind": "dev",
    "methods": {
      "allowance(address,address)": {
        "details": "See {IERC20-allowance}."
      },
      "approve(address,uint256)": {
        "details": "See {IERC20-approve}. Requirements: - `spender` cannot be the zero address."
      },
      "balanceOf(address)": {
        "details": "See {IERC20-balanceOf}."
      },
      "borrow(uint256,uint256,uint256)": {
        "details": "Function borrow creates a new Loan, moves the USDC to Borrower, and returns the loan ID and fixed Interest Rate   - Also creates an origination fee for the Servicer in HC_Pool",
        "params": {
          "amount": "The size of the potential loan in (probably usdc).",
          "fixedInterestRate": "The rate for the loan.   EDITED in pool1 to also require a PropToken   EDITED in pool1 - borrower param was removed and msg.sender is new recepient of USDC   EDITED in pool2 - propToken data is oulled and LTV of loan is required before loan can process   EDITED in pool14 - now lends HOME instead of USDC"
        }
      },
      "burn(uint256)": {
        "details": "Function burn burns HOME",
        "params": {
          "amount": "is the amount of HOME to burn"
        }
      },
      "decimals()": {
        "details": "Returns the number of decimals used to get its user representation. For example, if `decimals` equals `2`, a balance of `505` tokens should be displayed to a user as `5.05` (`505 / 10 ** 2`). Tokens usually opt for a value of 18, imitating the relationship between Ether and Wei. This is the value {ERC20} uses, unless this function is overridden; NOTE: This information is only used for _display_ purposes: it in no way affects any of the arithmetic of the contract, including {IERC20-balanceOf} and {IERC20-transfer}."
      },
      "decreaseAllowance(address,uint256)": {
        "details": "Atomically decreases the allowance granted to `spender` by the caller. This is an alternative to {approve} that can be used as a mitigation for problems described in {IERC20-approve}. Emits an {Approval} event indicating the updated allowance. Requirements: - `spender` cannot be the zero address. - `spender` must have allowance for the caller of at least `subtractedValue`."
      },
      "getContractData()": {
        "details": "Function getContractData() returns a lot of variables about the contract"
      },
      "getLoanAccruedInterest(uint256)": {
        "details": "Function getLoanAccruedInterest() calculates and returns the amount of interest accrued on a given loan",
        "params": {
          "loanId": "is the id for the loan we're looking up"
        }
      },
      "getLoanDetails(uint256)": {
        "details": "Function getLoanDetails() returns an all the raw details about a loan",
        "params": {
          "loanId": "is the id for the loan we're looking up   EDITED in pool1 to also return PropToken ID"
        }
      },
      "getServicerAddress()": {
        "details": "Function getServicerAddress() returns the address of this pool's servicer"
      },
      "getSupplyableTokenAddress()": {
        "details": "Function getSupplyableTokenAddress() returns the contract address of ERC20 this pool accepts (ususally USDC)"
      },
      "getVersion()": {
        "details": "Function getVersion returns current upgraded version"
      },
      "increaseAllowance(address,uint256)": {
        "details": "Atomically increases the allowance granted to `spender` by the caller. This is an alternative to {approve} that can be used as a mitigation for problems described in {IERC20-approve}. Emits an {Approval} event indicating the updated allowance. Requirements: - `spender` cannot be the zero address."
      },
      "lend(uint256)": {
        "details": "Function lend moves assets on the (probably usdc) contract to our own balance   - Before calling: an approve(address _spender (proxy), uint256 _value (0xffff)) function call must be made on remote contract",
        "params": {
          "amount": "The amount of USDC to be transferred"
        },
        "returns": {
          "_0": "the amount of poolTokens created"
        }
      },
      "name()": {
        "details": "Returns the name of the token."
      },
      "redeem(uint256)": {
        "details": "Function redeem burns the sender's hcPool tokens and transfers the usdc back to them",
        "params": {
          "amount": "The amount of hc_pool to be redeemed"
        }
      },
      "repay(uint256,uint256)": {
        "details": "Function repay repays a specific loan   - payment is first deducted from the interest then principal.   - the servicer_fee is deducted from the interest repayment and servicer is compensated in hc_pool   - repayer must have first approved fromsfers on behalf",
        "params": {
          "amount": "The amount of the ERC20 token to repay the loan with   EDITED in Pool1 - returns propToken when principal reaches 0   EDITED in pool14 - repayments done in HOME instead of USDC",
          "loanId": "The loan to be repayed"
        }
      },
      "stake(uint256)": {
        "details": "Function stake transfers users HOME to the poolStaking contract"
      },
      "symbol()": {
        "details": "Returns the symbol of the token, usually a shorter version of the name."
      },
      "totalSupply()": {
        "details": "See {IERC20-totalSupply}."
      },
      "transfer(address,uint256)": {
        "details": "See {IERC20-transfer}. Requirements: - `recipient` cannot be the zero address. - the caller must have a balance of at least `amount`."
      },
      "transferFrom(address,address,uint256)": {
        "details": "See {IERC20-transferFrom}. Emits an {Approval} event indicating the updated allowance. This is not required by the EIP. See the note at the beginning of {ERC20}. Requirements: - `sender` and `recipient` cannot be the zero address. - `sender` must have a balance of at least `amount`. - the caller must have allowance for ``sender``'s tokens of at least `amount`."
      }
    },
    "version": 1
  },
  "userdoc": {
    "kind": "user",
    "methods": {},
    "version": 1
  }
}