{
  "contractName": "Pool0",
  "abi": [
    {
      "anonymous": false,
      "inputs": [
        {
          "indexed": true,
          "internalType": "address",
          "name": "owner",
          "type": "address"
        },
        {
          "indexed": true,
          "internalType": "address",
          "name": "spender",
          "type": "address"
        },
        {
          "indexed": false,
          "internalType": "uint256",
          "name": "value",
          "type": "uint256"
        }
      ],
      "name": "Approval",
      "type": "event"
    },
    {
      "anonymous": false,
      "inputs": [
        {
          "indexed": true,
          "internalType": "address",
          "name": "operator",
          "type": "address"
        },
        {
          "indexed": true,
          "internalType": "address",
          "name": "tokenHolder",
          "type": "address"
        }
      ],
      "name": "AuthorizedOperator",
      "type": "event"
    },
    {
      "anonymous": false,
      "inputs": [
        {
          "indexed": true,
          "internalType": "address",
          "name": "operator",
          "type": "address"
        },
        {
          "indexed": true,
          "internalType": "address",
          "name": "from",
          "type": "address"
        },
        {
          "indexed": false,
          "internalType": "uint256",
          "name": "amount",
          "type": "uint256"
        },
        {
          "indexed": false,
          "internalType": "bytes",
          "name": "data",
          "type": "bytes"
        },
        {
          "indexed": false,
          "internalType": "bytes",
          "name": "operatorData",
          "type": "bytes"
        }
      ],
      "name": "Burned",
      "type": "event"
    },
    {
      "anonymous": false,
      "inputs": [
        {
          "indexed": true,
          "internalType": "address",
          "name": "operator",
          "type": "address"
        },
        {
          "indexed": true,
          "internalType": "address",
          "name": "to",
          "type": "address"
        },
        {
          "indexed": false,
          "internalType": "uint256",
          "name": "amount",
          "type": "uint256"
        },
        {
          "indexed": false,
          "internalType": "bytes",
          "name": "data",
          "type": "bytes"
        },
        {
          "indexed": false,
          "internalType": "bytes",
          "name": "operatorData",
          "type": "bytes"
        }
      ],
      "name": "Minted",
      "type": "event"
    },
    {
      "anonymous": false,
      "inputs": [
        {
          "indexed": true,
          "internalType": "address",
          "name": "operator",
          "type": "address"
        },
        {
          "indexed": true,
          "internalType": "address",
          "name": "tokenHolder",
          "type": "address"
        }
      ],
      "name": "RevokedOperator",
      "type": "event"
    },
    {
      "anonymous": false,
      "inputs": [
        {
          "indexed": true,
          "internalType": "address",
          "name": "operator",
          "type": "address"
        },
        {
          "indexed": true,
          "internalType": "address",
          "name": "from",
          "type": "address"
        },
        {
          "indexed": true,
          "internalType": "address",
          "name": "to",
          "type": "address"
        },
        {
          "indexed": false,
          "internalType": "uint256",
          "name": "amount",
          "type": "uint256"
        },
        {
          "indexed": false,
          "internalType": "bytes",
          "name": "data",
          "type": "bytes"
        },
        {
          "indexed": false,
          "internalType": "bytes",
          "name": "operatorData",
          "type": "bytes"
        }
      ],
      "name": "Sent",
      "type": "event"
    },
    {
      "anonymous": false,
      "inputs": [
        {
          "indexed": true,
          "internalType": "address",
          "name": "from",
          "type": "address"
        },
        {
          "indexed": true,
          "internalType": "address",
          "name": "to",
          "type": "address"
        },
        {
          "indexed": false,
          "internalType": "uint256",
          "name": "value",
          "type": "uint256"
        }
      ],
      "name": "Transfer",
      "type": "event"
    },
    {
      "inputs": [
        {
          "internalType": "address",
          "name": "holder",
          "type": "address"
        },
        {
          "internalType": "address",
          "name": "spender",
          "type": "address"
        }
      ],
      "name": "allowance",
      "outputs": [
        {
          "internalType": "uint256",
          "name": "",
          "type": "uint256"
        }
      ],
      "stateMutability": "view",
      "type": "function"
    },
    {
      "inputs": [
        {
          "internalType": "address",
          "name": "spender",
          "type": "address"
        },
        {
          "internalType": "uint256",
          "name": "value",
          "type": "uint256"
        }
      ],
      "name": "approve",
      "outputs": [
        {
          "internalType": "bool",
          "name": "",
          "type": "bool"
        }
      ],
      "stateMutability": "nonpayable",
      "type": "function"
    },
    {
      "inputs": [
        {
          "internalType": "address",
          "name": "operator",
          "type": "address"
        }
      ],
      "name": "authorizeOperator",
      "outputs": [],
      "stateMutability": "nonpayable",
      "type": "function"
    },
    {
      "inputs": [
        {
          "internalType": "address",
          "name": "tokenHolder",
          "type": "address"
        }
      ],
      "name": "balanceOf",
      "outputs": [
        {
          "internalType": "uint256",
          "name": "",
          "type": "uint256"
        }
      ],
      "stateMutability": "view",
      "type": "function"
    },
    {
      "inputs": [
        {
          "internalType": "uint256",
          "name": "amount",
          "type": "uint256"
        },
        {
          "internalType": "bytes",
          "name": "data",
          "type": "bytes"
        }
      ],
      "name": "burn",
      "outputs": [],
      "stateMutability": "nonpayable",
      "type": "function"
    },
    {
      "inputs": [],
      "name": "decimals",
      "outputs": [
        {
          "internalType": "uint8",
          "name": "",
          "type": "uint8"
        }
      ],
      "stateMutability": "pure",
      "type": "function"
    },
    {
      "inputs": [],
      "name": "defaultOperators",
      "outputs": [
        {
          "internalType": "address[]",
          "name": "",
          "type": "address[]"
        }
      ],
      "stateMutability": "view",
      "type": "function"
    },
    {
      "inputs": [],
      "name": "granularity",
      "outputs": [
        {
          "internalType": "uint256",
          "name": "",
          "type": "uint256"
        }
      ],
      "stateMutability": "view",
      "type": "function"
    },
    {
      "inputs": [
        {
          "internalType": "address",
          "name": "operator",
          "type": "address"
        },
        {
          "internalType": "address",
          "name": "tokenHolder",
          "type": "address"
        }
      ],
      "name": "isOperatorFor",
      "outputs": [
        {
          "internalType": "bool",
          "name": "",
          "type": "bool"
        }
      ],
      "stateMutability": "view",
      "type": "function"
    },
    {
      "inputs": [],
      "name": "name",
      "outputs": [
        {
          "internalType": "string",
          "name": "",
          "type": "string"
        }
      ],
      "stateMutability": "view",
      "type": "function"
    },
    {
      "inputs": [
        {
          "internalType": "address",
          "name": "account",
          "type": "address"
        },
        {
          "internalType": "uint256",
          "name": "amount",
          "type": "uint256"
        },
        {
          "internalType": "bytes",
          "name": "data",
          "type": "bytes"
        },
        {
          "internalType": "bytes",
          "name": "operatorData",
          "type": "bytes"
        }
      ],
      "name": "operatorBurn",
      "outputs": [],
      "stateMutability": "nonpayable",
      "type": "function"
    },
    {
      "inputs": [
        {
          "internalType": "address",
          "name": "sender",
          "type": "address"
        },
        {
          "internalType": "address",
          "name": "recipient",
          "type": "address"
        },
        {
          "internalType": "uint256",
          "name": "amount",
          "type": "uint256"
        },
        {
          "internalType": "bytes",
          "name": "data",
          "type": "bytes"
        },
        {
          "internalType": "bytes",
          "name": "operatorData",
          "type": "bytes"
        }
      ],
      "name": "operatorSend",
      "outputs": [],
      "stateMutability": "nonpayable",
      "type": "function"
    },
    {
      "inputs": [
        {
          "internalType": "address",
          "name": "operator",
          "type": "address"
        }
      ],
      "name": "revokeOperator",
      "outputs": [],
      "stateMutability": "nonpayable",
      "type": "function"
    },
    {
      "inputs": [
        {
          "internalType": "address",
          "name": "recipient",
          "type": "address"
        },
        {
          "internalType": "uint256",
          "name": "amount",
          "type": "uint256"
        },
        {
          "internalType": "bytes",
          "name": "data",
          "type": "bytes"
        }
      ],
      "name": "send",
      "outputs": [],
      "stateMutability": "nonpayable",
      "type": "function"
    },
    {
      "inputs": [],
      "name": "symbol",
      "outputs": [
        {
          "internalType": "string",
          "name": "",
          "type": "string"
        }
      ],
      "stateMutability": "view",
      "type": "function"
    },
    {
      "inputs": [],
      "name": "totalSupply",
      "outputs": [
        {
          "internalType": "uint256",
          "name": "",
          "type": "uint256"
        }
      ],
      "stateMutability": "view",
      "type": "function"
    },
    {
      "inputs": [
        {
          "internalType": "address",
          "name": "recipient",
          "type": "address"
        },
        {
          "internalType": "uint256",
          "name": "amount",
          "type": "uint256"
        }
      ],
      "name": "transfer",
      "outputs": [
        {
          "internalType": "bool",
          "name": "",
          "type": "bool"
        }
      ],
      "stateMutability": "nonpayable",
      "type": "function"
    },
    {
      "inputs": [
        {
          "internalType": "address",
          "name": "holder",
          "type": "address"
        },
        {
          "internalType": "address",
          "name": "recipient",
          "type": "address"
        },
        {
          "internalType": "uint256",
          "name": "amount",
          "type": "uint256"
        }
      ],
      "name": "transferFrom",
      "outputs": [
        {
          "internalType": "bool",
          "name": "",
          "type": "bool"
        }
      ],
      "stateMutability": "nonpayable",
      "type": "function"
    },
    {
      "inputs": [
        {
          "internalType": "string",
          "name": "name",
          "type": "string"
        },
        {
          "internalType": "string",
          "name": "symbol",
          "type": "string"
        },
        {
          "internalType": "address",
          "name": "_ERCAddress",
          "type": "address"
        },
        {
          "internalType": "address",
          "name": "_servicer",
          "type": "address"
        },
        {
          "internalType": "address",
          "name": "approvedServicer",
          "type": "address"
        }
      ],
      "name": "initialize",
      "outputs": [],
      "stateMutability": "nonpayable",
      "type": "function"
    },
    {
      "inputs": [
        {
          "internalType": "address[]",
          "name": "_servicerAddresses",
          "type": "address[]"
        }
      ],
      "name": "setApprovedAddresses",
      "outputs": [],
      "stateMutability": "nonpayable",
      "type": "function"
    },
    {
      "inputs": [],
      "name": "getContractData",
      "outputs": [
        {
          "internalType": "address",
          "name": "",
          "type": "address"
        },
        {
          "internalType": "address",
          "name": "",
          "type": "address"
        },
        {
          "internalType": "uint256",
          "name": "",
          "type": "uint256"
        },
        {
          "internalType": "uint256",
          "name": "",
          "type": "uint256"
        },
        {
          "internalType": "uint256",
          "name": "",
          "type": "uint256"
        }
      ],
      "stateMutability": "view",
      "type": "function"
    },
    {
      "inputs": [],
      "name": "getPoolValueWithInterest",
      "outputs": [
        {
          "internalType": "uint256",
          "name": "",
          "type": "uint256"
        }
      ],
      "stateMutability": "view",
      "type": "function"
    },
    {
      "inputs": [],
      "name": "getAllLoans",
      "outputs": [
        {
          "internalType": "uint256[]",
          "name": "",
          "type": "uint256[]"
        }
      ],
      "stateMutability": "view",
      "type": "function"
    },
    {
      "inputs": [],
      "name": "getActiveLoans",
      "outputs": [
        {
          "internalType": "bool[]",
          "name": "",
          "type": "bool[]"
        }
      ],
      "stateMutability": "view",
      "type": "function"
    },
    {
      "inputs": [
        {
          "internalType": "uint256",
          "name": "loanId",
          "type": "uint256"
        }
      ],
      "name": "getLoanAccruedInterest",
      "outputs": [
        {
          "internalType": "uint256",
          "name": "",
          "type": "uint256"
        }
      ],
      "stateMutability": "view",
      "type": "function"
    },
    {
      "inputs": [
        {
          "internalType": "uint256",
          "name": "loanId",
          "type": "uint256"
        }
      ],
      "name": "getLoanDetails",
      "outputs": [
        {
          "internalType": "uint256",
          "name": "",
          "type": "uint256"
        },
        {
          "internalType": "address",
          "name": "",
          "type": "address"
        },
        {
          "internalType": "uint256",
          "name": "",
          "type": "uint256"
        },
        {
          "internalType": "uint256",
          "name": "",
          "type": "uint256"
        },
        {
          "internalType": "uint256",
          "name": "",
          "type": "uint256"
        },
        {
          "internalType": "uint256",
          "name": "",
          "type": "uint256"
        }
      ],
      "stateMutability": "view",
      "type": "function"
    },
    {
      "inputs": [],
      "name": "getAverageInterest",
      "outputs": [
        {
          "internalType": "uint256",
          "name": "",
          "type": "uint256"
        }
      ],
      "stateMutability": "view",
      "type": "function"
    },
    {
      "inputs": [
        {
          "internalType": "uint256",
          "name": "amount",
          "type": "uint256"
        }
      ],
      "name": "lend",
      "outputs": [],
      "stateMutability": "nonpayable",
      "type": "function"
    },
    {
      "inputs": [
        {
          "internalType": "uint256",
          "name": "amount",
          "type": "uint256"
        }
      ],
      "name": "redeem",
      "outputs": [],
      "stateMutability": "nonpayable",
      "type": "function"
    },
    {
      "inputs": [
        {
          "internalType": "uint256",
          "name": "amount",
          "type": "uint256"
        }
      ],
      "name": "getInterestRate",
      "outputs": [
        {
          "internalType": "int256",
          "name": "",
          "type": "int256"
        }
      ],
      "stateMutability": "view",
      "type": "function"
    },
    {
      "inputs": [
        {
          "internalType": "uint256",
          "name": "amount",
          "type": "uint256"
        },
        {
          "internalType": "address",
          "name": "borrower",
          "type": "address"
        },
        {
          "internalType": "uint256",
          "name": "maxRate",
          "type": "uint256"
        }
      ],
      "name": "borrow",
      "outputs": [],
      "stateMutability": "nonpayable",
      "type": "function"
    },
    {
      "inputs": [
        {
          "internalType": "uint256",
          "name": "loanId",
          "type": "uint256"
        },
        {
          "internalType": "uint256",
          "name": "amount",
          "type": "uint256"
        }
      ],
      "name": "repay",
      "outputs": [],
      "stateMutability": "nonpayable",
      "type": "function"
    },
    {
      "inputs": [],
      "name": "hasUpgradedFunction",
      "outputs": [
        {
          "internalType": "bool",
          "name": "",
          "type": "bool"
        }
      ],
      "stateMutability": "pure",
      "type": "function"
    }
  ],
  "bytecode": "0x608060405234801561001057600080fd5b506137c4806100206000396000f3fe608060405234801561001057600080fd5b506004361061020b5760003560e01c806395d89b411161012a578063b3da1bcb116100bd578063db0ed6a01161008c578063fad8b32a11610071578063fad8b32a146104cc578063fc673c4f146104df578063fe9d9303146104f257600080fd5b8063db0ed6a014610480578063dd62ed3e1461049357600080fd5b8063b3da1bcb1461043f578063d8aed14514610447578063d95b63711461045a578063db006a751461046d57600080fd5b8063a5bfd16a116100f9578063a5bfd16a146103c9578063a68b91ab146103de578063a6aa57ce14610419578063a9059cbb1461042c57600080fd5b806395d89b41146103945780639a5872f41461039c5780639bd9bbc6146103af578063a236dd69146103c257600080fd5b8063313ce567116101a257806366877b8d1161017157806366877b8d146102fd57806370a08231146103455780637e174eb41461036e578063959b8c3f1461038157600080fd5b8063313ce567146102cc57806339755466146102db578063556f0dc7146102e357806362ad1b83146102ea57600080fd5b80630c28d13e116101de5780630c28d13e14610287578063121ed2a71461029c57806318160ddd146102b157806323b872dd146102b957600080fd5b806306e485381461021057806306fdde031461022e578063095ea7b3146102435780630c196a7414610266575b600080fd5b610218610505565b6040516102259190612e43565b60405180910390f35b610236610567565b6040516102259190612edd565b610256610251366004612f08565b6105f0565b6040519015158152602001610225565b610279610274366004612f34565b610608565b604051908152602001610225565b61029a610295366004612f4d565b6106c4565b005b6102a46109de565b6040516102259190612f85565b603454610279565b6102566102c7366004612fbf565b610aca565b60405160128152602001610225565b610279610d0a565b6001610279565b61029a6102f83660046130a6565b610e0b565b61031061030b366004612f34565b610e96565b604080519687526001600160a01b039095166020870152938501929092526060840152608083015260a082015260c001610225565b610279610353366004613139565b6001600160a01b031660009081526033602052604090205490565b61029a61037c366004613156565b610f47565b61029a61038f366004613139565b610f75565b6102366110ac565b6102796103aa366004612f34565b6110bb565b61029a6103bd366004613208565b611197565b6001610256565b6103d16111ba565b6040516102259190613261565b6103e6611268565b604080516001600160a01b039687168152959094166020860152928401919091526060830152608082015260a001610225565b61029a610427366004612f34565b6112a7565b61025661043a366004612f08565b61134f565b610279611457565b61029a610455366004613299565b611490565b6102566104683660046132bb565b611897565b61029a61047b366004612f34565b611939565b61029a61048e3660046132f4565b611a88565b6102796104a13660046132bb565b6001600160a01b039182166000908152603b6020908152604080832093909416825291909152205490565b61029a6104da366004613139565b611c26565b61029a6104ed366004613392565b611d5e565b61029a610500366004613412565b611de6565b6060603780548060200260200160405190810160405280929190818152602001828054801561055d57602002820191906000526020600020905b81546001600160a01b0316815260019091019060200180831161053f575b5050505050905090565b60606035805461057690613459565b80601f01602080910402602001604051908101604052809291908181526020018280546105a290613459565b801561055d5780601f106105c45761010080835404028352916020019161055d565b820191906000526020600020905b8154815290600101906020018083116105d257509395945050505050565b6000336105fe818585611e01565b5060019392505050565b600060695460685461061a91906134a4565b821061062557600080fd5b60006106566068546106506305f5e10061064a87606954611f5a90919063ffffffff16565b90611f66565b90611f72565b9050600061066882630bebc200611f7e565b9050600061067a836305f5e100611f7e565b9050600061068f8261065085620f4240611f66565b90506106ba60006106b4620f4240816106ad630bebc2006064611f72565b8690611f7e565b90611f5a565b9695505050505050565b6106cd33611f8a565b61071e5760405162461bcd60e51b815260206004820152601f60248201527f53656e646572206973206e6f7420617070726f7665642073657276696365720060448201526064015b60405180910390fd5b600061072984610608565b90508181111561077b5760405162461bcd60e51b815260206004820152601760248201527f696e746572657374207261746520696e637265617365640000000000000000006044820152606401610715565b6040805160c081018252606c805482526001600160a01b038681166020808501828152858701888152606087018c81526000608089018181524260a08b01908152606b8054600180820183559185528c517fbd43cb8ece8cd1863bcd6082d65c5b0d25665b1ce17980f0da43c0ed545f98b460069092029182015596517fbd43cb8ece8cd1863bcd6082d65c5b0d25665b1ce17980f0da43c0ed545f98b58801805473ffffffffffffffffffffffffffffffffffffffff191691909b161790995593517fbd43cb8ece8cd1863bcd6082d65c5b0d25665b1ce17980f0da43c0ed545f98b686015591517fbd43cb8ece8cd1863bcd6082d65c5b0d25665b1ce17980f0da43c0ed545f98b785015590517fbd43cb8ece8cd1863bcd6082d65c5b0d25665b1ce17980f0da43c0ed545f98b884015590517fbd43cb8ece8cd1863bcd6082d65c5b0d25665b1ce17980f0da43c0ed545f98b990920191909155918252606a81529481208354815480850183559183529590912001939093555490916109049190611fe9565b606c556069546109149086611fe9565b6069556066546040517fa9059cbb0000000000000000000000000000000000000000000000000000000081526001600160a01b038681166004830152602482018890529091169063a9059cbb90604401602060405180830381600087803b15801561097e57600080fd5b505af1158015610992573d6000803e3d6000fd5b505050506040513d601f19601f820116820180604052508101906109b691906134bb565b506065546109d7906001600160a01b03166109d2876064611ff5565b612001565b5050505050565b606b5460609060009067ffffffffffffffff8111156109ff576109ff612fef565b604051908082528060200260200182016040528015610a28578160200160208202803683370190505b50905060005b606b54811015610ac457606b8181548110610a4b57610a4b6134dd565b906000526020600020906006020160030154600014610a8d576001828281518110610a7857610a786134dd565b91151560209283029190910190910152610ab2565b6000828281518110610aa157610aa16134dd565b911515602092830291909101909101525b80610abc816134f3565b915050610a2e565b50919050565b60006001600160a01b038316610b475760405162461bcd60e51b8152602060048201526024808201527f4552433737373a207472616e7366657220746f20746865207a65726f2061646460448201527f72657373000000000000000000000000000000000000000000000000000000006064820152608401610715565b6001600160a01b038416610bc35760405162461bcd60e51b815260206004820152602660248201527f4552433737373a207472616e736665722066726f6d20746865207a65726f206160448201527f64647265737300000000000000000000000000000000000000000000000000006064820152608401610715565b6000339050610bf4818686866040518060200160405280600081525060405180602001604052806000815250612081565b610c208186868660405180602001604052806000815250604051806020016040528060008152506121ea565b6001600160a01b038086166000908152603b602090815260408083209385168352929052205483811015610cbc5760405162461bcd60e51b815260206004820152602960248201527f4552433737373a207472616e7366657220616d6f756e7420657863656564732060448201527f616c6c6f77616e636500000000000000000000000000000000000000000000006064820152608401610715565b610cd08683610ccb87856134a4565b611e01565b610cfe8287878760405180602001604052806000815250604051806020016040528060008152506000612366565b50600195945050505050565b60008080805b606b54811015610df957606b8181548110610d2d57610d2d6134dd565b906000526020600020906006020160030154600014610de757610dab610da4606b8381548110610d5f57610d5f6134dd565b906000526020600020906006020160030154606b8481548110610d8457610d846134dd565b90600052602060002090600602016002015461257c90919063ffffffff16565b8490611fe9565b9250610de4606b8281548110610dc357610dc36134dd565b90600052602060002090600602016003015483611fe990919063ffffffff16565b91505b80610df1816134f3565b915050610d10565b50610e048282611ff5565b9250505090565b610e153386611897565b610e875760405162461bcd60e51b815260206004820152602c60248201527f4552433737373a2063616c6c6572206973206e6f7420616e206f70657261746f60448201527f7220666f7220686f6c64657200000000000000000000000000000000000000006064820152608401610715565b6109d785858585856001612588565b6000806000806000806000606b8881548110610eb457610eb46134dd565b600091825260208083206040805160c08101825260069094029091018054845260018101546001600160a01b03169284019290925260028201549083015260038101546060830152600481015460808301526005015460a08201529150610f1a896110bb565b825160208401516040850151606086015160a090960151929d919c509a5093985090965094509092505050565b6065546001600160a01b03163314610f5e57600080fd5b8051610f71906067906020840190612d48565b5050565b336001600160a01b0382161415610ff35760405162461bcd60e51b8152602060048201526024808201527f4552433737373a20617574686f72697a696e672073656c66206173206f70657260448201527f61746f72000000000000000000000000000000000000000000000000000000006064820152608401610715565b6001600160a01b03811660009081526038602052604090205460ff161561104457336000908152603a602090815260408083206001600160a01b03851684529091529020805460ff19169055611073565b3360009081526039602090815260408083206001600160a01b03851684529091529020805460ff191660011790555b60405133906001600160a01b038316907ff4caeb2d6ca8932a215a353d0703c326ec2d81fc68170f320eb2ab49e9df61f990600090a350565b60606036805461057690613459565b600080606b83815481106110d1576110d16134dd565b600091825260208083206040805160c08101825260069094029091018054845260018101546001600160a01b03169284019290925260028201549083015260038101546060830152600481015460808301526005015460a0820181905290925061113c904290612686565b905060006111706301e2850061116a620f424061116a8760400151886060015161257c90919063ffffffff16565b90611ff5565b9050600061117e828461257c565b90506106ba846080015182611fe990919063ffffffff16565b6111b533848484604051806020016040528060008152506001612588565b505050565b606b5460609060009067ffffffffffffffff8111156111db576111db612fef565b604051908082528060200260200182016040528015611204578160200160208202803683370190505b50905060005b606b54811015610ac457606b8181548110611227576112276134dd565b90600052602060002090600602016000015482828151811061124b5761124b6134dd565b602090810291909101015280611260816134f3565b91505061120a565b60655460665460685460009283928392839283926001600160a01b0391821692911690611293611457565b606954945094509450945094509091929394565b6066546040516323b872dd60e01b8152336004820152306024820152604481018390526001600160a01b03909116906323b872dd90606401602060405180830381600087803b1580156112f957600080fd5b505af115801561130d573d6000803e3d6000fd5b505050506040513d601f19601f8201168201806040525081019061133191906134bb565b5061133c3382612001565b6068546113499082611fe9565b60685550565b60006001600160a01b0383166113cc5760405162461bcd60e51b8152602060048201526024808201527f4552433737373a207472616e7366657220746f20746865207a65726f2061646460448201527f72657373000000000000000000000000000000000000000000000000000000006064820152608401610715565b60003390506113fd818286866040518060200160405280600081525060405180602001604052806000815250612081565b6114298182868660405180602001604052806000815250604051806020016040528060008152506121ea565b6105fe8182868660405180602001604052806000815250604051806020016040528060008152506000612366565b606854600090815b606b54811015610ac45761147c611475826110bb565b8390611fe9565b915080611488816134f3565b91505061145f565b80600061149c846110bb565b905082811115611568576066546040516323b872dd60e01b8152336004820152306024820152604481018590526001600160a01b03909116906323b872dd90606401602060405180830381600087803b1580156114f857600080fd5b505af115801561150c573d6000803e3d6000fd5b505050506040513d601f19601f8201168201806040525081019061153091906134bb565b5061153b8184612686565b606b858154811061154e5761154e6134dd565b906000526020600020906006020160040181905550611803565b90508060006115778483612686565b905080606b868154811061158d5761158d6134dd565b90600052602060002090600602016003015411156116a7576066546040516323b872dd60e01b8152336004820152306024820152604481018690526001600160a01b03909116906323b872dd90606401602060405180830381600087803b1580156115f757600080fd5b505af115801561160b573d6000803e3d6000fd5b505050506040513d601f19601f8201168201806040525081019061162f91906134bb565b5060695461163d9082612686565b60698190555061167a81606b878154811061165a5761165a6134dd565b90600052602060002090600602016003015461268690919063ffffffff16565b606b868154811061168d5761168d6134dd565b9060005260206000209060060201600301819055506117d7565b60006116e083606b88815481106116c0576116c06134dd565b906000526020600020906006020160030154611fe990919063ffffffff16565b6066546040516323b872dd60e01b8152336004820152306024820152604481018390529192506001600160a01b0316906323b872dd90606401602060405180830381600087803b15801561173357600080fd5b505af1158015611747573d6000803e3d6000fd5b505050506040513d601f19601f8201168201806040525081019061176b91906134bb565b506117a5606b8781548110611782576117826134dd565b90600052602060002090600602016003015460695461268690919063ffffffff16565b6069819055506000606b87815481106117c0576117c06134dd565b906000526020600020906006020160030181905550505b6000606b86815481106117ec576117ec6134dd565b906000526020600020906006020160040181905550505b42606b8581548110611817576118176134dd565b60009182526020909120600560069092020101556068546118389083611fe9565b606881905550600061187e606b8681548110611856576118566134dd565b90600052602060002090600602016002015461116a85620f424061257c90919063ffffffff16565b6065549091506109d7906001600160a01b031682612001565b6000816001600160a01b0316836001600160a01b0316148061190257506001600160a01b03831660009081526038602052604090205460ff16801561190257506001600160a01b038083166000908152603a602090815260408083209387168352929052205460ff16155b8061193257506001600160a01b0380831660009081526039602090815260408083209387168352929052205460ff165b9392505050565b3360009081526033602052604090205481111561195557600080fd5b600061197861196360345490565b61116a620f4240611972611457565b9061257c565b9050600061198d620f424061116a858561257c565b905060695460685461199f91906134a4565b8111156119ab57600080fd5b6119d533846040518060200160405280600081525060405180602001604052806000815250612692565b6068546119e29082612686565b6068556066546040517fa9059cbb000000000000000000000000000000000000000000000000000000008152336004820152602481018390526001600160a01b039091169063a9059cbb90604401602060405180830381600087803b158015611a4a57600080fd5b505af1158015611a5e573d6000803e3d6000fd5b505050506040513d601f19601f82011682018060405250810190611a8291906134bb565b50505050565b600054610100900460ff16611aa35760005460ff1615611aa7565b303b155b611b195760405162461bcd60e51b815260206004820152602e60248201527f496e697469616c697a61626c653a20636f6e747261637420697320616c72656160448201527f647920696e697469616c697a65640000000000000000000000000000000000006064820152608401610715565b600054610100900460ff16158015611b5857600080547fffffffffffffffffffffffffffffffffffffffffffffffffffffffffffff0000166101011790555b606680546001600160a01b0380871673ffffffffffffffffffffffffffffffffffffffff199283161790925560658054868416908316179055606780546001810182556000919091527f9787eeb91fe3101235e4a76063c7023ecb40f923f97916639c598592fa30d6ae018054928516929091169190911790556060611bdf87878361287c565b50600060688190556069819055606c558015611c1e57600080547fffffffffffffffffffffffffffffffffffffffffffffffffffffffffffff00ff1690555b505050505050565b6001600160a01b038116331415611ca55760405162461bcd60e51b815260206004820152602160248201527f4552433737373a207265766f6b696e672073656c66206173206f70657261746f60448201527f72000000000000000000000000000000000000000000000000000000000000006064820152608401610715565b6001600160a01b03811660009081526038602052604090205460ff1615611cf957336000908152603a602090815260408083206001600160a01b03851684529091529020805460ff19166001179055611d25565b3360009081526039602090815260408083206001600160a01b03851684529091529020805460ff191690555b60405133906001600160a01b038316907f50546e66e5f44d728365dc3908c63bc5cfeeab470722c1677e3073a6ac294aa190600090a350565b611d683385611897565b611dda5760405162461bcd60e51b815260206004820152602c60248201527f4552433737373a2063616c6c6572206973206e6f7420616e206f70657261746f60448201527f7220666f7220686f6c64657200000000000000000000000000000000000000006064820152608401610715565b611a8284848484612692565b610f7133838360405180602001604052806000815250612692565b6001600160a01b038316611e7d5760405162461bcd60e51b815260206004820152602560248201527f4552433737373a20617070726f76652066726f6d20746865207a65726f20616460448201527f64726573730000000000000000000000000000000000000000000000000000006064820152608401610715565b6001600160a01b038216611ef95760405162461bcd60e51b815260206004820152602360248201527f4552433737373a20617070726f766520746f20746865207a65726f206164647260448201527f65737300000000000000000000000000000000000000000000000000000000006064820152608401610715565b6001600160a01b038381166000818152603b602090815260408083209487168084529482529182902085905590518481527f8c5be1e5ebec7d5bd14f71427d1e84f3dd0314c0f7b2291e5b200ac8c7c3b925910160405180910390a3505050565b6000611932828461350e565b60006119328284613566565b6000611932828461361c565b6000611932828461364a565b600080805b606754811015611fe25760678181548110611fac57611fac6134dd565b6000918252602090912001546001600160a01b0385811691161415611fd057600191505b80611fda816134f3565b915050611f8f565b5092915050565b600061193282846136a2565b600061193282846136ba565b600061200b611457565b90508061203c576111b58383604051806020016040528060008152506040518060200160405280600081525061290c565b60006120558261116a61204e60345490565b869061257c565b9050611a828482604051806020016040528060008152506040518060200160405280600081525061290c565b6040517faabbb8ca0000000000000000000000000000000000000000000000000000000081526001600160a01b03861660048201527f29ddb589b1fb5fc7cf394961c1adf5f8c6454761adf795e67fe149f658abe8956024820152600090731820a4b7618bde71dce8cdc73aab6c95905fad249063aabbb8ca9060440160206040518083038186803b15801561211657600080fd5b505afa15801561212a573d6000803e3d6000fd5b505050506040513d601f19601f8201168201806040525081019061214e91906136ce565b90506001600160a01b038116156121e1576040517f75ab97820000000000000000000000000000000000000000000000000000000081526001600160a01b038216906375ab9782906121ae908a908a908a908a908a908a906004016136eb565b600060405180830381600087803b1580156121c857600080fd5b505af11580156121dc573d6000803e3d6000fd5b505050505b50505050505050565b6001600160a01b038516600090815260336020526040902054838110156122795760405162461bcd60e51b815260206004820152602760248201527f4552433737373a207472616e7366657220616d6f756e7420657863656564732060448201527f62616c616e6365000000000000000000000000000000000000000000000000006064820152608401610715565b6001600160a01b038087166000908152603360205260408082208785039055918716815290812080548692906122b09084906136a2565b92505081905550846001600160a01b0316866001600160a01b0316886001600160a01b03167f06b541ddaa720db2b10a4d0cdac39b8d360425fc073085fac19bc8261467798787878760405161230893929190613744565b60405180910390a4846001600160a01b0316866001600160a01b03167fddf252ad1be2c89b69c2b068fc378daa952ba7f163c4a11628f55a4df523b3ef8660405161235591815260200190565b60405180910390a350505050505050565b6040517faabbb8ca0000000000000000000000000000000000000000000000000000000081526001600160a01b03861660048201527fb281fc8c12954d22544db45de3159a39272895b169a852b314f9cc762e44c53b6024820152600090731820a4b7618bde71dce8cdc73aab6c95905fad249063aabbb8ca9060440160206040518083038186803b1580156123fb57600080fd5b505afa15801561240f573d6000803e3d6000fd5b505050506040513d601f19601f8201168201806040525081019061243391906136ce565b90506001600160a01b038116156124c8576040517e23de290000000000000000000000000000000000000000000000000000000081526001600160a01b038216906223de2990612491908b908b908b908b908b908b906004016136eb565b600060405180830381600087803b1580156124ab57600080fd5b505af11580156124bf573d6000803e3d6000fd5b50505050612572565b8115612572576001600160a01b0386163b156125725760405162461bcd60e51b815260206004820152604d60248201527f4552433737373a20746f6b656e20726563697069656e7420636f6e747261637460448201527f20686173206e6f20696d706c656d656e74657220666f7220455243373737546f60648201527f6b656e73526563697069656e7400000000000000000000000000000000000000608482015260a401610715565b5050505050505050565b6000611932828461376f565b6001600160a01b0386166126045760405162461bcd60e51b815260206004820152602260248201527f4552433737373a2073656e642066726f6d20746865207a65726f20616464726560448201527f73730000000000000000000000000000000000000000000000000000000000006064820152608401610715565b6001600160a01b03851661265a5760405162461bcd60e51b815260206004820181905260248201527f4552433737373a2073656e6420746f20746865207a65726f20616464726573736044820152606401610715565b33612669818888888888612081565b6126778188888888886121ea565b6121e181888888888888612366565b600061193282846134a4565b6001600160a01b03841661270e5760405162461bcd60e51b815260206004820152602260248201527f4552433737373a206275726e2066726f6d20746865207a65726f20616464726560448201527f73730000000000000000000000000000000000000000000000000000000000006064820152608401610715565b3361271e81866000878787612081565b6001600160a01b038516600090815260336020526040902054848110156127ad5760405162461bcd60e51b815260206004820152602360248201527f4552433737373a206275726e20616d6f756e7420657863656564732062616c6160448201527f6e636500000000000000000000000000000000000000000000000000000000006064820152608401610715565b6001600160a01b03861660009081526033602052604081208683039055603480548792906127dc9084906134a4565b92505081905550856001600160a01b0316826001600160a01b03167fa78a9be3a7b862d26933ad85fb11d80ef66b8f972d7cbba06621d583943a409887878760405161282a93929190613744565b60405180910390a36040518581526000906001600160a01b038816907fddf252ad1be2c89b69c2b068fc378daa952ba7f163c4a11628f55a4df523b3ef906020015b60405180910390a3505050505050565b600054610100900460ff166128f95760405162461bcd60e51b815260206004820152602b60248201527f496e697469616c697a61626c653a20636f6e7472616374206973206e6f74206960448201527f6e697469616c697a696e670000000000000000000000000000000000000000006064820152608401610715565b61290161291a565b6111b5838383612999565b611a82848484846001612c0b565b600054610100900460ff166129975760405162461bcd60e51b815260206004820152602b60248201527f496e697469616c697a61626c653a20636f6e7472616374206973206e6f74206960448201527f6e697469616c697a696e670000000000000000000000000000000000000000006064820152608401610715565b565b600054610100900460ff16612a165760405162461bcd60e51b815260206004820152602b60248201527f496e697469616c697a61626c653a20636f6e7472616374206973206e6f74206960448201527f6e697469616c697a696e670000000000000000000000000000000000000000006064820152608401610715565b8251612a29906035906020860190612dba565b508151612a3d906036906020850190612dba565b508051612a51906037906020840190612d48565b5060005b8151811015612aba57600160386000848481518110612a7657612a766134dd565b6020908102919091018101516001600160a01b03168252810191909152604001600020805460ff191691151591909117905580612ab2816134f3565b915050612a55565b506040517f29965a1d00000000000000000000000000000000000000000000000000000000815230600482018190527fac7fbab5f54a3ca8194167523c6753bfeb96a445279294b6125b68cce217705460248301526044820152731820a4b7618bde71dce8cdc73aab6c95905fad24906329965a1d90606401600060405180830381600087803b158015612b4d57600080fd5b505af1158015612b61573d6000803e3d6000fd5b50506040517f29965a1d00000000000000000000000000000000000000000000000000000000815230600482018190527faea199e31a596269b42cdafd93407f14436db6e4cad65417994c2eb37381e05a60248301526044820152731820a4b7618bde71dce8cdc73aab6c95905fad2492506329965a1d9150606401600060405180830381600087803b158015612bf757600080fd5b505af11580156121e1573d6000803e3d6000fd5b6001600160a01b038516612c615760405162461bcd60e51b815260206004820181905260248201527f4552433737373a206d696e7420746f20746865207a65726f20616464726573736044820152606401610715565b60003390508460346000828254612c7891906136a2565b90915550506001600160a01b03861660009081526033602052604081208054879290612ca59084906136a2565b90915550612cbb90508160008888888888612366565b856001600160a01b0316816001600160a01b03167f2fe5be0146f74c5bce36c0b80911af6c7d86ff27e89d5cfa61fc681327954e5d878787604051612d0293929190613744565b60405180910390a36040518581526001600160a01b038716906000907fddf252ad1be2c89b69c2b068fc378daa952ba7f163c4a11628f55a4df523b3ef9060200161286c565b828054828255906000526020600020908101928215612daa579160200282015b82811115612daa578251825473ffffffffffffffffffffffffffffffffffffffff19166001600160a01b03909116178255602090920191600190910190612d68565b50612db6929150612e2e565b5090565b828054612dc690613459565b90600052602060002090601f016020900481019282612de85760008555612daa565b82601f10612e0157805160ff1916838001178555612daa565b82800160010185558215612daa579182015b82811115612daa578251825591602001919060010190612e13565b5b80821115612db65760008155600101612e2f565b6020808252825182820181905260009190848201906040850190845b81811015612e845783516001600160a01b031683529284019291840191600101612e5f565b50909695505050505050565b6000815180845260005b81811015612eb657602081850181015186830182015201612e9a565b81811115612ec8576000602083870101525b50601f01601f19169290920160200192915050565b6020815260006119326020830184612e90565b6001600160a01b0381168114612f0557600080fd5b50565b60008060408385031215612f1b57600080fd5b8235612f2681612ef0565b946020939093013593505050565b600060208284031215612f4657600080fd5b5035919050565b600080600060608486031215612f6257600080fd5b833592506020840135612f7481612ef0565b929592945050506040919091013590565b6020808252825182820181905260009190848201906040850190845b81811015612e84578351151583529284019291840191600101612fa1565b600080600060608486031215612fd457600080fd5b8335612fdf81612ef0565b92506020840135612f7481612ef0565b634e487b7160e01b600052604160045260246000fd5b604051601f8201601f1916810167ffffffffffffffff8111828210171561302e5761302e612fef565b604052919050565b600082601f83011261304757600080fd5b813567ffffffffffffffff81111561306157613061612fef565b6130746020601f19601f84011601613005565b81815284602083860101111561308957600080fd5b816020850160208301376000918101602001919091529392505050565b600080600080600060a086880312156130be57600080fd5b85356130c981612ef0565b945060208601356130d981612ef0565b935060408601359250606086013567ffffffffffffffff808211156130fd57600080fd5b61310989838a01613036565b9350608088013591508082111561311f57600080fd5b5061312c88828901613036565b9150509295509295909350565b60006020828403121561314b57600080fd5b813561193281612ef0565b6000602080838503121561316957600080fd5b823567ffffffffffffffff8082111561318157600080fd5b818501915085601f83011261319557600080fd5b8135818111156131a7576131a7612fef565b8060051b91506131b8848301613005565b81815291830184019184810190888411156131d257600080fd5b938501935b838510156131fc57843592506131ec83612ef0565b82825293850193908501906131d7565b98975050505050505050565b60008060006060848603121561321d57600080fd5b833561322881612ef0565b925060208401359150604084013567ffffffffffffffff81111561324b57600080fd5b61325786828701613036565b9150509250925092565b6020808252825182820181905260009190848201906040850190845b81811015612e845783518352928401929184019160010161327d565b600080604083850312156132ac57600080fd5b50508035926020909101359150565b600080604083850312156132ce57600080fd5b82356132d981612ef0565b915060208301356132e981612ef0565b809150509250929050565b600080600080600060a0868803121561330c57600080fd5b853567ffffffffffffffff8082111561332457600080fd5b61333089838a01613036565b9650602088013591508082111561334657600080fd5b5061335388828901613036565b945050604086013561336481612ef0565b9250606086013561337481612ef0565b9150608086013561338481612ef0565b809150509295509295909350565b600080600080608085870312156133a857600080fd5b84356133b381612ef0565b935060208501359250604085013567ffffffffffffffff808211156133d757600080fd5b6133e388838901613036565b935060608701359150808211156133f957600080fd5b5061340687828801613036565b91505092959194509250565b6000806040838503121561342557600080fd5b82359150602083013567ffffffffffffffff81111561344357600080fd5b61344f85828601613036565b9150509250929050565b600181811c9082168061346d57607f821691505b60208210811415610ac457634e487b7160e01b600052602260045260246000fd5b634e487b7160e01b600052601160045260246000fd5b6000828210156134b6576134b661348e565b500390565b6000602082840312156134cd57600080fd5b8151801515811461193257600080fd5b634e487b7160e01b600052603260045260246000fd5b60006000198214156135075761350761348e565b5060010190565b6000808212827f7fffffffffffffffffffffffffffffffffffffffffffffffffffffffffffffff038413811516156135485761354861348e565b82600160ff1b0384128116156135605761356061348e565b50500190565b60007f7fffffffffffffffffffffffffffffffffffffffffffffffffffffffffffffff6000841360008413858304851182821616156135a7576135a761348e565b600160ff1b60008712868205881281841616156135c6576135c661348e565b600087129250878205871284841616156135e2576135e261348e565b878505871281841616156135f8576135f861348e565b505050929093029392505050565b634e487b7160e01b600052601260045260246000fd5b60008261362b5761362b613606565b6000198314600160ff1b831416156136455761364561348e565b500590565b600080831283600160ff1b018312811516156136685761366861348e565b837f7fffffffffffffffffffffffffffffffffffffffffffffffffffffffffffffff01831381161561369c5761369c61348e565b50500390565b600082198211156136b5576136b561348e565b500190565b6000826136c9576136c9613606565b500490565b6000602082840312156136e057600080fd5b815161193281612ef0565b60006001600160a01b038089168352808816602084015280871660408401525084606083015260c0608083015261372560c0830185612e90565b82810360a08401526137378185612e90565b9998505050505050505050565b83815260606020820152600061375d6060830185612e90565b82810360408401526106ba8185612e90565b60008160001904831182151516156137895761378961348e565b50029056fea2646970667358221220512e81bbed0975218009d9aeef3a89fd1cbfd8ab6001fbbf8cc794f8d6d9b5a064736f6c63430008090033",
  "immutableReferences": {},
  "source": "// contracts/Pool0.sol\n// SPDX-License-Identifier: MIT\npragma solidity ^0.8.4;\n\nimport \"../@openzeppelin/contracts-upgradeable/proxy/utils/Initializable.sol\";\nimport \"../@openzeppelin/contracts-upgradeable/token/ERC777/ERC777Upgradeable.sol\";\nimport '../@openzeppelin/contracts-upgradeable/token/ERC20/IERC20Upgradeable.sol';\nimport '../@openzeppelin/contracts/utils/math/SafeMath.sol';\nimport '../@openzeppelin/contracts/utils/math/SignedSafeMath.sol';\n\ncontract Pool0 is Initializable, ERC777Upgradeable {\n    using SignedSafeMath for int256;\n    using SafeMath for uint256;\n\n    struct Loan{\n        uint256 loanId;\n        address borrower;\n        uint256 interestRate;\n        uint256 principal;\n        uint256 interestAccrued;\n        uint256 timeLastPayment;\n    }\n\n    address servicer;\n    address ERCAddress;\n    address[] servicerAddresses;\n    /* Adding a variable above this line (not reflected in Pool0) will cause contract storage conflicts */\n\n    uint256 poolLent;\n    uint256 poolBorrowed;\n    mapping(address => uint256[]) userLoans;\n    Loan[] loans;\n    uint256 loanCount;\n\n    uint constant servicerFeePercentage = 1000000;\n    uint constant baseInterestPercentage = 0;\n    uint constant curveK = 200000000;\n\n    /*****************************************************\n    *                POOL STRUCTURE FUNCTIONS\n    ******************************************************/\n\n    /** \n    *   @dev Function initialize replaces constructor in upgradable contracts\n    *   - Calls the init function of the inherited ERC777 contract\n    *   @param name Name of this particular ERC777 token\n    *   @param symbol The ticker this token will go by\n    */\n    function initialize(string memory name, string memory symbol, address _ERCAddress, address _servicer, address approvedServicer) public initializer {\n        address[] memory operators;\n        ERCAddress = _ERCAddress;\n        servicer = _servicer;\n        servicerAddresses.push(approvedServicer);\n        ERC777Upgradeable.__ERC777_init(name, symbol, operators );\n\n        //set initial vars\n        poolLent = 0;\n        poolBorrowed = 0;\n        loanCount = 0;\n    }\n    \n    /** \n    *   @dev Function setApprovedAddresses() updates the array of addresses approved by the servicer\n    *   @param _servicerAddresses The array of addresses to be set as approved for borrowing\n    */\n    function setApprovedAddresses(address[] memory _servicerAddresses) public {\n        require(msg.sender == servicer);\n\n        servicerAddresses = _servicerAddresses;\n    }\n\n    /** \n    *   @dev Function setApprovedAddresses() is an internal function that checks the array of approved addresses for the given address\n    *   @param _address The address to be checked if it is approved\n    *   @return isApproved is if the _addess is found in the list of servicerAddresses\n    */\n    function isApprovedServicer(address _address) internal view returns (bool) {\n        bool isApproved = false;\n        \n        for (uint i = 0; i < servicerAddresses.length; i++) {\n            if(_address == servicerAddresses[i]) {\n                isApproved = true;\n            }\n        }\n\n        return isApproved;\n    }\n\n    /*****************************************************\n    *                GETTER FUNCTIONS\n    ******************************************************/\n    /**\n    *   @dev Function getContractData() returns a lot of variables about the contract\n    */\n    function getContractData() public view returns (address, address, uint256, uint256, uint256) {\n        return (servicer, ERCAddress, poolLent, getPoolValueWithInterest(), poolBorrowed);\n    }\n\n    /**  \n    *   @dev Function getPoolValueWithInterest() returns the contract address of ERC20 this pool accepts (ususally USDC)\n    */\n    function getPoolValueWithInterest() public view returns (uint256) {\n        uint256 totalWithInterest = poolLent;\n\n        for (uint i=0; i<loans.length; i++) {\n            totalWithInterest = totalWithInterest.add(getLoanAccruedInterest(i));\n        }\n\n        return totalWithInterest;\n    }\n\n    /**  \n    *   @dev Function getAllLoans() returns an array of the loanIndexes all users have taken out\n    *   @return array on loanIds of loans\n    */\n    function getAllLoans() public view returns (uint256[] memory) {\n        uint256[] memory loanIds = new uint256[](loans.length);\n\n        for (uint i = 0; i < loans.length; i++) {\n            loanIds[i] = loans[i].loanId;\n        }\n\n        return loanIds;\n    }\n\n    /**  \n    *   @dev Function getActiveLoans() returns an array of the loans currently out by users\n    *   @return array of bools, where the index i is the loan ID and the value bool is active or not\n    */\n    function getActiveLoans() public view returns (bool[] memory) {\n        bool[] memory loanActive = new bool[](loans.length);\n\n        for (uint i = 0; i < loans.length; i++) {\n            if(loans[i].principal != 0) {\n                loanActive[i] = true;\n            } else {\n                loanActive[i] = false;\n            }\n        }\n\n        return loanActive;\n    }\n\n    /**  \n    *   @dev Function getLoanAccruedInterest() calculates and returns the amount of interest accrued on a given loan\n    *   @param loanId is the id for the loan we're looking up\n    */\n    function getLoanAccruedInterest(uint256 loanId) public view returns (uint256) {\n        Loan memory loan = loans[loanId];\n        uint256 secondsSincePayment = block.timestamp.sub(loan.timeLastPayment);\n\n        uint256 interestPerSecond = loan.principal.mul(loan.interestRate).div(1000000).div(31622400);\n        uint256 interestAccrued = interestPerSecond.mul(secondsSincePayment);\n        return interestAccrued.add(loan.interestAccrued);\n    }    \n\n    /**  \n    *   @dev Function getLoanDetails() returns an all the raw details about a loan\n    *   @param loanId is the id for the loan we're looking up\n    */\n    function getLoanDetails(uint256 loanId) public view returns (uint256, address, uint256, uint256, uint256, uint256) {\n        Loan memory loan = loans[loanId];\n        //temp interestAccrued calculation because this is a read function\n        uint256 interestAccrued = getLoanAccruedInterest(loanId);\n        return (loan.loanId, loan.borrower, loan.interestRate, loan.principal, interestAccrued, loan.timeLastPayment);\n    }\n\n    /**  \n    *   @dev Function getAverageInterest() returns an average interest for the pool\n    */\n    function getAverageInterest() public view returns (uint256) {\n        uint256 sumOfRates = 0;\n        uint256 borrowedCounter = 0;\n\n       for (uint i = 0; i < loans.length; i++) {\n           if(loans[i].principal != 0){\n               sumOfRates = sumOfRates.add(loans[i].interestRate.mul(loans[i].principal));\n               borrowedCounter = borrowedCounter.add(loans[i].principal);\n           }\n       }\n\n       return sumOfRates.div(borrowedCounter);\n    }\n\n    /*****************************************************\n    *                LENDING/BORROWING FUNCTIONS\n    ******************************************************/\n\n    /**  \n    *   @dev Function mintProportionalPoolTokens calculates how many new hc_pool tokens to mint when value is added to the pool based on proportional value\n    *   @param recepient The address of the wallet receiving the newly minted hc_pool tokens\n    *   @param amount The amount to be minted\n    */\n    function mintProportionalPoolTokens(address recepient, uint256 amount) private {\n        //check if this is first deposit\n        uint256 totalValue = getPoolValueWithInterest();\n        if (totalValue == 0) {\n            super._mint(recepient, amount, \"\", \"\");\n        } else {\n            //Calculate proportional to total value (including interest)\n            uint256 new_hc_pool = amount.mul(super.totalSupply()).div(totalValue);\n            super._mint(recepient, new_hc_pool, \"\", \"\");\n        }\n    }\n\n    /**  \n    *   @dev Function lend moves assets on the (probably usdc) contract to our own balance\n    *   - Before calling: an approve(address _spender (proxy), uint256 _value (0xffff)) function call must be made on remote contract\n    *   @param amount The amount to be transferred\n    */\n    function lend(\n        uint256 amount\n    ) public {\n        //USDC on Ropsten only right now\n        IERC20Upgradeable(ERCAddress).transferFrom(msg.sender, address(this), amount);\n        mintProportionalPoolTokens(msg.sender, amount);\n        poolLent = poolLent.add(amount);\n    }\n\n    /**  \n    *   @dev Function redeem burns the sender's hcPool tokens and transfers the usdc back to them\n    *   @param amount The amount of hc_pool to be redeemed\n    */\n    function redeem(\n        uint256 amount\n    ) public {\n        //check to see if sender has enough hc_pool to redeem\n        require(balanceOf(msg.sender) >= amount);\n\n        //check to make sure there is liquidity available in the pool to withdraw\n        uint256 tokenPrice = getPoolValueWithInterest().mul(1000000).div(super.totalSupply());\n        uint256 erc20ValueOfTokens = amount.mul(tokenPrice).div(1000000);\n        require(erc20ValueOfTokens <= (poolLent - poolBorrowed));\n\n        //burn hcPool first\n        super._burn(msg.sender, amount, \"\", \"\");\n        poolLent = poolLent.sub(erc20ValueOfTokens);\n        IERC20Upgradeable(ERCAddress).transfer(msg.sender, erc20ValueOfTokens);\n    }\n\n    /**  \n    *   @dev Function getInterestRate calculates the new interest rate if a loan was to be taken out in this block\n    *   @param amount The size of the potential loan in (probably usdc).\n    *   @return interestRate The interest rate in APR for the loan\n    */\n    function getInterestRate(uint256 amount) public view returns (int256) {\n        //I = (( U - k ) / (U - 100)) - 0.01k + Base + ServicerFee\n        //all ints multiplied by 1000000 to represent the 6 decimal points available\n        \n        //first check available allocation\n        require(amount < (poolLent - poolBorrowed));\n\n        //get new proposed utilization amount\n        int256 newUtilizationRatio = int256(poolBorrowed).add(int256(amount)).mul(100000000).div(int256(poolLent));\n\n        //calculate interest\n        //subtract k from U\n        int256 numerator = newUtilizationRatio.sub(int256(curveK));  \n        //subtract 100 from U\n        int256 denominator = newUtilizationRatio.sub(100000000);\n        //divide numerator by denominator and multiply percentage by 10^6 to account for decimal places\n        int256 interest = numerator.mul(1000000).div(denominator);\n        //add base and fees to interest\n        interest = interest.sub(int256(curveK).div(100)).add(int256(servicerFeePercentage)).add(int256(baseInterestPercentage)); \n        \n        return interest;\n    }\n\n    /**  \n    *   @dev Function borrow creates a new Loan, moves the USDC to Borrower, and returns the loan ID and fixed Interest Rate\n    *   - Also creates an origination fee for the Servicer in HC_Pool\n    *   @param amount The size of the potential loan in (probably usdc).\n    *   @param borrower The address of the recipient of the loan\n    *   @param maxRate The size of the potential loan in (probably usdc).\n    */\n    function borrow(uint256 amount, address borrower, uint256 maxRate) public {\n        //for v1 only allow ServicerAprovedAddresses to \"approve\" borrower\n        require(isApprovedServicer(msg.sender), \"Sender is not approved servicer\");\n\n        //check the requested interest rate is still available\n        uint256 fixedInterestRate = uint256(getInterestRate(amount));\n        require(fixedInterestRate <= maxRate, \"interest rate increased\");\n\n\n        //create new Loan\n        Loan memory newLoan = Loan(loanCount, borrower, fixedInterestRate, amount, 0, block.timestamp);\n        loans.push(newLoan);\n        userLoans[borrower].push(loanCount);\n\n        //update system variables\n        loanCount = loanCount.add(1);\n        poolBorrowed = poolBorrowed.add(amount);\n\n        //finally move the USDC\n        IERC20Upgradeable(ERCAddress).transfer(borrower, amount);\n\n        //then mint HC_Pool for the servicer (fixed 1% origination is better than standard 2.5%)\n        mintProportionalPoolTokens(servicer, amount.div(100));\n    }\n    \n    /**  \n    *   @dev Function repay repays a specific loan\n    *   - payment is first deducted from the interest then principal. \n    *   - the servicer_fee is deducted from the interest repayment and servicer is compensated in hc_pool\n    *   - repayer must have first approved fromsfers on behalf \n    *   @param loanId The loan to be repayed\n    *   @param amount The amount of the ERC20 token to repay the loan with\n    */\n    function repay(uint256 loanId, uint256 amount) public {        \n        //interestAmountRepayed keeps track of how much of the loan was returned to the pool to calculate servicer fee(treated as cash investment)\n        uint256 interestAmountRepayed = amount;\n\n        uint256 currentInterest = getLoanAccruedInterest(loanId);\n        if(currentInterest > amount) {\n            //if the payment is less than the interest accrued on the loan, just deduct amount from interest\n            //deduct amount FIRST (to make sure they have available balance), then reduce loan amount\n            IERC20Upgradeable(ERCAddress).transferFrom(msg.sender, address(this), amount);\n            loans[loanId].interestAccrued = currentInterest.sub(amount);\n        } else {\n            //if the amount borrow is repaying is greater than interest accrued, deduct the rest from principal\n            interestAmountRepayed = currentInterest;\n            uint256 amountAfterInterest = amount.sub(currentInterest);\n            \n            if(loans[loanId].principal > amountAfterInterest) {\n                //deduct amount from Borrower and reduce the principal\n                IERC20Upgradeable(ERCAddress).transferFrom(msg.sender, address(this), amount);\n                //return the repayed principal to the 'borrowable' amount\n                poolBorrowed = poolBorrowed.sub(amountAfterInterest);\n                loans[loanId].principal = loans[loanId].principal.sub(amountAfterInterest);\n            } else {\n                //deduct totalLoanValue\n                uint256 totalLoanValue = loans[loanId].principal.add(currentInterest);\n                IERC20Upgradeable(ERCAddress).transferFrom(msg.sender, address(this), totalLoanValue);\n                //return the repayed principal to the 'borrowable' amount\n                poolBorrowed = poolBorrowed.sub(loans[loanId].principal);\n                loans[loanId].principal = 0;\n            }\n\n            //set interest accrued to 0 AFTER successful erc20 transfer\n            loans[loanId].interestAccrued = 0;\n        }\n\n        //last payment timestamp is only updated AFTER  successful erc20 transfer\n        loans[loanId].timeLastPayment = block.timestamp;\n\n        //treat repayed interest as new money Lent into the pool\n        poolLent = poolLent.add(interestAmountRepayed);\n\n        //servicer fee is treated as cash investment in the pool as the percentage interest\n        //calculate how much of payment goes to servicer here\n        uint256 servicerFeeInERC = servicerFeePercentage.mul(interestAmountRepayed).div(loans[loanId].interestRate);\n        mintProportionalPoolTokens(servicer, servicerFeeInERC);\n    }\n\n\n    /**  \n    *   @dev Function hasUpgradedFunction returns bool depending on if contract has been upgraded or not\n    */\n    function hasUpgradedFunction() public pure returns (bool) {\n        return true;\n    }\n}",
  "sourcePath": "/Users/patrick/github/HomeDAO/contracts/PoolCore/Pool0.sol",
  "compiler": {
    "name": "solc",
    "version": "0.8.9+commit.e5eed63a.Emscripten.clang"
  },
  "schemaVersion": "3.4.8",
  "updatedAt": "2022-08-10T01:41:49.908Z",
  "devdoc": {
    "kind": "dev",
    "methods": {
      "allowance(address,address)": {
        "details": "See {IERC20-allowance}. Note that operator and allowance concepts are orthogonal: operators may not have allowance, and accounts with allowance may not be operators themselves."
      },
      "approve(address,uint256)": {
        "details": "See {IERC20-approve}. Note that accounts cannot have allowance issued by their operators."
      },
      "authorizeOperator(address)": {
        "details": "See {IERC777-authorizeOperator}."
      },
      "balanceOf(address)": {
        "details": "Returns the amount of tokens owned by an account (`tokenHolder`)."
      },
      "borrow(uint256,address,uint256)": {
        "details": "Function borrow creates a new Loan, moves the USDC to Borrower, and returns the loan ID and fixed Interest Rate   - Also creates an origination fee for the Servicer in HC_Pool",
        "params": {
          "amount": "The size of the potential loan in (probably usdc).",
          "borrower": "The address of the recipient of the loan",
          "maxRate": "The size of the potential loan in (probably usdc)."
        }
      },
      "burn(uint256,bytes)": {
        "details": "See {IERC777-burn}. Also emits a {IERC20-Transfer} event for ERC20 compatibility."
      },
      "decimals()": {
        "details": "See {ERC20-decimals}. Always returns 18, as per the [ERC777 EIP](https://eips.ethereum.org/EIPS/eip-777#backward-compatibility)."
      },
      "defaultOperators()": {
        "details": "See {IERC777-defaultOperators}."
      },
      "getActiveLoans()": {
        "details": "Function getActiveLoans() returns an array of the loans currently out by users",
        "returns": {
          "_0": "array of bools, where the index i is the loan ID and the value bool is active or not"
        }
      },
      "getAllLoans()": {
        "details": "Function getAllLoans() returns an array of the loanIndexes all users have taken out",
        "returns": {
          "_0": "array on loanIds of loans"
        }
      },
      "getAverageInterest()": {
        "details": "Function getAverageInterest() returns an average interest for the pool"
      },
      "getContractData()": {
        "details": "Function getContractData() returns a lot of variables about the contract"
      },
      "getInterestRate(uint256)": {
        "details": "Function getInterestRate calculates the new interest rate if a loan was to be taken out in this block",
        "params": {
          "amount": "The size of the potential loan in (probably usdc)."
        },
        "returns": {
          "_0": "interestRate The interest rate in APR for the loan"
        }
      },
      "getLoanAccruedInterest(uint256)": {
        "details": "Function getLoanAccruedInterest() calculates and returns the amount of interest accrued on a given loan",
        "params": {
          "loanId": "is the id for the loan we're looking up"
        }
      },
      "getLoanDetails(uint256)": {
        "details": "Function getLoanDetails() returns an all the raw details about a loan",
        "params": {
          "loanId": "is the id for the loan we're looking up"
        }
      },
      "getPoolValueWithInterest()": {
        "details": "Function getPoolValueWithInterest() returns the contract address of ERC20 this pool accepts (ususally USDC)"
      },
      "granularity()": {
        "details": "See {IERC777-granularity}. This implementation always returns `1`."
      },
      "hasUpgradedFunction()": {
        "details": "Function hasUpgradedFunction returns bool depending on if contract has been upgraded or not"
      },
      "initialize(string,string,address,address,address)": {
        "details": "Function initialize replaces constructor in upgradable contracts   - Calls the init function of the inherited ERC777 contract",
        "params": {
          "name": "Name of this particular ERC777 token",
          "symbol": "The ticker this token will go by"
        }
      },
      "isOperatorFor(address,address)": {
        "details": "See {IERC777-isOperatorFor}."
      },
      "lend(uint256)": {
        "details": "Function lend moves assets on the (probably usdc) contract to our own balance   - Before calling: an approve(address _spender (proxy), uint256 _value (0xffff)) function call must be made on remote contract",
        "params": {
          "amount": "The amount to be transferred"
        }
      },
      "name()": {
        "details": "See {IERC777-name}."
      },
      "operatorBurn(address,uint256,bytes,bytes)": {
        "details": "See {IERC777-operatorBurn}. Emits {Burned} and {IERC20-Transfer} events."
      },
      "operatorSend(address,address,uint256,bytes,bytes)": {
        "details": "See {IERC777-operatorSend}. Emits {Sent} and {IERC20-Transfer} events."
      },
      "redeem(uint256)": {
        "details": "Function redeem burns the sender's hcPool tokens and transfers the usdc back to them",
        "params": {
          "amount": "The amount of hc_pool to be redeemed"
        }
      },
      "repay(uint256,uint256)": {
        "details": "Function repay repays a specific loan   - payment is first deducted from the interest then principal.    - the servicer_fee is deducted from the interest repayment and servicer is compensated in hc_pool   - repayer must have first approved fromsfers on behalf ",
        "params": {
          "amount": "The amount of the ERC20 token to repay the loan with",
          "loanId": "The loan to be repayed"
        }
      },
      "revokeOperator(address)": {
        "details": "See {IERC777-revokeOperator}."
      },
      "send(address,uint256,bytes)": {
        "details": "See {IERC777-send}. Also emits a {IERC20-Transfer} event for ERC20 compatibility."
      },
      "setApprovedAddresses(address[])": {
        "details": "Function setApprovedAddresses() updates the array of addresses approved by the servicer",
        "params": {
          "_servicerAddresses": "The array of addresses to be set as approved for borrowing"
        }
      },
      "symbol()": {
        "details": "See {IERC777-symbol}."
      },
      "totalSupply()": {
        "details": "See {IERC777-totalSupply}."
      },
      "transfer(address,uint256)": {
        "details": "See {IERC20-transfer}. Unlike `send`, `recipient` is _not_ required to implement the {IERC777Recipient} interface if it is a contract. Also emits a {Sent} event."
      },
      "transferFrom(address,address,uint256)": {
        "details": "See {IERC20-transferFrom}. Note that operator and allowance concepts are orthogonal: operators cannot call `transferFrom` (unless they have allowance), and accounts with allowance cannot call `operatorSend` (unless they are operators). Emits {Sent}, {IERC20-Transfer} and {IERC20-Approval} events."
      }
    },
    "version": 1
  },
  "userdoc": {
    "kind": "user",
    "methods": {},
    "version": 1
  }
}