{
  "abi": [
    {
      "anonymous": false,
      "inputs": [
        {
          "indexed": true,
          "internalType": "address",
          "name": "owner",
          "type": "address"
        },
        {
          "indexed": true,
          "internalType": "address",
          "name": "spender",
          "type": "address"
        },
        {
          "indexed": false,
          "internalType": "uint256",
          "name": "value",
          "type": "uint256"
        }
      ],
      "name": "Approval",
      "type": "event"
    },
    {
      "anonymous": false,
      "inputs": [
        {
          "indexed": true,
          "internalType": "address",
          "name": "borrower",
          "type": "address"
        },
        {
          "indexed": true,
          "internalType": "uint64",
          "name": "property",
          "type": "uint64"
        },
        {
          "indexed": true,
          "internalType": "uint64",
          "name": "loan",
          "type": "uint64"
        },
        {
          "indexed": false,
          "internalType": "uint128",
          "name": "amount",
          "type": "uint128"
        },
        {
          "indexed": false,
          "internalType": "uint64",
          "name": "rate",
          "type": "uint64"
        }
      ],
      "name": "Borrow",
      "type": "event"
    },
    {
      "anonymous": false,
      "inputs": [
        {
          "indexed": true,
          "internalType": "address",
          "name": "payer",
          "type": "address"
        },
        {
          "indexed": true,
          "internalType": "uint64",
          "name": "loan",
          "type": "uint64"
        },
        {
          "indexed": false,
          "internalType": "uint128",
          "name": "principal",
          "type": "uint128"
        },
        {
          "indexed": false,
          "internalType": "uint128",
          "name": "interest",
          "type": "uint128"
        },
        {
          "indexed": false,
          "internalType": "uint128",
          "name": "principalPaid",
          "type": "uint128"
        },
        {
          "indexed": false,
          "internalType": "uint128",
          "name": "interestPaid",
          "type": "uint128"
        }
      ],
      "name": "Repay",
      "type": "event"
    },
    {
      "anonymous": false,
      "inputs": [
        {
          "indexed": true,
          "internalType": "address",
          "name": "from",
          "type": "address"
        },
        {
          "indexed": true,
          "internalType": "address",
          "name": "to",
          "type": "address"
        },
        {
          "indexed": false,
          "internalType": "uint256",
          "name": "value",
          "type": "uint256"
        }
      ],
      "name": "Transfer",
      "type": "event"
    },
    {
      "inputs": [
        {
          "internalType": "address",
          "name": "owner",
          "type": "address"
        },
        {
          "internalType": "address",
          "name": "spender",
          "type": "address"
        }
      ],
      "name": "allowance",
      "outputs": [
        {
          "internalType": "uint256",
          "name": "",
          "type": "uint256"
        }
      ],
      "stateMutability": "view",
      "type": "function"
    },
    {
      "inputs": [
        {
          "internalType": "address",
          "name": "spender",
          "type": "address"
        },
        {
          "internalType": "uint256",
          "name": "amount",
          "type": "uint256"
        }
      ],
      "name": "approve",
      "outputs": [
        {
          "internalType": "bool",
          "name": "",
          "type": "bool"
        }
      ],
      "stateMutability": "nonpayable",
      "type": "function"
    },
    {
      "inputs": [
        {
          "internalType": "address",
          "name": "account",
          "type": "address"
        }
      ],
      "name": "balanceOf",
      "outputs": [
        {
          "internalType": "uint256",
          "name": "",
          "type": "uint256"
        }
      ],
      "stateMutability": "view",
      "type": "function"
    },
    {
      "inputs": [
        {
          "internalType": "address",
          "name": "spender",
          "type": "address"
        },
        {
          "internalType": "uint256",
          "name": "subtractedValue",
          "type": "uint256"
        }
      ],
      "name": "decreaseAllowance",
      "outputs": [
        {
          "internalType": "bool",
          "name": "",
          "type": "bool"
        }
      ],
      "stateMutability": "nonpayable",
      "type": "function"
    },
    {
      "inputs": [
        {
          "internalType": "address",
          "name": "spender",
          "type": "address"
        },
        {
          "internalType": "uint256",
          "name": "addedValue",
          "type": "uint256"
        }
      ],
      "name": "increaseAllowance",
      "outputs": [
        {
          "internalType": "bool",
          "name": "",
          "type": "bool"
        }
      ],
      "stateMutability": "nonpayable",
      "type": "function"
    },
    {
      "inputs": [],
      "name": "totalSupply",
      "outputs": [
        {
          "internalType": "uint256",
          "name": "",
          "type": "uint256"
        }
      ],
      "stateMutability": "view",
      "type": "function"
    },
    {
      "inputs": [
        {
          "internalType": "address",
          "name": "recipient",
          "type": "address"
        },
        {
          "internalType": "uint256",
          "name": "amount",
          "type": "uint256"
        }
      ],
      "name": "transfer",
      "outputs": [
        {
          "internalType": "bool",
          "name": "",
          "type": "bool"
        }
      ],
      "stateMutability": "nonpayable",
      "type": "function"
    },
    {
      "inputs": [
        {
          "internalType": "address",
          "name": "sender",
          "type": "address"
        },
        {
          "internalType": "address",
          "name": "recipient",
          "type": "address"
        },
        {
          "internalType": "uint256",
          "name": "amount",
          "type": "uint256"
        }
      ],
      "name": "transferFrom",
      "outputs": [
        {
          "internalType": "bool",
          "name": "",
          "type": "bool"
        }
      ],
      "stateMutability": "nonpayable",
      "type": "function"
    },
    {
      "inputs": [
        {
          "internalType": "address",
          "name": "_servicer",
          "type": "address"
        }
      ],
      "name": "passServicerRights",
      "outputs": [],
      "stateMutability": "nonpayable",
      "type": "function"
    },
    {
      "inputs": [],
      "name": "name",
      "outputs": [
        {
          "internalType": "string",
          "name": "",
          "type": "string"
        }
      ],
      "stateMutability": "view",
      "type": "function"
    },
    {
      "inputs": [],
      "name": "symbol",
      "outputs": [
        {
          "internalType": "string",
          "name": "",
          "type": "string"
        }
      ],
      "stateMutability": "view",
      "type": "function"
    },
    {
      "inputs": [],
      "name": "decimals",
      "outputs": [
        {
          "internalType": "uint8",
          "name": "",
          "type": "uint8"
        }
      ],
      "stateMutability": "pure",
      "type": "function"
    },
    {
      "inputs": [],
      "name": "getContractData",
      "outputs": [
        {
          "internalType": "address",
          "name": "",
          "type": "address"
        },
        {
          "internalType": "address",
          "name": "",
          "type": "address"
        },
        {
          "internalType": "uint256",
          "name": "",
          "type": "uint256"
        },
        {
          "internalType": "uint256",
          "name": "",
          "type": "uint256"
        },
        {
          "internalType": "uint256",
          "name": "",
          "type": "uint256"
        },
        {
          "internalType": "uint256",
          "name": "",
          "type": "uint256"
        }
      ],
      "stateMutability": "view",
      "type": "function"
    },
    {
      "inputs": [],
      "name": "getPoolInterestAccrued",
      "outputs": [
        {
          "internalType": "uint256",
          "name": "",
          "type": "uint256"
        }
      ],
      "stateMutability": "view",
      "type": "function"
    },
    {
      "inputs": [],
      "name": "getLoanCount",
      "outputs": [
        {
          "internalType": "uint256",
          "name": "",
          "type": "uint256"
        }
      ],
      "stateMutability": "view",
      "type": "function"
    },
    {
      "inputs": [],
      "name": "getSupplyableTokenAddress",
      "outputs": [
        {
          "internalType": "address",
          "name": "",
          "type": "address"
        }
      ],
      "stateMutability": "view",
      "type": "function"
    },
    {
      "inputs": [],
      "name": "getServicerAddress",
      "outputs": [
        {
          "internalType": "address",
          "name": "",
          "type": "address"
        }
      ],
      "stateMutability": "view",
      "type": "function"
    },
    {
      "inputs": [
        {
          "internalType": "uint256",
          "name": "loanId",
          "type": "uint256"
        }
      ],
      "name": "getLoanDetails",
      "outputs": [
        {
          "internalType": "uint256",
          "name": "",
          "type": "uint256"
        },
        {
          "internalType": "address",
          "name": "",
          "type": "address"
        },
        {
          "internalType": "uint256",
          "name": "",
          "type": "uint256"
        },
        {
          "internalType": "uint256",
          "name": "",
          "type": "uint256"
        },
        {
          "internalType": "uint256",
          "name": "",
          "type": "uint256"
        },
        {
          "internalType": "uint256",
          "name": "",
          "type": "uint256"
        },
        {
          "internalType": "uint256",
          "name": "",
          "type": "uint256"
        }
      ],
      "stateMutability": "view",
      "type": "function"
    },
    {
      "inputs": [
        {
          "internalType": "uint256",
          "name": "loanId",
          "type": "uint256"
        }
      ],
      "name": "getLoanAccruedInterest",
      "outputs": [
        {
          "internalType": "uint256",
          "name": "",
          "type": "uint256"
        }
      ],
      "stateMutability": "view",
      "type": "function"
    },
    {
      "inputs": [
        {
          "internalType": "uint256",
          "name": "amountUsdc",
          "type": "uint256"
        },
        {
          "internalType": "uint256",
          "name": "expectedHomeCoin",
          "type": "uint256"
        }
      ],
      "name": "lendPool",
      "outputs": [
        {
          "internalType": "uint256",
          "name": "",
          "type": "uint256"
        }
      ],
      "stateMutability": "nonpayable",
      "type": "function"
    },
    {
      "inputs": [
        {
          "internalType": "uint256",
          "name": "amountHome",
          "type": "uint256"
        },
        {
          "internalType": "uint256",
          "name": "expectedUsdc",
          "type": "uint256"
        }
      ],
      "name": "redeemPool",
      "outputs": [
        {
          "internalType": "uint256",
          "name": "",
          "type": "uint256"
        }
      ],
      "stateMutability": "nonpayable",
      "type": "function"
    },
    {
      "inputs": [
        {
          "internalType": "uint256",
          "name": "amount",
          "type": "uint256"
        },
        {
          "internalType": "uint256",
          "name": "fixedInterestRate",
          "type": "uint256"
        },
        {
          "internalType": "uint256",
          "name": "propTokenId",
          "type": "uint256"
        }
      ],
      "name": "borrow",
      "outputs": [],
      "stateMutability": "nonpayable",
      "type": "function"
    },
    {
      "inputs": [
        {
          "internalType": "uint256",
          "name": "loanId",
          "type": "uint256"
        },
        {
          "internalType": "uint256",
          "name": "amount",
          "type": "uint256"
        }
      ],
      "name": "repay",
      "outputs": [],
      "stateMutability": "nonpayable",
      "type": "function"
    },
    {
      "inputs": [
        {
          "internalType": "uint256",
          "name": "amount",
          "type": "uint256"
        },
        {
          "internalType": "uint16",
          "name": "level",
          "type": "uint16"
        },
        {
          "internalType": "bool",
          "name": "autoRenew",
          "type": "bool"
        }
      ],
      "name": "boost",
      "outputs": [
        {
          "internalType": "bool",
          "name": "",
          "type": "bool"
        }
      ],
      "stateMutability": "nonpayable",
      "type": "function"
    },
    {
      "inputs": [],
      "name": "getVersion",
      "outputs": [
        {
          "internalType": "uint256",
          "name": "",
          "type": "uint256"
        }
      ],
      "stateMutability": "pure",
      "type": "function"
    },
    {
      "inputs": [
        {
          "internalType": "address",
          "name": "",
          "type": "address"
        },
        {
          "internalType": "address",
          "name": "",
          "type": "address"
        },
        {
          "internalType": "uint256",
          "name": "",
          "type": "uint256"
        },
        {
          "internalType": "bytes",
          "name": "",
          "type": "bytes"
        }
      ],
      "name": "onERC721Received",
      "outputs": [
        {
          "internalType": "bytes4",
          "name": "",
          "type": "bytes4"
        }
      ],
      "stateMutability": "pure",
      "type": "function"
    },
    {
      "inputs": [],
      "name": "claimRewards",
      "outputs": [
        {
          "internalType": "uint256",
          "name": "",
          "type": "uint256"
        }
      ],
      "stateMutability": "nonpayable",
      "type": "function"
    },
    {
      "inputs": [
        {
          "internalType": "address",
          "name": "wallet",
          "type": "address"
        },
        {
          "internalType": "uint256",
          "name": "amount",
          "type": "uint256"
        }
      ],
      "name": "transferBoostRewards",
      "outputs": [],
      "stateMutability": "nonpayable",
      "type": "function"
    },
    {
      "inputs": [
        {
          "internalType": "address",
          "name": "wallet",
          "type": "address"
        },
        {
          "internalType": "uint256",
          "name": "amount",
          "type": "uint256"
        }
      ],
      "name": "transferUSDC",
      "outputs": [],
      "stateMutability": "nonpayable",
      "type": "function"
    },
    {
      "inputs": [
        {
          "internalType": "uint256",
          "name": "amount",
          "type": "uint256"
        }
      ],
      "name": "burn",
      "outputs": [],
      "stateMutability": "nonpayable",
      "type": "function"
    },
    {
      "inputs": [
        {
          "internalType": "address[]",
          "name": "addresses",
          "type": "address[]"
        }
      ],
      "name": "endOnePercent",
      "outputs": [],
      "stateMutability": "nonpayable",
      "type": "function"
    }
  ],
  "bytecode": "0x608060405234801561001057600080fd5b50612eea806100206000396000f3fe608060405234801561001057600080fd5b50600436106101e55760003560e01c806366877b8d1161010f578063a457c2d7116100a2578063d8aed14511610071578063d8aed14514610499578063dd62ed3e146104ac578063ef4571fc146104e5578063f7aaaf3f146104f857600080fd5b8063a457c2d714610420578063a68b91ab14610433578063a9059cbb14610473578063adf459ca1461048657600080fd5b80638f6d8807116100de5780638f6d8807146103e157806390b53e14146103f457806395d89b41146104055780639a5872f41461040d57600080fd5b806366877b8d1461036357806370a08231146103b3578063775cc809146103c65780637eb0d8b1146103d957600080fd5b80632f5e5d951161018757806342966c681161015657806342966c6814610320578063521968121461033557806356b8faa01461033d57806356ff07151461035057600080fd5b80632f5e5d95146102d2578063313ce567146102f7578063372500ab14610306578063395093511461030d57600080fd5b80630d8e6e2c116101c35780630d8e6e2c14610248578063150b7a021461024f57806318160ddd146102b757806323b872dd146102bf57600080fd5b806306018eba146101ea57806306fdde0314610210578063095ea7b314610225575b600080fd5b6101fd6101f8366004612858565b61050b565b6040519081526020015b60405180910390f35b6102186106aa565b60405161020791906128a6565b6102386102333660046128ee565b61073c565b6040519015158152602001610207565b60106101fd565b61028661025d366004612989565b7f150b7a0200000000000000000000000000000000000000000000000000000000949350505050565b6040517fffffffff000000000000000000000000000000000000000000000000000000009091168152602001610207565b6034546101fd565b6102386102cd366004612a38565b610752565b6066546001600160a01b03165b6040516001600160a01b039091168152602001610207565b60405160068152602001610207565b60006101fd565b61023861031b3660046128ee565b610811565b61033361032e366004612a79565b61084d565b005b606c546101fd565b61033361034b366004612ab6565b61085a565b61033361035e3660046128ee565b6108f9565b610376610371366004612a79565b61096a565b604080519788526001600160a01b039096166020880152948601939093526060850191909152608084015260a083015260c082015260e001610207565b6101fd6103c1366004612b45565b610a2d565b6101fd6103d4366004612858565b610a5b565b6101fd610cc1565b6103336103ef366004612b45565b610d03565b6065546001600160a01b03166102df565b610218610d54565b6101fd61041b366004612a79565b610d63565b61023861042e3660046128ee565b610e4a565b61043b610efb565b604080516001600160a01b039788168152969095166020870152938501929092526060840152608083015260a082015260c001610207565b6102386104813660046128ee565b610f3d565b610333610494366004612b62565b610f4a565b6103336104a7366004612858565b61178f565b6101fd6104ba366004612b8e565b6001600160a01b039182166000908152603b6020908152604080832093909416825291909152205490565b6102386104f3366004612bd5565b611b01565b6103336105063660046128ee565b611df6565b6000600260765414156105655760405162461bcd60e51b815260206004820152601f60248201527f5265656e7472616e637947756172643a207265656e7472616e742063616c6c0060448201526064015b60405180910390fd5b60026076558261057433610a2d565b10156105c25760405162461bcd60e51b815260206004820152601960248201527f484f4d452062616c616e636520696e73756666696369656e7400000000000000604482015260640161055c565b6105cd333085611ef7565b6079546105e59030906001600160a01b03168561212d565b6079546040517f44ee19860000000000000000000000000000000000000000000000000000000081526000600482018190526002602483015260448201869052606482018590523360848301526001600160a01b03909216919082906344ee19869060a401602060405180830381600087803b15801561066457600080fd5b505af1158015610678573d6000803e3d6000fd5b505050506040513d601f19601f8201168201806040525081019061069c9190612c1e565b600160765595945050505050565b6060606d80546106b990612c37565b80601f01602080910402602001604051908101604052809291908181526020018280546106e590612c37565b80156107325780601f1061070757610100808354040283529160200191610732565b820191906000526020600020905b81548152906001019060200180831161071557829003601f168201915b5050505050905090565b600061074933848461212d565b50600192915050565b600061075f848484611ef7565b6001600160a01b0384166000908152603b60209081526040808320338452909152902054828110156107f95760405162461bcd60e51b815260206004820152602860248201527f45524332303a207472616e7366657220616d6f756e742065786365656473206160448201527f6c6c6f77616e6365000000000000000000000000000000000000000000000000606482015260840161055c565b610806853385840361212d565b506001949350505050565b336000818152603b602090815260408083206001600160a01b03871684529091528120549091610749918590610848908690612c82565b61212d565b6108573382612286565b50565b6065546001600160a01b031633146108b45760405162461bcd60e51b815260206004820152600d60248201527f4f6e6c7920677561726469616e00000000000000000000000000000000000000604482015260640161055c565b60005b81518110156108f5576108e28282815181106108d5576108d5612c9a565b602002602001015161240a565b50806108ed81612cb0565b9150506108b7565b5050565b6078546001600160a01b031633146109535760405162461bcd60e51b815260206004820152600e60248201527f696e76616c69642073656e646572000000000000000000000000000000000000604482015260640161055c565b6075546108f5906001600160a01b03168383611ef7565b600080600080600080600080606b898154811061098957610989612c9a565b600091825260208083206040805160c08101825260069094029091018054845260018101546001600160a01b03169284019290925260028201549083015260038101546060830152600481015460808301526005015460a082015291506109ef8a610d63565b60009a8b52606f602090815260409b8c9020548451918501519c850151606086015160a090960151929e909c50949a50919850965094509092505050565b6001600160a01b0381166000908152603360205260408120546bffffffffffffffffffffffff165b92915050565b600060026076541415610ab05760405162461bcd60e51b815260206004820152601f60248201527f5265656e7472616e637947756172643a207265656e7472616e742063616c6c00604482015260640161055c565b60026076556066546040517f23b872dd000000000000000000000000000000000000000000000000000000008152336004820152306024820152604481018590526001600160a01b039091169081906323b872dd90606401602060405180830381600087803b158015610b2257600080fd5b505af1158015610b36573d6000803e3d6000fd5b505050506040513d601f19601f82011682018060405250810190610b5a9190612ccb565b506079546040517f095ea7b30000000000000000000000000000000000000000000000000000000081526001600160a01b039182166004820152602481018690529082169063095ea7b390604401602060405180830381600087803b158015610bc257600080fd5b505af1158015610bd6573d6000803e3d6000fd5b505050506040513d601f19601f82011682018060405250810190610bfa9190612ccb565b506079546040517f44ee19860000000000000000000000000000000000000000000000000000000081526002600482015260006024820181905260448201879052606482018690523360848301526001600160a01b03909216919082906344ee19869060a401602060405180830381600087803b158015610c7a57600080fd5b505af1158015610c8e573d6000803e3d6000fd5b505050506040513d601f19601f82011682018060405250810190610cb29190612c1e565b60016076559695505050505050565b600080805b606c54811015610cfd576000610cdb82610d63565b9050610ce783826124ef565b9250508080610cf590612cb0565b915050610cc6565b50919050565b6065546001600160a01b03163314610d1a57600080fd5b606580547fffffffffffffffffffffffff0000000000000000000000000000000000000000166001600160a01b0392909216919091179055565b6060606e80546106b990612c37565b600080606b8381548110610d7957610d79612c9a565b600091825260208083206040805160c08101825260069094029091018054845260018101546001600160a01b03169284019290925260028201549083015260038101546060830152600481015460808301526005015460a08201819052909250610de4904290612502565b90506000610e116301da9c00610e0b8560400151866060015161250e90919063ffffffff16565b9061251a565b90506000610e276305f5e100610e0b848661250e565b9050610e408460800151826124ef90919063ffffffff16565b9695505050505050565b336000908152603b602090815260408083206001600160a01b038616845290915281205482811015610ee45760405162461bcd60e51b815260206004820152602560248201527f45524332303a2064656372656173656420616c6c6f77616e63652062656c6f7760448201527f207a65726f000000000000000000000000000000000000000000000000000000606482015260840161055c565b610ef1338585840361212d565b5060019392505050565b606554606654600091829182918291829182916001600160a01b03918216911682610f24610cc1565b603454606c54949b939a50919850965094509092509050565b6000610749338484611ef7565b60026076541415610f9d5760405162461bcd60e51b815260206004820152601f60248201527f5265656e7472616e637947756172643a207265656e7472616e742063616c6c00604482015260640161055c565b60026076556070546040517f081812fc0000000000000000000000000000000000000000000000000000000081526004810183905230916001600160a01b03169063081812fc9060240160206040518083038186803b158015610fff57600080fd5b505afa158015611013573d6000803e3d6000fd5b505050506040513d601f19601f820116820180604052508101906110379190612ce8565b6001600160a01b03161461108d5760405162461bcd60e51b815260206004820152601d60248201527f706f6f6c206e6f7420617070726f76656420746f206d6f766520656767000000604482015260640161055c565b6070546040517f6352211e0000000000000000000000000000000000000000000000000000000081526004810183905233916001600160a01b031690636352211e9060240160206040518083038186803b1580156110ea57600080fd5b505afa1580156110fe573d6000803e3d6000fd5b505050506040513d601f19601f820116820180604052508101906111229190612ce8565b6001600160a01b0316146111785760405162461bcd60e51b815260206004820152601860248201527f6d73672e73656e646572206e6f7420656767206f776e65720000000000000000604482015260640161055c565b620f424082116111ca5760405162461bcd60e51b815260206004820152601d60248201527f72617465206d757374206e6f74206265206c657373207468616e203125000000604482015260640161055c565b6070546040517f6ebb668b000000000000000000000000000000000000000000000000000000008152600481018390526000916001600160a01b031690636ebb668b9060240160206040518083038186803b15801561122857600080fd5b505afa15801561123c573d6000803e3d6000fd5b505050506040513d601f19601f820116820180604052508101906112609190612c1e565b9050838110156112b25760405162461bcd60e51b815260206004820152601a60248201527f6c6f616e206c61726765722074686174206567672076616c7565000000000000604482015260640161055c565b607154604080517f15a2bf9e00000000000000000000000000000000000000000000000000000000815290516000926001600160a01b0316916315a2bf9e916004808301926020929190829003018186803b15801561131057600080fd5b505afa158015611324573d6000803e3d6000fd5b505050506040513d601f19601f820116820180604052508101906113489190612c1e565b6070546040517f4a293c520000000000000000000000000000000000000000000000000000000081526004810186905291925060009182916001600160a01b031690634a293c529060240160006040518083038186803b1580156113ab57600080fd5b505afa1580156113bf573d6000803e3d6000fd5b505050506040513d6000823e601f3d908101601f191682016040526113e79190810190612d4a565b50505093509350505060005b825181101561143c5761142883828151811061141157611411612c9a565b6020026020010151866124ef90919063ffffffff16565b94508061143481612cb0565b9150506113f3565b508261144d82610e0b87606461250e565b1061149a5760405162461bcd60e51b815260206004820152600c60248201527f4c545620746f6f20686967680000000000000000000000000000000000000000604482015260640161055c565b6040805160c081018252606c805482523360208084018281528486018c8152606086018e81526000608088018181524260a08a01908152606b8054600180820183559185529a517fbd43cb8ece8cd1863bcd6082d65c5b0d25665b1ce17980f0da43c0ed545f98b46006909c029b8c015595517fbd43cb8ece8cd1863bcd6082d65c5b0d25665b1ce17980f0da43c0ed545f98b58b0180547fffffffffffffffffffffffff0000000000000000000000000000000000000000166001600160a01b0390921691909117905593517fbd43cb8ece8cd1863bcd6082d65c5b0d25665b1ce17980f0da43c0ed545f98b68a015591517fbd43cb8ece8cd1863bcd6082d65c5b0d25665b1ce17980f0da43c0ed545f98b789015590517fbd43cb8ece8cd1863bcd6082d65c5b0d25665b1ce17980f0da43c0ed545f98b888015590517fbd43cb8ece8cd1863bcd6082d65c5b0d25665b1ce17980f0da43c0ed545f98b990960195909555918452606a81528484208354815480850183559186528286209091015582548452606f90529290912087905554611637916124ef565b606c556070546040517f42842e0e000000000000000000000000000000000000000000000000000000008152336004820152306024820152604481018790526001600160a01b03909116906342842e0e90606401600060405180830381600087803b1580156116a557600080fd5b505af11580156116b9573d6000803e3d6000fd5b505050506116df336116da6064610e0b60638c61250e90919063ffffffff16565b612526565b6065546116fa906001600160a01b03166116da8960c861251a565b607554611715906001600160a01b03166116da8960c861251a565b606c54611723906001612502565b604080516fffffffffffffffffffffffffffffffff8a16815267ffffffffffffffff89811660208301529283169288169133917fe7b40dc40b64097b1dd6df1c15f3bcf77b445f513b7c7dc02f34dbd19feb0fc2910160405180910390a4505060016076555050505050565b600260765414156117e25760405162461bcd60e51b815260206004820152601f60248201527f5265656e7472616e637947756172643a207265656e7472616e742063616c6c00604482015260640161055c565b6002607655806118345760405162461bcd60e51b815260206004820152601760248201527f43616e2774206d616b6520612030207061796d656e742e000000000000000000604482015260640161055c565b606c5482106118855760405162461bcd60e51b815260206004820152601960248201527f4c6f616e20746f207265706179206d7573742065786973742e00000000000000604482015260640161055c565b6000606b838154811061189a5761189a612c9a565b9060005260206000209060060201905060006118b584610d63565b60038301549091508061190a5760405162461bcd60e51b815260206004820152601a60248201527f4c6f616e206d757374207374696c6c206265206163746976652e000000000000604482015260640161055c565b8360008184101561192f578391506119228683612502565b90508083101561192f5750815b42600586015561193f8382612502565b600386015561194e8483612502565b6004860155600285015460009061196c90610e0b620f42408661250e565b9050828111156119795750815b60655461199b9033906001600160a01b031661199684600261251a565b611ef7565b6075546119b89033906001600160a01b031661199684600261251a565b6075546119d49033906001600160a01b03166119968685612502565b81156119e4576119e43383612286565b6003860154611a8857607054600187015460008a8152606f6020526040908190205490517f42842e0e0000000000000000000000000000000000000000000000000000000081523060048201526001600160a01b03928316602482015260448101919091529116906342842e0e90606401600060405180830381600087803b158015611a6f57600080fd5b505af1158015611a83573d6000803e3d6000fd5b505050505b604080516fffffffffffffffffffffffffffffffff868116825287811660208301528481168284015285166060820152905167ffffffffffffffff8a169133917f8dadc4d40dce11d36e105197f79aeedd21353377bdd6fff45e2dfbf8b19f5bba9181900360800190a350506001607655505050505050565b600083611b0d33610a2d565b1015611b5b5760405162461bcd60e51b815260206004820152601360248201527f4e6f7420656e6f75676820746f20626f6f737400000000000000000000000000604482015260640161055c565b6078546040517f8400adfc00000000000000000000000000000000000000000000000000000000815261ffff85166004820152602481018690526000916001600160a01b031690638400adfc9060440160206040518083038186803b158015611bc357600080fd5b505afa158015611bd7573d6000803e3d6000fd5b505050506040513d601f19601f82011682018060405250810190611bfb9190612c1e565b607454909150611c14906001600160a01b031682610f3d565b506077546040517fadc9772e000000000000000000000000000000000000000000000000000000008152336004820152602481018390526000916001600160a01b03169063adc9772e90604401602060405180830381600087803b158015611c7b57600080fd5b505af1158015611c8f573d6000803e3d6000fd5b505050506040513d601f19601f82011682018060405250810190611cb39190612ccb565b905085821015611cd957607854611cd7906001600160a01b03166104818489612e5c565b505b6078546040517fe68ec4f50000000000000000000000000000000000000000000000000000000081523360048201526024810188905261ffff8716604482015285151560648201526000916001600160a01b03169063e68ec4f590608401602060405180830381600087803b158015611d5157600080fd5b505af1158015611d65573d6000803e3d6000fd5b505050506040513d601f19601f82011682018060405250810190611d899190612ccb565b9050818015611d955750805b611de15760405162461bcd60e51b815260206004820152600c60248201527f426f6f7374206661696c65640000000000000000000000000000000000000000604482015260640161055c565b818015611deb5750805b979650505050505050565b6065546001600160a01b03163314611e505760405162461bcd60e51b815260206004820152600e60248201527f696e76616c69642073656e646572000000000000000000000000000000000000604482015260640161055c565b6066546040517fa9059cbb0000000000000000000000000000000000000000000000000000000081526001600160a01b0384811660048301526024820184905290911690819063a9059cbb90604401602060405180830381600087803b158015611eb957600080fd5b505af1158015611ecd573d6000803e3d6000fd5b505050506040513d601f19601f82011682018060405250810190611ef19190612ccb565b50505050565b6001600160a01b038316611f735760405162461bcd60e51b815260206004820152602560248201527f45524332303a207472616e736665722066726f6d20746865207a65726f20616460448201527f6472657373000000000000000000000000000000000000000000000000000000606482015260840161055c565b6001600160a01b038216611fef5760405162461bcd60e51b815260206004820152602360248201527f45524332303a207472616e7366657220746f20746865207a65726f206164647260448201527f6573730000000000000000000000000000000000000000000000000000000000606482015260840161055c565b6001600160a01b0383166000908152603360205260409020546bffffffffffffffffffffffff81168281101561208d5760405162461bcd60e51b815260206004820152602660248201527f45524332303a207472616e7366657220616d6f756e742065786365656473206260448201527f616c616e63650000000000000000000000000000000000000000000000000000606482015260840161055c565b61209a8583858403612606565b6001600160a01b0384166000908152603360205260409020546120d88582866bffffffffffffffffffffffff82165b6120d39190612c82565b612606565b846001600160a01b0316866001600160a01b03167fddf252ad1be2c89b69c2b068fc378daa952ba7f163c4a11628f55a4df523b3ef8660405161211d91815260200190565b60405180910390a3505050505050565b6001600160a01b0383166121a85760405162461bcd60e51b8152602060048201526024808201527f45524332303a20617070726f76652066726f6d20746865207a65726f2061646460448201527f7265737300000000000000000000000000000000000000000000000000000000606482015260840161055c565b6001600160a01b0382166122245760405162461bcd60e51b815260206004820152602260248201527f45524332303a20617070726f766520746f20746865207a65726f20616464726560448201527f7373000000000000000000000000000000000000000000000000000000000000606482015260840161055c565b6001600160a01b038381166000818152603b602090815260408083209487168084529482529182902085905590518481527f8c5be1e5ebec7d5bd14f71427d1e84f3dd0314c0f7b2291e5b200ac8c7c3b92591015b60405180910390a3505050565b6001600160a01b0382166123025760405162461bcd60e51b815260206004820152602160248201527f45524332303a206275726e2066726f6d20746865207a65726f2061646472657360448201527f7300000000000000000000000000000000000000000000000000000000000000606482015260840161055c565b6001600160a01b0382166000908152603360205260409020546bffffffffffffffffffffffff8116828110156123a05760405162461bcd60e51b815260206004820152602260248201527f45524332303a206275726e20616d6f756e7420657863656564732062616c616e60448201527f6365000000000000000000000000000000000000000000000000000000000000606482015260840161055c565b6123ad8483858403612606565b82603460008282546123bf9190612e5c565b90915550506040518381526000906001600160a01b038616907fddf252ad1be2c89b69c2b068fc378daa952ba7f163c4a11628f55a4df523b3ef9060200160405180910390a3611ef1565b60008061241b6064610e0b85612723565b6077546040517f9a2daa0a0000000000000000000000000000000000000000000000000000000081526001600160a01b0386811660048301529293506000926124bf92606492911690639a2daa0a90602401602060405180830381600087803b15801561248757600080fd5b505af115801561249b573d6000803e3d6000fd5b505050506040513d601f19601f82011682018060405250810190610e0b9190612c1e565b905060006124cd8284612c82565b6075549091506124e7906001600160a01b03163383611ef7565b949350505050565b60006124fb8284612c82565b9392505050565b60006124fb8284612e5c565b60006124fb8284612e73565b60006124fb8284612e92565b6001600160a01b03821661257c5760405162461bcd60e51b815260206004820152601f60248201527f45524332303a206d696e7420746f20746865207a65726f206164647265737300604482015260640161055c565b6001600160a01b03821660009081526033602052604081205460348054919284926125a8908490612c82565b909155506125c890508382846bffffffffffffffffffffffff82166120c9565b6040518281526001600160a01b038416906000907fddf252ad1be2c89b69c2b068fc378daa952ba7f163c4a11628f55a4df523b3ef90602001612279565b806126655761261c6301da9c00610e0b846127d1565b6001600160a01b0384166000908152603c602052604081208054909190612644908490612c82565b909155505050506001600160a01b0316600090815260336020526040812055565b428061267483610e0b866127d1565b10156126985761269161268a83610e0b866127d1565b4290612502565b90506126d7565b6126a96301da9c00610e0b856127d1565b6001600160a01b0385166000908152603c6020526040812080549091906126d1908490612c82565b90915550505b6bffffffffffffffffffffffff82166127018270010000000000000000000000000000000061250e565b6001600160a01b03861660009081526033602052604090209117905550505050565b336000908152603c6020526040812054819061273f9082612c82565b336000908152603c602090815260408083208390556033909152902054909150612772906301da9c0090610e0b906127d1565b61277c9082612c82565b336000908152603360205260409020549091506bffffffffffffffffffffffff166127b84270010000000000000000000000000000000061250e565b3360009081526033602052604090209117905592915050565b6000610a556bffffffffffffffffffffffff83166127f161268a856127f7565b9061250e565b60008061282f77ffffffffffffffffffffffff000000000000000000000000841670010000000000000000000000000000000061251a565b905080610a555750426bffffffffffffffffffffffff831615610a555750636296ac0092915050565b6000806040838503121561286b57600080fd5b50508035926020909101359150565b60005b8381101561289557818101518382015260200161287d565b83811115611ef15750506000910152565b60208152600082518060208401526128c581604085016020870161287a565b601f01601f19169190910160400192915050565b6001600160a01b038116811461085757600080fd5b6000806040838503121561290157600080fd5b823561290c816128d9565b946020939093013593505050565b634e487b7160e01b600052604160045260246000fd5b604051601f8201601f1916810167ffffffffffffffff811182821017156129595761295961291a565b604052919050565b600067ffffffffffffffff82111561297b5761297b61291a565b50601f01601f191660200190565b6000806000806080858703121561299f57600080fd5b84356129aa816128d9565b935060208501356129ba816128d9565b925060408501359150606085013567ffffffffffffffff8111156129dd57600080fd5b8501601f810187136129ee57600080fd5b8035612a016129fc82612961565b612930565b818152886020838501011115612a1657600080fd5b8160208401602083013760006020838301015280935050505092959194509250565b600080600060608486031215612a4d57600080fd5b8335612a58816128d9565b92506020840135612a68816128d9565b929592945050506040919091013590565b600060208284031215612a8b57600080fd5b5035919050565b600067ffffffffffffffff821115612aac57612aac61291a565b5060051b60200190565b60006020808385031215612ac957600080fd5b823567ffffffffffffffff811115612ae057600080fd5b8301601f81018513612af157600080fd5b8035612aff6129fc82612a92565b81815260059190911b82018301908381019087831115612b1e57600080fd5b928401925b82841015611deb578335612b36816128d9565b82529284019290840190612b23565b600060208284031215612b5757600080fd5b81356124fb816128d9565b600080600060608486031215612b7757600080fd5b505081359360208301359350604090920135919050565b60008060408385031215612ba157600080fd5b8235612bac816128d9565b91506020830135612bbc816128d9565b809150509250929050565b801515811461085757600080fd5b600080600060608486031215612bea57600080fd5b83359250602084013561ffff81168114612c0357600080fd5b91506040840135612c1381612bc7565b809150509250925092565b600060208284031215612c3057600080fd5b5051919050565b600181811c90821680612c4b57607f821691505b60208210811415610cfd57634e487b7160e01b600052602260045260246000fd5b634e487b7160e01b600052601160045260246000fd5b60008219821115612c9557612c95612c6c565b500190565b634e487b7160e01b600052603260045260246000fd5b6000600019821415612cc457612cc4612c6c565b5060010190565b600060208284031215612cdd57600080fd5b81516124fb81612bc7565b600060208284031215612cfa57600080fd5b81516124fb816128d9565b600082601f830112612d1657600080fd5b8151612d246129fc82612961565b818152846020838601011115612d3957600080fd5b6124e782602083016020870161287a565b600080600080600080600060e0888a031215612d6557600080fd5b8751612d70816128d9565b809750506020808901519650604089015167ffffffffffffffff80821115612d9757600080fd5b818b0191508b601f830112612dab57600080fd5b8151612db96129fc82612a92565b81815260059190911b8301840190848101908e831115612dd857600080fd5b938501935b82851015612df657845182529385019390850190612ddd565b60608e015160808f0151919b5099509450505080831115612e1657600080fd5b612e228c848d01612d05565b955060a08b0151945060c08b0151925080831115612e3f57600080fd5b5050612e4d8a828b01612d05565b91505092959891949750929550565b600082821015612e6e57612e6e612c6c565b500390565b6000816000190483118215151615612e8d57612e8d612c6c565b500290565b600082612eaf57634e487b7160e01b600052601260045260246000fd5b50049056fea264697066735822122071de419d7cf9df004ec552e2491b23909606de44f761ca1522b308f2fac7dc6764736f6c63430008090033",
  "compiler": {
    "name": "solc",
    "version": "0.8.9+commit.e5eed63a.Emscripten.clang"
  },
  "contractName": "Pool16",
  "devdoc": {
    "kind": "dev",
    "methods": {
      "allowance(address,address)": {
        "details": "See {IERC20-allowance}."
      },
      "approve(address,uint256)": {
        "details": "See {IERC20-approve}. Requirements: - `spender` cannot be the zero address."
      },
      "balanceOf(address)": {
        "details": "See {IERC20-balanceOf}."
      },
      "borrow(uint256,uint256,uint256)": {
        "details": "Function borrow creates a new Loan, moves the USDC to Borrower, and returns the loan ID and fixed Interest Rate   - Also creates an origination fee for the Servicer in HC_Pool",
        "params": {
          "amount": "The size of the potential loan in (probably usdc).",
          "fixedInterestRate": "The rate for the loan.   EDITED in pool1 to also require a PropToken   EDITED in pool1 - borrower param was removed and msg.sender is new recepient of USDC   EDITED in pool2 - propToken data is oulled and LTV of loan is required before loan can process   EDITED in pool14 - now lends HOME instead of USDC"
        }
      },
      "burn(uint256)": {
        "details": "Function burn burns HOME",
        "params": {
          "amount": "is the amount of HOME to burn"
        }
      },
      "decimals()": {
        "details": "Returns the number of decimals used to get its user representation. For example, if `decimals` equals `2`, a balance of `505` tokens should be displayed to a user as `5.05` (`505 / 10 ** 2`). Tokens usually opt for a value of 18, imitating the relationship between Ether and Wei. This is the value {ERC20} uses, unless this function is overridden; NOTE: This information is only used for _display_ purposes: it in no way affects any of the arithmetic of the contract, including {IERC20-balanceOf} and {IERC20-transfer}."
      },
      "decreaseAllowance(address,uint256)": {
        "details": "Atomically decreases the allowance granted to `spender` by the caller. This is an alternative to {approve} that can be used as a mitigation for problems described in {IERC20-approve}. Emits an {Approval} event indicating the updated allowance. Requirements: - `spender` cannot be the zero address. - `spender` must have allowance for the caller of at least `subtractedValue`."
      },
      "getContractData()": {
        "details": "Function getContractData() returns a lot of variables about the contract"
      },
      "getLoanAccruedInterest(uint256)": {
        "details": "Function getLoanAccruedInterest() calculates and returns the amount of interest accrued on a given loan",
        "params": {
          "loanId": "is the id for the loan we're looking up"
        }
      },
      "getLoanDetails(uint256)": {
        "details": "Function getLoanDetails() returns an all the raw details about a loan",
        "params": {
          "loanId": "is the id for the loan we're looking up   EDITED in pool1 to also return PropToken ID"
        }
      },
      "getPoolInterestAccrued()": {
        "details": "Function getPoolInterestAccrued() returns the the amount of interest accreued by the pool in total"
      },
      "getServicerAddress()": {
        "details": "Function getServicerAddress() returns the address of this pool's servicer"
      },
      "getSupplyableTokenAddress()": {
        "details": "Function getSupplyableTokenAddress() returns the contract address of ERC20 this pool accepts (ususally USDC)"
      },
      "getVersion()": {
        "details": "Function getVersion returns current upgraded version"
      },
      "increaseAllowance(address,uint256)": {
        "details": "Atomically increases the allowance granted to `spender` by the caller. This is an alternative to {approve} that can be used as a mitigation for problems described in {IERC20-approve}. Emits an {Approval} event indicating the updated allowance. Requirements: - `spender` cannot be the zero address."
      },
      "name()": {
        "details": "Returns the name of the token."
      },
      "repay(uint256,uint256)": {
        "details": "Function repay repays a specific loan   - payment is first deducted from the interest then principal.   - the servicer_fee is deducted from the interest repayment and servicer is compensated in hc_pool   - repayer must have first approved fromsfers on behalf",
        "params": {
          "amount": "The amount of the ERC20 token to repay the loan with   EDITED in Pool1 - returns propToken when principal reaches 0   EDITED in pool14 - repayments done in HOME instead of USDC",
          "loanId": "The loan to be repayed"
        }
      },
      "symbol()": {
        "details": "Returns the symbol of the token, usually a shorter version of the name."
      },
      "totalSupply()": {
        "details": "See {IERC20-totalSupply}."
      },
      "transfer(address,uint256)": {
        "details": "See {IERC20-transfer}. Requirements: - `recipient` cannot be the zero address. - the caller must have a balance of at least `amount`."
      },
      "transferFrom(address,address,uint256)": {
        "details": "See {IERC20-transferFrom}. Emits an {Approval} event indicating the updated allowance. This is not required by the EIP. See the note at the beginning of {ERC20}. Requirements: - `sender` and `recipient` cannot be the zero address. - `sender` must have a balance of at least `amount`. - the caller must have allowance for ``sender``'s tokens of at least `amount`."
      }
    },
    "version": 1
  },
  "immutableReferences": {},
  "schemaVersion": "3.4.7",
  "source": "// contracts/Pool.sol\n// SPDX-License-Identifier: MIT\npragma solidity ^0.8.4;\n\nimport \"./../@openzeppelin/contracts-upgradeable/proxy/utils/Initializable.sol\";\nimport \"./../ERC20/ERC20UpgradeableFromERC777Rewardable.sol\";\nimport './../@openzeppelin/contracts-upgradeable/token/ERC20/IERC20Upgradeable.sol';\nimport './../PropTokens/PropToken0.sol';\nimport './../LTVGuidelines.sol';\nimport './../PoolUtils/PoolUtils0.sol';\nimport './../PoolStaking/PoolStaking4.sol';\nimport './../PoolStakingRewards/PoolStakingRewards3.sol';\nimport './../HomeBoost/HomeBoost0.sol';\nimport './../CurveInterface/ICurvePool.sol';\n\nimport \"./../@openzeppelin/contracts-upgradeable/token/ERC721/IERC721ReceiverUpgradeable.sol\";\nimport './../@openzeppelin/contracts/utils/math/SafeMath.sol';\nimport './../@openzeppelin/contracts/utils/math/SignedSafeMath.sol';\n// import \"hardhat/console.sol\";\n\n\ncontract Pool16 is Initializable, ERC20UpgradeableFromERC777Rewardable, IERC721ReceiverUpgradeable {\n    using SignedSafeMath for int256;\n    using SafeMath for uint256;\n\n    event Borrow(address indexed borrower, uint64 indexed property, uint64 indexed loan, uint128 amount, uint64 rate);\n    event Repay(address indexed payer, uint64 indexed loan, uint128 principal, uint128 interest, uint128 principalPaid, uint128 interestPaid);\n\n    struct Loan{\n        uint256 loanId;\n        address borrower;\n        uint256 interestRate;\n        uint256 principal;\n        uint256 interestAccrued;\n        uint256 timeLastPayment;\n    }\n\n    address servicer;\n\n    // Address of the ERC-20 contract used as liquidity supply. USDC for now.\n    address ERCAddress;\n\n    address[] servicerAddresses;\n    /* Adding a variable above this line (not reflected in Pool0) will cause contract storage conflicts */\n\n    uint256 poolLent; // Deprecated in Pool14. Now always set to 0.\n    uint256 poolBorrowed; // Deprecated in Pool14. Now always set to 0.\n    mapping(address => uint256[]) userLoans;\n    Loan[] loans;\n    uint256 loanCount;\n\n    uint constant servicerFeePercentage = 1000000;\n    uint constant baseInterestPercentage = 1000000;\n    uint constant curveK = 120000000;\n\n    /* Pool1 variables introduced here */\n    string private _name;\n    string private _symbol;\n    mapping(uint256 => uint256) loanToPropToken;\n    address propTokenContractAddress;\n\n    /* Pool2 variables introduced here */\n    address LTVOracleAddress;\n\n    /* Pool3 variables introduced here */\n    address poolUtilsAddress;\n    address baconCoinAddress;\n    address poolStakingAddress;\n\n    /* Pool 8 variables introduced here */\n    address daoAddress;\n\n    /*  Pool 9 variables introduced here\n        storage for nonReentrant modifier\n        modifier and variables could not be imported via inheratance given upgradability rules */\n    uint256 private constant _NOT_ENTERED = 1;\n    uint256 private constant _ENTERED = 2;\n    uint256 private _status;\n\n    /* pool10 variables added here */\n    address poolStakingRewardAddress; // contract responsible for determining the rewards for staking HOME\n\n    /*  Pool 11 variables introduced here */\n    bool airdropLocked; // Deprecated\n\n    /* Pool 13 variables here */\n    address homeBoostAddress;\n\n    /* Pool 14 variables here */\n    address curvePoolAddress;\n\n    /**\n     * @dev Prevents a contract from calling itself, directly or indirectly.\n     * Calling a `nonReentrant` function from another `nonReentrant`\n     * function is not supported. It is possible to prevent this from happening\n     * by making the `nonReentrant` function external, and making it call a\n     * `private` function that does the actual work.\n     */\n    modifier nonReentrant() {\n        // On the first call to nonReentrant, _notEntered will be true\n        require(_status != _ENTERED, \"ReentrancyGuard: reentrant call\");\n\n        // Any calls to nonReentrant after this point will fail\n        _status = _ENTERED;\n        _;\n\n        // By storing the original value once again, a refund is triggered (see\n        // https://eips.ethereum.org/EIPS/eip-2200)\n        _status = _NOT_ENTERED;\n    }\n\n    /*****************************************************\n    *       POOL STRUCTURE / UPGRADABILITY FUNCTIONS\n    ******************************************************/\n\n    function passServicerRights(address _servicer) public {\n        require(msg.sender == servicer);\n        servicer = _servicer;\n    }\n\n    function name() public view override returns (string memory) {\n        return _name;\n    }\n\n    function symbol() public view override returns(string memory) {\n        return _symbol;\n    }\n\n    function decimals() public pure override returns(uint8) {\n        return 6;\n    }\n\n    /*****************************************************\n    *                GETTER FUNCTIONS\n    ******************************************************/\n    /**\n    *   @dev Function getContractData() returns a lot of variables about the contract\n    */\n    function getContractData() public view returns (address, address, uint256, uint256, uint256, uint256) {\n        return (\n            servicer,\n            ERCAddress,\n            0,\n            getPoolInterestAccrued(),\n            totalSupply(),\n            loanCount);\n    }\n\n    /**  \n    *   @dev Function getPoolInterestAccrued() returns the the amount of interest accreued by the pool in total\n    */\n    function getPoolInterestAccrued() public view returns (uint256) {\n        uint256 totalInterest = 0;\n\n        for (uint i=0; i<loanCount; i++) {\n            uint256 accruedInterest = getLoanAccruedInterest(i);\n            totalInterest = totalInterest.add(accruedInterest);\n        }\n\n        return totalInterest;\n    }\n\n\n    /*\n    *   @dev Function getLoanCount() returns how many active loans there are\n    */\n    function getLoanCount() public view returns (uint256) {\n        return loanCount;\n    }\n\n    /**\n    *   @dev Function getSupplyableTokenAddress() returns the contract address of ERC20 this pool accepts (ususally USDC)\n    */\n    function getSupplyableTokenAddress() public view returns (address) {\n        return ERCAddress;\n    }\n\n    /**\n    *   @dev Function getServicerAddress() returns the address of this pool's servicer\n    */\n    function getServicerAddress() public view returns (address) {\n        return servicer;\n    }\n\n    /**\n    *   @dev Function getLoanDetails() returns an all the raw details about a loan\n    *   @param loanId is the id for the loan we're looking up\n    *   EDITED in pool1 to also return PropToken ID\n    */\n    function getLoanDetails(uint256 loanId) public view returns (uint256, address, uint256, uint256, uint256, uint256, uint256) {\n        Loan memory loan = loans[loanId];\n        uint256 interestAccrued = getLoanAccruedInterest(loanId);\n        uint256 propTokenID = loanToPropToken[loanId];\n        return (loan.loanId, loan.borrower, loan.interestRate, loan.principal, interestAccrued, loan.timeLastPayment, propTokenID);\n    }\n\n    /**\n    *   @dev Function getLoanAccruedInterest() calculates and returns the amount of interest accrued on a given loan\n    *   @param loanId is the id for the loan we're looking up\n    */\n    function getLoanAccruedInterest(uint256 loanId) public view returns (uint256) {\n        Loan memory loan = loans[loanId];\n        uint256 secondsSincePayment = block.timestamp.sub(loan.timeLastPayment);\n\n        // 31,104,000 is number of seconds per year (360 * 24 * 60 * 60)\n        uint256 interestPerSecond = loan.principal.mul(loan.interestRate).div(31_104_000);\n\n        // Interest rates are stored in fixed point as numbers and not percentages.\n        // For example, 12% is 12_000000 (12.0) not 0_120000 (0.12).\n        // To do math with them, you often need to divide by 100 (100_000000) after.\n\n        // Divide by 100 for interest rate adjustment and 1_000000 for fixed point adjustment.\n        uint256 interestAccrued = interestPerSecond.mul(secondsSincePayment).div(100_000000);\n\n        return interestAccrued.add(loan.interestAccrued);\n    }\n\n\n    /*****************************************************\n    *                LENDING/BORROWING FUNCTIONS\n    ******************************************************/\n\n    function lendPool(\n        uint256 amountUsdc,\n        uint256 expectedHomeCoin\n    ) public nonReentrant returns (uint256) {\n        IERC20Upgradeable usdcCoin = IERC20Upgradeable(ERCAddress);\n        usdcCoin.transferFrom(msg.sender, address(this), amountUsdc);\n        usdcCoin.approve(curvePoolAddress, amountUsdc);\n        \n        ICurve curve = ICurve(curvePoolAddress);\n        // 2 is USDC. 0 is HomeCoin.\n        // Why Curve uses indexes instead of addresses is an open question.\n        uint256 rez = curve.exchange_underlying(2, 0, amountUsdc, expectedHomeCoin, msg.sender);\n\n        return rez;\n    }\n\n\n    function redeemPool(\n        uint256 amountHome,\n        uint256 expectedUsdc\n    ) public nonReentrant returns (uint256) {\n        require(balanceOf(msg.sender) >= amountHome, \"HOME balance insufficient\");\n\n        super._transfer(msg.sender, address(this), amountHome);\n        super._approve(address(this), curvePoolAddress, amountHome);\n\n        ICurve curve = ICurve(curvePoolAddress);\n        // 2 is USDC. 0 is HomeCoin. All of this is terrible.\n        uint256 rez = curve.exchange_underlying(0, 2, amountHome, expectedUsdc, msg.sender);\n\n        return rez;\n    }\n\n    /**\n    *   @dev Function borrow creates a new Loan, moves the USDC to Borrower, and returns the loan ID and fixed Interest Rate\n    *   - Also creates an origination fee for the Servicer in HC_Pool\n    *   @param amount The size of the potential loan in (probably usdc).\n    *   @param fixedInterestRate The rate for the loan.\n    *   EDITED in pool1 to also require a PropToken\n    *   EDITED in pool1 - borrower param was removed and msg.sender is new recepient of USDC\n    *   EDITED in pool2 - propToken data is oulled and LTV of loan is required before loan can process\n    *   EDITED in pool14 - now lends HOME instead of USDC\n    */\n    function borrow(uint256 amount, uint256 fixedInterestRate, uint256 propTokenId) public nonReentrant {\n        // require this address is approved to transfer propToken\n        require(PropToken0(propTokenContractAddress).getApproved(propTokenId) == address(this), \"pool not approved to move egg\");\n\n        // [TODO] Consider upgrading PropToken to trust the PoolCore always so approval doesn't have to be done.\n        // also require msg.sender is owner of token.\n        require(PropToken0(propTokenContractAddress).ownerOf(propTokenId) == msg.sender, \"msg.sender not egg owner\");\n\n        require(fixedInterestRate > 1_000000, \"rate must not be less than 1%\");\n\n        // [TODO] Change the interest rate calculation code. Remove the AMM.\n        // check the requested interest rate is still available\n        // uint256 fixedInterestRate = uint256(PoolUtils0(poolUtilsAddress).getInterestRate(amount));\n        // require(fixedInterestRate <= maxRate, \"interest rate no longer avail\");\n\n        // require the propToken approved has a lien value less than or equal to the requested loan size\n        uint256 lienAmount = PropToken0(propTokenContractAddress).getLienValue(propTokenId);\n        require(lienAmount >= amount, \"loan larger that egg value\");\n\n        // require that LTV of propToken is less than LTV required by oracle\n        uint256 LTVRequirement = LTVGuidelines(LTVOracleAddress).getMaxLTV();\n        (, , uint256[] memory SeniorLiens, uint256 HomeValue, , ,) = PropToken0(propTokenContractAddress).getPropTokenData(propTokenId);\n        for (uint i = 0; i < SeniorLiens.length; i++) {\n            lienAmount = lienAmount.add(SeniorLiens[i]);\n        }\n        require(lienAmount.mul(100).div(HomeValue) < LTVRequirement, \"LTV too high\");\n\n        // create new Loan\n        loans.push(Loan(loanCount, msg.sender, fixedInterestRate, amount, 0, block.timestamp));\n\n        // index the loan to the wallet\n        userLoans[msg.sender].push(loanCount);\n\n        // map new Loan ID to Token ID\n        loanToPropToken[loanCount] = propTokenId;\n        loanCount = loanCount.add(1);\n\n        // take the propToken and hold it in the Pool\n        PropToken0(propTokenContractAddress).safeTransferFrom(msg.sender, address(this), propTokenId);\n\n        // Finally mint HOME. 99% to the borrower. 0.5% to servicer. 0.5% to DAO.\n        super._mint(msg.sender, amount.mul(99).div(100));\n        super._mint(servicer, amount.div(200));\n        super._mint(daoAddress, amount.div(200));\n\n        emit Borrow(msg.sender, uint64(propTokenId), uint64(loanCount.sub(1)), uint128(amount), uint64(fixedInterestRate));\n    }\n\n    /**\n    *   @dev Function repay repays a specific loan\n    *   - payment is first deducted from the interest then principal.\n    *   - the servicer_fee is deducted from the interest repayment and servicer is compensated in hc_pool\n    *   - repayer must have first approved fromsfers on behalf\n    *   @param loanId The loan to be repayed\n    *   @param amount The amount of the ERC20 token to repay the loan with\n    *   EDITED in Pool1 - returns propToken when principal reaches 0\n    *   EDITED in pool14 - repayments done in HOME instead of USDC\n    */\n    function repay(uint256 loanId, uint256 amount) public nonReentrant {\n        require(amount > 0, \"Can't make a 0 payment.\");\n        require(loanId < loanCount, \"Loan to repay must exist.\");\n\n        Loan storage currentLoan = loans[loanId];\n\n        uint256 currentInterest = getLoanAccruedInterest(loanId);\n        uint256 currentPrincipal = currentLoan.principal;\n\n        require(currentPrincipal > 0, \"Loan must still be active.\");\n\n        // Default repayments amounts if the payment doesn't cover all the interest accrued.\n        uint256 interestRepaid = amount;\n        uint256 principalRepaid = 0;\n\n        // if the payment amount is greater than accrued interest, deduct the rest from principal.\n        if (currentInterest < amount) {\n            interestRepaid = currentInterest;\n\n            // If the principal payment is larger than the principal left on the loan,\n            // payoff the whole loan and leave the return the rest of the payment.\n            principalRepaid = amount.sub(interestRepaid);\n            if (currentPrincipal < principalRepaid) {\n                principalRepaid = currentPrincipal;\n            }\n        }\n\n        // loan data is updated first before token movement.\n        currentLoan.timeLastPayment = block.timestamp;\n        currentLoan.principal = currentPrincipal.sub(principalRepaid);\n        currentLoan.interestAccrued = currentInterest.sub(interestRepaid);\n\n        // Calculate how much of payment goes to servicer here.\n        // 1% of the loan split between the servicer and DAO.\n        // Can't take more fee than the interest being repaid. Only matters when rate set < 1%.\n        uint256 servicerFee = servicerFeePercentage.mul(interestRepaid).div(currentLoan.interestRate);\n        if (servicerFee > interestRepaid) {\n            servicerFee = interestRepaid;\n        }\n\n        // Transfer HOME proportional to the payment and distribute\n        super._transfer(msg.sender, servicer, servicerFee.div(2));\n        super._transfer(msg.sender, daoAddress, servicerFee.div(2));\n\n        // Send the remaining interest to the DAO for distribution to HOME holders\n        super._transfer(msg.sender, daoAddress, interestRepaid.sub(servicerFee));\n\n        // Burn HOME for the principal repaid to maintain the principal/HOME invariant.\n        if (principalRepaid > 0) {\n            super._burn(msg.sender, principalRepaid);\n        }\n\n        // [TODO] Think about the case where the prop token could be used to get multiple loans\n        // [TODO] and there's a separate function to retrieve the token and tests that the balance is 0.\n        // [TODO] For now, the prop token can only be used to get one loan. This makes extra draws impossible.\n\n        // If the loan is paid off. Return the PropToken back to borrower.\n        if (currentLoan.principal == 0) {\n            PropToken0(propTokenContractAddress).safeTransferFrom(address(this), currentLoan.borrower, loanToPropToken[loanId]);\n        }\n\n        emit Repay(msg.sender, uint64(loanId), uint128(currentPrincipal), uint128(currentInterest), uint128(principalRepaid), uint128(interestRepaid));\n\n    }\n\n    /*****************************************************\n    *                Staking FUNCTIONS\n    ******************************************************/\n\n    function boost(uint256 amount, uint16 level, bool autoRenew) public returns (bool){\n        require(balanceOf(msg.sender) >= amount, \"Not enough to boost\");\n\n        // Deposit the funds with the staking contract so they can still earn Bacon.\n        // Send all tokens to the staking contract to hold them for the user.\n        // Only stake a proportion so the boost earns the appropraite amount of Bacon.\n        uint256 amountToStake = HomeBoost0(homeBoostAddress).getStakeAmount(level, amount);\n\n        transfer(poolStakingAddress, amountToStake);\n        bool successfulStake = PoolStakingRewards3(poolStakingRewardAddress).stake(msg.sender, amountToStake);\n\n        // Send any remaining unstaked amounts to the boost contract for holding.\n        if (amountToStake < amount) {\n            transfer(homeBoostAddress, amount - amountToStake);\n        }\n\n        // Create the boost\n        bool successfulBoost = HomeBoost0(homeBoostAddress).mint(msg.sender, amount, level, autoRenew);\n\n        require(successfulStake && successfulBoost, \"Boost failed\");\n\n        return successfulStake && successfulBoost;\n    }\n\n    /**\n    *   @dev Function getVersion returns current upgraded version\n    */\n    function getVersion() public pure returns (uint) {\n        return 16;\n    }\n\n    function onERC721Received(address, address, uint256, bytes memory ) public pure override returns (bytes4) {\n        return this.onERC721Received.selector;\n    }\n\n    function claimRewards() public returns (uint256) {\n        return 0;\n    }\n\n    function finalGetAndClearReward(address account) private returns (uint256) {\n        // 1% Rewards [div by 100]\n        uint256 unstakedRewards = super.getAndClearReward(account).div(100);\n\n        uint256 stakedRewards = PoolStakingRewards3(poolStakingRewardAddress).getAndClearReward(account).div(100);\n\n        uint256 rewards = unstakedRewards + stakedRewards;\n\n        super._transfer(daoAddress, msg.sender, rewards);\n\n        return rewards;\n    }\n\n    function transferBoostRewards(address wallet, uint256 amount) public {\n        require(msg.sender == homeBoostAddress, \"invalid sender\");\n\n        super._transfer(daoAddress, wallet, amount);\n    }\n\n    function transferUSDC(address wallet, uint256 amount) public {\n        require(msg.sender == servicer, \"invalid sender\");\n        IERC20Upgradeable usdcCoin = IERC20Upgradeable(ERCAddress);\n\n        usdcCoin.transfer(wallet, amount);\n    }\n\n    /**\n    * @dev Function burn burns HOME\n    * @param amount is the amount of HOME to burn\n    */\n    function burn(uint256 amount) public {\n        super._burn(msg.sender, amount);\n    }\n\n    /**\n     * @dev\n     */\n    function endOnePercent(address[] memory addresses) public {\n        require(msg.sender == servicer, \"Only guardian\");\n        for(uint256 currentAddress = 0; currentAddress < addresses.length; currentAddress++) {\n            finalGetAndClearReward(addresses[currentAddress]);\n        }\n    }\n\n}\n",
  "sourcePath": "/src/contracts/PoolCore/Pool16.sol",
  "updatedAt": "2023-03-10T21:22:40.921Z",
  "userdoc": {
    "kind": "user",
    "methods": {},
    "version": 1
  }
}