{
  "contractName": "Pool3",
  "abi": [
    {
      "anonymous": false,
      "inputs": [
        {
          "indexed": true,
          "internalType": "address",
          "name": "owner",
          "type": "address"
        },
        {
          "indexed": true,
          "internalType": "address",
          "name": "spender",
          "type": "address"
        },
        {
          "indexed": false,
          "internalType": "uint256",
          "name": "value",
          "type": "uint256"
        }
      ],
      "name": "Approval",
      "type": "event"
    },
    {
      "anonymous": false,
      "inputs": [
        {
          "indexed": true,
          "internalType": "address",
          "name": "operator",
          "type": "address"
        },
        {
          "indexed": true,
          "internalType": "address",
          "name": "tokenHolder",
          "type": "address"
        }
      ],
      "name": "AuthorizedOperator",
      "type": "event"
    },
    {
      "anonymous": false,
      "inputs": [
        {
          "indexed": true,
          "internalType": "address",
          "name": "operator",
          "type": "address"
        },
        {
          "indexed": true,
          "internalType": "address",
          "name": "from",
          "type": "address"
        },
        {
          "indexed": false,
          "internalType": "uint256",
          "name": "amount",
          "type": "uint256"
        },
        {
          "indexed": false,
          "internalType": "bytes",
          "name": "data",
          "type": "bytes"
        },
        {
          "indexed": false,
          "internalType": "bytes",
          "name": "operatorData",
          "type": "bytes"
        }
      ],
      "name": "Burned",
      "type": "event"
    },
    {
      "anonymous": false,
      "inputs": [
        {
          "indexed": true,
          "internalType": "address",
          "name": "operator",
          "type": "address"
        },
        {
          "indexed": true,
          "internalType": "address",
          "name": "to",
          "type": "address"
        },
        {
          "indexed": false,
          "internalType": "uint256",
          "name": "amount",
          "type": "uint256"
        },
        {
          "indexed": false,
          "internalType": "bytes",
          "name": "data",
          "type": "bytes"
        },
        {
          "indexed": false,
          "internalType": "bytes",
          "name": "operatorData",
          "type": "bytes"
        }
      ],
      "name": "Minted",
      "type": "event"
    },
    {
      "anonymous": false,
      "inputs": [
        {
          "indexed": true,
          "internalType": "address",
          "name": "operator",
          "type": "address"
        },
        {
          "indexed": true,
          "internalType": "address",
          "name": "tokenHolder",
          "type": "address"
        }
      ],
      "name": "RevokedOperator",
      "type": "event"
    },
    {
      "anonymous": false,
      "inputs": [
        {
          "indexed": true,
          "internalType": "address",
          "name": "operator",
          "type": "address"
        },
        {
          "indexed": true,
          "internalType": "address",
          "name": "from",
          "type": "address"
        },
        {
          "indexed": true,
          "internalType": "address",
          "name": "to",
          "type": "address"
        },
        {
          "indexed": false,
          "internalType": "uint256",
          "name": "amount",
          "type": "uint256"
        },
        {
          "indexed": false,
          "internalType": "bytes",
          "name": "data",
          "type": "bytes"
        },
        {
          "indexed": false,
          "internalType": "bytes",
          "name": "operatorData",
          "type": "bytes"
        }
      ],
      "name": "Sent",
      "type": "event"
    },
    {
      "anonymous": false,
      "inputs": [
        {
          "indexed": true,
          "internalType": "address",
          "name": "from",
          "type": "address"
        },
        {
          "indexed": true,
          "internalType": "address",
          "name": "to",
          "type": "address"
        },
        {
          "indexed": false,
          "internalType": "uint256",
          "name": "value",
          "type": "uint256"
        }
      ],
      "name": "Transfer",
      "type": "event"
    },
    {
      "inputs": [
        {
          "internalType": "address",
          "name": "holder",
          "type": "address"
        },
        {
          "internalType": "address",
          "name": "spender",
          "type": "address"
        }
      ],
      "name": "allowance",
      "outputs": [
        {
          "internalType": "uint256",
          "name": "",
          "type": "uint256"
        }
      ],
      "stateMutability": "view",
      "type": "function"
    },
    {
      "inputs": [
        {
          "internalType": "address",
          "name": "spender",
          "type": "address"
        },
        {
          "internalType": "uint256",
          "name": "value",
          "type": "uint256"
        }
      ],
      "name": "approve",
      "outputs": [
        {
          "internalType": "bool",
          "name": "",
          "type": "bool"
        }
      ],
      "stateMutability": "nonpayable",
      "type": "function"
    },
    {
      "inputs": [
        {
          "internalType": "address",
          "name": "operator",
          "type": "address"
        }
      ],
      "name": "authorizeOperator",
      "outputs": [],
      "stateMutability": "nonpayable",
      "type": "function"
    },
    {
      "inputs": [
        {
          "internalType": "address",
          "name": "tokenHolder",
          "type": "address"
        }
      ],
      "name": "balanceOf",
      "outputs": [
        {
          "internalType": "uint256",
          "name": "",
          "type": "uint256"
        }
      ],
      "stateMutability": "view",
      "type": "function"
    },
    {
      "inputs": [
        {
          "internalType": "uint256",
          "name": "amount",
          "type": "uint256"
        },
        {
          "internalType": "bytes",
          "name": "data",
          "type": "bytes"
        }
      ],
      "name": "burn",
      "outputs": [],
      "stateMutability": "nonpayable",
      "type": "function"
    },
    {
      "inputs": [],
      "name": "defaultOperators",
      "outputs": [
        {
          "internalType": "address[]",
          "name": "",
          "type": "address[]"
        }
      ],
      "stateMutability": "view",
      "type": "function"
    },
    {
      "inputs": [],
      "name": "granularity",
      "outputs": [
        {
          "internalType": "uint256",
          "name": "",
          "type": "uint256"
        }
      ],
      "stateMutability": "view",
      "type": "function"
    },
    {
      "inputs": [
        {
          "internalType": "address",
          "name": "operator",
          "type": "address"
        },
        {
          "internalType": "address",
          "name": "tokenHolder",
          "type": "address"
        }
      ],
      "name": "isOperatorFor",
      "outputs": [
        {
          "internalType": "bool",
          "name": "",
          "type": "bool"
        }
      ],
      "stateMutability": "view",
      "type": "function"
    },
    {
      "inputs": [
        {
          "internalType": "address",
          "name": "account",
          "type": "address"
        },
        {
          "internalType": "uint256",
          "name": "amount",
          "type": "uint256"
        },
        {
          "internalType": "bytes",
          "name": "data",
          "type": "bytes"
        },
        {
          "internalType": "bytes",
          "name": "operatorData",
          "type": "bytes"
        }
      ],
      "name": "operatorBurn",
      "outputs": [],
      "stateMutability": "nonpayable",
      "type": "function"
    },
    {
      "inputs": [
        {
          "internalType": "address",
          "name": "sender",
          "type": "address"
        },
        {
          "internalType": "address",
          "name": "recipient",
          "type": "address"
        },
        {
          "internalType": "uint256",
          "name": "amount",
          "type": "uint256"
        },
        {
          "internalType": "bytes",
          "name": "data",
          "type": "bytes"
        },
        {
          "internalType": "bytes",
          "name": "operatorData",
          "type": "bytes"
        }
      ],
      "name": "operatorSend",
      "outputs": [],
      "stateMutability": "nonpayable",
      "type": "function"
    },
    {
      "inputs": [
        {
          "internalType": "address",
          "name": "operator",
          "type": "address"
        }
      ],
      "name": "revokeOperator",
      "outputs": [],
      "stateMutability": "nonpayable",
      "type": "function"
    },
    {
      "inputs": [
        {
          "internalType": "address",
          "name": "recipient",
          "type": "address"
        },
        {
          "internalType": "uint256",
          "name": "amount",
          "type": "uint256"
        },
        {
          "internalType": "bytes",
          "name": "data",
          "type": "bytes"
        }
      ],
      "name": "send",
      "outputs": [],
      "stateMutability": "nonpayable",
      "type": "function"
    },
    {
      "inputs": [],
      "name": "totalSupply",
      "outputs": [
        {
          "internalType": "uint256",
          "name": "",
          "type": "uint256"
        }
      ],
      "stateMutability": "view",
      "type": "function"
    },
    {
      "inputs": [
        {
          "internalType": "address",
          "name": "recipient",
          "type": "address"
        },
        {
          "internalType": "uint256",
          "name": "amount",
          "type": "uint256"
        }
      ],
      "name": "transfer",
      "outputs": [
        {
          "internalType": "bool",
          "name": "",
          "type": "bool"
        }
      ],
      "stateMutability": "nonpayable",
      "type": "function"
    },
    {
      "inputs": [
        {
          "internalType": "address",
          "name": "holder",
          "type": "address"
        },
        {
          "internalType": "address",
          "name": "recipient",
          "type": "address"
        },
        {
          "internalType": "uint256",
          "name": "amount",
          "type": "uint256"
        }
      ],
      "name": "transferFrom",
      "outputs": [
        {
          "internalType": "bool",
          "name": "",
          "type": "bool"
        }
      ],
      "stateMutability": "nonpayable",
      "type": "function"
    },
    {
      "inputs": [
        {
          "internalType": "address",
          "name": "_LTVOracleAddress",
          "type": "address"
        }
      ],
      "name": "initializePoolTwo",
      "outputs": [],
      "stateMutability": "nonpayable",
      "type": "function"
    },
    {
      "inputs": [],
      "name": "name",
      "outputs": [
        {
          "internalType": "string",
          "name": "",
          "type": "string"
        }
      ],
      "stateMutability": "view",
      "type": "function"
    },
    {
      "inputs": [],
      "name": "symbol",
      "outputs": [
        {
          "internalType": "string",
          "name": "",
          "type": "string"
        }
      ],
      "stateMutability": "view",
      "type": "function"
    },
    {
      "inputs": [],
      "name": "decimals",
      "outputs": [
        {
          "internalType": "uint8",
          "name": "",
          "type": "uint8"
        }
      ],
      "stateMutability": "pure",
      "type": "function"
    },
    {
      "inputs": [
        {
          "internalType": "address[]",
          "name": "_servicerAddresses",
          "type": "address[]"
        }
      ],
      "name": "setApprovedAddresses",
      "outputs": [],
      "stateMutability": "nonpayable",
      "type": "function"
    },
    {
      "inputs": [],
      "name": "getContractData",
      "outputs": [
        {
          "internalType": "address",
          "name": "",
          "type": "address"
        },
        {
          "internalType": "address",
          "name": "",
          "type": "address"
        },
        {
          "internalType": "uint256",
          "name": "",
          "type": "uint256"
        },
        {
          "internalType": "uint256",
          "name": "",
          "type": "uint256"
        },
        {
          "internalType": "uint256",
          "name": "",
          "type": "uint256"
        },
        {
          "internalType": "uint256",
          "name": "",
          "type": "uint256"
        }
      ],
      "stateMutability": "view",
      "type": "function"
    },
    {
      "inputs": [],
      "name": "getPoolValueWithInterest",
      "outputs": [
        {
          "internalType": "uint256",
          "name": "",
          "type": "uint256"
        }
      ],
      "stateMutability": "view",
      "type": "function"
    },
    {
      "inputs": [],
      "name": "getSupplyableTokenAddress",
      "outputs": [
        {
          "internalType": "address",
          "name": "",
          "type": "address"
        }
      ],
      "stateMutability": "view",
      "type": "function"
    },
    {
      "inputs": [],
      "name": "getServicerAddress",
      "outputs": [
        {
          "internalType": "address",
          "name": "",
          "type": "address"
        }
      ],
      "stateMutability": "view",
      "type": "function"
    },
    {
      "inputs": [],
      "name": "getActiveLoans",
      "outputs": [
        {
          "internalType": "bool[]",
          "name": "",
          "type": "bool[]"
        }
      ],
      "stateMutability": "view",
      "type": "function"
    },
    {
      "inputs": [
        {
          "internalType": "uint256",
          "name": "loanId",
          "type": "uint256"
        }
      ],
      "name": "getLoanAccruedInterest",
      "outputs": [
        {
          "internalType": "uint256",
          "name": "",
          "type": "uint256"
        }
      ],
      "stateMutability": "view",
      "type": "function"
    },
    {
      "inputs": [
        {
          "internalType": "uint256",
          "name": "loanId",
          "type": "uint256"
        }
      ],
      "name": "getLoanDetails",
      "outputs": [
        {
          "internalType": "uint256",
          "name": "",
          "type": "uint256"
        },
        {
          "internalType": "address",
          "name": "",
          "type": "address"
        },
        {
          "internalType": "uint256",
          "name": "",
          "type": "uint256"
        },
        {
          "internalType": "uint256",
          "name": "",
          "type": "uint256"
        },
        {
          "internalType": "uint256",
          "name": "",
          "type": "uint256"
        },
        {
          "internalType": "uint256",
          "name": "",
          "type": "uint256"
        },
        {
          "internalType": "uint256",
          "name": "",
          "type": "uint256"
        }
      ],
      "stateMutability": "view",
      "type": "function"
    },
    {
      "inputs": [],
      "name": "getAverageInterest",
      "outputs": [
        {
          "internalType": "uint256",
          "name": "",
          "type": "uint256"
        }
      ],
      "stateMutability": "view",
      "type": "function"
    },
    {
      "inputs": [
        {
          "internalType": "uint256",
          "name": "amount",
          "type": "uint256"
        }
      ],
      "name": "lend",
      "outputs": [],
      "stateMutability": "nonpayable",
      "type": "function"
    },
    {
      "inputs": [
        {
          "internalType": "uint256",
          "name": "amount",
          "type": "uint256"
        }
      ],
      "name": "redeem",
      "outputs": [],
      "stateMutability": "nonpayable",
      "type": "function"
    },
    {
      "inputs": [
        {
          "internalType": "uint256",
          "name": "amount",
          "type": "uint256"
        }
      ],
      "name": "getInterestRate",
      "outputs": [
        {
          "internalType": "int256",
          "name": "",
          "type": "int256"
        }
      ],
      "stateMutability": "view",
      "type": "function"
    },
    {
      "inputs": [
        {
          "internalType": "uint256",
          "name": "amount",
          "type": "uint256"
        },
        {
          "internalType": "uint256",
          "name": "maxRate",
          "type": "uint256"
        },
        {
          "internalType": "uint256",
          "name": "propTokenId",
          "type": "uint256"
        }
      ],
      "name": "borrow",
      "outputs": [],
      "stateMutability": "nonpayable",
      "type": "function"
    },
    {
      "inputs": [
        {
          "internalType": "uint256",
          "name": "loanId",
          "type": "uint256"
        },
        {
          "internalType": "uint256",
          "name": "amount",
          "type": "uint256"
        }
      ],
      "name": "repay",
      "outputs": [],
      "stateMutability": "nonpayable",
      "type": "function"
    },
    {
      "inputs": [],
      "name": "getVersion",
      "outputs": [
        {
          "internalType": "uint256",
          "name": "",
          "type": "uint256"
        }
      ],
      "stateMutability": "pure",
      "type": "function"
    },
    {
      "inputs": [
        {
          "internalType": "address",
          "name": "",
          "type": "address"
        },
        {
          "internalType": "address",
          "name": "",
          "type": "address"
        },
        {
          "internalType": "uint256",
          "name": "",
          "type": "uint256"
        },
        {
          "internalType": "bytes",
          "name": "",
          "type": "bytes"
        }
      ],
      "name": "onERC721Received",
      "outputs": [
        {
          "internalType": "bytes4",
          "name": "",
          "type": "bytes4"
        }
      ],
      "stateMutability": "pure",
      "type": "function"
    }
  ],
  "bytecode": "0x608060405234801561001057600080fd5b506138e8806100206000396000f3fe608060405234801561001057600080fd5b50600436106102415760003560e01c806390b53e1411610145578063ae8c8be0116100bd578063db006a751161008c578063fad8b32a11610071578063fad8b32a14610598578063fc673c4f146105ab578063fe9d9303146105be57600080fd5b8063db006a751461054c578063dd62ed3e1461055f57600080fd5b8063ae8c8be01461050b578063b3da1bcb1461051e578063d8aed14514610526578063d95b63711461053957600080fd5b80639bd9bbc611610114578063a6aa57ce116100f9578063a6aa57ce146104d2578063a9059cbb146104e5578063adf459ca146104f857600080fd5b80639bd9bbc61461047f578063a68b91ab1461049257600080fd5b806390b53e1414610440578063959b8c3f1461045157806395d89b41146104645780639a5872f41461046c57600080fd5b806323b872dd116101d8578063556f0dc7116101a757806366877b8d1161018c57806366877b8d146103b457806370a08231146104045780637e174eb41461042d57600080fd5b8063556f0dc71461039857806362ad1b831461039f57600080fd5b806323b872dd146103495780632f5e5d951461035c578063313ce56714610381578063397554661461039057600080fd5b80630d8e6e2c116102145780630d8e6e2c146102bd578063121ed2a7146102c4578063150b7a02146102d957806318160ddd1461034157600080fd5b806306e485381461024657806306fdde0314610264578063095ea7b3146102795780630c196a741461029c575b600080fd5b61024e6105d1565b60405161025b9190612e3b565b60405180910390f35b61026c610633565b60405161025b9190612ee0565b61028c610287366004612f0b565b6106bc565b604051901515815260200161025b565b6102af6102aa366004612f37565b6106d4565b60405190815260200161025b565b60026102af565b6102cc61078f565b60405161025b9190612f50565b6103106102e736600461304f565b7f150b7a0200000000000000000000000000000000000000000000000000000000949350505050565b6040517fffffffff00000000000000000000000000000000000000000000000000000000909116815260200161025b565b6034546102af565b61028c6103573660046130bb565b61087b565b6066546001600160a01b03165b6040516001600160a01b03909116815260200161025b565b6040516006815260200161025b565b6102af610ac0565b60016102af565b6103b26103ad3660046130fc565b610bc1565b005b6103c76103c2366004612f37565b610c53565b604080519788526001600160a01b039096166020880152948601939093526060850191909152608084015260a083015260c082015260e00161025b565b6102af61041236600461318f565b6001600160a01b031660009081526033602052604090205490565b6103b261043b3660046131d0565b610d16565b6065546001600160a01b0316610369565b6103b261045f36600461318f565b610d44565b61026c610e7b565b6102af61047a366004612f37565b610e8a565b6103b261048d36600461326a565b610f67565b61049a610f8a565b604080516001600160a01b039788168152969095166020870152938501929092526060840152608083015260a082015260c00161025b565b6103b26104e0366004612f37565b610fd1565b61028c6104f3366004612f0b565b611079565b6103b26105063660046132c3565b611181565b6103b261051936600461318f565b61192b565b6102af61197c565b6103b26105343660046132ef565b6119b5565b61028c610547366004613311565b611e88565b6103b261055a366004612f37565b611f2a565b6102af61056d366004613311565b6001600160a01b039182166000908152603b6020908152604080832093909416825291909152205490565b6103b26105a636600461318f565b612074565b6103b26105b936600461334a565b6121ac565b6103b26105cc3660046133be565b612234565b6060603780548060200260200160405190810160405280929190818152602001828054801561062957602002820191906000526020600020905b81546001600160a01b0316815260019091019060200180831161060b575b5050505050905090565b6060606d805461064290613405565b80601f016020809104026020016040519081016040528092919081815260200182805461066e90613405565b80156106295780601f1061069057610100808354040283529160200191610629565b820191906000526020600020905b81548152906001019060200180831161069e57509395945050505050565b6000336106ca81858561224f565b5060019392505050565b60006069546068546106e69190613450565b82106106f157600080fd5b600061072260685461071c6305f5e100610716876069546123a890919063ffffffff16565b906123b4565b906123c0565b90506000610734826307270e006123cc565b90506000610746836305f5e1006123cc565b9050600061075b8261071c85620f42406123b4565b9050610785620f424061077f81816107786307270e0060646123c0565b86906123cc565b906123a8565b9695505050505050565b606b5460609060009067ffffffffffffffff8111156107b0576107b0612f8a565b6040519080825280602002602001820160405280156107d9578160200160208202803683370190505b50905060005b606b5481101561087557606b81815481106107fc576107fc613467565b90600052602060002090600602016003015460001461083e57600182828151811061082957610829613467565b91151560209283029190910190910152610863565b600082828151811061085257610852613467565b911515602092830291909101909101525b8061086d8161347d565b9150506107df565b50919050565b60006001600160a01b0383166108fd5760405162461bcd60e51b8152602060048201526024808201527f4552433737373a207472616e7366657220746f20746865207a65726f2061646460448201527f726573730000000000000000000000000000000000000000000000000000000060648201526084015b60405180910390fd5b6001600160a01b0384166109795760405162461bcd60e51b815260206004820152602660248201527f4552433737373a207472616e736665722066726f6d20746865207a65726f206160448201527f646472657373000000000000000000000000000000000000000000000000000060648201526084016108f4565b60003390506109aa8186868660405180602001604052806000815250604051806020016040528060008152506123d8565b6109d6818686866040518060200160405280600081525060405180602001604052806000815250612541565b6001600160a01b038086166000908152603b602090815260408083209385168352929052205483811015610a725760405162461bcd60e51b815260206004820152602960248201527f4552433737373a207472616e7366657220616d6f756e7420657863656564732060448201527f616c6c6f77616e6365000000000000000000000000000000000000000000000060648201526084016108f4565b610a868683610a818785613450565b61224f565b610ab482878787604051806020016040528060008152506040518060200160405280600081525060006126bd565b50600195945050505050565b60008080805b606b54811015610baf57606b8181548110610ae357610ae3613467565b906000526020600020906006020160030154600014610b9d57610b61610b5a606b8381548110610b1557610b15613467565b906000526020600020906006020160030154606b8481548110610b3a57610b3a613467565b9060005260206000209060060201600201546128d390919063ffffffff16565b84906128df565b9250610b9a606b8281548110610b7957610b79613467565b906000526020600020906006020160030154836128df90919063ffffffff16565b91505b80610ba78161347d565b915050610ac6565b50610bba82826128eb565b9250505090565b610bcb3386611e88565b610c3d5760405162461bcd60e51b815260206004820152602c60248201527f4552433737373a2063616c6c6572206973206e6f7420616e206f70657261746f60448201527f7220666f7220686f6c646572000000000000000000000000000000000000000060648201526084016108f4565b610c4c858585858560016128f7565b5050505050565b600080600080600080600080606b8981548110610c7257610c72613467565b600091825260208083206040805160c08101825260069094029091018054845260018101546001600160a01b03169284019290925260028201549083015260038101546060830152600481015460808301526005015460a08201529150610cd88a610e8a565b60009a8b52606f602090815260409b8c9020548451918501519c850151606086015160a090960151929e909c50949a50919850965094509092505050565b6065546001600160a01b03163314610d2d57600080fd5b8051610d40906067906020840190612da9565b5050565b336001600160a01b0382161415610dc25760405162461bcd60e51b8152602060048201526024808201527f4552433737373a20617574686f72697a696e672073656c66206173206f70657260448201527f61746f720000000000000000000000000000000000000000000000000000000060648201526084016108f4565b6001600160a01b03811660009081526038602052604090205460ff1615610e1357336000908152603a602090815260408083206001600160a01b03851684529091529020805460ff19169055610e42565b3360009081526039602090815260408083206001600160a01b03851684529091529020805460ff191660011790555b60405133906001600160a01b038316907ff4caeb2d6ca8932a215a353d0703c326ec2d81fc68170f320eb2ab49e9df61f990600090a350565b6060606e805461064290613405565b600080606b8381548110610ea057610ea0613467565b600091825260208083206040805160c08101825260069094029091018054845260018101546001600160a01b03169284019290925260028201549083015260038101546060830152600481015460808301526005015460a08201819052909250610f0b9042906129f5565b90506000610f386301e28500610f32856040015186606001516128d390919063ffffffff16565b906128eb565b90506000610f4e6305f5e100610f3284866128d3565b90506107858460800151826128df90919063ffffffff16565b610f85338484846040518060200160405280600081525060016128f7565b505050565b606554606654606854600092839283928392839283926001600160a01b039283169290911690610fb861197c565b606954606c54949b939a50919850965094509092509050565b6066546040516323b872dd60e01b8152336004820152306024820152604481018390526001600160a01b03909116906323b872dd90606401602060405180830381600087803b15801561102357600080fd5b505af1158015611037573d6000803e3d6000fd5b505050506040513d601f19601f8201168201806040525081019061105b9190613498565b506110663382612a01565b60685461107390826128df565b60685550565b60006001600160a01b0383166110f65760405162461bcd60e51b8152602060048201526024808201527f4552433737373a207472616e7366657220746f20746865207a65726f2061646460448201527f726573730000000000000000000000000000000000000000000000000000000060648201526084016108f4565b60003390506111278182868660405180602001604052806000815250604051806020016040528060008152506123d8565b611153818286866040518060200160405280600081525060405180602001604052806000815250612541565b6106ca81828686604051806020016040528060008152506040518060200160405280600081525060006126bd565b6070546040517f081812fc0000000000000000000000000000000000000000000000000000000081526004810183905230916001600160a01b03169063081812fc9060240160206040518083038186803b1580156111de57600080fd5b505afa1580156111f2573d6000803e3d6000fd5b505050506040513d601f19601f8201168201806040525081019061121691906134ba565b6001600160a01b03161461126c5760405162461bcd60e51b815260206004820152601d60248201527f706f6f6c206e6f7420617070726f76656420746f206d6f76652065676700000060448201526064016108f4565b6070546040517f6352211e0000000000000000000000000000000000000000000000000000000081526004810183905233916001600160a01b031690636352211e9060240160206040518083038186803b1580156112c957600080fd5b505afa1580156112dd573d6000803e3d6000fd5b505050506040513d601f19601f8201168201806040525081019061130191906134ba565b6001600160a01b0316146113575760405162461bcd60e51b815260206004820152601860248201527f6d73672e73656e646572206e6f7420656767206f776e6572000000000000000060448201526064016108f4565b6000611362846106d4565b9050828111156113b45760405162461bcd60e51b815260206004820152601d60248201527f696e7465726573742072617465206e6f206c6f6e67657220617661696c00000060448201526064016108f4565b6070546040517f6ebb668b000000000000000000000000000000000000000000000000000000008152600481018490526000916001600160a01b031690636ebb668b9060240160206040518083038186803b15801561141257600080fd5b505afa158015611426573d6000803e3d6000fd5b505050506040513d601f19601f8201168201806040525081019061144a91906134d7565b90508481101561149c5760405162461bcd60e51b815260206004820152601a60248201527f6c6f616e206c61726765722074686174206567672076616c756500000000000060448201526064016108f4565b607154604080517f15a2bf9e00000000000000000000000000000000000000000000000000000000815290516000926001600160a01b0316916315a2bf9e916004808301926020929190829003018186803b1580156114fa57600080fd5b505afa15801561150e573d6000803e3d6000fd5b505050506040513d601f19601f8201168201806040525081019061153291906134d7565b6070546040517f4a293c520000000000000000000000000000000000000000000000000000000081526004810187905291925060009182916001600160a01b031690634a293c529060240160006040518083038186803b15801561159557600080fd5b505afa1580156115a9573d6000803e3d6000fd5b505050506040513d6000823e601f3d908101601f191682016040526115d1919081019061353d565b50505093509350505060005b8251811015611626576116128382815181106115fb576115fb613467565b6020026020010151866128df90919063ffffffff16565b94508061161e8161347d565b9150506115dd565b508261163782610f328760646128d3565b106116845760405162461bcd60e51b815260206004820152600c60248201527f4c545620746f6f2068696768000000000000000000000000000000000000000060448201526064016108f4565b6070546040517f42842e0e000000000000000000000000000000000000000000000000000000008152336004820152306024820152604481018890526001600160a01b03909116906342842e0e90606401600060405180830381600087803b1580156116ef57600080fd5b505af1158015611703573d6000803e3d6000fd5b5050505060006040518060c00160405280606c548152602001336001600160a01b031681526020018781526020018a815260200160008152602001428152509050606b8190806001815401808255809150506001900390600052602060002090600602016000909190919091506000820151816000015560208201518160010160006101000a8154816001600160a01b0302191690836001600160a01b0316021790555060408201518160020155606082015181600301556080820151816004015560a082015181600501555050606a6000336001600160a01b03166001600160a01b03168152602001908152602001600020606c54908060018154018082558091505060019003906000526020600020016000909190919091505586606f6000606c5481526020019081526020016000208190555061184f6001606c546128df90919063ffffffff16565b606c5560695461185f908a6128df565b6069556066546040517fa9059cbb000000000000000000000000000000000000000000000000000000008152336004820152602481018b90526001600160a01b039091169063a9059cbb90604401602060405180830381600087803b1580156118c757600080fd5b505af11580156118db573d6000803e3d6000fd5b505050506040513d601f19601f820116820180604052508101906118ff9190613498565b50606554611920906001600160a01b031661191b8b60646128eb565b612a01565b505050505050505050565b6065546001600160a01b0316331461194257600080fd5b607180547fffffffffffffffffffffffff0000000000000000000000000000000000000000166001600160a01b0392909216919091179055565b606854600090815b606b54811015610875576119a161199a82610e8a565b83906128df565b9150806119ad8161347d565b915050611984565b8060006119c184610e8a565b905082811115611a8d576066546040516323b872dd60e01b8152336004820152306024820152604481018590526001600160a01b03909116906323b872dd90606401602060405180830381600087803b158015611a1d57600080fd5b505af1158015611a31573d6000803e3d6000fd5b505050506040513d601f19601f82011682018060405250810190611a559190613498565b50611a6081846129f5565b606b8581548110611a7357611a73613467565b906000526020600020906006020160040181905550611df4565b9050806000611a9c84836129f5565b905080606b8681548110611ab257611ab2613467565b9060005260206000209060060201600301541115611bcc576066546040516323b872dd60e01b8152336004820152306024820152604481018690526001600160a01b03909116906323b872dd90606401602060405180830381600087803b158015611b1c57600080fd5b505af1158015611b30573d6000803e3d6000fd5b505050506040513d601f19601f82011682018060405250810190611b549190613498565b50606954611b6290826129f5565b606981905550611b9f81606b8781548110611b7f57611b7f613467565b9060005260206000209060060201600301546129f590919063ffffffff16565b606b8681548110611bb257611bb2613467565b906000526020600020906006020160030181905550611dc8565b6000611c0583606b8881548110611be557611be5613467565b9060005260206000209060060201600301546128df90919063ffffffff16565b6066546040516323b872dd60e01b8152336004820152306024820152604481018390529192506001600160a01b0316906323b872dd90606401602060405180830381600087803b158015611c5857600080fd5b505af1158015611c6c573d6000803e3d6000fd5b505050506040513d601f19601f82011682018060405250810190611c909190613498565b50611cca606b8781548110611ca757611ca7613467565b9060005260206000209060060201600301546069546129f590919063ffffffff16565b6069819055506000606b8781548110611ce557611ce5613467565b6000918252602090912060036006909202010155607054606b80546001600160a01b03909216916342842e0e9130918a908110611d2457611d24613467565b60009182526020808320600160069093020191909101548b8352606f9091526040918290205491517fffffffff0000000000000000000000000000000000000000000000000000000060e086901b1681526001600160a01b039384166004820152921660248301526044820152606401600060405180830381600087803b158015611dae57600080fd5b505af1158015611dc2573d6000803e3d6000fd5b50505050505b6000606b8681548110611ddd57611ddd613467565b906000526020600020906006020160040181905550505b42606b8581548110611e0857611e08613467565b6000918252602090912060056006909202010155606854611e2990836128df565b6068819055506000611e6f606b8681548110611e4757611e47613467565b906000526020600020906006020160020154610f3285620f42406128d390919063ffffffff16565b606554909150610c4c906001600160a01b031682612a01565b6000816001600160a01b0316836001600160a01b03161480611ef357506001600160a01b03831660009081526038602052604090205460ff168015611ef357506001600160a01b038083166000908152603a602090815260408083209387168352929052205460ff16155b80611f2357506001600160a01b0380831660009081526039602090815260408083209387168352929052205460ff165b9392505050565b33600090815260336020526040902054811115611f4657600080fd5b6000611f64611f5460345490565b606854610f3290620f42406128d3565b90506000611f79620f4240610f3285856128d3565b9050606954606854611f8b9190613450565b811115611f9757600080fd5b611fc133846040518060200160405280600081525060405180602001604052806000815250612a79565b606854611fce90826129f5565b6068556066546040517fa9059cbb000000000000000000000000000000000000000000000000000000008152336004820152602481018390526001600160a01b039091169063a9059cbb90604401602060405180830381600087803b15801561203657600080fd5b505af115801561204a573d6000803e3d6000fd5b505050506040513d601f19601f8201168201806040525081019061206e9190613498565b50505050565b6001600160a01b0381163314156120f35760405162461bcd60e51b815260206004820152602160248201527f4552433737373a207265766f6b696e672073656c66206173206f70657261746f60448201527f720000000000000000000000000000000000000000000000000000000000000060648201526084016108f4565b6001600160a01b03811660009081526038602052604090205460ff161561214757336000908152603a602090815260408083206001600160a01b03851684529091529020805460ff19166001179055612173565b3360009081526039602090815260408083206001600160a01b03851684529091529020805460ff191690555b60405133906001600160a01b038316907f50546e66e5f44d728365dc3908c63bc5cfeeab470722c1677e3073a6ac294aa190600090a350565b6121b63385611e88565b6122285760405162461bcd60e51b815260206004820152602c60248201527f4552433737373a2063616c6c6572206973206e6f7420616e206f70657261746f60448201527f7220666f7220686f6c646572000000000000000000000000000000000000000060648201526084016108f4565b61206e84848484612a79565b610d4033838360405180602001604052806000815250612a79565b6001600160a01b0383166122cb5760405162461bcd60e51b815260206004820152602560248201527f4552433737373a20617070726f76652066726f6d20746865207a65726f20616460448201527f647265737300000000000000000000000000000000000000000000000000000060648201526084016108f4565b6001600160a01b0382166123475760405162461bcd60e51b815260206004820152602360248201527f4552433737373a20617070726f766520746f20746865207a65726f206164647260448201527f657373000000000000000000000000000000000000000000000000000000000060648201526084016108f4565b6001600160a01b038381166000818152603b602090815260408083209487168084529482529182902085905590518481527f8c5be1e5ebec7d5bd14f71427d1e84f3dd0314c0f7b2291e5b200ac8c7c3b925910160405180910390a3505050565b6000611f23828461364f565b6000611f2382846136a7565b6000611f23828461375d565b6000611f23828461378b565b6040517faabbb8ca0000000000000000000000000000000000000000000000000000000081526001600160a01b03861660048201527f29ddb589b1fb5fc7cf394961c1adf5f8c6454761adf795e67fe149f658abe8956024820152600090731820a4b7618bde71dce8cdc73aab6c95905fad249063aabbb8ca9060440160206040518083038186803b15801561246d57600080fd5b505afa158015612481573d6000803e3d6000fd5b505050506040513d601f19601f820116820180604052508101906124a591906134ba565b90506001600160a01b03811615612538576040517f75ab97820000000000000000000000000000000000000000000000000000000081526001600160a01b038216906375ab978290612505908a908a908a908a908a908a906004016137e3565b600060405180830381600087803b15801561251f57600080fd5b505af1158015612533573d6000803e3d6000fd5b505050505b50505050505050565b6001600160a01b038516600090815260336020526040902054838110156125d05760405162461bcd60e51b815260206004820152602760248201527f4552433737373a207472616e7366657220616d6f756e7420657863656564732060448201527f62616c616e63650000000000000000000000000000000000000000000000000060648201526084016108f4565b6001600160a01b0380871660009081526033602052604080822087850390559187168152908120805486929061260790849061383c565b92505081905550846001600160a01b0316866001600160a01b0316886001600160a01b03167f06b541ddaa720db2b10a4d0cdac39b8d360425fc073085fac19bc8261467798787878760405161265f93929190613854565b60405180910390a4846001600160a01b0316866001600160a01b03167fddf252ad1be2c89b69c2b068fc378daa952ba7f163c4a11628f55a4df523b3ef866040516126ac91815260200190565b60405180910390a350505050505050565b6040517faabbb8ca0000000000000000000000000000000000000000000000000000000081526001600160a01b03861660048201527fb281fc8c12954d22544db45de3159a39272895b169a852b314f9cc762e44c53b6024820152600090731820a4b7618bde71dce8cdc73aab6c95905fad249063aabbb8ca9060440160206040518083038186803b15801561275257600080fd5b505afa158015612766573d6000803e3d6000fd5b505050506040513d601f19601f8201168201806040525081019061278a91906134ba565b90506001600160a01b0381161561281f576040517e23de290000000000000000000000000000000000000000000000000000000081526001600160a01b038216906223de29906127e8908b908b908b908b908b908b906004016137e3565b600060405180830381600087803b15801561280257600080fd5b505af1158015612816573d6000803e3d6000fd5b505050506128c9565b81156128c9576001600160a01b0386163b156128c95760405162461bcd60e51b815260206004820152604d60248201527f4552433737373a20746f6b656e20726563697069656e7420636f6e747261637460448201527f20686173206e6f20696d706c656d656e74657220666f7220455243373737546f60648201527f6b656e73526563697069656e7400000000000000000000000000000000000000608482015260a4016108f4565b5050505050505050565b6000611f23828461387f565b6000611f23828461383c565b6000611f23828461389e565b6001600160a01b0386166129735760405162461bcd60e51b815260206004820152602260248201527f4552433737373a2073656e642066726f6d20746865207a65726f20616464726560448201527f737300000000000000000000000000000000000000000000000000000000000060648201526084016108f4565b6001600160a01b0385166129c95760405162461bcd60e51b815260206004820181905260248201527f4552433737373a2073656e6420746f20746865207a65726f206164647265737360448201526064016108f4565b336129d88188888888886123d8565b6129e6818888888888612541565b612538818888888888886126bd565b6000611f238284613450565b606854612a3257610d4082826040518060200160405280600081525060405180602001604052806000815250612c63565b6000612a4d606854610f32612a4660345490565b85906128d3565b9050610f8583826040518060200160405280600081525060405180602001604052806000815250612c63565b6001600160a01b038416612af55760405162461bcd60e51b815260206004820152602260248201527f4552433737373a206275726e2066726f6d20746865207a65726f20616464726560448201527f737300000000000000000000000000000000000000000000000000000000000060648201526084016108f4565b33612b05818660008787876123d8565b6001600160a01b03851660009081526033602052604090205484811015612b945760405162461bcd60e51b815260206004820152602360248201527f4552433737373a206275726e20616d6f756e7420657863656564732062616c6160448201527f6e6365000000000000000000000000000000000000000000000000000000000060648201526084016108f4565b6001600160a01b0386166000908152603360205260408120868303905560348054879290612bc3908490613450565b92505081905550856001600160a01b0316826001600160a01b03167fa78a9be3a7b862d26933ad85fb11d80ef66b8f972d7cbba06621d583943a4098878787604051612c1193929190613854565b60405180910390a36040518581526000906001600160a01b038816907fddf252ad1be2c89b69c2b068fc378daa952ba7f163c4a11628f55a4df523b3ef906020015b60405180910390a3505050505050565b61206e8484848460016001600160a01b038516612cc25760405162461bcd60e51b815260206004820181905260248201527f4552433737373a206d696e7420746f20746865207a65726f206164647265737360448201526064016108f4565b60003390508460346000828254612cd9919061383c565b90915550506001600160a01b03861660009081526033602052604081208054879290612d0690849061383c565b90915550612d1c905081600088888888886126bd565b856001600160a01b0316816001600160a01b03167f2fe5be0146f74c5bce36c0b80911af6c7d86ff27e89d5cfa61fc681327954e5d878787604051612d6393929190613854565b60405180910390a36040518581526001600160a01b038716906000907fddf252ad1be2c89b69c2b068fc378daa952ba7f163c4a11628f55a4df523b3ef90602001612c53565b828054828255906000526020600020908101928215612e16579160200282015b82811115612e1657825182547fffffffffffffffffffffffff0000000000000000000000000000000000000000166001600160a01b03909116178255602090920191600190910190612dc9565b50612e22929150612e26565b5090565b5b80821115612e225760008155600101612e27565b6020808252825182820181905260009190848201906040850190845b81811015612e7c5783516001600160a01b031683529284019291840191600101612e57565b50909695505050505050565b60005b83811015612ea3578181015183820152602001612e8b565b8381111561206e5750506000910152565b60008151808452612ecc816020860160208601612e88565b601f01601f19169290920160200192915050565b602081526000611f236020830184612eb4565b6001600160a01b0381168114612f0857600080fd5b50565b60008060408385031215612f1e57600080fd5b8235612f2981612ef3565b946020939093013593505050565b600060208284031215612f4957600080fd5b5035919050565b6020808252825182820181905260009190848201906040850190845b81811015612e7c578351151583529284019291840191600101612f6c565b634e487b7160e01b600052604160045260246000fd5b604051601f8201601f1916810167ffffffffffffffff81118282101715612fc957612fc9612f8a565b604052919050565b600067ffffffffffffffff821115612feb57612feb612f8a565b50601f01601f191660200190565b600082601f83011261300a57600080fd5b813561301d61301882612fd1565b612fa0565b81815284602083860101111561303257600080fd5b816020850160208301376000918101602001919091529392505050565b6000806000806080858703121561306557600080fd5b843561307081612ef3565b9350602085013561308081612ef3565b925060408501359150606085013567ffffffffffffffff8111156130a357600080fd5b6130af87828801612ff9565b91505092959194509250565b6000806000606084860312156130d057600080fd5b83356130db81612ef3565b925060208401356130eb81612ef3565b929592945050506040919091013590565b600080600080600060a0868803121561311457600080fd5b853561311f81612ef3565b9450602086013561312f81612ef3565b935060408601359250606086013567ffffffffffffffff8082111561315357600080fd5b61315f89838a01612ff9565b9350608088013591508082111561317557600080fd5b5061318288828901612ff9565b9150509295509295909350565b6000602082840312156131a157600080fd5b8135611f2381612ef3565b600067ffffffffffffffff8211156131c6576131c6612f8a565b5060051b60200190565b600060208083850312156131e357600080fd5b823567ffffffffffffffff8111156131fa57600080fd5b8301601f8101851361320b57600080fd5b8035613219613018826131ac565b81815260059190911b8201830190838101908783111561323857600080fd5b928401925b8284101561325f57833561325081612ef3565b8252928401929084019061323d565b979650505050505050565b60008060006060848603121561327f57600080fd5b833561328a81612ef3565b925060208401359150604084013567ffffffffffffffff8111156132ad57600080fd5b6132b986828701612ff9565b9150509250925092565b6000806000606084860312156132d857600080fd5b505081359360208301359350604090920135919050565b6000806040838503121561330257600080fd5b50508035926020909101359150565b6000806040838503121561332457600080fd5b823561332f81612ef3565b9150602083013561333f81612ef3565b809150509250929050565b6000806000806080858703121561336057600080fd5b843561336b81612ef3565b935060208501359250604085013567ffffffffffffffff8082111561338f57600080fd5b61339b88838901612ff9565b935060608701359150808211156133b157600080fd5b506130af87828801612ff9565b600080604083850312156133d157600080fd5b82359150602083013567ffffffffffffffff8111156133ef57600080fd5b6133fb85828601612ff9565b9150509250929050565b600181811c9082168061341957607f821691505b6020821081141561087557634e487b7160e01b600052602260045260246000fd5b634e487b7160e01b600052601160045260246000fd5b6000828210156134625761346261343a565b500390565b634e487b7160e01b600052603260045260246000fd5b60006000198214156134915761349161343a565b5060010190565b6000602082840312156134aa57600080fd5b81518015158114611f2357600080fd5b6000602082840312156134cc57600080fd5b8151611f2381612ef3565b6000602082840312156134e957600080fd5b5051919050565b600082601f83011261350157600080fd5b815161350f61301882612fd1565b81815284602083860101111561352457600080fd5b613535826020830160208701612e88565b949350505050565b600080600080600080600060e0888a03121561355857600080fd5b875161356381612ef3565b809750506020808901519650604089015167ffffffffffffffff8082111561358a57600080fd5b818b0191508b601f83011261359e57600080fd5b81516135ac613018826131ac565b81815260059190911b8301840190848101908e8311156135cb57600080fd5b938501935b828510156135e9578451825293850193908501906135d0565b60608e015160808f0151919b509950945050508083111561360957600080fd5b6136158c848d016134f0565b955060a08b0151945060c08b015192508083111561363257600080fd5b50506136408a828b016134f0565b91505092959891949750929550565b6000808212827f7fffffffffffffffffffffffffffffffffffffffffffffffffffffffffffffff038413811516156136895761368961343a565b82600160ff1b0384128116156136a1576136a161343a565b50500190565b60007f7fffffffffffffffffffffffffffffffffffffffffffffffffffffffffffffff6000841360008413858304851182821616156136e8576136e861343a565b600160ff1b60008712868205881281841616156137075761370761343a565b600087129250878205871284841616156137235761372361343a565b878505871281841616156137395761373961343a565b505050929093029392505050565b634e487b7160e01b600052601260045260246000fd5b60008261376c5761376c613747565b6000198314600160ff1b831416156137865761378661343a565b500590565b600080831283600160ff1b018312811516156137a9576137a961343a565b837f7fffffffffffffffffffffffffffffffffffffffffffffffffffffffffffffff0183138116156137dd576137dd61343a565b50500390565b60006001600160a01b038089168352808816602084015280871660408401525084606083015260c0608083015261381d60c0830185612eb4565b82810360a084015261382f8185612eb4565b9998505050505050505050565b6000821982111561384f5761384f61343a565b500190565b83815260606020820152600061386d6060830185612eb4565b82810360408401526107858185612eb4565b60008160001904831182151516156138995761389961343a565b500290565b6000826138ad576138ad613747565b50049056fea26469706673582212200f009cb7e5284d2bf369a2f0c03e452f261deca78f94d4c22212a9bfb49229ce64736f6c63430008090033",
  "immutableReferences": {},
  "source": "// contracts/Pool0.sol\n// SPDX-License-Identifier: MIT\npragma solidity ^0.8.4;\n\nimport \"../@openzeppelin/contracts-upgradeable/proxy/utils/Initializable.sol\";\nimport \"../@openzeppelin/contracts-upgradeable/token/ERC777/ERC777Upgradeable.sol\";\nimport '../@openzeppelin/contracts-upgradeable/token/ERC20/IERC20Upgradeable.sol';\nimport './../PropTokens/PropToken0.sol';\nimport './../LTVGuidelines.sol';\nimport \"../@openzeppelin/contracts-upgradeable/token/ERC721/IERC721ReceiverUpgradeable.sol\";\nimport '../@openzeppelin/contracts/utils/math/SafeMath.sol';\nimport '../@openzeppelin/contracts/utils/math/SignedSafeMath.sol';\n\ncontract Pool3 is Initializable, ERC777Upgradeable, IERC721ReceiverUpgradeable {\n    using SignedSafeMath for int256;\n    using SafeMath for uint256;\n\n    struct Loan{\n        uint256 loanId;\n        address borrower;\n        uint256 interestRate;\n        uint256 principal;\n        uint256 interestAccrued;\n        uint256 timeLastPayment;\n    }\n\n    address servicer;\n    address ERCAddress;\n    address[] servicerAddresses;\n    /* Adding a variable above this line (not reflected in Pool0) will cause contract storage conflicts */\n\n    uint256 poolLent;\n    uint256 poolBorrowed;\n    mapping(address => uint256[]) userLoans;\n    Loan[] loans;\n    uint256 loanCount;\n\n    uint constant servicerFeePercentage = 1000000;\n    uint constant baseInterestPercentage = 1000000;\n    uint constant curveK = 120000000;\n\n    /* Pool1 variables introduced here */\n    string private _name;\n    string private _symbol;\n    mapping(uint256 => uint256) loanToPropToken;\n    address propTokenContractAddress;\n\n    /* Pool2 variables introduced here */\n    address LTVOracleAddress;\n\n\n    /*****************************************************\n    *       POOL STRUCTURE / UPGRADABILITY FUNCTIONS\n    ******************************************************/\n\n    function initializePoolTwo(address _LTVOracleAddress) public {\n        require(msg.sender == servicer);\n        LTVOracleAddress = _LTVOracleAddress;\n    }\n\n    function name() public view override returns (string memory) {\n        return _name;\n    }\n\n    function symbol() public view override returns(string memory) {\n        return _symbol;\n    }\n\n    function decimals() public pure override returns(uint8) {\n        return 6;\n    }\n    \n    /** \n    *   @dev Function setApprovedAddresses() updates the array of addresses approved by the servicer\n    *   @param _servicerAddresses The array of addresses to be set as approved for borrowing\n    */\n    function setApprovedAddresses(address[] memory _servicerAddresses) public {\n        require(msg.sender == servicer);\n\n        servicerAddresses = _servicerAddresses;\n    }\n\n    /** \n    *   @dev Function setApprovedAddresses() is an internal function that checks the array of approved addresses for the given address\n    *   @param _address The address to be checked if it is approved\n    *   @return isApproved is if the _addess is found in the list of servicerAddresses\n    */\n    function isApprovedServicer(address _address) internal view returns (bool) {\n        bool isApproved = false;\n        \n        for (uint i = 0; i < servicerAddresses.length; i++) {\n            if(_address == servicerAddresses[i]) {\n                isApproved = true;\n            }\n        }\n\n        return isApproved;\n    }\n\n    /*****************************************************\n    *                GETTER FUNCTIONS\n    ******************************************************/\n    /**\n    *   @dev Function getContractData() returns a lot of variables about the contract\n    */\n    function getContractData() public view returns (address, address, uint256, uint256, uint256, uint256) {\n        return (servicer, ERCAddress, poolLent, getPoolValueWithInterest(), poolBorrowed, loanCount);\n    }\n\n    /**  \n    *   @dev Function getPoolValueWithInterest() returns the contract address of ERC20 this pool accepts (ususally USDC)\n    */\n    function getPoolValueWithInterest() public view returns (uint256) {\n        uint256 totalWithInterest = poolLent;\n\n        for (uint i=0; i<loans.length; i++) {\n            totalWithInterest = totalWithInterest.add(getLoanAccruedInterest(i));\n        }\n\n        return totalWithInterest;\n    }\n\n    /**  \n    *   @dev Function getSupplyableTokenAddress() returns the contract address of ERC20 this pool accepts (ususally USDC)\n    */\n    function getSupplyableTokenAddress() public view returns (address) {\n        return ERCAddress;\n    }\n\n    /**  \n    *   @dev Function getServicerAddress() returns the address of this pool's servicer\n    */\n    function getServicerAddress() public view returns (address) {\n        return servicer;\n    }\n\n    /**  \n    *   @dev Function getActiveLoans() returns an array of the loans currently out by users\n    *   @return array of bools, where the index i is the loan ID and the value bool is active or not\n    */\n    function getActiveLoans() public view returns (bool[] memory) {\n        bool[] memory loanActive = new bool[](loans.length);\n\n        for (uint i = 0; i < loans.length; i++) {\n            if(loans[i].principal != 0) {\n                loanActive[i] = true;\n            } else {\n                loanActive[i] = false;\n            }\n        }\n\n        return loanActive;\n    }\n\n    /**  \n    *   @dev Function getLoanAccruedInterest() calculates and returns the amount of interest accrued on a given loan\n    *   @param loanId is the id for the loan we're looking up\n    */\n    function getLoanAccruedInterest(uint256 loanId) public view returns (uint256) {\n        Loan memory loan = loans[loanId];\n        uint256 secondsSincePayment = block.timestamp.sub(loan.timeLastPayment);\n\n        uint256 interestPerSecond = loan.principal.mul(loan.interestRate).div(31622400);\n        uint256 interestAccrued = interestPerSecond.mul(secondsSincePayment).div(100000000);\n        return interestAccrued.add(loan.interestAccrued);\n    }    \n\n    /**  \n    *   @dev Function getLoanDetails() returns an all the raw details about a loan\n    *   @param loanId is the id for the loan we're looking up\n    *   EDITED in pool1 to also return PropToken ID\n    */\n    function getLoanDetails(uint256 loanId) public view returns (uint256, address, uint256, uint256, uint256, uint256, uint256) {\n        Loan memory loan = loans[loanId];\n        //temp interestAccrued calculation because this is a read function\n        uint256 interestAccrued = getLoanAccruedInterest(loanId);\n        uint256 propTokenID = loanToPropToken[loanId];\n        return (loan.loanId, loan.borrower, loan.interestRate, loan.principal, interestAccrued, loan.timeLastPayment, propTokenID);\n    }\n\n    /**  \n    *   @dev Function getAverageInterest() returns an average interest for the pool\n    */\n    function getAverageInterest() public view returns (uint256) {\n        uint256 sumOfRates = 0;\n        uint256 borrowedCounter = 0;\n\n       for (uint i = 0; i < loans.length; i++) {\n           if(loans[i].principal != 0){\n               sumOfRates = sumOfRates.add(loans[i].interestRate.mul(loans[i].principal));\n               borrowedCounter = borrowedCounter.add(loans[i].principal);\n           }\n       }\n\n       return sumOfRates.div(borrowedCounter);\n    }\n\n    /*****************************************************\n    *                LENDING/BORROWING FUNCTIONS\n    ******************************************************/\n\n    /**  \n    *   @dev Function mintProportionalPoolTokens calculates how many new hc_pool tokens to mint when value is added to the pool based on proportional value\n    *   @param recepient The address of the wallet receiving the newly minted hc_pool tokens\n    *   @param amount The amount to be minted\n    */\n    function mintProportionalPoolTokens(address recepient, uint256 amount) private {\n        //check if this is first deposit\n        if (poolLent == 0) {\n            super._mint(recepient, amount, \"\", \"\");\n        } else {\n            //Calculate proportional to total value (including interest)\n            uint256 new_hc_pool = amount.mul(super.totalSupply()).div(poolLent);\n            super._mint(recepient, new_hc_pool, \"\", \"\");\n        }\n    }\n\n    /**  \n    *   @dev Function lend moves assets on the (probably usdc) contract to our own balance\n    *   - Before calling: an approve(address _spender (proxy), uint256 _value (0xffff)) function call must be made on remote contract\n    *   @param amount The amount to be transferred\n    */\n    function lend(\n        uint256 amount\n    ) public {\n        //USDC on Ropsten only right now\n        IERC20Upgradeable(ERCAddress).transferFrom(msg.sender, address(this), amount);\n        mintProportionalPoolTokens(msg.sender, amount);\n        poolLent = poolLent.add(amount);\n    }\n\n    /**  \n    *   @dev Function redeem burns the sender's hcPool tokens and transfers the usdc back to them\n    *   @param amount The amount of hc_pool to be redeemed\n    */\n    function redeem(\n        uint256 amount\n    ) public {\n        //check to see if sender has enough hc_pool to redeem\n        require(balanceOf(msg.sender) >= amount);\n\n        //check to make sure there is liquidity available in the pool to withdraw\n        uint256 tokenPrice = poolLent.mul(1000000).div(super.totalSupply());\n        uint256 erc20ValueOfTokens = amount.mul(tokenPrice).div(1000000);\n        require(erc20ValueOfTokens <= (poolLent - poolBorrowed));\n\n        //burn hcPool first\n        super._burn(msg.sender, amount, \"\", \"\");\n        poolLent = poolLent.sub(erc20ValueOfTokens);\n        IERC20Upgradeable(ERCAddress).transfer(msg.sender, erc20ValueOfTokens);\n    }\n\n    /**  \n    *   @dev Function getInterestRate calculates the new interest rate if a loan was to be taken out in this block\n    *   @param amount The size of the potential loan in (probably usdc).\n    *   @return interestRate The interest rate in APR for the loan\n    */\n    function getInterestRate(uint256 amount) public view returns (int256) {\n        //I = (( U - k ) / (U - 100)) - 0.01k + Base + ServicerFee\n        //all ints multiplied by 1000000 to represent the 6 decimal points available\n        \n        //first check available allocation\n        require(amount < (poolLent - poolBorrowed));\n\n        //get new proposed utilization amount\n        int256 newUtilizationRatio = int256(poolBorrowed).add(int256(amount)).mul(100000000).div(int256(poolLent));\n\n        //calculate interest\n        //subtract k from U\n        int256 numerator = newUtilizationRatio.sub(int256(curveK));  \n        //subtract 100 from U\n        int256 denominator = newUtilizationRatio.sub(100000000);\n        //divide numerator by denominator and multiply percentage by 10^6 to account for decimal places\n        int256 interest = numerator.mul(1000000).div(denominator);\n        //add base and fees to interest\n        interest = interest.sub(int256(curveK).div(100)).add(int256(servicerFeePercentage)).add(int256(baseInterestPercentage)); \n        \n        return interest;\n    }\n\n    /**  \n    *   @dev Function borrow creates a new Loan, moves the USDC to Borrower, and returns the loan ID and fixed Interest Rate\n    *   - Also creates an origination fee for the Servicer in HC_Pool\n    *   @param amount The size of the potential loan in (probably usdc).\n    *   @param maxRate The size of the potential loan in (probably usdc).\n    *   EDITED in pool1 to also require a PropToken\n    *   EDITED in pool1 - borrower param was removed and msg.sender is new recepient of USDC\n    *   EDITED in pool2 - propToken data is oulled and LTV of loan is required before loan can process\n    */\n    function borrow(uint256 amount, uint256 maxRate, uint256 propTokenId) public {\n        //for v2 require this address is approved to transfer propToken \n        require(PropToken0(propTokenContractAddress).getApproved(propTokenId) == address(this), \"pool not approved to move egg\");\n        //also require msg.sender is owner of token\n        require(PropToken0(propTokenContractAddress).ownerOf(propTokenId) == msg.sender, \"msg.sender not egg owner\");\n\n        //check the requested interest rate is still available\n        uint256 fixedInterestRate = uint256(getInterestRate(amount));\n        require(fixedInterestRate <= maxRate, \"interest rate no longer avail\");\n\n        //require the propToken approved has a lien value less than or equal to the requested loan size\n        uint256 lienAmount = PropToken0(propTokenContractAddress).getLienValue(propTokenId);\n        require(lienAmount >= amount, \"loan larger that egg value\");\n\n        //require that LTV of propToken is less than LTV required by oracle\n        uint256 LTVRequirement = LTVGuidelines(LTVOracleAddress).getMaxLTV();\n        (, , uint256[] memory SeniorLiens, uint256 HomeValue, , ,) = PropToken0(propTokenContractAddress).getPropTokenData(propTokenId);\n        for (uint i = 0; i < SeniorLiens.length; i++) {  \n            lienAmount = lienAmount.add(SeniorLiens[i]);\n        }\n        require(lienAmount.mul(100).div(HomeValue) < LTVRequirement, \"LTV too high\");\n\n\n        //first take the propToken\n        PropToken0(propTokenContractAddress).safeTransferFrom(msg.sender, address(this), propTokenId);\n\n        //create new Loan\n        Loan memory newLoan = Loan(loanCount, msg.sender, fixedInterestRate, amount, 0, block.timestamp);\n        loans.push(newLoan);\n        userLoans[msg.sender].push(loanCount);\n\n        //map new loanID to Token ID\n        loanToPropToken[loanCount] = propTokenId;\n\n        //update system variables\n        loanCount = loanCount.add(1);\n        poolBorrowed = poolBorrowed.add(amount);\n\n        //finally move the USDC\n        IERC20Upgradeable(ERCAddress).transfer(msg.sender, amount);\n\n        //then mint HC_Pool for the servicer (fixed 1% origination is better than standard 2.5%)\n        mintProportionalPoolTokens(servicer, amount.div(100));\n    }\n    \n    /**  \n    *   @dev Function repay repays a specific loan\n    *   - payment is first deducted from the interest then principal. \n    *   - the servicer_fee is deducted from the interest repayment and servicer is compensated in hc_pool\n    *   - repayer must have first approved fromsfers on behalf \n    *   @param loanId The loan to be repayed\n    *   @param amount The amount of the ERC20 token to repay the loan with\n    *   EDITED - Pool1 returns propToken when principal reaches 0\n    */\n\n    function repay(uint256 loanId, uint256 amount) public {        \n        //interestAmountRepayed keeps track of how much of the loan was returned to the pool to calculate servicer fee(treated as cash investment)\n        uint256 interestAmountRepayed = amount;\n\n        uint256 currentInterest = getLoanAccruedInterest(loanId);\n        if(currentInterest > amount) {\n            //if the payment is less than the interest accrued on the loan, just deduct amount from interest\n            //deduct amount FIRST (to make sure they have available balance), then reduce loan amount\n            IERC20Upgradeable(ERCAddress).transferFrom(msg.sender, address(this), amount);\n            loans[loanId].interestAccrued = currentInterest.sub(amount);\n        } else {\n            //if the amount borrow is repaying is greater than interest accrued, deduct the rest from principal\n            interestAmountRepayed = currentInterest;\n            uint256 amountAfterInterest = amount.sub(currentInterest);\n            \n            if(loans[loanId].principal > amountAfterInterest) {\n                //deduct amount from Borrower and reduce the principal\n                IERC20Upgradeable(ERCAddress).transferFrom(msg.sender, address(this), amount);\n                //return the repayed principal to the 'borrowable' amount\n                poolBorrowed = poolBorrowed.sub(amountAfterInterest);\n                loans[loanId].principal = loans[loanId].principal.sub(amountAfterInterest);\n            } else {\n                //deduct totalLoanValue\n                uint256 totalLoanValue = loans[loanId].principal.add(currentInterest);\n                IERC20Upgradeable(ERCAddress).transferFrom(msg.sender, address(this), totalLoanValue);\n                //return the repayed principal to the 'borrowable' amount\n                poolBorrowed = poolBorrowed.sub(loans[loanId].principal);\n                loans[loanId].principal = 0;\n                //Send PropToken back to borrower\n                PropToken0(propTokenContractAddress).safeTransferFrom(address(this), loans[loanId].borrower, loanToPropToken[loanId]);\n            }\n\n            //set interest accrued to 0 AFTER successful erc20 transfer\n            loans[loanId].interestAccrued = 0;\n        }\n\n        //last payment timestamp is only updated AFTER  successful erc20 transfer\n        loans[loanId].timeLastPayment = block.timestamp;\n\n        //treat repayed interest as new money Lent into the pool\n        poolLent = poolLent.add(interestAmountRepayed);\n\n        //servicer fee is treated as cash investment in the pool as the percentage interest\n        //calculate how much of payment goes to servicer here\n        uint256 servicerFeeInERC = servicerFeePercentage.mul(interestAmountRepayed).div(loans[loanId].interestRate);\n        mintProportionalPoolTokens(servicer, servicerFeeInERC);\n    }\n\n\n    /**  \n    *   @dev Function getVersion returns current upgraded version\n    */\n    function getVersion() public pure returns (uint) {\n        return 2;\n    }\n\n    function onERC721Received(address, address, uint256, bytes memory ) public pure override returns (bytes4) {\n        return this.onERC721Received.selector;\n    }\n}",
  "sourcePath": "/Users/patrick/github/HomeDAO/contracts/PoolCore/Pool3.sol",
  "compiler": {
    "name": "solc",
    "version": "0.8.9+commit.e5eed63a.Emscripten.clang"
  },
  "schemaVersion": "3.4.8",
  "updatedAt": "2022-08-10T01:41:50.023Z",
  "devdoc": {
    "kind": "dev",
    "methods": {
      "allowance(address,address)": {
        "details": "See {IERC20-allowance}. Note that operator and allowance concepts are orthogonal: operators may not have allowance, and accounts with allowance may not be operators themselves."
      },
      "approve(address,uint256)": {
        "details": "See {IERC20-approve}. Note that accounts cannot have allowance issued by their operators."
      },
      "authorizeOperator(address)": {
        "details": "See {IERC777-authorizeOperator}."
      },
      "balanceOf(address)": {
        "details": "Returns the amount of tokens owned by an account (`tokenHolder`)."
      },
      "borrow(uint256,uint256,uint256)": {
        "details": "Function borrow creates a new Loan, moves the USDC to Borrower, and returns the loan ID and fixed Interest Rate   - Also creates an origination fee for the Servicer in HC_Pool",
        "params": {
          "amount": "The size of the potential loan in (probably usdc).",
          "maxRate": "The size of the potential loan in (probably usdc).   EDITED in pool1 to also require a PropToken   EDITED in pool1 - borrower param was removed and msg.sender is new recepient of USDC   EDITED in pool2 - propToken data is oulled and LTV of loan is required before loan can process"
        }
      },
      "burn(uint256,bytes)": {
        "details": "See {IERC777-burn}. Also emits a {IERC20-Transfer} event for ERC20 compatibility."
      },
      "decimals()": {
        "details": "See {ERC20-decimals}. Always returns 18, as per the [ERC777 EIP](https://eips.ethereum.org/EIPS/eip-777#backward-compatibility)."
      },
      "defaultOperators()": {
        "details": "See {IERC777-defaultOperators}."
      },
      "getActiveLoans()": {
        "details": "Function getActiveLoans() returns an array of the loans currently out by users",
        "returns": {
          "_0": "array of bools, where the index i is the loan ID and the value bool is active or not"
        }
      },
      "getAverageInterest()": {
        "details": "Function getAverageInterest() returns an average interest for the pool"
      },
      "getContractData()": {
        "details": "Function getContractData() returns a lot of variables about the contract"
      },
      "getInterestRate(uint256)": {
        "details": "Function getInterestRate calculates the new interest rate if a loan was to be taken out in this block",
        "params": {
          "amount": "The size of the potential loan in (probably usdc)."
        },
        "returns": {
          "_0": "interestRate The interest rate in APR for the loan"
        }
      },
      "getLoanAccruedInterest(uint256)": {
        "details": "Function getLoanAccruedInterest() calculates and returns the amount of interest accrued on a given loan",
        "params": {
          "loanId": "is the id for the loan we're looking up"
        }
      },
      "getLoanDetails(uint256)": {
        "details": "Function getLoanDetails() returns an all the raw details about a loan",
        "params": {
          "loanId": "is the id for the loan we're looking up   EDITED in pool1 to also return PropToken ID"
        }
      },
      "getPoolValueWithInterest()": {
        "details": "Function getPoolValueWithInterest() returns the contract address of ERC20 this pool accepts (ususally USDC)"
      },
      "getServicerAddress()": {
        "details": "Function getServicerAddress() returns the address of this pool's servicer"
      },
      "getSupplyableTokenAddress()": {
        "details": "Function getSupplyableTokenAddress() returns the contract address of ERC20 this pool accepts (ususally USDC)"
      },
      "getVersion()": {
        "details": "Function getVersion returns current upgraded version"
      },
      "granularity()": {
        "details": "See {IERC777-granularity}. This implementation always returns `1`."
      },
      "isOperatorFor(address,address)": {
        "details": "See {IERC777-isOperatorFor}."
      },
      "lend(uint256)": {
        "details": "Function lend moves assets on the (probably usdc) contract to our own balance   - Before calling: an approve(address _spender (proxy), uint256 _value (0xffff)) function call must be made on remote contract",
        "params": {
          "amount": "The amount to be transferred"
        }
      },
      "name()": {
        "details": "See {IERC777-name}."
      },
      "operatorBurn(address,uint256,bytes,bytes)": {
        "details": "See {IERC777-operatorBurn}. Emits {Burned} and {IERC20-Transfer} events."
      },
      "operatorSend(address,address,uint256,bytes,bytes)": {
        "details": "See {IERC777-operatorSend}. Emits {Sent} and {IERC20-Transfer} events."
      },
      "redeem(uint256)": {
        "details": "Function redeem burns the sender's hcPool tokens and transfers the usdc back to them",
        "params": {
          "amount": "The amount of hc_pool to be redeemed"
        }
      },
      "repay(uint256,uint256)": {
        "details": "Function repay repays a specific loan   - payment is first deducted from the interest then principal.    - the servicer_fee is deducted from the interest repayment and servicer is compensated in hc_pool   - repayer must have first approved fromsfers on behalf ",
        "params": {
          "amount": "The amount of the ERC20 token to repay the loan with   EDITED - Pool1 returns propToken when principal reaches 0",
          "loanId": "The loan to be repayed"
        }
      },
      "revokeOperator(address)": {
        "details": "See {IERC777-revokeOperator}."
      },
      "send(address,uint256,bytes)": {
        "details": "See {IERC777-send}. Also emits a {IERC20-Transfer} event for ERC20 compatibility."
      },
      "setApprovedAddresses(address[])": {
        "details": "Function setApprovedAddresses() updates the array of addresses approved by the servicer",
        "params": {
          "_servicerAddresses": "The array of addresses to be set as approved for borrowing"
        }
      },
      "symbol()": {
        "details": "See {IERC777-symbol}."
      },
      "totalSupply()": {
        "details": "See {IERC777-totalSupply}."
      },
      "transfer(address,uint256)": {
        "details": "See {IERC20-transfer}. Unlike `send`, `recipient` is _not_ required to implement the {IERC777Recipient} interface if it is a contract. Also emits a {Sent} event."
      },
      "transferFrom(address,address,uint256)": {
        "details": "See {IERC20-transferFrom}. Note that operator and allowance concepts are orthogonal: operators cannot call `transferFrom` (unless they have allowance), and accounts with allowance cannot call `operatorSend` (unless they are operators). Emits {Sent}, {IERC20-Transfer} and {IERC20-Approval} events."
      }
    },
    "version": 1
  },
  "userdoc": {
    "kind": "user",
    "methods": {},
    "version": 1
  }
}