{
  "contractName": "PoolUtils1",
  "abi": [
    {
      "inputs": [],
      "name": "getAverageInterest",
      "outputs": [
        {
          "internalType": "uint256",
          "name": "",
          "type": "uint256"
        }
      ],
      "stateMutability": "view",
      "type": "function"
    },
    {
      "inputs": [],
      "name": "getActiveLoans",
      "outputs": [
        {
          "internalType": "bool[]",
          "name": "",
          "type": "bool[]"
        }
      ],
      "stateMutability": "view",
      "type": "function"
    },
    {
      "inputs": [],
      "name": "getPoolInterestAccrued",
      "outputs": [
        {
          "internalType": "uint256",
          "name": "",
          "type": "uint256"
        }
      ],
      "stateMutability": "view",
      "type": "function"
    },
    {
      "inputs": [
        {
          "internalType": "uint256",
          "name": "amount",
          "type": "uint256"
        }
      ],
      "name": "getInterestRate",
      "outputs": [
        {
          "internalType": "int256",
          "name": "",
          "type": "int256"
        }
      ],
      "stateMutability": "view",
      "type": "function"
    },
    {
      "inputs": [],
      "name": "getVersion",
      "outputs": [
        {
          "internalType": "uint256",
          "name": "",
          "type": "uint256"
        }
      ],
      "stateMutability": "pure",
      "type": "function"
    }
  ],
  "bytecode": "0x608060405234801561001057600080fd5b50610b25806100206000396000f3fe608060405234801561001057600080fd5b50600436106100675760003560e01c8063121ed2a711610050578063121ed2a71461009957806339755466146100ae5780637eb0d8b1146100b657600080fd5b80630c196a741461006c5780630d8e6e2c14610092575b600080fd5b61007f61007a366004610755565b6100be565b6040519081526020015b60405180910390f35b600161007f565b6100a1610203565b604051610089919061076e565b61007f6103fd565b61007f61059a565b6000806000905060008060029054906101000a90046001600160a01b03166001600160a01b031663a68b91ab6040518163ffffffff1660e01b815260040160c06040518083038186803b15801561011457600080fd5b505afa158015610128573d6000803e3d6000fd5b505050506040513d601f19601f8201168201806040525081019061014c91906107d0565b509550909350610162925084915083905061083e565b841061016d57600080fd5b60006101918261018b6305f5e100610185878a6106fa565b9061070d565b90610719565b905060006101a38263060f0e50610725565b905060006101b5836305f5e100610725565b905060006101ca8261018b85620f424061070d565b90506101f7621c9c386101f1620f4240816101ea63060f0e506064610719565b8690610725565b906106fa565b98975050505050505050565b6060600080600060029054906101000a90046001600160a01b03166001600160a01b031663a68b91ab6040518163ffffffff1660e01b815260040160c06040518083038186803b15801561025657600080fd5b505afa15801561026a573d6000803e3d6000fd5b505050506040513d601f19601f8201168201806040525081019061028e91906107d0565b955060009450859350505067ffffffffffffffff82111590506102b3576102b3610855565b6040519080825280602002602001820160405280156102dc578160200160208202803683370190505b50905060005b828110156103f5576000546040517f66877b8d00000000000000000000000000000000000000000000000000000000815260048101839052620100009091046001600160a01b0316906366877b8d9060240160e06040518083038186803b15801561034c57600080fd5b505afa158015610360573d6000803e3d6000fd5b505050506040513d601f19601f82011682018060405250810190610384919061086b565b5091985050871593506103be925050505760018282815181106103a9576103a96108c6565b911515602092830291909101909101526103e3565b60008282815181106103d2576103d26108c6565b911515602092830291909101909101525b806103ed816108dc565b9150506102e2565b509392505050565b60008060009050600080600080600060029054906101000a90046001600160a01b03166001600160a01b031663a68b91ab6040518163ffffffff1660e01b815260040160c06040518083038186803b15801561045857600080fd5b505afa15801561046c573d6000803e3d6000fd5b505050506040513d601f19601f8201168201806040525081019061049091906107d0565b955060009450505050505b81811015610585576000546040517f66877b8d00000000000000000000000000000000000000000000000000000000815260048101839052620100009091046001600160a01b0316906366877b8d9060240160e06040518083038186803b15801561050557600080fd5b505afa158015610519573d6000803e3d6000fd5b505050506040513d601f19601f8201168201806040525081019061053d919061086b565b5092985090965050851592506105739150505761056461055d8585610731565b879061073d565b9550610570858461073d565b94505b8061057d816108dc565b91505061049b565b506105908585610749565b9550505050505090565b6000806000905060008060029054906101000a90046001600160a01b03166001600160a01b031663521968126040518163ffffffff1660e01b815260040160206040518083038186803b1580156105f057600080fd5b505afa158015610604573d6000803e3d6000fd5b505050506040513d601f19601f8201168201806040525081019061062891906108f7565b905060005b818110156106f257600080546040517f9a5872f400000000000000000000000000000000000000000000000000000000815260048101849052620100009091046001600160a01b031690639a5872f49060240160206040518083038186803b15801561069857600080fd5b505afa1580156106ac573d6000803e3d6000fd5b505050506040513d601f19601f820116820180604052508101906106d091906108f7565b90506106dc848261073d565b93505080806106ea906108dc565b91505061062d565b509092915050565b60006107068284610910565b9392505050565b60006107068284610968565b60006107068284610a1e565b60006107068284610a4c565b60006107068284610aa4565b60006107068284610ac3565b60006107068284610adb565b60006020828403121561076757600080fd5b5035919050565b6020808252825182820181905260009190848201906040850190845b818110156107a857835115158352928401929184019160010161078a565b50909695505050505050565b80516001600160a01b03811681146107cb57600080fd5b919050565b60008060008060008060c087890312156107e957600080fd5b6107f2876107b4565b9550610800602088016107b4565b945060408701519350606087015192506080870151915060a087015190509295509295509295565b634e487b7160e01b600052601160045260246000fd5b60008282101561085057610850610828565b500390565b634e487b7160e01b600052604160045260246000fd5b600080600080600080600060e0888a03121561088657600080fd5b87519650610896602089016107b4565b604089015160608a015160808b015160a08c015160c0909c01519a9d939c50919a90999198509650945092505050565b634e487b7160e01b600052603260045260246000fd5b60006000198214156108f0576108f0610828565b5060010190565b60006020828403121561090957600080fd5b5051919050565b6000808212827f7fffffffffffffffffffffffffffffffffffffffffffffffffffffffffffffff0384138115161561094a5761094a610828565b82600160ff1b03841281161561096257610962610828565b50500190565b60007f7fffffffffffffffffffffffffffffffffffffffffffffffffffffffffffffff6000841360008413858304851182821616156109a9576109a9610828565b600160ff1b60008712868205881281841616156109c8576109c8610828565b600087129250878205871284841616156109e4576109e4610828565b878505871281841616156109fa576109fa610828565b505050929093029392505050565b634e487b7160e01b600052601260045260246000fd5b600082610a2d57610a2d610a08565b6000198314600160ff1b83141615610a4757610a47610828565b500590565b600080831283600160ff1b01831281151615610a6a57610a6a610828565b837f7fffffffffffffffffffffffffffffffffffffffffffffffffffffffffffffff018313811615610a9e57610a9e610828565b50500390565b6000816000190483118215151615610abe57610abe610828565b500290565b60008219821115610ad657610ad6610828565b500190565b600082610aea57610aea610a08565b50049056fea26469706673582212201b029acc43fdf1f678f3fc62a4766605c82eb7b4061177aee5c4a3c35844efb664736f6c63430008090033",
  "immutableReferences": {},
  "source": "// contracts/PoolUtils0.sol\n// SPDX-License-Identifier: MIT\npragma solidity ^0.8.4;\n\nimport \"../@openzeppelin/contracts-upgradeable/proxy/utils/Initializable.sol\";\nimport './../PoolCore/Pool4.sol';\nimport '../@openzeppelin/contracts/utils/math/SafeMath.sol';\nimport '../@openzeppelin/contracts/utils/math/SignedSafeMath.sol';\n\n\ncontract PoolUtils1 is Initializable {\n    using SignedSafeMath for int256;\n    using SafeMath for uint256;\n\n    uint constant servicerFeePercentage = 1000000;\n    uint constant baseInterestPercentage = 1875000;\n    uint constant curveK = 101650000;\n\n    address poolCore;\n\n    /********************************************\n    *           Pool Getter Funcs               * \n    ********************************************/\n\n\n\n    /**  \n    *   @dev Function getAverageInterest() returns an average interest for the pool\n    */\n    function getAverageInterest() public view returns (uint256) {\n        uint256 sumOfRates = 0;\n        uint256 borrowedCounter = 0;\n        \n        uint256 interestRate = 0;\n        uint256 principal = 0;\n        uint256 loanCount = 0;\n\n        (, , , , , loanCount) = Pool4(poolCore).getContractData();\n\n        for (uint i = 0; i < loanCount; i++) {\n\n            (, , interestRate, principal, , , ) = Pool4(poolCore).getLoanDetails(i);\n            if(principal != 0){\n                sumOfRates = sumOfRates.add(interestRate.mul(principal));\n                borrowedCounter = borrowedCounter.add(principal);\n            }\n        }\n\n       return sumOfRates.div(borrowedCounter);\n    }\n\n    /**  \n    *   @dev Function getActiveLoans() returns an array of the loans currently out by users\n    *   @return array of bools, where the index i is the loan ID and the value bool is active or not\n    */\n    function getActiveLoans() public view returns (bool[] memory) {\n        uint256 principal = 0;\n        uint256 loanCount = 0;\n\n        (, , , , , loanCount) = Pool4(poolCore).getContractData();\n        bool[] memory loanActive = new bool[](loanCount);\n\n        for (uint i = 0; i < loanCount; i++) {\n            (, , , principal, , , ) = Pool4(poolCore).getLoanDetails(i);\n\n            if(principal != 0) {\n                loanActive[i] = true;\n            } else {\n                loanActive[i] = false;\n            }\n        }\n\n        return loanActive;\n    }\n\n\n    /**  \n    *   @dev Function getPoolInterestAccrued() returns the the amount of interest accreued by the pool in total\n    */\n    function getPoolInterestAccrued() public view returns (uint256) {\n        uint256 totalInterest = 0;\n        uint256 loanCount = Pool4(poolCore).getLoanCount();\n\n\n        for (uint i=0; i<loanCount; i++) {\n            uint256 accruedInterest = Pool4(poolCore).getLoanAccruedInterest(i);\n            totalInterest = totalInterest.add(accruedInterest);\n        }\n\n        return totalInterest;\n    }\n\n    /**  \n    *   @dev Function getInterestRate calculates the new interest rate if a loan was to be taken out in this block\n    *   @param amount The size of the potential loan in (probably usdc).\n    *   @return interestRate The interest rate in APR for the loan\n    */\n    function getInterestRate(uint256 amount) public view returns (int256) {\n        //I = (( U - k ) / (U - 100)) - 0.01k + Base + ServicerFee\n        //all ints multiplied by 1000000 to represent the 6 decimal points available\n\n        uint256 poolBorrowed = 0;\n        uint256 poolLent = 0;\n        (, , poolLent, , poolBorrowed, ) = Pool4(poolCore).getContractData();\n        \n        //first check available allocation\n        require(amount < (poolLent - poolBorrowed));\n\n        //get new proposed utilization amount\n        int256 newUtilizationRatio = int256(poolBorrowed).add(int256(amount)).mul(100000000).div(int256(poolLent));\n\n        //calculate interest\n        //subtract k from U\n        int256 numerator = newUtilizationRatio.sub(int256(curveK));  \n        //subtract 100 from U\n        int256 denominator = newUtilizationRatio.sub(100000000);\n        //divide numerator by denominator and multiply percentage by 10^6 to account for decimal places\n        int256 interest = numerator.mul(1000000).div(denominator);\n        //add base and fees to interest\n        interest = interest.sub(int256(curveK).div(100)).add(int256(servicerFeePercentage)).add(int256(baseInterestPercentage)); \n        \n        return interest;\n    }\n\n    /********************************************\n    *           Loan Getter Funcs               * \n    ********************************************/\n\n        /**  \n    *   @dev Function getVersion returns current upgraded version\n    */\n    function getVersion() public pure returns (uint) {\n        return 1;\n    }\n \n}",
  "sourcePath": "/Users/patrick/github/HomeDAO/contracts/PoolUtils/PoolUtils1.sol",
  "compiler": {
    "name": "solc",
    "version": "0.8.9+commit.e5eed63a.Emscripten.clang"
  },
  "schemaVersion": "3.4.8",
  "updatedAt": "2022-08-10T01:41:50.273Z",
  "devdoc": {
    "kind": "dev",
    "methods": {
      "getActiveLoans()": {
        "details": "Function getActiveLoans() returns an array of the loans currently out by users",
        "returns": {
          "_0": "array of bools, where the index i is the loan ID and the value bool is active or not"
        }
      },
      "getAverageInterest()": {
        "details": "Function getAverageInterest() returns an average interest for the pool"
      },
      "getInterestRate(uint256)": {
        "details": "Function getInterestRate calculates the new interest rate if a loan was to be taken out in this block",
        "params": {
          "amount": "The size of the potential loan in (probably usdc)."
        },
        "returns": {
          "_0": "interestRate The interest rate in APR for the loan"
        }
      },
      "getPoolInterestAccrued()": {
        "details": "Function getPoolInterestAccrued() returns the the amount of interest accreued by the pool in total"
      },
      "getVersion()": {
        "details": "Function getVersion returns current upgraded version"
      }
    },
    "version": 1
  },
  "userdoc": {
    "kind": "user",
    "methods": {},
    "version": 1
  }
}