{
  "contractName": "PoolUtils0",
  "abi": [
    {
      "inputs": [
        {
          "internalType": "address",
          "name": "_poolCore",
          "type": "address"
        }
      ],
      "name": "initialize",
      "outputs": [],
      "stateMutability": "nonpayable",
      "type": "function"
    },
    {
      "inputs": [],
      "name": "getAverageInterest",
      "outputs": [
        {
          "internalType": "uint256",
          "name": "",
          "type": "uint256"
        }
      ],
      "stateMutability": "view",
      "type": "function"
    },
    {
      "inputs": [],
      "name": "getActiveLoans",
      "outputs": [
        {
          "internalType": "bool[]",
          "name": "",
          "type": "bool[]"
        }
      ],
      "stateMutability": "view",
      "type": "function"
    },
    {
      "inputs": [],
      "name": "getPoolInterestAccrued",
      "outputs": [
        {
          "internalType": "uint256",
          "name": "",
          "type": "uint256"
        }
      ],
      "stateMutability": "view",
      "type": "function"
    },
    {
      "inputs": [
        {
          "internalType": "uint256",
          "name": "amount",
          "type": "uint256"
        }
      ],
      "name": "getInterestRate",
      "outputs": [
        {
          "internalType": "int256",
          "name": "",
          "type": "int256"
        }
      ],
      "stateMutability": "view",
      "type": "function"
    }
  ],
  "bytecode": "0x608060405234801561001057600080fd5b50610cab806100206000396000f3fe608060405234801561001057600080fd5b50600436106100675760003560e01c8063397554661161005057806339755466146100a75780637eb0d8b1146100af578063c4d66de8146100b757600080fd5b80630c196a741461006c578063121ed2a714610092575b600080fd5b61007f61007a3660046108ba565b6100cc565b6040519081526020015b60405180910390f35b61009a61020f565b60405161008991906108d3565b61007f610409565b61007f6105a6565b6100ca6100c5366004610931565b610706565b005b6000806000905060008060029054906101000a90046001600160a01b03166001600160a01b031663a68b91ab6040518163ffffffff1660e01b815260040160c06040518083038186803b15801561012257600080fd5b505afa158015610136573d6000803e3d6000fd5b505050506040513d601f19601f8201168201806040525081019061015a919061094e565b50955090935061017092508491508390506109c2565b841061017b57600080fd5b600061019f826101996305f5e100610193878a61085f565b90610872565b9061087e565b905060006101b182630bebc20061088a565b905060006101c3836305f5e10061088a565b905060006101d88261019985620f4240610872565b905061020360006101fd620f4240816101f6630bebc200606461087e565b869061088a565b9061085f565b98975050505050505050565b6060600080600060029054906101000a90046001600160a01b03166001600160a01b031663a68b91ab6040518163ffffffff1660e01b815260040160c06040518083038186803b15801561026257600080fd5b505afa158015610276573d6000803e3d6000fd5b505050506040513d601f19601f8201168201806040525081019061029a919061094e565b955060009450859350505067ffffffffffffffff82111590506102bf576102bf6109d9565b6040519080825280602002602001820160405280156102e8578160200160208202803683370190505b50905060005b82811015610401576000546040517f66877b8d00000000000000000000000000000000000000000000000000000000815260048101839052620100009091046001600160a01b0316906366877b8d9060240160e06040518083038186803b15801561035857600080fd5b505afa15801561036c573d6000803e3d6000fd5b505050506040513d601f19601f8201168201806040525081019061039091906109ef565b5091985050871593506103ca925050505760018282815181106103b5576103b5610a4c565b911515602092830291909101909101526103ef565b60008282815181106103de576103de610a4c565b911515602092830291909101909101525b806103f981610a62565b9150506102ee565b509392505050565b60008060009050600080600080600060029054906101000a90046001600160a01b03166001600160a01b031663a68b91ab6040518163ffffffff1660e01b815260040160c06040518083038186803b15801561046457600080fd5b505afa158015610478573d6000803e3d6000fd5b505050506040513d601f19601f8201168201806040525081019061049c919061094e565b955060009450505050505b81811015610591576000546040517f66877b8d00000000000000000000000000000000000000000000000000000000815260048101839052620100009091046001600160a01b0316906366877b8d9060240160e06040518083038186803b15801561051157600080fd5b505afa158015610525573d6000803e3d6000fd5b505050506040513d601f19601f8201168201806040525081019061054991906109ef565b50929850909650508515925061057f915050576105706105698585610896565b87906108a2565b955061057c85846108a2565b94505b8061058981610a62565b9150506104a7565b5061059c85856108ae565b9550505050505090565b6000806000905060008060029054906101000a90046001600160a01b03166001600160a01b031663521968126040518163ffffffff1660e01b815260040160206040518083038186803b1580156105fc57600080fd5b505afa158015610610573d6000803e3d6000fd5b505050506040513d601f19601f820116820180604052508101906106349190610a7d565b905060005b818110156106fe57600080546040517f9a5872f400000000000000000000000000000000000000000000000000000000815260048101849052620100009091046001600160a01b031690639a5872f49060240160206040518083038186803b1580156106a457600080fd5b505afa1580156106b8573d6000803e3d6000fd5b505050506040513d601f19601f820116820180604052508101906106dc9190610a7d565b90506106e884826108a2565b93505080806106f690610a62565b915050610639565b509092915050565b600054610100900460ff166107215760005460ff1615610725565b303b155b6107b5576040517f08c379a000000000000000000000000000000000000000000000000000000000815260206004820152602e60248201527f496e697469616c697a61626c653a20636f6e747261637420697320616c72656160448201527f647920696e697469616c697a6564000000000000000000000000000000000000606482015260840160405180910390fd5b600054610100900460ff161580156107f457600080547fffffffffffffffffffffffffffffffffffffffffffffffffffffffffffff0000166101011790555b600080547fffffffffffffffffffff0000000000000000000000000000000000000000ffff16620100006001600160a01b03851602179055801561085b57600080547fffffffffffffffffffffffffffffffffffffffffffffffffffffffffffff00ff1690555b5050565b600061086b8284610a96565b9392505050565b600061086b8284610aee565b600061086b8284610ba4565b600061086b8284610bd2565b600061086b8284610c2a565b600061086b8284610c49565b600061086b8284610c61565b6000602082840312156108cc57600080fd5b5035919050565b6020808252825182820181905260009190848201906040850190845b8181101561090d5783511515835292840192918401916001016108ef565b50909695505050505050565b6001600160a01b038116811461092e57600080fd5b50565b60006020828403121561094357600080fd5b813561086b81610919565b60008060008060008060c0878903121561096757600080fd5b865161097281610919565b602088015190965061098381610919565b6040880151606089015160808a015160a0909a0151989b929a5090989097909650945092505050565b634e487b7160e01b600052601160045260246000fd5b6000828210156109d4576109d46109ac565b500390565b634e487b7160e01b600052604160045260246000fd5b600080600080600080600060e0888a031215610a0a57600080fd5b875196506020880151610a1c81610919565b604089015160608a015160808b015160a08c015160c0909c01519a9d939c50919a90999198509650945092505050565b634e487b7160e01b600052603260045260246000fd5b6000600019821415610a7657610a766109ac565b5060010190565b600060208284031215610a8f57600080fd5b5051919050565b6000808212827f7fffffffffffffffffffffffffffffffffffffffffffffffffffffffffffffff03841381151615610ad057610ad06109ac565b82600160ff1b038412811615610ae857610ae86109ac565b50500190565b60007f7fffffffffffffffffffffffffffffffffffffffffffffffffffffffffffffff600084136000841385830485118282161615610b2f57610b2f6109ac565b600160ff1b6000871286820588128184161615610b4e57610b4e6109ac565b60008712925087820587128484161615610b6a57610b6a6109ac565b87850587128184161615610b8057610b806109ac565b505050929093029392505050565b634e487b7160e01b600052601260045260246000fd5b600082610bb357610bb3610b8e565b6000198314600160ff1b83141615610bcd57610bcd6109ac565b500590565b600080831283600160ff1b01831281151615610bf057610bf06109ac565b837f7fffffffffffffffffffffffffffffffffffffffffffffffffffffffffffffff018313811615610c2457610c246109ac565b50500390565b6000816000190483118215151615610c4457610c446109ac565b500290565b60008219821115610c5c57610c5c6109ac565b500190565b600082610c7057610c70610b8e565b50049056fea264697066735822122016e867955a4cd5bf799229e26f8b880dd8d09203bda4063a9a9089bd1b6a279364736f6c63430008090033",
  "immutableReferences": {},
  "source": "// contracts/PoolUtils0.sol\n// SPDX-License-Identifier: MIT\npragma solidity ^0.8.4;\n\nimport \"../@openzeppelin/contracts-upgradeable/proxy/utils/Initializable.sol\";\nimport './../PoolCore/Pool4.sol';\nimport '../@openzeppelin/contracts/utils/math/SafeMath.sol';\nimport '../@openzeppelin/contracts/utils/math/SignedSafeMath.sol';\n\n\ncontract PoolUtils0 is Initializable {\n    using SignedSafeMath for int256;\n    using SafeMath for uint256;\n\n    uint constant servicerFeePercentage = 1000000;\n    uint constant baseInterestPercentage = 0;\n    uint constant curveK = 200000000;\n\n    address poolCore;\n\n    /** \n    *   @dev Function initialize replaces constructor in upgradable contracts\n    *   - Sets the poolCore contract Address \n    */\n    function initialize(address _poolCore) public initializer {\n        poolCore = _poolCore;\n    }\n\n    /********************************************\n    *           Pool Getter Funcs               * \n    ********************************************/\n\n\n\n    /**  \n    *   @dev Function getAverageInterest() returns an average interest for the pool\n    */\n    function getAverageInterest() public view returns (uint256) {\n        uint256 sumOfRates = 0;\n        uint256 borrowedCounter = 0;\n        \n        uint256 interestRate = 0;\n        uint256 principal = 0;\n        uint256 loanCount = 0;\n\n        (, , , , , loanCount) = Pool4(poolCore).getContractData();\n\n        for (uint i = 0; i < loanCount; i++) {\n\n            (, , interestRate, principal, , , ) = Pool4(poolCore).getLoanDetails(i);\n            if(principal != 0){\n                sumOfRates = sumOfRates.add(interestRate.mul(principal));\n                borrowedCounter = borrowedCounter.add(principal);\n            }\n        }\n\n       return sumOfRates.div(borrowedCounter);\n    }\n\n    /**  \n    *   @dev Function getActiveLoans() returns an array of the loans currently out by users\n    *   @return array of bools, where the index i is the loan ID and the value bool is active or not\n    */\n    function getActiveLoans() public view returns (bool[] memory) {\n        uint256 principal = 0;\n        uint256 loanCount = 0;\n\n        (, , , , , loanCount) = Pool4(poolCore).getContractData();\n        bool[] memory loanActive = new bool[](loanCount);\n\n        for (uint i = 0; i < loanCount; i++) {\n            (, , , principal, , , ) = Pool4(poolCore).getLoanDetails(i);\n\n            if(principal != 0) {\n                loanActive[i] = true;\n            } else {\n                loanActive[i] = false;\n            }\n        }\n\n        return loanActive;\n    }\n\n\n    /**  \n    *   @dev Function getPoolInterestAccrued() returns the the amount of interest accreued by the pool in total\n    */\n    function getPoolInterestAccrued() public view returns (uint256) {\n        uint256 totalInterest = 0;\n        uint256 loanCount = Pool4(poolCore).getLoanCount();\n\n\n        for (uint i=0; i<loanCount; i++) {\n            uint256 accruedInterest = Pool4(poolCore).getLoanAccruedInterest(i);\n            totalInterest = totalInterest.add(accruedInterest);\n        }\n\n        return totalInterest;\n    }\n\n    /**  \n    *   @dev Function getInterestRate calculates the new interest rate if a loan was to be taken out in this block\n    *   @param amount The size of the potential loan in (probably usdc).\n    *   @return interestRate The interest rate in APR for the loan\n    */\n    function getInterestRate(uint256 amount) public view returns (int256) {\n        //I = (( U - k ) / (U - 100)) - 0.01k + Base + ServicerFee\n        //all ints multiplied by 1000000 to represent the 6 decimal points available\n\n        uint256 poolBorrowed = 0;\n        uint256 poolLent = 0;\n        (, , poolLent, , poolBorrowed, ) = Pool4(poolCore).getContractData();\n        \n        //first check available allocation\n        require(amount < (poolLent - poolBorrowed));\n\n        //get new proposed utilization amount\n        int256 newUtilizationRatio = int256(poolBorrowed).add(int256(amount)).mul(100000000).div(int256(poolLent));\n\n        //calculate interest\n        //subtract k from U\n        int256 numerator = newUtilizationRatio.sub(int256(curveK));  \n        //subtract 100 from U\n        int256 denominator = newUtilizationRatio.sub(100000000);\n        //divide numerator by denominator and multiply percentage by 10^6 to account for decimal places\n        int256 interest = numerator.mul(1000000).div(denominator);\n        //add base and fees to interest\n        interest = interest.sub(int256(curveK).div(100)).add(int256(servicerFeePercentage)).add(int256(baseInterestPercentage)); \n        \n        return interest;\n    }\n\n    /********************************************\n    *           Loan Getter Funcs               * \n    ********************************************/\n \n}",
  "sourcePath": "/Users/patrick/github/HomeDAO/contracts/PoolUtils/PoolUtils0.sol",
  "compiler": {
    "name": "solc",
    "version": "0.8.9+commit.e5eed63a.Emscripten.clang"
  },
  "schemaVersion": "3.4.8",
  "updatedAt": "2022-08-10T01:41:50.268Z",
  "devdoc": {
    "kind": "dev",
    "methods": {
      "getActiveLoans()": {
        "details": "Function getActiveLoans() returns an array of the loans currently out by users",
        "returns": {
          "_0": "array of bools, where the index i is the loan ID and the value bool is active or not"
        }
      },
      "getAverageInterest()": {
        "details": "Function getAverageInterest() returns an average interest for the pool"
      },
      "getInterestRate(uint256)": {
        "details": "Function getInterestRate calculates the new interest rate if a loan was to be taken out in this block",
        "params": {
          "amount": "The size of the potential loan in (probably usdc)."
        },
        "returns": {
          "_0": "interestRate The interest rate in APR for the loan"
        }
      },
      "getPoolInterestAccrued()": {
        "details": "Function getPoolInterestAccrued() returns the the amount of interest accreued by the pool in total"
      },
      "initialize(address)": {
        "details": "Function initialize replaces constructor in upgradable contracts   - Sets the poolCore contract Address "
      }
    },
    "version": 1
  },
  "userdoc": {
    "kind": "user",
    "methods": {},
    "version": 1
  }
}