{
  "contractName": "PoolStakingRewards3",
  "abi": [
    {
      "anonymous": false,
      "inputs": [
        {
          "indexed": true,
          "internalType": "address",
          "name": "user",
          "type": "address"
        },
        {
          "indexed": true,
          "internalType": "uint128",
          "name": "epochId",
          "type": "uint128"
        },
        {
          "indexed": false,
          "internalType": "uint256",
          "name": "amount",
          "type": "uint256"
        }
      ],
      "name": "Harvest",
      "type": "event"
    },
    {
      "anonymous": false,
      "inputs": [
        {
          "indexed": true,
          "internalType": "address",
          "name": "user",
          "type": "address"
        },
        {
          "indexed": false,
          "internalType": "uint256",
          "name": "epochsHarvested",
          "type": "uint256"
        },
        {
          "indexed": false,
          "internalType": "uint256",
          "name": "totalValue",
          "type": "uint256"
        }
      ],
      "name": "MassHarvest",
      "type": "event"
    },
    {
      "inputs": [],
      "name": "epochDuration",
      "outputs": [
        {
          "internalType": "uint256",
          "name": "",
          "type": "uint256"
        }
      ],
      "stateMutability": "view",
      "type": "function"
    },
    {
      "inputs": [],
      "name": "epochStart",
      "outputs": [
        {
          "internalType": "uint256",
          "name": "",
          "type": "uint256"
        }
      ],
      "stateMutability": "view",
      "type": "function"
    },
    {
      "inputs": [],
      "name": "lastInitializedEpoch",
      "outputs": [
        {
          "internalType": "uint128",
          "name": "",
          "type": "uint128"
        }
      ],
      "stateMutability": "view",
      "type": "function"
    },
    {
      "inputs": [
        {
          "internalType": "address",
          "name": "_airdropContract",
          "type": "address"
        }
      ],
      "name": "initializePoolStakingRewards1",
      "outputs": [],
      "stateMutability": "nonpayable",
      "type": "function"
    },
    {
      "inputs": [
        {
          "internalType": "address",
          "name": "_guardianAddress",
          "type": "address"
        }
      ],
      "name": "setGuardianAddress",
      "outputs": [],
      "stateMutability": "nonpayable",
      "type": "function"
    },
    {
      "inputs": [
        {
          "internalType": "address",
          "name": "_DAOAddress",
          "type": "address"
        }
      ],
      "name": "setDAOAddress",
      "outputs": [],
      "stateMutability": "nonpayable",
      "type": "function"
    },
    {
      "inputs": [
        {
          "internalType": "uint256",
          "name": "newPerEpoch",
          "type": "uint256"
        }
      ],
      "name": "setPerEpoch",
      "outputs": [],
      "stateMutability": "nonpayable",
      "type": "function"
    },
    {
      "inputs": [
        {
          "internalType": "address",
          "name": "newMinter",
          "type": "address"
        }
      ],
      "name": "transferMintRights",
      "outputs": [],
      "stateMutability": "nonpayable",
      "type": "function"
    },
    {
      "inputs": [
        {
          "internalType": "address",
          "name": "poolAddress",
          "type": "address"
        }
      ],
      "name": "approvePool",
      "outputs": [],
      "stateMutability": "nonpayable",
      "type": "function"
    },
    {
      "inputs": [
        {
          "internalType": "address",
          "name": "poolAddress",
          "type": "address"
        }
      ],
      "name": "revokePool",
      "outputs": [],
      "stateMutability": "nonpayable",
      "type": "function"
    },
    {
      "inputs": [
        {
          "internalType": "address",
          "name": "wallet",
          "type": "address"
        },
        {
          "internalType": "uint256",
          "name": "amount",
          "type": "uint256"
        }
      ],
      "name": "stake",
      "outputs": [
        {
          "internalType": "bool",
          "name": "",
          "type": "bool"
        }
      ],
      "stateMutability": "nonpayable",
      "type": "function"
    },
    {
      "inputs": [
        {
          "internalType": "uint256",
          "name": "amount",
          "type": "uint256"
        }
      ],
      "name": "unstake",
      "outputs": [],
      "stateMutability": "nonpayable",
      "type": "function"
    },
    {
      "inputs": [
        {
          "internalType": "address",
          "name": "wallet",
          "type": "address"
        },
        {
          "internalType": "uint256",
          "name": "amount",
          "type": "uint256"
        }
      ],
      "name": "unstakeForWallet",
      "outputs": [],
      "stateMutability": "nonpayable",
      "type": "function"
    },
    {
      "inputs": [
        {
          "internalType": "address",
          "name": "wallet",
          "type": "address"
        }
      ],
      "name": "massHarvest",
      "outputs": [
        {
          "internalType": "uint256",
          "name": "",
          "type": "uint256"
        }
      ],
      "stateMutability": "nonpayable",
      "type": "function"
    },
    {
      "inputs": [
        {
          "internalType": "address",
          "name": "wallet",
          "type": "address"
        },
        {
          "internalType": "uint128",
          "name": "epochId",
          "type": "uint128"
        }
      ],
      "name": "harvest",
      "outputs": [
        {
          "internalType": "uint256",
          "name": "",
          "type": "uint256"
        }
      ],
      "stateMutability": "nonpayable",
      "type": "function"
    },
    {
      "inputs": [],
      "name": "getTotalEpochs",
      "outputs": [
        {
          "internalType": "uint256",
          "name": "",
          "type": "uint256"
        }
      ],
      "stateMutability": "view",
      "type": "function"
    },
    {
      "inputs": [],
      "name": "getRewardPerEpoch",
      "outputs": [
        {
          "internalType": "uint256",
          "name": "",
          "type": "uint256"
        }
      ],
      "stateMutability": "view",
      "type": "function"
    },
    {
      "inputs": [
        {
          "internalType": "uint128",
          "name": "epochId",
          "type": "uint128"
        }
      ],
      "name": "getPoolSize",
      "outputs": [
        {
          "internalType": "uint256",
          "name": "",
          "type": "uint256"
        }
      ],
      "stateMutability": "view",
      "type": "function"
    },
    {
      "inputs": [],
      "name": "getCurrentEpoch",
      "outputs": [
        {
          "internalType": "uint256",
          "name": "",
          "type": "uint256"
        }
      ],
      "stateMutability": "view",
      "type": "function"
    },
    {
      "inputs": [
        {
          "internalType": "address",
          "name": "userAddress",
          "type": "address"
        },
        {
          "internalType": "uint128",
          "name": "epochId",
          "type": "uint128"
        }
      ],
      "name": "getEpochStake",
      "outputs": [
        {
          "internalType": "uint256",
          "name": "",
          "type": "uint256"
        }
      ],
      "stateMutability": "view",
      "type": "function"
    },
    {
      "inputs": [
        {
          "internalType": "address",
          "name": "userAddress",
          "type": "address"
        }
      ],
      "name": "getCurrentEpochStake",
      "outputs": [
        {
          "internalType": "uint256",
          "name": "",
          "type": "uint256"
        }
      ],
      "stateMutability": "view",
      "type": "function"
    },
    {
      "inputs": [
        {
          "internalType": "address",
          "name": "userAddress",
          "type": "address"
        }
      ],
      "name": "getCurrentBalance",
      "outputs": [
        {
          "internalType": "uint256",
          "name": "",
          "type": "uint256"
        }
      ],
      "stateMutability": "view",
      "type": "function"
    },
    {
      "inputs": [],
      "name": "userLastEpochIdHarvested",
      "outputs": [
        {
          "internalType": "uint256",
          "name": "",
          "type": "uint256"
        }
      ],
      "stateMutability": "view",
      "type": "function"
    },
    {
      "inputs": [
        {
          "internalType": "address",
          "name": "wallet",
          "type": "address"
        },
        {
          "internalType": "uint256",
          "name": "userReward",
          "type": "uint256"
        }
      ],
      "name": "mintBacon",
      "outputs": [],
      "stateMutability": "nonpayable",
      "type": "function"
    },
    {
      "inputs": [
        {
          "internalType": "address",
          "name": "wallet",
          "type": "address"
        }
      ],
      "name": "getAndClearReward",
      "outputs": [
        {
          "internalType": "uint256",
          "name": "",
          "type": "uint256"
        }
      ],
      "stateMutability": "nonpayable",
      "type": "function"
    }
  ],
  "bytecode": "0x608060405234801561001057600080fd5b506117ca806100206000396000f3fe608060405234801561001057600080fd5b50600436106101a35760003560e01c80636ae3e75b116100ee578063adc9772e11610097578063d3834e8011610071578063d3834e801461034a578063dbe0090c1461035d578063e1466bc214610370578063f7e251f81461038357600080fd5b8063adc9772e1461030c578063b97dd9e21461032f578063ba17cef31461033757600080fd5b80639c7ec881116100c85780639c7ec881146102b0578063a1c130d4146102db578063a70dba7c146102f957600080fd5b80636ae3e75b14610277578063965afa891461028a5780639a2daa0a1461029d57600080fd5b806343312451116101505780634ff0876a1161012a5780634ff0876a146102485780635a022a68146102515780636a7b408b1461026457600080fd5b8063433124511461021a578063440277e81461022d5780634cb0482f1461024057600080fd5b80631d4b449a116101815780631d4b449a146101ea5780632e17de78146101f2578063424c265b1461020757600080fd5b80630e020b25146101a857806311fe3345146101ce57806315e5a1e5146101e1575b600080fd5b6101bb6101b63660046115ac565b610396565b6040519081526020015b60405180910390f35b6101bb6101dc3660046115ac565b61059f565b6101bb600b5481565b6007546101bb565b6102056102003660046115c7565b6105b8565b005b6102056102153660046115ac565b6105c5565b6101bb6102283660046115f7565b610651565b6101bb61023b3660046115ac565b610664565b600c546101bb565b6101bb600a5481565b61020561025f3660046115ac565b61070d565b61020561027236600461162a565b6107a4565b6102056102853660046115ac565b610825565b6102056102983660046115ac565b6108ae565b6101bb6102ab3660046115ac565b610986565b6008546102c3906001600160801b031681565b6040516001600160801b0390911681526020016101c5565b336000908152600960205260409020546001600160801b03166101bb565b61020561030736600461162a565b610a7d565b61031f61031a36600461162a565b610b50565b60405190151581526020016101c5565b6101bb610c5b565b6102056103453660046115ac565b610c73565b6102056103583660046115c7565b610d56565b61020561036b3660046115ac565b610db5565b6101bb61037e3660046115f7565b610e8d565b6101bb610391366004611654565b611181565b3360009081526003602052604081205460ff1661040e5760405162461bcd60e51b815260206004820152602b60248201527f506f6f6c5374616b696e67526577617264733a206d757374206265206170707260448201526a37bb32b21039b2b73232b960a91b60648201526084015b60405180910390fd5b600061041861118c565b6001600160801b031661042e5750600092915050565b600061044c600161043d61118c565b6001600160801b0316906111cf565b9050600c5481111561045d5750600c545b6001600160a01b03841660009081526009602052604081205461048a906001600160801b03166001611685565b90505b81816001600160801b0316116104c5576104a785826111db565b6104b190846116b0565b9250806104bd816116c8565b91505061048d565b506001600160a01b0384166000818152600960205260409020547fb68dafc1da13dc868096d0b87347c831d0bda92d178317eb1dec7f788444485c90610514906001600160801b0316846116ef565b60408051918252602082018690520160405180910390a28115610598576001546040516340c10f1960e01b81526001600160a01b03868116600483015260248201859052909116906340c10f1990604401600060405180830381600087803b15801561057f57600080fd5b505af1158015610593573d6000803e3d6000fd5b505050505b5092915050565b60006105b2826105ad61118c565b6112f5565b92915050565b6105c233826113c0565b50565b6004546001600160a01b0316331461062d5760405162461bcd60e51b815260206004820152602560248201527f506f6f6c5374616b696e67526577617264733a20756e617070726f766564207360448201526432b73232b960d91b6064820152608401610405565b6001600160a01b03166000908152600360205260409020805460ff19166001179055565b600061065d83836112f5565b9392505050565b600254600080546040517ff7888aec0000000000000000000000000000000000000000000000000000000081526001600160a01b03858116600483015262010000909204821660248201529192169063f7888aec906044015b60206040518083038186803b1580156106d557600080fd5b505afa1580156106e9573d6000803e3d6000fd5b505050506040513d601f19601f820116820180604052508101906105b29190611706565b6004546001600160a01b031633146107755760405162461bcd60e51b815260206004820152602560248201527f506f6f6c5374616b696e67526577617264733a20756e617070726f766564207360448201526432b73232b960d91b6064820152608401610405565b600d805473ffffffffffffffffffffffffffffffffffffffff19166001600160a01b0392909216919091179055565b3360009081526003602052604090205460ff166108175760405162461bcd60e51b815260206004820152602b60248201527f506f6f6c5374616b696e67526577617264733a206d757374206265206170707260448201526a37bb32b21039b2b73232b960a91b6064820152608401610405565b61082182826113c0565b5050565b6004546001600160a01b0316331461088d5760405162461bcd60e51b815260206004820152602560248201527f506f6f6c5374616b696e67526577617264733a20756e617070726f766564207360448201526432b73232b960d91b6064820152608401610405565b6001600160a01b03166000908152600360205260409020805460ff19169055565b6004546001600160a01b031633146109165760405162461bcd60e51b815260206004820152602560248201527f506f6f6c5374616b696e67526577617264733a20756e617070726f766564207360448201526432b73232b960d91b6064820152608401610405565b600580546001600160a01b03908116600090815260096020526040808220549490921680825291902080546fffffffffffffffffffffffffffffffff19166001600160801b0390941693909317909255805473ffffffffffffffffffffffffffffffffffffffff19169091179055565b3360009081526003602052604081205460ff166109f95760405162461bcd60e51b815260206004820152602b60248201527f506f6f6c5374616b696e67526577617264733a206d757374206265206170707260448201526a37bb32b21039b2b73232b960a91b6064820152608401610405565b6002546000546040517f4a0c8ce60000000000000000000000000000000000000000000000000000000081526001600160a01b0385811660048301526201000090920482166024820152911690634a0c8ce690604401602060405180830381600087803b158015610a6957600080fd5b505af11580156106e9573d6000803e3d6000fd5b600d546001600160a01b03163314610ae55760405162461bcd60e51b815260206004820152602560248201527f506f6f6c5374616b696e67526577617264733a20756e617070726f766564207360448201526432b73232b960d91b6064820152608401610405565b6001546040516340c10f1960e01b81526001600160a01b03848116600483015260248201849052909116906340c10f19906044015b600060405180830381600087803b158015610b3457600080fd5b505af1158015610b48573d6000803e3d6000fd5b505050505050565b3360009081526003602052604081205460ff16610bc35760405162461bcd60e51b815260206004820152602b60248201527f506f6f6c5374616b696e67526577617264733a206d757374206265206170707260448201526a37bb32b21039b2b73232b960a91b6064820152608401610405565b6002546000546040517f8340f5490000000000000000000000000000000000000000000000000000000081526001600160a01b036201000090920482166004820152858216602482015260448101859052911690638340f54990606401600060405180830381600087803b158015610c3a57600080fd5b505af1158015610c4e573d6000803e3d6000fd5b5060019695505050505050565b6000610c6561118c565b6001600160801b0316905090565b6004546001600160a01b03163314610cdb5760405162461bcd60e51b815260206004820152602560248201527f506f6f6c5374616b696e67526577617264733a20756e617070726f766564207360448201526432b73232b960d91b6064820152608401610405565b6001546040517f9dd373b90000000000000000000000000000000000000000000000000000000081526001600160a01b03838116600483015290911690639dd373b990602401600060405180830381600087803b158015610d3b57600080fd5b505af1158015610d4f573d6000803e3d6000fd5b5050505050565b6004546001600160a01b03163314610db05760405162461bcd60e51b815260206004820152601160248201527f756e617070726f7665642073656e6465720000000000000000000000000000006044820152606401610405565b600755565b6004546001600160a01b03163314610e1d5760405162461bcd60e51b815260206004820152602560248201527f506f6f6c5374616b696e67526577617264733a20756e617070726f766564207360448201526432b73232b960d91b6064820152608401610405565b600480546001600160a01b03908116600090815260096020526040808220549490921680825291902080546fffffffffffffffffffffffffffffffff19166001600160801b0390941693909317909255805473ffffffffffffffffffffffffffffffffffffffff19169091179055565b3360009081526003602052604081205460ff16610f005760405162461bcd60e51b815260206004820152602b60248201527f506f6f6c5374616b696e67526577617264733a206d757374206265206170707260448201526a37bb32b21039b2b73232b960a91b6064820152608401610405565b816001600160801b0316610f1261118c565b6001600160801b031611610f8e5760405162461bcd60e51b815260206004820152602f60248201527f506f6f6c5374616b696e67526577617264733a20546869732065706f6368206960448201527f7320696e207468652066757475726500000000000000000000000000000000006064820152608401610405565b600c54826001600160801b0316111561100f5760405162461bcd60e51b815260206004820152603260248201527f506f6f6c5374616b696e67526577617264733a204d6178696d756d206e756d6260448201527f6572206f662065706f63687320697320313200000000000000000000000000006064820152608401610405565b6001600160a01b0383166000908152600960205260409020546001600160801b038084169161104091166001611422565b146110b25760405162461bcd60e51b8152602060048201526024808201527f506f6f6c5374616b696e67526577617264733a204861727665737420696e206f60448201527f72646572000000000000000000000000000000000000000000000000000000006064820152608401610405565b60006110be84846111db565b9050801561112d576001546040516340c10f1960e01b81526001600160a01b03868116600483015260248201849052909116906340c10f1990604401600060405180830381600087803b15801561111457600080fd5b505af1158015611128573d6000803e3d6000fd5b505050505b826001600160801b0316846001600160a01b03167f04ad45a69eeed9c390c3a678fed2d4b90bde98e742de9936d5e0915bf3d0ea4e8360405161117291815260200190565b60405180910390a39392505050565b60006105b28261142e565b6000600b5442101561119e5750600090565b6111ca60016111c4600a546111be600b54426111cf90919063ffffffff16565b90611492565b90611422565b905090565b600061065d82846116ef565b6008546000906001600160801b03808416911610156111fd576111fd8261149e565b6001600160a01b03838116600081815260096020526040902080546fffffffffffffffffffffffffffffffff19166001600160801b038616179055600554909116141561125657506a090148ed30e4ce540000006105b2565b6004546001600160a01b038481169116141561127e57506a1382c8ac949a69b60000006105b2565b6006826001600160801b03168154811061129a5761129a61171f565b9060005260206000200154600014156112b5575060006105b2565b61065d6006836001600160801b0316815481106112d4576112d461171f565b90600052602060002001546111be6112ec86866112f5565b60075490611584565b6002546000805490916001600160a01b0390811691638c028dd091869162010000900416856040517fffffffff0000000000000000000000000000000000000000000000000000000060e086901b1681526001600160a01b0393841660048201529290911660248301526001600160801b0316604482015260640160206040518083038186803b15801561138857600080fd5b505afa15801561139c573d6000803e3d6000fd5b505050506040513d601f19601f8201168201806040525081019061065d9190611706565b6002546000546040517fd9caed120000000000000000000000000000000000000000000000000000000081526001600160a01b03620100009092048216600482015284821660248201526044810184905291169063d9caed1290606401610b1a565b600061065d82846116b0565b600254600080546040517f2ca32d7e0000000000000000000000000000000000000000000000000000000081526001600160a01b0362010000909204821660048201526001600160801b038516602482015291921690632ca32d7e906044016106bd565b600061065d8284611735565b6008546001600160801b03808316916114b991166001611422565b1461152c5760405162461bcd60e51b815260206004820152603360248201527f506f6f6c5374616b696e67526577617264733a2045706f63682063616e20626560448201527f20696e6974206f6e6c7920696e206f72646572000000000000000000000000006064820152608401610405565b600880546fffffffffffffffffffffffffffffffff19166001600160801b0383161790556115598161142e565b6006826001600160801b0316815481106115755761157561171f565b60009182526020909120015550565b600061065d8284611757565b80356001600160a01b03811681146115a757600080fd5b919050565b6000602082840312156115be57600080fd5b61065d82611590565b6000602082840312156115d957600080fd5b5035919050565b80356001600160801b03811681146115a757600080fd5b6000806040838503121561160a57600080fd5b61161383611590565b9150611621602084016115e0565b90509250929050565b6000806040838503121561163d57600080fd5b61164683611590565b946020939093013593505050565b60006020828403121561166657600080fd5b61065d826115e0565b634e487b7160e01b600052601160045260246000fd5b60006001600160801b038083168185168083038211156116a7576116a761166f565b01949350505050565b600082198211156116c3576116c361166f565b500190565b60006001600160801b03808316818114156116e5576116e561166f565b6001019392505050565b6000828210156117015761170161166f565b500390565b60006020828403121561171857600080fd5b5051919050565b634e487b7160e01b600052603260045260246000fd5b60008261175257634e487b7160e01b600052601260045260246000fd5b500490565b6000817fffffffffffffffffffffffffffffffffffffffffffffffffffffffffffffffff048311821515161561178f5761178f61166f565b50029056fea264697066735822122049b42c00b90dcb712379680b439d53f1eb7300091e518a5c7f325c10b668bcaa64736f6c63430008090033",
  "immutableReferences": {},
  "source": "// SPDX-License-Identifier: Apache-2.0\n\n// Changes:\n// 1. Separated the bond token address from the pool token address so that the pool can hold bHome and reward Bacon.\n//    Though I suppose this makes it not a very good bond...\n\npragma solidity ^0.8.4;\n\nimport './../@openzeppelin/contracts/utils/math/SafeMath.sol';\nimport \"./../@openzeppelin/contracts/token/ERC20/IERC20.sol\";\nimport \"./../Staking/IStaking.sol\";\nimport \"./../@openzeppelin/contracts-upgradeable/proxy/utils/Initializable.sol\";\nimport \"./../BaconCoin/BaconCoin3.sol\";\n\n\ncontract PoolStakingRewards3 is Initializable {\n\n    // lib\n    using SafeMath for uint;\n    using SafeMath for uint128;\n\n    // Per epoch rewards\n    uint256 constant GUARDIAN_REWARD = 23587200e18;\n    uint256 constant DAO_REWARD = 10886400e18;\n\n    // constants\n    // end of year one rewards was block 15651074\n    // airdrop_ends_block_number (from airdrop script) was: 14127375\n    // year one reward per block: 100 Bacon\n    // total remaining rewards for year 1 = 100 * (endOfYearOneBlock - rewardsAirdropBlock)\n    // = 100 * (15651074-14127375)\n    // uint public constant TOTAL_DISTRIBUTED_AMOUNT = 152369900;\n    // There are roughly 19 weeks left in our 1 year rewards term\n    // starting the 19th of May 2022\n    // uint public constant NR_OF_EPOCHS = 19;\n    // uint128 public constant EPOCHS_DELAYED_FROM_STAKING_CONTRACT = 0;\n\n    // state variables\n\n    // addresses\n    address private _poolTokenAddress;\n    // contracts\n    BaconCoin3 private _bacon;\n    IStaking private _staking;\n    // TODO: maybe private?\n    mapping(address => bool) isApprovedPool;\n    address guardianAddress;\n    address daoAddress;\n\n\n    uint[] private epochs;\n    uint private _totalAmountPerEpoch;\n    uint128 public lastInitializedEpoch;\n    mapping(address => uint128) private lastEpochIdHarvested;\n    uint public epochDuration; // init from staking contract\n    uint public epochStart; // init from staking contract\n    uint private _numberOfEpochs;\n\n    /* PoolStakingRewards1 Variables */\n    address airdropContract;\n\n    // events\n    event MassHarvest(address indexed user, uint256 epochsHarvested, uint256 totalValue);\n    event Harvest(address indexed user, uint128 indexed epochId, uint256 amount);\n\n    // constructor\n    function initializePoolStakingRewards1( address _airdropContract ) public {\n        require(msg.sender == guardianAddress, \"PoolStakingRewards: unapproved sender\");\n        airdropContract = _airdropContract;\n    }\n\n    function setGuardianAddress(address _guardianAddress) public {\n        require(msg.sender == guardianAddress, \"PoolStakingRewards: unapproved sender\");\n        lastEpochIdHarvested[_guardianAddress] =  lastEpochIdHarvested[guardianAddress];\n        guardianAddress = _guardianAddress;\n    }\n\n    // To be called after baconCoin0 is deployed\n    function setDAOAddress(address _DAOAddress) public {\n        require(msg.sender == guardianAddress, \"PoolStakingRewards: unapproved sender\");\n        lastEpochIdHarvested[_DAOAddress] =  lastEpochIdHarvested[daoAddress];\n        daoAddress = _DAOAddress;\n    }\n\n    function setPerEpoch(uint newPerEpoch) public {\n        require(msg.sender == guardianAddress, \"unapproved sender\");\n        _totalAmountPerEpoch = newPerEpoch;\n    }\n\n    function transferMintRights(address newMinter) public {\n        require(msg.sender == guardianAddress, \"PoolStakingRewards: unapproved sender\");\n        _bacon.setStakingContract(newMinter);\n    }\n\n    function approvePool(address poolAddress) public {\n        require(msg.sender == guardianAddress, \"PoolStakingRewards: unapproved sender\");\n        isApprovedPool[poolAddress] = true;\n    }\n\n    function revokePool(address poolAddress) public {\n        require(msg.sender == guardianAddress, \"PoolStakingRewards: unapproved sender\");\n        isApprovedPool[poolAddress] = false;\n    }\n\n    function stake(address wallet, uint256 amount) public returns (bool) {\n        require(isApprovedPool[msg.sender], \"PoolStakingRewards: must be approved sender\");\n        // expects that the users hbHome has already been transferred to the staking contract\n        _staking.deposit(_poolTokenAddress, wallet, amount);\n\n        return true;\n    }\n\n    function unstake(uint256 amount) public {\n        _unstakeInternal(msg.sender, amount);\n    }\n\n    function unstakeForWallet(address wallet, uint256 amount) public {\n        require(isApprovedPool[msg.sender], \"PoolStakingRewards: must be approved sender\");\n        _unstakeInternal(wallet, amount);\n    }\n\n    // public methods\n    // public method to harvest all the unharvested epochs until current epoch - 1\n    function massHarvest(address wallet) external returns (uint){\n        require(isApprovedPool[msg.sender], \"PoolStakingRewards: must be approved sender\");\n        uint totalDistributedValue = 0;\n\n        //added so it doesn't fail on first epoch\n        if(_getEpochId() == 0){\n            return 0;\n        }\n        \n        uint epochId = _getEpochId().sub(1); // fails in epoch 0\n        // force max number of epochs\n        if (epochId > _numberOfEpochs) {\n            epochId = _numberOfEpochs;\n        }\n\n        for (uint128 i = lastEpochIdHarvested[wallet] + 1; i <= epochId; i++) {\n            // i = epochId\n            // compute distributed Value and do one single transfer at the end\n            totalDistributedValue += _harvest(wallet, i);\n        }\n\n        emit MassHarvest(wallet, epochId - lastEpochIdHarvested[wallet], totalDistributedValue);\n\n        if (totalDistributedValue > 0) {\n            _bacon.mint(wallet, totalDistributedValue);\n        }\n\n        return totalDistributedValue;\n    }\n\n    function harvest (address wallet, uint128 epochId) external returns (uint){\n        require(isApprovedPool[msg.sender], \"PoolStakingRewards: must be approved sender\");\n        // checks for requested epoch\n        require (_getEpochId() > epochId, \"PoolStakingRewards: This epoch is in the future\");\n        require(epochId <= _numberOfEpochs, \"PoolStakingRewards: Maximum number of epochs is 12\");\n        require (lastEpochIdHarvested[wallet].add(1) == epochId, \"PoolStakingRewards: Harvest in order\");\n        uint userReward = _harvest(wallet, epochId);\n        if (userReward > 0) {\n             _bacon.mint(wallet, userReward);\n        }\n        emit Harvest(wallet, epochId, userReward);\n        return userReward;\n    }\n\n    // views\n    function getTotalEpochs() external view returns (uint) {\n        return _numberOfEpochs;\n    }\n\n    function getRewardPerEpoch() external view returns (uint) {\n        return _totalAmountPerEpoch;\n    }\n\n    // calls to the staking smart contract to retrieve the epoch total pool size\n    function getPoolSize(uint128 epochId) external view returns (uint) {\n        return _getPoolSize(epochId);\n    }\n\n    function getCurrentEpoch() external view returns (uint) {\n        return _getEpochId();\n    }\n\n    // calls to the staking smart contract to retrieve user balance for an epoch\n    function getEpochStake(address userAddress, uint128 epochId) external view returns (uint) {\n        return _getUserBalancePerEpoch(userAddress, epochId);\n    }\n\n    function getCurrentEpochStake(address userAddress) external view returns (uint) {\n        return _getUserBalancePerEpoch(userAddress, _getEpochId());\n    }\n\n    function getCurrentBalance(address userAddress) external view returns (uint) {\n        return _staking.balanceOf(userAddress, _poolTokenAddress);\n    }\n\n    function userLastEpochIdHarvested() external view returns (uint){\n        return lastEpochIdHarvested[msg.sender];\n    }\n\n    // internal methods\n\n    function _unstakeInternal(address wallet, uint256 amount) internal {\n        _staking.withdraw(_poolTokenAddress, wallet, amount);\n    }\n\n    function _initEpoch(uint128 epochId) internal {\n        require(lastInitializedEpoch.add(1) == epochId, \"PoolStakingRewards: Epoch can be init only in order\");\n        lastInitializedEpoch = epochId;\n        // call the staking smart contract to init the epoch\n        epochs[epochId] = _getPoolSize(epochId);\n    }\n\n    function _harvest (address wallet, uint128 epochId) internal returns (uint) {\n        // try to initialize an epoch. if it can't it fails\n        // if it fails either user either a BarnBridge account will init not init epochs\n        if (lastInitializedEpoch < epochId) {\n            _initEpoch(epochId);\n        }\n        // Set user state for last harvested\n        lastEpochIdHarvested[wallet] = epochId;\n        // compute and return user total reward. For optimization reasons the transfer have been moved to an upper layer (i.e. massHarvest needs to do a single transfer)\n        if(wallet == daoAddress){\n            return DAO_REWARD;\n        }\n        if(wallet == guardianAddress){\n            return GUARDIAN_REWARD;\n        }\n\n        // exit if there is no stake on the epoch\n        if (epochs[epochId] == 0) {\n            return 0;\n        }\n        return _totalAmountPerEpoch\n        .mul(_getUserBalancePerEpoch(wallet, epochId))\n        .div(epochs[epochId]);\n    }\n\n    // retrieve _poolTokenAddress token balance\n    function _getPoolSize(uint128 epochId) internal view returns (uint) {\n        return _staking.getEpochPoolSize(_poolTokenAddress, _stakingEpochId(epochId));\n    }\n\n    // retrieve _poolTokenAddress token balance per user per epoch\n    function _getUserBalancePerEpoch(address userAddress, uint128 epochId) internal view returns (uint){\n        return _staking.getEpochUserBalance(userAddress, _poolTokenAddress, _stakingEpochId(epochId));\n    }\n\n    // compute epoch id from block.timestamp and epochStart date\n    function _getEpochId() internal view returns (uint128 epochId) {\n        if (block.timestamp < epochStart) {\n            return 0;\n        }\n        epochId = uint128(block.timestamp.sub(epochStart).div(epochDuration).add(1));\n    }\n\n    // get the staking epoch\n    function _stakingEpochId(uint128 epochId) pure internal returns (uint128) {\n        return epochId;\n    }\n\n    function mintBacon(address wallet, uint256 userReward) public {\n        require(msg.sender == airdropContract, \"PoolStakingRewards: unapproved sender\");\n        _bacon.mint(wallet, userReward);\n    }\n\n    function getAndClearReward(address wallet) external returns (uint256) {\n        require(isApprovedPool[msg.sender], \"PoolStakingRewards: must be approved sender\");\n\n        return _staking.getAndClearReward(wallet, _poolTokenAddress);\n    }\n\n}",
  "sourcePath": "/Users/patrick/github/HomeDAO/contracts/PoolStakingRewards/PoolStakingRewards3.sol",
  "compiler": {
    "name": "solc",
    "version": "0.8.9+commit.e5eed63a.Emscripten.clang"
  },
  "schemaVersion": "3.4.8",
  "updatedAt": "2022-08-10T01:41:50.252Z",
  "devdoc": {
    "kind": "dev",
    "methods": {},
    "version": 1
  },
  "userdoc": {
    "kind": "user",
    "methods": {},
    "version": 1
  }
}