{
  "abi": [
    {
      "inputs": [
        {
          "internalType": "address",
          "name": "",
          "type": "address"
        }
      ],
      "name": "userLastDistribution",
      "outputs": [
        {
          "internalType": "uint256",
          "name": "",
          "type": "uint256"
        }
      ],
      "stateMutability": "view",
      "type": "function"
    },
    {
      "inputs": [
        {
          "internalType": "address",
          "name": "",
          "type": "address"
        }
      ],
      "name": "userStaked",
      "outputs": [
        {
          "internalType": "uint256",
          "name": "",
          "type": "uint256"
        }
      ],
      "stateMutability": "view",
      "type": "function"
    },
    {
      "inputs": [
        {
          "internalType": "uint256",
          "name": "_unstakingLockupBlockDelta",
          "type": "uint256"
        }
      ],
      "name": "setUnstakingLockupBlockDelta",
      "outputs": [],
      "stateMutability": "nonpayable",
      "type": "function"
    },
    {
      "inputs": [
        {
          "internalType": "uint256",
          "name": "_oneYearBlock",
          "type": "uint256"
        }
      ],
      "name": "setOneYearBlock",
      "outputs": [],
      "stateMutability": "nonpayable",
      "type": "function"
    },
    {
      "inputs": [
        {
          "internalType": "uint256",
          "name": "_stakeAfterBlock",
          "type": "uint256"
        }
      ],
      "name": "setstakeAfterBlock",
      "outputs": [],
      "stateMutability": "nonpayable",
      "type": "function"
    },
    {
      "inputs": [
        {
          "internalType": "address",
          "name": "_baconCoinAddress",
          "type": "address"
        }
      ],
      "name": "setBaconAddress",
      "outputs": [],
      "stateMutability": "nonpayable",
      "type": "function"
    },
    {
      "inputs": [
        {
          "internalType": "address",
          "name": "_DAOAddress",
          "type": "address"
        }
      ],
      "name": "setDAOAddress",
      "outputs": [],
      "stateMutability": "nonpayable",
      "type": "function"
    },
    {
      "inputs": [
        {
          "internalType": "address",
          "name": "_guardianAddress",
          "type": "address"
        }
      ],
      "name": "setGuardianAddress",
      "outputs": [],
      "stateMutability": "nonpayable",
      "type": "function"
    },
    {
      "inputs": [],
      "name": "version",
      "outputs": [
        {
          "internalType": "uint256",
          "name": "",
          "type": "uint256"
        }
      ],
      "stateMutability": "pure",
      "type": "function"
    },
    {
      "inputs": [],
      "name": "getContractInfo",
      "outputs": [
        {
          "internalType": "uint256",
          "name": "",
          "type": "uint256"
        },
        {
          "internalType": "uint256",
          "name": "",
          "type": "uint256"
        },
        {
          "internalType": "address",
          "name": "",
          "type": "address"
        },
        {
          "internalType": "address",
          "name": "",
          "type": "address"
        },
        {
          "internalType": "address",
          "name": "",
          "type": "address"
        },
        {
          "internalType": "address[]",
          "name": "",
          "type": "address[]"
        },
        {
          "internalType": "uint256",
          "name": "",
          "type": "uint256"
        },
        {
          "internalType": "uint256",
          "name": "",
          "type": "uint256"
        },
        {
          "internalType": "uint256",
          "name": "",
          "type": "uint256"
        }
      ],
      "stateMutability": "view",
      "type": "function"
    },
    {
      "inputs": [
        {
          "internalType": "address",
          "name": "_holderAddress",
          "type": "address"
        }
      ],
      "name": "getPendingWithdrawInfo",
      "outputs": [
        {
          "internalType": "uint256",
          "name": "",
          "type": "uint256"
        },
        {
          "internalType": "uint256",
          "name": "",
          "type": "uint256"
        },
        {
          "internalType": "uint256",
          "name": "",
          "type": "uint256"
        }
      ],
      "stateMutability": "view",
      "type": "function"
    },
    {
      "inputs": [
        {
          "internalType": "address",
          "name": "wallet",
          "type": "address"
        }
      ],
      "name": "getUserLastDistributed",
      "outputs": [
        {
          "internalType": "uint256",
          "name": "",
          "type": "uint256"
        }
      ],
      "stateMutability": "view",
      "type": "function"
    },
    {
      "inputs": [
        {
          "internalType": "uint256",
          "name": "exponent",
          "type": "uint256"
        }
      ],
      "name": "decayExponent",
      "outputs": [
        {
          "internalType": "uint256",
          "name": "",
          "type": "uint256"
        }
      ],
      "stateMutability": "pure",
      "type": "function"
    },
    {
      "inputs": [
        {
          "internalType": "uint256",
          "name": "blockX",
          "type": "uint256"
        },
        {
          "internalType": "uint256",
          "name": "blockY",
          "type": "uint256"
        }
      ],
      "name": "calcBaconBetweenEvents",
      "outputs": [
        {
          "internalType": "uint256",
          "name": "",
          "type": "uint256"
        }
      ],
      "stateMutability": "view",
      "type": "function"
    },
    {
      "inputs": [
        {
          "internalType": "address",
          "name": "wallet",
          "type": "address"
        }
      ],
      "name": "distribute",
      "outputs": [
        {
          "internalType": "uint256",
          "name": "",
          "type": "uint256"
        }
      ],
      "stateMutability": "nonpayable",
      "type": "function"
    },
    {
      "inputs": [
        {
          "internalType": "address",
          "name": "wallet",
          "type": "address"
        }
      ],
      "name": "checkStaked",
      "outputs": [
        {
          "internalType": "uint256",
          "name": "",
          "type": "uint256"
        }
      ],
      "stateMutability": "view",
      "type": "function"
    },
    {
      "inputs": [
        {
          "internalType": "uint256",
          "name": "amount",
          "type": "uint256"
        }
      ],
      "name": "unstake",
      "outputs": [
        {
          "internalType": "uint256",
          "name": "",
          "type": "uint256"
        }
      ],
      "stateMutability": "nonpayable",
      "type": "function"
    },
    {
      "inputs": [
        {
          "internalType": "uint256",
          "name": "amount",
          "type": "uint256"
        }
      ],
      "name": "withdraw",
      "outputs": [
        {
          "internalType": "uint256",
          "name": "",
          "type": "uint256"
        }
      ],
      "stateMutability": "nonpayable",
      "type": "function"
    },
    {
      "inputs": [],
      "name": "getEvents",
      "outputs": [
        {
          "internalType": "uint256[]",
          "name": "",
          "type": "uint256[]"
        },
        {
          "internalType": "uint256[]",
          "name": "",
          "type": "uint256[]"
        }
      ],
      "stateMutability": "view",
      "type": "function"
    },
    {
      "inputs": [
        {
          "internalType": "address",
          "name": "newMinter",
          "type": "address"
        }
      ],
      "name": "transferMintRights",
      "outputs": [],
      "stateMutability": "nonpayable",
      "type": "function"
    },
    {
      "inputs": [
        {
          "internalType": "address",
          "name": "newContract",
          "type": "address"
        }
      ],
      "name": "setNewStakingContract",
      "outputs": [],
      "stateMutability": "nonpayable",
      "type": "function"
    },
    {
      "inputs": [
        {
          "internalType": "address",
          "name": "stakingCore",
          "type": "address"
        },
        {
          "internalType": "address[]",
          "name": "recepients",
          "type": "address[]"
        },
        {
          "internalType": "uint256[]",
          "name": "amounts",
          "type": "uint256[]"
        },
        {
          "internalType": "uint256",
          "name": "length",
          "type": "uint256"
        }
      ],
      "name": "transferAllStakes",
      "outputs": [],
      "stateMutability": "nonpayable",
      "type": "function"
    }
  ],
  "bytecode": "0x608060405234801561001057600080fd5b50611338806100206000396000f3fe608060405234801561001057600080fd5b50600436106101825760003560e01c806363453ae1116100d8578063a68d66d11161008c578063ba17cef311610066578063ba17cef314610376578063dbe0090c14610389578063f3e0ae5d1461039c57600080fd5b8063a68d66d11461031a578063acc3a93914610343578063b8160d741461036357600080fd5b80637cc1f867116100bd5780637cc1f867146102d7578063965afa89146102f45780639a377b821461030757600080fd5b806363453ae1146102b157806373633024146102c457600080fd5b80632e1a7d4d1161013a578063465dbdb711610114578063465dbdb7146102775780634c3fb3b51461028a57806354fd4d50146102aa57600080fd5b80632e1a7d4d1461023a57806331d8c9161461024e578063404aa8f91461026157600080fd5b8063247f8e141161016b578063247f8e14146101af5780632a99fbff146101d55780632e17de781461022757600080fd5b80630296108b146101875780630b8fe3181461019c575b600080fd5b61019a610195366004610ffe565b6103af565b005b61019a6101aa3660046110d8565b6105e0565b6101c26101bd3660046110f1565b610633565b6040519081526020015b60405180910390f35b61020c6101e33660046110f1565b6001600160a01b03166000908152600e602052604090208054600190910154600f549192909190565b604080519384526020840192909252908201526060016101cc565b6101c26102353660046110d8565b6106d0565b6101c26102483660046110d8565b50600090565b6101c261025c36600461110c565b6107b4565b6102696108a1565b6040516101cc929190611169565b6101c26102853660046110d8565b610954565b6101c26102983660046110f1565b600b6020526000908152604090205481565b60046101c2565b6101c26102bf3660046110f1565b6109c1565b61019a6102d23660046110d8565b610a36565b6102df610a89565b6040516101cc99989796959493929190611197565b61019a6103023660046110f1565b610b64565b61019a6103153660046110f1565b610bff565b6101c26103283660046110f1565b6001600160a01b03166000908152600b602052604090205490565b6101c26103513660046110f1565b600a6020526000908152604090205481565b61019a6103713660046110d8565b610c88565b61019a6103843660046110f1565b610cdb565b61019a6103973660046110f1565b610dab565b61019a6103aa3660046110f1565b610e46565b6002546001600160a01b0316331461040e5760405162461bcd60e51b815260206004820152601e60248201527f506f6f6c5374616b696e673a20756e617070726f7665642073656e646572000060448201526064015b60405180910390fd5b60005b818110156105d957600560008154811061042d5761042d611228565b9060005260206000200160009054906101000a90046001600160a01b03166001600160a01b031663a9059cbb8685848151811061046c5761046c611228565b60200260200101516040518363ffffffff1660e01b81526004016104a59291906001600160a01b03929092168252602082015260400190565b602060405180830381600087803b1580156104bf57600080fd5b505af11580156104d3573d6000803e3d6000fd5b505050506040513d601f19601f820116820180604052508101906104f7919061123e565b5060125484516001600160a01b039091169063adc9772e9086908490811061052157610521611228565b602002602001015185848151811061053b5761053b611228565b60200260200101516040518363ffffffff1660e01b81526004016105749291906001600160a01b03929092168252602082015260400190565b602060405180830381600087803b15801561058e57600080fd5b505af11580156105a2573d6000803e3d6000fd5b505050506040513d601f19601f820116820180604052508101906105c6919061123e565b50806105d181611276565b915050610411565b5050505050565b6002546001600160a01b0316331461062e5760405162461bcd60e51b81526020600482015260116024820152703ab730b8383937bb32b21039b2b73232b960791b6044820152606401610405565b600c55565b6012546040517f440277e80000000000000000000000000000000000000000000000000000000081526001600160a01b038381166004830152600092169063440277e89060240160206040518083038186803b15801561069257600080fd5b505afa1580156106a6573d6000803e3d6000fd5b505050506040513d601f19601f820116820180604052508101906106ca9190611291565b92915050565b6000600260115414156107255760405162461bcd60e51b815260206004820152601f60248201527f5265656e7472616e637947756172643a207265656e7472616e742063616c6c006044820152606401610405565b60026011556012546040517f6a7b408b000000000000000000000000000000000000000000000000000000008152336004820152602481018490526001600160a01b0390911690636a7b408b90604401600060405180830381600087803b15801561078f57600080fd5b505af11580156107a3573d6000803e3d6000fd5b505060016011555060009392505050565b60006107cb600c5484610ec390919063ffffffff16565b92506107e2600c5483610ec390919063ffffffff16565b9150670de0b6b3a7640000806108146802b5e3af16b188000061080e61080787610954565b8590610ec3565b90610ed6565b91506108366802b5e3af16b188000061080e61082f88610954565b8490610ec3565b905060006108636c02d4dfe71e9fc3b3dddd20000061085d85670de0b6b3a7640000610ed6565b90610ee2565b9050600061088a6c02d4dfe71e9fc3b3dddd20000061085d85670de0b6b3a7640000610ed6565b90506108968282610ec3565b979650505050505050565b60608060066007818054806020026020016040519081016040528092919081815260200182805480156108f357602002820191906000526020600020905b8154815260200190600101908083116108df575b505050505091508080548060200260200160405190810160405280929190818152602001828054801561094557602002820191906000526020600020905b815481526020019060010190808311610931575b50505050509050915091509091565b60008161096a5750670de0b6b3a7640000919050565b670de0b67f6e119d0060005b6109816001856112aa565b8110156109ba576109a6670de0b6e7e0b7278661085d84670de0b6b3a7640000610ed6565b9150806109b281611276565b915050610976565b5092915050565b6012546040517f0e020b250000000000000000000000000000000000000000000000000000000081526001600160a01b0383811660048301526000921690630e020b2590602401602060405180830381600087803b158015610a2257600080fd5b505af11580156106a6573d6000803e3d6000fd5b6002546001600160a01b03163314610a845760405162461bcd60e51b81526020600482015260116024820152703ab730b8383937bb32b21039b2b73232b960791b6044820152606401610405565b600155565b600080600080600060606000806000600154600c54600260009054906101000a90046001600160a01b0316600360009054906101000a90046001600160a01b0316600460009054906101000a90046001600160a01b03166005600854600954600f5483805480602002602001604051908101604052809291908181526020018280548015610b4057602002820191906000526020600020905b81546001600160a01b03168152600190910190602001808311610b22575b50505050509350985098509850985098509850985098509850909192939495969798565b6002546001600160a01b03163314610bb25760405162461bcd60e51b81526020600482015260116024820152703ab730b8383937bb32b21039b2b73232b960791b6044820152606401610405565b600380546001600160a01b039081166000908152600b6020526040808220549490921680825291902092909255805473ffffffffffffffffffffffffffffffffffffffff19169091179055565b6002546001600160a01b03163314610c595760405162461bcd60e51b815260206004820152601e60248201527f506f6f6c5374616b696e673a20756e617070726f7665642073656e64657200006044820152606401610405565b6012805473ffffffffffffffffffffffffffffffffffffffff19166001600160a01b0392909216919091179055565b6002546001600160a01b03163314610cd65760405162461bcd60e51b81526020600482015260116024820152703ab730b8383937bb32b21039b2b73232b960791b6044820152606401610405565b600d55565b6002546001600160a01b03163314610d355760405162461bcd60e51b815260206004820152601e60248201527f506f6f6c5374616b696e673a20756e617070726f7665642073656e64657200006044820152606401610405565b600480546040517f9dd373b90000000000000000000000000000000000000000000000000000000081526001600160a01b0384811693820193909352911690639dd373b990602401600060405180830381600087803b158015610d9757600080fd5b505af11580156105d9573d6000803e3d6000fd5b6002546001600160a01b03163314610df95760405162461bcd60e51b81526020600482015260116024820152703ab730b8383937bb32b21039b2b73232b960791b6044820152606401610405565b600280546001600160a01b039081166000908152600b6020526040808220549490921680825291902092909255805473ffffffffffffffffffffffffffffffffffffffff19169091179055565b6002546001600160a01b03163314610e945760405162461bcd60e51b81526020600482015260116024820152703ab730b8383937bb32b21039b2b73232b960791b6044820152606401610405565b6004805473ffffffffffffffffffffffffffffffffffffffff19166001600160a01b0392909216919091179055565b6000610ecf82846112aa565b9392505050565b6000610ecf82846112c1565b6000610ecf82846112e0565b80356001600160a01b0381168114610f0557600080fd5b919050565b634e487b7160e01b600052604160045260246000fd5b604051601f82017fffffffffffffffffffffffffffffffffffffffffffffffffffffffffffffffe016810167ffffffffffffffff81118282101715610f6757610f67610f0a565b604052919050565b600067ffffffffffffffff821115610f8957610f89610f0a565b5060051b60200190565b600082601f830112610fa457600080fd5b81356020610fb9610fb483610f6f565b610f20565b82815260059290921b84018101918181019086841115610fd857600080fd5b8286015b84811015610ff35780358352918301918301610fdc565b509695505050505050565b6000806000806080858703121561101457600080fd5b61101d85610eee565b935060208086013567ffffffffffffffff8082111561103b57600080fd5b818801915088601f83011261104f57600080fd5b813561105d610fb482610f6f565b81815260059190911b8301840190848101908b83111561107c57600080fd5b938501935b828510156110a15761109285610eee565b82529385019390850190611081565b9750505060408801359250808311156110b957600080fd5b50506110c787828801610f93565b949793965093946060013593505050565b6000602082840312156110ea57600080fd5b5035919050565b60006020828403121561110357600080fd5b610ecf82610eee565b6000806040838503121561111f57600080fd5b50508035926020909101359150565b600081518084526020808501945080840160005b8381101561115e57815187529582019590820190600101611142565b509495945050505050565b60408152600061117c604083018561112e565b828103602084015261118e818561112e565b95945050505050565b89815260208082018a90526001600160a01b0389811660408401528881166060840152878116608084015261012060a08401819052875190840181905260009261014085019289820192855b818110156112015784518316865294830194938301936001016111e3565b505050505060c08301959095525060e0810192909252610100909101529695505050505050565b634e487b7160e01b600052603260045260246000fd5b60006020828403121561125057600080fd5b81518015158114610ecf57600080fd5b634e487b7160e01b600052601160045260246000fd5b600060001982141561128a5761128a611260565b5060010190565b6000602082840312156112a357600080fd5b5051919050565b6000828210156112bc576112bc611260565b500390565b60008160001904831182151516156112db576112db611260565b500290565b6000826112fd57634e487b7160e01b600052601260045260246000fd5b50049056fea2646970667358221220a75eb4af8b1ff6d92dca0212a95610b26d7b485e10c9a25f530ae2773204dd1164736f6c63430008090033",
  "compiler": {
    "name": "solc",
    "version": "0.8.9+commit.e5eed63a.Emscripten.clang"
  },
  "contractName": "PoolStaking4",
  "devdoc": {
    "kind": "dev",
    "methods": {
      "distribute(address)": {
        "details": "function distribute accepts a wallet address and transfers the BaconCoin accrued to their wallet since the user's Last Distribution"
      },
      "unstake(uint256)": {
        "details": "Function unstake begins the process of withdrawing staked value. After a timeout,    the amount will be available to withdraw. If you calling account already has an unstake pending   the new amount will be added to the pending amount and the timeout will reset."
      },
      "version()": {
        "details": "Function version returns uint depending on what version the contract is on"
      },
      "withdraw(uint256)": {
        "details": "Function withdraw moves tokens that were unstaked by the caller to the caller's wallet"
      }
    },
    "version": 1
  },
  "immutableReferences": {},
  "schemaVersion": "3.4.7",
  "source": "// SPDX-License-Identifier: GPL-3.0-or-later\npragma solidity ^0.8.4;\n\nimport \"./../@openzeppelin/contracts-upgradeable/proxy/utils/Initializable.sol\";\nimport \"./../@openzeppelin/contracts-upgradeable/token/ERC20/ERC20Upgradeable.sol\";\nimport './../BaconCoin/BaconCoin3.sol';\nimport './../PoolStakingRewards/PoolStakingRewards0.sol';\nimport './../PoolCore/Pool10.sol';\n\n\nimport './../@openzeppelin/contracts/utils/math/SafeMath.sol';\nimport './../@openzeppelin/contracts/utils/math/SignedSafeMath.sol';\n\ncontract PoolStaking4 is Initializable {\n    using SignedSafeMath for int256;\n    using SafeMath for uint256;\n\n    uint256 constant PER_BLOCK_DECAY_18_DECIMALS = 999999775700000000;\n    uint256 constant PER_BLOCK_DECAY_INVERSE = 1000000224300050310;\n    uint256 constant DENOM = 224337829e21;\n    uint256 constant GUARDIAN_REWARD = 39e18;\n    uint256 constant DAO_REWARD = 18e18;\n    uint256 constant COMMUNITY_REWARD = 50e18;\n    uint256 constant COMMUNITY_REWARD_BONUS = 100e18;\n\n    uint256 stakeAfterBlock;\n    address guardianAddress;\n    address daoAddress;\n    address baconCoinAddress;\n    address[] poolAddresses;\n\n    uint256[] updateEventBlockNumber;\n    uint256[] updateEventNewAmountStaked;\n    uint256 updateEventCount;\n    uint256 currentStakedAmount;\n\n    mapping(address => uint256) public userStaked;\n    mapping(address => uint256) public userLastDistribution;\n\n    uint256 oneYearBlock;\n\n    struct UnstakeRecord {\n        uint256 endBlock;\n        uint256 amount;\n    }\n\n    // PoolStaking2 storage\n    uint256 unstakingLockupBlockDelta;\n    mapping(address => UnstakeRecord) userToUnstake;\n    uint256 pendingWithdrawalAmount;\n\n    //PoolStaking3 storage for nonReentrant modifier\n    //modifier and variables could not be imported via inheratance given upgradability rules\n    mapping(address => bool) isApprovedPool;\n    uint256 private constant _NOT_ENTERED = 1;\n    uint256 private constant _ENTERED = 2;\n    uint256 private _status;\n\n    //PoolStaking4 storage\n    address newStakingContract;\n\n    /**\n     * @dev Prevents a contract from calling itself, directly or indirectly.\n     * Calling a `nonReentrant` function from another `nonReentrant`\n     * function is not supported. It is possible to prevent this from happening\n     * by making the `nonReentrant` function external, and making it call a\n     * `private` function that does the actual work.\n     */\n    modifier nonReentrant() {\n        // On the first call to nonReentrant, _notEntered will be true\n        require(_status != _ENTERED, \"ReentrancyGuard: reentrant call\");\n\n        // Any calls to nonReentrant after this point will fail\n        _status = _ENTERED;\n        _;\n\n        // By storing the original value once again, a refund is triggered (see\n        // https://eips.ethereum.org/EIPS/eip-2200)\n        _status = _NOT_ENTERED;\n    }\n\n    // TODO: maybe this should just be a normal setter like the rest in this block...\n    function setUnstakingLockupBlockDelta(uint256 _unstakingLockupBlockDelta) public {\n        require(msg.sender == guardianAddress, \"unapproved sender\");\n        unstakingLockupBlockDelta = _unstakingLockupBlockDelta;\n    }\n\n    function setOneYearBlock(uint256 _oneYearBlock) public {\n        require(msg.sender == guardianAddress, \"unapproved sender\");\n        oneYearBlock = _oneYearBlock;\n    }\n\n    function setstakeAfterBlock(uint256 _stakeAfterBlock) public {\n        require(msg.sender == guardianAddress, \"unapproved sender\");\n        stakeAfterBlock = _stakeAfterBlock;\n    }\n\n    // To be called after baconCoin0 is deployed\n    function setBaconAddress(address _baconCoinAddress) public {\n        require(msg.sender == guardianAddress, \"unapproved sender\");\n        baconCoinAddress = _baconCoinAddress;\n    }\n\n    // To be called after baconCoin0 is deployed\n    function setDAOAddress(address _DAOAddress) public {\n        require(msg.sender == guardianAddress, \"unapproved sender\");\n        userLastDistribution[_DAOAddress] =  userLastDistribution[daoAddress];\n        daoAddress = _DAOAddress;\n    }\n\n    function setGuardianAddress(address _guardianAddress) public {\n        require(msg.sender == guardianAddress, \"unapproved sender\");\n        userLastDistribution[_guardianAddress] =  userLastDistribution[guardianAddress];\n        guardianAddress = _guardianAddress;\n    }\n\n    /**  \n    *   @dev Function version returns uint depending on what version the contract is on\n    */\n    function version() public pure returns (uint) {\n        return 4;\n    }\n\n    function getContractInfo() public view returns (uint256, uint256, address, address, address, address  [] memory, uint256, uint256, uint256) {\n        return (\n            stakeAfterBlock,\n            oneYearBlock,\n            guardianAddress,\n            daoAddress,\n            baconCoinAddress,\n            poolAddresses,\n            updateEventCount,\n            currentStakedAmount,\n            pendingWithdrawalAmount\n        );\n    }\n\n    function getPendingWithdrawInfo(address _holderAddress) public view returns(uint256, uint256, uint256) {\n        return (\n            userToUnstake[_holderAddress].endBlock,\n            userToUnstake[_holderAddress].amount,\n            pendingWithdrawalAmount\n        );\n    }\n\n    function getUserLastDistributed(address wallet) public view returns (uint256) {\n        return (userLastDistribution[wallet]);\n    }\n\n    /*****************************************************\n    *       Staking FUNCTIONS\n    ******************************************************/\n\n    function decayExponent(uint256 exponent) public pure returns (uint256) {\n        //18 decimals\n        if (exponent == 0) {\n            return 1e18;\n        }\n\n        uint256 answer = PER_BLOCK_DECAY_18_DECIMALS;\n        for (uint256 i = 0; i < exponent-1; i++) {\n            answer = answer.mul(1e18).div(PER_BLOCK_DECAY_INVERSE);\n        }\n\n        return answer;\n    }\n\n    function calcBaconBetweenEvents(uint256 blockX, uint256 blockY) public view returns (uint256) {\n        //bacon per block after first year is\n        //y=50(1-0.000000224337829000)^{x}\n        //where x is number of blocks over 15651074\n\n        //Bacon accumulated between two blocksover first year is:\n        //S(x,y) = S(y) - S(x) = (A1(1-r^y) / (1-r)) - (A1(1-r^x) / (1-r))\n        //where A1 = 50 and r = 0.9999997757\n\n        //1 year block subtracted from block numbers passed in since formula only cares about change in time since that point\n        blockX = blockX.sub(oneYearBlock);\n        blockY = blockY.sub(oneYearBlock);\n\n        uint256 SyNumer = 1e18;\n        uint256 SxNumer = 1e18;\n\n        SyNumer = SyNumer.sub(decayExponent(blockY)).mul(COMMUNITY_REWARD);\n        SxNumer = SxNumer.sub(decayExponent(blockX)).mul(COMMUNITY_REWARD);\n\n        uint256 Sy = SyNumer.mul(1e18).div(DENOM);\n        uint256 Sx = SxNumer.mul(1e18).div(DENOM);\n\n        return Sy.sub(Sx);\n    }\n\n\n    /**\n    *   @dev function distribute accepts a wallet address and transfers the BaconCoin accrued to their wallet since the user's Last Distribution\n    */\n    function distribute(address wallet) public returns (uint256) {\n        // Forward to the new staking contract\n        return PoolStakingRewards0(newStakingContract).massHarvest(wallet);\n    }\n\n\n    function checkStaked(address wallet) public view returns (uint256) {\n        return PoolStakingRewards0(newStakingContract).getCurrentBalance(wallet);\n    }\n\n    /**\n    *   @dev Function unstake begins the process of withdrawing staked value. After a timeout, \n    *   the amount will be available to withdraw. If you calling account already has an unstake pending\n    *   the new amount will be added to the pending amount and the timeout will reset.\n    */\n    function unstake(uint256 amount) public nonReentrant returns (uint256) {\n        PoolStakingRewards0(newStakingContract).unstakeForWallet(msg.sender, amount);\n        return 0;\n    }\n\n    /**  \n    *   @dev Function withdraw moves tokens that were unstaked by the caller to the caller's wallet\n    */\n    function withdraw(uint256 amount) public returns (uint256) {\n        // Disabled for new staking\n        return 0;\n    }\n\n    function getEvents() public view returns (uint256  [] memory, uint256  [] memory) {\n        return (updateEventBlockNumber, updateEventNewAmountStaked);\n    }\n\n    function transferMintRights(address newMinter) public {\n        require(msg.sender == guardianAddress, \"PoolStaking: unapproved sender\");\n        BaconCoin3(baconCoinAddress).setStakingContract(newMinter);\n    }\n\n    function setNewStakingContract(address newContract) public {\n        require(msg.sender == guardianAddress, \"PoolStaking: unapproved sender\");\n        newStakingContract = newContract;\n    }\n\n    function transferAllStakes(address stakingCore, address[] memory recepients, uint256[] memory amounts, uint256 length) public {\n        require(msg.sender == guardianAddress, \"PoolStaking: unapproved sender\");\n\n        for (uint256 i = 0; i < length; i++) {\n            Pool10(poolAddresses[0]).transfer(stakingCore, amounts[i]); \n            PoolStakingRewards0(newStakingContract).stake(recepients[i], amounts[i]);\n        }\n    }\n\n}",
  "sourcePath": "/src/contracts/PoolStaking/PoolStaking4.sol",
  "updatedAt": "2022-10-12T17:10:54.399Z",
  "userdoc": {
    "kind": "user",
    "methods": {},
    "version": 1
  }
}