{
  "contractName": "Pool6",
  "abi": [
    {
      "anonymous": false,
      "inputs": [
        {
          "indexed": true,
          "internalType": "address",
          "name": "owner",
          "type": "address"
        },
        {
          "indexed": true,
          "internalType": "address",
          "name": "spender",
          "type": "address"
        },
        {
          "indexed": false,
          "internalType": "uint256",
          "name": "value",
          "type": "uint256"
        }
      ],
      "name": "Approval",
      "type": "event"
    },
    {
      "anonymous": false,
      "inputs": [
        {
          "indexed": true,
          "internalType": "address",
          "name": "operator",
          "type": "address"
        },
        {
          "indexed": true,
          "internalType": "address",
          "name": "tokenHolder",
          "type": "address"
        }
      ],
      "name": "AuthorizedOperator",
      "type": "event"
    },
    {
      "anonymous": false,
      "inputs": [
        {
          "indexed": true,
          "internalType": "address",
          "name": "operator",
          "type": "address"
        },
        {
          "indexed": true,
          "internalType": "address",
          "name": "from",
          "type": "address"
        },
        {
          "indexed": false,
          "internalType": "uint256",
          "name": "amount",
          "type": "uint256"
        },
        {
          "indexed": false,
          "internalType": "bytes",
          "name": "data",
          "type": "bytes"
        },
        {
          "indexed": false,
          "internalType": "bytes",
          "name": "operatorData",
          "type": "bytes"
        }
      ],
      "name": "Burned",
      "type": "event"
    },
    {
      "anonymous": false,
      "inputs": [
        {
          "indexed": true,
          "internalType": "address",
          "name": "operator",
          "type": "address"
        },
        {
          "indexed": true,
          "internalType": "address",
          "name": "to",
          "type": "address"
        },
        {
          "indexed": false,
          "internalType": "uint256",
          "name": "amount",
          "type": "uint256"
        },
        {
          "indexed": false,
          "internalType": "bytes",
          "name": "data",
          "type": "bytes"
        },
        {
          "indexed": false,
          "internalType": "bytes",
          "name": "operatorData",
          "type": "bytes"
        }
      ],
      "name": "Minted",
      "type": "event"
    },
    {
      "anonymous": false,
      "inputs": [
        {
          "indexed": true,
          "internalType": "address",
          "name": "operator",
          "type": "address"
        },
        {
          "indexed": true,
          "internalType": "address",
          "name": "tokenHolder",
          "type": "address"
        }
      ],
      "name": "RevokedOperator",
      "type": "event"
    },
    {
      "anonymous": false,
      "inputs": [
        {
          "indexed": true,
          "internalType": "address",
          "name": "operator",
          "type": "address"
        },
        {
          "indexed": true,
          "internalType": "address",
          "name": "from",
          "type": "address"
        },
        {
          "indexed": true,
          "internalType": "address",
          "name": "to",
          "type": "address"
        },
        {
          "indexed": false,
          "internalType": "uint256",
          "name": "amount",
          "type": "uint256"
        },
        {
          "indexed": false,
          "internalType": "bytes",
          "name": "data",
          "type": "bytes"
        },
        {
          "indexed": false,
          "internalType": "bytes",
          "name": "operatorData",
          "type": "bytes"
        }
      ],
      "name": "Sent",
      "type": "event"
    },
    {
      "anonymous": false,
      "inputs": [
        {
          "indexed": true,
          "internalType": "address",
          "name": "from",
          "type": "address"
        },
        {
          "indexed": true,
          "internalType": "address",
          "name": "to",
          "type": "address"
        },
        {
          "indexed": false,
          "internalType": "uint256",
          "name": "value",
          "type": "uint256"
        }
      ],
      "name": "Transfer",
      "type": "event"
    },
    {
      "inputs": [
        {
          "internalType": "address",
          "name": "holder",
          "type": "address"
        },
        {
          "internalType": "address",
          "name": "spender",
          "type": "address"
        }
      ],
      "name": "allowance",
      "outputs": [
        {
          "internalType": "uint256",
          "name": "",
          "type": "uint256"
        }
      ],
      "stateMutability": "view",
      "type": "function"
    },
    {
      "inputs": [
        {
          "internalType": "address",
          "name": "spender",
          "type": "address"
        },
        {
          "internalType": "uint256",
          "name": "value",
          "type": "uint256"
        }
      ],
      "name": "approve",
      "outputs": [
        {
          "internalType": "bool",
          "name": "",
          "type": "bool"
        }
      ],
      "stateMutability": "nonpayable",
      "type": "function"
    },
    {
      "inputs": [
        {
          "internalType": "address",
          "name": "operator",
          "type": "address"
        }
      ],
      "name": "authorizeOperator",
      "outputs": [],
      "stateMutability": "nonpayable",
      "type": "function"
    },
    {
      "inputs": [
        {
          "internalType": "address",
          "name": "tokenHolder",
          "type": "address"
        }
      ],
      "name": "balanceOf",
      "outputs": [
        {
          "internalType": "uint256",
          "name": "",
          "type": "uint256"
        }
      ],
      "stateMutability": "view",
      "type": "function"
    },
    {
      "inputs": [
        {
          "internalType": "uint256",
          "name": "amount",
          "type": "uint256"
        },
        {
          "internalType": "bytes",
          "name": "data",
          "type": "bytes"
        }
      ],
      "name": "burn",
      "outputs": [],
      "stateMutability": "nonpayable",
      "type": "function"
    },
    {
      "inputs": [],
      "name": "defaultOperators",
      "outputs": [
        {
          "internalType": "address[]",
          "name": "",
          "type": "address[]"
        }
      ],
      "stateMutability": "view",
      "type": "function"
    },
    {
      "inputs": [],
      "name": "granularity",
      "outputs": [
        {
          "internalType": "uint256",
          "name": "",
          "type": "uint256"
        }
      ],
      "stateMutability": "view",
      "type": "function"
    },
    {
      "inputs": [
        {
          "internalType": "address",
          "name": "operator",
          "type": "address"
        },
        {
          "internalType": "address",
          "name": "tokenHolder",
          "type": "address"
        }
      ],
      "name": "isOperatorFor",
      "outputs": [
        {
          "internalType": "bool",
          "name": "",
          "type": "bool"
        }
      ],
      "stateMutability": "view",
      "type": "function"
    },
    {
      "inputs": [
        {
          "internalType": "address",
          "name": "account",
          "type": "address"
        },
        {
          "internalType": "uint256",
          "name": "amount",
          "type": "uint256"
        },
        {
          "internalType": "bytes",
          "name": "data",
          "type": "bytes"
        },
        {
          "internalType": "bytes",
          "name": "operatorData",
          "type": "bytes"
        }
      ],
      "name": "operatorBurn",
      "outputs": [],
      "stateMutability": "nonpayable",
      "type": "function"
    },
    {
      "inputs": [
        {
          "internalType": "address",
          "name": "sender",
          "type": "address"
        },
        {
          "internalType": "address",
          "name": "recipient",
          "type": "address"
        },
        {
          "internalType": "uint256",
          "name": "amount",
          "type": "uint256"
        },
        {
          "internalType": "bytes",
          "name": "data",
          "type": "bytes"
        },
        {
          "internalType": "bytes",
          "name": "operatorData",
          "type": "bytes"
        }
      ],
      "name": "operatorSend",
      "outputs": [],
      "stateMutability": "nonpayable",
      "type": "function"
    },
    {
      "inputs": [
        {
          "internalType": "address",
          "name": "operator",
          "type": "address"
        }
      ],
      "name": "revokeOperator",
      "outputs": [],
      "stateMutability": "nonpayable",
      "type": "function"
    },
    {
      "inputs": [
        {
          "internalType": "address",
          "name": "recipient",
          "type": "address"
        },
        {
          "internalType": "uint256",
          "name": "amount",
          "type": "uint256"
        },
        {
          "internalType": "bytes",
          "name": "data",
          "type": "bytes"
        }
      ],
      "name": "send",
      "outputs": [],
      "stateMutability": "nonpayable",
      "type": "function"
    },
    {
      "inputs": [],
      "name": "totalSupply",
      "outputs": [
        {
          "internalType": "uint256",
          "name": "",
          "type": "uint256"
        }
      ],
      "stateMutability": "view",
      "type": "function"
    },
    {
      "inputs": [
        {
          "internalType": "address",
          "name": "recipient",
          "type": "address"
        },
        {
          "internalType": "uint256",
          "name": "amount",
          "type": "uint256"
        }
      ],
      "name": "transfer",
      "outputs": [
        {
          "internalType": "bool",
          "name": "",
          "type": "bool"
        }
      ],
      "stateMutability": "nonpayable",
      "type": "function"
    },
    {
      "inputs": [
        {
          "internalType": "address",
          "name": "holder",
          "type": "address"
        },
        {
          "internalType": "address",
          "name": "recipient",
          "type": "address"
        },
        {
          "internalType": "uint256",
          "name": "amount",
          "type": "uint256"
        }
      ],
      "name": "transferFrom",
      "outputs": [
        {
          "internalType": "bool",
          "name": "",
          "type": "bool"
        }
      ],
      "stateMutability": "nonpayable",
      "type": "function"
    },
    {
      "inputs": [],
      "name": "name",
      "outputs": [
        {
          "internalType": "string",
          "name": "",
          "type": "string"
        }
      ],
      "stateMutability": "view",
      "type": "function"
    },
    {
      "inputs": [],
      "name": "symbol",
      "outputs": [
        {
          "internalType": "string",
          "name": "",
          "type": "string"
        }
      ],
      "stateMutability": "view",
      "type": "function"
    },
    {
      "inputs": [],
      "name": "decimals",
      "outputs": [
        {
          "internalType": "uint8",
          "name": "",
          "type": "uint8"
        }
      ],
      "stateMutability": "pure",
      "type": "function"
    },
    {
      "inputs": [
        {
          "internalType": "address[]",
          "name": "_servicerAddresses",
          "type": "address[]"
        }
      ],
      "name": "setApprovedAddresses",
      "outputs": [],
      "stateMutability": "nonpayable",
      "type": "function"
    },
    {
      "inputs": [],
      "name": "getContractData",
      "outputs": [
        {
          "internalType": "address",
          "name": "",
          "type": "address"
        },
        {
          "internalType": "address",
          "name": "",
          "type": "address"
        },
        {
          "internalType": "uint256",
          "name": "",
          "type": "uint256"
        },
        {
          "internalType": "uint256",
          "name": "",
          "type": "uint256"
        },
        {
          "internalType": "uint256",
          "name": "",
          "type": "uint256"
        },
        {
          "internalType": "uint256",
          "name": "",
          "type": "uint256"
        }
      ],
      "stateMutability": "view",
      "type": "function"
    },
    {
      "inputs": [],
      "name": "getLoanCount",
      "outputs": [
        {
          "internalType": "uint256",
          "name": "",
          "type": "uint256"
        }
      ],
      "stateMutability": "view",
      "type": "function"
    },
    {
      "inputs": [],
      "name": "getSupplyableTokenAddress",
      "outputs": [
        {
          "internalType": "address",
          "name": "",
          "type": "address"
        }
      ],
      "stateMutability": "view",
      "type": "function"
    },
    {
      "inputs": [],
      "name": "getServicerAddress",
      "outputs": [
        {
          "internalType": "address",
          "name": "",
          "type": "address"
        }
      ],
      "stateMutability": "view",
      "type": "function"
    },
    {
      "inputs": [
        {
          "internalType": "uint256",
          "name": "loanId",
          "type": "uint256"
        }
      ],
      "name": "getLoanDetails",
      "outputs": [
        {
          "internalType": "uint256",
          "name": "",
          "type": "uint256"
        },
        {
          "internalType": "address",
          "name": "",
          "type": "address"
        },
        {
          "internalType": "uint256",
          "name": "",
          "type": "uint256"
        },
        {
          "internalType": "uint256",
          "name": "",
          "type": "uint256"
        },
        {
          "internalType": "uint256",
          "name": "",
          "type": "uint256"
        },
        {
          "internalType": "uint256",
          "name": "",
          "type": "uint256"
        },
        {
          "internalType": "uint256",
          "name": "",
          "type": "uint256"
        }
      ],
      "stateMutability": "view",
      "type": "function"
    },
    {
      "inputs": [
        {
          "internalType": "uint256",
          "name": "loanId",
          "type": "uint256"
        }
      ],
      "name": "getLoanAccruedInterest",
      "outputs": [
        {
          "internalType": "uint256",
          "name": "",
          "type": "uint256"
        }
      ],
      "stateMutability": "view",
      "type": "function"
    },
    {
      "inputs": [
        {
          "internalType": "uint256",
          "name": "amount",
          "type": "uint256"
        }
      ],
      "name": "lend",
      "outputs": [
        {
          "internalType": "uint256",
          "name": "",
          "type": "uint256"
        }
      ],
      "stateMutability": "nonpayable",
      "type": "function"
    },
    {
      "inputs": [
        {
          "internalType": "uint256",
          "name": "amount",
          "type": "uint256"
        }
      ],
      "name": "redeem",
      "outputs": [],
      "stateMutability": "nonpayable",
      "type": "function"
    },
    {
      "inputs": [
        {
          "internalType": "uint256",
          "name": "amount",
          "type": "uint256"
        },
        {
          "internalType": "uint256",
          "name": "maxRate",
          "type": "uint256"
        },
        {
          "internalType": "uint256",
          "name": "propTokenId",
          "type": "uint256"
        }
      ],
      "name": "borrow",
      "outputs": [],
      "stateMutability": "nonpayable",
      "type": "function"
    },
    {
      "inputs": [
        {
          "internalType": "uint256",
          "name": "loanId",
          "type": "uint256"
        },
        {
          "internalType": "uint256",
          "name": "amount",
          "type": "uint256"
        }
      ],
      "name": "repay",
      "outputs": [],
      "stateMutability": "nonpayable",
      "type": "function"
    },
    {
      "inputs": [
        {
          "internalType": "uint256",
          "name": "amount",
          "type": "uint256"
        }
      ],
      "name": "stake",
      "outputs": [
        {
          "internalType": "bool",
          "name": "",
          "type": "bool"
        }
      ],
      "stateMutability": "nonpayable",
      "type": "function"
    },
    {
      "inputs": [
        {
          "internalType": "uint256",
          "name": "amount",
          "type": "uint256"
        }
      ],
      "name": "lendAndStake",
      "outputs": [
        {
          "internalType": "bool",
          "name": "",
          "type": "bool"
        }
      ],
      "stateMutability": "nonpayable",
      "type": "function"
    },
    {
      "inputs": [],
      "name": "getVersion",
      "outputs": [
        {
          "internalType": "uint256",
          "name": "",
          "type": "uint256"
        }
      ],
      "stateMutability": "pure",
      "type": "function"
    },
    {
      "inputs": [
        {
          "internalType": "address",
          "name": "",
          "type": "address"
        },
        {
          "internalType": "address",
          "name": "",
          "type": "address"
        },
        {
          "internalType": "uint256",
          "name": "",
          "type": "uint256"
        },
        {
          "internalType": "bytes",
          "name": "",
          "type": "bytes"
        }
      ],
      "name": "onERC721Received",
      "outputs": [
        {
          "internalType": "bytes4",
          "name": "",
          "type": "bytes4"
        }
      ],
      "stateMutability": "pure",
      "type": "function"
    }
  ],
  "bytecode": "0x608060405234801561001057600080fd5b506135fb806100206000396000f3fe608060405234801561001057600080fd5b506004361061020b5760003560e01c8063959b8c3f1161012a578063adf459ca116100bd578063dd62ed3e1161008c578063fad8b32a11610071578063fad8b32a14610541578063fc673c4f14610554578063fe9d93031461056757600080fd5b8063dd62ed3e146104f5578063e636eddc1461052e57600080fd5b8063adf459ca146104a9578063d8aed145146104bc578063d95b6371146104cf578063db006a75146104e257600080fd5b8063a68b91ab116100f9578063a68b91ab14610430578063a694fc3a14610470578063a6aa57ce14610483578063a9059cbb1461049657600080fd5b8063959b8c3f146103ef57806395d89b41146104025780639a5872f41461040a5780639bd9bbc61461041d57600080fd5b8063313ce567116101a257806366877b8d1161017157806366877b8d1461035257806370a08231146103a25780637e174eb4146103cb57806390b53e14146103de57600080fd5b8063313ce5671461031f578063521968121461032e578063556f0dc71461033657806362ad1b831461033d57600080fd5b8063150b7a02116101de578063150b7a021461027757806318160ddd146102df57806323b872dd146102e75780632f5e5d95146102fa57600080fd5b806306e485381461021057806306fdde031461022e578063095ea7b3146102435780630d8e6e2c14610266575b600080fd5b61021861057a565b6040516102259190612d08565b60405180910390f35b6102366105dc565b6040516102259190612dad565b610256610251366004612dd8565b610665565b6040519015158152602001610225565b60045b604051908152602001610225565b6102ae610285366004612ec9565b7f150b7a0200000000000000000000000000000000000000000000000000000000949350505050565b6040517fffffffff000000000000000000000000000000000000000000000000000000009091168152602001610225565b603454610269565b6102566102f5366004612f35565b61067f565b6066546001600160a01b03165b6040516001600160a01b039091168152602001610225565b60405160068152602001610225565b606c54610269565b6001610269565b61035061034b366004612f76565b6108c4565b005b610365610360366004613009565b610956565b604080519788526001600160a01b039096166020880152948601939093526060850191909152608084015260a083015260c082015260e001610225565b6102696103b0366004613022565b6001600160a01b031660009081526033602052604090205490565b6103506103d9366004613063565b610a19565b6065546001600160a01b0316610307565b6103506103fd366004613022565b610a47565b610236610b7e565b610269610418366004613009565b610b8d565b61035061042b3660046130fd565b610c74565b610438610c97565b604080516001600160a01b039788168152969095166020870152938501929092526060840152608083015260a082015260c001610225565b61025661047e366004613009565b610d71565b610269610491366004613009565b610e93565b6102566104a4366004612dd8565b610f42565b6103506104b7366004613156565b61104a565b6103506104ca366004613182565b611880565b6102566104dd3660046131a4565b611d5b565b6103506104f0366004613009565b611dfc565b6102696105033660046131a4565b6001600160a01b039182166000908152603b6020908152604080832093909416825291909152205490565b61025661053c366004613009565b611f46565b61035061054f366004613022565b611f5d565b6103506105623660046131dd565b612095565b610350610575366004613251565b61211d565b606060378054806020026020016040519081016040528092919081815260200182805480156105d257602002820191906000526020600020905b81546001600160a01b031681526001909101906020018083116105b4575b5050505050905090565b6060606d80546105eb90613298565b80601f016020809104026020016040519081016040528092919081815260200182805461061790613298565b80156105d25780601f10610639576101008083540402835291602001916105d2565b820191906000526020600020905b81548152906001019060200180831161064757509395945050505050565b600033610673818585612138565b60019150505b92915050565b60006001600160a01b0383166107015760405162461bcd60e51b8152602060048201526024808201527f4552433737373a207472616e7366657220746f20746865207a65726f2061646460448201527f726573730000000000000000000000000000000000000000000000000000000060648201526084015b60405180910390fd5b6001600160a01b03841661077d5760405162461bcd60e51b815260206004820152602660248201527f4552433737373a207472616e736665722066726f6d20746865207a65726f206160448201527f646472657373000000000000000000000000000000000000000000000000000060648201526084016106f8565b60003390506107ae818686866040518060200160405280600081525060405180602001604052806000815250612291565b6107da8186868660405180602001604052806000815250604051806020016040528060008152506123fa565b6001600160a01b038086166000908152603b6020908152604080832093851683529290522054838110156108765760405162461bcd60e51b815260206004820152602960248201527f4552433737373a207472616e7366657220616d6f756e7420657863656564732060448201527f616c6c6f77616e6365000000000000000000000000000000000000000000000060648201526084016106f8565b61088a868361088587856132e9565b612138565b6108b88287878760405180602001604052806000815250604051806020016040528060008152506000612576565b50600195945050505050565b6108ce3386611d5b565b6109405760405162461bcd60e51b815260206004820152602c60248201527f4552433737373a2063616c6c6572206973206e6f7420616e206f70657261746f60448201527f7220666f7220686f6c646572000000000000000000000000000000000000000060648201526084016106f8565b61094f8585858585600161278c565b5050505050565b600080600080600080600080606b898154811061097557610975613300565b600091825260208083206040805160c08101825260069094029091018054845260018101546001600160a01b03169284019290925260028201549083015260038101546060830152600481015460808301526005015460a082015291506109db8a610b8d565b60009a8b52606f602090815260409b8c9020548451918501519c850151606086015160a090960151929e909c50949a50919850965094509092505050565b6065546001600160a01b03163314610a3057600080fd5b8051610a43906067906020840190612c76565b5050565b336001600160a01b0382161415610ac55760405162461bcd60e51b8152602060048201526024808201527f4552433737373a20617574686f72697a696e672073656c66206173206f70657260448201527f61746f720000000000000000000000000000000000000000000000000000000060648201526084016106f8565b6001600160a01b03811660009081526038602052604090205460ff1615610b1657336000908152603a602090815260408083206001600160a01b03851684529091529020805460ff19169055610b45565b3360009081526039602090815260408083206001600160a01b03851684529091529020805460ff191660011790555b60405133906001600160a01b038316907ff4caeb2d6ca8932a215a353d0703c326ec2d81fc68170f320eb2ab49e9df61f990600090a350565b6060606e80546105eb90613298565b600080606b8381548110610ba357610ba3613300565b600091825260208083206040805160c08101825260069094029091018054845260018101546001600160a01b03169284019290925260028201549083015260038101546060830152600481015460808301526005015460a08201819052909250610c0e90429061288a565b90506000610c3b6301e28500610c358560400151866060015161289690919063ffffffff16565b906128a2565b90506000610c516305f5e100610c358486612896565b9050610c6a8460800151826128ae90919063ffffffff16565b9695505050505050565b610c923384848460405180602001604052806000815250600161278c565b505050565b606554606654606854607254604080517f7eb0d8b10000000000000000000000000000000000000000000000000000000081529051600095869586958695869586956001600160a01b03958616959485169490921691637eb0d8b191600480820192602092909190829003018186803b158015610d1357600080fd5b505afa158015610d27573d6000803e3d6000fd5b505050506040513d601f19601f82011682018060405250810190610d4b9190613316565b606854610d58919061332f565b606954606c54949b939a50919850965094509092509050565b33600090815260336020526040812054821115610dd05760405162461bcd60e51b815260206004820152601360248201527f6e6f7420656e6f75676820746f207374616b650000000000000000000000000060448201526064016106f8565b6074546040517fadc9772e000000000000000000000000000000000000000000000000000000008152336004820152602481018490526000916001600160a01b03169063adc9772e90604401602060405180830381600087803b158015610e3657600080fd5b505af1158015610e4a573d6000803e3d6000fd5b505050506040513d601f19601f82011682018060405250810190610e6e9190613347565b9050801561067957607454610e8c906001600160a01b031684610f42565b5092915050565b6066546040516323b872dd60e01b8152336004820152306024820152604481018390526000916001600160a01b0316906323b872dd90606401602060405180830381600087803b158015610ee657600080fd5b505af1158015610efa573d6000803e3d6000fd5b505050506040513d601f19601f82011682018060405250810190610f1e9190613347565b50606854610f2c90836128ae565b6068556000610f3b33846128ba565b9392505050565b60006001600160a01b038316610fbf5760405162461bcd60e51b8152602060048201526024808201527f4552433737373a207472616e7366657220746f20746865207a65726f2061646460448201527f726573730000000000000000000000000000000000000000000000000000000060648201526084016106f8565b6000339050610ff0818286866040518060200160405280600081525060405180602001604052806000815250612291565b61101c8182868660405180602001604052806000815250604051806020016040528060008152506123fa565b6106738182868660405180602001604052806000815250604051806020016040528060008152506000612576565b6070546040517f081812fc0000000000000000000000000000000000000000000000000000000081526004810183905230916001600160a01b03169063081812fc9060240160206040518083038186803b1580156110a757600080fd5b505afa1580156110bb573d6000803e3d6000fd5b505050506040513d601f19601f820116820180604052508101906110df9190613369565b6001600160a01b0316146111355760405162461bcd60e51b815260206004820152601d60248201527f706f6f6c206e6f7420617070726f76656420746f206d6f76652065676700000060448201526064016106f8565b6070546040517f6352211e0000000000000000000000000000000000000000000000000000000081526004810183905233916001600160a01b031690636352211e9060240160206040518083038186803b15801561119257600080fd5b505afa1580156111a6573d6000803e3d6000fd5b505050506040513d601f19601f820116820180604052508101906111ca9190613369565b6001600160a01b0316146112205760405162461bcd60e51b815260206004820152601860248201527f6d73672e73656e646572206e6f7420656767206f776e6572000000000000000060448201526064016106f8565b6072546040517f0c196a74000000000000000000000000000000000000000000000000000000008152600481018590526000916001600160a01b031690630c196a749060240160206040518083038186803b15801561127e57600080fd5b505afa158015611292573d6000803e3d6000fd5b505050506040513d601f19601f820116820180604052508101906112b69190613316565b9050828111156113085760405162461bcd60e51b815260206004820152601d60248201527f696e7465726573742072617465206e6f206c6f6e67657220617661696c00000060448201526064016106f8565b6070546040517f6ebb668b000000000000000000000000000000000000000000000000000000008152600481018490526000916001600160a01b031690636ebb668b9060240160206040518083038186803b15801561136657600080fd5b505afa15801561137a573d6000803e3d6000fd5b505050506040513d601f19601f8201168201806040525081019061139e9190613316565b9050848110156113f05760405162461bcd60e51b815260206004820152601a60248201527f6c6f616e206c61726765722074686174206567672076616c756500000000000060448201526064016106f8565b607154604080517f15a2bf9e00000000000000000000000000000000000000000000000000000000815290516000926001600160a01b0316916315a2bf9e916004808301926020929190829003018186803b15801561144e57600080fd5b505afa158015611462573d6000803e3d6000fd5b505050506040513d601f19601f820116820180604052508101906114869190613316565b6070546040517f4a293c520000000000000000000000000000000000000000000000000000000081526004810187905291925060009182916001600160a01b031690634a293c529060240160006040518083038186803b1580156114e957600080fd5b505afa1580156114fd573d6000803e3d6000fd5b505050506040513d6000823e601f3d908101601f1916820160405261152591908101906133d3565b50505093509350505060005b825181101561157a5761156683828151811061154f5761154f613300565b6020026020010151866128ae90919063ffffffff16565b945080611572816134e5565b915050611531565b508261158b82610c35876064612896565b106115d85760405162461bcd60e51b815260206004820152600c60248201527f4c545620746f6f2068696768000000000000000000000000000000000000000060448201526064016106f8565b6070546040517f42842e0e000000000000000000000000000000000000000000000000000000008152336004820152306024820152604481018890526001600160a01b03909116906342842e0e90606401600060405180830381600087803b15801561164357600080fd5b505af1158015611657573d6000803e3d6000fd5b5050505060006040518060c00160405280606c548152602001336001600160a01b031681526020018781526020018a815260200160008152602001428152509050606b8190806001815401808255809150506001900390600052602060002090600602016000909190919091506000820151816000015560208201518160010160006101000a8154816001600160a01b0302191690836001600160a01b0316021790555060408201518160020155606082015181600301556080820151816004015560a082015181600501555050606a6000336001600160a01b03166001600160a01b03168152602001908152602001600020606c54908060018154018082558091505060019003906000526020600020016000909190919091505586606f6000606c548152602001908152602001600020819055506117a36001606c546128ae90919063ffffffff16565b606c556069546117b3908a6128ae565b6069556066546040517fa9059cbb000000000000000000000000000000000000000000000000000000008152336004820152602481018b90526001600160a01b039091169063a9059cbb90604401602060405180830381600087803b15801561181b57600080fd5b505af115801561182f573d6000803e3d6000fd5b505050506040513d601f19601f820116820180604052508101906118539190613347565b50606554611874906001600160a01b031661186f8b60646128a2565b6128ba565b50505050505050505050565b80600061188c84610b8d565b905082811115611958576066546040516323b872dd60e01b8152336004820152306024820152604481018590526001600160a01b03909116906323b872dd90606401602060405180830381600087803b1580156118e857600080fd5b505af11580156118fc573d6000803e3d6000fd5b505050506040513d601f19601f820116820180604052508101906119209190613347565b5061192b818461288a565b606b858154811061193e5761193e613300565b906000526020600020906006020160040181905550611cbf565b9050806000611967848361288a565b905080606b868154811061197d5761197d613300565b9060005260206000209060060201600301541115611a97576066546040516323b872dd60e01b8152336004820152306024820152604481018690526001600160a01b03909116906323b872dd90606401602060405180830381600087803b1580156119e757600080fd5b505af11580156119fb573d6000803e3d6000fd5b505050506040513d601f19601f82011682018060405250810190611a1f9190613347565b50606954611a2d908261288a565b606981905550611a6a81606b8781548110611a4a57611a4a613300565b90600052602060002090600602016003015461288a90919063ffffffff16565b606b8681548110611a7d57611a7d613300565b906000526020600020906006020160030181905550611c93565b6000611ad083606b8881548110611ab057611ab0613300565b9060005260206000209060060201600301546128ae90919063ffffffff16565b6066546040516323b872dd60e01b8152336004820152306024820152604481018390529192506001600160a01b0316906323b872dd90606401602060405180830381600087803b158015611b2357600080fd5b505af1158015611b37573d6000803e3d6000fd5b505050506040513d601f19601f82011682018060405250810190611b5b9190613347565b50611b95606b8781548110611b7257611b72613300565b90600052602060002090600602016003015460695461288a90919063ffffffff16565b6069819055506000606b8781548110611bb057611bb0613300565b6000918252602090912060036006909202010155607054606b80546001600160a01b03909216916342842e0e9130918a908110611bef57611bef613300565b60009182526020808320600160069093020191909101548b8352606f9091526040918290205491517fffffffff0000000000000000000000000000000000000000000000000000000060e086901b1681526001600160a01b039384166004820152921660248301526044820152606401600060405180830381600087803b158015611c7957600080fd5b505af1158015611c8d573d6000803e3d6000fd5b50505050505b6000606b8681548110611ca857611ca8613300565b906000526020600020906006020160040181905550505b42606b8581548110611cd357611cd3613300565b6000918252602090912060056006909202010155606854611cf490836128ae565b6068819055506000611d3a606b8681548110611d1257611d12613300565b906000526020600020906006020160020154610c3585620f424061289690919063ffffffff16565b606554909150611d53906001600160a01b0316826128ba565b505050505050565b6000816001600160a01b0316836001600160a01b03161480611dc657506001600160a01b03831660009081526038602052604090205460ff168015611dc657506001600160a01b038083166000908152603a602090815260408083209387168352929052205460ff16155b80610f3b57506001600160a01b0380831660009081526039602090815260408083209387168352929052205460ff169392505050565b33600090815260336020526040902054811115611e1857600080fd5b6000611e36611e2660345490565b606854610c3590620f4240612896565b90506000611e4b620f4240610c358585612896565b9050606954606854611e5d91906132e9565b811115611e6957600080fd5b611e9333846040518060200160405280600081525060405180602001604052806000815250612946565b606854611ea0908261288a565b6068556066546040517fa9059cbb000000000000000000000000000000000000000000000000000000008152336004820152602481018390526001600160a01b039091169063a9059cbb90604401602060405180830381600087803b158015611f0857600080fd5b505af1158015611f1c573d6000803e3d6000fd5b505050506040513d601f19601f82011682018060405250810190611f409190613347565b50505050565b600080611f5283610e93565b9050610f3b81610d71565b6001600160a01b038116331415611fdc5760405162461bcd60e51b815260206004820152602160248201527f4552433737373a207265766f6b696e672073656c66206173206f70657261746f60448201527f720000000000000000000000000000000000000000000000000000000000000060648201526084016106f8565b6001600160a01b03811660009081526038602052604090205460ff161561203057336000908152603a602090815260408083206001600160a01b03851684529091529020805460ff1916600117905561205c565b3360009081526039602090815260408083206001600160a01b03851684529091529020805460ff191690555b60405133906001600160a01b038316907f50546e66e5f44d728365dc3908c63bc5cfeeab470722c1677e3073a6ac294aa190600090a350565b61209f3385611d5b565b6121115760405162461bcd60e51b815260206004820152602c60248201527f4552433737373a2063616c6c6572206973206e6f7420616e206f70657261746f60448201527f7220666f7220686f6c646572000000000000000000000000000000000000000060648201526084016106f8565b611f4084848484612946565b610a4333838360405180602001604052806000815250612946565b6001600160a01b0383166121b45760405162461bcd60e51b815260206004820152602560248201527f4552433737373a20617070726f76652066726f6d20746865207a65726f20616460448201527f647265737300000000000000000000000000000000000000000000000000000060648201526084016106f8565b6001600160a01b0382166122305760405162461bcd60e51b815260206004820152602360248201527f4552433737373a20617070726f766520746f20746865207a65726f206164647260448201527f657373000000000000000000000000000000000000000000000000000000000060648201526084016106f8565b6001600160a01b038381166000818152603b602090815260408083209487168084529482529182902085905590518481527f8c5be1e5ebec7d5bd14f71427d1e84f3dd0314c0f7b2291e5b200ac8c7c3b925910160405180910390a3505050565b6040517faabbb8ca0000000000000000000000000000000000000000000000000000000081526001600160a01b03861660048201527f29ddb589b1fb5fc7cf394961c1adf5f8c6454761adf795e67fe149f658abe8956024820152600090731820a4b7618bde71dce8cdc73aab6c95905fad249063aabbb8ca9060440160206040518083038186803b15801561232657600080fd5b505afa15801561233a573d6000803e3d6000fd5b505050506040513d601f19601f8201168201806040525081019061235e9190613369565b90506001600160a01b038116156123f1576040517f75ab97820000000000000000000000000000000000000000000000000000000081526001600160a01b038216906375ab9782906123be908a908a908a908a908a908a90600401613500565b600060405180830381600087803b1580156123d857600080fd5b505af11580156123ec573d6000803e3d6000fd5b505050505b50505050505050565b6001600160a01b038516600090815260336020526040902054838110156124895760405162461bcd60e51b815260206004820152602760248201527f4552433737373a207472616e7366657220616d6f756e7420657863656564732060448201527f62616c616e63650000000000000000000000000000000000000000000000000060648201526084016106f8565b6001600160a01b038087166000908152603360205260408082208785039055918716815290812080548692906124c090849061332f565b92505081905550846001600160a01b0316866001600160a01b0316886001600160a01b03167f06b541ddaa720db2b10a4d0cdac39b8d360425fc073085fac19bc8261467798787878760405161251893929190613559565b60405180910390a4846001600160a01b0316866001600160a01b03167fddf252ad1be2c89b69c2b068fc378daa952ba7f163c4a11628f55a4df523b3ef8660405161256591815260200190565b60405180910390a350505050505050565b6040517faabbb8ca0000000000000000000000000000000000000000000000000000000081526001600160a01b03861660048201527fb281fc8c12954d22544db45de3159a39272895b169a852b314f9cc762e44c53b6024820152600090731820a4b7618bde71dce8cdc73aab6c95905fad249063aabbb8ca9060440160206040518083038186803b15801561260b57600080fd5b505afa15801561261f573d6000803e3d6000fd5b505050506040513d601f19601f820116820180604052508101906126439190613369565b90506001600160a01b038116156126d8576040517e23de290000000000000000000000000000000000000000000000000000000081526001600160a01b038216906223de29906126a1908b908b908b908b908b908b90600401613500565b600060405180830381600087803b1580156126bb57600080fd5b505af11580156126cf573d6000803e3d6000fd5b50505050612782565b8115612782576001600160a01b0386163b156127825760405162461bcd60e51b815260206004820152604d60248201527f4552433737373a20746f6b656e20726563697069656e7420636f6e747261637460448201527f20686173206e6f20696d706c656d656e74657220666f7220455243373737546f60648201527f6b656e73526563697069656e7400000000000000000000000000000000000000608482015260a4016106f8565b5050505050505050565b6001600160a01b0386166128085760405162461bcd60e51b815260206004820152602260248201527f4552433737373a2073656e642066726f6d20746865207a65726f20616464726560448201527f737300000000000000000000000000000000000000000000000000000000000060648201526084016106f8565b6001600160a01b03851661285e5760405162461bcd60e51b815260206004820181905260248201527f4552433737373a2073656e6420746f20746865207a65726f206164647265737360448201526064016106f8565b3361286d818888888888612291565b61287b8188888888886123fa565b6123f181888888888888612576565b6000610f3b82846132e9565b6000610f3b8284613584565b6000610f3b82846135a3565b6000610f3b828461332f565b6000606854600014156128f8576128f183836040518060200160405280600081525060405180602001604052806000815250612b30565b5080610679565b6000612913606854610c3561290c60345490565b8690612896565b905061293f84826040518060200160405280600081525060405180602001604052806000815250612b30565b9050610679565b6001600160a01b0384166129c25760405162461bcd60e51b815260206004820152602260248201527f4552433737373a206275726e2066726f6d20746865207a65726f20616464726560448201527f737300000000000000000000000000000000000000000000000000000000000060648201526084016106f8565b336129d281866000878787612291565b6001600160a01b03851660009081526033602052604090205484811015612a615760405162461bcd60e51b815260206004820152602360248201527f4552433737373a206275726e20616d6f756e7420657863656564732062616c6160448201527f6e6365000000000000000000000000000000000000000000000000000000000060648201526084016106f8565b6001600160a01b0386166000908152603360205260408120868303905560348054879290612a909084906132e9565b92505081905550856001600160a01b0316826001600160a01b03167fa78a9be3a7b862d26933ad85fb11d80ef66b8f972d7cbba06621d583943a4098878787604051612ade93929190613559565b60405180910390a36040518581526000906001600160a01b038816907fddf252ad1be2c89b69c2b068fc378daa952ba7f163c4a11628f55a4df523b3ef906020015b60405180910390a3505050505050565b611f408484848460016001600160a01b038516612b8f5760405162461bcd60e51b815260206004820181905260248201527f4552433737373a206d696e7420746f20746865207a65726f206164647265737360448201526064016106f8565b60003390508460346000828254612ba6919061332f565b90915550506001600160a01b03861660009081526033602052604081208054879290612bd390849061332f565b90915550612be990508160008888888888612576565b856001600160a01b0316816001600160a01b03167f2fe5be0146f74c5bce36c0b80911af6c7d86ff27e89d5cfa61fc681327954e5d878787604051612c3093929190613559565b60405180910390a36040518581526001600160a01b038716906000907fddf252ad1be2c89b69c2b068fc378daa952ba7f163c4a11628f55a4df523b3ef90602001612b20565b828054828255906000526020600020908101928215612ce3579160200282015b82811115612ce357825182547fffffffffffffffffffffffff0000000000000000000000000000000000000000166001600160a01b03909116178255602090920191600190910190612c96565b50612cef929150612cf3565b5090565b5b80821115612cef5760008155600101612cf4565b6020808252825182820181905260009190848201906040850190845b81811015612d495783516001600160a01b031683529284019291840191600101612d24565b50909695505050505050565b60005b83811015612d70578181015183820152602001612d58565b83811115611f405750506000910152565b60008151808452612d99816020860160208601612d55565b601f01601f19169290920160200192915050565b602081526000610f3b6020830184612d81565b6001600160a01b0381168114612dd557600080fd5b50565b60008060408385031215612deb57600080fd5b8235612df681612dc0565b946020939093013593505050565b634e487b7160e01b600052604160045260246000fd5b604051601f8201601f1916810167ffffffffffffffff81118282101715612e4357612e43612e04565b604052919050565b600067ffffffffffffffff821115612e6557612e65612e04565b50601f01601f191660200190565b600082601f830112612e8457600080fd5b8135612e97612e9282612e4b565b612e1a565b818152846020838601011115612eac57600080fd5b816020850160208301376000918101602001919091529392505050565b60008060008060808587031215612edf57600080fd5b8435612eea81612dc0565b93506020850135612efa81612dc0565b925060408501359150606085013567ffffffffffffffff811115612f1d57600080fd5b612f2987828801612e73565b91505092959194509250565b600080600060608486031215612f4a57600080fd5b8335612f5581612dc0565b92506020840135612f6581612dc0565b929592945050506040919091013590565b600080600080600060a08688031215612f8e57600080fd5b8535612f9981612dc0565b94506020860135612fa981612dc0565b935060408601359250606086013567ffffffffffffffff80821115612fcd57600080fd5b612fd989838a01612e73565b93506080880135915080821115612fef57600080fd5b50612ffc88828901612e73565b9150509295509295909350565b60006020828403121561301b57600080fd5b5035919050565b60006020828403121561303457600080fd5b8135610f3b81612dc0565b600067ffffffffffffffff82111561305957613059612e04565b5060051b60200190565b6000602080838503121561307657600080fd5b823567ffffffffffffffff81111561308d57600080fd5b8301601f8101851361309e57600080fd5b80356130ac612e928261303f565b81815260059190911b820183019083810190878311156130cb57600080fd5b928401925b828410156130f25783356130e381612dc0565b825292840192908401906130d0565b979650505050505050565b60008060006060848603121561311257600080fd5b833561311d81612dc0565b925060208401359150604084013567ffffffffffffffff81111561314057600080fd5b61314c86828701612e73565b9150509250925092565b60008060006060848603121561316b57600080fd5b505081359360208301359350604090920135919050565b6000806040838503121561319557600080fd5b50508035926020909101359150565b600080604083850312156131b757600080fd5b82356131c281612dc0565b915060208301356131d281612dc0565b809150509250929050565b600080600080608085870312156131f357600080fd5b84356131fe81612dc0565b935060208501359250604085013567ffffffffffffffff8082111561322257600080fd5b61322e88838901612e73565b9350606087013591508082111561324457600080fd5b50612f2987828801612e73565b6000806040838503121561326457600080fd5b82359150602083013567ffffffffffffffff81111561328257600080fd5b61328e85828601612e73565b9150509250929050565b600181811c908216806132ac57607f821691505b602082108114156132cd57634e487b7160e01b600052602260045260246000fd5b50919050565b634e487b7160e01b600052601160045260246000fd5b6000828210156132fb576132fb6132d3565b500390565b634e487b7160e01b600052603260045260246000fd5b60006020828403121561332857600080fd5b5051919050565b60008219821115613342576133426132d3565b500190565b60006020828403121561335957600080fd5b81518015158114610f3b57600080fd5b60006020828403121561337b57600080fd5b8151610f3b81612dc0565b600082601f83011261339757600080fd5b81516133a5612e9282612e4b565b8181528460208386010111156133ba57600080fd5b6133cb826020830160208701612d55565b949350505050565b600080600080600080600060e0888a0312156133ee57600080fd5b87516133f981612dc0565b809750506020808901519650604089015167ffffffffffffffff8082111561342057600080fd5b818b0191508b601f83011261343457600080fd5b8151613442612e928261303f565b81815260059190911b8301840190848101908e83111561346157600080fd5b938501935b8285101561347f57845182529385019390850190613466565b60608e015160808f0151919b509950945050508083111561349f57600080fd5b6134ab8c848d01613386565b955060a08b0151945060c08b01519250808311156134c857600080fd5b50506134d68a828b01613386565b91505092959891949750929550565b60006000198214156134f9576134f96132d3565b5060010190565b60006001600160a01b038089168352808816602084015280871660408401525084606083015260c0608083015261353a60c0830185612d81565b82810360a084015261354c8185612d81565b9998505050505050505050565b8381526060602082015260006135726060830185612d81565b8281036040840152610c6a8185612d81565b600081600019048311821515161561359e5761359e6132d3565b500290565b6000826135c057634e487b7160e01b600052601260045260246000fd5b50049056fea26469706673582212200f3f99f6c85941fc8cdbafc07a4b2b04a7c8f7002f25cccd1db52ded8f424fe464736f6c63430008090033",
  "immutableReferences": {},
  "source": "// contracts/Pool4.sol\n// SPDX-License-Identifier: MIT\npragma solidity ^0.8.4;\n\nimport \"../@openzeppelin/contracts-upgradeable/proxy/utils/Initializable.sol\";\nimport \"../@openzeppelin/contracts-upgradeable/token/ERC777/ERC777Upgradeable.sol\";\nimport '../@openzeppelin/contracts-upgradeable/token/ERC20/IERC20Upgradeable.sol';\nimport './../PropTokens/PropToken0.sol';\nimport './../LTVGuidelines.sol';\nimport './../PoolUtils/PoolUtils0.sol';\nimport './../PoolStaking/PoolStaking0.sol';\n\nimport \"../@openzeppelin/contracts-upgradeable/token/ERC721/IERC721ReceiverUpgradeable.sol\";\nimport '../@openzeppelin/contracts/utils/math/SafeMath.sol';\nimport '../@openzeppelin/contracts/utils/math/SignedSafeMath.sol';\n\ncontract Pool6 is Initializable, ERC777Upgradeable, IERC721ReceiverUpgradeable {\n    using SignedSafeMath for int256;\n    using SafeMath for uint256;\n\n    struct Loan{\n        uint256 loanId;\n        address borrower;\n        uint256 interestRate;\n        uint256 principal;\n        uint256 interestAccrued;\n        uint256 timeLastPayment;\n    }\n\n    address servicer;\n    address ERCAddress;\n    address[] servicerAddresses;\n    /* Adding a variable above this line (not reflected in Pool0) will cause contract storage conflicts */\n\n    uint256 poolLent;\n    uint256 poolBorrowed;\n    mapping(address => uint256[]) userLoans;\n    Loan[] loans;\n    uint256 loanCount;\n\n    uint constant servicerFeePercentage = 1000000;\n    uint constant baseInterestPercentage = 1000000;\n    uint constant curveK = 120000000;\n\n    /* Pool1 variables introduced here */\n    string private _name;\n    string private _symbol;\n    mapping(uint256 => uint256) loanToPropToken;\n    address propTokenContractAddress;\n\n    /* Pool2 variables introduced here */\n    address LTVOracleAddress;\n\n    /* Pool3 variables introduced here */\n    address poolUtilsAddress;\n    address baconCoinAddress;\n    address poolStakingAddress;\n\n\n    /*****************************************************\n    *       POOL STRUCTURE / UPGRADABILITY FUNCTIONS\n    ******************************************************/\n\n    function name() public view override returns (string memory) {\n        return _name;\n    }\n\n    function symbol() public view override returns(string memory) {\n        return _symbol;\n    }\n\n    function decimals() public pure override returns(uint8) {\n        return 6;\n    }\n    \n    /** \n    *   @dev Function setApprovedAddresses() updates the array of addresses approved by the servicer\n    *   @param _servicerAddresses The array of addresses to be set as approved for borrowing\n    */\n    function setApprovedAddresses(address[] memory _servicerAddresses) public {\n        require(msg.sender == servicer);\n\n        servicerAddresses = _servicerAddresses;\n    }\n\n    /** \n    *   @dev Function setApprovedAddresses() is an internal function that checks the array of approved addresses for the given address\n    *   @param _address The address to be checked if it is approved\n    *   @return isApproved is if the _addess is found in the list of servicerAddresses\n    */\n    function isApprovedServicer(address _address) internal view returns (bool) {\n        bool isApproved = false;\n        \n        for (uint i = 0; i < servicerAddresses.length; i++) {\n            if(_address == servicerAddresses[i]) {\n                isApproved = true;\n            }\n        }\n\n        return isApproved;\n    }\n\n    /*****************************************************\n    *                GETTER FUNCTIONS\n    ******************************************************/\n    /**\n    *   @dev Function getContractData() returns a lot of variables about the contract\n    */\n    function getContractData() public view returns (address, address, uint256, uint256, uint256, uint256) {\n        return (servicer, ERCAddress, poolLent, (poolLent + PoolUtils0(poolUtilsAddress).getPoolInterestAccrued()), poolBorrowed, loanCount);\n    }\n\n    /*\n    *   @dev Function getLoanCount() returns how many active loans there are\n    */ \n    function getLoanCount() public view returns (uint256) {\n        return loanCount;\n    }\n\n    /**  \n    *   @dev Function getSupplyableTokenAddress() returns the contract address of ERC20 this pool accepts (ususally USDC)\n    */\n    function getSupplyableTokenAddress() public view returns (address) {\n        return ERCAddress;\n    }\n\n    /**  \n    *   @dev Function getServicerAddress() returns the address of this pool's servicer\n    */\n    function getServicerAddress() public view returns (address) {\n        return servicer;\n    } \n\n    /**  \n    *   @dev Function getLoanDetails() returns an all the raw details about a loan\n    *   @param loanId is the id for the loan we're looking up\n    *   EDITED in pool1 to also return PropToken ID\n    */\n    function getLoanDetails(uint256 loanId) public view returns (uint256, address, uint256, uint256, uint256, uint256, uint256) {\n        Loan memory loan = loans[loanId];\n        //temp interestAccrued calculation because this is a read function\n        uint256 interestAccrued = getLoanAccruedInterest(loanId);\n        uint256 propTokenID = loanToPropToken[loanId];\n        return (loan.loanId, loan.borrower, loan.interestRate, loan.principal, interestAccrued, loan.timeLastPayment, propTokenID);\n    }\n\n    /**  \n    *   @dev Function getLoanAccruedInterest() calculates and returns the amount of interest accrued on a given loan\n    *   @param loanId is the id for the loan we're looking up\n    */\n    function getLoanAccruedInterest(uint256 loanId) public view returns (uint256) {\n        Loan memory loan = loans[loanId];\n        uint256 secondsSincePayment = block.timestamp.sub(loan.timeLastPayment);\n\n        uint256 interestPerSecond = loan.principal.mul(loan.interestRate).div(31622400);\n        uint256 interestAccrued = interestPerSecond.mul(secondsSincePayment).div(100000000);\n        return interestAccrued.add(loan.interestAccrued);\n    }   \n\n\n    /*****************************************************\n    *                LENDING/BORROWING FUNCTIONS\n    ******************************************************/\n\n    /**  \n    *   @dev Function mintProportionalPoolTokens calculates how many new hc_pool tokens to mint when value is added to the pool based on proportional value\n    *   @param recepient The address of the wallet receiving the newly minted hc_pool tokens\n    *   @param amount The amount to be minted\n    */\n    function mintProportionalPoolTokens(address recepient, uint256 amount) private returns (uint256) {\n        //check if this is first deposit\n        if (poolLent == 0) {\n            super._mint(recepient, amount, \"\", \"\");\n            return amount;\n        } else {\n            //Calculate proportional to total value (including interest)\n            uint256 new_hc_pool = amount.mul(super.totalSupply()).div(poolLent);\n            super._mint(recepient, new_hc_pool, \"\", \"\");\n            return new_hc_pool;\n        }\n    }\n\n    /**  \n    *   @dev Function lend moves assets on the (probably usdc) contract to our own balance\n    *   - Before calling: an approve(address _spender (proxy), uint256 _value (0xffff)) function call must be made on remote contract\n    *   @param amount The amount of USDC to be transferred\n    *   @return the amount of poolTokens created\n    */\n    function lend(\n        uint256 amount\n    ) public returns (uint256) {\n        //USDC on Ropsten only right now\n        IERC20Upgradeable(ERCAddress).transferFrom(msg.sender, address(this), amount);\n        poolLent = poolLent.add(amount);\n        uint256 newTokensMinted = mintProportionalPoolTokens(msg.sender, amount);\n\n        return newTokensMinted;\n    }\n\n    /**  \n    *   @dev Function redeem burns the sender's hcPool tokens and transfers the usdc back to them\n    *   @param amount The amount of hc_pool to be redeemed\n    */\n    function redeem(\n        uint256 amount\n    ) public {\n        //check to see if sender has enough hc_pool to redeem\n        require(balanceOf(msg.sender) >= amount);\n\n        //check to make sure there is liquidity available in the pool to withdraw\n        uint256 tokenPrice = poolLent.mul(1000000).div(super.totalSupply());\n        uint256 erc20ValueOfTokens = amount.mul(tokenPrice).div(1000000);\n        require(erc20ValueOfTokens <= (poolLent - poolBorrowed));\n\n        //burn hcPool first\n        super._burn(msg.sender, amount, \"\", \"\");\n        poolLent = poolLent.sub(erc20ValueOfTokens);\n        IERC20Upgradeable(ERCAddress).transfer(msg.sender, erc20ValueOfTokens);\n    }\n\n    /**  \n    *   @dev Function borrow creates a new Loan, moves the USDC to Borrower, and returns the loan ID and fixed Interest Rate\n    *   - Also creates an origination fee for the Servicer in HC_Pool\n    *   @param amount The size of the potential loan in (probably usdc).\n    *   @param maxRate The size of the potential loan in (probably usdc).\n    *   EDITED in pool1 to also require a PropToken\n    *   EDITED in pool1 - borrower param was removed and msg.sender is new recepient of USDC\n    *   EDITED in pool2 - propToken data is oulled and LTV of loan is required before loan can process\n    */\n    function borrow(uint256 amount, uint256 maxRate, uint256 propTokenId) public {\n        //for v2 require this address is approved to transfer propToken \n        require(PropToken0(propTokenContractAddress).getApproved(propTokenId) == address(this), \"pool not approved to move egg\");\n        //also require msg.sender is owner of token\n        require(PropToken0(propTokenContractAddress).ownerOf(propTokenId) == msg.sender, \"msg.sender not egg owner\");\n\n        //check the requested interest rate is still available\n        uint256 fixedInterestRate = uint256(PoolUtils0(poolUtilsAddress).getInterestRate(amount));\n        require(fixedInterestRate <= maxRate, \"interest rate no longer avail\");\n\n        //require the propToken approved has a lien value less than or equal to the requested loan size\n        uint256 lienAmount = PropToken0(propTokenContractAddress).getLienValue(propTokenId);\n        require(lienAmount >= amount, \"loan larger that egg value\");\n\n        //require that LTV of propToken is less than LTV required by oracle\n        uint256 LTVRequirement = LTVGuidelines(LTVOracleAddress).getMaxLTV();\n        (, , uint256[] memory SeniorLiens, uint256 HomeValue, , ,) = PropToken0(propTokenContractAddress).getPropTokenData(propTokenId);\n        for (uint i = 0; i < SeniorLiens.length; i++) {  \n            lienAmount = lienAmount.add(SeniorLiens[i]);\n        }\n        require(lienAmount.mul(100).div(HomeValue) < LTVRequirement, \"LTV too high\");\n\n\n        //first take the propToken\n        PropToken0(propTokenContractAddress).safeTransferFrom(msg.sender, address(this), propTokenId);\n\n        //create new Loan\n        Loan memory newLoan = Loan(loanCount, msg.sender, fixedInterestRate, amount, 0, block.timestamp);\n        loans.push(newLoan);\n        userLoans[msg.sender].push(loanCount);\n\n        //map new loanID to Token ID\n        loanToPropToken[loanCount] = propTokenId;\n\n        //update system variables\n        loanCount = loanCount.add(1);\n        poolBorrowed = poolBorrowed.add(amount);\n\n        //finally move the USDC\n        IERC20Upgradeable(ERCAddress).transfer(msg.sender, amount);\n\n        //then mint HC_Pool for the servicer (fixed 1% origination is better than standard 2.5%)\n        mintProportionalPoolTokens(servicer, amount.div(100));\n    }\n    \n    /**  \n    *   @dev Function repay repays a specific loan\n    *   - payment is first deducted from the interest then principal. \n    *   - the servicer_fee is deducted from the interest repayment and servicer is compensated in hc_pool\n    *   - repayer must have first approved fromsfers on behalf \n    *   @param loanId The loan to be repayed\n    *   @param amount The amount of the ERC20 token to repay the loan with\n    *   EDITED - Pool1 returns propToken when principal reaches 0\n    */\n\n    function repay(uint256 loanId, uint256 amount) public {        \n        //interestAmountRepayed keeps track of how much of the loan was returned to the pool to calculate servicer fee(treated as cash investment)\n        uint256 interestAmountRepayed = amount;\n\n        uint256 currentInterest = getLoanAccruedInterest(loanId);\n        if(currentInterest > amount) {\n            //if the payment is less than the interest accrued on the loan, just deduct amount from interest\n            //deduct amount FIRST (to make sure they have available balance), then reduce loan amount\n            IERC20Upgradeable(ERCAddress).transferFrom(msg.sender, address(this), amount);\n            loans[loanId].interestAccrued = currentInterest.sub(amount);\n        } else {\n            //if the amount borrow is repaying is greater than interest accrued, deduct the rest from principal\n            interestAmountRepayed = currentInterest;\n            uint256 amountAfterInterest = amount.sub(currentInterest);\n            \n            if(loans[loanId].principal > amountAfterInterest) {\n                //deduct amount from Borrower and reduce the principal\n                IERC20Upgradeable(ERCAddress).transferFrom(msg.sender, address(this), amount);\n                //return the repayed principal to the 'borrowable' amount\n                poolBorrowed = poolBorrowed.sub(amountAfterInterest);\n                loans[loanId].principal = loans[loanId].principal.sub(amountAfterInterest);\n            } else {\n                //deduct totalLoanValue\n                uint256 totalLoanValue = loans[loanId].principal.add(currentInterest);\n                IERC20Upgradeable(ERCAddress).transferFrom(msg.sender, address(this), totalLoanValue);\n                //return the repayed principal to the 'borrowable' amount\n                poolBorrowed = poolBorrowed.sub(loans[loanId].principal);\n                loans[loanId].principal = 0;\n                //Send PropToken back to borrower\n                PropToken0(propTokenContractAddress).safeTransferFrom(address(this), loans[loanId].borrower, loanToPropToken[loanId]);\n            }\n\n            //set interest accrued to 0 AFTER successful erc20 transfer\n            loans[loanId].interestAccrued = 0;\n        }\n\n        //last payment timestamp is only updated AFTER  successful erc20 transfer\n        loans[loanId].timeLastPayment = block.timestamp;\n\n        //treat repayed interest as new money Lent into the pool\n        poolLent = poolLent.add(interestAmountRepayed);\n\n        //servicer fee is treated as cash investment in the pool as the percentage interest\n        //calculate how much of payment goes to servicer here\n        uint256 servicerFeeInERC = servicerFeePercentage.mul(interestAmountRepayed).div(loans[loanId].interestRate);\n        mintProportionalPoolTokens(servicer, servicerFeeInERC);\n    }\n\n    /*****************************************************\n    *                Staking FUNCTIONS\n    ******************************************************/\n\n    /**  \n    *   @dev Function stake transfers users bHOME to the poolStaking contract\n    */\n    function stake(uint256 amount) public returns (bool) {\n        require(balanceOf(msg.sender) >= amount, \"not enough to stake\");\n\n        bool successfulStake = PoolStaking0(poolStakingAddress).stake(msg.sender, amount);\n        if(successfulStake) {\n            transfer(poolStakingAddress, amount);\n        }\n\n        return successfulStake;\n    }\n\n    /**  \n    *   @dev Function lendAndStake calls both the Lend and Stake functions in one call\n    *   @param amount is amount of USDC to be deposited\n    *   @return the bool from stake that reprents successful stake\n    */\n    function lendAndStake(uint256 amount) public returns (bool) {\n        uint256 newPoolTokens = lend(amount);\n        return stake(newPoolTokens);\n    }\n\n    /**  \n    *   @dev Function getVersion returns current upgraded version\n    */\n    function getVersion() public pure returns (uint) {\n        return 4;\n    }\n\n    function onERC721Received(address, address, uint256, bytes memory ) public pure override returns (bytes4) {\n        return this.onERC721Received.selector;\n    }\n}",
  "sourcePath": "/src/contracts/PoolCore/Pool6.sol",
  "compiler": {
    "name": "solc",
    "version": "0.8.9+commit.e5eed63a.Emscripten.clang"
  },
  "schemaVersion": "3.4.7",
  "updatedAt": "2022-10-06T00:07:57.603Z",
  "devdoc": {
    "kind": "dev",
    "methods": {
      "allowance(address,address)": {
        "details": "See {IERC20-allowance}. Note that operator and allowance concepts are orthogonal: operators may not have allowance, and accounts with allowance may not be operators themselves."
      },
      "approve(address,uint256)": {
        "details": "See {IERC20-approve}. Note that accounts cannot have allowance issued by their operators."
      },
      "authorizeOperator(address)": {
        "details": "See {IERC777-authorizeOperator}."
      },
      "balanceOf(address)": {
        "details": "Returns the amount of tokens owned by an account (`tokenHolder`)."
      },
      "borrow(uint256,uint256,uint256)": {
        "details": "Function borrow creates a new Loan, moves the USDC to Borrower, and returns the loan ID and fixed Interest Rate   - Also creates an origination fee for the Servicer in HC_Pool",
        "params": {
          "amount": "The size of the potential loan in (probably usdc).",
          "maxRate": "The size of the potential loan in (probably usdc).   EDITED in pool1 to also require a PropToken   EDITED in pool1 - borrower param was removed and msg.sender is new recepient of USDC   EDITED in pool2 - propToken data is oulled and LTV of loan is required before loan can process"
        }
      },
      "burn(uint256,bytes)": {
        "details": "See {IERC777-burn}. Also emits a {IERC20-Transfer} event for ERC20 compatibility."
      },
      "decimals()": {
        "details": "See {ERC20-decimals}. Always returns 18, as per the [ERC777 EIP](https://eips.ethereum.org/EIPS/eip-777#backward-compatibility)."
      },
      "defaultOperators()": {
        "details": "See {IERC777-defaultOperators}."
      },
      "getContractData()": {
        "details": "Function getContractData() returns a lot of variables about the contract"
      },
      "getLoanAccruedInterest(uint256)": {
        "details": "Function getLoanAccruedInterest() calculates and returns the amount of interest accrued on a given loan",
        "params": {
          "loanId": "is the id for the loan we're looking up"
        }
      },
      "getLoanDetails(uint256)": {
        "details": "Function getLoanDetails() returns an all the raw details about a loan",
        "params": {
          "loanId": "is the id for the loan we're looking up   EDITED in pool1 to also return PropToken ID"
        }
      },
      "getServicerAddress()": {
        "details": "Function getServicerAddress() returns the address of this pool's servicer"
      },
      "getSupplyableTokenAddress()": {
        "details": "Function getSupplyableTokenAddress() returns the contract address of ERC20 this pool accepts (ususally USDC)"
      },
      "getVersion()": {
        "details": "Function getVersion returns current upgraded version"
      },
      "granularity()": {
        "details": "See {IERC777-granularity}. This implementation always returns `1`."
      },
      "isOperatorFor(address,address)": {
        "details": "See {IERC777-isOperatorFor}."
      },
      "lend(uint256)": {
        "details": "Function lend moves assets on the (probably usdc) contract to our own balance   - Before calling: an approve(address _spender (proxy), uint256 _value (0xffff)) function call must be made on remote contract",
        "params": {
          "amount": "The amount of USDC to be transferred"
        },
        "returns": {
          "_0": "the amount of poolTokens created"
        }
      },
      "lendAndStake(uint256)": {
        "details": "Function lendAndStake calls both the Lend and Stake functions in one call",
        "params": {
          "amount": "is amount of USDC to be deposited"
        },
        "returns": {
          "_0": "the bool from stake that reprents successful stake"
        }
      },
      "name()": {
        "details": "See {IERC777-name}."
      },
      "operatorBurn(address,uint256,bytes,bytes)": {
        "details": "See {IERC777-operatorBurn}. Emits {Burned} and {IERC20-Transfer} events."
      },
      "operatorSend(address,address,uint256,bytes,bytes)": {
        "details": "See {IERC777-operatorSend}. Emits {Sent} and {IERC20-Transfer} events."
      },
      "redeem(uint256)": {
        "details": "Function redeem burns the sender's hcPool tokens and transfers the usdc back to them",
        "params": {
          "amount": "The amount of hc_pool to be redeemed"
        }
      },
      "repay(uint256,uint256)": {
        "details": "Function repay repays a specific loan   - payment is first deducted from the interest then principal.    - the servicer_fee is deducted from the interest repayment and servicer is compensated in hc_pool   - repayer must have first approved fromsfers on behalf ",
        "params": {
          "amount": "The amount of the ERC20 token to repay the loan with   EDITED - Pool1 returns propToken when principal reaches 0",
          "loanId": "The loan to be repayed"
        }
      },
      "revokeOperator(address)": {
        "details": "See {IERC777-revokeOperator}."
      },
      "send(address,uint256,bytes)": {
        "details": "See {IERC777-send}. Also emits a {IERC20-Transfer} event for ERC20 compatibility."
      },
      "setApprovedAddresses(address[])": {
        "details": "Function setApprovedAddresses() updates the array of addresses approved by the servicer",
        "params": {
          "_servicerAddresses": "The array of addresses to be set as approved for borrowing"
        }
      },
      "stake(uint256)": {
        "details": "Function stake transfers users bHOME to the poolStaking contract"
      },
      "symbol()": {
        "details": "See {IERC777-symbol}."
      },
      "totalSupply()": {
        "details": "See {IERC777-totalSupply}."
      },
      "transfer(address,uint256)": {
        "details": "See {IERC20-transfer}. Unlike `send`, `recipient` is _not_ required to implement the {IERC777Recipient} interface if it is a contract. Also emits a {Sent} event."
      },
      "transferFrom(address,address,uint256)": {
        "details": "See {IERC20-transferFrom}. Note that operator and allowance concepts are orthogonal: operators cannot call `transferFrom` (unless they have allowance), and accounts with allowance cannot call `operatorSend` (unless they are operators). Emits {Sent}, {IERC20-Transfer} and {IERC20-Approval} events."
      }
    },
    "version": 1
  },
  "userdoc": {
    "kind": "user",
    "methods": {},
    "version": 1
  }
}