{
  "abi": [
    {
      "anonymous": false,
      "inputs": [
        {
          "indexed": true,
          "internalType": "address",
          "name": "user",
          "type": "address"
        },
        {
          "indexed": true,
          "internalType": "uint128",
          "name": "epochId",
          "type": "uint128"
        },
        {
          "indexed": false,
          "internalType": "uint256",
          "name": "amount",
          "type": "uint256"
        }
      ],
      "name": "Harvest",
      "type": "event"
    },
    {
      "anonymous": false,
      "inputs": [
        {
          "indexed": true,
          "internalType": "address",
          "name": "user",
          "type": "address"
        },
        {
          "indexed": false,
          "internalType": "uint256",
          "name": "epochsHarvested",
          "type": "uint256"
        },
        {
          "indexed": false,
          "internalType": "uint256",
          "name": "totalValue",
          "type": "uint256"
        }
      ],
      "name": "MassHarvest",
      "type": "event"
    },
    {
      "inputs": [],
      "name": "epochDuration",
      "outputs": [
        {
          "internalType": "uint256",
          "name": "",
          "type": "uint256"
        }
      ],
      "stateMutability": "view",
      "type": "function"
    },
    {
      "inputs": [],
      "name": "epochStart",
      "outputs": [
        {
          "internalType": "uint256",
          "name": "",
          "type": "uint256"
        }
      ],
      "stateMutability": "view",
      "type": "function"
    },
    {
      "inputs": [],
      "name": "lastInitializedEpoch",
      "outputs": [
        {
          "internalType": "uint128",
          "name": "",
          "type": "uint128"
        }
      ],
      "stateMutability": "view",
      "type": "function"
    },
    {
      "inputs": [
        {
          "internalType": "address",
          "name": "_guardianAddress",
          "type": "address"
        },
        {
          "internalType": "address",
          "name": "baconTokenAddress",
          "type": "address"
        },
        {
          "internalType": "address",
          "name": "poolTokenAddress",
          "type": "address"
        },
        {
          "internalType": "address",
          "name": "stakeContract",
          "type": "address"
        },
        {
          "internalType": "uint256",
          "name": "totalAmountPerEpoch",
          "type": "uint256"
        },
        {
          "internalType": "uint256",
          "name": "numberOfEpochs",
          "type": "uint256"
        }
      ],
      "name": "initialize",
      "outputs": [],
      "stateMutability": "nonpayable",
      "type": "function"
    },
    {
      "inputs": [
        {
          "internalType": "address",
          "name": "_guardianAddress",
          "type": "address"
        }
      ],
      "name": "setGuardianAddress",
      "outputs": [],
      "stateMutability": "nonpayable",
      "type": "function"
    },
    {
      "inputs": [
        {
          "internalType": "address",
          "name": "_DAOAddress",
          "type": "address"
        }
      ],
      "name": "setDAOAddress",
      "outputs": [],
      "stateMutability": "nonpayable",
      "type": "function"
    },
    {
      "inputs": [
        {
          "internalType": "address",
          "name": "newMinter",
          "type": "address"
        }
      ],
      "name": "transferMintRights",
      "outputs": [],
      "stateMutability": "nonpayable",
      "type": "function"
    },
    {
      "inputs": [
        {
          "internalType": "address",
          "name": "poolAddress",
          "type": "address"
        }
      ],
      "name": "approvePool",
      "outputs": [],
      "stateMutability": "nonpayable",
      "type": "function"
    },
    {
      "inputs": [
        {
          "internalType": "address",
          "name": "poolAddress",
          "type": "address"
        }
      ],
      "name": "revokePool",
      "outputs": [],
      "stateMutability": "nonpayable",
      "type": "function"
    },
    {
      "inputs": [
        {
          "internalType": "address",
          "name": "wallet",
          "type": "address"
        },
        {
          "internalType": "uint256",
          "name": "amount",
          "type": "uint256"
        }
      ],
      "name": "stake",
      "outputs": [
        {
          "internalType": "bool",
          "name": "",
          "type": "bool"
        }
      ],
      "stateMutability": "nonpayable",
      "type": "function"
    },
    {
      "inputs": [
        {
          "internalType": "uint256",
          "name": "amount",
          "type": "uint256"
        }
      ],
      "name": "unstake",
      "outputs": [],
      "stateMutability": "nonpayable",
      "type": "function"
    },
    {
      "inputs": [
        {
          "internalType": "address",
          "name": "wallet",
          "type": "address"
        },
        {
          "internalType": "uint256",
          "name": "amount",
          "type": "uint256"
        }
      ],
      "name": "unstakeForWallet",
      "outputs": [],
      "stateMutability": "nonpayable",
      "type": "function"
    },
    {
      "inputs": [
        {
          "internalType": "address",
          "name": "wallet",
          "type": "address"
        }
      ],
      "name": "massHarvest",
      "outputs": [
        {
          "internalType": "uint256",
          "name": "",
          "type": "uint256"
        }
      ],
      "stateMutability": "nonpayable",
      "type": "function"
    },
    {
      "inputs": [
        {
          "internalType": "address",
          "name": "wallet",
          "type": "address"
        },
        {
          "internalType": "uint128",
          "name": "epochId",
          "type": "uint128"
        }
      ],
      "name": "harvest",
      "outputs": [
        {
          "internalType": "uint256",
          "name": "",
          "type": "uint256"
        }
      ],
      "stateMutability": "nonpayable",
      "type": "function"
    },
    {
      "inputs": [],
      "name": "getTotalEpochs",
      "outputs": [
        {
          "internalType": "uint256",
          "name": "",
          "type": "uint256"
        }
      ],
      "stateMutability": "view",
      "type": "function"
    },
    {
      "inputs": [],
      "name": "getRewardPerEpoch",
      "outputs": [
        {
          "internalType": "uint256",
          "name": "",
          "type": "uint256"
        }
      ],
      "stateMutability": "view",
      "type": "function"
    },
    {
      "inputs": [
        {
          "internalType": "uint128",
          "name": "epochId",
          "type": "uint128"
        }
      ],
      "name": "getPoolSize",
      "outputs": [
        {
          "internalType": "uint256",
          "name": "",
          "type": "uint256"
        }
      ],
      "stateMutability": "view",
      "type": "function"
    },
    {
      "inputs": [],
      "name": "getCurrentEpoch",
      "outputs": [
        {
          "internalType": "uint256",
          "name": "",
          "type": "uint256"
        }
      ],
      "stateMutability": "view",
      "type": "function"
    },
    {
      "inputs": [
        {
          "internalType": "address",
          "name": "userAddress",
          "type": "address"
        },
        {
          "internalType": "uint128",
          "name": "epochId",
          "type": "uint128"
        }
      ],
      "name": "getEpochStake",
      "outputs": [
        {
          "internalType": "uint256",
          "name": "",
          "type": "uint256"
        }
      ],
      "stateMutability": "view",
      "type": "function"
    },
    {
      "inputs": [
        {
          "internalType": "address",
          "name": "userAddress",
          "type": "address"
        }
      ],
      "name": "getCurrentEpochStake",
      "outputs": [
        {
          "internalType": "uint256",
          "name": "",
          "type": "uint256"
        }
      ],
      "stateMutability": "view",
      "type": "function"
    },
    {
      "inputs": [
        {
          "internalType": "address",
          "name": "userAddress",
          "type": "address"
        }
      ],
      "name": "getCurrentBalance",
      "outputs": [
        {
          "internalType": "uint256",
          "name": "",
          "type": "uint256"
        }
      ],
      "stateMutability": "view",
      "type": "function"
    },
    {
      "inputs": [],
      "name": "userLastEpochIdHarvested",
      "outputs": [
        {
          "internalType": "uint256",
          "name": "",
          "type": "uint256"
        }
      ],
      "stateMutability": "view",
      "type": "function"
    }
  ],
  "bytecode": "0x608060405234801561001057600080fd5b506117f8806100206000396000f3fe608060405234801561001057600080fd5b50600436106101825760003560e01c80636ae3e75b116100d8578063b97dd9e21161008c578063dbe0090c11610066578063dbe0090c14610303578063e1466bc214610316578063f7e251f81461032957600080fd5b8063b97dd9e2146102d5578063ba17cef3146102dd578063d7c41c79146102f057600080fd5b80639c7ec881116100bd5780639c7ec88114610269578063a1c130d414610294578063adc9772e146102b257600080fd5b80636ae3e75b14610243578063965afa891461025657600080fd5b8063424c265b1161013a5780634cb0482f116101145780634cb0482f1461021f5780634ff0876a146102275780636a7b408b1461023057600080fd5b8063424c265b146101e657806343312451146101f9578063440277e81461020c57600080fd5b806315e5a1e51161016b57806315e5a1e5146101c05780631d4b449a146101c95780632e17de78146101d157600080fd5b80630e020b251461018757806311fe3345146101ad575b600080fd5b61019a61019536600461155e565b61033c565b6040519081526020015b60405180910390f35b61019a6101bb36600461155e565b61054a565b61019a600b5481565b60075461019a565b6101e46101df366004611579565b610563565b005b6101e46101f436600461155e565b610570565b61019a6102073660046115a9565b6105ee565b61019a61021a36600461155e565b610601565b600c5461019a565b61019a600a5481565b6101e461023e3660046115dc565b6106aa565b6101e461025136600461155e565b610717565b6101e461026436600461155e565b610792565b60085461027c906001600160801b031681565b6040516001600160801b0390911681526020016101a4565b336000908152600960205260409020546001600160801b031661019a565b6102c56102c03660046115dc565b61085c565b60405190151581526020016101a4565b61019a610953565b6101e46102eb36600461155e565b61096b565b6101e46102fe366004611606565b610a66565b6101e461031136600461155e565b610d76565b61019a6103243660046115a9565b610e40565b61019a61033736600461166c565b6110c8565b3360009081526003602052604081205460ff166103a05760405162461bcd60e51b815260206004820152601760248201527f6d75737420626520617070726f7665642073656e64657200000000000000000060448201526064015b60405180910390fd5b60006103aa6110d3565b6001600160801b03166103c05750600092915050565b60006103de60016103cf6110d3565b6001600160801b031690611116565b9050600c548111156103ef5750600c545b6001600160a01b03841660009081526009602052604081205461041c906001600160801b0316600161169d565b90505b81816001600160801b031611610457576104398582611122565b61044390846116c8565b92508061044f816116e0565b91505061041f565b506001600160a01b0384166000818152600960205260409020547fb68dafc1da13dc868096d0b87347c831d0bda92d178317eb1dec7f788444485c906104a6906001600160801b031684611707565b60408051918252602082018690520160405180910390a28115610543576001546040517f40c10f190000000000000000000000000000000000000000000000000000000081526001600160a01b03868116600483015260248201859052909116906340c10f1990604401600060405180830381600087803b15801561052a57600080fd5b505af115801561053e573d6000803e3d6000fd5b505050505b5092915050565b600061055d826105586110d3565b61123c565b92915050565b61056d3382611307565b50565b6004546001600160a01b031633146105ca5760405162461bcd60e51b815260206004820152601160248201527f756e617070726f7665642073656e6465720000000000000000000000000000006044820152606401610397565b6001600160a01b03166000908152600360205260409020805460ff19166001179055565b60006105fa838361123c565b9392505050565b600254600080546040517ff7888aec0000000000000000000000000000000000000000000000000000000081526001600160a01b03858116600483015262010000909204821660248201529192169063f7888aec906044015b60206040518083038186803b15801561067257600080fd5b505afa158015610686573d6000803e3d6000fd5b505050506040513d601f19601f8201168201806040525081019061055d919061171e565b3360009081526003602052604090205460ff166107095760405162461bcd60e51b815260206004820152601760248201527f6d75737420626520617070726f7665642073656e6465720000000000000000006044820152606401610397565b6107138282611307565b5050565b6004546001600160a01b031633146107715760405162461bcd60e51b815260206004820152601160248201527f756e617070726f7665642073656e6465720000000000000000000000000000006044820152606401610397565b6001600160a01b03166000908152600360205260409020805460ff19169055565b6004546001600160a01b031633146107ec5760405162461bcd60e51b815260206004820152601160248201527f756e617070726f7665642073656e6465720000000000000000000000000000006044820152606401610397565b600580546001600160a01b03908116600090815260096020526040808220549490921680825291902080546fffffffffffffffffffffffffffffffff19166001600160801b0390941693909317909255805473ffffffffffffffffffffffffffffffffffffffff19169091179055565b3360009081526003602052604081205460ff166108bb5760405162461bcd60e51b815260206004820152601760248201527f6d75737420626520617070726f7665642073656e6465720000000000000000006044820152606401610397565b6002546000546040517f8340f5490000000000000000000000000000000000000000000000000000000081526001600160a01b036201000090920482166004820152858216602482015260448101859052911690638340f54990606401600060405180830381600087803b15801561093257600080fd5b505af1158015610946573d6000803e3d6000fd5b5060019695505050505050565b600061095d6110d3565b6001600160801b0316905090565b6004546001600160a01b031633146109eb5760405162461bcd60e51b815260206004820152602560248201527f506f6f6c5374616b696e67526577617264733a20756e617070726f766564207360448201527f656e6465720000000000000000000000000000000000000000000000000000006064820152608401610397565b6001546040517f9dd373b90000000000000000000000000000000000000000000000000000000081526001600160a01b03838116600483015290911690639dd373b990602401600060405180830381600087803b158015610a4b57600080fd5b505af1158015610a5f573d6000803e3d6000fd5b5050505050565b600054610100900460ff16610a815760005460ff1615610a85565b303b155b610af75760405162461bcd60e51b815260206004820152602e60248201527f496e697469616c697a61626c653a20636f6e747261637420697320616c72656160448201527f647920696e697469616c697a65640000000000000000000000000000000000006064820152608401610397565b600054610100900460ff16158015610b3657600080547fffffffffffffffffffffffffffffffffffffffffffffffffffffffffffff0000166101011790555b610b418260016116c8565b67ffffffffffffffff811115610b5957610b59611737565b604051908082528060200260200182016040528015610b82578160200160208202803683370190505b508051610b97916006916020909101906114e2565b50600480546001600160a01b03808a1673ffffffffffffffffffffffffffffffffffffffff19928316178355600180548a83169084161790556000805489831662010000027fffffffffffffffffffff0000000000000000000000000000000000000000ffff90911617905560028054918816919092168117909155604080517f4ff0876a00000000000000000000000000000000000000000000000000000000815290519192634ff0876a928282019260209290829003018186803b158015610c6057600080fd5b505afa158015610c74573d6000803e3d6000fd5b505050506040513d601f19601f82011682018060405250810190610c98919061171e565b600a55600254604080517ff4a4341d00000000000000000000000000000000000000000000000000000000815290516001600160a01b039092169163f4a4341d91600480820192602092909190829003018186803b158015610cf957600080fd5b505afa158015610d0d573d6000803e3d6000fd5b505050506040513d601f19601f82011682018060405250810190610d31919061171e565b600b55600c82905560078390558015610d6d57600080547fffffffffffffffffffffffffffffffffffffffffffffffffffffffffffff00ff1690555b50505050505050565b6004546001600160a01b03163314610dd05760405162461bcd60e51b815260206004820152601160248201527f756e617070726f7665642073656e6465720000000000000000000000000000006044820152606401610397565b600480546001600160a01b03908116600090815260096020526040808220549490921680825291902080546fffffffffffffffffffffffffffffffff19166001600160801b0390941693909317909255805473ffffffffffffffffffffffffffffffffffffffff19169091179055565b3360009081526003602052604081205460ff16610e9f5760405162461bcd60e51b815260206004820152601760248201527f6d75737420626520617070726f7665642073656e6465720000000000000000006044820152606401610397565b816001600160801b0316610eb16110d3565b6001600160801b031611610f075760405162461bcd60e51b815260206004820152601b60248201527f546869732065706f636820697320696e207468652066757475726500000000006044820152606401610397565b600c54826001600160801b03161115610f625760405162461bcd60e51b815260206004820152601e60248201527f4d6178696d756d206e756d626572206f662065706f63687320697320313200006044820152606401610397565b6001600160a01b0383166000908152600960205260409020546001600160801b0380841691610f939116600161139a565b14610fe05760405162461bcd60e51b815260206004820152601060248201527f4861727665737420696e206f72646572000000000000000000000000000000006044820152606401610397565b6000610fec8484611122565b90508015611074576001546040517f40c10f190000000000000000000000000000000000000000000000000000000081526001600160a01b03868116600483015260248201849052909116906340c10f1990604401600060405180830381600087803b15801561105b57600080fd5b505af115801561106f573d6000803e3d6000fd5b505050505b826001600160801b0316846001600160a01b03167f04ad45a69eeed9c390c3a678fed2d4b90bde98e742de9936d5e0915bf3d0ea4e836040516110b991815260200190565b60405180910390a39392505050565b600061055d826113a6565b6000600b544210156110e55750600090565b611111600161110b600a54611105600b544261111690919063ffffffff16565b9061140a565b9061139a565b905090565b60006105fa8284611707565b6008546000906001600160801b03808416911610156111445761114482611416565b6001600160a01b03838116600081815260096020526040902080546fffffffffffffffffffffffffffffffff19166001600160801b038616179055600554909116141561119d57506a090148ed30e4ce5400000061055d565b6004546001600160a01b03848116911614156111c557506a1382c8ac949a69b600000061055d565b6006826001600160801b0316815481106111e1576111e161174d565b9060005260206000200154600014156111fc5750600061055d565b6105fa6006836001600160801b03168154811061121b5761121b61174d565b9060005260206000200154611105611233868661123c565b600754906114d6565b6002546000805490916001600160a01b0390811691638c028dd091869162010000900416856040517fffffffff0000000000000000000000000000000000000000000000000000000060e086901b1681526001600160a01b0393841660048201529290911660248301526001600160801b0316604482015260640160206040518083038186803b1580156112cf57600080fd5b505afa1580156112e3573d6000803e3d6000fd5b505050506040513d601f19601f820116820180604052508101906105fa919061171e565b6002546000546040517fd9caed120000000000000000000000000000000000000000000000000000000081526001600160a01b03620100009092048216600482015284821660248201526044810184905291169063d9caed1290606401600060405180830381600087803b15801561137e57600080fd5b505af1158015611392573d6000803e3d6000fd5b505050505050565b60006105fa82846116c8565b600254600080546040517f2ca32d7e0000000000000000000000000000000000000000000000000000000081526001600160a01b0362010000909204821660048201526001600160801b038516602482015291921690632ca32d7e9060440161065a565b60006105fa8284611763565b6008546001600160801b03808316916114319116600161139a565b1461147e5760405162461bcd60e51b815260206004820152601f60248201527f45706f63682063616e20626520696e6974206f6e6c7920696e206f72646572006044820152606401610397565b600880546fffffffffffffffffffffffffffffffff19166001600160801b0383161790556114ab816113a6565b6006826001600160801b0316815481106114c7576114c761174d565b60009182526020909120015550565b60006105fa8284611785565b82805482825590600052602060002090810192821561151d579160200282015b8281111561151d578251825591602001919060010190611502565b5061152992915061152d565b5090565b5b80821115611529576000815560010161152e565b80356001600160a01b038116811461155957600080fd5b919050565b60006020828403121561157057600080fd5b6105fa82611542565b60006020828403121561158b57600080fd5b5035919050565b80356001600160801b038116811461155957600080fd5b600080604083850312156115bc57600080fd5b6115c583611542565b91506115d360208401611592565b90509250929050565b600080604083850312156115ef57600080fd5b6115f883611542565b946020939093013593505050565b60008060008060008060c0878903121561161f57600080fd5b61162887611542565b955061163660208801611542565b945061164460408801611542565b935061165260608801611542565b92506080870135915060a087013590509295509295509295565b60006020828403121561167e57600080fd5b6105fa82611592565b634e487b7160e01b600052601160045260246000fd5b60006001600160801b038083168185168083038211156116bf576116bf611687565b01949350505050565b600082198211156116db576116db611687565b500190565b60006001600160801b03808316818114156116fd576116fd611687565b6001019392505050565b60008282101561171957611719611687565b500390565b60006020828403121561173057600080fd5b5051919050565b634e487b7160e01b600052604160045260246000fd5b634e487b7160e01b600052603260045260246000fd5b60008261178057634e487b7160e01b600052601260045260246000fd5b500490565b6000817fffffffffffffffffffffffffffffffffffffffffffffffffffffffffffffffff04831182151516156117bd576117bd611687565b50029056fea26469706673582212209276fd17a3dc923894fcd02b9a1be9e7a0fd57a1563010b6f292be84795f8f5864736f6c63430008090033",
  "compiler": {
    "name": "solc",
    "version": "0.8.9+commit.e5eed63a.Emscripten.clang"
  },
  "contractName": "PoolStakingRewards0",
  "devdoc": {
    "kind": "dev",
    "methods": {},
    "version": 1
  },
  "immutableReferences": {},
  "schemaVersion": "3.4.7",
  "source": "// SPDX-License-Identifier: Apache-2.0\n\n// Changes:\n// 1. Separated the bond token address from the pool token address so that the pool can hold bHome and reward Bacon.\n//    Though I suppose this makes it not a very good bond...\n\npragma solidity ^0.8.4;\n\nimport './../@openzeppelin/contracts/utils/math/SafeMath.sol';\nimport \"./../@openzeppelin/contracts/token/ERC20/IERC20.sol\";\nimport \"./../Staking/IStaking.sol\";\nimport \"./../@openzeppelin/contracts-upgradeable/proxy/utils/Initializable.sol\";\nimport \"./../BaconCoin/BaconCoin3.sol\";\n\n\ncontract PoolStakingRewards0 is Initializable {\n\n    // lib\n    using SafeMath for uint;\n    using SafeMath for uint128;\n\n    // Per epoch rewards\n    uint256 constant GUARDIAN_REWARD = 23587200e18;\n    uint256 constant DAO_REWARD = 10886400e18;\n\n    // constants\n    // end of year one rewards was block 15651074\n    // airdrop_ends_block_number (from airdrop script) was: 14127375\n    // year one reward per block: 100 Bacon\n    // total remaining rewards for year 1 = 100 * (endOfYearOneBlock - rewardsAirdropBlock)\n    // = 100 * (15651074-14127375)\n    // uint public constant TOTAL_DISTRIBUTED_AMOUNT = 152369900;\n    // There are roughly 19 weeks left in our 1 year rewards term\n    // starting the 19th of May 2022\n    // uint public constant NR_OF_EPOCHS = 19;\n    // uint128 public constant EPOCHS_DELAYED_FROM_STAKING_CONTRACT = 0;\n\n    // state variables\n\n    // addresses\n    address private _poolTokenAddress;\n    // contracts\n    BaconCoin3 private _bacon;\n    IStaking private _staking;\n    // TODO: maybe private?\n    mapping(address => bool) isApprovedPool;\n    address guardianAddress;\n    address daoAddress;\n\n\n    uint[] private epochs;\n    uint private _totalAmountPerEpoch;\n    uint128 public lastInitializedEpoch;\n    mapping(address => uint128) private lastEpochIdHarvested;\n    uint public epochDuration; // init from staking contract\n    uint public epochStart; // init from staking contract\n    uint private _numberOfEpochs;\n\n    // events\n    event MassHarvest(address indexed user, uint256 epochsHarvested, uint256 totalValue);\n    event Harvest(address indexed user, uint128 indexed epochId, uint256 amount);\n\n    // constructor\n    function initialize(address _guardianAddress, address baconTokenAddress, address poolTokenAddress, address stakeContract, uint totalAmountPerEpoch, uint numberOfEpochs) public initializer {\n        epochs = new uint[](numberOfEpochs + 1);\n        \n        guardianAddress = _guardianAddress;\n        _bacon = BaconCoin3(baconTokenAddress);\n        _poolTokenAddress = poolTokenAddress;\n        _staking = IStaking(stakeContract);\n        epochDuration = _staking.epochDuration();\n        epochStart = _staking.epoch1Start();\n        _numberOfEpochs = numberOfEpochs;\n        _totalAmountPerEpoch = totalAmountPerEpoch;\n    }\n\n    function setGuardianAddress(address _guardianAddress) public {\n        require(msg.sender == guardianAddress, \"unapproved sender\");\n        lastEpochIdHarvested[_guardianAddress] =  lastEpochIdHarvested[guardianAddress];\n        guardianAddress = _guardianAddress;\n    }\n\n    // To be called after baconCoin0 is deployed\n    function setDAOAddress(address _DAOAddress) public {\n        require(msg.sender == guardianAddress, \"unapproved sender\");\n        lastEpochIdHarvested[_DAOAddress] =  lastEpochIdHarvested[daoAddress];\n        daoAddress = _DAOAddress;\n    }\n\n    function transferMintRights(address newMinter) public {\n        require(msg.sender == guardianAddress, \"PoolStakingRewards: unapproved sender\");\n        _bacon.setStakingContract(newMinter);\n    }\n\n    function approvePool(address poolAddress) public {\n        require(msg.sender == guardianAddress, \"unapproved sender\");\n        isApprovedPool[poolAddress] = true;\n    }\n\n    function revokePool(address poolAddress) public {\n        require(msg.sender == guardianAddress, \"unapproved sender\");\n        isApprovedPool[poolAddress] = false;\n    }\n\n    function stake(address wallet, uint256 amount) public returns (bool) {\n        require(isApprovedPool[msg.sender], \"must be approved sender\");\n        // expects that the users hbHome has already been transferred to the staking contract\n        _staking.deposit(_poolTokenAddress, wallet, amount);\n        return true;\n    }\n\n    function unstake(uint256 amount) public {\n        _unstakeInternal(msg.sender, amount);\n    }\n\n    function unstakeForWallet(address wallet, uint256 amount) public {\n        require(isApprovedPool[msg.sender], \"must be approved sender\");\n        _unstakeInternal(wallet, amount);\n    }\n\n    // public methods\n    // public method to harvest all the unharvested epochs until current epoch - 1\n    function massHarvest(address wallet) external returns (uint){\n        require(isApprovedPool[msg.sender], \"must be approved sender\");\n        uint totalDistributedValue = 0;\n\n        //added so it doesn't fail on first epoch\n        if(_getEpochId() == 0){\n            return 0;\n        }\n        \n        uint epochId = _getEpochId().sub(1); // fails in epoch 0\n        // force max number of epochs\n        if (epochId > _numberOfEpochs) {\n            epochId = _numberOfEpochs;\n        }\n\n        for (uint128 i = lastEpochIdHarvested[wallet] + 1; i <= epochId; i++) {\n            // i = epochId\n            // compute distributed Value and do one single transfer at the end\n            totalDistributedValue += _harvest(wallet, i);\n        }\n\n        emit MassHarvest(wallet, epochId - lastEpochIdHarvested[wallet], totalDistributedValue);\n\n        if (totalDistributedValue > 0) {\n            _bacon.mint(wallet, totalDistributedValue);\n        }\n\n        return totalDistributedValue;\n    }\n\n    function harvest (address wallet, uint128 epochId) external returns (uint){\n        require(isApprovedPool[msg.sender], \"must be approved sender\");\n        // checks for requested epoch\n        require (_getEpochId() > epochId, \"This epoch is in the future\");\n        require(epochId <= _numberOfEpochs, \"Maximum number of epochs is 12\");\n        require (lastEpochIdHarvested[wallet].add(1) == epochId, \"Harvest in order\");\n        uint userReward = _harvest(wallet, epochId);\n        if (userReward > 0) {\n             _bacon.mint(wallet, userReward);\n        }\n        emit Harvest(wallet, epochId, userReward);\n        return userReward;\n    }\n\n    // views\n    function getTotalEpochs() external view returns (uint) {\n        return _numberOfEpochs;\n    }\n\n    function getRewardPerEpoch() external view returns (uint) {\n        return _totalAmountPerEpoch;\n    }\n\n    // calls to the staking smart contract to retrieve the epoch total pool size\n    function getPoolSize(uint128 epochId) external view returns (uint) {\n        return _getPoolSize(epochId);\n    }\n\n    function getCurrentEpoch() external view returns (uint) {\n        return _getEpochId();\n    }\n\n    // calls to the staking smart contract to retrieve user balance for an epoch\n    function getEpochStake(address userAddress, uint128 epochId) external view returns (uint) {\n        return _getUserBalancePerEpoch(userAddress, epochId);\n    }\n\n    function getCurrentEpochStake(address userAddress) external view returns (uint) {\n        return _getUserBalancePerEpoch(userAddress, _getEpochId());\n    }\n\n    function getCurrentBalance(address userAddress) external view returns (uint) {\n        return _staking.balanceOf(userAddress, _poolTokenAddress);\n    }\n\n    function userLastEpochIdHarvested() external view returns (uint){\n        return lastEpochIdHarvested[msg.sender];\n    }\n\n    // internal methods\n\n    function _unstakeInternal(address wallet, uint256 amount) internal {\n        _staking.withdraw(_poolTokenAddress, wallet, amount);\n    }\n\n    function _initEpoch(uint128 epochId) internal {\n        require(lastInitializedEpoch.add(1) == epochId, \"Epoch can be init only in order\");\n        lastInitializedEpoch = epochId;\n        // call the staking smart contract to init the epoch\n        epochs[epochId] = _getPoolSize(epochId);\n    }\n\n    function _harvest (address wallet, uint128 epochId) internal returns (uint) {\n        // try to initialize an epoch. if it can't it fails\n        // if it fails either user either a BarnBridge account will init not init epochs\n        if (lastInitializedEpoch < epochId) {\n            _initEpoch(epochId);\n        }\n        // Set user state for last harvested\n        lastEpochIdHarvested[wallet] = epochId;\n        // compute and return user total reward. For optimization reasons the transfer have been moved to an upper layer (i.e. massHarvest needs to do a single transfer)\n        if(wallet == daoAddress){\n            return DAO_REWARD;\n        }\n        if(wallet == guardianAddress){\n            return GUARDIAN_REWARD;\n        }\n\n        // exit if there is no stake on the epoch\n        if (epochs[epochId] == 0) {\n            return 0;\n        }\n        return _totalAmountPerEpoch\n        .mul(_getUserBalancePerEpoch(wallet, epochId))\n        .div(epochs[epochId]);\n    }\n\n    // retrieve _poolTokenAddress token balance\n    function _getPoolSize(uint128 epochId) internal view returns (uint) {\n        return _staking.getEpochPoolSize(_poolTokenAddress, _stakingEpochId(epochId));\n    }\n\n    // retrieve _poolTokenAddress token balance per user per epoch\n    function _getUserBalancePerEpoch(address userAddress, uint128 epochId) internal view returns (uint){\n        return _staking.getEpochUserBalance(userAddress, _poolTokenAddress, _stakingEpochId(epochId));\n    }\n\n    // compute epoch id from block.timestamp and epochStart date\n    function _getEpochId() internal view returns (uint128 epochId) {\n        if (block.timestamp < epochStart) {\n            return 0;\n        }\n        epochId = uint128(block.timestamp.sub(epochStart).div(epochDuration).add(1));\n    }\n\n    // get the staking epoch\n    function _stakingEpochId(uint128 epochId) pure internal returns (uint128) {\n        return epochId;\n    }\n}",
  "sourcePath": "/src/contracts/PoolStakingRewards/PoolStakingRewards0.sol",
  "updatedAt": "2022-10-12T17:10:54.444Z",
  "userdoc": {
    "kind": "user",
    "methods": {},
    "version": 1
  }
}