{
  "abi": [
    {
      "anonymous": false,
      "inputs": [
        {
          "indexed": true,
          "internalType": "address",
          "name": "owner",
          "type": "address"
        },
        {
          "indexed": true,
          "internalType": "address",
          "name": "spender",
          "type": "address"
        },
        {
          "indexed": false,
          "internalType": "uint256",
          "name": "value",
          "type": "uint256"
        }
      ],
      "name": "Approval",
      "type": "event"
    },
    {
      "anonymous": false,
      "inputs": [
        {
          "indexed": true,
          "internalType": "address",
          "name": "from",
          "type": "address"
        },
        {
          "indexed": true,
          "internalType": "address",
          "name": "to",
          "type": "address"
        },
        {
          "indexed": false,
          "internalType": "uint256",
          "name": "value",
          "type": "uint256"
        }
      ],
      "name": "Transfer",
      "type": "event"
    },
    {
      "inputs": [
        {
          "internalType": "address",
          "name": "owner",
          "type": "address"
        },
        {
          "internalType": "address",
          "name": "spender",
          "type": "address"
        }
      ],
      "name": "allowance",
      "outputs": [
        {
          "internalType": "uint256",
          "name": "",
          "type": "uint256"
        }
      ],
      "stateMutability": "view",
      "type": "function"
    },
    {
      "inputs": [
        {
          "internalType": "address",
          "name": "spender",
          "type": "address"
        },
        {
          "internalType": "uint256",
          "name": "amount",
          "type": "uint256"
        }
      ],
      "name": "approve",
      "outputs": [
        {
          "internalType": "bool",
          "name": "",
          "type": "bool"
        }
      ],
      "stateMutability": "nonpayable",
      "type": "function"
    },
    {
      "inputs": [
        {
          "internalType": "address",
          "name": "account",
          "type": "address"
        }
      ],
      "name": "balanceOf",
      "outputs": [
        {
          "internalType": "uint256",
          "name": "",
          "type": "uint256"
        }
      ],
      "stateMutability": "view",
      "type": "function"
    },
    {
      "inputs": [
        {
          "internalType": "address",
          "name": "spender",
          "type": "address"
        },
        {
          "internalType": "uint256",
          "name": "subtractedValue",
          "type": "uint256"
        }
      ],
      "name": "decreaseAllowance",
      "outputs": [
        {
          "internalType": "bool",
          "name": "",
          "type": "bool"
        }
      ],
      "stateMutability": "nonpayable",
      "type": "function"
    },
    {
      "inputs": [
        {
          "internalType": "address",
          "name": "spender",
          "type": "address"
        },
        {
          "internalType": "uint256",
          "name": "addedValue",
          "type": "uint256"
        }
      ],
      "name": "increaseAllowance",
      "outputs": [
        {
          "internalType": "bool",
          "name": "",
          "type": "bool"
        }
      ],
      "stateMutability": "nonpayable",
      "type": "function"
    },
    {
      "inputs": [],
      "name": "totalSupply",
      "outputs": [
        {
          "internalType": "uint256",
          "name": "",
          "type": "uint256"
        }
      ],
      "stateMutability": "view",
      "type": "function"
    },
    {
      "inputs": [
        {
          "internalType": "address",
          "name": "recipient",
          "type": "address"
        },
        {
          "internalType": "uint256",
          "name": "amount",
          "type": "uint256"
        }
      ],
      "name": "transfer",
      "outputs": [
        {
          "internalType": "bool",
          "name": "",
          "type": "bool"
        }
      ],
      "stateMutability": "nonpayable",
      "type": "function"
    },
    {
      "inputs": [
        {
          "internalType": "address",
          "name": "sender",
          "type": "address"
        },
        {
          "internalType": "address",
          "name": "recipient",
          "type": "address"
        },
        {
          "internalType": "uint256",
          "name": "amount",
          "type": "uint256"
        }
      ],
      "name": "transferFrom",
      "outputs": [
        {
          "internalType": "bool",
          "name": "",
          "type": "bool"
        }
      ],
      "stateMutability": "nonpayable",
      "type": "function"
    },
    {
      "inputs": [
        {
          "internalType": "address",
          "name": "_homeBoostAddress",
          "type": "address"
        }
      ],
      "name": "initializePool13",
      "outputs": [],
      "stateMutability": "nonpayable",
      "type": "function"
    },
    {
      "inputs": [],
      "name": "lockAirdorp",
      "outputs": [],
      "stateMutability": "nonpayable",
      "type": "function"
    },
    {
      "inputs": [
        {
          "internalType": "address",
          "name": "_servicer",
          "type": "address"
        }
      ],
      "name": "passServicerRights",
      "outputs": [],
      "stateMutability": "nonpayable",
      "type": "function"
    },
    {
      "inputs": [],
      "name": "name",
      "outputs": [
        {
          "internalType": "string",
          "name": "",
          "type": "string"
        }
      ],
      "stateMutability": "view",
      "type": "function"
    },
    {
      "inputs": [],
      "name": "symbol",
      "outputs": [
        {
          "internalType": "string",
          "name": "",
          "type": "string"
        }
      ],
      "stateMutability": "view",
      "type": "function"
    },
    {
      "inputs": [],
      "name": "decimals",
      "outputs": [
        {
          "internalType": "uint8",
          "name": "",
          "type": "uint8"
        }
      ],
      "stateMutability": "pure",
      "type": "function"
    },
    {
      "inputs": [],
      "name": "getContractData",
      "outputs": [
        {
          "internalType": "address",
          "name": "",
          "type": "address"
        },
        {
          "internalType": "address",
          "name": "",
          "type": "address"
        },
        {
          "internalType": "uint256",
          "name": "",
          "type": "uint256"
        },
        {
          "internalType": "uint256",
          "name": "",
          "type": "uint256"
        },
        {
          "internalType": "uint256",
          "name": "",
          "type": "uint256"
        },
        {
          "internalType": "uint256",
          "name": "",
          "type": "uint256"
        }
      ],
      "stateMutability": "view",
      "type": "function"
    },
    {
      "inputs": [],
      "name": "getLoanCount",
      "outputs": [
        {
          "internalType": "uint256",
          "name": "",
          "type": "uint256"
        }
      ],
      "stateMutability": "view",
      "type": "function"
    },
    {
      "inputs": [],
      "name": "getSupplyableTokenAddress",
      "outputs": [
        {
          "internalType": "address",
          "name": "",
          "type": "address"
        }
      ],
      "stateMutability": "view",
      "type": "function"
    },
    {
      "inputs": [],
      "name": "getServicerAddress",
      "outputs": [
        {
          "internalType": "address",
          "name": "",
          "type": "address"
        }
      ],
      "stateMutability": "view",
      "type": "function"
    },
    {
      "inputs": [
        {
          "internalType": "uint256",
          "name": "loanId",
          "type": "uint256"
        }
      ],
      "name": "getLoanDetails",
      "outputs": [
        {
          "internalType": "uint256",
          "name": "",
          "type": "uint256"
        },
        {
          "internalType": "address",
          "name": "",
          "type": "address"
        },
        {
          "internalType": "uint256",
          "name": "",
          "type": "uint256"
        },
        {
          "internalType": "uint256",
          "name": "",
          "type": "uint256"
        },
        {
          "internalType": "uint256",
          "name": "",
          "type": "uint256"
        },
        {
          "internalType": "uint256",
          "name": "",
          "type": "uint256"
        },
        {
          "internalType": "uint256",
          "name": "",
          "type": "uint256"
        }
      ],
      "stateMutability": "view",
      "type": "function"
    },
    {
      "inputs": [
        {
          "internalType": "uint256",
          "name": "loanId",
          "type": "uint256"
        }
      ],
      "name": "getLoanAccruedInterest",
      "outputs": [
        {
          "internalType": "uint256",
          "name": "",
          "type": "uint256"
        }
      ],
      "stateMutability": "view",
      "type": "function"
    },
    {
      "inputs": [
        {
          "internalType": "uint256",
          "name": "amount",
          "type": "uint256"
        }
      ],
      "name": "lend",
      "outputs": [
        {
          "internalType": "uint256",
          "name": "",
          "type": "uint256"
        }
      ],
      "stateMutability": "nonpayable",
      "type": "function"
    },
    {
      "inputs": [
        {
          "internalType": "uint256",
          "name": "amount",
          "type": "uint256"
        }
      ],
      "name": "redeem",
      "outputs": [],
      "stateMutability": "nonpayable",
      "type": "function"
    },
    {
      "inputs": [
        {
          "internalType": "uint256",
          "name": "amount",
          "type": "uint256"
        },
        {
          "internalType": "uint256",
          "name": "maxRate",
          "type": "uint256"
        },
        {
          "internalType": "uint256",
          "name": "propTokenId",
          "type": "uint256"
        }
      ],
      "name": "borrow",
      "outputs": [],
      "stateMutability": "nonpayable",
      "type": "function"
    },
    {
      "inputs": [
        {
          "internalType": "uint256",
          "name": "loanId",
          "type": "uint256"
        },
        {
          "internalType": "uint256",
          "name": "amount",
          "type": "uint256"
        }
      ],
      "name": "repay",
      "outputs": [],
      "stateMutability": "nonpayable",
      "type": "function"
    },
    {
      "inputs": [
        {
          "internalType": "uint256",
          "name": "amount",
          "type": "uint256"
        }
      ],
      "name": "stake",
      "outputs": [
        {
          "internalType": "bool",
          "name": "",
          "type": "bool"
        }
      ],
      "stateMutability": "nonpayable",
      "type": "function"
    },
    {
      "inputs": [
        {
          "internalType": "uint256",
          "name": "amount",
          "type": "uint256"
        },
        {
          "internalType": "uint16",
          "name": "level",
          "type": "uint16"
        },
        {
          "internalType": "bool",
          "name": "autoRenew",
          "type": "bool"
        }
      ],
      "name": "boost",
      "outputs": [
        {
          "internalType": "bool",
          "name": "",
          "type": "bool"
        }
      ],
      "stateMutability": "nonpayable",
      "type": "function"
    },
    {
      "inputs": [
        {
          "internalType": "uint256",
          "name": "amount",
          "type": "uint256"
        }
      ],
      "name": "lendAndStake",
      "outputs": [
        {
          "internalType": "bool",
          "name": "",
          "type": "bool"
        }
      ],
      "stateMutability": "nonpayable",
      "type": "function"
    },
    {
      "inputs": [
        {
          "internalType": "uint256",
          "name": "amount",
          "type": "uint256"
        },
        {
          "internalType": "uint16",
          "name": "level",
          "type": "uint16"
        },
        {
          "internalType": "bool",
          "name": "autoRenew",
          "type": "bool"
        }
      ],
      "name": "lendAndBoost",
      "outputs": [
        {
          "internalType": "bool",
          "name": "",
          "type": "bool"
        }
      ],
      "stateMutability": "nonpayable",
      "type": "function"
    },
    {
      "inputs": [],
      "name": "getVersion",
      "outputs": [
        {
          "internalType": "uint256",
          "name": "",
          "type": "uint256"
        }
      ],
      "stateMutability": "pure",
      "type": "function"
    },
    {
      "inputs": [
        {
          "internalType": "address",
          "name": "",
          "type": "address"
        },
        {
          "internalType": "address",
          "name": "",
          "type": "address"
        },
        {
          "internalType": "uint256",
          "name": "",
          "type": "uint256"
        },
        {
          "internalType": "bytes",
          "name": "",
          "type": "bytes"
        }
      ],
      "name": "onERC721Received",
      "outputs": [
        {
          "internalType": "bytes4",
          "name": "",
          "type": "bytes4"
        }
      ],
      "stateMutability": "pure",
      "type": "function"
    },
    {
      "inputs": [],
      "name": "claimRewards",
      "outputs": [
        {
          "internalType": "uint256",
          "name": "",
          "type": "uint256"
        }
      ],
      "stateMutability": "nonpayable",
      "type": "function"
    },
    {
      "inputs": [
        {
          "internalType": "address",
          "name": "wallet",
          "type": "address"
        },
        {
          "internalType": "uint256",
          "name": "amount",
          "type": "uint256"
        }
      ],
      "name": "transferBoostRewards",
      "outputs": [],
      "stateMutability": "nonpayable",
      "type": "function"
    },
    {
      "inputs": [
        {
          "internalType": "uint256",
          "name": "amount",
          "type": "uint256"
        }
      ],
      "name": "burn",
      "outputs": [],
      "stateMutability": "nonpayable",
      "type": "function"
    }
  ],
  "bytecode": "0x608060405234801561001057600080fd5b506132d5806100206000396000f3fe608060405234801561001057600080fd5b506004361061020b5760003560e01c80638f6d88071161012a578063a9059cbb116100bd578063db006a751161008c578063e636eddc11610071578063e636eddc1461051f578063ef4571fc14610532578063f805fe9a1461054557600080fd5b8063db006a75146104d3578063dd62ed3e146104e657600080fd5b8063a9059cbb14610487578063adf459ca1461049a578063d5edf06e146104ad578063d8aed145146104c057600080fd5b8063a457c2d7116100f9578063a457c2d71461040e578063a68b91ab14610421578063a694fc3a14610461578063a6aa57ce1461047457600080fd5b80638f6d8807146103cf57806390b53e14146103e257806395d89b41146103f35780639a5872f4146103fb57600080fd5b8063313ce567116101a25780635219681211610171578063521968121461035157806356ff07151461035957806366877b8d1461036c57806370a08231146103bc57600080fd5b8063313ce56714610314578063372500ab14610323578063395093511461032b57806342966c681461033e57600080fd5b8063150b7a02116101de578063150b7a021461026c57806318160ddd146102d457806323b872dd146102dc5780632f5e5d95146102ef57600080fd5b8063038771d01461021057806306fdde031461021a578063095ea7b3146102385780630d8e6e2c1461025b575b600080fd5b610218610558565b005b6102226105b0565b60405161022f9190612ceb565b60405180910390f35b61024b610246366004612d13565b610642565b604051901515815260200161022f565b600d5b60405190815260200161022f565b6102a361027a366004612dae565b7f150b7a0200000000000000000000000000000000000000000000000000000000949350505050565b6040517fffffffff00000000000000000000000000000000000000000000000000000000909116815260200161022f565b60345461025e565b61024b6102ea366004612e5d565b610658565b6066546001600160a01b03165b6040516001600160a01b03909116815260200161022f565b6040516006815260200161022f565b61025e61071c565b61024b610339366004612d13565b610805565b61021861034c366004612e9e565b610841565b606c5461025e565b610218610367366004612d13565b61084e565b61037f61037a366004612e9e565b610910565b604080519788526001600160a01b039096166020880152948601939093526060850191909152608084015260a083015260c082015260e00161022f565b61025e6103ca366004612eb7565b6109d3565b6102186103dd366004612eb7565b610a01565b6065546001600160a01b03166102fc565b610222610a52565b61025e610409366004612e9e565b610a61565b61024b61041c366004612d13565b610b42565b610429610bf3565b604080516001600160a01b039788168152969095166020870152938501929092526060840152608083015260a082015260c00161022f565b61024b61046f366004612e9e565b610ccd565b61025e610482366004612e9e565b610e2b565b61024b610495366004612d13565b610f33565b6102186104a8366004612ed4565b610f40565b61024b6104bb366004612f0e565b611808565b6102186104ce366004612f57565b61182a565b6102186104e1366004612e9e565b611d9b565b61025e6104f4366004612f79565b6001600160a01b039182166000908152603b6020908152604080832093909416825291909152205490565b61024b61052d366004612e9e565b612027565b61024b610540366004612f0e565b61203e565b610218610553366004612eb7565b612333565b6065546001600160a01b0316331461056f57600080fd5b607780547fffffffffffffffffffffff00ffffffffffffffffffffffffffffffffffffffff1674010000000000000000000000000000000000000000179055565b6060606d80546105bf90612fb2565b80601f01602080910402602001604051908101604052809291908181526020018280546105eb90612fb2565b80156106385780601f1061060d57610100808354040283529160200191610638565b820191906000526020600020905b81548152906001019060200180831161061b57829003601f168201915b5050505050905090565b600061064f338484612384565b50600192915050565b60006106658484846124dd565b6001600160a01b0384166000908152603b60209081526040808320338452909152902054828110156107045760405162461bcd60e51b815260206004820152602860248201527f45524332303a207472616e7366657220616d6f756e742065786365656473206160448201527f6c6c6f77616e636500000000000000000000000000000000000000000000000060648201526084015b60405180910390fd5b6107118533858403612384565b506001949350505050565b600080610733606461072d33612713565b906127c1565b6077546040517f9a2daa0a0000000000000000000000000000000000000000000000000000000081523360048201529192506000916107d6916064916001600160a01b0390911690639a2daa0a90602401602060405180830381600087803b15801561079e57600080fd5b505af11580156107b2573d6000803e3d6000fd5b505050506040513d601f19601f8201168201806040525081019061072d9190612fed565b905060006107e4828461301c565b6075549091506107fe906001600160a01b031633836124dd565b9392505050565b336000818152603b602090815260408083206001600160a01b0387168452909152812054909161064f91859061083c90869061301c565b612384565b61084b33826127cd565b50565b6078546001600160a01b031633146108a85760405162461bcd60e51b815260206004820152600e60248201527f696e76616c69642073656e64657200000000000000000000000000000000000060448201526064016106fb565b60408051808201909152601c81527f7472616e73666572696e672025732066726f6d20257320746f2025730000000060208201526075546108f5919083906001600160a01b031685612953565b60755461090c906001600160a01b031683836124dd565b5050565b600080600080600080600080606b898154811061092f5761092f613034565b600091825260208083206040805160c08101825260069094029091018054845260018101546001600160a01b03169284019290925260028201549083015260038101546060830152600481015460808301526005015460a082015291506109958a610a61565b60009a8b52606f602090815260409b8c9020548451918501519c850151606086015160a090960151929e909c50949a50919850965094509092505050565b6001600160a01b0381166000908152603360205260408120546bffffffffffffffffffffffff165b92915050565b6065546001600160a01b03163314610a1857600080fd5b606580547fffffffffffffffffffffffff0000000000000000000000000000000000000000166001600160a01b0392909216919091179055565b6060606e80546105bf90612fb2565b600080606b8381548110610a7757610a77613034565b600091825260208083206040805160c08101825260069094029091018054845260018101546001600160a01b03169284019290925260028201549083015260038101546060830152600481015460808301526005015460a08201819052909250610ae29042906129ca565b90506000610b096301da9c0061072d856040015186606001516129d690919063ffffffff16565b90506000610b1f6305f5e10061072d84866129d6565b9050610b388460800151826129e290919063ffffffff16565b9695505050505050565b336000908152603b602090815260408083206001600160a01b038616845290915281205482811015610bdc5760405162461bcd60e51b815260206004820152602560248201527f45524332303a2064656372656173656420616c6c6f77616e63652062656c6f7760448201527f207a65726f00000000000000000000000000000000000000000000000000000060648201526084016106fb565b610be93385858403612384565b5060019392505050565b606554606654606854607254604080517f7eb0d8b10000000000000000000000000000000000000000000000000000000081529051600095869586958695869586956001600160a01b03958616959485169490921691637eb0d8b191600480820192602092909190829003018186803b158015610c6f57600080fd5b505afa158015610c83573d6000803e3d6000fd5b505050506040513d601f19601f82011682018060405250810190610ca79190612fed565b606854610cb4919061301c565b606954606c54949b939a50919850965094509092509050565b600081610cd9336109d3565b1015610d275760405162461bcd60e51b815260206004820152601360248201527f6e6f7420656e6f75676820746f207374616b650000000000000000000000000060448201526064016106fb565b607454610d3d906001600160a01b031683610f33565b506077546040517fadc9772e000000000000000000000000000000000000000000000000000000008152336004820152602481018490526000916001600160a01b03169063adc9772e90604401602060405180830381600087803b158015610da457600080fd5b505af1158015610db8573d6000803e3d6000fd5b505050506040513d601f19601f82011682018060405250810190610ddc919061304a565b9050806109fb5760405162461bcd60e51b815260206004820152600c60248201527f5374616b65206661696c6564000000000000000000000000000000000000000060448201526064016106fb565b600060026076541415610e805760405162461bcd60e51b815260206004820152601f60248201527f5265656e7472616e637947756172643a207265656e7472616e742063616c6c0060448201526064016106fb565b60026076556066546040516323b872dd60e01b8152336004820152306024820152604481018490526001600160a01b03909116906323b872dd90606401602060405180830381600087803b158015610ed757600080fd5b505af1158015610eeb573d6000803e3d6000fd5b505050506040513d601f19601f82011682018060405250810190610f0f919061304a565b50606854610f1d90836129e2565b606855610f2a33836129ee565b50600160765590565b600061064f3384846124dd565b60026076541415610f935760405162461bcd60e51b815260206004820152601f60248201527f5265656e7472616e637947756172643a207265656e7472616e742063616c6c0060448201526064016106fb565b60026076556070546040517f081812fc0000000000000000000000000000000000000000000000000000000081526004810183905230916001600160a01b03169063081812fc9060240160206040518083038186803b158015610ff557600080fd5b505afa158015611009573d6000803e3d6000fd5b505050506040513d601f19601f8201168201806040525081019061102d9190613067565b6001600160a01b0316146110835760405162461bcd60e51b815260206004820152601d60248201527f706f6f6c206e6f7420617070726f76656420746f206d6f76652065676700000060448201526064016106fb565b6070546040517f6352211e0000000000000000000000000000000000000000000000000000000081526004810183905233916001600160a01b031690636352211e9060240160206040518083038186803b1580156110e057600080fd5b505afa1580156110f4573d6000803e3d6000fd5b505050506040513d601f19601f820116820180604052508101906111189190613067565b6001600160a01b03161461116e5760405162461bcd60e51b815260206004820152601860248201527f6d73672e73656e646572206e6f7420656767206f776e6572000000000000000060448201526064016106fb565b6072546040517f0c196a74000000000000000000000000000000000000000000000000000000008152600481018590526000916001600160a01b031690630c196a749060240160206040518083038186803b1580156111cc57600080fd5b505afa1580156111e0573d6000803e3d6000fd5b505050506040513d601f19601f820116820180604052508101906112049190612fed565b9050828111156112565760405162461bcd60e51b815260206004820152601d60248201527f696e7465726573742072617465206e6f206c6f6e67657220617661696c00000060448201526064016106fb565b6070546040517f6ebb668b000000000000000000000000000000000000000000000000000000008152600481018490526000916001600160a01b031690636ebb668b9060240160206040518083038186803b1580156112b457600080fd5b505afa1580156112c8573d6000803e3d6000fd5b505050506040513d601f19601f820116820180604052508101906112ec9190612fed565b90508481101561133e5760405162461bcd60e51b815260206004820152601a60248201527f6c6f616e206c61726765722074686174206567672076616c756500000000000060448201526064016106fb565b607154604080517f15a2bf9e00000000000000000000000000000000000000000000000000000000815290516000926001600160a01b0316916315a2bf9e916004808301926020929190829003018186803b15801561139c57600080fd5b505afa1580156113b0573d6000803e3d6000fd5b505050506040513d601f19601f820116820180604052508101906113d49190612fed565b6070546040517f4a293c520000000000000000000000000000000000000000000000000000000081526004810187905291925060009182916001600160a01b031690634a293c529060240160006040518083038186803b15801561143757600080fd5b505afa15801561144b573d6000803e3d6000fd5b505050506040513d6000823e601f3d908101601f1916820160405261147391908101906130d1565b50505093509350505060005b82518110156114c8576114b483828151811061149d5761149d613034565b6020026020010151866129e290919063ffffffff16565b9450806114c0816131f3565b91505061147f565b50826114d98261072d8760646129d6565b106115265760405162461bcd60e51b815260206004820152600c60248201527f4c545620746f6f2068696768000000000000000000000000000000000000000060448201526064016106fb565b6070546040517f42842e0e000000000000000000000000000000000000000000000000000000008152336004820152306024820152604481018890526001600160a01b03909116906342842e0e90606401600060405180830381600087803b15801561159157600080fd5b505af11580156115a5573d6000803e3d6000fd5b5050505060006040518060c00160405280606c548152602001336001600160a01b031681526020018781526020018a815260200160008152602001428152509050606b8190806001815401808255809150506001900390600052602060002090600602016000909190919091506000820151816000015560208201518160010160006101000a8154816001600160a01b0302191690836001600160a01b0316021790555060408201518160020155606082015181600301556080820151816004015560a082015181600501555050606a6000336001600160a01b03166001600160a01b03168152602001908152602001600020606c54908060018154018082558091505060019003906000526020600020016000909190919091505586606f6000606c548152602001908152602001600020819055506116f16001606c546129e290919063ffffffff16565b606c55606954611701908a6129e2565b6069556066546001600160a01b031663a9059cbb33611726606461072d8e60636129d6565b6040517fffffffff0000000000000000000000000000000000000000000000000000000060e085901b1681526001600160a01b0390921660048301526024820152604401602060405180830381600087803b15801561178457600080fd5b505af1158015611798573d6000803e3d6000fd5b505050506040513d601f19601f820116820180604052508101906117bc919061304a565b506065546117dd906001600160a01b03166117d88b60c86127c1565b6129ee565b6075546117f8906001600160a01b03166117d88b60c86127c1565b5050600160765550505050505050565b60008061181485610e2b565b905061182185858561203e565b95945050505050565b6002607654141561187d5760405162461bcd60e51b815260206004820152601f60248201527f5265656e7472616e637947756172643a207265656e7472616e742063616c6c0060448201526064016106fb565b600260765580600061188e84610a61565b90508281111561195a576066546040516323b872dd60e01b8152336004820152306024820152604481018590526001600160a01b03909116906323b872dd90606401602060405180830381600087803b1580156118ea57600080fd5b505af11580156118fe573d6000803e3d6000fd5b505050506040513d601f19601f82011682018060405250810190611922919061304a565b5061192d81846129ca565b606b858154811061194057611940613034565b906000526020600020906006020160040181905550611cc1565b905080600061196984836129ca565b905080606b868154811061197f5761197f613034565b9060005260206000209060060201600301541115611a99576066546040516323b872dd60e01b8152336004820152306024820152604481018690526001600160a01b03909116906323b872dd90606401602060405180830381600087803b1580156119e957600080fd5b505af11580156119fd573d6000803e3d6000fd5b505050506040513d601f19601f82011682018060405250810190611a21919061304a565b50606954611a2f90826129ca565b606981905550611a6c81606b8781548110611a4c57611a4c613034565b9060005260206000209060060201600301546129ca90919063ffffffff16565b606b8681548110611a7f57611a7f613034565b906000526020600020906006020160030181905550611c95565b6000611ad283606b8881548110611ab257611ab2613034565b9060005260206000209060060201600301546129e290919063ffffffff16565b6066546040516323b872dd60e01b8152336004820152306024820152604481018390529192506001600160a01b0316906323b872dd90606401602060405180830381600087803b158015611b2557600080fd5b505af1158015611b39573d6000803e3d6000fd5b505050506040513d601f19601f82011682018060405250810190611b5d919061304a565b50611b97606b8781548110611b7457611b74613034565b9060005260206000209060060201600301546069546129ca90919063ffffffff16565b6069819055506000606b8781548110611bb257611bb2613034565b6000918252602090912060036006909202010155607054606b80546001600160a01b03909216916342842e0e9130918a908110611bf157611bf1613034565b60009182526020808320600160069093020191909101548b8352606f9091526040918290205491517fffffffff0000000000000000000000000000000000000000000000000000000060e086901b1681526001600160a01b039384166004820152921660248301526044820152606401600060405180830381600087803b158015611c7b57600080fd5b505af1158015611c8f573d6000803e3d6000fd5b50505050505b6000606b8681548110611caa57611caa613034565b906000526020600020906006020160040181905550505b42606b8581548110611cd557611cd5613034565b6000918252602090912060056006909202010155606854611cf690836129e2565b6068819055506000611d3c606b8681548110611d1457611d14613034565b90600052602060002090600602016002015461072d85620f42406129d690919063ffffffff16565b606554909150611d5a906001600160a01b03166117d88360026127c1565b607554611d75906001600160a01b03166117d88360026127c1565b607554611d8f906001600160a01b03166117d885846129ca565b50506001607655505050565b60026076541415611dee5760405162461bcd60e51b815260206004820152601f60248201527f5265656e7472616e637947756172643a207265656e7472616e742063616c6c0060448201526064016106fb565b600260765580611dfd336109d3565b1015611e4b5760405162461bcd60e51b815260206004820152601960248201527f484f4d452062616c616e636520696e73756666696369656e740000000000000060448201526064016106fb565b606954606854611e5b919061320e565b811115611eaa5760405162461bcd60e51b815260206004820152601960248201527f6e6f7420656e6f756768205553444320746f2072656465656d0000000000000060448201526064016106fb565b607854600090611ec2906001600160a01b03166109d3565b607454611ed7906001600160a01b03166109d3565b611ee1919061301c565b905080606854611ef1919061320e565b821115611f665760405162461bcd60e51b815260206004820152602260248201527f6e6f7420656e6f75676820756e6c6f636b6564205553444320746f207265646560448201527f656d00000000000000000000000000000000000000000000000000000000000060648201526084016106fb565b611f7033836127cd565b606854611f7d90836129ca565b6068556066546040517fa9059cbb000000000000000000000000000000000000000000000000000000008152336004820152602481018490526001600160a01b039091169063a9059cbb90604401602060405180830381600087803b158015611fe557600080fd5b505af1158015611ff9573d6000803e3d6000fd5b505050506040513d601f19601f8201168201806040525081019061201d919061304a565b5050600160765550565b60008061203383610e2b565b90506107fe81610ccd565b60008361204a336109d3565b10156120985760405162461bcd60e51b815260206004820152601360248201527f4e6f7420656e6f75676820746f20626f6f73740000000000000000000000000060448201526064016106fb565b6078546040517f8400adfc00000000000000000000000000000000000000000000000000000000815261ffff85166004820152602481018690526000916001600160a01b031690638400adfc9060440160206040518083038186803b15801561210057600080fd5b505afa158015612114573d6000803e3d6000fd5b505050506040513d601f19601f820116820180604052508101906121389190612fed565b607454909150612151906001600160a01b031682610f33565b506077546040517fadc9772e000000000000000000000000000000000000000000000000000000008152336004820152602481018390526000916001600160a01b03169063adc9772e90604401602060405180830381600087803b1580156121b857600080fd5b505af11580156121cc573d6000803e3d6000fd5b505050506040513d601f19601f820116820180604052508101906121f0919061304a565b90508582101561221657607854612214906001600160a01b0316610495848961320e565b505b6078546040517fe68ec4f50000000000000000000000000000000000000000000000000000000081523360048201526024810188905261ffff8716604482015285151560648201526000916001600160a01b03169063e68ec4f590608401602060405180830381600087803b15801561228e57600080fd5b505af11580156122a2573d6000803e3d6000fd5b505050506040513d601f19601f820116820180604052508101906122c6919061304a565b90508180156122d25750805b61231e5760405162461bcd60e51b815260206004820152600c60248201527f426f6f7374206661696c6564000000000000000000000000000000000000000060448201526064016106fb565b8180156123285750805b979650505050505050565b6065546001600160a01b0316331461234a57600080fd5b607880547fffffffffffffffffffffffff0000000000000000000000000000000000000000166001600160a01b0392909216919091179055565b6001600160a01b0383166123ff5760405162461bcd60e51b8152602060048201526024808201527f45524332303a20617070726f76652066726f6d20746865207a65726f2061646460448201527f726573730000000000000000000000000000000000000000000000000000000060648201526084016106fb565b6001600160a01b03821661247b5760405162461bcd60e51b815260206004820152602260248201527f45524332303a20617070726f766520746f20746865207a65726f20616464726560448201527f737300000000000000000000000000000000000000000000000000000000000060648201526084016106fb565b6001600160a01b038381166000818152603b602090815260408083209487168084529482529182902085905590518481527f8c5be1e5ebec7d5bd14f71427d1e84f3dd0314c0f7b2291e5b200ac8c7c3b92591015b60405180910390a3505050565b6001600160a01b0383166125595760405162461bcd60e51b815260206004820152602560248201527f45524332303a207472616e736665722066726f6d20746865207a65726f20616460448201527f647265737300000000000000000000000000000000000000000000000000000060648201526084016106fb565b6001600160a01b0382166125d55760405162461bcd60e51b815260206004820152602360248201527f45524332303a207472616e7366657220746f20746865207a65726f206164647260448201527f657373000000000000000000000000000000000000000000000000000000000060648201526084016106fb565b6001600160a01b0383166000908152603360205260409020546bffffffffffffffffffffffff8116828110156126735760405162461bcd60e51b815260206004820152602660248201527f45524332303a207472616e7366657220616d6f756e742065786365656473206260448201527f616c616e6365000000000000000000000000000000000000000000000000000060648201526084016106fb565b6126808583858403612ace565b6001600160a01b0384166000908152603360205260409020546126be8582866bffffffffffffffffffffffff82165b6126b9919061301c565b612ace565b846001600160a01b0316866001600160a01b03167fddf252ad1be2c89b69c2b068fc378daa952ba7f163c4a11628f55a4df523b3ef8660405161270391815260200190565b60405180910390a3505050505050565b336000908152603c6020526040812054819061272f908261301c565b336000908152603c602090815260408083208390556033909152902054909150612762906301da9c009061072d90612beb565b61276c908261301c565b336000908152603360205260409020549091506bffffffffffffffffffffffff166127a8427001000000000000000000000000000000006129d6565b3360009081526033602052604090209117905592915050565b60006107fe8284613225565b6001600160a01b0382166128495760405162461bcd60e51b815260206004820152602160248201527f45524332303a206275726e2066726f6d20746865207a65726f2061646472657360448201527f730000000000000000000000000000000000000000000000000000000000000060648201526084016106fb565b6001600160a01b0382166000908152603360205260409020546bffffffffffffffffffffffff8116828110156128e75760405162461bcd60e51b815260206004820152602260248201527f45524332303a206275726e20616d6f756e7420657863656564732062616c616e60448201527f636500000000000000000000000000000000000000000000000000000000000060648201526084016106fb565b6128f48483858403612ace565b8260346000828254612906919061320e565b90915550506040518381526000906001600160a01b038616907fddf252ad1be2c89b69c2b068fc378daa952ba7f163c4a11628f55a4df523b3ef9060200160405180910390a35b50505050565b61294d8484848460405160240161296d9493929190613247565b60408051601f198184030181529190526020810180517bffffffffffffffffffffffffffffffffffffffffffffffffffffffff167feac8928100000000000000000000000000000000000000000000000000000000179052612c11565b60006107fe828461320e565b60006107fe8284613280565b60006107fe828461301c565b6001600160a01b038216612a445760405162461bcd60e51b815260206004820152601f60248201527f45524332303a206d696e7420746f20746865207a65726f20616464726573730060448201526064016106fb565b6001600160a01b0382166000908152603360205260408120546034805491928492612a7090849061301c565b90915550612a9090508382846bffffffffffffffffffffffff82166126af565b6040518281526001600160a01b038416906000907fddf252ad1be2c89b69c2b068fc378daa952ba7f163c4a11628f55a4df523b3ef906020016124d0565b80612b2d57612ae46301da9c0061072d84612beb565b6001600160a01b0384166000908152603c602052604081208054909190612b0c90849061301c565b909155505050506001600160a01b0316600090815260336020526040812055565b4280612b3c8361072d86612beb565b1015612b6057612b59612b528361072d86612beb565b42906129ca565b9050612b9f565b612b716301da9c0061072d85612beb565b6001600160a01b0385166000908152603c602052604081208054909190612b9990849061301c565b90915550505b6bffffffffffffffffffffffff8216612bc9827001000000000000000000000000000000006129d6565b6001600160a01b03861660009081526033602052604090209117905550505050565b60006109fb6bffffffffffffffffffffffff8316612c0b612b5285612c32565b906129d6565b80516a636f6e736f6c652e6c6f67602083016000808483855afa5050505050565b600080612c6a77ffffffffffffffffffffffff00000000000000000000000084167001000000000000000000000000000000006127c1565b9050806109fb5750426bffffffffffffffffffffffff8316156109fb5750636296ac0092915050565b60005b83811015612cae578181015183820152602001612c96565b8381111561294d5750506000910152565b60008151808452612cd7816020860160208601612c93565b601f01601f19169290920160200192915050565b6020815260006107fe6020830184612cbf565b6001600160a01b038116811461084b57600080fd5b60008060408385031215612d2657600080fd5b8235612d3181612cfe565b946020939093013593505050565b634e487b7160e01b600052604160045260246000fd5b604051601f8201601f1916810167ffffffffffffffff81118282101715612d7e57612d7e612d3f565b604052919050565b600067ffffffffffffffff821115612da057612da0612d3f565b50601f01601f191660200190565b60008060008060808587031215612dc457600080fd5b8435612dcf81612cfe565b93506020850135612ddf81612cfe565b925060408501359150606085013567ffffffffffffffff811115612e0257600080fd5b8501601f81018713612e1357600080fd5b8035612e26612e2182612d86565b612d55565b818152886020838501011115612e3b57600080fd5b8160208401602083013760006020838301015280935050505092959194509250565b600080600060608486031215612e7257600080fd5b8335612e7d81612cfe565b92506020840135612e8d81612cfe565b929592945050506040919091013590565b600060208284031215612eb057600080fd5b5035919050565b600060208284031215612ec957600080fd5b81356107fe81612cfe565b600080600060608486031215612ee957600080fd5b505081359360208301359350604090920135919050565b801515811461084b57600080fd5b600080600060608486031215612f2357600080fd5b83359250602084013561ffff81168114612f3c57600080fd5b91506040840135612f4c81612f00565b809150509250925092565b60008060408385031215612f6a57600080fd5b50508035926020909101359150565b60008060408385031215612f8c57600080fd5b8235612f9781612cfe565b91506020830135612fa781612cfe565b809150509250929050565b600181811c90821680612fc657607f821691505b60208210811415612fe757634e487b7160e01b600052602260045260246000fd5b50919050565b600060208284031215612fff57600080fd5b5051919050565b634e487b7160e01b600052601160045260246000fd5b6000821982111561302f5761302f613006565b500190565b634e487b7160e01b600052603260045260246000fd5b60006020828403121561305c57600080fd5b81516107fe81612f00565b60006020828403121561307957600080fd5b81516107fe81612cfe565b600082601f83011261309557600080fd5b81516130a3612e2182612d86565b8181528460208386010111156130b857600080fd5b6130c9826020830160208701612c93565b949350505050565b600080600080600080600060e0888a0312156130ec57600080fd5b87516130f781612cfe565b809750506020808901519650604089015167ffffffffffffffff8082111561311e57600080fd5b818b0191508b601f83011261313257600080fd5b81518181111561314457613144612d3f565b8060051b613153858201612d55565b918252838101850191858101908f84111561316d57600080fd5b948601945b8386101561318b57855182529486019490860190613172565b809b505050505060608b0151965060808b01519250808311156131ad57600080fd5b6131b98c848d01613084565b955060a08b0151945060c08b01519250808311156131d657600080fd5b50506131e48a828b01613084565b91505092959891949750929550565b600060001982141561320757613207613006565b5060010190565b60008282101561322057613220613006565b500390565b60008261324257634e487b7160e01b600052601260045260246000fd5b500490565b60808152600061325a6080830187612cbf565b6020830195909552506001600160a01b0392831660408201529116606090910152919050565b600081600019048311821515161561329a5761329a613006565b50029056fea264697066735822122013439648424cfbfbee54a92f18276db804f3c454a837488fe70c68d7cfd9825c64736f6c63430008090033",
  "compiler": {
    "name": "solc",
    "version": "0.8.9+commit.e5eed63a.Emscripten.clang"
  },
  "contractName": "Pool13",
  "devdoc": {
    "kind": "dev",
    "methods": {
      "allowance(address,address)": {
        "details": "See {IERC20-allowance}."
      },
      "approve(address,uint256)": {
        "details": "See {IERC20-approve}. Requirements: - `spender` cannot be the zero address."
      },
      "balanceOf(address)": {
        "details": "See {IERC20-balanceOf}."
      },
      "borrow(uint256,uint256,uint256)": {
        "details": "Function borrow creates a new Loan, moves the USDC to Borrower, and returns the loan ID and fixed Interest Rate   - Also creates an origination fee for the Servicer in HC_Pool",
        "params": {
          "amount": "The size of the potential loan in (probably usdc).",
          "maxRate": "The size of the potential loan in (probably usdc).   EDITED in pool1 to also require a PropToken   EDITED in pool1 - borrower param was removed and msg.sender is new recepient of USDC   EDITED in pool2 - propToken data is oulled and LTV of loan is required before loan can process"
        }
      },
      "burn(uint256)": {
        "details": "Function burn burns bHOME",
        "params": {
          "amount": "is the amount of bHOME to burn"
        }
      },
      "decimals()": {
        "details": "Returns the number of decimals used to get its user representation. For example, if `decimals` equals `2`, a balance of `505` tokens should be displayed to a user as `5.05` (`505 / 10 ** 2`). Tokens usually opt for a value of 18, imitating the relationship between Ether and Wei. This is the value {ERC20} uses, unless this function is overridden; NOTE: This information is only used for _display_ purposes: it in no way affects any of the arithmetic of the contract, including {IERC20-balanceOf} and {IERC20-transfer}."
      },
      "decreaseAllowance(address,uint256)": {
        "details": "Atomically decreases the allowance granted to `spender` by the caller. This is an alternative to {approve} that can be used as a mitigation for problems described in {IERC20-approve}. Emits an {Approval} event indicating the updated allowance. Requirements: - `spender` cannot be the zero address. - `spender` must have allowance for the caller of at least `subtractedValue`."
      },
      "getContractData()": {
        "details": "Function getContractData() returns a lot of variables about the contract"
      },
      "getLoanAccruedInterest(uint256)": {
        "details": "Function getLoanAccruedInterest() calculates and returns the amount of interest accrued on a given loan",
        "params": {
          "loanId": "is the id for the loan we're looking up"
        }
      },
      "getLoanDetails(uint256)": {
        "details": "Function getLoanDetails() returns an all the raw details about a loan",
        "params": {
          "loanId": "is the id for the loan we're looking up   EDITED in pool1 to also return PropToken ID"
        }
      },
      "getServicerAddress()": {
        "details": "Function getServicerAddress() returns the address of this pool's servicer"
      },
      "getSupplyableTokenAddress()": {
        "details": "Function getSupplyableTokenAddress() returns the contract address of ERC20 this pool accepts (ususally USDC)"
      },
      "getVersion()": {
        "details": "Function getVersion returns current upgraded version"
      },
      "increaseAllowance(address,uint256)": {
        "details": "Atomically increases the allowance granted to `spender` by the caller. This is an alternative to {approve} that can be used as a mitigation for problems described in {IERC20-approve}. Emits an {Approval} event indicating the updated allowance. Requirements: - `spender` cannot be the zero address."
      },
      "lend(uint256)": {
        "details": "Function lend moves assets on the (probably usdc) contract to our own balance   - Before calling: an approve(address _spender (proxy), uint256 _value (0xffff)) function call must be made on remote contract",
        "params": {
          "amount": "The amount of USDC to be transferred"
        },
        "returns": {
          "_0": "the amount of poolTokens created"
        }
      },
      "lendAndBoost(uint256,uint16,bool)": {
        "details": "Function lendAndBoost calls both the Lend and Boost functions in one call",
        "params": {
          "amount": "is amount of USDC to be deposited",
          "autoRenew": "is whether to continuously renew the boost",
          "level": "is boost level to enter"
        },
        "returns": {
          "_0": "the bool from boost that reprents successful boost"
        }
      },
      "lendAndStake(uint256)": {
        "details": "Function lendAndStake calls both the Lend and Stake functions in one call",
        "params": {
          "amount": "is amount of USDC to be deposited"
        },
        "returns": {
          "_0": "the bool from stake that reprents successful stake"
        }
      },
      "name()": {
        "details": "Returns the name of the token."
      },
      "redeem(uint256)": {
        "details": "Function redeem burns the sender's hcPool tokens and transfers the usdc back to them",
        "params": {
          "amount": "The amount of hc_pool to be redeemed"
        }
      },
      "repay(uint256,uint256)": {
        "details": "Function repay repays a specific loan   - payment is first deducted from the interest then principal.   - the servicer_fee is deducted from the interest repayment and servicer is compensated in hc_pool   - repayer must have first approved fromsfers on behalf",
        "params": {
          "amount": "The amount of the ERC20 token to repay the loan with   EDITED - Pool1 returns propToken when principal reaches 0",
          "loanId": "The loan to be repayed"
        }
      },
      "stake(uint256)": {
        "details": "Function stake transfers users bHOME to the poolStaking contract"
      },
      "symbol()": {
        "details": "Returns the symbol of the token, usually a shorter version of the name."
      },
      "totalSupply()": {
        "details": "See {IERC20-totalSupply}."
      },
      "transfer(address,uint256)": {
        "details": "See {IERC20-transfer}. Requirements: - `recipient` cannot be the zero address. - the caller must have a balance of at least `amount`."
      },
      "transferFrom(address,address,uint256)": {
        "details": "See {IERC20-transferFrom}. Emits an {Approval} event indicating the updated allowance. This is not required by the EIP. See the note at the beginning of {ERC20}. Requirements: - `sender` and `recipient` cannot be the zero address. - `sender` must have a balance of at least `amount`. - the caller must have allowance for ``sender``'s tokens of at least `amount`."
      }
    },
    "version": 1
  },
  "immutableReferences": {},
  "schemaVersion": "3.4.7",
  "source": "// contracts/Pool.sol\n// SPDX-License-Identifier: MIT\npragma solidity ^0.8.4;\n\nimport \"./../@openzeppelin/contracts-upgradeable/proxy/utils/Initializable.sol\";\nimport \"./../ERC20/ERC20UpgradeableFromERC777Rewardable.sol\";\nimport './../@openzeppelin/contracts-upgradeable/token/ERC20/IERC20Upgradeable.sol';\nimport './../PropTokens/PropToken0.sol';\nimport './../LTVGuidelines.sol';\nimport './../PoolUtils/PoolUtils0.sol';\nimport './../PoolStaking/PoolStaking4.sol';\nimport './../PoolStakingRewards/PoolStakingRewards3.sol';\nimport './../HomeBoost/HomeBoost0.sol';\n\nimport \"./../@openzeppelin/contracts-upgradeable/token/ERC721/IERC721ReceiverUpgradeable.sol\";\nimport './../@openzeppelin/contracts/utils/math/SafeMath.sol';\nimport './../@openzeppelin/contracts/utils/math/SignedSafeMath.sol';\n\nimport \"hardhat/console.sol\";\n\n\ncontract Pool13 is Initializable, ERC20UpgradeableFromERC777Rewardable, IERC721ReceiverUpgradeable {\n    using SignedSafeMath for int256;\n    using SafeMath for uint256;\n\n    struct Loan{\n        uint256 loanId;\n        address borrower;\n        uint256 interestRate;\n        uint256 principal;\n        uint256 interestAccrued;\n        uint256 timeLastPayment;\n    }\n\n    address servicer;\n\n    // Address of the ERC-20 contract used as liquidity supply. USDC for now.\n    address ERCAddress;\n\n    address[] servicerAddresses;\n    /* Adding a variable above this line (not reflected in Pool0) will cause contract storage conflicts */\n\n    uint256 poolLent;\n    uint256 poolBorrowed;\n    mapping(address => uint256[]) userLoans;\n    Loan[] loans;\n    uint256 loanCount;\n\n    uint constant servicerFeePercentage = 1000000;\n    uint constant baseInterestPercentage = 1000000;\n    uint constant curveK = 120000000;\n\n    /* Pool1 variables introduced here */\n    string private _name;\n    string private _symbol;\n    mapping(uint256 => uint256) loanToPropToken;\n    address propTokenContractAddress;\n\n    /* Pool2 variables introduced here */\n    address LTVOracleAddress;\n\n    /* Pool3 variables introduced here */\n    address poolUtilsAddress;\n    address baconCoinAddress;\n    address poolStakingAddress;\n\n    /* Pool 8 variables introduced here */\n    address daoAddress;\n\n    /*  Pool 9 variables introduced here\n        storage for nonReentrant modifier\n        modifier and variables could not be imported via inheratance given upgradability rules */\n    uint256 private constant _NOT_ENTERED = 1;\n    uint256 private constant _ENTERED = 2;\n    uint256 private _status;\n\n    /* pool10 variables added here */\n    address poolStakingRewardAddress; // contract responsible for determining the rewards for staking bHome\n\n    /*  Pool 11 variables introduced here */\n    bool airdropLocked;\n\n    /* Pool 13 variables here */\n    address homeBoostAddress;\n\n    /**\n     * @dev Prevents a contract from calling itself, directly or indirectly.\n     * Calling a `nonReentrant` function from another `nonReentrant`\n     * function is not supported. It is possible to prevent this from happening\n     * by making the `nonReentrant` function external, and making it call a\n     * `private` function that does the actual work.\n     */\n    modifier nonReentrant() {\n        // On the first call to nonReentrant, _notEntered will be true\n        require(_status != _ENTERED, \"ReentrancyGuard: reentrant call\");\n\n        // Any calls to nonReentrant after this point will fail\n        _status = _ENTERED;\n        _;\n\n        // By storing the original value once again, a refund is triggered (see\n        // https://eips.ethereum.org/EIPS/eip-2200)\n        _status = _NOT_ENTERED;\n    }\n\n    /*****************************************************\n    *       POOL STRUCTURE / UPGRADABILITY FUNCTIONS\n    ******************************************************/\n\n    function initializePool13(address _homeBoostAddress) public {\n        require(msg.sender == servicer);\n        homeBoostAddress = _homeBoostAddress;\n    }\n\n    function lockAirdorp() public {\n        require(msg.sender == servicer);\n        airdropLocked = true;\n    }\n\n    function passServicerRights(address _servicer) public {\n        require(msg.sender == servicer);\n        servicer = _servicer;\n    }\n\n    function name() public view override returns (string memory) {\n        return _name;\n    }\n\n    function symbol() public view override returns(string memory) {\n        return _symbol;\n    }\n\n    function decimals() public pure override returns(uint8) {\n        return 6;\n    }\n\n    /*****************************************************\n    *                GETTER FUNCTIONS\n    ******************************************************/\n    /**\n    *   @dev Function getContractData() returns a lot of variables about the contract\n    */\n    function getContractData() public view returns (address, address, uint256, uint256, uint256, uint256) {\n        return (servicer, ERCAddress, poolLent, (poolLent + PoolUtils0(poolUtilsAddress).getPoolInterestAccrued()), poolBorrowed, loanCount);\n    }\n\n    /*\n    *   @dev Function getLoanCount() returns how many active loans there are\n    */\n    function getLoanCount() public view returns (uint256) {\n        return loanCount;\n    }\n\n    /**\n    *   @dev Function getSupplyableTokenAddress() returns the contract address of ERC20 this pool accepts (ususally USDC)\n    */\n    function getSupplyableTokenAddress() public view returns (address) {\n        return ERCAddress;\n    }\n\n    /**\n    *   @dev Function getServicerAddress() returns the address of this pool's servicer\n    */\n    function getServicerAddress() public view returns (address) {\n        return servicer;\n    }\n\n    /**\n    *   @dev Function getLoanDetails() returns an all the raw details about a loan\n    *   @param loanId is the id for the loan we're looking up\n    *   EDITED in pool1 to also return PropToken ID\n    */\n    function getLoanDetails(uint256 loanId) public view returns (uint256, address, uint256, uint256, uint256, uint256, uint256) {\n        Loan memory loan = loans[loanId];\n        //temp interestAccrued calculation because this is a read function\n        uint256 interestAccrued = getLoanAccruedInterest(loanId);\n        uint256 propTokenID = loanToPropToken[loanId];\n        return (loan.loanId, loan.borrower, loan.interestRate, loan.principal, interestAccrued, loan.timeLastPayment, propTokenID);\n    }\n\n    /**\n    *   @dev Function getLoanAccruedInterest() calculates and returns the amount of interest accrued on a given loan\n    *   @param loanId is the id for the loan we're looking up\n    */\n    function getLoanAccruedInterest(uint256 loanId) public view returns (uint256) {\n        Loan memory loan = loans[loanId];\n        uint256 secondsSincePayment = block.timestamp.sub(loan.timeLastPayment);\n\n        uint256 interestPerSecond = loan.principal.mul(loan.interestRate).div(31104000);\n        uint256 interestAccrued = interestPerSecond.mul(secondsSincePayment).div(100000000);\n        return interestAccrued.add(loan.interestAccrued);\n    }\n\n\n    /*****************************************************\n    *                LENDING/BORROWING FUNCTIONS\n    ******************************************************/\n\n    /**\n    *   @dev Function lend moves assets on the (probably usdc) contract to our own balance\n    *   - Before calling: an approve(address _spender (proxy), uint256 _value (0xffff)) function call must be made on remote contract\n    *   @param amount The amount of USDC to be transferred\n    *   @return the amount of poolTokens created\n    */\n    function lend(\n        uint256 amount\n    ) public nonReentrant returns (uint256) {\n        IERC20Upgradeable(ERCAddress).transferFrom(msg.sender, address(this), amount);\n\n        poolLent = poolLent.add(amount);\n\n        super._mint(msg.sender, amount);\n\n        return amount;\n    }\n\n    /**\n    *   @dev Function redeem burns the sender's hcPool tokens and transfers the usdc back to them\n    *   @param amount The amount of hc_pool to be redeemed\n    */\n    function redeem(\n        uint256 amount\n    ) public nonReentrant {\n        // check to see if sender has enough HOME to redeem\n        require(balanceOf(msg.sender) >= amount, \"HOME balance insufficient\");\n\n        // check to make sure there is liquidity available in the pool to withdraw\n        require(amount <= (poolLent - poolBorrowed), \"not enough USDC to redeem\");\n\n        // check to make sure there's enough unlocked liquidity in the pool.\n        // funds staked or locked are unavailable for redemption -- only borrowing.\n        uint256 locked = balanceOf(poolStakingAddress) + balanceOf(homeBoostAddress);\n        require(amount <= (poolLent - locked), \"not enough unlocked USDC to redeem\");\n\n        // burn HOME\n        super._burn(msg.sender, amount);\n\n        // update the amount of liquidity held\n        poolLent = poolLent.sub(amount);\n\n        // send out the USDC\n        IERC20Upgradeable(ERCAddress).transfer(msg.sender, amount);\n    }\n\n    /**\n    *   @dev Function borrow creates a new Loan, moves the USDC to Borrower, and returns the loan ID and fixed Interest Rate\n    *   - Also creates an origination fee for the Servicer in HC_Pool\n    *   @param amount The size of the potential loan in (probably usdc).\n    *   @param maxRate The size of the potential loan in (probably usdc).\n    *   EDITED in pool1 to also require a PropToken\n    *   EDITED in pool1 - borrower param was removed and msg.sender is new recepient of USDC\n    *   EDITED in pool2 - propToken data is oulled and LTV of loan is required before loan can process\n    */\n    function borrow(uint256 amount, uint256 maxRate, uint256 propTokenId) public nonReentrant {\n        //for v2 require this address is approved to transfer propToken\n        require(PropToken0(propTokenContractAddress).getApproved(propTokenId) == address(this), \"pool not approved to move egg\");\n        //also require msg.sender is owner of token\n        require(PropToken0(propTokenContractAddress).ownerOf(propTokenId) == msg.sender, \"msg.sender not egg owner\");\n\n        //check the requested interest rate is still available\n        uint256 fixedInterestRate = uint256(PoolUtils0(poolUtilsAddress).getInterestRate(amount));\n        require(fixedInterestRate <= maxRate, \"interest rate no longer avail\");\n\n        //require the propToken approved has a lien value less than or equal to the requested loan size\n        uint256 lienAmount = PropToken0(propTokenContractAddress).getLienValue(propTokenId);\n        require(lienAmount >= amount, \"loan larger that egg value\");\n\n        //require that LTV of propToken is less than LTV required by oracle\n        uint256 LTVRequirement = LTVGuidelines(LTVOracleAddress).getMaxLTV();\n        (, , uint256[] memory SeniorLiens, uint256 HomeValue, , ,) = PropToken0(propTokenContractAddress).getPropTokenData(propTokenId);\n        for (uint i = 0; i < SeniorLiens.length; i++) {\n            lienAmount = lienAmount.add(SeniorLiens[i]);\n        }\n        require(lienAmount.mul(100).div(HomeValue) < LTVRequirement, \"LTV too high\");\n\n\n        //first take the propToken\n        PropToken0(propTokenContractAddress).safeTransferFrom(msg.sender, address(this), propTokenId);\n\n        //create new Loan\n        Loan memory newLoan = Loan(loanCount, msg.sender, fixedInterestRate, amount, 0, block.timestamp);\n        loans.push(newLoan);\n        userLoans[msg.sender].push(loanCount);\n\n        //map new loanID to Token ID\n        loanToPropToken[loanCount] = propTokenId;\n\n        //update system variables\n        loanCount = loanCount.add(1);\n        poolBorrowed = poolBorrowed.add(amount);\n\n        // Finally move the funds. 99% to the borrower. 0.5% to servicer. 0.5% to DAO.\n        IERC20Upgradeable(ERCAddress).transfer(msg.sender, amount.mul(99).div(100));\n        super._mint(servicer, amount.div(200));\n        super._mint(daoAddress, amount.div(200));\n    }\n\n    /**\n    *   @dev Function repay repays a specific loan\n    *   - payment is first deducted from the interest then principal.\n    *   - the servicer_fee is deducted from the interest repayment and servicer is compensated in hc_pool\n    *   - repayer must have first approved fromsfers on behalf\n    *   @param loanId The loan to be repayed\n    *   @param amount The amount of the ERC20 token to repay the loan with\n    *   EDITED - Pool1 returns propToken when principal reaches 0\n    */\n\n    function repay(uint256 loanId, uint256 amount) public nonReentrant {\n        //interestAmountRepayed keeps track of how much of the loan was returned to the pool to calculate servicer fee(treated as cash investment)\n        uint256 interestAmountRepayed = amount;\n\n        uint256 currentInterest = getLoanAccruedInterest(loanId);\n        if(currentInterest > amount) {\n            //if the payment is less than the interest accrued on the loan, just deduct amount from interest\n            //deduct amount FIRST (to make sure they have available balance), then reduce loan amount\n            IERC20Upgradeable(ERCAddress).transferFrom(msg.sender, address(this), amount);\n            loans[loanId].interestAccrued = currentInterest.sub(amount);\n        } else {\n            //if the amount borrow is repaying is greater than interest accrued, deduct the rest from principal\n            interestAmountRepayed = currentInterest;\n            uint256 amountAfterInterest = amount.sub(currentInterest);\n\n            if(loans[loanId].principal > amountAfterInterest) {\n                //deduct amount from Borrower and reduce the principal\n                IERC20Upgradeable(ERCAddress).transferFrom(msg.sender, address(this), amount);\n\n                //return the repayed principal to the 'borrowable' amount\n                poolBorrowed = poolBorrowed.sub(amountAfterInterest);\n                loans[loanId].principal = loans[loanId].principal.sub(amountAfterInterest);\n            } else {\n                //deduct totalLoanValue\n                uint256 totalLoanValue = loans[loanId].principal.add(currentInterest);\n                IERC20Upgradeable(ERCAddress).transferFrom(msg.sender, address(this), totalLoanValue);\n\n                //return the repayed principal to the 'borrowable' amount\n                poolBorrowed = poolBorrowed.sub(loans[loanId].principal);\n                loans[loanId].principal = 0;\n\n                //Send PropToken back to borrower\n                PropToken0(propTokenContractAddress).safeTransferFrom(address(this), loans[loanId].borrower, loanToPropToken[loanId]);\n            }\n\n            //set interest accrued to 0 AFTER successful erc20 transfer\n            loans[loanId].interestAccrued = 0;\n        }\n\n        //last payment timestamp is only updated AFTER  successful erc20 transfer\n        loans[loanId].timeLastPayment = block.timestamp;\n\n        // Treat repayed interest as new money Lent into the pool\n        poolLent = poolLent.add(interestAmountRepayed);\n\n        //servicer fee is treated as cash investment in the pool as the percentage interest\n        //calculate how much of payment goes to servicer here\n        uint256 servicerFeeInERC = servicerFeePercentage.mul(interestAmountRepayed).div(loans[loanId].interestRate);\n\n        // Mint bHOME proportional to the payment and distribute\n        super._mint(servicer, servicerFeeInERC.div(2));\n        super._mint(daoAddress, servicerFeeInERC.div(2));\n\n        // Send the remaining interest to the DAO for now\n        super._mint(daoAddress, interestAmountRepayed.sub(servicerFeeInERC));\n    }\n\n    /*****************************************************\n    *                Staking FUNCTIONS\n    ******************************************************/\n\n    /**\n    *   @dev Function stake transfers users bHOME to the poolStaking contract\n    */\n    function stake(uint256 amount) public returns (bool) {\n        require(balanceOf(msg.sender) >= amount, \"not enough to stake\");\n\n        transfer(poolStakingAddress, amount);\n        bool successfulStake = PoolStakingRewards3(poolStakingRewardAddress).stake(msg.sender, amount);\n        require(successfulStake, \"Stake failed\");\n\n        return successfulStake;\n    }\n\n    function boost(uint256 amount, uint16 level, bool autoRenew) public returns (bool){\n        require(balanceOf(msg.sender) >= amount, \"Not enough to boost\");\n\n        // Deposit the funds with the staking contract so they can still earn Bacon.\n        // Send all tokens to the staking contract to hold them for the user.\n        // Only stake a proportion so the boost earns the appropraite amount of Bacon.\n        uint256 amountToStake = HomeBoost0(homeBoostAddress).getStakeAmount(level, amount);\n\n        transfer(poolStakingAddress, amountToStake);\n        bool successfulStake = PoolStakingRewards3(poolStakingRewardAddress).stake(msg.sender, amountToStake);\n\n        // Send any remaining unstaked amounts to the boost contract for holding.\n        if (amountToStake < amount) {\n            transfer(homeBoostAddress, amount - amountToStake);\n        }\n\n        // Create the boost\n        bool successfulBoost = HomeBoost0(homeBoostAddress).mint(msg.sender, amount, level, autoRenew);\n\n        require(successfulStake && successfulBoost, \"Boost failed\");\n\n        return successfulStake && successfulBoost;\n    }\n\n    /**\n    *   @dev Function lendAndStake calls both the Lend and Stake functions in one call\n    *   @param amount is amount of USDC to be deposited\n    *   @return the bool from stake that reprents successful stake\n    */\n    function lendAndStake(uint256 amount) public returns (bool) {\n        uint256 newPoolTokens = lend(amount);\n        return stake(newPoolTokens);\n    }\n\n    /**\n    *   @dev Function lendAndBoost calls both the Lend and Boost functions in one call\n    *   @param amount is amount of USDC to be deposited\n    *   @param level is boost level to enter\n    *   @param autoRenew is whether to continuously renew the boost\n    *   @return the bool from boost that reprents successful boost\n    */\n    function lendAndBoost(uint256 amount, uint16 level, bool autoRenew) public returns (bool) {\n        uint256 newPoolTokens = lend(amount);\n        return boost(amount, level, autoRenew);\n    }\n\n    /**\n    *   @dev Function getVersion returns current upgraded version\n    */\n    function getVersion() public pure returns (uint) {\n        return 13;\n    }\n\n    function onERC721Received(address, address, uint256, bytes memory ) public pure override returns (bytes4) {\n        return this.onERC721Received.selector;\n    }\n\n    function claimRewards() public returns (uint256) {\n        // 1% Rewards [div by 100]\n        uint256 unstakedRewards = super.getAndClearReward(msg.sender).div(100);\n\n        uint256 stakedRewards = PoolStakingRewards3(poolStakingRewardAddress).getAndClearReward(msg.sender).div(100);\n\n        uint256 rewards = unstakedRewards + stakedRewards;\n\n        super._transfer(daoAddress, msg.sender, rewards);\n\n        return rewards;\n    }\n\n    function transferBoostRewards(address wallet, uint256 amount) public {\n        require(msg.sender == homeBoostAddress, \"invalid sender\");\n\n        console.log('transfering %s from %s to %s', amount, daoAddress, wallet);\n\n        super._transfer(daoAddress, wallet, amount);\n    }\n\n    /**\n    * @dev Function burn burns bHOME\n    * @param amount is the amount of bHOME to burn\n    */\n    function burn(uint256 amount) public {\n        super._burn(msg.sender, amount);\n    }\n\n}\n",
  "sourcePath": "/src/contracts/PoolCore/Pool13.sol",
  "updatedAt": "2022-08-11T19:21:54.503Z",
  "userdoc": {
    "kind": "user",
    "methods": {},
    "version": 1
  }
}