{
  "contractName": "Pool7",
  "abi": [
    {
      "anonymous": false,
      "inputs": [
        {
          "indexed": true,
          "internalType": "address",
          "name": "owner",
          "type": "address"
        },
        {
          "indexed": true,
          "internalType": "address",
          "name": "spender",
          "type": "address"
        },
        {
          "indexed": false,
          "internalType": "uint256",
          "name": "value",
          "type": "uint256"
        }
      ],
      "name": "Approval",
      "type": "event"
    },
    {
      "anonymous": false,
      "inputs": [
        {
          "indexed": true,
          "internalType": "address",
          "name": "operator",
          "type": "address"
        },
        {
          "indexed": true,
          "internalType": "address",
          "name": "tokenHolder",
          "type": "address"
        }
      ],
      "name": "AuthorizedOperator",
      "type": "event"
    },
    {
      "anonymous": false,
      "inputs": [
        {
          "indexed": true,
          "internalType": "address",
          "name": "operator",
          "type": "address"
        },
        {
          "indexed": true,
          "internalType": "address",
          "name": "from",
          "type": "address"
        },
        {
          "indexed": false,
          "internalType": "uint256",
          "name": "amount",
          "type": "uint256"
        },
        {
          "indexed": false,
          "internalType": "bytes",
          "name": "data",
          "type": "bytes"
        },
        {
          "indexed": false,
          "internalType": "bytes",
          "name": "operatorData",
          "type": "bytes"
        }
      ],
      "name": "Burned",
      "type": "event"
    },
    {
      "anonymous": false,
      "inputs": [
        {
          "indexed": true,
          "internalType": "address",
          "name": "operator",
          "type": "address"
        },
        {
          "indexed": true,
          "internalType": "address",
          "name": "to",
          "type": "address"
        },
        {
          "indexed": false,
          "internalType": "uint256",
          "name": "amount",
          "type": "uint256"
        },
        {
          "indexed": false,
          "internalType": "bytes",
          "name": "data",
          "type": "bytes"
        },
        {
          "indexed": false,
          "internalType": "bytes",
          "name": "operatorData",
          "type": "bytes"
        }
      ],
      "name": "Minted",
      "type": "event"
    },
    {
      "anonymous": false,
      "inputs": [
        {
          "indexed": true,
          "internalType": "address",
          "name": "operator",
          "type": "address"
        },
        {
          "indexed": true,
          "internalType": "address",
          "name": "tokenHolder",
          "type": "address"
        }
      ],
      "name": "RevokedOperator",
      "type": "event"
    },
    {
      "anonymous": false,
      "inputs": [
        {
          "indexed": true,
          "internalType": "address",
          "name": "operator",
          "type": "address"
        },
        {
          "indexed": true,
          "internalType": "address",
          "name": "from",
          "type": "address"
        },
        {
          "indexed": true,
          "internalType": "address",
          "name": "to",
          "type": "address"
        },
        {
          "indexed": false,
          "internalType": "uint256",
          "name": "amount",
          "type": "uint256"
        },
        {
          "indexed": false,
          "internalType": "bytes",
          "name": "data",
          "type": "bytes"
        },
        {
          "indexed": false,
          "internalType": "bytes",
          "name": "operatorData",
          "type": "bytes"
        }
      ],
      "name": "Sent",
      "type": "event"
    },
    {
      "anonymous": false,
      "inputs": [
        {
          "indexed": true,
          "internalType": "address",
          "name": "from",
          "type": "address"
        },
        {
          "indexed": true,
          "internalType": "address",
          "name": "to",
          "type": "address"
        },
        {
          "indexed": false,
          "internalType": "uint256",
          "name": "value",
          "type": "uint256"
        }
      ],
      "name": "Transfer",
      "type": "event"
    },
    {
      "inputs": [
        {
          "internalType": "address",
          "name": "holder",
          "type": "address"
        },
        {
          "internalType": "address",
          "name": "spender",
          "type": "address"
        }
      ],
      "name": "allowance",
      "outputs": [
        {
          "internalType": "uint256",
          "name": "",
          "type": "uint256"
        }
      ],
      "stateMutability": "view",
      "type": "function"
    },
    {
      "inputs": [
        {
          "internalType": "address",
          "name": "spender",
          "type": "address"
        },
        {
          "internalType": "uint256",
          "name": "value",
          "type": "uint256"
        }
      ],
      "name": "approve",
      "outputs": [
        {
          "internalType": "bool",
          "name": "",
          "type": "bool"
        }
      ],
      "stateMutability": "nonpayable",
      "type": "function"
    },
    {
      "inputs": [
        {
          "internalType": "address",
          "name": "operator",
          "type": "address"
        }
      ],
      "name": "authorizeOperator",
      "outputs": [],
      "stateMutability": "nonpayable",
      "type": "function"
    },
    {
      "inputs": [
        {
          "internalType": "address",
          "name": "tokenHolder",
          "type": "address"
        }
      ],
      "name": "balanceOf",
      "outputs": [
        {
          "internalType": "uint256",
          "name": "",
          "type": "uint256"
        }
      ],
      "stateMutability": "view",
      "type": "function"
    },
    {
      "inputs": [
        {
          "internalType": "uint256",
          "name": "amount",
          "type": "uint256"
        },
        {
          "internalType": "bytes",
          "name": "data",
          "type": "bytes"
        }
      ],
      "name": "burn",
      "outputs": [],
      "stateMutability": "nonpayable",
      "type": "function"
    },
    {
      "inputs": [],
      "name": "defaultOperators",
      "outputs": [
        {
          "internalType": "address[]",
          "name": "",
          "type": "address[]"
        }
      ],
      "stateMutability": "view",
      "type": "function"
    },
    {
      "inputs": [],
      "name": "granularity",
      "outputs": [
        {
          "internalType": "uint256",
          "name": "",
          "type": "uint256"
        }
      ],
      "stateMutability": "view",
      "type": "function"
    },
    {
      "inputs": [
        {
          "internalType": "address",
          "name": "operator",
          "type": "address"
        },
        {
          "internalType": "address",
          "name": "tokenHolder",
          "type": "address"
        }
      ],
      "name": "isOperatorFor",
      "outputs": [
        {
          "internalType": "bool",
          "name": "",
          "type": "bool"
        }
      ],
      "stateMutability": "view",
      "type": "function"
    },
    {
      "inputs": [
        {
          "internalType": "address",
          "name": "account",
          "type": "address"
        },
        {
          "internalType": "uint256",
          "name": "amount",
          "type": "uint256"
        },
        {
          "internalType": "bytes",
          "name": "data",
          "type": "bytes"
        },
        {
          "internalType": "bytes",
          "name": "operatorData",
          "type": "bytes"
        }
      ],
      "name": "operatorBurn",
      "outputs": [],
      "stateMutability": "nonpayable",
      "type": "function"
    },
    {
      "inputs": [
        {
          "internalType": "address",
          "name": "sender",
          "type": "address"
        },
        {
          "internalType": "address",
          "name": "recipient",
          "type": "address"
        },
        {
          "internalType": "uint256",
          "name": "amount",
          "type": "uint256"
        },
        {
          "internalType": "bytes",
          "name": "data",
          "type": "bytes"
        },
        {
          "internalType": "bytes",
          "name": "operatorData",
          "type": "bytes"
        }
      ],
      "name": "operatorSend",
      "outputs": [],
      "stateMutability": "nonpayable",
      "type": "function"
    },
    {
      "inputs": [
        {
          "internalType": "address",
          "name": "operator",
          "type": "address"
        }
      ],
      "name": "revokeOperator",
      "outputs": [],
      "stateMutability": "nonpayable",
      "type": "function"
    },
    {
      "inputs": [
        {
          "internalType": "address",
          "name": "recipient",
          "type": "address"
        },
        {
          "internalType": "uint256",
          "name": "amount",
          "type": "uint256"
        },
        {
          "internalType": "bytes",
          "name": "data",
          "type": "bytes"
        }
      ],
      "name": "send",
      "outputs": [],
      "stateMutability": "nonpayable",
      "type": "function"
    },
    {
      "inputs": [],
      "name": "totalSupply",
      "outputs": [
        {
          "internalType": "uint256",
          "name": "",
          "type": "uint256"
        }
      ],
      "stateMutability": "view",
      "type": "function"
    },
    {
      "inputs": [
        {
          "internalType": "address",
          "name": "recipient",
          "type": "address"
        },
        {
          "internalType": "uint256",
          "name": "amount",
          "type": "uint256"
        }
      ],
      "name": "transfer",
      "outputs": [
        {
          "internalType": "bool",
          "name": "",
          "type": "bool"
        }
      ],
      "stateMutability": "nonpayable",
      "type": "function"
    },
    {
      "inputs": [
        {
          "internalType": "address",
          "name": "holder",
          "type": "address"
        },
        {
          "internalType": "address",
          "name": "recipient",
          "type": "address"
        },
        {
          "internalType": "uint256",
          "name": "amount",
          "type": "uint256"
        }
      ],
      "name": "transferFrom",
      "outputs": [
        {
          "internalType": "bool",
          "name": "",
          "type": "bool"
        }
      ],
      "stateMutability": "nonpayable",
      "type": "function"
    },
    {
      "inputs": [],
      "name": "name",
      "outputs": [
        {
          "internalType": "string",
          "name": "",
          "type": "string"
        }
      ],
      "stateMutability": "view",
      "type": "function"
    },
    {
      "inputs": [],
      "name": "symbol",
      "outputs": [
        {
          "internalType": "string",
          "name": "",
          "type": "string"
        }
      ],
      "stateMutability": "view",
      "type": "function"
    },
    {
      "inputs": [],
      "name": "decimals",
      "outputs": [
        {
          "internalType": "uint8",
          "name": "",
          "type": "uint8"
        }
      ],
      "stateMutability": "pure",
      "type": "function"
    },
    {
      "inputs": [
        {
          "internalType": "address[]",
          "name": "_servicerAddresses",
          "type": "address[]"
        }
      ],
      "name": "setApprovedAddresses",
      "outputs": [],
      "stateMutability": "nonpayable",
      "type": "function"
    },
    {
      "inputs": [],
      "name": "getContractData",
      "outputs": [
        {
          "internalType": "address",
          "name": "",
          "type": "address"
        },
        {
          "internalType": "address",
          "name": "",
          "type": "address"
        },
        {
          "internalType": "uint256",
          "name": "",
          "type": "uint256"
        },
        {
          "internalType": "uint256",
          "name": "",
          "type": "uint256"
        },
        {
          "internalType": "uint256",
          "name": "",
          "type": "uint256"
        },
        {
          "internalType": "uint256",
          "name": "",
          "type": "uint256"
        }
      ],
      "stateMutability": "view",
      "type": "function"
    },
    {
      "inputs": [],
      "name": "getLoanCount",
      "outputs": [
        {
          "internalType": "uint256",
          "name": "",
          "type": "uint256"
        }
      ],
      "stateMutability": "view",
      "type": "function"
    },
    {
      "inputs": [],
      "name": "getSupplyableTokenAddress",
      "outputs": [
        {
          "internalType": "address",
          "name": "",
          "type": "address"
        }
      ],
      "stateMutability": "view",
      "type": "function"
    },
    {
      "inputs": [],
      "name": "getServicerAddress",
      "outputs": [
        {
          "internalType": "address",
          "name": "",
          "type": "address"
        }
      ],
      "stateMutability": "view",
      "type": "function"
    },
    {
      "inputs": [
        {
          "internalType": "uint256",
          "name": "loanId",
          "type": "uint256"
        }
      ],
      "name": "getLoanDetails",
      "outputs": [
        {
          "internalType": "uint256",
          "name": "",
          "type": "uint256"
        },
        {
          "internalType": "address",
          "name": "",
          "type": "address"
        },
        {
          "internalType": "uint256",
          "name": "",
          "type": "uint256"
        },
        {
          "internalType": "uint256",
          "name": "",
          "type": "uint256"
        },
        {
          "internalType": "uint256",
          "name": "",
          "type": "uint256"
        },
        {
          "internalType": "uint256",
          "name": "",
          "type": "uint256"
        },
        {
          "internalType": "uint256",
          "name": "",
          "type": "uint256"
        }
      ],
      "stateMutability": "view",
      "type": "function"
    },
    {
      "inputs": [
        {
          "internalType": "uint256",
          "name": "loanId",
          "type": "uint256"
        }
      ],
      "name": "getLoanAccruedInterest",
      "outputs": [
        {
          "internalType": "uint256",
          "name": "",
          "type": "uint256"
        }
      ],
      "stateMutability": "view",
      "type": "function"
    },
    {
      "inputs": [
        {
          "internalType": "uint256",
          "name": "amount",
          "type": "uint256"
        }
      ],
      "name": "lend",
      "outputs": [
        {
          "internalType": "uint256",
          "name": "",
          "type": "uint256"
        }
      ],
      "stateMutability": "nonpayable",
      "type": "function"
    },
    {
      "inputs": [
        {
          "internalType": "uint256",
          "name": "amount",
          "type": "uint256"
        }
      ],
      "name": "redeem",
      "outputs": [],
      "stateMutability": "nonpayable",
      "type": "function"
    },
    {
      "inputs": [
        {
          "internalType": "uint256",
          "name": "amount",
          "type": "uint256"
        },
        {
          "internalType": "uint256",
          "name": "maxRate",
          "type": "uint256"
        },
        {
          "internalType": "uint256",
          "name": "propTokenId",
          "type": "uint256"
        }
      ],
      "name": "borrow",
      "outputs": [],
      "stateMutability": "nonpayable",
      "type": "function"
    },
    {
      "inputs": [
        {
          "internalType": "uint256",
          "name": "loanId",
          "type": "uint256"
        },
        {
          "internalType": "uint256",
          "name": "amount",
          "type": "uint256"
        }
      ],
      "name": "repay",
      "outputs": [],
      "stateMutability": "nonpayable",
      "type": "function"
    },
    {
      "inputs": [
        {
          "internalType": "uint256",
          "name": "amount",
          "type": "uint256"
        }
      ],
      "name": "stake",
      "outputs": [
        {
          "internalType": "bool",
          "name": "",
          "type": "bool"
        }
      ],
      "stateMutability": "nonpayable",
      "type": "function"
    },
    {
      "inputs": [
        {
          "internalType": "uint256",
          "name": "amount",
          "type": "uint256"
        }
      ],
      "name": "lendAndStake",
      "outputs": [
        {
          "internalType": "bool",
          "name": "",
          "type": "bool"
        }
      ],
      "stateMutability": "nonpayable",
      "type": "function"
    },
    {
      "inputs": [],
      "name": "getVersion",
      "outputs": [
        {
          "internalType": "uint256",
          "name": "",
          "type": "uint256"
        }
      ],
      "stateMutability": "pure",
      "type": "function"
    },
    {
      "inputs": [
        {
          "internalType": "address",
          "name": "",
          "type": "address"
        },
        {
          "internalType": "address",
          "name": "",
          "type": "address"
        },
        {
          "internalType": "uint256",
          "name": "",
          "type": "uint256"
        },
        {
          "internalType": "bytes",
          "name": "",
          "type": "bytes"
        }
      ],
      "name": "onERC721Received",
      "outputs": [
        {
          "internalType": "bytes4",
          "name": "",
          "type": "bytes4"
        }
      ],
      "stateMutability": "pure",
      "type": "function"
    }
  ],
  "bytecode": "0x608060405234801561001057600080fd5b50613621806100206000396000f3fe608060405234801561001057600080fd5b506004361061020b5760003560e01c8063959b8c3f1161012a578063adf459ca116100bd578063dd62ed3e1161008c578063fad8b32a11610071578063fad8b32a14610541578063fc673c4f14610554578063fe9d93031461056757600080fd5b8063dd62ed3e146104f5578063e636eddc1461052e57600080fd5b8063adf459ca146104a9578063d8aed145146104bc578063d95b6371146104cf578063db006a75146104e257600080fd5b8063a68b91ab116100f9578063a68b91ab14610430578063a694fc3a14610470578063a6aa57ce14610483578063a9059cbb1461049657600080fd5b8063959b8c3f146103ef57806395d89b41146104025780639a5872f41461040a5780639bd9bbc61461041d57600080fd5b8063313ce567116101a257806366877b8d1161017157806366877b8d1461035257806370a08231146103a25780637e174eb4146103cb57806390b53e14146103de57600080fd5b8063313ce5671461031f578063521968121461032e578063556f0dc71461033657806362ad1b831461033d57600080fd5b8063150b7a02116101de578063150b7a021461027757806318160ddd146102df57806323b872dd146102e75780632f5e5d95146102fa57600080fd5b806306e485381461021057806306fdde031461022e578063095ea7b3146102435780630d8e6e2c14610266575b600080fd5b61021861057a565b6040516102259190612d2e565b60405180910390f35b6102366105dc565b6040516102259190612dd3565b610256610251366004612dfe565b610665565b6040519015158152602001610225565b60075b604051908152602001610225565b6102ae610285366004612eef565b7f150b7a0200000000000000000000000000000000000000000000000000000000949350505050565b6040517fffffffff000000000000000000000000000000000000000000000000000000009091168152602001610225565b603454610269565b6102566102f5366004612f5b565b61067d565b6066546001600160a01b03165b6040516001600160a01b039091168152602001610225565b60405160068152602001610225565b606c54610269565b6001610269565b61035061034b366004612f9c565b6108c2565b005b61036561036036600461302f565b610954565b604080519788526001600160a01b039096166020880152948601939093526060850191909152608084015260a083015260c082015260e001610225565b6102696103b0366004613048565b6001600160a01b031660009081526033602052604090205490565b6103506103d9366004613089565b610a17565b6065546001600160a01b0316610307565b6103506103fd366004613048565b610a45565b610236610b7c565b61026961041836600461302f565b610b8b565b61035061042b366004613123565b610c72565b610438610c95565b604080516001600160a01b039788168152969095166020870152938501929092526060840152608083015260a082015260c001610225565b61025661047e36600461302f565b610d6f565b61026961049136600461302f565b610e92565b6102566104a4366004612dfe565b610f69565b6103506104b736600461317c565b611071565b6103506104ca3660046131a8565b6118d4565b6102566104dd3660046131ca565b611ddb565b6103506104f036600461302f565b611e7d565b6102696105033660046131ca565b6001600160a01b039182166000908152603b6020908152604080832093909416825291909152205490565b61025661053c36600461302f565b611fc7565b61035061054f366004613048565b611fde565b610350610562366004613203565b612116565b610350610575366004613277565b61219e565b606060378054806020026020016040519081016040528092919081815260200182805480156105d257602002820191906000526020600020905b81546001600160a01b031681526001909101906020018083116105b4575b5050505050905090565b6060606d80546105eb906132be565b80601f0160208091040260200160405190810160405280929190818152602001828054610617906132be565b80156105d25780601f10610639576101008083540402835291602001916105d2565b820191906000526020600020905b81548152906001019060200180831161064757509395945050505050565b6000336106738185856121b9565b5060019392505050565b60006001600160a01b0383166106ff5760405162461bcd60e51b8152602060048201526024808201527f4552433737373a207472616e7366657220746f20746865207a65726f2061646460448201527f726573730000000000000000000000000000000000000000000000000000000060648201526084015b60405180910390fd5b6001600160a01b03841661077b5760405162461bcd60e51b815260206004820152602660248201527f4552433737373a207472616e736665722066726f6d20746865207a65726f206160448201527f646472657373000000000000000000000000000000000000000000000000000060648201526084016106f6565b60003390506107ac818686866040518060200160405280600081525060405180602001604052806000815250612312565b6107d881868686604051806020016040528060008152506040518060200160405280600081525061247b565b6001600160a01b038086166000908152603b6020908152604080832093851683529290522054838110156108745760405162461bcd60e51b815260206004820152602960248201527f4552433737373a207472616e7366657220616d6f756e7420657863656564732060448201527f616c6c6f77616e6365000000000000000000000000000000000000000000000060648201526084016106f6565b6108888683610883878561330f565b6121b9565b6108b682878787604051806020016040528060008152506040518060200160405280600081525060006125f7565b50600195945050505050565b6108cc3386611ddb565b61093e5760405162461bcd60e51b815260206004820152602c60248201527f4552433737373a2063616c6c6572206973206e6f7420616e206f70657261746f60448201527f7220666f7220686f6c646572000000000000000000000000000000000000000060648201526084016106f6565b61094d8585858585600161280d565b5050505050565b600080600080600080600080606b898154811061097357610973613326565b600091825260208083206040805160c08101825260069094029091018054845260018101546001600160a01b03169284019290925260028201549083015260038101546060830152600481015460808301526005015460a082015291506109d98a610b8b565b60009a8b52606f602090815260409b8c9020548451918501519c850151606086015160a090960151929e909c50949a50919850965094509092505050565b6065546001600160a01b03163314610a2e57600080fd5b8051610a41906067906020840190612c9c565b5050565b336001600160a01b0382161415610ac35760405162461bcd60e51b8152602060048201526024808201527f4552433737373a20617574686f72697a696e672073656c66206173206f70657260448201527f61746f720000000000000000000000000000000000000000000000000000000060648201526084016106f6565b6001600160a01b03811660009081526038602052604090205460ff1615610b1457336000908152603a602090815260408083206001600160a01b03851684529091529020805460ff19169055610b43565b3360009081526039602090815260408083206001600160a01b03851684529091529020805460ff191660011790555b60405133906001600160a01b038316907ff4caeb2d6ca8932a215a353d0703c326ec2d81fc68170f320eb2ab49e9df61f990600090a350565b6060606e80546105eb906132be565b600080606b8381548110610ba157610ba1613326565b600091825260208083206040805160c08101825260069094029091018054845260018101546001600160a01b03169284019290925260028201549083015260038101546060830152600481015460808301526005015460a08201819052909250610c0c90429061290b565b90506000610c396301e28500610c338560400151866060015161291790919063ffffffff16565b90612923565b90506000610c4f6305f5e100610c338486612917565b9050610c6884608001518261292f90919063ffffffff16565b9695505050505050565b610c903384848460405180602001604052806000815250600161280d565b505050565b606554606654606854607254604080517f7eb0d8b10000000000000000000000000000000000000000000000000000000081529051600095869586958695869586956001600160a01b03958616959485169490921691637eb0d8b191600480820192602092909190829003018186803b158015610d1157600080fd5b505afa158015610d25573d6000803e3d6000fd5b505050506040513d601f19601f82011682018060405250810190610d49919061333c565b606854610d569190613355565b606954606c54949b939a50919850965094509092509050565b33600090815260336020526040812054821115610dce5760405162461bcd60e51b815260206004820152601360248201527f6e6f7420656e6f75676820746f207374616b650000000000000000000000000060448201526064016106f6565b6074546040517fadc9772e000000000000000000000000000000000000000000000000000000008152336004820152602481018490526000916001600160a01b03169063adc9772e90604401602060405180830381600087803b158015610e3457600080fd5b505af1158015610e48573d6000803e3d6000fd5b505050506040513d601f19601f82011682018060405250810190610e6c919061336d565b90508015610e8c57607454610e8a906001600160a01b031684610f69565b505b92915050565b6066546040516323b872dd60e01b8152336004820152306024820152604481018390526000916001600160a01b0316906323b872dd90606401602060405180830381600087803b158015610ee557600080fd5b505af1158015610ef9573d6000803e3d6000fd5b505050506040513d601f19601f82011682018060405250810190610f1d919061336d565b506000610f298361293b565b606854909150610f39908461292f565b606881905550610e8c33826040518060200160405280600081525060405180602001604052806000815250612967565b60006001600160a01b038316610fe65760405162461bcd60e51b8152602060048201526024808201527f4552433737373a207472616e7366657220746f20746865207a65726f2061646460448201527f726573730000000000000000000000000000000000000000000000000000000060648201526084016106f6565b6000339050611017818286866040518060200160405280600081525060405180602001604052806000815250612312565b61104381828686604051806020016040528060008152506040518060200160405280600081525061247b565b61067381828686604051806020016040528060008152506040518060200160405280600081525060006125f7565b6070546040517f081812fc0000000000000000000000000000000000000000000000000000000081526004810183905230916001600160a01b03169063081812fc9060240160206040518083038186803b1580156110ce57600080fd5b505afa1580156110e2573d6000803e3d6000fd5b505050506040513d601f19601f82011682018060405250810190611106919061338f565b6001600160a01b03161461115c5760405162461bcd60e51b815260206004820152601d60248201527f706f6f6c206e6f7420617070726f76656420746f206d6f76652065676700000060448201526064016106f6565b6070546040517f6352211e0000000000000000000000000000000000000000000000000000000081526004810183905233916001600160a01b031690636352211e9060240160206040518083038186803b1580156111b957600080fd5b505afa1580156111cd573d6000803e3d6000fd5b505050506040513d601f19601f820116820180604052508101906111f1919061338f565b6001600160a01b0316146112475760405162461bcd60e51b815260206004820152601860248201527f6d73672e73656e646572206e6f7420656767206f776e6572000000000000000060448201526064016106f6565b6072546040517f0c196a74000000000000000000000000000000000000000000000000000000008152600481018590526000916001600160a01b031690630c196a749060240160206040518083038186803b1580156112a557600080fd5b505afa1580156112b9573d6000803e3d6000fd5b505050506040513d601f19601f820116820180604052508101906112dd919061333c565b90508281111561132f5760405162461bcd60e51b815260206004820152601d60248201527f696e7465726573742072617465206e6f206c6f6e67657220617661696c00000060448201526064016106f6565b6070546040517f6ebb668b000000000000000000000000000000000000000000000000000000008152600481018490526000916001600160a01b031690636ebb668b9060240160206040518083038186803b15801561138d57600080fd5b505afa1580156113a1573d6000803e3d6000fd5b505050506040513d601f19601f820116820180604052508101906113c5919061333c565b9050848110156114175760405162461bcd60e51b815260206004820152601a60248201527f6c6f616e206c61726765722074686174206567672076616c756500000000000060448201526064016106f6565b607154604080517f15a2bf9e00000000000000000000000000000000000000000000000000000000815290516000926001600160a01b0316916315a2bf9e916004808301926020929190829003018186803b15801561147557600080fd5b505afa158015611489573d6000803e3d6000fd5b505050506040513d601f19601f820116820180604052508101906114ad919061333c565b6070546040517f4a293c520000000000000000000000000000000000000000000000000000000081526004810187905291925060009182916001600160a01b031690634a293c529060240160006040518083038186803b15801561151057600080fd5b505afa158015611524573d6000803e3d6000fd5b505050506040513d6000823e601f3d908101601f1916820160405261154c91908101906133f9565b50505093509350505060005b82518110156115a15761158d83828151811061157657611576613326565b60200260200101518661292f90919063ffffffff16565b9450806115998161350b565b915050611558565b50826115b282610c33876064612917565b106115ff5760405162461bcd60e51b815260206004820152600c60248201527f4c545620746f6f2068696768000000000000000000000000000000000000000060448201526064016106f6565b6070546040517f42842e0e000000000000000000000000000000000000000000000000000000008152336004820152306024820152604481018890526001600160a01b03909116906342842e0e90606401600060405180830381600087803b15801561166a57600080fd5b505af115801561167e573d6000803e3d6000fd5b5050505060006040518060c00160405280606c548152602001336001600160a01b031681526020018781526020018a815260200160008152602001428152509050606b8190806001815401808255809150506001900390600052602060002090600602016000909190919091506000820151816000015560208201518160010160006101000a8154816001600160a01b0302191690836001600160a01b0316021790555060408201518160020155606082015181600301556080820151816004015560a082015181600501555050606a6000336001600160a01b03166001600160a01b03168152602001908152602001600020606c54908060018154018082558091505060019003906000526020600020016000909190919091505586606f6000606c548152602001908152602001600020819055506117ca6001606c5461292f90919063ffffffff16565b606c556069546117da908a61292f565b6069556066546040517fa9059cbb000000000000000000000000000000000000000000000000000000008152336004820152602481018b90526001600160a01b039091169063a9059cbb90604401602060405180830381600087803b15801561184257600080fd5b505af1158015611856573d6000803e3d6000fd5b505050506040513d601f19601f8201168201806040525081019061187a919061336d565b50600061189061188b8b6064612923565b61293b565b6065546040805160208082018352600080835283519182019093529182529293506118c8926001600160a01b03909216918491612967565b50505050505050505050565b8060006118e084610b8b565b9050828111156119ac576066546040516323b872dd60e01b8152336004820152306024820152604481018590526001600160a01b03909116906323b872dd90606401602060405180830381600087803b15801561193c57600080fd5b505af1158015611950573d6000803e3d6000fd5b505050506040513d601f19601f82011682018060405250810190611974919061336d565b5061197f818461290b565b606b858154811061199257611992613326565b906000526020600020906006020160040181905550611d13565b90508060006119bb848361290b565b905080606b86815481106119d1576119d1613326565b9060005260206000209060060201600301541115611aeb576066546040516323b872dd60e01b8152336004820152306024820152604481018690526001600160a01b03909116906323b872dd90606401602060405180830381600087803b158015611a3b57600080fd5b505af1158015611a4f573d6000803e3d6000fd5b505050506040513d601f19601f82011682018060405250810190611a73919061336d565b50606954611a81908261290b565b606981905550611abe81606b8781548110611a9e57611a9e613326565b90600052602060002090600602016003015461290b90919063ffffffff16565b606b8681548110611ad157611ad1613326565b906000526020600020906006020160030181905550611ce7565b6000611b2483606b8881548110611b0457611b04613326565b90600052602060002090600602016003015461292f90919063ffffffff16565b6066546040516323b872dd60e01b8152336004820152306024820152604481018390529192506001600160a01b0316906323b872dd90606401602060405180830381600087803b158015611b7757600080fd5b505af1158015611b8b573d6000803e3d6000fd5b505050506040513d601f19601f82011682018060405250810190611baf919061336d565b50611be9606b8781548110611bc657611bc6613326565b90600052602060002090600602016003015460695461290b90919063ffffffff16565b6069819055506000606b8781548110611c0457611c04613326565b6000918252602090912060036006909202010155607054606b80546001600160a01b03909216916342842e0e9130918a908110611c4357611c43613326565b60009182526020808320600160069093020191909101548b8352606f9091526040918290205491517fffffffff0000000000000000000000000000000000000000000000000000000060e086901b1681526001600160a01b039384166004820152921660248301526044820152606401600060405180830381600087803b158015611ccd57600080fd5b505af1158015611ce1573d6000803e3d6000fd5b50505050505b6000606b8681548110611cfc57611cfc613326565b906000526020600020906006020160040181905550505b42606b8581548110611d2757611d27613326565b6000918252602090912060056006909202010155606854611d48908361292f565b6068819055506000611d8e606b8681548110611d6657611d66613326565b906000526020600020906006020160020154610c3385620f424061291790919063ffffffff16565b90506000611d9b8261293b565b606554604080516020808201835260008083528351918201909352918252929350611dd3926001600160a01b03909216918491612967565b505050505050565b6000816001600160a01b0316836001600160a01b03161480611e4657506001600160a01b03831660009081526038602052604090205460ff168015611e4657506001600160a01b038083166000908152603a602090815260408083209387168352929052205460ff16155b80611e7657506001600160a01b0380831660009081526039602090815260408083209387168352929052205460ff165b9392505050565b33600090815260336020526040902054811115611e9957600080fd5b6000611eb7611ea760345490565b606854610c3390620f4240612917565b90506000611ecc620f4240610c338585612917565b9050606954606854611ede919061330f565b811115611eea57600080fd5b611f1433846040518060200160405280600081525060405180602001604052806000815250612975565b606854611f21908261290b565b6068556066546040517fa9059cbb000000000000000000000000000000000000000000000000000000008152336004820152602481018390526001600160a01b039091169063a9059cbb90604401602060405180830381600087803b158015611f8957600080fd5b505af1158015611f9d573d6000803e3d6000fd5b505050506040513d601f19601f82011682018060405250810190611fc1919061336d565b50505050565b600080611fd383610e92565b9050611e7681610d6f565b6001600160a01b03811633141561205d5760405162461bcd60e51b815260206004820152602160248201527f4552433737373a207265766f6b696e672073656c66206173206f70657261746f60448201527f720000000000000000000000000000000000000000000000000000000000000060648201526084016106f6565b6001600160a01b03811660009081526038602052604090205460ff16156120b157336000908152603a602090815260408083206001600160a01b03851684529091529020805460ff191660011790556120dd565b3360009081526039602090815260408083206001600160a01b03851684529091529020805460ff191690555b60405133906001600160a01b038316907f50546e66e5f44d728365dc3908c63bc5cfeeab470722c1677e3073a6ac294aa190600090a350565b6121203385611ddb565b6121925760405162461bcd60e51b815260206004820152602c60248201527f4552433737373a2063616c6c6572206973206e6f7420616e206f70657261746f60448201527f7220666f7220686f6c646572000000000000000000000000000000000000000060648201526084016106f6565b611fc184848484612975565b610a4133838360405180602001604052806000815250612975565b6001600160a01b0383166122355760405162461bcd60e51b815260206004820152602560248201527f4552433737373a20617070726f76652066726f6d20746865207a65726f20616460448201527f647265737300000000000000000000000000000000000000000000000000000060648201526084016106f6565b6001600160a01b0382166122b15760405162461bcd60e51b815260206004820152602360248201527f4552433737373a20617070726f766520746f20746865207a65726f206164647260448201527f657373000000000000000000000000000000000000000000000000000000000060648201526084016106f6565b6001600160a01b038381166000818152603b602090815260408083209487168084529482529182902085905590518481527f8c5be1e5ebec7d5bd14f71427d1e84f3dd0314c0f7b2291e5b200ac8c7c3b925910160405180910390a3505050565b6040517faabbb8ca0000000000000000000000000000000000000000000000000000000081526001600160a01b03861660048201527f29ddb589b1fb5fc7cf394961c1adf5f8c6454761adf795e67fe149f658abe8956024820152600090731820a4b7618bde71dce8cdc73aab6c95905fad249063aabbb8ca9060440160206040518083038186803b1580156123a757600080fd5b505afa1580156123bb573d6000803e3d6000fd5b505050506040513d601f19601f820116820180604052508101906123df919061338f565b90506001600160a01b03811615612472576040517f75ab97820000000000000000000000000000000000000000000000000000000081526001600160a01b038216906375ab97829061243f908a908a908a908a908a908a90600401613526565b600060405180830381600087803b15801561245957600080fd5b505af115801561246d573d6000803e3d6000fd5b505050505b50505050505050565b6001600160a01b0385166000908152603360205260409020548381101561250a5760405162461bcd60e51b815260206004820152602760248201527f4552433737373a207472616e7366657220616d6f756e7420657863656564732060448201527f62616c616e63650000000000000000000000000000000000000000000000000060648201526084016106f6565b6001600160a01b03808716600090815260336020526040808220878503905591871681529081208054869290612541908490613355565b92505081905550846001600160a01b0316866001600160a01b0316886001600160a01b03167f06b541ddaa720db2b10a4d0cdac39b8d360425fc073085fac19bc826146779878787876040516125999392919061357f565b60405180910390a4846001600160a01b0316866001600160a01b03167fddf252ad1be2c89b69c2b068fc378daa952ba7f163c4a11628f55a4df523b3ef866040516125e691815260200190565b60405180910390a350505050505050565b6040517faabbb8ca0000000000000000000000000000000000000000000000000000000081526001600160a01b03861660048201527fb281fc8c12954d22544db45de3159a39272895b169a852b314f9cc762e44c53b6024820152600090731820a4b7618bde71dce8cdc73aab6c95905fad249063aabbb8ca9060440160206040518083038186803b15801561268c57600080fd5b505afa1580156126a0573d6000803e3d6000fd5b505050506040513d601f19601f820116820180604052508101906126c4919061338f565b90506001600160a01b03811615612759576040517e23de290000000000000000000000000000000000000000000000000000000081526001600160a01b038216906223de2990612722908b908b908b908b908b908b90600401613526565b600060405180830381600087803b15801561273c57600080fd5b505af1158015612750573d6000803e3d6000fd5b50505050612803565b8115612803576001600160a01b0386163b156128035760405162461bcd60e51b815260206004820152604d60248201527f4552433737373a20746f6b656e20726563697069656e7420636f6e747261637460448201527f20686173206e6f20696d706c656d656e74657220666f7220455243373737546f60648201527f6b656e73526563697069656e7400000000000000000000000000000000000000608482015260a4016106f6565b5050505050505050565b6001600160a01b0386166128895760405162461bcd60e51b815260206004820152602260248201527f4552433737373a2073656e642066726f6d20746865207a65726f20616464726560448201527f737300000000000000000000000000000000000000000000000000000000000060648201526084016106f6565b6001600160a01b0385166128df5760405162461bcd60e51b815260206004820181905260248201527f4552433737373a2073656e6420746f20746865207a65726f206164647265737360448201526064016106f6565b336128ee818888888888612312565b6128fc81888888888861247b565b612472818888888888886125f7565b6000611e76828461330f565b6000611e7682846135aa565b6000611e7682846135c9565b6000611e768284613355565b60006068546000141561294c575090565b6000611e76606854610c3361296060345490565b8690612917565b611fc1848484846001612b5f565b6001600160a01b0384166129f15760405162461bcd60e51b815260206004820152602260248201527f4552433737373a206275726e2066726f6d20746865207a65726f20616464726560448201527f737300000000000000000000000000000000000000000000000000000000000060648201526084016106f6565b33612a0181866000878787612312565b6001600160a01b03851660009081526033602052604090205484811015612a905760405162461bcd60e51b815260206004820152602360248201527f4552433737373a206275726e20616d6f756e7420657863656564732062616c6160448201527f6e6365000000000000000000000000000000000000000000000000000000000060648201526084016106f6565b6001600160a01b0386166000908152603360205260408120868303905560348054879290612abf90849061330f565b92505081905550856001600160a01b0316826001600160a01b03167fa78a9be3a7b862d26933ad85fb11d80ef66b8f972d7cbba06621d583943a4098878787604051612b0d9392919061357f565b60405180910390a36040518581526000906001600160a01b038816907fddf252ad1be2c89b69c2b068fc378daa952ba7f163c4a11628f55a4df523b3ef906020015b60405180910390a3505050505050565b6001600160a01b038516612bb55760405162461bcd60e51b815260206004820181905260248201527f4552433737373a206d696e7420746f20746865207a65726f206164647265737360448201526064016106f6565b60003390508460346000828254612bcc9190613355565b90915550506001600160a01b03861660009081526033602052604081208054879290612bf9908490613355565b90915550612c0f905081600088888888886125f7565b856001600160a01b0316816001600160a01b03167f2fe5be0146f74c5bce36c0b80911af6c7d86ff27e89d5cfa61fc681327954e5d878787604051612c569392919061357f565b60405180910390a36040518581526001600160a01b038716906000907fddf252ad1be2c89b69c2b068fc378daa952ba7f163c4a11628f55a4df523b3ef90602001612b4f565b828054828255906000526020600020908101928215612d09579160200282015b82811115612d0957825182547fffffffffffffffffffffffff0000000000000000000000000000000000000000166001600160a01b03909116178255602090920191600190910190612cbc565b50612d15929150612d19565b5090565b5b80821115612d155760008155600101612d1a565b6020808252825182820181905260009190848201906040850190845b81811015612d6f5783516001600160a01b031683529284019291840191600101612d4a565b50909695505050505050565b60005b83811015612d96578181015183820152602001612d7e565b83811115611fc15750506000910152565b60008151808452612dbf816020860160208601612d7b565b601f01601f19169290920160200192915050565b602081526000611e766020830184612da7565b6001600160a01b0381168114612dfb57600080fd5b50565b60008060408385031215612e1157600080fd5b8235612e1c81612de6565b946020939093013593505050565b634e487b7160e01b600052604160045260246000fd5b604051601f8201601f1916810167ffffffffffffffff81118282101715612e6957612e69612e2a565b604052919050565b600067ffffffffffffffff821115612e8b57612e8b612e2a565b50601f01601f191660200190565b600082601f830112612eaa57600080fd5b8135612ebd612eb882612e71565b612e40565b818152846020838601011115612ed257600080fd5b816020850160208301376000918101602001919091529392505050565b60008060008060808587031215612f0557600080fd5b8435612f1081612de6565b93506020850135612f2081612de6565b925060408501359150606085013567ffffffffffffffff811115612f4357600080fd5b612f4f87828801612e99565b91505092959194509250565b600080600060608486031215612f7057600080fd5b8335612f7b81612de6565b92506020840135612f8b81612de6565b929592945050506040919091013590565b600080600080600060a08688031215612fb457600080fd5b8535612fbf81612de6565b94506020860135612fcf81612de6565b935060408601359250606086013567ffffffffffffffff80821115612ff357600080fd5b612fff89838a01612e99565b9350608088013591508082111561301557600080fd5b5061302288828901612e99565b9150509295509295909350565b60006020828403121561304157600080fd5b5035919050565b60006020828403121561305a57600080fd5b8135611e7681612de6565b600067ffffffffffffffff82111561307f5761307f612e2a565b5060051b60200190565b6000602080838503121561309c57600080fd5b823567ffffffffffffffff8111156130b357600080fd5b8301601f810185136130c457600080fd5b80356130d2612eb882613065565b81815260059190911b820183019083810190878311156130f157600080fd5b928401925b8284101561311857833561310981612de6565b825292840192908401906130f6565b979650505050505050565b60008060006060848603121561313857600080fd5b833561314381612de6565b925060208401359150604084013567ffffffffffffffff81111561316657600080fd5b61317286828701612e99565b9150509250925092565b60008060006060848603121561319157600080fd5b505081359360208301359350604090920135919050565b600080604083850312156131bb57600080fd5b50508035926020909101359150565b600080604083850312156131dd57600080fd5b82356131e881612de6565b915060208301356131f881612de6565b809150509250929050565b6000806000806080858703121561321957600080fd5b843561322481612de6565b935060208501359250604085013567ffffffffffffffff8082111561324857600080fd5b61325488838901612e99565b9350606087013591508082111561326a57600080fd5b50612f4f87828801612e99565b6000806040838503121561328a57600080fd5b82359150602083013567ffffffffffffffff8111156132a857600080fd5b6132b485828601612e99565b9150509250929050565b600181811c908216806132d257607f821691505b602082108114156132f357634e487b7160e01b600052602260045260246000fd5b50919050565b634e487b7160e01b600052601160045260246000fd5b600082821015613321576133216132f9565b500390565b634e487b7160e01b600052603260045260246000fd5b60006020828403121561334e57600080fd5b5051919050565b60008219821115613368576133686132f9565b500190565b60006020828403121561337f57600080fd5b81518015158114611e7657600080fd5b6000602082840312156133a157600080fd5b8151611e7681612de6565b600082601f8301126133bd57600080fd5b81516133cb612eb882612e71565b8181528460208386010111156133e057600080fd5b6133f1826020830160208701612d7b565b949350505050565b600080600080600080600060e0888a03121561341457600080fd5b875161341f81612de6565b809750506020808901519650604089015167ffffffffffffffff8082111561344657600080fd5b818b0191508b601f83011261345a57600080fd5b8151613468612eb882613065565b81815260059190911b8301840190848101908e83111561348757600080fd5b938501935b828510156134a55784518252938501939085019061348c565b60608e015160808f0151919b50995094505050808311156134c557600080fd5b6134d18c848d016133ac565b955060a08b0151945060c08b01519250808311156134ee57600080fd5b50506134fc8a828b016133ac565b91505092959891949750929550565b600060001982141561351f5761351f6132f9565b5060010190565b60006001600160a01b038089168352808816602084015280871660408401525084606083015260c0608083015261356060c0830185612da7565b82810360a08401526135728185612da7565b9998505050505050505050565b8381526060602082015260006135986060830185612da7565b8281036040840152610c688185612da7565b60008160001904831182151516156135c4576135c46132f9565b500290565b6000826135e657634e487b7160e01b600052601260045260246000fd5b50049056fea26469706673582212207cac7b9c381f52acc6eb87d08475360b717fbb78dab910e532d4ab53175474d364736f6c63430008090033",
  "immutableReferences": {},
  "source": "// contracts/Pool.sol\n// SPDX-License-Identifier: MIT\npragma solidity ^0.8.4;\n\nimport \"../@openzeppelin/contracts-upgradeable/proxy/utils/Initializable.sol\";\nimport \"../@openzeppelin/contracts-upgradeable/token/ERC777/ERC777Upgradeable.sol\";\nimport '../@openzeppelin/contracts-upgradeable/token/ERC20/IERC20Upgradeable.sol';\nimport './../PropTokens/PropToken0.sol';\nimport './../LTVGuidelines.sol';\nimport './../PoolUtils/PoolUtils0.sol';\nimport './../PoolStaking/PoolStaking0.sol';\n\nimport \"../@openzeppelin/contracts-upgradeable/token/ERC721/IERC721ReceiverUpgradeable.sol\";\nimport '../@openzeppelin/contracts/utils/math/SafeMath.sol';\nimport '../@openzeppelin/contracts/utils/math/SignedSafeMath.sol';\n\ncontract Pool7 is Initializable, ERC777Upgradeable, IERC721ReceiverUpgradeable {\n    using SignedSafeMath for int256;\n    using SafeMath for uint256;\n\n    struct Loan{\n        uint256 loanId;\n        address borrower;\n        uint256 interestRate;\n        uint256 principal;\n        uint256 interestAccrued;\n        uint256 timeLastPayment;\n    }\n\n    address servicer;\n    address ERCAddress;\n    address[] servicerAddresses;\n    /* Adding a variable above this line (not reflected in Pool0) will cause contract storage conflicts */\n\n    uint256 poolLent;\n    uint256 poolBorrowed;\n    mapping(address => uint256[]) userLoans;\n    Loan[] loans;\n    uint256 loanCount;\n\n    uint constant servicerFeePercentage = 1000000;\n    uint constant baseInterestPercentage = 1000000;\n    uint constant curveK = 120000000;\n\n    /* Pool1 variables introduced here */\n    string private _name;\n    string private _symbol;\n    mapping(uint256 => uint256) loanToPropToken;\n    address propTokenContractAddress;\n\n    /* Pool2 variables introduced here */\n    address LTVOracleAddress;\n\n    /* Pool3 variables introduced here */\n    address poolUtilsAddress;\n    address baconCoinAddress;\n    address poolStakingAddress;\n\n\n    /*****************************************************\n    *       POOL STRUCTURE / UPGRADABILITY FUNCTIONS\n    ******************************************************/\n\n    function name() public view override returns (string memory) {\n        return _name;\n    }\n\n    function symbol() public view override returns(string memory) {\n        return _symbol;\n    }\n\n    function decimals() public pure override returns(uint8) {\n        return 6;\n    }\n    \n    /** \n    *   @dev Function setApprovedAddresses() updates the array of addresses approved by the servicer\n    *   @param _servicerAddresses The array of addresses to be set as approved for borrowing\n    */\n    function setApprovedAddresses(address[] memory _servicerAddresses) public {\n        require(msg.sender == servicer);\n\n        servicerAddresses = _servicerAddresses;\n    }\n\n    /** \n    *   @dev Function setApprovedAddresses() is an internal function that checks the array of approved addresses for the given address\n    *   @param _address The address to be checked if it is approved\n    *   @return isApproved is if the _addess is found in the list of servicerAddresses\n    */\n    function isApprovedServicer(address _address) internal view returns (bool) {\n        bool isApproved = false;\n        \n        for (uint i = 0; i < servicerAddresses.length; i++) {\n            if(_address == servicerAddresses[i]) {\n                isApproved = true;\n            }\n        }\n\n        return isApproved;\n    }\n\n    /*****************************************************\n    *                GETTER FUNCTIONS\n    ******************************************************/\n    /**\n    *   @dev Function getContractData() returns a lot of variables about the contract\n    */\n    function getContractData() public view returns (address, address, uint256, uint256, uint256, uint256) {\n        return (servicer, ERCAddress, poolLent, (poolLent + PoolUtils0(poolUtilsAddress).getPoolInterestAccrued()), poolBorrowed, loanCount);\n    }\n\n    /*\n    *   @dev Function getLoanCount() returns how many active loans there are\n    */ \n    function getLoanCount() public view returns (uint256) {\n        return loanCount;\n    }\n\n    /**  \n    *   @dev Function getSupplyableTokenAddress() returns the contract address of ERC20 this pool accepts (ususally USDC)\n    */\n    function getSupplyableTokenAddress() public view returns (address) {\n        return ERCAddress;\n    }\n\n    /**  \n    *   @dev Function getServicerAddress() returns the address of this pool's servicer\n    */\n    function getServicerAddress() public view returns (address) {\n        return servicer;\n    } \n\n    /**  \n    *   @dev Function getLoanDetails() returns an all the raw details about a loan\n    *   @param loanId is the id for the loan we're looking up\n    *   EDITED in pool1 to also return PropToken ID\n    */\n    function getLoanDetails(uint256 loanId) public view returns (uint256, address, uint256, uint256, uint256, uint256, uint256) {\n        Loan memory loan = loans[loanId];\n        //temp interestAccrued calculation because this is a read function\n        uint256 interestAccrued = getLoanAccruedInterest(loanId);\n        uint256 propTokenID = loanToPropToken[loanId];\n        return (loan.loanId, loan.borrower, loan.interestRate, loan.principal, interestAccrued, loan.timeLastPayment, propTokenID);\n    }\n\n    /**  \n    *   @dev Function getLoanAccruedInterest() calculates and returns the amount of interest accrued on a given loan\n    *   @param loanId is the id for the loan we're looking up\n    */\n    function getLoanAccruedInterest(uint256 loanId) public view returns (uint256) {\n        Loan memory loan = loans[loanId];\n        uint256 secondsSincePayment = block.timestamp.sub(loan.timeLastPayment);\n\n        uint256 interestPerSecond = loan.principal.mul(loan.interestRate).div(31622400);\n        uint256 interestAccrued = interestPerSecond.mul(secondsSincePayment).div(100000000);\n        return interestAccrued.add(loan.interestAccrued);\n    }   \n\n\n    /*****************************************************\n    *                LENDING/BORROWING FUNCTIONS\n    ******************************************************/\n\n    /*\n    *   @dev Function getProportionalPoolTokens calculates how many new hc_pool tokens to mint when value is added to the pool based on proportional value\n    *   @param recepient The address of the wallet receiving the newly minted hc_pool tokens\n    *   @param amount The amount to be minted\n    */\n    function getProportionalPoolTokens(uint256 amount) private view returns (uint256) {\n        //check if this is first deposit\n        if (poolLent == 0) {\n            return amount;\n        } else {\n            //Calculate proportional to total value\n            uint256 new_hc_pool = amount.mul(super.totalSupply()).div(poolLent);\n            return new_hc_pool;\n        }\n    }\n\n    /**  \n    *   @dev Function lend moves assets on the (probably usdc) contract to our own balance\n    *   - Before calling: an approve(address _spender (proxy), uint256 _value (0xffff)) function call must be made on remote contract\n    *   @param amount The amount of USDC to be transferred\n    *   @return the amount of poolTokens created\n    */\n    function lend(\n        uint256 amount\n    ) public returns (uint256) {\n        //USDC on Ropsten only right now\n        IERC20Upgradeable(ERCAddress).transferFrom(msg.sender, address(this), amount);\n        uint256 newTokensMinted = getProportionalPoolTokens(amount);\n        poolLent = poolLent.add(amount);\n\n        super._mint(msg.sender, newTokensMinted, \"\", \"\");\n\n        return newTokensMinted;\n    }\n\n    /**  \n    *   @dev Function redeem burns the sender's hcPool tokens and transfers the usdc back to them\n    *   @param amount The amount of hc_pool to be redeemed\n    */\n    function redeem(\n        uint256 amount\n    ) public {\n        //check to see if sender has enough hc_pool to redeem\n        require(balanceOf(msg.sender) >= amount);\n\n        //check to make sure there is liquidity available in the pool to withdraw\n        uint256 tokenPrice = poolLent.mul(1000000).div(super.totalSupply());\n        uint256 erc20ValueOfTokens = amount.mul(tokenPrice).div(1000000);\n        require(erc20ValueOfTokens <= (poolLent - poolBorrowed));\n\n        //burn hcPool first\n        super._burn(msg.sender, amount, \"\", \"\");\n        poolLent = poolLent.sub(erc20ValueOfTokens);\n        IERC20Upgradeable(ERCAddress).transfer(msg.sender, erc20ValueOfTokens);\n    }\n\n    /**  \n    *   @dev Function borrow creates a new Loan, moves the USDC to Borrower, and returns the loan ID and fixed Interest Rate\n    *   - Also creates an origination fee for the Servicer in HC_Pool\n    *   @param amount The size of the potential loan in (probably usdc).\n    *   @param maxRate The size of the potential loan in (probably usdc).\n    *   EDITED in pool1 to also require a PropToken\n    *   EDITED in pool1 - borrower param was removed and msg.sender is new recepient of USDC\n    *   EDITED in pool2 - propToken data is oulled and LTV of loan is required before loan can process\n    */\n    function borrow(uint256 amount, uint256 maxRate, uint256 propTokenId) public {\n        //for v2 require this address is approved to transfer propToken \n        require(PropToken0(propTokenContractAddress).getApproved(propTokenId) == address(this), \"pool not approved to move egg\");\n        //also require msg.sender is owner of token\n        require(PropToken0(propTokenContractAddress).ownerOf(propTokenId) == msg.sender, \"msg.sender not egg owner\");\n\n        //check the requested interest rate is still available\n        uint256 fixedInterestRate = uint256(PoolUtils0(poolUtilsAddress).getInterestRate(amount));\n        require(fixedInterestRate <= maxRate, \"interest rate no longer avail\");\n\n        //require the propToken approved has a lien value less than or equal to the requested loan size\n        uint256 lienAmount = PropToken0(propTokenContractAddress).getLienValue(propTokenId);\n        require(lienAmount >= amount, \"loan larger that egg value\");\n\n        //require that LTV of propToken is less than LTV required by oracle\n        uint256 LTVRequirement = LTVGuidelines(LTVOracleAddress).getMaxLTV();\n        (, , uint256[] memory SeniorLiens, uint256 HomeValue, , ,) = PropToken0(propTokenContractAddress).getPropTokenData(propTokenId);\n        for (uint i = 0; i < SeniorLiens.length; i++) {  \n            lienAmount = lienAmount.add(SeniorLiens[i]);\n        }\n        require(lienAmount.mul(100).div(HomeValue) < LTVRequirement, \"LTV too high\");\n\n\n        //first take the propToken\n        PropToken0(propTokenContractAddress).safeTransferFrom(msg.sender, address(this), propTokenId);\n\n        //create new Loan\n        Loan memory newLoan = Loan(loanCount, msg.sender, fixedInterestRate, amount, 0, block.timestamp);\n        loans.push(newLoan);\n        userLoans[msg.sender].push(loanCount);\n\n        //map new loanID to Token ID\n        loanToPropToken[loanCount] = propTokenId;\n\n        //update system variables\n        loanCount = loanCount.add(1);\n        poolBorrowed = poolBorrowed.add(amount);\n\n        //finally move the USDC\n        IERC20Upgradeable(ERCAddress).transfer(msg.sender, amount);\n\n        //then mint HC_Pool for the servicer (fixed 1% origination is better than standard 2.5%)\n        uint256 newTokensMinted = getProportionalPoolTokens(amount.div(100));\n        super._mint(servicer, newTokensMinted, \"\", \"\");\n    }\n    \n    /**  \n    *   @dev Function repay repays a specific loan\n    *   - payment is first deducted from the interest then principal. \n    *   - the servicer_fee is deducted from the interest repayment and servicer is compensated in hc_pool\n    *   - repayer must have first approved fromsfers on behalf \n    *   @param loanId The loan to be repayed\n    *   @param amount The amount of the ERC20 token to repay the loan with\n    *   EDITED - Pool1 returns propToken when principal reaches 0\n    */\n\n    function repay(uint256 loanId, uint256 amount) public {        \n        //interestAmountRepayed keeps track of how much of the loan was returned to the pool to calculate servicer fee(treated as cash investment)\n        uint256 interestAmountRepayed = amount;\n\n        uint256 currentInterest = getLoanAccruedInterest(loanId);\n        if(currentInterest > amount) {\n            //if the payment is less than the interest accrued on the loan, just deduct amount from interest\n            //deduct amount FIRST (to make sure they have available balance), then reduce loan amount\n            IERC20Upgradeable(ERCAddress).transferFrom(msg.sender, address(this), amount);\n            loans[loanId].interestAccrued = currentInterest.sub(amount);\n        } else {\n            //if the amount borrow is repaying is greater than interest accrued, deduct the rest from principal\n            interestAmountRepayed = currentInterest;\n            uint256 amountAfterInterest = amount.sub(currentInterest);\n            \n            if(loans[loanId].principal > amountAfterInterest) {\n                //deduct amount from Borrower and reduce the principal\n                IERC20Upgradeable(ERCAddress).transferFrom(msg.sender, address(this), amount);\n                //return the repayed principal to the 'borrowable' amount\n                poolBorrowed = poolBorrowed.sub(amountAfterInterest);\n                loans[loanId].principal = loans[loanId].principal.sub(amountAfterInterest);\n            } else {\n                //deduct totalLoanValue\n                uint256 totalLoanValue = loans[loanId].principal.add(currentInterest);\n                IERC20Upgradeable(ERCAddress).transferFrom(msg.sender, address(this), totalLoanValue);\n                //return the repayed principal to the 'borrowable' amount\n                poolBorrowed = poolBorrowed.sub(loans[loanId].principal);\n                loans[loanId].principal = 0;\n                //Send PropToken back to borrower\n                PropToken0(propTokenContractAddress).safeTransferFrom(address(this), loans[loanId].borrower, loanToPropToken[loanId]);\n            }\n\n            //set interest accrued to 0 AFTER successful erc20 transfer\n            loans[loanId].interestAccrued = 0;\n        }\n\n        //last payment timestamp is only updated AFTER  successful erc20 transfer\n        loans[loanId].timeLastPayment = block.timestamp;\n\n        //treat repayed interest as new money Lent into the pool\n        poolLent = poolLent.add(interestAmountRepayed);\n\n        //servicer fee is treated as cash investment in the pool as the percentage interest\n        //calculate how much of payment goes to servicer here\n        uint256 servicerFeeInERC = servicerFeePercentage.mul(interestAmountRepayed).div(loans[loanId].interestRate);\n        uint256 newTokensMinted = getProportionalPoolTokens(servicerFeeInERC);\n        super._mint(servicer, newTokensMinted, \"\", \"\");\n    }\n\n    /*****************************************************\n    *                Staking FUNCTIONS\n    ******************************************************/\n\n    /**  \n    *   @dev Function stake transfers users bHOME to the poolStaking contract\n    */\n    function stake(uint256 amount) public returns (bool) {\n        require(balanceOf(msg.sender) >= amount, \"not enough to stake\");\n\n        bool successfulStake = PoolStaking0(poolStakingAddress).stake(msg.sender, amount);\n        if(successfulStake) {\n            transfer(poolStakingAddress, amount);\n        }\n\n        return successfulStake;\n    }\n\n    /**  \n    *   @dev Function lendAndStake calls both the Lend and Stake functions in one call\n    *   @param amount is amount of USDC to be deposited\n    *   @return the bool from stake that reprents successful stake\n    */\n    function lendAndStake(uint256 amount) public returns (bool) {\n        uint256 newPoolTokens = lend(amount);\n        return stake(newPoolTokens);\n    }\n\n    /**  \n    *   @dev Function getVersion returns current upgraded version\n    */\n    function getVersion() public pure returns (uint) {\n        return 7;\n    }\n\n    function onERC721Received(address, address, uint256, bytes memory ) public pure override returns (bytes4) {\n        return this.onERC721Received.selector;\n    }\n}",
  "sourcePath": "/Users/patrick/github/HomeDAO/contracts/PoolCore/Pool7.sol",
  "compiler": {
    "name": "solc",
    "version": "0.8.9+commit.e5eed63a.Emscripten.clang"
  },
  "schemaVersion": "3.4.8",
  "updatedAt": "2022-08-10T01:41:50.113Z",
  "devdoc": {
    "kind": "dev",
    "methods": {
      "allowance(address,address)": {
        "details": "See {IERC20-allowance}. Note that operator and allowance concepts are orthogonal: operators may not have allowance, and accounts with allowance may not be operators themselves."
      },
      "approve(address,uint256)": {
        "details": "See {IERC20-approve}. Note that accounts cannot have allowance issued by their operators."
      },
      "authorizeOperator(address)": {
        "details": "See {IERC777-authorizeOperator}."
      },
      "balanceOf(address)": {
        "details": "Returns the amount of tokens owned by an account (`tokenHolder`)."
      },
      "borrow(uint256,uint256,uint256)": {
        "details": "Function borrow creates a new Loan, moves the USDC to Borrower, and returns the loan ID and fixed Interest Rate   - Also creates an origination fee for the Servicer in HC_Pool",
        "params": {
          "amount": "The size of the potential loan in (probably usdc).",
          "maxRate": "The size of the potential loan in (probably usdc).   EDITED in pool1 to also require a PropToken   EDITED in pool1 - borrower param was removed and msg.sender is new recepient of USDC   EDITED in pool2 - propToken data is oulled and LTV of loan is required before loan can process"
        }
      },
      "burn(uint256,bytes)": {
        "details": "See {IERC777-burn}. Also emits a {IERC20-Transfer} event for ERC20 compatibility."
      },
      "decimals()": {
        "details": "See {ERC20-decimals}. Always returns 18, as per the [ERC777 EIP](https://eips.ethereum.org/EIPS/eip-777#backward-compatibility)."
      },
      "defaultOperators()": {
        "details": "See {IERC777-defaultOperators}."
      },
      "getContractData()": {
        "details": "Function getContractData() returns a lot of variables about the contract"
      },
      "getLoanAccruedInterest(uint256)": {
        "details": "Function getLoanAccruedInterest() calculates and returns the amount of interest accrued on a given loan",
        "params": {
          "loanId": "is the id for the loan we're looking up"
        }
      },
      "getLoanDetails(uint256)": {
        "details": "Function getLoanDetails() returns an all the raw details about a loan",
        "params": {
          "loanId": "is the id for the loan we're looking up   EDITED in pool1 to also return PropToken ID"
        }
      },
      "getServicerAddress()": {
        "details": "Function getServicerAddress() returns the address of this pool's servicer"
      },
      "getSupplyableTokenAddress()": {
        "details": "Function getSupplyableTokenAddress() returns the contract address of ERC20 this pool accepts (ususally USDC)"
      },
      "getVersion()": {
        "details": "Function getVersion returns current upgraded version"
      },
      "granularity()": {
        "details": "See {IERC777-granularity}. This implementation always returns `1`."
      },
      "isOperatorFor(address,address)": {
        "details": "See {IERC777-isOperatorFor}."
      },
      "lend(uint256)": {
        "details": "Function lend moves assets on the (probably usdc) contract to our own balance   - Before calling: an approve(address _spender (proxy), uint256 _value (0xffff)) function call must be made on remote contract",
        "params": {
          "amount": "The amount of USDC to be transferred"
        },
        "returns": {
          "_0": "the amount of poolTokens created"
        }
      },
      "lendAndStake(uint256)": {
        "details": "Function lendAndStake calls both the Lend and Stake functions in one call",
        "params": {
          "amount": "is amount of USDC to be deposited"
        },
        "returns": {
          "_0": "the bool from stake that reprents successful stake"
        }
      },
      "name()": {
        "details": "See {IERC777-name}."
      },
      "operatorBurn(address,uint256,bytes,bytes)": {
        "details": "See {IERC777-operatorBurn}. Emits {Burned} and {IERC20-Transfer} events."
      },
      "operatorSend(address,address,uint256,bytes,bytes)": {
        "details": "See {IERC777-operatorSend}. Emits {Sent} and {IERC20-Transfer} events."
      },
      "redeem(uint256)": {
        "details": "Function redeem burns the sender's hcPool tokens and transfers the usdc back to them",
        "params": {
          "amount": "The amount of hc_pool to be redeemed"
        }
      },
      "repay(uint256,uint256)": {
        "details": "Function repay repays a specific loan   - payment is first deducted from the interest then principal.    - the servicer_fee is deducted from the interest repayment and servicer is compensated in hc_pool   - repayer must have first approved fromsfers on behalf ",
        "params": {
          "amount": "The amount of the ERC20 token to repay the loan with   EDITED - Pool1 returns propToken when principal reaches 0",
          "loanId": "The loan to be repayed"
        }
      },
      "revokeOperator(address)": {
        "details": "See {IERC777-revokeOperator}."
      },
      "send(address,uint256,bytes)": {
        "details": "See {IERC777-send}. Also emits a {IERC20-Transfer} event for ERC20 compatibility."
      },
      "setApprovedAddresses(address[])": {
        "details": "Function setApprovedAddresses() updates the array of addresses approved by the servicer",
        "params": {
          "_servicerAddresses": "The array of addresses to be set as approved for borrowing"
        }
      },
      "stake(uint256)": {
        "details": "Function stake transfers users bHOME to the poolStaking contract"
      },
      "symbol()": {
        "details": "See {IERC777-symbol}."
      },
      "totalSupply()": {
        "details": "See {IERC777-totalSupply}."
      },
      "transfer(address,uint256)": {
        "details": "See {IERC20-transfer}. Unlike `send`, `recipient` is _not_ required to implement the {IERC777Recipient} interface if it is a contract. Also emits a {Sent} event."
      },
      "transferFrom(address,address,uint256)": {
        "details": "See {IERC20-transferFrom}. Note that operator and allowance concepts are orthogonal: operators cannot call `transferFrom` (unless they have allowance), and accounts with allowance cannot call `operatorSend` (unless they are operators). Emits {Sent}, {IERC20-Transfer} and {IERC20-Approval} events."
      }
    },
    "version": 1
  },
  "userdoc": {
    "kind": "user",
    "methods": {},
    "version": 1
  }
}