{
  "contractName": "Pool1",
  "abi": [
    {
      "anonymous": false,
      "inputs": [
        {
          "indexed": true,
          "internalType": "address",
          "name": "owner",
          "type": "address"
        },
        {
          "indexed": true,
          "internalType": "address",
          "name": "spender",
          "type": "address"
        },
        {
          "indexed": false,
          "internalType": "uint256",
          "name": "value",
          "type": "uint256"
        }
      ],
      "name": "Approval",
      "type": "event"
    },
    {
      "anonymous": false,
      "inputs": [
        {
          "indexed": true,
          "internalType": "address",
          "name": "operator",
          "type": "address"
        },
        {
          "indexed": true,
          "internalType": "address",
          "name": "tokenHolder",
          "type": "address"
        }
      ],
      "name": "AuthorizedOperator",
      "type": "event"
    },
    {
      "anonymous": false,
      "inputs": [
        {
          "indexed": true,
          "internalType": "address",
          "name": "operator",
          "type": "address"
        },
        {
          "indexed": true,
          "internalType": "address",
          "name": "from",
          "type": "address"
        },
        {
          "indexed": false,
          "internalType": "uint256",
          "name": "amount",
          "type": "uint256"
        },
        {
          "indexed": false,
          "internalType": "bytes",
          "name": "data",
          "type": "bytes"
        },
        {
          "indexed": false,
          "internalType": "bytes",
          "name": "operatorData",
          "type": "bytes"
        }
      ],
      "name": "Burned",
      "type": "event"
    },
    {
      "anonymous": false,
      "inputs": [
        {
          "indexed": true,
          "internalType": "address",
          "name": "operator",
          "type": "address"
        },
        {
          "indexed": true,
          "internalType": "address",
          "name": "to",
          "type": "address"
        },
        {
          "indexed": false,
          "internalType": "uint256",
          "name": "amount",
          "type": "uint256"
        },
        {
          "indexed": false,
          "internalType": "bytes",
          "name": "data",
          "type": "bytes"
        },
        {
          "indexed": false,
          "internalType": "bytes",
          "name": "operatorData",
          "type": "bytes"
        }
      ],
      "name": "Minted",
      "type": "event"
    },
    {
      "anonymous": false,
      "inputs": [
        {
          "indexed": true,
          "internalType": "address",
          "name": "operator",
          "type": "address"
        },
        {
          "indexed": true,
          "internalType": "address",
          "name": "tokenHolder",
          "type": "address"
        }
      ],
      "name": "RevokedOperator",
      "type": "event"
    },
    {
      "anonymous": false,
      "inputs": [
        {
          "indexed": true,
          "internalType": "address",
          "name": "operator",
          "type": "address"
        },
        {
          "indexed": true,
          "internalType": "address",
          "name": "from",
          "type": "address"
        },
        {
          "indexed": true,
          "internalType": "address",
          "name": "to",
          "type": "address"
        },
        {
          "indexed": false,
          "internalType": "uint256",
          "name": "amount",
          "type": "uint256"
        },
        {
          "indexed": false,
          "internalType": "bytes",
          "name": "data",
          "type": "bytes"
        },
        {
          "indexed": false,
          "internalType": "bytes",
          "name": "operatorData",
          "type": "bytes"
        }
      ],
      "name": "Sent",
      "type": "event"
    },
    {
      "anonymous": false,
      "inputs": [
        {
          "indexed": true,
          "internalType": "address",
          "name": "from",
          "type": "address"
        },
        {
          "indexed": true,
          "internalType": "address",
          "name": "to",
          "type": "address"
        },
        {
          "indexed": false,
          "internalType": "uint256",
          "name": "value",
          "type": "uint256"
        }
      ],
      "name": "Transfer",
      "type": "event"
    },
    {
      "inputs": [
        {
          "internalType": "address",
          "name": "holder",
          "type": "address"
        },
        {
          "internalType": "address",
          "name": "spender",
          "type": "address"
        }
      ],
      "name": "allowance",
      "outputs": [
        {
          "internalType": "uint256",
          "name": "",
          "type": "uint256"
        }
      ],
      "stateMutability": "view",
      "type": "function"
    },
    {
      "inputs": [
        {
          "internalType": "address",
          "name": "spender",
          "type": "address"
        },
        {
          "internalType": "uint256",
          "name": "value",
          "type": "uint256"
        }
      ],
      "name": "approve",
      "outputs": [
        {
          "internalType": "bool",
          "name": "",
          "type": "bool"
        }
      ],
      "stateMutability": "nonpayable",
      "type": "function"
    },
    {
      "inputs": [
        {
          "internalType": "address",
          "name": "operator",
          "type": "address"
        }
      ],
      "name": "authorizeOperator",
      "outputs": [],
      "stateMutability": "nonpayable",
      "type": "function"
    },
    {
      "inputs": [
        {
          "internalType": "address",
          "name": "tokenHolder",
          "type": "address"
        }
      ],
      "name": "balanceOf",
      "outputs": [
        {
          "internalType": "uint256",
          "name": "",
          "type": "uint256"
        }
      ],
      "stateMutability": "view",
      "type": "function"
    },
    {
      "inputs": [
        {
          "internalType": "uint256",
          "name": "amount",
          "type": "uint256"
        },
        {
          "internalType": "bytes",
          "name": "data",
          "type": "bytes"
        }
      ],
      "name": "burn",
      "outputs": [],
      "stateMutability": "nonpayable",
      "type": "function"
    },
    {
      "inputs": [],
      "name": "decimals",
      "outputs": [
        {
          "internalType": "uint8",
          "name": "",
          "type": "uint8"
        }
      ],
      "stateMutability": "pure",
      "type": "function"
    },
    {
      "inputs": [],
      "name": "defaultOperators",
      "outputs": [
        {
          "internalType": "address[]",
          "name": "",
          "type": "address[]"
        }
      ],
      "stateMutability": "view",
      "type": "function"
    },
    {
      "inputs": [],
      "name": "granularity",
      "outputs": [
        {
          "internalType": "uint256",
          "name": "",
          "type": "uint256"
        }
      ],
      "stateMutability": "view",
      "type": "function"
    },
    {
      "inputs": [
        {
          "internalType": "address",
          "name": "operator",
          "type": "address"
        },
        {
          "internalType": "address",
          "name": "tokenHolder",
          "type": "address"
        }
      ],
      "name": "isOperatorFor",
      "outputs": [
        {
          "internalType": "bool",
          "name": "",
          "type": "bool"
        }
      ],
      "stateMutability": "view",
      "type": "function"
    },
    {
      "inputs": [],
      "name": "name",
      "outputs": [
        {
          "internalType": "string",
          "name": "",
          "type": "string"
        }
      ],
      "stateMutability": "view",
      "type": "function"
    },
    {
      "inputs": [
        {
          "internalType": "address",
          "name": "account",
          "type": "address"
        },
        {
          "internalType": "uint256",
          "name": "amount",
          "type": "uint256"
        },
        {
          "internalType": "bytes",
          "name": "data",
          "type": "bytes"
        },
        {
          "internalType": "bytes",
          "name": "operatorData",
          "type": "bytes"
        }
      ],
      "name": "operatorBurn",
      "outputs": [],
      "stateMutability": "nonpayable",
      "type": "function"
    },
    {
      "inputs": [
        {
          "internalType": "address",
          "name": "sender",
          "type": "address"
        },
        {
          "internalType": "address",
          "name": "recipient",
          "type": "address"
        },
        {
          "internalType": "uint256",
          "name": "amount",
          "type": "uint256"
        },
        {
          "internalType": "bytes",
          "name": "data",
          "type": "bytes"
        },
        {
          "internalType": "bytes",
          "name": "operatorData",
          "type": "bytes"
        }
      ],
      "name": "operatorSend",
      "outputs": [],
      "stateMutability": "nonpayable",
      "type": "function"
    },
    {
      "inputs": [
        {
          "internalType": "address",
          "name": "operator",
          "type": "address"
        }
      ],
      "name": "revokeOperator",
      "outputs": [],
      "stateMutability": "nonpayable",
      "type": "function"
    },
    {
      "inputs": [
        {
          "internalType": "address",
          "name": "recipient",
          "type": "address"
        },
        {
          "internalType": "uint256",
          "name": "amount",
          "type": "uint256"
        },
        {
          "internalType": "bytes",
          "name": "data",
          "type": "bytes"
        }
      ],
      "name": "send",
      "outputs": [],
      "stateMutability": "nonpayable",
      "type": "function"
    },
    {
      "inputs": [],
      "name": "symbol",
      "outputs": [
        {
          "internalType": "string",
          "name": "",
          "type": "string"
        }
      ],
      "stateMutability": "view",
      "type": "function"
    },
    {
      "inputs": [],
      "name": "totalSupply",
      "outputs": [
        {
          "internalType": "uint256",
          "name": "",
          "type": "uint256"
        }
      ],
      "stateMutability": "view",
      "type": "function"
    },
    {
      "inputs": [
        {
          "internalType": "address",
          "name": "recipient",
          "type": "address"
        },
        {
          "internalType": "uint256",
          "name": "amount",
          "type": "uint256"
        }
      ],
      "name": "transfer",
      "outputs": [
        {
          "internalType": "bool",
          "name": "",
          "type": "bool"
        }
      ],
      "stateMutability": "nonpayable",
      "type": "function"
    },
    {
      "inputs": [
        {
          "internalType": "address",
          "name": "holder",
          "type": "address"
        },
        {
          "internalType": "address",
          "name": "recipient",
          "type": "address"
        },
        {
          "internalType": "uint256",
          "name": "amount",
          "type": "uint256"
        }
      ],
      "name": "transferFrom",
      "outputs": [
        {
          "internalType": "bool",
          "name": "",
          "type": "bool"
        }
      ],
      "stateMutability": "nonpayable",
      "type": "function"
    },
    {
      "inputs": [
        {
          "internalType": "string",
          "name": "initName",
          "type": "string"
        },
        {
          "internalType": "string",
          "name": "initSymbol",
          "type": "string"
        },
        {
          "internalType": "address",
          "name": "_ERCAddress",
          "type": "address"
        },
        {
          "internalType": "address",
          "name": "_servicer",
          "type": "address"
        },
        {
          "internalType": "address",
          "name": "approvedServicer",
          "type": "address"
        }
      ],
      "name": "initialize",
      "outputs": [],
      "stateMutability": "nonpayable",
      "type": "function"
    },
    {
      "inputs": [
        {
          "internalType": "address",
          "name": "propTokenContract",
          "type": "address"
        }
      ],
      "name": "initializePoolOne",
      "outputs": [],
      "stateMutability": "nonpayable",
      "type": "function"
    },
    {
      "inputs": [
        {
          "internalType": "address[]",
          "name": "_servicerAddresses",
          "type": "address[]"
        }
      ],
      "name": "setApprovedAddresses",
      "outputs": [],
      "stateMutability": "nonpayable",
      "type": "function"
    },
    {
      "inputs": [],
      "name": "getContractData",
      "outputs": [
        {
          "internalType": "address",
          "name": "",
          "type": "address"
        },
        {
          "internalType": "address",
          "name": "",
          "type": "address"
        },
        {
          "internalType": "uint256",
          "name": "",
          "type": "uint256"
        },
        {
          "internalType": "uint256",
          "name": "",
          "type": "uint256"
        },
        {
          "internalType": "uint256",
          "name": "",
          "type": "uint256"
        }
      ],
      "stateMutability": "view",
      "type": "function"
    },
    {
      "inputs": [],
      "name": "getPoolValueWithInterest",
      "outputs": [
        {
          "internalType": "uint256",
          "name": "",
          "type": "uint256"
        }
      ],
      "stateMutability": "view",
      "type": "function"
    },
    {
      "inputs": [],
      "name": "getSupplyableTokenAddress",
      "outputs": [
        {
          "internalType": "address",
          "name": "",
          "type": "address"
        }
      ],
      "stateMutability": "view",
      "type": "function"
    },
    {
      "inputs": [],
      "name": "getServicerAddress",
      "outputs": [
        {
          "internalType": "address",
          "name": "",
          "type": "address"
        }
      ],
      "stateMutability": "view",
      "type": "function"
    },
    {
      "inputs": [],
      "name": "getAllLoans",
      "outputs": [
        {
          "internalType": "uint256[]",
          "name": "",
          "type": "uint256[]"
        }
      ],
      "stateMutability": "view",
      "type": "function"
    },
    {
      "inputs": [],
      "name": "getActiveLoans",
      "outputs": [
        {
          "internalType": "bool[]",
          "name": "",
          "type": "bool[]"
        }
      ],
      "stateMutability": "view",
      "type": "function"
    },
    {
      "inputs": [
        {
          "internalType": "uint256",
          "name": "loanId",
          "type": "uint256"
        }
      ],
      "name": "getLoanAccruedInterest",
      "outputs": [
        {
          "internalType": "uint256",
          "name": "",
          "type": "uint256"
        }
      ],
      "stateMutability": "view",
      "type": "function"
    },
    {
      "inputs": [
        {
          "internalType": "uint256",
          "name": "loanId",
          "type": "uint256"
        }
      ],
      "name": "getLoanDetails",
      "outputs": [
        {
          "internalType": "uint256",
          "name": "",
          "type": "uint256"
        },
        {
          "internalType": "address",
          "name": "",
          "type": "address"
        },
        {
          "internalType": "uint256",
          "name": "",
          "type": "uint256"
        },
        {
          "internalType": "uint256",
          "name": "",
          "type": "uint256"
        },
        {
          "internalType": "uint256",
          "name": "",
          "type": "uint256"
        },
        {
          "internalType": "uint256",
          "name": "",
          "type": "uint256"
        },
        {
          "internalType": "uint256",
          "name": "",
          "type": "uint256"
        }
      ],
      "stateMutability": "view",
      "type": "function"
    },
    {
      "inputs": [
        {
          "internalType": "uint256",
          "name": "amount",
          "type": "uint256"
        }
      ],
      "name": "lend",
      "outputs": [],
      "stateMutability": "nonpayable",
      "type": "function"
    },
    {
      "inputs": [
        {
          "internalType": "uint256",
          "name": "amount",
          "type": "uint256"
        }
      ],
      "name": "redeem",
      "outputs": [],
      "stateMutability": "nonpayable",
      "type": "function"
    },
    {
      "inputs": [
        {
          "internalType": "uint256",
          "name": "amount",
          "type": "uint256"
        }
      ],
      "name": "getInterestRate",
      "outputs": [
        {
          "internalType": "int256",
          "name": "",
          "type": "int256"
        }
      ],
      "stateMutability": "view",
      "type": "function"
    },
    {
      "inputs": [
        {
          "internalType": "uint256",
          "name": "amount",
          "type": "uint256"
        },
        {
          "internalType": "uint256",
          "name": "maxRate",
          "type": "uint256"
        },
        {
          "internalType": "uint256",
          "name": "propTokenId",
          "type": "uint256"
        }
      ],
      "name": "borrow",
      "outputs": [],
      "stateMutability": "nonpayable",
      "type": "function"
    },
    {
      "inputs": [
        {
          "internalType": "uint256",
          "name": "loanId",
          "type": "uint256"
        },
        {
          "internalType": "uint256",
          "name": "amount",
          "type": "uint256"
        }
      ],
      "name": "repay",
      "outputs": [],
      "stateMutability": "nonpayable",
      "type": "function"
    },
    {
      "inputs": [],
      "name": "hasUpgradedFunction",
      "outputs": [
        {
          "internalType": "bool",
          "name": "",
          "type": "bool"
        }
      ],
      "stateMutability": "pure",
      "type": "function"
    },
    {
      "inputs": [
        {
          "internalType": "address",
          "name": "",
          "type": "address"
        },
        {
          "internalType": "address",
          "name": "",
          "type": "address"
        },
        {
          "internalType": "uint256",
          "name": "",
          "type": "uint256"
        },
        {
          "internalType": "bytes",
          "name": "",
          "type": "bytes"
        }
      ],
      "name": "onERC721Received",
      "outputs": [
        {
          "internalType": "bytes4",
          "name": "",
          "type": "bytes4"
        }
      ],
      "stateMutability": "pure",
      "type": "function"
    }
  ],
  "bytecode": "0x608060405234801561001057600080fd5b506138fe806100206000396000f3fe608060405234801561001057600080fd5b506004361061025c5760003560e01c80639a5872f411610145578063b527778b116100bd578063db0ed6a01161008c578063fad8b32a11610071578063fad8b32a146105ce578063fc673c4f146105e1578063fe9d9303146105f457600080fd5b8063db0ed6a014610582578063dd62ed3e1461059557600080fd5b8063b527778b14610536578063d8aed14514610549578063d95b63711461055c578063db006a751461056f57600080fd5b8063a68b91ab11610114578063a9059cbb116100f9578063a9059cbb14610508578063adf459ca1461051b578063b3da1bcb1461052e57600080fd5b8063a68b91ab146104ba578063a6aa57ce146104f557600080fd5b80639a5872f4146104785780639bd9bbc61461048b578063a236dd691461049e578063a5bfd16a146104a557600080fd5b8063313ce567116101d857806370a08231116101a757806390b53e141161018c57806390b53e141461044c578063959b8c3f1461045d57806395d89b411461047057600080fd5b806370a08231146104105780637e174eb41461043957600080fd5b8063313ce56714610395578063556f0dc7146103a457806362ad1b83146103ab57806366877b8d146103c057600080fd5b8063121ed2a71161022f57806318160ddd1161021457806318160ddd1461035557806323b872dd1461035d5780632f5e5d951461037057600080fd5b8063121ed2a7146102d8578063150b7a02146102ed57600080fd5b806306e485381461026157806306fdde031461027f578063095ea7b3146102945780630c196a74146102b7575b600080fd5b610269610607565b6040516102769190612eff565b60405180910390f35b610287610669565b6040516102769190612f99565b6102a76102a2366004612fc4565b6106f2565b6040519015158152602001610276565b6102ca6102c5366004612ff0565b61070a565b604051908152602001610276565b6102e06107c6565b6040516102769190613009565b6103246102fb3660046130fa565b7f150b7a0200000000000000000000000000000000000000000000000000000000949350505050565b6040517fffffffff000000000000000000000000000000000000000000000000000000009091168152602001610276565b6034546102ca565b6102a761036b366004613166565b6108b2565b6066546001600160a01b03165b6040516001600160a01b039091168152602001610276565b60405160128152602001610276565b60016102ca565b6103be6103b93660046131a7565b610af7565b005b6103d36103ce366004612ff0565b610b89565b604080519788526001600160a01b039096166020880152948601939093526060850191909152608084015260a083015260c082015260e001610276565b6102ca61041e36600461323a565b6001600160a01b031660009081526033602052604090205490565b6103be610447366004613257565b610c4c565b6065546001600160a01b031661037d565b6103be61046b36600461323a565b610c7a565b610287610db1565b6102ca610486366004612ff0565b610dc0565b6103be610499366004613309565b610e9c565b60016102a7565b6104ad610ebf565b6040516102769190613362565b6104c2610f6d565b604080516001600160a01b039687168152959094166020860152928401919091526060830152608082015260a001610276565b6103be610503366004612ff0565b610fac565b6102a7610516366004612fc4565b611054565b6103be61052936600461339a565b61115c565b6102ca6117f3565b6103be61054436600461323a565b61182c565b6103be6105573660046133c6565b6118fc565b6102a761056a3660046133e8565b611dcf565b6103be61057d366004612ff0565b611e71565b6103be610590366004613421565b611fc0565b6102ca6105a33660046133e8565b6001600160a01b039182166000908152603b6020908152604080832093909416825291909152205490565b6103be6105dc36600461323a565b6120c7565b6103be6105ef3660046134bf565b6121ff565b6103be610602366004613533565b612287565b6060603780548060200260200160405190810160405280929190818152602001828054801561065f57602002820191906000526020600020905b81546001600160a01b03168152600190910190602001808311610641575b5050505050905090565b6060603580546106789061357a565b80601f01602080910402602001604051908101604052809291908181526020018280546106a49061357a565b801561065f5780601f106106c65761010080835404028352916020019161065f565b820191906000526020600020905b8154815290600101906020018083116106d457509395945050505050565b6000336107008185856122a2565b5060019392505050565b600060695460685461071c91906135c5565b821061072757600080fd5b60006107586068546107526305f5e10061074c876069546123fb90919063ffffffff16565b90612407565b90612413565b9050600061076a82630bebc20061241f565b9050600061077c836305f5e10061241f565b905060006107918261075285620f4240612407565b90506107bc60006107b6620f4240816107af630bebc2006064612413565b869061241f565b906123fb565b9695505050505050565b606b5460609060009067ffffffffffffffff8111156107e7576107e7613043565b604051908082528060200260200182016040528015610810578160200160208202803683370190505b50905060005b606b548110156108ac57606b8181548110610833576108336135dc565b906000526020600020906006020160030154600014610875576001828281518110610860576108606135dc565b9115156020928302919091019091015261089a565b6000828281518110610889576108896135dc565b911515602092830291909101909101525b806108a4816135f2565b915050610816565b50919050565b60006001600160a01b0383166109345760405162461bcd60e51b8152602060048201526024808201527f4552433737373a207472616e7366657220746f20746865207a65726f2061646460448201527f726573730000000000000000000000000000000000000000000000000000000060648201526084015b60405180910390fd5b6001600160a01b0384166109b05760405162461bcd60e51b815260206004820152602660248201527f4552433737373a207472616e736665722066726f6d20746865207a65726f206160448201527f6464726573730000000000000000000000000000000000000000000000000000606482015260840161092b565b60003390506109e181868686604051806020016040528060008152506040518060200160405280600081525061242b565b610a0d818686866040518060200160405280600081525060405180602001604052806000815250612594565b6001600160a01b038086166000908152603b602090815260408083209385168352929052205483811015610aa95760405162461bcd60e51b815260206004820152602960248201527f4552433737373a207472616e7366657220616d6f756e7420657863656564732060448201527f616c6c6f77616e63650000000000000000000000000000000000000000000000606482015260840161092b565b610abd8683610ab887856135c5565b6122a2565b610aeb8287878760405180602001604052806000815250604051806020016040528060008152506000612710565b50600195945050505050565b610b013386611dcf565b610b735760405162461bcd60e51b815260206004820152602c60248201527f4552433737373a2063616c6c6572206973206e6f7420616e206f70657261746f60448201527f7220666f7220686f6c6465720000000000000000000000000000000000000000606482015260840161092b565b610b8285858585856001612926565b5050505050565b600080600080600080600080606b8981548110610ba857610ba86135dc565b600091825260208083206040805160c08101825260069094029091018054845260018101546001600160a01b03169284019290925260028201549083015260038101546060830152600481015460808301526005015460a08201529150610c0e8a610dc0565b60009a8b52606f602090815260409b8c9020548451918501519c850151606086015160a090960151929e909c50949a50919850965094509092505050565b6065546001600160a01b03163314610c6357600080fd5b8051610c76906067906020840190612e04565b5050565b336001600160a01b0382161415610cf85760405162461bcd60e51b8152602060048201526024808201527f4552433737373a20617574686f72697a696e672073656c66206173206f70657260448201527f61746f7200000000000000000000000000000000000000000000000000000000606482015260840161092b565b6001600160a01b03811660009081526038602052604090205460ff1615610d4957336000908152603a602090815260408083206001600160a01b03851684529091529020805460ff19169055610d78565b3360009081526039602090815260408083206001600160a01b03851684529091529020805460ff191660011790555b60405133906001600160a01b038316907ff4caeb2d6ca8932a215a353d0703c326ec2d81fc68170f320eb2ab49e9df61f990600090a350565b6060603680546106789061357a565b600080606b8381548110610dd657610dd66135dc565b600091825260208083206040805160c08101825260069094029091018054845260018101546001600160a01b03169284019290925260028201549083015260038101546060830152600481015460808301526005015460a08201819052909250610e41904290612a24565b90506000610e756301e28500610e6f620f4240610e6f87604001518860600151612a3090919063ffffffff16565b90612a3c565b90506000610e838284612a30565b90506107bc846080015182612a4890919063ffffffff16565b610eba33848484604051806020016040528060008152506001612926565b505050565b606b5460609060009067ffffffffffffffff811115610ee057610ee0613043565b604051908082528060200260200182016040528015610f09578160200160208202803683370190505b50905060005b606b548110156108ac57606b8181548110610f2c57610f2c6135dc565b906000526020600020906006020160000154828281518110610f5057610f506135dc565b602090810291909101015280610f65816135f2565b915050610f0f565b60655460665460685460009283928392839283926001600160a01b0391821692911690610f986117f3565b606954945094509450945094509091929394565b6066546040516323b872dd60e01b8152336004820152306024820152604481018390526001600160a01b03909116906323b872dd90606401602060405180830381600087803b158015610ffe57600080fd5b505af1158015611012573d6000803e3d6000fd5b505050506040513d601f19601f82011682018060405250810190611036919061360d565b506110413382612a54565b60685461104e9082612a48565b60685550565b60006001600160a01b0383166110d15760405162461bcd60e51b8152602060048201526024808201527f4552433737373a207472616e7366657220746f20746865207a65726f2061646460448201527f7265737300000000000000000000000000000000000000000000000000000000606482015260840161092b565b600033905061110281828686604051806020016040528060008152506040518060200160405280600081525061242b565b61112e818286866040518060200160405280600081525060405180602001604052806000815250612594565b6107008182868660405180602001604052806000815250604051806020016040528060008152506000612710565b6070546040517f081812fc0000000000000000000000000000000000000000000000000000000081526004810183905230916001600160a01b03169063081812fc9060240160206040518083038186803b1580156111b957600080fd5b505afa1580156111cd573d6000803e3d6000fd5b505050506040513d601f19601f820116820180604052508101906111f1919061362f565b6001600160a01b03161461126d5760405162461bcd60e51b815260206004820152602660248201527f706f6f6c206973206e6f7420617070726f76656420746f206d6f76652070726f60448201527f70546f6b656e0000000000000000000000000000000000000000000000000000606482015260840161092b565b6070546040517f6352211e0000000000000000000000000000000000000000000000000000000081526004810183905233916001600160a01b031690636352211e9060240160206040518083038186803b1580156112ca57600080fd5b505afa1580156112de573d6000803e3d6000fd5b505050506040513d601f19601f82011682018060405250810190611302919061362f565b6001600160a01b03161461137e5760405162461bcd60e51b815260206004820152602160248201527f6d73672e73656e646572206973206e6f742070726f70546f6b656e206f776e6560448201527f7200000000000000000000000000000000000000000000000000000000000000606482015260840161092b565b60006113898461070a565b9050828111156114015760405162461bcd60e51b815260206004820152602160248201527f696e7465726573742072617465206e6f206c6f6e67657220617661696c61626c60448201527f6500000000000000000000000000000000000000000000000000000000000000606482015260840161092b565b6070546040517f6ebb668b0000000000000000000000000000000000000000000000000000000081526004810184905285916001600160a01b031690636ebb668b9060240160206040518083038186803b15801561145e57600080fd5b505afa158015611472573d6000803e3d6000fd5b505050506040513d601f19601f82011682018060405250810190611496919061364c565b101561150a5760405162461bcd60e51b815260206004820152602960248201527f4c6f616e20616d6f756e7420746f6f206c6172676520666f722070726f70546f60448201527f6b656e2076616c75650000000000000000000000000000000000000000000000606482015260840161092b565b6070546040517f42842e0e000000000000000000000000000000000000000000000000000000008152336004820152306024820152604481018490526001600160a01b03909116906342842e0e90606401600060405180830381600087803b15801561157557600080fd5b505af1158015611589573d6000803e3d6000fd5b50506040805160c081018252606c80548252336020808401828152848601898152606086018d81526000608088018181524260a08a01908152606b8054600180820183559185528b517fbd43cb8ece8cd1863bcd6082d65c5b0d25665b1ce17980f0da43c0ed545f98b460069092029182015596517fbd43cb8ece8cd1863bcd6082d65c5b0d25665b1ce17980f0da43c0ed545f98b58801805473ffffffffffffffffffffffffffffffffffffffff19166001600160a01b0390921691909117905594517fbd43cb8ece8cd1863bcd6082d65c5b0d25665b1ce17980f0da43c0ed545f98b687015592517fbd43cb8ece8cd1863bcd6082d65c5b0d25665b1ce17980f0da43c0ed545f98b7860155517fbd43cb8ece8cd1863bcd6082d65c5b0d25665b1ce17980f0da43c0ed545f98b885015590517fbd43cb8ece8cd1863bcd6082d65c5b0d25665b1ce17980f0da43c0ed545f98b990930192909255928152606a82528581208454815480860183559183528383209091015583548152606f9091529390932087905554909350611722925090612a48565b606c556069546117329086612a48565b6069556066546040517fa9059cbb000000000000000000000000000000000000000000000000000000008152336004820152602481018790526001600160a01b039091169063a9059cbb90604401602060405180830381600087803b15801561179a57600080fd5b505af11580156117ae573d6000803e3d6000fd5b505050506040513d601f19601f820116820180604052508101906117d2919061360d565b50606554610b82906001600160a01b03166117ee876064612a3c565b612a54565b606854600090815b606b548110156108ac5761181861181182610dc0565b8390612a48565b915080611824816135f2565b9150506117fb565b6065546001600160a01b0316331461184357600080fd5b6040805180820190915260058082527f62486f6d65000000000000000000000000000000000000000000000000000000602090920191825261188791606d91612e76565b506040805180820190915260058082527f62484f4d4500000000000000000000000000000000000000000000000000000060209092019182526118cc91606e91612e76565b506070805473ffffffffffffffffffffffffffffffffffffffff19166001600160a01b0392909216919091179055565b80600061190884610dc0565b9050828111156119d4576066546040516323b872dd60e01b8152336004820152306024820152604481018590526001600160a01b03909116906323b872dd90606401602060405180830381600087803b15801561196457600080fd5b505af1158015611978573d6000803e3d6000fd5b505050506040513d601f19601f8201168201806040525081019061199c919061360d565b506119a78184612a24565b606b85815481106119ba576119ba6135dc565b906000526020600020906006020160040181905550611d3b565b90508060006119e38483612a24565b905080606b86815481106119f9576119f96135dc565b9060005260206000209060060201600301541115611b13576066546040516323b872dd60e01b8152336004820152306024820152604481018690526001600160a01b03909116906323b872dd90606401602060405180830381600087803b158015611a6357600080fd5b505af1158015611a77573d6000803e3d6000fd5b505050506040513d601f19601f82011682018060405250810190611a9b919061360d565b50606954611aa99082612a24565b606981905550611ae681606b8781548110611ac657611ac66135dc565b906000526020600020906006020160030154612a2490919063ffffffff16565b606b8681548110611af957611af96135dc565b906000526020600020906006020160030181905550611d0f565b6000611b4c83606b8881548110611b2c57611b2c6135dc565b906000526020600020906006020160030154612a4890919063ffffffff16565b6066546040516323b872dd60e01b8152336004820152306024820152604481018390529192506001600160a01b0316906323b872dd90606401602060405180830381600087803b158015611b9f57600080fd5b505af1158015611bb3573d6000803e3d6000fd5b505050506040513d601f19601f82011682018060405250810190611bd7919061360d565b50611c11606b8781548110611bee57611bee6135dc565b906000526020600020906006020160030154606954612a2490919063ffffffff16565b6069819055506000606b8781548110611c2c57611c2c6135dc565b6000918252602090912060036006909202010155607054606b80546001600160a01b03909216916342842e0e9130918a908110611c6b57611c6b6135dc565b60009182526020808320600160069093020191909101548b8352606f9091526040918290205491517fffffffff0000000000000000000000000000000000000000000000000000000060e086901b1681526001600160a01b039384166004820152921660248301526044820152606401600060405180830381600087803b158015611cf557600080fd5b505af1158015611d09573d6000803e3d6000fd5b50505050505b6000606b8681548110611d2457611d246135dc565b906000526020600020906006020160040181905550505b42606b8581548110611d4f57611d4f6135dc565b6000918252602090912060056006909202010155606854611d709083612a48565b6068819055506000611db6606b8681548110611d8e57611d8e6135dc565b906000526020600020906006020160020154610e6f85620f4240612a3090919063ffffffff16565b606554909150610b82906001600160a01b031682612a54565b6000816001600160a01b0316836001600160a01b03161480611e3a57506001600160a01b03831660009081526038602052604090205460ff168015611e3a57506001600160a01b038083166000908152603a602090815260408083209387168352929052205460ff16155b80611e6a57506001600160a01b0380831660009081526039602090815260408083209387168352929052205460ff165b9392505050565b33600090815260336020526040902054811115611e8d57600080fd5b6000611eb0611e9b60345490565b610e6f620f4240611eaa6117f3565b90612a30565b90506000611ec5620f4240610e6f8585612a30565b9050606954606854611ed791906135c5565b811115611ee357600080fd5b611f0d33846040518060200160405280600081525060405180602001604052806000815250612ad4565b606854611f1a9082612a24565b6068556066546040517fa9059cbb000000000000000000000000000000000000000000000000000000008152336004820152602481018390526001600160a01b039091169063a9059cbb90604401602060405180830381600087803b158015611f8257600080fd5b505af1158015611f96573d6000803e3d6000fd5b505050506040513d601f19601f82011682018060405250810190611fba919061360d565b50505050565b600054610100900460ff16611fdb5760005460ff1615611fdf565b303b155b6120515760405162461bcd60e51b815260206004820152602e60248201527f496e697469616c697a61626c653a20636f6e747261637420697320616c72656160448201527f647920696e697469616c697a6564000000000000000000000000000000000000606482015260840161092b565b600054610100900460ff1615801561209057600080547fffffffffffffffffffffffffffffffffffffffffffffffffffffffffffff0000166101011790555b80156120bf57600080547fffffffffffffffffffffffffffffffffffffffffffffffffffffffffffff00ff1690555b505050505050565b6001600160a01b0381163314156121465760405162461bcd60e51b815260206004820152602160248201527f4552433737373a207265766f6b696e672073656c66206173206f70657261746f60448201527f7200000000000000000000000000000000000000000000000000000000000000606482015260840161092b565b6001600160a01b03811660009081526038602052604090205460ff161561219a57336000908152603a602090815260408083206001600160a01b03851684529091529020805460ff191660011790556121c6565b3360009081526039602090815260408083206001600160a01b03851684529091529020805460ff191690555b60405133906001600160a01b038316907f50546e66e5f44d728365dc3908c63bc5cfeeab470722c1677e3073a6ac294aa190600090a350565b6122093385611dcf565b61227b5760405162461bcd60e51b815260206004820152602c60248201527f4552433737373a2063616c6c6572206973206e6f7420616e206f70657261746f60448201527f7220666f7220686f6c6465720000000000000000000000000000000000000000606482015260840161092b565b611fba84848484612ad4565b610c7633838360405180602001604052806000815250612ad4565b6001600160a01b03831661231e5760405162461bcd60e51b815260206004820152602560248201527f4552433737373a20617070726f76652066726f6d20746865207a65726f20616460448201527f6472657373000000000000000000000000000000000000000000000000000000606482015260840161092b565b6001600160a01b03821661239a5760405162461bcd60e51b815260206004820152602360248201527f4552433737373a20617070726f766520746f20746865207a65726f206164647260448201527f6573730000000000000000000000000000000000000000000000000000000000606482015260840161092b565b6001600160a01b038381166000818152603b602090815260408083209487168084529482529182902085905590518481527f8c5be1e5ebec7d5bd14f71427d1e84f3dd0314c0f7b2291e5b200ac8c7c3b925910160405180910390a3505050565b6000611e6a8284613665565b6000611e6a82846136bd565b6000611e6a8284613773565b6000611e6a82846137a1565b6040517faabbb8ca0000000000000000000000000000000000000000000000000000000081526001600160a01b03861660048201527f29ddb589b1fb5fc7cf394961c1adf5f8c6454761adf795e67fe149f658abe8956024820152600090731820a4b7618bde71dce8cdc73aab6c95905fad249063aabbb8ca9060440160206040518083038186803b1580156124c057600080fd5b505afa1580156124d4573d6000803e3d6000fd5b505050506040513d601f19601f820116820180604052508101906124f8919061362f565b90506001600160a01b0381161561258b576040517f75ab97820000000000000000000000000000000000000000000000000000000081526001600160a01b038216906375ab978290612558908a908a908a908a908a908a906004016137f9565b600060405180830381600087803b15801561257257600080fd5b505af1158015612586573d6000803e3d6000fd5b505050505b50505050505050565b6001600160a01b038516600090815260336020526040902054838110156126235760405162461bcd60e51b815260206004820152602760248201527f4552433737373a207472616e7366657220616d6f756e7420657863656564732060448201527f62616c616e636500000000000000000000000000000000000000000000000000606482015260840161092b565b6001600160a01b0380871660009081526033602052604080822087850390559187168152908120805486929061265a908490613852565b92505081905550846001600160a01b0316866001600160a01b0316886001600160a01b03167f06b541ddaa720db2b10a4d0cdac39b8d360425fc073085fac19bc826146779878787876040516126b29392919061386a565b60405180910390a4846001600160a01b0316866001600160a01b03167fddf252ad1be2c89b69c2b068fc378daa952ba7f163c4a11628f55a4df523b3ef866040516126ff91815260200190565b60405180910390a350505050505050565b6040517faabbb8ca0000000000000000000000000000000000000000000000000000000081526001600160a01b03861660048201527fb281fc8c12954d22544db45de3159a39272895b169a852b314f9cc762e44c53b6024820152600090731820a4b7618bde71dce8cdc73aab6c95905fad249063aabbb8ca9060440160206040518083038186803b1580156127a557600080fd5b505afa1580156127b9573d6000803e3d6000fd5b505050506040513d601f19601f820116820180604052508101906127dd919061362f565b90506001600160a01b03811615612872576040517e23de290000000000000000000000000000000000000000000000000000000081526001600160a01b038216906223de299061283b908b908b908b908b908b908b906004016137f9565b600060405180830381600087803b15801561285557600080fd5b505af1158015612869573d6000803e3d6000fd5b5050505061291c565b811561291c576001600160a01b0386163b1561291c5760405162461bcd60e51b815260206004820152604d60248201527f4552433737373a20746f6b656e20726563697069656e7420636f6e747261637460448201527f20686173206e6f20696d706c656d656e74657220666f7220455243373737546f60648201527f6b656e73526563697069656e7400000000000000000000000000000000000000608482015260a40161092b565b5050505050505050565b6001600160a01b0386166129a25760405162461bcd60e51b815260206004820152602260248201527f4552433737373a2073656e642066726f6d20746865207a65726f20616464726560448201527f7373000000000000000000000000000000000000000000000000000000000000606482015260840161092b565b6001600160a01b0385166129f85760405162461bcd60e51b815260206004820181905260248201527f4552433737373a2073656e6420746f20746865207a65726f2061646472657373604482015260640161092b565b33612a0781888888888861242b565b612a15818888888888612594565b61258b81888888888888612710565b6000611e6a82846135c5565b6000611e6a8284613895565b6000611e6a82846138b4565b6000611e6a8284613852565b6000612a5e6117f3565b905080612a8f57610eba83836040518060200160405280600081525060405180602001604052806000815250612cbe565b6000612aa882610e6f612aa160345490565b8690612a30565b9050611fba84826040518060200160405280600081525060405180602001604052806000815250612cbe565b6001600160a01b038416612b505760405162461bcd60e51b815260206004820152602260248201527f4552433737373a206275726e2066726f6d20746865207a65726f20616464726560448201527f7373000000000000000000000000000000000000000000000000000000000000606482015260840161092b565b33612b608186600087878761242b565b6001600160a01b03851660009081526033602052604090205484811015612bef5760405162461bcd60e51b815260206004820152602360248201527f4552433737373a206275726e20616d6f756e7420657863656564732062616c6160448201527f6e63650000000000000000000000000000000000000000000000000000000000606482015260840161092b565b6001600160a01b0386166000908152603360205260408120868303905560348054879290612c1e9084906135c5565b92505081905550856001600160a01b0316826001600160a01b03167fa78a9be3a7b862d26933ad85fb11d80ef66b8f972d7cbba06621d583943a4098878787604051612c6c9392919061386a565b60405180910390a36040518581526000906001600160a01b038816907fddf252ad1be2c89b69c2b068fc378daa952ba7f163c4a11628f55a4df523b3ef906020015b60405180910390a3505050505050565b611fba8484848460016001600160a01b038516612d1d5760405162461bcd60e51b815260206004820181905260248201527f4552433737373a206d696e7420746f20746865207a65726f2061646472657373604482015260640161092b565b60003390508460346000828254612d349190613852565b90915550506001600160a01b03861660009081526033602052604081208054879290612d61908490613852565b90915550612d7790508160008888888888612710565b856001600160a01b0316816001600160a01b03167f2fe5be0146f74c5bce36c0b80911af6c7d86ff27e89d5cfa61fc681327954e5d878787604051612dbe9392919061386a565b60405180910390a36040518581526001600160a01b038716906000907fddf252ad1be2c89b69c2b068fc378daa952ba7f163c4a11628f55a4df523b3ef90602001612cae565b828054828255906000526020600020908101928215612e66579160200282015b82811115612e66578251825473ffffffffffffffffffffffffffffffffffffffff19166001600160a01b03909116178255602090920191600190910190612e24565b50612e72929150612eea565b5090565b828054612e829061357a565b90600052602060002090601f016020900481019282612ea45760008555612e66565b82601f10612ebd57805160ff1916838001178555612e66565b82800160010185558215612e66579182015b82811115612e66578251825591602001919060010190612ecf565b5b80821115612e725760008155600101612eeb565b6020808252825182820181905260009190848201906040850190845b81811015612f405783516001600160a01b031683529284019291840191600101612f1b565b50909695505050505050565b6000815180845260005b81811015612f7257602081850181015186830182015201612f56565b81811115612f84576000602083870101525b50601f01601f19169290920160200192915050565b602081526000611e6a6020830184612f4c565b6001600160a01b0381168114612fc157600080fd5b50565b60008060408385031215612fd757600080fd5b8235612fe281612fac565b946020939093013593505050565b60006020828403121561300257600080fd5b5035919050565b6020808252825182820181905260009190848201906040850190845b81811015612f40578351151583529284019291840191600101613025565b634e487b7160e01b600052604160045260246000fd5b604051601f8201601f1916810167ffffffffffffffff8111828210171561308257613082613043565b604052919050565b600082601f83011261309b57600080fd5b813567ffffffffffffffff8111156130b5576130b5613043565b6130c86020601f19601f84011601613059565b8181528460208386010111156130dd57600080fd5b816020850160208301376000918101602001919091529392505050565b6000806000806080858703121561311057600080fd5b843561311b81612fac565b9350602085013561312b81612fac565b925060408501359150606085013567ffffffffffffffff81111561314e57600080fd5b61315a8782880161308a565b91505092959194509250565b60008060006060848603121561317b57600080fd5b833561318681612fac565b9250602084013561319681612fac565b929592945050506040919091013590565b600080600080600060a086880312156131bf57600080fd5b85356131ca81612fac565b945060208601356131da81612fac565b935060408601359250606086013567ffffffffffffffff808211156131fe57600080fd5b61320a89838a0161308a565b9350608088013591508082111561322057600080fd5b5061322d8882890161308a565b9150509295509295909350565b60006020828403121561324c57600080fd5b8135611e6a81612fac565b6000602080838503121561326a57600080fd5b823567ffffffffffffffff8082111561328257600080fd5b818501915085601f83011261329657600080fd5b8135818111156132a8576132a8613043565b8060051b91506132b9848301613059565b81815291830184019184810190888411156132d357600080fd5b938501935b838510156132fd57843592506132ed83612fac565b82825293850193908501906132d8565b98975050505050505050565b60008060006060848603121561331e57600080fd5b833561332981612fac565b925060208401359150604084013567ffffffffffffffff81111561334c57600080fd5b6133588682870161308a565b9150509250925092565b6020808252825182820181905260009190848201906040850190845b81811015612f405783518352928401929184019160010161337e565b6000806000606084860312156133af57600080fd5b505081359360208301359350604090920135919050565b600080604083850312156133d957600080fd5b50508035926020909101359150565b600080604083850312156133fb57600080fd5b823561340681612fac565b9150602083013561341681612fac565b809150509250929050565b600080600080600060a0868803121561343957600080fd5b853567ffffffffffffffff8082111561345157600080fd5b61345d89838a0161308a565b9650602088013591508082111561347357600080fd5b506134808882890161308a565b945050604086013561349181612fac565b925060608601356134a181612fac565b915060808601356134b181612fac565b809150509295509295909350565b600080600080608085870312156134d557600080fd5b84356134e081612fac565b935060208501359250604085013567ffffffffffffffff8082111561350457600080fd5b6135108883890161308a565b9350606087013591508082111561352657600080fd5b5061315a8782880161308a565b6000806040838503121561354657600080fd5b82359150602083013567ffffffffffffffff81111561356457600080fd5b6135708582860161308a565b9150509250929050565b600181811c9082168061358e57607f821691505b602082108114156108ac57634e487b7160e01b600052602260045260246000fd5b634e487b7160e01b600052601160045260246000fd5b6000828210156135d7576135d76135af565b500390565b634e487b7160e01b600052603260045260246000fd5b6000600019821415613606576136066135af565b5060010190565b60006020828403121561361f57600080fd5b81518015158114611e6a57600080fd5b60006020828403121561364157600080fd5b8151611e6a81612fac565b60006020828403121561365e57600080fd5b5051919050565b6000808212827f7fffffffffffffffffffffffffffffffffffffffffffffffffffffffffffffff0384138115161561369f5761369f6135af565b82600160ff1b0384128116156136b7576136b76135af565b50500190565b60007f7fffffffffffffffffffffffffffffffffffffffffffffffffffffffffffffff6000841360008413858304851182821616156136fe576136fe6135af565b600160ff1b600087128682058812818416161561371d5761371d6135af565b60008712925087820587128484161615613739576137396135af565b8785058712818416161561374f5761374f6135af565b505050929093029392505050565b634e487b7160e01b600052601260045260246000fd5b6000826137825761378261375d565b6000198314600160ff1b8314161561379c5761379c6135af565b500590565b600080831283600160ff1b018312811516156137bf576137bf6135af565b837f7fffffffffffffffffffffffffffffffffffffffffffffffffffffffffffffff0183138116156137f3576137f36135af565b50500390565b60006001600160a01b038089168352808816602084015280871660408401525084606083015260c0608083015261383360c0830185612f4c565b82810360a08401526138458185612f4c565b9998505050505050505050565b60008219821115613865576138656135af565b500190565b8381526060602082015260006138836060830185612f4c565b82810360408401526107bc8185612f4c565b60008160001904831182151516156138af576138af6135af565b500290565b6000826138c3576138c361375d565b50049056fea264697066735822122041be5775cac93678fa3027d18d6ef0de9d63a6cc4e203e92de12dc03701fb0e764736f6c63430008090033",
  "immutableReferences": {},
  "source": "// contracts/Pool0.sol\n// SPDX-License-Identifier: MIT\npragma solidity ^0.8.4;\n\nimport \"../@openzeppelin/contracts-upgradeable/proxy/utils/Initializable.sol\";\nimport \"../@openzeppelin/contracts-upgradeable/token/ERC777/ERC777Upgradeable.sol\";\nimport '../@openzeppelin/contracts-upgradeable/token/ERC20/IERC20Upgradeable.sol';\nimport './../PropTokens/PropToken0.sol';\nimport \"../@openzeppelin/contracts-upgradeable/token/ERC721/IERC721ReceiverUpgradeable.sol\";\nimport '../@openzeppelin/contracts/utils/math/SafeMath.sol';\nimport '../@openzeppelin/contracts/utils/math/SignedSafeMath.sol';\n\ncontract Pool1 is Initializable, ERC777Upgradeable, IERC721ReceiverUpgradeable {\n    using SignedSafeMath for int256;\n    using SafeMath for uint256;\n\n    struct Loan{\n        uint256 loanId;\n        address borrower;\n        uint256 interestRate;\n        uint256 principal;\n        uint256 interestAccrued;\n        uint256 timeLastPayment;\n    }\n\n    address servicer;\n    address ERCAddress;\n    address[] servicerAddresses;\n    /* Adding a variable above this line (not reflected in Pool0) will cause contract storage conflicts */\n\n    uint256 poolLent;\n    uint256 poolBorrowed;\n    mapping(address => uint256[]) userLoans;\n    Loan[] loans;\n    uint256 loanCount;\n\n    uint constant servicerFeePercentage = 1000000;\n    uint constant baseInterestPercentage = 0;\n    uint constant curveK = 200000000;\n\n    /* Pool1 variables introduced here */\n\n    string private _name;\n    string private _symbol;\n    mapping(uint256 => uint256) loanToPropToken;\n    address propTokenContractAddress;\n\n\n    /*****************************************************\n    *       POOL STRUCTURE / UPGRADABILITY FUNCTIONS\n    ******************************************************/\n\n    /** \n    *   @dev Function initialize replaces constructor in upgradable contracts\n    *   - Calls the init function of the inherited ERC777 contract\n    *   @param initName Name of this particular ERC777 token\n    *   @param initSymbol The ticker this token will go by\n    */\n    function initialize(string memory initName, string memory initSymbol, address _ERCAddress, address _servicer, address approvedServicer) public initializer {\n        //emptied initialize func to reduce space in deployment\n    }\n\n    function initializePoolOne(address propTokenContract) public {\n        require(msg.sender == servicer);\n        _name=\"bHome\";\n        _symbol=\"bHOME\";\n        propTokenContractAddress = propTokenContract;\n    }\n\n    \n    /** \n    *   @dev Function setApprovedAddresses() updates the array of addresses approved by the servicer\n    *   @param _servicerAddresses The array of addresses to be set as approved for borrowing\n    */\n    function setApprovedAddresses(address[] memory _servicerAddresses) public {\n        require(msg.sender == servicer);\n\n        servicerAddresses = _servicerAddresses;\n    }\n\n    /** \n    *   @dev Function setApprovedAddresses() is an internal function that checks the array of approved addresses for the given address\n    *   @param _address The address to be checked if it is approved\n    *   @return isApproved is if the _addess is found in the list of servicerAddresses\n    */\n    function isApprovedServicer(address _address) internal view returns (bool) {\n        bool isApproved = false;\n        \n        for (uint i = 0; i < servicerAddresses.length; i++) {\n            if(_address == servicerAddresses[i]) {\n                isApproved = true;\n            }\n        }\n\n        return isApproved;\n    }\n\n    /*****************************************************\n    *                GETTER FUNCTIONS\n    ******************************************************/\n    /**\n    *   @dev Function getContractData() returns a lot of variables about the contract\n    */\n    function getContractData() public view returns (address, address, uint256, uint256, uint256) {\n        return (servicer, ERCAddress, poolLent, getPoolValueWithInterest(), poolBorrowed);\n    }\n\n    /**  \n    *   @dev Function getPoolValueWithInterest() returns the contract address of ERC20 this pool accepts (ususally USDC)\n    */\n    function getPoolValueWithInterest() public view returns (uint256) {\n        uint256 totalWithInterest = poolLent;\n\n        for (uint i=0; i<loans.length; i++) {\n            totalWithInterest = totalWithInterest.add(getLoanAccruedInterest(i));\n        }\n\n        return totalWithInterest;\n    }\n\n    /**  \n    *   @dev Function getSupplyableTokenAddress() returns the contract address of ERC20 this pool accepts (ususally USDC)\n    */\n    function getSupplyableTokenAddress() public view returns (address) {\n        return ERCAddress;\n    }\n\n    /**  \n    *   @dev Function getServicerAddress() returns the address of this pool's servicer\n    */\n    function getServicerAddress() public view returns (address) {\n        return servicer;\n    }\n\n    /**  \n    *   @dev Function getAllLoans() returns an array of the loanIndexes all users have taken out\n    *   @return array on loanIds of loans\n    */\n    function getAllLoans() public view returns (uint256[] memory) {\n        uint256[] memory loanIds = new uint256[](loans.length);\n\n        for (uint i = 0; i < loans.length; i++) {\n            loanIds[i] = loans[i].loanId;\n        }\n\n        return loanIds;\n    }\n\n    /**  \n    *   @dev Function getActiveLoans() returns an array of the loans currently out by users\n    *   @return array of bools, where the index i is the loan ID and the value bool is active or not\n    */\n    function getActiveLoans() public view returns (bool[] memory) {\n        bool[] memory loanActive = new bool[](loans.length);\n\n        for (uint i = 0; i < loans.length; i++) {\n            if(loans[i].principal != 0) {\n                loanActive[i] = true;\n            } else {\n                loanActive[i] = false;\n            }\n        }\n\n        return loanActive;\n    }\n\n    /**  \n    *   @dev Function getLoanAccruedInterest() calculates and returns the amount of interest accrued on a given loan\n    *   @param loanId is the id for the loan we're looking up\n    */\n    function getLoanAccruedInterest(uint256 loanId) public view returns (uint256) {\n        Loan memory loan = loans[loanId];\n        uint256 secondsSincePayment = block.timestamp.sub(loan.timeLastPayment);\n\n        uint256 interestPerSecond = loan.principal.mul(loan.interestRate).div(1000000).div(31622400);\n        uint256 interestAccrued = interestPerSecond.mul(secondsSincePayment);\n        return interestAccrued.add(loan.interestAccrued);\n    }    \n\n    /**  \n    *   @dev Function getLoanDetails() returns an all the raw details about a loan\n    *   @param loanId is the id for the loan we're looking up\n    *   TODO:EDITED in pool1 to also return PropToken ID\n    */\n    function getLoanDetails(uint256 loanId) public view returns (uint256, address, uint256, uint256, uint256, uint256, uint256) {\n        Loan memory loan = loans[loanId];\n        //temp interestAccrued calculation because this is a read function\n        uint256 interestAccrued = getLoanAccruedInterest(loanId);\n        uint256 propTokenID = loanToPropToken[loanId];\n        return (loan.loanId, loan.borrower, loan.interestRate, loan.principal, interestAccrued, loan.timeLastPayment, propTokenID);\n    }\n\n    /*****************************************************\n    *                LENDING/BORROWING FUNCTIONS\n    ******************************************************/\n\n    /**  \n    *   @dev Function mintProportionalPoolTokens calculates how many new hc_pool tokens to mint when value is added to the pool based on proportional value\n    *   @param recepient The address of the wallet receiving the newly minted hc_pool tokens\n    *   @param amount The amount to be minted\n    */\n    function mintProportionalPoolTokens(address recepient, uint256 amount) private {\n        //check if this is first deposit\n        uint256 totalValue = getPoolValueWithInterest();\n        if (totalValue == 0) {\n            super._mint(recepient, amount, \"\", \"\");\n        } else {\n            //Calculate proportional to total value (including interest)\n            uint256 new_hc_pool = amount.mul(super.totalSupply()).div(totalValue);\n            super._mint(recepient, new_hc_pool, \"\", \"\");\n        }\n    }\n\n    /**  \n    *   @dev Function lend moves assets on the (probably usdc) contract to our own balance\n    *   - Before calling: an approve(address _spender (proxy), uint256 _value (0xffff)) function call must be made on remote contract\n    *   @param amount The amount to be transferred\n    */\n    function lend(\n        uint256 amount\n    ) public {\n        //USDC on Ropsten only right now\n        IERC20Upgradeable(ERCAddress).transferFrom(msg.sender, address(this), amount);\n        mintProportionalPoolTokens(msg.sender, amount);\n        poolLent = poolLent.add(amount);\n    }\n\n    /**  \n    *   @dev Function redeem burns the sender's hcPool tokens and transfers the usdc back to them\n    *   @param amount The amount of hc_pool to be redeemed\n    */\n    function redeem(\n        uint256 amount\n    ) public {\n        //check to see if sender has enough hc_pool to redeem\n        require(balanceOf(msg.sender) >= amount);\n\n        //check to make sure there is liquidity available in the pool to withdraw\n        uint256 tokenPrice = getPoolValueWithInterest().mul(1000000).div(super.totalSupply());\n        uint256 erc20ValueOfTokens = amount.mul(tokenPrice).div(1000000);\n        require(erc20ValueOfTokens <= (poolLent - poolBorrowed));\n\n        //burn hcPool first\n        super._burn(msg.sender, amount, \"\", \"\");\n        poolLent = poolLent.sub(erc20ValueOfTokens);\n        IERC20Upgradeable(ERCAddress).transfer(msg.sender, erc20ValueOfTokens);\n    }\n\n    /**  \n    *   @dev Function getInterestRate calculates the new interest rate if a loan was to be taken out in this block\n    *   @param amount The size of the potential loan in (probably usdc).\n    *   @return interestRate The interest rate in APR for the loan\n    */\n    function getInterestRate(uint256 amount) public view returns (int256) {\n        //I = (( U - k ) / (U - 100)) - 0.01k + Base + ServicerFee\n        //all ints multiplied by 1000000 to represent the 6 decimal points available\n        \n        //first check available allocation\n        require(amount < (poolLent - poolBorrowed));\n\n        //get new proposed utilization amount\n        int256 newUtilizationRatio = int256(poolBorrowed).add(int256(amount)).mul(100000000).div(int256(poolLent));\n\n        //calculate interest\n        //subtract k from U\n        int256 numerator = newUtilizationRatio.sub(int256(curveK));  \n        //subtract 100 from U\n        int256 denominator = newUtilizationRatio.sub(100000000);\n        //divide numerator by denominator and multiply percentage by 10^6 to account for decimal places\n        int256 interest = numerator.mul(1000000).div(denominator);\n        //add base and fees to interest\n        interest = interest.sub(int256(curveK).div(100)).add(int256(servicerFeePercentage)).add(int256(baseInterestPercentage)); \n        \n        return interest;\n    }\n\n    /**  \n    *   @dev Function borrow creates a new Loan, moves the USDC to Borrower, and returns the loan ID and fixed Interest Rate\n    *   - Also creates an origination fee for the Servicer in HC_Pool\n    *   @param amount The size of the potential loan in (probably usdc).\n    *   @param maxRate The size of the potential loan in (probably usdc).\n    *   EDITED in pool1 to also require a PropToken\n    *   EDITED in pool1 - borrower param was removed and msg.sender is new recepient of USDC\n    */\n    function borrow(uint256 amount, uint256 maxRate, uint256 propTokenId) public {\n        //for v2 require this address is approved to transfer propToken \n        require(PropToken0(propTokenContractAddress).getApproved(propTokenId) == address(this), \"pool is not approved to move propToken\");\n        //also require msg.sender is owner of token\n        require(PropToken0(propTokenContractAddress).ownerOf(propTokenId) == msg.sender, \"msg.sender is not propToken owner\");\n\n        //check the requested interest rate is still available\n        uint256 fixedInterestRate = uint256(getInterestRate(amount));\n        require(fixedInterestRate <= maxRate, \"interest rate no longer available\");\n\n        //require the propToken approved has a lien value less than or equal to the requested loan size\n        require(PropToken0(propTokenContractAddress).getLienValue(propTokenId) >= amount, \"Loan amount too large for propToken value\");\n\n        //first take the propToken\n        PropToken0(propTokenContractAddress).safeTransferFrom(msg.sender, address(this), propTokenId);\n\n        //create new Loan\n        Loan memory newLoan = Loan(loanCount, msg.sender, fixedInterestRate, amount, 0, block.timestamp);\n        loans.push(newLoan);\n        userLoans[msg.sender].push(loanCount);\n\n        //map new loanID to Token ID\n        loanToPropToken[loanCount] = propTokenId;\n\n        //update system variables\n        loanCount = loanCount.add(1);\n        poolBorrowed = poolBorrowed.add(amount);\n\n        //finally move the USDC\n        IERC20Upgradeable(ERCAddress).transfer(msg.sender, amount);\n\n        //then mint HC_Pool for the servicer (fixed 1% origination is better than standard 2.5%)\n        mintProportionalPoolTokens(servicer, amount.div(100));\n    }\n    \n    /**  \n    *   @dev Function repay repays a specific loan\n    *   - payment is first deducted from the interest then principal. \n    *   - the servicer_fee is deducted from the interest repayment and servicer is compensated in hc_pool\n    *   - repayer must have first approved fromsfers on behalf \n    *   @param loanId The loan to be repayed\n    *   @param amount The amount of the ERC20 token to repay the loan with\n    */\n\n    //todo: return the proptoken when fully repaid\n    function repay(uint256 loanId, uint256 amount) public {        \n        //interestAmountRepayed keeps track of how much of the loan was returned to the pool to calculate servicer fee(treated as cash investment)\n        uint256 interestAmountRepayed = amount;\n\n        uint256 currentInterest = getLoanAccruedInterest(loanId);\n        if(currentInterest > amount) {\n            //if the payment is less than the interest accrued on the loan, just deduct amount from interest\n            //deduct amount FIRST (to make sure they have available balance), then reduce loan amount\n            IERC20Upgradeable(ERCAddress).transferFrom(msg.sender, address(this), amount);\n            loans[loanId].interestAccrued = currentInterest.sub(amount);\n        } else {\n            //if the amount borrow is repaying is greater than interest accrued, deduct the rest from principal\n            interestAmountRepayed = currentInterest;\n            uint256 amountAfterInterest = amount.sub(currentInterest);\n            \n            if(loans[loanId].principal > amountAfterInterest) {\n                //deduct amount from Borrower and reduce the principal\n                IERC20Upgradeable(ERCAddress).transferFrom(msg.sender, address(this), amount);\n                //return the repayed principal to the 'borrowable' amount\n                poolBorrowed = poolBorrowed.sub(amountAfterInterest);\n                loans[loanId].principal = loans[loanId].principal.sub(amountAfterInterest);\n            } else {\n                //deduct totalLoanValue\n                uint256 totalLoanValue = loans[loanId].principal.add(currentInterest);\n                IERC20Upgradeable(ERCAddress).transferFrom(msg.sender, address(this), totalLoanValue);\n                //return the repayed principal to the 'borrowable' amount\n                poolBorrowed = poolBorrowed.sub(loans[loanId].principal);\n                loans[loanId].principal = 0;\n                //Send PropToken back to borrower\n                PropToken0(propTokenContractAddress).safeTransferFrom(address(this), loans[loanId].borrower, loanToPropToken[loanId]);\n            }\n\n            //set interest accrued to 0 AFTER successful erc20 transfer\n            loans[loanId].interestAccrued = 0;\n        }\n\n        //last payment timestamp is only updated AFTER  successful erc20 transfer\n        loans[loanId].timeLastPayment = block.timestamp;\n\n        //treat repayed interest as new money Lent into the pool\n        poolLent = poolLent.add(interestAmountRepayed);\n\n        //servicer fee is treated as cash investment in the pool as the percentage interest\n        //calculate how much of payment goes to servicer here\n        uint256 servicerFeeInERC = servicerFeePercentage.mul(interestAmountRepayed).div(loans[loanId].interestRate);\n        mintProportionalPoolTokens(servicer, servicerFeeInERC);\n    }\n\n\n    /**  \n    *   @dev Function hasUpgradedFunction returns bool depending on if contract has been upgraded or not\n    */\n    function hasUpgradedFunction() public pure returns (bool) {\n        return true;\n    }\n\n    function onERC721Received(address, address, uint256, bytes memory ) public pure override returns (bytes4) {\n        return this.onERC721Received.selector;\n    }\n}",
  "sourcePath": "/Users/patrick/github/HomeDAO/contracts/PoolCore/Pool1.sol",
  "compiler": {
    "name": "solc",
    "version": "0.8.9+commit.e5eed63a.Emscripten.clang"
  },
  "schemaVersion": "3.4.8",
  "updatedAt": "2022-08-10T01:41:49.925Z",
  "devdoc": {
    "kind": "dev",
    "methods": {
      "allowance(address,address)": {
        "details": "See {IERC20-allowance}. Note that operator and allowance concepts are orthogonal: operators may not have allowance, and accounts with allowance may not be operators themselves."
      },
      "approve(address,uint256)": {
        "details": "See {IERC20-approve}. Note that accounts cannot have allowance issued by their operators."
      },
      "authorizeOperator(address)": {
        "details": "See {IERC777-authorizeOperator}."
      },
      "balanceOf(address)": {
        "details": "Returns the amount of tokens owned by an account (`tokenHolder`)."
      },
      "borrow(uint256,uint256,uint256)": {
        "details": "Function borrow creates a new Loan, moves the USDC to Borrower, and returns the loan ID and fixed Interest Rate   - Also creates an origination fee for the Servicer in HC_Pool",
        "params": {
          "amount": "The size of the potential loan in (probably usdc).",
          "maxRate": "The size of the potential loan in (probably usdc).   EDITED in pool1 to also require a PropToken   EDITED in pool1 - borrower param was removed and msg.sender is new recepient of USDC"
        }
      },
      "burn(uint256,bytes)": {
        "details": "See {IERC777-burn}. Also emits a {IERC20-Transfer} event for ERC20 compatibility."
      },
      "decimals()": {
        "details": "See {ERC20-decimals}. Always returns 18, as per the [ERC777 EIP](https://eips.ethereum.org/EIPS/eip-777#backward-compatibility)."
      },
      "defaultOperators()": {
        "details": "See {IERC777-defaultOperators}."
      },
      "getActiveLoans()": {
        "details": "Function getActiveLoans() returns an array of the loans currently out by users",
        "returns": {
          "_0": "array of bools, where the index i is the loan ID and the value bool is active or not"
        }
      },
      "getAllLoans()": {
        "details": "Function getAllLoans() returns an array of the loanIndexes all users have taken out",
        "returns": {
          "_0": "array on loanIds of loans"
        }
      },
      "getContractData()": {
        "details": "Function getContractData() returns a lot of variables about the contract"
      },
      "getInterestRate(uint256)": {
        "details": "Function getInterestRate calculates the new interest rate if a loan was to be taken out in this block",
        "params": {
          "amount": "The size of the potential loan in (probably usdc)."
        },
        "returns": {
          "_0": "interestRate The interest rate in APR for the loan"
        }
      },
      "getLoanAccruedInterest(uint256)": {
        "details": "Function getLoanAccruedInterest() calculates and returns the amount of interest accrued on a given loan",
        "params": {
          "loanId": "is the id for the loan we're looking up"
        }
      },
      "getLoanDetails(uint256)": {
        "details": "Function getLoanDetails() returns an all the raw details about a loan",
        "params": {
          "loanId": "is the id for the loan we're looking up   TODO:EDITED in pool1 to also return PropToken ID"
        }
      },
      "getPoolValueWithInterest()": {
        "details": "Function getPoolValueWithInterest() returns the contract address of ERC20 this pool accepts (ususally USDC)"
      },
      "getServicerAddress()": {
        "details": "Function getServicerAddress() returns the address of this pool's servicer"
      },
      "getSupplyableTokenAddress()": {
        "details": "Function getSupplyableTokenAddress() returns the contract address of ERC20 this pool accepts (ususally USDC)"
      },
      "granularity()": {
        "details": "See {IERC777-granularity}. This implementation always returns `1`."
      },
      "hasUpgradedFunction()": {
        "details": "Function hasUpgradedFunction returns bool depending on if contract has been upgraded or not"
      },
      "initialize(string,string,address,address,address)": {
        "details": "Function initialize replaces constructor in upgradable contracts   - Calls the init function of the inherited ERC777 contract",
        "params": {
          "initName": "Name of this particular ERC777 token",
          "initSymbol": "The ticker this token will go by"
        }
      },
      "isOperatorFor(address,address)": {
        "details": "See {IERC777-isOperatorFor}."
      },
      "lend(uint256)": {
        "details": "Function lend moves assets on the (probably usdc) contract to our own balance   - Before calling: an approve(address _spender (proxy), uint256 _value (0xffff)) function call must be made on remote contract",
        "params": {
          "amount": "The amount to be transferred"
        }
      },
      "name()": {
        "details": "See {IERC777-name}."
      },
      "operatorBurn(address,uint256,bytes,bytes)": {
        "details": "See {IERC777-operatorBurn}. Emits {Burned} and {IERC20-Transfer} events."
      },
      "operatorSend(address,address,uint256,bytes,bytes)": {
        "details": "See {IERC777-operatorSend}. Emits {Sent} and {IERC20-Transfer} events."
      },
      "redeem(uint256)": {
        "details": "Function redeem burns the sender's hcPool tokens and transfers the usdc back to them",
        "params": {
          "amount": "The amount of hc_pool to be redeemed"
        }
      },
      "repay(uint256,uint256)": {
        "details": "Function repay repays a specific loan   - payment is first deducted from the interest then principal.    - the servicer_fee is deducted from the interest repayment and servicer is compensated in hc_pool   - repayer must have first approved fromsfers on behalf ",
        "params": {
          "amount": "The amount of the ERC20 token to repay the loan with",
          "loanId": "The loan to be repayed"
        }
      },
      "revokeOperator(address)": {
        "details": "See {IERC777-revokeOperator}."
      },
      "send(address,uint256,bytes)": {
        "details": "See {IERC777-send}. Also emits a {IERC20-Transfer} event for ERC20 compatibility."
      },
      "setApprovedAddresses(address[])": {
        "details": "Function setApprovedAddresses() updates the array of addresses approved by the servicer",
        "params": {
          "_servicerAddresses": "The array of addresses to be set as approved for borrowing"
        }
      },
      "symbol()": {
        "details": "See {IERC777-symbol}."
      },
      "totalSupply()": {
        "details": "See {IERC777-totalSupply}."
      },
      "transfer(address,uint256)": {
        "details": "See {IERC20-transfer}. Unlike `send`, `recipient` is _not_ required to implement the {IERC777Recipient} interface if it is a contract. Also emits a {Sent} event."
      },
      "transferFrom(address,address,uint256)": {
        "details": "See {IERC20-transferFrom}. Note that operator and allowance concepts are orthogonal: operators cannot call `transferFrom` (unless they have allowance), and accounts with allowance cannot call `operatorSend` (unless they are operators). Emits {Sent}, {IERC20-Transfer} and {IERC20-Approval} events."
      }
    },
    "version": 1
  },
  "userdoc": {
    "kind": "user",
    "methods": {},
    "version": 1
  }
}