{
  "contractName": "Pool0",
  "abi": [
    {
      "anonymous": false,
      "inputs": [
        {
          "indexed": true,
          "internalType": "address",
          "name": "owner",
          "type": "address"
        },
        {
          "indexed": true,
          "internalType": "address",
          "name": "spender",
          "type": "address"
        },
        {
          "indexed": false,
          "internalType": "uint256",
          "name": "value",
          "type": "uint256"
        }
      ],
      "name": "Approval",
      "type": "event"
    },
    {
      "anonymous": false,
      "inputs": [
        {
          "indexed": true,
          "internalType": "address",
          "name": "operator",
          "type": "address"
        },
        {
          "indexed": true,
          "internalType": "address",
          "name": "tokenHolder",
          "type": "address"
        }
      ],
      "name": "AuthorizedOperator",
      "type": "event"
    },
    {
      "anonymous": false,
      "inputs": [
        {
          "indexed": true,
          "internalType": "address",
          "name": "operator",
          "type": "address"
        },
        {
          "indexed": true,
          "internalType": "address",
          "name": "from",
          "type": "address"
        },
        {
          "indexed": false,
          "internalType": "uint256",
          "name": "amount",
          "type": "uint256"
        },
        {
          "indexed": false,
          "internalType": "bytes",
          "name": "data",
          "type": "bytes"
        },
        {
          "indexed": false,
          "internalType": "bytes",
          "name": "operatorData",
          "type": "bytes"
        }
      ],
      "name": "Burned",
      "type": "event"
    },
    {
      "anonymous": false,
      "inputs": [
        {
          "indexed": true,
          "internalType": "address",
          "name": "operator",
          "type": "address"
        },
        {
          "indexed": true,
          "internalType": "address",
          "name": "to",
          "type": "address"
        },
        {
          "indexed": false,
          "internalType": "uint256",
          "name": "amount",
          "type": "uint256"
        },
        {
          "indexed": false,
          "internalType": "bytes",
          "name": "data",
          "type": "bytes"
        },
        {
          "indexed": false,
          "internalType": "bytes",
          "name": "operatorData",
          "type": "bytes"
        }
      ],
      "name": "Minted",
      "type": "event"
    },
    {
      "anonymous": false,
      "inputs": [
        {
          "indexed": true,
          "internalType": "address",
          "name": "operator",
          "type": "address"
        },
        {
          "indexed": true,
          "internalType": "address",
          "name": "tokenHolder",
          "type": "address"
        }
      ],
      "name": "RevokedOperator",
      "type": "event"
    },
    {
      "anonymous": false,
      "inputs": [
        {
          "indexed": true,
          "internalType": "address",
          "name": "operator",
          "type": "address"
        },
        {
          "indexed": true,
          "internalType": "address",
          "name": "from",
          "type": "address"
        },
        {
          "indexed": true,
          "internalType": "address",
          "name": "to",
          "type": "address"
        },
        {
          "indexed": false,
          "internalType": "uint256",
          "name": "amount",
          "type": "uint256"
        },
        {
          "indexed": false,
          "internalType": "bytes",
          "name": "data",
          "type": "bytes"
        },
        {
          "indexed": false,
          "internalType": "bytes",
          "name": "operatorData",
          "type": "bytes"
        }
      ],
      "name": "Sent",
      "type": "event"
    },
    {
      "anonymous": false,
      "inputs": [
        {
          "indexed": true,
          "internalType": "address",
          "name": "from",
          "type": "address"
        },
        {
          "indexed": true,
          "internalType": "address",
          "name": "to",
          "type": "address"
        },
        {
          "indexed": false,
          "internalType": "uint256",
          "name": "value",
          "type": "uint256"
        }
      ],
      "name": "Transfer",
      "type": "event"
    },
    {
      "inputs": [
        {
          "internalType": "address",
          "name": "holder",
          "type": "address"
        },
        {
          "internalType": "address",
          "name": "spender",
          "type": "address"
        }
      ],
      "name": "allowance",
      "outputs": [
        {
          "internalType": "uint256",
          "name": "",
          "type": "uint256"
        }
      ],
      "stateMutability": "view",
      "type": "function",
      "constant": true
    },
    {
      "inputs": [
        {
          "internalType": "address",
          "name": "spender",
          "type": "address"
        },
        {
          "internalType": "uint256",
          "name": "value",
          "type": "uint256"
        }
      ],
      "name": "approve",
      "outputs": [
        {
          "internalType": "bool",
          "name": "",
          "type": "bool"
        }
      ],
      "stateMutability": "nonpayable",
      "type": "function"
    },
    {
      "inputs": [
        {
          "internalType": "address",
          "name": "operator",
          "type": "address"
        }
      ],
      "name": "authorizeOperator",
      "outputs": [],
      "stateMutability": "nonpayable",
      "type": "function"
    },
    {
      "inputs": [
        {
          "internalType": "address",
          "name": "tokenHolder",
          "type": "address"
        }
      ],
      "name": "balanceOf",
      "outputs": [
        {
          "internalType": "uint256",
          "name": "",
          "type": "uint256"
        }
      ],
      "stateMutability": "view",
      "type": "function",
      "constant": true
    },
    {
      "inputs": [
        {
          "internalType": "uint256",
          "name": "amount",
          "type": "uint256"
        },
        {
          "internalType": "bytes",
          "name": "data",
          "type": "bytes"
        }
      ],
      "name": "burn",
      "outputs": [],
      "stateMutability": "nonpayable",
      "type": "function"
    },
    {
      "inputs": [],
      "name": "decimals",
      "outputs": [
        {
          "internalType": "uint8",
          "name": "",
          "type": "uint8"
        }
      ],
      "stateMutability": "pure",
      "type": "function",
      "constant": true
    },
    {
      "inputs": [],
      "name": "defaultOperators",
      "outputs": [
        {
          "internalType": "address[]",
          "name": "",
          "type": "address[]"
        }
      ],
      "stateMutability": "view",
      "type": "function",
      "constant": true
    },
    {
      "inputs": [],
      "name": "granularity",
      "outputs": [
        {
          "internalType": "uint256",
          "name": "",
          "type": "uint256"
        }
      ],
      "stateMutability": "view",
      "type": "function",
      "constant": true
    },
    {
      "inputs": [
        {
          "internalType": "address",
          "name": "operator",
          "type": "address"
        },
        {
          "internalType": "address",
          "name": "tokenHolder",
          "type": "address"
        }
      ],
      "name": "isOperatorFor",
      "outputs": [
        {
          "internalType": "bool",
          "name": "",
          "type": "bool"
        }
      ],
      "stateMutability": "view",
      "type": "function",
      "constant": true
    },
    {
      "inputs": [],
      "name": "name",
      "outputs": [
        {
          "internalType": "string",
          "name": "",
          "type": "string"
        }
      ],
      "stateMutability": "view",
      "type": "function",
      "constant": true
    },
    {
      "inputs": [
        {
          "internalType": "address",
          "name": "account",
          "type": "address"
        },
        {
          "internalType": "uint256",
          "name": "amount",
          "type": "uint256"
        },
        {
          "internalType": "bytes",
          "name": "data",
          "type": "bytes"
        },
        {
          "internalType": "bytes",
          "name": "operatorData",
          "type": "bytes"
        }
      ],
      "name": "operatorBurn",
      "outputs": [],
      "stateMutability": "nonpayable",
      "type": "function"
    },
    {
      "inputs": [
        {
          "internalType": "address",
          "name": "sender",
          "type": "address"
        },
        {
          "internalType": "address",
          "name": "recipient",
          "type": "address"
        },
        {
          "internalType": "uint256",
          "name": "amount",
          "type": "uint256"
        },
        {
          "internalType": "bytes",
          "name": "data",
          "type": "bytes"
        },
        {
          "internalType": "bytes",
          "name": "operatorData",
          "type": "bytes"
        }
      ],
      "name": "operatorSend",
      "outputs": [],
      "stateMutability": "nonpayable",
      "type": "function"
    },
    {
      "inputs": [
        {
          "internalType": "address",
          "name": "operator",
          "type": "address"
        }
      ],
      "name": "revokeOperator",
      "outputs": [],
      "stateMutability": "nonpayable",
      "type": "function"
    },
    {
      "inputs": [
        {
          "internalType": "address",
          "name": "recipient",
          "type": "address"
        },
        {
          "internalType": "uint256",
          "name": "amount",
          "type": "uint256"
        },
        {
          "internalType": "bytes",
          "name": "data",
          "type": "bytes"
        }
      ],
      "name": "send",
      "outputs": [],
      "stateMutability": "nonpayable",
      "type": "function"
    },
    {
      "inputs": [],
      "name": "symbol",
      "outputs": [
        {
          "internalType": "string",
          "name": "",
          "type": "string"
        }
      ],
      "stateMutability": "view",
      "type": "function",
      "constant": true
    },
    {
      "inputs": [],
      "name": "totalSupply",
      "outputs": [
        {
          "internalType": "uint256",
          "name": "",
          "type": "uint256"
        }
      ],
      "stateMutability": "view",
      "type": "function",
      "constant": true
    },
    {
      "inputs": [
        {
          "internalType": "address",
          "name": "recipient",
          "type": "address"
        },
        {
          "internalType": "uint256",
          "name": "amount",
          "type": "uint256"
        }
      ],
      "name": "transfer",
      "outputs": [
        {
          "internalType": "bool",
          "name": "",
          "type": "bool"
        }
      ],
      "stateMutability": "nonpayable",
      "type": "function"
    },
    {
      "inputs": [
        {
          "internalType": "address",
          "name": "holder",
          "type": "address"
        },
        {
          "internalType": "address",
          "name": "recipient",
          "type": "address"
        },
        {
          "internalType": "uint256",
          "name": "amount",
          "type": "uint256"
        }
      ],
      "name": "transferFrom",
      "outputs": [
        {
          "internalType": "bool",
          "name": "",
          "type": "bool"
        }
      ],
      "stateMutability": "nonpayable",
      "type": "function"
    },
    {
      "inputs": [
        {
          "internalType": "string",
          "name": "name",
          "type": "string"
        },
        {
          "internalType": "string",
          "name": "symbol",
          "type": "string"
        },
        {
          "internalType": "address",
          "name": "_ERCAddress",
          "type": "address"
        },
        {
          "internalType": "address",
          "name": "_servicer",
          "type": "address"
        },
        {
          "internalType": "address",
          "name": "approvedServicer",
          "type": "address"
        }
      ],
      "name": "initialize",
      "outputs": [],
      "stateMutability": "nonpayable",
      "type": "function"
    },
    {
      "inputs": [
        {
          "internalType": "address[]",
          "name": "_servicerAddresses",
          "type": "address[]"
        }
      ],
      "name": "setApprovedAddresses",
      "outputs": [],
      "stateMutability": "nonpayable",
      "type": "function"
    },
    {
      "inputs": [],
      "name": "getContractData",
      "outputs": [
        {
          "internalType": "address",
          "name": "",
          "type": "address"
        },
        {
          "internalType": "address",
          "name": "",
          "type": "address"
        },
        {
          "internalType": "uint256",
          "name": "",
          "type": "uint256"
        },
        {
          "internalType": "uint256",
          "name": "",
          "type": "uint256"
        },
        {
          "internalType": "uint256",
          "name": "",
          "type": "uint256"
        }
      ],
      "stateMutability": "view",
      "type": "function",
      "constant": true
    },
    {
      "inputs": [],
      "name": "getPoolValueWithInterest",
      "outputs": [
        {
          "internalType": "uint256",
          "name": "",
          "type": "uint256"
        }
      ],
      "stateMutability": "view",
      "type": "function",
      "constant": true
    },
    {
      "inputs": [],
      "name": "getPoolBorrowed",
      "outputs": [
        {
          "internalType": "uint256",
          "name": "",
          "type": "uint256"
        }
      ],
      "stateMutability": "view",
      "type": "function",
      "constant": true
    },
    {
      "inputs": [],
      "name": "getSupplyableTokenAddress",
      "outputs": [
        {
          "internalType": "address",
          "name": "",
          "type": "address"
        }
      ],
      "stateMutability": "view",
      "type": "function",
      "constant": true
    },
    {
      "inputs": [],
      "name": "getServicerAddress",
      "outputs": [
        {
          "internalType": "address",
          "name": "",
          "type": "address"
        }
      ],
      "stateMutability": "view",
      "type": "function",
      "constant": true
    },
    {
      "inputs": [
        {
          "internalType": "address",
          "name": "user",
          "type": "address"
        }
      ],
      "name": "getUserLoans",
      "outputs": [
        {
          "internalType": "uint256[]",
          "name": "",
          "type": "uint256[]"
        }
      ],
      "stateMutability": "view",
      "type": "function",
      "constant": true
    },
    {
      "inputs": [],
      "name": "getAllLoans",
      "outputs": [
        {
          "internalType": "uint256[]",
          "name": "",
          "type": "uint256[]"
        }
      ],
      "stateMutability": "view",
      "type": "function",
      "constant": true
    },
    {
      "inputs": [],
      "name": "getActiveLoans",
      "outputs": [
        {
          "internalType": "bool[]",
          "name": "",
          "type": "bool[]"
        }
      ],
      "stateMutability": "view",
      "type": "function",
      "constant": true
    },
    {
      "inputs": [
        {
          "internalType": "uint256",
          "name": "loanId",
          "type": "uint256"
        }
      ],
      "name": "getLoanAccruedInterest",
      "outputs": [
        {
          "internalType": "uint256",
          "name": "",
          "type": "uint256"
        }
      ],
      "stateMutability": "view",
      "type": "function",
      "constant": true
    },
    {
      "inputs": [
        {
          "internalType": "uint256",
          "name": "loanId",
          "type": "uint256"
        }
      ],
      "name": "getLoanDetails",
      "outputs": [
        {
          "internalType": "uint256",
          "name": "",
          "type": "uint256"
        },
        {
          "internalType": "address",
          "name": "",
          "type": "address"
        },
        {
          "internalType": "uint256",
          "name": "",
          "type": "uint256"
        },
        {
          "internalType": "uint256",
          "name": "",
          "type": "uint256"
        },
        {
          "internalType": "uint256",
          "name": "",
          "type": "uint256"
        },
        {
          "internalType": "uint256",
          "name": "",
          "type": "uint256"
        }
      ],
      "stateMutability": "view",
      "type": "function",
      "constant": true
    },
    {
      "inputs": [],
      "name": "getAverageInterest",
      "outputs": [
        {
          "internalType": "uint256",
          "name": "",
          "type": "uint256"
        }
      ],
      "stateMutability": "view",
      "type": "function",
      "constant": true
    },
    {
      "inputs": [
        {
          "internalType": "uint256",
          "name": "amount",
          "type": "uint256"
        }
      ],
      "name": "lend",
      "outputs": [],
      "stateMutability": "nonpayable",
      "type": "function"
    },
    {
      "inputs": [
        {
          "internalType": "uint256",
          "name": "amount",
          "type": "uint256"
        }
      ],
      "name": "redeem",
      "outputs": [],
      "stateMutability": "nonpayable",
      "type": "function"
    },
    {
      "inputs": [
        {
          "internalType": "uint256",
          "name": "amount",
          "type": "uint256"
        }
      ],
      "name": "getInterestRate",
      "outputs": [
        {
          "internalType": "int256",
          "name": "",
          "type": "int256"
        }
      ],
      "stateMutability": "view",
      "type": "function",
      "constant": true
    },
    {
      "inputs": [
        {
          "internalType": "uint256",
          "name": "amount",
          "type": "uint256"
        },
        {
          "internalType": "address",
          "name": "borrower",
          "type": "address"
        },
        {
          "internalType": "uint256",
          "name": "maxRate",
          "type": "uint256"
        }
      ],
      "name": "borrow",
      "outputs": [],
      "stateMutability": "nonpayable",
      "type": "function"
    },
    {
      "inputs": [
        {
          "internalType": "uint256",
          "name": "loanId",
          "type": "uint256"
        },
        {
          "internalType": "uint256",
          "name": "amount",
          "type": "uint256"
        }
      ],
      "name": "repay",
      "outputs": [],
      "stateMutability": "nonpayable",
      "type": "function"
    },
    {
      "inputs": [],
      "name": "hasUpgradedFunction",
      "outputs": [
        {
          "internalType": "bool",
          "name": "",
          "type": "bool"
        }
      ],
      "stateMutability": "pure",
      "type": "function",
      "constant": true
    }
  ],
  "bytecode": "0x608060405234801561001057600080fd5b50615dd680620000216000396000f3fe608060405234801561001057600080fd5b50600436106102275760003560e01c8063959b8c3f11610130578063b3da1bcb116100b8578063db0ed6a01161007c578063db0ed6a014610687578063dd62ed3e146106a3578063fad8b32a146106d3578063fc673c4f146106ef578063fe9d93031461070b57610227565b8063b3da1bcb146105e3578063c4ec9bbc14610601578063d8aed1451461061f578063d95b63711461063b578063db006a751461066b57610227565b8063a236dd69116100ff578063a236dd6914610539578063a5bfd16a14610557578063a68b91ab14610575578063a6aa57ce14610597578063a9059cbb146105b357610227565b8063959b8c3f146104b357806395d89b41146104cf5780639a5872f4146104ed5780639bd9bbc61461051d57610227565b80632f5e5d95116101b357806362ad1b831161018257806362ad1b83146103f857806366877b8d1461041457806370a08231146104495780637e174eb41461047957806390b53e141461049557610227565b80632f5e5d9514610380578063313ce5671461039e57806339755466146103bc578063556f0dc7146103da57610227565b80630c196a74116101fa5780630c196a74146102c85780630c28d13e146102f8578063121ed2a71461031457806318160ddd1461033257806323b872dd1461035057610227565b806302bf321f1461022c57806306e485381461025c57806306fdde031461027a578063095ea7b314610298575b600080fd5b6102466004803603810190610241919061436b565b610727565b60405161025391906152b4565b60405180910390f35b6102646107be565b6040516102719190615270565b60405180910390f35b61028261084c565b60405161028f919061530c565b60405180910390f35b6102b260048036038101906102ad91906144ef565b6108de565b6040516102bf91906152d6565b60405180910390f35b6102e260048036038101906102dd9190614736565b610901565b6040516102ef91906152f1565b60405180910390f35b610312600480360381019061030d919061475f565b610a23565b005b61031c610cd5565b6040516103299190615292565b60405180910390f35b61033a610e6d565b604051610347919061552e565b60405180910390f35b61036a600480360381019061036591906143f9565b610e77565b60405161037791906152d6565b60405180910390f35b6103886110d1565b60405161039591906150d3565b60405180910390f35b6103a66110fb565b6040516103b391906155ef565b60405180910390f35b6103c4611104565b6040516103d1919061552e565b60405180910390f35b6103e26112bb565b6040516103ef919061552e565b60405180910390f35b610412600480360381019061040d9190614448565b6112c4565b005b61042e60048036038101906104299190614736565b61132a565b60405161044096959493929190615549565b60405180910390f35b610463600480360381019061045e919061436b565b611450565b604051610470919061552e565b60405180910390f35b610493600480360381019061048e9190614625565b611499565b005b61049d61150d565b6040516104aa91906150d3565b60405180910390f35b6104cd60048036038101906104c8919061436b565b611537565b005b6104d7611798565b6040516104e4919061530c565b60405180910390f35b61050760048036038101906105029190614736565b61182a565b604051610514919061552e565b60405180910390f35b6105376004803603810190610532919061452b565b6119a8565b005b6105416119d2565b60405161054e91906152d6565b60405180910390f35b61055f6119db565b60405161056c91906152b4565b60405180910390f35b61057d611b11565b60405161058e959493929190615194565b60405180910390f35b6105b160048036038101906105ac9190614736565b611b7e565b005b6105cd60048036038101906105c891906144ef565b611c58565b6040516105da91906152d6565b60405180910390f35b6105eb611d66565b6040516105f8919061552e565b60405180910390f35b610609611db6565b604051610616919061552e565b60405180910390f35b61063960048036038101906106349190614802565b611dc0565b005b610655600480360381019061065091906143bd565b612414565b60405161066291906152d6565b60405180910390f35b61068560048036038101906106809190614736565b6125c5565b005b6106a1600480360381019061069c919061468f565b612756565b005b6106bd60048036038101906106b891906143bd565b61293f565b6040516106ca919061552e565b60405180910390f35b6106ed60048036038101906106e8919061436b565b6129c6565b005b61070960048036038101906107049190614592565b612c27565b005b610725600480360381019061072091906147ae565b612c89565b005b6060606a60008373ffffffffffffffffffffffffffffffffffffffff1673ffffffffffffffffffffffffffffffffffffffff1681526020019081526020016000208054806020026020016040519081016040528092919081815260200182805480156107b257602002820191906000526020600020905b81548152602001906001019080831161079e575b50505050509050919050565b6060603780548060200260200160405190810160405280929190818152602001828054801561084257602002820191906000526020600020905b8160009054906101000a900473ffffffffffffffffffffffffffffffffffffffff1673ffffffffffffffffffffffffffffffffffffffff16815260200190600101908083116107f8575b5050505050905090565b60606035805461085b90615c13565b80601f016020809104026020016040519081016040528092919081815260200182805461088790615c13565b80156108d45780601f106108a9576101008083540402835291602001916108d4565b820191906000526020600020905b8154815290600101906020018083116108b757829003601f168201915b5050505050905090565b6000806108e9612caf565b90506108f6818585612cb7565b600191505092915050565b60006069546068546109139190615b34565b821061091e57600080fd5b600061095f6068546109516305f5e10061094387606954612e8290919063ffffffff16565b612e9890919063ffffffff16565b612eae90919063ffffffff16565b9050600061097a630bebc20083612ec490919063ffffffff16565b905060006109956305f5e10084612ec490919063ffffffff16565b905060006109c1826109b3620f424086612e9890919063ffffffff16565b612eae90919063ffffffff16565b9050610a156000610a07620f42406109f96109ea6064630bebc200612eae90919063ffffffff16565b86612ec490919063ffffffff16565b612e8290919063ffffffff16565b612e8290919063ffffffff16565b905080945050505050919050565b610a2c33612eda565b610a3557600080fd5b6000610a4084610901565b905081811115610a4f57600080fd5b60006040518060c00160405280606c5481526020018573ffffffffffffffffffffffffffffffffffffffff16815260200183815260200186815260200160008152602001428152509050606b8190806001815401808255809150506001900390600052602060002090600602016000909190919091506000820151816000015560208201518160010160006101000a81548173ffffffffffffffffffffffffffffffffffffffff021916908373ffffffffffffffffffffffffffffffffffffffff16021790555060408201518160020155606082015181600301556080820151816004015560a082015181600501555050606a60008573ffffffffffffffffffffffffffffffffffffffff1673ffffffffffffffffffffffffffffffffffffffff168152602001908152602001600020606c549080600181540180825580915050600190039060005260206000200160009091909190915055610bbe6001606c54612fab90919063ffffffff16565b606c81905550610bd985606954612fab90919063ffffffff16565b606981905550606660009054906101000a900473ffffffffffffffffffffffffffffffffffffffff1673ffffffffffffffffffffffffffffffffffffffff1663a9059cbb85876040518363ffffffff1660e01b8152600401610c3c929190615247565b602060405180830381600087803b158015610c5657600080fd5b505af1158015610c6a573d6000803e3d6000fd5b505050506040513d601f19601f82011682018060405250810190610c8e9190614666565b50610cce606560009054906101000a900473ffffffffffffffffffffffffffffffffffffffff16610cc9606488612fc190919063ffffffff16565b612fd7565b5050505050565b60606000606b8054905067ffffffffffffffff811115610d1e577f4e487b7100000000000000000000000000000000000000000000000000000000600052604160045260246000fd5b604051908082528060200260200182016040528015610d4c5781602001602082028036833780820191505090505b50905060005b606b80549050811015610e65576000606b8281548110610d9b577f4e487b7100000000000000000000000000000000000000000000000000000000600052603260045260246000fd5b90600052602060002090600602016003015414610e04576001828281518110610ded577f4e487b7100000000000000000000000000000000000000000000000000000000600052603260045260246000fd5b602002602001019015159081151581525050610e52565b6000828281518110610e3f577f4e487b7100000000000000000000000000000000000000000000000000000000600052603260045260246000fd5b6020026020010190151590811515815250505b8080610e5d90615c45565b915050610d52565b508091505090565b6000603454905090565b60008073ffffffffffffffffffffffffffffffffffffffff168373ffffffffffffffffffffffffffffffffffffffff161415610ee8576040517f08c379a0000000000000000000000000000000000000000000000000000000008152600401610edf9061544e565b60405180910390fd5b600073ffffffffffffffffffffffffffffffffffffffff168473ffffffffffffffffffffffffffffffffffffffff161415610f58576040517f08c379a0000000000000000000000000000000000000000000000000000000008152600401610f4f906154ae565b60405180910390fd5b6000610f62612caf565b9050610f9081868686604051806020016040528060008152506040518060200160405280600081525061307c565b610fbc8186868660405180602001604052806000815250604051806020016040528060008152506131f2565b6000603b60008773ffffffffffffffffffffffffffffffffffffffff1673ffffffffffffffffffffffffffffffffffffffff16815260200190815260200160002060008373ffffffffffffffffffffffffffffffffffffffff1673ffffffffffffffffffffffffffffffffffffffff16815260200190815260200160002054905083811015611080576040517f08c379a00000000000000000000000000000000000000000000000000000000081526004016110779061548e565b60405180910390fd5b611096868386846110919190615b34565b612cb7565b6110c4828787876040518060200160405280600081525060405180602001604052806000815250600061340f565b6001925050509392505050565b6000606660009054906101000a900473ffffffffffffffffffffffffffffffffffffffff16905090565b60006012905090565b600080600090506000805b606b805490508110156112a0576000606b8281548110611158577f4e487b7100000000000000000000000000000000000000000000000000000000600052603260045260246000fd5b9060005260206000209060060201600301541461128d5761122a61121b606b83815481106111af577f4e487b7100000000000000000000000000000000000000000000000000000000600052603260045260246000fd5b906000526020600020906006020160030154606b84815481106111fb577f4e487b7100000000000000000000000000000000000000000000000000000000600052603260045260246000fd5b9060005260206000209060060201600201546135f090919063ffffffff16565b84612fab90919063ffffffff16565b925061128a606b8281548110611269577f4e487b7100000000000000000000000000000000000000000000000000000000600052603260045260246000fd5b90600052602060002090600602016003015483612fab90919063ffffffff16565b91505b808061129890615c45565b91505061110f565b506112b48183612fc190919063ffffffff16565b9250505090565b60006001905090565b6112d56112cf612caf565b86612414565b611314576040517f08c379a000000000000000000000000000000000000000000000000000000000815260040161130b9061546e565b60405180910390fd5b61132385858585856001613606565b5050505050565b6000806000806000806000606b888154811061136f577f4e487b7100000000000000000000000000000000000000000000000000000000600052603260045260246000fd5b90600052602060002090600602016040518060c0016040529081600082015481526020016001820160009054906101000a900473ffffffffffffffffffffffffffffffffffffffff1673ffffffffffffffffffffffffffffffffffffffff1673ffffffffffffffffffffffffffffffffffffffff1681526020016002820154815260200160038201548152602001600482015481526020016005820154815250509050600061141d8961182a565b90508160000151826020015183604001518460600151848660a00151975097509750975097509750505091939550919395565b6000603360008373ffffffffffffffffffffffffffffffffffffffff1673ffffffffffffffffffffffffffffffffffffffff168152602001908152602001600020549050919050565b606560009054906101000a900473ffffffffffffffffffffffffffffffffffffffff1673ffffffffffffffffffffffffffffffffffffffff163373ffffffffffffffffffffffffffffffffffffffff16146114f357600080fd5b8060679080519060200190611509929190614084565b5050565b6000606560009054906101000a900473ffffffffffffffffffffffffffffffffffffffff16905090565b8073ffffffffffffffffffffffffffffffffffffffff16611556612caf565b73ffffffffffffffffffffffffffffffffffffffff1614156115ad576040517f08c379a00000000000000000000000000000000000000000000000000000000081526004016115a4906153ae565b60405180910390fd5b603860008273ffffffffffffffffffffffffffffffffffffffff1673ffffffffffffffffffffffffffffffffffffffff16815260200190815260200160002060009054906101000a900460ff161561169757603a600061160b612caf565b73ffffffffffffffffffffffffffffffffffffffff1673ffffffffffffffffffffffffffffffffffffffff16815260200190815260200160002060008273ffffffffffffffffffffffffffffffffffffffff1673ffffffffffffffffffffffffffffffffffffffff16815260200190815260200160002060006101000a81549060ff0219169055611734565b6001603960006116a5612caf565b73ffffffffffffffffffffffffffffffffffffffff1673ffffffffffffffffffffffffffffffffffffffff16815260200190815260200160002060008373ffffffffffffffffffffffffffffffffffffffff1673ffffffffffffffffffffffffffffffffffffffff16815260200190815260200160002060006101000a81548160ff0219169083151502179055505b61173c612caf565b73ffffffffffffffffffffffffffffffffffffffff168173ffffffffffffffffffffffffffffffffffffffff167ff4caeb2d6ca8932a215a353d0703c326ec2d81fc68170f320eb2ab49e9df61f960405160405180910390a350565b6060603680546117a790615c13565b80601f01602080910402602001604051908101604052809291908181526020018280546117d390615c13565b80156118205780601f106117f557610100808354040283529160200191611820565b820191906000526020600020905b81548152906001019060200180831161180357829003601f168201915b5050505050905090565b600080606b8381548110611867577f4e487b7100000000000000000000000000000000000000000000000000000000600052603260045260246000fd5b90600052602060002090600602016040518060c0016040529081600082015481526020016001820160009054906101000a900473ffffffffffffffffffffffffffffffffffffffff1673ffffffffffffffffffffffffffffffffffffffff1673ffffffffffffffffffffffffffffffffffffffff168152602001600282015481526020016003820154815260200160048201548152602001600582015481525050905060006119238260a001514261372690919063ffffffff16565b9050600061196d6301e2850061195f620f4240611951876040015188606001516135f090919063ffffffff16565b612fc190919063ffffffff16565b612fc190919063ffffffff16565b9050600061198483836135f090919063ffffffff16565b905061199d846080015182612fab90919063ffffffff16565b945050505050919050565b6119cd6119b3612caf565b848484604051806020016040528060008152506001613606565b505050565b60006001905090565b60606000606b8054905067ffffffffffffffff811115611a24577f4e487b7100000000000000000000000000000000000000000000000000000000600052604160045260246000fd5b604051908082528060200260200182016040528015611a525781602001602082028036833780820191505090505b50905060005b606b80549050811015611b0957606b8181548110611a9f577f4e487b7100000000000000000000000000000000000000000000000000000000600052603260045260246000fd5b906000526020600020906006020160000154828281518110611aea577f4e487b7100000000000000000000000000000000000000000000000000000000600052603260045260246000fd5b6020026020010181815250508080611b0190615c45565b915050611a58565b508091505090565b6000806000806000606560009054906101000a900473ffffffffffffffffffffffffffffffffffffffff16606660009054906101000a900473ffffffffffffffffffffffffffffffffffffffff16606854611b6a611d66565b606954945094509450945094509091929394565b606660009054906101000a900473ffffffffffffffffffffffffffffffffffffffff1673ffffffffffffffffffffffffffffffffffffffff166323b872dd3330846040518463ffffffff1660e01b8152600401611bdd9392919061515d565b602060405180830381600087803b158015611bf757600080fd5b505af1158015611c0b573d6000803e3d6000fd5b505050506040513d601f19601f82011682018060405250810190611c2f9190614666565b50611c3a3382612fd7565b611c4f81606854612fab90919063ffffffff16565b60688190555050565b60008073ffffffffffffffffffffffffffffffffffffffff168373ffffffffffffffffffffffffffffffffffffffff161415611cc9576040517f08c379a0000000000000000000000000000000000000000000000000000000008152600401611cc09061544e565b60405180910390fd5b6000611cd3612caf565b9050611d0181828686604051806020016040528060008152506040518060200160405280600081525061307c565b611d2d8182868660405180602001604052806000815250604051806020016040528060008152506131f2565b611d5b818286866040518060200160405280600081525060405180602001604052806000815250600061340f565b600191505092915050565b600080606854905060005b606b80549050811015611dae57611d99611d8a8261182a565b83612fab90919063ffffffff16565b91508080611da690615c45565b915050611d71565b508091505090565b6000606954905090565b60008190506000611dd08461182a565b905082811115611ef357606660009054906101000a900473ffffffffffffffffffffffffffffffffffffffff1673ffffffffffffffffffffffffffffffffffffffff166323b872dd3330866040518463ffffffff1660e01b8152600401611e399392919061515d565b602060405180830381600087803b158015611e5357600080fd5b505af1158015611e67573d6000803e3d6000fd5b505050506040513d601f19601f82011682018060405250810190611e8b9190614666565b50611e9f838261372690919063ffffffff16565b606b8581548110611ed9577f4e487b7100000000000000000000000000000000000000000000000000000000600052603260045260246000fd5b9060005260206000209060060201600401819055506122ff565b8091506000611f0b828561372690919063ffffffff16565b905080606b8681548110611f48577f4e487b7100000000000000000000000000000000000000000000000000000000600052603260045260246000fd5b90600052602060002090600602016003015411156120df57606660009054906101000a900473ffffffffffffffffffffffffffffffffffffffff1673ffffffffffffffffffffffffffffffffffffffff166323b872dd3330876040518463ffffffff1660e01b8152600401611fbf9392919061515d565b602060405180830381600087803b158015611fd957600080fd5b505af1158015611fed573d6000803e3d6000fd5b505050506040513d601f19601f820116820180604052508101906120119190614666565b506120278160695461372690919063ffffffff16565b60698190555061208b81606b878154811061206b577f4e487b7100000000000000000000000000000000000000000000000000000000600052603260045260246000fd5b90600052602060002090600602016003015461372690919063ffffffff16565b606b86815481106120c5577f4e487b7100000000000000000000000000000000000000000000000000000000600052603260045260246000fd5b9060005260206000209060060201600301819055506122ac565b600061213f83606b888154811061211f577f4e487b7100000000000000000000000000000000000000000000000000000000600052603260045260246000fd5b906000526020600020906006020160030154612fab90919063ffffffff16565b9050606660009054906101000a900473ffffffffffffffffffffffffffffffffffffffff1673ffffffffffffffffffffffffffffffffffffffff166323b872dd3330846040518463ffffffff1660e01b81526004016121a09392919061515d565b602060405180830381600087803b1580156121ba57600080fd5b505af11580156121ce573d6000803e3d6000fd5b505050506040513d601f19601f820116820180604052508101906121f29190614666565b50612253606b8781548110612230577f4e487b7100000000000000000000000000000000000000000000000000000000600052603260045260246000fd5b90600052602060002090600602016003015460695461372690919063ffffffff16565b6069819055506000606b8781548110612295577f4e487b7100000000000000000000000000000000000000000000000000000000600052603260045260246000fd5b906000526020600020906006020160030181905550505b6000606b86815481106122e8577f4e487b7100000000000000000000000000000000000000000000000000000000600052603260045260246000fd5b906000526020600020906006020160040181905550505b42606b858154811061233a577f4e487b7100000000000000000000000000000000000000000000000000000000600052603260045260246000fd5b90600052602060002090600602016005018190555061236482606854612fab90919063ffffffff16565b60688190555060006123df606b86815481106123a9577f4e487b7100000000000000000000000000000000000000000000000000000000600052603260045260246000fd5b9060005260206000209060060201600201546123d185620f42406135f090919063ffffffff16565b612fc190919063ffffffff16565b905061240d606560009054906101000a900473ffffffffffffffffffffffffffffffffffffffff1682612fd7565b5050505050565b60008173ffffffffffffffffffffffffffffffffffffffff168373ffffffffffffffffffffffffffffffffffffffff16148061252c5750603860008473ffffffffffffffffffffffffffffffffffffffff1673ffffffffffffffffffffffffffffffffffffffff16815260200190815260200160002060009054906101000a900460ff16801561252b5750603a60008373ffffffffffffffffffffffffffffffffffffffff1673ffffffffffffffffffffffffffffffffffffffff16815260200190815260200160002060008473ffffffffffffffffffffffffffffffffffffffff1673ffffffffffffffffffffffffffffffffffffffff16815260200190815260200160002060009054906101000a900460ff16155b5b806125bd5750603960008373ffffffffffffffffffffffffffffffffffffffff1673ffffffffffffffffffffffffffffffffffffffff16815260200190815260200160002060008473ffffffffffffffffffffffffffffffffffffffff1673ffffffffffffffffffffffffffffffffffffffff16815260200190815260200160002060009054906101000a900460ff165b905092915050565b806125cf33611450565b10156125da57600080fd5b60006126126125e7610e6d565b612604620f42406125f6611d66565b6135f090919063ffffffff16565b612fc190919063ffffffff16565b9050600061263e620f424061263084866135f090919063ffffffff16565b612fc190919063ffffffff16565b90506069546068546126509190615b34565b81111561265c57600080fd5b6126863384604051806020016040528060008152506040518060200160405280600081525061373c565b61269b8160685461372690919063ffffffff16565b606881905550606660009054906101000a900473ffffffffffffffffffffffffffffffffffffffff1673ffffffffffffffffffffffffffffffffffffffff1663a9059cbb33836040518363ffffffff1660e01b81526004016126fe929190615247565b602060405180830381600087803b15801561271857600080fd5b505af115801561272c573d6000803e3d6000fd5b505050506040513d601f19601f820116820180604052508101906127509190614666565b50505050565b600060019054906101000a900460ff168061277c575060008054906101000a900460ff16155b6127bb576040517f08c379a00000000000000000000000000000000000000000000000000000000081526004016127b2906153ee565b60405180910390fd5b60008060019054906101000a900460ff16159050801561280b576001600060016101000a81548160ff02191690831515021790555060016000806101000a81548160ff0219169083151502179055505b606084606660006101000a81548173ffffffffffffffffffffffffffffffffffffffff021916908373ffffffffffffffffffffffffffffffffffffffff16021790555083606560006101000a81548173ffffffffffffffffffffffffffffffffffffffff021916908373ffffffffffffffffffffffffffffffffffffffff1602179055506067839080600181540180825580915050600190039060005260206000200160009091909190916101000a81548173ffffffffffffffffffffffffffffffffffffffff021916908373ffffffffffffffffffffffffffffffffffffffff1602179055506128fd878783613991565b600060688190555060006069819055506000606c819055505080156129375760008060016101000a81548160ff0219169083151502179055505b505050505050565b6000603b60008473ffffffffffffffffffffffffffffffffffffffff1673ffffffffffffffffffffffffffffffffffffffff16815260200190815260200160002060008373ffffffffffffffffffffffffffffffffffffffff1673ffffffffffffffffffffffffffffffffffffffff16815260200190815260200160002054905092915050565b6129ce612caf565b73ffffffffffffffffffffffffffffffffffffffff168173ffffffffffffffffffffffffffffffffffffffff161415612a3c576040517f08c379a0000000000000000000000000000000000000000000000000000000008152600401612a33906153ce565b60405180910390fd5b603860008273ffffffffffffffffffffffffffffffffffffffff1673ffffffffffffffffffffffffffffffffffffffff16815260200190815260200160002060009054906101000a900460ff1615612b2f576001603a6000612a9c612caf565b73ffffffffffffffffffffffffffffffffffffffff1673ffffffffffffffffffffffffffffffffffffffff16815260200190815260200160002060008373ffffffffffffffffffffffffffffffffffffffff1673ffffffffffffffffffffffffffffffffffffffff16815260200190815260200160002060006101000a81548160ff021916908315150217905550612bc3565b60396000612b3b612caf565b73ffffffffffffffffffffffffffffffffffffffff1673ffffffffffffffffffffffffffffffffffffffff16815260200190815260200160002060008273ffffffffffffffffffffffffffffffffffffffff1673ffffffffffffffffffffffffffffffffffffffff16815260200190815260200160002060006101000a81549060ff02191690555b612bcb612caf565b73ffffffffffffffffffffffffffffffffffffffff168173ffffffffffffffffffffffffffffffffffffffff167f50546e66e5f44d728365dc3908c63bc5cfeeab470722c1677e3073a6ac294aa160405160405180910390a350565b612c38612c32612caf565b85612414565b612c77576040517f08c379a0000000000000000000000000000000000000000000000000000000008152600401612c6e9061546e565b60405180910390fd5b612c838484848461373c565b50505050565b612cab612c94612caf565b83836040518060200160405280600081525061373c565b5050565b600033905090565b600073ffffffffffffffffffffffffffffffffffffffff168373ffffffffffffffffffffffffffffffffffffffff161415612d27576040517f08c379a0000000000000000000000000000000000000000000000000000000008152600401612d1e9061532e565b60405180910390fd5b600073ffffffffffffffffffffffffffffffffffffffff168273ffffffffffffffffffffffffffffffffffffffff161415612d97576040517f08c379a0000000000000000000000000000000000000000000000000000000008152600401612d8e9061550e565b60405180910390fd5b80603b60008573ffffffffffffffffffffffffffffffffffffffff1673ffffffffffffffffffffffffffffffffffffffff16815260200190815260200160002060008473ffffffffffffffffffffffffffffffffffffffff1673ffffffffffffffffffffffffffffffffffffffff168152602001908152602001600020819055508173ffffffffffffffffffffffffffffffffffffffff168373ffffffffffffffffffffffffffffffffffffffff167f8c5be1e5ebec7d5bd14f71427d1e84f3dd0314c0f7b2291e5b200ac8c7c3b92583604051612e75919061552e565b60405180910390a3505050565b60008183612e9091906157aa565b905092915050565b60008183612ea6919061592f565b905092915050565b60008183612ebc9190615894565b905092915050565b60008183612ed29190615aa0565b905092915050565b6000806000905060005b606780549050811015612fa15760678181548110612f2b577f4e487b7100000000000000000000000000000000000000000000000000000000600052603260045260246000fd5b9060005260206000200160009054906101000a900473ffffffffffffffffffffffffffffffffffffffff1673ffffffffffffffffffffffffffffffffffffffff168473ffffffffffffffffffffffffffffffffffffffff161415612f8e57600191505b8080612f9990615c45565b915050612ee4565b5080915050919050565b60008183612fb9919061583e565b905092915050565b60008183612fcf91906158fe565b905092915050565b6000612fe1611d66565b9050600081141561301b5761301683836040518060200160405280600081525060405180602001604052806000815250613a80565b613077565b60006130498261303b61302c610e6d565b866135f090919063ffffffff16565b612fc190919063ffffffff16565b905061307584826040518060200160405280600081525060405180602001604052806000815250613a80565b505b505050565b6000731820a4b7618bde71dce8cdc73aab6c95905fad2473ffffffffffffffffffffffffffffffffffffffff1663aabbb8ca877f29ddb589b1fb5fc7cf394961c1adf5f8c6454761adf795e67fe149f658abe8956040518363ffffffff1660e01b81526004016130ed9291906151e7565b60206040518083038186803b15801561310557600080fd5b505afa158015613119573d6000803e3d6000fd5b505050506040513d601f19601f8201168201806040525081019061313d9190614394565b9050600073ffffffffffffffffffffffffffffffffffffffff168173ffffffffffffffffffffffffffffffffffffffff16146131e9578073ffffffffffffffffffffffffffffffffffffffff166375ab97828888888888886040518763ffffffff1660e01b81526004016131b6969594939291906150ee565b600060405180830381600087803b1580156131d057600080fd5b505af11580156131e4573d6000803e3d6000fd5b505050505b50505050505050565b6131fe86868686613a94565b6000603360008773ffffffffffffffffffffffffffffffffffffffff1673ffffffffffffffffffffffffffffffffffffffff16815260200190815260200160002054905083811015613285576040517f08c379a000000000000000000000000000000000000000000000000000000000815260040161327c9061536e565b60405180910390fd5b838103603360008873ffffffffffffffffffffffffffffffffffffffff1673ffffffffffffffffffffffffffffffffffffffff1681526020019081526020016000208190555083603360008773ffffffffffffffffffffffffffffffffffffffff1673ffffffffffffffffffffffffffffffffffffffff168152602001908152602001600020600082825461331a919061583e565b925050819055508473ffffffffffffffffffffffffffffffffffffffff168673ffffffffffffffffffffffffffffffffffffffff168873ffffffffffffffffffffffffffffffffffffffff167f06b541ddaa720db2b10a4d0cdac39b8d360425fc073085fac19bc82614677987878787604051613399939291906155aa565b60405180910390a48473ffffffffffffffffffffffffffffffffffffffff168673ffffffffffffffffffffffffffffffffffffffff167fddf252ad1be2c89b69c2b068fc378daa952ba7f163c4a11628f55a4df523b3ef866040516133fe919061552e565b60405180910390a350505050505050565b6000731820a4b7618bde71dce8cdc73aab6c95905fad2473ffffffffffffffffffffffffffffffffffffffff1663aabbb8ca877fb281fc8c12954d22544db45de3159a39272895b169a852b314f9cc762e44c53b6040518363ffffffff1660e01b81526004016134809291906151e7565b60206040518083038186803b15801561349857600080fd5b505afa1580156134ac573d6000803e3d6000fd5b505050506040513d601f19601f820116820180604052508101906134d09190614394565b9050600073ffffffffffffffffffffffffffffffffffffffff168173ffffffffffffffffffffffffffffffffffffffff161461357f578073ffffffffffffffffffffffffffffffffffffffff166223de298989898989896040518763ffffffff1660e01b8152600401613548969594939291906150ee565b600060405180830381600087803b15801561356257600080fd5b505af1158015613576573d6000803e3d6000fd5b505050506135e6565b81156135e5576135a48673ffffffffffffffffffffffffffffffffffffffff16613a9a565b156135e4576040517f08c379a00000000000000000000000000000000000000000000000000000000081526004016135db9061542e565b60405180910390fd5b5b5b5050505050505050565b600081836135fe9190615a46565b905092915050565b600073ffffffffffffffffffffffffffffffffffffffff168673ffffffffffffffffffffffffffffffffffffffff161415613676576040517f08c379a000000000000000000000000000000000000000000000000000000000815260040161366d9061534e565b60405180910390fd5b600073ffffffffffffffffffffffffffffffffffffffff168573ffffffffffffffffffffffffffffffffffffffff1614156136e6576040517f08c379a00000000000000000000000000000000000000000000000000000000081526004016136dd906154ee565b60405180910390fd5b60006136f0612caf565b905061370081888888888861307c565b61370e8188888888886131f2565b61371d8188888888888861340f565b50505050505050565b600081836137349190615b34565b905092915050565b600073ffffffffffffffffffffffffffffffffffffffff168473ffffffffffffffffffffffffffffffffffffffff1614156137ac576040517f08c379a00000000000000000000000000000000000000000000000000000000081526004016137a39061538e565b60405180910390fd5b60006137b6612caf565b90506137c78186600087878761307c565b6137d48186600087613a94565b6000603360008773ffffffffffffffffffffffffffffffffffffffff1673ffffffffffffffffffffffffffffffffffffffff1681526020019081526020016000205490508481101561385b576040517f08c379a0000000000000000000000000000000000000000000000000000000008152600401613852906154ce565b60405180910390fd5b848103603360008873ffffffffffffffffffffffffffffffffffffffff1673ffffffffffffffffffffffffffffffffffffffff1681526020019081526020016000208190555084603460008282546138b39190615b34565b925050819055508573ffffffffffffffffffffffffffffffffffffffff168273ffffffffffffffffffffffffffffffffffffffff167fa78a9be3a7b862d26933ad85fb11d80ef66b8f972d7cbba06621d583943a409887878760405161391b939291906155aa565b60405180910390a3600073ffffffffffffffffffffffffffffffffffffffff168673ffffffffffffffffffffffffffffffffffffffff167fddf252ad1be2c89b69c2b068fc378daa952ba7f163c4a11628f55a4df523b3ef87604051613981919061552e565b60405180910390a3505050505050565b600060019054906101000a900460ff16806139b7575060008054906101000a900460ff16155b6139f6576040517f08c379a00000000000000000000000000000000000000000000000000000000081526004016139ed906153ee565b60405180910390fd5b60008060019054906101000a900460ff161590508015613a46576001600060016101000a81548160ff02191690831515021790555060016000806101000a81548160ff0219169083151502179055505b613a4e613aad565b613a59848484613b86565b8015613a7a5760008060016101000a81548160ff0219169083151502179055505b50505050565b613a8e848484846001613ea5565b50505050565b50505050565b600080823b905060008111915050919050565b600060019054906101000a900460ff1680613ad3575060008054906101000a900460ff16155b613b12576040517f08c379a0000000000000000000000000000000000000000000000000000000008152600401613b09906153ee565b60405180910390fd5b60008060019054906101000a900460ff161590508015613b62576001600060016101000a81548160ff02191690831515021790555060016000806101000a81548160ff0219169083151502179055505b8015613b835760008060016101000a81548160ff0219169083151502179055505b50565b600060019054906101000a900460ff1680613bac575060008054906101000a900460ff16155b613beb576040517f08c379a0000000000000000000000000000000000000000000000000000000008152600401613be2906153ee565b60405180910390fd5b60008060019054906101000a900460ff161590508015613c3b576001600060016101000a81548160ff02191690831515021790555060016000806101000a81548160ff0219169083151502179055505b8360359080519060200190613c5192919061410e565b508260369080519060200190613c6892919061410e565b508160379080519060200190613c7f929190614084565b5060005b8251811015613d3757600160386000858481518110613ccb577f4e487b7100000000000000000000000000000000000000000000000000000000600052603260045260246000fd5b602002602001015173ffffffffffffffffffffffffffffffffffffffff1673ffffffffffffffffffffffffffffffffffffffff16815260200190815260200160002060006101000a81548160ff0219169083151502179055508080613d2f90615c45565b915050613c83565b50731820a4b7618bde71dce8cdc73aab6c95905fad2473ffffffffffffffffffffffffffffffffffffffff166329965a1d307fac7fbab5f54a3ca8194167523c6753bfeb96a445279294b6125b68cce2177054306040518463ffffffff1660e01b8152600401613da993929190615210565b600060405180830381600087803b158015613dc357600080fd5b505af1158015613dd7573d6000803e3d6000fd5b50505050731820a4b7618bde71dce8cdc73aab6c95905fad2473ffffffffffffffffffffffffffffffffffffffff166329965a1d307faea199e31a596269b42cdafd93407f14436db6e4cad65417994c2eb37381e05a306040518463ffffffff1660e01b8152600401613e4c93929190615210565b600060405180830381600087803b158015613e6657600080fd5b505af1158015613e7a573d6000803e3d6000fd5b505050508015613e9f5760008060016101000a81548160ff0219169083151502179055505b50505050565b600073ffffffffffffffffffffffffffffffffffffffff168573ffffffffffffffffffffffffffffffffffffffff161415613f15576040517f08c379a0000000000000000000000000000000000000000000000000000000008152600401613f0c9061540e565b60405180910390fd5b6000613f1f612caf565b9050613f2e8160008888613a94565b8460346000828254613f40919061583e565b9250508190555084603360008873ffffffffffffffffffffffffffffffffffffffff1673ffffffffffffffffffffffffffffffffffffffff1681526020019081526020016000206000828254613f96919061583e565b92505081905550613fad816000888888888861340f565b8573ffffffffffffffffffffffffffffffffffffffff168173ffffffffffffffffffffffffffffffffffffffff167f2fe5be0146f74c5bce36c0b80911af6c7d86ff27e89d5cfa61fc681327954e5d87878760405161400e939291906155aa565b60405180910390a38573ffffffffffffffffffffffffffffffffffffffff16600073ffffffffffffffffffffffffffffffffffffffff167fddf252ad1be2c89b69c2b068fc378daa952ba7f163c4a11628f55a4df523b3ef87604051614074919061552e565b60405180910390a3505050505050565b8280548282559060005260206000209081019282156140fd579160200282015b828111156140fc5782518260006101000a81548173ffffffffffffffffffffffffffffffffffffffff021916908373ffffffffffffffffffffffffffffffffffffffff160217905550916020019190600101906140a4565b5b50905061410a9190614194565b5090565b82805461411a90615c13565b90600052602060002090601f01602090048101928261413c5760008555614183565b82601f1061415557805160ff1916838001178555614183565b82800160010185558215614183579182015b82811115614182578251825591602001919060010190614167565b5b5090506141909190614194565b5090565b5b808211156141ad576000816000905550600101614195565b5090565b60006141c46141bf8461563b565b61560a565b905080838252602082019050828560208602820111156141e357600080fd5b60005b8581101561421357816141f98882614299565b8452602084019350602083019250506001810190506141e6565b5050509392505050565b600061423061422b84615667565b61560a565b90508281526020810184848401111561424857600080fd5b614253848285615bd1565b509392505050565b600061426e61426984615697565b61560a565b90508281526020810184848401111561428657600080fd5b614291848285615bd1565b509392505050565b6000813590506142a881615d5b565b92915050565b6000815190506142bd81615d5b565b92915050565b600082601f8301126142d457600080fd5b81356142e48482602086016141b1565b91505092915050565b6000815190506142fc81615d72565b92915050565b600082601f83011261431357600080fd5b813561432384826020860161421d565b91505092915050565b600082601f83011261433d57600080fd5b813561434d84826020860161425b565b91505092915050565b60008135905061436581615d89565b92915050565b60006020828403121561437d57600080fd5b600061438b84828501614299565b91505092915050565b6000602082840312156143a657600080fd5b60006143b4848285016142ae565b91505092915050565b600080604083850312156143d057600080fd5b60006143de85828601614299565b92505060206143ef85828601614299565b9150509250929050565b60008060006060848603121561440e57600080fd5b600061441c86828701614299565b935050602061442d86828701614299565b925050604061443e86828701614356565b9150509250925092565b600080600080600060a0868803121561446057600080fd5b600061446e88828901614299565b955050602061447f88828901614299565b945050604061449088828901614356565b935050606086013567ffffffffffffffff8111156144ad57600080fd5b6144b988828901614302565b925050608086013567ffffffffffffffff8111156144d657600080fd5b6144e288828901614302565b9150509295509295909350565b6000806040838503121561450257600080fd5b600061451085828601614299565b925050602061452185828601614356565b9150509250929050565b60008060006060848603121561454057600080fd5b600061454e86828701614299565b935050602061455f86828701614356565b925050604084013567ffffffffffffffff81111561457c57600080fd5b61458886828701614302565b9150509250925092565b600080600080608085870312156145a857600080fd5b60006145b687828801614299565b94505060206145c787828801614356565b935050604085013567ffffffffffffffff8111156145e457600080fd5b6145f087828801614302565b925050606085013567ffffffffffffffff81111561460d57600080fd5b61461987828801614302565b91505092959194509250565b60006020828403121561463757600080fd5b600082013567ffffffffffffffff81111561465157600080fd5b61465d848285016142c3565b91505092915050565b60006020828403121561467857600080fd5b6000614686848285016142ed565b91505092915050565b600080600080600060a086880312156146a757600080fd5b600086013567ffffffffffffffff8111156146c157600080fd5b6146cd8882890161432c565b955050602086013567ffffffffffffffff8111156146ea57600080fd5b6146f68882890161432c565b945050604061470788828901614299565b935050606061471888828901614299565b925050608061472988828901614299565b9150509295509295909350565b60006020828403121561474857600080fd5b600061475684828501614356565b91505092915050565b60008060006060848603121561477457600080fd5b600061478286828701614356565b935050602061479386828701614299565b92505060406147a486828701614356565b9150509250925092565b600080604083850312156147c157600080fd5b60006147cf85828601614356565b925050602083013567ffffffffffffffff8111156147ec57600080fd5b6147f885828601614302565b9150509250929050565b6000806040838503121561481557600080fd5b600061482385828601614356565b925050602061483485828601614356565b9150509250929050565b600061484a8383614886565b60208301905092915050565b600061486283836149be565b60208301905092915050565b600061487a83836150a6565b60208301905092915050565b61488f81615b68565b82525050565b61489e81615b68565b82525050565b60006148af826156f7565b6148b98185615755565b93506148c4836156c7565b8060005b838110156148f55781516148dc888261483e565b97506148e78361572e565b9250506001810190506148c8565b5085935050505092915050565b600061490d82615702565b6149178185615766565b9350614922836156d7565b8060005b8381101561495357815161493a8882614856565b97506149458361573b565b925050600181019050614926565b5085935050505092915050565b600061496b8261570d565b6149758185615777565b9350614980836156e7565b8060005b838110156149b1578151614998888261486e565b97506149a383615748565b925050600181019050614984565b5085935050505092915050565b6149c781615b7a565b82525050565b6149d681615b7a565b82525050565b6149e581615b86565b82525050565b60006149f682615718565b614a008185615788565b9350614a10818560208601615be0565b614a1981615d4a565b840191505092915050565b614a2d81615b90565b82525050565b6000614a3e82615723565b614a488185615799565b9350614a58818560208601615be0565b614a6181615d4a565b840191505092915050565b6000614a79602583615799565b91507f4552433737373a20617070726f76652066726f6d20746865207a65726f20616460008301527f64726573730000000000000000000000000000000000000000000000000000006020830152604082019050919050565b6000614adf602283615799565b91507f4552433737373a2073656e642066726f6d20746865207a65726f20616464726560008301527f73730000000000000000000000000000000000000000000000000000000000006020830152604082019050919050565b6000614b45602783615799565b91507f4552433737373a207472616e7366657220616d6f756e7420657863656564732060008301527f62616c616e6365000000000000000000000000000000000000000000000000006020830152604082019050919050565b6000614bab602283615799565b91507f4552433737373a206275726e2066726f6d20746865207a65726f20616464726560008301527f73730000000000000000000000000000000000000000000000000000000000006020830152604082019050919050565b6000614c11602483615799565b91507f4552433737373a20617574686f72697a696e672073656c66206173206f70657260008301527f61746f72000000000000000000000000000000000000000000000000000000006020830152604082019050919050565b6000614c77602183615799565b91507f4552433737373a207265766f6b696e672073656c66206173206f70657261746f60008301527f72000000000000000000000000000000000000000000000000000000000000006020830152604082019050919050565b6000614cdd602e83615799565b91507f496e697469616c697a61626c653a20636f6e747261637420697320616c72656160008301527f647920696e697469616c697a65640000000000000000000000000000000000006020830152604082019050919050565b6000614d43602083615799565b91507f4552433737373a206d696e7420746f20746865207a65726f20616464726573736000830152602082019050919050565b6000614d83604d83615799565b91507f4552433737373a20746f6b656e20726563697069656e7420636f6e747261637460008301527f20686173206e6f20696d706c656d656e74657220666f7220455243373737546f60208301527f6b656e73526563697069656e74000000000000000000000000000000000000006040830152606082019050919050565b6000614e0f602483615799565b91507f4552433737373a207472616e7366657220746f20746865207a65726f2061646460008301527f72657373000000000000000000000000000000000000000000000000000000006020830152604082019050919050565b6000614e75602c83615799565b91507f4552433737373a2063616c6c6572206973206e6f7420616e206f70657261746f60008301527f7220666f7220686f6c64657200000000000000000000000000000000000000006020830152604082019050919050565b6000614edb602983615799565b91507f4552433737373a207472616e7366657220616d6f756e7420657863656564732060008301527f616c6c6f77616e636500000000000000000000000000000000000000000000006020830152604082019050919050565b6000614f41602683615799565b91507f4552433737373a207472616e736665722066726f6d20746865207a65726f206160008301527f64647265737300000000000000000000000000000000000000000000000000006020830152604082019050919050565b6000614fa7602383615799565b91507f4552433737373a206275726e20616d6f756e7420657863656564732062616c6160008301527f6e636500000000000000000000000000000000000000000000000000000000006020830152604082019050919050565b600061500d602083615799565b91507f4552433737373a2073656e6420746f20746865207a65726f20616464726573736000830152602082019050919050565b600061504d602383615799565b91507f4552433737373a20617070726f766520746f20746865207a65726f206164647260008301527f65737300000000000000000000000000000000000000000000000000000000006020830152604082019050919050565b6150af81615bba565b82525050565b6150be81615bba565b82525050565b6150cd81615bc4565b82525050565b60006020820190506150e86000830184614895565b92915050565b600060c0820190506151036000830189614895565b6151106020830188614895565b61511d6040830187614895565b61512a60608301866150b5565b818103608083015261513c81856149eb565b905081810360a083015261515081846149eb565b9050979650505050505050565b60006060820190506151726000830186614895565b61517f6020830185614895565b61518c60408301846150b5565b949350505050565b600060a0820190506151a96000830188614895565b6151b66020830187614895565b6151c360408301866150b5565b6151d060608301856150b5565b6151dd60808301846150b5565b9695505050505050565b60006040820190506151fc6000830185614895565b61520960208301846149dc565b9392505050565b60006060820190506152256000830186614895565b61523260208301856149dc565b61523f6040830184614895565b949350505050565b600060408201905061525c6000830185614895565b61526960208301846150b5565b9392505050565b6000602082019050818103600083015261528a81846148a4565b905092915050565b600060208201905081810360008301526152ac8184614902565b905092915050565b600060208201905081810360008301526152ce8184614960565b905092915050565b60006020820190506152eb60008301846149cd565b92915050565b60006020820190506153066000830184614a24565b92915050565b600060208201905081810360008301526153268184614a33565b905092915050565b6000602082019050818103600083015261534781614a6c565b9050919050565b6000602082019050818103600083015261536781614ad2565b9050919050565b6000602082019050818103600083015261538781614b38565b9050919050565b600060208201905081810360008301526153a781614b9e565b9050919050565b600060208201905081810360008301526153c781614c04565b9050919050565b600060208201905081810360008301526153e781614c6a565b9050919050565b6000602082019050818103600083015261540781614cd0565b9050919050565b6000602082019050818103600083015261542781614d36565b9050919050565b6000602082019050818103600083015261544781614d76565b9050919050565b6000602082019050818103600083015261546781614e02565b9050919050565b6000602082019050818103600083015261548781614e68565b9050919050565b600060208201905081810360008301526154a781614ece565b9050919050565b600060208201905081810360008301526154c781614f34565b9050919050565b600060208201905081810360008301526154e781614f9a565b9050919050565b6000602082019050818103600083015261550781615000565b9050919050565b6000602082019050818103600083015261552781615040565b9050919050565b600060208201905061554360008301846150b5565b92915050565b600060c08201905061555e60008301896150b5565b61556b6020830188614895565b61557860408301876150b5565b61558560608301866150b5565b61559260808301856150b5565b61559f60a08301846150b5565b979650505050505050565b60006060820190506155bf60008301866150b5565b81810360208301526155d181856149eb565b905081810360408301526155e581846149eb565b9050949350505050565b600060208201905061560460008301846150c4565b92915050565b6000604051905081810181811067ffffffffffffffff8211171561563157615630615d1b565b5b8060405250919050565b600067ffffffffffffffff82111561565657615655615d1b565b5b602082029050602081019050919050565b600067ffffffffffffffff82111561568257615681615d1b565b5b601f19601f8301169050602081019050919050565b600067ffffffffffffffff8211156156b2576156b1615d1b565b5b601f19601f8301169050602081019050919050565b6000819050602082019050919050565b6000819050602082019050919050565b6000819050602082019050919050565b600081519050919050565b600081519050919050565b600081519050919050565b600081519050919050565b600081519050919050565b6000602082019050919050565b6000602082019050919050565b6000602082019050919050565b600082825260208201905092915050565b600082825260208201905092915050565b600082825260208201905092915050565b600082825260208201905092915050565b600082825260208201905092915050565b60006157b582615b90565b91506157c083615b90565b9250817f7fffffffffffffffffffffffffffffffffffffffffffffffffffffffffffffff038313600083121516156157fb576157fa615c8e565b5b817f800000000000000000000000000000000000000000000000000000000000000003831260008312161561583357615832615c8e565b5b828201905092915050565b600061584982615bba565b915061585483615bba565b9250827fffffffffffffffffffffffffffffffffffffffffffffffffffffffffffffffff0382111561588957615888615c8e565b5b828201905092915050565b600061589f82615b90565b91506158aa83615b90565b9250826158ba576158b9615cbd565b5b600160000383147f8000000000000000000000000000000000000000000000000000000000000000831416156158f3576158f2615c8e565b5b828205905092915050565b600061590982615bba565b915061591483615bba565b92508261592457615923615cbd565b5b828204905092915050565b600061593a82615b90565b915061594583615b90565b9250827f7fffffffffffffffffffffffffffffffffffffffffffffffffffffffffffffff048211600084136000841316161561598457615983615c8e565b5b817f800000000000000000000000000000000000000000000000000000000000000005831260008412600084131616156159c1576159c0615c8e565b5b827f800000000000000000000000000000000000000000000000000000000000000005821260008413600084121616156159fe576159fd615c8e565b5b827f7fffffffffffffffffffffffffffffffffffffffffffffffffffffffffffffff0582126000841260008412161615615a3b57615a3a615c8e565b5b828202905092915050565b6000615a5182615bba565b9150615a5c83615bba565b9250817fffffffffffffffffffffffffffffffffffffffffffffffffffffffffffffffff0483118215151615615a9557615a94615c8e565b5b828202905092915050565b6000615aab82615b90565b9150615ab683615b90565b9250827f800000000000000000000000000000000000000000000000000000000000000001821260008412151615615af157615af0615c8e565b5b827f7fffffffffffffffffffffffffffffffffffffffffffffffffffffffffffffff018213600084121615615b2957615b28615c8e565b5b828203905092915050565b6000615b3f82615bba565b9150615b4a83615bba565b925082821015615b5d57615b5c615c8e565b5b828203905092915050565b6000615b7382615b9a565b9050919050565b60008115159050919050565b6000819050919050565b6000819050919050565b600073ffffffffffffffffffffffffffffffffffffffff82169050919050565b6000819050919050565b600060ff82169050919050565b82818337600083830152505050565b60005b83811015615bfe578082015181840152602081019050615be3565b83811115615c0d576000848401525b50505050565b60006002820490506001821680615c2b57607f821691505b60208210811415615c3f57615c3e615cec565b5b50919050565b6000615c5082615bba565b91507fffffffffffffffffffffffffffffffffffffffffffffffffffffffffffffffff821415615c8357615c82615c8e565b5b600182019050919050565b7f4e487b7100000000000000000000000000000000000000000000000000000000600052601160045260246000fd5b7f4e487b7100000000000000000000000000000000000000000000000000000000600052601260045260246000fd5b7f4e487b7100000000000000000000000000000000000000000000000000000000600052602260045260246000fd5b7f4e487b7100000000000000000000000000000000000000000000000000000000600052604160045260246000fd5b6000601f19601f8301169050919050565b615d6481615b68565b8114615d6f57600080fd5b50565b615d7b81615b7a565b8114615d8657600080fd5b50565b615d9281615bba565b8114615d9d57600080fd5b5056fea26469706673582212200515664b42349b6a7ab2a698b397908d1c307449c25391fed748c0549c9131a464736f6c63430008000033",
  "immutableReferences": {},
  "source": "// contracts/Pool0.sol\n// SPDX-License-Identifier: MIT\npragma solidity >=0.4.22 <=0.8.0;\n\nimport \"./../../node_modules/@openzeppelin/contracts-upgradeable/proxy/utils/Initializable.sol\";\nimport \"./../../node_modules/@openzeppelin/contracts-upgradeable/token/ERC777/ERC777Upgradeable.sol\";\nimport './../../node_modules/@openzeppelin/contracts-upgradeable/token/ERC20/IERC20Upgradeable.sol';\nimport './../../node_modules/@openzeppelin/contracts/utils/math/SafeMath.sol';\nimport './../../node_modules/@openzeppelin/contracts/utils/math/SignedSafeMath.sol';\n\ncontract Pool0 is Initializable, ERC777Upgradeable {\n    using SignedSafeMath for int256;\n    using SafeMath for uint256;\n\n    struct Loan{\n        uint256 loanId;\n        address borrower;\n        uint256 interestRate;\n        uint256 principal;\n        uint256 interestAccrued;\n        uint256 timeLastPayment;\n    }\n\n    address servicer;\n    address ERCAddress;\n    address[] servicerAddresses;\n    /* Adding a variable above this line (not reflected in Pool0) will cause contract storage conflicts */\n\n    uint256 poolLent;\n    uint256 poolBorrowed;\n    mapping(address => uint256[]) userLoans;\n    Loan[] loans;\n    uint256 loanCount;\n\n    uint constant servicerFeePercentage = 1000000;\n    uint constant baseInterestPercentage = 0;\n    uint constant curveK = 200000000;\n\n    /*****************************************************\n    *                POOL STRUCTURE FUNCTIONS\n    ******************************************************/\n\n    /** \n    *   @dev Function initialize replaces constructor in upgradable contracts\n    *   - Calls the init function of the inherited ERC777 contract\n    *   @param name Name of this particular ERC777 token\n    *   @param symbol The ticker this token will go by\n    */\n    function initialize(string memory name, string memory symbol, address _ERCAddress, address _servicer, address approvedServicer) public initializer {\n        address[] memory operators;\n        ERCAddress = _ERCAddress;\n        servicer = _servicer;\n        servicerAddresses.push(approvedServicer);\n        ERC777Upgradeable.__ERC777_init(name, symbol, operators );\n\n        //set initial vars\n        poolLent = 0;\n        poolBorrowed = 0;\n        loanCount = 0;\n    }\n    \n    /** \n    *   @dev Function setApprovedAddresses() updates the array of addresses approved by the servicer\n    *   @param _servicerAddresses The array of addresses to be set as approved for borrowing\n    */\n    function setApprovedAddresses(address[] memory _servicerAddresses) public {\n        require(msg.sender == servicer);\n\n        servicerAddresses = _servicerAddresses;\n    }\n\n    /** \n    *   @dev Function setApprovedAddresses() is an internal function that checks the array of approved addresses for the given address\n    *   @param _address The address to be checked if it is approved\n    *   @return isApproved is if the _addess is found in the list of servicerAddresses\n    */\n    function isApprovedServicer(address _address) internal view returns (bool) {\n        bool isApproved = false;\n        \n        for (uint i = 0; i < servicerAddresses.length; i++) {\n            if(_address == servicerAddresses[i]) {\n                isApproved = true;\n            }\n        }\n\n        return isApproved;\n    }\n\n    /*****************************************************\n    *                GETTER FUNCTIONS\n    ******************************************************/\n    /**\n    *   @dev Function getContractData() returns a lot of variables about the contract\n    */\n    function getContractData() public view returns (address, address, uint256, uint256, uint256) {\n        return (servicer, ERCAddress, poolLent, getPoolValueWithInterest(), poolBorrowed);\n    }\n\n    /**  \n    *   @dev Function getPoolValueWithInterest() returns the contract address of ERC20 this pool accepts (ususally USDC)\n    */\n    function getPoolValueWithInterest() public view returns (uint256) {\n        uint256 totalWithInterest = poolLent;\n\n        for (uint i=0; i<loans.length; i++) {\n            totalWithInterest = totalWithInterest.add(getLoanAccruedInterest(i));\n        }\n\n        return totalWithInterest;\n    }\n\n    /**  \n    *   @dev Function getPoolBorrowed() returns the contract address of ERC20 this pool accepts (ususally USDC)\n    */\n    function getPoolBorrowed() public view returns (uint256) {\n        return poolBorrowed;\n    }\n\n    /**  \n    *   @dev Function getSupplyableTokenAddress() returns the contract address of ERC20 this pool accepts (ususally USDC)\n    */\n    function getSupplyableTokenAddress() public view returns (address) {\n        return ERCAddress;\n    }\n\n    /**  \n    *   @dev Function getServicerAddress() returns the address of this pool's servicer\n    */\n    function getServicerAddress() public view returns (address) {\n        return servicer;\n    }\n\n    /**  \n    *   @dev Function getUserLoans() returns an array of the loanIndexes user has taken out\n    *   @param user is the address for the user we're looking up\n    */\n    function getUserLoans(address user) public view returns (uint256[] memory) {\n        return userLoans[user];\n    }\n\n    /**  \n    *   @dev Function getAllLoans() returns an array of the loanIndexes all users have taken out\n    *   @return array on loanIds of loans\n    */\n    function getAllLoans() public view returns (uint256[] memory) {\n        uint256[] memory loanIds = new uint256[](loans.length);\n\n        for (uint i = 0; i < loans.length; i++) {\n            loanIds[i] = loans[i].loanId;\n        }\n\n        return loanIds;\n    }\n\n    /**  \n    *   @dev Function getActiveLoans() returns an array of the loans currently out by users\n    *   @return array of bools, where the index i is the loan ID and the value bool is active or not\n    */\n    function getActiveLoans() public view returns (bool[] memory) {\n        bool[] memory loanActive = new bool[](loans.length);\n\n        for (uint i = 0; i < loans.length; i++) {\n            if(loans[i].principal != 0) {\n                loanActive[i] = true;\n            } else {\n                loanActive[i] = false;\n            }\n        }\n\n        return loanActive;\n    }\n\n    /**  \n    *   @dev Function getLoanAccruedInterest() calculates and returns the amount of interest accrued on a given loan\n    *   @param loanId is the id for the loan we're looking up\n    */\n    function getLoanAccruedInterest(uint256 loanId) public view returns (uint256) {\n        Loan memory loan = loans[loanId];\n        uint256 secondsSincePayment = block.timestamp.sub(loan.timeLastPayment);\n\n        uint256 interestPerSecond = loan.principal.mul(loan.interestRate).div(1000000).div(31622400);\n        uint256 interestAccrued = interestPerSecond.mul(secondsSincePayment);\n        return interestAccrued.add(loan.interestAccrued);\n    }    \n\n    /**  \n    *   @dev Function getLoanDetails() returns an all the raw details about a loan\n    *   @param loanId is the id for the loan we're looking up\n    */\n    function getLoanDetails(uint256 loanId) public view returns (uint256, address, uint256, uint256, uint256, uint256) {\n        Loan memory loan = loans[loanId];\n        //temp interestAccrued calculation because this is a read function\n        uint256 interestAccrued = getLoanAccruedInterest(loanId);\n        return (loan.loanId, loan.borrower, loan.interestRate, loan.principal, interestAccrued, loan.timeLastPayment);\n    }\n\n    /**  \n    *   @dev Function getAverageInterest() returns an average interest for the pool\n    */\n    function getAverageInterest() public view returns (uint256) {\n        uint256 sumOfRates = 0;\n        uint256 borrowedCounter = 0;\n\n       for (uint i = 0; i < loans.length; i++) {\n           if(loans[i].principal != 0){\n               sumOfRates = sumOfRates.add(loans[i].interestRate.mul(loans[i].principal));\n               borrowedCounter = borrowedCounter.add(loans[i].principal);\n           }\n       }\n\n       return sumOfRates.div(borrowedCounter);\n    }\n\n    /*****************************************************\n    *                LENDING/BORROWING FUNCTIONS\n    ******************************************************/\n\n    /**  \n    *   @dev Function mintProportionalPoolTokens calculates how many new hc_pool tokens to mint when value is added to the pool based on proportional value\n    *   @param recepient The address of the wallet receiving the newly minted hc_pool tokens\n    *   @param amount The amount to be minted\n    */\n    function mintProportionalPoolTokens(address recepient, uint256 amount) private {\n        //check if this is first deposit\n        uint256 totalValue = getPoolValueWithInterest();\n        if (totalValue == 0) {\n            super._mint(recepient, amount, \"\", \"\");\n        } else {\n            //Calculate proportional to total value (including interest)\n            uint256 new_hc_pool = amount.mul(super.totalSupply()).div(totalValue);\n            super._mint(recepient, new_hc_pool, \"\", \"\");\n        }\n    }\n\n    /**  \n    *   @dev Function lend moves assets on the (probably usdc) contract to our own balance\n    *   - Before calling: an approve(address _spender (proxy), uint256 _value (0xffff)) function call must be made on remote contract\n    *   @param amount The amount to be transferred\n    */\n    function lend(\n        uint256 amount\n    ) public {\n        //USDC on Ropsten only right now\n        IERC20Upgradeable(ERCAddress).transferFrom(msg.sender, address(this), amount);\n        mintProportionalPoolTokens(msg.sender, amount);\n        poolLent = poolLent.add(amount);\n    }\n\n    /**  \n    *   @dev Function redeem burns the sender's hcPool tokens and transfers the usdc back to them\n    *   @param amount The amount of hc_pool to be redeemed\n    */\n    function redeem(\n        uint256 amount\n    ) public {\n        //check to see if sender has enough hc_pool to redeem\n        require(balanceOf(msg.sender) >= amount);\n\n        //check to make sure there is liquidity available in the pool to withdraw\n        uint256 tokenPrice = getPoolValueWithInterest().mul(1000000).div(super.totalSupply());\n        uint256 erc20ValueOfTokens = amount.mul(tokenPrice).div(1000000);\n        require(erc20ValueOfTokens <= (poolLent - poolBorrowed));\n\n        //burn hcPool first\n        super._burn(msg.sender, amount, \"\", \"\");\n        poolLent = poolLent.sub(erc20ValueOfTokens);\n        IERC20Upgradeable(ERCAddress).transfer(msg.sender, erc20ValueOfTokens);\n    }\n\n    /**  \n    *   @dev Function getInterestRate calculates the new interest rate if a loan was to be taken out in this block\n    *   @param amount The size of the potential loan in (probably usdc).\n    *   @return interestRate The interest rate in APR for the loan\n    */\n    function getInterestRate(uint256 amount) public view returns (int256) {\n        //I = (( U - k ) / (U - 100)) - 0.01k + Base + ServicerFee\n        //all ints multiplied by 1000000 to represent the 6 decimal points available\n        \n        //first check available allocation\n        require(amount < (poolLent - poolBorrowed));\n\n        //get new proposed utilization amount\n        int256 newUtilizationRatio = int256(poolBorrowed).add(int256(amount)).mul(100000000).div(int256(poolLent));\n\n        //calculate interest\n        //subtract k from U\n        int256 numerator = newUtilizationRatio.sub(int256(curveK));  \n        //subtract 100 from U\n        int256 denominator = newUtilizationRatio.sub(100000000);\n        //divide numerator by denominator and multiply percentage by 10^6 to account for decimal places\n        int256 interest = numerator.mul(1000000).div(denominator);\n        //add base and fees to interest\n        interest = interest.sub(int256(curveK).div(100)).add(int256(servicerFeePercentage)).add(int256(baseInterestPercentage)); \n        \n        return interest;\n    }\n\n    /**  \n    *   @dev Function borrow creates a new Loan, moves the USDC to Borrower, and returns the loan ID and fixed Interest Rate\n    *   - Also creates an origination fee for the Servicer in HC_Pool\n    *   @param amount The size of the potential loan in (probably usdc).\n    *   @param borrower The address of the recipient of the loan\n    *   @param maxRate The size of the potential loan in (probably usdc).\n    */\n    function borrow(uint256 amount, address borrower, uint256 maxRate) public {\n        //for v1 only allow ServicerAprovedAddresses to \"approve\" borrower\n        require(isApprovedServicer(msg.sender));\n\n        //check the requested interest rate is still available\n        uint256 fixedInterestRate = uint256(getInterestRate(amount));\n        require(fixedInterestRate <= maxRate);\n\n\n        //create new Loan\n        Loan memory newLoan = Loan(loanCount, borrower, fixedInterestRate, amount, 0, block.timestamp);\n        loans.push(newLoan);\n        userLoans[borrower].push(loanCount);\n\n        //update system variables\n        loanCount = loanCount.add(1);\n        poolBorrowed = poolBorrowed.add(amount);\n\n        //finally move the USDC\n        IERC20Upgradeable(ERCAddress).transfer(borrower, amount);\n\n        //then mint HC_Pool for the servicer (fixed 1% origination is better than standard 2.5%)\n        mintProportionalPoolTokens(servicer, amount.div(100));\n    }\n    \n    /**  \n    *   @dev Function repay repays a specific loan\n    *   - payment is first deducted from the interest then principal. \n    *   - the servicer_fee is deducted from the interest repayment and servicer is compensated in hc_pool\n    *   - repayer must have first approved fromsfers on behalf \n    *   @param loanId The loan to be repayed\n    *   @param amount The amount of the ERC20 token to repay the loan with\n    */\n    function repay(uint256 loanId, uint256 amount) public {        \n        //interestAmountRepayed keeps track of how much of the loan was returned to the pool to calculate servicer fee(treated as cash investment)\n        uint256 interestAmountRepayed = amount;\n\n        uint256 currentInterest = getLoanAccruedInterest(loanId);\n        if(currentInterest > amount) {\n            //if the payment is less than the interest accrued on the loan, just deduct amount from interest\n            //deduct amount FIRST (to make sure they have available balance), then reduce loan amount\n            IERC20Upgradeable(ERCAddress).transferFrom(msg.sender, address(this), amount);\n            loans[loanId].interestAccrued = currentInterest.sub(amount);\n        } else {\n            //if the amount borrow is repaying is greater than interest accrued, deduct the rest from principal\n            interestAmountRepayed = currentInterest;\n            uint256 amountAfterInterest = amount.sub(currentInterest);\n            \n            if(loans[loanId].principal > amountAfterInterest) {\n                //deduct amount from Borrower and reduce the principal\n                IERC20Upgradeable(ERCAddress).transferFrom(msg.sender, address(this), amount);\n                //return the repayed principal to the 'borrowable' amount\n                poolBorrowed = poolBorrowed.sub(amountAfterInterest);\n                loans[loanId].principal = loans[loanId].principal.sub(amountAfterInterest);\n            } else {\n                //deduct totalLoanValue\n                uint256 totalLoanValue = loans[loanId].principal.add(currentInterest);\n                IERC20Upgradeable(ERCAddress).transferFrom(msg.sender, address(this), totalLoanValue);\n                //return the repayed principal to the 'borrowable' amount\n                poolBorrowed = poolBorrowed.sub(loans[loanId].principal);\n                loans[loanId].principal = 0;\n            }\n\n            //set interest accrued to 0 AFTER successful erc20 transfer\n            loans[loanId].interestAccrued = 0;\n        }\n\n        //last payment timestamp is only updated AFTER  successful erc20 transfer\n        loans[loanId].timeLastPayment = block.timestamp;\n\n        //treat repayed interest as new money Lent into the pool\n        poolLent = poolLent.add(interestAmountRepayed);\n\n        //servicer fee is treated as cash investment in the pool as the percentage interest\n        //calculate how much of payment goes to servicer here\n        uint256 servicerFeeInERC = servicerFeePercentage.mul(interestAmountRepayed).div(loans[loanId].interestRate);\n        mintProportionalPoolTokens(servicer, servicerFeeInERC);\n    }\n\n\n    /**  \n    *   @dev Function hasUpgradedFunction returns bool depending on if contract has been upgraded or not\n    */\n    function hasUpgradedFunction() public pure returns (bool) {\n        return true;\n    }\n}",
  "sourcePath": "/Users/zane/code/loansnap/HomeDAO/contracts/Pools/Pool0.sol",
  "compiler": {
    "name": "solc",
    "version": "0.8.0+commit.c7dfd78e.Emscripten.clang"
  },
  "schemaVersion": "3.4.1",
  "updatedAt": "2021-08-18T18:07:17.772Z",
  "networkType": "ethereum",
  "devdoc": {
    "kind": "dev",
    "methods": {
      "allowance(address,address)": {
        "details": "See {IERC20-allowance}. Note that operator and allowance concepts are orthogonal: operators may not have allowance, and accounts with allowance may not be operators themselves."
      },
      "approve(address,uint256)": {
        "details": "See {IERC20-approve}. Note that accounts cannot have allowance issued by their operators."
      },
      "authorizeOperator(address)": {
        "details": "See {IERC777-authorizeOperator}."
      },
      "balanceOf(address)": {
        "details": "Returns the amount of tokens owned by an account (`tokenHolder`)."
      },
      "borrow(uint256,address,uint256)": {
        "details": "Function borrow creates a new Loan, moves the USDC to Borrower, and returns the loan ID and fixed Interest Rate   - Also creates an origination fee for the Servicer in HC_Pool",
        "params": {
          "amount": "The size of the potential loan in (probably usdc).",
          "borrower": "The address of the recipient of the loan",
          "maxRate": "The size of the potential loan in (probably usdc)."
        }
      },
      "burn(uint256,bytes)": {
        "details": "See {IERC777-burn}. Also emits a {IERC20-Transfer} event for ERC20 compatibility."
      },
      "decimals()": {
        "details": "See {ERC20-decimals}. Always returns 18, as per the [ERC777 EIP](https://eips.ethereum.org/EIPS/eip-777#backward-compatibility)."
      },
      "defaultOperators()": {
        "details": "See {IERC777-defaultOperators}."
      },
      "getActiveLoans()": {
        "details": "Function getActiveLoans() returns an array of the loans currently out by users",
        "returns": {
          "_0": "array of bools, where the index i is the loan ID and the value bool is active or not"
        }
      },
      "getAllLoans()": {
        "details": "Function getAllLoans() returns an array of the loanIndexes all users have taken out",
        "returns": {
          "_0": "array on loanIds of loans"
        }
      },
      "getAverageInterest()": {
        "details": "Function getAverageInterest() returns an average interest for the pool"
      },
      "getContractData()": {
        "details": "Function getContractData() returns a lot of variables about the contract"
      },
      "getInterestRate(uint256)": {
        "details": "Function getInterestRate calculates the new interest rate if a loan was to be taken out in this block",
        "params": {
          "amount": "The size of the potential loan in (probably usdc)."
        },
        "returns": {
          "_0": "interestRate The interest rate in APR for the loan"
        }
      },
      "getLoanAccruedInterest(uint256)": {
        "details": "Function getLoanAccruedInterest() calculates and returns the amount of interest accrued on a given loan",
        "params": {
          "loanId": "is the id for the loan we're looking up"
        }
      },
      "getLoanDetails(uint256)": {
        "details": "Function getLoanDetails() returns an all the raw details about a loan",
        "params": {
          "loanId": "is the id for the loan we're looking up"
        }
      },
      "getPoolBorrowed()": {
        "details": "Function getPoolBorrowed() returns the contract address of ERC20 this pool accepts (ususally USDC)"
      },
      "getPoolValueWithInterest()": {
        "details": "Function getPoolValueWithInterest() returns the contract address of ERC20 this pool accepts (ususally USDC)"
      },
      "getServicerAddress()": {
        "details": "Function getServicerAddress() returns the address of this pool's servicer"
      },
      "getSupplyableTokenAddress()": {
        "details": "Function getSupplyableTokenAddress() returns the contract address of ERC20 this pool accepts (ususally USDC)"
      },
      "getUserLoans(address)": {
        "details": "Function getUserLoans() returns an array of the loanIndexes user has taken out",
        "params": {
          "user": "is the address for the user we're looking up"
        }
      },
      "granularity()": {
        "details": "See {IERC777-granularity}. This implementation always returns `1`."
      },
      "hasUpgradedFunction()": {
        "details": "Function hasUpgradedFunction returns bool depending on if contract has been upgraded or not"
      },
      "initialize(string,string,address,address,address)": {
        "details": "Function initialize replaces constructor in upgradable contracts   - Calls the init function of the inherited ERC777 contract",
        "params": {
          "name": "Name of this particular ERC777 token",
          "symbol": "The ticker this token will go by"
        }
      },
      "isOperatorFor(address,address)": {
        "details": "See {IERC777-isOperatorFor}."
      },
      "lend(uint256)": {
        "details": "Function lend moves assets on the (probably usdc) contract to our own balance   - Before calling: an approve(address _spender (proxy), uint256 _value (0xffff)) function call must be made on remote contract",
        "params": {
          "amount": "The amount to be transferred"
        }
      },
      "name()": {
        "details": "See {IERC777-name}."
      },
      "operatorBurn(address,uint256,bytes,bytes)": {
        "details": "See {IERC777-operatorBurn}. Emits {Burned} and {IERC20-Transfer} events."
      },
      "operatorSend(address,address,uint256,bytes,bytes)": {
        "details": "See {IERC777-operatorSend}. Emits {Sent} and {IERC20-Transfer} events."
      },
      "redeem(uint256)": {
        "details": "Function redeem burns the sender's hcPool tokens and transfers the usdc back to them",
        "params": {
          "amount": "The amount of hc_pool to be redeemed"
        }
      },
      "repay(uint256,uint256)": {
        "details": "Function repay repays a specific loan   - payment is first deducted from the interest then principal.    - the servicer_fee is deducted from the interest repayment and servicer is compensated in hc_pool   - repayer must have first approved fromsfers on behalf ",
        "params": {
          "amount": "The amount of the ERC20 token to repay the loan with",
          "loanId": "The loan to be repayed"
        }
      },
      "revokeOperator(address)": {
        "details": "See {IERC777-revokeOperator}."
      },
      "send(address,uint256,bytes)": {
        "details": "See {IERC777-send}. Also emits a {IERC20-Transfer} event for ERC20 compatibility."
      },
      "setApprovedAddresses(address[])": {
        "details": "Function setApprovedAddresses() updates the array of addresses approved by the servicer",
        "params": {
          "_servicerAddresses": "The array of addresses to be set as approved for borrowing"
        }
      },
      "symbol()": {
        "details": "See {IERC777-symbol}."
      },
      "totalSupply()": {
        "details": "See {IERC777-totalSupply}."
      },
      "transfer(address,uint256)": {
        "details": "See {IERC20-transfer}. Unlike `send`, `recipient` is _not_ required to implement the {IERC777Recipient} interface if it is a contract. Also emits a {Sent} event."
      },
      "transferFrom(address,address,uint256)": {
        "details": "See {IERC20-transferFrom}. Note that operator and allowance concepts are orthogonal: operators cannot call `transferFrom` (unless they have allowance), and accounts with allowance cannot call `operatorSend` (unless they are operators). Emits {Sent}, {IERC20-Transfer} and {IERC20-Approval} events."
      }
    },
    "version": 1
  },
  "userdoc": {
    "kind": "user",
    "methods": {},
    "version": 1
  }
}