{
  "contractName": "Pool12",
  "abi": [
    {
      "anonymous": false,
      "inputs": [
        {
          "indexed": true,
          "internalType": "address",
          "name": "owner",
          "type": "address"
        },
        {
          "indexed": true,
          "internalType": "address",
          "name": "spender",
          "type": "address"
        },
        {
          "indexed": false,
          "internalType": "uint256",
          "name": "value",
          "type": "uint256"
        }
      ],
      "name": "Approval",
      "type": "event"
    },
    {
      "anonymous": false,
      "inputs": [
        {
          "indexed": true,
          "internalType": "address",
          "name": "from",
          "type": "address"
        },
        {
          "indexed": true,
          "internalType": "address",
          "name": "to",
          "type": "address"
        },
        {
          "indexed": false,
          "internalType": "uint256",
          "name": "value",
          "type": "uint256"
        }
      ],
      "name": "Transfer",
      "type": "event"
    },
    {
      "inputs": [
        {
          "internalType": "address",
          "name": "owner",
          "type": "address"
        },
        {
          "internalType": "address",
          "name": "spender",
          "type": "address"
        }
      ],
      "name": "allowance",
      "outputs": [
        {
          "internalType": "uint256",
          "name": "",
          "type": "uint256"
        }
      ],
      "stateMutability": "view",
      "type": "function"
    },
    {
      "inputs": [
        {
          "internalType": "address",
          "name": "spender",
          "type": "address"
        },
        {
          "internalType": "uint256",
          "name": "amount",
          "type": "uint256"
        }
      ],
      "name": "approve",
      "outputs": [
        {
          "internalType": "bool",
          "name": "",
          "type": "bool"
        }
      ],
      "stateMutability": "nonpayable",
      "type": "function"
    },
    {
      "inputs": [
        {
          "internalType": "address",
          "name": "account",
          "type": "address"
        }
      ],
      "name": "balanceOf",
      "outputs": [
        {
          "internalType": "uint256",
          "name": "",
          "type": "uint256"
        }
      ],
      "stateMutability": "view",
      "type": "function"
    },
    {
      "inputs": [
        {
          "internalType": "address",
          "name": "spender",
          "type": "address"
        },
        {
          "internalType": "uint256",
          "name": "subtractedValue",
          "type": "uint256"
        }
      ],
      "name": "decreaseAllowance",
      "outputs": [
        {
          "internalType": "bool",
          "name": "",
          "type": "bool"
        }
      ],
      "stateMutability": "nonpayable",
      "type": "function"
    },
    {
      "inputs": [
        {
          "internalType": "address",
          "name": "spender",
          "type": "address"
        },
        {
          "internalType": "uint256",
          "name": "addedValue",
          "type": "uint256"
        }
      ],
      "name": "increaseAllowance",
      "outputs": [
        {
          "internalType": "bool",
          "name": "",
          "type": "bool"
        }
      ],
      "stateMutability": "nonpayable",
      "type": "function"
    },
    {
      "inputs": [],
      "name": "totalSupply",
      "outputs": [
        {
          "internalType": "uint256",
          "name": "",
          "type": "uint256"
        }
      ],
      "stateMutability": "view",
      "type": "function"
    },
    {
      "inputs": [
        {
          "internalType": "address",
          "name": "recipient",
          "type": "address"
        },
        {
          "internalType": "uint256",
          "name": "amount",
          "type": "uint256"
        }
      ],
      "name": "transfer",
      "outputs": [
        {
          "internalType": "bool",
          "name": "",
          "type": "bool"
        }
      ],
      "stateMutability": "nonpayable",
      "type": "function"
    },
    {
      "inputs": [
        {
          "internalType": "address",
          "name": "sender",
          "type": "address"
        },
        {
          "internalType": "address",
          "name": "recipient",
          "type": "address"
        },
        {
          "internalType": "uint256",
          "name": "amount",
          "type": "uint256"
        }
      ],
      "name": "transferFrom",
      "outputs": [
        {
          "internalType": "bool",
          "name": "",
          "type": "bool"
        }
      ],
      "stateMutability": "nonpayable",
      "type": "function"
    },
    {
      "inputs": [],
      "name": "initializePool11",
      "outputs": [],
      "stateMutability": "nonpayable",
      "type": "function"
    },
    {
      "inputs": [],
      "name": "lockAirdorp",
      "outputs": [],
      "stateMutability": "nonpayable",
      "type": "function"
    },
    {
      "inputs": [
        {
          "internalType": "address",
          "name": "_servicer",
          "type": "address"
        }
      ],
      "name": "passServicerRights",
      "outputs": [],
      "stateMutability": "nonpayable",
      "type": "function"
    },
    {
      "inputs": [],
      "name": "name",
      "outputs": [
        {
          "internalType": "string",
          "name": "",
          "type": "string"
        }
      ],
      "stateMutability": "view",
      "type": "function"
    },
    {
      "inputs": [],
      "name": "symbol",
      "outputs": [
        {
          "internalType": "string",
          "name": "",
          "type": "string"
        }
      ],
      "stateMutability": "view",
      "type": "function"
    },
    {
      "inputs": [],
      "name": "decimals",
      "outputs": [
        {
          "internalType": "uint8",
          "name": "",
          "type": "uint8"
        }
      ],
      "stateMutability": "pure",
      "type": "function"
    },
    {
      "inputs": [],
      "name": "getContractData",
      "outputs": [
        {
          "internalType": "address",
          "name": "",
          "type": "address"
        },
        {
          "internalType": "address",
          "name": "",
          "type": "address"
        },
        {
          "internalType": "uint256",
          "name": "",
          "type": "uint256"
        },
        {
          "internalType": "uint256",
          "name": "",
          "type": "uint256"
        },
        {
          "internalType": "uint256",
          "name": "",
          "type": "uint256"
        },
        {
          "internalType": "uint256",
          "name": "",
          "type": "uint256"
        }
      ],
      "stateMutability": "view",
      "type": "function"
    },
    {
      "inputs": [],
      "name": "getLoanCount",
      "outputs": [
        {
          "internalType": "uint256",
          "name": "",
          "type": "uint256"
        }
      ],
      "stateMutability": "view",
      "type": "function"
    },
    {
      "inputs": [],
      "name": "getSupplyableTokenAddress",
      "outputs": [
        {
          "internalType": "address",
          "name": "",
          "type": "address"
        }
      ],
      "stateMutability": "view",
      "type": "function"
    },
    {
      "inputs": [],
      "name": "getServicerAddress",
      "outputs": [
        {
          "internalType": "address",
          "name": "",
          "type": "address"
        }
      ],
      "stateMutability": "view",
      "type": "function"
    },
    {
      "inputs": [
        {
          "internalType": "uint256",
          "name": "loanId",
          "type": "uint256"
        }
      ],
      "name": "getLoanDetails",
      "outputs": [
        {
          "internalType": "uint256",
          "name": "",
          "type": "uint256"
        },
        {
          "internalType": "address",
          "name": "",
          "type": "address"
        },
        {
          "internalType": "uint256",
          "name": "",
          "type": "uint256"
        },
        {
          "internalType": "uint256",
          "name": "",
          "type": "uint256"
        },
        {
          "internalType": "uint256",
          "name": "",
          "type": "uint256"
        },
        {
          "internalType": "uint256",
          "name": "",
          "type": "uint256"
        },
        {
          "internalType": "uint256",
          "name": "",
          "type": "uint256"
        }
      ],
      "stateMutability": "view",
      "type": "function"
    },
    {
      "inputs": [
        {
          "internalType": "uint256",
          "name": "loanId",
          "type": "uint256"
        }
      ],
      "name": "getLoanAccruedInterest",
      "outputs": [
        {
          "internalType": "uint256",
          "name": "",
          "type": "uint256"
        }
      ],
      "stateMutability": "view",
      "type": "function"
    },
    {
      "inputs": [
        {
          "internalType": "uint256",
          "name": "amount",
          "type": "uint256"
        }
      ],
      "name": "lend",
      "outputs": [
        {
          "internalType": "uint256",
          "name": "",
          "type": "uint256"
        }
      ],
      "stateMutability": "nonpayable",
      "type": "function"
    },
    {
      "inputs": [
        {
          "internalType": "uint256",
          "name": "amount",
          "type": "uint256"
        }
      ],
      "name": "redeem",
      "outputs": [],
      "stateMutability": "nonpayable",
      "type": "function"
    },
    {
      "inputs": [
        {
          "internalType": "uint256",
          "name": "amount",
          "type": "uint256"
        },
        {
          "internalType": "uint256",
          "name": "maxRate",
          "type": "uint256"
        },
        {
          "internalType": "uint256",
          "name": "propTokenId",
          "type": "uint256"
        }
      ],
      "name": "borrow",
      "outputs": [],
      "stateMutability": "nonpayable",
      "type": "function"
    },
    {
      "inputs": [
        {
          "internalType": "uint256",
          "name": "loanId",
          "type": "uint256"
        },
        {
          "internalType": "uint256",
          "name": "amount",
          "type": "uint256"
        }
      ],
      "name": "repay",
      "outputs": [],
      "stateMutability": "nonpayable",
      "type": "function"
    },
    {
      "inputs": [
        {
          "internalType": "uint256",
          "name": "amount",
          "type": "uint256"
        }
      ],
      "name": "stake",
      "outputs": [
        {
          "internalType": "bool",
          "name": "",
          "type": "bool"
        }
      ],
      "stateMutability": "nonpayable",
      "type": "function"
    },
    {
      "inputs": [
        {
          "internalType": "uint256",
          "name": "amount",
          "type": "uint256"
        }
      ],
      "name": "lendAndStake",
      "outputs": [
        {
          "internalType": "bool",
          "name": "",
          "type": "bool"
        }
      ],
      "stateMutability": "nonpayable",
      "type": "function"
    },
    {
      "inputs": [],
      "name": "getVersion",
      "outputs": [
        {
          "internalType": "uint256",
          "name": "",
          "type": "uint256"
        }
      ],
      "stateMutability": "pure",
      "type": "function"
    },
    {
      "inputs": [
        {
          "internalType": "address",
          "name": "",
          "type": "address"
        },
        {
          "internalType": "address",
          "name": "",
          "type": "address"
        },
        {
          "internalType": "uint256",
          "name": "",
          "type": "uint256"
        },
        {
          "internalType": "bytes",
          "name": "",
          "type": "bytes"
        }
      ],
      "name": "onERC721Received",
      "outputs": [
        {
          "internalType": "bytes4",
          "name": "",
          "type": "bytes4"
        }
      ],
      "stateMutability": "pure",
      "type": "function"
    },
    {
      "inputs": [],
      "name": "claimRewards",
      "outputs": [
        {
          "internalType": "uint256",
          "name": "",
          "type": "uint256"
        }
      ],
      "stateMutability": "nonpayable",
      "type": "function"
    },
    {
      "inputs": [
        {
          "internalType": "uint256",
          "name": "amount",
          "type": "uint256"
        }
      ],
      "name": "burn",
      "outputs": [],
      "stateMutability": "nonpayable",
      "type": "function"
    }
  ],
  "bytecode": "0x608060405234801561001057600080fd5b50612d28806100206000396000f3fe608060405234801561001057600080fd5b50600436106101da5760003560e01c806370a0823111610104578063a694fc3a116100a2578063d8aed14511610071578063d8aed14514610471578063db006a7514610484578063dd62ed3e14610497578063e636eddc146104d057600080fd5b8063a694fc3a14610425578063a6aa57ce14610438578063a9059cbb1461044b578063adf459ca1461045e57600080fd5b806395d89b41116100de57806395d89b41146103b75780639a5872f4146103bf578063a457c2d7146103d2578063a68b91ab146103e557600080fd5b806370a08231146103805780638f6d88071461039357806390b53e14146103a657600080fd5b80632f5e5d951161017c5780633b532b461161014b5780633b532b461461030d57806342966c6814610315578063521968121461032857806366877b8d1461033057600080fd5b80632f5e5d95146102be578063313ce567146102e3578063372500ab146102f257806339509351146102fa57600080fd5b80630d8e6e2c116101b85780630d8e6e2c1461022a578063150b7a021461023b57806318160ddd146102a357806323b872dd146102ab57600080fd5b8063038771d0146101df57806306fdde03146101e9578063095ea7b314610207575b600080fd5b6101e76104e3565b005b6101f161053b565b6040516101fe91906127a9565b60405180910390f35b61021a6102153660046127f1565b6105cd565b60405190151581526020016101fe565b600b5b6040519081526020016101fe565b61027261024936600461288c565b7f150b7a0200000000000000000000000000000000000000000000000000000000949350505050565b6040517fffffffff0000000000000000000000000000000000000000000000000000000090911681526020016101fe565b60345461022d565b61021a6102b936600461293b565b6105e3565b6066546001600160a01b03165b6040516001600160a01b0390911681526020016101fe565b604051600681526020016101fe565b61022d6106a7565b61021a6103083660046127f1565b610790565b6101e76107cc565b6101e761032336600461297c565b610897565b606c5461022d565b61034361033e36600461297c565b6108a4565b604080519788526001600160a01b039096166020880152948601939093526060850191909152608084015260a083015260c082015260e0016101fe565b61022d61038e366004612995565b610967565b6101e76103a1366004612995565b610995565b6065546001600160a01b03166102cb565b6101f16109e6565b61022d6103cd36600461297c565b6109f5565b61021a6103e03660046127f1565b610ad6565b6103ed610b87565b604080516001600160a01b039788168152969095166020870152938501929092526060840152608083015260a082015260c0016101fe565b61021a61043336600461297c565b610c61565b61022d61044636600461297c565b610dbf565b61021a6104593660046127f1565b610ec7565b6101e761046c3660046129b2565b610ed4565b6101e761047f3660046129de565b61179c565b6101e761049236600461297c565b611d0d565b61022d6104a5366004612a00565b6001600160a01b039182166000908152603b6020908152604080832093909416825291909152205490565b61021a6104de36600461297c565b611e56565b6065546001600160a01b031633146104fa57600080fd5b607780547fffffffffffffffffffffff00ffffffffffffffffffffffffffffffffffffffff1674010000000000000000000000000000000000000000179055565b6060606d805461054a90612a39565b80601f016020809104026020016040519081016040528092919081815260200182805461057690612a39565b80156105c35780601f10610598576101008083540402835291602001916105c3565b820191906000526020600020905b8154815290600101906020018083116105a657829003601f168201915b5050505050905090565b60006105da338484611e6d565b50600192915050565b60006105f0848484611fc6565b6001600160a01b0384166000908152603b602090815260408083203384529091529020548281101561068f5760405162461bcd60e51b815260206004820152602860248201527f45524332303a207472616e7366657220616d6f756e742065786365656473206160448201527f6c6c6f77616e636500000000000000000000000000000000000000000000000060648201526084015b60405180910390fd5b61069c8533858403611e6d565b506001949350505050565b6000806106be60646106b8336121fc565b906122aa565b6077546040517f9a2daa0a000000000000000000000000000000000000000000000000000000008152336004820152919250600091610761916064916001600160a01b0390911690639a2daa0a90602401602060405180830381600087803b15801561072957600080fd5b505af115801561073d573d6000803e3d6000fd5b505050506040513d601f19601f820116820180604052508101906106b89190612a74565b9050600061076f8284612aa3565b607554909150610789906001600160a01b03163383611fc6565b9392505050565b336000818152603b602090815260408083206001600160a01b038716845290915281205490916105da9185906107c7908690612aa3565b611e6d565b6065546001600160a01b031633146107e357600080fd5b6040805180820190915260048082527f486f6d6500000000000000000000000000000000000000000000000000000000602090920191825261082791606d916126e4565b506040805180820190915260048082527f484f4d4500000000000000000000000000000000000000000000000000000000602090920191825261086c91606e916126e4565b50607780547fffffffffffffffffffffff00ffffffffffffffffffffffffffffffffffffffff169055565b6108a133826122b6565b50565b600080600080600080600080606b89815481106108c3576108c3612abb565b600091825260208083206040805160c08101825260069094029091018054845260018101546001600160a01b03169284019290925260028201549083015260038101546060830152600481015460808301526005015460a082015291506109298a6109f5565b60009a8b52606f602090815260409b8c9020548451918501519c850151606086015160a090960151929e909c50949a50919850965094509092505050565b6001600160a01b0381166000908152603360205260408120546bffffffffffffffffffffffff165b92915050565b6065546001600160a01b031633146109ac57600080fd5b606580547fffffffffffffffffffffffff0000000000000000000000000000000000000000166001600160a01b0392909216919091179055565b6060606e805461054a90612a39565b600080606b8381548110610a0b57610a0b612abb565b600091825260208083206040805160c08101825260069094029091018054845260018101546001600160a01b03169284019290925260028201549083015260038101546060830152600481015460808301526005015460a08201819052909250610a7690429061243c565b90506000610a9d6301da9c006106b88560400151866060015161244890919063ffffffff16565b90506000610ab36305f5e1006106b88486612448565b9050610acc84608001518261245490919063ffffffff16565b9695505050505050565b336000908152603b602090815260408083206001600160a01b038616845290915281205482811015610b705760405162461bcd60e51b815260206004820152602560248201527f45524332303a2064656372656173656420616c6c6f77616e63652062656c6f7760448201527f207a65726f0000000000000000000000000000000000000000000000000000006064820152608401610686565b610b7d3385858403611e6d565b5060019392505050565b606554606654606854607254604080517f7eb0d8b10000000000000000000000000000000000000000000000000000000081529051600095869586958695869586956001600160a01b03958616959485169490921691637eb0d8b191600480820192602092909190829003018186803b158015610c0357600080fd5b505afa158015610c17573d6000803e3d6000fd5b505050506040513d601f19601f82011682018060405250810190610c3b9190612a74565b606854610c489190612aa3565b606954606c54949b939a50919850965094509092509050565b600081610c6d33610967565b1015610cbb5760405162461bcd60e51b815260206004820152601360248201527f6e6f7420656e6f75676820746f207374616b65000000000000000000000000006044820152606401610686565b607454610cd1906001600160a01b031683610ec7565b506077546040517fadc9772e000000000000000000000000000000000000000000000000000000008152336004820152602481018490526000916001600160a01b03169063adc9772e90604401602060405180830381600087803b158015610d3857600080fd5b505af1158015610d4c573d6000803e3d6000fd5b505050506040513d601f19601f82011682018060405250810190610d709190612ad1565b90508061098f5760405162461bcd60e51b815260206004820152600c60248201527f5374616b65206661696c656400000000000000000000000000000000000000006044820152606401610686565b600060026076541415610e145760405162461bcd60e51b815260206004820152601f60248201527f5265656e7472616e637947756172643a207265656e7472616e742063616c6c006044820152606401610686565b60026076556066546040516323b872dd60e01b8152336004820152306024820152604481018490526001600160a01b03909116906323b872dd90606401602060405180830381600087803b158015610e6b57600080fd5b505af1158015610e7f573d6000803e3d6000fd5b505050506040513d601f19601f82011682018060405250810190610ea39190612ad1565b50606854610eb19083612454565b606855610ebe3383612460565b50600160765590565b60006105da338484611fc6565b60026076541415610f275760405162461bcd60e51b815260206004820152601f60248201527f5265656e7472616e637947756172643a207265656e7472616e742063616c6c006044820152606401610686565b60026076556070546040517f081812fc0000000000000000000000000000000000000000000000000000000081526004810183905230916001600160a01b03169063081812fc9060240160206040518083038186803b158015610f8957600080fd5b505afa158015610f9d573d6000803e3d6000fd5b505050506040513d601f19601f82011682018060405250810190610fc19190612af3565b6001600160a01b0316146110175760405162461bcd60e51b815260206004820152601d60248201527f706f6f6c206e6f7420617070726f76656420746f206d6f7665206567670000006044820152606401610686565b6070546040517f6352211e0000000000000000000000000000000000000000000000000000000081526004810183905233916001600160a01b031690636352211e9060240160206040518083038186803b15801561107457600080fd5b505afa158015611088573d6000803e3d6000fd5b505050506040513d601f19601f820116820180604052508101906110ac9190612af3565b6001600160a01b0316146111025760405162461bcd60e51b815260206004820152601860248201527f6d73672e73656e646572206e6f7420656767206f776e657200000000000000006044820152606401610686565b6072546040517f0c196a74000000000000000000000000000000000000000000000000000000008152600481018590526000916001600160a01b031690630c196a749060240160206040518083038186803b15801561116057600080fd5b505afa158015611174573d6000803e3d6000fd5b505050506040513d601f19601f820116820180604052508101906111989190612a74565b9050828111156111ea5760405162461bcd60e51b815260206004820152601d60248201527f696e7465726573742072617465206e6f206c6f6e67657220617661696c0000006044820152606401610686565b6070546040517f6ebb668b000000000000000000000000000000000000000000000000000000008152600481018490526000916001600160a01b031690636ebb668b9060240160206040518083038186803b15801561124857600080fd5b505afa15801561125c573d6000803e3d6000fd5b505050506040513d601f19601f820116820180604052508101906112809190612a74565b9050848110156112d25760405162461bcd60e51b815260206004820152601a60248201527f6c6f616e206c61726765722074686174206567672076616c75650000000000006044820152606401610686565b607154604080517f15a2bf9e00000000000000000000000000000000000000000000000000000000815290516000926001600160a01b0316916315a2bf9e916004808301926020929190829003018186803b15801561133057600080fd5b505afa158015611344573d6000803e3d6000fd5b505050506040513d601f19601f820116820180604052508101906113689190612a74565b6070546040517f4a293c520000000000000000000000000000000000000000000000000000000081526004810187905291925060009182916001600160a01b031690634a293c529060240160006040518083038186803b1580156113cb57600080fd5b505afa1580156113df573d6000803e3d6000fd5b505050506040513d6000823e601f3d908101601f191682016040526114079190810190612b5d565b50505093509350505060005b825181101561145c5761144883828151811061143157611431612abb565b60200260200101518661245490919063ffffffff16565b94508061145481612c7f565b915050611413565b508261146d826106b8876064612448565b106114ba5760405162461bcd60e51b815260206004820152600c60248201527f4c545620746f6f206869676800000000000000000000000000000000000000006044820152606401610686565b6070546040517f42842e0e000000000000000000000000000000000000000000000000000000008152336004820152306024820152604481018890526001600160a01b03909116906342842e0e90606401600060405180830381600087803b15801561152557600080fd5b505af1158015611539573d6000803e3d6000fd5b5050505060006040518060c00160405280606c548152602001336001600160a01b031681526020018781526020018a815260200160008152602001428152509050606b8190806001815401808255809150506001900390600052602060002090600602016000909190919091506000820151816000015560208201518160010160006101000a8154816001600160a01b0302191690836001600160a01b0316021790555060408201518160020155606082015181600301556080820151816004015560a082015181600501555050606a6000336001600160a01b03166001600160a01b03168152602001908152602001600020606c54908060018154018082558091505060019003906000526020600020016000909190919091505586606f6000606c548152602001908152602001600020819055506116856001606c5461245490919063ffffffff16565b606c55606954611695908a612454565b6069556066546001600160a01b031663a9059cbb336116ba60646106b88e6063612448565b6040517fffffffff0000000000000000000000000000000000000000000000000000000060e085901b1681526001600160a01b0390921660048301526024820152604401602060405180830381600087803b15801561171857600080fd5b505af115801561172c573d6000803e3d6000fd5b505050506040513d601f19601f820116820180604052508101906117509190612ad1565b50606554611771906001600160a01b031661176c8b60c86122aa565b612460565b60755461178c906001600160a01b031661176c8b60c86122aa565b5050600160765550505050505050565b600260765414156117ef5760405162461bcd60e51b815260206004820152601f60248201527f5265656e7472616e637947756172643a207265656e7472616e742063616c6c006044820152606401610686565b6002607655806000611800846109f5565b9050828111156118cc576066546040516323b872dd60e01b8152336004820152306024820152604481018590526001600160a01b03909116906323b872dd90606401602060405180830381600087803b15801561185c57600080fd5b505af1158015611870573d6000803e3d6000fd5b505050506040513d601f19601f820116820180604052508101906118949190612ad1565b5061189f818461243c565b606b85815481106118b2576118b2612abb565b906000526020600020906006020160040181905550611c33565b90508060006118db848361243c565b905080606b86815481106118f1576118f1612abb565b9060005260206000209060060201600301541115611a0b576066546040516323b872dd60e01b8152336004820152306024820152604481018690526001600160a01b03909116906323b872dd90606401602060405180830381600087803b15801561195b57600080fd5b505af115801561196f573d6000803e3d6000fd5b505050506040513d601f19601f820116820180604052508101906119939190612ad1565b506069546119a1908261243c565b6069819055506119de81606b87815481106119be576119be612abb565b90600052602060002090600602016003015461243c90919063ffffffff16565b606b86815481106119f1576119f1612abb565b906000526020600020906006020160030181905550611c07565b6000611a4483606b8881548110611a2457611a24612abb565b90600052602060002090600602016003015461245490919063ffffffff16565b6066546040516323b872dd60e01b8152336004820152306024820152604481018390529192506001600160a01b0316906323b872dd90606401602060405180830381600087803b158015611a9757600080fd5b505af1158015611aab573d6000803e3d6000fd5b505050506040513d601f19601f82011682018060405250810190611acf9190612ad1565b50611b09606b8781548110611ae657611ae6612abb565b90600052602060002090600602016003015460695461243c90919063ffffffff16565b6069819055506000606b8781548110611b2457611b24612abb565b6000918252602090912060036006909202010155607054606b80546001600160a01b03909216916342842e0e9130918a908110611b6357611b63612abb565b60009182526020808320600160069093020191909101548b8352606f9091526040918290205491517fffffffff0000000000000000000000000000000000000000000000000000000060e086901b1681526001600160a01b039384166004820152921660248301526044820152606401600060405180830381600087803b158015611bed57600080fd5b505af1158015611c01573d6000803e3d6000fd5b50505050505b6000606b8681548110611c1c57611c1c612abb565b906000526020600020906006020160040181905550505b42606b8581548110611c4757611c47612abb565b6000918252602090912060056006909202010155606854611c689083612454565b6068819055506000611cae606b8681548110611c8657611c86612abb565b9060005260206000209060060201600201546106b885620f424061244890919063ffffffff16565b606554909150611ccc906001600160a01b031661176c8360026122aa565b607554611ce7906001600160a01b031661176c8360026122aa565b607554611d01906001600160a01b031661176c858461243c565b50506001607655505050565b60026076541415611d605760405162461bcd60e51b815260206004820152601f60248201527f5265656e7472616e637947756172643a207265656e7472616e742063616c6c006044820152606401610686565b600260765580611d6f33610967565b1015611d7a57600080fd5b606954606854611d8a9190612c9a565b811115611d9657600080fd5b611da033826122b6565b606854611dad908261243c565b6068556066546040517fa9059cbb000000000000000000000000000000000000000000000000000000008152336004820152602481018390526001600160a01b039091169063a9059cbb90604401602060405180830381600087803b158015611e1557600080fd5b505af1158015611e29573d6000803e3d6000fd5b505050506040513d601f19601f82011682018060405250810190611e4d9190612ad1565b50506001607655565b600080611e6283610dbf565b905061078981610c61565b6001600160a01b038316611ee85760405162461bcd60e51b8152602060048201526024808201527f45524332303a20617070726f76652066726f6d20746865207a65726f2061646460448201527f72657373000000000000000000000000000000000000000000000000000000006064820152608401610686565b6001600160a01b038216611f645760405162461bcd60e51b815260206004820152602260248201527f45524332303a20617070726f766520746f20746865207a65726f20616464726560448201527f73730000000000000000000000000000000000000000000000000000000000006064820152608401610686565b6001600160a01b038381166000818152603b602090815260408083209487168084529482529182902085905590518481527f8c5be1e5ebec7d5bd14f71427d1e84f3dd0314c0f7b2291e5b200ac8c7c3b92591015b60405180910390a3505050565b6001600160a01b0383166120425760405162461bcd60e51b815260206004820152602560248201527f45524332303a207472616e736665722066726f6d20746865207a65726f20616460448201527f64726573730000000000000000000000000000000000000000000000000000006064820152608401610686565b6001600160a01b0382166120be5760405162461bcd60e51b815260206004820152602360248201527f45524332303a207472616e7366657220746f20746865207a65726f206164647260448201527f65737300000000000000000000000000000000000000000000000000000000006064820152608401610686565b6001600160a01b0383166000908152603360205260409020546bffffffffffffffffffffffff81168281101561215c5760405162461bcd60e51b815260206004820152602660248201527f45524332303a207472616e7366657220616d6f756e742065786365656473206260448201527f616c616e636500000000000000000000000000000000000000000000000000006064820152608401610686565b6121698583858403612540565b6001600160a01b0384166000908152603360205260409020546121a78582866bffffffffffffffffffffffff82165b6121a29190612aa3565b612540565b846001600160a01b0316866001600160a01b03167fddf252ad1be2c89b69c2b068fc378daa952ba7f163c4a11628f55a4df523b3ef866040516121ec91815260200190565b60405180910390a3505050505050565b336000908152603c602052604081205481906122189082612aa3565b336000908152603c60209081526040808320839055603390915290205490915061224b906301da9c00906106b89061265d565b6122559082612aa3565b336000908152603360205260409020549091506bffffffffffffffffffffffff1661229142700100000000000000000000000000000000612448565b3360009081526033602052604090209117905592915050565b60006107898284612cb1565b6001600160a01b0382166123325760405162461bcd60e51b815260206004820152602160248201527f45524332303a206275726e2066726f6d20746865207a65726f2061646472657360448201527f73000000000000000000000000000000000000000000000000000000000000006064820152608401610686565b6001600160a01b0382166000908152603360205260409020546bffffffffffffffffffffffff8116828110156123d05760405162461bcd60e51b815260206004820152602260248201527f45524332303a206275726e20616d6f756e7420657863656564732062616c616e60448201527f63650000000000000000000000000000000000000000000000000000000000006064820152608401610686565b6123dd8483858403612540565b82603460008282546123ef9190612c9a565b90915550506040518381526000906001600160a01b038616907fddf252ad1be2c89b69c2b068fc378daa952ba7f163c4a11628f55a4df523b3ef9060200160405180910390a35b50505050565b60006107898284612c9a565b60006107898284612cd3565b60006107898284612aa3565b6001600160a01b0382166124b65760405162461bcd60e51b815260206004820152601f60248201527f45524332303a206d696e7420746f20746865207a65726f2061646472657373006044820152606401610686565b6001600160a01b03821660009081526033602052604081205460348054919284926124e2908490612aa3565b9091555061250290508382846bffffffffffffffffffffffff8216612198565b6040518281526001600160a01b038416906000907fddf252ad1be2c89b69c2b068fc378daa952ba7f163c4a11628f55a4df523b3ef90602001611fb9565b8061259f576125566301da9c006106b88461265d565b6001600160a01b0384166000908152603c60205260408120805490919061257e908490612aa3565b909155505050506001600160a01b0316600090815260336020526040812055565b42806125ae836106b88661265d565b10156125d2576125cb6125c4836106b88661265d565b429061243c565b9050612611565b6125e36301da9c006106b88561265d565b6001600160a01b0385166000908152603c60205260408120805490919061260b908490612aa3565b90915550505b6bffffffffffffffffffffffff821661263b82700100000000000000000000000000000000612448565b6001600160a01b03861660009081526033602052604090209117905550505050565b600061098f6bffffffffffffffffffffffff831661267d6125c485612683565b90612448565b6000806126bb77ffffffffffffffffffffffff00000000000000000000000084167001000000000000000000000000000000006122aa565b90508061098f5750426bffffffffffffffffffffffff83161561098f5750636296ac0092915050565b8280546126f090612a39565b90600052602060002090601f0160209004810192826127125760008555612758565b82601f1061272b57805160ff1916838001178555612758565b82800160010185558215612758579182015b8281111561275857825182559160200191906001019061273d565b50612764929150612768565b5090565b5b808211156127645760008155600101612769565b60005b83811015612798578181015183820152602001612780565b838111156124365750506000910152565b60208152600082518060208401526127c881604085016020870161277d565b601f01601f19169190910160400192915050565b6001600160a01b03811681146108a157600080fd5b6000806040838503121561280457600080fd5b823561280f816127dc565b946020939093013593505050565b634e487b7160e01b600052604160045260246000fd5b604051601f8201601f1916810167ffffffffffffffff8111828210171561285c5761285c61281d565b604052919050565b600067ffffffffffffffff82111561287e5761287e61281d565b50601f01601f191660200190565b600080600080608085870312156128a257600080fd5b84356128ad816127dc565b935060208501356128bd816127dc565b925060408501359150606085013567ffffffffffffffff8111156128e057600080fd5b8501601f810187136128f157600080fd5b80356129046128ff82612864565b612833565b81815288602083850101111561291957600080fd5b8160208401602083013760006020838301015280935050505092959194509250565b60008060006060848603121561295057600080fd5b833561295b816127dc565b9250602084013561296b816127dc565b929592945050506040919091013590565b60006020828403121561298e57600080fd5b5035919050565b6000602082840312156129a757600080fd5b8135610789816127dc565b6000806000606084860312156129c757600080fd5b505081359360208301359350604090920135919050565b600080604083850312156129f157600080fd5b50508035926020909101359150565b60008060408385031215612a1357600080fd5b8235612a1e816127dc565b91506020830135612a2e816127dc565b809150509250929050565b600181811c90821680612a4d57607f821691505b60208210811415612a6e57634e487b7160e01b600052602260045260246000fd5b50919050565b600060208284031215612a8657600080fd5b5051919050565b634e487b7160e01b600052601160045260246000fd5b60008219821115612ab657612ab6612a8d565b500190565b634e487b7160e01b600052603260045260246000fd5b600060208284031215612ae357600080fd5b8151801515811461078957600080fd5b600060208284031215612b0557600080fd5b8151610789816127dc565b600082601f830112612b2157600080fd5b8151612b2f6128ff82612864565b818152846020838601011115612b4457600080fd5b612b5582602083016020870161277d565b949350505050565b600080600080600080600060e0888a031215612b7857600080fd5b8751612b83816127dc565b809750506020808901519650604089015167ffffffffffffffff80821115612baa57600080fd5b818b0191508b601f830112612bbe57600080fd5b815181811115612bd057612bd061281d565b8060051b612bdf858201612833565b918252838101850191858101908f841115612bf957600080fd5b948601945b83861015612c1757855182529486019490860190612bfe565b809b505050505060608b0151965060808b0151925080831115612c3957600080fd5b612c458c848d01612b10565b955060a08b0151945060c08b0151925080831115612c6257600080fd5b5050612c708a828b01612b10565b91505092959891949750929550565b6000600019821415612c9357612c93612a8d565b5060010190565b600082821015612cac57612cac612a8d565b500390565b600082612cce57634e487b7160e01b600052601260045260246000fd5b500490565b6000816000190483118215151615612ced57612ced612a8d565b50029056fea264697066735822122033e6641bf04a8026d57bd7f3f056ee6409f826c593bc41ef236df4d769b040e164736f6c63430008090033",
  "immutableReferences": {},
  "source": "// contracts/Pool.sol\n// SPDX-License-Identifier: MIT\npragma solidity ^0.8.4;\n\nimport \"./../@openzeppelin/contracts-upgradeable/proxy/utils/Initializable.sol\";\nimport \"./../ERC20/ERC20UpgradeableFromERC777Rewardable.sol\";\nimport './../@openzeppelin/contracts-upgradeable/token/ERC20/IERC20Upgradeable.sol';\nimport './../PropTokens/PropToken0.sol';\nimport './../LTVGuidelines.sol';\nimport './../PoolUtils/PoolUtils0.sol';\nimport './../PoolStaking/PoolStaking0.sol';\nimport './../PoolStakingRewards/PoolStakingRewards3.sol';\n\nimport \"./../@openzeppelin/contracts-upgradeable/token/ERC721/IERC721ReceiverUpgradeable.sol\";\nimport './../@openzeppelin/contracts/utils/math/SafeMath.sol';\nimport './../@openzeppelin/contracts/utils/math/SignedSafeMath.sol';\n\n\ncontract Pool12 is Initializable, ERC20UpgradeableFromERC777Rewardable, IERC721ReceiverUpgradeable {\n    using SignedSafeMath for int256;\n    using SafeMath for uint256;\n\n    struct Loan{\n        uint256 loanId;\n        address borrower;\n        uint256 interestRate;\n        uint256 principal;\n        uint256 interestAccrued;\n        uint256 timeLastPayment;\n    }\n\n    address servicer;\n\n    // Address of the ERC-20 contract used as liquidity supply. USDC for now.\n    address ERCAddress;\n\n    address[] servicerAddresses;\n    /* Adding a variable above this line (not reflected in Pool0) will cause contract storage conflicts */\n\n    uint256 poolLent;\n    uint256 poolBorrowed;\n    mapping(address => uint256[]) userLoans;\n    Loan[] loans;\n    uint256 loanCount;\n\n    uint constant servicerFeePercentage = 1000000;\n    uint constant baseInterestPercentage = 1000000;\n    uint constant curveK = 120000000;\n\n    /* Pool1 variables introduced here */\n    string private _name;\n    string private _symbol;\n    mapping(uint256 => uint256) loanToPropToken;\n    address propTokenContractAddress;\n\n    /* Pool2 variables introduced here */\n    address LTVOracleAddress;\n\n    /* Pool3 variables introduced here */\n    address poolUtilsAddress;\n    address baconCoinAddress;\n    address poolStakingAddress;\n\n    /* Pool 8 variables introduced here */\n    address daoAddress;\n\n    /*  Pool 9 variables introduced here\n        storage for nonReentrant modifier\n        modifier and variables could not be imported via inheratance given upgradability rules */\n    uint256 private constant _NOT_ENTERED = 1;\n    uint256 private constant _ENTERED = 2;\n    uint256 private _status;\n\n    /* pool10 variables added here */\n    address poolStakingRewardAddress; // contract responsible for determining the rewards for staking bHome\n\n    /*  Pool 11 variables introduced here */\n    bool airdropLocked;\n\n    /*  Pool 12 variables introduced here */\n    // mapping(address => uint256) accrued;\n\n    // // Rewards tracking\n    // uint256 constant BASE_MASK     = 0xffffffffffffffffffffffff000000000000000000000000;\n    // uint256 constant BALANCE_MASK  = 0x000000000000000000000000ffffffffffffffffffffffff;\n\n    // uint256 constant SHIFT = 2 ** 128;\n    // uint256 constant SECONDS_PER_YEAR = 31104000;\n\n    /**\n     * @dev Prevents a contract from calling itself, directly or indirectly.\n     * Calling a `nonReentrant` function from another `nonReentrant`\n     * function is not supported. It is possible to prevent this from happening\n     * by making the `nonReentrant` function external, and making it call a\n     * `private` function that does the actual work.\n     */\n    modifier nonReentrant() {\n        // On the first call to nonReentrant, _notEntered will be true\n        require(_status != _ENTERED, \"ReentrancyGuard: reentrant call\");\n\n        // Any calls to nonReentrant after this point will fail\n        _status = _ENTERED;\n        _;\n\n        // By storing the original value once again, a refund is triggered (see\n        // https://eips.ethereum.org/EIPS/eip-2200)\n        _status = _NOT_ENTERED;\n    }\n\n    /*****************************************************\n    *       POOL STRUCTURE / UPGRADABILITY FUNCTIONS\n    ******************************************************/\n\n    function initializePool11() public {\n        require(msg.sender == servicer);\n        _name = 'Home';\n        _symbol = 'HOME';\n        airdropLocked = false;\n    }\n\n    function lockAirdorp() public {\n        require(msg.sender == servicer);\n        airdropLocked = true;\n    }\n\n    function passServicerRights(address _servicer) public {\n        require(msg.sender == servicer);\n        servicer = _servicer;\n    }\n\n    function name() public view override returns (string memory) {\n        return _name;\n    }\n\n    function symbol() public view override returns(string memory) {\n        return _symbol;\n    }\n\n    function decimals() public pure override returns(uint8) {\n        return 6;\n    }\n\n    /*****************************************************\n    *                GETTER FUNCTIONS\n    ******************************************************/\n    /**\n    *   @dev Function getContractData() returns a lot of variables about the contract\n    */\n    function getContractData() public view returns (address, address, uint256, uint256, uint256, uint256) {\n        return (servicer, ERCAddress, poolLent, (poolLent + PoolUtils0(poolUtilsAddress).getPoolInterestAccrued()), poolBorrowed, loanCount);\n    }\n\n    /*\n    *   @dev Function getLoanCount() returns how many active loans there are\n    */\n    function getLoanCount() public view returns (uint256) {\n        return loanCount;\n    }\n\n    /**\n    *   @dev Function getSupplyableTokenAddress() returns the contract address of ERC20 this pool accepts (ususally USDC)\n    */\n    function getSupplyableTokenAddress() public view returns (address) {\n        return ERCAddress;\n    }\n\n    /**\n    *   @dev Function getServicerAddress() returns the address of this pool's servicer\n    */\n    function getServicerAddress() public view returns (address) {\n        return servicer;\n    }\n\n    /**\n    *   @dev Function getLoanDetails() returns an all the raw details about a loan\n    *   @param loanId is the id for the loan we're looking up\n    *   EDITED in pool1 to also return PropToken ID\n    */\n    function getLoanDetails(uint256 loanId) public view returns (uint256, address, uint256, uint256, uint256, uint256, uint256) {\n        Loan memory loan = loans[loanId];\n        //temp interestAccrued calculation because this is a read function\n        uint256 interestAccrued = getLoanAccruedInterest(loanId);\n        uint256 propTokenID = loanToPropToken[loanId];\n        return (loan.loanId, loan.borrower, loan.interestRate, loan.principal, interestAccrued, loan.timeLastPayment, propTokenID);\n    }\n\n    /**\n    *   @dev Function getLoanAccruedInterest() calculates and returns the amount of interest accrued on a given loan\n    *   @param loanId is the id for the loan we're looking up\n    */\n    function getLoanAccruedInterest(uint256 loanId) public view returns (uint256) {\n        Loan memory loan = loans[loanId];\n        uint256 secondsSincePayment = block.timestamp.sub(loan.timeLastPayment);\n\n        uint256 interestPerSecond = loan.principal.mul(loan.interestRate).div(31104000);\n        uint256 interestAccrued = interestPerSecond.mul(secondsSincePayment).div(100000000);\n        return interestAccrued.add(loan.interestAccrued);\n    }\n\n\n    /*****************************************************\n    *                LENDING/BORROWING FUNCTIONS\n    ******************************************************/\n\n    /**\n    *   @dev Function lend moves assets on the (probably usdc) contract to our own balance\n    *   - Before calling: an approve(address _spender (proxy), uint256 _value (0xffff)) function call must be made on remote contract\n    *   @param amount The amount of USDC to be transferred\n    *   @return the amount of poolTokens created\n    */\n    function lend(\n        uint256 amount\n    ) public nonReentrant returns (uint256) {\n        IERC20Upgradeable(ERCAddress).transferFrom(msg.sender, address(this), amount);\n\n        poolLent = poolLent.add(amount);\n\n        super._mint(msg.sender, amount);\n\n        return amount;\n    }\n\n    /**\n    *   @dev Function redeem burns the sender's hcPool tokens and transfers the usdc back to them\n    *   @param amount The amount of hc_pool to be redeemed\n    */\n    function redeem(\n        uint256 amount\n    ) public nonReentrant {\n        // check to see if sender has enough bHOME to redeem\n        require(balanceOf(msg.sender) >= amount);\n\n        // check to make sure there is liquidity available in the pool to withdraw\n        require(amount <= (poolLent - poolBorrowed));\n\n        // burn bHOME\n        super._burn(msg.sender, amount);\n\n        // update the amount of liquidity held\n        poolLent = poolLent.sub(amount);\n\n        // send out the USDC\n        IERC20Upgradeable(ERCAddress).transfer(msg.sender, amount);\n    }\n\n    /**\n    *   @dev Function borrow creates a new Loan, moves the USDC to Borrower, and returns the loan ID and fixed Interest Rate\n    *   - Also creates an origination fee for the Servicer in HC_Pool\n    *   @param amount The size of the potential loan in (probably usdc).\n    *   @param maxRate The size of the potential loan in (probably usdc).\n    *   EDITED in pool1 to also require a PropToken\n    *   EDITED in pool1 - borrower param was removed and msg.sender is new recepient of USDC\n    *   EDITED in pool2 - propToken data is oulled and LTV of loan is required before loan can process\n    */\n    function borrow(uint256 amount, uint256 maxRate, uint256 propTokenId) public nonReentrant {\n        //for v2 require this address is approved to transfer propToken\n        require(PropToken0(propTokenContractAddress).getApproved(propTokenId) == address(this), \"pool not approved to move egg\");\n        //also require msg.sender is owner of token\n        require(PropToken0(propTokenContractAddress).ownerOf(propTokenId) == msg.sender, \"msg.sender not egg owner\");\n\n        //check the requested interest rate is still available\n        uint256 fixedInterestRate = uint256(PoolUtils0(poolUtilsAddress).getInterestRate(amount));\n        require(fixedInterestRate <= maxRate, \"interest rate no longer avail\");\n\n        //require the propToken approved has a lien value less than or equal to the requested loan size\n        uint256 lienAmount = PropToken0(propTokenContractAddress).getLienValue(propTokenId);\n        require(lienAmount >= amount, \"loan larger that egg value\");\n\n        //require that LTV of propToken is less than LTV required by oracle\n        uint256 LTVRequirement = LTVGuidelines(LTVOracleAddress).getMaxLTV();\n        (, , uint256[] memory SeniorLiens, uint256 HomeValue, , ,) = PropToken0(propTokenContractAddress).getPropTokenData(propTokenId);\n        for (uint i = 0; i < SeniorLiens.length; i++) {\n            lienAmount = lienAmount.add(SeniorLiens[i]);\n        }\n        require(lienAmount.mul(100).div(HomeValue) < LTVRequirement, \"LTV too high\");\n\n\n        //first take the propToken\n        PropToken0(propTokenContractAddress).safeTransferFrom(msg.sender, address(this), propTokenId);\n\n        //create new Loan\n        Loan memory newLoan = Loan(loanCount, msg.sender, fixedInterestRate, amount, 0, block.timestamp);\n        loans.push(newLoan);\n        userLoans[msg.sender].push(loanCount);\n\n        //map new loanID to Token ID\n        loanToPropToken[loanCount] = propTokenId;\n\n        //update system variables\n        loanCount = loanCount.add(1);\n        poolBorrowed = poolBorrowed.add(amount);\n\n        // Finally move the funds. 99% to the borrower. 0.5% to servicer. 0.5% to DAO.\n        IERC20Upgradeable(ERCAddress).transfer(msg.sender, amount.mul(99).div(100));\n        super._mint(servicer, amount.div(200));\n        super._mint(daoAddress, amount.div(200));\n    }\n\n    /**\n    *   @dev Function repay repays a specific loan\n    *   - payment is first deducted from the interest then principal.\n    *   - the servicer_fee is deducted from the interest repayment and servicer is compensated in hc_pool\n    *   - repayer must have first approved fromsfers on behalf\n    *   @param loanId The loan to be repayed\n    *   @param amount The amount of the ERC20 token to repay the loan with\n    *   EDITED - Pool1 returns propToken when principal reaches 0\n    */\n\n    function repay(uint256 loanId, uint256 amount) public nonReentrant {\n        //interestAmountRepayed keeps track of how much of the loan was returned to the pool to calculate servicer fee(treated as cash investment)\n        uint256 interestAmountRepayed = amount;\n\n        uint256 currentInterest = getLoanAccruedInterest(loanId);\n        if(currentInterest > amount) {\n            //if the payment is less than the interest accrued on the loan, just deduct amount from interest\n            //deduct amount FIRST (to make sure they have available balance), then reduce loan amount\n            IERC20Upgradeable(ERCAddress).transferFrom(msg.sender, address(this), amount);\n            loans[loanId].interestAccrued = currentInterest.sub(amount);\n        } else {\n            //if the amount borrow is repaying is greater than interest accrued, deduct the rest from principal\n            interestAmountRepayed = currentInterest;\n            uint256 amountAfterInterest = amount.sub(currentInterest);\n\n            if(loans[loanId].principal > amountAfterInterest) {\n                //deduct amount from Borrower and reduce the principal\n                IERC20Upgradeable(ERCAddress).transferFrom(msg.sender, address(this), amount);\n\n                //return the repayed principal to the 'borrowable' amount\n                poolBorrowed = poolBorrowed.sub(amountAfterInterest);\n                loans[loanId].principal = loans[loanId].principal.sub(amountAfterInterest);\n            } else {\n                //deduct totalLoanValue\n                uint256 totalLoanValue = loans[loanId].principal.add(currentInterest);\n                IERC20Upgradeable(ERCAddress).transferFrom(msg.sender, address(this), totalLoanValue);\n\n                //return the repayed principal to the 'borrowable' amount\n                poolBorrowed = poolBorrowed.sub(loans[loanId].principal);\n                loans[loanId].principal = 0;\n\n                //Send PropToken back to borrower\n                PropToken0(propTokenContractAddress).safeTransferFrom(address(this), loans[loanId].borrower, loanToPropToken[loanId]);\n            }\n\n            //set interest accrued to 0 AFTER successful erc20 transfer\n            loans[loanId].interestAccrued = 0;\n        }\n\n        //last payment timestamp is only updated AFTER  successful erc20 transfer\n        loans[loanId].timeLastPayment = block.timestamp;\n\n        // Treat repayed interest as new money Lent into the pool\n        poolLent = poolLent.add(interestAmountRepayed);\n\n        //servicer fee is treated as cash investment in the pool as the percentage interest\n        //calculate how much of payment goes to servicer here\n        uint256 servicerFeeInERC = servicerFeePercentage.mul(interestAmountRepayed).div(loans[loanId].interestRate);\n\n        // Mint bHOME proportional to the payment and distribute\n        super._mint(servicer, servicerFeeInERC.div(2));\n        super._mint(daoAddress, servicerFeeInERC.div(2));\n\n        // Send the remaining interest to the DAO for now\n        super._mint(daoAddress, interestAmountRepayed.sub(servicerFeeInERC));\n    }\n\n    /*****************************************************\n    *                Staking FUNCTIONS\n    ******************************************************/\n\n    /**\n    *   @dev Function stake transfers users bHOME to the poolStaking contract\n    */\n    function stake(uint256 amount) public returns (bool) {\n        require(balanceOf(msg.sender) >= amount, \"not enough to stake\");\n\n        transfer(poolStakingAddress, amount);\n        bool successfulStake = PoolStakingRewards3(poolStakingRewardAddress).stake(msg.sender, amount);\n        require(successfulStake, \"Stake failed\");\n\n        return successfulStake;\n    }\n\n    /**\n    *   @dev Function lendAndStake calls both the Lend and Stake functions in one call\n    *   @param amount is amount of USDC to be deposited\n    *   @return the bool from stake that reprents successful stake\n    */\n    function lendAndStake(uint256 amount) public returns (bool) {\n        uint256 newPoolTokens = lend(amount);\n        return stake(newPoolTokens);\n    }\n\n    /**\n    *   @dev Function getVersion returns current upgraded version\n    */\n    function getVersion() public pure returns (uint) {\n        return 11;\n    }\n\n    function onERC721Received(address, address, uint256, bytes memory ) public pure override returns (bytes4) {\n        return this.onERC721Received.selector;\n    }\n\n    function claimRewards() public returns (uint256) {\n        // 1% Rewards [div by 100]\n        uint256 unstakedRewards = super.getAndClearReward(msg.sender).div(100);\n\n        uint256 stakedRewards = PoolStakingRewards3(poolStakingRewardAddress).getAndClearReward(msg.sender).div(100);\n\n        uint256 rewards = unstakedRewards + stakedRewards;\n\n        super._transfer(daoAddress, msg.sender, rewards);\n\n        return rewards;\n    }\n\n    /**\n    * @dev Function burn burns bHOME\n    * @param amount is the amount of bHOME to burn\n    */\n    function burn(uint256 amount) public {\n        super._burn(msg.sender, amount);\n    }\n\n}\n",
  "sourcePath": "/Users/patrick/github/HomeDAO/contracts/PoolCore/Pool12.sol",
  "compiler": {
    "name": "solc",
    "version": "0.8.9+commit.e5eed63a.Emscripten.clang"
  },
  "schemaVersion": "3.4.8",
  "updatedAt": "2022-08-10T01:41:49.970Z",
  "devdoc": {
    "kind": "dev",
    "methods": {
      "allowance(address,address)": {
        "details": "See {IERC20-allowance}."
      },
      "approve(address,uint256)": {
        "details": "See {IERC20-approve}. Requirements: - `spender` cannot be the zero address."
      },
      "balanceOf(address)": {
        "details": "See {IERC20-balanceOf}."
      },
      "borrow(uint256,uint256,uint256)": {
        "details": "Function borrow creates a new Loan, moves the USDC to Borrower, and returns the loan ID and fixed Interest Rate   - Also creates an origination fee for the Servicer in HC_Pool",
        "params": {
          "amount": "The size of the potential loan in (probably usdc).",
          "maxRate": "The size of the potential loan in (probably usdc).   EDITED in pool1 to also require a PropToken   EDITED in pool1 - borrower param was removed and msg.sender is new recepient of USDC   EDITED in pool2 - propToken data is oulled and LTV of loan is required before loan can process"
        }
      },
      "burn(uint256)": {
        "details": "Function burn burns bHOME",
        "params": {
          "amount": "is the amount of bHOME to burn"
        }
      },
      "decimals()": {
        "details": "Returns the number of decimals used to get its user representation. For example, if `decimals` equals `2`, a balance of `505` tokens should be displayed to a user as `5.05` (`505 / 10 ** 2`). Tokens usually opt for a value of 18, imitating the relationship between Ether and Wei. This is the value {ERC20} uses, unless this function is overridden; NOTE: This information is only used for _display_ purposes: it in no way affects any of the arithmetic of the contract, including {IERC20-balanceOf} and {IERC20-transfer}."
      },
      "decreaseAllowance(address,uint256)": {
        "details": "Atomically decreases the allowance granted to `spender` by the caller. This is an alternative to {approve} that can be used as a mitigation for problems described in {IERC20-approve}. Emits an {Approval} event indicating the updated allowance. Requirements: - `spender` cannot be the zero address. - `spender` must have allowance for the caller of at least `subtractedValue`."
      },
      "getContractData()": {
        "details": "Function getContractData() returns a lot of variables about the contract"
      },
      "getLoanAccruedInterest(uint256)": {
        "details": "Function getLoanAccruedInterest() calculates and returns the amount of interest accrued on a given loan",
        "params": {
          "loanId": "is the id for the loan we're looking up"
        }
      },
      "getLoanDetails(uint256)": {
        "details": "Function getLoanDetails() returns an all the raw details about a loan",
        "params": {
          "loanId": "is the id for the loan we're looking up   EDITED in pool1 to also return PropToken ID"
        }
      },
      "getServicerAddress()": {
        "details": "Function getServicerAddress() returns the address of this pool's servicer"
      },
      "getSupplyableTokenAddress()": {
        "details": "Function getSupplyableTokenAddress() returns the contract address of ERC20 this pool accepts (ususally USDC)"
      },
      "getVersion()": {
        "details": "Function getVersion returns current upgraded version"
      },
      "increaseAllowance(address,uint256)": {
        "details": "Atomically increases the allowance granted to `spender` by the caller. This is an alternative to {approve} that can be used as a mitigation for problems described in {IERC20-approve}. Emits an {Approval} event indicating the updated allowance. Requirements: - `spender` cannot be the zero address."
      },
      "lend(uint256)": {
        "details": "Function lend moves assets on the (probably usdc) contract to our own balance   - Before calling: an approve(address _spender (proxy), uint256 _value (0xffff)) function call must be made on remote contract",
        "params": {
          "amount": "The amount of USDC to be transferred"
        },
        "returns": {
          "_0": "the amount of poolTokens created"
        }
      },
      "lendAndStake(uint256)": {
        "details": "Function lendAndStake calls both the Lend and Stake functions in one call",
        "params": {
          "amount": "is amount of USDC to be deposited"
        },
        "returns": {
          "_0": "the bool from stake that reprents successful stake"
        }
      },
      "name()": {
        "details": "Returns the name of the token."
      },
      "redeem(uint256)": {
        "details": "Function redeem burns the sender's hcPool tokens and transfers the usdc back to them",
        "params": {
          "amount": "The amount of hc_pool to be redeemed"
        }
      },
      "repay(uint256,uint256)": {
        "details": "Function repay repays a specific loan   - payment is first deducted from the interest then principal.   - the servicer_fee is deducted from the interest repayment and servicer is compensated in hc_pool   - repayer must have first approved fromsfers on behalf",
        "params": {
          "amount": "The amount of the ERC20 token to repay the loan with   EDITED - Pool1 returns propToken when principal reaches 0",
          "loanId": "The loan to be repayed"
        }
      },
      "stake(uint256)": {
        "details": "Function stake transfers users bHOME to the poolStaking contract"
      },
      "symbol()": {
        "details": "Returns the symbol of the token, usually a shorter version of the name."
      },
      "totalSupply()": {
        "details": "See {IERC20-totalSupply}."
      },
      "transfer(address,uint256)": {
        "details": "See {IERC20-transfer}. Requirements: - `recipient` cannot be the zero address. - the caller must have a balance of at least `amount`."
      },
      "transferFrom(address,address,uint256)": {
        "details": "See {IERC20-transferFrom}. Emits an {Approval} event indicating the updated allowance. This is not required by the EIP. See the note at the beginning of {ERC20}. Requirements: - `sender` and `recipient` cannot be the zero address. - `sender` must have a balance of at least `amount`. - the caller must have allowance for ``sender``'s tokens of at least `amount`."
      }
    },
    "version": 1
  },
  "userdoc": {
    "kind": "user",
    "methods": {},
    "version": 1
  }
}