{
  "contractName": "PoolStaking2",
  "abi": [
    {
      "inputs": [
        {
          "internalType": "uint256",
          "name": "_unstakingLockupBlockDelta",
          "type": "uint256"
        }
      ],
      "name": "setUnstakingLockupBlockDelta",
      "outputs": [],
      "stateMutability": "nonpayable",
      "type": "function"
    },
    {
      "inputs": [
        {
          "internalType": "uint256",
          "name": "_oneYearBlock",
          "type": "uint256"
        }
      ],
      "name": "setOneYearBlock",
      "outputs": [],
      "stateMutability": "nonpayable",
      "type": "function"
    },
    {
      "inputs": [
        {
          "internalType": "uint256",
          "name": "_stakeAfterBlock",
          "type": "uint256"
        }
      ],
      "name": "setstakeAfterBlock",
      "outputs": [],
      "stateMutability": "nonpayable",
      "type": "function"
    },
    {
      "inputs": [
        {
          "internalType": "address",
          "name": "_baconCoinAddress",
          "type": "address"
        }
      ],
      "name": "setBaconAddress",
      "outputs": [],
      "stateMutability": "nonpayable",
      "type": "function"
    },
    {
      "inputs": [
        {
          "internalType": "address",
          "name": "_DAOAddress",
          "type": "address"
        }
      ],
      "name": "setDAOAddress",
      "outputs": [],
      "stateMutability": "nonpayable",
      "type": "function"
    },
    {
      "inputs": [
        {
          "internalType": "address",
          "name": "_guardianAddress",
          "type": "address"
        }
      ],
      "name": "setGuardianAddress",
      "outputs": [],
      "stateMutability": "nonpayable",
      "type": "function"
    },
    {
      "inputs": [],
      "name": "version",
      "outputs": [
        {
          "internalType": "uint256",
          "name": "",
          "type": "uint256"
        }
      ],
      "stateMutability": "pure",
      "type": "function"
    },
    {
      "inputs": [],
      "name": "getContractInfo",
      "outputs": [
        {
          "internalType": "uint256",
          "name": "",
          "type": "uint256"
        },
        {
          "internalType": "uint256",
          "name": "",
          "type": "uint256"
        },
        {
          "internalType": "address",
          "name": "",
          "type": "address"
        },
        {
          "internalType": "address",
          "name": "",
          "type": "address"
        },
        {
          "internalType": "address",
          "name": "",
          "type": "address"
        },
        {
          "internalType": "address[]",
          "name": "",
          "type": "address[]"
        },
        {
          "internalType": "uint256",
          "name": "",
          "type": "uint256"
        },
        {
          "internalType": "uint256",
          "name": "",
          "type": "uint256"
        },
        {
          "internalType": "uint256",
          "name": "",
          "type": "uint256"
        }
      ],
      "stateMutability": "view",
      "type": "function"
    },
    {
      "inputs": [
        {
          "internalType": "address",
          "name": "_holderAddress",
          "type": "address"
        }
      ],
      "name": "getPendingWithdrawInfo",
      "outputs": [
        {
          "internalType": "uint256",
          "name": "",
          "type": "uint256"
        },
        {
          "internalType": "uint256",
          "name": "",
          "type": "uint256"
        },
        {
          "internalType": "uint256",
          "name": "",
          "type": "uint256"
        }
      ],
      "stateMutability": "view",
      "type": "function"
    },
    {
      "inputs": [
        {
          "internalType": "address",
          "name": "wallet",
          "type": "address"
        }
      ],
      "name": "getUserLastDistributed",
      "outputs": [
        {
          "internalType": "uint256",
          "name": "",
          "type": "uint256"
        }
      ],
      "stateMutability": "view",
      "type": "function"
    },
    {
      "inputs": [
        {
          "internalType": "address",
          "name": "wallet",
          "type": "address"
        },
        {
          "internalType": "uint256",
          "name": "amount",
          "type": "uint256"
        }
      ],
      "name": "stake",
      "outputs": [
        {
          "internalType": "bool",
          "name": "",
          "type": "bool"
        }
      ],
      "stateMutability": "nonpayable",
      "type": "function"
    },
    {
      "inputs": [
        {
          "internalType": "address",
          "name": "wallet",
          "type": "address"
        }
      ],
      "name": "distribute",
      "outputs": [
        {
          "internalType": "uint256",
          "name": "",
          "type": "uint256"
        }
      ],
      "stateMutability": "nonpayable",
      "type": "function"
    },
    {
      "inputs": [
        {
          "internalType": "address",
          "name": "wallet",
          "type": "address"
        }
      ],
      "name": "checkStaked",
      "outputs": [
        {
          "internalType": "uint256",
          "name": "",
          "type": "uint256"
        }
      ],
      "stateMutability": "view",
      "type": "function"
    },
    {
      "inputs": [
        {
          "internalType": "uint256",
          "name": "amount",
          "type": "uint256"
        }
      ],
      "name": "unstake",
      "outputs": [
        {
          "internalType": "uint256",
          "name": "",
          "type": "uint256"
        }
      ],
      "stateMutability": "nonpayable",
      "type": "function"
    },
    {
      "inputs": [
        {
          "internalType": "uint256",
          "name": "amount",
          "type": "uint256"
        }
      ],
      "name": "withdraw",
      "outputs": [
        {
          "internalType": "uint256",
          "name": "",
          "type": "uint256"
        }
      ],
      "stateMutability": "nonpayable",
      "type": "function"
    },
    {
      "inputs": [],
      "name": "getEvents",
      "outputs": [
        {
          "internalType": "uint256[]",
          "name": "",
          "type": "uint256[]"
        },
        {
          "internalType": "uint256[]",
          "name": "",
          "type": "uint256[]"
        }
      ],
      "stateMutability": "view",
      "type": "function"
    }
  ],
  "bytecode": "0x608060405234801561001057600080fd5b50611540806100206000396000f3fe608060405234801561001057600080fd5b50600436106101005760003560e01c80637363302411610097578063adc9772e11610066578063adc9772e1461026a578063b8160d741461028d578063dbe0090c146102a0578063f3e0ae5d146102b357600080fd5b806373633024146101fe5780637cc1f86714610211578063965afa891461022e578063a68d66d11461024157600080fd5b80632e1a7d4d116100d35780632e1a7d4d146101bb578063404aa8f9146101ce57806354fd4d50146101e457806363453ae1146101eb57600080fd5b80630b8fe31814610105578063247f8e141461011a5780632a99fbff146101565780632e17de78146101a8575b600080fd5b6101186101133660046112df565b6102c6565b005b610143610128366004611314565b6001600160a01b03166000908152600a602052604090205490565b6040519081526020015b60405180910390f35b61018d610164366004611314565b6001600160a01b03166000908152600e602052604090208054600190910154600f549192909190565b6040805193845260208401929092529082015260600161014d565b6101436101b63660046112df565b61031e565b6101436101c93660046112df565b6104e3565b6101d6610694565b60405161014d92919061136a565b6002610143565b6101436101f9366004611314565b610747565b61011861020c3660046112df565b610c73565b610219610cc6565b60405161014d99989796959493929190611398565b61011861023c366004611314565b610da1565b61014361024f366004611314565b6001600160a01b03166000908152600b602052604090205490565b61027d610278366004611429565b610e3c565b604051901515815260200161014d565b61011861029b3660046112df565b610ea4565b6101186102ae366004611314565b610ef7565b6101186102c1366004611314565b610f92565b6002546001600160a01b031633146103195760405162461bcd60e51b81526020600482015260116024820152703ab730b8383937bb32b21039b2b73232b960791b60448201526064015b60405180910390fd5b600c55565b336000908152600e6020908152604080832060010154600a909252822054610346848361100f565b11156103945760405162461bcd60e51b815260206004820152601160248201527f6e6f7420656e6f756768207374616b65640000000000000000000000000000006044820152606401610310565b60405180604001604052806103b4600d544361100f90919063ffffffff16565b81526020016103c3858461100f565b9052336000908152600e6020908152604090912082518155910151600190910155600f546103f1908461100f565b600f55336000908152600a602052604081205461040e908561101b565b336000908152600a602052604090205460095491925061042e919061101b565b600955600061043c33610747565b336000908152600a6020526040812055905081156104645761045e3383611027565b506104db565b600680546001818101909255437ff652222313e28459528d920b65115c16c04f3efc82aaedc97be59f3f377c0d3f909101556009546007805480840182556000919091527fa66cc928b5edb82af9bd49922954155ab7b0942694bea4ce44661d9a8736c68801556008546104d79161100f565b6008555b949350505050565b336000908152600e60209081526040808320815180830190925280548252600101549181018290529083111561055b5760405162461bcd60e51b815260206004820152601b60248201527f6e6f7420656e6f7567682070656e64696e6720776974686472617700000000006044820152606401610310565b805143116105ab5760405162461bcd60e51b815260206004820152601460248201527f756e7374616b65207374696c6c206c6f636b65640000000000000000000000006044820152606401610310565b60208101516000906105bd908561101b565b336000908152600e60205260409020600101819055600f549091506105e2908561101b565b600f55600580546000906105f8576105f8611453565b60009182526020822001546040517f9bd9bbc6000000000000000000000000000000000000000000000000000000008152336004820152602481018790526060604482015260648101929092526001600160a01b031690639bd9bbc690608401600060405180830381600087803b15801561067257600080fd5b505af1158015610686573d6000803e3d6000fd5b506000979650505050505050565b60608060066007818054806020026020016040519081016040528092919081815260200182805480156106e657602002820191906000526020600020905b8154815260200190600101908083116106d2575b505050505091508080548060200260200160405190810160405280929190818152602001828054801561073857602002820191906000526020600020905b815481526020019060010190808311610724575b50505050509050915091509091565b6001600160a01b0381166000908152600a602052604081205415801561077b57506002546001600160a01b03838116911614155b801561079557506003546001600160a01b03838116911614155b156107a257506000919050565b6001600160a01b038083166000818152600b602052604081205460035491939092849283921614156107ff576107d8834361147f565b91506107ec8267f9ccd8a1c508000061116e565b90506107f88185611496565b9350610850565b6002546001600160a01b03878116911614156108405761081f834361147f565b91506108348268021d3bd55e803c000061116e565b93506107f88185611496565b6001548310156108505760015492505b6001600160a01b0386166000908152600a60205260409020548015610bc55760005b600854811015610a6157846006828154811061089057610890611453565b90600052602060002001541115610a4f5784600682815481106108b5576108b5611453565b90600052602060002001546108ca919061147f565b9350600c54600682815481106108e2576108e2611453565b9060005260206000200154101561094957610942600761090360018461147f565b8154811061091357610913611453565b60009182526020909120015461093c846109368868056bc75e2d6310000061116e565b9061116e565b9061117a565b9250610a22565b600c548510156109bd57600085600c54610963919061147f565b90506109a8600761097560018561147f565b8154811061098557610985611453565b60009182526020909120015461093c856109368568056bc75e2d6310000061116e565b93506109b4878561100f565b9650600c549550505b60006109e686600684815481106109d6576109d6611453565b9060005260206000200154611186565b9050610a1e60076109f860018561147f565b81548110610a0857610a08611453565b60009182526020909120015461093c838661116e565b9350505b610a2c868461100f565b955060068181548110610a4157610a41611453565b906000526020600020015494505b80610a59816114ae565b915050610872565b50438414158015610a7157504384105b15610bc557600c5484108015610a885750600c5443105b15610ae757610a97844361147f565b9250610ae060076001600854610aad919061147f565b81548110610abd57610abd611453565b60009182526020909120015461093c836109368768056bc75e2d6310000061116e565b9150610bb8565b600c5484108015610af95750600c5443115b15610b6c57600084600c54610b0e919061147f565b9050610b5760076001600854610b24919061147f565b81548110610b3457610b34611453565b60009182526020909120015461093c846109368568056bc75e2d6310000061116e565b9250610b63868461100f565b9550600c549450505b6000610b788543611186565b9050610bb460076001600854610b8e919061147f565b81548110610b9e57610b9e611453565b60009182526020909120015461093c838561116e565b9250505b610bc2858361100f565b94505b6001600160a01b0387166000908152600b602052604090204390558415610c6857600480546040517f40c10f190000000000000000000000000000000000000000000000000000000081526001600160a01b038a811693820193909352602481018890529116906340c10f1990604401600060405180830381600087803b158015610c4f57600080fd5b505af1158015610c63573d6000803e3d6000fd5b505050505b509295945050505050565b6002546001600160a01b03163314610cc15760405162461bcd60e51b81526020600482015260116024820152703ab730b8383937bb32b21039b2b73232b960791b6044820152606401610310565b600155565b600080600080600060606000806000600154600c54600260009054906101000a90046001600160a01b0316600360009054906101000a90046001600160a01b0316600460009054906101000a90046001600160a01b03166005600854600954600f5483805480602002602001604051908101604052809291908181526020018280548015610d7d57602002820191906000526020600020905b81546001600160a01b03168152600190910190602001808311610d5f575b50505050509350985098509850985098509850985098509850909192939495969798565b6002546001600160a01b03163314610def5760405162461bcd60e51b81526020600482015260116024820152703ab730b8383937bb32b21039b2b73232b960791b6044820152606401610310565b600380546001600160a01b039081166000908152600b6020526040808220549490921680825291902092909255805473ffffffffffffffffffffffffffffffffffffffff19169091179055565b6000610e4733611242565b610e935760405162461bcd60e51b815260206004820152600f60248201527f73656e646572206e6f7420506f6f6c00000000000000000000000000000000006044820152606401610310565b610e9d8383611027565b9392505050565b6002546001600160a01b03163314610ef25760405162461bcd60e51b81526020600482015260116024820152703ab730b8383937bb32b21039b2b73232b960791b6044820152606401610310565b600d55565b6002546001600160a01b03163314610f455760405162461bcd60e51b81526020600482015260116024820152703ab730b8383937bb32b21039b2b73232b960791b6044820152606401610310565b600280546001600160a01b039081166000908152600b6020526040808220549490921680825291902092909255805473ffffffffffffffffffffffffffffffffffffffff19169091179055565b6002546001600160a01b03163314610fe05760405162461bcd60e51b81526020600482015260116024820152703ab730b8383937bb32b21039b2b73232b960791b6044820152606401610310565b6004805473ffffffffffffffffffffffffffffffffffffffff19166001600160a01b0392909216919091179055565b6000610e9d8284611496565b6000610e9d828461147f565b6001600160a01b0382166000908152600a602052604081205415158061105a57506002546001600160a01b038481169116145b8061107257506003546001600160a01b038481169116145b156110865761108083610747565b506110a2565b6001600160a01b0383166000908152600b602052604090204390555b6001600160a01b0383166000908152600a60205260409020546110c5908361100f565b6001600160a01b0384166000908152600a60205260409020556009546110eb908361100f565b6009908155600680546001818101909255437ff652222313e28459528d920b65115c16c04f3efc82aaedc97be59f3f377c0d3f9091015590546007805480840182556000919091527fa66cc928b5edb82af9bd49922954155ab7b0942694bea4ce44661d9a8736c68801556008546111629161100f565b60085550600192915050565b6000610e9d82846114c9565b6000610e9d82846114e8565b600061119d600c548461101b90919063ffffffff16565b92506111b4600c548361101b90919063ffffffff16565b915060006111c66032610936856112a1565b905060006111d86032610936876112a1565b905060006111f6670de0b6b3a7640000670de0b67f6e119d0061101b565b905060006112108261093c86670de0b6b3a764000061116e565b9050600061122a8361093c86670de0b6b3a764000061116e565b9050611236828261101b565b98975050505050505050565b600080805b60055481101561129a576005818154811061126457611264611453565b6000918252602090912001546001600160a01b038581169116141561128857600191505b80611292816114ae565b915050611247565b5092915050565b60006402540bdb3d815b8381101561129a576112cb6402540becc361093c846402540be40061116e565b9150806112d7816114ae565b9150506112ab565b6000602082840312156112f157600080fd5b5035919050565b80356001600160a01b038116811461130f57600080fd5b919050565b60006020828403121561132657600080fd5b610e9d826112f8565b600081518084526020808501945080840160005b8381101561135f57815187529582019590820190600101611343565b509495945050505050565b60408152600061137d604083018561132f565b828103602084015261138f818561132f565b95945050505050565b89815260208082018a90526001600160a01b0389811660408401528881166060840152878116608084015261012060a08401819052875190840181905260009261014085019289820192855b818110156114025784518316865294830194938301936001016113e4565b505050505060c08301959095525060e0810192909252610100909101529695505050505050565b6000806040838503121561143c57600080fd5b611445836112f8565b946020939093013593505050565b634e487b7160e01b600052603260045260246000fd5b634e487b7160e01b600052601160045260246000fd5b60008282101561149157611491611469565b500390565b600082198211156114a9576114a9611469565b500190565b60006000198214156114c2576114c2611469565b5060010190565b60008160001904831182151516156114e3576114e3611469565b500290565b60008261150557634e487b7160e01b600052601260045260246000fd5b50049056fea2646970667358221220a8a10b7e90bae9967e761d24c13a4e3c5aff25c47b7b084e3233cb31ef3f6e4d64736f6c63430008090033",
  "immutableReferences": {},
  "source": "// SPDX-License-Identifier: GPL-3.0-or-later\npragma solidity ^0.8.4;\n\nimport \"../@openzeppelin/contracts-upgradeable/proxy/utils/Initializable.sol\";\nimport \"../@openzeppelin/contracts-upgradeable/token/ERC777/ERC777Upgradeable.sol\";\nimport './../BaconCoin/BaconCoin0.sol';\n\n\nimport '../@openzeppelin/contracts/utils/math/SafeMath.sol';\nimport '../@openzeppelin/contracts/utils/math/SignedSafeMath.sol';\n\n// Forked from Compound\n// See https://github.com/compound-finance/compound-protocol/blob/master/contracts/Timelock.sol\ncontract PoolStaking2 is Initializable {\n    using SignedSafeMath for int256;\n    using SafeMath for uint256;\n\n    uint256 constant PER_BLOCK_DECAY = 9999997757;\n    uint256 constant PER_BLOCK_DECAY_18_DECIMALS = 999999775700000000;\n    uint256 constant PER_BLOCK_DECAY_INVERSE = 10000002243;\n    uint256 constant GUARDIAN_REWARD = 39e18;\n    uint256 constant DAO_REWARD = 18e18;\n    uint256 constant COMMUNITY_REWARD = 50e18;\n    uint256 constant COMMUNITY_REWARD_BONUS = 100e18;\n\n    uint256 stakeAfterBlock;\n    address guardianAddress;\n    address daoAddress;\n    address baconCoinAddress;\n    address[] poolAddresses;\n\n    uint256[] updateEventBlockNumber;\n    uint256[] updateEventNewAmountStaked;\n    uint256 updateEventCount;\n    uint256 currentStakedAmount;\n\n    mapping(address => uint256) userStaked;\n    mapping(address => uint256) userLastDistribution;\n\n    uint256 oneYearBlock;\n\n    struct UnstakeRecord {\n        uint256 endBlock;\n        uint256 amount;\n    }\n\n    // PoolStaking2 storage\n    uint256 unstakingLockupBlockDelta;\n    mapping(address => UnstakeRecord) userToUnstake;\n    uint256 pendingWithdrawalAmount;\n\n    // TODO: maybe this should just be a normal setter like the rest in this block...\n    function setUnstakingLockupBlockDelta(uint256 _unstakingLockupBlockDelta) public {\n        require(msg.sender == guardianAddress, \"unapproved sender\");\n        unstakingLockupBlockDelta = _unstakingLockupBlockDelta;\n    }\n\n    function setOneYearBlock(uint256 _oneYearBlock) public {\n        require(msg.sender == guardianAddress, \"unapproved sender\");\n        oneYearBlock = _oneYearBlock;\n    }\n\n    function setstakeAfterBlock(uint256 _stakeAfterBlock) public {\n        require(msg.sender == guardianAddress, \"unapproved sender\");\n        stakeAfterBlock = _stakeAfterBlock;\n    }\n\n    // To be called after baconCoin0 is deployed\n    function setBaconAddress(address _baconCoinAddress) public {\n        require(msg.sender == guardianAddress, \"unapproved sender\");\n        baconCoinAddress = _baconCoinAddress;\n    }\n\n    // To be called after baconCoin0 is deployed\n    function setDAOAddress(address _DAOAddress) public {\n        require(msg.sender == guardianAddress, \"unapproved sender\");\n        userLastDistribution[_DAOAddress] =  userLastDistribution[daoAddress];\n        daoAddress = _DAOAddress;\n    }\n\n    function setGuardianAddress(address _guardianAddress) public {\n        require(msg.sender == guardianAddress, \"unapproved sender\");\n        userLastDistribution[_guardianAddress] =  userLastDistribution[guardianAddress];\n        guardianAddress = _guardianAddress;\n    }\n\n    /**  \n    *   @dev Function version returns uint depending on what version the contract is on\n    */\n    function version() public pure returns (uint) {\n        return 2;\n    }\n\n    function getContractInfo() public view returns (uint256, uint256, address, address, address, address  [] memory, uint256, uint256, uint256) {\n        return (\n            stakeAfterBlock,\n            oneYearBlock,\n            guardianAddress,\n            daoAddress,\n            baconCoinAddress,\n            poolAddresses,\n            updateEventCount,\n            currentStakedAmount,\n            pendingWithdrawalAmount\n        );\n    }\n\n    function getPendingWithdrawInfo(address _holderAddress) public view returns(uint256, uint256, uint256) {\n        return (\n            userToUnstake[_holderAddress].endBlock,\n            userToUnstake[_holderAddress].amount,\n            pendingWithdrawalAmount\n        );\n    }\n\n    function getUserLastDistributed(address wallet) public view returns (uint256) {\n        return (userLastDistribution[wallet]);\n    }\n\n    /** \n    *   @dev Function isApprovedPool() is an internal function that checks the array of approved pool addresses for the given address\n    *   @param _address The address to be checked if it is approved\n    *   @return isApproved is if the _addess is found in the list of servicerAddresses\n    */\n    function isApprovedPool(address _address) internal view returns (bool) {\n        bool isApproved = false;\n        \n        for (uint i = 0; i < poolAddresses.length; i++) {\n            if(_address == poolAddresses[i]) {\n                isApproved = true;\n            }\n        }\n\n        return isApproved;\n    }\n\n    /*****************************************************\n    *       Staking FUNCTIONS\n    ******************************************************/\n\n    /**\n    *   @dev function stake accepts an amount of bHOME to be staked and creates a new updateEvent for it\n    */\n    function stake(address wallet, uint256 amount) public returns (bool) {\n        require(isApprovedPool(msg.sender), \"sender not Pool\");\n\n        return stakeInternal(wallet, amount);\n    }\n\n    \n    function stakeInternal(address wallet, uint256 amount) internal returns (bool) {\n        //First handle the case where this is a first staking\n        if(userStaked[wallet] != 0 || wallet == guardianAddress || wallet == daoAddress) {\n            distribute(wallet);\n        } else {\n            userLastDistribution[wallet] = block.number;\n        }\n\n        userStaked[wallet] = userStaked[wallet].add(amount);\n        currentStakedAmount = currentStakedAmount.add(amount);\n        updateEventBlockNumber.push(block.number);\n        updateEventNewAmountStaked.push(currentStakedAmount);\n        updateEventCount = updateEventCount.add(1);\n\n        return true;\n    }\n\n    function decayExponent(uint256 exponent) internal pure returns (uint256) {\n        //10 decimals\n        uint256 answer = PER_BLOCK_DECAY;\n        for (uint256 i = 0; i < exponent; i++) {\n            answer = answer.mul(10000000000).div(PER_BLOCK_DECAY_INVERSE);\n        }\n\n        return answer;\n    }\n\n    function calcBaconBetweenEvents(uint256 blockX, uint256 blockY) internal view returns (uint256) {\n        //bacon per block after first year is\n        //y=50(1-0.000000224337829)^{x}\n        //where x is number of blocks over 15651074\n\n        //Bacon accumulated between two blocksover first year is:\n        //S(x,y) = S(y) - S(x) = (A1(1-r^y) / (1-r)) - (A1(1-r^x) / (1-r))\n        //where A1 = 50 and r = 0.9999997757\n\n        //1 year block subtracted from block numbers passed in since formula only cares about change in time since that point\n        blockX = blockX.sub(oneYearBlock);\n        blockY = blockY.sub(oneYearBlock);\n\n        uint256 SyNumer = decayExponent(blockY).mul(50);\n        uint256 SxNumer = decayExponent(blockX).mul(50);\n        uint256 denom = uint256(1000000000000000000).sub(PER_BLOCK_DECAY_18_DECIMALS);\n\n        uint256 Sy = SyNumer.mul(1000000000000000000).div(denom);\n        uint256 Sx = SxNumer.mul(1000000000000000000).div(denom);\n\n        return Sy.sub(Sx);\n    }\n\n\n    /**\n    *   @dev function distribute accepts a wallet address and transfers the BaconCoin accrued to their wallet since the user's Last Distribution\n    */\n    function distribute(address wallet) public returns (uint256) {\n\n        if (userStaked[wallet] == 0 && wallet != guardianAddress && wallet != daoAddress) {\n            return 0;\n        }\n\n        uint256 accruedBacon = 0;\n        uint256 countingBlock = userLastDistribution[wallet];\n\n        uint256 blockDifference = 0;\n        uint256 tempAccruedBacon = 0;\n\n        if(wallet == daoAddress) {\n            blockDifference = block.number - countingBlock;\n            tempAccruedBacon = blockDifference.mul(DAO_REWARD);\n            accruedBacon += tempAccruedBacon;\n        } else if (wallet == guardianAddress) {\n            blockDifference = block.number - countingBlock;\n            accruedBacon = blockDifference.mul(GUARDIAN_REWARD);\n            accruedBacon += tempAccruedBacon;\n        } else if (countingBlock < stakeAfterBlock) {\n            countingBlock = stakeAfterBlock;\n        }\n\n        uint256 usersCurrentStake = userStaked[wallet];\n        if (usersCurrentStake != 0) {\n            //iterate through the array of update events\n            for (uint256 i = 0; i < updateEventCount; i++) {\n                //only accrue bacon if event is after last withdraw\n                if (updateEventBlockNumber[i] > countingBlock) {\n                    blockDifference = updateEventBlockNumber[i] - countingBlock;\n                    \n                    if(updateEventBlockNumber[i] < oneYearBlock) {\n                        //calculate bacon accrued if update event is within the first year\n                        //use updateEventNewAmountStaked[i-1] because that is the \n                        tempAccruedBacon = blockDifference.mul(COMMUNITY_REWARD_BONUS).mul(usersCurrentStake).div(updateEventNewAmountStaked[i-1]);\n                    } else {\n                        //calculate bacon accrued if update event is past the first year\n                        if(countingBlock < oneYearBlock) {\n                            //calculate the bacon accrued at the end of the first year if overlapped with first year\n                            uint256 blocksLeftInFirstYear = oneYearBlock - countingBlock;\n                            tempAccruedBacon = blocksLeftInFirstYear.mul(COMMUNITY_REWARD_BONUS).mul(usersCurrentStake).div(updateEventNewAmountStaked[i-1]);\n\n                            //add the amount of bacon accrued before the first year to the running total and set the block difference to start calculating from new year\n                            accruedBacon = accruedBacon.add(tempAccruedBacon);\n                            countingBlock = oneYearBlock;\n                        }\n                        \n                        //calculate the amount of Bacon accrued between events\n                        uint256 baconBetweenBlocks = calcBaconBetweenEvents(countingBlock, updateEventBlockNumber[i]);\n                        tempAccruedBacon = baconBetweenBlocks.mul(usersCurrentStake).div(updateEventNewAmountStaked[i-1]);\n                    }\n                    \n                    //as we iterate through events since last withdraw, add the bacon accrued since the last event to the running total & update contingBlock\n                    accruedBacon = accruedBacon.add(tempAccruedBacon);\n                    countingBlock = updateEventBlockNumber[i];\n                }\n\n            }// end updateEvent for loop\n\n            // When there is no more updateEvents to loop through, the last step is to calculate accrued up to current block\n\n            //first check that the last updateEvent didn't happen earlier this block, in which case we're done calculating accrued bacon\n            //countingBlock is checked against the block.number in case the counting block was set in the future as startingBlock\n            if(countingBlock != block.number && countingBlock < block.number) {\n                //case where still within first year\n                if(countingBlock < oneYearBlock  && block.number < oneYearBlock) {\n                    //calculate accrued between last updateEvent and now\n                    blockDifference = block.number - countingBlock;\n                    tempAccruedBacon = blockDifference.mul(COMMUNITY_REWARD_BONUS).mul(usersCurrentStake).div(updateEventNewAmountStaked[updateEventCount-1]);\n                } else {\n                    if (countingBlock < oneYearBlock  && block.number > oneYearBlock) {\n                        //case where current block has just surpassed 1 year\n                        uint256 blocksLeftInFirstYear = oneYearBlock - countingBlock;\n                        tempAccruedBacon = blocksLeftInFirstYear.mul(COMMUNITY_REWARD_BONUS).mul(usersCurrentStake).div(updateEventNewAmountStaked[updateEventCount-1]);\n\n                        //add the amount of bacon accrued before the first year to the running total and set the block difference to start calculating from new year\n                        accruedBacon = accruedBacon.add(tempAccruedBacon);\n                        countingBlock = oneYearBlock;\n                    } \n\n                    //case where last updateEvent was after year 1\n                    //calculate the amount of Bacon accrued between events\n                    uint256 baconBetweenBlocks = calcBaconBetweenEvents(countingBlock, block.number);\n                    tempAccruedBacon = baconBetweenBlocks.mul(usersCurrentStake).div(updateEventNewAmountStaked[updateEventCount-1]);\n                }\n\n                accruedBacon = accruedBacon.add(tempAccruedBacon);\n            }\n        }\n\n        userLastDistribution[wallet] = block.number;\n        // Mint will just go ahead and call callbacks even if nothing is being minted allowing for reentrancy\n        // even when we are in the same block as the last distribution.\n        if (accruedBacon > 0 ) {\n            BaconCoin0(baconCoinAddress).mint(wallet, accruedBacon);\n        }\n\n        return accruedBacon;\n    }\n\n\n    function checkStaked(address wallet) public view returns (uint256) {\n        return userStaked[wallet];\n    }\n\n    /**\n    *   @dev Function unstake begins the process of withdrawing staked value. After a timeout, \n    *   the amount will be available to withdraw. If you calling account already has an unstake pending\n    *   the new amount will be added to the pending amount and the timeout will reset.\n    */\n    function unstake(uint256 amount) public returns (uint256) {\n        uint256 previousPending = userToUnstake[msg.sender].amount;\n        require(amount.add(previousPending) <= userStaked[msg.sender], \"not enough staked\");\n        userToUnstake[msg.sender] = UnstakeRecord(block.number.add(unstakingLockupBlockDelta), amount.add(previousPending));\n        pendingWithdrawalAmount = pendingWithdrawalAmount.add(amount);\n\n        uint256 stakedDiff = userStaked[msg.sender].sub(amount);\n        currentStakedAmount = currentStakedAmount.sub(userStaked[msg.sender]);\n\n        uint256 distributed = distribute(msg.sender);\n        userStaked[msg.sender] = 0;\n\n        //re-stake the difference\n        if(stakedDiff > 0) {\n            stakeInternal(msg.sender, stakedDiff);\n        } else {\n            updateEventBlockNumber.push(block.number);\n            updateEventNewAmountStaked.push(currentStakedAmount);\n            updateEventCount = updateEventCount.add(1); \n        }\n\n        return distributed;\n    }\n\n    /**  \n    *   @dev Function withdraw moves tokens that were unstaked by the caller to the caller's wallet\n    */\n    function withdraw(uint256 amount) public returns (uint256) {\n        // Make sure that they have enough ready to withdraw\n        UnstakeRecord memory userPending = userToUnstake[msg.sender];\n        require(userPending.amount >= amount, \"not enough pending withdraw\");\n        require(block.number > userPending.endBlock, \"unstake still locked\");\n\n        uint256 pendingDiff = userPending.amount.sub(amount);\n        userToUnstake[msg.sender].amount = pendingDiff;\n        pendingWithdrawalAmount = pendingWithdrawalAmount.sub(amount);\n\n        //finally transfer out amount\n        IERC777Upgradeable(poolAddresses[0]).send(msg.sender, amount, \"\");\n\n        return 0;\n    }\n\n    function getEvents() public view returns (uint256  [] memory, uint256  [] memory) {\n        return (updateEventBlockNumber, updateEventNewAmountStaked);\n    }\n\n}",
  "sourcePath": "/Users/patrick/github/HomeDAO/contracts/PoolStaking/PoolStaking2.sol",
  "compiler": {
    "name": "solc",
    "version": "0.8.9+commit.e5eed63a.Emscripten.clang"
  },
  "schemaVersion": "3.4.8",
  "updatedAt": "2022-08-10T01:41:50.198Z",
  "devdoc": {
    "kind": "dev",
    "methods": {
      "distribute(address)": {
        "details": "function distribute accepts a wallet address and transfers the BaconCoin accrued to their wallet since the user's Last Distribution"
      },
      "stake(address,uint256)": {
        "details": "function stake accepts an amount of bHOME to be staked and creates a new updateEvent for it"
      },
      "unstake(uint256)": {
        "details": "Function unstake begins the process of withdrawing staked value. After a timeout,    the amount will be available to withdraw. If you calling account already has an unstake pending   the new amount will be added to the pending amount and the timeout will reset."
      },
      "version()": {
        "details": "Function version returns uint depending on what version the contract is on"
      },
      "withdraw(uint256)": {
        "details": "Function withdraw moves tokens that were unstaked by the caller to the caller's wallet"
      }
    },
    "version": 1
  },
  "userdoc": {
    "kind": "user",
    "methods": {},
    "version": 1
  }
}