{
  "contractName": "PoolStaking1",
  "abi": [
    {
      "inputs": [
        {
          "internalType": "address",
          "name": "_poolAddress",
          "type": "address"
        },
        {
          "internalType": "address",
          "name": "_guardianAddress",
          "type": "address"
        },
        {
          "internalType": "uint256",
          "name": "startingBlock",
          "type": "uint256"
        },
        {
          "internalType": "uint256",
          "name": "_stakeAfterBlock",
          "type": "uint256"
        },
        {
          "internalType": "uint256",
          "name": "_oneYearBlock",
          "type": "uint256"
        }
      ],
      "name": "initialize",
      "outputs": [],
      "stateMutability": "nonpayable",
      "type": "function"
    },
    {
      "inputs": [
        {
          "internalType": "uint256",
          "name": "_oneYearBlock",
          "type": "uint256"
        }
      ],
      "name": "setOneYearBlock",
      "outputs": [],
      "stateMutability": "nonpayable",
      "type": "function"
    },
    {
      "inputs": [
        {
          "internalType": "uint256",
          "name": "_stakeAfterBlock",
          "type": "uint256"
        }
      ],
      "name": "setstakeAfterBlock",
      "outputs": [],
      "stateMutability": "nonpayable",
      "type": "function"
    },
    {
      "inputs": [
        {
          "internalType": "address",
          "name": "_baconCoinAddress",
          "type": "address"
        }
      ],
      "name": "setBaconAddress",
      "outputs": [],
      "stateMutability": "nonpayable",
      "type": "function"
    },
    {
      "inputs": [
        {
          "internalType": "address",
          "name": "_DAOAddress",
          "type": "address"
        }
      ],
      "name": "setDAOAddress",
      "outputs": [],
      "stateMutability": "nonpayable",
      "type": "function"
    },
    {
      "inputs": [
        {
          "internalType": "address",
          "name": "_guardianAddress",
          "type": "address"
        }
      ],
      "name": "setGuardianAddress",
      "outputs": [],
      "stateMutability": "nonpayable",
      "type": "function"
    },
    {
      "inputs": [],
      "name": "version",
      "outputs": [
        {
          "internalType": "uint256",
          "name": "",
          "type": "uint256"
        }
      ],
      "stateMutability": "pure",
      "type": "function"
    },
    {
      "inputs": [],
      "name": "getContractInfo",
      "outputs": [
        {
          "internalType": "uint256",
          "name": "",
          "type": "uint256"
        },
        {
          "internalType": "uint256",
          "name": "",
          "type": "uint256"
        },
        {
          "internalType": "address",
          "name": "",
          "type": "address"
        },
        {
          "internalType": "address",
          "name": "",
          "type": "address"
        },
        {
          "internalType": "address",
          "name": "",
          "type": "address"
        },
        {
          "internalType": "address[]",
          "name": "",
          "type": "address[]"
        },
        {
          "internalType": "uint256",
          "name": "",
          "type": "uint256"
        },
        {
          "internalType": "uint256",
          "name": "",
          "type": "uint256"
        }
      ],
      "stateMutability": "view",
      "type": "function"
    },
    {
      "inputs": [
        {
          "internalType": "address",
          "name": "wallet",
          "type": "address"
        }
      ],
      "name": "getUserLastDistributed",
      "outputs": [
        {
          "internalType": "uint256",
          "name": "",
          "type": "uint256"
        }
      ],
      "stateMutability": "view",
      "type": "function"
    },
    {
      "inputs": [
        {
          "internalType": "address",
          "name": "wallet",
          "type": "address"
        },
        {
          "internalType": "uint256",
          "name": "amount",
          "type": "uint256"
        }
      ],
      "name": "stake",
      "outputs": [
        {
          "internalType": "bool",
          "name": "",
          "type": "bool"
        }
      ],
      "stateMutability": "nonpayable",
      "type": "function"
    },
    {
      "inputs": [
        {
          "internalType": "address",
          "name": "wallet",
          "type": "address"
        }
      ],
      "name": "distribute",
      "outputs": [
        {
          "internalType": "uint256",
          "name": "",
          "type": "uint256"
        }
      ],
      "stateMutability": "nonpayable",
      "type": "function"
    },
    {
      "inputs": [
        {
          "internalType": "address",
          "name": "wallet",
          "type": "address"
        }
      ],
      "name": "checkStaked",
      "outputs": [
        {
          "internalType": "uint256",
          "name": "",
          "type": "uint256"
        }
      ],
      "stateMutability": "view",
      "type": "function"
    },
    {
      "inputs": [
        {
          "internalType": "uint256",
          "name": "amount",
          "type": "uint256"
        }
      ],
      "name": "withdraw",
      "outputs": [
        {
          "internalType": "uint256",
          "name": "",
          "type": "uint256"
        }
      ],
      "stateMutability": "nonpayable",
      "type": "function"
    },
    {
      "inputs": [],
      "name": "getEvents",
      "outputs": [
        {
          "internalType": "uint256[]",
          "name": "",
          "type": "uint256[]"
        },
        {
          "internalType": "uint256[]",
          "name": "",
          "type": "uint256[]"
        }
      ],
      "stateMutability": "view",
      "type": "function"
    }
  ],
  "bytecode": "0x608060405234801561001057600080fd5b50611568806100206000396000f3fe608060405234801561001057600080fd5b50600436106100ea5760003560e01c80637cc1f8671161008c578063adc9772e11610066578063adc9772e146101ee578063d13f90b414610211578063dbe0090c14610224578063f3e0ae5d1461023757600080fd5b80637cc1f86714610196578063965afa89146101b2578063a68d66d1146101c557600080fd5b8063404aa8f9116100c8578063404aa8f91461015357806354fd4d501461016957806363453ae114610170578063736330241461018357600080fd5b80630b8fe318146100ef578063247f8e14146101045780632e1a7d4d14610140575b600080fd5b6101026100fd3660046112c5565b61024a565b005b61012d6101123660046112fa565b6001600160a01b03166000908152600a602052604090205490565b6040519081526020015b60405180910390f35b61012d61014e3660046112c5565b6102ae565b61015b6104a4565b604051610137929190611350565b600161012d565b61012d61017e3660046112fa565b610557565b6101026101913660046112c5565b610ae1565b61019e610b40565b60405161013798979695949392919061137e565b6101026101c03660046112fa565b610c13565b61012d6101d33660046112fa565b6001600160a01b03166000908152600b602052604090205490565b6102016101fc366004611404565b610cba565b6040519015158152602001610137565b61010261021f36600461142e565b610d22565b6101026102323660046112fa565b610ec5565b6101026102453660046112fa565b610f6c565b6002546001600160a01b031633146102a95760405162461bcd60e51b815260206004820152601160248201527f756e617070726f7665642073656e64657200000000000000000000000000000060448201526064015b60405180910390fd5b600c55565b336000908152600a602052604081205482111561030d5760405162461bcd60e51b815260206004820152601160248201527f6e6f7420656e6f756768207374616b656400000000000000000000000000000060448201526064016102a0565b600061031833610557565b336000908152600a6020526040812054919250906103369085610ff5565b336000908152600a60205260409020546009549192506103569190610ff5565b600955336000908152600a6020526040812055801561037f576103793382611001565b506103f6565b600680546001818101909255437ff652222313e28459528d920b65115c16c04f3efc82aaedc97be59f3f377c0d3f909101556009546007805480840182556000919091527fa66cc928b5edb82af9bd49922954155ab7b0942694bea4ce44661d9a8736c68801556008546103f291611148565b6008555b600560008154811061040a5761040a61147b565b60009182526020822001546040517f9bd9bbc6000000000000000000000000000000000000000000000000000000008152336004820152602481018790526060604482015260648101929092526001600160a01b031690639bd9bbc690608401600060405180830381600087803b15801561048457600080fd5b505af1158015610498573d6000803e3d6000fd5b50939695505050505050565b60608060066007818054806020026020016040519081016040528092919081815260200182805480156104f657602002820191906000526020600020905b8154815260200190600101908083116104e2575b505050505091508080548060200260200160405190810160405280929190818152602001828054801561054857602002820191906000526020600020905b815481526020019060010190808311610534575b50505050509050915091509091565b6001600160a01b0381166000908152600a602052604081205415801561058b57506002546001600160a01b03838116911614155b80156105a557506003546001600160a01b03838116911614155b156105b257506000919050565b6001600160a01b038083166000818152600b6020526040812054600354919390928492839216141561060f576105e883436114a7565b91506105fc8267f9ccd8a1c5080000611154565b905061060881856114be565b935061065f565b6002546001600160a01b038781169116141561064f5761062f83436114a7565b91506106438267361f955640060000611154565b935061060881856114be565b60015483101561065f5760015492505b6001600160a01b0386166000908152600a602052604090205415610a435760005b6008548110156108bb57836006828154811061069e5761069e61147b565b906000526020600020015411156108a95783600682815481106106c3576106c361147b565b90600052602060002001546106d891906114a7565b9250600c54600682815481106106f0576106f061147b565b906000526020600020015410156107705761076960076107116001846114a7565b815481106107215761072161147b565b60009182526020808320909101546001600160a01b038b168352600a9091526040909120546107639061075d8768056bc75e2d63100000611154565b90611154565b90611160565b915061087c565b600c548410156107fd57600084600c5461078a91906114a7565b90506107e8600761079c6001856114a7565b815481106107ac576107ac61147b565b60009182526020808320909101546001600160a01b038c168352600a9091526040909120546107639061075d8568056bc75e2d63100000611154565b92506107f48684611148565b9550600c549450505b600061082685600684815481106108165761081661147b565b906000526020600020015461116c565b905061087860076108386001856114a7565b815481106108485761084861147b565b60009182526020808320909101546001600160a01b038c168352600a909152604090912054610763908490611154565b9250505b6108868583611148565b94506006818154811061089b5761089b61147b565b906000526020600020015493505b806108b3816114d6565b915050610680565b504383141580156108cb57504383105b15610a4357600c54831080156108e25750600c5443105b15610932576108f183436114a7565b6009546001600160a01b0388166000908152600a602052604090205491935061092b916107639061075d8668056bc75e2d63100000611154565b9050610a36565b600c54831080156109445750600c5443115b156109d057600083600c5461095991906114a7565b90506109bb6007600160085461096f91906114a7565b8154811061097f5761097f61147b565b60009182526020808320909101546001600160a01b038b168352600a9091526040909120546107639061075d8568056bc75e2d63100000611154565b91506109c78583611148565b9450600c549350505b60006109dc844361116c565b9050610a32600760016008546109f291906114a7565b81548110610a0257610a0261147b565b60009182526020808320909101546001600160a01b038b168352600a909152604090912054610763908490611154565b9150505b610a408482611148565b93505b6001600160a01b038681166000818152600b6020526040908190204390556004805491517f40c10f190000000000000000000000000000000000000000000000000000000081529081019290925260248201879052909116906340c10f1990604401600060405180830381600087803b158015610abf57600080fd5b505af1158015610ad3573d6000803e3d6000fd5b509598975050505050505050565b6002546001600160a01b03163314610b3b5760405162461bcd60e51b815260206004820152601160248201527f756e617070726f7665642073656e64657200000000000000000000000000000060448201526064016102a0565b600155565b60008060008060006060600080600154600c54600260009054906101000a90046001600160a01b0316600360009054906101000a90046001600160a01b0316600460009054906101000a90046001600160a01b0316600560085460095482805480602002602001604051908101604052809291908181526020018280548015610bf257602002820191906000526020600020905b81546001600160a01b03168152600190910190602001808311610bd4575b50505050509250975097509750975097509750975097509091929394959697565b6002546001600160a01b03163314610c6d5760405162461bcd60e51b815260206004820152601160248201527f756e617070726f7665642073656e64657200000000000000000000000000000060448201526064016102a0565b600380546001600160a01b039081166000908152600b6020526040808220549490921680825291902092909255805473ffffffffffffffffffffffffffffffffffffffff19169091179055565b6000610cc533611228565b610d115760405162461bcd60e51b815260206004820152600f60248201527f73656e646572206e6f7420506f6f6c000000000000000000000000000000000060448201526064016102a0565b610d1b8383611001565b9392505050565b600054610100900460ff16610d3d5760005460ff1615610d41565b303b155b610db35760405162461bcd60e51b815260206004820152602e60248201527f496e697469616c697a61626c653a20636f6e747261637420697320616c72656160448201527f647920696e697469616c697a656400000000000000000000000000000000000060648201526084016102a0565b600054610100900460ff16158015610df257600080547fffffffffffffffffffffffffffffffffffffffffffffffffffffffffffff0000166101011790555b600280546001600160a01b0380881673ffffffffffffffffffffffffffffffffffffffff199283161783556005805460018181019092557f036b6384b5eca791c62761152d0c79bb0604c104a5fb6f4eb0703f3154bb3db00180548b8416941693909317909255600060088190556009819055925481168352600b60205260408084208890556003549091168352909120859055839055600c8290558015610ebd57600080547fffffffffffffffffffffffffffffffffffffffffffffffffffffffffffff00ff1690555b505050505050565b6002546001600160a01b03163314610f1f5760405162461bcd60e51b815260206004820152601160248201527f756e617070726f7665642073656e64657200000000000000000000000000000060448201526064016102a0565b600280546001600160a01b039081166000908152600b6020526040808220549490921680825291902092909255805473ffffffffffffffffffffffffffffffffffffffff19169091179055565b6002546001600160a01b03163314610fc65760405162461bcd60e51b815260206004820152601160248201527f756e617070726f7665642073656e64657200000000000000000000000000000060448201526064016102a0565b6004805473ffffffffffffffffffffffffffffffffffffffff19166001600160a01b0392909216919091179055565b6000610d1b82846114a7565b6001600160a01b0382166000908152600a602052604081205415158061103457506002546001600160a01b038481169116145b8061104c57506003546001600160a01b038481169116145b156110605761105a83610557565b5061107c565b6001600160a01b0383166000908152600b602052604090204390555b6001600160a01b0383166000908152600a602052604090205461109f9083611148565b6001600160a01b0384166000908152600a60205260409020556009546110c59083611148565b6009908155600680546001818101909255437ff652222313e28459528d920b65115c16c04f3efc82aaedc97be59f3f377c0d3f9091015590546007805480840182556000919091527fa66cc928b5edb82af9bd49922954155ab7b0942694bea4ce44661d9a8736c688015560085461113c91611148565b60085550600192915050565b6000610d1b82846114be565b6000610d1b82846114f1565b6000610d1b8284611510565b6000611183600c5484610ff590919063ffffffff16565b925061119a600c5483610ff590919063ffffffff16565b915060006111ac603261075d85611287565b905060006111be603261075d87611287565b905060006111dc670de0b6b3a7640000670de0b67f6e119d00610ff5565b905060006111f68261076386670de0b6b3a7640000611154565b905060006112108361076386670de0b6b3a7640000611154565b905061121c8282610ff5565b98975050505050505050565b600080805b600554811015611280576005818154811061124a5761124a61147b565b6000918252602090912001546001600160a01b038581169116141561126e57600191505b80611278816114d6565b91505061122d565b5092915050565b60006402540bdb3d815b83811015611280576112b16402540becc3610763846402540be400611154565b9150806112bd816114d6565b915050611291565b6000602082840312156112d757600080fd5b5035919050565b80356001600160a01b03811681146112f557600080fd5b919050565b60006020828403121561130c57600080fd5b610d1b826112de565b600081518084526020808501945080840160005b8381101561134557815187529582019590820190600101611329565b509495945050505050565b6040815260006113636040830185611315565b82810360208401526113758185611315565b95945050505050565b88815260208082018990526001600160a01b0388811660408401528781166060840152868116608084015261010060a08401819052865190840181905260009261012085019288820192855b818110156113e85784518316865294830194938301936001016113ca565b505050505060c08301949094525060e001529695505050505050565b6000806040838503121561141757600080fd5b611420836112de565b946020939093013593505050565b600080600080600060a0868803121561144657600080fd5b61144f866112de565b945061145d602087016112de565b94979496505050506040830135926060810135926080909101359150565b634e487b7160e01b600052603260045260246000fd5b634e487b7160e01b600052601160045260246000fd5b6000828210156114b9576114b9611491565b500390565b600082198211156114d1576114d1611491565b500190565b60006000198214156114ea576114ea611491565b5060010190565b600081600019048311821515161561150b5761150b611491565b500290565b60008261152d57634e487b7160e01b600052601260045260246000fd5b50049056fea264697066735822122060065a7d2ae41b932698d8caa25dc9c13c5394557a4551e5ff0c862f7db1f72564736f6c63430008090033",
  "immutableReferences": {},
  "source": "// SPDX-License-Identifier: GPL-3.0-or-later\npragma solidity ^0.8.4;\n\nimport \"../@openzeppelin/contracts-upgradeable/proxy/utils/Initializable.sol\";\nimport \"../@openzeppelin/contracts-upgradeable/token/ERC777/ERC777Upgradeable.sol\";\nimport './../BaconCoin/BaconCoin0.sol';\n\n\nimport '../@openzeppelin/contracts/utils/math/SafeMath.sol';\nimport '../@openzeppelin/contracts/utils/math/SignedSafeMath.sol';\n\n// Forked from Compound\n// See https://github.com/compound-finance/compound-protocol/blob/master/contracts/Timelock.sol\ncontract PoolStaking1 is Initializable {\n    using SignedSafeMath for int256;\n    using SafeMath for uint256;\n\n    uint256 constant PER_BLOCK_DECAY = 9999997757;\n    uint256 constant PER_BLOCK_DECAY_18_DECIMALS = 999999775700000000;\n    uint256 constant PER_BLOCK_DECAY_INVERSE = 10000002243;\n    uint256 constant GUARDIAN_REWARD = 3900000000000000000;\n    uint256 constant DAO_REWARD = 18000000000000000000;\n    uint256 constant COMMUNITY_REWARD = 50000000000000000000;\n    uint256 constant COMMUNITY_REWARD_BONUS = 100000000000000000000;\n\n    uint256 stakeAfterBlock;\n    address guardianAddress;\n    address daoAddress;\n    address baconCoinAddress;\n    address[] poolAddresses;\n\n    uint256[] updateEventBlockNumber;\n    uint256[] updateEventNewAmountStaked;\n    uint256 updateEventCount;\n    uint256 currentStakedAmount;\n\n    mapping(address => uint256) userStaked;\n    mapping(address => uint256) userLastDistribution;\n\n    uint256 oneYearBlock;\n\n\n    /** \n    *   @dev Function initialize replaces constructor in upgradable contracts\n    *   - Calls the init function of the inherited ERC777 contract\n    *   @param _poolAddress the address of Pool contracts approved to stake\n    *   @param _guardianAddress The address Guardian receives Bacon distribution to\n    */\n    function initialize(address _poolAddress, address _guardianAddress, uint256 startingBlock, uint _stakeAfterBlock, uint256 _oneYearBlock) public initializer {\n        guardianAddress = _guardianAddress;\n        poolAddresses.push(_poolAddress);\n\n        //set initial vars\n        updateEventCount = 0;\n        currentStakedAmount = 0;\n\n        userLastDistribution[guardianAddress] = startingBlock;\n        userLastDistribution[daoAddress] = startingBlock;\n        stakeAfterBlock = _stakeAfterBlock;\n        oneYearBlock = _oneYearBlock;\n    }\n\n    function setOneYearBlock(uint256 _oneYearBlock) public {\n        require(msg.sender == guardianAddress, \"unapproved sender\");\n        oneYearBlock = _oneYearBlock;\n    }\n\n    function setstakeAfterBlock(uint256 _stakeAfterBlock) public {\n        require(msg.sender == guardianAddress, \"unapproved sender\");\n        stakeAfterBlock = _stakeAfterBlock;\n    }\n\n    // To be called after baconCoin0 is deployed\n    function setBaconAddress(address _baconCoinAddress) public {\n        require(msg.sender == guardianAddress, \"unapproved sender\");\n        baconCoinAddress = _baconCoinAddress;\n    }\n\n    // To be called after baconCoin0 is deployed\n    function setDAOAddress(address _DAOAddress) public {\n        require(msg.sender == guardianAddress, \"unapproved sender\");\n        userLastDistribution[_DAOAddress] =  userLastDistribution[daoAddress];\n        daoAddress = _DAOAddress;\n    }\n\n    function setGuardianAddress(address _guardianAddress) public {\n        require(msg.sender == guardianAddress, \"unapproved sender\");\n        userLastDistribution[_guardianAddress] =  userLastDistribution[guardianAddress];\n        guardianAddress = _guardianAddress;\n    }\n\n    /**  \n    *   @dev Function version returns uint depending on what version the contract is on\n    */\n    function version() public pure returns (uint) {\n        return 1;\n    }\n\n    function getContractInfo() public view returns (uint256, uint256, address, address, address, address  [] memory, uint256, uint256) {\n        return (\n            stakeAfterBlock,\n            oneYearBlock,\n            guardianAddress,\n            daoAddress,\n            baconCoinAddress,\n            poolAddresses,\n            updateEventCount,\n            currentStakedAmount\n        );\n    }\n\n    function getUserLastDistributed(address wallet) public view returns (uint256) {\n        return (userLastDistribution[wallet]);\n    }\n\n    /** \n    *   @dev Function isApprovedPool() is an internal function that checks the array of approved pool addresses for the given address\n    *   @param _address The address to be checked if it is approved\n    *   @return isApproved is if the _addess is found in the list of servicerAddresses\n    */\n    function isApprovedPool(address _address) internal view returns (bool) {\n        bool isApproved = false;\n        \n        for (uint i = 0; i < poolAddresses.length; i++) {\n            if(_address == poolAddresses[i]) {\n                isApproved = true;\n            }\n        }\n\n        return isApproved;\n    }\n\n    /*****************************************************\n    *       Staking FUNCTIONS\n    ******************************************************/\n\n    /**\n    *   @dev function stake accepts an amount of bHOME to be staked and creates a new updateEvent for it\n    */\n    function stake(address wallet, uint256 amount) public returns (bool) {\n        require(isApprovedPool(msg.sender), \"sender not Pool\");\n\n        return stakeInternal(wallet, amount);\n    }\n\n    \n    function stakeInternal(address wallet, uint256 amount) internal returns (bool) {\n        //First handle the case where this is a first staking\n        if(userStaked[wallet] != 0 || wallet == guardianAddress || wallet == daoAddress) {\n            distribute(wallet);\n        } else {\n            userLastDistribution[wallet] = block.number;\n        }\n\n        userStaked[wallet] = userStaked[wallet].add(amount);\n        currentStakedAmount = currentStakedAmount.add(amount);\n        updateEventBlockNumber.push(block.number);\n        updateEventNewAmountStaked.push(currentStakedAmount);\n        updateEventCount = updateEventCount.add(1);\n\n        return true;\n    }\n\n    function decayExponent(uint256 exponent) internal pure returns (uint256) {\n        //10 decimals\n        uint256 answer = PER_BLOCK_DECAY;\n        for (uint256 i = 0; i < exponent; i++) {\n            answer = answer.mul(10000000000).div(PER_BLOCK_DECAY_INVERSE);\n        }\n\n        return answer;\n    }\n\n    function calcBaconBetweenEvents(uint256 blockX, uint256 blockY) internal view returns (uint256) {\n        //bacon per block after first year is\n        //y=50(1-0.000000224337829)^{x}\n        //where x is number of blocks over 15651074\n\n        //Bacon accumulated between two blocksover first year is:\n        //S(x,y) = S(y) - S(x) = (A1(1-r^y) / (1-r)) - (A1(1-r^x) / (1-r))\n        //where A1 = 50 and r = 0.9999997757\n\n        //1 year block subtracted from block numbers passed in since formula only cares about change in time since that point\n        blockX = blockX.sub(oneYearBlock);\n        blockY = blockY.sub(oneYearBlock);\n\n        uint256 SyNumer = decayExponent(blockY).mul(50);\n        uint256 SxNumer = decayExponent(blockX).mul(50);\n        uint256 denom = uint256(1000000000000000000).sub(PER_BLOCK_DECAY_18_DECIMALS);\n\n        uint256 Sy = SyNumer.mul(1000000000000000000).div(denom);\n        uint256 Sx = SxNumer.mul(1000000000000000000).div(denom);\n\n        return Sy.sub(Sx);\n    }\n\n\n    /**\n    *   @dev function distribute accepts a wallet address and transfers the BaconCoin accrued to their wallet since the user's Last Distribution\n    */\n    function distribute(address wallet) public returns (uint256) {\n\n        if (userStaked[wallet] == 0 && wallet != guardianAddress && wallet != daoAddress) {\n            return 0;\n        }\n\n        uint256 accruedBacon = 0;\n        uint256 countingBlock = userLastDistribution[wallet];\n\n        uint256 blockDifference = 0;\n        uint256 tempAccruedBacon = 0;\n\n        if(wallet == daoAddress) {\n            blockDifference = block.number - countingBlock;\n            tempAccruedBacon = blockDifference.mul(DAO_REWARD);\n            accruedBacon += tempAccruedBacon;\n        } else if (wallet == guardianAddress) {\n            blockDifference = block.number - countingBlock;\n            accruedBacon = blockDifference.mul(GUARDIAN_REWARD);\n            accruedBacon += tempAccruedBacon;\n        } else if (countingBlock < stakeAfterBlock) {\n            countingBlock = stakeAfterBlock;\n        }\n\n        if (userStaked[wallet] != 0) {\n            //iterate through the array of update events\n            for (uint256 i = 0; i < updateEventCount; i++) {\n                //only accrue bacon if event is after last withdraw\n                if (updateEventBlockNumber[i] > countingBlock) {\n                    blockDifference = updateEventBlockNumber[i] - countingBlock;\n                    \n                    if(updateEventBlockNumber[i] < oneYearBlock) {\n                        //calculate bacon accrued if update event is within the first year\n                        //use updateEventNewAmountStaked[i-1] because that is the \n                        tempAccruedBacon = blockDifference.mul(COMMUNITY_REWARD_BONUS).mul(userStaked[wallet]).div(updateEventNewAmountStaked[i-1]);\n                    } else {\n                        //calculate bacon accrued if update event is past the first year\n                        if(countingBlock < oneYearBlock) {\n                            //calculate the bacon accrued at the end of the first year if overlapped with first year\n                            uint256 blocksLeftInFirstYear = oneYearBlock - countingBlock;\n                            tempAccruedBacon = blocksLeftInFirstYear.mul(COMMUNITY_REWARD_BONUS).mul(userStaked[wallet]).div(updateEventNewAmountStaked[i-1]);\n\n                            //add the amount of bacon accrued before the first year to the running total and set the block difference to start calculating from new year\n                            accruedBacon = accruedBacon.add(tempAccruedBacon);\n                            countingBlock = oneYearBlock;\n                        }\n                        \n                        //calculate the amount of Bacon accrued between events\n                        uint256 baconBetweenBlocks = calcBaconBetweenEvents(countingBlock, updateEventBlockNumber[i]);\n                        tempAccruedBacon = baconBetweenBlocks.mul(userStaked[wallet]).div(updateEventNewAmountStaked[i-1]);\n                    }\n                    \n                    //as we iterate through events since last withdraw, add the bacon accrued since the last event to the running total & update contingBlock\n                    accruedBacon = accruedBacon.add(tempAccruedBacon);\n                    countingBlock = updateEventBlockNumber[i];\n                }\n\n            }// end updateEvent for loop\n\n            // When there is no more updateEvents to loop through, the last step is to calculate accrued up to current block\n\n            //first check that the last updateEvent didn't happen earlier this block, in which case we're done calculating accrued bacon\n            //countingBlock is checked against the block.number in case the counting block was set in the future as startingBlock\n            if(countingBlock != block.number && countingBlock < block.number) {\n                //case where still within first year\n                if(countingBlock < oneYearBlock  && block.number < oneYearBlock) {\n                    //calculate accrued between last updateEvent and now\n                    blockDifference = block.number - countingBlock;\n                    tempAccruedBacon = blockDifference.mul(COMMUNITY_REWARD_BONUS).mul(userStaked[wallet]).div(currentStakedAmount);\n                } else {\n                    if (countingBlock < oneYearBlock  && block.number > oneYearBlock) {\n                        //case where current block has just surpassed 1 year\n                        uint256 blocksLeftInFirstYear = oneYearBlock - countingBlock;\n                        tempAccruedBacon = blocksLeftInFirstYear.mul(COMMUNITY_REWARD_BONUS).mul(userStaked[wallet]).div(updateEventNewAmountStaked[updateEventCount-1]);\n\n                        //add the amount of bacon accrued before the first year to the running total and set the block difference to start calculating from new year\n                        accruedBacon = accruedBacon.add(tempAccruedBacon);\n                        countingBlock = oneYearBlock;\n                    } \n\n                    //case where last updateEvent was after year 1\n                    //calculate the amount of Bacon accrued between events\n                    uint256 baconBetweenBlocks = calcBaconBetweenEvents(countingBlock, block.number);\n                    tempAccruedBacon = baconBetweenBlocks.mul(userStaked[wallet]).div(updateEventNewAmountStaked[updateEventCount-1]);\n                }\n\n                accruedBacon = accruedBacon.add(tempAccruedBacon);\n            }\n        }\n\n        userLastDistribution[wallet] = block.number;\n        BaconCoin0(baconCoinAddress).mint(wallet, accruedBacon);\n\n        return accruedBacon;\n    }\n\n\n    function checkStaked(address wallet) public view returns (uint256) {\n        return userStaked[wallet];\n    }\n\n    /**  \n    *   @dev Function withdraw reduces the amount staked by a wallet by a given amount\n    */\n    function withdraw(uint256 amount) public returns (uint256) {\n        require(userStaked[msg.sender] >= amount, \"not enough staked\");\n\n        uint256 distributed = distribute(msg.sender);\n\n        //reduce global variables\n        uint256 stakedDiff = userStaked[msg.sender].sub(amount);\n        currentStakedAmount = currentStakedAmount.sub(userStaked[msg.sender]);\n        userStaked[msg.sender] = 0;\n\n        //re-stake the difference\n        if(stakedDiff > 0) {\n            stakeInternal(msg.sender, stakedDiff);\n        } else {\n            updateEventBlockNumber.push(block.number);\n            updateEventNewAmountStaked.push(currentStakedAmount);\n            updateEventCount = updateEventCount.add(1);\n        }\n\n        //finally transfer out amount\n        IERC777Upgradeable(poolAddresses[0]).send(msg.sender, amount, \"\");\n\n        return distributed;\n\n    }\n\n    function getEvents() public view returns (uint256  [] memory, uint256  [] memory) {\n        return (updateEventBlockNumber, updateEventNewAmountStaked);\n    }\n\n}",
  "sourcePath": "/Users/patrick/github/HomeDAO/contracts/PoolStaking/PoolStaking1.sol",
  "compiler": {
    "name": "solc",
    "version": "0.8.9+commit.e5eed63a.Emscripten.clang"
  },
  "schemaVersion": "3.4.8",
  "updatedAt": "2022-08-10T01:41:50.187Z",
  "devdoc": {
    "kind": "dev",
    "methods": {
      "distribute(address)": {
        "details": "function distribute accepts a wallet address and transfers the BaconCoin accrued to their wallet since the user's Last Distribution"
      },
      "initialize(address,address,uint256,uint256,uint256)": {
        "details": "Function initialize replaces constructor in upgradable contracts   - Calls the init function of the inherited ERC777 contract",
        "params": {
          "_guardianAddress": "The address Guardian receives Bacon distribution to",
          "_poolAddress": "the address of Pool contracts approved to stake"
        }
      },
      "stake(address,uint256)": {
        "details": "function stake accepts an amount of bHOME to be staked and creates a new updateEvent for it"
      },
      "version()": {
        "details": "Function version returns uint depending on what version the contract is on"
      },
      "withdraw(uint256)": {
        "details": "Function withdraw reduces the amount staked by a wallet by a given amount"
      }
    },
    "version": 1
  },
  "userdoc": {
    "kind": "user",
    "methods": {},
    "version": 1
  }
}