{
  "contractName": "PoolMath0",
  "abi": [
    {
      "inputs": [
        {
          "internalType": "address",
          "name": "_poolCore",
          "type": "address"
        }
      ],
      "name": "initialize",
      "outputs": [],
      "stateMutability": "nonpayable",
      "type": "function"
    },
    {
      "inputs": [],
      "name": "getAverageInterest",
      "outputs": [
        {
          "internalType": "uint256",
          "name": "",
          "type": "uint256"
        }
      ],
      "stateMutability": "view",
      "type": "function"
    },
    {
      "inputs": [],
      "name": "getActiveLoans",
      "outputs": [
        {
          "internalType": "bool[]",
          "name": "",
          "type": "bool[]"
        }
      ],
      "stateMutability": "view",
      "type": "function"
    },
    {
      "inputs": [],
      "name": "getPoolInterestAccrued",
      "outputs": [
        {
          "internalType": "uint256",
          "name": "",
          "type": "uint256"
        }
      ],
      "stateMutability": "view",
      "type": "function"
    },
    {
      "inputs": [
        {
          "internalType": "uint256",
          "name": "amount",
          "type": "uint256"
        }
      ],
      "name": "getInterestRate",
      "outputs": [
        {
          "internalType": "int256",
          "name": "",
          "type": "int256"
        }
      ],
      "stateMutability": "view",
      "type": "function"
    }
  ],
  "bytecode": "0x608060405234801561001057600080fd5b506113d4806100206000396000f3fe608060405234801561001057600080fd5b50600436106100575760003560e01c80630c196a741461005c578063121ed2a71461008c57806339755466146100aa5780637eb0d8b1146100c8578063c4d66de8146100e6575b600080fd5b61007660048036038101906100719190610bfe565b610102565b6040516100839190610e19565b60405180910390f35b6100946102db565b6040516100a19190610df7565b60405180910390f35b6100b26105a2565b6040516100bf9190610e54565b60405180910390f35b6100d06107ae565b6040516100dd9190610e54565b60405180910390f35b61010060048036038101906100fb9190610b4c565b610943565b005b6000806000905060008060029054906101000a900473ffffffffffffffffffffffffffffffffffffffff1673ffffffffffffffffffffffffffffffffffffffff1663a68b91ab6040518163ffffffff1660e01b815260040160c06040518083038186803b15801561017257600080fd5b505afa158015610186573d6000803e3d6000fd5b505050506040513d601f19601f820116820180604052508101906101aa9190610b75565b909192939450909192935090915050809350819250505081816101cd9190611243565b84106101d857600080fd5b6000610215826102076305f5e1006101f98988610a5e90919063ffffffff16565b610a7490919063ffffffff16565b610a8a90919063ffffffff16565b90506000610230630bebc20083610aa090919063ffffffff16565b9050600061024b6305f5e10084610aa090919063ffffffff16565b9050600061027782610269620f424086610a7490919063ffffffff16565b610a8a90919063ffffffff16565b90506102cb60006102bd620f42406102af6102a06064630bebc200610a8a90919063ffffffff16565b86610aa090919063ffffffff16565b610a5e90919063ffffffff16565b610a5e90919063ffffffff16565b9050809650505050505050919050565b6060600080600060029054906101000a900473ffffffffffffffffffffffffffffffffffffffff1673ffffffffffffffffffffffffffffffffffffffff1663a68b91ab6040518163ffffffff1660e01b815260040160c06040518083038186803b15801561034857600080fd5b505afa15801561035c573d6000803e3d6000fd5b505050506040513d601f19601f820116820180604052508101906103809190610b75565b90919293945090919293509091925090915090508091505060008167ffffffffffffffff8111156103da577f4e487b7100000000000000000000000000000000000000000000000000000000600052604160045260246000fd5b6040519080825280602002602001820160405280156104085781602001602082028036833780820191505090505b50905060005b8281101561059857600060029054906101000a900473ffffffffffffffffffffffffffffffffffffffff1673ffffffffffffffffffffffffffffffffffffffff166366877b8d826040518263ffffffff1660e01b81526004016104719190610e54565b60e06040518083038186803b15801561048957600080fd5b505afa15801561049d573d6000803e3d6000fd5b505050506040513d601f19601f820116820180604052508101906104c19190610c50565b9091929394955090919293945090919293509091509050508094505060008414610537576001828281518110610520577f4e487b7100000000000000000000000000000000000000000000000000000000600052603260045260246000fd5b602002602001019015159081151581525050610585565b6000828281518110610572577f4e487b7100000000000000000000000000000000000000000000000000000000600052603260045260246000fd5b6020026020010190151590811515815250505b8080610590906112c9565b91505061040e565b5080935050505090565b60008060009050600080600080600060029054906101000a900473ffffffffffffffffffffffffffffffffffffffff1673ffffffffffffffffffffffffffffffffffffffff1663a68b91ab6040518163ffffffff1660e01b815260040160c06040518083038186803b15801561061757600080fd5b505afa15801561062b573d6000803e3d6000fd5b505050506040513d601f19601f8201168201806040525081019061064f9190610b75565b90919293945090919293509091925090915090508091505060005b8181101561079057600060029054906101000a900473ffffffffffffffffffffffffffffffffffffffff1673ffffffffffffffffffffffffffffffffffffffff166366877b8d826040518263ffffffff1660e01b81526004016106cd9190610e54565b60e06040518083038186803b1580156106e557600080fd5b505afa1580156106f9573d6000803e3d6000fd5b505050506040513d601f19601f8201168201806040525081019061071d9190610c50565b9091929394955090919293945090915090505080945081955050506000831461077d576107656107568486610ab690919063ffffffff16565b87610acc90919063ffffffff16565b955061077a8386610acc90919063ffffffff16565b94505b8080610788906112c9565b91505061066a565b506107a48486610ae290919063ffffffff16565b9550505050505090565b6000806000905060008060029054906101000a900473ffffffffffffffffffffffffffffffffffffffff1673ffffffffffffffffffffffffffffffffffffffff1663521968126040518163ffffffff1660e01b815260040160206040518083038186803b15801561081e57600080fd5b505afa158015610832573d6000803e3d6000fd5b505050506040513d601f19601f820116820180604052508101906108569190610c27565b905060005b8181101561093a5760008060029054906101000a900473ffffffffffffffffffffffffffffffffffffffff1673ffffffffffffffffffffffffffffffffffffffff16639a5872f4836040518263ffffffff1660e01b81526004016108bf9190610e54565b60206040518083038186803b1580156108d757600080fd5b505afa1580156108eb573d6000803e3d6000fd5b505050506040513d601f19601f8201168201806040525081019061090f9190610c27565b90506109248185610acc90919063ffffffff16565b9350508080610932906112c9565b91505061085b565b50819250505090565b600060019054906101000a900460ff1680610969575060008054906101000a900460ff16155b6109a8576040517f08c379a000000000000000000000000000000000000000000000000000000000815260040161099f90610e34565b60405180910390fd5b60008060019054906101000a900460ff1615905080156109f8576001600060016101000a81548160ff02191690831515021790555060016000806101000a81548160ff0219169083151502179055505b81600060026101000a81548173ffffffffffffffffffffffffffffffffffffffff021916908373ffffffffffffffffffffffffffffffffffffffff1602179055508015610a5a5760008060016101000a81548160ff0219169083151502179055505b5050565b60008183610a6c9190610eb9565b905092915050565b60008183610a82919061103e565b905092915050565b60008183610a989190610fa3565b905092915050565b60008183610aae91906111af565b905092915050565b60008183610ac49190611155565b905092915050565b60008183610ada9190610f4d565b905092915050565b60008183610af0919061100d565b905092915050565b600081359050610b0781611370565b92915050565b600081519050610b1c81611370565b92915050565b600081359050610b3181611387565b92915050565b600081519050610b4681611387565b92915050565b600060208284031215610b5e57600080fd5b6000610b6c84828501610af8565b91505092915050565b60008060008060008060c08789031215610b8e57600080fd5b6000610b9c89828a01610b0d565b9650506020610bad89828a01610b0d565b9550506040610bbe89828a01610b37565b9450506060610bcf89828a01610b37565b9350506080610be089828a01610b37565b92505060a0610bf189828a01610b37565b9150509295509295509295565b600060208284031215610c1057600080fd5b6000610c1e84828501610b22565b91505092915050565b600060208284031215610c3957600080fd5b6000610c4784828501610b37565b91505092915050565b600080600080600080600060e0888a031215610c6b57600080fd5b6000610c798a828b01610b37565b9750506020610c8a8a828b01610b0d565b9650506040610c9b8a828b01610b37565b9550506060610cac8a828b01610b37565b9450506080610cbd8a828b01610b37565b93505060a0610cce8a828b01610b37565b92505060c0610cdf8a828b01610b37565b91505092959891949750929550565b6000610cfa8383610d64565b60208301905092915050565b6000610d1182610e7f565b610d1b8185610e97565b9350610d2683610e6f565b8060005b83811015610d57578151610d3e8882610cee565b9750610d4983610e8a565b925050600181019050610d2a565b5085935050505092915050565b610d6d81611289565b82525050565b610d7c81611295565b82525050565b6000610d8f602e83610ea8565b91507f496e697469616c697a61626c653a20636f6e747261637420697320616c72656160008301527f647920696e697469616c697a65640000000000000000000000000000000000006020830152604082019050919050565b610df1816112bf565b82525050565b60006020820190508181036000830152610e118184610d06565b905092915050565b6000602082019050610e2e6000830184610d73565b92915050565b60006020820190508181036000830152610e4d81610d82565b9050919050565b6000602082019050610e696000830184610de8565b92915050565b6000819050602082019050919050565b600081519050919050565b6000602082019050919050565b600082825260208201905092915050565b600082825260208201905092915050565b6000610ec482611295565b9150610ecf83611295565b9250817f7fffffffffffffffffffffffffffffffffffffffffffffffffffffffffffffff03831360008312151615610f0a57610f09611312565b5b817f8000000000000000000000000000000000000000000000000000000000000000038312600083121615610f4257610f41611312565b5b828201905092915050565b6000610f58826112bf565b9150610f63836112bf565b9250827fffffffffffffffffffffffffffffffffffffffffffffffffffffffffffffffff03821115610f9857610f97611312565b5b828201905092915050565b6000610fae82611295565b9150610fb983611295565b925082610fc957610fc8611341565b5b600160000383147f80000000000000000000000000000000000000000000000000000000000000008314161561100257611001611312565b5b828205905092915050565b6000611018826112bf565b9150611023836112bf565b92508261103357611032611341565b5b828204905092915050565b600061104982611295565b915061105483611295565b9250827f7fffffffffffffffffffffffffffffffffffffffffffffffffffffffffffffff048211600084136000841316161561109357611092611312565b5b817f800000000000000000000000000000000000000000000000000000000000000005831260008412600084131616156110d0576110cf611312565b5b827f8000000000000000000000000000000000000000000000000000000000000000058212600084136000841216161561110d5761110c611312565b5b827f7fffffffffffffffffffffffffffffffffffffffffffffffffffffffffffffff058212600084126000841216161561114a57611149611312565b5b828202905092915050565b6000611160826112bf565b915061116b836112bf565b9250817fffffffffffffffffffffffffffffffffffffffffffffffffffffffffffffffff04831182151516156111a4576111a3611312565b5b828202905092915050565b60006111ba82611295565b91506111c583611295565b9250827f800000000000000000000000000000000000000000000000000000000000000001821260008412151615611200576111ff611312565b5b827f7fffffffffffffffffffffffffffffffffffffffffffffffffffffffffffffff01821360008412161561123857611237611312565b5b828203905092915050565b600061124e826112bf565b9150611259836112bf565b92508282101561126c5761126b611312565b5b828203905092915050565b60006112828261129f565b9050919050565b60008115159050919050565b6000819050919050565b600073ffffffffffffffffffffffffffffffffffffffff82169050919050565b6000819050919050565b60006112d4826112bf565b91507fffffffffffffffffffffffffffffffffffffffffffffffffffffffffffffffff82141561130757611306611312565b5b600182019050919050565b7f4e487b7100000000000000000000000000000000000000000000000000000000600052601160045260246000fd5b7f4e487b7100000000000000000000000000000000000000000000000000000000600052601260045260246000fd5b61137981611277565b811461138457600080fd5b50565b611390816112bf565b811461139b57600080fd5b5056fea2646970667358221220a4dd5fec05aaa0dfac65abd8a71c5ac2c8eab3bf9bb1d19af99942f5e1997a6d64736f6c63430008000033",
  "immutableReferences": {},
  "source": "// contracts/PoolMath0.sol\n// SPDX-License-Identifier: MIT\npragma solidity >=0.4.22 <=0.8.0;\n\nimport \"./../../node_modules/@openzeppelin/contracts-upgradeable/proxy/utils/Initializable.sol\";\nimport './../PoolCore/Pool3.sol';\nimport './../../node_modules/@openzeppelin/contracts/utils/math/SafeMath.sol';\nimport './../../node_modules/@openzeppelin/contracts/utils/math/SignedSafeMath.sol';\n\n\ncontract PoolMath0 is Initializable {\n    using SignedSafeMath for int256;\n    using SafeMath for uint256;\n\n    uint constant servicerFeePercentage = 1000000;\n    uint constant baseInterestPercentage = 0;\n    uint constant curveK = 200000000;\n\n    address poolCore;\n\n    /** \n    *   @dev Function initialize replaces constructor in upgradable contracts\n    *   - Sets the poolCore contract Address \n    */\n    function initialize(address _poolCore) public initializer {\n        poolCore = _poolCore;\n    }\n\n    /********************************************\n    *           Pool Getter Funcs               * \n    ********************************************/\n\n\n\n    /**  \n    *   @dev Function getAverageInterest() returns an average interest for the pool\n    */\n    function getAverageInterest() public view returns (uint256) {\n        uint256 sumOfRates = 0;\n        uint256 borrowedCounter = 0;\n        \n        uint256 interestRate = 0;\n        uint256 principal = 0;\n        uint256 loanCount = 0;\n\n        (, , , , , loanCount) = Pool3(poolCore).getContractData();\n\n        for (uint i = 0; i < loanCount; i++) {\n\n            (, , interestRate, principal, , , ) = Pool3(poolCore).getLoanDetails(i);\n            if(principal != 0){\n                sumOfRates = sumOfRates.add(interestRate.mul(principal));\n                borrowedCounter = borrowedCounter.add(principal);\n            }\n        }\n\n       return sumOfRates.div(borrowedCounter);\n    }\n\n    /**  \n    *   @dev Function getActiveLoans() returns an array of the loans currently out by users\n    *   @return array of bools, where the index i is the loan ID and the value bool is active or not\n    */\n    function getActiveLoans() public view returns (bool[] memory) {\n        uint256 principal = 0;\n        uint256 loanCount = 0;\n\n        (, , , , , loanCount) = Pool3(poolCore).getContractData();\n        bool[] memory loanActive = new bool[](loanCount);\n\n        for (uint i = 0; i < loanCount; i++) {\n            (, , , principal, , , ) = Pool3(poolCore).getLoanDetails(i);\n\n            if(principal != 0) {\n                loanActive[i] = true;\n            } else {\n                loanActive[i] = false;\n            }\n        }\n\n        return loanActive;\n    }\n\n\n    /**  \n    *   @dev Function getPoolInterestAccrued() returns the the amount of interest accreued by the pool in total\n    */\n    function getPoolInterestAccrued() public view returns (uint256) {\n        uint256 totalInterest = 0;\n        uint256 loanCount = Pool3(poolCore).getLoanCount();\n\n\n        for (uint i=0; i<loanCount; i++) {\n            uint256 accruedInterest = Pool3(poolCore).getLoanAccruedInterest(i);\n            totalInterest = totalInterest.add(accruedInterest);\n        }\n\n        return totalInterest;\n    }\n\n    /**  \n    *   @dev Function getInterestRate calculates the new interest rate if a loan was to be taken out in this block\n    *   @param amount The size of the potential loan in (probably usdc).\n    *   @return interestRate The interest rate in APR for the loan\n    */\n    function getInterestRate(uint256 amount) public view returns (int256) {\n        //I = (( U - k ) / (U - 100)) - 0.01k + Base + ServicerFee\n        //all ints multiplied by 1000000 to represent the 6 decimal points available\n\n        uint256 poolBorrowed = 0;\n        uint256 poolLent = 0;\n        (, , poolLent, , poolBorrowed, ) = Pool3(poolCore).getContractData();\n        \n        //first check available allocation\n        require(amount < (poolLent - poolBorrowed));\n\n        //get new proposed utilization amount\n        int256 newUtilizationRatio = int256(poolBorrowed).add(int256(amount)).mul(100000000).div(int256(poolLent));\n\n        //calculate interest\n        //subtract k from U\n        int256 numerator = newUtilizationRatio.sub(int256(curveK));  \n        //subtract 100 from U\n        int256 denominator = newUtilizationRatio.sub(100000000);\n        //divide numerator by denominator and multiply percentage by 10^6 to account for decimal places\n        int256 interest = numerator.mul(1000000).div(denominator);\n        //add base and fees to interest\n        interest = interest.sub(int256(curveK).div(100)).add(int256(servicerFeePercentage)).add(int256(baseInterestPercentage)); \n        \n        return interest;\n    }\n\n    /********************************************\n    *           Loan Getter Funcs               * \n    ********************************************/\n \n}",
  "sourcePath": "/Users/zane/code/loansnap/HomeDAO/contracts/PoolMath/PoolMath0.sol",
  "compiler": {
    "name": "solc",
    "version": "0.8.0+commit.c7dfd78e.Emscripten.clang"
  },
  "schemaVersion": "3.4.1",
  "updatedAt": "2021-10-21T19:29:32.999Z",
  "devdoc": {
    "kind": "dev",
    "methods": {
      "getActiveLoans()": {
        "details": "Function getActiveLoans() returns an array of the loans currently out by users",
        "returns": {
          "_0": "array of bools, where the index i is the loan ID and the value bool is active or not"
        }
      },
      "getAverageInterest()": {
        "details": "Function getAverageInterest() returns an average interest for the pool"
      },
      "getInterestRate(uint256)": {
        "details": "Function getInterestRate calculates the new interest rate if a loan was to be taken out in this block",
        "params": {
          "amount": "The size of the potential loan in (probably usdc)."
        },
        "returns": {
          "_0": "interestRate The interest rate in APR for the loan"
        }
      },
      "getPoolInterestAccrued()": {
        "details": "Function getPoolInterestAccrued() returns the the amount of interest accreued by the pool in total"
      },
      "initialize(address)": {
        "details": "Function initialize replaces constructor in upgradable contracts   - Sets the poolCore contract Address "
      }
    },
    "version": 1
  },
  "userdoc": {
    "kind": "user",
    "methods": {},
    "version": 1
  }
}