{
  "contractName": "Pool4",
  "abi": [
    {
      "anonymous": false,
      "inputs": [
        {
          "indexed": true,
          "internalType": "address",
          "name": "owner",
          "type": "address"
        },
        {
          "indexed": true,
          "internalType": "address",
          "name": "spender",
          "type": "address"
        },
        {
          "indexed": false,
          "internalType": "uint256",
          "name": "value",
          "type": "uint256"
        }
      ],
      "name": "Approval",
      "type": "event"
    },
    {
      "anonymous": false,
      "inputs": [
        {
          "indexed": true,
          "internalType": "address",
          "name": "operator",
          "type": "address"
        },
        {
          "indexed": true,
          "internalType": "address",
          "name": "tokenHolder",
          "type": "address"
        }
      ],
      "name": "AuthorizedOperator",
      "type": "event"
    },
    {
      "anonymous": false,
      "inputs": [
        {
          "indexed": true,
          "internalType": "address",
          "name": "operator",
          "type": "address"
        },
        {
          "indexed": true,
          "internalType": "address",
          "name": "from",
          "type": "address"
        },
        {
          "indexed": false,
          "internalType": "uint256",
          "name": "amount",
          "type": "uint256"
        },
        {
          "indexed": false,
          "internalType": "bytes",
          "name": "data",
          "type": "bytes"
        },
        {
          "indexed": false,
          "internalType": "bytes",
          "name": "operatorData",
          "type": "bytes"
        }
      ],
      "name": "Burned",
      "type": "event"
    },
    {
      "anonymous": false,
      "inputs": [
        {
          "indexed": true,
          "internalType": "address",
          "name": "operator",
          "type": "address"
        },
        {
          "indexed": true,
          "internalType": "address",
          "name": "to",
          "type": "address"
        },
        {
          "indexed": false,
          "internalType": "uint256",
          "name": "amount",
          "type": "uint256"
        },
        {
          "indexed": false,
          "internalType": "bytes",
          "name": "data",
          "type": "bytes"
        },
        {
          "indexed": false,
          "internalType": "bytes",
          "name": "operatorData",
          "type": "bytes"
        }
      ],
      "name": "Minted",
      "type": "event"
    },
    {
      "anonymous": false,
      "inputs": [
        {
          "indexed": true,
          "internalType": "address",
          "name": "operator",
          "type": "address"
        },
        {
          "indexed": true,
          "internalType": "address",
          "name": "tokenHolder",
          "type": "address"
        }
      ],
      "name": "RevokedOperator",
      "type": "event"
    },
    {
      "anonymous": false,
      "inputs": [
        {
          "indexed": true,
          "internalType": "address",
          "name": "operator",
          "type": "address"
        },
        {
          "indexed": true,
          "internalType": "address",
          "name": "from",
          "type": "address"
        },
        {
          "indexed": true,
          "internalType": "address",
          "name": "to",
          "type": "address"
        },
        {
          "indexed": false,
          "internalType": "uint256",
          "name": "amount",
          "type": "uint256"
        },
        {
          "indexed": false,
          "internalType": "bytes",
          "name": "data",
          "type": "bytes"
        },
        {
          "indexed": false,
          "internalType": "bytes",
          "name": "operatorData",
          "type": "bytes"
        }
      ],
      "name": "Sent",
      "type": "event"
    },
    {
      "anonymous": false,
      "inputs": [
        {
          "indexed": true,
          "internalType": "address",
          "name": "from",
          "type": "address"
        },
        {
          "indexed": true,
          "internalType": "address",
          "name": "to",
          "type": "address"
        },
        {
          "indexed": false,
          "internalType": "uint256",
          "name": "value",
          "type": "uint256"
        }
      ],
      "name": "Transfer",
      "type": "event"
    },
    {
      "inputs": [
        {
          "internalType": "address",
          "name": "holder",
          "type": "address"
        },
        {
          "internalType": "address",
          "name": "spender",
          "type": "address"
        }
      ],
      "name": "allowance",
      "outputs": [
        {
          "internalType": "uint256",
          "name": "",
          "type": "uint256"
        }
      ],
      "stateMutability": "view",
      "type": "function"
    },
    {
      "inputs": [
        {
          "internalType": "address",
          "name": "spender",
          "type": "address"
        },
        {
          "internalType": "uint256",
          "name": "value",
          "type": "uint256"
        }
      ],
      "name": "approve",
      "outputs": [
        {
          "internalType": "bool",
          "name": "",
          "type": "bool"
        }
      ],
      "stateMutability": "nonpayable",
      "type": "function"
    },
    {
      "inputs": [
        {
          "internalType": "address",
          "name": "operator",
          "type": "address"
        }
      ],
      "name": "authorizeOperator",
      "outputs": [],
      "stateMutability": "nonpayable",
      "type": "function"
    },
    {
      "inputs": [
        {
          "internalType": "address",
          "name": "tokenHolder",
          "type": "address"
        }
      ],
      "name": "balanceOf",
      "outputs": [
        {
          "internalType": "uint256",
          "name": "",
          "type": "uint256"
        }
      ],
      "stateMutability": "view",
      "type": "function"
    },
    {
      "inputs": [
        {
          "internalType": "uint256",
          "name": "amount",
          "type": "uint256"
        },
        {
          "internalType": "bytes",
          "name": "data",
          "type": "bytes"
        }
      ],
      "name": "burn",
      "outputs": [],
      "stateMutability": "nonpayable",
      "type": "function"
    },
    {
      "inputs": [],
      "name": "defaultOperators",
      "outputs": [
        {
          "internalType": "address[]",
          "name": "",
          "type": "address[]"
        }
      ],
      "stateMutability": "view",
      "type": "function"
    },
    {
      "inputs": [],
      "name": "granularity",
      "outputs": [
        {
          "internalType": "uint256",
          "name": "",
          "type": "uint256"
        }
      ],
      "stateMutability": "view",
      "type": "function"
    },
    {
      "inputs": [
        {
          "internalType": "address",
          "name": "operator",
          "type": "address"
        },
        {
          "internalType": "address",
          "name": "tokenHolder",
          "type": "address"
        }
      ],
      "name": "isOperatorFor",
      "outputs": [
        {
          "internalType": "bool",
          "name": "",
          "type": "bool"
        }
      ],
      "stateMutability": "view",
      "type": "function"
    },
    {
      "inputs": [
        {
          "internalType": "address",
          "name": "account",
          "type": "address"
        },
        {
          "internalType": "uint256",
          "name": "amount",
          "type": "uint256"
        },
        {
          "internalType": "bytes",
          "name": "data",
          "type": "bytes"
        },
        {
          "internalType": "bytes",
          "name": "operatorData",
          "type": "bytes"
        }
      ],
      "name": "operatorBurn",
      "outputs": [],
      "stateMutability": "nonpayable",
      "type": "function"
    },
    {
      "inputs": [
        {
          "internalType": "address",
          "name": "sender",
          "type": "address"
        },
        {
          "internalType": "address",
          "name": "recipient",
          "type": "address"
        },
        {
          "internalType": "uint256",
          "name": "amount",
          "type": "uint256"
        },
        {
          "internalType": "bytes",
          "name": "data",
          "type": "bytes"
        },
        {
          "internalType": "bytes",
          "name": "operatorData",
          "type": "bytes"
        }
      ],
      "name": "operatorSend",
      "outputs": [],
      "stateMutability": "nonpayable",
      "type": "function"
    },
    {
      "inputs": [
        {
          "internalType": "address",
          "name": "operator",
          "type": "address"
        }
      ],
      "name": "revokeOperator",
      "outputs": [],
      "stateMutability": "nonpayable",
      "type": "function"
    },
    {
      "inputs": [
        {
          "internalType": "address",
          "name": "recipient",
          "type": "address"
        },
        {
          "internalType": "uint256",
          "name": "amount",
          "type": "uint256"
        },
        {
          "internalType": "bytes",
          "name": "data",
          "type": "bytes"
        }
      ],
      "name": "send",
      "outputs": [],
      "stateMutability": "nonpayable",
      "type": "function"
    },
    {
      "inputs": [],
      "name": "totalSupply",
      "outputs": [
        {
          "internalType": "uint256",
          "name": "",
          "type": "uint256"
        }
      ],
      "stateMutability": "view",
      "type": "function"
    },
    {
      "inputs": [
        {
          "internalType": "address",
          "name": "recipient",
          "type": "address"
        },
        {
          "internalType": "uint256",
          "name": "amount",
          "type": "uint256"
        }
      ],
      "name": "transfer",
      "outputs": [
        {
          "internalType": "bool",
          "name": "",
          "type": "bool"
        }
      ],
      "stateMutability": "nonpayable",
      "type": "function"
    },
    {
      "inputs": [
        {
          "internalType": "address",
          "name": "holder",
          "type": "address"
        },
        {
          "internalType": "address",
          "name": "recipient",
          "type": "address"
        },
        {
          "internalType": "uint256",
          "name": "amount",
          "type": "uint256"
        }
      ],
      "name": "transferFrom",
      "outputs": [
        {
          "internalType": "bool",
          "name": "",
          "type": "bool"
        }
      ],
      "stateMutability": "nonpayable",
      "type": "function"
    },
    {
      "inputs": [
        {
          "internalType": "address",
          "name": "_poolUtilsAddress",
          "type": "address"
        },
        {
          "internalType": "address",
          "name": "_baconCoinAddress",
          "type": "address"
        },
        {
          "internalType": "address",
          "name": "_poolStakingAddress",
          "type": "address"
        }
      ],
      "name": "initializePoolFour",
      "outputs": [],
      "stateMutability": "nonpayable",
      "type": "function"
    },
    {
      "inputs": [],
      "name": "name",
      "outputs": [
        {
          "internalType": "string",
          "name": "",
          "type": "string"
        }
      ],
      "stateMutability": "view",
      "type": "function"
    },
    {
      "inputs": [],
      "name": "symbol",
      "outputs": [
        {
          "internalType": "string",
          "name": "",
          "type": "string"
        }
      ],
      "stateMutability": "view",
      "type": "function"
    },
    {
      "inputs": [],
      "name": "decimals",
      "outputs": [
        {
          "internalType": "uint8",
          "name": "",
          "type": "uint8"
        }
      ],
      "stateMutability": "pure",
      "type": "function"
    },
    {
      "inputs": [
        {
          "internalType": "address[]",
          "name": "_servicerAddresses",
          "type": "address[]"
        }
      ],
      "name": "setApprovedAddresses",
      "outputs": [],
      "stateMutability": "nonpayable",
      "type": "function"
    },
    {
      "inputs": [],
      "name": "getContractData",
      "outputs": [
        {
          "internalType": "address",
          "name": "",
          "type": "address"
        },
        {
          "internalType": "address",
          "name": "",
          "type": "address"
        },
        {
          "internalType": "uint256",
          "name": "",
          "type": "uint256"
        },
        {
          "internalType": "uint256",
          "name": "",
          "type": "uint256"
        },
        {
          "internalType": "uint256",
          "name": "",
          "type": "uint256"
        },
        {
          "internalType": "uint256",
          "name": "",
          "type": "uint256"
        }
      ],
      "stateMutability": "view",
      "type": "function"
    },
    {
      "inputs": [],
      "name": "getLoanCount",
      "outputs": [
        {
          "internalType": "uint256",
          "name": "",
          "type": "uint256"
        }
      ],
      "stateMutability": "view",
      "type": "function"
    },
    {
      "inputs": [],
      "name": "getSupplyableTokenAddress",
      "outputs": [
        {
          "internalType": "address",
          "name": "",
          "type": "address"
        }
      ],
      "stateMutability": "view",
      "type": "function"
    },
    {
      "inputs": [],
      "name": "getServicerAddress",
      "outputs": [
        {
          "internalType": "address",
          "name": "",
          "type": "address"
        }
      ],
      "stateMutability": "view",
      "type": "function"
    },
    {
      "inputs": [
        {
          "internalType": "uint256",
          "name": "loanId",
          "type": "uint256"
        }
      ],
      "name": "getLoanDetails",
      "outputs": [
        {
          "internalType": "uint256",
          "name": "",
          "type": "uint256"
        },
        {
          "internalType": "address",
          "name": "",
          "type": "address"
        },
        {
          "internalType": "uint256",
          "name": "",
          "type": "uint256"
        },
        {
          "internalType": "uint256",
          "name": "",
          "type": "uint256"
        },
        {
          "internalType": "uint256",
          "name": "",
          "type": "uint256"
        },
        {
          "internalType": "uint256",
          "name": "",
          "type": "uint256"
        },
        {
          "internalType": "uint256",
          "name": "",
          "type": "uint256"
        }
      ],
      "stateMutability": "view",
      "type": "function"
    },
    {
      "inputs": [
        {
          "internalType": "uint256",
          "name": "loanId",
          "type": "uint256"
        }
      ],
      "name": "getLoanAccruedInterest",
      "outputs": [
        {
          "internalType": "uint256",
          "name": "",
          "type": "uint256"
        }
      ],
      "stateMutability": "view",
      "type": "function"
    },
    {
      "inputs": [
        {
          "internalType": "uint256",
          "name": "amount",
          "type": "uint256"
        }
      ],
      "name": "lend",
      "outputs": [
        {
          "internalType": "uint256",
          "name": "",
          "type": "uint256"
        }
      ],
      "stateMutability": "nonpayable",
      "type": "function"
    },
    {
      "inputs": [
        {
          "internalType": "uint256",
          "name": "amount",
          "type": "uint256"
        }
      ],
      "name": "redeem",
      "outputs": [],
      "stateMutability": "nonpayable",
      "type": "function"
    },
    {
      "inputs": [
        {
          "internalType": "uint256",
          "name": "amount",
          "type": "uint256"
        },
        {
          "internalType": "uint256",
          "name": "maxRate",
          "type": "uint256"
        },
        {
          "internalType": "uint256",
          "name": "propTokenId",
          "type": "uint256"
        }
      ],
      "name": "borrow",
      "outputs": [],
      "stateMutability": "nonpayable",
      "type": "function"
    },
    {
      "inputs": [
        {
          "internalType": "uint256",
          "name": "loanId",
          "type": "uint256"
        },
        {
          "internalType": "uint256",
          "name": "amount",
          "type": "uint256"
        }
      ],
      "name": "repay",
      "outputs": [],
      "stateMutability": "nonpayable",
      "type": "function"
    },
    {
      "inputs": [
        {
          "internalType": "uint256",
          "name": "amount",
          "type": "uint256"
        }
      ],
      "name": "stake",
      "outputs": [
        {
          "internalType": "bool",
          "name": "",
          "type": "bool"
        }
      ],
      "stateMutability": "nonpayable",
      "type": "function"
    },
    {
      "inputs": [
        {
          "internalType": "uint256",
          "name": "amount",
          "type": "uint256"
        }
      ],
      "name": "lendAndStake",
      "outputs": [
        {
          "internalType": "bool",
          "name": "",
          "type": "bool"
        }
      ],
      "stateMutability": "nonpayable",
      "type": "function"
    },
    {
      "inputs": [],
      "name": "getVersion",
      "outputs": [
        {
          "internalType": "uint256",
          "name": "",
          "type": "uint256"
        }
      ],
      "stateMutability": "pure",
      "type": "function"
    },
    {
      "inputs": [
        {
          "internalType": "address",
          "name": "",
          "type": "address"
        },
        {
          "internalType": "address",
          "name": "",
          "type": "address"
        },
        {
          "internalType": "uint256",
          "name": "",
          "type": "uint256"
        },
        {
          "internalType": "bytes",
          "name": "",
          "type": "bytes"
        }
      ],
      "name": "onERC721Received",
      "outputs": [
        {
          "internalType": "bytes4",
          "name": "",
          "type": "bytes4"
        }
      ],
      "stateMutability": "pure",
      "type": "function"
    }
  ],
  "bytecode": "0x608060405234801561001057600080fd5b506136e5806100206000396000f3fe608060405234801561001057600080fd5b50600436106102265760003560e01c8063959b8c3f1161012a578063adf459ca116100bd578063dd62ed3e1161008c578063fad8b32a11610071578063fad8b32a1461056f578063fc673c4f14610582578063fe9d93031461059557600080fd5b8063dd62ed3e14610523578063e636eddc1461055c57600080fd5b8063adf459ca146104d7578063d8aed145146104ea578063d95b6371146104fd578063db006a751461051057600080fd5b8063a68b91ab116100f9578063a68b91ab1461045e578063a694fc3a1461049e578063a6aa57ce146104b1578063a9059cbb146104c457600080fd5b8063959b8c3f1461041d57806395d89b41146104305780639a5872f4146104385780639bd9bbc61461044b57600080fd5b80632f5e5d95116101bd57806362ad1b831161018c57806370a082311161017157806370a08231146103d05780637e174eb4146103f957806390b53e141461040c57600080fd5b806362ad1b831461036d57806366877b8d1461038057600080fd5b80632f5e5d951461032a578063313ce5671461034f578063521968121461035e578063556f0dc71461036657600080fd5b8063150b7a02116101f9578063150b7a021461029257806318160ddd146102fa57806323b872dd146103025780632923c33d1461031557600080fd5b806306e485381461022b57806306fdde0314610249578063095ea7b31461025e5780630d8e6e2c14610281575b600080fd5b6102336105a8565b6040516102409190612da7565b60405180910390f35b61025161060a565b6040516102409190612e4c565b61027161026c366004612e77565b610693565b6040519015158152602001610240565b60045b604051908152602001610240565b6102c96102a0366004612f68565b7f150b7a0200000000000000000000000000000000000000000000000000000000949350505050565b6040517fffffffff000000000000000000000000000000000000000000000000000000009091168152602001610240565b603454610284565b610271610310366004612fd4565b6106ad565b610328610323366004613015565b6108f2565b005b6066546001600160a01b03165b6040516001600160a01b039091168152602001610240565b60405160068152602001610240565b606c54610284565b6001610284565b61032861037b366004613060565b610960565b61039361038e3660046130f3565b6109f2565b604080519788526001600160a01b039096166020880152948601939093526060850191909152608084015260a083015260c082015260e001610240565b6102846103de36600461310c565b6001600160a01b031660009081526033602052604090205490565b61032861040736600461314d565b610ab5565b6065546001600160a01b0316610337565b61032861042b36600461310c565b610ae3565b610251610c1a565b6102846104463660046130f3565b610c29565b6103286104593660046131e7565b610d10565b610466610d33565b604080516001600160a01b039788168152969095166020870152938501929092526060840152608083015260a082015260c001610240565b6102716104ac3660046130f3565b610e0d565b6102846104bf3660046130f3565b610f2f565b6102716104d2366004612e77565b610fe0565b6103286104e5366004613240565b6110e8565b6103286104f836600461326c565b61191e565b61027161050b36600461328e565b611df9565b61032861051e3660046130f3565b611e9b565b61028461053136600461328e565b6001600160a01b039182166000908152603b6020908152604080832093909416825291909152205490565b61027161056a3660046130f3565b611fe5565b61032861057d36600461310c565b611ffc565b6103286105903660046132c7565b612134565b6103286105a336600461333b565b6121bc565b6060603780548060200260200160405190810160405280929190818152602001828054801561060057602002820191906000526020600020905b81546001600160a01b031681526001909101906020018083116105e2575b5050505050905090565b6060606d805461061990613382565b80601f016020809104026020016040519081016040528092919081815260200182805461064590613382565b80156106005780601f1061066757610100808354040283529160200191610600565b820191906000526020600020905b81548152906001019060200180831161067557509395945050505050565b6000336106a18185856121d7565b60019150505b92915050565b60006001600160a01b03831661072f5760405162461bcd60e51b8152602060048201526024808201527f4552433737373a207472616e7366657220746f20746865207a65726f2061646460448201527f726573730000000000000000000000000000000000000000000000000000000060648201526084015b60405180910390fd5b6001600160a01b0384166107ab5760405162461bcd60e51b815260206004820152602660248201527f4552433737373a207472616e736665722066726f6d20746865207a65726f206160448201527f64647265737300000000000000000000000000000000000000000000000000006064820152608401610726565b60003390506107dc818686866040518060200160405280600081525060405180602001604052806000815250612330565b610808818686866040518060200160405280600081525060405180602001604052806000815250612499565b6001600160a01b038086166000908152603b6020908152604080832093851683529290522054838110156108a45760405162461bcd60e51b815260206004820152602960248201527f4552433737373a207472616e7366657220616d6f756e7420657863656564732060448201527f616c6c6f77616e636500000000000000000000000000000000000000000000006064820152608401610726565b6108b886836108b387856133d3565b6121d7565b6108e68287878760405180602001604052806000815250604051806020016040528060008152506000612615565b50600195945050505050565b6065546001600160a01b0316331461090957600080fd5b607280546001600160a01b039485167fffffffffffffffffffffffff000000000000000000000000000000000000000091821617909155607380549385169382169390931790925560748054919093169116179055565b61096a3386611df9565b6109dc5760405162461bcd60e51b815260206004820152602c60248201527f4552433737373a2063616c6c6572206973206e6f7420616e206f70657261746f60448201527f7220666f7220686f6c64657200000000000000000000000000000000000000006064820152608401610726565b6109eb8585858585600161282b565b5050505050565b600080600080600080600080606b8981548110610a1157610a116133ea565b600091825260208083206040805160c08101825260069094029091018054845260018101546001600160a01b03169284019290925260028201549083015260038101546060830152600481015460808301526005015460a08201529150610a778a610c29565b60009a8b52606f602090815260409b8c9020548451918501519c850151606086015160a090960151929e909c50949a50919850965094509092505050565b6065546001600160a01b03163314610acc57600080fd5b8051610adf906067906020840190612d15565b5050565b336001600160a01b0382161415610b615760405162461bcd60e51b8152602060048201526024808201527f4552433737373a20617574686f72697a696e672073656c66206173206f70657260448201527f61746f72000000000000000000000000000000000000000000000000000000006064820152608401610726565b6001600160a01b03811660009081526038602052604090205460ff1615610bb257336000908152603a602090815260408083206001600160a01b03851684529091529020805460ff19169055610be1565b3360009081526039602090815260408083206001600160a01b03851684529091529020805460ff191660011790555b60405133906001600160a01b038316907ff4caeb2d6ca8932a215a353d0703c326ec2d81fc68170f320eb2ab49e9df61f990600090a350565b6060606e805461061990613382565b600080606b8381548110610c3f57610c3f6133ea565b600091825260208083206040805160c08101825260069094029091018054845260018101546001600160a01b03169284019290925260028201549083015260038101546060830152600481015460808301526005015460a08201819052909250610caa904290612929565b90506000610cd76301e28500610cd18560400151866060015161293590919063ffffffff16565b90612941565b90506000610ced6305f5e100610cd18486612935565b9050610d0684608001518261294d90919063ffffffff16565b9695505050505050565b610d2e3384848460405180602001604052806000815250600161282b565b505050565b606554606654606854607254604080517f7eb0d8b10000000000000000000000000000000000000000000000000000000081529051600095869586958695869586956001600160a01b03958616959485169490921691637eb0d8b191600480820192602092909190829003018186803b158015610daf57600080fd5b505afa158015610dc3573d6000803e3d6000fd5b505050506040513d601f19601f82011682018060405250810190610de79190613400565b606854610df49190613419565b606954606c54949b939a50919850965094509092509050565b33600090815260336020526040812054821115610e6c5760405162461bcd60e51b815260206004820152601360248201527f6e6f7420656e6f75676820746f207374616b65000000000000000000000000006044820152606401610726565b6074546040517fadc9772e000000000000000000000000000000000000000000000000000000008152336004820152602481018490526000916001600160a01b03169063adc9772e90604401602060405180830381600087803b158015610ed257600080fd5b505af1158015610ee6573d6000803e3d6000fd5b505050506040513d601f19601f82011682018060405250810190610f0a9190613431565b905080156106a757607454610f28906001600160a01b031684610fe0565b5092915050565b6066546040516323b872dd60e01b8152336004820152306024820152604481018390526000916001600160a01b0316906323b872dd90606401602060405180830381600087803b158015610f8257600080fd5b505af1158015610f96573d6000803e3d6000fd5b505050506040513d601f19601f82011682018060405250810190610fba9190613431565b506000610fc73384612959565b606854909150610fd7908461294d565b60685592915050565b60006001600160a01b03831661105d5760405162461bcd60e51b8152602060048201526024808201527f4552433737373a207472616e7366657220746f20746865207a65726f2061646460448201527f72657373000000000000000000000000000000000000000000000000000000006064820152608401610726565b600033905061108e818286866040518060200160405280600081525060405180602001604052806000815250612330565b6110ba818286866040518060200160405280600081525060405180602001604052806000815250612499565b6106a18182868660405180602001604052806000815250604051806020016040528060008152506000612615565b6070546040517f081812fc0000000000000000000000000000000000000000000000000000000081526004810183905230916001600160a01b03169063081812fc9060240160206040518083038186803b15801561114557600080fd5b505afa158015611159573d6000803e3d6000fd5b505050506040513d601f19601f8201168201806040525081019061117d9190613453565b6001600160a01b0316146111d35760405162461bcd60e51b815260206004820152601d60248201527f706f6f6c206e6f7420617070726f76656420746f206d6f7665206567670000006044820152606401610726565b6070546040517f6352211e0000000000000000000000000000000000000000000000000000000081526004810183905233916001600160a01b031690636352211e9060240160206040518083038186803b15801561123057600080fd5b505afa158015611244573d6000803e3d6000fd5b505050506040513d601f19601f820116820180604052508101906112689190613453565b6001600160a01b0316146112be5760405162461bcd60e51b815260206004820152601860248201527f6d73672e73656e646572206e6f7420656767206f776e657200000000000000006044820152606401610726565b6072546040517f0c196a74000000000000000000000000000000000000000000000000000000008152600481018590526000916001600160a01b031690630c196a749060240160206040518083038186803b15801561131c57600080fd5b505afa158015611330573d6000803e3d6000fd5b505050506040513d601f19601f820116820180604052508101906113549190613400565b9050828111156113a65760405162461bcd60e51b815260206004820152601d60248201527f696e7465726573742072617465206e6f206c6f6e67657220617661696c0000006044820152606401610726565b6070546040517f6ebb668b000000000000000000000000000000000000000000000000000000008152600481018490526000916001600160a01b031690636ebb668b9060240160206040518083038186803b15801561140457600080fd5b505afa158015611418573d6000803e3d6000fd5b505050506040513d601f19601f8201168201806040525081019061143c9190613400565b90508481101561148e5760405162461bcd60e51b815260206004820152601a60248201527f6c6f616e206c61726765722074686174206567672076616c75650000000000006044820152606401610726565b607154604080517f15a2bf9e00000000000000000000000000000000000000000000000000000000815290516000926001600160a01b0316916315a2bf9e916004808301926020929190829003018186803b1580156114ec57600080fd5b505afa158015611500573d6000803e3d6000fd5b505050506040513d601f19601f820116820180604052508101906115249190613400565b6070546040517f4a293c520000000000000000000000000000000000000000000000000000000081526004810187905291925060009182916001600160a01b031690634a293c529060240160006040518083038186803b15801561158757600080fd5b505afa15801561159b573d6000803e3d6000fd5b505050506040513d6000823e601f3d908101601f191682016040526115c391908101906134bd565b50505093509350505060005b8251811015611618576116048382815181106115ed576115ed6133ea565b60200260200101518661294d90919063ffffffff16565b945080611610816135cf565b9150506115cf565b508261162982610cd1876064612935565b106116765760405162461bcd60e51b815260206004820152600c60248201527f4c545620746f6f206869676800000000000000000000000000000000000000006044820152606401610726565b6070546040517f42842e0e000000000000000000000000000000000000000000000000000000008152336004820152306024820152604481018890526001600160a01b03909116906342842e0e90606401600060405180830381600087803b1580156116e157600080fd5b505af11580156116f5573d6000803e3d6000fd5b5050505060006040518060c00160405280606c548152602001336001600160a01b031681526020018781526020018a815260200160008152602001428152509050606b8190806001815401808255809150506001900390600052602060002090600602016000909190919091506000820151816000015560208201518160010160006101000a8154816001600160a01b0302191690836001600160a01b0316021790555060408201518160020155606082015181600301556080820151816004015560a082015181600501555050606a6000336001600160a01b03166001600160a01b03168152602001908152602001600020606c54908060018154018082558091505060019003906000526020600020016000909190919091505586606f6000606c548152602001908152602001600020819055506118416001606c5461294d90919063ffffffff16565b606c55606954611851908a61294d565b6069556066546040517fa9059cbb000000000000000000000000000000000000000000000000000000008152336004820152602481018b90526001600160a01b039091169063a9059cbb90604401602060405180830381600087803b1580156118b957600080fd5b505af11580156118cd573d6000803e3d6000fd5b505050506040513d601f19601f820116820180604052508101906118f19190613431565b50606554611912906001600160a01b031661190d8b6064612941565b612959565b50505050505050505050565b80600061192a84610c29565b9050828111156119f6576066546040516323b872dd60e01b8152336004820152306024820152604481018590526001600160a01b03909116906323b872dd90606401602060405180830381600087803b15801561198657600080fd5b505af115801561199a573d6000803e3d6000fd5b505050506040513d601f19601f820116820180604052508101906119be9190613431565b506119c98184612929565b606b85815481106119dc576119dc6133ea565b906000526020600020906006020160040181905550611d5d565b9050806000611a058483612929565b905080606b8681548110611a1b57611a1b6133ea565b9060005260206000209060060201600301541115611b35576066546040516323b872dd60e01b8152336004820152306024820152604481018690526001600160a01b03909116906323b872dd90606401602060405180830381600087803b158015611a8557600080fd5b505af1158015611a99573d6000803e3d6000fd5b505050506040513d601f19601f82011682018060405250810190611abd9190613431565b50606954611acb9082612929565b606981905550611b0881606b8781548110611ae857611ae86133ea565b90600052602060002090600602016003015461292990919063ffffffff16565b606b8681548110611b1b57611b1b6133ea565b906000526020600020906006020160030181905550611d31565b6000611b6e83606b8881548110611b4e57611b4e6133ea565b90600052602060002090600602016003015461294d90919063ffffffff16565b6066546040516323b872dd60e01b8152336004820152306024820152604481018390529192506001600160a01b0316906323b872dd90606401602060405180830381600087803b158015611bc157600080fd5b505af1158015611bd5573d6000803e3d6000fd5b505050506040513d601f19601f82011682018060405250810190611bf99190613431565b50611c33606b8781548110611c1057611c106133ea565b90600052602060002090600602016003015460695461292990919063ffffffff16565b6069819055506000606b8781548110611c4e57611c4e6133ea565b6000918252602090912060036006909202010155607054606b80546001600160a01b03909216916342842e0e9130918a908110611c8d57611c8d6133ea565b60009182526020808320600160069093020191909101548b8352606f9091526040918290205491517fffffffff0000000000000000000000000000000000000000000000000000000060e086901b1681526001600160a01b039384166004820152921660248301526044820152606401600060405180830381600087803b158015611d1757600080fd5b505af1158015611d2b573d6000803e3d6000fd5b50505050505b6000606b8681548110611d4657611d466133ea565b906000526020600020906006020160040181905550505b42606b8581548110611d7157611d716133ea565b6000918252602090912060056006909202010155606854611d92908361294d565b6068819055506000611dd8606b8681548110611db057611db06133ea565b906000526020600020906006020160020154610cd185620f424061293590919063ffffffff16565b606554909150611df1906001600160a01b031682612959565b505050505050565b6000816001600160a01b0316836001600160a01b03161480611e6457506001600160a01b03831660009081526038602052604090205460ff168015611e6457506001600160a01b038083166000908152603a602090815260408083209387168352929052205460ff16155b80611e9457506001600160a01b0380831660009081526039602090815260408083209387168352929052205460ff165b9392505050565b33600090815260336020526040902054811115611eb757600080fd5b6000611ed5611ec560345490565b606854610cd190620f4240612935565b90506000611eea620f4240610cd18585612935565b9050606954606854611efc91906133d3565b811115611f0857600080fd5b611f32338460405180602001604052806000815250604051806020016040528060008152506129e5565b606854611f3f9082612929565b6068556066546040517fa9059cbb000000000000000000000000000000000000000000000000000000008152336004820152602481018390526001600160a01b039091169063a9059cbb90604401602060405180830381600087803b158015611fa757600080fd5b505af1158015611fbb573d6000803e3d6000fd5b505050506040513d601f19601f82011682018060405250810190611fdf9190613431565b50505050565b600080611ff183610f2f565b9050611e9481610e0d565b6001600160a01b03811633141561207b5760405162461bcd60e51b815260206004820152602160248201527f4552433737373a207265766f6b696e672073656c66206173206f70657261746f60448201527f72000000000000000000000000000000000000000000000000000000000000006064820152608401610726565b6001600160a01b03811660009081526038602052604090205460ff16156120cf57336000908152603a602090815260408083206001600160a01b03851684529091529020805460ff191660011790556120fb565b3360009081526039602090815260408083206001600160a01b03851684529091529020805460ff191690555b60405133906001600160a01b038316907f50546e66e5f44d728365dc3908c63bc5cfeeab470722c1677e3073a6ac294aa190600090a350565b61213e3385611df9565b6121b05760405162461bcd60e51b815260206004820152602c60248201527f4552433737373a2063616c6c6572206973206e6f7420616e206f70657261746f60448201527f7220666f7220686f6c64657200000000000000000000000000000000000000006064820152608401610726565b611fdf848484846129e5565b610adf338383604051806020016040528060008152506129e5565b6001600160a01b0383166122535760405162461bcd60e51b815260206004820152602560248201527f4552433737373a20617070726f76652066726f6d20746865207a65726f20616460448201527f64726573730000000000000000000000000000000000000000000000000000006064820152608401610726565b6001600160a01b0382166122cf5760405162461bcd60e51b815260206004820152602360248201527f4552433737373a20617070726f766520746f20746865207a65726f206164647260448201527f65737300000000000000000000000000000000000000000000000000000000006064820152608401610726565b6001600160a01b038381166000818152603b602090815260408083209487168084529482529182902085905590518481527f8c5be1e5ebec7d5bd14f71427d1e84f3dd0314c0f7b2291e5b200ac8c7c3b925910160405180910390a3505050565b6040517faabbb8ca0000000000000000000000000000000000000000000000000000000081526001600160a01b03861660048201527f29ddb589b1fb5fc7cf394961c1adf5f8c6454761adf795e67fe149f658abe8956024820152600090731820a4b7618bde71dce8cdc73aab6c95905fad249063aabbb8ca9060440160206040518083038186803b1580156123c557600080fd5b505afa1580156123d9573d6000803e3d6000fd5b505050506040513d601f19601f820116820180604052508101906123fd9190613453565b90506001600160a01b03811615612490576040517f75ab97820000000000000000000000000000000000000000000000000000000081526001600160a01b038216906375ab97829061245d908a908a908a908a908a908a906004016135ea565b600060405180830381600087803b15801561247757600080fd5b505af115801561248b573d6000803e3d6000fd5b505050505b50505050505050565b6001600160a01b038516600090815260336020526040902054838110156125285760405162461bcd60e51b815260206004820152602760248201527f4552433737373a207472616e7366657220616d6f756e7420657863656564732060448201527f62616c616e6365000000000000000000000000000000000000000000000000006064820152608401610726565b6001600160a01b0380871660009081526033602052604080822087850390559187168152908120805486929061255f908490613419565b92505081905550846001600160a01b0316866001600160a01b0316886001600160a01b03167f06b541ddaa720db2b10a4d0cdac39b8d360425fc073085fac19bc826146779878787876040516125b793929190613643565b60405180910390a4846001600160a01b0316866001600160a01b03167fddf252ad1be2c89b69c2b068fc378daa952ba7f163c4a11628f55a4df523b3ef8660405161260491815260200190565b60405180910390a350505050505050565b6040517faabbb8ca0000000000000000000000000000000000000000000000000000000081526001600160a01b03861660048201527fb281fc8c12954d22544db45de3159a39272895b169a852b314f9cc762e44c53b6024820152600090731820a4b7618bde71dce8cdc73aab6c95905fad249063aabbb8ca9060440160206040518083038186803b1580156126aa57600080fd5b505afa1580156126be573d6000803e3d6000fd5b505050506040513d601f19601f820116820180604052508101906126e29190613453565b90506001600160a01b03811615612777576040517e23de290000000000000000000000000000000000000000000000000000000081526001600160a01b038216906223de2990612740908b908b908b908b908b908b906004016135ea565b600060405180830381600087803b15801561275a57600080fd5b505af115801561276e573d6000803e3d6000fd5b50505050612821565b8115612821576001600160a01b0386163b156128215760405162461bcd60e51b815260206004820152604d60248201527f4552433737373a20746f6b656e20726563697069656e7420636f6e747261637460448201527f20686173206e6f20696d706c656d656e74657220666f7220455243373737546f60648201527f6b656e73526563697069656e7400000000000000000000000000000000000000608482015260a401610726565b5050505050505050565b6001600160a01b0386166128a75760405162461bcd60e51b815260206004820152602260248201527f4552433737373a2073656e642066726f6d20746865207a65726f20616464726560448201527f73730000000000000000000000000000000000000000000000000000000000006064820152608401610726565b6001600160a01b0385166128fd5760405162461bcd60e51b815260206004820181905260248201527f4552433737373a2073656e6420746f20746865207a65726f20616464726573736044820152606401610726565b3361290c818888888888612330565b61291a818888888888612499565b61249081888888888888612615565b6000611e9482846133d3565b6000611e94828461366e565b6000611e94828461368d565b6000611e948284613419565b6000606854600014156129975761299083836040518060200160405280600081525060405180602001604052806000815250612bcf565b50806106a7565b60006129b2606854610cd16129ab60345490565b8690612935565b90506129de84826040518060200160405280600081525060405180602001604052806000815250612bcf565b90506106a7565b6001600160a01b038416612a615760405162461bcd60e51b815260206004820152602260248201527f4552433737373a206275726e2066726f6d20746865207a65726f20616464726560448201527f73730000000000000000000000000000000000000000000000000000000000006064820152608401610726565b33612a7181866000878787612330565b6001600160a01b03851660009081526033602052604090205484811015612b005760405162461bcd60e51b815260206004820152602360248201527f4552433737373a206275726e20616d6f756e7420657863656564732062616c6160448201527f6e636500000000000000000000000000000000000000000000000000000000006064820152608401610726565b6001600160a01b0386166000908152603360205260408120868303905560348054879290612b2f9084906133d3565b92505081905550856001600160a01b0316826001600160a01b03167fa78a9be3a7b862d26933ad85fb11d80ef66b8f972d7cbba06621d583943a4098878787604051612b7d93929190613643565b60405180910390a36040518581526000906001600160a01b038816907fddf252ad1be2c89b69c2b068fc378daa952ba7f163c4a11628f55a4df523b3ef906020015b60405180910390a3505050505050565b611fdf8484848460016001600160a01b038516612c2e5760405162461bcd60e51b815260206004820181905260248201527f4552433737373a206d696e7420746f20746865207a65726f20616464726573736044820152606401610726565b60003390508460346000828254612c459190613419565b90915550506001600160a01b03861660009081526033602052604081208054879290612c72908490613419565b90915550612c8890508160008888888888612615565b856001600160a01b0316816001600160a01b03167f2fe5be0146f74c5bce36c0b80911af6c7d86ff27e89d5cfa61fc681327954e5d878787604051612ccf93929190613643565b60405180910390a36040518581526001600160a01b038716906000907fddf252ad1be2c89b69c2b068fc378daa952ba7f163c4a11628f55a4df523b3ef90602001612bbf565b828054828255906000526020600020908101928215612d82579160200282015b82811115612d8257825182547fffffffffffffffffffffffff0000000000000000000000000000000000000000166001600160a01b03909116178255602090920191600190910190612d35565b50612d8e929150612d92565b5090565b5b80821115612d8e5760008155600101612d93565b6020808252825182820181905260009190848201906040850190845b81811015612de85783516001600160a01b031683529284019291840191600101612dc3565b50909695505050505050565b60005b83811015612e0f578181015183820152602001612df7565b83811115611fdf5750506000910152565b60008151808452612e38816020860160208601612df4565b601f01601f19169290920160200192915050565b602081526000611e946020830184612e20565b6001600160a01b0381168114612e7457600080fd5b50565b60008060408385031215612e8a57600080fd5b8235612e9581612e5f565b946020939093013593505050565b634e487b7160e01b600052604160045260246000fd5b604051601f8201601f1916810167ffffffffffffffff81118282101715612ee257612ee2612ea3565b604052919050565b600067ffffffffffffffff821115612f0457612f04612ea3565b50601f01601f191660200190565b600082601f830112612f2357600080fd5b8135612f36612f3182612eea565b612eb9565b818152846020838601011115612f4b57600080fd5b816020850160208301376000918101602001919091529392505050565b60008060008060808587031215612f7e57600080fd5b8435612f8981612e5f565b93506020850135612f9981612e5f565b925060408501359150606085013567ffffffffffffffff811115612fbc57600080fd5b612fc887828801612f12565b91505092959194509250565b600080600060608486031215612fe957600080fd5b8335612ff481612e5f565b9250602084013561300481612e5f565b929592945050506040919091013590565b60008060006060848603121561302a57600080fd5b833561303581612e5f565b9250602084013561304581612e5f565b9150604084013561305581612e5f565b809150509250925092565b600080600080600060a0868803121561307857600080fd5b853561308381612e5f565b9450602086013561309381612e5f565b935060408601359250606086013567ffffffffffffffff808211156130b757600080fd5b6130c389838a01612f12565b935060808801359150808211156130d957600080fd5b506130e688828901612f12565b9150509295509295909350565b60006020828403121561310557600080fd5b5035919050565b60006020828403121561311e57600080fd5b8135611e9481612e5f565b600067ffffffffffffffff82111561314357613143612ea3565b5060051b60200190565b6000602080838503121561316057600080fd5b823567ffffffffffffffff81111561317757600080fd5b8301601f8101851361318857600080fd5b8035613196612f3182613129565b81815260059190911b820183019083810190878311156131b557600080fd5b928401925b828410156131dc5783356131cd81612e5f565b825292840192908401906131ba565b979650505050505050565b6000806000606084860312156131fc57600080fd5b833561320781612e5f565b925060208401359150604084013567ffffffffffffffff81111561322a57600080fd5b61323686828701612f12565b9150509250925092565b60008060006060848603121561325557600080fd5b505081359360208301359350604090920135919050565b6000806040838503121561327f57600080fd5b50508035926020909101359150565b600080604083850312156132a157600080fd5b82356132ac81612e5f565b915060208301356132bc81612e5f565b809150509250929050565b600080600080608085870312156132dd57600080fd5b84356132e881612e5f565b935060208501359250604085013567ffffffffffffffff8082111561330c57600080fd5b61331888838901612f12565b9350606087013591508082111561332e57600080fd5b50612fc887828801612f12565b6000806040838503121561334e57600080fd5b82359150602083013567ffffffffffffffff81111561336c57600080fd5b61337885828601612f12565b9150509250929050565b600181811c9082168061339657607f821691505b602082108114156133b757634e487b7160e01b600052602260045260246000fd5b50919050565b634e487b7160e01b600052601160045260246000fd5b6000828210156133e5576133e56133bd565b500390565b634e487b7160e01b600052603260045260246000fd5b60006020828403121561341257600080fd5b5051919050565b6000821982111561342c5761342c6133bd565b500190565b60006020828403121561344357600080fd5b81518015158114611e9457600080fd5b60006020828403121561346557600080fd5b8151611e9481612e5f565b600082601f83011261348157600080fd5b815161348f612f3182612eea565b8181528460208386010111156134a457600080fd5b6134b5826020830160208701612df4565b949350505050565b600080600080600080600060e0888a0312156134d857600080fd5b87516134e381612e5f565b809750506020808901519650604089015167ffffffffffffffff8082111561350a57600080fd5b818b0191508b601f83011261351e57600080fd5b815161352c612f3182613129565b81815260059190911b8301840190848101908e83111561354b57600080fd5b938501935b8285101561356957845182529385019390850190613550565b60608e015160808f0151919b509950945050508083111561358957600080fd5b6135958c848d01613470565b955060a08b0151945060c08b01519250808311156135b257600080fd5b50506135c08a828b01613470565b91505092959891949750929550565b60006000198214156135e3576135e36133bd565b5060010190565b60006001600160a01b038089168352808816602084015280871660408401525084606083015260c0608083015261362460c0830185612e20565b82810360a08401526136368185612e20565b9998505050505050505050565b83815260606020820152600061365c6060830185612e20565b8281036040840152610d068185612e20565b6000816000190483118215151615613688576136886133bd565b500290565b6000826136aa57634e487b7160e01b600052601260045260246000fd5b50049056fea2646970667358221220075f423e446733b0821327d3a403fe2d865b9c3299c8af589778039020c2e3a364736f6c63430008090033",
  "immutableReferences": {},
  "source": "// contracts/Pool4.sol\n// SPDX-License-Identifier: MIT\npragma solidity ^0.8.4;\n\nimport \"../@openzeppelin/contracts-upgradeable/proxy/utils/Initializable.sol\";\nimport \"../@openzeppelin/contracts-upgradeable/token/ERC777/ERC777Upgradeable.sol\";\nimport '../@openzeppelin/contracts-upgradeable/token/ERC20/IERC20Upgradeable.sol';\nimport './../PropTokens/PropToken0.sol';\nimport './../LTVGuidelines.sol';\nimport './../PoolUtils/PoolUtils0.sol';\nimport './../PoolStaking/PoolStaking0.sol';\n\nimport \"../@openzeppelin/contracts-upgradeable/token/ERC721/IERC721ReceiverUpgradeable.sol\";\nimport '../@openzeppelin/contracts/utils/math/SafeMath.sol';\nimport '../@openzeppelin/contracts/utils/math/SignedSafeMath.sol';\n\ncontract Pool4 is Initializable, ERC777Upgradeable, IERC721ReceiverUpgradeable {\n    using SignedSafeMath for int256;\n    using SafeMath for uint256;\n\n    struct Loan{\n        uint256 loanId;\n        address borrower;\n        uint256 interestRate;\n        uint256 principal;\n        uint256 interestAccrued;\n        uint256 timeLastPayment;\n    }\n\n    address servicer;\n    address ERCAddress;\n    address[] servicerAddresses;\n    /* Adding a variable above this line (not reflected in Pool0) will cause contract storage conflicts */\n\n    uint256 poolLent;\n    uint256 poolBorrowed;\n    mapping(address => uint256[]) userLoans;\n    Loan[] loans;\n    uint256 loanCount;\n\n    uint constant servicerFeePercentage = 1000000;\n    uint constant baseInterestPercentage = 1000000;\n    uint constant curveK = 120000000;\n\n    /* Pool1 variables introduced here */\n    string private _name;\n    string private _symbol;\n    mapping(uint256 => uint256) loanToPropToken;\n    address propTokenContractAddress;\n\n    /* Pool2 variables introduced here */\n    address LTVOracleAddress;\n\n    /* Pool3 variables introduced here */\n    address poolUtilsAddress;\n    address baconCoinAddress;\n    address poolStakingAddress;\n\n\n    /*****************************************************\n    *       POOL STRUCTURE / UPGRADABILITY FUNCTIONS\n    ******************************************************/\n\n    function initializePoolFour(address _poolUtilsAddress, address _baconCoinAddress, address _poolStakingAddress) public {\n        require(msg.sender == servicer);\n        poolUtilsAddress = _poolUtilsAddress;\n        baconCoinAddress = _baconCoinAddress;\n        poolStakingAddress = _poolStakingAddress;\n    }\n\n    function name() public view override returns (string memory) {\n        return _name;\n    }\n\n    function symbol() public view override returns(string memory) {\n        return _symbol;\n    }\n\n    function decimals() public pure override returns(uint8) {\n        return 6;\n    }\n    \n    /** \n    *   @dev Function setApprovedAddresses() updates the array of addresses approved by the servicer\n    *   @param _servicerAddresses The array of addresses to be set as approved for borrowing\n    */\n    function setApprovedAddresses(address[] memory _servicerAddresses) public {\n        require(msg.sender == servicer);\n\n        servicerAddresses = _servicerAddresses;\n    }\n\n    /** \n    *   @dev Function setApprovedAddresses() is an internal function that checks the array of approved addresses for the given address\n    *   @param _address The address to be checked if it is approved\n    *   @return isApproved is if the _addess is found in the list of servicerAddresses\n    */\n    function isApprovedServicer(address _address) internal view returns (bool) {\n        bool isApproved = false;\n        \n        for (uint i = 0; i < servicerAddresses.length; i++) {\n            if(_address == servicerAddresses[i]) {\n                isApproved = true;\n            }\n        }\n\n        return isApproved;\n    }\n\n    /*****************************************************\n    *                GETTER FUNCTIONS\n    ******************************************************/\n    /**\n    *   @dev Function getContractData() returns a lot of variables about the contract\n    */\n    function getContractData() public view returns (address, address, uint256, uint256, uint256, uint256) {\n        return (servicer, ERCAddress, poolLent, (poolLent + PoolUtils0(poolUtilsAddress).getPoolInterestAccrued()), poolBorrowed, loanCount);\n    }\n\n    /*\n    *   @dev Function getLoanCount() returns how many active loans there are\n    */ \n    function getLoanCount() public view returns (uint256) {\n        return loanCount;\n    }\n\n    /**  \n    *   @dev Function getSupplyableTokenAddress() returns the contract address of ERC20 this pool accepts (ususally USDC)\n    */\n    function getSupplyableTokenAddress() public view returns (address) {\n        return ERCAddress;\n    }\n\n    /**  \n    *   @dev Function getServicerAddress() returns the address of this pool's servicer\n    */\n    function getServicerAddress() public view returns (address) {\n        return servicer;\n    } \n\n    /**  \n    *   @dev Function getLoanDetails() returns an all the raw details about a loan\n    *   @param loanId is the id for the loan we're looking up\n    *   EDITED in pool1 to also return PropToken ID\n    */\n    function getLoanDetails(uint256 loanId) public view returns (uint256, address, uint256, uint256, uint256, uint256, uint256) {\n        Loan memory loan = loans[loanId];\n        //temp interestAccrued calculation because this is a read function\n        uint256 interestAccrued = getLoanAccruedInterest(loanId);\n        uint256 propTokenID = loanToPropToken[loanId];\n        return (loan.loanId, loan.borrower, loan.interestRate, loan.principal, interestAccrued, loan.timeLastPayment, propTokenID);\n    }\n\n    /**  \n    *   @dev Function getLoanAccruedInterest() calculates and returns the amount of interest accrued on a given loan\n    *   @param loanId is the id for the loan we're looking up\n    */\n    function getLoanAccruedInterest(uint256 loanId) public view returns (uint256) {\n        Loan memory loan = loans[loanId];\n        uint256 secondsSincePayment = block.timestamp.sub(loan.timeLastPayment);\n\n        uint256 interestPerSecond = loan.principal.mul(loan.interestRate).div(31622400);\n        uint256 interestAccrued = interestPerSecond.mul(secondsSincePayment).div(100000000);\n        return interestAccrued.add(loan.interestAccrued);\n    }   \n\n\n    /*****************************************************\n    *                LENDING/BORROWING FUNCTIONS\n    ******************************************************/\n\n    /**  \n    *   @dev Function mintProportionalPoolTokens calculates how many new hc_pool tokens to mint when value is added to the pool based on proportional value\n    *   @param recepient The address of the wallet receiving the newly minted hc_pool tokens\n    *   @param amount The amount to be minted\n    */\n    function mintProportionalPoolTokens(address recepient, uint256 amount) private returns (uint256) {\n        //check if this is first deposit\n        if (poolLent == 0) {\n            super._mint(recepient, amount, \"\", \"\");\n            return amount;\n        } else {\n            //Calculate proportional to total value (including interest)\n            uint256 new_hc_pool = amount.mul(super.totalSupply()).div(poolLent);\n            super._mint(recepient, new_hc_pool, \"\", \"\");\n            return new_hc_pool;\n        }\n    }\n\n    /**  \n    *   @dev Function lend moves assets on the (probably usdc) contract to our own balance\n    *   - Before calling: an approve(address _spender (proxy), uint256 _value (0xffff)) function call must be made on remote contract\n    *   @param amount The amount of USDC to be transferred\n    *   @return the amount of poolTokens created\n    */\n    function lend(\n        uint256 amount\n    ) public returns (uint256) {\n        //USDC on Ropsten only right now\n        IERC20Upgradeable(ERCAddress).transferFrom(msg.sender, address(this), amount);\n        uint256 newTokensMinted = mintProportionalPoolTokens(msg.sender, amount);\n        poolLent = poolLent.add(amount);\n\n        return newTokensMinted;\n    }\n\n    /**  \n    *   @dev Function redeem burns the sender's hcPool tokens and transfers the usdc back to them\n    *   @param amount The amount of hc_pool to be redeemed\n    */\n    function redeem(\n        uint256 amount\n    ) public {\n        //check to see if sender has enough hc_pool to redeem\n        require(balanceOf(msg.sender) >= amount);\n\n        //check to make sure there is liquidity available in the pool to withdraw\n        uint256 tokenPrice = poolLent.mul(1000000).div(super.totalSupply());\n        uint256 erc20ValueOfTokens = amount.mul(tokenPrice).div(1000000);\n        require(erc20ValueOfTokens <= (poolLent - poolBorrowed));\n\n        //burn hcPool first\n        super._burn(msg.sender, amount, \"\", \"\");\n        poolLent = poolLent.sub(erc20ValueOfTokens);\n        IERC20Upgradeable(ERCAddress).transfer(msg.sender, erc20ValueOfTokens);\n    }\n\n    /**  \n    *   @dev Function borrow creates a new Loan, moves the USDC to Borrower, and returns the loan ID and fixed Interest Rate\n    *   - Also creates an origination fee for the Servicer in HC_Pool\n    *   @param amount The size of the potential loan in (probably usdc).\n    *   @param maxRate The size of the potential loan in (probably usdc).\n    *   EDITED in pool1 to also require a PropToken\n    *   EDITED in pool1 - borrower param was removed and msg.sender is new recepient of USDC\n    *   EDITED in pool2 - propToken data is oulled and LTV of loan is required before loan can process\n    */\n    function borrow(uint256 amount, uint256 maxRate, uint256 propTokenId) public {\n        //for v2 require this address is approved to transfer propToken \n        require(PropToken0(propTokenContractAddress).getApproved(propTokenId) == address(this), \"pool not approved to move egg\");\n        //also require msg.sender is owner of token\n        require(PropToken0(propTokenContractAddress).ownerOf(propTokenId) == msg.sender, \"msg.sender not egg owner\");\n\n        //check the requested interest rate is still available\n        uint256 fixedInterestRate = uint256(PoolUtils0(poolUtilsAddress).getInterestRate(amount));\n        require(fixedInterestRate <= maxRate, \"interest rate no longer avail\");\n\n        //require the propToken approved has a lien value less than or equal to the requested loan size\n        uint256 lienAmount = PropToken0(propTokenContractAddress).getLienValue(propTokenId);\n        require(lienAmount >= amount, \"loan larger that egg value\");\n\n        //require that LTV of propToken is less than LTV required by oracle\n        uint256 LTVRequirement = LTVGuidelines(LTVOracleAddress).getMaxLTV();\n        (, , uint256[] memory SeniorLiens, uint256 HomeValue, , ,) = PropToken0(propTokenContractAddress).getPropTokenData(propTokenId);\n        for (uint i = 0; i < SeniorLiens.length; i++) {  \n            lienAmount = lienAmount.add(SeniorLiens[i]);\n        }\n        require(lienAmount.mul(100).div(HomeValue) < LTVRequirement, \"LTV too high\");\n\n\n        //first take the propToken\n        PropToken0(propTokenContractAddress).safeTransferFrom(msg.sender, address(this), propTokenId);\n\n        //create new Loan\n        Loan memory newLoan = Loan(loanCount, msg.sender, fixedInterestRate, amount, 0, block.timestamp);\n        loans.push(newLoan);\n        userLoans[msg.sender].push(loanCount);\n\n        //map new loanID to Token ID\n        loanToPropToken[loanCount] = propTokenId;\n\n        //update system variables\n        loanCount = loanCount.add(1);\n        poolBorrowed = poolBorrowed.add(amount);\n\n        //finally move the USDC\n        IERC20Upgradeable(ERCAddress).transfer(msg.sender, amount);\n\n        //then mint HC_Pool for the servicer (fixed 1% origination is better than standard 2.5%)\n        mintProportionalPoolTokens(servicer, amount.div(100));\n    }\n    \n    /**  \n    *   @dev Function repay repays a specific loan\n    *   - payment is first deducted from the interest then principal. \n    *   - the servicer_fee is deducted from the interest repayment and servicer is compensated in hc_pool\n    *   - repayer must have first approved fromsfers on behalf \n    *   @param loanId The loan to be repayed\n    *   @param amount The amount of the ERC20 token to repay the loan with\n    *   EDITED - Pool1 returns propToken when principal reaches 0\n    */\n\n    function repay(uint256 loanId, uint256 amount) public {        \n        //interestAmountRepayed keeps track of how much of the loan was returned to the pool to calculate servicer fee(treated as cash investment)\n        uint256 interestAmountRepayed = amount;\n\n        uint256 currentInterest = getLoanAccruedInterest(loanId);\n        if(currentInterest > amount) {\n            //if the payment is less than the interest accrued on the loan, just deduct amount from interest\n            //deduct amount FIRST (to make sure they have available balance), then reduce loan amount\n            IERC20Upgradeable(ERCAddress).transferFrom(msg.sender, address(this), amount);\n            loans[loanId].interestAccrued = currentInterest.sub(amount);\n        } else {\n            //if the amount borrow is repaying is greater than interest accrued, deduct the rest from principal\n            interestAmountRepayed = currentInterest;\n            uint256 amountAfterInterest = amount.sub(currentInterest);\n            \n            if(loans[loanId].principal > amountAfterInterest) {\n                //deduct amount from Borrower and reduce the principal\n                IERC20Upgradeable(ERCAddress).transferFrom(msg.sender, address(this), amount);\n                //return the repayed principal to the 'borrowable' amount\n                poolBorrowed = poolBorrowed.sub(amountAfterInterest);\n                loans[loanId].principal = loans[loanId].principal.sub(amountAfterInterest);\n            } else {\n                //deduct totalLoanValue\n                uint256 totalLoanValue = loans[loanId].principal.add(currentInterest);\n                IERC20Upgradeable(ERCAddress).transferFrom(msg.sender, address(this), totalLoanValue);\n                //return the repayed principal to the 'borrowable' amount\n                poolBorrowed = poolBorrowed.sub(loans[loanId].principal);\n                loans[loanId].principal = 0;\n                //Send PropToken back to borrower\n                PropToken0(propTokenContractAddress).safeTransferFrom(address(this), loans[loanId].borrower, loanToPropToken[loanId]);\n            }\n\n            //set interest accrued to 0 AFTER successful erc20 transfer\n            loans[loanId].interestAccrued = 0;\n        }\n\n        //last payment timestamp is only updated AFTER  successful erc20 transfer\n        loans[loanId].timeLastPayment = block.timestamp;\n\n        //treat repayed interest as new money Lent into the pool\n        poolLent = poolLent.add(interestAmountRepayed);\n\n        //servicer fee is treated as cash investment in the pool as the percentage interest\n        //calculate how much of payment goes to servicer here\n        uint256 servicerFeeInERC = servicerFeePercentage.mul(interestAmountRepayed).div(loans[loanId].interestRate);\n        mintProportionalPoolTokens(servicer, servicerFeeInERC);\n    }\n\n    /*****************************************************\n    *                Staking FUNCTIONS\n    ******************************************************/\n\n    /**  \n    *   @dev Function stake transfers users bHOME to the poolStaking contract\n    */\n    function stake(uint256 amount) public returns (bool) {\n        require(balanceOf(msg.sender) >= amount, \"not enough to stake\");\n\n        bool successfulStake = PoolStaking0(poolStakingAddress).stake(msg.sender, amount);\n        if(successfulStake) {\n            transfer(poolStakingAddress, amount);\n        }\n\n        return successfulStake;\n    }\n\n    /**  \n    *   @dev Function lendAndStake calls both the Lend and Stake functions in one call\n    *   @param amount is amount of USDC to be deposited\n    *   @return the bool from stake that reprents successful stake\n    */\n    function lendAndStake(uint256 amount) public returns (bool) {\n        uint256 newPoolTokens = lend(amount);\n        return stake(newPoolTokens);\n    }\n\n    /**  \n    *   @dev Function getVersion returns current upgraded version\n    */\n    function getVersion() public pure returns (uint) {\n        return 4;\n    }\n\n    function onERC721Received(address, address, uint256, bytes memory ) public pure override returns (bytes4) {\n        return this.onERC721Received.selector;\n    }\n}",
  "sourcePath": "/Users/patrick/github/HomeDAO/contracts/PoolCore/Pool4.sol",
  "compiler": {
    "name": "solc",
    "version": "0.8.9+commit.e5eed63a.Emscripten.clang"
  },
  "schemaVersion": "3.4.8",
  "updatedAt": "2022-08-10T01:41:50.049Z",
  "devdoc": {
    "kind": "dev",
    "methods": {
      "allowance(address,address)": {
        "details": "See {IERC20-allowance}. Note that operator and allowance concepts are orthogonal: operators may not have allowance, and accounts with allowance may not be operators themselves."
      },
      "approve(address,uint256)": {
        "details": "See {IERC20-approve}. Note that accounts cannot have allowance issued by their operators."
      },
      "authorizeOperator(address)": {
        "details": "See {IERC777-authorizeOperator}."
      },
      "balanceOf(address)": {
        "details": "Returns the amount of tokens owned by an account (`tokenHolder`)."
      },
      "borrow(uint256,uint256,uint256)": {
        "details": "Function borrow creates a new Loan, moves the USDC to Borrower, and returns the loan ID and fixed Interest Rate   - Also creates an origination fee for the Servicer in HC_Pool",
        "params": {
          "amount": "The size of the potential loan in (probably usdc).",
          "maxRate": "The size of the potential loan in (probably usdc).   EDITED in pool1 to also require a PropToken   EDITED in pool1 - borrower param was removed and msg.sender is new recepient of USDC   EDITED in pool2 - propToken data is oulled and LTV of loan is required before loan can process"
        }
      },
      "burn(uint256,bytes)": {
        "details": "See {IERC777-burn}. Also emits a {IERC20-Transfer} event for ERC20 compatibility."
      },
      "decimals()": {
        "details": "See {ERC20-decimals}. Always returns 18, as per the [ERC777 EIP](https://eips.ethereum.org/EIPS/eip-777#backward-compatibility)."
      },
      "defaultOperators()": {
        "details": "See {IERC777-defaultOperators}."
      },
      "getContractData()": {
        "details": "Function getContractData() returns a lot of variables about the contract"
      },
      "getLoanAccruedInterest(uint256)": {
        "details": "Function getLoanAccruedInterest() calculates and returns the amount of interest accrued on a given loan",
        "params": {
          "loanId": "is the id for the loan we're looking up"
        }
      },
      "getLoanDetails(uint256)": {
        "details": "Function getLoanDetails() returns an all the raw details about a loan",
        "params": {
          "loanId": "is the id for the loan we're looking up   EDITED in pool1 to also return PropToken ID"
        }
      },
      "getServicerAddress()": {
        "details": "Function getServicerAddress() returns the address of this pool's servicer"
      },
      "getSupplyableTokenAddress()": {
        "details": "Function getSupplyableTokenAddress() returns the contract address of ERC20 this pool accepts (ususally USDC)"
      },
      "getVersion()": {
        "details": "Function getVersion returns current upgraded version"
      },
      "granularity()": {
        "details": "See {IERC777-granularity}. This implementation always returns `1`."
      },
      "isOperatorFor(address,address)": {
        "details": "See {IERC777-isOperatorFor}."
      },
      "lend(uint256)": {
        "details": "Function lend moves assets on the (probably usdc) contract to our own balance   - Before calling: an approve(address _spender (proxy), uint256 _value (0xffff)) function call must be made on remote contract",
        "params": {
          "amount": "The amount of USDC to be transferred"
        },
        "returns": {
          "_0": "the amount of poolTokens created"
        }
      },
      "lendAndStake(uint256)": {
        "details": "Function lendAndStake calls both the Lend and Stake functions in one call",
        "params": {
          "amount": "is amount of USDC to be deposited"
        },
        "returns": {
          "_0": "the bool from stake that reprents successful stake"
        }
      },
      "name()": {
        "details": "See {IERC777-name}."
      },
      "operatorBurn(address,uint256,bytes,bytes)": {
        "details": "See {IERC777-operatorBurn}. Emits {Burned} and {IERC20-Transfer} events."
      },
      "operatorSend(address,address,uint256,bytes,bytes)": {
        "details": "See {IERC777-operatorSend}. Emits {Sent} and {IERC20-Transfer} events."
      },
      "redeem(uint256)": {
        "details": "Function redeem burns the sender's hcPool tokens and transfers the usdc back to them",
        "params": {
          "amount": "The amount of hc_pool to be redeemed"
        }
      },
      "repay(uint256,uint256)": {
        "details": "Function repay repays a specific loan   - payment is first deducted from the interest then principal.    - the servicer_fee is deducted from the interest repayment and servicer is compensated in hc_pool   - repayer must have first approved fromsfers on behalf ",
        "params": {
          "amount": "The amount of the ERC20 token to repay the loan with   EDITED - Pool1 returns propToken when principal reaches 0",
          "loanId": "The loan to be repayed"
        }
      },
      "revokeOperator(address)": {
        "details": "See {IERC777-revokeOperator}."
      },
      "send(address,uint256,bytes)": {
        "details": "See {IERC777-send}. Also emits a {IERC20-Transfer} event for ERC20 compatibility."
      },
      "setApprovedAddresses(address[])": {
        "details": "Function setApprovedAddresses() updates the array of addresses approved by the servicer",
        "params": {
          "_servicerAddresses": "The array of addresses to be set as approved for borrowing"
        }
      },
      "stake(uint256)": {
        "details": "Function stake transfers users bHOME to the poolStaking contract"
      },
      "symbol()": {
        "details": "See {IERC777-symbol}."
      },
      "totalSupply()": {
        "details": "See {IERC777-totalSupply}."
      },
      "transfer(address,uint256)": {
        "details": "See {IERC20-transfer}. Unlike `send`, `recipient` is _not_ required to implement the {IERC777Recipient} interface if it is a contract. Also emits a {Sent} event."
      },
      "transferFrom(address,address,uint256)": {
        "details": "See {IERC20-transferFrom}. Note that operator and allowance concepts are orthogonal: operators cannot call `transferFrom` (unless they have allowance), and accounts with allowance cannot call `operatorSend` (unless they are operators). Emits {Sent}, {IERC20-Transfer} and {IERC20-Approval} events."
      }
    },
    "version": 1
  },
  "userdoc": {
    "kind": "user",
    "methods": {},
    "version": 1
  }
}