{
  "contractName": "PoolStakingRewards7",
  "abi": [
    {
      "anonymous": false,
      "inputs": [
        {
          "indexed": true,
          "internalType": "address",
          "name": "user",
          "type": "address"
        },
        {
          "indexed": true,
          "internalType": "uint128",
          "name": "epochId",
          "type": "uint128"
        },
        {
          "indexed": false,
          "internalType": "uint256",
          "name": "amount",
          "type": "uint256"
        }
      ],
      "name": "Harvest",
      "type": "event"
    },
    {
      "anonymous": false,
      "inputs": [
        {
          "indexed": true,
          "internalType": "address",
          "name": "user",
          "type": "address"
        },
        {
          "indexed": false,
          "internalType": "uint256",
          "name": "epochsHarvested",
          "type": "uint256"
        },
        {
          "indexed": false,
          "internalType": "uint256",
          "name": "totalValue",
          "type": "uint256"
        }
      ],
      "name": "MassHarvest",
      "type": "event"
    },
    {
      "inputs": [],
      "name": "epochDuration",
      "outputs": [
        {
          "internalType": "uint256",
          "name": "",
          "type": "uint256"
        }
      ],
      "stateMutability": "view",
      "type": "function"
    },
    {
      "inputs": [],
      "name": "epochStart",
      "outputs": [
        {
          "internalType": "uint256",
          "name": "",
          "type": "uint256"
        }
      ],
      "stateMutability": "view",
      "type": "function"
    },
    {
      "inputs": [],
      "name": "lastInitializedEpoch",
      "outputs": [
        {
          "internalType": "uint128",
          "name": "",
          "type": "uint128"
        }
      ],
      "stateMutability": "view",
      "type": "function"
    },
    {
      "inputs": [
        {
          "internalType": "address",
          "name": "_guardianAddress",
          "type": "address"
        }
      ],
      "name": "setGuardianAddress",
      "outputs": [],
      "stateMutability": "nonpayable",
      "type": "function"
    },
    {
      "inputs": [
        {
          "internalType": "address",
          "name": "_DAOAddress",
          "type": "address"
        }
      ],
      "name": "setDAOAddress",
      "outputs": [],
      "stateMutability": "nonpayable",
      "type": "function"
    },
    {
      "inputs": [
        {
          "internalType": "uint256",
          "name": "newPerEpoch",
          "type": "uint256"
        }
      ],
      "name": "setPerEpoch",
      "outputs": [],
      "stateMutability": "nonpayable",
      "type": "function"
    },
    {
      "inputs": [
        {
          "internalType": "address",
          "name": "newMinter",
          "type": "address"
        }
      ],
      "name": "transferMintRights",
      "outputs": [],
      "stateMutability": "nonpayable",
      "type": "function"
    },
    {
      "inputs": [
        {
          "internalType": "address",
          "name": "poolAddress",
          "type": "address"
        }
      ],
      "name": "approvePool",
      "outputs": [],
      "stateMutability": "nonpayable",
      "type": "function"
    },
    {
      "inputs": [
        {
          "internalType": "address",
          "name": "poolAddress",
          "type": "address"
        }
      ],
      "name": "revokePool",
      "outputs": [],
      "stateMutability": "nonpayable",
      "type": "function"
    },
    {
      "inputs": [
        {
          "internalType": "address",
          "name": "poolAddress",
          "type": "address"
        }
      ],
      "name": "approveSubMinter",
      "outputs": [],
      "stateMutability": "nonpayable",
      "type": "function"
    },
    {
      "inputs": [
        {
          "internalType": "address",
          "name": "poolAddress",
          "type": "address"
        }
      ],
      "name": "revokeSubMinter",
      "outputs": [],
      "stateMutability": "nonpayable",
      "type": "function"
    },
    {
      "inputs": [
        {
          "internalType": "address",
          "name": "wallet",
          "type": "address"
        },
        {
          "internalType": "uint256",
          "name": "amount",
          "type": "uint256"
        }
      ],
      "name": "stake",
      "outputs": [
        {
          "internalType": "bool",
          "name": "",
          "type": "bool"
        }
      ],
      "stateMutability": "nonpayable",
      "type": "function"
    },
    {
      "inputs": [
        {
          "internalType": "uint256",
          "name": "amount",
          "type": "uint256"
        }
      ],
      "name": "unstake",
      "outputs": [],
      "stateMutability": "nonpayable",
      "type": "function"
    },
    {
      "inputs": [
        {
          "internalType": "address",
          "name": "wallet",
          "type": "address"
        },
        {
          "internalType": "uint256",
          "name": "amount",
          "type": "uint256"
        }
      ],
      "name": "unstakeForWallet",
      "outputs": [],
      "stateMutability": "nonpayable",
      "type": "function"
    },
    {
      "inputs": [
        {
          "internalType": "uint256",
          "name": "amount",
          "type": "uint256"
        },
        {
          "internalType": "address",
          "name": "from",
          "type": "address"
        },
        {
          "internalType": "address",
          "name": "to",
          "type": "address"
        }
      ],
      "name": "transferStake",
      "outputs": [],
      "stateMutability": "nonpayable",
      "type": "function"
    },
    {
      "inputs": [
        {
          "internalType": "address",
          "name": "account",
          "type": "address"
        },
        {
          "internalType": "uint256",
          "name": "amount",
          "type": "uint256"
        }
      ],
      "name": "subMint",
      "outputs": [],
      "stateMutability": "nonpayable",
      "type": "function"
    },
    {
      "inputs": [
        {
          "internalType": "address",
          "name": "wallet",
          "type": "address"
        }
      ],
      "name": "massHarvest",
      "outputs": [
        {
          "internalType": "uint256",
          "name": "",
          "type": "uint256"
        }
      ],
      "stateMutability": "nonpayable",
      "type": "function"
    },
    {
      "inputs": [
        {
          "internalType": "address",
          "name": "wallet",
          "type": "address"
        },
        {
          "internalType": "uint128",
          "name": "epochId",
          "type": "uint128"
        }
      ],
      "name": "harvest",
      "outputs": [
        {
          "internalType": "uint256",
          "name": "",
          "type": "uint256"
        }
      ],
      "stateMutability": "nonpayable",
      "type": "function"
    },
    {
      "inputs": [],
      "name": "getTotalEpochs",
      "outputs": [
        {
          "internalType": "uint256",
          "name": "",
          "type": "uint256"
        }
      ],
      "stateMutability": "view",
      "type": "function"
    },
    {
      "inputs": [],
      "name": "getRewardPerEpoch",
      "outputs": [
        {
          "internalType": "uint256",
          "name": "",
          "type": "uint256"
        }
      ],
      "stateMutability": "view",
      "type": "function"
    },
    {
      "inputs": [
        {
          "internalType": "uint256",
          "name": "length",
          "type": "uint256"
        },
        {
          "internalType": "uint256",
          "name": "base",
          "type": "uint256"
        },
        {
          "internalType": "uint256",
          "name": "_percentStartEpoch",
          "type": "uint256"
        }
      ],
      "name": "fillPercentArray",
      "outputs": [],
      "stateMutability": "nonpayable",
      "type": "function"
    },
    {
      "inputs": [
        {
          "internalType": "uint128",
          "name": "epochId",
          "type": "uint128"
        }
      ],
      "name": "getRewardAtEpoch",
      "outputs": [
        {
          "internalType": "uint256",
          "name": "",
          "type": "uint256"
        }
      ],
      "stateMutability": "view",
      "type": "function"
    },
    {
      "inputs": [
        {
          "internalType": "uint128",
          "name": "epochId",
          "type": "uint128"
        }
      ],
      "name": "getPoolSize",
      "outputs": [
        {
          "internalType": "uint256",
          "name": "",
          "type": "uint256"
        }
      ],
      "stateMutability": "view",
      "type": "function"
    },
    {
      "inputs": [],
      "name": "getCurrentEpoch",
      "outputs": [
        {
          "internalType": "uint256",
          "name": "",
          "type": "uint256"
        }
      ],
      "stateMutability": "view",
      "type": "function"
    },
    {
      "inputs": [
        {
          "internalType": "address",
          "name": "userAddress",
          "type": "address"
        },
        {
          "internalType": "uint128",
          "name": "epochId",
          "type": "uint128"
        }
      ],
      "name": "getEpochStake",
      "outputs": [
        {
          "internalType": "uint256",
          "name": "",
          "type": "uint256"
        }
      ],
      "stateMutability": "view",
      "type": "function"
    },
    {
      "inputs": [
        {
          "internalType": "address",
          "name": "userAddress",
          "type": "address"
        }
      ],
      "name": "getCurrentEpochStake",
      "outputs": [
        {
          "internalType": "uint256",
          "name": "",
          "type": "uint256"
        }
      ],
      "stateMutability": "view",
      "type": "function"
    },
    {
      "inputs": [
        {
          "internalType": "address",
          "name": "userAddress",
          "type": "address"
        }
      ],
      "name": "getCurrentBalance",
      "outputs": [
        {
          "internalType": "uint256",
          "name": "",
          "type": "uint256"
        }
      ],
      "stateMutability": "view",
      "type": "function"
    },
    {
      "inputs": [],
      "name": "userLastEpochIdHarvested",
      "outputs": [
        {
          "internalType": "uint256",
          "name": "",
          "type": "uint256"
        }
      ],
      "stateMutability": "view",
      "type": "function"
    },
    {
      "inputs": [
        {
          "internalType": "address",
          "name": "wallet",
          "type": "address"
        },
        {
          "internalType": "uint256",
          "name": "userReward",
          "type": "uint256"
        }
      ],
      "name": "mintBacon",
      "outputs": [],
      "stateMutability": "nonpayable",
      "type": "function"
    },
    {
      "inputs": [
        {
          "internalType": "address",
          "name": "wallet",
          "type": "address"
        }
      ],
      "name": "getAndClearReward",
      "outputs": [
        {
          "internalType": "uint256",
          "name": "",
          "type": "uint256"
        }
      ],
      "stateMutability": "nonpayable",
      "type": "function"
    }
  ],
  "bytecode": "0x608060405234801561001057600080fd5b50611f5c806100206000396000f3fe608060405234801561001057600080fd5b50600436106101da5760003560e01c806399d9c56d11610104578063ba17cef3116100a2578063dbe0090c11610071578063dbe0090c146103e0578063e1466bc2146103f3578063f65bb79c14610406578063f7e251f81461041957600080fd5b8063ba17cef314610394578063bc36b07a146103a7578063d2ec3958146103ba578063d3834e80146103cd57600080fd5b8063a1c130d4116100de578063a1c130d414610338578063a70dba7c14610356578063adc9772e14610369578063b97dd9e21461038c57600080fd5b806399d9c56d146102e75780639a2daa0a146102fa5780639c7ec8811461030d57600080fd5b8063424c265b1161017c5780634ff0876a1161014b5780634ff0876a146102a55780636a7b408b146102ae5780636ae3e75b146102c1578063965afa89146102d457600080fd5b8063424c265b146102645780634331245114610277578063440277e81461028a5780634cb0482f1461029d57600080fd5b806315e5a1e5116101b857806315e5a1e51461022d5780631d4b449a146102365780632e17de781461023e5780632e4124981461025157600080fd5b80630e020b25146101df57806311fe3345146102055780631412b12214610218575b600080fd5b6101f26101ed366004611cc3565b61042c565b6040519081526020015b60405180910390f35b6101f2610213366004611cc3565b610635565b61022b610226366004611cde565b61064e565b005b6101f2600b5481565b6007546101f2565b61022b61024c366004611d0a565b610809565b61022b61025f366004611d23565b610851565b61022b610272366004611cc3565b61092f565b6101f2610285366004611d64565b6109bb565b6101f2610298366004611cc3565b6109ce565b600c546101f2565b6101f2600a5481565b61022b6102bc366004611d23565b610a77565b61022b6102cf366004611cc3565b610af8565b61022b6102e2366004611cc3565b610b81565b61022b6102f5366004611cc3565b610c64565b6101f2610308366004611cc3565b610cf0565b600854610320906001600160801b031681565b6040516001600160801b0390911681526020016101fc565b336000908152600960205260409020546001600160801b03166101f2565b61022b610364366004611d23565b610de7565b61037c610377366004611d23565b610e4f565b60405190151581526020016101fc565b6101f2610f5a565b61022b6103a2366004611cc3565b610f72565b61022b6103b5366004611d97565b611055565b6101f26103c8366004611dd3565b611164565b61022b6103db366004611d0a565b6112ac565b61022b6103ee366004611cc3565b61130b565b6101f2610401366004611d64565b6113ee565b61022b610414366004611cc3565b6116e2565b6101f2610427366004611dd3565b61176b565b3360009081526003602052604081205460ff166104a45760405162461bcd60e51b815260206004820152602b60248201527f506f6f6c5374616b696e67526577617264733a206d757374206265206170707260448201526a37bb32b21039b2b73232b960a91b60648201526084015b60405180910390fd5b60006104ae611776565b6001600160801b03166104c45750600092915050565b60006104e260016104d3611776565b6001600160801b0316906117b3565b9050600c548111156104f35750600c545b6001600160a01b038416600090815260096020526040812054610520906001600160801b03166001611e04565b90505b81816001600160801b03161161055b5761053d85826117bf565b6105479084611e2f565b92508061055381611e47565b915050610523565b506001600160a01b0384166000818152600960205260409020547fb68dafc1da13dc868096d0b87347c831d0bda92d178317eb1dec7f788444485c906105aa906001600160801b031684611e6e565b60408051918252602082018690520160405180910390a2811561062e576001546040516340c10f1960e01b81526001600160a01b03868116600483015260248201859052909116906340c10f1990604401600060405180830381600087803b15801561061557600080fd5b505af1158015610629573d6000803e3d6000fd5b505050505b5092915050565b600061064882610643611776565b6118de565b92915050565b6004546001600160a01b031633146106b65760405162461bcd60e51b815260206004820152602560248201527f506f6f6c5374616b696e67526577617264733a20756e617070726f766564207360448201526432b73232b960d91b606482015260840161049b565b60108190558267ffffffffffffffff8111156106d4576106d4611e85565b6040519080825280602002602001820160405280156106fd578160200160208202803683370190505b50805161071291600f91602090910190611bf7565b506201000060005b8481101561079b5761072c8483611e9b565b915061073b6201000083611eba565b9150610746826119a9565b600f828154811061075957610759611edc565b90600052602060002090601091828204019190066002026101000a81548161ffff021916908361ffff160217905550808061079390611ef2565b91505061071a565b5060005b848110156107eb576006805460018101825560009182527ff652222313e28459528d920b65115c16c04f3efc82aaedc97be59f3f377c0d3f0155806107e381611ef2565b91505061079f565b5083600c60008282546107fe9190611e2f565b909155505050505050565b60405162461bcd60e51b815260206004820152600b60248201527f6e6f7420616c6c6f776564000000000000000000000000000000000000000000604482015260640161049b565b336000908152600e602052604090205460ff166108c45760405162461bcd60e51b815260206004820152602b60248201527f506f6f6c5374616b696e67526577617264733a206d757374206265206170707260448201526a37bb32b21039b2b73232b960a91b606482015260840161049b565b6001546040516340c10f1960e01b81526001600160a01b03848116600483015260248201849052909116906340c10f19906044015b600060405180830381600087803b15801561091357600080fd5b505af1158015610927573d6000803e3d6000fd5b505050505050565b6004546001600160a01b031633146109975760405162461bcd60e51b815260206004820152602560248201527f506f6f6c5374616b696e67526577617264733a20756e617070726f766564207360448201526432b73232b960d91b606482015260840161049b565b6001600160a01b03166000908152600360205260409020805460ff19166001179055565b60006109c783836118de565b9392505050565b600254600080546040517ff7888aec0000000000000000000000000000000000000000000000000000000081526001600160a01b03858116600483015262010000909204821660248201529192169063f7888aec906044015b60206040518083038186803b158015610a3f57600080fd5b505afa158015610a53573d6000803e3d6000fd5b505050506040513d601f19601f820116820180604052508101906106489190611f0d565b3360009081526003602052604090205460ff16610aea5760405162461bcd60e51b815260206004820152602b60248201527f506f6f6c5374616b696e67526577617264733a206d757374206265206170707260448201526a37bb32b21039b2b73232b960a91b606482015260840161049b565b610af48282611a27565b5050565b6004546001600160a01b03163314610b605760405162461bcd60e51b815260206004820152602560248201527f506f6f6c5374616b696e67526577617264733a20756e617070726f766564207360448201526432b73232b960d91b606482015260840161049b565b6001600160a01b03166000908152600360205260409020805460ff19169055565b6004546001600160a01b03163314610be95760405162461bcd60e51b815260206004820152602560248201527f506f6f6c5374616b696e67526577617264733a20756e617070726f766564207360448201526432b73232b960d91b606482015260840161049b565b600580546001600160a01b03908116600090815260096020526040808220549490921680825291902080546fffffffffffffffffffffffffffffffff19166001600160801b039094169390931790925580547fffffffffffffffffffffffff0000000000000000000000000000000000000000169091179055565b6004546001600160a01b03163314610ccc5760405162461bcd60e51b815260206004820152602560248201527f506f6f6c5374616b696e67526577617264733a20756e617070726f766564207360448201526432b73232b960d91b606482015260840161049b565b6001600160a01b03166000908152600e60205260409020805460ff19166001179055565b3360009081526003602052604081205460ff16610d635760405162461bcd60e51b815260206004820152602b60248201527f506f6f6c5374616b696e67526577617264733a206d757374206265206170707260448201526a37bb32b21039b2b73232b960a91b606482015260840161049b565b6002546000546040517f4a0c8ce60000000000000000000000000000000000000000000000000000000081526001600160a01b0385811660048301526201000090920482166024820152911690634a0c8ce690604401602060405180830381600087803b158015610dd357600080fd5b505af1158015610a53573d6000803e3d6000fd5b600d546001600160a01b031633146108c45760405162461bcd60e51b815260206004820152602560248201527f506f6f6c5374616b696e67526577617264733a20756e617070726f766564207360448201526432b73232b960d91b606482015260840161049b565b3360009081526003602052604081205460ff16610ec25760405162461bcd60e51b815260206004820152602b60248201527f506f6f6c5374616b696e67526577617264733a206d757374206265206170707260448201526a37bb32b21039b2b73232b960a91b606482015260840161049b565b6002546000546040517f8340f5490000000000000000000000000000000000000000000000000000000081526001600160a01b036201000090920482166004820152858216602482015260448101859052911690638340f54990606401600060405180830381600087803b158015610f3957600080fd5b505af1158015610f4d573d6000803e3d6000fd5b5060019695505050505050565b6000610f64611776565b6001600160801b0316905090565b6004546001600160a01b03163314610fda5760405162461bcd60e51b815260206004820152602560248201527f506f6f6c5374616b696e67526577617264733a20756e617070726f766564207360448201526432b73232b960d91b606482015260840161049b565b6001546040517f9dd373b90000000000000000000000000000000000000000000000000000000081526001600160a01b03838116600483015290911690639dd373b990602401600060405180830381600087803b15801561103a57600080fd5b505af115801561104e573d6000803e3d6000fd5b5050505050565b3360009081526003602052604090205460ff166110c85760405162461bcd60e51b815260206004820152602b60248201527f506f6f6c5374616b696e67526577617264733a206d757374206265206170707260448201526a37bb32b21039b2b73232b960a91b606482015260840161049b565b6002546000546040517fa6c4e4670000000000000000000000000000000000000000000000000000000081526001600160a01b036201000090920482166004820152602481018690528482166044820152838216606482015291169063a6c4e46790608401600060405180830381600087803b15801561114757600080fd5b505af115801561115b573d6000803e3d6000fd5b50505050505050565b6000600c54826001600160801b031611156111e75760405162461bcd60e51b815260206004820152602660248201527f506f6f6c5374616b696e67526577617264733a2045706f6368206f7574206f6660448201527f2072616e67650000000000000000000000000000000000000000000000000000606482015260840161049b565b601054826001600160801b0316101561120257505060075490565b600754600090611213906002611a89565b90506000601054846001600160801b031661122e9190611e6e565b9050600061128662010000611280670de0b6b3a7640000600f868154811061125857611258611edc565b60009182526020909120601082040154600f9091166002026101000a900461ffff1690611a95565b90611a89565b905061129e670de0b6b3a76400006112808584611a95565b95945050505050565b919050565b6004546001600160a01b031633146113065760405162461bcd60e51b815260206004820152601160248201527f756e617070726f7665642073656e646572000000000000000000000000000000604482015260640161049b565b600755565b6004546001600160a01b031633146113735760405162461bcd60e51b815260206004820152602560248201527f506f6f6c5374616b696e67526577617264733a20756e617070726f766564207360448201526432b73232b960d91b606482015260840161049b565b600480546001600160a01b03908116600090815260096020526040808220549490921680825291902080546fffffffffffffffffffffffffffffffff19166001600160801b039094169390931790925580547fffffffffffffffffffffffff0000000000000000000000000000000000000000169091179055565b3360009081526003602052604081205460ff166114615760405162461bcd60e51b815260206004820152602b60248201527f506f6f6c5374616b696e67526577617264733a206d757374206265206170707260448201526a37bb32b21039b2b73232b960a91b606482015260840161049b565b816001600160801b0316611473611776565b6001600160801b0316116114ef5760405162461bcd60e51b815260206004820152602f60248201527f506f6f6c5374616b696e67526577617264733a20546869732065706f6368206960448201527f7320696e20746865206675747572650000000000000000000000000000000000606482015260840161049b565b600c54826001600160801b031611156115705760405162461bcd60e51b815260206004820152603260248201527f506f6f6c5374616b696e67526577617264733a204d6178696d756d206e756d6260448201527f6572206f662065706f6368732069732031320000000000000000000000000000606482015260840161049b565b6001600160a01b0383166000908152600960205260409020546001600160801b03808416916115a191166001611aa1565b146116135760405162461bcd60e51b8152602060048201526024808201527f506f6f6c5374616b696e67526577617264733a204861727665737420696e206f60448201527f7264657200000000000000000000000000000000000000000000000000000000606482015260840161049b565b600061161f84846117bf565b9050801561168e576001546040516340c10f1960e01b81526001600160a01b03868116600483015260248201849052909116906340c10f1990604401600060405180830381600087803b15801561167557600080fd5b505af1158015611689573d6000803e3d6000fd5b505050505b826001600160801b0316846001600160a01b03167f04ad45a69eeed9c390c3a678fed2d4b90bde98e742de9936d5e0915bf3d0ea4e836040516116d391815260200190565b60405180910390a39392505050565b6004546001600160a01b0316331461174a5760405162461bcd60e51b815260206004820152602560248201527f506f6f6c5374616b696e67526577617264733a20756e617070726f766564207360448201526432b73232b960d91b606482015260840161049b565b6001600160a01b03166000908152600e60205260409020805460ff19169055565b600061064882611aad565b6000600b544210156117885750600090565b6117ae60016117a8600a54611280600b54426117b390919063ffffffff16565b90611aa1565b905090565b60006109c78284611e6e565b6008546000906001600160801b03808416911610156117e1576117e182611b11565b6001600160a01b03838116600081815260096020526040902080546fffffffffffffffffffffffffffffffff19166001600160801b0386161790556005549091161415611839575069e6874aeb4a14a2000000610648565b6004546001600160a01b038481169116141561186157506a01f37a77a875d75f000000610648565b6006826001600160801b03168154811061187d5761187d611edc565b90600052602060002001546000141561189857506000610648565b6109c76006836001600160801b0316815481106118b7576118b7611edc565b90600052602060002001546112806118cf86866118de565b6118d886611164565b90611a95565b6002546000805490916001600160a01b0390811691638c028dd091869162010000900416856040517fffffffff0000000000000000000000000000000000000000000000000000000060e086901b1681526001600160a01b0393841660048201529290911660248301526001600160801b0316604482015260640160206040518083038186803b15801561197157600080fd5b505afa158015611985573d6000803e3d6000fd5b505050506040513d601f19601f820116820180604052508101906109c79190611f0d565b600061ffff821115611a235760405162461bcd60e51b815260206004820152602660248201527f53616665436173743a2076616c756520646f65736e27742066697420696e203160448201527f3620626974730000000000000000000000000000000000000000000000000000606482015260840161049b565b5090565b6002546000546040517fd9caed120000000000000000000000000000000000000000000000000000000081526001600160a01b03620100009092048216600482015284821660248201526044810184905291169063d9caed12906064016108f9565b60006109c78284611eba565b60006109c78284611e9b565b60006109c78284611e2f565b600254600080546040517f2ca32d7e0000000000000000000000000000000000000000000000000000000081526001600160a01b0362010000909204821660048201526001600160801b038516602482015291921690632ca32d7e90604401610a27565b6008546001600160801b0380831691611b2c91166001611aa1565b14611b9f5760405162461bcd60e51b815260206004820152603360248201527f506f6f6c5374616b696e67526577617264733a2045706f63682063616e20626560448201527f20696e6974206f6e6c7920696e206f7264657200000000000000000000000000606482015260840161049b565b600880546fffffffffffffffffffffffffffffffff19166001600160801b038316179055611bcc81611aad565b6006826001600160801b031681548110611be857611be8611edc565b60009182526020909120015550565b82805482825590600052602060002090600f01601090048101928215611c905791602002820160005b83821115611c6057835183826101000a81548161ffff021916908361ffff1602179055509260200192600201602081600101049283019260010302611c20565b8015611c8e5782816101000a81549061ffff0219169055600201602081600101049283019260010302611c60565b505b50611a239291505b80821115611a235760008155600101611c98565b80356001600160a01b03811681146112a757600080fd5b600060208284031215611cd557600080fd5b6109c782611cac565b600080600060608486031215611cf357600080fd5b505081359360208301359350604090920135919050565b600060208284031215611d1c57600080fd5b5035919050565b60008060408385031215611d3657600080fd5b611d3f83611cac565b946020939093013593505050565b80356001600160801b03811681146112a757600080fd5b60008060408385031215611d7757600080fd5b611d8083611cac565b9150611d8e60208401611d4d565b90509250929050565b600080600060608486031215611dac57600080fd5b83359250611dbc60208501611cac565b9150611dca60408501611cac565b90509250925092565b600060208284031215611de557600080fd5b6109c782611d4d565b634e487b7160e01b600052601160045260246000fd5b60006001600160801b03808316818516808303821115611e2657611e26611dee565b01949350505050565b60008219821115611e4257611e42611dee565b500190565b60006001600160801b0380831681811415611e6457611e64611dee565b6001019392505050565b600082821015611e8057611e80611dee565b500390565b634e487b7160e01b600052604160045260246000fd5b6000816000190483118215151615611eb557611eb5611dee565b500290565b600082611ed757634e487b7160e01b600052601260045260246000fd5b500490565b634e487b7160e01b600052603260045260246000fd5b6000600019821415611f0657611f06611dee565b5060010190565b600060208284031215611f1f57600080fd5b505191905056fea2646970667358221220e6ec00e7099c02eb0196754d6db24feff0470f1386feaa78017a09b50caa39c564736f6c63430008090033",
  "immutableReferences": {},
  "source": "// SPDX-License-Identifier: Apache-2.0\n\n// Changes:\n// 1. Separated the bond token address from the pool token address so that the pool can hold bHome and reward Bacon.\n//    Though I suppose this makes it not a very good bond...\n\npragma solidity ^0.8.4;\n\nimport './../@openzeppelin/contracts/utils/math/SafeMath.sol';\nimport \"./../@openzeppelin/contracts/token/ERC20/IERC20.sol\";\nimport \"./../Staking/IStaking.sol\";\nimport \"./../Staking/Staking4.sol\";\nimport './../@openzeppelin/contracts/utils/math/SafeCast.sol';\nimport \"./../@openzeppelin/contracts-upgradeable/proxy/utils/Initializable.sol\";\nimport \"./../BaconCoin/BaconCoin3.sol\";\n\nimport \"hardhat/console.sol\";\n\ncontract PoolStakingRewards7 is Initializable {\n\n    // lib\n    using SafeMath for uint;\n    using SafeMath for uint128;\n\n    // Per epoch rewards\n    uint256 constant GUARDIAN_REWARD = 2_358_720e18;\n    uint256 constant DAO_REWARD = 1_088_640e18;\n\n    // constants\n    // end of year one rewards was block 15651074\n    // airdrop_ends_block_number (from airdrop script) was: 14127375\n    // year one reward per block: 100 Bacon\n    // total remaining rewards for year 1 = 100 * (endOfYearOneBlock - rewardsAirdropBlock)\n    // = 100 * (15651074-14127375)\n    // uint public constant TOTAL_DISTRIBUTED_AMOUNT = 152369900;\n    // There are roughly 19 weeks left in our 1 year rewards term\n    // starting the 19th of May 2022\n    // uint public constant NR_OF_EPOCHS = 19;\n    // uint128 public constant EPOCHS_DELAYED_FROM_STAKING_CONTRACT = 0;\n\n    // state variables\n\n    // addresses\n    address private _poolTokenAddress;\n    // contracts\n    BaconCoin3 private _bacon;\n    IStaking private _staking;\n    // TODO: maybe private?\n    mapping(address => bool) isApprovedPool;\n    address guardianAddress;\n    address daoAddress;\n\n\n    uint[] private epochs;\n    uint private _totalAmountPerEpoch;\n    uint128 public lastInitializedEpoch;\n    mapping(address => uint128) private lastEpochIdHarvested;\n    uint public epochDuration; // init from staking contract\n    uint public epochStart; // init from staking contract\n    uint private _numberOfEpochs;\n\n    /* PoolStakingRewards1 Variables */\n    address airdropContract;\n\n    /* PoolStakingRewards6 Variables */\n    mapping(address => bool) isApprovedSubMinter;\n\n    /* PoolStakingRewards7 Variables */\n    uint16[] private percent;\n    uint private percentStartEpoch;\n\n    // events\n    event MassHarvest(address indexed user, uint256 epochsHarvested, uint256 totalValue);\n    event Harvest(address indexed user, uint128 indexed epochId, uint256 amount);\n\n    function setGuardianAddress(address _guardianAddress) public {\n        require(msg.sender == guardianAddress, \"PoolStakingRewards: unapproved sender\");\n        lastEpochIdHarvested[_guardianAddress] =  lastEpochIdHarvested[guardianAddress];\n        guardianAddress = _guardianAddress;\n    }\n\n    // To be called after baconCoin0 is deployed\n    function setDAOAddress(address _DAOAddress) public {\n        require(msg.sender == guardianAddress, \"PoolStakingRewards: unapproved sender\");\n        lastEpochIdHarvested[_DAOAddress] =  lastEpochIdHarvested[daoAddress];\n        daoAddress = _DAOAddress;\n    }\n\n    function setPerEpoch(uint newPerEpoch) public {\n        require(msg.sender == guardianAddress, \"unapproved sender\");\n        _totalAmountPerEpoch = newPerEpoch;\n    }\n\n    function transferMintRights(address newMinter) public {\n        require(msg.sender == guardianAddress, \"PoolStakingRewards: unapproved sender\");\n        _bacon.setStakingContract(newMinter);\n    }\n\n    function approvePool(address poolAddress) public {\n        require(msg.sender == guardianAddress, \"PoolStakingRewards: unapproved sender\");\n        isApprovedPool[poolAddress] = true;\n    }\n\n    function revokePool(address poolAddress) public {\n        require(msg.sender == guardianAddress, \"PoolStakingRewards: unapproved sender\");\n        isApprovedPool[poolAddress] = false;\n    }\n\n    function approveSubMinter(address poolAddress) public {\n        require(msg.sender == guardianAddress, \"PoolStakingRewards: unapproved sender\");\n        isApprovedSubMinter[poolAddress] = true;\n    }\n\n    function revokeSubMinter(address poolAddress) public {\n        require(msg.sender == guardianAddress, \"PoolStakingRewards: unapproved sender\");\n        isApprovedSubMinter[poolAddress] = false;\n    }\n\n\n    function stake(address wallet, uint256 amount) public returns (bool) {\n        require(isApprovedPool[msg.sender], \"PoolStakingRewards: must be approved sender\");\n        // expects that the users Home has already been transferred to the staking contract\n        _staking.deposit(_poolTokenAddress, wallet, amount);\n\n        return true;\n    }\n\n    // PoolStakingRewards no longer allowed from any address. This is now done by claiming a HomeBoost.\n    function unstake(uint256 amount) public {\n        require(false, \"not allowed\");\n    }\n\n    function unstakeForWallet(address wallet, uint256 amount) public {\n        require(isApprovedPool[msg.sender], \"PoolStakingRewards: must be approved sender\");\n        _unstakeInternal(wallet, amount);\n    }\n\n    function transferStake(uint256 amount, address from, address to) public {\n        require(isApprovedPool[msg.sender], \"PoolStakingRewards: must be approved sender\");\n        Staking4(address(_staking)).transfer(_poolTokenAddress, amount, from, to);\n    }\n\n    function subMint(address account, uint256 amount) public {\n        require(isApprovedSubMinter[msg.sender], \"PoolStakingRewards: must be approved sender\");\n        _bacon.mint(account, amount);\n    }\n\n    // public methods\n    // public method to harvest all the unharvested epochs until current epoch - 1\n    function massHarvest(address wallet) external returns (uint){\n        require(isApprovedPool[msg.sender], \"PoolStakingRewards: must be approved sender\");\n        uint totalDistributedValue = 0;\n\n        //added so it doesn't fail on first epoch\n        if(_getEpochId() == 0){\n            return 0;\n        }\n        \n        uint epochId = _getEpochId().sub(1); // fails in epoch 0\n        // force max number of epochs\n        if (epochId > _numberOfEpochs) {\n            epochId = _numberOfEpochs;\n        }\n\n        for (uint128 i = lastEpochIdHarvested[wallet] + 1; i <= epochId; i++) {\n            // i = epochId\n            // compute distributed Value and do one single transfer at the end\n            totalDistributedValue += _harvest(wallet, i);\n        }\n\n        emit MassHarvest(wallet, epochId - lastEpochIdHarvested[wallet], totalDistributedValue);\n\n        if (totalDistributedValue > 0) {\n            _bacon.mint(wallet, totalDistributedValue);\n        }\n\n        return totalDistributedValue;\n    }\n\n    function harvest (address wallet, uint128 epochId) external returns (uint){\n        require(isApprovedPool[msg.sender], \"PoolStakingRewards: must be approved sender\");\n        // checks for requested epoch\n        require (_getEpochId() > epochId, \"PoolStakingRewards: This epoch is in the future\");\n        require(epochId <= _numberOfEpochs, \"PoolStakingRewards: Maximum number of epochs is 12\");\n        require (lastEpochIdHarvested[wallet].add(1) == epochId, \"PoolStakingRewards: Harvest in order\");\n        uint userReward = _harvest(wallet, epochId);\n        if (userReward > 0) {\n             _bacon.mint(wallet, userReward);\n        }\n        emit Harvest(wallet, epochId, userReward);\n        return userReward;\n    }\n\n    // views\n    function getTotalEpochs() external view returns (uint) {\n        return _numberOfEpochs;\n    }\n\n    function getRewardPerEpoch() external view returns (uint) {\n        return _totalAmountPerEpoch;\n    }\n\n    function fillPercentArray(uint length, uint base, uint _percentStartEpoch) public {\n        require(msg.sender == guardianAddress, \"PoolStakingRewards: unapproved sender\");\n        percentStartEpoch = _percentStartEpoch;\n        percent = new uint16[](length);\n        uint256 acc = 65536;\n        for (uint i = 0; i < length; i++) {\n            acc *= base;\n            acc /= (65536);\n            percent[i] = SafeCast.toUint16(acc);\n        }\n        for (uint i = 0; i < length; i++) {\n            epochs.push(0);\n        }\n        _numberOfEpochs += length;\n    }\n\n    function getRewardAtEpoch(uint128 epochId) public view returns (uint) {\n        require(epochId <= _numberOfEpochs, \"PoolStakingRewards: Epoch out of range\");\n        if (epochId < percentStartEpoch) {\n            return _totalAmountPerEpoch;\n        } else {\n            uint base = _totalAmountPerEpoch.div(2);\n            uint index = epochId - percentStartEpoch;\n            uint percentVal = uint(percent[index]).mul(1e18).div(65536);\n\n            return base.mul(percentVal).div(1e18);\n        }\n    }\n\n    // calls to the staking smart contract to retrieve the epoch total pool size\n    function getPoolSize(uint128 epochId) external view returns (uint) {\n        return _getPoolSize(epochId);\n    }\n\n    function getCurrentEpoch() external view returns (uint) {\n        return _getEpochId();\n    }\n\n    // calls to the staking smart contract to retrieve user balance for an epoch\n    function getEpochStake(address userAddress, uint128 epochId) external view returns (uint) {\n        return _getUserBalancePerEpoch(userAddress, epochId);\n    }\n\n    function getCurrentEpochStake(address userAddress) external view returns (uint) {\n        return _getUserBalancePerEpoch(userAddress, _getEpochId());\n    }\n\n    function getCurrentBalance(address userAddress) external view returns (uint) {\n        return _staking.balanceOf(userAddress, _poolTokenAddress);\n    }\n\n    function userLastEpochIdHarvested() external view returns (uint){\n        return lastEpochIdHarvested[msg.sender];\n    }\n\n    // internal methods\n\n    function _unstakeInternal(address wallet, uint256 amount) internal {\n        _staking.withdraw(_poolTokenAddress, wallet, amount);\n    }\n\n    function _initEpoch(uint128 epochId) internal {\n        require(lastInitializedEpoch.add(1) == epochId, \"PoolStakingRewards: Epoch can be init only in order\");\n        lastInitializedEpoch = epochId;\n        // call the staking smart contract to init the epoch\n        epochs[epochId] = _getPoolSize(epochId);\n    }\n\n    function _harvest (address wallet, uint128 epochId) internal returns (uint) {\n        // try to initialize an epoch. if it can't it fails\n        // if it fails either user either a BarnBridge account will init not init epochs\n        if (lastInitializedEpoch < epochId) {\n            _initEpoch(epochId);\n        }\n        // Set user state for last harvested\n        lastEpochIdHarvested[wallet] = epochId;\n        // compute and return user total reward. For optimization reasons the transfer have been moved to an upper layer (i.e. massHarvest needs to do a single transfer)\n        if(wallet == daoAddress){\n            return DAO_REWARD;\n        }\n        if(wallet == guardianAddress){\n            return GUARDIAN_REWARD;\n        }\n\n        // exit if there is no stake on the epoch\n        if (epochs[epochId] == 0) {\n            return 0;\n        }\n        return getRewardAtEpoch(epochId)\n        .mul(_getUserBalancePerEpoch(wallet, epochId))\n        .div(epochs[epochId]);\n    }\n\n    // retrieve _poolTokenAddress token balance\n    function _getPoolSize(uint128 epochId) internal view returns (uint) {\n        return _staking.getEpochPoolSize(_poolTokenAddress, _stakingEpochId(epochId));\n    }\n\n    // retrieve _poolTokenAddress token balance per user per epoch\n    function _getUserBalancePerEpoch(address userAddress, uint128 epochId) internal view returns (uint){\n        return _staking.getEpochUserBalance(userAddress, _poolTokenAddress, _stakingEpochId(epochId));\n    }\n\n    // compute epoch id from block.timestamp and epochStart date\n    function _getEpochId() internal view returns (uint128 epochId) {\n        if (block.timestamp < epochStart) {\n            return 0;\n        }\n        epochId = uint128(block.timestamp.sub(epochStart).div(epochDuration).add(1));\n    }\n\n    // get the staking epoch\n    function _stakingEpochId(uint128 epochId) pure internal returns (uint128) {\n        return epochId;\n    }\n\n    function mintBacon(address wallet, uint256 userReward) public {\n        require(msg.sender == airdropContract, \"PoolStakingRewards: unapproved sender\");\n        _bacon.mint(wallet, userReward);\n    }\n\n    function getAndClearReward(address wallet) external returns (uint256) {\n        require(isApprovedPool[msg.sender], \"PoolStakingRewards: must be approved sender\");\n\n        return _staking.getAndClearReward(wallet, _poolTokenAddress);\n    }\n\n}\n",
  "sourcePath": "/src/contracts/PoolStakingRewards/PoolStakingRewards7.sol",
  "compiler": {
    "name": "solc",
    "version": "0.8.9+commit.e5eed63a.Emscripten.clang"
  },
  "schemaVersion": "3.4.7",
  "updatedAt": "2022-10-04T22:54:47.552Z",
  "devdoc": {
    "kind": "dev",
    "methods": {},
    "version": 1
  },
  "userdoc": {
    "kind": "user",
    "methods": {},
    "version": 1
  }
}