{
  "contractName": "PropToken2",
  "abi": [
    {
      "anonymous": false,
      "inputs": [
        {
          "indexed": true,
          "internalType": "address",
          "name": "owner",
          "type": "address"
        },
        {
          "indexed": true,
          "internalType": "address",
          "name": "approved",
          "type": "address"
        },
        {
          "indexed": true,
          "internalType": "uint256",
          "name": "tokenId",
          "type": "uint256"
        }
      ],
      "name": "Approval",
      "type": "event"
    },
    {
      "anonymous": false,
      "inputs": [
        {
          "indexed": true,
          "internalType": "address",
          "name": "owner",
          "type": "address"
        },
        {
          "indexed": true,
          "internalType": "address",
          "name": "operator",
          "type": "address"
        },
        {
          "indexed": false,
          "internalType": "bool",
          "name": "approved",
          "type": "bool"
        }
      ],
      "name": "ApprovalForAll",
      "type": "event"
    },
    {
      "anonymous": false,
      "inputs": [
        {
          "indexed": true,
          "internalType": "address",
          "name": "from",
          "type": "address"
        },
        {
          "indexed": true,
          "internalType": "address",
          "name": "to",
          "type": "address"
        },
        {
          "indexed": true,
          "internalType": "uint256",
          "name": "tokenId",
          "type": "uint256"
        }
      ],
      "name": "Transfer",
      "type": "event"
    },
    {
      "inputs": [
        {
          "internalType": "address",
          "name": "to",
          "type": "address"
        },
        {
          "internalType": "uint256",
          "name": "tokenId",
          "type": "uint256"
        }
      ],
      "name": "approve",
      "outputs": [],
      "stateMutability": "nonpayable",
      "type": "function"
    },
    {
      "inputs": [
        {
          "internalType": "address",
          "name": "owner",
          "type": "address"
        }
      ],
      "name": "balanceOf",
      "outputs": [
        {
          "internalType": "uint256",
          "name": "",
          "type": "uint256"
        }
      ],
      "stateMutability": "view",
      "type": "function",
      "constant": true
    },
    {
      "inputs": [
        {
          "internalType": "uint256",
          "name": "tokenId",
          "type": "uint256"
        }
      ],
      "name": "getApproved",
      "outputs": [
        {
          "internalType": "address",
          "name": "",
          "type": "address"
        }
      ],
      "stateMutability": "view",
      "type": "function",
      "constant": true
    },
    {
      "inputs": [
        {
          "internalType": "address",
          "name": "owner",
          "type": "address"
        },
        {
          "internalType": "address",
          "name": "operator",
          "type": "address"
        }
      ],
      "name": "isApprovedForAll",
      "outputs": [
        {
          "internalType": "bool",
          "name": "",
          "type": "bool"
        }
      ],
      "stateMutability": "view",
      "type": "function",
      "constant": true
    },
    {
      "inputs": [],
      "name": "name",
      "outputs": [
        {
          "internalType": "string",
          "name": "",
          "type": "string"
        }
      ],
      "stateMutability": "view",
      "type": "function",
      "constant": true
    },
    {
      "inputs": [
        {
          "internalType": "uint256",
          "name": "tokenId",
          "type": "uint256"
        }
      ],
      "name": "ownerOf",
      "outputs": [
        {
          "internalType": "address",
          "name": "",
          "type": "address"
        }
      ],
      "stateMutability": "view",
      "type": "function",
      "constant": true
    },
    {
      "inputs": [
        {
          "internalType": "address",
          "name": "from",
          "type": "address"
        },
        {
          "internalType": "address",
          "name": "to",
          "type": "address"
        },
        {
          "internalType": "uint256",
          "name": "tokenId",
          "type": "uint256"
        }
      ],
      "name": "safeTransferFrom",
      "outputs": [],
      "stateMutability": "nonpayable",
      "type": "function"
    },
    {
      "inputs": [
        {
          "internalType": "address",
          "name": "from",
          "type": "address"
        },
        {
          "internalType": "address",
          "name": "to",
          "type": "address"
        },
        {
          "internalType": "uint256",
          "name": "tokenId",
          "type": "uint256"
        },
        {
          "internalType": "bytes",
          "name": "_data",
          "type": "bytes"
        }
      ],
      "name": "safeTransferFrom",
      "outputs": [],
      "stateMutability": "nonpayable",
      "type": "function"
    },
    {
      "inputs": [
        {
          "internalType": "address",
          "name": "operator",
          "type": "address"
        },
        {
          "internalType": "bool",
          "name": "approved",
          "type": "bool"
        }
      ],
      "name": "setApprovalForAll",
      "outputs": [],
      "stateMutability": "nonpayable",
      "type": "function"
    },
    {
      "inputs": [
        {
          "internalType": "bytes4",
          "name": "interfaceId",
          "type": "bytes4"
        }
      ],
      "name": "supportsInterface",
      "outputs": [
        {
          "internalType": "bool",
          "name": "",
          "type": "bool"
        }
      ],
      "stateMutability": "view",
      "type": "function",
      "constant": true
    },
    {
      "inputs": [],
      "name": "symbol",
      "outputs": [
        {
          "internalType": "string",
          "name": "",
          "type": "string"
        }
      ],
      "stateMutability": "view",
      "type": "function",
      "constant": true
    },
    {
      "inputs": [
        {
          "internalType": "address",
          "name": "from",
          "type": "address"
        },
        {
          "internalType": "address",
          "name": "to",
          "type": "address"
        },
        {
          "internalType": "uint256",
          "name": "tokenId",
          "type": "uint256"
        }
      ],
      "name": "transferFrom",
      "outputs": [],
      "stateMutability": "nonpayable",
      "type": "function"
    },
    {
      "inputs": [
        {
          "internalType": "address",
          "name": "servicer",
          "type": "address"
        },
        {
          "internalType": "uint256",
          "name": "start",
          "type": "uint256"
        },
        {
          "internalType": "uint256",
          "name": "end",
          "type": "uint256"
        }
      ],
      "name": "initServicerData",
      "outputs": [],
      "stateMutability": "nonpayable",
      "type": "function"
    },
    {
      "inputs": [
        {
          "internalType": "uint256",
          "name": "lienId",
          "type": "uint256"
        }
      ],
      "name": "getLienValue",
      "outputs": [
        {
          "internalType": "uint256",
          "name": "",
          "type": "uint256"
        }
      ],
      "stateMutability": "view",
      "type": "function",
      "constant": true
    },
    {
      "inputs": [],
      "name": "getPropTokenCount",
      "outputs": [
        {
          "internalType": "uint256",
          "name": "",
          "type": "uint256"
        }
      ],
      "stateMutability": "view",
      "type": "function",
      "constant": true
    },
    {
      "inputs": [],
      "name": "getPoolAddresses",
      "outputs": [
        {
          "internalType": "address[]",
          "name": "",
          "type": "address[]"
        }
      ],
      "stateMutability": "view",
      "type": "function",
      "constant": true
    },
    {
      "inputs": [
        {
          "internalType": "uint256",
          "name": "propTokenID",
          "type": "uint256"
        }
      ],
      "name": "getPropTokenData",
      "outputs": [
        {
          "internalType": "address",
          "name": "",
          "type": "address"
        },
        {
          "internalType": "uint256",
          "name": "",
          "type": "uint256"
        },
        {
          "internalType": "uint256[]",
          "name": "",
          "type": "uint256[]"
        },
        {
          "internalType": "uint256",
          "name": "",
          "type": "uint256"
        },
        {
          "internalType": "string",
          "name": "",
          "type": "string"
        },
        {
          "internalType": "uint256",
          "name": "",
          "type": "uint256"
        },
        {
          "internalType": "string",
          "name": "",
          "type": "string"
        },
        {
          "internalType": "address",
          "name": "",
          "type": "address"
        },
        {
          "internalType": "bool",
          "name": "",
          "type": "bool"
        }
      ],
      "stateMutability": "view",
      "type": "function",
      "constant": true
    },
    {
      "inputs": [
        {
          "internalType": "uint256",
          "name": "tokenId",
          "type": "uint256"
        }
      ],
      "name": "tokenURI",
      "outputs": [
        {
          "internalType": "string",
          "name": "",
          "type": "string"
        }
      ],
      "stateMutability": "view",
      "type": "function",
      "constant": true
    },
    {
      "inputs": [
        {
          "internalType": "address",
          "name": "to",
          "type": "address"
        },
        {
          "internalType": "uint256",
          "name": "lienValue",
          "type": "uint256"
        },
        {
          "internalType": "uint256[]",
          "name": "seniorLienValues",
          "type": "uint256[]"
        },
        {
          "internalType": "uint256",
          "name": "propValue",
          "type": "uint256"
        },
        {
          "internalType": "string",
          "name": "propAddress",
          "type": "string"
        }
      ],
      "name": "mintPropToken",
      "outputs": [],
      "stateMutability": "nonpayable",
      "type": "function"
    },
    {
      "inputs": [
        {
          "internalType": "uint256",
          "name": "tokenId",
          "type": "uint256"
        }
      ],
      "name": "requestRelease",
      "outputs": [],
      "stateMutability": "nonpayable",
      "type": "function"
    },
    {
      "inputs": [
        {
          "internalType": "uint256",
          "name": "tokenId",
          "type": "uint256"
        }
      ],
      "name": "releaseLien",
      "outputs": [],
      "stateMutability": "nonpayable",
      "type": "function"
    },
    {
      "inputs": [
        {
          "internalType": "uint256",
          "name": "tokenId",
          "type": "uint256"
        }
      ],
      "name": "getLienReleaseRequested",
      "outputs": [
        {
          "internalType": "bool",
          "name": "",
          "type": "bool"
        }
      ],
      "stateMutability": "view",
      "type": "function",
      "constant": true
    },
    {
      "inputs": [
        {
          "internalType": "uint256",
          "name": "tokenId",
          "type": "uint256"
        },
        {
          "internalType": "address",
          "name": "newServicer",
          "type": "address"
        }
      ],
      "name": "transferServicer",
      "outputs": [],
      "stateMutability": "nonpayable",
      "type": "function"
    }
  ],
  "bytecode": "0x608060405234801561001057600080fd5b50612268806100206000396000f3fe608060405234801561001057600080fd5b506004361061018d5760003560e01c806370a08231116100e3578063bcc254551161008c578063e4b6db4c11610066578063e4b6db4c14610373578063e985e9c514610388578063fc866d49146103c457600080fd5b8063bcc254551461032e578063c87b56dd14610358578063da588faf1461036b57600080fd5b8063a22cb465116100bd578063a22cb465146102f5578063a5e8c1e314610308578063b88d4fde1461031b57600080fd5b806370a08231146102c757806395d89b41146102da5780639824b032146102e257600080fd5b8063095ea7b3116101455780634a293c521161011f5780634a293c521461025b5780636352211e146102835780636ebb668b1461029657600080fd5b8063095ea7b31461022257806323b872dd1461023557806342842e0e1461024857600080fd5b8063065635451161017657806306563545146101cf57806306fdde03146101e2578063081812fc146101f757600080fd5b806301ffc9a714610192578063063d36a4146101ba575b600080fd5b6101a56101a0366004611b3f565b6103d7565b60405190151581526020015b60405180910390f35b6101cd6101c8366004611b5c565b6104bc565b005b6101cd6101dd366004611b91565b61052a565b6101ea6105a0565b6040516101b19190611c15565b61020a610205366004611b5c565b610632565b6040516001600160a01b0390911681526020016101b1565b6101cd610230366004611c28565b6106dd565b6101cd610243366004611c52565b61080f565b6101cd610256366004611c52565b610896565b61026e610269366004611b5c565b6108b1565b6040516101b199989796959493929190611c8e565b61020a610291366004611b5c565b610a23565b6102b96102a4366004611b5c565b600090815260cc602052604090206001015490565b6040519081526020016101b1565b6102b96102d5366004611d45565b610aae565b6101ea610b48565b6101cd6102f0366004611b5c565b610b57565b6101cd610303366004611d60565b610ba2565b6101cd610316366004611d9c565b610bad565b6101cd610329366004611e6e565b610c24565b6101a561033c366004611b5c565b600090815260cd6020526040902054600160a01b900460ff1690565b6101ea610366366004611b5c565b610cac565b60c9546102b9565b61037b610d95565b6040516101b19190611eea565b6101a5610396366004611f37565b6001600160a01b039182166000908152606a6020908152604080832093909416825291909152205460ff1690565b6101cd6103d2366004611f81565b610df6565b60007fffffffff0000000000000000000000000000000000000000000000000000000082167f80ac58cd00000000000000000000000000000000000000000000000000000000148061046a57507fffffffff0000000000000000000000000000000000000000000000000000000082167f5b5e139f00000000000000000000000000000000000000000000000000000000145b806104b657507f01ffc9a7000000000000000000000000000000000000000000000000000000007fffffffff000000000000000000000000000000000000000000000000000000008316145b92915050565b6104c581610a23565b6001600160a01b0316336001600160a01b0316146104e257600080fd5b600081815260cd6020526040902080547fffffffffffffffffffffff00ffffffffffffffffffffffffffffffffffffffff16600160a01b179055610527333083610efd565b50565b610533336110d7565b61053c57600080fd5b610545816110d7565b61054e57600080fd5b600082815260cd6020526040902080546001600160a01b0316331461057257600080fd5b805473ffffffffffffffffffffffffffffffffffffffff19166001600160a01b039290921691909117905550565b6060606580546105af9061206f565b80601f01602080910402602001604051908101604052809291908181526020018280546105db9061206f565b80156106285780601f106105fd57610100808354040283529160200191610628565b820191906000526020600020905b81548152906001019060200180831161060b57829003601f168201915b5050505050905090565b6000818152606760205260408120546001600160a01b03166106c15760405162461bcd60e51b815260206004820152602c60248201527f4552433732313a20617070726f76656420717565727920666f72206e6f6e657860448201527f697374656e7420746f6b656e000000000000000000000000000000000000000060648201526084015b60405180910390fd5b506000908152606960205260409020546001600160a01b031690565b60006106e882610a23565b9050806001600160a01b0316836001600160a01b031614156107725760405162461bcd60e51b815260206004820152602160248201527f4552433732313a20617070726f76616c20746f2063757272656e74206f776e6560448201527f720000000000000000000000000000000000000000000000000000000000000060648201526084016106b8565b336001600160a01b038216148061078e575061078e8133610396565b6108005760405162461bcd60e51b815260206004820152603860248201527f4552433732313a20617070726f76652063616c6c6572206973206e6f74206f7760448201527f6e6572206e6f7220617070726f76656420666f7220616c6c000000000000000060648201526084016106b8565b61080a8383611136565b505050565b61081933826111b1565b61088b5760405162461bcd60e51b815260206004820152603160248201527f4552433732313a207472616e736665722063616c6c6572206973206e6f74206f60448201527f776e6572206e6f7220617070726f76656400000000000000000000000000000060648201526084016106b8565b61080a838383610efd565b61080a83838360405180602001604052806000815250610c24565b600081815260cc6020908152604080832060cd90925282208291606091839183918391839183918291826108e48d610cac565b90506108ef8d610a23565b60018401546003850154600586015485546002880180546040805160208084028201810190925282815292959460048c019490938a936001600160a01b03831693600160a01b90930460ff169289919083018282801561096e57602002820191906000526020600020905b81548152602001906001019080831161095a575b505050505096508480546109819061206f565b80601f01602080910402602001604051908101604052809291908181526020018280546109ad9061206f565b80156109fa5780601f106109cf576101008083540402835291602001916109fa565b820191906000526020600020905b8154815290600101906020018083116109dd57829003601f168201915b505050505094509b509b509b509b509b509b509b509b509b505050509193959799909294969850565b6000818152606760205260408120546001600160a01b0316806104b65760405162461bcd60e51b815260206004820152602960248201527f4552433732313a206f776e657220717565727920666f72206e6f6e657869737460448201527f656e7420746f6b656e000000000000000000000000000000000000000000000060648201526084016106b8565b60006001600160a01b038216610b2c5760405162461bcd60e51b815260206004820152602a60248201527f4552433732313a2062616c616e636520717565727920666f7220746865207a6560448201527f726f20616464726573730000000000000000000000000000000000000000000060648201526084016106b8565b506001600160a01b031660009081526068602052604090205490565b6060606680546105af9061206f565b600081815260cd6020526040902080546001600160a01b03163314610b7b57600080fd5b8054600160a01b900460ff161515600114610b9557600080fd5b610b9e826112b9565b5050565b610b9e3383836112f9565b610bb6336110d7565b610bbf57600080fd5b60c954811115610bce57600080fd5b815b81811015610c1e57600081815260cd60205260409020805473ffffffffffffffffffffffffffffffffffffffff19166001600160a01b03861617905580610c16816120c0565b915050610bd0565b50505050565b610c2e33836111b1565b610ca05760405162461bcd60e51b815260206004820152603160248201527f4552433732313a207472616e736665722063616c6c6572206973206e6f74206f60448201527f776e6572206e6f7220617070726f76656400000000000000000000000000000060648201526084016106b8565b610c1e848484846113e6565b6000818152606760205260409020546060906001600160a01b0316610d395760405162461bcd60e51b815260206004820152602f60248201527f4552433732314d657461646174613a2055524920717565727920666f72206e6f60448201527f6e6578697374656e7420746f6b656e000000000000000000000000000000000060648201526084016106b8565b6000610d4361146f565b90506000815111610d635760405180602001604052806000815250610d8e565b80610d6d8461148f565b604051602001610d7e9291906120f9565b6040516020818303038152906040525b9392505050565b606060cb80548060200260200160405190810160405280929190818152602001828054801561062857602002820191906000526020600020905b81546001600160a01b03168152600190910190602001808311610dcf575050505050905090565b610dff336110d7565b610e0857600080fd5b60006040518060c0016040528060c9548152602001868152602001858152602001848152602001838152602001428152509050610e478660c9546115c1565b60c954600090815260cc602090815260409182902083518155818401516001820155918301518051849392610e83926002850192910190611a08565b506060820151600382015560808201518051610ea9916004840191602090910190611a53565b5060a0919091015160059091015560c98054600090815260cd60205260409020805473ffffffffffffffffffffffffffffffffffffffff19163317905554610ef2906001612128565b60c955505050505050565b826001600160a01b0316610f1082610a23565b6001600160a01b031614610f8c5760405162461bcd60e51b815260206004820152602960248201527f4552433732313a207472616e73666572206f6620746f6b656e2074686174206960448201527f73206e6f74206f776e000000000000000000000000000000000000000000000060648201526084016106b8565b6001600160a01b0382166110075760405162461bcd60e51b8152602060048201526024808201527f4552433732313a207472616e7366657220746f20746865207a65726f2061646460448201527f726573730000000000000000000000000000000000000000000000000000000060648201526084016106b8565b611012600082611136565b6001600160a01b038316600090815260686020526040812080546001929061103b908490612140565b90915550506001600160a01b0382166000908152606860205260408120805460019290611069908490612128565b9091555050600081815260676020526040808220805473ffffffffffffffffffffffffffffffffffffffff19166001600160a01b0386811691821790925591518493918716917fddf252ad1be2c89b69c2b068fc378daa952ba7f163c4a11628f55a4df523b3ef91a4505050565b600080805b60ca5481101561112f5760ca81815481106110f9576110f9612157565b6000918252602090912001546001600160a01b038581169116141561111d57600191505b80611127816120c0565b9150506110dc565b5092915050565b6000818152606960205260409020805473ffffffffffffffffffffffffffffffffffffffff19166001600160a01b038416908117909155819061117882610a23565b6001600160a01b03167f8c5be1e5ebec7d5bd14f71427d1e84f3dd0314c0f7b2291e5b200ac8c7c3b92560405160405180910390a45050565b6000818152606760205260408120546001600160a01b031661123b5760405162461bcd60e51b815260206004820152602c60248201527f4552433732313a206f70657261746f7220717565727920666f72206e6f6e657860448201527f697374656e7420746f6b656e000000000000000000000000000000000000000060648201526084016106b8565b600061124683610a23565b9050806001600160a01b0316846001600160a01b031614806112815750836001600160a01b031661127684610632565b6001600160a01b0316145b806112b157506001600160a01b038082166000908152606a602090815260408083209388168352929052205460ff165b949350505050565b6112c2816115db565b600081815260976020526040902080546112db9061206f565b15905061052757600081815260976020526040812061052791611ac6565b816001600160a01b0316836001600160a01b0316141561135b5760405162461bcd60e51b815260206004820152601960248201527f4552433732313a20617070726f766520746f2063616c6c65720000000000000060448201526064016106b8565b6001600160a01b038381166000818152606a602090815260408083209487168084529482529182902080547fffffffffffffffffffffffffffffffffffffffffffffffffffffffffffffff001686151590811790915591519182527f17307eab39ab6107e8899845ad3d59bd9653f200f220920489ca2b5937696c31910160405180910390a3505050565b6113f1848484610efd565b6113fd84848484611683565b610c1e5760405162461bcd60e51b815260206004820152603260248201527f4552433732313a207472616e7366657220746f206e6f6e20455243373231526560448201527f63656976657220696d706c656d656e746572000000000000000000000000000060648201526084016106b8565b60606040518060600160405280602e8152602001612205602e9139905090565b6060816114cf57505060408051808201909152600181527f3000000000000000000000000000000000000000000000000000000000000000602082015290565b8160005b81156114f957806114e3816120c0565b91506114f29050600a83612183565b91506114d3565b60008167ffffffffffffffff81111561151457611514611dcf565b6040519080825280601f01601f19166020018201604052801561153e576020820181803683370190505b5090505b84156112b157611553600183612140565b9150611560600a86612197565b61156b906030612128565b60f81b81838151811061158057611580612157565b60200101907effffffffffffffffffffffffffffffffffffffffffffffffffffffffffffff1916908160001a9053506115ba600a86612183565b9450611542565b610b9e828260405180602001604052806000815250611830565b60006115e682610a23565b90506115f3600083611136565b6001600160a01b038116600090815260686020526040812080546001929061161c908490612140565b9091555050600082815260676020526040808220805473ffffffffffffffffffffffffffffffffffffffff19169055518391906001600160a01b038416907fddf252ad1be2c89b69c2b068fc378daa952ba7f163c4a11628f55a4df523b3ef908390a45050565b60006001600160a01b0384163b15611825576040517f150b7a020000000000000000000000000000000000000000000000000000000081526001600160a01b0385169063150b7a02906116e09033908990889088906004016121ab565b602060405180830381600087803b1580156116fa57600080fd5b505af192505050801561172a575060408051601f3d908101601f19168201909252611727918101906121e7565b60015b6117da573d808015611758576040519150601f19603f3d011682016040523d82523d6000602084013e61175d565b606091505b5080516117d25760405162461bcd60e51b815260206004820152603260248201527f4552433732313a207472616e7366657220746f206e6f6e20455243373231526560448201527f63656976657220696d706c656d656e746572000000000000000000000000000060648201526084016106b8565b805181602001fd5b7fffffffff00000000000000000000000000000000000000000000000000000000167f150b7a02000000000000000000000000000000000000000000000000000000001490506112b1565b506001949350505050565b61183a83836118b9565b6118476000848484611683565b61080a5760405162461bcd60e51b815260206004820152603260248201527f4552433732313a207472616e7366657220746f206e6f6e20455243373231526560448201527f63656976657220696d706c656d656e746572000000000000000000000000000060648201526084016106b8565b6001600160a01b03821661190f5760405162461bcd60e51b815260206004820181905260248201527f4552433732313a206d696e7420746f20746865207a65726f206164647265737360448201526064016106b8565b6000818152606760205260409020546001600160a01b0316156119745760405162461bcd60e51b815260206004820152601c60248201527f4552433732313a20746f6b656e20616c7265616479206d696e7465640000000060448201526064016106b8565b6001600160a01b038216600090815260686020526040812080546001929061199d908490612128565b9091555050600081815260676020526040808220805473ffffffffffffffffffffffffffffffffffffffff19166001600160a01b03861690811790915590518392907fddf252ad1be2c89b69c2b068fc378daa952ba7f163c4a11628f55a4df523b3ef908290a45050565b828054828255906000526020600020908101928215611a43579160200282015b82811115611a43578251825591602001919060010190611a28565b50611a4f929150611afc565b5090565b828054611a5f9061206f565b90600052602060002090601f016020900481019282611a815760008555611a43565b82601f10611a9a57805160ff1916838001178555611a43565b82800160010185558215611a435791820182811115611a43578251825591602001919060010190611a28565b508054611ad29061206f565b6000825580601f10611ae2575050565b601f01602090049060005260206000209081019061052791905b5b80821115611a4f5760008155600101611afd565b7fffffffff000000000000000000000000000000000000000000000000000000008116811461052757600080fd5b600060208284031215611b5157600080fd5b8135610d8e81611b11565b600060208284031215611b6e57600080fd5b5035919050565b80356001600160a01b0381168114611b8c57600080fd5b919050565b60008060408385031215611ba457600080fd5b82359150611bb460208401611b75565b90509250929050565b60005b83811015611bd8578181015183820152602001611bc0565b83811115610c1e5750506000910152565b60008151808452611c01816020860160208601611bbd565b601f01601f19169290920160200192915050565b602081526000610d8e6020830184611be9565b60008060408385031215611c3b57600080fd5b611c4483611b75565b946020939093013593505050565b600080600060608486031215611c6757600080fd5b611c7084611b75565b9250611c7e60208501611b75565b9150604084013590509250925092565b6001600160a01b038a16815260208082018a90526101206040830181905289519083018190526000916101408401918b82019190845b81811015611ce057835185529382019392820192600101611cc4565b505050508860608401528281036080840152611cfc8189611be9565b90508660a084015282810360c0840152611d168187611be9565b915050611d2e60e08301856001600160a01b03169052565b8215156101008301529a9950505050505050505050565b600060208284031215611d5757600080fd5b610d8e82611b75565b60008060408385031215611d7357600080fd5b611d7c83611b75565b915060208301358015158114611d9157600080fd5b809150509250929050565b600080600060608486031215611db157600080fd5b611dba84611b75565b95602085013595506040909401359392505050565b634e487b7160e01b600052604160045260246000fd5b604051601f8201601f1916810167ffffffffffffffff81118282101715611e0e57611e0e611dcf565b604052919050565b600067ffffffffffffffff831115611e3057611e30611dcf565b611e436020601f19601f86011601611de5565b9050828152838383011115611e5757600080fd5b828260208301376000602084830101529392505050565b60008060008060808587031215611e8457600080fd5b611e8d85611b75565b9350611e9b60208601611b75565b925060408501359150606085013567ffffffffffffffff811115611ebe57600080fd5b8501601f81018713611ecf57600080fd5b611ede87823560208401611e16565b91505092959194509250565b6020808252825182820181905260009190848201906040850190845b81811015611f2b5783516001600160a01b031683529284019291840191600101611f06565b50909695505050505050565b60008060408385031215611f4a57600080fd5b611f5383611b75565b9150611bb460208401611b75565b600082601f830112611f7257600080fd5b610d8e83833560208501611e16565b600080600080600060a08688031215611f9957600080fd5b611fa286611b75565b94506020808701359450604087013567ffffffffffffffff80821115611fc757600080fd5b818901915089601f830112611fdb57600080fd5b813581811115611fed57611fed611dcf565b8060051b611ffc858201611de5565b918252838101850191858101908d84111561201657600080fd5b948601945b838610156120345785358252948601949086019061201b565b985050505060608901359450608089013592508083111561205457600080fd5b505061206288828901611f61565b9150509295509295909350565b600181811c9082168061208357607f821691505b602082108114156120a457634e487b7160e01b600052602260045260246000fd5b50919050565b634e487b7160e01b600052601160045260246000fd5b60007fffffffffffffffffffffffffffffffffffffffffffffffffffffffffffffffff8214156120f2576120f26120aa565b5060010190565b6000835161210b818460208801611bbd565b83519083019061211f818360208801611bbd565b01949350505050565b6000821982111561213b5761213b6120aa565b500190565b600082821015612152576121526120aa565b500390565b634e487b7160e01b600052603260045260246000fd5b634e487b7160e01b600052601260045260246000fd5b6000826121925761219261216d565b500490565b6000826121a6576121a661216d565b500690565b60006001600160a01b038087168352808616602084015250836040830152608060608301526121dd6080830184611be9565b9695505050505050565b6000602082840312156121f957600080fd5b8151610d8e81611b1156fe68747470733a2f2f686f6d65636f696e2d6170692e676f6c6f616e736e61702e636f6d2f6170692f686f6d65732fa2646970667358221220defd59bfbc6b0c065398b0d45b616fd3b64a1426f17c7ccdc403c4c913dc49a864736f6c63430008090033",
  "immutableReferences": {},
  "source": "// contracts/Pool0.sol\n// SPDX-License-Identifier: MIT\npragma solidity ^0.8.4;\n\nimport \"../@openzeppelin/contracts-upgradeable/proxy/utils/Initializable.sol\";\nimport '../@openzeppelin/contracts-upgradeable/token/ERC721/extensions/ERC721URIStorageUpgradeable.sol';\nimport \"../@openzeppelin/contracts-upgradeable/utils/StringsUpgradeable.sol\";\n\ncontract PropToken2 is Initializable, ERC721URIStorageUpgradeable {\n    using StringsUpgradeable for uint256;\n\n    struct Lien{\n        uint256 lienIndex;\n        uint256 lienValue;\n        uint256[] seniorLienValues;\n        uint256 propValue;\n        string propAddress;\n        uint256 issuedAtTimestamp;\n    }\n\n    struct LienServicerData{\n        address servicerAddress;\n        bool releaseRequested;\n    }\n\n    uint256 lienCount;\n    address[] servicerAddresses;\n    address[] poolAddresses;\n    mapping(uint256 => Lien) lienData;\n    mapping(uint256 => LienServicerData) lienServicerData;\n\n\n    /*****************************************************\n    *       STRUCTURE / UPGRADABILITY FUNCTIONS\n    ******************************************************/\n\n    function initServicerData(address servicer, uint256 start, uint256 end) public {\n        require(isApprovedServicer(msg.sender));\n        require(end <= lienCount);\n        for(uint256 lienId=start; lienId < end; lienId++){\n            lienServicerData[lienId].servicerAddress = servicer;\n        }\n    }\n\n    /*****************************************************\n    *                GETTER FUNCTIONS\n    ******************************************************/\n\n    /** \n    *   @dev Function isApprovedServicer() is an internal function that checks the array of approved addresses for the given address\n    *   @param _address The address to be checked if it is approved\n    *   @return isApproved is if the _addess is found in the list of servicerAddresses\n    */\n    function isApprovedServicer(address _address) internal view returns (bool) {\n        bool isApproved = false;\n        \n        for (uint i = 0; i < servicerAddresses.length; i++) {\n            if(_address == servicerAddresses[i]) {\n                isApproved = true;\n            }\n        }\n\n        return isApproved;\n    }\n\n    /**\n    *   @dev Function get Lien Value \n    *   @param lienId is the ID of the lien being looked up\n    *   @return the uint256 max value of the lien (to 6 decimal places)\n    **/\n    function getLienValue(uint256 lienId) public view returns (uint256) {\n        return lienData[lienId].lienValue;\n    }\n\n    /** \n    *   @dev Function getPropTokenCount() returns the lien count\n    *   @return lienCount uint256\n    */\n    function getPropTokenCount() public view returns (uint256) {\n        return lienCount;\n    }\n\n    /**\n    *   @dev Function getPoolAddresses() returns the pool addresses\n    *   @return address[] poolAddresses\n    */\n    function getPoolAddresses() public view returns (address[] memory) {\n        return poolAddresses;\n    }\n\n    /**\n    *   @dev Function getPropTokenData() returns all revelant fields on propToken\n    *   @param propTokenID  the uint256 id of token to be looked up\n    */\n    function getPropTokenData(uint256 propTokenID) public view returns (address, uint256, uint256[] memory, uint256, string memory, uint256, string memory, address, bool) {\n        Lien storage propToken = lienData[propTokenID];\n        LienServicerData storage servicerData = lienServicerData[propTokenID];\n        string memory tokenUri = tokenURI(propTokenID);\n        return(\n          ownerOf(propTokenID),\n          propToken.lienValue,\n          propToken.seniorLienValues,\n          propToken.propValue,\n          propToken.propAddress,\n          propToken.issuedAtTimestamp,\n          tokenUri,\n          servicerData.servicerAddress,\n          servicerData.releaseRequested\n        );\n    }\n\n    function _baseURI() internal pure override returns (string memory) {\n        return \"https://homecoin-api.goloansnap.com/api/homes/\";\n    }\n\n    /**\n     * @dev See {IERC721Metadata-tokenURI}.\n     */\n    function tokenURI(uint256 tokenId) public view virtual override returns (string memory) {\n        // For now, we don't want the behavior of URIStorage that we pick up from the baseclass.\n        require(_exists(tokenId), \"ERC721Metadata: URI query for nonexistent token\");\n\n        string memory baseURI = _baseURI();\n        return bytes(baseURI).length > 0 ? string(abi.encodePacked(baseURI, tokenId.toString())) : \"\";\n    }\n\n    /*****************************************************\n    *              MINTING FUNCTION\n    ******************************************************/\n\n    function mintPropToken(\n        address to,\n        uint256 lienValue,\n        uint256[] memory seniorLienValues,\n        uint256 propValue,\n        string memory propAddress\n        ) public {\n        //require servicer is calling\n        require(isApprovedServicer(msg.sender));\n\n        Lien memory newLien = Lien(lienCount, lienValue, seniorLienValues, propValue, propAddress, block.timestamp);\n\n        _safeMint(to, lienCount);\n\n        lienData[lienCount] = newLien;\n        lienServicerData[lienCount].servicerAddress = msg.sender;\n        lienCount = lienCount + 1;\n    }\n\n    /*****************************************************\n    * Lien release functions\n    ******************************************************/\n\n    function requestRelease(uint256 tokenId) public {\n        require(msg.sender == ownerOf(tokenId)); // The of the token must request its release\n\n        lienServicerData[tokenId].releaseRequested = true;\n        // This contract will hold the token until the lien is released.\n        super._transfer(msg.sender, address(this), tokenId);\n    }\n\n    function releaseLien(uint256 tokenId) public {\n        LienServicerData storage servicerData = lienServicerData[tokenId];\n        require(msg.sender == servicerData.servicerAddress); // The servicer of the Lien must be the one actually releasing the lien.\n        require(servicerData.releaseRequested == true);// The owner of the lien needs to have requeseted its release\n        // Because the token is burnt it will not be possible to borrow more against it.\n        _burn(tokenId);\n    }\n\n    function getLienReleaseRequested(uint256 tokenId) public view returns (bool){\n        return lienServicerData[tokenId].releaseRequested;\n    }\n\n    function transferServicer(uint256 tokenId, address newServicer) public {\n        require(isApprovedServicer(msg.sender)); // caller must be an approved servicer\n        require(isApprovedServicer(newServicer)); // new servicer must be approved as well.\n        LienServicerData storage servicerData = lienServicerData[tokenId];\n        require(servicerData.servicerAddress == msg.sender); // only the current servicer of this lien can transfer the lien\n        servicerData.servicerAddress = newServicer;\n    }\n\n}",
  "sourcePath": "/src/contracts/PropTokens/PropToken2.sol",
  "compiler": {
    "name": "solc",
    "version": "0.8.9+commit.e5eed63a.Emscripten.clang"
  },
  "schemaVersion": "3.4.7",
  "updatedAt": "2022-12-15T00:15:50.173Z",
  "networkType": "ethereum",
  "devdoc": {
    "kind": "dev",
    "methods": {
      "approve(address,uint256)": {
        "details": "See {IERC721-approve}."
      },
      "balanceOf(address)": {
        "details": "See {IERC721-balanceOf}."
      },
      "getApproved(uint256)": {
        "details": "See {IERC721-getApproved}."
      },
      "getLienValue(uint256)": {
        "details": "Function get Lien Value ",
        "params": {
          "lienId": "is the ID of the lien being looked up"
        },
        "returns": {
          "_0": "the uint256 max value of the lien (to 6 decimal places)*"
        }
      },
      "getPoolAddresses()": {
        "details": "Function getPoolAddresses() returns the pool addresses",
        "returns": {
          "_0": "address[] poolAddresses"
        }
      },
      "getPropTokenCount()": {
        "details": "Function getPropTokenCount() returns the lien count",
        "returns": {
          "_0": "lienCount uint256"
        }
      },
      "getPropTokenData(uint256)": {
        "details": "Function getPropTokenData() returns all revelant fields on propToken",
        "params": {
          "propTokenID": "the uint256 id of token to be looked up"
        }
      },
      "isApprovedForAll(address,address)": {
        "details": "See {IERC721-isApprovedForAll}."
      },
      "name()": {
        "details": "See {IERC721Metadata-name}."
      },
      "ownerOf(uint256)": {
        "details": "See {IERC721-ownerOf}."
      },
      "safeTransferFrom(address,address,uint256)": {
        "details": "See {IERC721-safeTransferFrom}."
      },
      "safeTransferFrom(address,address,uint256,bytes)": {
        "details": "See {IERC721-safeTransferFrom}."
      },
      "setApprovalForAll(address,bool)": {
        "details": "See {IERC721-setApprovalForAll}."
      },
      "supportsInterface(bytes4)": {
        "details": "See {IERC165-supportsInterface}."
      },
      "symbol()": {
        "details": "See {IERC721Metadata-symbol}."
      },
      "tokenURI(uint256)": {
        "details": "See {IERC721Metadata-tokenURI}."
      },
      "transferFrom(address,address,uint256)": {
        "details": "See {IERC721-transferFrom}."
      }
    },
    "version": 1
  },
  "userdoc": {
    "kind": "user",
    "methods": {},
    "version": 1
  }
}