{
  "contractName": "PropToken1",
  "abi": [
    {
      "anonymous": false,
      "inputs": [
        {
          "indexed": true,
          "internalType": "address",
          "name": "owner",
          "type": "address"
        },
        {
          "indexed": true,
          "internalType": "address",
          "name": "approved",
          "type": "address"
        },
        {
          "indexed": true,
          "internalType": "uint256",
          "name": "tokenId",
          "type": "uint256"
        }
      ],
      "name": "Approval",
      "type": "event"
    },
    {
      "anonymous": false,
      "inputs": [
        {
          "indexed": true,
          "internalType": "address",
          "name": "owner",
          "type": "address"
        },
        {
          "indexed": true,
          "internalType": "address",
          "name": "operator",
          "type": "address"
        },
        {
          "indexed": false,
          "internalType": "bool",
          "name": "approved",
          "type": "bool"
        }
      ],
      "name": "ApprovalForAll",
      "type": "event"
    },
    {
      "anonymous": false,
      "inputs": [
        {
          "indexed": true,
          "internalType": "address",
          "name": "from",
          "type": "address"
        },
        {
          "indexed": true,
          "internalType": "address",
          "name": "to",
          "type": "address"
        },
        {
          "indexed": true,
          "internalType": "uint256",
          "name": "tokenId",
          "type": "uint256"
        }
      ],
      "name": "Transfer",
      "type": "event"
    },
    {
      "inputs": [
        {
          "internalType": "address",
          "name": "to",
          "type": "address"
        },
        {
          "internalType": "uint256",
          "name": "tokenId",
          "type": "uint256"
        }
      ],
      "name": "approve",
      "outputs": [],
      "stateMutability": "nonpayable",
      "type": "function"
    },
    {
      "inputs": [
        {
          "internalType": "address",
          "name": "owner",
          "type": "address"
        }
      ],
      "name": "balanceOf",
      "outputs": [
        {
          "internalType": "uint256",
          "name": "",
          "type": "uint256"
        }
      ],
      "stateMutability": "view",
      "type": "function"
    },
    {
      "inputs": [
        {
          "internalType": "uint256",
          "name": "tokenId",
          "type": "uint256"
        }
      ],
      "name": "getApproved",
      "outputs": [
        {
          "internalType": "address",
          "name": "",
          "type": "address"
        }
      ],
      "stateMutability": "view",
      "type": "function"
    },
    {
      "inputs": [
        {
          "internalType": "address",
          "name": "owner",
          "type": "address"
        },
        {
          "internalType": "address",
          "name": "operator",
          "type": "address"
        }
      ],
      "name": "isApprovedForAll",
      "outputs": [
        {
          "internalType": "bool",
          "name": "",
          "type": "bool"
        }
      ],
      "stateMutability": "view",
      "type": "function"
    },
    {
      "inputs": [],
      "name": "name",
      "outputs": [
        {
          "internalType": "string",
          "name": "",
          "type": "string"
        }
      ],
      "stateMutability": "view",
      "type": "function"
    },
    {
      "inputs": [
        {
          "internalType": "uint256",
          "name": "tokenId",
          "type": "uint256"
        }
      ],
      "name": "ownerOf",
      "outputs": [
        {
          "internalType": "address",
          "name": "",
          "type": "address"
        }
      ],
      "stateMutability": "view",
      "type": "function"
    },
    {
      "inputs": [
        {
          "internalType": "address",
          "name": "from",
          "type": "address"
        },
        {
          "internalType": "address",
          "name": "to",
          "type": "address"
        },
        {
          "internalType": "uint256",
          "name": "tokenId",
          "type": "uint256"
        }
      ],
      "name": "safeTransferFrom",
      "outputs": [],
      "stateMutability": "nonpayable",
      "type": "function"
    },
    {
      "inputs": [
        {
          "internalType": "address",
          "name": "from",
          "type": "address"
        },
        {
          "internalType": "address",
          "name": "to",
          "type": "address"
        },
        {
          "internalType": "uint256",
          "name": "tokenId",
          "type": "uint256"
        },
        {
          "internalType": "bytes",
          "name": "_data",
          "type": "bytes"
        }
      ],
      "name": "safeTransferFrom",
      "outputs": [],
      "stateMutability": "nonpayable",
      "type": "function"
    },
    {
      "inputs": [
        {
          "internalType": "address",
          "name": "operator",
          "type": "address"
        },
        {
          "internalType": "bool",
          "name": "approved",
          "type": "bool"
        }
      ],
      "name": "setApprovalForAll",
      "outputs": [],
      "stateMutability": "nonpayable",
      "type": "function"
    },
    {
      "inputs": [
        {
          "internalType": "bytes4",
          "name": "interfaceId",
          "type": "bytes4"
        }
      ],
      "name": "supportsInterface",
      "outputs": [
        {
          "internalType": "bool",
          "name": "",
          "type": "bool"
        }
      ],
      "stateMutability": "view",
      "type": "function"
    },
    {
      "inputs": [],
      "name": "symbol",
      "outputs": [
        {
          "internalType": "string",
          "name": "",
          "type": "string"
        }
      ],
      "stateMutability": "view",
      "type": "function"
    },
    {
      "inputs": [
        {
          "internalType": "address",
          "name": "from",
          "type": "address"
        },
        {
          "internalType": "address",
          "name": "to",
          "type": "address"
        },
        {
          "internalType": "uint256",
          "name": "tokenId",
          "type": "uint256"
        }
      ],
      "name": "transferFrom",
      "outputs": [],
      "stateMutability": "nonpayable",
      "type": "function"
    },
    {
      "inputs": [
        {
          "internalType": "uint256",
          "name": "lienId",
          "type": "uint256"
        }
      ],
      "name": "getLienValue",
      "outputs": [
        {
          "internalType": "uint256",
          "name": "",
          "type": "uint256"
        }
      ],
      "stateMutability": "view",
      "type": "function"
    },
    {
      "inputs": [],
      "name": "getPropTokenCount",
      "outputs": [
        {
          "internalType": "uint256",
          "name": "",
          "type": "uint256"
        }
      ],
      "stateMutability": "view",
      "type": "function"
    },
    {
      "inputs": [],
      "name": "getPoolAddresses",
      "outputs": [
        {
          "internalType": "address[]",
          "name": "",
          "type": "address[]"
        }
      ],
      "stateMutability": "view",
      "type": "function"
    },
    {
      "inputs": [
        {
          "internalType": "uint256",
          "name": "propTokenID",
          "type": "uint256"
        }
      ],
      "name": "getPropTokenData",
      "outputs": [
        {
          "internalType": "address",
          "name": "",
          "type": "address"
        },
        {
          "internalType": "uint256",
          "name": "",
          "type": "uint256"
        },
        {
          "internalType": "uint256[]",
          "name": "",
          "type": "uint256[]"
        },
        {
          "internalType": "uint256",
          "name": "",
          "type": "uint256"
        },
        {
          "internalType": "string",
          "name": "",
          "type": "string"
        },
        {
          "internalType": "uint256",
          "name": "",
          "type": "uint256"
        },
        {
          "internalType": "string",
          "name": "",
          "type": "string"
        }
      ],
      "stateMutability": "view",
      "type": "function"
    },
    {
      "inputs": [
        {
          "internalType": "uint256",
          "name": "tokenId",
          "type": "uint256"
        }
      ],
      "name": "tokenURI",
      "outputs": [
        {
          "internalType": "string",
          "name": "",
          "type": "string"
        }
      ],
      "stateMutability": "view",
      "type": "function"
    },
    {
      "inputs": [
        {
          "internalType": "address",
          "name": "to",
          "type": "address"
        },
        {
          "internalType": "uint256",
          "name": "lienValue",
          "type": "uint256"
        },
        {
          "internalType": "uint256[]",
          "name": "seniorLienValues",
          "type": "uint256[]"
        },
        {
          "internalType": "uint256",
          "name": "propValue",
          "type": "uint256"
        },
        {
          "internalType": "string",
          "name": "propAddress",
          "type": "string"
        }
      ],
      "name": "mintPropToken",
      "outputs": [],
      "stateMutability": "nonpayable",
      "type": "function"
    }
  ],
  "bytecode": "0x608060405234801561001057600080fd5b50611e4f806100206000396000f3fe608060405234801561001057600080fd5b50600436106101365760003560e01c806370a08231116100b2578063c87b56dd11610081578063e4b6db4c11610066578063e4b6db4c146102a4578063e985e9c5146102b9578063fc866d49146102f557600080fd5b8063c87b56dd14610289578063da588faf1461029c57600080fd5b806370a082311461024857806395d89b411461025b578063a22cb46514610263578063b88d4fde1461027657600080fd5b806323b872dd116101095780634a293c52116100ee5780634a293c52146101de5780636352211e146102045780636ebb668b1461021757600080fd5b806323b872dd146101b857806342842e0e146101cb57600080fd5b806301ffc9a71461013b57806306fdde0314610163578063081812fc14610178578063095ea7b3146101a3575b600080fd5b61014e61014936600461179e565b610308565b60405190151581526020015b60405180910390f35b61016b6103ed565b60405161015a9190611813565b61018b610186366004611826565b61047f565b6040516001600160a01b03909116815260200161015a565b6101b66101b136600461185b565b61052a565b005b6101b66101c6366004611885565b61065c565b6101b66101d9366004611885565b6106e3565b6101f16101ec366004611826565b6106fe565b60405161015a97969594939291906118c1565b61018b610212366004611826565b610882565b61023a610225366004611826565b600090815260cc602052604090206001015490565b60405190815260200161015a565b61023a610256366004611956565b61090d565b61016b6109a7565b6101b6610271366004611971565b6109b6565b6101b6610284366004611a4c565b6109c5565b61016b610297366004611826565b610a53565b60c95461023a565b6102ac610b3c565b60405161015a9190611ac8565b61014e6102c7366004611b15565b6001600160a01b039182166000908152606a6020908152604080832093909416825291909152205460ff1690565b6101b6610303366004611b68565b610b9d565b60007fffffffff0000000000000000000000000000000000000000000000000000000082167f80ac58cd00000000000000000000000000000000000000000000000000000000148061039b57507fffffffff0000000000000000000000000000000000000000000000000000000082167f5b5e139f00000000000000000000000000000000000000000000000000000000145b806103e757507f01ffc9a7000000000000000000000000000000000000000000000000000000007fffffffff000000000000000000000000000000000000000000000000000000008316145b92915050565b6060606580546103fc90611c56565b80601f016020809104026020016040519081016040528092919081815260200182805461042890611c56565b80156104755780601f1061044a57610100808354040283529160200191610475565b820191906000526020600020905b81548152906001019060200180831161045857829003601f168201915b5050505050905090565b6000818152606760205260408120546001600160a01b031661050e5760405162461bcd60e51b815260206004820152602c60248201527f4552433732313a20617070726f76656420717565727920666f72206e6f6e657860448201527f697374656e7420746f6b656e000000000000000000000000000000000000000060648201526084015b60405180910390fd5b506000908152606960205260409020546001600160a01b031690565b600061053582610882565b9050806001600160a01b0316836001600160a01b031614156105bf5760405162461bcd60e51b815260206004820152602160248201527f4552433732313a20617070726f76616c20746f2063757272656e74206f776e6560448201527f72000000000000000000000000000000000000000000000000000000000000006064820152608401610505565b336001600160a01b03821614806105db57506105db81336102c7565b61064d5760405162461bcd60e51b815260206004820152603860248201527f4552433732313a20617070726f76652063616c6c6572206973206e6f74206f7760448201527f6e6572206e6f7220617070726f76656420666f7220616c6c00000000000000006064820152608401610505565b6106578383610c77565b505050565b6106663382610cf2565b6106d85760405162461bcd60e51b815260206004820152603160248201527f4552433732313a207472616e736665722063616c6c6572206973206e6f74206f60448201527f776e6572206e6f7220617070726f7665640000000000000000000000000000006064820152608401610505565b610657838383610dfa565b610657838383604051806020016040528060008152506109c5565b60008060606000606060006060600060cc60008a81526020019081526020016000206040518060c001604052908160008201548152602001600182015481526020016002820180548060200260200160405190810160405280929190818152602001828054801561078e57602002820191906000526020600020905b81548152602001906001019080831161077a575b50505050508152602001600382015481526020016004820180546107b190611c56565b80601f01602080910402602001604051908101604052809291908181526020018280546107dd90611c56565b801561082a5780601f106107ff5761010080835404028352916020019161082a565b820191906000526020600020905b81548152906001019060200180831161080d57829003601f168201915b50505050508152602001600582015481525050905061084889610882565b81602001518260400151836060015184608001518560a0015161086a8f610a53565b959f949e50929c50909a509850965090945092505050565b6000818152606760205260408120546001600160a01b0316806103e75760405162461bcd60e51b815260206004820152602960248201527f4552433732313a206f776e657220717565727920666f72206e6f6e657869737460448201527f656e7420746f6b656e00000000000000000000000000000000000000000000006064820152608401610505565b60006001600160a01b03821661098b5760405162461bcd60e51b815260206004820152602a60248201527f4552433732313a2062616c616e636520717565727920666f7220746865207a6560448201527f726f2061646472657373000000000000000000000000000000000000000000006064820152608401610505565b506001600160a01b031660009081526068602052604090205490565b6060606680546103fc90611c56565b6109c1338383610fd4565b5050565b6109cf3383610cf2565b610a415760405162461bcd60e51b815260206004820152603160248201527f4552433732313a207472616e736665722063616c6c6572206973206e6f74206f60448201527f776e6572206e6f7220617070726f7665640000000000000000000000000000006064820152608401610505565b610a4d848484846110c1565b50505050565b6000818152606760205260409020546060906001600160a01b0316610ae05760405162461bcd60e51b815260206004820152602f60248201527f4552433732314d657461646174613a2055524920717565727920666f72206e6f60448201527f6e6578697374656e7420746f6b656e00000000000000000000000000000000006064820152608401610505565b6000610aea61114a565b90506000815111610b0a5760405180602001604052806000815250610b35565b80610b148461116a565b604051602001610b25929190611c91565b6040516020818303038152906040525b9392505050565b606060cb80548060200260200160405190810160405280929190818152602001828054801561047557602002820191906000526020600020905b81546001600160a01b03168152600190910190602001808311610b76575050505050905090565b610ba63361129c565b610baf57600080fd5b60006040518060c0016040528060c9548152602001868152602001858152602001848152602001838152602001428152509050610bee8660c9546112fb565b60c954600090815260cc602090815260409182902083518155818401516001820155918301518051849392610c2a92600285019291019061169a565b506060820151600382015560808201518051610c509160048401916020909101906116e5565b5060a0919091015160059091015560c954610c6c906001611cd6565b60c955505050505050565b6000818152606960205260409020805473ffffffffffffffffffffffffffffffffffffffff19166001600160a01b0384169081179091558190610cb982610882565b6001600160a01b03167f8c5be1e5ebec7d5bd14f71427d1e84f3dd0314c0f7b2291e5b200ac8c7c3b92560405160405180910390a45050565b6000818152606760205260408120546001600160a01b0316610d7c5760405162461bcd60e51b815260206004820152602c60248201527f4552433732313a206f70657261746f7220717565727920666f72206e6f6e657860448201527f697374656e7420746f6b656e00000000000000000000000000000000000000006064820152608401610505565b6000610d8783610882565b9050806001600160a01b0316846001600160a01b03161480610dc25750836001600160a01b0316610db78461047f565b6001600160a01b0316145b80610df257506001600160a01b038082166000908152606a602090815260408083209388168352929052205460ff165b949350505050565b826001600160a01b0316610e0d82610882565b6001600160a01b031614610e895760405162461bcd60e51b815260206004820152602960248201527f4552433732313a207472616e73666572206f6620746f6b656e2074686174206960448201527f73206e6f74206f776e00000000000000000000000000000000000000000000006064820152608401610505565b6001600160a01b038216610f045760405162461bcd60e51b8152602060048201526024808201527f4552433732313a207472616e7366657220746f20746865207a65726f2061646460448201527f72657373000000000000000000000000000000000000000000000000000000006064820152608401610505565b610f0f600082610c77565b6001600160a01b0383166000908152606860205260408120805460019290610f38908490611cee565b90915550506001600160a01b0382166000908152606860205260408120805460019290610f66908490611cd6565b9091555050600081815260676020526040808220805473ffffffffffffffffffffffffffffffffffffffff19166001600160a01b0386811691821790925591518493918716917fddf252ad1be2c89b69c2b068fc378daa952ba7f163c4a11628f55a4df523b3ef91a4505050565b816001600160a01b0316836001600160a01b031614156110365760405162461bcd60e51b815260206004820152601960248201527f4552433732313a20617070726f766520746f2063616c6c6572000000000000006044820152606401610505565b6001600160a01b038381166000818152606a602090815260408083209487168084529482529182902080547fffffffffffffffffffffffffffffffffffffffffffffffffffffffffffffff001686151590811790915591519182527f17307eab39ab6107e8899845ad3d59bd9653f200f220920489ca2b5937696c31910160405180910390a3505050565b6110cc848484610dfa565b6110d884848484611315565b610a4d5760405162461bcd60e51b815260206004820152603260248201527f4552433732313a207472616e7366657220746f206e6f6e20455243373231526560448201527f63656976657220696d706c656d656e74657200000000000000000000000000006064820152608401610505565b60606040518060600160405280602e8152602001611dec602e9139905090565b6060816111aa57505060408051808201909152600181527f3000000000000000000000000000000000000000000000000000000000000000602082015290565b8160005b81156111d457806111be81611d05565b91506111cd9050600a83611d54565b91506111ae565b60008167ffffffffffffffff8111156111ef576111ef6119ad565b6040519080825280601f01601f191660200182016040528015611219576020820181803683370190505b5090505b8415610df25761122e600183611cee565b915061123b600a86611d68565b611246906030611cd6565b60f81b81838151811061125b5761125b611d7c565b60200101907effffffffffffffffffffffffffffffffffffffffffffffffffffffffffffff1916908160001a905350611295600a86611d54565b945061121d565b600080805b60ca548110156112f45760ca81815481106112be576112be611d7c565b6000918252602090912001546001600160a01b03858116911614156112e257600191505b806112ec81611d05565b9150506112a1565b5092915050565b6109c18282604051806020016040528060008152506114c2565b60006001600160a01b0384163b156114b7576040517f150b7a020000000000000000000000000000000000000000000000000000000081526001600160a01b0385169063150b7a0290611372903390899088908890600401611d92565b602060405180830381600087803b15801561138c57600080fd5b505af19250505080156113bc575060408051601f3d908101601f191682019092526113b991810190611dce565b60015b61146c573d8080156113ea576040519150601f19603f3d011682016040523d82523d6000602084013e6113ef565b606091505b5080516114645760405162461bcd60e51b815260206004820152603260248201527f4552433732313a207472616e7366657220746f206e6f6e20455243373231526560448201527f63656976657220696d706c656d656e74657200000000000000000000000000006064820152608401610505565b805181602001fd5b7fffffffff00000000000000000000000000000000000000000000000000000000167f150b7a0200000000000000000000000000000000000000000000000000000000149050610df2565b506001949350505050565b6114cc838361154b565b6114d96000848484611315565b6106575760405162461bcd60e51b815260206004820152603260248201527f4552433732313a207472616e7366657220746f206e6f6e20455243373231526560448201527f63656976657220696d706c656d656e74657200000000000000000000000000006064820152608401610505565b6001600160a01b0382166115a15760405162461bcd60e51b815260206004820181905260248201527f4552433732313a206d696e7420746f20746865207a65726f20616464726573736044820152606401610505565b6000818152606760205260409020546001600160a01b0316156116065760405162461bcd60e51b815260206004820152601c60248201527f4552433732313a20746f6b656e20616c7265616479206d696e746564000000006044820152606401610505565b6001600160a01b038216600090815260686020526040812080546001929061162f908490611cd6565b9091555050600081815260676020526040808220805473ffffffffffffffffffffffffffffffffffffffff19166001600160a01b03861690811790915590518392907fddf252ad1be2c89b69c2b068fc378daa952ba7f163c4a11628f55a4df523b3ef908290a45050565b8280548282559060005260206000209081019282156116d5579160200282015b828111156116d55782518255916020019190600101906116ba565b506116e1929150611758565b5090565b8280546116f190611c56565b90600052602060002090601f01602090048101928261171357600085556116d5565b82601f1061172c57805160ff19168380011785556116d5565b828001600101855582156116d557918201828111156116d55782518255916020019190600101906116ba565b5b808211156116e15760008155600101611759565b7fffffffff000000000000000000000000000000000000000000000000000000008116811461179b57600080fd5b50565b6000602082840312156117b057600080fd5b8135610b358161176d565b60005b838110156117d65781810151838201526020016117be565b83811115610a4d5750506000910152565b600081518084526117ff8160208601602086016117bb565b601f01601f19169290920160200192915050565b602081526000610b3560208301846117e7565b60006020828403121561183857600080fd5b5035919050565b80356001600160a01b038116811461185657600080fd5b919050565b6000806040838503121561186e57600080fd5b6118778361183f565b946020939093013593505050565b60008060006060848603121561189a57600080fd5b6118a38461183f565b92506118b16020850161183f565b9150604084013590509250925092565b600060e082016001600160a01b038a1683526020898185015260e0604085015281895180845261010086019150828b01935060005b81811015611912578451835293830193918301916001016118f6565b5050886060860152848103608086015261192c81896117e7565b925050508460a084015282810360c084015261194881856117e7565b9a9950505050505050505050565b60006020828403121561196857600080fd5b610b358261183f565b6000806040838503121561198457600080fd5b61198d8361183f565b9150602083013580151581146119a257600080fd5b809150509250929050565b634e487b7160e01b600052604160045260246000fd5b604051601f8201601f1916810167ffffffffffffffff811182821017156119ec576119ec6119ad565b604052919050565b600067ffffffffffffffff831115611a0e57611a0e6119ad565b611a216020601f19601f860116016119c3565b9050828152838383011115611a3557600080fd5b828260208301376000602084830101529392505050565b60008060008060808587031215611a6257600080fd5b611a6b8561183f565b9350611a796020860161183f565b925060408501359150606085013567ffffffffffffffff811115611a9c57600080fd5b8501601f81018713611aad57600080fd5b611abc878235602084016119f4565b91505092959194509250565b6020808252825182820181905260009190848201906040850190845b81811015611b095783516001600160a01b031683529284019291840191600101611ae4565b50909695505050505050565b60008060408385031215611b2857600080fd5b611b318361183f565b9150611b3f6020840161183f565b90509250929050565b600082601f830112611b5957600080fd5b610b35838335602085016119f4565b600080600080600060a08688031215611b8057600080fd5b611b898661183f565b94506020808701359450604087013567ffffffffffffffff80821115611bae57600080fd5b818901915089601f830112611bc257600080fd5b813581811115611bd457611bd46119ad565b8060051b611be38582016119c3565b918252838101850191858101908d841115611bfd57600080fd5b948601945b83861015611c1b57853582529486019490860190611c02565b9850505050606089013594506080890135925080831115611c3b57600080fd5b5050611c4988828901611b48565b9150509295509295909350565b600181811c90821680611c6a57607f821691505b60208210811415611c8b57634e487b7160e01b600052602260045260246000fd5b50919050565b60008351611ca38184602088016117bb565b835190830190611cb78183602088016117bb565b01949350505050565b634e487b7160e01b600052601160045260246000fd5b60008219821115611ce957611ce9611cc0565b500190565b600082821015611d0057611d00611cc0565b500390565b60007fffffffffffffffffffffffffffffffffffffffffffffffffffffffffffffffff821415611d3757611d37611cc0565b5060010190565b634e487b7160e01b600052601260045260246000fd5b600082611d6357611d63611d3e565b500490565b600082611d7757611d77611d3e565b500690565b634e487b7160e01b600052603260045260246000fd5b60006001600160a01b03808716835280861660208401525083604083015260806060830152611dc460808301846117e7565b9695505050505050565b600060208284031215611de057600080fd5b8151610b358161176d56fe68747470733a2f2f686f6d65636f696e2d6170692e676f6c6f616e736e61702e636f6d2f6170692f686f6d65732fa26469706673582212200211baabd2d191fde50f28e6ecba10608d78899de6562b47b92b120d62fb8d0c64736f6c63430008090033",
  "immutableReferences": {},
  "source": "// contracts/Pool0.sol\n// SPDX-License-Identifier: MIT\npragma solidity ^0.8.4;\n\nimport \"../@openzeppelin/contracts-upgradeable/proxy/utils/Initializable.sol\";\nimport '../@openzeppelin/contracts-upgradeable/token/ERC721/extensions/ERC721URIStorageUpgradeable.sol';\nimport \"../@openzeppelin/contracts-upgradeable/utils/StringsUpgradeable.sol\";\n\ncontract PropToken1 is Initializable, ERC721URIStorageUpgradeable {\n    using StringsUpgradeable for uint256;\n\n    struct Lien{\n        uint256 lienIndex;\n        uint256 lienValue;\n        uint256[] seniorLienValues;\n        uint256 propValue;\n        string propAddress;\n        uint256 issuedAtTimestamp;\n    }\n\n    uint256 lienCount;\n    address[] servicerAddresses;\n    address[] poolAddresses;\n    mapping(uint256 => Lien) lienData;\n\n\n    /*****************************************************\n    *       POOL STRUCTURE / UPGRADABILITY FUNCTIONS\n    ******************************************************/\n\n\n    /*****************************************************\n    *                GETTER FUNCTIONS\n    ******************************************************/\n\n    /** \n    *   @dev Function isApprovedServicer() is an internal function that checks the array of approved addresses for the given address\n    *   @param _address The address to be checked if it is approved\n    *   @return isApproved is if the _addess is found in the list of servicerAddresses\n    */\n    function isApprovedServicer(address _address) internal view returns (bool) {\n        bool isApproved = false;\n        \n        for (uint i = 0; i < servicerAddresses.length; i++) {\n            if(_address == servicerAddresses[i]) {\n                isApproved = true;\n            }\n        }\n\n        return isApproved;\n    }\n\n    /**\n    *   @dev Function get Lien Value \n    *   @param lienId is the ID of the lien being looked up\n    *   @return the uint256 max value of the lien (to 6 decimal places)\n    **/\n    function getLienValue(uint256 lienId) public view returns (uint256) {\n        return lienData[lienId].lienValue;\n    }\n\n    /** \n    *   @dev Function getPropTokenCount() returns the lien count\n    *   @return lienCount uint256\n    */\n    function getPropTokenCount() public view returns (uint256) {\n        return lienCount;\n    }\n\n    /**\n    *   @dev Function getPoolAddresses() returns the pool addresses\n    *   @return address[] poolAddresses\n    */\n    function getPoolAddresses() public view returns (address[] memory) {\n        return poolAddresses;\n    }\n\n    /**\n    *   @dev Function getPropTokenData() returns all revelant fields on propToken\n    *   @param propTokenID  the uint256 id of token to be looked up\n    */\n    function getPropTokenData(uint256 propTokenID) public view returns (address, uint256, uint256[] memory, uint256, string memory, uint256, string memory) {\n        Lien memory propToken = lienData[propTokenID];\n        return(\n          ownerOf(propTokenID),\n          propToken.lienValue,\n          propToken.seniorLienValues,\n          propToken.propValue,\n          propToken.propAddress,\n          propToken.issuedAtTimestamp,\n          tokenURI(propTokenID)\n        );\n    }\n\n    function _baseURI() internal pure override returns (string memory) {\n        return \"https://homecoin-api.goloansnap.com/api/homes/\";\n    }\n\n    /**\n     * @dev See {IERC721Metadata-tokenURI}.\n     */\n    function tokenURI(uint256 tokenId) public view virtual override returns (string memory) {\n        // For now, we don't want the behavior of URIStorage that we pick up from the baseclass.\n        require(_exists(tokenId), \"ERC721Metadata: URI query for nonexistent token\");\n\n        string memory baseURI = _baseURI();\n        return bytes(baseURI).length > 0 ? string(abi.encodePacked(baseURI, tokenId.toString())) : \"\";\n    }\n\n    /*****************************************************\n    *              MINTING FUNCTION\n    ******************************************************/\n\n    function mintPropToken(\n        address to,\n        uint256 lienValue,\n        uint256[] memory seniorLienValues,\n        uint256 propValue,\n        string memory propAddress\n        ) public {\n        //require servicer is calling\n        require(isApprovedServicer(msg.sender));\n\n        Lien memory newLien = Lien(lienCount, lienValue, seniorLienValues, propValue, propAddress, block.timestamp);\n\n        _safeMint(to, lienCount);\n\n        lienData[lienCount] = newLien;\n        lienCount = lienCount + 1;\n    }\n}",
  "sourcePath": "/Users/kurt/repos/HomeDAO/contracts/PropTokens/PropToken1.sol",
  "compiler": {
    "name": "solc",
    "version": "0.8.9+commit.e5eed63a.Emscripten.clang"
  },
  "schemaVersion": "3.4.5",
  "updatedAt": "2022-11-29T23:49:20.775Z",
  "devdoc": {
    "kind": "dev",
    "methods": {
      "approve(address,uint256)": {
        "details": "See {IERC721-approve}."
      },
      "balanceOf(address)": {
        "details": "See {IERC721-balanceOf}."
      },
      "getApproved(uint256)": {
        "details": "See {IERC721-getApproved}."
      },
      "getLienValue(uint256)": {
        "details": "Function get Lien Value ",
        "params": {
          "lienId": "is the ID of the lien being looked up"
        },
        "returns": {
          "_0": "the uint256 max value of the lien (to 6 decimal places)*"
        }
      },
      "getPoolAddresses()": {
        "details": "Function getPoolAddresses() returns the pool addresses",
        "returns": {
          "_0": "address[] poolAddresses"
        }
      },
      "getPropTokenCount()": {
        "details": "Function getPropTokenCount() returns the lien count",
        "returns": {
          "_0": "lienCount uint256"
        }
      },
      "getPropTokenData(uint256)": {
        "details": "Function getPropTokenData() returns all revelant fields on propToken",
        "params": {
          "propTokenID": "the uint256 id of token to be looked up"
        }
      },
      "isApprovedForAll(address,address)": {
        "details": "See {IERC721-isApprovedForAll}."
      },
      "name()": {
        "details": "See {IERC721Metadata-name}."
      },
      "ownerOf(uint256)": {
        "details": "See {IERC721-ownerOf}."
      },
      "safeTransferFrom(address,address,uint256)": {
        "details": "See {IERC721-safeTransferFrom}."
      },
      "safeTransferFrom(address,address,uint256,bytes)": {
        "details": "See {IERC721-safeTransferFrom}."
      },
      "setApprovalForAll(address,bool)": {
        "details": "See {IERC721-setApprovalForAll}."
      },
      "supportsInterface(bytes4)": {
        "details": "See {IERC165-supportsInterface}."
      },
      "symbol()": {
        "details": "See {IERC721Metadata-symbol}."
      },
      "tokenURI(uint256)": {
        "details": "See {IERC721Metadata-tokenURI}."
      },
      "transferFrom(address,address,uint256)": {
        "details": "See {IERC721-transferFrom}."
      }
    },
    "version": 1
  },
  "userdoc": {
    "kind": "user",
    "methods": {},
    "version": 1
  }
}