{
  "contractName": "PropToken0",
  "abi": [
    {
      "anonymous": false,
      "inputs": [
        {
          "indexed": true,
          "internalType": "address",
          "name": "owner",
          "type": "address"
        },
        {
          "indexed": true,
          "internalType": "address",
          "name": "approved",
          "type": "address"
        },
        {
          "indexed": true,
          "internalType": "uint256",
          "name": "tokenId",
          "type": "uint256"
        }
      ],
      "name": "Approval",
      "type": "event"
    },
    {
      "anonymous": false,
      "inputs": [
        {
          "indexed": true,
          "internalType": "address",
          "name": "owner",
          "type": "address"
        },
        {
          "indexed": true,
          "internalType": "address",
          "name": "operator",
          "type": "address"
        },
        {
          "indexed": false,
          "internalType": "bool",
          "name": "approved",
          "type": "bool"
        }
      ],
      "name": "ApprovalForAll",
      "type": "event"
    },
    {
      "anonymous": false,
      "inputs": [
        {
          "indexed": true,
          "internalType": "address",
          "name": "from",
          "type": "address"
        },
        {
          "indexed": true,
          "internalType": "address",
          "name": "to",
          "type": "address"
        },
        {
          "indexed": true,
          "internalType": "uint256",
          "name": "tokenId",
          "type": "uint256"
        }
      ],
      "name": "Transfer",
      "type": "event"
    },
    {
      "inputs": [
        {
          "internalType": "address",
          "name": "to",
          "type": "address"
        },
        {
          "internalType": "uint256",
          "name": "tokenId",
          "type": "uint256"
        }
      ],
      "name": "approve",
      "outputs": [],
      "stateMutability": "nonpayable",
      "type": "function"
    },
    {
      "inputs": [
        {
          "internalType": "address",
          "name": "owner",
          "type": "address"
        }
      ],
      "name": "balanceOf",
      "outputs": [
        {
          "internalType": "uint256",
          "name": "",
          "type": "uint256"
        }
      ],
      "stateMutability": "view",
      "type": "function"
    },
    {
      "inputs": [
        {
          "internalType": "uint256",
          "name": "tokenId",
          "type": "uint256"
        }
      ],
      "name": "getApproved",
      "outputs": [
        {
          "internalType": "address",
          "name": "",
          "type": "address"
        }
      ],
      "stateMutability": "view",
      "type": "function"
    },
    {
      "inputs": [
        {
          "internalType": "address",
          "name": "owner",
          "type": "address"
        },
        {
          "internalType": "address",
          "name": "operator",
          "type": "address"
        }
      ],
      "name": "isApprovedForAll",
      "outputs": [
        {
          "internalType": "bool",
          "name": "",
          "type": "bool"
        }
      ],
      "stateMutability": "view",
      "type": "function"
    },
    {
      "inputs": [],
      "name": "name",
      "outputs": [
        {
          "internalType": "string",
          "name": "",
          "type": "string"
        }
      ],
      "stateMutability": "view",
      "type": "function"
    },
    {
      "inputs": [
        {
          "internalType": "uint256",
          "name": "tokenId",
          "type": "uint256"
        }
      ],
      "name": "ownerOf",
      "outputs": [
        {
          "internalType": "address",
          "name": "",
          "type": "address"
        }
      ],
      "stateMutability": "view",
      "type": "function"
    },
    {
      "inputs": [
        {
          "internalType": "address",
          "name": "from",
          "type": "address"
        },
        {
          "internalType": "address",
          "name": "to",
          "type": "address"
        },
        {
          "internalType": "uint256",
          "name": "tokenId",
          "type": "uint256"
        }
      ],
      "name": "safeTransferFrom",
      "outputs": [],
      "stateMutability": "nonpayable",
      "type": "function"
    },
    {
      "inputs": [
        {
          "internalType": "address",
          "name": "from",
          "type": "address"
        },
        {
          "internalType": "address",
          "name": "to",
          "type": "address"
        },
        {
          "internalType": "uint256",
          "name": "tokenId",
          "type": "uint256"
        },
        {
          "internalType": "bytes",
          "name": "_data",
          "type": "bytes"
        }
      ],
      "name": "safeTransferFrom",
      "outputs": [],
      "stateMutability": "nonpayable",
      "type": "function"
    },
    {
      "inputs": [
        {
          "internalType": "address",
          "name": "operator",
          "type": "address"
        },
        {
          "internalType": "bool",
          "name": "approved",
          "type": "bool"
        }
      ],
      "name": "setApprovalForAll",
      "outputs": [],
      "stateMutability": "nonpayable",
      "type": "function"
    },
    {
      "inputs": [
        {
          "internalType": "bytes4",
          "name": "interfaceId",
          "type": "bytes4"
        }
      ],
      "name": "supportsInterface",
      "outputs": [
        {
          "internalType": "bool",
          "name": "",
          "type": "bool"
        }
      ],
      "stateMutability": "view",
      "type": "function"
    },
    {
      "inputs": [],
      "name": "symbol",
      "outputs": [
        {
          "internalType": "string",
          "name": "",
          "type": "string"
        }
      ],
      "stateMutability": "view",
      "type": "function"
    },
    {
      "inputs": [
        {
          "internalType": "uint256",
          "name": "tokenId",
          "type": "uint256"
        }
      ],
      "name": "tokenURI",
      "outputs": [
        {
          "internalType": "string",
          "name": "",
          "type": "string"
        }
      ],
      "stateMutability": "view",
      "type": "function"
    },
    {
      "inputs": [
        {
          "internalType": "address",
          "name": "from",
          "type": "address"
        },
        {
          "internalType": "address",
          "name": "to",
          "type": "address"
        },
        {
          "internalType": "uint256",
          "name": "tokenId",
          "type": "uint256"
        }
      ],
      "name": "transferFrom",
      "outputs": [],
      "stateMutability": "nonpayable",
      "type": "function"
    },
    {
      "inputs": [
        {
          "internalType": "string",
          "name": "name",
          "type": "string"
        },
        {
          "internalType": "string",
          "name": "symbol",
          "type": "string"
        },
        {
          "internalType": "address",
          "name": "_poolAddress",
          "type": "address"
        },
        {
          "internalType": "address",
          "name": "approvedServicer",
          "type": "address"
        }
      ],
      "name": "initialize",
      "outputs": [],
      "stateMutability": "nonpayable",
      "type": "function"
    },
    {
      "inputs": [
        {
          "internalType": "uint256",
          "name": "lienId",
          "type": "uint256"
        }
      ],
      "name": "getLienValue",
      "outputs": [
        {
          "internalType": "uint256",
          "name": "",
          "type": "uint256"
        }
      ],
      "stateMutability": "view",
      "type": "function"
    },
    {
      "inputs": [],
      "name": "getPropTokenCount",
      "outputs": [
        {
          "internalType": "uint256",
          "name": "",
          "type": "uint256"
        }
      ],
      "stateMutability": "view",
      "type": "function"
    },
    {
      "inputs": [],
      "name": "getPoolAddresses",
      "outputs": [
        {
          "internalType": "address[]",
          "name": "",
          "type": "address[]"
        }
      ],
      "stateMutability": "view",
      "type": "function"
    },
    {
      "inputs": [
        {
          "internalType": "uint256",
          "name": "propTokenID",
          "type": "uint256"
        }
      ],
      "name": "getPropTokenData",
      "outputs": [
        {
          "internalType": "address",
          "name": "",
          "type": "address"
        },
        {
          "internalType": "uint256",
          "name": "",
          "type": "uint256"
        },
        {
          "internalType": "uint256[]",
          "name": "",
          "type": "uint256[]"
        },
        {
          "internalType": "uint256",
          "name": "",
          "type": "uint256"
        },
        {
          "internalType": "string",
          "name": "",
          "type": "string"
        },
        {
          "internalType": "uint256",
          "name": "",
          "type": "uint256"
        },
        {
          "internalType": "string",
          "name": "",
          "type": "string"
        }
      ],
      "stateMutability": "view",
      "type": "function"
    },
    {
      "inputs": [
        {
          "internalType": "address",
          "name": "to",
          "type": "address"
        },
        {
          "internalType": "uint256",
          "name": "lienValue",
          "type": "uint256"
        },
        {
          "internalType": "uint256[]",
          "name": "seniorLienValues",
          "type": "uint256[]"
        },
        {
          "internalType": "uint256",
          "name": "propValue",
          "type": "uint256"
        },
        {
          "internalType": "string",
          "name": "propAddress",
          "type": "string"
        },
        {
          "internalType": "string",
          "name": "propPhotoURI",
          "type": "string"
        }
      ],
      "name": "mintPropToken",
      "outputs": [],
      "stateMutability": "nonpayable",
      "type": "function"
    }
  ],
  "bytecode": "0x608060405234801561001057600080fd5b5061248c806100206000396000f3fe608060405234801561001057600080fd5b50600436106101515760003560e01c806370a08231116100cd578063b88d4fde11610081578063da588faf11610066578063da588faf146102dd578063e4b6db4c146102e5578063e985e9c5146102fa57600080fd5b8063b88d4fde146102b7578063c87b56dd146102ca57600080fd5b80638f15b414116100b25780638f15b4141461028957806395d89b411461029c578063a22cb465146102a457600080fd5b806370a0823114610263578063776f061b1461027657600080fd5b806323b872dd116101245780634a293c52116101095780634a293c52146101f95780636352211e1461021f5780636ebb668b1461023257600080fd5b806323b872dd146101d357806342842e0e146101e657600080fd5b806301ffc9a71461015657806306fdde031461017e578063081812fc14610193578063095ea7b3146101be575b600080fd5b610169610164366004611d61565b610336565b60405190151581526020015b60405180910390f35b61018661041b565b6040516101759190611dd6565b6101a66101a1366004611de9565b6104ad565b6040516001600160a01b039091168152602001610175565b6101d16101cc366004611e1e565b610558565b005b6101d16101e1366004611e48565b61068a565b6101d16101f4366004611e48565b610711565b61020c610207366004611de9565b61072c565b6040516101759796959493929190611e84565b6101a661022d366004611de9565b6108b0565b610255610240366004611de9565b600090815260cc602052604090206001015490565b604051908152602001610175565b610255610271366004611f19565b61093b565b6101d1610284366004611ff3565b6109d5565b6101d1610297366004612104565b610abc565b610186610c65565b6101d16102b2366004612189565b610c74565b6101d16102c53660046121c5565b610c83565b6101866102d8366004611de9565b610d11565b60c954610255565b6102ed610ea4565b6040516101759190612241565b61016961030836600461228e565b6001600160a01b039182166000908152606a6020908152604080832093909416825291909152205460ff1690565b60007fffffffff0000000000000000000000000000000000000000000000000000000082167f80ac58cd0000000000000000000000000000000000000000000000000000000014806103c957507fffffffff0000000000000000000000000000000000000000000000000000000082167f5b5e139f00000000000000000000000000000000000000000000000000000000145b8061041557507f01ffc9a7000000000000000000000000000000000000000000000000000000007fffffffff000000000000000000000000000000000000000000000000000000008316145b92915050565b60606065805461042a906122c1565b80601f0160208091040260200160405190810160405280929190818152602001828054610456906122c1565b80156104a35780601f10610478576101008083540402835291602001916104a3565b820191906000526020600020905b81548152906001019060200180831161048657829003601f168201915b5050505050905090565b6000818152606760205260408120546001600160a01b031661053c5760405162461bcd60e51b815260206004820152602c60248201527f4552433732313a20617070726f76656420717565727920666f72206e6f6e657860448201527f697374656e7420746f6b656e000000000000000000000000000000000000000060648201526084015b60405180910390fd5b506000908152606960205260409020546001600160a01b031690565b6000610563826108b0565b9050806001600160a01b0316836001600160a01b031614156105ed5760405162461bcd60e51b815260206004820152602160248201527f4552433732313a20617070726f76616c20746f2063757272656e74206f776e6560448201527f72000000000000000000000000000000000000000000000000000000000000006064820152608401610533565b336001600160a01b038216148061060957506106098133610308565b61067b5760405162461bcd60e51b815260206004820152603860248201527f4552433732313a20617070726f76652063616c6c6572206973206e6f74206f7760448201527f6e6572206e6f7220617070726f76656420666f7220616c6c00000000000000006064820152608401610533565b6106858383610f05565b505050565b6106943382610f80565b6107065760405162461bcd60e51b815260206004820152603160248201527f4552433732313a207472616e736665722063616c6c6572206973206e6f74206f60448201527f776e6572206e6f7220617070726f7665640000000000000000000000000000006064820152608401610533565b610685838383611084565b61068583838360405180602001604052806000815250610c83565b60008060606000606060006060600060cc60008a81526020019081526020016000206040518060c00160405290816000820154815260200160018201548152602001600282018054806020026020016040519081016040528092919081815260200182805480156107bc57602002820191906000526020600020905b8154815260200190600101908083116107a8575b50505050508152602001600382015481526020016004820180546107df906122c1565b80601f016020809104026020016040519081016040528092919081815260200182805461080b906122c1565b80156108585780601f1061082d57610100808354040283529160200191610858565b820191906000526020600020905b81548152906001019060200180831161083b57829003601f168201915b505050505081526020016005820154815250509050610876896108b0565b81602001518260400151836060015184608001518560a001516108988f610d11565b959f949e50929c50909a509850965090945092505050565b6000818152606760205260408120546001600160a01b0316806104155760405162461bcd60e51b815260206004820152602960248201527f4552433732313a206f776e657220717565727920666f72206e6f6e657869737460448201527f656e7420746f6b656e00000000000000000000000000000000000000000000006064820152608401610533565b60006001600160a01b0382166109b95760405162461bcd60e51b815260206004820152602a60248201527f4552433732313a2062616c616e636520717565727920666f7220746865207a6560448201527f726f2061646472657373000000000000000000000000000000000000000000006064820152608401610533565b506001600160a01b031660009081526068602052604090205490565b6109de3361125e565b6109e757600080fd5b60006040518060c0016040528060c9548152602001878152602001868152602001858152602001848152602001428152509050610a268760c9546112bd565b610a3260c954836112d7565b60c954600090815260cc602090815260409182902083518155818401516001820155918301518051849392610a6e926002850192910190611c5d565b506060820151600382015560808201518051610a94916004840191602090910190611ca8565b5060a0919091015160059091015560c954610ab0906001612312565b60c95550505050505050565b600054610100900460ff16610ad75760005460ff1615610adb565b303b155b610b4d5760405162461bcd60e51b815260206004820152602e60248201527f496e697469616c697a61626c653a20636f6e747261637420697320616c72656160448201527f647920696e697469616c697a65640000000000000000000000000000000000006064820152608401610533565b600054610100900460ff16158015610b8c57600080547fffffffffffffffffffffffffffffffffffffffffffffffffffffffffffff0000166101011790555b60ca805460018181019092557f42d72674974f694b5f5159593243114d38a5c39c89d6b62fee061ff523240ee10180546001600160a01b0380861673ffffffffffffffffffffffffffffffffffffffff199283161790925560cb805493840181556000527fa7ce836d032b2bf62b7e2097a8e0a6d8aeb35405ad15271e96d3b0188a1d06fb909201805491861691909216179055610c2a8585611380565b600060c9558015610c5e57600080547fffffffffffffffffffffffffffffffffffffffffffffffffffffffffffff00ff1690555b5050505050565b60606066805461042a906122c1565b610c7f338383611417565b5050565b610c8d3383610f80565b610cff5760405162461bcd60e51b815260206004820152603160248201527f4552433732313a207472616e736665722063616c6c6572206973206e6f74206f60448201527f776e6572206e6f7220617070726f7665640000000000000000000000000000006064820152608401610533565b610d0b84848484611504565b50505050565b6000818152606760205260409020546060906001600160a01b0316610d9e5760405162461bcd60e51b815260206004820152603160248201527f45524337323155524953746f726167653a2055524920717565727920666f722060448201527f6e6f6e6578697374656e7420746f6b656e0000000000000000000000000000006064820152608401610533565b60008281526097602052604081208054610db7906122c1565b80601f0160208091040260200160405190810160405280929190818152602001828054610de3906122c1565b8015610e305780601f10610e0557610100808354040283529160200191610e30565b820191906000526020600020905b815481529060010190602001808311610e1357829003601f168201915b505050505090506000610e4e60408051602081019091526000815290565b9050805160001415610e61575092915050565b815115610e93578082604051602001610e7b92919061232a565b60405160208183030381529060405292505050919050565b610e9c8461158d565b949350505050565b606060cb8054806020026020016040519081016040528092919081815260200182805480156104a357602002820191906000526020600020905b81546001600160a01b03168152600190910190602001808311610ede575050505050905090565b6000818152606960205260409020805473ffffffffffffffffffffffffffffffffffffffff19166001600160a01b0384169081179091558190610f47826108b0565b6001600160a01b03167f8c5be1e5ebec7d5bd14f71427d1e84f3dd0314c0f7b2291e5b200ac8c7c3b92560405160405180910390a45050565b6000818152606760205260408120546001600160a01b031661100a5760405162461bcd60e51b815260206004820152602c60248201527f4552433732313a206f70657261746f7220717565727920666f72206e6f6e657860448201527f697374656e7420746f6b656e00000000000000000000000000000000000000006064820152608401610533565b6000611015836108b0565b9050806001600160a01b0316846001600160a01b031614806110505750836001600160a01b0316611045846104ad565b6001600160a01b0316145b80610e9c57506001600160a01b038082166000908152606a602090815260408083209388168352929052205460ff16610e9c565b826001600160a01b0316611097826108b0565b6001600160a01b0316146111135760405162461bcd60e51b815260206004820152602960248201527f4552433732313a207472616e73666572206f6620746f6b656e2074686174206960448201527f73206e6f74206f776e00000000000000000000000000000000000000000000006064820152608401610533565b6001600160a01b03821661118e5760405162461bcd60e51b8152602060048201526024808201527f4552433732313a207472616e7366657220746f20746865207a65726f2061646460448201527f72657373000000000000000000000000000000000000000000000000000000006064820152608401610533565b611199600082610f05565b6001600160a01b03831660009081526068602052604081208054600192906111c2908490612359565b90915550506001600160a01b03821660009081526068602052604081208054600192906111f0908490612312565b9091555050600081815260676020526040808220805473ffffffffffffffffffffffffffffffffffffffff19166001600160a01b0386811691821790925591518493918716917fddf252ad1be2c89b69c2b068fc378daa952ba7f163c4a11628f55a4df523b3ef91a4505050565b600080805b60ca548110156112b65760ca818154811061128057611280612370565b6000918252602090912001546001600160a01b03858116911614156112a457600191505b806112ae81612386565b915050611263565b5092915050565b610c7f828260405180602001604052806000815250611683565b6000828152606760205260409020546001600160a01b03166113615760405162461bcd60e51b815260206004820152602e60248201527f45524337323155524953746f726167653a2055524920736574206f66206e6f6e60448201527f6578697374656e7420746f6b656e0000000000000000000000000000000000006064820152608401610533565b6000828152609760209081526040909120825161068592840190611ca8565b600054610100900460ff166113fd5760405162461bcd60e51b815260206004820152602b60248201527f496e697469616c697a61626c653a20636f6e7472616374206973206e6f74206960448201527f6e697469616c697a696e670000000000000000000000000000000000000000006064820152608401610533565b61140561170c565b61140d61170c565b610c7f828261178b565b816001600160a01b0316836001600160a01b031614156114795760405162461bcd60e51b815260206004820152601960248201527f4552433732313a20617070726f766520746f2063616c6c6572000000000000006044820152606401610533565b6001600160a01b038381166000818152606a602090815260408083209487168084529482529182902080547fffffffffffffffffffffffffffffffffffffffffffffffffffffffffffffff001686151590811790915591519182527f17307eab39ab6107e8899845ad3d59bd9653f200f220920489ca2b5937696c31910160405180910390a3505050565b61150f848484611084565b61151b8484848461182f565b610d0b5760405162461bcd60e51b815260206004820152603260248201527f4552433732313a207472616e7366657220746f206e6f6e20455243373231526560448201527f63656976657220696d706c656d656e74657200000000000000000000000000006064820152608401610533565b6000818152606760205260409020546060906001600160a01b031661161a5760405162461bcd60e51b815260206004820152602f60248201527f4552433732314d657461646174613a2055524920717565727920666f72206e6f60448201527f6e6578697374656e7420746f6b656e00000000000000000000000000000000006064820152608401610533565b600061163160408051602081019091526000815290565b90506000815111611651576040518060200160405280600081525061167c565b8061165b846119dc565b60405160200161166c92919061232a565b6040516020818303038152906040525b9392505050565b61168d8383611b0e565b61169a600084848461182f565b6106855760405162461bcd60e51b815260206004820152603260248201527f4552433732313a207472616e7366657220746f206e6f6e20455243373231526560448201527f63656976657220696d706c656d656e74657200000000000000000000000000006064820152608401610533565b600054610100900460ff166117895760405162461bcd60e51b815260206004820152602b60248201527f496e697469616c697a61626c653a20636f6e7472616374206973206e6f74206960448201527f6e697469616c697a696e670000000000000000000000000000000000000000006064820152608401610533565b565b600054610100900460ff166118085760405162461bcd60e51b815260206004820152602b60248201527f496e697469616c697a61626c653a20636f6e7472616374206973206e6f74206960448201527f6e697469616c697a696e670000000000000000000000000000000000000000006064820152608401610533565b815161181b906065906020850190611ca8565b508051610685906066906020840190611ca8565b60006001600160a01b0384163b156119d1576040517f150b7a020000000000000000000000000000000000000000000000000000000081526001600160a01b0385169063150b7a029061188c9033908990889088906004016123bf565b602060405180830381600087803b1580156118a657600080fd5b505af19250505080156118d6575060408051601f3d908101601f191682019092526118d3918101906123fb565b60015b611986573d808015611904576040519150601f19603f3d011682016040523d82523d6000602084013e611909565b606091505b50805161197e5760405162461bcd60e51b815260206004820152603260248201527f4552433732313a207472616e7366657220746f206e6f6e20455243373231526560448201527f63656976657220696d706c656d656e74657200000000000000000000000000006064820152608401610533565b805181602001fd5b7fffffffff00000000000000000000000000000000000000000000000000000000167f150b7a0200000000000000000000000000000000000000000000000000000000149050610e9c565b506001949350505050565b606081611a1c57505060408051808201909152600181527f3000000000000000000000000000000000000000000000000000000000000000602082015290565b8160005b8115611a465780611a3081612386565b9150611a3f9050600a8361242e565b9150611a20565b60008167ffffffffffffffff811115611a6157611a61611f34565b6040519080825280601f01601f191660200182016040528015611a8b576020820181803683370190505b5090505b8415610e9c57611aa0600183612359565b9150611aad600a86612442565b611ab8906030612312565b60f81b818381518110611acd57611acd612370565b60200101907effffffffffffffffffffffffffffffffffffffffffffffffffffffffffffff1916908160001a905350611b07600a8661242e565b9450611a8f565b6001600160a01b038216611b645760405162461bcd60e51b815260206004820181905260248201527f4552433732313a206d696e7420746f20746865207a65726f20616464726573736044820152606401610533565b6000818152606760205260409020546001600160a01b031615611bc95760405162461bcd60e51b815260206004820152601c60248201527f4552433732313a20746f6b656e20616c7265616479206d696e746564000000006044820152606401610533565b6001600160a01b0382166000908152606860205260408120805460019290611bf2908490612312565b9091555050600081815260676020526040808220805473ffffffffffffffffffffffffffffffffffffffff19166001600160a01b03861690811790915590518392907fddf252ad1be2c89b69c2b068fc378daa952ba7f163c4a11628f55a4df523b3ef908290a45050565b828054828255906000526020600020908101928215611c98579160200282015b82811115611c98578251825591602001919060010190611c7d565b50611ca4929150611d1b565b5090565b828054611cb4906122c1565b90600052602060002090601f016020900481019282611cd65760008555611c98565b82601f10611cef57805160ff1916838001178555611c98565b82800160010185558215611c985791820182811115611c98578251825591602001919060010190611c7d565b5b80821115611ca45760008155600101611d1c565b7fffffffff0000000000000000000000000000000000000000000000000000000081168114611d5e57600080fd5b50565b600060208284031215611d7357600080fd5b813561167c81611d30565b60005b83811015611d99578181015183820152602001611d81565b83811115610d0b5750506000910152565b60008151808452611dc2816020860160208601611d7e565b601f01601f19169290920160200192915050565b60208152600061167c6020830184611daa565b600060208284031215611dfb57600080fd5b5035919050565b80356001600160a01b0381168114611e1957600080fd5b919050565b60008060408385031215611e3157600080fd5b611e3a83611e02565b946020939093013593505050565b600080600060608486031215611e5d57600080fd5b611e6684611e02565b9250611e7460208501611e02565b9150604084013590509250925092565b600060e082016001600160a01b038a1683526020898185015260e0604085015281895180845261010086019150828b01935060005b81811015611ed557845183529383019391830191600101611eb9565b50508860608601528481036080860152611eef8189611daa565b925050508460a084015282810360c0840152611f0b8185611daa565b9a9950505050505050505050565b600060208284031215611f2b57600080fd5b61167c82611e02565b634e487b7160e01b600052604160045260246000fd5b604051601f8201601f1916810167ffffffffffffffff81118282101715611f7357611f73611f34565b604052919050565b600067ffffffffffffffff831115611f9557611f95611f34565b611fa86020601f19601f86011601611f4a565b9050828152838383011115611fbc57600080fd5b828260208301376000602084830101529392505050565b600082601f830112611fe457600080fd5b61167c83833560208501611f7b565b60008060008060008060c0878903121561200c57600080fd5b61201587611e02565b95506020808801359550604088013567ffffffffffffffff8082111561203a57600080fd5b818a0191508a601f83011261204e57600080fd5b81358181111561206057612060611f34565b8060051b61206f858201611f4a565b918252838101850191858101908e84111561208957600080fd5b948601945b838610156120a75785358252948601949086019061208e565b995050505060608a0135955060808a01359250808311156120c757600080fd5b6120d38b848c01611fd3565b945060a08a01359250808311156120e957600080fd5b50506120f789828a01611fd3565b9150509295509295509295565b6000806000806080858703121561211a57600080fd5b843567ffffffffffffffff8082111561213257600080fd5b61213e88838901611fd3565b9550602087013591508082111561215457600080fd5b5061216187828801611fd3565b93505061217060408601611e02565b915061217e60608601611e02565b905092959194509250565b6000806040838503121561219c57600080fd5b6121a583611e02565b9150602083013580151581146121ba57600080fd5b809150509250929050565b600080600080608085870312156121db57600080fd5b6121e485611e02565b93506121f260208601611e02565b925060408501359150606085013567ffffffffffffffff81111561221557600080fd5b8501601f8101871361222657600080fd5b61223587823560208401611f7b565b91505092959194509250565b6020808252825182820181905260009190848201906040850190845b818110156122825783516001600160a01b03168352928401929184019160010161225d565b50909695505050505050565b600080604083850312156122a157600080fd5b6122aa83611e02565b91506122b860208401611e02565b90509250929050565b600181811c908216806122d557607f821691505b602082108114156122f657634e487b7160e01b600052602260045260246000fd5b50919050565b634e487b7160e01b600052601160045260246000fd5b60008219821115612325576123256122fc565b500190565b6000835161233c818460208801611d7e565b835190830190612350818360208801611d7e565b01949350505050565b60008282101561236b5761236b6122fc565b500390565b634e487b7160e01b600052603260045260246000fd5b60007fffffffffffffffffffffffffffffffffffffffffffffffffffffffffffffffff8214156123b8576123b86122fc565b5060010190565b60006001600160a01b038087168352808616602084015250836040830152608060608301526123f16080830184611daa565b9695505050505050565b60006020828403121561240d57600080fd5b815161167c81611d30565b634e487b7160e01b600052601260045260246000fd5b60008261243d5761243d612418565b500490565b60008261245157612451612418565b50069056fea2646970667358221220190d61b32d1c72f153a26ec61f2f3f29259465c1046a50755843ee2aa25a64dc64736f6c63430008090033",
  "immutableReferences": {},
  "source": "// contracts/Pool0.sol\n// SPDX-License-Identifier: MIT\npragma solidity ^0.8.4;\n\nimport \"../@openzeppelin/contracts-upgradeable/proxy/utils/Initializable.sol\";\nimport '../@openzeppelin/contracts-upgradeable/token/ERC721/extensions/ERC721URIStorageUpgradeable.sol';\nimport '../@openzeppelin/contracts/utils/math/SafeMath.sol';\nimport '../@openzeppelin/contracts/utils/math/SignedSafeMath.sol';\n\ncontract PropToken0 is Initializable, ERC721URIStorageUpgradeable {\n    using SignedSafeMath for int256;\n    using SafeMath for uint256;\n\n    struct Lien{\n        uint256 lienIndex;\n        uint256 lienValue;\n        uint256[] seniorLienValues;\n        uint256 propValue;\n        string propAddress;\n        uint256 issuedAtTimestamp;\n    }\n\n    uint256 lienCount;\n    address[] servicerAddresses;\n    address[] poolAddresses;\n    mapping(uint256 => Lien) lienData;\n\n\n    /*****************************************************\n    *       POOL STRUCTURE / UPGRADABILITY FUNCTIONS\n    ******************************************************/\n\n    /** \n    *   @dev Function initialize replaces constructor in upgradable contracts\n    *   - Calls the init function of the inherited ERC721 contract\n    *   @param name Name of this particular ERC721 token\n    *   @param symbol The ticker this token will go by\n    */\n    function initialize(string memory name, string memory symbol, address _poolAddress, address approvedServicer) public initializer {\n        servicerAddresses.push(approvedServicer);\n        poolAddresses.push(_poolAddress);\n        ERC721Upgradeable.__ERC721_init(name, symbol);\n\n        //set initial vars\n        lienCount = 0;\n    }\n\n    /*****************************************************\n    *                GETTER FUNCTIONS\n    ******************************************************/\n\n    /** \n    *   @dev Function isApprovedServicer() is an internal function that checks the array of approved addresses for the given address\n    *   @param _address The address to be checked if it is approved\n    *   @return isApproved is if the _addess is found in the list of servicerAddresses\n    */\n    function isApprovedServicer(address _address) internal view returns (bool) {\n        bool isApproved = false;\n        \n        for (uint i = 0; i < servicerAddresses.length; i++) {\n            if(_address == servicerAddresses[i]) {\n                isApproved = true;\n            }\n        }\n\n        return isApproved;\n    }\n\n    /**\n    *   @dev Function get Lien Value \n    *   @param lienId is the ID of the lien being looked up\n    *   @return the uint256 max value of the lien (to 6 decimal places)\n    **/\n    function getLienValue(uint256 lienId) public view returns (uint256) {\n        return lienData[lienId].lienValue;\n    }\n\n    /** \n    *   @dev Function getPropTokenCount() returns the lien count\n    *   @return lienCount uint256\n    */\n    function getPropTokenCount() public view returns (uint256) {\n        return lienCount;\n    }\n\n    /**\n    *   @dev Function getPoolAddresses() returns the lien count\n    *   @return address[] poolAddresses\n    */\n    function getPoolAddresses() public view returns (address[] memory) {\n        return poolAddresses;\n    }\n\n    /**\n    *   @dev Function getPropTokenData() returns all revelant fields on propToken\n    *   @param propTokenID  the uint256 id of token to be looked up\n    */\n    function getPropTokenData(uint256 propTokenID) public view returns (address, uint256, uint256[] memory, uint256, string memory, uint256, string memory) {\n        Lien memory propToken = lienData[propTokenID];\n        return(\n          ownerOf(propTokenID),\n          propToken.lienValue,\n          propToken.seniorLienValues,\n          propToken.propValue,\n          propToken.propAddress,\n          propToken.issuedAtTimestamp,\n          tokenURI(propTokenID)\n        );\n    }\n\n    /*****************************************************\n    *              MINTING FUNCTION\n    ******************************************************/\n\n    function mintPropToken(\n        address to,\n        uint256 lienValue,\n        uint256[] memory seniorLienValues,\n        uint256 propValue,\n        string memory propAddress,\n        string memory propPhotoURI\n        ) public {\n        //require servicer is calling\n        require(isApprovedServicer(msg.sender));\n\n        Lien memory newLien = Lien(lienCount, lienValue, seniorLienValues, propValue, propAddress, block.timestamp);\n\n        _safeMint(to, lienCount);\n        _setTokenURI(lienCount, propPhotoURI);\n\n        lienData[lienCount] = newLien;\n        lienCount = lienCount + 1;\n    }\n\n}",
  "sourcePath": "/Users/patrick/github/HomeDAO/contracts/PropTokens/PropToken0.sol",
  "compiler": {
    "name": "solc",
    "version": "0.8.9+commit.e5eed63a.Emscripten.clang"
  },
  "schemaVersion": "3.4.8",
  "updatedAt": "2022-08-10T01:41:50.284Z",
  "devdoc": {
    "kind": "dev",
    "methods": {
      "approve(address,uint256)": {
        "details": "See {IERC721-approve}."
      },
      "balanceOf(address)": {
        "details": "See {IERC721-balanceOf}."
      },
      "getApproved(uint256)": {
        "details": "See {IERC721-getApproved}."
      },
      "getLienValue(uint256)": {
        "details": "Function get Lien Value ",
        "params": {
          "lienId": "is the ID of the lien being looked up"
        },
        "returns": {
          "_0": "the uint256 max value of the lien (to 6 decimal places)*"
        }
      },
      "getPoolAddresses()": {
        "details": "Function getPoolAddresses() returns the lien count",
        "returns": {
          "_0": "address[] poolAddresses"
        }
      },
      "getPropTokenCount()": {
        "details": "Function getPropTokenCount() returns the lien count",
        "returns": {
          "_0": "lienCount uint256"
        }
      },
      "getPropTokenData(uint256)": {
        "details": "Function getPropTokenData() returns all revelant fields on propToken",
        "params": {
          "propTokenID": "the uint256 id of token to be looked up"
        }
      },
      "initialize(string,string,address,address)": {
        "details": "Function initialize replaces constructor in upgradable contracts   - Calls the init function of the inherited ERC721 contract",
        "params": {
          "name": "Name of this particular ERC721 token",
          "symbol": "The ticker this token will go by"
        }
      },
      "isApprovedForAll(address,address)": {
        "details": "See {IERC721-isApprovedForAll}."
      },
      "name()": {
        "details": "See {IERC721Metadata-name}."
      },
      "ownerOf(uint256)": {
        "details": "See {IERC721-ownerOf}."
      },
      "safeTransferFrom(address,address,uint256)": {
        "details": "See {IERC721-safeTransferFrom}."
      },
      "safeTransferFrom(address,address,uint256,bytes)": {
        "details": "See {IERC721-safeTransferFrom}."
      },
      "setApprovalForAll(address,bool)": {
        "details": "See {IERC721-setApprovalForAll}."
      },
      "supportsInterface(bytes4)": {
        "details": "See {IERC165-supportsInterface}."
      },
      "symbol()": {
        "details": "See {IERC721Metadata-symbol}."
      },
      "tokenURI(uint256)": {
        "details": "See {IERC721Metadata-tokenURI}."
      },
      "transferFrom(address,address,uint256)": {
        "details": "See {IERC721-transferFrom}."
      }
    },
    "version": 1
  },
  "userdoc": {
    "kind": "user",
    "methods": {},
    "version": 1
  }
}