{
  "contractName": "Staking4",
  "abi": [
    {
      "anonymous": false,
      "inputs": [
        {
          "indexed": true,
          "internalType": "address",
          "name": "user",
          "type": "address"
        },
        {
          "indexed": true,
          "internalType": "address",
          "name": "tokenAddress",
          "type": "address"
        },
        {
          "indexed": false,
          "internalType": "uint256",
          "name": "amount",
          "type": "uint256"
        }
      ],
      "name": "Deposit",
      "type": "event"
    },
    {
      "anonymous": false,
      "inputs": [
        {
          "indexed": true,
          "internalType": "address",
          "name": "user",
          "type": "address"
        },
        {
          "indexed": true,
          "internalType": "address",
          "name": "tokenAddress",
          "type": "address"
        },
        {
          "indexed": false,
          "internalType": "uint256",
          "name": "amount",
          "type": "uint256"
        }
      ],
      "name": "EmergencyWithdraw",
      "type": "event"
    },
    {
      "anonymous": false,
      "inputs": [
        {
          "indexed": true,
          "internalType": "address",
          "name": "caller",
          "type": "address"
        },
        {
          "indexed": true,
          "internalType": "uint128",
          "name": "epochId",
          "type": "uint128"
        },
        {
          "indexed": false,
          "internalType": "address[]",
          "name": "tokens",
          "type": "address[]"
        }
      ],
      "name": "ManualEpochInit",
      "type": "event"
    },
    {
      "anonymous": false,
      "inputs": [
        {
          "indexed": true,
          "internalType": "address",
          "name": "user",
          "type": "address"
        },
        {
          "indexed": true,
          "internalType": "address",
          "name": "tokenAddress",
          "type": "address"
        },
        {
          "indexed": false,
          "internalType": "uint256",
          "name": "amount",
          "type": "uint256"
        }
      ],
      "name": "Withdraw",
      "type": "event"
    },
    {
      "inputs": [],
      "name": "epoch1Start",
      "outputs": [
        {
          "internalType": "uint256",
          "name": "",
          "type": "uint256"
        }
      ],
      "stateMutability": "view",
      "type": "function"
    },
    {
      "inputs": [],
      "name": "epochDuration",
      "outputs": [
        {
          "internalType": "uint256",
          "name": "",
          "type": "uint256"
        }
      ],
      "stateMutability": "view",
      "type": "function"
    },
    {
      "inputs": [
        {
          "internalType": "address",
          "name": "addr",
          "type": "address"
        }
      ],
      "name": "approveAccess",
      "outputs": [],
      "stateMutability": "nonpayable",
      "type": "function"
    },
    {
      "inputs": [
        {
          "internalType": "address",
          "name": "addr",
          "type": "address"
        }
      ],
      "name": "revokeAccess",
      "outputs": [],
      "stateMutability": "nonpayable",
      "type": "function"
    },
    {
      "inputs": [
        {
          "internalType": "address",
          "name": "tokenAddress",
          "type": "address"
        },
        {
          "internalType": "address",
          "name": "wallet",
          "type": "address"
        },
        {
          "internalType": "uint256",
          "name": "amount",
          "type": "uint256"
        }
      ],
      "name": "deposit",
      "outputs": [],
      "stateMutability": "nonpayable",
      "type": "function"
    },
    {
      "inputs": [
        {
          "internalType": "address",
          "name": "tokenAddress",
          "type": "address"
        },
        {
          "internalType": "address",
          "name": "wallet",
          "type": "address"
        },
        {
          "internalType": "uint256",
          "name": "amount",
          "type": "uint256"
        }
      ],
      "name": "withdraw",
      "outputs": [],
      "stateMutability": "nonpayable",
      "type": "function"
    },
    {
      "inputs": [
        {
          "internalType": "address[]",
          "name": "tokens",
          "type": "address[]"
        },
        {
          "internalType": "uint128",
          "name": "epochId",
          "type": "uint128"
        }
      ],
      "name": "manualEpochInit",
      "outputs": [],
      "stateMutability": "nonpayable",
      "type": "function"
    },
    {
      "inputs": [
        {
          "internalType": "address[]",
          "name": "tokens",
          "type": "address[]"
        },
        {
          "internalType": "uint128",
          "name": "startingEpochId",
          "type": "uint128"
        },
        {
          "internalType": "uint128",
          "name": "endingEpochId",
          "type": "uint128"
        }
      ],
      "name": "manualBatchEpochInit",
      "outputs": [],
      "stateMutability": "nonpayable",
      "type": "function"
    },
    {
      "inputs": [
        {
          "internalType": "address",
          "name": "wallet",
          "type": "address"
        },
        {
          "internalType": "address",
          "name": "tokenAddress",
          "type": "address"
        }
      ],
      "name": "emergencyWithdraw",
      "outputs": [],
      "stateMutability": "nonpayable",
      "type": "function"
    },
    {
      "inputs": [
        {
          "internalType": "address",
          "name": "user",
          "type": "address"
        },
        {
          "internalType": "address",
          "name": "token",
          "type": "address"
        },
        {
          "internalType": "uint128",
          "name": "epochId",
          "type": "uint128"
        }
      ],
      "name": "getEpochUserBalance",
      "outputs": [
        {
          "internalType": "uint256",
          "name": "",
          "type": "uint256"
        }
      ],
      "stateMutability": "view",
      "type": "function"
    },
    {
      "inputs": [
        {
          "internalType": "address",
          "name": "user",
          "type": "address"
        },
        {
          "internalType": "address",
          "name": "token",
          "type": "address"
        }
      ],
      "name": "balanceOf",
      "outputs": [
        {
          "internalType": "uint256",
          "name": "",
          "type": "uint256"
        }
      ],
      "stateMutability": "view",
      "type": "function"
    },
    {
      "inputs": [],
      "name": "getCurrentEpoch",
      "outputs": [
        {
          "internalType": "uint128",
          "name": "",
          "type": "uint128"
        }
      ],
      "stateMutability": "view",
      "type": "function"
    },
    {
      "inputs": [
        {
          "internalType": "address",
          "name": "tokenAddress",
          "type": "address"
        },
        {
          "internalType": "uint128",
          "name": "epochId",
          "type": "uint128"
        }
      ],
      "name": "getEpochPoolSize",
      "outputs": [
        {
          "internalType": "uint256",
          "name": "",
          "type": "uint256"
        }
      ],
      "stateMutability": "view",
      "type": "function"
    },
    {
      "inputs": [],
      "name": "currentEpochMultiplier",
      "outputs": [
        {
          "internalType": "uint128",
          "name": "",
          "type": "uint128"
        }
      ],
      "stateMutability": "view",
      "type": "function"
    },
    {
      "inputs": [
        {
          "internalType": "uint256",
          "name": "prevBalance",
          "type": "uint256"
        },
        {
          "internalType": "uint128",
          "name": "prevMultiplier",
          "type": "uint128"
        },
        {
          "internalType": "uint256",
          "name": "amount",
          "type": "uint256"
        },
        {
          "internalType": "uint128",
          "name": "currentMultiplier",
          "type": "uint128"
        }
      ],
      "name": "computeNewMultiplier",
      "outputs": [
        {
          "internalType": "uint128",
          "name": "",
          "type": "uint128"
        }
      ],
      "stateMutability": "pure",
      "type": "function"
    },
    {
      "inputs": [
        {
          "internalType": "address",
          "name": "token",
          "type": "address"
        },
        {
          "internalType": "uint128",
          "name": "epochId",
          "type": "uint128"
        }
      ],
      "name": "epochIsInitialized",
      "outputs": [
        {
          "internalType": "bool",
          "name": "",
          "type": "bool"
        }
      ],
      "stateMutability": "view",
      "type": "function"
    },
    {
      "inputs": [
        {
          "internalType": "address",
          "name": "account",
          "type": "address"
        },
        {
          "internalType": "address",
          "name": "tokenAddress",
          "type": "address"
        }
      ],
      "name": "getAndClearReward",
      "outputs": [
        {
          "internalType": "uint256",
          "name": "",
          "type": "uint256"
        }
      ],
      "stateMutability": "nonpayable",
      "type": "function"
    },
    {
      "inputs": [
        {
          "internalType": "address[]",
          "name": "addresses",
          "type": "address[]"
        },
        {
          "internalType": "address",
          "name": "tokenAddress",
          "type": "address"
        }
      ],
      "name": "endOnePercent",
      "outputs": [],
      "stateMutability": "nonpayable",
      "type": "function"
    },
    {
      "inputs": [
        {
          "internalType": "address",
          "name": "tokenAddress",
          "type": "address"
        },
        {
          "internalType": "uint256",
          "name": "amount",
          "type": "uint256"
        },
        {
          "internalType": "address",
          "name": "from",
          "type": "address"
        },
        {
          "internalType": "address",
          "name": "to",
          "type": "address"
        }
      ],
      "name": "transfer",
      "outputs": [],
      "stateMutability": "nonpayable",
      "type": "function"
    }
  ],
  "bytecode": "0x608060405234801561001057600080fd5b50612b2f806100206000396000f3fe608060405234801561001057600080fd5b50600436106101515760003560e01c80638c028dd0116100cd578063d9caed1211610081578063eb959c0d11610066578063eb959c0d146102d7578063f4a4341d146102ea578063f7888aec146102f357600080fd5b8063d9caed12146102b1578063ea2c38ae146102c457600080fd5b8063aa579154116100b2578063aa5791541461024a578063b97dd9e2146102a1578063ce58a2a8146102a957600080fd5b80638c028dd014610224578063a6c4e4671461023757600080fd5b80636382d9ad116101245780638340f549116101095780638340f549146101eb57806385e68531146101fe57806389b50e461461021157600080fd5b80636382d9ad146101c3578063705211f4146101d857600080fd5b80632ca32d7e146101565780634a0c8ce61461017c5780634be41dba1461018f5780634ff0876a146101ba575b600080fd5b61016961016436600461261a565b61033a565b6040519081526020015b60405180910390f35b61016961018a36600461264d565b61045e565b6101a261019d366004612677565b6104e3565b6040516001600160801b039091168152602001610173565b61016960345481565b6101d66101d136600461264d565b610567565b005b6101d66101e63660046126bd565b610815565b6101d66101f93660046126d8565b610893565b6101d661020c3660046126bd565b6109ae565b6101d661021f3660046127ea565b610a29565b61016961023236600461282f565b610aca565b6101d6610245366004612872565b610ca2565b61029161025836600461261a565b6001600160a01b03821660009081526036602090815260408083206001600160801b038516845290915290206001015460ff1692915050565b6040519015158152602001610173565b6101a2610dcb565b6101a2610e07565b6101d66102bf3660046126d8565b610e76565b6101d66102d23660046128b4565b610f3a565b6101d66102e53660046128f9565b61125c565b61016960335481565b61016961030136600461264d565b6001600160a01b0391821660009081526035602090815260408083209390941682529190915220546bffffffffffffffffffffffff1690565b6001600160a01b03821660009081526036602090815260408083206001600160801b038516845290915281206001015460ff16156103a557506001600160a01b03821660009081526036602090815260408083206001600160801b0385168452909152902054610458565b6001600160a01b038316600090815260366020908152604080832083805290915290206001015460ff166103db57506000610458565b6040516370a0823160e01b815230600482015283906001600160a01b038216906370a082319060240160206040518083038186803b15801561041c57600080fd5b505afa158015610430573d6000803e3d6000fd5b505050506040513d601f19601f820116820180604052508101906104549190612940565b9150505b92915050565b336000908152603a602052604081205460ff166104c25760405162461bcd60e51b815260206004820152601a60248201527f43616c6c6572206d75737420626520616e20617070726f76656400000000000060448201526064015b60405180910390fd5b50506001600160a01b03166000908152603b60205260408120805491905590565b60008061050b670de0b6b3a7640000610505886001600160801b038916611302565b9061130e565b9050600061052e670de0b6b3a7640000610505876001600160801b038816611302565b9050600061055b61053f898861131a565b610505670de0b6b3a7640000610555878761131a565b90611302565b98975050505050505050565b336000908152603a602052604090205460ff166105c65760405162461bcd60e51b815260206004820152601a60248201527f43616c6c6572206d75737420626520616e20617070726f76656400000000000060448201526064016104b9565b6001600160a01b038116600090815260386020526040902054600a906001600160801b03166105f3610dcb565b6105fd919061296f565b6001600160801b0316101561067a5760405162461bcd60e51b815260206004820152602c60248201527f4174206c656173742031302065706f636873206d75737420706173732077697460448201527f686f75742073756363657373000000000000000000000000000000000000000060648201526084016104b9565b6001600160a01b038281166000908152603560209081526040808320938516835292905220546bffffffffffffffffffffffff16806106fb5760405162461bcd60e51b815260206004820152601260248201527f416d6f756e74206d757374206265203e2030000000000000000000000000000060448201526064016104b9565b6001600160a01b0380841660009081526035602090815260408083209386168352929052908120556040517fa9059cbb0000000000000000000000000000000000000000000000000000000081526001600160a01b0384811660048301526024820183905283919082169063a9059cbb90604401602060405180830381600087803b15801561078957600080fd5b505af115801561079d573d6000803e3d6000fd5b505050506040513d601f19601f820116820180604052508101906107c19190612997565b50826001600160a01b0316846001600160a01b03167ff24ef89f38eadc1bde50701ad6e4d6d11a2dc24f7cf834a486991f38833285048460405161080791815260200190565b60405180910390a350505050565b6039546001600160a01b0316331461086f5760405162461bcd60e51b815260206004820152601760248201527f63616c6c6572206d75737420626520677561726469616e00000000000000000060448201526064016104b9565b6001600160a01b03166000908152603a60205260409020805460ff19166001179055565b600260015414156108e65760405162461bcd60e51b815260206004820152601f60248201527f5265656e7472616e637947756172643a207265656e7472616e742063616c6c0060448201526064016104b9565b6002600155336000908152603a602052604090205460ff1661094a5760405162461bcd60e51b815260206004820152601a60248201527f43616c6c6572206d75737420626520616e20617070726f76656400000000000060448201526064016104b9565b6000811161099a5760405162461bcd60e51b815260206004820152601b60248201527f5374616b696e673a20416d6f756e74206d757374206265203e2030000000000060448201526064016104b9565b6109a5838383611326565b50506001805550565b6039546001600160a01b03163314610a085760405162461bcd60e51b815260206004820152601760248201527f63616c6c6572206d75737420626520677561726469616e00000000000000000060448201526064016104b9565b6001600160a01b03166000908152603a60205260409020805460ff19169055565b6039546001600160a01b03163314610a835760405162461bcd60e51b815260206004820152600d60248201527f4f6e6c7920677561726469616e0000000000000000000000000000000000000060448201526064016104b9565b60005b8251811015610ac557610ab2838281518110610aa457610aa46129b9565b602002602001015183611c85565b5080610abd816129cf565b915050610a86565b505050565b6001600160a01b038084166000908152603760209081526040808320938616835292905290812080541580610b2e575080600081548110610b0d57610b0d6129b9565b60009182526020909120600390910201546001600160801b03908116908416105b15610b3d576000915050610c9b565b80546000908190610b50906001906129ea565b9050828181548110610b6457610b646129b9565b60009182526020909120600390910201546001600160801b0390811690861610610bfc57610bf2838281548110610b9d57610b9d6129b9565b600091825260209182902060408051608081018252600390930290910180546001600160801b038082168552600160801b90910416938301939093526001830154908201526002909101546060820152611d35565b9350505050610c9b565b81811115610c805760006002610c128484612a01565b610c1d906001612a01565b610c279190612a19565b9050856001600160801b0316848281548110610c4557610c456129b9565b60009182526020909120600390910201546001600160801b031611610c6c57809250610c7a565b610c776001826129ea565b91505b50610bfc565b610c95838381548110610b9d57610b9d6129b9565b93505050505b9392505050565b60026001541415610cf55760405162461bcd60e51b815260206004820152601f60248201527f5265656e7472616e637947756172643a207265656e7472616e742063616c6c0060448201526064016104b9565b6002600155336000908152603a602052604090205460ff16610d595760405162461bcd60e51b815260206004820152601760248201527f43616c6c6572206d75737420626520617070726f76656400000000000000000060448201526064016104b9565b60008311610da95760405162461bcd60e51b815260206004820152601b60248201527f5374616b696e673a20416d6f756e74206d757374206265203e2030000000000060448201526064016104b9565b610db68483856000611d66565b610dc1848285611326565b5050600180555050565b6000603354421015610ddd5750600090565b603454603354610ded90426129ea565b610df79190612a19565b610e02906001612a01565b905090565b600080610e12610dcb565b90506000603454826001600160801b0316610e2d9190612a3b565b603354610e3a9190612a01565b90506000610e4842836129ea565b603454909150600090610e63670de0b6b3a764000084612a3b565b610e6d9190612a19565b95945050505050565b60026001541415610ec95760405162461bcd60e51b815260206004820152601f60248201527f5265656e7472616e637947756172643a207265656e7472616e742063616c6c0060448201526064016104b9565b6002600155336000908152603a602052604090205460ff16610f2d5760405162461bcd60e51b815260206004820152601a60248201527f43616c6c6572206d75737420626520616e20617070726f76656400000000000060448201526064016104b9565b6109a58383836001611d66565b610f42610dcb565b6001600160801b0316816001600160801b03161115610fa35760405162461bcd60e51b815260206004820152601960248201527f63616e277420696e69742061206675747572652065706f63680000000000000060448201526064016104b9565b60005b825181101561120c57600060366000858481518110610fc757610fc76129b9565b6020908102919091018101516001600160a01b0316825281810192909252604090810160009081206001600160801b038716808352935220915061101e57600081556001808201805460ff191690911790556111f9565b611070848381518110611033576110336129b9565b6020908102919091018101516001600160a01b031660009081526036825260408082206001600160801b0388168352909252206001015460ff1690565b156110e35760405162461bcd60e51b815260206004820152602260248201527f5374616b696e673a2065706f636820616c726561647920696e697469616c697a60448201527f656400000000000000000000000000000000000000000000000000000000000060648201526084016104b9565b61110d8483815181106110f8576110f86129b9565b6020026020010151600185610258919061296f565b61117f5760405162461bcd60e51b815260206004820152602760248201527f5374616b696e673a2070726576696f75732065706f6368206e6f7420696e697460448201527f69616c697a65640000000000000000000000000000000000000000000000000060648201526084016104b9565b60366000858481518110611195576111956129b9565b60200260200101516001600160a01b03166001600160a01b0316815260200190815260200160002060006001856111cc919061296f565b6001600160801b0316815260208101919091526040016000205481556001808201805460ff191690911790555b5080611204816129cf565b915050610fa6565b50806001600160801b0316336001600160a01b03167fb85c32b8d9cecc81feba78646289584a693e9a8afea40ab2fd31efae4408429f846040516112509190612a5a565b60405180910390a35050565b611264610dcb565b6001600160801b0316816001600160801b031611156112c55760405162461bcd60e51b815260206004820152601960248201527f63616e277420696e69742061206675747572652065706f63680000000000000060448201526064016104b9565b815b816001600160801b0316816001600160801b0316116112fc576112ea8482610f3a565b806112f481612aa7565b9150506112c7565b50505050565b6000610c9b8284612a3b565b6000610c9b8284612a19565b6000610c9b8284612a01565b6001600160a01b038281166000908152603560209081526040808320938716835292905290812054849190611369906bffffffffffffffffffffffff168461131a565b6001600160a01b038086166000908152603560209081526040808320938a168352929052208190559050600061139d610dcb565b905060006113a9610e07565b6001600160a01b03881660009081526036602090815260408083206001600160801b038716845290915290206001015490915060ff1661144557604080516001808252818301909252600091602080830190803683370190505090508781600081518110611419576114196129b9565b60200260200101906001600160a01b031690816001600160a01b0316815250506114438184610f3a565b505b6001600160a01b038716600090815260366020526040812081611469856001612ace565b6001600160801b031681526020810191909152604090810160002090516370a0823160e01b81523060048201529091506001600160a01b038616906370a082319060240160206040518083038186803b1580156114c557600080fd5b505afa1580156114d9573d6000803e3d6000fd5b505050506040513d601f19601f820116820180604052508101906114fd9190612940565b81556001808201805460ff191690911790556001600160a01b038088166000908152603760209081526040808320938c16835292905290812090611542898b87610aca565b82549091506116ac57816040518060800160405280876001600160801b03168152602001866001600160801b03168152602001600081526020018a815250908060018154018082558091505060019003906000526020600020906003020160009091909190915060008201518160000160006101000a8154816001600160801b0302191690836001600160801b0316021790555060208201518160000160106101000a8154816001600160801b0302191690836001600160801b03160217905550604082015181600101556060820151816002015550508160405180608001604052808760016116329190612ace565b6001600160801b039081168252670de0b6b3a764000060208084019190915260408084018e905260006060948501819052865460018181018955978252908390208651938701518516600160801b029390941692909217600390920290920190815590830151938101939093550151600290910155611bc2565b81546000906116bd906001906129ea565b9050856001600160801b03168382815481106116db576116db6129b9565b60009182526020909120600390910201546001600160801b031610156118a857600061177a61176a858481548110611715576117156129b9565b600091825260209182902060408051608081018252600390930290910180546001600160801b038082168552600160801b90910416938301939093526001830154908201526002909101546060820152612543565b670de0b6b3a76400008c896104e3565b9050836040518060800160405280896001600160801b03168152602001836001600160801b031681526020016117bb878681548110611715576117156129b9565b815260209081018d90528254600181810185556000948552938290208351928401516001600160801b03908116600160801b029316929092176003909102909101908155604080830151828501556060909201516002909101558051608081019091528591819061182d908b90612ace565b6001600160801b039081168252670de0b6b3a764000060208084019190915260408084018e905260006060948501819052865460018181018955978252908390208651938701518516600160801b02939094169290921760039092029092019081559083015193810193909355015160029091015550611bc0565b856001600160801b03168382815481106118c4576118c46129b9565b60009182526020909120600390910201546001600160801b03161415611a6d576119366118fc848381548110611715576117156129b9565b84838154811061190e5761190e6129b9565b6000918252602090912060039091020154600160801b90046001600160801b03168b886104e3565b838281548110611948576119486129b9565b906000526020600020906003020160000160106101000a8154816001600160801b0302191690836001600160801b031602179055506119b389848381548110611993576119936129b9565b90600052602060002090600302016002015461131a90919063ffffffff16565b8382815481106119c5576119c56129b9565b9060005260206000209060030201600201819055508260405180608001604052808860016119f39190612ace565b6001600160801b039081168252670de0b6b3a764000060208084019190915260408084018d905260006060948501819052865460018181018955978252908390208651938701518516600160801b029390941692909217600390920290920190815590830151938101939093550151600290910155611bc0565b60018110158015611abb57506001600160801b03861683611a8f6001846129ea565b81548110611a9f57611a9f6129b9565b60009182526020909120600390910201546001600160801b0316145b15611b9757611afe611ae284611ad26001856129ea565b81548110611715576117156129b9565b84611aee6001856129ea565b8154811061190e5761190e6129b9565b83611b0a6001846129ea565b81548110611b1a57611b1a6129b9565b6000918252602090912060039091020180546001600160801b03928316600160801b029216919091179055611b658984611b556001856129ea565b81548110611993576119936129b9565b83611b716001846129ea565b81548110611b8157611b816129b9565b9060005260206000209060030201600201819055505b86838281548110611baa57611baa6129b9565b9060005260206000209060030201600101819055505b505b6000611bcf8a8c88610aca565b9050611c11611bde8284612560565b6001600160a01b038d1660009081526036602090815260408083206001600160801b038c1684529091529020549061131a565b6001600160a01b038c811660008181526036602090815260408083206001600160801b038d16845282529182902094909455518c81529092918d16917f5548c837ab068cf56a2c2479df0882a4922fd203edb7517321831d95078c5f62910160405180910390a35050505050505050505050565b6001600160a01b0380831660009081526035602090815260408083209385168352929052908120548190611cc2906301da9c00906105059061256c565b6001600160a01b0385166000908152603b6020526040902054909150611ce89082612a01565b6001600160a01b039485166000908152603b6020908152604080832084905560358252808320969097168252949094529390922080546bffffffffffffffffffffffff1690555090919050565b6000610458670de0b6b3a76400006001600160801b031661050584602001516001600160801b031661055586612543565b6001600160a01b038381166000908152603560209081526040808320938816835292905220546bffffffffffffffffffffffff1682811015611dea5760405162461bcd60e51b815260206004820152601a60248201527f5374616b696e673a2062616c616e636520746f6f20736d616c6c00000000000060448201526064016104b9565b611df48184612560565b6001600160a01b038086166000908152603560209081526040808320938a1683529290522081905590506000611e28610dcb565b9050858315611ece576040517fa9059cbb0000000000000000000000000000000000000000000000000000000081526001600160a01b0387811660048301526024820187905282169063a9059cbb90604401602060405180830381600087803b158015611e9457600080fd5b505af1158015611ea8573d6000803e3d6000fd5b505050506040513d601f19601f82011682018060405250810190611ecc9190612997565b505b6001600160a01b038716600090815260386020908152604080832080547fffffffffffffffffffffffffffffffff00000000000000000000000000000000166001600160801b0387169081179091556036835281842090845290915290206001015460ff16611f9957604080516001808252818301909252600091602080830190803683370190505090508781600081518110611f6d57611f6d6129b9565b60200260200101906001600160a01b031690816001600160a01b031681525050611f978184610f3a565b505b6001600160a01b038716600090815260366020526040812081611fbd856001612ace565b6001600160801b031681526020810191909152604090810160002090516370a0823160e01b81523060048201529091506001600160a01b038316906370a082319060240160206040518083038186803b15801561201957600080fd5b505afa15801561202d573d6000803e3d6000fd5b505050506040513d601f19601f820116820180604052508101906120519190612940565b81556001908101805460ff1916821790556001600160a01b038088166000908152603760209081526040808320938c16835292905290812080549093509091612099916129ea565b9050826001600160801b03168282815481106120b7576120b76129b9565b60009182526020909120600390910201546001600160801b031610156121a557604080516080810182526001600160801b03808616808352670de0b6b3a764000060208085019182528486018a81526000606087018181528a5460018181018d558c8452858420995196518916600160801b029690981695909517600390950290970193845590519483019490945593516002909101556001600160a01b038c1682526036835283822090825290915220546121739087612560565b6001600160a01b03891660009081526036602090815260408083206001600160801b03881684529091529020556124ec565b826001600160801b03168282815481106121c1576121c16129b9565b60009182526020909120600390910201546001600160801b031614156122a157838282815481106121f4576121f46129b9565b906000526020600020906003020160010181905550600082828154811061221d5761221d6129b9565b906000526020600020906003020160020181905550670de0b6b3a764000082828154811061224d5761224d6129b9565b60009182526020808320600390920290910180546001600160801b03948516600160801b029085161790556001600160a01b038b168252603681526040808320938716835292905220546121739087612560565b6000826122af6001846129ea565b815481106122bf576122bf6129b9565b6000918252602080832060408051608081018252600390940290910180546001600160801b038082168652600160801b909104169284019290925260018201549083015260028101546060830152925061231890611d35565b905081600201548810156123ac57600061235c8360020154610505670de0b6b3a76400006001600160801b031661055587600101548761256090919063ffffffff16565b600284015490915061236e908a612560565b60028401819055600184015461238e91670de0b6b3a764000090846104e3565b83546001600160801b03918216600160801b02911617835550612405565b6123d16123c683600201548a61256090919063ffffffff16565b600184015490612560565b60018301556000600283015581546001600160801b0316770de0b6b3a7640000000000000000000000000000000000001782555b6040805160808101825283546001600160801b038082168352600160801b9091041660208201526001840154918101919091526002830154606082015260009061244e90611d35565b905061249061245d8383612560565b6001600160a01b038d1660009081526036602090815260408083206001600160801b038c16845290915290205490612560565b6001600160a01b038c1660009081526036602090815260408083206001600160801b038b168452909152902055845487908690869081106124d3576124d36129b9565b9060005260206000209060030201600101819055505050505b876001600160a01b0316876001600160a01b03167f9b1bfa7fa9ee420a16e124f794c35ac9f90472acc99140eb2f6447c714cad8eb8860405161253191815260200190565b60405180910390a35050505050505050565b60006104588260600151836040015161131a90919063ffffffff16565b6000610c9b82846129ea565b60006104586bffffffffffffffffffffffff831661055561258c85612593565b4290612560565b6000806125be77ffffffffffffffffffffffff0000000000000000000000008416600160801b61130e565b9050806104585750426bffffffffffffffffffffffff8316156104585750636296ac0092915050565b80356001600160a01b03811681146125fe57600080fd5b919050565b80356001600160801b03811681146125fe57600080fd5b6000806040838503121561262d57600080fd5b612636836125e7565b915061264460208401612603565b90509250929050565b6000806040838503121561266057600080fd5b612669836125e7565b9150612644602084016125e7565b6000806000806080858703121561268d57600080fd5b8435935061269d60208601612603565b9250604085013591506126b260608601612603565b905092959194509250565b6000602082840312156126cf57600080fd5b610c9b826125e7565b6000806000606084860312156126ed57600080fd5b6126f6846125e7565b9250612704602085016125e7565b9150604084013590509250925092565b634e487b7160e01b600052604160045260246000fd5b600082601f83011261273b57600080fd5b8135602067ffffffffffffffff8083111561275857612758612714565b8260051b6040517fffffffffffffffffffffffffffffffffffffffffffffffffffffffffffffffe0603f8301168101818110848211171561279b5761279b612714565b6040529384528581018301938381019250878511156127b957600080fd5b83870191505b848210156127df576127d0826125e7565b835291830191908301906127bf565b979650505050505050565b600080604083850312156127fd57600080fd5b823567ffffffffffffffff81111561281457600080fd5b6128208582860161272a565b925050612644602084016125e7565b60008060006060848603121561284457600080fd5b61284d846125e7565b925061285b602085016125e7565b915061286960408501612603565b90509250925092565b6000806000806080858703121561288857600080fd5b612891856125e7565b9350602085013592506128a6604086016125e7565b91506126b2606086016125e7565b600080604083850312156128c757600080fd5b823567ffffffffffffffff8111156128de57600080fd5b6128ea8582860161272a565b92505061264460208401612603565b60008060006060848603121561290e57600080fd5b833567ffffffffffffffff81111561292557600080fd5b6129318682870161272a565b93505061285b60208501612603565b60006020828403121561295257600080fd5b5051919050565b634e487b7160e01b600052601160045260246000fd5b60006001600160801b038381169083168181101561298f5761298f612959565b039392505050565b6000602082840312156129a957600080fd5b81518015158114610c9b57600080fd5b634e487b7160e01b600052603260045260246000fd5b60006000198214156129e3576129e3612959565b5060010190565b6000828210156129fc576129fc612959565b500390565b60008219821115612a1457612a14612959565b500190565b600082612a3657634e487b7160e01b600052601260045260246000fd5b500490565b6000816000190483118215151615612a5557612a55612959565b500290565b6020808252825182820181905260009190848201906040850190845b81811015612a9b5783516001600160a01b031683529284019291840191600101612a76565b50909695505050505050565b60006001600160801b0380831681811415612ac457612ac4612959565b6001019392505050565b60006001600160801b03808316818516808303821115612af057612af0612959565b0194935050505056fea264697066735822122078b1d122228687749b4ef667caff3bba4f033022fdafe56fd4a21e07643b247f64736f6c63430008090033",
  "immutableReferences": {},
  "source": "// SPDX-License-Identifier: Apache-2.0\npragma solidity ^0.8.4;\n\nimport \"./../@openzeppelin/contracts/token/ERC20/IERC20.sol\";\n// import \"@openzeppelin/contracts/math/SafeMath.sol\";\nimport './../@openzeppelin/contracts/utils/math/SafeMath.sol';\n// import \"@openzeppelin/contracts/utils/ReentrancyGuard.sol\";\nimport './../@openzeppelin/contracts-upgradeable/security/ReentrancyGuardUpgradeable.sol';\nimport \"./../@openzeppelin/contracts-upgradeable/proxy/utils/Initializable.sol\";\n\nimport \"hardhat/console.sol\";\n\ncontract Staking4 is Initializable, ReentrancyGuardUpgradeable {\n    using SafeMath for uint256;\n\n    uint128 constant private BASE_MULTIPLIER = uint128(1 * 10 ** 18);\n\n    // timestamp for the epoch 1\n    // everything before that is considered epoch 0 which won't have a reward but allows for the initial stake\n    uint256 public epoch1Start;\n\n    // duration of each epoch\n    uint256 public epochDuration;\n\n    // holds the current balance of the user for each token\n    mapping(address => mapping(address => uint256)) private balances;\n\n    struct Pool {\n        uint256 size;\n        bool set;\n    }\n\n    // for each token, we store the total pool size\n    mapping(address => mapping(uint256 => Pool)) private poolSize;\n\n    // a checkpoint of the valid balance of a user for an epoch\n    struct Checkpoint {\n        uint128 epochId;\n        uint128 multiplier;\n        uint256 startBalance;\n        uint256 newDeposits;\n    }\n\n    // balanceCheckpoints[user][token][]\n    mapping(address => mapping(address => Checkpoint[])) private balanceCheckpoints;\n\n    mapping(address => uint128) private lastWithdrawEpochId;\n\n    event Deposit(address indexed user, address indexed tokenAddress, uint256 amount);\n    event Withdraw(address indexed user, address indexed tokenAddress, uint256 amount);\n    event ManualEpochInit(address indexed caller, uint128 indexed epochId, address[] tokens);\n    event EmergencyWithdraw(address indexed user, address indexed tokenAddress, uint256 amount);\n\n    address guardianAddress;\n    mapping(address => bool) isApproved;\n\n    // Base holding rewards tracking\n    mapping(address => uint256) private _accrued;\n\n    // TODO: set up stuff to connect this to the bHome token\n\n    function approveAccess(address addr) public{\n        require(msg.sender == guardianAddress, \"caller must be guardian\");\n        isApproved[addr] = true;\n    }\n\n    function revokeAccess(address addr) public{\n        require(msg.sender == guardianAddress, \"caller must be guardian\");\n        isApproved[addr] = false;\n    }\n\n    /*\n     * Stores `amount` of `tokenAddress` tokens for the `user` into the vault\n     */\n     function deposit(address tokenAddress, address wallet, uint256 amount) public nonReentrant {\n        require(isApproved[msg.sender], \"Caller must be an approved\");\n        require(amount > 0, \"Staking: Amount must be > 0\");\n        return _deposit(tokenAddress, wallet, amount);\n     }\n\n    function _deposit(address tokenAddress, address wallet, uint256 amount) internal {\n        IERC20 token = IERC20(tokenAddress);\n        uint256 stakedBalance = _getBalance(balances[wallet][tokenAddress]).add(amount);\n\n        // Scoping this so we don't run out of stack space <sigh>\n        {\n            // TODO: does it make sense to do this allowance thing if we are the ones doing the transfer? Probably not...\n            // uint256 allowance = token.allowance(wallet, address(this));\n            // require(allowance >= amount, \"Staking: Token allowance too small\");\n\n            _setBalance(wallet, tokenAddress, stakedBalance);\n            // token.transferFrom(wallet, address(this), amount);\n        }\n\n        // epoch logic\n        uint128 currentEpoch = getCurrentEpoch();\n        uint128 currentMultiplier = currentEpochMultiplier();\n\n        if (!epochIsInitialized(tokenAddress, currentEpoch)) {\n            address[] memory tokens = new address[](1);\n            tokens[0] = tokenAddress;\n            manualEpochInit(tokens, currentEpoch);\n        }\n\n        // update the next epoch pool size\n        Pool storage pNextEpoch = poolSize[tokenAddress][currentEpoch + 1];\n        pNextEpoch.size = token.balanceOf(address(this));\n        pNextEpoch.set = true;\n\n        Checkpoint[] storage checkpoints = balanceCheckpoints[wallet][tokenAddress];\n\n        uint256 balanceBefore = getEpochUserBalance(wallet, tokenAddress, currentEpoch);\n\n        // if there's no checkpoint yet, it means the user didn't have any activity\n        // we want to store checkpoints both for the current epoch and next epoch because\n        // if a user does a withdraw, the current epoch can also be modified and\n        // we don't want to insert another checkpoint in the middle of the array as that could be expensive\n        if (checkpoints.length == 0) {\n            checkpoints.push(Checkpoint(currentEpoch, currentMultiplier, 0, amount));\n\n            // next epoch => multiplier is 1, epoch deposits is 0\n            checkpoints.push(Checkpoint(currentEpoch + 1, BASE_MULTIPLIER, amount, 0));\n        } else {\n            uint256 last = checkpoints.length - 1;\n\n            // the last action happened in an older epoch (e.g. a deposit in epoch 3, current epoch is >=5)\n            if (checkpoints[last].epochId < currentEpoch) {\n                uint128 multiplier = computeNewMultiplier(\n                    getCheckpointBalance(checkpoints[last]),\n                    BASE_MULTIPLIER,\n                    amount,\n                    currentMultiplier\n                );\n                checkpoints.push(Checkpoint(currentEpoch, multiplier, getCheckpointBalance(checkpoints[last]), amount));\n                checkpoints.push(Checkpoint(currentEpoch + 1, BASE_MULTIPLIER, stakedBalance, 0));\n            }\n            // the last action happened in the previous epoch\n            else if (checkpoints[last].epochId == currentEpoch) {\n                checkpoints[last].multiplier = computeNewMultiplier(\n                    getCheckpointBalance(checkpoints[last]),\n                    checkpoints[last].multiplier,\n                    amount,\n                    currentMultiplier\n                );\n                checkpoints[last].newDeposits = checkpoints[last].newDeposits.add(amount);\n\n                checkpoints.push(Checkpoint(currentEpoch + 1, BASE_MULTIPLIER, stakedBalance, 0));\n            }\n            // the last action happened in the current epoch\n            else {\n                if (last >= 1 && checkpoints[last - 1].epochId == currentEpoch) {\n                    checkpoints[last - 1].multiplier = computeNewMultiplier(\n                        getCheckpointBalance(checkpoints[last - 1]),\n                        checkpoints[last - 1].multiplier,\n                        amount,\n                        currentMultiplier\n                    );\n                    checkpoints[last - 1].newDeposits = checkpoints[last - 1].newDeposits.add(amount);\n                }\n\n                checkpoints[last].startBalance = stakedBalance;\n            }\n        }\n\n        uint256 balanceAfter = getEpochUserBalance(wallet, tokenAddress, currentEpoch);\n\n        poolSize[tokenAddress][currentEpoch].size = poolSize[tokenAddress][currentEpoch].size.add(balanceAfter.sub(balanceBefore));\n\n        emit Deposit(wallet, tokenAddress, amount);\n    }\n\n    function withdraw(address tokenAddress, address wallet, uint256 amount) public nonReentrant {\n        require(isApproved[msg.sender], \"Caller must be an approved\");\n\n        _withdraw(tokenAddress, wallet, amount, true);\n    }\n\n    /*\n     * Removes the deposit of the user and sends the amount of `tokenAddress` back to the `user`\n     */\n    function _withdraw(address tokenAddress, address wallet, uint256 amount, bool doTransfer) internal {\n        uint256 stakedBalance = _getBalance(balances[wallet][tokenAddress]);\n        require(stakedBalance >= amount, \"Staking: balance too small\");\n\n        stakedBalance = stakedBalance.sub(amount);\n        _setBalance(wallet, tokenAddress, stakedBalance);\n\n        uint128 currentEpoch = getCurrentEpoch();\n        {\n            IERC20 token = IERC20(tokenAddress);\n            if (doTransfer) {\n                token.transfer(wallet, amount);\n            }\n\n            lastWithdrawEpochId[tokenAddress] = currentEpoch;\n\n            if (!epochIsInitialized(tokenAddress, currentEpoch)) {\n                address[] memory tokens = new address[](1);\n                tokens[0] = tokenAddress;\n                manualEpochInit(tokens, currentEpoch);\n            }\n\n            // update the pool size of the next epoch to its current balance\n            Pool storage pNextEpoch = poolSize[tokenAddress][currentEpoch + 1];\n            pNextEpoch.size = token.balanceOf(address(this));\n            pNextEpoch.set = true;\n        }\n\n        Checkpoint[] storage checkpoints = balanceCheckpoints[wallet][tokenAddress];\n        uint256 last = checkpoints.length - 1;\n\n        // note: it's impossible to have a withdraw and no checkpoints because the balance would be 0 and revert\n\n        // there was a deposit in an older epoch (more than 1 behind [eg: previous 0, now 5]) but no other action since then\n        if (checkpoints[last].epochId < currentEpoch) {\n            checkpoints.push(Checkpoint(currentEpoch, BASE_MULTIPLIER, stakedBalance, 0));\n\n            poolSize[tokenAddress][currentEpoch].size = poolSize[tokenAddress][currentEpoch].size.sub(amount);\n        }\n        // there was a deposit in the `epochId - 1` epoch => we have a checkpoint for the current epoch\n        else if (checkpoints[last].epochId == currentEpoch) {\n            checkpoints[last].startBalance = stakedBalance;\n            checkpoints[last].newDeposits = 0;\n            checkpoints[last].multiplier = BASE_MULTIPLIER;\n\n            poolSize[tokenAddress][currentEpoch].size = poolSize[tokenAddress][currentEpoch].size.sub(amount);\n        }\n        // there was a deposit in the current epoch\n        else {\n            Checkpoint storage currentEpochCheckpoint = checkpoints[last - 1];\n\n            uint256 balanceBefore = getCheckpointEffectiveBalance(currentEpochCheckpoint);\n\n            // in case of withdraw, we have 2 branches:\n            // 1. the user withdraws less than he added in the current epoch\n            // 2. the user withdraws more than he added in the current epoch (including 0)\n            if (amount < currentEpochCheckpoint.newDeposits) {\n                uint128 avgDepositMultiplier = uint128(\n                    balanceBefore.sub(currentEpochCheckpoint.startBalance).mul(BASE_MULTIPLIER).div(currentEpochCheckpoint.newDeposits)\n                );\n\n                currentEpochCheckpoint.newDeposits = currentEpochCheckpoint.newDeposits.sub(amount);\n\n                currentEpochCheckpoint.multiplier = computeNewMultiplier(\n                    currentEpochCheckpoint.startBalance,\n                    BASE_MULTIPLIER,\n                    currentEpochCheckpoint.newDeposits,\n                    avgDepositMultiplier\n                );\n            } else {\n                currentEpochCheckpoint.startBalance = currentEpochCheckpoint.startBalance.sub(\n                    amount.sub(currentEpochCheckpoint.newDeposits)\n                );\n                currentEpochCheckpoint.newDeposits = 0;\n                currentEpochCheckpoint.multiplier = BASE_MULTIPLIER;\n            }\n\n            uint256 balanceAfter = getCheckpointEffectiveBalance(currentEpochCheckpoint);\n\n            poolSize[tokenAddress][currentEpoch].size = poolSize[tokenAddress][currentEpoch].size.sub(balanceBefore.sub(balanceAfter));\n\n            checkpoints[last].startBalance = stakedBalance;\n        }\n\n        emit Withdraw(wallet, tokenAddress, amount);\n    }\n\n    /*\n     * manualEpochInit can be used by anyone to initialize an epoch based on the previous one\n     * This is only applicable if there was no action (deposit/withdraw) in the current epoch.\n     * Any deposit and withdraw will automatically initialize the current and next epoch.\n     */\n    function manualEpochInit(address[] memory tokens, uint128 epochId) public {\n        require(epochId <= getCurrentEpoch(), \"can't init a future epoch\");\n\n        for (uint i = 0; i < tokens.length; i++) {\n            Pool storage p = poolSize[tokens[i]][epochId];\n\n            if (epochId == 0) {\n                p.size = uint256(0);\n                p.set = true;\n            } else {\n                require(!epochIsInitialized(tokens[i], epochId), \"Staking: epoch already initialized\");\n                require(epochIsInitialized(tokens[i], epochId - 1), \"Staking: previous epoch not initialized\");\n\n                p.size = poolSize[tokens[i]][epochId - 1].size;\n                p.set = true;\n            }\n        }\n\n        emit ManualEpochInit(msg.sender, epochId, tokens);\n    }\n\n    /* helpful function for testnets where the epoch is often not inited by users */\n    function manualBatchEpochInit(address[] memory tokens, uint128 startingEpochId, uint128 endingEpochId) public {\n        require(endingEpochId <= getCurrentEpoch(), \"can't init a future epoch\");\n        for (uint128 i = startingEpochId; i <= endingEpochId; i++) {\n            manualEpochInit(tokens, i);\n        }\n    }\n\n    function emergencyWithdraw(address wallet, address tokenAddress) public {\n        require(isApproved[msg.sender], \"Caller must be an approved\");\n        require((getCurrentEpoch() - lastWithdrawEpochId[tokenAddress]) >= 10, \"At least 10 epochs must pass without success\");\n\n        uint256 totalUserBalance = _getBalance(balances[wallet][tokenAddress]);\n        require(totalUserBalance > 0, \"Amount must be > 0\");\n\n        _setBalance(wallet, tokenAddress, 0);\n\n        IERC20 token = IERC20(tokenAddress);\n        token.transfer(wallet, totalUserBalance);\n\n        emit EmergencyWithdraw(wallet, tokenAddress, totalUserBalance);\n    }\n\n    /*\n     * Returns the valid balance of a user that was taken into consideration in the total pool size for the epoch\n     * A deposit will only change the next epoch balance.\n     * A withdraw will decrease the current epoch (and subsequent) balance.\n     */\n    function getEpochUserBalance(address user, address token, uint128 epochId) public view returns (uint256) {\n        Checkpoint[] storage checkpoints = balanceCheckpoints[user][token];\n\n        // if there are no checkpoints, it means the user never deposited any tokens, so the balance is 0\n        if (checkpoints.length == 0 || epochId < checkpoints[0].epochId) {\n            return 0;\n        }\n\n        uint min = 0;\n        uint max = checkpoints.length - 1;\n\n        // shortcut for blocks newer than the latest checkpoint == current balance\n        if (epochId >= checkpoints[max].epochId) {\n            return getCheckpointEffectiveBalance(checkpoints[max]);\n        }\n\n        // binary search of the value in the array\n        while (max > min) {\n            uint mid = (max + min + 1) / 2;\n            if (checkpoints[mid].epochId <= epochId) {\n                min = mid;\n            } else {\n                max = mid - 1;\n            }\n        }\n\n        return getCheckpointEffectiveBalance(checkpoints[min]);\n    }\n\n    /*\n     * Returns the amount of `token` that the `user` has currently staked\n     */\n    function balanceOf(address user, address token) public view returns (uint256) {\n        return _getBalance(balances[user][token]);\n    }\n\n    /*\n     * Returns the id of the current epoch derived from block.timestamp\n     */\n    function getCurrentEpoch() public view returns (uint128) {\n        if (block.timestamp < epoch1Start) {\n            return 0;\n        }\n\n        return uint128((block.timestamp - epoch1Start) / epochDuration + 1);\n    }\n\n    /*\n     * Returns the total amount of `tokenAddress` that was locked from beginning to end of epoch identified by `epochId`\n     */\n    function getEpochPoolSize(address tokenAddress, uint128 epochId) public view returns (uint256) {\n        // Premises:\n        // 1. it's impossible to have gaps of uninitialized epochs\n        // - any deposit or withdraw initialize the current epoch which requires the previous one to be initialized\n        if (epochIsInitialized(tokenAddress, epochId)) {\n            return poolSize[tokenAddress][epochId].size;\n        }\n\n        // epochId not initialized and epoch 0 not initialized => there was never any action on this pool\n        if (!epochIsInitialized(tokenAddress, 0)) {\n            return 0;\n        }\n\n        // epoch 0 is initialized => there was an action at some point but none that initialized the epochId\n        // which means the current pool size is equal to the current balance of token held by the staking contract\n        IERC20 token = IERC20(tokenAddress);\n        return token.balanceOf(address(this));\n    }\n\n    /*\n     * Returns the percentage of time left in the current epoch\n     */\n    function currentEpochMultiplier() public view returns (uint128) {\n        uint128 currentEpoch = getCurrentEpoch();\n        uint256 currentEpochEnd = epoch1Start + currentEpoch * epochDuration;\n        uint256 timeLeft = currentEpochEnd - block.timestamp;\n        uint128 multiplier = uint128(timeLeft * BASE_MULTIPLIER / epochDuration);\n\n        return multiplier;\n    }\n\n    function computeNewMultiplier(uint256 prevBalance, uint128 prevMultiplier, uint256 amount, uint128 currentMultiplier) public pure returns (uint128) {\n        uint256 prevAmount = prevBalance.mul(prevMultiplier).div(BASE_MULTIPLIER);\n        uint256 addAmount = amount.mul(currentMultiplier).div(BASE_MULTIPLIER);\n        uint128 newMultiplier = uint128(prevAmount.add(addAmount).mul(BASE_MULTIPLIER).div(prevBalance.add(amount)));\n\n        return newMultiplier;\n    }\n\n    /*\n     * Checks if an epoch is initialized, meaning we have a pool size set for it\n     */\n    function epochIsInitialized(address token, uint128 epochId) public view returns (bool) {\n        return poolSize[token][epochId].set;\n    }\n\n    function getCheckpointBalance(Checkpoint memory c) internal pure returns (uint256) {\n        return c.startBalance.add(c.newDeposits);\n    }\n\n    function getCheckpointEffectiveBalance(Checkpoint memory c) internal pure returns (uint256) {\n        return getCheckpointBalance(c).mul(c.multiplier).div(BASE_MULTIPLIER);\n    }\n\n\n    // Base holding rewards tracking. See ERC20UpgradeableFromERC777Rewardable.\n\n    uint256 constant BASE_MASK     = 0xffffffffffffffffffffffff000000000000000000000000;\n    uint256 constant BALANCE_MASK  = 0x000000000000000000000000ffffffffffffffffffffffff;\n\n    uint256 constant SHIFT = 2 ** 128;\n\n    // 60 sec * 60 min * 24 hours * 360 days (mortgage year)\n    uint256 constant SECONDS_PER_YEAR = 31104000;\n\n    // Start time of rewards earning. June 1st 2022.\n    uint256 constant STARTING_TIME = 1654041600;\n\n    /**\n     * @dev\n     */\n    function _getBalance(uint256 balanceStorage) private pure returns (uint256) {\n        return balanceStorage & BALANCE_MASK;\n    }\n\n    /**\n     * @dev\n     */\n    function _getBase(uint256 balanceStorage) private view returns (uint256) {\n        uint256 base = (balanceStorage & BASE_MASK).div(SHIFT);\n\n        if (base == 0) {\n            base = block.timestamp;\n            if (_getBalance(balanceStorage) > 0) {\n                base = STARTING_TIME;\n            }\n        }\n        return base;\n    }\n\n    /**\n     * @dev\n     */\n    function _getTokenSeconds(uint256 balanceStorage) private view returns (uint256) {\n        return (block.timestamp.sub(_getBase(balanceStorage)).mul(_getBalance(balanceStorage)));\n    }\n\n    /**\n     * @dev\n     */\n    function _setBalance(address account, address tokenAddress, uint256 balance) private {\n        balances[account][tokenAddress] = balance;\n    }\n\n    /**\n     * @dev\n     */\n    function getAndClearReward(address account, address tokenAddress) external returns (uint256) {\n        require(isApproved[msg.sender], \"Caller must be an approved\");\n        uint256 reward = _accrued[account];\n        _accrued[account] = 0;\n        return reward;\n    }\n\n    /**\n     * @dev\n     */\n    function finalGetAndClearReward(address account, address tokenAddress) private returns (uint256) {\n        uint256 reward = _getTokenSeconds(balances[account][tokenAddress]).div(SECONDS_PER_YEAR);\n\n        reward += _accrued[account];\n        _accrued[account] = reward;\n\n        balances[account][tokenAddress] = (balances[account][tokenAddress]) & BALANCE_MASK;\n\n        return reward;\n    }\n\n    /**\n     * @dev\n     */\n    function endOnePercent(address[] memory addresses, address tokenAddress) public {\n        require(msg.sender == guardianAddress, \"Only guardian\");\n        for(uint256 currentAddress = 0; currentAddress < addresses.length; currentAddress++) {\n            finalGetAndClearReward(addresses[currentAddress], tokenAddress);\n        }\n    }\n\n    // Only needed for tesing endOnePercent. Can be removed when it is.\n    // function testOnePercent(address tokenAddress, address account) public {\n    //     require(msg.sender == guardianAddress, \"\");\n    //     uint256 balanceStorage = balances[account][tokenAddress];\n    //     uint256 balance = balanceStorage;\n    //     uint256 newBase = block.timestamp;\n    //     if (_getTokenSeconds(balanceStorage).div(balance) < block.timestamp) {\n    //         console.log('SETTING NEW BASE');\n    //         newBase = block.timestamp.sub(_getTokenSeconds(balanceStorage).div(balance));\n    //     } else {\n    //         console.log('SETTING ACCRUED');\n    //         _accrued[account] += _getTokenSeconds(balanceStorage).div(SECONDS_PER_YEAR);\n    //     }\n    //     balances[account][tokenAddress] = newBase.mul(SHIFT) | (balance & BALANCE_MASK);\n    // }\n\n    /**\n     * @dev\n     */\n     function transfer(address tokenAddress, uint256 amount, address from, address to) public nonReentrant {\n        require(isApproved[msg.sender], \"Caller must be approved\");\n        require(amount > 0, \"Staking: Amount must be > 0\");\n\n        _withdraw(tokenAddress, from, amount, false);\n        _deposit(tokenAddress, to, amount);\n     }\n}\n\n",
  "sourcePath": "/src/contracts/Staking/Staking4.sol",
  "compiler": {
    "name": "solc",
    "version": "0.8.9+commit.e5eed63a.Emscripten.clang"
  },
  "schemaVersion": "3.4.7",
  "updatedAt": "2022-08-27T16:35:12.597Z",
  "devdoc": {
    "kind": "dev",
    "methods": {},
    "version": 1
  },
  "userdoc": {
    "kind": "user",
    "methods": {},
    "version": 1
  }
}