{
  "contractName": "Staking1",
  "abi": [
    {
      "anonymous": false,
      "inputs": [
        {
          "indexed": true,
          "internalType": "address",
          "name": "user",
          "type": "address"
        },
        {
          "indexed": true,
          "internalType": "address",
          "name": "tokenAddress",
          "type": "address"
        },
        {
          "indexed": false,
          "internalType": "uint256",
          "name": "amount",
          "type": "uint256"
        }
      ],
      "name": "Deposit",
      "type": "event"
    },
    {
      "anonymous": false,
      "inputs": [
        {
          "indexed": true,
          "internalType": "address",
          "name": "user",
          "type": "address"
        },
        {
          "indexed": true,
          "internalType": "address",
          "name": "tokenAddress",
          "type": "address"
        },
        {
          "indexed": false,
          "internalType": "uint256",
          "name": "amount",
          "type": "uint256"
        }
      ],
      "name": "EmergencyWithdraw",
      "type": "event"
    },
    {
      "anonymous": false,
      "inputs": [
        {
          "indexed": true,
          "internalType": "address",
          "name": "caller",
          "type": "address"
        },
        {
          "indexed": true,
          "internalType": "uint128",
          "name": "epochId",
          "type": "uint128"
        },
        {
          "indexed": false,
          "internalType": "address[]",
          "name": "tokens",
          "type": "address[]"
        }
      ],
      "name": "ManualEpochInit",
      "type": "event"
    },
    {
      "anonymous": false,
      "inputs": [
        {
          "indexed": true,
          "internalType": "address",
          "name": "user",
          "type": "address"
        },
        {
          "indexed": true,
          "internalType": "address",
          "name": "tokenAddress",
          "type": "address"
        },
        {
          "indexed": false,
          "internalType": "uint256",
          "name": "amount",
          "type": "uint256"
        }
      ],
      "name": "Withdraw",
      "type": "event"
    },
    {
      "inputs": [],
      "name": "epoch1Start",
      "outputs": [
        {
          "internalType": "uint256",
          "name": "",
          "type": "uint256"
        }
      ],
      "stateMutability": "view",
      "type": "function"
    },
    {
      "inputs": [],
      "name": "epochDuration",
      "outputs": [
        {
          "internalType": "uint256",
          "name": "",
          "type": "uint256"
        }
      ],
      "stateMutability": "view",
      "type": "function"
    },
    {
      "inputs": [
        {
          "internalType": "address",
          "name": "_guardianAddress",
          "type": "address"
        },
        {
          "internalType": "uint256",
          "name": "_epoch1Start",
          "type": "uint256"
        },
        {
          "internalType": "uint256",
          "name": "_epochDuration",
          "type": "uint256"
        }
      ],
      "name": "initialize",
      "outputs": [],
      "stateMutability": "nonpayable",
      "type": "function"
    },
    {
      "inputs": [
        {
          "internalType": "address",
          "name": "addr",
          "type": "address"
        }
      ],
      "name": "approveAccess",
      "outputs": [],
      "stateMutability": "nonpayable",
      "type": "function"
    },
    {
      "inputs": [
        {
          "internalType": "address",
          "name": "addr",
          "type": "address"
        }
      ],
      "name": "revokeAccess",
      "outputs": [],
      "stateMutability": "nonpayable",
      "type": "function"
    },
    {
      "inputs": [
        {
          "internalType": "address",
          "name": "tokenAddress",
          "type": "address"
        },
        {
          "internalType": "address",
          "name": "wallet",
          "type": "address"
        },
        {
          "internalType": "uint256",
          "name": "amount",
          "type": "uint256"
        }
      ],
      "name": "deposit",
      "outputs": [],
      "stateMutability": "nonpayable",
      "type": "function"
    },
    {
      "inputs": [
        {
          "internalType": "address",
          "name": "tokenAddress",
          "type": "address"
        },
        {
          "internalType": "address",
          "name": "wallet",
          "type": "address"
        },
        {
          "internalType": "uint256",
          "name": "amount",
          "type": "uint256"
        }
      ],
      "name": "withdraw",
      "outputs": [],
      "stateMutability": "nonpayable",
      "type": "function"
    },
    {
      "inputs": [
        {
          "internalType": "address[]",
          "name": "tokens",
          "type": "address[]"
        },
        {
          "internalType": "uint128",
          "name": "epochId",
          "type": "uint128"
        }
      ],
      "name": "manualEpochInit",
      "outputs": [],
      "stateMutability": "nonpayable",
      "type": "function"
    },
    {
      "inputs": [
        {
          "internalType": "address[]",
          "name": "tokens",
          "type": "address[]"
        },
        {
          "internalType": "uint128",
          "name": "startingEpochId",
          "type": "uint128"
        },
        {
          "internalType": "uint128",
          "name": "endingEpochId",
          "type": "uint128"
        }
      ],
      "name": "manualBatchEpochInit",
      "outputs": [],
      "stateMutability": "nonpayable",
      "type": "function"
    },
    {
      "inputs": [
        {
          "internalType": "address",
          "name": "tokenAddress",
          "type": "address"
        }
      ],
      "name": "emergencyWithdraw",
      "outputs": [],
      "stateMutability": "nonpayable",
      "type": "function"
    },
    {
      "inputs": [
        {
          "internalType": "address",
          "name": "user",
          "type": "address"
        },
        {
          "internalType": "address",
          "name": "token",
          "type": "address"
        },
        {
          "internalType": "uint128",
          "name": "epochId",
          "type": "uint128"
        }
      ],
      "name": "getEpochUserBalance",
      "outputs": [
        {
          "internalType": "uint256",
          "name": "",
          "type": "uint256"
        }
      ],
      "stateMutability": "view",
      "type": "function"
    },
    {
      "inputs": [
        {
          "internalType": "address",
          "name": "user",
          "type": "address"
        },
        {
          "internalType": "address",
          "name": "token",
          "type": "address"
        }
      ],
      "name": "balanceOf",
      "outputs": [
        {
          "internalType": "uint256",
          "name": "",
          "type": "uint256"
        }
      ],
      "stateMutability": "view",
      "type": "function"
    },
    {
      "inputs": [],
      "name": "getCurrentEpoch",
      "outputs": [
        {
          "internalType": "uint128",
          "name": "",
          "type": "uint128"
        }
      ],
      "stateMutability": "view",
      "type": "function"
    },
    {
      "inputs": [
        {
          "internalType": "address",
          "name": "tokenAddress",
          "type": "address"
        },
        {
          "internalType": "uint128",
          "name": "epochId",
          "type": "uint128"
        }
      ],
      "name": "getEpochPoolSize",
      "outputs": [
        {
          "internalType": "uint256",
          "name": "",
          "type": "uint256"
        }
      ],
      "stateMutability": "view",
      "type": "function"
    },
    {
      "inputs": [],
      "name": "currentEpochMultiplier",
      "outputs": [
        {
          "internalType": "uint128",
          "name": "",
          "type": "uint128"
        }
      ],
      "stateMutability": "view",
      "type": "function"
    },
    {
      "inputs": [
        {
          "internalType": "uint256",
          "name": "prevBalance",
          "type": "uint256"
        },
        {
          "internalType": "uint128",
          "name": "prevMultiplier",
          "type": "uint128"
        },
        {
          "internalType": "uint256",
          "name": "amount",
          "type": "uint256"
        },
        {
          "internalType": "uint128",
          "name": "currentMultiplier",
          "type": "uint128"
        }
      ],
      "name": "computeNewMultiplier",
      "outputs": [
        {
          "internalType": "uint128",
          "name": "",
          "type": "uint128"
        }
      ],
      "stateMutability": "pure",
      "type": "function"
    },
    {
      "inputs": [
        {
          "internalType": "address",
          "name": "token",
          "type": "address"
        },
        {
          "internalType": "uint128",
          "name": "epochId",
          "type": "uint128"
        }
      ],
      "name": "epochIsInitialized",
      "outputs": [
        {
          "internalType": "bool",
          "name": "",
          "type": "bool"
        }
      ],
      "stateMutability": "view",
      "type": "function"
    }
  ],
  "bytecode": "0x608060405234801561001057600080fd5b5061299e806100206000396000f3fe608060405234801561001057600080fd5b506004361061011b5760003560e01c80638c028dd0116100b2578063d9caed1211610081578063eb959c0d11610066578063eb959c0d1461027b578063f4a4341d1461028e578063f7888aec1461029757600080fd5b8063d9caed1214610255578063ea2c38ae1461026857600080fd5b80638c028dd0146101db578063aa579154146101ee578063b97dd9e214610245578063ce58a2a81461024d57600080fd5b8063705211f4116100ee578063705211f41461018f5780637a1ac61e146101a25780638340f549146101b557806385e68531146101c857600080fd5b80632ca32d7e146101205780634be41dba146101465780634ff0876a146101715780636ff1c9bc1461017a575b600080fd5b61013361012e3660046124dd565b6102d0565b6040519081526020015b60405180910390f35b610159610154366004612510565b6103f4565b6040516001600160801b03909116815260200161013d565b61013360345481565b61018d610188366004612556565b610478565b005b61018d61019d366004612556565b6106a1565b61018d6101b0366004612571565b61071f565b61018d6101c33660046125a4565b610861565b61018d6101d6366004612556565b6113ba565b6101336101e93660046125e0565b611435565b6102356101fc3660046124dd565b6001600160a01b03821660009081526036602090815260408083206001600160801b038516845290915290206001015460ff1692915050565b604051901515815260200161013d565b61015961160d565b610159611649565b61018d6102633660046125a4565b6116b8565b61018d6102763660046126f9565b61206a565b61018d61028936600461273e565b61238c565b61013360335481565b6101336102a5366004612785565b6001600160a01b03918216600090815260356020908152604080832093909416825291909152205490565b6001600160a01b03821660009081526036602090815260408083206001600160801b038516845290915281206001015460ff161561033b57506001600160a01b03821660009081526036602090815260408083206001600160801b03851684529091529020546103ee565b6001600160a01b038316600090815260366020908152604080832083805290915290206001015460ff16610371575060006103ee565b6040516370a0823160e01b815230600482015283906001600160a01b038216906370a082319060240160206040518083038186803b1580156103b257600080fd5b505afa1580156103c6573d6000803e3d6000fd5b505050506040513d601f19601f820116820180604052508101906103ea91906127af565b9150505b92915050565b60008061041c670de0b6b3a7640000610416886001600160801b03891661242c565b90612438565b9050600061043f670de0b6b3a7640000610416876001600160801b03881661242c565b9050600061046c6104508988612444565b610416670de0b6b3a76400006104668787612444565b9061242c565b98975050505050505050565b6001600160a01b038116600090815260386020526040902054600a906001600160801b03166104a561160d565b6104af91906127de565b6001600160801b031610156105315760405162461bcd60e51b815260206004820152602c60248201527f4174206c656173742031302065706f636873206d75737420706173732077697460448201527f686f75742073756363657373000000000000000000000000000000000000000060648201526084015b60405180910390fd5b3360009081526035602090815260408083206001600160a01b0385168452909152902054806105a25760405162461bcd60e51b815260206004820152601260248201527f416d6f756e74206d757374206265203e203000000000000000000000000000006044820152606401610528565b3360008181526035602090815260408083206001600160a01b03871680855292528083209290925590517fa9059cbb000000000000000000000000000000000000000000000000000000008152600481019290925260248201839052839163a9059cbb90604401602060405180830381600087803b15801561062357600080fd5b505af1158015610637573d6000803e3d6000fd5b505050506040513d601f19601f8201168201806040525081019061065b9190612806565b506040518281526001600160a01b0384169033907ff24ef89f38eadc1bde50701ad6e4d6d11a2dc24f7cf834a486991f38833285049060200160405180910390a3505050565b6039546001600160a01b031633146106fb5760405162461bcd60e51b815260206004820152601760248201527f63616c6c6572206d75737420626520677561726469616e0000000000000000006044820152606401610528565b6001600160a01b03166000908152603a60205260409020805460ff19166001179055565b600054610100900460ff1661073a5760005460ff161561073e565b303b155b6107b05760405162461bcd60e51b815260206004820152602e60248201527f496e697469616c697a61626c653a20636f6e747261637420697320616c72656160448201527f647920696e697469616c697a65640000000000000000000000000000000000006064820152608401610528565b600054610100900460ff161580156107ef57600080547fffffffffffffffffffffffffffffffffffffffffffffffffffffffffffff0000166101011790555b603980547fffffffffffffffffffffffff0000000000000000000000000000000000000000166001600160a01b03861617905560338390556034829055801561085b57600080547fffffffffffffffffffffffffffffffffffffffffffffffffffffffffffff00ff1690555b50505050565b600260015414156108b45760405162461bcd60e51b815260206004820152601f60248201527f5265656e7472616e637947756172643a207265656e7472616e742063616c6c006044820152606401610528565b6002600155336000908152603a602052604090205460ff166109185760405162461bcd60e51b815260206004820152601a60248201527f43616c6c6572206d75737420626520616e20617070726f7665640000000000006044820152606401610528565b600081116109685760405162461bcd60e51b815260206004820152601b60248201527f5374616b696e673a20416d6f756e74206d757374206265203e203000000000006044820152606401610528565b6001600160a01b03808316600090815260356020908152604080832093871683529290522054839061099a9083612444565b6001600160a01b0380851660009081526035602090815260408083209389168352929052908120919091556109cd61160d565b905060006109d9611649565b6001600160a01b03871660009081526036602090815260408083206001600160801b038716845290915290206001015490915060ff16610a7557604080516001808252818301909252600091602080830190803683370190505090508681600081518110610a4957610a49612828565b60200260200101906001600160a01b031690816001600160a01b031681525050610a73818461206a565b505b6001600160a01b038616600090815260366020526040812081610a9985600161283e565b6001600160801b031681526020810191909152604090810160002090516370a0823160e01b81523060048201529091506001600160a01b038516906370a082319060240160206040518083038186803b158015610af557600080fd5b505afa158015610b09573d6000803e3d6000fd5b505050506040513d601f19601f82011682018060405250810190610b2d91906127af565b81556001808201805460ff191690911790556001600160a01b038087166000908152603760209081526040808320938b16835292905290812090610b72888a87611435565b8254909150610c7f5760408051608080820183526001600160801b03808916835287811660208085019182526000858701818152606087018f81528a5460018181018d558c855294909320975194518616600160801b0294909516939093176003909102909501948555905184820155905160029093019290925582519081019092528391908190610c0590899061283e565b6001600160801b039081168252670de0b6b3a764000060208084019190915260408084018d905260006060948501819052865460018181018955978252908390208651938701518516600160801b0293909416929092176003909202909201908155908301519381019390935501516002909101556112f4565b8154600090610c9090600190612869565b9050856001600160801b0316838281548110610cae57610cae612828565b60009182526020909120600390910201546001600160801b03161015610f17576000610d4d610d3d858481548110610ce857610ce8612828565b600091825260209182902060408051608081018252600390930290910180546001600160801b038082168552600160801b90910416938301939093526001830154908201526002909101546060820152612450565b670de0b6b3a76400008b896103f4565b9050836040518060800160405280896001600160801b03168152602001836001600160801b03168152602001610d8e878681548110610ce857610ce8612828565b815260209081018c90528254600181810185556000948552938290208351928401516001600160801b03908116600160801b0293169290921760039091029091019081556040808301518285015560609092015160029091015580516080810190915285918190610e00908b9061283e565b6001600160801b03168152602001670de0b6b3a76400006001600160801b03168152602001603560008e6001600160a01b03166001600160a01b0316815260200190815260200160002060008f6001600160a01b03166001600160a01b031681526020019081526020016000205481526020016000815250908060018154018082558091505060019003906000526020600020906003020160009091909190915060008201518160000160006101000a8154816001600160801b0302191690836001600160801b0316021790555060208201518160000160106101000a8154816001600160801b0302191690836001600160801b0316021790555060408201518160010155606082015181600201555050506112f2565b856001600160801b0316838281548110610f3357610f33612828565b60009182526020909120600390910201546001600160801b0316141561117857610fa5610f6b848381548110610ce857610ce8612828565b848381548110610f7d57610f7d612828565b6000918252602090912060039091020154600160801b90046001600160801b03168a886103f4565b838281548110610fb757610fb7612828565b906000526020600020906003020160000160106101000a8154816001600160801b0302191690836001600160801b031602179055506110228884838154811061100257611002612828565b90600052602060002090600302016002015461244490919063ffffffff16565b83828154811061103457611034612828565b906000526020600020906003020160020181905550826040518060800160405280886001611062919061283e565b6001600160801b03168152602001670de0b6b3a76400006001600160801b03168152602001603560008d6001600160a01b03166001600160a01b0316815260200190815260200160002060008e6001600160a01b03166001600160a01b031681526020019081526020016000205481526020016000815250908060018154018082558091505060019003906000526020600020906003020160009091909190915060008201518160000160006101000a8154816001600160801b0302191690836001600160801b0316021790555060208201518160000160106101000a8154816001600160801b0302191690836001600160801b03160217905550604082015181600101556060820151816002015550506112f2565b600181101580156111c657506001600160801b0386168361119a600184612869565b815481106111aa576111aa612828565b60009182526020909120600390910201546001600160801b0316145b156112a2576112096111ed846111dd600185612869565b81548110610ce857610ce8612828565b846111f9600185612869565b81548110610f7d57610f7d612828565b83611215600184612869565b8154811061122557611225612828565b6000918252602090912060039091020180546001600160801b03928316600160801b0292169190911790556112708884611260600185612869565b8154811061100257611002612828565b8361127c600184612869565b8154811061128c5761128c612828565b9060005260206000209060030201600201819055505b6001600160a01b03808a166000908152603560209081526040808320938e168352929052205483548490839081106112dc576112dc612828565b9060005260206000209060030201600101819055505b505b6000611301898b88611435565b9050611343611310828461246d565b6001600160a01b038c1660009081526036602090815260408083206001600160801b038c16845290915290205490612444565b6001600160a01b038b811660008181526036602090815260408083206001600160801b038d16845282529182902094909455518b81529092918c16917f5548c837ab068cf56a2c2479df0882a4922fd203edb7517321831d95078c5f62910160405180910390a35050600180555050505050505050565b6039546001600160a01b031633146114145760405162461bcd60e51b815260206004820152601760248201527f63616c6c6572206d75737420626520677561726469616e0000000000000000006044820152606401610528565b6001600160a01b03166000908152603a60205260409020805460ff19169055565b6001600160a01b03808416600090815260376020908152604080832093861683529290529081208054158061149957508060008154811061147857611478612828565b60009182526020909120600390910201546001600160801b03908116908416105b156114a8576000915050611606565b805460009081906114bb90600190612869565b90508281815481106114cf576114cf612828565b60009182526020909120600390910201546001600160801b03908116908616106115675761155d83828154811061150857611508612828565b600091825260209182902060408051608081018252600390930290910180546001600160801b038082168552600160801b90910416938301939093526001830154908201526002909101546060820152612479565b9350505050611606565b818111156115eb576000600261157d8484612880565b611588906001612880565b6115929190612898565b9050856001600160801b03168482815481106115b0576115b0612828565b60009182526020909120600390910201546001600160801b0316116115d7578092506115e5565b6115e2600182612869565b91505b50611567565b61160083838154811061150857611508612828565b93505050505b9392505050565b600060335442101561161f5750600090565b60345460335461162f9042612869565b6116399190612898565b611644906001612880565b905090565b60008061165461160d565b90506000603454826001600160801b031661166f91906128ba565b60335461167c9190612880565b9050600061168a4283612869565b6034549091506000906116a5670de0b6b3a7640000846128ba565b6116af9190612898565b95945050505050565b6002600154141561170b5760405162461bcd60e51b815260206004820152601f60248201527f5265656e7472616e637947756172643a207265656e7472616e742063616c6c006044820152606401610528565b6002600155336000908152603a602052604090205460ff1661176f5760405162461bcd60e51b815260206004820152601a60248201527f43616c6c6572206d75737420626520616e20617070726f7665640000000000006044820152606401610528565b6001600160a01b038083166000908152603560209081526040808320938716835292905220548111156117e45760405162461bcd60e51b815260206004820152601a60248201527f5374616b696e673a2062616c616e636520746f6f20736d616c6c0000000000006044820152606401610528565b6001600160a01b03808316600090815260356020908152604080832093871683529290522054611814908261246d565b6001600160a01b03838116600081815260356020908152604080832094891680845294909152908190209390935591517fa9059cbb000000000000000000000000000000000000000000000000000000008152600481019290925260248201839052849163a9059cbb90604401602060405180830381600087803b15801561189b57600080fd5b505af11580156118af573d6000803e3d6000fd5b505050506040513d601f19601f820116820180604052508101906118d39190612806565b5060006118de61160d565b6001600160a01b038616600090815260386020908152604080832080547fffffffffffffffffffffffffffffffff00000000000000000000000000000000166001600160801b0386169081179091556036835281842090845290915290206001015490915060ff166119ac5760408051600180825281830190925260009160208083019080368337019050509050858160008151811061198057611980612828565b60200260200101906001600160a01b031690816001600160a01b0316815250506119aa818361206a565b505b6001600160a01b0385166000908152603660205260408120816119d084600161283e565b6001600160801b031681526020810191909152604090810160002090516370a0823160e01b81523060048201529091506001600160a01b038416906370a082319060240160206040518083038186803b158015611a2c57600080fd5b505afa158015611a40573d6000803e3d6000fd5b505050506040513d601f19601f82011682018060405250810190611a6491906127af565b81556001808201805460ff1916821790556001600160a01b038087166000908152603760209081526040808320938b16835292905290812080549092611aa991612869565b9050836001600160801b0316828281548110611ac757611ac7612828565b60009182526020909120600390910201546001600160801b03161015611c8c57816040518060800160405280866001600160801b03168152602001670de0b6b3a76400006001600160801b03168152602001603560008b6001600160a01b03166001600160a01b0316815260200190815260200160002060008c6001600160a01b03166001600160a01b031681526020019081526020016000205481526020016000815250908060018154018082558091505060019003906000526020600020906003020160009091909190915060008201518160000160006101000a8154816001600160801b0302191690836001600160801b0316021790555060208201518160000160106101000a8154816001600160801b0302191690836001600160801b0316021790555060408201518160010155606082015181600201555050611c5a86603660008b6001600160a01b03166001600160a01b031681526020019081526020016000206000876001600160801b031681526020019081526020016000206000015461246d90919063ffffffff16565b6001600160a01b03891660009081526036602090815260408083206001600160801b038916845290915290205561200f565b836001600160801b0316828281548110611ca857611ca8612828565b60009182526020909120600390910201546001600160801b03161415611daf576001600160a01b038088166000908152603560209081526040808320938c16835292905220548254839083908110611d0257611d02612828565b9060005260206000209060030201600101819055506000828281548110611d2b57611d2b612828565b906000526020600020906003020160020181905550670de0b6b3a7640000828281548110611d5b57611d5b612828565b60009182526020808320600390920290910180546001600160801b03948516600160801b029085161790556001600160a01b038b16825260368152604080832093881683529290522054611c5a908761246d565b600082611dbd600184612869565b81548110611dcd57611dcd612828565b6000918252602080832060408051608081018252600390940290910180546001600160801b038082168652600160801b9091041692840192909252600182015490830152600281015460608301529250611e2690612479565b90508160020154881015611eba576000611e6a8360020154610416670de0b6b3a76400006001600160801b031661046687600101548761246d90919063ffffffff16565b6002840154909150611e7c908a61246d565b600284018190556001840154611e9c91670de0b6b3a764000090846103f4565b83546001600160801b03918216600160801b02911617835550611f13565b611edf611ed483600201548a61246d90919063ffffffff16565b60018401549061246d565b60018301556000600283015581546001600160801b0316770de0b6b3a7640000000000000000000000000000000000001782555b6040805160808101825283546001600160801b038082168352600160801b90910416602082015260018401549181019190915260028301546060820152600090611f5c90612479565b9050611f9e611f6b838361246d565b6001600160a01b038d1660009081526036602090815260408083206001600160801b038d1684529091529020549061246d565b6001600160a01b03808d1660008181526036602090815260408083206001600160801b038e168452825280832095909555928e16815260358352838120918152915220548554869086908110611ff657611ff6612828565b9060005260206000209060030201600101819055505050505b876001600160a01b0316876001600160a01b03167f9b1bfa7fa9ee420a16e124f794c35ac9f90472acc99140eb2f6447c714cad8eb8860405161205491815260200190565b60405180910390a3505060018055505050505050565b61207261160d565b6001600160801b0316816001600160801b031611156120d35760405162461bcd60e51b815260206004820152601960248201527f63616e277420696e69742061206675747572652065706f6368000000000000006044820152606401610528565b60005b825181101561233c576000603660008584815181106120f7576120f7612828565b6020908102919091018101516001600160a01b0316825281810192909252604090810160009081206001600160801b038716808352935220915061214e57600081556001808201805460ff19169091179055612329565b6121a084838151811061216357612163612828565b6020908102919091018101516001600160a01b031660009081526036825260408082206001600160801b0388168352909252206001015460ff1690565b156122135760405162461bcd60e51b815260206004820152602260248201527f5374616b696e673a2065706f636820616c726561647920696e697469616c697a60448201527f65640000000000000000000000000000000000000000000000000000000000006064820152608401610528565b61223d84838151811061222857612228612828565b60200260200101516001856101fc91906127de565b6122af5760405162461bcd60e51b815260206004820152602760248201527f5374616b696e673a2070726576696f75732065706f6368206e6f7420696e697460448201527f69616c697a6564000000000000000000000000000000000000000000000000006064820152608401610528565b603660008584815181106122c5576122c5612828565b60200260200101516001600160a01b03166001600160a01b0316815260200190815260200160002060006001856122fc91906127de565b6001600160801b0316815260208101919091526040016000205481556001808201805460ff191690911790555b5080612334816128d9565b9150506120d6565b50806001600160801b0316336001600160a01b03167fb85c32b8d9cecc81feba78646289584a693e9a8afea40ab2fd31efae4408429f8460405161238091906128f4565b60405180910390a35050565b61239461160d565b6001600160801b0316816001600160801b031611156123f55760405162461bcd60e51b815260206004820152601960248201527f63616e277420696e69742061206675747572652065706f6368000000000000006044820152606401610528565b815b816001600160801b0316816001600160801b03161161085b5761241a848261206a565b8061242481612941565b9150506123f7565b600061160682846128ba565b60006116068284612898565b60006116068284612880565b60006103ee8260600151836040015161244490919063ffffffff16565b60006116068284612869565b60006103ee670de0b6b3a76400006001600160801b031661041684602001516001600160801b031661046686612450565b80356001600160a01b03811681146124c157600080fd5b919050565b80356001600160801b03811681146124c157600080fd5b600080604083850312156124f057600080fd5b6124f9836124aa565b9150612507602084016124c6565b90509250929050565b6000806000806080858703121561252657600080fd5b84359350612536602086016124c6565b92506040850135915061254b606086016124c6565b905092959194509250565b60006020828403121561256857600080fd5b611606826124aa565b60008060006060848603121561258657600080fd5b61258f846124aa565b95602085013595506040909401359392505050565b6000806000606084860312156125b957600080fd5b6125c2846124aa565b92506125d0602085016124aa565b9150604084013590509250925092565b6000806000606084860312156125f557600080fd5b6125fe846124aa565b925061260c602085016124aa565b915061261a604085016124c6565b90509250925092565b634e487b7160e01b600052604160045260246000fd5b600082601f83011261264a57600080fd5b8135602067ffffffffffffffff8083111561266757612667612623565b8260051b6040517fffffffffffffffffffffffffffffffffffffffffffffffffffffffffffffffe0603f830116810181811084821117156126aa576126aa612623565b6040529384528581018301938381019250878511156126c857600080fd5b83870191505b848210156126ee576126df826124aa565b835291830191908301906126ce565b979650505050505050565b6000806040838503121561270c57600080fd5b823567ffffffffffffffff81111561272357600080fd5b61272f85828601612639565b925050612507602084016124c6565b60008060006060848603121561275357600080fd5b833567ffffffffffffffff81111561276a57600080fd5b61277686828701612639565b93505061260c602085016124c6565b6000806040838503121561279857600080fd5b6127a1836124aa565b9150612507602084016124aa565b6000602082840312156127c157600080fd5b5051919050565b634e487b7160e01b600052601160045260246000fd5b60006001600160801b03838116908316818110156127fe576127fe6127c8565b039392505050565b60006020828403121561281857600080fd5b8151801515811461160657600080fd5b634e487b7160e01b600052603260045260246000fd5b60006001600160801b03808316818516808303821115612860576128606127c8565b01949350505050565b60008282101561287b5761287b6127c8565b500390565b60008219821115612893576128936127c8565b500190565b6000826128b557634e487b7160e01b600052601260045260246000fd5b500490565b60008160001904831182151516156128d4576128d46127c8565b500290565b60006000198214156128ed576128ed6127c8565b5060010190565b6020808252825182820181905260009190848201906040850190845b818110156129355783516001600160a01b031683529284019291840191600101612910565b50909695505050505050565b60006001600160801b038083168181141561295e5761295e6127c8565b600101939250505056fea2646970667358221220c538e6c40e6185e7f3318c823a2664b326e50c72d4d99be3515d8e63c712faee64736f6c63430008090033",
  "immutableReferences": {},
  "source": "// SPDX-License-Identifier: Apache-2.0\npragma solidity ^0.8.4;\n\nimport \"./../@openzeppelin/contracts/token/ERC20/IERC20.sol\";\n// import \"@openzeppelin/contracts/math/SafeMath.sol\";\nimport './../@openzeppelin/contracts/utils/math/SafeMath.sol';\n// import \"@openzeppelin/contracts/utils/ReentrancyGuard.sol\";\nimport './../@openzeppelin/contracts-upgradeable/security/ReentrancyGuardUpgradeable.sol';\nimport \"./../@openzeppelin/contracts-upgradeable/proxy/utils/Initializable.sol\";\n\n\ncontract Staking1 is Initializable, ReentrancyGuardUpgradeable {\n    using SafeMath for uint256;\n\n    uint128 constant private BASE_MULTIPLIER = uint128(1 * 10 ** 18);\n\n    // timestamp for the epoch 1\n    // everything before that is considered epoch 0 which won't have a reward but allows for the initial stake\n    uint256 public epoch1Start;\n\n    // duration of each epoch\n    uint256 public epochDuration;\n\n    // holds the current balance of the user for each token\n    mapping(address => mapping(address => uint256)) private balances;\n\n    struct Pool {\n        uint256 size;\n        bool set;\n    }\n\n    // for each token, we store the total pool size\n    mapping(address => mapping(uint256 => Pool)) private poolSize;\n\n    // a checkpoint of the valid balance of a user for an epoch\n    struct Checkpoint {\n        uint128 epochId;\n        uint128 multiplier;\n        uint256 startBalance;\n        uint256 newDeposits;\n    }\n\n    // balanceCheckpoints[user][token][]\n    mapping(address => mapping(address => Checkpoint[])) private balanceCheckpoints;\n\n    mapping(address => uint128) private lastWithdrawEpochId;\n\n    event Deposit(address indexed user, address indexed tokenAddress, uint256 amount);\n    event Withdraw(address indexed user, address indexed tokenAddress, uint256 amount);\n    event ManualEpochInit(address indexed caller, uint128 indexed epochId, address[] tokens);\n    event EmergencyWithdraw(address indexed user, address indexed tokenAddress, uint256 amount);\n\n    address guardianAddress;\n    mapping(address => bool) isApproved;\n\n    function initialize(address _guardianAddress, uint256 _epoch1Start, uint256 _epochDuration) public initializer {\n        guardianAddress = _guardianAddress;\n        epoch1Start = _epoch1Start;\n        epochDuration = _epochDuration;\n    }\n\n    // TODO: set up stuff to connect this to the bHome token\n\n    function approveAccess(address addr) public{\n        require(msg.sender == guardianAddress, \"caller must be guardian\");\n        isApproved[addr] = true;\n    }\n\n    function revokeAccess(address addr) public{\n        require(msg.sender == guardianAddress, \"caller must be guardian\");\n        isApproved[addr] = false;\n    }\n\n    /*\n     * Stores `amount` of `tokenAddress` tokens for the `user` into the vault\n     */\n    function deposit(address tokenAddress, address wallet, uint256 amount) public nonReentrant {\n        require(isApproved[msg.sender], \"Caller must be an approved\");\n        require(amount > 0, \"Staking: Amount must be > 0\");\n\n        IERC20 token = IERC20(tokenAddress);\n        // Scoping this so we don't run out of stack space <sigh>\n        {\n            // TODO: does it make sense to do this allowance thing if we are the ones doing the transfer? Probably not...\n            // uint256 allowance = token.allowance(wallet, address(this));\n            // require(allowance >= amount, \"Staking: Token allowance too small\");\n\n            balances[wallet][tokenAddress] = balances[wallet][tokenAddress].add(amount);\n\n            // token.transferFrom(wallet, address(this), amount);\n        }\n\n        // epoch logic\n        uint128 currentEpoch = getCurrentEpoch();\n        uint128 currentMultiplier = currentEpochMultiplier();\n\n        if (!epochIsInitialized(tokenAddress, currentEpoch)) {\n            address[] memory tokens = new address[](1);\n            tokens[0] = tokenAddress;\n            manualEpochInit(tokens, currentEpoch);\n        }\n\n        // update the next epoch pool size\n        Pool storage pNextEpoch = poolSize[tokenAddress][currentEpoch + 1];\n        pNextEpoch.size = token.balanceOf(address(this));\n        pNextEpoch.set = true;\n\n        Checkpoint[] storage checkpoints = balanceCheckpoints[wallet][tokenAddress];\n\n        uint256 balanceBefore = getEpochUserBalance(wallet, tokenAddress, currentEpoch);\n\n        // if there's no checkpoint yet, it means the user didn't have any activity\n        // we want to store checkpoints both for the current epoch and next epoch because\n        // if a user does a withdraw, the current epoch can also be modified and\n        // we don't want to insert another checkpoint in the middle of the array as that could be expensive\n        if (checkpoints.length == 0) {\n            checkpoints.push(Checkpoint(currentEpoch, currentMultiplier, 0, amount));\n\n            // next epoch => multiplier is 1, epoch deposits is 0\n            checkpoints.push(Checkpoint(currentEpoch + 1, BASE_MULTIPLIER, amount, 0));\n        } else {\n            uint256 last = checkpoints.length - 1;\n\n            // the last action happened in an older epoch (e.g. a deposit in epoch 3, current epoch is >=5)\n            if (checkpoints[last].epochId < currentEpoch) {\n                uint128 multiplier = computeNewMultiplier(\n                    getCheckpointBalance(checkpoints[last]),\n                    BASE_MULTIPLIER,\n                    amount,\n                    currentMultiplier\n                );\n                checkpoints.push(Checkpoint(currentEpoch, multiplier, getCheckpointBalance(checkpoints[last]), amount));\n                checkpoints.push(Checkpoint(currentEpoch + 1, BASE_MULTIPLIER, balances[wallet][tokenAddress], 0));\n            }\n            // the last action happened in the previous epoch\n            else if (checkpoints[last].epochId == currentEpoch) {\n                checkpoints[last].multiplier = computeNewMultiplier(\n                    getCheckpointBalance(checkpoints[last]),\n                    checkpoints[last].multiplier,\n                    amount,\n                    currentMultiplier\n                );\n                checkpoints[last].newDeposits = checkpoints[last].newDeposits.add(amount);\n\n                checkpoints.push(Checkpoint(currentEpoch + 1, BASE_MULTIPLIER, balances[wallet][tokenAddress], 0));\n            }\n            // the last action happened in the current epoch\n            else {\n                if (last >= 1 && checkpoints[last - 1].epochId == currentEpoch) {\n                    checkpoints[last - 1].multiplier = computeNewMultiplier(\n                        getCheckpointBalance(checkpoints[last - 1]),\n                        checkpoints[last - 1].multiplier,\n                        amount,\n                        currentMultiplier\n                    );\n                    checkpoints[last - 1].newDeposits = checkpoints[last - 1].newDeposits.add(amount);\n                }\n\n                checkpoints[last].startBalance = balances[wallet][tokenAddress];\n            }\n        }\n\n        uint256 balanceAfter = getEpochUserBalance(wallet, tokenAddress, currentEpoch);\n\n        poolSize[tokenAddress][currentEpoch].size = poolSize[tokenAddress][currentEpoch].size.add(balanceAfter.sub(balanceBefore));\n\n        emit Deposit(wallet, tokenAddress, amount);\n    }\n\n    /*\n     * Removes the deposit of the user and sends the amount of `tokenAddress` back to the `user`\n     */\n    function withdraw(address tokenAddress, address wallet, uint256 amount) public nonReentrant {\n        require(isApproved[msg.sender], \"Caller must be an approved\");\n        require(balances[wallet][tokenAddress] >= amount, \"Staking: balance too small\");\n\n        balances[wallet][tokenAddress] = balances[wallet][tokenAddress].sub(amount);\n\n        IERC20 token = IERC20(tokenAddress);\n        token.transfer(wallet, amount);\n\n        // epoch logic\n        uint128 currentEpoch = getCurrentEpoch();\n\n        lastWithdrawEpochId[tokenAddress] = currentEpoch;\n\n        if (!epochIsInitialized(tokenAddress, currentEpoch)) {\n            address[] memory tokens = new address[](1);\n            tokens[0] = tokenAddress;\n            manualEpochInit(tokens, currentEpoch);\n        }\n\n        // update the pool size of the next epoch to its current balance\n        Pool storage pNextEpoch = poolSize[tokenAddress][currentEpoch + 1];\n        pNextEpoch.size = token.balanceOf(address(this));\n        pNextEpoch.set = true;\n\n        Checkpoint[] storage checkpoints = balanceCheckpoints[wallet][tokenAddress];\n        uint256 last = checkpoints.length - 1;\n\n        // note: it's impossible to have a withdraw and no checkpoints because the balance would be 0 and revert\n\n        // there was a deposit in an older epoch (more than 1 behind [eg: previous 0, now 5]) but no other action since then\n        if (checkpoints[last].epochId < currentEpoch) {\n            checkpoints.push(Checkpoint(currentEpoch, BASE_MULTIPLIER, balances[wallet][tokenAddress], 0));\n\n            poolSize[tokenAddress][currentEpoch].size = poolSize[tokenAddress][currentEpoch].size.sub(amount);\n        }\n        // there was a deposit in the `epochId - 1` epoch => we have a checkpoint for the current epoch\n        else if (checkpoints[last].epochId == currentEpoch) {\n            checkpoints[last].startBalance = balances[wallet][tokenAddress];\n            checkpoints[last].newDeposits = 0;\n            checkpoints[last].multiplier = BASE_MULTIPLIER;\n\n            poolSize[tokenAddress][currentEpoch].size = poolSize[tokenAddress][currentEpoch].size.sub(amount);\n        }\n        // there was a deposit in the current epoch\n        else {\n            Checkpoint storage currentEpochCheckpoint = checkpoints[last - 1];\n\n            uint256 balanceBefore = getCheckpointEffectiveBalance(currentEpochCheckpoint);\n\n            // in case of withdraw, we have 2 branches:\n            // 1. the user withdraws less than he added in the current epoch\n            // 2. the user withdraws more than he added in the current epoch (including 0)\n            if (amount < currentEpochCheckpoint.newDeposits) {\n                uint128 avgDepositMultiplier = uint128(\n                    balanceBefore.sub(currentEpochCheckpoint.startBalance).mul(BASE_MULTIPLIER).div(currentEpochCheckpoint.newDeposits)\n                );\n\n                currentEpochCheckpoint.newDeposits = currentEpochCheckpoint.newDeposits.sub(amount);\n\n                currentEpochCheckpoint.multiplier = computeNewMultiplier(\n                    currentEpochCheckpoint.startBalance,\n                    BASE_MULTIPLIER,\n                    currentEpochCheckpoint.newDeposits,\n                    avgDepositMultiplier\n                );\n            } else {\n                currentEpochCheckpoint.startBalance = currentEpochCheckpoint.startBalance.sub(\n                    amount.sub(currentEpochCheckpoint.newDeposits)\n                );\n                currentEpochCheckpoint.newDeposits = 0;\n                currentEpochCheckpoint.multiplier = BASE_MULTIPLIER;\n            }\n\n            uint256 balanceAfter = getCheckpointEffectiveBalance(currentEpochCheckpoint);\n\n            poolSize[tokenAddress][currentEpoch].size = poolSize[tokenAddress][currentEpoch].size.sub(balanceBefore.sub(balanceAfter));\n\n            checkpoints[last].startBalance = balances[wallet][tokenAddress];\n        }\n\n        emit Withdraw(wallet, tokenAddress, amount);\n    }\n\n    /*\n     * manualEpochInit can be used by anyone to initialize an epoch based on the previous one\n     * This is only applicable if there was no action (deposit/withdraw) in the current epoch.\n     * Any deposit and withdraw will automatically initialize the current and next epoch.\n     */\n    function manualEpochInit(address[] memory tokens, uint128 epochId) public {\n        require(epochId <= getCurrentEpoch(), \"can't init a future epoch\");\n\n        for (uint i = 0; i < tokens.length; i++) {\n            Pool storage p = poolSize[tokens[i]][epochId];\n\n            if (epochId == 0) {\n                p.size = uint256(0);\n                p.set = true;\n            } else {\n                require(!epochIsInitialized(tokens[i], epochId), \"Staking: epoch already initialized\");\n                require(epochIsInitialized(tokens[i], epochId - 1), \"Staking: previous epoch not initialized\");\n\n                p.size = poolSize[tokens[i]][epochId - 1].size;\n                p.set = true;\n            }\n        }\n\n        emit ManualEpochInit(msg.sender, epochId, tokens);\n    }\n\n    /* helpful function for testnets where the epoch is often not inited by users */\n    function manualBatchEpochInit(address[] memory tokens, uint128 startingEpochId, uint128 endingEpochId) public {\n        require(endingEpochId <= getCurrentEpoch(), \"can't init a future epoch\");\n        for (uint128 i = startingEpochId; i <= endingEpochId; i++) {\n            manualEpochInit(tokens, i);\n        }\n    }\n\n    function emergencyWithdraw(address tokenAddress) public {\n        require((getCurrentEpoch() - lastWithdrawEpochId[tokenAddress]) >= 10, \"At least 10 epochs must pass without success\");\n\n        uint256 totalUserBalance = balances[msg.sender][tokenAddress];\n        require(totalUserBalance > 0, \"Amount must be > 0\");\n\n        balances[msg.sender][tokenAddress] = 0;\n\n        IERC20 token = IERC20(tokenAddress);\n        token.transfer(msg.sender, totalUserBalance);\n\n        emit EmergencyWithdraw(msg.sender, tokenAddress, totalUserBalance);\n    }\n\n    /*\n     * Returns the valid balance of a user that was taken into consideration in the total pool size for the epoch\n     * A deposit will only change the next epoch balance.\n     * A withdraw will decrease the current epoch (and subsequent) balance.\n     */\n    function getEpochUserBalance(address user, address token, uint128 epochId) public view returns (uint256) {\n        Checkpoint[] storage checkpoints = balanceCheckpoints[user][token];\n\n        // if there are no checkpoints, it means the user never deposited any tokens, so the balance is 0\n        if (checkpoints.length == 0 || epochId < checkpoints[0].epochId) {\n            return 0;\n        }\n\n        uint min = 0;\n        uint max = checkpoints.length - 1;\n\n        // shortcut for blocks newer than the latest checkpoint == current balance\n        if (epochId >= checkpoints[max].epochId) {\n            return getCheckpointEffectiveBalance(checkpoints[max]);\n        }\n\n        // binary search of the value in the array\n        while (max > min) {\n            uint mid = (max + min + 1) / 2;\n            if (checkpoints[mid].epochId <= epochId) {\n                min = mid;\n            } else {\n                max = mid - 1;\n            }\n        }\n\n        return getCheckpointEffectiveBalance(checkpoints[min]);\n    }\n\n    /*\n     * Returns the amount of `token` that the `user` has currently staked\n     */\n    function balanceOf(address user, address token) public view returns (uint256) {\n        return balances[user][token];\n    }\n\n    /*\n     * Returns the id of the current epoch derived from block.timestamp\n     */\n    function getCurrentEpoch() public view returns (uint128) {\n        if (block.timestamp < epoch1Start) {\n            return 0;\n        }\n\n        return uint128((block.timestamp - epoch1Start) / epochDuration + 1);\n    }\n\n    /*\n     * Returns the total amount of `tokenAddress` that was locked from beginning to end of epoch identified by `epochId`\n     */\n    function getEpochPoolSize(address tokenAddress, uint128 epochId) public view returns (uint256) {\n        // Premises:\n        // 1. it's impossible to have gaps of uninitialized epochs\n        // - any deposit or withdraw initialize the current epoch which requires the previous one to be initialized\n        if (epochIsInitialized(tokenAddress, epochId)) {\n            return poolSize[tokenAddress][epochId].size;\n        }\n\n        // epochId not initialized and epoch 0 not initialized => there was never any action on this pool\n        if (!epochIsInitialized(tokenAddress, 0)) {\n            return 0;\n        }\n\n        // epoch 0 is initialized => there was an action at some point but none that initialized the epochId\n        // which means the current pool size is equal to the current balance of token held by the staking contract\n        IERC20 token = IERC20(tokenAddress);\n        return token.balanceOf(address(this));\n    }\n\n    /*\n     * Returns the percentage of time left in the current epoch\n     */\n    function currentEpochMultiplier() public view returns (uint128) {\n        uint128 currentEpoch = getCurrentEpoch();\n        uint256 currentEpochEnd = epoch1Start + currentEpoch * epochDuration;\n        uint256 timeLeft = currentEpochEnd - block.timestamp;\n        uint128 multiplier = uint128(timeLeft * BASE_MULTIPLIER / epochDuration);\n\n        return multiplier;\n    }\n\n    function computeNewMultiplier(uint256 prevBalance, uint128 prevMultiplier, uint256 amount, uint128 currentMultiplier) public pure returns (uint128) {\n        uint256 prevAmount = prevBalance.mul(prevMultiplier).div(BASE_MULTIPLIER);\n        uint256 addAmount = amount.mul(currentMultiplier).div(BASE_MULTIPLIER);\n        uint128 newMultiplier = uint128(prevAmount.add(addAmount).mul(BASE_MULTIPLIER).div(prevBalance.add(amount)));\n\n        return newMultiplier;\n    }\n\n    /*\n     * Checks if an epoch is initialized, meaning we have a pool size set for it\n     */\n    function epochIsInitialized(address token, uint128 epochId) public view returns (bool) {\n        return poolSize[token][epochId].set;\n    }\n\n    function getCheckpointBalance(Checkpoint memory c) internal pure returns (uint256) {\n        return c.startBalance.add(c.newDeposits);\n    }\n\n    function getCheckpointEffectiveBalance(Checkpoint memory c) internal pure returns (uint256) {\n        return getCheckpointBalance(c).mul(c.multiplier).div(BASE_MULTIPLIER);\n    }\n}\n\n",
  "sourcePath": "/Users/patrick/github/HomeDAO/contracts/Staking/Staking1.sol",
  "compiler": {
    "name": "solc",
    "version": "0.8.9+commit.e5eed63a.Emscripten.clang"
  },
  "schemaVersion": "3.4.8",
  "updatedAt": "2022-08-10T01:41:50.309Z",
  "devdoc": {
    "kind": "dev",
    "methods": {},
    "version": 1
  },
  "userdoc": {
    "kind": "user",
    "methods": {},
    "version": 1
  }
}