{
  "contractName": "Staking0",
  "abi": [
    {
      "anonymous": false,
      "inputs": [
        {
          "indexed": true,
          "internalType": "address",
          "name": "user",
          "type": "address"
        },
        {
          "indexed": true,
          "internalType": "address",
          "name": "tokenAddress",
          "type": "address"
        },
        {
          "indexed": false,
          "internalType": "uint256",
          "name": "amount",
          "type": "uint256"
        }
      ],
      "name": "Deposit",
      "type": "event"
    },
    {
      "anonymous": false,
      "inputs": [
        {
          "indexed": true,
          "internalType": "address",
          "name": "user",
          "type": "address"
        },
        {
          "indexed": true,
          "internalType": "address",
          "name": "tokenAddress",
          "type": "address"
        },
        {
          "indexed": false,
          "internalType": "uint256",
          "name": "amount",
          "type": "uint256"
        }
      ],
      "name": "EmergencyWithdraw",
      "type": "event"
    },
    {
      "anonymous": false,
      "inputs": [
        {
          "indexed": true,
          "internalType": "address",
          "name": "caller",
          "type": "address"
        },
        {
          "indexed": true,
          "internalType": "uint128",
          "name": "epochId",
          "type": "uint128"
        },
        {
          "indexed": false,
          "internalType": "address[]",
          "name": "tokens",
          "type": "address[]"
        }
      ],
      "name": "ManualEpochInit",
      "type": "event"
    },
    {
      "anonymous": false,
      "inputs": [
        {
          "indexed": true,
          "internalType": "address",
          "name": "user",
          "type": "address"
        },
        {
          "indexed": true,
          "internalType": "address",
          "name": "tokenAddress",
          "type": "address"
        },
        {
          "indexed": false,
          "internalType": "uint256",
          "name": "amount",
          "type": "uint256"
        }
      ],
      "name": "Withdraw",
      "type": "event"
    },
    {
      "inputs": [],
      "name": "epoch1Start",
      "outputs": [
        {
          "internalType": "uint256",
          "name": "",
          "type": "uint256"
        }
      ],
      "stateMutability": "view",
      "type": "function",
      "constant": true
    },
    {
      "inputs": [],
      "name": "epochDuration",
      "outputs": [
        {
          "internalType": "uint256",
          "name": "",
          "type": "uint256"
        }
      ],
      "stateMutability": "view",
      "type": "function",
      "constant": true
    },
    {
      "inputs": [
        {
          "internalType": "address",
          "name": "_guardianAddress",
          "type": "address"
        },
        {
          "internalType": "uint256",
          "name": "_epoch1Start",
          "type": "uint256"
        },
        {
          "internalType": "uint256",
          "name": "_epochDuration",
          "type": "uint256"
        }
      ],
      "name": "initialize",
      "outputs": [],
      "stateMutability": "nonpayable",
      "type": "function"
    },
    {
      "inputs": [
        {
          "internalType": "address",
          "name": "addr",
          "type": "address"
        }
      ],
      "name": "approveAccess",
      "outputs": [],
      "stateMutability": "nonpayable",
      "type": "function"
    },
    {
      "inputs": [
        {
          "internalType": "address",
          "name": "addr",
          "type": "address"
        }
      ],
      "name": "revokeAccess",
      "outputs": [],
      "stateMutability": "nonpayable",
      "type": "function"
    },
    {
      "inputs": [
        {
          "internalType": "address",
          "name": "tokenAddress",
          "type": "address"
        },
        {
          "internalType": "address",
          "name": "wallet",
          "type": "address"
        },
        {
          "internalType": "uint256",
          "name": "amount",
          "type": "uint256"
        }
      ],
      "name": "deposit",
      "outputs": [],
      "stateMutability": "nonpayable",
      "type": "function"
    },
    {
      "inputs": [
        {
          "internalType": "address",
          "name": "tokenAddress",
          "type": "address"
        },
        {
          "internalType": "address",
          "name": "wallet",
          "type": "address"
        },
        {
          "internalType": "uint256",
          "name": "amount",
          "type": "uint256"
        }
      ],
      "name": "withdraw",
      "outputs": [],
      "stateMutability": "nonpayable",
      "type": "function"
    },
    {
      "inputs": [
        {
          "internalType": "address[]",
          "name": "tokens",
          "type": "address[]"
        },
        {
          "internalType": "uint128",
          "name": "epochId",
          "type": "uint128"
        }
      ],
      "name": "manualEpochInit",
      "outputs": [],
      "stateMutability": "nonpayable",
      "type": "function"
    },
    {
      "inputs": [
        {
          "internalType": "address",
          "name": "tokenAddress",
          "type": "address"
        }
      ],
      "name": "emergencyWithdraw",
      "outputs": [],
      "stateMutability": "nonpayable",
      "type": "function"
    },
    {
      "inputs": [
        {
          "internalType": "address",
          "name": "user",
          "type": "address"
        },
        {
          "internalType": "address",
          "name": "token",
          "type": "address"
        },
        {
          "internalType": "uint128",
          "name": "epochId",
          "type": "uint128"
        }
      ],
      "name": "getEpochUserBalance",
      "outputs": [
        {
          "internalType": "uint256",
          "name": "",
          "type": "uint256"
        }
      ],
      "stateMutability": "view",
      "type": "function",
      "constant": true
    },
    {
      "inputs": [
        {
          "internalType": "address",
          "name": "user",
          "type": "address"
        },
        {
          "internalType": "address",
          "name": "token",
          "type": "address"
        }
      ],
      "name": "balanceOf",
      "outputs": [
        {
          "internalType": "uint256",
          "name": "",
          "type": "uint256"
        }
      ],
      "stateMutability": "view",
      "type": "function",
      "constant": true
    },
    {
      "inputs": [],
      "name": "getCurrentEpoch",
      "outputs": [
        {
          "internalType": "uint128",
          "name": "",
          "type": "uint128"
        }
      ],
      "stateMutability": "view",
      "type": "function",
      "constant": true
    },
    {
      "inputs": [
        {
          "internalType": "address",
          "name": "tokenAddress",
          "type": "address"
        },
        {
          "internalType": "uint128",
          "name": "epochId",
          "type": "uint128"
        }
      ],
      "name": "getEpochPoolSize",
      "outputs": [
        {
          "internalType": "uint256",
          "name": "",
          "type": "uint256"
        }
      ],
      "stateMutability": "view",
      "type": "function",
      "constant": true
    },
    {
      "inputs": [],
      "name": "currentEpochMultiplier",
      "outputs": [
        {
          "internalType": "uint128",
          "name": "",
          "type": "uint128"
        }
      ],
      "stateMutability": "view",
      "type": "function",
      "constant": true
    },
    {
      "inputs": [
        {
          "internalType": "uint256",
          "name": "prevBalance",
          "type": "uint256"
        },
        {
          "internalType": "uint128",
          "name": "prevMultiplier",
          "type": "uint128"
        },
        {
          "internalType": "uint256",
          "name": "amount",
          "type": "uint256"
        },
        {
          "internalType": "uint128",
          "name": "currentMultiplier",
          "type": "uint128"
        }
      ],
      "name": "computeNewMultiplier",
      "outputs": [
        {
          "internalType": "uint128",
          "name": "",
          "type": "uint128"
        }
      ],
      "stateMutability": "pure",
      "type": "function",
      "constant": true
    },
    {
      "inputs": [
        {
          "internalType": "address",
          "name": "token",
          "type": "address"
        },
        {
          "internalType": "uint128",
          "name": "epochId",
          "type": "uint128"
        }
      ],
      "name": "epochIsInitialized",
      "outputs": [
        {
          "internalType": "bool",
          "name": "",
          "type": "bool"
        }
      ],
      "stateMutability": "view",
      "type": "function",
      "constant": true
    }
  ],
  "bytecode": "0x608060405234801561001057600080fd5b50612852806100206000396000f3fe608060405234801561001057600080fd5b50600436106101005760003560e01c80638c028dd011610097578063d9caed1211610066578063d9caed121461023a578063ea2c38ae1461024d578063f4a4341d14610260578063f7888aec1461026957600080fd5b80638c028dd0146101c0578063aa579154146101d3578063b97dd9e21461022a578063ce58a2a81461023257600080fd5b8063705211f4116100d3578063705211f4146101745780637a1ac61e146101875780638340f5491461019a57806385e68531146101ad57600080fd5b80632ca32d7e146101055780634be41dba1461012b5780634ff0876a146101565780636ff1c9bc1461015f575b600080fd5b61011861011336600461240f565b6102a2565b6040519081526020015b60405180910390f35b61013e610139366004612442565b6103c6565b6040516001600160801b039091168152602001610122565b61011860345481565b61017261016d366004612488565b61044a565b005b610172610182366004612488565b610673565b6101726101953660046124a3565b6106f1565b6101726101a83660046124d6565b610833565b6101726101bb366004612488565b61138c565b6101186101ce366004612512565b611407565b61021a6101e136600461240f565b6001600160a01b03821660009081526036602090815260408083206001600160801b038516845290915290206001015460ff1692915050565b6040519015158152602001610122565b61013e6115df565b61013e61161b565b6101726102483660046124d6565b61168a565b61017261025b36600461256b565b61203c565b61011860335481565b610118610277366004612660565b6001600160a01b03918216600090815260356020908152604080832093909416825291909152205490565b6001600160a01b03821660009081526036602090815260408083206001600160801b038516845290915281206001015460ff161561030d57506001600160a01b03821660009081526036602090815260408083206001600160801b03851684529091529020546103c0565b6001600160a01b038316600090815260366020908152604080832083805290915290206001015460ff16610343575060006103c0565b6040516370a0823160e01b815230600482015283906001600160a01b038216906370a082319060240160206040518083038186803b15801561038457600080fd5b505afa158015610398573d6000803e3d6000fd5b505050506040513d601f19601f820116820180604052508101906103bc919061268a565b9150505b92915050565b6000806103ee670de0b6b3a76400006103e8886001600160801b03891661235e565b9061236a565b90506000610411670de0b6b3a76400006103e8876001600160801b03881661235e565b9050600061043e6104228988612376565b6103e8670de0b6b3a76400006104388787612376565b9061235e565b98975050505050505050565b6001600160a01b038116600090815260386020526040902054600a906001600160801b03166104776115df565b61048191906126b9565b6001600160801b031610156105035760405162461bcd60e51b815260206004820152602c60248201527f4174206c656173742031302065706f636873206d75737420706173732077697460448201527f686f75742073756363657373000000000000000000000000000000000000000060648201526084015b60405180910390fd5b3360009081526035602090815260408083206001600160a01b0385168452909152902054806105745760405162461bcd60e51b815260206004820152601260248201527f416d6f756e74206d757374206265203e2030000000000000000000000000000060448201526064016104fa565b3360008181526035602090815260408083206001600160a01b03871680855292528083209290925590517fa9059cbb000000000000000000000000000000000000000000000000000000008152600481019290925260248201839052839163a9059cbb90604401602060405180830381600087803b1580156105f557600080fd5b505af1158015610609573d6000803e3d6000fd5b505050506040513d601f19601f8201168201806040525081019061062d91906126e1565b506040518281526001600160a01b0384169033907ff24ef89f38eadc1bde50701ad6e4d6d11a2dc24f7cf834a486991f38833285049060200160405180910390a3505050565b6039546001600160a01b031633146106cd5760405162461bcd60e51b815260206004820152601760248201527f63616c6c6572206d75737420626520677561726469616e00000000000000000060448201526064016104fa565b6001600160a01b03166000908152603a60205260409020805460ff19166001179055565b600054610100900460ff1661070c5760005460ff1615610710565b303b155b6107825760405162461bcd60e51b815260206004820152602e60248201527f496e697469616c697a61626c653a20636f6e747261637420697320616c72656160448201527f647920696e697469616c697a656400000000000000000000000000000000000060648201526084016104fa565b600054610100900460ff161580156107c157600080547fffffffffffffffffffffffffffffffffffffffffffffffffffffffffffff0000166101011790555b603980547fffffffffffffffffffffffff0000000000000000000000000000000000000000166001600160a01b03861617905560338390556034829055801561082d57600080547fffffffffffffffffffffffffffffffffffffffffffffffffffffffffffff00ff1690555b50505050565b600260015414156108865760405162461bcd60e51b815260206004820152601f60248201527f5265656e7472616e637947756172643a207265656e7472616e742063616c6c0060448201526064016104fa565b6002600155336000908152603a602052604090205460ff166108ea5760405162461bcd60e51b815260206004820152601a60248201527f43616c6c6572206d75737420626520616e20617070726f76656400000000000060448201526064016104fa565b6000811161093a5760405162461bcd60e51b815260206004820152601b60248201527f5374616b696e673a20416d6f756e74206d757374206265203e2030000000000060448201526064016104fa565b6001600160a01b03808316600090815260356020908152604080832093871683529290522054839061096c9083612376565b6001600160a01b03808516600090815260356020908152604080832093891683529290529081209190915561099f6115df565b905060006109ab61161b565b6001600160a01b03871660009081526036602090815260408083206001600160801b038716845290915290206001015490915060ff16610a4757604080516001808252818301909252600091602080830190803683370190505090508681600081518110610a1b57610a1b612703565b60200260200101906001600160a01b031690816001600160a01b031681525050610a45818461203c565b505b6001600160a01b038616600090815260366020526040812081610a6b856001612719565b6001600160801b031681526020810191909152604090810160002090516370a0823160e01b81523060048201529091506001600160a01b038516906370a082319060240160206040518083038186803b158015610ac757600080fd5b505afa158015610adb573d6000803e3d6000fd5b505050506040513d601f19601f82011682018060405250810190610aff919061268a565b81556001808201805460ff191690911790556001600160a01b038087166000908152603760209081526040808320938b16835292905290812090610b44888a87611407565b8254909150610c515760408051608080820183526001600160801b03808916835287811660208085019182526000858701818152606087018f81528a5460018181018d558c855294909320975194518616600160801b0294909516939093176003909102909501948555905184820155905160029093019290925582519081019092528391908190610bd7908990612719565b6001600160801b039081168252670de0b6b3a764000060208084019190915260408084018d905260006060948501819052865460018181018955978252908390208651938701518516600160801b0293909416929092176003909202909201908155908301519381019390935501516002909101556112c6565b8154600090610c6290600190612744565b9050856001600160801b0316838281548110610c8057610c80612703565b60009182526020909120600390910201546001600160801b03161015610ee9576000610d1f610d0f858481548110610cba57610cba612703565b600091825260209182902060408051608081018252600390930290910180546001600160801b038082168552600160801b90910416938301939093526001830154908201526002909101546060820152612382565b670de0b6b3a76400008b896103c6565b9050836040518060800160405280896001600160801b03168152602001836001600160801b03168152602001610d60878681548110610cba57610cba612703565b815260209081018c90528254600181810185556000948552938290208351928401516001600160801b03908116600160801b0293169290921760039091029091019081556040808301518285015560609092015160029091015580516080810190915285918190610dd2908b90612719565b6001600160801b03168152602001670de0b6b3a76400006001600160801b03168152602001603560008e6001600160a01b03166001600160a01b0316815260200190815260200160002060008f6001600160a01b03166001600160a01b031681526020019081526020016000205481526020016000815250908060018154018082558091505060019003906000526020600020906003020160009091909190915060008201518160000160006101000a8154816001600160801b0302191690836001600160801b0316021790555060208201518160000160106101000a8154816001600160801b0302191690836001600160801b0316021790555060408201518160010155606082015181600201555050506112c4565b856001600160801b0316838281548110610f0557610f05612703565b60009182526020909120600390910201546001600160801b0316141561114a57610f77610f3d848381548110610cba57610cba612703565b848381548110610f4f57610f4f612703565b6000918252602090912060039091020154600160801b90046001600160801b03168a886103c6565b838281548110610f8957610f89612703565b906000526020600020906003020160000160106101000a8154816001600160801b0302191690836001600160801b03160217905550610ff488848381548110610fd457610fd4612703565b90600052602060002090600302016002015461237690919063ffffffff16565b83828154811061100657611006612703565b9060005260206000209060030201600201819055508260405180608001604052808860016110349190612719565b6001600160801b03168152602001670de0b6b3a76400006001600160801b03168152602001603560008d6001600160a01b03166001600160a01b0316815260200190815260200160002060008e6001600160a01b03166001600160a01b031681526020019081526020016000205481526020016000815250908060018154018082558091505060019003906000526020600020906003020160009091909190915060008201518160000160006101000a8154816001600160801b0302191690836001600160801b0316021790555060208201518160000160106101000a8154816001600160801b0302191690836001600160801b03160217905550604082015181600101556060820151816002015550506112c4565b6001811015801561119857506001600160801b0386168361116c600184612744565b8154811061117c5761117c612703565b60009182526020909120600390910201546001600160801b0316145b15611274576111db6111bf846111af600185612744565b81548110610cba57610cba612703565b846111cb600185612744565b81548110610f4f57610f4f612703565b836111e7600184612744565b815481106111f7576111f7612703565b6000918252602090912060039091020180546001600160801b03928316600160801b0292169190911790556112428884611232600185612744565b81548110610fd457610fd4612703565b8361124e600184612744565b8154811061125e5761125e612703565b9060005260206000209060030201600201819055505b6001600160a01b03808a166000908152603560209081526040808320938e168352929052205483548490839081106112ae576112ae612703565b9060005260206000209060030201600101819055505b505b60006112d3898b88611407565b90506113156112e2828461239f565b6001600160a01b038c1660009081526036602090815260408083206001600160801b038c16845290915290205490612376565b6001600160a01b038b811660008181526036602090815260408083206001600160801b038d16845282529182902094909455518b81529092918c16917f5548c837ab068cf56a2c2479df0882a4922fd203edb7517321831d95078c5f62910160405180910390a35050600180555050505050505050565b6039546001600160a01b031633146113e65760405162461bcd60e51b815260206004820152601760248201527f63616c6c6572206d75737420626520677561726469616e00000000000000000060448201526064016104fa565b6001600160a01b03166000908152603a60205260409020805460ff19169055565b6001600160a01b03808416600090815260376020908152604080832093861683529290529081208054158061146b57508060008154811061144a5761144a612703565b60009182526020909120600390910201546001600160801b03908116908416105b1561147a5760009150506115d8565b8054600090819061148d90600190612744565b90508281815481106114a1576114a1612703565b60009182526020909120600390910201546001600160801b03908116908616106115395761152f8382815481106114da576114da612703565b600091825260209182902060408051608081018252600390930290910180546001600160801b038082168552600160801b909104169383019390935260018301549082015260029091015460608201526123ab565b93505050506115d8565b818111156115bd576000600261154f848461275b565b61155a90600161275b565b6115649190612773565b9050856001600160801b031684828154811061158257611582612703565b60009182526020909120600390910201546001600160801b0316116115a9578092506115b7565b6115b4600182612744565b91505b50611539565b6115d28383815481106114da576114da612703565b93505050505b9392505050565b60006033544210156115f15750600090565b6034546033546116019042612744565b61160b9190612773565b61161690600161275b565b905090565b6000806116266115df565b90506000603454826001600160801b03166116419190612795565b60335461164e919061275b565b9050600061165c4283612744565b603454909150600090611677670de0b6b3a764000084612795565b6116819190612773565b95945050505050565b600260015414156116dd5760405162461bcd60e51b815260206004820152601f60248201527f5265656e7472616e637947756172643a207265656e7472616e742063616c6c0060448201526064016104fa565b6002600155336000908152603a602052604090205460ff166117415760405162461bcd60e51b815260206004820152601a60248201527f43616c6c6572206d75737420626520616e20617070726f76656400000000000060448201526064016104fa565b6001600160a01b038083166000908152603560209081526040808320938716835292905220548111156117b65760405162461bcd60e51b815260206004820152601a60248201527f5374616b696e673a2062616c616e636520746f6f20736d616c6c00000000000060448201526064016104fa565b6001600160a01b038083166000908152603560209081526040808320938716835292905220546117e6908261239f565b6001600160a01b03838116600081815260356020908152604080832094891680845294909152908190209390935591517fa9059cbb000000000000000000000000000000000000000000000000000000008152600481019290925260248201839052849163a9059cbb90604401602060405180830381600087803b15801561186d57600080fd5b505af1158015611881573d6000803e3d6000fd5b505050506040513d601f19601f820116820180604052508101906118a591906126e1565b5060006118b06115df565b6001600160a01b038616600090815260386020908152604080832080547fffffffffffffffffffffffffffffffff00000000000000000000000000000000166001600160801b0386169081179091556036835281842090845290915290206001015490915060ff1661197e5760408051600180825281830190925260009160208083019080368337019050509050858160008151811061195257611952612703565b60200260200101906001600160a01b031690816001600160a01b03168152505061197c818361203c565b505b6001600160a01b0385166000908152603660205260408120816119a2846001612719565b6001600160801b031681526020810191909152604090810160002090516370a0823160e01b81523060048201529091506001600160a01b038416906370a082319060240160206040518083038186803b1580156119fe57600080fd5b505afa158015611a12573d6000803e3d6000fd5b505050506040513d601f19601f82011682018060405250810190611a36919061268a565b81556001808201805460ff1916821790556001600160a01b038087166000908152603760209081526040808320938b16835292905290812080549092611a7b91612744565b9050836001600160801b0316828281548110611a9957611a99612703565b60009182526020909120600390910201546001600160801b03161015611c5e57816040518060800160405280866001600160801b03168152602001670de0b6b3a76400006001600160801b03168152602001603560008b6001600160a01b03166001600160a01b0316815260200190815260200160002060008c6001600160a01b03166001600160a01b031681526020019081526020016000205481526020016000815250908060018154018082558091505060019003906000526020600020906003020160009091909190915060008201518160000160006101000a8154816001600160801b0302191690836001600160801b0316021790555060208201518160000160106101000a8154816001600160801b0302191690836001600160801b0316021790555060408201518160010155606082015181600201555050611c2c86603660008b6001600160a01b03166001600160a01b031681526020019081526020016000206000876001600160801b031681526020019081526020016000206000015461239f90919063ffffffff16565b6001600160a01b03891660009081526036602090815260408083206001600160801b0389168452909152902055611fe1565b836001600160801b0316828281548110611c7a57611c7a612703565b60009182526020909120600390910201546001600160801b03161415611d81576001600160a01b038088166000908152603560209081526040808320938c16835292905220548254839083908110611cd457611cd4612703565b9060005260206000209060030201600101819055506000828281548110611cfd57611cfd612703565b906000526020600020906003020160020181905550670de0b6b3a7640000828281548110611d2d57611d2d612703565b60009182526020808320600390920290910180546001600160801b03948516600160801b029085161790556001600160a01b038b16825260368152604080832093881683529290522054611c2c908761239f565b600082611d8f600184612744565b81548110611d9f57611d9f612703565b6000918252602080832060408051608081018252600390940290910180546001600160801b038082168652600160801b9091041692840192909252600182015490830152600281015460608301529250611df8906123ab565b90508160020154881015611e8c576000611e3c83600201546103e8670de0b6b3a76400006001600160801b031661043887600101548761239f90919063ffffffff16565b6002840154909150611e4e908a61239f565b600284018190556001840154611e6e91670de0b6b3a764000090846103c6565b83546001600160801b03918216600160801b02911617835550611ee5565b611eb1611ea683600201548a61239f90919063ffffffff16565b60018401549061239f565b60018301556000600283015581546001600160801b0316770de0b6b3a7640000000000000000000000000000000000001782555b6040805160808101825283546001600160801b038082168352600160801b90910416602082015260018401549181019190915260028301546060820152600090611f2e906123ab565b9050611f70611f3d838361239f565b6001600160a01b038d1660009081526036602090815260408083206001600160801b038d1684529091529020549061239f565b6001600160a01b03808d1660008181526036602090815260408083206001600160801b038e168452825280832095909555928e16815260358352838120918152915220548554869086908110611fc857611fc8612703565b9060005260206000209060030201600101819055505050505b876001600160a01b0316876001600160a01b03167f9b1bfa7fa9ee420a16e124f794c35ac9f90472acc99140eb2f6447c714cad8eb8860405161202691815260200190565b60405180910390a3505060018055505050505050565b6120446115df565b6001600160801b0316816001600160801b031611156120a55760405162461bcd60e51b815260206004820152601960248201527f63616e277420696e69742061206675747572652065706f63680000000000000060448201526064016104fa565b60005b825181101561230e576000603660008584815181106120c9576120c9612703565b6020908102919091018101516001600160a01b0316825281810192909252604090810160009081206001600160801b038716808352935220915061212057600081556001808201805460ff191690911790556122fb565b61217284838151811061213557612135612703565b6020908102919091018101516001600160a01b031660009081526036825260408082206001600160801b0388168352909252206001015460ff1690565b156121e55760405162461bcd60e51b815260206004820152602260248201527f5374616b696e673a2065706f636820616c726561647920696e697469616c697a60448201527f656400000000000000000000000000000000000000000000000000000000000060648201526084016104fa565b61220f8483815181106121fa576121fa612703565b60200260200101516001856101e191906126b9565b6122815760405162461bcd60e51b815260206004820152602760248201527f5374616b696e673a2070726576696f75732065706f6368206e6f7420696e697460448201527f69616c697a65640000000000000000000000000000000000000000000000000060648201526084016104fa565b6036600085848151811061229757612297612703565b60200260200101516001600160a01b03166001600160a01b0316815260200190815260200160002060006001856122ce91906126b9565b6001600160801b0316815260208101919091526040016000205481556001808201805460ff191690911790555b5080612306816127b4565b9150506120a8565b50806001600160801b0316336001600160a01b03167fb85c32b8d9cecc81feba78646289584a693e9a8afea40ab2fd31efae4408429f8460405161235291906127cf565b60405180910390a35050565b60006115d88284612795565b60006115d88284612773565b60006115d8828461275b565b60006103c08260600151836040015161237690919063ffffffff16565b60006115d88284612744565b60006103c0670de0b6b3a76400006001600160801b03166103e884602001516001600160801b031661043886612382565b80356001600160a01b03811681146123f357600080fd5b919050565b80356001600160801b03811681146123f357600080fd5b6000806040838503121561242257600080fd5b61242b836123dc565b9150612439602084016123f8565b90509250929050565b6000806000806080858703121561245857600080fd5b84359350612468602086016123f8565b92506040850135915061247d606086016123f8565b905092959194509250565b60006020828403121561249a57600080fd5b6115d8826123dc565b6000806000606084860312156124b857600080fd5b6124c1846123dc565b95602085013595506040909401359392505050565b6000806000606084860312156124eb57600080fd5b6124f4846123dc565b9250612502602085016123dc565b9150604084013590509250925092565b60008060006060848603121561252757600080fd5b612530846123dc565b925061253e602085016123dc565b915061254c604085016123f8565b90509250925092565b634e487b7160e01b600052604160045260246000fd5b6000806040838503121561257e57600080fd5b823567ffffffffffffffff8082111561259657600080fd5b818501915085601f8301126125aa57600080fd5b81356020828211156125be576125be612555565b8160051b6040517fffffffffffffffffffffffffffffffffffffffffffffffffffffffffffffffe0603f8301168101818110868211171561260157612601612555565b60405292835281830193508481018201928984111561261f57600080fd5b948201945b8386101561264457612635866123dc565b85529482019493820193612624565b965061265390508782016123f8565b9450505050509250929050565b6000806040838503121561267357600080fd5b61267c836123dc565b9150612439602084016123dc565b60006020828403121561269c57600080fd5b5051919050565b634e487b7160e01b600052601160045260246000fd5b60006001600160801b03838116908316818110156126d9576126d96126a3565b039392505050565b6000602082840312156126f357600080fd5b815180151581146115d857600080fd5b634e487b7160e01b600052603260045260246000fd5b60006001600160801b0380831681851680830382111561273b5761273b6126a3565b01949350505050565b600082821015612756576127566126a3565b500390565b6000821982111561276e5761276e6126a3565b500190565b60008261279057634e487b7160e01b600052601260045260246000fd5b500490565b60008160001904831182151516156127af576127af6126a3565b500290565b60006000198214156127c8576127c86126a3565b5060010190565b6020808252825182820181905260009190848201906040850190845b818110156128105783516001600160a01b0316835292840192918401916001016127eb565b5090969550505050505056fea2646970667358221220512b51b44f1569f40ce48573567611da7e0cd55d2eb64e964408a59180bb338364736f6c63430008090033",
  "immutableReferences": {},
  "source": "// SPDX-License-Identifier: Apache-2.0\npragma solidity ^0.8.4;\n\nimport \"./../@openzeppelin/contracts/token/ERC20/IERC20.sol\";\n// import \"@openzeppelin/contracts/math/SafeMath.sol\";\nimport './../@openzeppelin/contracts/utils/math/SafeMath.sol';\n// import \"@openzeppelin/contracts/utils/ReentrancyGuard.sol\";\nimport './../@openzeppelin/contracts-upgradeable/security/ReentrancyGuardUpgradeable.sol';\nimport \"./../@openzeppelin/contracts-upgradeable/proxy/utils/Initializable.sol\";\n\n\ncontract Staking0 is Initializable, ReentrancyGuardUpgradeable {\n    using SafeMath for uint256;\n\n    uint128 constant private BASE_MULTIPLIER = uint128(1 * 10 ** 18);\n\n    // timestamp for the epoch 1\n    // everything before that is considered epoch 0 which won't have a reward but allows for the initial stake\n    uint256 public epoch1Start;\n\n    // duration of each epoch\n    uint256 public epochDuration;\n\n    // holds the current balance of the user for each token\n    mapping(address => mapping(address => uint256)) private balances;\n\n    struct Pool {\n        uint256 size;\n        bool set;\n    }\n\n    // for each token, we store the total pool size\n    mapping(address => mapping(uint256 => Pool)) private poolSize;\n\n    // a checkpoint of the valid balance of a user for an epoch\n    struct Checkpoint {\n        uint128 epochId;\n        uint128 multiplier;\n        uint256 startBalance;\n        uint256 newDeposits;\n    }\n\n    // balanceCheckpoints[user][token][]\n    mapping(address => mapping(address => Checkpoint[])) private balanceCheckpoints;\n\n    mapping(address => uint128) private lastWithdrawEpochId;\n\n    event Deposit(address indexed user, address indexed tokenAddress, uint256 amount);\n    event Withdraw(address indexed user, address indexed tokenAddress, uint256 amount);\n    event ManualEpochInit(address indexed caller, uint128 indexed epochId, address[] tokens);\n    event EmergencyWithdraw(address indexed user, address indexed tokenAddress, uint256 amount);\n\n    address guardianAddress;\n    mapping(address => bool) isApproved;\n\n    function initialize(address _guardianAddress, uint256 _epoch1Start, uint256 _epochDuration) public initializer {\n        guardianAddress = _guardianAddress;\n        epoch1Start = _epoch1Start;\n        epochDuration = _epochDuration;\n    }\n\n    // TODO: set up stuff to connect this to the bHome token\n\n    function approveAccess(address addr) public{\n        require(msg.sender == guardianAddress, \"caller must be guardian\");\n        isApproved[addr] = true;\n    }\n\n    function revokeAccess(address addr) public{\n        require(msg.sender == guardianAddress, \"caller must be guardian\");\n        isApproved[addr] = false;\n    }\n\n    /*\n     * Stores `amount` of `tokenAddress` tokens for the `user` into the vault\n     */\n    function deposit(address tokenAddress, address wallet, uint256 amount) public nonReentrant {\n        require(isApproved[msg.sender], \"Caller must be an approved\");\n        require(amount > 0, \"Staking: Amount must be > 0\");\n\n        IERC20 token = IERC20(tokenAddress);\n        // Scoping this so we don't run out of stack space <sigh>\n        {\n            // TODO: does it make sense to do this allowance thing if we are the ones doing the transfer? Probably not...\n            // uint256 allowance = token.allowance(wallet, address(this));\n            // require(allowance >= amount, \"Staking: Token allowance too small\");\n\n            balances[wallet][tokenAddress] = balances[wallet][tokenAddress].add(amount);\n\n            // token.transferFrom(wallet, address(this), amount);\n        }\n\n        // epoch logic\n        uint128 currentEpoch = getCurrentEpoch();\n        uint128 currentMultiplier = currentEpochMultiplier();\n\n        if (!epochIsInitialized(tokenAddress, currentEpoch)) {\n            address[] memory tokens = new address[](1);\n            tokens[0] = tokenAddress;\n            manualEpochInit(tokens, currentEpoch);\n        }\n\n        // update the next epoch pool size\n        Pool storage pNextEpoch = poolSize[tokenAddress][currentEpoch + 1];\n        pNextEpoch.size = token.balanceOf(address(this));\n        pNextEpoch.set = true;\n\n        Checkpoint[] storage checkpoints = balanceCheckpoints[wallet][tokenAddress];\n\n        uint256 balanceBefore = getEpochUserBalance(wallet, tokenAddress, currentEpoch);\n\n        // if there's no checkpoint yet, it means the user didn't have any activity\n        // we want to store checkpoints both for the current epoch and next epoch because\n        // if a user does a withdraw, the current epoch can also be modified and\n        // we don't want to insert another checkpoint in the middle of the array as that could be expensive\n        if (checkpoints.length == 0) {\n            checkpoints.push(Checkpoint(currentEpoch, currentMultiplier, 0, amount));\n\n            // next epoch => multiplier is 1, epoch deposits is 0\n            checkpoints.push(Checkpoint(currentEpoch + 1, BASE_MULTIPLIER, amount, 0));\n        } else {\n            uint256 last = checkpoints.length - 1;\n\n            // the last action happened in an older epoch (e.g. a deposit in epoch 3, current epoch is >=5)\n            if (checkpoints[last].epochId < currentEpoch) {\n                uint128 multiplier = computeNewMultiplier(\n                    getCheckpointBalance(checkpoints[last]),\n                    BASE_MULTIPLIER,\n                    amount,\n                    currentMultiplier\n                );\n                checkpoints.push(Checkpoint(currentEpoch, multiplier, getCheckpointBalance(checkpoints[last]), amount));\n                checkpoints.push(Checkpoint(currentEpoch + 1, BASE_MULTIPLIER, balances[wallet][tokenAddress], 0));\n            }\n            // the last action happened in the previous epoch\n            else if (checkpoints[last].epochId == currentEpoch) {\n                checkpoints[last].multiplier = computeNewMultiplier(\n                    getCheckpointBalance(checkpoints[last]),\n                    checkpoints[last].multiplier,\n                    amount,\n                    currentMultiplier\n                );\n                checkpoints[last].newDeposits = checkpoints[last].newDeposits.add(amount);\n\n                checkpoints.push(Checkpoint(currentEpoch + 1, BASE_MULTIPLIER, balances[wallet][tokenAddress], 0));\n            }\n            // the last action happened in the current epoch\n            else {\n                if (last >= 1 && checkpoints[last - 1].epochId == currentEpoch) {\n                    checkpoints[last - 1].multiplier = computeNewMultiplier(\n                        getCheckpointBalance(checkpoints[last - 1]),\n                        checkpoints[last - 1].multiplier,\n                        amount,\n                        currentMultiplier\n                    );\n                    checkpoints[last - 1].newDeposits = checkpoints[last - 1].newDeposits.add(amount);\n                }\n\n                checkpoints[last].startBalance = balances[wallet][tokenAddress];\n            }\n        }\n\n        uint256 balanceAfter = getEpochUserBalance(wallet, tokenAddress, currentEpoch);\n\n        poolSize[tokenAddress][currentEpoch].size = poolSize[tokenAddress][currentEpoch].size.add(balanceAfter.sub(balanceBefore));\n\n        emit Deposit(wallet, tokenAddress, amount);\n    }\n\n    /*\n     * Removes the deposit of the user and sends the amount of `tokenAddress` back to the `user`\n     */\n    function withdraw(address tokenAddress, address wallet, uint256 amount) public nonReentrant {\n        require(isApproved[msg.sender], \"Caller must be an approved\");\n        require(balances[wallet][tokenAddress] >= amount, \"Staking: balance too small\");\n\n        balances[wallet][tokenAddress] = balances[wallet][tokenAddress].sub(amount);\n\n        IERC20 token = IERC20(tokenAddress);\n        token.transfer(wallet, amount);\n\n        // epoch logic\n        uint128 currentEpoch = getCurrentEpoch();\n\n        lastWithdrawEpochId[tokenAddress] = currentEpoch;\n\n        if (!epochIsInitialized(tokenAddress, currentEpoch)) {\n            address[] memory tokens = new address[](1);\n            tokens[0] = tokenAddress;\n            manualEpochInit(tokens, currentEpoch);\n        }\n\n        // update the pool size of the next epoch to its current balance\n        Pool storage pNextEpoch = poolSize[tokenAddress][currentEpoch + 1];\n        pNextEpoch.size = token.balanceOf(address(this));\n        pNextEpoch.set = true;\n\n        Checkpoint[] storage checkpoints = balanceCheckpoints[wallet][tokenAddress];\n        uint256 last = checkpoints.length - 1;\n\n        // note: it's impossible to have a withdraw and no checkpoints because the balance would be 0 and revert\n\n        // there was a deposit in an older epoch (more than 1 behind [eg: previous 0, now 5]) but no other action since then\n        if (checkpoints[last].epochId < currentEpoch) {\n            checkpoints.push(Checkpoint(currentEpoch, BASE_MULTIPLIER, balances[wallet][tokenAddress], 0));\n\n            poolSize[tokenAddress][currentEpoch].size = poolSize[tokenAddress][currentEpoch].size.sub(amount);\n        }\n        // there was a deposit in the `epochId - 1` epoch => we have a checkpoint for the current epoch\n        else if (checkpoints[last].epochId == currentEpoch) {\n            checkpoints[last].startBalance = balances[wallet][tokenAddress];\n            checkpoints[last].newDeposits = 0;\n            checkpoints[last].multiplier = BASE_MULTIPLIER;\n\n            poolSize[tokenAddress][currentEpoch].size = poolSize[tokenAddress][currentEpoch].size.sub(amount);\n        }\n        // there was a deposit in the current epoch\n        else {\n            Checkpoint storage currentEpochCheckpoint = checkpoints[last - 1];\n\n            uint256 balanceBefore = getCheckpointEffectiveBalance(currentEpochCheckpoint);\n\n            // in case of withdraw, we have 2 branches:\n            // 1. the user withdraws less than he added in the current epoch\n            // 2. the user withdraws more than he added in the current epoch (including 0)\n            if (amount < currentEpochCheckpoint.newDeposits) {\n                uint128 avgDepositMultiplier = uint128(\n                    balanceBefore.sub(currentEpochCheckpoint.startBalance).mul(BASE_MULTIPLIER).div(currentEpochCheckpoint.newDeposits)\n                );\n\n                currentEpochCheckpoint.newDeposits = currentEpochCheckpoint.newDeposits.sub(amount);\n\n                currentEpochCheckpoint.multiplier = computeNewMultiplier(\n                    currentEpochCheckpoint.startBalance,\n                    BASE_MULTIPLIER,\n                    currentEpochCheckpoint.newDeposits,\n                    avgDepositMultiplier\n                );\n            } else {\n                currentEpochCheckpoint.startBalance = currentEpochCheckpoint.startBalance.sub(\n                    amount.sub(currentEpochCheckpoint.newDeposits)\n                );\n                currentEpochCheckpoint.newDeposits = 0;\n                currentEpochCheckpoint.multiplier = BASE_MULTIPLIER;\n            }\n\n            uint256 balanceAfter = getCheckpointEffectiveBalance(currentEpochCheckpoint);\n\n            poolSize[tokenAddress][currentEpoch].size = poolSize[tokenAddress][currentEpoch].size.sub(balanceBefore.sub(balanceAfter));\n\n            checkpoints[last].startBalance = balances[wallet][tokenAddress];\n        }\n\n        emit Withdraw(wallet, tokenAddress, amount);\n    }\n\n    /*\n     * manualEpochInit can be used by anyone to initialize an epoch based on the previous one\n     * This is only applicable if there was no action (deposit/withdraw) in the current epoch.\n     * Any deposit and withdraw will automatically initialize the current and next epoch.\n     */\n    function manualEpochInit(address[] memory tokens, uint128 epochId) public {\n        require(epochId <= getCurrentEpoch(), \"can't init a future epoch\");\n\n        for (uint i = 0; i < tokens.length; i++) {\n            Pool storage p = poolSize[tokens[i]][epochId];\n\n            if (epochId == 0) {\n                p.size = uint256(0);\n                p.set = true;\n            } else {\n                require(!epochIsInitialized(tokens[i], epochId), \"Staking: epoch already initialized\");\n                require(epochIsInitialized(tokens[i], epochId - 1), \"Staking: previous epoch not initialized\");\n\n                p.size = poolSize[tokens[i]][epochId - 1].size;\n                p.set = true;\n            }\n        }\n\n        emit ManualEpochInit(msg.sender, epochId, tokens);\n    }\n\n    function emergencyWithdraw(address tokenAddress) public {\n        require((getCurrentEpoch() - lastWithdrawEpochId[tokenAddress]) >= 10, \"At least 10 epochs must pass without success\");\n\n        uint256 totalUserBalance = balances[msg.sender][tokenAddress];\n        require(totalUserBalance > 0, \"Amount must be > 0\");\n\n        balances[msg.sender][tokenAddress] = 0;\n\n        IERC20 token = IERC20(tokenAddress);\n        token.transfer(msg.sender, totalUserBalance);\n\n        emit EmergencyWithdraw(msg.sender, tokenAddress, totalUserBalance);\n    }\n\n    /*\n     * Returns the valid balance of a user that was taken into consideration in the total pool size for the epoch\n     * A deposit will only change the next epoch balance.\n     * A withdraw will decrease the current epoch (and subsequent) balance.\n     */\n    function getEpochUserBalance(address user, address token, uint128 epochId) public view returns (uint256) {\n        Checkpoint[] storage checkpoints = balanceCheckpoints[user][token];\n\n        // if there are no checkpoints, it means the user never deposited any tokens, so the balance is 0\n        if (checkpoints.length == 0 || epochId < checkpoints[0].epochId) {\n            return 0;\n        }\n\n        uint min = 0;\n        uint max = checkpoints.length - 1;\n\n        // shortcut for blocks newer than the latest checkpoint == current balance\n        if (epochId >= checkpoints[max].epochId) {\n            return getCheckpointEffectiveBalance(checkpoints[max]);\n        }\n\n        // binary search of the value in the array\n        while (max > min) {\n            uint mid = (max + min + 1) / 2;\n            if (checkpoints[mid].epochId <= epochId) {\n                min = mid;\n            } else {\n                max = mid - 1;\n            }\n        }\n\n        return getCheckpointEffectiveBalance(checkpoints[min]);\n    }\n\n    /*\n     * Returns the amount of `token` that the `user` has currently staked\n     */\n    function balanceOf(address user, address token) public view returns (uint256) {\n        return balances[user][token];\n    }\n\n    /*\n     * Returns the id of the current epoch derived from block.timestamp\n     */\n    function getCurrentEpoch() public view returns (uint128) {\n        if (block.timestamp < epoch1Start) {\n            return 0;\n        }\n\n        return uint128((block.timestamp - epoch1Start) / epochDuration + 1);\n    }\n\n    /*\n     * Returns the total amount of `tokenAddress` that was locked from beginning to end of epoch identified by `epochId`\n     */\n    function getEpochPoolSize(address tokenAddress, uint128 epochId) public view returns (uint256) {\n        // Premises:\n        // 1. it's impossible to have gaps of uninitialized epochs\n        // - any deposit or withdraw initialize the current epoch which requires the previous one to be initialized\n        if (epochIsInitialized(tokenAddress, epochId)) {\n            return poolSize[tokenAddress][epochId].size;\n        }\n\n        // epochId not initialized and epoch 0 not initialized => there was never any action on this pool\n        if (!epochIsInitialized(tokenAddress, 0)) {\n            return 0;\n        }\n\n        // epoch 0 is initialized => there was an action at some point but none that initialized the epochId\n        // which means the current pool size is equal to the current balance of token held by the staking contract\n        IERC20 token = IERC20(tokenAddress);\n        return token.balanceOf(address(this));\n    }\n\n    /*\n     * Returns the percentage of time left in the current epoch\n     */\n    function currentEpochMultiplier() public view returns (uint128) {\n        uint128 currentEpoch = getCurrentEpoch();\n        uint256 currentEpochEnd = epoch1Start + currentEpoch * epochDuration;\n        uint256 timeLeft = currentEpochEnd - block.timestamp;\n        uint128 multiplier = uint128(timeLeft * BASE_MULTIPLIER / epochDuration);\n\n        return multiplier;\n    }\n\n    function computeNewMultiplier(uint256 prevBalance, uint128 prevMultiplier, uint256 amount, uint128 currentMultiplier) public pure returns (uint128) {\n        uint256 prevAmount = prevBalance.mul(prevMultiplier).div(BASE_MULTIPLIER);\n        uint256 addAmount = amount.mul(currentMultiplier).div(BASE_MULTIPLIER);\n        uint128 newMultiplier = uint128(prevAmount.add(addAmount).mul(BASE_MULTIPLIER).div(prevBalance.add(amount)));\n\n        return newMultiplier;\n    }\n\n    /*\n     * Checks if an epoch is initialized, meaning we have a pool size set for it\n     */\n    function epochIsInitialized(address token, uint128 epochId) public view returns (bool) {\n        return poolSize[token][epochId].set;\n    }\n\n    function getCheckpointBalance(Checkpoint memory c) internal pure returns (uint256) {\n        return c.startBalance.add(c.newDeposits);\n    }\n\n    function getCheckpointEffectiveBalance(Checkpoint memory c) internal pure returns (uint256) {\n        return getCheckpointBalance(c).mul(c.multiplier).div(BASE_MULTIPLIER);\n    }\n}\n\n",
  "sourcePath": "/Users/zane/code/loansnap/HomeDAO/contracts/Staking/Staking0.sol",
  "compiler": {
    "name": "solc",
    "version": "0.8.9+commit.e5eed63a.Emscripten.clang"
  },
  "schemaVersion": "3.3.4",
  "updatedAt": "2022-05-16T21:46:47.509Z",
  "networkType": "ethereum",
  "devdoc": {
    "kind": "dev",
    "methods": {},
    "version": 1
  },
  "userdoc": {
    "kind": "user",
    "methods": {},
    "version": 1
  }
}