{
  "contractName": "Staking2",
  "abi": [
    {
      "anonymous": false,
      "inputs": [
        {
          "indexed": true,
          "internalType": "address",
          "name": "user",
          "type": "address"
        },
        {
          "indexed": true,
          "internalType": "address",
          "name": "tokenAddress",
          "type": "address"
        },
        {
          "indexed": false,
          "internalType": "uint256",
          "name": "amount",
          "type": "uint256"
        }
      ],
      "name": "Deposit",
      "type": "event"
    },
    {
      "anonymous": false,
      "inputs": [
        {
          "indexed": true,
          "internalType": "address",
          "name": "user",
          "type": "address"
        },
        {
          "indexed": true,
          "internalType": "address",
          "name": "tokenAddress",
          "type": "address"
        },
        {
          "indexed": false,
          "internalType": "uint256",
          "name": "amount",
          "type": "uint256"
        }
      ],
      "name": "EmergencyWithdraw",
      "type": "event"
    },
    {
      "anonymous": false,
      "inputs": [
        {
          "indexed": true,
          "internalType": "address",
          "name": "caller",
          "type": "address"
        },
        {
          "indexed": true,
          "internalType": "uint128",
          "name": "epochId",
          "type": "uint128"
        },
        {
          "indexed": false,
          "internalType": "address[]",
          "name": "tokens",
          "type": "address[]"
        }
      ],
      "name": "ManualEpochInit",
      "type": "event"
    },
    {
      "anonymous": false,
      "inputs": [
        {
          "indexed": true,
          "internalType": "address",
          "name": "user",
          "type": "address"
        },
        {
          "indexed": true,
          "internalType": "address",
          "name": "tokenAddress",
          "type": "address"
        },
        {
          "indexed": false,
          "internalType": "uint256",
          "name": "amount",
          "type": "uint256"
        }
      ],
      "name": "Withdraw",
      "type": "event"
    },
    {
      "inputs": [],
      "name": "epoch1Start",
      "outputs": [
        {
          "internalType": "uint256",
          "name": "",
          "type": "uint256"
        }
      ],
      "stateMutability": "view",
      "type": "function"
    },
    {
      "inputs": [],
      "name": "epochDuration",
      "outputs": [
        {
          "internalType": "uint256",
          "name": "",
          "type": "uint256"
        }
      ],
      "stateMutability": "view",
      "type": "function"
    },
    {
      "inputs": [
        {
          "internalType": "address",
          "name": "_guardianAddress",
          "type": "address"
        },
        {
          "internalType": "uint256",
          "name": "_epoch1Start",
          "type": "uint256"
        },
        {
          "internalType": "uint256",
          "name": "_epochDuration",
          "type": "uint256"
        }
      ],
      "name": "initialize",
      "outputs": [],
      "stateMutability": "nonpayable",
      "type": "function"
    },
    {
      "inputs": [
        {
          "internalType": "address",
          "name": "addr",
          "type": "address"
        }
      ],
      "name": "approveAccess",
      "outputs": [],
      "stateMutability": "nonpayable",
      "type": "function"
    },
    {
      "inputs": [
        {
          "internalType": "address",
          "name": "addr",
          "type": "address"
        }
      ],
      "name": "revokeAccess",
      "outputs": [],
      "stateMutability": "nonpayable",
      "type": "function"
    },
    {
      "inputs": [
        {
          "internalType": "address",
          "name": "tokenAddress",
          "type": "address"
        },
        {
          "internalType": "address",
          "name": "wallet",
          "type": "address"
        },
        {
          "internalType": "uint256",
          "name": "amount",
          "type": "uint256"
        }
      ],
      "name": "deposit",
      "outputs": [],
      "stateMutability": "nonpayable",
      "type": "function"
    },
    {
      "inputs": [
        {
          "internalType": "address",
          "name": "tokenAddress",
          "type": "address"
        },
        {
          "internalType": "address",
          "name": "wallet",
          "type": "address"
        },
        {
          "internalType": "uint256",
          "name": "amount",
          "type": "uint256"
        }
      ],
      "name": "withdraw",
      "outputs": [],
      "stateMutability": "nonpayable",
      "type": "function"
    },
    {
      "inputs": [
        {
          "internalType": "address[]",
          "name": "tokens",
          "type": "address[]"
        },
        {
          "internalType": "uint128",
          "name": "epochId",
          "type": "uint128"
        }
      ],
      "name": "manualEpochInit",
      "outputs": [],
      "stateMutability": "nonpayable",
      "type": "function"
    },
    {
      "inputs": [
        {
          "internalType": "address[]",
          "name": "tokens",
          "type": "address[]"
        },
        {
          "internalType": "uint128",
          "name": "startingEpochId",
          "type": "uint128"
        },
        {
          "internalType": "uint128",
          "name": "endingEpochId",
          "type": "uint128"
        }
      ],
      "name": "manualBatchEpochInit",
      "outputs": [],
      "stateMutability": "nonpayable",
      "type": "function"
    },
    {
      "inputs": [
        {
          "internalType": "address",
          "name": "tokenAddress",
          "type": "address"
        }
      ],
      "name": "emergencyWithdraw",
      "outputs": [],
      "stateMutability": "nonpayable",
      "type": "function"
    },
    {
      "inputs": [
        {
          "internalType": "address",
          "name": "user",
          "type": "address"
        },
        {
          "internalType": "address",
          "name": "token",
          "type": "address"
        },
        {
          "internalType": "uint128",
          "name": "epochId",
          "type": "uint128"
        }
      ],
      "name": "getEpochUserBalance",
      "outputs": [
        {
          "internalType": "uint256",
          "name": "",
          "type": "uint256"
        }
      ],
      "stateMutability": "view",
      "type": "function"
    },
    {
      "inputs": [
        {
          "internalType": "address",
          "name": "user",
          "type": "address"
        },
        {
          "internalType": "address",
          "name": "token",
          "type": "address"
        }
      ],
      "name": "balanceOf",
      "outputs": [
        {
          "internalType": "uint256",
          "name": "",
          "type": "uint256"
        }
      ],
      "stateMutability": "view",
      "type": "function"
    },
    {
      "inputs": [],
      "name": "getCurrentEpoch",
      "outputs": [
        {
          "internalType": "uint128",
          "name": "",
          "type": "uint128"
        }
      ],
      "stateMutability": "view",
      "type": "function"
    },
    {
      "inputs": [
        {
          "internalType": "address",
          "name": "tokenAddress",
          "type": "address"
        },
        {
          "internalType": "uint128",
          "name": "epochId",
          "type": "uint128"
        }
      ],
      "name": "getEpochPoolSize",
      "outputs": [
        {
          "internalType": "uint256",
          "name": "",
          "type": "uint256"
        }
      ],
      "stateMutability": "view",
      "type": "function"
    },
    {
      "inputs": [],
      "name": "currentEpochMultiplier",
      "outputs": [
        {
          "internalType": "uint128",
          "name": "",
          "type": "uint128"
        }
      ],
      "stateMutability": "view",
      "type": "function"
    },
    {
      "inputs": [
        {
          "internalType": "uint256",
          "name": "prevBalance",
          "type": "uint256"
        },
        {
          "internalType": "uint128",
          "name": "prevMultiplier",
          "type": "uint128"
        },
        {
          "internalType": "uint256",
          "name": "amount",
          "type": "uint256"
        },
        {
          "internalType": "uint128",
          "name": "currentMultiplier",
          "type": "uint128"
        }
      ],
      "name": "computeNewMultiplier",
      "outputs": [
        {
          "internalType": "uint128",
          "name": "",
          "type": "uint128"
        }
      ],
      "stateMutability": "pure",
      "type": "function"
    },
    {
      "inputs": [
        {
          "internalType": "address",
          "name": "token",
          "type": "address"
        },
        {
          "internalType": "uint128",
          "name": "epochId",
          "type": "uint128"
        }
      ],
      "name": "epochIsInitialized",
      "outputs": [
        {
          "internalType": "bool",
          "name": "",
          "type": "bool"
        }
      ],
      "stateMutability": "view",
      "type": "function"
    },
    {
      "inputs": [
        {
          "internalType": "address",
          "name": "account",
          "type": "address"
        },
        {
          "internalType": "address",
          "name": "tokenAddress",
          "type": "address"
        }
      ],
      "name": "getAndClearReward",
      "outputs": [
        {
          "internalType": "uint256",
          "name": "",
          "type": "uint256"
        }
      ],
      "stateMutability": "nonpayable",
      "type": "function"
    }
  ],
  "bytecode": "0x608060405234801561001057600080fd5b50612a96806100206000396000f3fe608060405234801561001057600080fd5b50600436106101365760003560e01c80638c028dd0116100b2578063d9caed1211610081578063eb959c0d11610066578063eb959c0d146102a9578063f4a4341d146102bc578063f7888aec146102c557600080fd5b8063d9caed1214610283578063ea2c38ae1461029657600080fd5b80638c028dd014610209578063aa5791541461021c578063b97dd9e214610273578063ce58a2a81461027b57600080fd5b80636ff1c9bc116101095780637a1ac61e116100ee5780637a1ac61e146101d05780638340f549146101e357806385e68531146101f657600080fd5b80636ff1c9bc146101a8578063705211f4146101bd57600080fd5b80632ca32d7e1461013b5780634a0c8ce6146101615780634be41dba146101745780634ff0876a1461019f575b600080fd5b61014e6101493660046125d5565b61030c565b6040519081526020015b60405180910390f35b61014e61016f366004612608565b610430565b610187610182366004612632565b61057b565b6040516001600160801b039091168152602001610158565b61014e60345481565b6101bb6101b6366004612678565b6105f9565b005b6101bb6101cb366004612678565b610819565b6101bb6101de366004612693565b610897565b6101bb6101f13660046126c6565b6109d9565b6101bb610204366004612678565b611426565b61014e610217366004612702565b6114a1565b61026361022a3660046125d5565b6001600160a01b03821660009081526036602090815260408083206001600160801b038516845290915290206001015460ff1692915050565b6040519015158152602001610158565b610187611679565b6101876116b5565b6101bb6102913660046126c6565b611724565b6101bb6102a436600461281b565b611f99565b6101bb6102b7366004612860565b6122bb565b61014e60335481565b61014e6102d3366004612608565b6001600160a01b0391821660009081526035602090815260408083209390941682529190915220546bffffffffffffffffffffffff1690565b6001600160a01b03821660009081526036602090815260408083206001600160801b038516845290915281206001015460ff161561037757506001600160a01b03821660009081526036602090815260408083206001600160801b038516845290915290205461042a565b6001600160a01b038316600090815260366020908152604080832083805290915290206001015460ff166103ad5750600061042a565b6040516370a0823160e01b815230600482015283906001600160a01b038216906370a082319060240160206040518083038186803b1580156103ee57600080fd5b505afa158015610402573d6000803e3d6000fd5b505050506040513d601f19601f8201168201806040525081019061042691906128a7565b9150505b92915050565b336000908152603a602052604081205460ff166104945760405162461bcd60e51b815260206004820152601a60248201527f43616c6c6572206d75737420626520616e20617070726f76656400000000000060448201526064015b60405180910390fd5b6001600160a01b0380841660009081526035602090815260408083209386168352929052908120546104d5906301da9c00906104cf9061235b565b90612382565b6001600160a01b0385166000908152603b60205260409020549091506104fb90826128d6565b6001600160a01b038086166000908152603b6020908152604080832083905560358252808320938816835292905220549091506bffffffffffffffffffffffff1661054a42600160801b61238e565b6001600160a01b03808716600090815260356020908152604080832093891683529290522091179055905092915050565b60008061059d670de0b6b3a76400006104cf886001600160801b03891661238e565b905060006105c0670de0b6b3a76400006104cf876001600160801b03881661238e565b905060006105ed6105d1898861239a565b6104cf670de0b6b3a76400006105e7878761239a565b9061238e565b98975050505050505050565b6001600160a01b038116600090815260386020526040902054600a906001600160801b0316610626611679565b61063091906128ee565b6001600160801b031610156106ad5760405162461bcd60e51b815260206004820152602c60248201527f4174206c656173742031302065706f636873206d75737420706173732077697460448201527f686f757420737563636573730000000000000000000000000000000000000000606482015260840161048b565b3360009081526035602090815260408083206001600160a01b03851684529091529020546bffffffffffffffffffffffff168061072c5760405162461bcd60e51b815260206004820152601260248201527f416d6f756e74206d757374206265203e20300000000000000000000000000000604482015260640161048b565b610738338360006123a6565b6040517fa9059cbb0000000000000000000000000000000000000000000000000000000081523360048201526024810182905282906001600160a01b0382169063a9059cbb90604401602060405180830381600087803b15801561079b57600080fd5b505af11580156107af573d6000803e3d6000fd5b505050506040513d601f19601f820116820180604052508101906107d39190612916565b506040518281526001600160a01b0384169033907ff24ef89f38eadc1bde50701ad6e4d6d11a2dc24f7cf834a486991f38833285049060200160405180910390a3505050565b6039546001600160a01b031633146108735760405162461bcd60e51b815260206004820152601760248201527f63616c6c6572206d75737420626520677561726469616e000000000000000000604482015260640161048b565b6001600160a01b03166000908152603a60205260409020805460ff19166001179055565b600054610100900460ff166108b25760005460ff16156108b6565b303b155b6109285760405162461bcd60e51b815260206004820152602e60248201527f496e697469616c697a61626c653a20636f6e747261637420697320616c72656160448201527f647920696e697469616c697a6564000000000000000000000000000000000000606482015260840161048b565b600054610100900460ff1615801561096757600080547fffffffffffffffffffffffffffffffffffffffffffffffffffffffffffff0000166101011790555b603980547fffffffffffffffffffffffff0000000000000000000000000000000000000000166001600160a01b0386161790556033839055603482905580156109d357600080547fffffffffffffffffffffffffffffffffffffffffffffffffffffffffffff00ff1690555b50505050565b60026001541415610a2c5760405162461bcd60e51b815260206004820152601f60248201527f5265656e7472616e637947756172643a207265656e7472616e742063616c6c00604482015260640161048b565b6002600155336000908152603a602052604090205460ff16610a905760405162461bcd60e51b815260206004820152601a60248201527f43616c6c6572206d75737420626520616e20617070726f766564000000000000604482015260640161048b565b60008111610ae05760405162461bcd60e51b815260206004820152601b60248201527f5374616b696e673a20416d6f756e74206d757374206265203e20300000000000604482015260640161048b565b6001600160a01b038281166000908152603560209081526040808320938716835292905290812054849190610b23906bffffffffffffffffffffffff168461239a565b9050610b308486836123a6565b6000610b3a611679565b90506000610b466116b5565b6001600160a01b03881660009081526036602090815260408083206001600160801b038716845290915290206001015490915060ff16610be257604080516001808252818301909252600091602080830190803683370190505090508781600081518110610bb657610bb6612938565b60200260200101906001600160a01b031690816001600160a01b031681525050610be08184611f99565b505b6001600160a01b038716600090815260366020526040812081610c0685600161294e565b6001600160801b031681526020810191909152604090810160002090516370a0823160e01b81523060048201529091506001600160a01b038616906370a082319060240160206040518083038186803b158015610c6257600080fd5b505afa158015610c76573d6000803e3d6000fd5b505050506040513d601f19601f82011682018060405250810190610c9a91906128a7565b81556001808201805460ff191690911790556001600160a01b038088166000908152603760209081526040808320938c16835292905290812090610cdf898b876114a1565b8254909150610e4957816040518060800160405280876001600160801b03168152602001866001600160801b03168152602001600081526020018a815250908060018154018082558091505060019003906000526020600020906003020160009091909190915060008201518160000160006101000a8154816001600160801b0302191690836001600160801b0316021790555060208201518160000160106101000a8154816001600160801b0302191690836001600160801b0316021790555060408201518160010155606082015181600201555050816040518060800160405280876001610dcf919061294e565b6001600160801b039081168252670de0b6b3a764000060208084019190915260408084018e905260006060948501819052865460018181018955978252908390208651938701518516600160801b02939094169290921760039092029092019081559083015193810193909355015160029091015561135f565b8154600090610e5a90600190612979565b9050856001600160801b0316838281548110610e7857610e78612938565b60009182526020909120600390910201546001600160801b03161015611045576000610f17610f07858481548110610eb257610eb2612938565b600091825260209182902060408051608081018252600390930290910180546001600160801b038082168552600160801b909104169383019390935260018301549082015260029091015460608201526124f4565b670de0b6b3a76400008c8961057b565b9050836040518060800160405280896001600160801b03168152602001836001600160801b03168152602001610f58878681548110610eb257610eb2612938565b815260209081018d90528254600181810185556000948552938290208351928401516001600160801b03908116600160801b0293169290921760039091029091019081556040808301518285015560609092015160029091015580516080810190915285918190610fca908b9061294e565b6001600160801b039081168252670de0b6b3a764000060208084019190915260408084018e905260006060948501819052865460018181018955978252908390208651938701518516600160801b0293909416929092176003909202909201908155908301519381019390935501516002909101555061135d565b856001600160801b031683828154811061106157611061612938565b60009182526020909120600390910201546001600160801b0316141561120a576110d3611099848381548110610eb257610eb2612938565b8483815481106110ab576110ab612938565b6000918252602090912060039091020154600160801b90046001600160801b03168b8861057b565b8382815481106110e5576110e5612938565b906000526020600020906003020160000160106101000a8154816001600160801b0302191690836001600160801b031602179055506111508984838154811061113057611130612938565b90600052602060002090600302016002015461239a90919063ffffffff16565b83828154811061116257611162612938565b906000526020600020906003020160020181905550826040518060800160405280886001611190919061294e565b6001600160801b039081168252670de0b6b3a764000060208084019190915260408084018d905260006060948501819052865460018181018955978252908390208651938701518516600160801b02939094169290921760039092029092019081559083015193810193909355015160029091015561135d565b6001811015801561125857506001600160801b0386168361122c600184612979565b8154811061123c5761123c612938565b60009182526020909120600390910201546001600160801b0316145b156113345761129b61127f8461126f600185612979565b81548110610eb257610eb2612938565b8461128b600185612979565b815481106110ab576110ab612938565b836112a7600184612979565b815481106112b7576112b7612938565b6000918252602090912060039091020180546001600160801b03928316600160801b02921691909117905561130289846112f2600185612979565b8154811061113057611130612938565b8361130e600184612979565b8154811061131e5761131e612938565b9060005260206000209060030201600201819055505b8683828154811061134757611347612938565b9060005260206000209060030201600101819055505b505b600061136c8a8c886114a1565b90506113ae61137b8284612511565b6001600160a01b038d1660009081526036602090815260408083206001600160801b038c1684529091529020549061239a565b6001600160a01b038c811660008181526036602090815260408083206001600160801b038d16845282529182902094909455518c81529092918d16917f5548c837ab068cf56a2c2479df0882a4922fd203edb7517321831d95078c5f62910160405180910390a3505060018055505050505050505050565b6039546001600160a01b031633146114805760405162461bcd60e51b815260206004820152601760248201527f63616c6c6572206d75737420626520677561726469616e000000000000000000604482015260640161048b565b6001600160a01b03166000908152603a60205260409020805460ff19169055565b6001600160a01b0380841660009081526037602090815260408083209386168352929052908120805415806115055750806000815481106114e4576114e4612938565b60009182526020909120600390910201546001600160801b03908116908416105b15611514576000915050611672565b8054600090819061152790600190612979565b905082818154811061153b5761153b612938565b60009182526020909120600390910201546001600160801b03908116908616106115d3576115c983828154811061157457611574612938565b600091825260209182902060408051608081018252600390930290910180546001600160801b038082168552600160801b9091041693830193909352600183015490820152600290910154606082015261251d565b9350505050611672565b8181111561165757600060026115e984846128d6565b6115f49060016128d6565b6115fe9190612990565b9050856001600160801b031684828154811061161c5761161c612938565b60009182526020909120600390910201546001600160801b03161161164357809250611651565b61164e600182612979565b91505b506115d3565b61166c83838154811061157457611574612938565b93505050505b9392505050565b600060335442101561168b5750600090565b60345460335461169b9042612979565b6116a59190612990565b6116b09060016128d6565b905090565b6000806116c0611679565b90506000603454826001600160801b03166116db91906129b2565b6033546116e891906128d6565b905060006116f64283612979565b603454909150600090611711670de0b6b3a7640000846129b2565b61171b9190612990565b95945050505050565b600260015414156117775760405162461bcd60e51b815260206004820152601f60248201527f5265656e7472616e637947756172643a207265656e7472616e742063616c6c00604482015260640161048b565b6002600155336000908152603a602052604090205460ff166117db5760405162461bcd60e51b815260206004820152601a60248201527f43616c6c6572206d75737420626520616e20617070726f766564000000000000604482015260640161048b565b6001600160a01b038281166000908152603560209081526040808320938716835292905220546bffffffffffffffffffffffff168181101561185f5760405162461bcd60e51b815260206004820152601a60248201527f5374616b696e673a2062616c616e636520746f6f20736d616c6c000000000000604482015260640161048b565b6118698183612511565b90506118768385836123a6565b6040517fa9059cbb0000000000000000000000000000000000000000000000000000000081526001600160a01b0384811660048301526024820184905285919082169063a9059cbb90604401602060405180830381600087803b1580156118dc57600080fd5b505af11580156118f0573d6000803e3d6000fd5b505050506040513d601f19601f820116820180604052508101906119149190612916565b50600061191f611679565b6001600160a01b038716600090815260386020908152604080832080547fffffffffffffffffffffffffffffffff00000000000000000000000000000000166001600160801b0386169081179091556036835281842090845290915290206001015490915060ff166119ed576040805160018082528183019092526000916020808301908036833701905050905086816000815181106119c1576119c1612938565b60200260200101906001600160a01b031690816001600160a01b0316815250506119eb8183611f99565b505b6001600160a01b038616600090815260366020526040812081611a1184600161294e565b6001600160801b031681526020810191909152604090810160002090516370a0823160e01b81523060048201529091506001600160a01b038416906370a082319060240160206040518083038186803b158015611a6d57600080fd5b505afa158015611a81573d6000803e3d6000fd5b505050506040513d601f19601f82011682018060405250810190611aa591906128a7565b81556001808201805460ff1916821790556001600160a01b038088166000908152603760209081526040808320938c16835292905290812080549092611aea91612979565b9050836001600160801b0316828281548110611b0857611b08612938565b60009182526020909120600390910201546001600160801b03161015611bf657604080516080810182526001600160801b03808716808352670de0b6b3a764000060208085019182528486018c81526000606087018181528a5460018181018d558c8452858420995196518916600160801b029690981695909517600390950290970193845590519483019490945593516002909101556001600160a01b038d168252603683528382209082529091522054611bc49088612511565b6001600160a01b038a1660009081526036602090815260408083206001600160801b0389168452909152902055611f3d565b836001600160801b0316828281548110611c1257611c12612938565b60009182526020909120600390910201546001600160801b03161415611cf25785828281548110611c4557611c45612938565b9060005260206000209060030201600101819055506000828281548110611c6e57611c6e612938565b906000526020600020906003020160020181905550670de0b6b3a7640000828281548110611c9e57611c9e612938565b60009182526020808320600390920290910180546001600160801b03948516600160801b029085161790556001600160a01b038c16825260368152604080832093881683529290522054611bc49088612511565b600082611d00600184612979565b81548110611d1057611d10612938565b6000918252602080832060408051608081018252600390940290910180546001600160801b038082168652600160801b9091041692840192909252600182015490830152600281015460608301529250611d699061251d565b90508160020154891015611dfd576000611dad83600201546104cf670de0b6b3a76400006001600160801b03166105e787600101548761251190919063ffffffff16565b6002840154909150611dbf908b612511565b600284018190556001840154611ddf91670de0b6b3a7640000908461057b565b83546001600160801b03918216600160801b02911617835550611e56565b611e22611e1783600201548b61251190919063ffffffff16565b600184015490612511565b60018301556000600283015581546001600160801b0316770de0b6b3a7640000000000000000000000000000000000001782555b6040805160808101825283546001600160801b038082168352600160801b90910416602082015260018401549181019190915260028301546060820152600090611e9f9061251d565b9050611ee1611eae8383612511565b6001600160a01b038e1660009081526036602090815260408083206001600160801b038d16845290915290205490612511565b6001600160a01b038d1660009081526036602090815260408083206001600160801b038c16845290915290205584548990869086908110611f2457611f24612938565b9060005260206000209060030201600101819055505050505b886001600160a01b0316886001600160a01b03167f9b1bfa7fa9ee420a16e124f794c35ac9f90472acc99140eb2f6447c714cad8eb89604051611f8291815260200190565b60405180910390a350506001805550505050505050565b611fa1611679565b6001600160801b0316816001600160801b031611156120025760405162461bcd60e51b815260206004820152601960248201527f63616e277420696e69742061206675747572652065706f636800000000000000604482015260640161048b565b60005b825181101561226b5760006036600085848151811061202657612026612938565b6020908102919091018101516001600160a01b0316825281810192909252604090810160009081206001600160801b038716808352935220915061207d57600081556001808201805460ff19169091179055612258565b6120cf84838151811061209257612092612938565b6020908102919091018101516001600160a01b031660009081526036825260408082206001600160801b0388168352909252206001015460ff1690565b156121425760405162461bcd60e51b815260206004820152602260248201527f5374616b696e673a2065706f636820616c726561647920696e697469616c697a60448201527f6564000000000000000000000000000000000000000000000000000000000000606482015260840161048b565b61216c84838151811061215757612157612938565b602002602001015160018561022a91906128ee565b6121de5760405162461bcd60e51b815260206004820152602760248201527f5374616b696e673a2070726576696f75732065706f6368206e6f7420696e697460448201527f69616c697a656400000000000000000000000000000000000000000000000000606482015260840161048b565b603660008584815181106121f4576121f4612938565b60200260200101516001600160a01b03166001600160a01b03168152602001908152602001600020600060018561222b91906128ee565b6001600160801b0316815260208101919091526040016000205481556001808201805460ff191690911790555b5080612263816129d1565b915050612005565b50806001600160801b0316336001600160a01b03167fb85c32b8d9cecc81feba78646289584a693e9a8afea40ab2fd31efae4408429f846040516122af91906129ec565b60405180910390a35050565b6122c3611679565b6001600160801b0316816001600160801b031611156123245760405162461bcd60e51b815260206004820152601960248201527f63616e277420696e69742061206675747572652065706f636800000000000000604482015260640161048b565b815b816001600160801b0316816001600160801b0316116109d3576123498482611f99565b8061235381612a39565b915050612326565b600061042a6bffffffffffffffffffffffff83166105e761237b8561254e565b4290612511565b60006116728284612990565b600061167282846129b2565b600061167282846128d6565b6001600160a01b038084166000908152603560209081526040808320938616835292905220548161243c576123e26301da9c006104cf8361235b565b6001600160a01b0385166000908152603b60205260408120805490919061240a9084906128d6565b90915550506001600160a01b0380851660009081526035602090815260408083209387168352929052908120556109d3565b428061244b846104cf8561235b565b10156124685761246161237b846104cf8561235b565b90506124a7565b6124796301da9c006104cf8461235b565b6001600160a01b0386166000908152603b6020526040812080549091906124a19084906128d6565b90915550505b6bffffffffffffffffffffffff83166124c482600160801b61238e565b6001600160a01b038088166000908152603560209081526040808320938a16835292905220911790555050505050565b600061042a8260600151836040015161239a90919063ffffffff16565b60006116728284612979565b600061042a670de0b6b3a76400006001600160801b03166104cf84602001516001600160801b03166105e7866124f4565b60008061257977ffffffffffffffffffffffff0000000000000000000000008416600160801b612382565b90508061042a5750426bffffffffffffffffffffffff83161561042a5750636296ac0092915050565b80356001600160a01b03811681146125b957600080fd5b919050565b80356001600160801b03811681146125b957600080fd5b600080604083850312156125e857600080fd5b6125f1836125a2565b91506125ff602084016125be565b90509250929050565b6000806040838503121561261b57600080fd5b612624836125a2565b91506125ff602084016125a2565b6000806000806080858703121561264857600080fd5b84359350612658602086016125be565b92506040850135915061266d606086016125be565b905092959194509250565b60006020828403121561268a57600080fd5b611672826125a2565b6000806000606084860312156126a857600080fd5b6126b1846125a2565b95602085013595506040909401359392505050565b6000806000606084860312156126db57600080fd5b6126e4846125a2565b92506126f2602085016125a2565b9150604084013590509250925092565b60008060006060848603121561271757600080fd5b612720846125a2565b925061272e602085016125a2565b915061273c604085016125be565b90509250925092565b634e487b7160e01b600052604160045260246000fd5b600082601f83011261276c57600080fd5b8135602067ffffffffffffffff8083111561278957612789612745565b8260051b6040517fffffffffffffffffffffffffffffffffffffffffffffffffffffffffffffffe0603f830116810181811084821117156127cc576127cc612745565b6040529384528581018301938381019250878511156127ea57600080fd5b83870191505b8482101561281057612801826125a2565b835291830191908301906127f0565b979650505050505050565b6000806040838503121561282e57600080fd5b823567ffffffffffffffff81111561284557600080fd5b6128518582860161275b565b9250506125ff602084016125be565b60008060006060848603121561287557600080fd5b833567ffffffffffffffff81111561288c57600080fd5b6128988682870161275b565b93505061272e602085016125be565b6000602082840312156128b957600080fd5b5051919050565b634e487b7160e01b600052601160045260246000fd5b600082198211156128e9576128e96128c0565b500190565b60006001600160801b038381169083168181101561290e5761290e6128c0565b039392505050565b60006020828403121561292857600080fd5b8151801515811461167257600080fd5b634e487b7160e01b600052603260045260246000fd5b60006001600160801b03808316818516808303821115612970576129706128c0565b01949350505050565b60008282101561298b5761298b6128c0565b500390565b6000826129ad57634e487b7160e01b600052601260045260246000fd5b500490565b60008160001904831182151516156129cc576129cc6128c0565b500290565b60006000198214156129e5576129e56128c0565b5060010190565b6020808252825182820181905260009190848201906040850190845b81811015612a2d5783516001600160a01b031683529284019291840191600101612a08565b50909695505050505050565b60006001600160801b0380831681811415612a5657612a566128c0565b600101939250505056fea26469706673582212200f09e1542ef83d24ca3c406fe8089b6136f087501089bbc2612f7d36635a75b164736f6c63430008090033",
  "immutableReferences": {},
  "source": "// SPDX-License-Identifier: Apache-2.0\npragma solidity ^0.8.4;\n\nimport \"./../@openzeppelin/contracts/token/ERC20/IERC20.sol\";\n// import \"@openzeppelin/contracts/math/SafeMath.sol\";\nimport './../@openzeppelin/contracts/utils/math/SafeMath.sol';\n// import \"@openzeppelin/contracts/utils/ReentrancyGuard.sol\";\nimport './../@openzeppelin/contracts-upgradeable/security/ReentrancyGuardUpgradeable.sol';\nimport \"./../@openzeppelin/contracts-upgradeable/proxy/utils/Initializable.sol\";\n\n\ncontract Staking2 is Initializable, ReentrancyGuardUpgradeable {\n    using SafeMath for uint256;\n\n    uint128 constant private BASE_MULTIPLIER = uint128(1 * 10 ** 18);\n\n    // timestamp for the epoch 1\n    // everything before that is considered epoch 0 which won't have a reward but allows for the initial stake\n    uint256 public epoch1Start;\n\n    // duration of each epoch\n    uint256 public epochDuration;\n\n    // holds the current balance of the user for each token\n    mapping(address => mapping(address => uint256)) private balances;\n\n    struct Pool {\n        uint256 size;\n        bool set;\n    }\n\n    // for each token, we store the total pool size\n    mapping(address => mapping(uint256 => Pool)) private poolSize;\n\n    // a checkpoint of the valid balance of a user for an epoch\n    struct Checkpoint {\n        uint128 epochId;\n        uint128 multiplier;\n        uint256 startBalance;\n        uint256 newDeposits;\n    }\n\n    // balanceCheckpoints[user][token][]\n    mapping(address => mapping(address => Checkpoint[])) private balanceCheckpoints;\n\n    mapping(address => uint128) private lastWithdrawEpochId;\n\n    event Deposit(address indexed user, address indexed tokenAddress, uint256 amount);\n    event Withdraw(address indexed user, address indexed tokenAddress, uint256 amount);\n    event ManualEpochInit(address indexed caller, uint128 indexed epochId, address[] tokens);\n    event EmergencyWithdraw(address indexed user, address indexed tokenAddress, uint256 amount);\n\n    address guardianAddress;\n    mapping(address => bool) isApproved;\n\n    // Base holding rewards tracking\n    mapping(address => uint256) private _accrued;\n\n    function initialize(address _guardianAddress, uint256 _epoch1Start, uint256 _epochDuration) public initializer {\n        guardianAddress = _guardianAddress;\n        epoch1Start = _epoch1Start;\n        epochDuration = _epochDuration;\n    }\n\n    // TODO: set up stuff to connect this to the bHome token\n\n    function approveAccess(address addr) public{\n        require(msg.sender == guardianAddress, \"caller must be guardian\");\n        isApproved[addr] = true;\n    }\n\n    function revokeAccess(address addr) public{\n        require(msg.sender == guardianAddress, \"caller must be guardian\");\n        isApproved[addr] = false;\n    }\n\n    /*\n     * Stores `amount` of `tokenAddress` tokens for the `user` into the vault\n     */\n    function deposit(address tokenAddress, address wallet, uint256 amount) public nonReentrant {\n        require(isApproved[msg.sender], \"Caller must be an approved\");\n        require(amount > 0, \"Staking: Amount must be > 0\");\n\n        IERC20 token = IERC20(tokenAddress);\n        uint256 stakedBalance = _getBalance(balances[wallet][tokenAddress]).add(amount);\n\n        // Scoping this so we don't run out of stack space <sigh>\n        {\n            // TODO: does it make sense to do this allowance thing if we are the ones doing the transfer? Probably not...\n            // uint256 allowance = token.allowance(wallet, address(this));\n            // require(allowance >= amount, \"Staking: Token allowance too small\");\n\n            _setBalance(wallet, tokenAddress, stakedBalance);\n            // token.transferFrom(wallet, address(this), amount);\n        }\n\n        // epoch logic\n        uint128 currentEpoch = getCurrentEpoch();\n        uint128 currentMultiplier = currentEpochMultiplier();\n\n        if (!epochIsInitialized(tokenAddress, currentEpoch)) {\n            address[] memory tokens = new address[](1);\n            tokens[0] = tokenAddress;\n            manualEpochInit(tokens, currentEpoch);\n        }\n\n        // update the next epoch pool size\n        Pool storage pNextEpoch = poolSize[tokenAddress][currentEpoch + 1];\n        pNextEpoch.size = token.balanceOf(address(this));\n        pNextEpoch.set = true;\n\n        Checkpoint[] storage checkpoints = balanceCheckpoints[wallet][tokenAddress];\n\n        uint256 balanceBefore = getEpochUserBalance(wallet, tokenAddress, currentEpoch);\n\n        // if there's no checkpoint yet, it means the user didn't have any activity\n        // we want to store checkpoints both for the current epoch and next epoch because\n        // if a user does a withdraw, the current epoch can also be modified and\n        // we don't want to insert another checkpoint in the middle of the array as that could be expensive\n        if (checkpoints.length == 0) {\n            checkpoints.push(Checkpoint(currentEpoch, currentMultiplier, 0, amount));\n\n            // next epoch => multiplier is 1, epoch deposits is 0\n            checkpoints.push(Checkpoint(currentEpoch + 1, BASE_MULTIPLIER, amount, 0));\n        } else {\n            uint256 last = checkpoints.length - 1;\n\n            // the last action happened in an older epoch (e.g. a deposit in epoch 3, current epoch is >=5)\n            if (checkpoints[last].epochId < currentEpoch) {\n                uint128 multiplier = computeNewMultiplier(\n                    getCheckpointBalance(checkpoints[last]),\n                    BASE_MULTIPLIER,\n                    amount,\n                    currentMultiplier\n                );\n                checkpoints.push(Checkpoint(currentEpoch, multiplier, getCheckpointBalance(checkpoints[last]), amount));\n                checkpoints.push(Checkpoint(currentEpoch + 1, BASE_MULTIPLIER, stakedBalance, 0));\n            }\n            // the last action happened in the previous epoch\n            else if (checkpoints[last].epochId == currentEpoch) {\n                checkpoints[last].multiplier = computeNewMultiplier(\n                    getCheckpointBalance(checkpoints[last]),\n                    checkpoints[last].multiplier,\n                    amount,\n                    currentMultiplier\n                );\n                checkpoints[last].newDeposits = checkpoints[last].newDeposits.add(amount);\n\n                checkpoints.push(Checkpoint(currentEpoch + 1, BASE_MULTIPLIER, stakedBalance, 0));\n            }\n            // the last action happened in the current epoch\n            else {\n                if (last >= 1 && checkpoints[last - 1].epochId == currentEpoch) {\n                    checkpoints[last - 1].multiplier = computeNewMultiplier(\n                        getCheckpointBalance(checkpoints[last - 1]),\n                        checkpoints[last - 1].multiplier,\n                        amount,\n                        currentMultiplier\n                    );\n                    checkpoints[last - 1].newDeposits = checkpoints[last - 1].newDeposits.add(amount);\n                }\n\n                checkpoints[last].startBalance = stakedBalance;\n            }\n        }\n\n        uint256 balanceAfter = getEpochUserBalance(wallet, tokenAddress, currentEpoch);\n\n        poolSize[tokenAddress][currentEpoch].size = poolSize[tokenAddress][currentEpoch].size.add(balanceAfter.sub(balanceBefore));\n\n        emit Deposit(wallet, tokenAddress, amount);\n    }\n\n    /*\n     * Removes the deposit of the user and sends the amount of `tokenAddress` back to the `user`\n     */\n    function withdraw(address tokenAddress, address wallet, uint256 amount) public nonReentrant {\n        require(isApproved[msg.sender], \"Caller must be an approved\");\n\n        uint256 stakedBalance = _getBalance(balances[wallet][tokenAddress]);\n        require(stakedBalance >= amount, \"Staking: balance too small\");\n\n        stakedBalance = stakedBalance.sub(amount);\n        _setBalance(wallet, tokenAddress, stakedBalance);\n\n        IERC20 token = IERC20(tokenAddress);\n        token.transfer(wallet, amount);\n\n        // epoch logic\n        uint128 currentEpoch = getCurrentEpoch();\n\n        lastWithdrawEpochId[tokenAddress] = currentEpoch;\n\n        if (!epochIsInitialized(tokenAddress, currentEpoch)) {\n            address[] memory tokens = new address[](1);\n            tokens[0] = tokenAddress;\n            manualEpochInit(tokens, currentEpoch);\n        }\n\n        // update the pool size of the next epoch to its current balance\n        Pool storage pNextEpoch = poolSize[tokenAddress][currentEpoch + 1];\n        pNextEpoch.size = token.balanceOf(address(this));\n        pNextEpoch.set = true;\n\n        Checkpoint[] storage checkpoints = balanceCheckpoints[wallet][tokenAddress];\n        uint256 last = checkpoints.length - 1;\n\n        // note: it's impossible to have a withdraw and no checkpoints because the balance would be 0 and revert\n\n        // there was a deposit in an older epoch (more than 1 behind [eg: previous 0, now 5]) but no other action since then\n        if (checkpoints[last].epochId < currentEpoch) {\n            checkpoints.push(Checkpoint(currentEpoch, BASE_MULTIPLIER, stakedBalance, 0));\n\n            poolSize[tokenAddress][currentEpoch].size = poolSize[tokenAddress][currentEpoch].size.sub(amount);\n        }\n        // there was a deposit in the `epochId - 1` epoch => we have a checkpoint for the current epoch\n        else if (checkpoints[last].epochId == currentEpoch) {\n            checkpoints[last].startBalance = stakedBalance;\n            checkpoints[last].newDeposits = 0;\n            checkpoints[last].multiplier = BASE_MULTIPLIER;\n\n            poolSize[tokenAddress][currentEpoch].size = poolSize[tokenAddress][currentEpoch].size.sub(amount);\n        }\n        // there was a deposit in the current epoch\n        else {\n            Checkpoint storage currentEpochCheckpoint = checkpoints[last - 1];\n\n            uint256 balanceBefore = getCheckpointEffectiveBalance(currentEpochCheckpoint);\n\n            // in case of withdraw, we have 2 branches:\n            // 1. the user withdraws less than he added in the current epoch\n            // 2. the user withdraws more than he added in the current epoch (including 0)\n            if (amount < currentEpochCheckpoint.newDeposits) {\n                uint128 avgDepositMultiplier = uint128(\n                    balanceBefore.sub(currentEpochCheckpoint.startBalance).mul(BASE_MULTIPLIER).div(currentEpochCheckpoint.newDeposits)\n                );\n\n                currentEpochCheckpoint.newDeposits = currentEpochCheckpoint.newDeposits.sub(amount);\n\n                currentEpochCheckpoint.multiplier = computeNewMultiplier(\n                    currentEpochCheckpoint.startBalance,\n                    BASE_MULTIPLIER,\n                    currentEpochCheckpoint.newDeposits,\n                    avgDepositMultiplier\n                );\n            } else {\n                currentEpochCheckpoint.startBalance = currentEpochCheckpoint.startBalance.sub(\n                    amount.sub(currentEpochCheckpoint.newDeposits)\n                );\n                currentEpochCheckpoint.newDeposits = 0;\n                currentEpochCheckpoint.multiplier = BASE_MULTIPLIER;\n            }\n\n            uint256 balanceAfter = getCheckpointEffectiveBalance(currentEpochCheckpoint);\n\n            poolSize[tokenAddress][currentEpoch].size = poolSize[tokenAddress][currentEpoch].size.sub(balanceBefore.sub(balanceAfter));\n\n            checkpoints[last].startBalance = stakedBalance;\n        }\n\n        emit Withdraw(wallet, tokenAddress, amount);\n    }\n\n    /*\n     * manualEpochInit can be used by anyone to initialize an epoch based on the previous one\n     * This is only applicable if there was no action (deposit/withdraw) in the current epoch.\n     * Any deposit and withdraw will automatically initialize the current and next epoch.\n     */\n    function manualEpochInit(address[] memory tokens, uint128 epochId) public {\n        require(epochId <= getCurrentEpoch(), \"can't init a future epoch\");\n\n        for (uint i = 0; i < tokens.length; i++) {\n            Pool storage p = poolSize[tokens[i]][epochId];\n\n            if (epochId == 0) {\n                p.size = uint256(0);\n                p.set = true;\n            } else {\n                require(!epochIsInitialized(tokens[i], epochId), \"Staking: epoch already initialized\");\n                require(epochIsInitialized(tokens[i], epochId - 1), \"Staking: previous epoch not initialized\");\n\n                p.size = poolSize[tokens[i]][epochId - 1].size;\n                p.set = true;\n            }\n        }\n\n        emit ManualEpochInit(msg.sender, epochId, tokens);\n    }\n\n    /* helpful function for testnets where the epoch is often not inited by users */\n    function manualBatchEpochInit(address[] memory tokens, uint128 startingEpochId, uint128 endingEpochId) public {\n        require(endingEpochId <= getCurrentEpoch(), \"can't init a future epoch\");\n        for (uint128 i = startingEpochId; i <= endingEpochId; i++) {\n            manualEpochInit(tokens, i);\n        }\n    }\n\n    function emergencyWithdraw(address tokenAddress) public {\n        require((getCurrentEpoch() - lastWithdrawEpochId[tokenAddress]) >= 10, \"At least 10 epochs must pass without success\");\n\n        uint256 totalUserBalance = _getBalance(balances[msg.sender][tokenAddress]);\n        require(totalUserBalance > 0, \"Amount must be > 0\");\n\n        _setBalance(msg.sender, tokenAddress, 0);\n\n        IERC20 token = IERC20(tokenAddress);\n        token.transfer(msg.sender, totalUserBalance);\n\n        emit EmergencyWithdraw(msg.sender, tokenAddress, totalUserBalance);\n    }\n\n    /*\n     * Returns the valid balance of a user that was taken into consideration in the total pool size for the epoch\n     * A deposit will only change the next epoch balance.\n     * A withdraw will decrease the current epoch (and subsequent) balance.\n     */\n    function getEpochUserBalance(address user, address token, uint128 epochId) public view returns (uint256) {\n        Checkpoint[] storage checkpoints = balanceCheckpoints[user][token];\n\n        // if there are no checkpoints, it means the user never deposited any tokens, so the balance is 0\n        if (checkpoints.length == 0 || epochId < checkpoints[0].epochId) {\n            return 0;\n        }\n\n        uint min = 0;\n        uint max = checkpoints.length - 1;\n\n        // shortcut for blocks newer than the latest checkpoint == current balance\n        if (epochId >= checkpoints[max].epochId) {\n            return getCheckpointEffectiveBalance(checkpoints[max]);\n        }\n\n        // binary search of the value in the array\n        while (max > min) {\n            uint mid = (max + min + 1) / 2;\n            if (checkpoints[mid].epochId <= epochId) {\n                min = mid;\n            } else {\n                max = mid - 1;\n            }\n        }\n\n        return getCheckpointEffectiveBalance(checkpoints[min]);\n    }\n\n    /*\n     * Returns the amount of `token` that the `user` has currently staked\n     */\n    function balanceOf(address user, address token) public view returns (uint256) {\n        return _getBalance(balances[user][token]);\n    }\n\n    /*\n     * Returns the id of the current epoch derived from block.timestamp\n     */\n    function getCurrentEpoch() public view returns (uint128) {\n        if (block.timestamp < epoch1Start) {\n            return 0;\n        }\n\n        return uint128((block.timestamp - epoch1Start) / epochDuration + 1);\n    }\n\n    /*\n     * Returns the total amount of `tokenAddress` that was locked from beginning to end of epoch identified by `epochId`\n     */\n    function getEpochPoolSize(address tokenAddress, uint128 epochId) public view returns (uint256) {\n        // Premises:\n        // 1. it's impossible to have gaps of uninitialized epochs\n        // - any deposit or withdraw initialize the current epoch which requires the previous one to be initialized\n        if (epochIsInitialized(tokenAddress, epochId)) {\n            return poolSize[tokenAddress][epochId].size;\n        }\n\n        // epochId not initialized and epoch 0 not initialized => there was never any action on this pool\n        if (!epochIsInitialized(tokenAddress, 0)) {\n            return 0;\n        }\n\n        // epoch 0 is initialized => there was an action at some point but none that initialized the epochId\n        // which means the current pool size is equal to the current balance of token held by the staking contract\n        IERC20 token = IERC20(tokenAddress);\n        return token.balanceOf(address(this));\n    }\n\n    /*\n     * Returns the percentage of time left in the current epoch\n     */\n    function currentEpochMultiplier() public view returns (uint128) {\n        uint128 currentEpoch = getCurrentEpoch();\n        uint256 currentEpochEnd = epoch1Start + currentEpoch * epochDuration;\n        uint256 timeLeft = currentEpochEnd - block.timestamp;\n        uint128 multiplier = uint128(timeLeft * BASE_MULTIPLIER / epochDuration);\n\n        return multiplier;\n    }\n\n    function computeNewMultiplier(uint256 prevBalance, uint128 prevMultiplier, uint256 amount, uint128 currentMultiplier) public pure returns (uint128) {\n        uint256 prevAmount = prevBalance.mul(prevMultiplier).div(BASE_MULTIPLIER);\n        uint256 addAmount = amount.mul(currentMultiplier).div(BASE_MULTIPLIER);\n        uint128 newMultiplier = uint128(prevAmount.add(addAmount).mul(BASE_MULTIPLIER).div(prevBalance.add(amount)));\n\n        return newMultiplier;\n    }\n\n    /*\n     * Checks if an epoch is initialized, meaning we have a pool size set for it\n     */\n    function epochIsInitialized(address token, uint128 epochId) public view returns (bool) {\n        return poolSize[token][epochId].set;\n    }\n\n    function getCheckpointBalance(Checkpoint memory c) internal pure returns (uint256) {\n        return c.startBalance.add(c.newDeposits);\n    }\n\n    function getCheckpointEffectiveBalance(Checkpoint memory c) internal pure returns (uint256) {\n        return getCheckpointBalance(c).mul(c.multiplier).div(BASE_MULTIPLIER);\n    }\n\n\n    // Base holding rewards tracking. See ERC20UpgradeableFromERC777Rewardable.\n\n    uint256 constant BASE_MASK     = 0xffffffffffffffffffffffff000000000000000000000000;\n    uint256 constant BALANCE_MASK  = 0x000000000000000000000000ffffffffffffffffffffffff;\n\n    uint256 constant SHIFT = 2 ** 128;\n\n    // 60 sec * 60 min * 24 hours * 360 days (mortgage year)\n    uint256 constant SECONDS_PER_YEAR = 31104000;\n\n    // Start time of rewards earning. June 1st 2022.\n    uint256 constant STARTING_TIME = 1654041600;\n\n    /**\n     * @dev\n     */\n    function _getBalance(uint256 balanceStorage) private view returns (uint256) {\n        return balanceStorage & BALANCE_MASK;\n    }\n\n    /**\n     * @dev\n     */\n    function _getBase(uint256 balanceStorage) private view returns (uint256) {\n        uint256 base = (balanceStorage & BASE_MASK).div(SHIFT);\n\n        if (base == 0) {\n            base = block.timestamp;\n            if (_getBalance(balanceStorage) > 0) {\n                base = STARTING_TIME;\n            }\n        }\n        return base;\n    }\n\n    /**\n     * @dev\n     */\n    function _getTokenSeconds(uint256 balanceStorage) private view returns (uint256) {\n        return (block.timestamp.sub(_getBase(balanceStorage)).mul(_getBalance(balanceStorage)));\n    }\n\n    /**\n     * @dev\n     */\n    function _setBalance(address account, address tokenAddress, uint256 balance) private {\n        uint256 balanceStorage = balances[account][tokenAddress];\n\n        if (balance == 0) {\n            _accrued[account] += _getTokenSeconds(balanceStorage).div(SECONDS_PER_YEAR);\n            balances[account][tokenAddress] = 0;\n        } else {\n            uint256 newBase = block.timestamp;\n            if (_getTokenSeconds(balanceStorage).div(balance) < block.timestamp) {\n                newBase = block.timestamp.sub(_getTokenSeconds(balanceStorage).div(balance));\n            } else {\n                _accrued[account] += _getTokenSeconds(balanceStorage).div(SECONDS_PER_YEAR);\n            }\n            balances[account][tokenAddress] = newBase.mul(SHIFT) | (balance & BALANCE_MASK);\n        }\n    }\n\n    /**\n     * @dev\n     */\n    function getAndClearReward(address account, address tokenAddress) external returns (uint256) {\n        require(isApproved[msg.sender], \"Caller must be an approved\");\n\n        uint256 reward = _getTokenSeconds(balances[account][tokenAddress]).div(SECONDS_PER_YEAR);\n\n        reward += _accrued[account];\n        _accrued[account] = 0;\n\n        balances[account][tokenAddress] = block.timestamp.mul(SHIFT) | ((balances[account][tokenAddress]) & BALANCE_MASK);\n\n        return reward;\n    }\n}\n\n",
  "sourcePath": "/Users/allan/src/mf/HomeDAO/contracts/Staking/Staking2.sol",
  "compiler": {
    "name": "solc",
    "version": "0.8.9+commit.e5eed63a.Emscripten.clang"
  },
  "schemaVersion": "3.4.7",
  "updatedAt": "2022-08-11T04:29:03.298Z",
  "devdoc": {
    "kind": "dev",
    "methods": {},
    "version": 1
  },
  "userdoc": {
    "kind": "user",
    "methods": {},
    "version": 1
  }
}