{
  "abi": [
    {
      "anonymous": false,
      "inputs": [
        {
          "indexed": true,
          "internalType": "address",
          "name": "user",
          "type": "address"
        },
        {
          "indexed": true,
          "internalType": "address",
          "name": "tokenAddress",
          "type": "address"
        },
        {
          "indexed": false,
          "internalType": "uint256",
          "name": "amount",
          "type": "uint256"
        }
      ],
      "name": "Deposit",
      "type": "event"
    },
    {
      "anonymous": false,
      "inputs": [
        {
          "indexed": true,
          "internalType": "address",
          "name": "user",
          "type": "address"
        },
        {
          "indexed": true,
          "internalType": "address",
          "name": "tokenAddress",
          "type": "address"
        },
        {
          "indexed": false,
          "internalType": "uint256",
          "name": "amount",
          "type": "uint256"
        }
      ],
      "name": "EmergencyWithdraw",
      "type": "event"
    },
    {
      "anonymous": false,
      "inputs": [
        {
          "indexed": true,
          "internalType": "address",
          "name": "caller",
          "type": "address"
        },
        {
          "indexed": true,
          "internalType": "uint128",
          "name": "epochId",
          "type": "uint128"
        },
        {
          "indexed": false,
          "internalType": "address[]",
          "name": "tokens",
          "type": "address[]"
        }
      ],
      "name": "ManualEpochInit",
      "type": "event"
    },
    {
      "anonymous": false,
      "inputs": [
        {
          "indexed": true,
          "internalType": "address",
          "name": "user",
          "type": "address"
        },
        {
          "indexed": true,
          "internalType": "address",
          "name": "tokenAddress",
          "type": "address"
        },
        {
          "indexed": false,
          "internalType": "uint256",
          "name": "amount",
          "type": "uint256"
        }
      ],
      "name": "Withdraw",
      "type": "event"
    },
    {
      "inputs": [],
      "name": "epoch1Start",
      "outputs": [
        {
          "internalType": "uint256",
          "name": "",
          "type": "uint256"
        }
      ],
      "stateMutability": "view",
      "type": "function"
    },
    {
      "inputs": [],
      "name": "epochDuration",
      "outputs": [
        {
          "internalType": "uint256",
          "name": "",
          "type": "uint256"
        }
      ],
      "stateMutability": "view",
      "type": "function"
    },
    {
      "inputs": [
        {
          "internalType": "address",
          "name": "_guardianAddress",
          "type": "address"
        },
        {
          "internalType": "uint256",
          "name": "_epoch1Start",
          "type": "uint256"
        },
        {
          "internalType": "uint256",
          "name": "_epochDuration",
          "type": "uint256"
        }
      ],
      "name": "initialize",
      "outputs": [],
      "stateMutability": "nonpayable",
      "type": "function"
    },
    {
      "inputs": [
        {
          "internalType": "address",
          "name": "addr",
          "type": "address"
        }
      ],
      "name": "approveAccess",
      "outputs": [],
      "stateMutability": "nonpayable",
      "type": "function"
    },
    {
      "inputs": [
        {
          "internalType": "address",
          "name": "addr",
          "type": "address"
        }
      ],
      "name": "revokeAccess",
      "outputs": [],
      "stateMutability": "nonpayable",
      "type": "function"
    },
    {
      "inputs": [
        {
          "internalType": "address",
          "name": "tokenAddress",
          "type": "address"
        },
        {
          "internalType": "address",
          "name": "wallet",
          "type": "address"
        },
        {
          "internalType": "uint256",
          "name": "amount",
          "type": "uint256"
        }
      ],
      "name": "deposit",
      "outputs": [],
      "stateMutability": "nonpayable",
      "type": "function"
    },
    {
      "inputs": [
        {
          "internalType": "address",
          "name": "tokenAddress",
          "type": "address"
        },
        {
          "internalType": "address",
          "name": "wallet",
          "type": "address"
        },
        {
          "internalType": "uint256",
          "name": "amount",
          "type": "uint256"
        }
      ],
      "name": "withdraw",
      "outputs": [],
      "stateMutability": "nonpayable",
      "type": "function"
    },
    {
      "inputs": [
        {
          "internalType": "address[]",
          "name": "tokens",
          "type": "address[]"
        },
        {
          "internalType": "uint128",
          "name": "epochId",
          "type": "uint128"
        }
      ],
      "name": "manualEpochInit",
      "outputs": [],
      "stateMutability": "nonpayable",
      "type": "function"
    },
    {
      "inputs": [
        {
          "internalType": "address[]",
          "name": "tokens",
          "type": "address[]"
        },
        {
          "internalType": "uint128",
          "name": "startingEpochId",
          "type": "uint128"
        },
        {
          "internalType": "uint128",
          "name": "endingEpochId",
          "type": "uint128"
        }
      ],
      "name": "manualBatchEpochInit",
      "outputs": [],
      "stateMutability": "nonpayable",
      "type": "function"
    },
    {
      "inputs": [
        {
          "internalType": "address",
          "name": "wallet",
          "type": "address"
        },
        {
          "internalType": "address",
          "name": "tokenAddress",
          "type": "address"
        }
      ],
      "name": "emergencyWithdraw",
      "outputs": [],
      "stateMutability": "nonpayable",
      "type": "function"
    },
    {
      "inputs": [
        {
          "internalType": "address",
          "name": "user",
          "type": "address"
        },
        {
          "internalType": "address",
          "name": "token",
          "type": "address"
        },
        {
          "internalType": "uint128",
          "name": "epochId",
          "type": "uint128"
        }
      ],
      "name": "getEpochUserBalance",
      "outputs": [
        {
          "internalType": "uint256",
          "name": "",
          "type": "uint256"
        }
      ],
      "stateMutability": "view",
      "type": "function"
    },
    {
      "inputs": [
        {
          "internalType": "address",
          "name": "user",
          "type": "address"
        },
        {
          "internalType": "address",
          "name": "token",
          "type": "address"
        }
      ],
      "name": "balanceOf",
      "outputs": [
        {
          "internalType": "uint256",
          "name": "",
          "type": "uint256"
        }
      ],
      "stateMutability": "view",
      "type": "function"
    },
    {
      "inputs": [],
      "name": "getCurrentEpoch",
      "outputs": [
        {
          "internalType": "uint128",
          "name": "",
          "type": "uint128"
        }
      ],
      "stateMutability": "view",
      "type": "function"
    },
    {
      "inputs": [
        {
          "internalType": "address",
          "name": "tokenAddress",
          "type": "address"
        },
        {
          "internalType": "uint128",
          "name": "epochId",
          "type": "uint128"
        }
      ],
      "name": "getEpochPoolSize",
      "outputs": [
        {
          "internalType": "uint256",
          "name": "",
          "type": "uint256"
        }
      ],
      "stateMutability": "view",
      "type": "function"
    },
    {
      "inputs": [],
      "name": "currentEpochMultiplier",
      "outputs": [
        {
          "internalType": "uint128",
          "name": "",
          "type": "uint128"
        }
      ],
      "stateMutability": "view",
      "type": "function"
    },
    {
      "inputs": [
        {
          "internalType": "uint256",
          "name": "prevBalance",
          "type": "uint256"
        },
        {
          "internalType": "uint128",
          "name": "prevMultiplier",
          "type": "uint128"
        },
        {
          "internalType": "uint256",
          "name": "amount",
          "type": "uint256"
        },
        {
          "internalType": "uint128",
          "name": "currentMultiplier",
          "type": "uint128"
        }
      ],
      "name": "computeNewMultiplier",
      "outputs": [
        {
          "internalType": "uint128",
          "name": "",
          "type": "uint128"
        }
      ],
      "stateMutability": "pure",
      "type": "function"
    },
    {
      "inputs": [
        {
          "internalType": "address",
          "name": "token",
          "type": "address"
        },
        {
          "internalType": "uint128",
          "name": "epochId",
          "type": "uint128"
        }
      ],
      "name": "epochIsInitialized",
      "outputs": [
        {
          "internalType": "bool",
          "name": "",
          "type": "bool"
        }
      ],
      "stateMutability": "view",
      "type": "function"
    },
    {
      "inputs": [
        {
          "internalType": "address",
          "name": "account",
          "type": "address"
        },
        {
          "internalType": "address",
          "name": "tokenAddress",
          "type": "address"
        }
      ],
      "name": "getAndClearReward",
      "outputs": [
        {
          "internalType": "uint256",
          "name": "",
          "type": "uint256"
        }
      ],
      "stateMutability": "nonpayable",
      "type": "function"
    }
  ],
  "bytecode": "0x608060405234801561001057600080fd5b50612b08806100206000396000f3fe608060405234801561001057600080fd5b50600436106101365760003560e01c80638c028dd0116100b2578063d9caed1211610081578063eb959c0d11610066578063eb959c0d146102a9578063f4a4341d146102bc578063f7888aec146102c557600080fd5b8063d9caed1214610283578063ea2c38ae1461029657600080fd5b80638c028dd014610209578063aa5791541461021c578063b97dd9e214610273578063ce58a2a81461027b57600080fd5b80636382d9ad116101095780637a1ac61e116100ee5780637a1ac61e146101d05780638340f549146101e357806385e68531146101f657600080fd5b80636382d9ad146101a8578063705211f4146101bd57600080fd5b80632ca32d7e1461013b5780634a0c8ce6146101615780634be41dba146101745780634ff0876a1461019f575b600080fd5b61014e610149366004612647565b61030c565b6040519081526020015b60405180910390f35b61014e61016f36600461267a565b610430565b6101876101823660046126a4565b61057b565b6040516001600160801b039091168152602001610158565b61014e60345481565b6101bb6101b636600461267a565b6105f9565b005b6101bb6101cb3660046126ea565b61088b565b6101bb6101de366004612705565b610909565b6101bb6101f1366004612738565b610a4b565b6101bb6102043660046126ea565b611498565b61014e610217366004612774565b611513565b61026361022a366004612647565b6001600160a01b03821660009081526036602090815260408083206001600160801b038516845290915290206001015460ff1692915050565b6040519015158152602001610158565b6101876116eb565b610187611727565b6101bb610291366004612738565b611796565b6101bb6102a436600461288d565b61200b565b6101bb6102b73660046128d2565b61232d565b61014e60335481565b61014e6102d336600461267a565b6001600160a01b0391821660009081526035602090815260408083209390941682529190915220546bffffffffffffffffffffffff1690565b6001600160a01b03821660009081526036602090815260408083206001600160801b038516845290915281206001015460ff161561037757506001600160a01b03821660009081526036602090815260408083206001600160801b038516845290915290205461042a565b6001600160a01b038316600090815260366020908152604080832083805290915290206001015460ff166103ad5750600061042a565b6040516370a0823160e01b815230600482015283906001600160a01b038216906370a082319060240160206040518083038186803b1580156103ee57600080fd5b505afa158015610402573d6000803e3d6000fd5b505050506040513d601f19601f820116820180604052508101906104269190612919565b9150505b92915050565b336000908152603a602052604081205460ff166104945760405162461bcd60e51b815260206004820152601a60248201527f43616c6c6572206d75737420626520616e20617070726f76656400000000000060448201526064015b60405180910390fd5b6001600160a01b0380841660009081526035602090815260408083209386168352929052908120546104d5906301da9c00906104cf906123cd565b906123f4565b6001600160a01b0385166000908152603b60205260409020549091506104fb9082612948565b6001600160a01b038086166000908152603b6020908152604080832083905560358252808320938816835292905220549091506bffffffffffffffffffffffff1661054a42600160801b612400565b6001600160a01b03808716600090815260356020908152604080832093891683529290522091179055905092915050565b60008061059d670de0b6b3a76400006104cf886001600160801b038916612400565b905060006105c0670de0b6b3a76400006104cf876001600160801b038816612400565b905060006105ed6105d1898861240c565b6104cf670de0b6b3a76400006105e7878761240c565b90612400565b98975050505050505050565b336000908152603a602052604090205460ff166106585760405162461bcd60e51b815260206004820152601a60248201527f43616c6c6572206d75737420626520616e20617070726f766564000000000000604482015260640161048b565b6001600160a01b038116600090815260386020526040902054600a906001600160801b03166106856116eb565b61068f9190612960565b6001600160801b0316101561070c5760405162461bcd60e51b815260206004820152602c60248201527f4174206c656173742031302065706f636873206d75737420706173732077697460448201527f686f757420737563636573730000000000000000000000000000000000000000606482015260840161048b565b6001600160a01b038281166000908152603560209081526040808320938516835292905220546bffffffffffffffffffffffff168061078d5760405162461bcd60e51b815260206004820152601260248201527f416d6f756e74206d757374206265203e20300000000000000000000000000000604482015260640161048b565b61079983836000612418565b6040517fa9059cbb0000000000000000000000000000000000000000000000000000000081526001600160a01b0384811660048301526024820183905283919082169063a9059cbb90604401602060405180830381600087803b1580156107ff57600080fd5b505af1158015610813573d6000803e3d6000fd5b505050506040513d601f19601f820116820180604052508101906108379190612988565b50826001600160a01b0316846001600160a01b03167ff24ef89f38eadc1bde50701ad6e4d6d11a2dc24f7cf834a486991f38833285048460405161087d91815260200190565b60405180910390a350505050565b6039546001600160a01b031633146108e55760405162461bcd60e51b815260206004820152601760248201527f63616c6c6572206d75737420626520677561726469616e000000000000000000604482015260640161048b565b6001600160a01b03166000908152603a60205260409020805460ff19166001179055565b600054610100900460ff166109245760005460ff1615610928565b303b155b61099a5760405162461bcd60e51b815260206004820152602e60248201527f496e697469616c697a61626c653a20636f6e747261637420697320616c72656160448201527f647920696e697469616c697a6564000000000000000000000000000000000000606482015260840161048b565b600054610100900460ff161580156109d957600080547fffffffffffffffffffffffffffffffffffffffffffffffffffffffffffff0000166101011790555b603980547fffffffffffffffffffffffff0000000000000000000000000000000000000000166001600160a01b038616179055603383905560348290558015610a4557600080547fffffffffffffffffffffffffffffffffffffffffffffffffffffffffffff00ff1690555b50505050565b60026001541415610a9e5760405162461bcd60e51b815260206004820152601f60248201527f5265656e7472616e637947756172643a207265656e7472616e742063616c6c00604482015260640161048b565b6002600155336000908152603a602052604090205460ff16610b025760405162461bcd60e51b815260206004820152601a60248201527f43616c6c6572206d75737420626520616e20617070726f766564000000000000604482015260640161048b565b60008111610b525760405162461bcd60e51b815260206004820152601b60248201527f5374616b696e673a20416d6f756e74206d757374206265203e20300000000000604482015260640161048b565b6001600160a01b038281166000908152603560209081526040808320938716835292905290812054849190610b95906bffffffffffffffffffffffff168461240c565b9050610ba2848683612418565b6000610bac6116eb565b90506000610bb8611727565b6001600160a01b03881660009081526036602090815260408083206001600160801b038716845290915290206001015490915060ff16610c5457604080516001808252818301909252600091602080830190803683370190505090508781600081518110610c2857610c286129aa565b60200260200101906001600160a01b031690816001600160a01b031681525050610c52818461200b565b505b6001600160a01b038716600090815260366020526040812081610c788560016129c0565b6001600160801b031681526020810191909152604090810160002090516370a0823160e01b81523060048201529091506001600160a01b038616906370a082319060240160206040518083038186803b158015610cd457600080fd5b505afa158015610ce8573d6000803e3d6000fd5b505050506040513d601f19601f82011682018060405250810190610d0c9190612919565b81556001808201805460ff191690911790556001600160a01b038088166000908152603760209081526040808320938c16835292905290812090610d51898b87611513565b8254909150610ebb57816040518060800160405280876001600160801b03168152602001866001600160801b03168152602001600081526020018a815250908060018154018082558091505060019003906000526020600020906003020160009091909190915060008201518160000160006101000a8154816001600160801b0302191690836001600160801b0316021790555060208201518160000160106101000a8154816001600160801b0302191690836001600160801b0316021790555060408201518160010155606082015181600201555050816040518060800160405280876001610e4191906129c0565b6001600160801b039081168252670de0b6b3a764000060208084019190915260408084018e905260006060948501819052865460018181018955978252908390208651938701518516600160801b0293909416929092176003909202909201908155908301519381019390935501516002909101556113d1565b8154600090610ecc906001906129eb565b9050856001600160801b0316838281548110610eea57610eea6129aa565b60009182526020909120600390910201546001600160801b031610156110b7576000610f89610f79858481548110610f2457610f246129aa565b600091825260209182902060408051608081018252600390930290910180546001600160801b038082168552600160801b90910416938301939093526001830154908201526002909101546060820152612566565b670de0b6b3a76400008c8961057b565b9050836040518060800160405280896001600160801b03168152602001836001600160801b03168152602001610fca878681548110610f2457610f246129aa565b815260209081018d90528254600181810185556000948552938290208351928401516001600160801b03908116600160801b029316929092176003909102909101908155604080830151828501556060909201516002909101558051608081019091528591819061103c908b906129c0565b6001600160801b039081168252670de0b6b3a764000060208084019190915260408084018e905260006060948501819052865460018181018955978252908390208651938701518516600160801b029390941692909217600390920290920190815590830151938101939093550151600290910155506113cf565b856001600160801b03168382815481106110d3576110d36129aa565b60009182526020909120600390910201546001600160801b0316141561127c5761114561110b848381548110610f2457610f246129aa565b84838154811061111d5761111d6129aa565b6000918252602090912060039091020154600160801b90046001600160801b03168b8861057b565b838281548110611157576111576129aa565b906000526020600020906003020160000160106101000a8154816001600160801b0302191690836001600160801b031602179055506111c2898483815481106111a2576111a26129aa565b90600052602060002090600302016002015461240c90919063ffffffff16565b8382815481106111d4576111d46129aa565b90600052602060002090600302016002018190555082604051806080016040528088600161120291906129c0565b6001600160801b039081168252670de0b6b3a764000060208084019190915260408084018d905260006060948501819052865460018181018955978252908390208651938701518516600160801b0293909416929092176003909202909201908155908301519381019390935501516002909101556113cf565b600181101580156112ca57506001600160801b0386168361129e6001846129eb565b815481106112ae576112ae6129aa565b60009182526020909120600390910201546001600160801b0316145b156113a65761130d6112f1846112e16001856129eb565b81548110610f2457610f246129aa565b846112fd6001856129eb565b8154811061111d5761111d6129aa565b836113196001846129eb565b81548110611329576113296129aa565b6000918252602090912060039091020180546001600160801b03928316600160801b02921691909117905561137489846113646001856129eb565b815481106111a2576111a26129aa565b836113806001846129eb565b81548110611390576113906129aa565b9060005260206000209060030201600201819055505b868382815481106113b9576113b96129aa565b9060005260206000209060030201600101819055505b505b60006113de8a8c88611513565b90506114206113ed8284612583565b6001600160a01b038d1660009081526036602090815260408083206001600160801b038c1684529091529020549061240c565b6001600160a01b038c811660008181526036602090815260408083206001600160801b038d16845282529182902094909455518c81529092918d16917f5548c837ab068cf56a2c2479df0882a4922fd203edb7517321831d95078c5f62910160405180910390a3505060018055505050505050505050565b6039546001600160a01b031633146114f25760405162461bcd60e51b815260206004820152601760248201527f63616c6c6572206d75737420626520677561726469616e000000000000000000604482015260640161048b565b6001600160a01b03166000908152603a60205260409020805460ff19169055565b6001600160a01b038084166000908152603760209081526040808320938616835292905290812080541580611577575080600081548110611556576115566129aa565b60009182526020909120600390910201546001600160801b03908116908416105b156115865760009150506116e4565b80546000908190611599906001906129eb565b90508281815481106115ad576115ad6129aa565b60009182526020909120600390910201546001600160801b03908116908616106116455761163b8382815481106115e6576115e66129aa565b600091825260209182902060408051608081018252600390930290910180546001600160801b038082168552600160801b9091041693830193909352600183015490820152600290910154606082015261258f565b93505050506116e4565b818111156116c9576000600261165b8484612948565b611666906001612948565b6116709190612a02565b9050856001600160801b031684828154811061168e5761168e6129aa565b60009182526020909120600390910201546001600160801b0316116116b5578092506116c3565b6116c06001826129eb565b91505b50611645565b6116de8383815481106115e6576115e66129aa565b93505050505b9392505050565b60006033544210156116fd5750600090565b60345460335461170d90426129eb565b6117179190612a02565b611722906001612948565b905090565b6000806117326116eb565b90506000603454826001600160801b031661174d9190612a24565b60335461175a9190612948565b9050600061176842836129eb565b603454909150600090611783670de0b6b3a764000084612a24565b61178d9190612a02565b95945050505050565b600260015414156117e95760405162461bcd60e51b815260206004820152601f60248201527f5265656e7472616e637947756172643a207265656e7472616e742063616c6c00604482015260640161048b565b6002600155336000908152603a602052604090205460ff1661184d5760405162461bcd60e51b815260206004820152601a60248201527f43616c6c6572206d75737420626520616e20617070726f766564000000000000604482015260640161048b565b6001600160a01b038281166000908152603560209081526040808320938716835292905220546bffffffffffffffffffffffff16818110156118d15760405162461bcd60e51b815260206004820152601a60248201527f5374616b696e673a2062616c616e636520746f6f20736d616c6c000000000000604482015260640161048b565b6118db8183612583565b90506118e8838583612418565b6040517fa9059cbb0000000000000000000000000000000000000000000000000000000081526001600160a01b0384811660048301526024820184905285919082169063a9059cbb90604401602060405180830381600087803b15801561194e57600080fd5b505af1158015611962573d6000803e3d6000fd5b505050506040513d601f19601f820116820180604052508101906119869190612988565b5060006119916116eb565b6001600160a01b038716600090815260386020908152604080832080547fffffffffffffffffffffffffffffffff00000000000000000000000000000000166001600160801b0386169081179091556036835281842090845290915290206001015490915060ff16611a5f57604080516001808252818301909252600091602080830190803683370190505090508681600081518110611a3357611a336129aa565b60200260200101906001600160a01b031690816001600160a01b031681525050611a5d818361200b565b505b6001600160a01b038616600090815260366020526040812081611a838460016129c0565b6001600160801b031681526020810191909152604090810160002090516370a0823160e01b81523060048201529091506001600160a01b038416906370a082319060240160206040518083038186803b158015611adf57600080fd5b505afa158015611af3573d6000803e3d6000fd5b505050506040513d601f19601f82011682018060405250810190611b179190612919565b81556001808201805460ff1916821790556001600160a01b038088166000908152603760209081526040808320938c16835292905290812080549092611b5c916129eb565b9050836001600160801b0316828281548110611b7a57611b7a6129aa565b60009182526020909120600390910201546001600160801b03161015611c6857604080516080810182526001600160801b03808716808352670de0b6b3a764000060208085019182528486018c81526000606087018181528a5460018181018d558c8452858420995196518916600160801b029690981695909517600390950290970193845590519483019490945593516002909101556001600160a01b038d168252603683528382209082529091522054611c369088612583565b6001600160a01b038a1660009081526036602090815260408083206001600160801b0389168452909152902055611faf565b836001600160801b0316828281548110611c8457611c846129aa565b60009182526020909120600390910201546001600160801b03161415611d645785828281548110611cb757611cb76129aa565b9060005260206000209060030201600101819055506000828281548110611ce057611ce06129aa565b906000526020600020906003020160020181905550670de0b6b3a7640000828281548110611d1057611d106129aa565b60009182526020808320600390920290910180546001600160801b03948516600160801b029085161790556001600160a01b038c16825260368152604080832093881683529290522054611c369088612583565b600082611d726001846129eb565b81548110611d8257611d826129aa565b6000918252602080832060408051608081018252600390940290910180546001600160801b038082168652600160801b9091041692840192909252600182015490830152600281015460608301529250611ddb9061258f565b90508160020154891015611e6f576000611e1f83600201546104cf670de0b6b3a76400006001600160801b03166105e787600101548761258390919063ffffffff16565b6002840154909150611e31908b612583565b600284018190556001840154611e5191670de0b6b3a7640000908461057b565b83546001600160801b03918216600160801b02911617835550611ec8565b611e94611e8983600201548b61258390919063ffffffff16565b600184015490612583565b60018301556000600283015581546001600160801b0316770de0b6b3a7640000000000000000000000000000000000001782555b6040805160808101825283546001600160801b038082168352600160801b90910416602082015260018401549181019190915260028301546060820152600090611f119061258f565b9050611f53611f208383612583565b6001600160a01b038e1660009081526036602090815260408083206001600160801b038d16845290915290205490612583565b6001600160a01b038d1660009081526036602090815260408083206001600160801b038c16845290915290205584548990869086908110611f9657611f966129aa565b9060005260206000209060030201600101819055505050505b886001600160a01b0316886001600160a01b03167f9b1bfa7fa9ee420a16e124f794c35ac9f90472acc99140eb2f6447c714cad8eb89604051611ff491815260200190565b60405180910390a350506001805550505050505050565b6120136116eb565b6001600160801b0316816001600160801b031611156120745760405162461bcd60e51b815260206004820152601960248201527f63616e277420696e69742061206675747572652065706f636800000000000000604482015260640161048b565b60005b82518110156122dd57600060366000858481518110612098576120986129aa565b6020908102919091018101516001600160a01b0316825281810192909252604090810160009081206001600160801b03871680835293522091506120ef57600081556001808201805460ff191690911790556122ca565b612141848381518110612104576121046129aa565b6020908102919091018101516001600160a01b031660009081526036825260408082206001600160801b0388168352909252206001015460ff1690565b156121b45760405162461bcd60e51b815260206004820152602260248201527f5374616b696e673a2065706f636820616c726561647920696e697469616c697a60448201527f6564000000000000000000000000000000000000000000000000000000000000606482015260840161048b565b6121de8483815181106121c9576121c96129aa565b602002602001015160018561022a9190612960565b6122505760405162461bcd60e51b815260206004820152602760248201527f5374616b696e673a2070726576696f75732065706f6368206e6f7420696e697460448201527f69616c697a656400000000000000000000000000000000000000000000000000606482015260840161048b565b60366000858481518110612266576122666129aa565b60200260200101516001600160a01b03166001600160a01b03168152602001908152602001600020600060018561229d9190612960565b6001600160801b0316815260208101919091526040016000205481556001808201805460ff191690911790555b50806122d581612a43565b915050612077565b50806001600160801b0316336001600160a01b03167fb85c32b8d9cecc81feba78646289584a693e9a8afea40ab2fd31efae4408429f846040516123219190612a5e565b60405180910390a35050565b6123356116eb565b6001600160801b0316816001600160801b031611156123965760405162461bcd60e51b815260206004820152601960248201527f63616e277420696e69742061206675747572652065706f636800000000000000604482015260640161048b565b815b816001600160801b0316816001600160801b031611610a45576123bb848261200b565b806123c581612aab565b915050612398565b600061042a6bffffffffffffffffffffffff83166105e76123ed856125c0565b4290612583565b60006116e48284612a02565b60006116e48284612a24565b60006116e48284612948565b6001600160a01b03808416600090815260356020908152604080832093861683529290522054816124ae576124546301da9c006104cf836123cd565b6001600160a01b0385166000908152603b60205260408120805490919061247c908490612948565b90915550506001600160a01b038085166000908152603560209081526040808320938716835292905290812055610a45565b42806124bd846104cf856123cd565b10156124da576124d36123ed846104cf856123cd565b9050612519565b6124eb6301da9c006104cf846123cd565b6001600160a01b0386166000908152603b602052604081208054909190612513908490612948565b90915550505b6bffffffffffffffffffffffff831661253682600160801b612400565b6001600160a01b038088166000908152603560209081526040808320938a16835292905220911790555050505050565b600061042a8260600151836040015161240c90919063ffffffff16565b60006116e482846129eb565b600061042a670de0b6b3a76400006001600160801b03166104cf84602001516001600160801b03166105e786612566565b6000806125eb77ffffffffffffffffffffffff0000000000000000000000008416600160801b6123f4565b90508061042a5750426bffffffffffffffffffffffff83161561042a5750636296ac0092915050565b80356001600160a01b038116811461262b57600080fd5b919050565b80356001600160801b038116811461262b57600080fd5b6000806040838503121561265a57600080fd5b61266383612614565b915061267160208401612630565b90509250929050565b6000806040838503121561268d57600080fd5b61269683612614565b915061267160208401612614565b600080600080608085870312156126ba57600080fd5b843593506126ca60208601612630565b9250604085013591506126df60608601612630565b905092959194509250565b6000602082840312156126fc57600080fd5b6116e482612614565b60008060006060848603121561271a57600080fd5b61272384612614565b95602085013595506040909401359392505050565b60008060006060848603121561274d57600080fd5b61275684612614565b925061276460208501612614565b9150604084013590509250925092565b60008060006060848603121561278957600080fd5b61279284612614565b92506127a060208501612614565b91506127ae60408501612630565b90509250925092565b634e487b7160e01b600052604160045260246000fd5b600082601f8301126127de57600080fd5b8135602067ffffffffffffffff808311156127fb576127fb6127b7565b8260051b6040517fffffffffffffffffffffffffffffffffffffffffffffffffffffffffffffffe0603f8301168101818110848211171561283e5761283e6127b7565b60405293845285810183019383810192508785111561285c57600080fd5b83870191505b848210156128825761287382612614565b83529183019190830190612862565b979650505050505050565b600080604083850312156128a057600080fd5b823567ffffffffffffffff8111156128b757600080fd5b6128c3858286016127cd565b92505061267160208401612630565b6000806000606084860312156128e757600080fd5b833567ffffffffffffffff8111156128fe57600080fd5b61290a868287016127cd565b9350506127a060208501612630565b60006020828403121561292b57600080fd5b5051919050565b634e487b7160e01b600052601160045260246000fd5b6000821982111561295b5761295b612932565b500190565b60006001600160801b038381169083168181101561298057612980612932565b039392505050565b60006020828403121561299a57600080fd5b815180151581146116e457600080fd5b634e487b7160e01b600052603260045260246000fd5b60006001600160801b038083168185168083038211156129e2576129e2612932565b01949350505050565b6000828210156129fd576129fd612932565b500390565b600082612a1f57634e487b7160e01b600052601260045260246000fd5b500490565b6000816000190483118215151615612a3e57612a3e612932565b500290565b6000600019821415612a5757612a57612932565b5060010190565b6020808252825182820181905260009190848201906040850190845b81811015612a9f5783516001600160a01b031683529284019291840191600101612a7a565b50909695505050505050565b60006001600160801b0380831681811415612ac857612ac8612932565b600101939250505056fea2646970667358221220c5cfc9fab0a948585b923d6e5e4a0912f10d95dac5bb4addae79889c0631c01264736f6c63430008090033",
  "compiler": {
    "name": "solc",
    "version": "0.8.9+commit.e5eed63a.Emscripten.clang"
  },
  "contractName": "Staking3",
  "devdoc": {
    "kind": "dev",
    "methods": {},
    "version": 1
  },
  "immutableReferences": {},
  "schemaVersion": "3.4.7",
  "source": "// SPDX-License-Identifier: Apache-2.0\npragma solidity ^0.8.4;\n\nimport \"./../@openzeppelin/contracts/token/ERC20/IERC20.sol\";\n// import \"@openzeppelin/contracts/math/SafeMath.sol\";\nimport './../@openzeppelin/contracts/utils/math/SafeMath.sol';\n// import \"@openzeppelin/contracts/utils/ReentrancyGuard.sol\";\nimport './../@openzeppelin/contracts-upgradeable/security/ReentrancyGuardUpgradeable.sol';\nimport \"./../@openzeppelin/contracts-upgradeable/proxy/utils/Initializable.sol\";\n\n\ncontract Staking3 is Initializable, ReentrancyGuardUpgradeable {\n    using SafeMath for uint256;\n\n    uint128 constant private BASE_MULTIPLIER = uint128(1 * 10 ** 18);\n\n    // timestamp for the epoch 1\n    // everything before that is considered epoch 0 which won't have a reward but allows for the initial stake\n    uint256 public epoch1Start;\n\n    // duration of each epoch\n    uint256 public epochDuration;\n\n    // holds the current balance of the user for each token\n    mapping(address => mapping(address => uint256)) private balances;\n\n    struct Pool {\n        uint256 size;\n        bool set;\n    }\n\n    // for each token, we store the total pool size\n    mapping(address => mapping(uint256 => Pool)) private poolSize;\n\n    // a checkpoint of the valid balance of a user for an epoch\n    struct Checkpoint {\n        uint128 epochId;\n        uint128 multiplier;\n        uint256 startBalance;\n        uint256 newDeposits;\n    }\n\n    // balanceCheckpoints[user][token][]\n    mapping(address => mapping(address => Checkpoint[])) private balanceCheckpoints;\n\n    mapping(address => uint128) private lastWithdrawEpochId;\n\n    event Deposit(address indexed user, address indexed tokenAddress, uint256 amount);\n    event Withdraw(address indexed user, address indexed tokenAddress, uint256 amount);\n    event ManualEpochInit(address indexed caller, uint128 indexed epochId, address[] tokens);\n    event EmergencyWithdraw(address indexed user, address indexed tokenAddress, uint256 amount);\n\n    address guardianAddress;\n    mapping(address => bool) isApproved;\n\n    // Base holding rewards tracking\n    mapping(address => uint256) private _accrued;\n\n    function initialize(address _guardianAddress, uint256 _epoch1Start, uint256 _epochDuration) public initializer {\n        guardianAddress = _guardianAddress;\n        epoch1Start = _epoch1Start;\n        epochDuration = _epochDuration;\n    }\n\n    // TODO: set up stuff to connect this to the bHome token\n\n    function approveAccess(address addr) public{\n        require(msg.sender == guardianAddress, \"caller must be guardian\");\n        isApproved[addr] = true;\n    }\n\n    function revokeAccess(address addr) public{\n        require(msg.sender == guardianAddress, \"caller must be guardian\");\n        isApproved[addr] = false;\n    }\n\n    /*\n     * Stores `amount` of `tokenAddress` tokens for the `user` into the vault\n     */\n    function deposit(address tokenAddress, address wallet, uint256 amount) public nonReentrant {\n        require(isApproved[msg.sender], \"Caller must be an approved\");\n        require(amount > 0, \"Staking: Amount must be > 0\");\n\n        IERC20 token = IERC20(tokenAddress);\n        uint256 stakedBalance = _getBalance(balances[wallet][tokenAddress]).add(amount);\n\n        // Scoping this so we don't run out of stack space <sigh>\n        {\n            // TODO: does it make sense to do this allowance thing if we are the ones doing the transfer? Probably not...\n            // uint256 allowance = token.allowance(wallet, address(this));\n            // require(allowance >= amount, \"Staking: Token allowance too small\");\n\n            _setBalance(wallet, tokenAddress, stakedBalance);\n            // token.transferFrom(wallet, address(this), amount);\n        }\n\n        // epoch logic\n        uint128 currentEpoch = getCurrentEpoch();\n        uint128 currentMultiplier = currentEpochMultiplier();\n\n        if (!epochIsInitialized(tokenAddress, currentEpoch)) {\n            address[] memory tokens = new address[](1);\n            tokens[0] = tokenAddress;\n            manualEpochInit(tokens, currentEpoch);\n        }\n\n        // update the next epoch pool size\n        Pool storage pNextEpoch = poolSize[tokenAddress][currentEpoch + 1];\n        pNextEpoch.size = token.balanceOf(address(this));\n        pNextEpoch.set = true;\n\n        Checkpoint[] storage checkpoints = balanceCheckpoints[wallet][tokenAddress];\n\n        uint256 balanceBefore = getEpochUserBalance(wallet, tokenAddress, currentEpoch);\n\n        // if there's no checkpoint yet, it means the user didn't have any activity\n        // we want to store checkpoints both for the current epoch and next epoch because\n        // if a user does a withdraw, the current epoch can also be modified and\n        // we don't want to insert another checkpoint in the middle of the array as that could be expensive\n        if (checkpoints.length == 0) {\n            checkpoints.push(Checkpoint(currentEpoch, currentMultiplier, 0, amount));\n\n            // next epoch => multiplier is 1, epoch deposits is 0\n            checkpoints.push(Checkpoint(currentEpoch + 1, BASE_MULTIPLIER, amount, 0));\n        } else {\n            uint256 last = checkpoints.length - 1;\n\n            // the last action happened in an older epoch (e.g. a deposit in epoch 3, current epoch is >=5)\n            if (checkpoints[last].epochId < currentEpoch) {\n                uint128 multiplier = computeNewMultiplier(\n                    getCheckpointBalance(checkpoints[last]),\n                    BASE_MULTIPLIER,\n                    amount,\n                    currentMultiplier\n                );\n                checkpoints.push(Checkpoint(currentEpoch, multiplier, getCheckpointBalance(checkpoints[last]), amount));\n                checkpoints.push(Checkpoint(currentEpoch + 1, BASE_MULTIPLIER, stakedBalance, 0));\n            }\n            // the last action happened in the previous epoch\n            else if (checkpoints[last].epochId == currentEpoch) {\n                checkpoints[last].multiplier = computeNewMultiplier(\n                    getCheckpointBalance(checkpoints[last]),\n                    checkpoints[last].multiplier,\n                    amount,\n                    currentMultiplier\n                );\n                checkpoints[last].newDeposits = checkpoints[last].newDeposits.add(amount);\n\n                checkpoints.push(Checkpoint(currentEpoch + 1, BASE_MULTIPLIER, stakedBalance, 0));\n            }\n            // the last action happened in the current epoch\n            else {\n                if (last >= 1 && checkpoints[last - 1].epochId == currentEpoch) {\n                    checkpoints[last - 1].multiplier = computeNewMultiplier(\n                        getCheckpointBalance(checkpoints[last - 1]),\n                        checkpoints[last - 1].multiplier,\n                        amount,\n                        currentMultiplier\n                    );\n                    checkpoints[last - 1].newDeposits = checkpoints[last - 1].newDeposits.add(amount);\n                }\n\n                checkpoints[last].startBalance = stakedBalance;\n            }\n        }\n\n        uint256 balanceAfter = getEpochUserBalance(wallet, tokenAddress, currentEpoch);\n\n        poolSize[tokenAddress][currentEpoch].size = poolSize[tokenAddress][currentEpoch].size.add(balanceAfter.sub(balanceBefore));\n\n        emit Deposit(wallet, tokenAddress, amount);\n    }\n\n    /*\n     * Removes the deposit of the user and sends the amount of `tokenAddress` back to the `user`\n     */\n    function withdraw(address tokenAddress, address wallet, uint256 amount) public nonReentrant {\n        require(isApproved[msg.sender], \"Caller must be an approved\");\n\n        uint256 stakedBalance = _getBalance(balances[wallet][tokenAddress]);\n        require(stakedBalance >= amount, \"Staking: balance too small\");\n\n        stakedBalance = stakedBalance.sub(amount);\n        _setBalance(wallet, tokenAddress, stakedBalance);\n\n        IERC20 token = IERC20(tokenAddress);\n        token.transfer(wallet, amount);\n\n        // epoch logic\n        uint128 currentEpoch = getCurrentEpoch();\n\n        lastWithdrawEpochId[tokenAddress] = currentEpoch;\n\n        if (!epochIsInitialized(tokenAddress, currentEpoch)) {\n            address[] memory tokens = new address[](1);\n            tokens[0] = tokenAddress;\n            manualEpochInit(tokens, currentEpoch);\n        }\n\n        // update the pool size of the next epoch to its current balance\n        Pool storage pNextEpoch = poolSize[tokenAddress][currentEpoch + 1];\n        pNextEpoch.size = token.balanceOf(address(this));\n        pNextEpoch.set = true;\n\n        Checkpoint[] storage checkpoints = balanceCheckpoints[wallet][tokenAddress];\n        uint256 last = checkpoints.length - 1;\n\n        // note: it's impossible to have a withdraw and no checkpoints because the balance would be 0 and revert\n\n        // there was a deposit in an older epoch (more than 1 behind [eg: previous 0, now 5]) but no other action since then\n        if (checkpoints[last].epochId < currentEpoch) {\n            checkpoints.push(Checkpoint(currentEpoch, BASE_MULTIPLIER, stakedBalance, 0));\n\n            poolSize[tokenAddress][currentEpoch].size = poolSize[tokenAddress][currentEpoch].size.sub(amount);\n        }\n        // there was a deposit in the `epochId - 1` epoch => we have a checkpoint for the current epoch\n        else if (checkpoints[last].epochId == currentEpoch) {\n            checkpoints[last].startBalance = stakedBalance;\n            checkpoints[last].newDeposits = 0;\n            checkpoints[last].multiplier = BASE_MULTIPLIER;\n\n            poolSize[tokenAddress][currentEpoch].size = poolSize[tokenAddress][currentEpoch].size.sub(amount);\n        }\n        // there was a deposit in the current epoch\n        else {\n            Checkpoint storage currentEpochCheckpoint = checkpoints[last - 1];\n\n            uint256 balanceBefore = getCheckpointEffectiveBalance(currentEpochCheckpoint);\n\n            // in case of withdraw, we have 2 branches:\n            // 1. the user withdraws less than he added in the current epoch\n            // 2. the user withdraws more than he added in the current epoch (including 0)\n            if (amount < currentEpochCheckpoint.newDeposits) {\n                uint128 avgDepositMultiplier = uint128(\n                    balanceBefore.sub(currentEpochCheckpoint.startBalance).mul(BASE_MULTIPLIER).div(currentEpochCheckpoint.newDeposits)\n                );\n\n                currentEpochCheckpoint.newDeposits = currentEpochCheckpoint.newDeposits.sub(amount);\n\n                currentEpochCheckpoint.multiplier = computeNewMultiplier(\n                    currentEpochCheckpoint.startBalance,\n                    BASE_MULTIPLIER,\n                    currentEpochCheckpoint.newDeposits,\n                    avgDepositMultiplier\n                );\n            } else {\n                currentEpochCheckpoint.startBalance = currentEpochCheckpoint.startBalance.sub(\n                    amount.sub(currentEpochCheckpoint.newDeposits)\n                );\n                currentEpochCheckpoint.newDeposits = 0;\n                currentEpochCheckpoint.multiplier = BASE_MULTIPLIER;\n            }\n\n            uint256 balanceAfter = getCheckpointEffectiveBalance(currentEpochCheckpoint);\n\n            poolSize[tokenAddress][currentEpoch].size = poolSize[tokenAddress][currentEpoch].size.sub(balanceBefore.sub(balanceAfter));\n\n            checkpoints[last].startBalance = stakedBalance;\n        }\n\n        emit Withdraw(wallet, tokenAddress, amount);\n    }\n\n    /*\n     * manualEpochInit can be used by anyone to initialize an epoch based on the previous one\n     * This is only applicable if there was no action (deposit/withdraw) in the current epoch.\n     * Any deposit and withdraw will automatically initialize the current and next epoch.\n     */\n    function manualEpochInit(address[] memory tokens, uint128 epochId) public {\n        require(epochId <= getCurrentEpoch(), \"can't init a future epoch\");\n\n        for (uint i = 0; i < tokens.length; i++) {\n            Pool storage p = poolSize[tokens[i]][epochId];\n\n            if (epochId == 0) {\n                p.size = uint256(0);\n                p.set = true;\n            } else {\n                require(!epochIsInitialized(tokens[i], epochId), \"Staking: epoch already initialized\");\n                require(epochIsInitialized(tokens[i], epochId - 1), \"Staking: previous epoch not initialized\");\n\n                p.size = poolSize[tokens[i]][epochId - 1].size;\n                p.set = true;\n            }\n        }\n\n        emit ManualEpochInit(msg.sender, epochId, tokens);\n    }\n\n    /* helpful function for testnets where the epoch is often not inited by users */\n    function manualBatchEpochInit(address[] memory tokens, uint128 startingEpochId, uint128 endingEpochId) public {\n        require(endingEpochId <= getCurrentEpoch(), \"can't init a future epoch\");\n        for (uint128 i = startingEpochId; i <= endingEpochId; i++) {\n            manualEpochInit(tokens, i);\n        }\n    }\n\n    function emergencyWithdraw(address wallet, address tokenAddress) public {\n        require(isApproved[msg.sender], \"Caller must be an approved\");\n        require((getCurrentEpoch() - lastWithdrawEpochId[tokenAddress]) >= 10, \"At least 10 epochs must pass without success\");\n\n        uint256 totalUserBalance = _getBalance(balances[wallet][tokenAddress]);\n        require(totalUserBalance > 0, \"Amount must be > 0\");\n\n        _setBalance(wallet, tokenAddress, 0);\n\n        IERC20 token = IERC20(tokenAddress);\n        token.transfer(wallet, totalUserBalance);\n\n        emit EmergencyWithdraw(wallet, tokenAddress, totalUserBalance);\n    }\n\n    /*\n     * Returns the valid balance of a user that was taken into consideration in the total pool size for the epoch\n     * A deposit will only change the next epoch balance.\n     * A withdraw will decrease the current epoch (and subsequent) balance.\n     */\n    function getEpochUserBalance(address user, address token, uint128 epochId) public view returns (uint256) {\n        Checkpoint[] storage checkpoints = balanceCheckpoints[user][token];\n\n        // if there are no checkpoints, it means the user never deposited any tokens, so the balance is 0\n        if (checkpoints.length == 0 || epochId < checkpoints[0].epochId) {\n            return 0;\n        }\n\n        uint min = 0;\n        uint max = checkpoints.length - 1;\n\n        // shortcut for blocks newer than the latest checkpoint == current balance\n        if (epochId >= checkpoints[max].epochId) {\n            return getCheckpointEffectiveBalance(checkpoints[max]);\n        }\n\n        // binary search of the value in the array\n        while (max > min) {\n            uint mid = (max + min + 1) / 2;\n            if (checkpoints[mid].epochId <= epochId) {\n                min = mid;\n            } else {\n                max = mid - 1;\n            }\n        }\n\n        return getCheckpointEffectiveBalance(checkpoints[min]);\n    }\n\n    /*\n     * Returns the amount of `token` that the `user` has currently staked\n     */\n    function balanceOf(address user, address token) public view returns (uint256) {\n        return _getBalance(balances[user][token]);\n    }\n\n    /*\n     * Returns the id of the current epoch derived from block.timestamp\n     */\n    function getCurrentEpoch() public view returns (uint128) {\n        if (block.timestamp < epoch1Start) {\n            return 0;\n        }\n\n        return uint128((block.timestamp - epoch1Start) / epochDuration + 1);\n    }\n\n    /*\n     * Returns the total amount of `tokenAddress` that was locked from beginning to end of epoch identified by `epochId`\n     */\n    function getEpochPoolSize(address tokenAddress, uint128 epochId) public view returns (uint256) {\n        // Premises:\n        // 1. it's impossible to have gaps of uninitialized epochs\n        // - any deposit or withdraw initialize the current epoch which requires the previous one to be initialized\n        if (epochIsInitialized(tokenAddress, epochId)) {\n            return poolSize[tokenAddress][epochId].size;\n        }\n\n        // epochId not initialized and epoch 0 not initialized => there was never any action on this pool\n        if (!epochIsInitialized(tokenAddress, 0)) {\n            return 0;\n        }\n\n        // epoch 0 is initialized => there was an action at some point but none that initialized the epochId\n        // which means the current pool size is equal to the current balance of token held by the staking contract\n        IERC20 token = IERC20(tokenAddress);\n        return token.balanceOf(address(this));\n    }\n\n    /*\n     * Returns the percentage of time left in the current epoch\n     */\n    function currentEpochMultiplier() public view returns (uint128) {\n        uint128 currentEpoch = getCurrentEpoch();\n        uint256 currentEpochEnd = epoch1Start + currentEpoch * epochDuration;\n        uint256 timeLeft = currentEpochEnd - block.timestamp;\n        uint128 multiplier = uint128(timeLeft * BASE_MULTIPLIER / epochDuration);\n\n        return multiplier;\n    }\n\n    function computeNewMultiplier(uint256 prevBalance, uint128 prevMultiplier, uint256 amount, uint128 currentMultiplier) public pure returns (uint128) {\n        uint256 prevAmount = prevBalance.mul(prevMultiplier).div(BASE_MULTIPLIER);\n        uint256 addAmount = amount.mul(currentMultiplier).div(BASE_MULTIPLIER);\n        uint128 newMultiplier = uint128(prevAmount.add(addAmount).mul(BASE_MULTIPLIER).div(prevBalance.add(amount)));\n\n        return newMultiplier;\n    }\n\n    /*\n     * Checks if an epoch is initialized, meaning we have a pool size set for it\n     */\n    function epochIsInitialized(address token, uint128 epochId) public view returns (bool) {\n        return poolSize[token][epochId].set;\n    }\n\n    function getCheckpointBalance(Checkpoint memory c) internal pure returns (uint256) {\n        return c.startBalance.add(c.newDeposits);\n    }\n\n    function getCheckpointEffectiveBalance(Checkpoint memory c) internal pure returns (uint256) {\n        return getCheckpointBalance(c).mul(c.multiplier).div(BASE_MULTIPLIER);\n    }\n\n\n    // Base holding rewards tracking. See ERC20UpgradeableFromERC777Rewardable.\n\n    uint256 constant BASE_MASK     = 0xffffffffffffffffffffffff000000000000000000000000;\n    uint256 constant BALANCE_MASK  = 0x000000000000000000000000ffffffffffffffffffffffff;\n\n    uint256 constant SHIFT = 2 ** 128;\n\n    // 60 sec * 60 min * 24 hours * 360 days (mortgage year)\n    uint256 constant SECONDS_PER_YEAR = 31104000;\n\n    // Start time of rewards earning. June 1st 2022.\n    uint256 constant STARTING_TIME = 1654041600;\n\n    /**\n     * @dev\n     */\n    function _getBalance(uint256 balanceStorage) private view returns (uint256) {\n        return balanceStorage & BALANCE_MASK;\n    }\n\n    /**\n     * @dev\n     */\n    function _getBase(uint256 balanceStorage) private view returns (uint256) {\n        uint256 base = (balanceStorage & BASE_MASK).div(SHIFT);\n\n        if (base == 0) {\n            base = block.timestamp;\n            if (_getBalance(balanceStorage) > 0) {\n                base = STARTING_TIME;\n            }\n        }\n        return base;\n    }\n\n    /**\n     * @dev\n     */\n    function _getTokenSeconds(uint256 balanceStorage) private view returns (uint256) {\n        return (block.timestamp.sub(_getBase(balanceStorage)).mul(_getBalance(balanceStorage)));\n    }\n\n    /**\n     * @dev\n     */\n    function _setBalance(address account, address tokenAddress, uint256 balance) private {\n        uint256 balanceStorage = balances[account][tokenAddress];\n\n        if (balance == 0) {\n            _accrued[account] += _getTokenSeconds(balanceStorage).div(SECONDS_PER_YEAR);\n            balances[account][tokenAddress] = 0;\n        } else {\n            uint256 newBase = block.timestamp;\n            if (_getTokenSeconds(balanceStorage).div(balance) < block.timestamp) {\n                newBase = block.timestamp.sub(_getTokenSeconds(balanceStorage).div(balance));\n            } else {\n                _accrued[account] += _getTokenSeconds(balanceStorage).div(SECONDS_PER_YEAR);\n            }\n            balances[account][tokenAddress] = newBase.mul(SHIFT) | (balance & BALANCE_MASK);\n        }\n    }\n\n    /**\n     * @dev\n     */\n    function getAndClearReward(address account, address tokenAddress) external returns (uint256) {\n        require(isApproved[msg.sender], \"Caller must be an approved\");\n\n        uint256 reward = _getTokenSeconds(balances[account][tokenAddress]).div(SECONDS_PER_YEAR);\n\n        reward += _accrued[account];\n        _accrued[account] = 0;\n\n        balances[account][tokenAddress] = block.timestamp.mul(SHIFT) | ((balances[account][tokenAddress]) & BALANCE_MASK);\n\n        return reward;\n    }\n}\n\n",
  "sourcePath": "/src/contracts/Staking/Staking3.sol",
  "updatedAt": "2022-08-11T19:21:55.327Z",
  "userdoc": {
    "kind": "user",
    "methods": {},
    "version": 1
  }
}