{
  "contractName": "Timelock",
  "abi": [
    {
      "inputs": [
        {
          "internalType": "address",
          "name": "admin_",
          "type": "address"
        },
        {
          "internalType": "uint256",
          "name": "delay_",
          "type": "uint256"
        },
        {
          "internalType": "uint256",
          "name": "minDelay_",
          "type": "uint256"
        }
      ],
      "stateMutability": "nonpayable",
      "type": "constructor"
    },
    {
      "anonymous": false,
      "inputs": [
        {
          "indexed": true,
          "internalType": "bytes32",
          "name": "txHash",
          "type": "bytes32"
        },
        {
          "indexed": true,
          "internalType": "address",
          "name": "target",
          "type": "address"
        },
        {
          "indexed": false,
          "internalType": "uint256",
          "name": "value",
          "type": "uint256"
        },
        {
          "indexed": false,
          "internalType": "string",
          "name": "signature",
          "type": "string"
        },
        {
          "indexed": false,
          "internalType": "bytes",
          "name": "data",
          "type": "bytes"
        },
        {
          "indexed": false,
          "internalType": "uint256",
          "name": "eta",
          "type": "uint256"
        }
      ],
      "name": "CancelTransaction",
      "type": "event"
    },
    {
      "anonymous": false,
      "inputs": [
        {
          "indexed": true,
          "internalType": "bytes32",
          "name": "txHash",
          "type": "bytes32"
        },
        {
          "indexed": true,
          "internalType": "address",
          "name": "target",
          "type": "address"
        },
        {
          "indexed": false,
          "internalType": "uint256",
          "name": "value",
          "type": "uint256"
        },
        {
          "indexed": false,
          "internalType": "string",
          "name": "signature",
          "type": "string"
        },
        {
          "indexed": false,
          "internalType": "bytes",
          "name": "data",
          "type": "bytes"
        },
        {
          "indexed": false,
          "internalType": "uint256",
          "name": "eta",
          "type": "uint256"
        }
      ],
      "name": "ExecuteTransaction",
      "type": "event"
    },
    {
      "anonymous": false,
      "inputs": [
        {
          "indexed": true,
          "internalType": "address",
          "name": "newAdmin",
          "type": "address"
        }
      ],
      "name": "NewAdmin",
      "type": "event"
    },
    {
      "anonymous": false,
      "inputs": [
        {
          "indexed": true,
          "internalType": "uint256",
          "name": "newDelay",
          "type": "uint256"
        }
      ],
      "name": "NewDelay",
      "type": "event"
    },
    {
      "anonymous": false,
      "inputs": [
        {
          "indexed": true,
          "internalType": "address",
          "name": "newPendingAdmin",
          "type": "address"
        }
      ],
      "name": "NewPendingAdmin",
      "type": "event"
    },
    {
      "anonymous": false,
      "inputs": [
        {
          "indexed": true,
          "internalType": "bytes32",
          "name": "txHash",
          "type": "bytes32"
        },
        {
          "indexed": true,
          "internalType": "address",
          "name": "target",
          "type": "address"
        },
        {
          "indexed": false,
          "internalType": "uint256",
          "name": "value",
          "type": "uint256"
        },
        {
          "indexed": false,
          "internalType": "string",
          "name": "signature",
          "type": "string"
        },
        {
          "indexed": false,
          "internalType": "bytes",
          "name": "data",
          "type": "bytes"
        },
        {
          "indexed": false,
          "internalType": "uint256",
          "name": "eta",
          "type": "uint256"
        }
      ],
      "name": "QueueTransaction",
      "type": "event"
    },
    {
      "inputs": [],
      "name": "GRACE_PERIOD",
      "outputs": [
        {
          "internalType": "uint256",
          "name": "",
          "type": "uint256"
        }
      ],
      "stateMutability": "view",
      "type": "function"
    },
    {
      "inputs": [],
      "name": "MAXIMUM_DELAY",
      "outputs": [
        {
          "internalType": "uint256",
          "name": "",
          "type": "uint256"
        }
      ],
      "stateMutability": "view",
      "type": "function"
    },
    {
      "inputs": [],
      "name": "MINIMUM_DELAY",
      "outputs": [
        {
          "internalType": "uint256",
          "name": "",
          "type": "uint256"
        }
      ],
      "stateMutability": "view",
      "type": "function"
    },
    {
      "inputs": [],
      "name": "admin",
      "outputs": [
        {
          "internalType": "address",
          "name": "",
          "type": "address"
        }
      ],
      "stateMutability": "view",
      "type": "function"
    },
    {
      "inputs": [],
      "name": "delay",
      "outputs": [
        {
          "internalType": "uint256",
          "name": "",
          "type": "uint256"
        }
      ],
      "stateMutability": "view",
      "type": "function"
    },
    {
      "inputs": [],
      "name": "pendingAdmin",
      "outputs": [
        {
          "internalType": "address",
          "name": "",
          "type": "address"
        }
      ],
      "stateMutability": "view",
      "type": "function"
    },
    {
      "inputs": [
        {
          "internalType": "bytes32",
          "name": "",
          "type": "bytes32"
        }
      ],
      "name": "queuedTransactions",
      "outputs": [
        {
          "internalType": "bool",
          "name": "",
          "type": "bool"
        }
      ],
      "stateMutability": "view",
      "type": "function"
    },
    {
      "stateMutability": "payable",
      "type": "receive"
    },
    {
      "inputs": [
        {
          "internalType": "uint256",
          "name": "delay_",
          "type": "uint256"
        }
      ],
      "name": "setDelay",
      "outputs": [],
      "stateMutability": "nonpayable",
      "type": "function"
    },
    {
      "inputs": [],
      "name": "acceptAdmin",
      "outputs": [],
      "stateMutability": "nonpayable",
      "type": "function"
    },
    {
      "inputs": [
        {
          "internalType": "address",
          "name": "pendingAdmin_",
          "type": "address"
        }
      ],
      "name": "setPendingAdmin",
      "outputs": [],
      "stateMutability": "nonpayable",
      "type": "function"
    },
    {
      "inputs": [
        {
          "internalType": "address",
          "name": "target",
          "type": "address"
        },
        {
          "internalType": "uint256",
          "name": "value",
          "type": "uint256"
        },
        {
          "internalType": "string",
          "name": "signature",
          "type": "string"
        },
        {
          "internalType": "bytes",
          "name": "data",
          "type": "bytes"
        },
        {
          "internalType": "uint256",
          "name": "eta",
          "type": "uint256"
        }
      ],
      "name": "queueTransaction",
      "outputs": [
        {
          "internalType": "bytes32",
          "name": "",
          "type": "bytes32"
        }
      ],
      "stateMutability": "nonpayable",
      "type": "function"
    },
    {
      "inputs": [
        {
          "internalType": "address",
          "name": "target",
          "type": "address"
        },
        {
          "internalType": "uint256",
          "name": "value",
          "type": "uint256"
        },
        {
          "internalType": "string",
          "name": "signature",
          "type": "string"
        },
        {
          "internalType": "bytes",
          "name": "data",
          "type": "bytes"
        },
        {
          "internalType": "uint256",
          "name": "eta",
          "type": "uint256"
        }
      ],
      "name": "cancelTransaction",
      "outputs": [],
      "stateMutability": "nonpayable",
      "type": "function"
    },
    {
      "inputs": [
        {
          "internalType": "address",
          "name": "target",
          "type": "address"
        },
        {
          "internalType": "uint256",
          "name": "value",
          "type": "uint256"
        },
        {
          "internalType": "string",
          "name": "signature",
          "type": "string"
        },
        {
          "internalType": "bytes",
          "name": "data",
          "type": "bytes"
        },
        {
          "internalType": "uint256",
          "name": "eta",
          "type": "uint256"
        }
      ],
      "name": "executeTransaction",
      "outputs": [
        {
          "internalType": "bytes",
          "name": "",
          "type": "bytes"
        }
      ],
      "stateMutability": "payable",
      "type": "function"
    },
    {
      "inputs": [
        {
          "internalType": "address",
          "name": "target",
          "type": "address"
        },
        {
          "internalType": "uint256",
          "name": "value",
          "type": "uint256"
        },
        {
          "internalType": "string",
          "name": "signature",
          "type": "string"
        },
        {
          "internalType": "bytes",
          "name": "data",
          "type": "bytes"
        },
        {
          "internalType": "uint256",
          "name": "eta",
          "type": "uint256"
        }
      ],
      "name": "getTxHash",
      "outputs": [
        {
          "internalType": "bytes32",
          "name": "",
          "type": "bytes32"
        }
      ],
      "stateMutability": "pure",
      "type": "function"
    },
    {
      "inputs": [
        {
          "internalType": "address",
          "name": "operator",
          "type": "address"
        },
        {
          "internalType": "address",
          "name": "from",
          "type": "address"
        },
        {
          "internalType": "address",
          "name": "to",
          "type": "address"
        },
        {
          "internalType": "uint256",
          "name": "amount",
          "type": "uint256"
        },
        {
          "internalType": "bytes",
          "name": "userData",
          "type": "bytes"
        },
        {
          "internalType": "bytes",
          "name": "operatorData",
          "type": "bytes"
        }
      ],
      "name": "tokensReceived",
      "outputs": [],
      "stateMutability": "pure",
      "type": "function"
    }
  ],
  "bytecode": "0x60a0604052600080546001600160a01b031916731820a4b7618bde71dce8cdc73aab6c95905fad2417905534801561003657600080fd5b5060405161139d38038061139d8339810160408190526100559161023e565b6080819052808210156100c25760405162461bcd60e51b815260206004820152602a60248201527f54696d656c6f636b3a2044656c6179206d75737420657863656564206d696e6960448201526936bab6903232b630bc9760b11b60648201526084015b60405180910390fd5b62278d0082111561012c5760405162461bcd60e51b815260206004820152602e60248201527f54696d656c6f636b3a2044656c6179206d757374206e6f74206578636565642060448201526d36b0bc34b6bab6903232b630bc9760911b60648201526084016100b9565b6001600160a01b0383166101905760405162461bcd60e51b815260206004820152602560248201527f54696d656c6f636b3a2041646d696e206d757374206e6f742062652030206164604482015264647265737360d81b60648201526084016100b9565b600180546001600160a01b0319166001600160a01b038581169190911790915560038390556000546040516329965a1d60e01b815230600482018190527fb281fc8c12954d22544db45de3159a39272895b169a852b314f9cc762e44c53b602483015260448201529116906329965a1d90606401600060405180830381600087803b15801561021e57600080fd5b505af1158015610232573d6000803e3d6000fd5b50505050505050610281565b60008060006060848603121561025357600080fd5b83516001600160a01b038116811461026a57600080fd5b602085015160409095015190969495509392505050565b6080516110fa6102a36000396000818161025d0152610ac001526110fa6000f3fe6080604052600436106100eb5760003560e01c8063591fcdfe1161008a578063c1a287e211610059578063c1a287e21461027f578063e177246e14610296578063f2b06537146102b6578063f851a440146102f657600080fd5b8063591fcdfe146101fe5780636a42b8f81461021e5780637d645fab14610234578063b1b43ae51461024b57600080fd5b80630e18b681116100c65780630e18b6811461017157806326782247146101865780633a66f901146101be5780634dd18bf5146101de57600080fd5b806223de29146100f757806304a715761461011e5780630825f38f1461015157600080fd5b366100f257005b600080fd5b34801561010357600080fd5b5061011c610112366004610cf3565b5050505050505050565b005b34801561012a57600080fd5b5061013e610139366004610e43565b610316565b6040519081526020015b60405180910390f35b61016461015f366004610e43565b610352565b6040516101489190610f50565b34801561017d57600080fd5b5061011c6106a5565b34801561019257600080fd5b506002546101a6906001600160a01b031681565b6040516001600160a01b039091168152602001610148565b3480156101ca57600080fd5b5061013e6101d9366004610e43565b610787565b3480156101ea57600080fd5b5061011c6101f9366004610f63565b6108f8565b34801561020a57600080fd5b5061011c610219366004610e43565b6109cf565b34801561022a57600080fd5b5061013e60035481565b34801561024057600080fd5b5061013e62278d0081565b34801561025757600080fd5b5061013e7f000000000000000000000000000000000000000000000000000000000000000081565b34801561028b57600080fd5b5061013e6212750081565b3480156102a257600080fd5b5061011c6102b1366004610f7e565b610a49565b3480156102c257600080fd5b506102e66102d1366004610f7e565b60046020526000908152604090205460ff1681565b6040519015158152602001610148565b34801561030257600080fd5b506001546101a6906001600160a01b031681565b60008585858585604051602001610331959493929190610f97565b60405160208183030381529060405280519060200120905095945050505050565b6001546060906001600160a01b031633146103c05760405162461bcd60e51b8152602060048201526024808201527f54696d656c6f636b3a2043616c6c206d75737420636f6d652066726f6d20616460448201526336b4b71760e11b60648201526084015b60405180910390fd5b60006103cf8787878787610316565b60008181526004602052604090205490915060ff166104565760405162461bcd60e51b815260206004820152602960248201527f54696d656c6f636b3a205472616e73616374696f6e206861736e27742062656560448201527f6e207175657565642e000000000000000000000000000000000000000000000060648201526084016103b7565b824210156104cc5760405162461bcd60e51b815260206004820152603160248201527f54696d656c6f636b3a205472616e73616374696f6e206861736e27742073757260448201527f7061737365642074696d65206c6f636b2e00000000000000000000000000000060648201526084016103b7565b6104d98362127500610c00565b4211156105285760405162461bcd60e51b815260206004820152601f60248201527f54696d656c6f636b3a205472616e73616374696f6e206973207374616c652e0060448201526064016103b7565b6000818152600460205260409020805460ff19169055845160609061054e57508361057a565b858051906020012085604051602001610568929190610fe4565b60405160208183030381529060405290505b600080896001600160a01b03168984604051610596919061102c565b60006040518083038185875af1925050503d80600081146105d3576040519150601f19603f3d011682016040523d82523d6000602084013e6105d8565b606091505b5091509150816106505760405162461bcd60e51b815260206004820152602960248201527f54696d656c6f636b3a205472616e73616374696f6e20657865637574696f6e2060448201527f72657665727465642e000000000000000000000000000000000000000000000060648201526084016103b7565b896001600160a01b0316847fa560e3198060a2f10670c1ec5b403077ea6ae93ca8de1c32b451dc1a943cd6e78b8b8b8b6040516106909493929190611048565b60405180910390a39998505050505050505050565b6002546001600160a01b031633146107255760405162461bcd60e51b815260206004820152602b60248201527f54696d656c6f636b3a2043616c6c206d75737420636f6d652066726f6d20706560448201527f6e64696e6741646d696e2e00000000000000000000000000000000000000000060648201526084016103b7565b60018054337fffffffffffffffffffffffff000000000000000000000000000000000000000091821681179092556002805490911690556040517f71614071b88dee5e0b2ae578a9dd7b2ebbe9ae832ba419dc0242cd065a290b6c90600090a2565b6001546000906001600160a01b031633146107f05760405162461bcd60e51b8152602060048201526024808201527f54696d656c6f636b3a2043616c6c206d75737420636f6d652066726f6d20616460448201526336b4b71760e11b60648201526084016103b7565b6108036003546107fd4290565b90610c00565b8210156108785760405162461bcd60e51b815260206004820152603760248201527f54696d656c6f636b3a20457374696d6174656420657865637574696f6e20626c60448201527f6f636b206d75737420736174697366792064656c61792e00000000000000000060648201526084016103b7565b60006108878787878787610316565b60008181526004602052604090819020805460ff19166001179055519091506001600160a01b0388169082907f76e2796dc3a81d57b0e8504b647febcbeeb5f4af818e164f11eef8131a6a763f906108e6908a908a908a908a90611048565b60405180910390a39695505050505050565b33301461096d5760405162461bcd60e51b815260206004820152602760248201527f54696d656c6f636b3a2043616c6c206d75737420636f6d652066726f6d20546960448201527f6d656c6f636b2e0000000000000000000000000000000000000000000000000060648201526084016103b7565b600280547fffffffffffffffffffffffff0000000000000000000000000000000000000000166001600160a01b0383169081179091556040517f69d78e38a01985fbb1462961809b4b2d65531bc93b2b94037f3334b82ca4a75690600090a250565b6001546001600160a01b03163314610a355760405162461bcd60e51b8152602060048201526024808201527f54696d656c6f636b3a2043616c6c206d75737420636f6d652066726f6d20616460448201526336b4b71760e11b60648201526084016103b7565b610a428585858585610c13565b5050505050565b333014610abe5760405162461bcd60e51b815260206004820152602760248201527f54696d656c6f636b3a2043616c6c206d75737420636f6d652066726f6d20546960448201527f6d656c6f636b2e0000000000000000000000000000000000000000000000000060648201526084016103b7565b7f0000000000000000000000000000000000000000000000000000000000000000811015610b545760405162461bcd60e51b815260206004820152602a60248201527f54696d656c6f636b3a2044656c6179206d75737420657863656564206d696e6960448201527f6d756d2064656c61792e0000000000000000000000000000000000000000000060648201526084016103b7565b62278d00811115610bcd5760405162461bcd60e51b815260206004820152602e60248201527f54696d656c6f636b3a2044656c6179206d757374206e6f74206578636565642060448201527f6d6178696d756d2064656c61792e00000000000000000000000000000000000060648201526084016103b7565b600381905560405181907f948b1f6a42ee138b7e34058ba85a37f716d55ff25ff05a763f15bed6a04c8d2c90600090a250565b6000610c0c8284611085565b9392505050565b6000610c228686868686610316565b60008181526004602052604090819020805460ff19169055519091506001600160a01b0387169082907f2fffc091a501fd91bfbff27141450d3acb40fb8e6d8382b243ec7a812a3aaf8790610c7e908990899089908990611048565b60405180910390a3505050505050565b80356001600160a01b0381168114610ca557600080fd5b919050565b60008083601f840112610cbc57600080fd5b50813567ffffffffffffffff811115610cd457600080fd5b602083019150836020828501011115610cec57600080fd5b9250929050565b60008060008060008060008060c0898b031215610d0f57600080fd5b610d1889610c8e565b9750610d2660208a01610c8e565b9650610d3460408a01610c8e565b955060608901359450608089013567ffffffffffffffff80821115610d5857600080fd5b610d648c838d01610caa565b909650945060a08b0135915080821115610d7d57600080fd5b50610d8a8b828c01610caa565b999c989b5096995094979396929594505050565b7f4e487b7100000000000000000000000000000000000000000000000000000000600052604160045260246000fd5b600067ffffffffffffffff80841115610de857610de8610d9e565b604051601f8501601f19908116603f01168101908282118183101715610e1057610e10610d9e565b81604052809350858152868686011115610e2957600080fd5b858560208301376000602087830101525050509392505050565b600080600080600060a08688031215610e5b57600080fd5b610e6486610c8e565b945060208601359350604086013567ffffffffffffffff80821115610e8857600080fd5b818801915088601f830112610e9c57600080fd5b610eab89833560208501610dcd565b94506060880135915080821115610ec157600080fd5b508601601f81018813610ed357600080fd5b610ee288823560208401610dcd565b95989497509295608001359392505050565b60005b83811015610f0f578181015183820152602001610ef7565b83811115610f1e576000848401525b50505050565b60008151808452610f3c816020860160208601610ef4565b601f01601f19169290920160200192915050565b602081526000610c0c6020830184610f24565b600060208284031215610f7557600080fd5b610c0c82610c8e565b600060208284031215610f9057600080fd5b5035919050565b6001600160a01b038616815284602082015260a060408201526000610fbf60a0830186610f24565b8281036060840152610fd18186610f24565b9150508260808301529695505050505050565b7fffffffff00000000000000000000000000000000000000000000000000000000831681526000825161101e816004850160208701610ef4565b919091016004019392505050565b6000825161103e818460208701610ef4565b9190910192915050565b8481526080602082015260006110616080830186610f24565b82810360408401526110738186610f24565b91505082606083015295945050505050565b600082198211156110bf577f4e487b7100000000000000000000000000000000000000000000000000000000600052601160045260246000fd5b50019056fea264697066735822122082811d187e8a0f9e06030b74b973f473a6de5845b8e985af6c49fda8498e20cb64736f6c63430008090033",
  "immutableReferences": {
    "22884": [
      {
        "length": 32,
        "start": 605
      },
      {
        "length": 32,
        "start": 2752
      }
    ]
  },
  "source": "// SPDX-License-Identifier: GPL-3.0-or-later\npragma solidity ^0.8.4;\n\nimport '../@openzeppelin/contracts/utils/math/SafeMath.sol';\nimport '../@openzeppelin/contracts/token/ERC777/IERC777Recipient.sol';\nimport '../@openzeppelin/contracts/utils/introspection/IERC1820Registry.sol';\n\n// Forked from Compound\n// See https://github.com/compound-finance/compound-protocol/blob/master/contracts/Timelock.sol\ncontract Timelock is IERC777Recipient {\n    using SafeMath for uint;\n\n    IERC1820Registry private _erc1820 = IERC1820Registry(0x1820a4B7618BdE71Dce8cdc73aAB6C95905faD24);\n    bytes32 constant private TOKENS_RECIPIENT_INTERFACE_HASH = keccak256(\"ERC777TokensRecipient\");\n\n\n    event NewAdmin(address indexed newAdmin);\n    event NewPendingAdmin(address indexed newPendingAdmin);\n    event NewDelay(uint indexed newDelay);\n    event CancelTransaction(bytes32 indexed txHash, address indexed target, uint value, string signature,  bytes data, uint eta);\n    event ExecuteTransaction(bytes32 indexed txHash, address indexed target, uint value, string signature,  bytes data, uint eta);\n    event QueueTransaction(bytes32 indexed txHash, address indexed target, uint value, string signature, bytes data, uint eta);\n\n    uint public constant GRACE_PERIOD = 14 days;\n    uint public immutable MINIMUM_DELAY;\n    uint public constant MAXIMUM_DELAY = 30 days;\n\n    address public admin;\n    address public pendingAdmin;\n    uint public delay;\n\n    mapping (bytes32 => bool) public queuedTransactions;\n\n\n    constructor(address admin_, uint delay_, uint minDelay_) {\n        MINIMUM_DELAY = minDelay_;\n        require(delay_ >= minDelay_, \"Timelock: Delay must exceed minimum delay.\");\n        require(delay_ <= MAXIMUM_DELAY, \"Timelock: Delay must not exceed maximum delay.\");\n        require(admin_ != address(0), \"Timelock: Admin must not be 0 address\");\n\n        admin = admin_;\n        delay = delay_;\n\n        _erc1820.setInterfaceImplementer(address(this), TOKENS_RECIPIENT_INTERFACE_HASH, address(this));\n    }\n\n    receive() external payable { }\n\n    function setDelay(uint delay_) public {\n        require(msg.sender == address(this), \"Timelock: Call must come from Timelock.\");\n        require(delay_ >= MINIMUM_DELAY, \"Timelock: Delay must exceed minimum delay.\");\n        require(delay_ <= MAXIMUM_DELAY, \"Timelock: Delay must not exceed maximum delay.\");\n        delay = delay_;\n\n        emit NewDelay(delay);\n    }\n\n    function acceptAdmin() public {\n        require(msg.sender == pendingAdmin, \"Timelock: Call must come from pendingAdmin.\");\n        admin = msg.sender;\n        pendingAdmin = address(0);\n\n        emit NewAdmin(admin);\n    }\n\n    function setPendingAdmin(address pendingAdmin_) public {\n        require(msg.sender == address(this), \"Timelock: Call must come from Timelock.\");\n        pendingAdmin = pendingAdmin_;\n\n        emit NewPendingAdmin(pendingAdmin);\n    }\n\n    function queueTransaction(address target, uint value, string memory signature, bytes memory data, uint eta) public virtual returns (bytes32) {\n        require(msg.sender == admin, \"Timelock: Call must come from admin.\");\n        require(eta >= getBlockTimestamp().add(delay), \"Timelock: Estimated execution block must satisfy delay.\");\n\n        bytes32 txHash = getTxHash(target, value, signature, data, eta);\n        queuedTransactions[txHash] = true;\n\n        emit QueueTransaction(txHash, target, value, signature, data, eta);\n        return txHash;\n    }\n\n    function cancelTransaction(address target, uint value, string memory signature, bytes memory data, uint eta) public {\n        require(msg.sender == admin, \"Timelock: Call must come from admin.\");\n\n        _cancelTransaction(target, value, signature, data, eta);\n    }\n\n    function _cancelTransaction(address target, uint value, string memory signature, bytes memory data, uint eta) internal {\n        bytes32 txHash = getTxHash(target, value, signature, data, eta);\n        queuedTransactions[txHash] = false;\n\n        emit CancelTransaction(txHash, target, value, signature, data, eta);\n    }\n\n    function executeTransaction(address target, uint value, string memory signature, bytes memory data, uint eta) public virtual payable returns (bytes memory) {\n        require(msg.sender == admin, \"Timelock: Call must come from admin.\");\n\n        bytes32 txHash = getTxHash(target, value, signature, data, eta);\n        require(queuedTransactions[txHash], \"Timelock: Transaction hasn't been queued.\");\n        require(getBlockTimestamp() >= eta, \"Timelock: Transaction hasn't surpassed time lock.\");\n        require(getBlockTimestamp() <= eta.add(GRACE_PERIOD), \"Timelock: Transaction is stale.\");\n\n        queuedTransactions[txHash] = false;\n\n        bytes memory callData;\n\n        if (bytes(signature).length == 0) {\n            callData = data;\n        } else {\n            callData = abi.encodePacked(bytes4(keccak256(bytes(signature))), data);\n        }\n\n        // solhint-disable-next-line avoid-low-level-calls\n        (bool success, bytes memory returnData) = target.call{value: value}(callData); //solhint-disable avoid-call-value\n        require(success, \"Timelock: Transaction execution reverted.\");\n\n        emit ExecuteTransaction(txHash, target, value, signature, data, eta);\n\n        return returnData;\n    }\n\n    function getTxHash(address target, uint value, string memory signature, bytes memory data, uint eta) public pure returns (bytes32) {\n        return keccak256(abi.encode(target, value, signature, data, eta));\n    }\n\n    function getBlockTimestamp() internal view returns (uint) {\n        return block.timestamp;\n    }\n\n    function tokensReceived(\n        address operator,\n        address from,\n        address to,\n        uint256 amount,\n        bytes calldata userData,\n        bytes calldata operatorData\n    ) override pure external {\n        return;\n    }\n}",
  "sourcePath": "/Users/patrick/github/HomeDAO/contracts/Governance/Timelock.sol",
  "compiler": {
    "name": "solc",
    "version": "0.8.9+commit.e5eed63a.Emscripten.clang"
  },
  "schemaVersion": "3.4.8",
  "updatedAt": "2022-08-10T01:41:49.879Z",
  "devdoc": {
    "kind": "dev",
    "methods": {
      "tokensReceived(address,address,address,uint256,bytes,bytes)": {
        "details": "Called by an {IERC777} token contract whenever tokens are being moved or created into a registered account (`to`). The type of operation is conveyed by `from` being the zero address or not. This call occurs _after_ the token contract's state is updated, so {IERC777-balanceOf}, etc., can be used to query the post-operation state. This function may revert to prevent the operation from being executed."
      }
    },
    "version": 1
  },
  "userdoc": {
    "kind": "user",
    "methods": {},
    "version": 1
  }
}